{
	"farms-pools/LandbaseLockPool.sol": {
		"LandbaseLockPool": {
			"abi": [
				{
					"inputs": [
						{
							"internalType": "contract IERC20",
							"name": "_token",
							"type": "address"
						},
						{
							"internalType": "contract IERC20",
							"name": "_receiptToken",
							"type": "address"
						},
						{
							"internalType": "contract IMasterChef",
							"name": "_masterchef",
							"type": "address"
						},
						{
							"internalType": "address",
							"name": "_admin",
							"type": "address"
						},
						{
							"internalType": "address",
							"name": "_treasury",
							"type": "address"
						},
						{
							"internalType": "uint256",
							"name": "_startBlock",
							"type": "uint256"
						},
						{
							"internalType": "uint256",
							"name": "_endBlock",
							"type": "uint256"
						}
					],
					"stateMutability": "nonpayable",
					"type": "constructor"
				},
				{
					"anonymous": false,
					"inputs": [
						{
							"indexed": true,
							"internalType": "address",
							"name": "sender",
							"type": "address"
						},
						{
							"indexed": false,
							"internalType": "uint256",
							"name": "amount",
							"type": "uint256"
						},
						{
							"indexed": false,
							"internalType": "uint256",
							"name": "shares",
							"type": "uint256"
						},
						{
							"indexed": false,
							"internalType": "uint256",
							"name": "lastDepositedTime",
							"type": "uint256"
						}
					],
					"name": "Deposit",
					"type": "event"
				},
				{
					"anonymous": false,
					"inputs": [
						{
							"indexed": true,
							"internalType": "address",
							"name": "sender",
							"type": "address"
						},
						{
							"indexed": false,
							"internalType": "uint256",
							"name": "performanceFee",
							"type": "uint256"
						},
						{
							"indexed": false,
							"internalType": "uint256",
							"name": "callFee",
							"type": "uint256"
						}
					],
					"name": "Harvest",
					"type": "event"
				},
				{
					"anonymous": false,
					"inputs": [
						{
							"indexed": true,
							"internalType": "address",
							"name": "previousOwner",
							"type": "address"
						},
						{
							"indexed": true,
							"internalType": "address",
							"name": "newOwner",
							"type": "address"
						}
					],
					"name": "OwnershipTransferred",
					"type": "event"
				},
				{
					"anonymous": false,
					"inputs": [],
					"name": "Pause",
					"type": "event"
				},
				{
					"anonymous": false,
					"inputs": [
						{
							"indexed": false,
							"internalType": "address",
							"name": "account",
							"type": "address"
						}
					],
					"name": "Paused",
					"type": "event"
				},
				{
					"anonymous": false,
					"inputs": [],
					"name": "Unpause",
					"type": "event"
				},
				{
					"anonymous": false,
					"inputs": [
						{
							"indexed": false,
							"internalType": "address",
							"name": "account",
							"type": "address"
						}
					],
					"name": "Unpaused",
					"type": "event"
				},
				{
					"anonymous": false,
					"inputs": [
						{
							"indexed": false,
							"internalType": "uint256",
							"name": "endBlock",
							"type": "uint256"
						}
					],
					"name": "UpdateEndBlock",
					"type": "event"
				},
				{
					"anonymous": false,
					"inputs": [
						{
							"indexed": false,
							"internalType": "uint256",
							"name": "startBlock",
							"type": "uint256"
						},
						{
							"indexed": false,
							"internalType": "uint256",
							"name": "endBlock",
							"type": "uint256"
						}
					],
					"name": "UpdateStartAndEndBlocks",
					"type": "event"
				},
				{
					"anonymous": false,
					"inputs": [
						{
							"indexed": true,
							"internalType": "address",
							"name": "sender",
							"type": "address"
						},
						{
							"indexed": false,
							"internalType": "uint256",
							"name": "lastAvgBalance",
							"type": "uint256"
						},
						{
							"indexed": false,
							"internalType": "uint256",
							"name": "lastActionBalance",
							"type": "uint256"
						},
						{
							"indexed": false,
							"internalType": "uint256",
							"name": "lastValidActionBalance",
							"type": "uint256"
						},
						{
							"indexed": false,
							"internalType": "uint256",
							"name": "lastActionBlock",
							"type": "uint256"
						},
						{
							"indexed": false,
							"internalType": "uint256",
							"name": "lastValidActionBlock",
							"type": "uint256"
						}
					],
					"name": "UpdateUserIFO",
					"type": "event"
				},
				{
					"anonymous": false,
					"inputs": [
						{
							"indexed": true,
							"internalType": "address",
							"name": "sender",
							"type": "address"
						},
						{
							"indexed": false,
							"internalType": "uint256",
							"name": "amount",
							"type": "uint256"
						},
						{
							"indexed": false,
							"internalType": "uint256",
							"name": "shares",
							"type": "uint256"
						}
					],
					"name": "Withdraw",
					"type": "event"
				},
				{
					"anonymous": false,
					"inputs": [
						{
							"indexed": true,
							"internalType": "address",
							"name": "sender",
							"type": "address"
						},
						{
							"indexed": false,
							"internalType": "uint256",
							"name": "currentBlock",
							"type": "uint256"
						}
					],
					"name": "ZeroFreeIFO",
					"type": "event"
				},
				{
					"inputs": [],
					"name": "MAX_CALL_FEE",
					"outputs": [
						{
							"internalType": "uint256",
							"name": "",
							"type": "uint256"
						}
					],
					"stateMutability": "view",
					"type": "function"
				},
				{
					"inputs": [],
					"name": "MAX_PERFORMANCE_FEE",
					"outputs": [
						{
							"internalType": "uint256",
							"name": "",
							"type": "uint256"
						}
					],
					"stateMutability": "view",
					"type": "function"
				},
				{
					"inputs": [],
					"name": "MAX_WITHDRAW_FEE",
					"outputs": [
						{
							"internalType": "uint256",
							"name": "",
							"type": "uint256"
						}
					],
					"stateMutability": "view",
					"type": "function"
				},
				{
					"inputs": [],
					"name": "MAX_WITHDRAW_FEE_PERIOD",
					"outputs": [
						{
							"internalType": "uint256",
							"name": "",
							"type": "uint256"
						}
					],
					"stateMutability": "view",
					"type": "function"
				},
				{
					"inputs": [],
					"name": "admin",
					"outputs": [
						{
							"internalType": "address",
							"name": "",
							"type": "address"
						}
					],
					"stateMutability": "view",
					"type": "function"
				},
				{
					"inputs": [],
					"name": "available",
					"outputs": [
						{
							"internalType": "uint256",
							"name": "",
							"type": "uint256"
						}
					],
					"stateMutability": "view",
					"type": "function"
				},
				{
					"inputs": [],
					"name": "balanceOf",
					"outputs": [
						{
							"internalType": "uint256",
							"name": "",
							"type": "uint256"
						}
					],
					"stateMutability": "view",
					"type": "function"
				},
				{
					"inputs": [],
					"name": "calculateHarvestCakeRewards",
					"outputs": [
						{
							"internalType": "uint256",
							"name": "",
							"type": "uint256"
						}
					],
					"stateMutability": "view",
					"type": "function"
				},
				{
					"inputs": [],
					"name": "calculateTotalPendingCakeRewards",
					"outputs": [
						{
							"internalType": "uint256",
							"name": "",
							"type": "uint256"
						}
					],
					"stateMutability": "view",
					"type": "function"
				},
				{
					"inputs": [],
					"name": "callFee",
					"outputs": [
						{
							"internalType": "uint256",
							"name": "",
							"type": "uint256"
						}
					],
					"stateMutability": "view",
					"type": "function"
				},
				{
					"inputs": [
						{
							"internalType": "uint256",
							"name": "_amount",
							"type": "uint256"
						}
					],
					"name": "deposit",
					"outputs": [],
					"stateMutability": "nonpayable",
					"type": "function"
				},
				{
					"inputs": [],
					"name": "emergencyWithdraw",
					"outputs": [],
					"stateMutability": "nonpayable",
					"type": "function"
				},
				{
					"inputs": [],
					"name": "emergencyWithdrawAll",
					"outputs": [],
					"stateMutability": "nonpayable",
					"type": "function"
				},
				{
					"inputs": [],
					"name": "endBlock",
					"outputs": [
						{
							"internalType": "uint256",
							"name": "",
							"type": "uint256"
						}
					],
					"stateMutability": "view",
					"type": "function"
				},
				{
					"inputs": [],
					"name": "getPricePerFullShare",
					"outputs": [
						{
							"internalType": "uint256",
							"name": "",
							"type": "uint256"
						}
					],
					"stateMutability": "view",
					"type": "function"
				},
				{
					"inputs": [
						{
							"internalType": "address",
							"name": "_user",
							"type": "address"
						}
					],
					"name": "getUserCredit",
					"outputs": [
						{
							"internalType": "uint256",
							"name": "avgBalance",
							"type": "uint256"
						}
					],
					"stateMutability": "view",
					"type": "function"
				},
				{
					"inputs": [],
					"name": "harvest",
					"outputs": [],
					"stateMutability": "nonpayable",
					"type": "function"
				},
				{
					"inputs": [
						{
							"internalType": "address",
							"name": "_token",
							"type": "address"
						}
					],
					"name": "inCaseTokensGetStuck",
					"outputs": [],
					"stateMutability": "nonpayable",
					"type": "function"
				},
				{
					"inputs": [],
					"name": "lastHarvestedTime",
					"outputs": [
						{
							"internalType": "uint256",
							"name": "",
							"type": "uint256"
						}
					],
					"stateMutability": "view",
					"type": "function"
				},
				{
					"inputs": [],
					"name": "masterchef",
					"outputs": [
						{
							"internalType": "contract IMasterChef",
							"name": "",
							"type": "address"
						}
					],
					"stateMutability": "view",
					"type": "function"
				},
				{
					"inputs": [],
					"name": "owner",
					"outputs": [
						{
							"internalType": "address",
							"name": "",
							"type": "address"
						}
					],
					"stateMutability": "view",
					"type": "function"
				},
				{
					"inputs": [],
					"name": "pause",
					"outputs": [],
					"stateMutability": "nonpayable",
					"type": "function"
				},
				{
					"inputs": [],
					"name": "paused",
					"outputs": [
						{
							"internalType": "bool",
							"name": "",
							"type": "bool"
						}
					],
					"stateMutability": "view",
					"type": "function"
				},
				{
					"inputs": [],
					"name": "performanceFee",
					"outputs": [
						{
							"internalType": "uint256",
							"name": "",
							"type": "uint256"
						}
					],
					"stateMutability": "view",
					"type": "function"
				},
				{
					"inputs": [],
					"name": "receiptToken",
					"outputs": [
						{
							"internalType": "contract IERC20",
							"name": "",
							"type": "address"
						}
					],
					"stateMutability": "view",
					"type": "function"
				},
				{
					"inputs": [],
					"name": "renounceOwnership",
					"outputs": [],
					"stateMutability": "nonpayable",
					"type": "function"
				},
				{
					"inputs": [
						{
							"internalType": "address",
							"name": "_admin",
							"type": "address"
						}
					],
					"name": "setAdmin",
					"outputs": [],
					"stateMutability": "nonpayable",
					"type": "function"
				},
				{
					"inputs": [
						{
							"internalType": "uint256",
							"name": "_callFee",
							"type": "uint256"
						}
					],
					"name": "setCallFee",
					"outputs": [],
					"stateMutability": "nonpayable",
					"type": "function"
				},
				{
					"inputs": [
						{
							"internalType": "uint256",
							"name": "_performanceFee",
							"type": "uint256"
						}
					],
					"name": "setPerformanceFee",
					"outputs": [],
					"stateMutability": "nonpayable",
					"type": "function"
				},
				{
					"inputs": [
						{
							"internalType": "address",
							"name": "_treasury",
							"type": "address"
						}
					],
					"name": "setTreasury",
					"outputs": [],
					"stateMutability": "nonpayable",
					"type": "function"
				},
				{
					"inputs": [
						{
							"internalType": "uint256",
							"name": "_withdrawFee",
							"type": "uint256"
						}
					],
					"name": "setWithdrawFee",
					"outputs": [],
					"stateMutability": "nonpayable",
					"type": "function"
				},
				{
					"inputs": [
						{
							"internalType": "uint256",
							"name": "_withdrawFeePeriod",
							"type": "uint256"
						}
					],
					"name": "setWithdrawFeePeriod",
					"outputs": [],
					"stateMutability": "nonpayable",
					"type": "function"
				},
				{
					"inputs": [],
					"name": "startBlock",
					"outputs": [
						{
							"internalType": "uint256",
							"name": "",
							"type": "uint256"
						}
					],
					"stateMutability": "view",
					"type": "function"
				},
				{
					"inputs": [],
					"name": "token",
					"outputs": [
						{
							"internalType": "contract IERC20",
							"name": "",
							"type": "address"
						}
					],
					"stateMutability": "view",
					"type": "function"
				},
				{
					"inputs": [],
					"name": "totalShares",
					"outputs": [
						{
							"internalType": "uint256",
							"name": "",
							"type": "uint256"
						}
					],
					"stateMutability": "view",
					"type": "function"
				},
				{
					"inputs": [
						{
							"internalType": "address",
							"name": "newOwner",
							"type": "address"
						}
					],
					"name": "transferOwnership",
					"outputs": [],
					"stateMutability": "nonpayable",
					"type": "function"
				},
				{
					"inputs": [],
					"name": "treasury",
					"outputs": [
						{
							"internalType": "address",
							"name": "",
							"type": "address"
						}
					],
					"stateMutability": "view",
					"type": "function"
				},
				{
					"inputs": [],
					"name": "unpause",
					"outputs": [],
					"stateMutability": "nonpayable",
					"type": "function"
				},
				{
					"inputs": [
						{
							"internalType": "uint256",
							"name": "_endBlock",
							"type": "uint256"
						}
					],
					"name": "updateEndBlock",
					"outputs": [],
					"stateMutability": "nonpayable",
					"type": "function"
				},
				{
					"inputs": [
						{
							"internalType": "uint256",
							"name": "_startBlock",
							"type": "uint256"
						},
						{
							"internalType": "uint256",
							"name": "_endBlock",
							"type": "uint256"
						}
					],
					"name": "updateStartAndEndBlocks",
					"outputs": [],
					"stateMutability": "nonpayable",
					"type": "function"
				},
				{
					"inputs": [
						{
							"internalType": "address",
							"name": "",
							"type": "address"
						}
					],
					"name": "userIFOInfo",
					"outputs": [
						{
							"internalType": "uint256",
							"name": "lastActionBalance",
							"type": "uint256"
						},
						{
							"internalType": "uint256",
							"name": "lastValidActionBalance",
							"type": "uint256"
						},
						{
							"internalType": "uint256",
							"name": "lastActionBlock",
							"type": "uint256"
						},
						{
							"internalType": "uint256",
							"name": "lastValidActionBlock",
							"type": "uint256"
						},
						{
							"internalType": "uint256",
							"name": "lastAvgBalance",
							"type": "uint256"
						}
					],
					"stateMutability": "view",
					"type": "function"
				},
				{
					"inputs": [
						{
							"internalType": "address",
							"name": "",
							"type": "address"
						}
					],
					"name": "userInfo",
					"outputs": [
						{
							"internalType": "uint256",
							"name": "shares",
							"type": "uint256"
						},
						{
							"internalType": "uint256",
							"name": "lastDepositedTime",
							"type": "uint256"
						},
						{
							"internalType": "uint256",
							"name": "cakeAtLastUserAction",
							"type": "uint256"
						},
						{
							"internalType": "uint256",
							"name": "lastUserActionTime",
							"type": "uint256"
						}
					],
					"stateMutability": "view",
					"type": "function"
				},
				{
					"inputs": [
						{
							"internalType": "uint256",
							"name": "_shares",
							"type": "uint256"
						}
					],
					"name": "withdraw",
					"outputs": [],
					"stateMutability": "nonpayable",
					"type": "function"
				},
				{
					"inputs": [],
					"name": "withdrawAll",
					"outputs": [],
					"stateMutability": "nonpayable",
					"type": "function"
				},
				{
					"inputs": [],
					"name": "withdrawFee",
					"outputs": [
						{
							"internalType": "uint256",
							"name": "",
							"type": "uint256"
						}
					],
					"stateMutability": "view",
					"type": "function"
				},
				{
					"inputs": [],
					"name": "withdrawFeePeriod",
					"outputs": [
						{
							"internalType": "uint256",
							"name": "",
							"type": "uint256"
						}
					],
					"stateMutability": "view",
					"type": "function"
				}
			],
			"devdoc": {
				"kind": "dev",
				"methods": {
					"available()": {
						"details": "The contract puts 100% of the tokens to work."
					},
					"balanceOf()": {
						"details": "It includes tokens held by the contract and held in MasterChef"
					},
					"calculateHarvestCakeRewards()": {
						"returns": {
							"_0": "Expected reward to collect in CAKE"
						}
					},
					"calculateTotalPendingCakeRewards()": {
						"returns": {
							"_0": "Returns total pending cake rewards"
						}
					},
					"constructor": {
						"params": {
							"_admin": ": address of the admin",
							"_endBlock": ": IFO end block height",
							"_masterchef": ": MasterChef contract",
							"_receiptToken": ": Syrup token contract",
							"_startBlock": ": IFO start block height",
							"_token": ": Cake token contract",
							"_treasury": ": address of the treasury (collects fees)"
						}
					},
					"deposit(uint256)": {
						"details": "Only possible when contract not paused.",
						"params": {
							"_amount": ": number of tokens to deposit (in CAKE)"
						}
					},
					"emergencyWithdraw()": {
						"details": "EMERGENCY ONLY. Only callable by the contract admin."
					},
					"getUserCredit(address)": {
						"params": {
							"_user": ": user address"
						}
					},
					"harvest()": {
						"details": "Only possible when contract not paused."
					},
					"owner()": {
						"details": "Returns the address of the current owner."
					},
					"pause()": {
						"details": "Only possible when contract not paused."
					},
					"paused()": {
						"details": "Returns true if the contract is paused, and false otherwise."
					},
					"renounceOwnership()": {
						"details": "Leaves the contract without owner. It will not be possible to call `onlyOwner` functions anymore. Can only be called by the current owner. NOTE: Renouncing ownership will leave the contract without an owner, thereby removing any functionality that is only available to the owner."
					},
					"setAdmin(address)": {
						"details": "Only callable by the contract owner."
					},
					"setCallFee(uint256)": {
						"details": "Only callable by the contract admin."
					},
					"setPerformanceFee(uint256)": {
						"details": "Only callable by the contract admin."
					},
					"setTreasury(address)": {
						"details": "Only callable by the contract owner."
					},
					"setWithdrawFee(uint256)": {
						"details": "Only callable by the contract admin."
					},
					"setWithdrawFeePeriod(uint256)": {
						"details": "Only callable by the contract admin."
					},
					"transferOwnership(address)": {
						"details": "Transfers ownership of the contract to a new account (`newOwner`). Can only be called by the current owner."
					},
					"unpause()": {
						"details": "Only possible when contract is paused."
					},
					"updateEndBlock(uint256)": {
						"details": "This function is only callable by owner.",
						"params": {
							"_endBlock": ": the new end block"
						}
					},
					"updateStartAndEndBlocks(uint256,uint256)": {
						"details": "This function is only callable by owner.",
						"params": {
							"_endBlock": ": the new end block",
							"_startBlock": ": the new start block"
						}
					},
					"withdraw(uint256)": {
						"params": {
							"_shares": ": Number of shares to withdraw"
						}
					}
				},
				"version": 1
			},
			"evm": {
				"assembly": "    /* \"farms-pools/LandbaseLockPool.sol\":229:21923  contract LandbaseLockPool is Ownable, Pausable {\r... */\n  mstore(0x40, 0xe0)\n    /* \"farms-pools/LandbaseLockPool.sol\":2041:2044  200 */\n  0xc8\n    /* \"farms-pools/LandbaseLockPool.sol\":2009:2044  uint256 public performanceFee = 200 */\n  0x09\n  sstore\n    /* \"farms-pools/LandbaseLockPool.sol\":2082:2084  25 */\n  0x19\n    /* \"farms-pools/LandbaseLockPool.sol\":2057:2084  uint256 public callFee = 25 */\n  0x0a\n  sstore\n    /* \"farms-pools/LandbaseLockPool.sol\":2129:2131  10 */\n  0x0a\n    /* \"farms-pools/LandbaseLockPool.sol\":2100:2131  uint256 public withdrawFee = 10 */\n  0x0b\n  sstore\n    /* \"farms-pools/LandbaseLockPool.sol\":2256:2264  72 hours */\n  0x03f480\n    /* \"farms-pools/LandbaseLockPool.sol\":2221:2264  uint256 public withdrawFeePeriod = 72 hours */\n  0x0c\n  sstore\n    /* \"farms-pools/LandbaseLockPool.sol\":3365:4094  constructor(\r... */\n  callvalue\n  dup1\n  iszero\n  tag_1\n  jumpi\n  0x00\n  dup1\n  revert\ntag_1:\n  pop\n  mload(0x40)\n  sub(codesize, bytecodeSize)\n  dup1\n  bytecodeSize\n  dup4\n  codecopy\n  dup2\n  dup2\n  add\n  0x40\n  mstore\n  0xe0\n  dup2\n  lt\n  iszero\n  tag_2\n  jumpi\n  0x00\n  dup1\n  revert\ntag_2:\n  pop\n  dup1\n  mload\n  0x20\n  dup3\n  add\n  mload\n  0x40\n  dup4\n  add\n  mload\n  0x60\n  dup5\n  add\n  mload\n  0x80\n  dup6\n  add\n  mload\n  0xa0\n  dup7\n  add\n  mload\n  0xc0\n  swap1\n  swap7\n  add\n  mload\n  swap5\n  swap6\n  swap4\n  swap5\n  swap3\n  swap4\n  swap2\n  swap3\n  swap1\n  swap2\n  swap1\n    /* \"farms-pools/access/Ownable.sol\":910:927  address msgSender */\n  0x00\n    /* \"farms-pools/access/Ownable.sol\":930:942  _msgSender() */\n  tag_7\n    /* \"farms-pools/access/Ownable.sol\":930:940  _msgSender */\n  tag_8\n    /* \"farms-pools/access/Ownable.sol\":930:942  _msgSender() */\n  jump\t// in\ntag_7:\n    /* \"farms-pools/access/Ownable.sol\":953:959  _owner */\n  0x00\n    /* \"farms-pools/access/Ownable.sol\":953:971  _owner = msgSender */\n  dup1\n  sload\n  not(sub(shl(0xa0, 0x01), 0x01))\n  and\n  sub(shl(0xa0, 0x01), 0x01)\n  dup4\n  and\n  swap1\n  dup2\n  or\n  dup3\n  sstore\n    /* \"farms-pools/access/Ownable.sol\":987:1030  OwnershipTransferred(address(0), msgSender) */\n  mload(0x40)\n    /* \"farms-pools/access/Ownable.sol\":953:971  _owner = msgSender */\n  swap3\n  swap4\n  pop\n  swap2\n    /* \"farms-pools/access/Ownable.sol\":987:1030  OwnershipTransferred(address(0), msgSender) */\n  0x8be0079c531659141344cd1fd0a4f28419497f9722a3daafe3b4186f6b6457e0\n  swap1\n    /* \"farms-pools/access/Ownable.sol\":953:959  _owner */\n  dup3\n  swap1\n    /* \"farms-pools/access/Ownable.sol\":987:1030  OwnershipTransferred(address(0), msgSender) */\n  log3\n  pop\n    /* \"farms-pools/utils/Pausable.sol\":977:982  false */\n  0x00\n    /* \"farms-pools/utils/Pausable.sol\":967:982  _paused = false */\n  dup1\n  sload\n  not(shl(0xa0, 0xff))\n  and\n  swap1\n  sstore\n    /* \"farms-pools/LandbaseLockPool.sol\":3610:3622  block.number */\n  number\n    /* \"farms-pools/LandbaseLockPool.sol\":3610:3636  block.number < _startBlock */\n  dup3\n  gt\n    /* \"farms-pools/LandbaseLockPool.sol\":3602:3679  require(block.number < _startBlock, \"start block can't behind current block\") */\n  tag_11\n  jumpi\n  mload(0x40)\n  shl(0xe5, 0x461bcd)\n  dup2\n  mstore\n  0x04\n  add\n  dup1\n  dup1\n  0x20\n  add\n  dup3\n  dup2\n  sub\n  dup3\n  mstore\n  0x26\n  dup2\n  mstore\n  0x20\n  add\n  dup1\n  data_506f1b59863f183c6ac4f29f4cc284383ff9846bdae98e937f71108256fea9ea\n  0x26\n  swap2\n  codecopy\n  0x40\n  add\n  swap2\n  pop\n  pop\n  mload(0x40)\n  dup1\n  swap2\n  sub\n  swap1\n  revert\ntag_11:\n    /* \"farms-pools/LandbaseLockPool.sol\":3712:3721  _endBlock */\n  dup1\n    /* \"farms-pools/LandbaseLockPool.sol\":3698:3709  _startBlock */\n  dup3\n    /* \"farms-pools/LandbaseLockPool.sol\":3698:3721  _startBlock < _endBlock */\n  lt\n    /* \"farms-pools/LandbaseLockPool.sol\":3690:3760  require(_startBlock < _endBlock, \"end block can't behind start block\") */\n  tag_12\n  jumpi\n  mload(0x40)\n  shl(0xe5, 0x461bcd)\n  dup2\n  mstore\n  0x04\n  add\n  dup1\n  dup1\n  0x20\n  add\n  dup3\n  dup2\n  sub\n  dup3\n  mstore\n  0x22\n  dup2\n  mstore\n  0x20\n  add\n  dup1\n  data_e7e60fff60ba5b691ce03013041a838e37a54104910525ca5ef5521e8edc3e12\n  0x22\n  swap2\n  codecopy\n  0x40\n  add\n  swap2\n  pop\n  pop\n  mload(0x40)\n  dup1\n  swap2\n  sub\n  swap1\n  revert\ntag_12:\n  not(sub(shl(0x60, 0x01), 0x01))\n    /* \"farms-pools/LandbaseLockPool.sol\":3773:3787  token = _token */\n  0x60\n  dup9\n  dup2\n  shl\n  dup3\n  and\n  0x80\n  mstore\n    /* \"farms-pools/LandbaseLockPool.sol\":3798:3826  receiptToken = _receiptToken */\n  dup8\n  dup2\n  shl\n  dup3\n  and\n  0xa0\n  mstore\n    /* \"farms-pools/LandbaseLockPool.sol\":3837:3861  masterchef = _masterchef */\n  dup7\n  swap1\n  shl\n  and\n  0xc0\n  mstore\n    /* \"farms-pools/LandbaseLockPool.sol\":3872:3877  admin */\n  0x07\n    /* \"farms-pools/LandbaseLockPool.sol\":3872:3886  admin = _admin */\n  dup1\n  sload\n  sub(shl(0xa0, 0x01), 0x01)\n  dup7\n  dup2\n  and\n  not(sub(shl(0xa0, 0x01), 0x01))\n  swap3\n  dup4\n  and\n  or\n  swap1\n  swap3\n  sstore\n    /* \"farms-pools/LandbaseLockPool.sol\":3897:3905  treasury */\n  0x08\n    /* \"farms-pools/LandbaseLockPool.sol\":3897:3917  treasury = _treasury */\n  dup1\n  sload\n  dup7\n  dup5\n  and\n  swap3\n  and\n  swap2\n  swap1\n  swap2\n  or\n  swap1\n  sstore\n    /* \"farms-pools/LandbaseLockPool.sol\":3928:3938  startBlock */\n  0x03\n    /* \"farms-pools/LandbaseLockPool.sol\":3928:3952  startBlock = _startBlock */\n  dup4\n  swap1\n  sstore\n  0x04\n    /* \"farms-pools/LandbaseLockPool.sol\":3963:3983  endBlock = _endBlock */\n  dup3\n  swap1\n  sstore\n    /* \"farms-pools/LandbaseLockPool.sol\":4025:4086  IERC20(_token).safeApprove(address(_masterchef), uint256(-1)) */\n  tag_13\n  swap1\n    /* \"farms-pools/LandbaseLockPool.sol\":3773:3787  token = _token */\n  dup9\n  and\n    /* \"farms-pools/LandbaseLockPool.sol\":3850:3861  _masterchef */\n  dup7\n  not(0x00)\n    /* \"farms-pools/LandbaseLockPool.sol\":4025:4051  IERC20(_token).safeApprove */\n  tag_0_163\n  tag_14\n  0x20\n  swap1\n  dup2\n  shl\n  swap2\n  swap1\n  swap2\n  or\n    /* \"farms-pools/LandbaseLockPool.sol\":4025:4086  IERC20(_token).safeApprove(address(_masterchef), uint256(-1)) */\n  swap1\n  shr\n  jump\t// in\ntag_13:\n    /* \"farms-pools/LandbaseLockPool.sol\":3365:4094  constructor(\r... */\n  pop\n  pop\n  pop\n  pop\n  pop\n  pop\n  pop\n    /* \"farms-pools/LandbaseLockPool.sol\":229:21923  contract LandbaseLockPool is Ownable, Pausable {\r... */\n  jump(tag_15)\n    /* \"farms-pools/utils/Context.sol\":613:719  function _msgSender() internal view virtual returns (address payable) {\r... */\ntag_8:\n    /* \"farms-pools/utils/Context.sol\":701:711  msg.sender */\n  caller\n    /* \"farms-pools/utils/Context.sol\":613:719  function _msgSender() internal view virtual returns (address payable) {\r... */\n  swap1\n  jump\t// out\n    /* \"farms-pools/SafeERC20.sol\":1381:2003  function safeApprove(IERC20 token, address spender, uint256 value) internal {\r... */\ntag_14:\n    /* \"farms-pools/SafeERC20.sol\":1751:1761  value == 0 */\n  dup1\n  iszero\n  dup1\n    /* \"farms-pools/SafeERC20.sol\":1750:1812  (value == 0) || (token.allowance(address(this), spender) == 0) */\n  tag_18\n  jumpi\n  pop\n    /* \"farms-pools/SafeERC20.sol\":1767:1806  token.allowance(address(this), spender) */\n  0x40\n  dup1\n  mload\n  shl(0xe1, 0x6eb1769f)\n  dup2\n  mstore\n    /* \"farms-pools/SafeERC20.sol\":1791:1795  this */\n  address\n    /* \"farms-pools/SafeERC20.sol\":1767:1806  token.allowance(address(this), spender) */\n  0x04\n  dup3\n  add\n  mstore\n  sub(shl(0xa0, 0x01), 0x01)\n  dup5\n  dup2\n  and\n  0x24\n  dup4\n  add\n  mstore\n  swap2\n  mload\n    /* \"farms-pools/SafeERC20.sol\":1767:1782  token.allowance */\n  swap2\n  dup6\n  and\n  swap2\n  0xdd62ed3e\n  swap2\n    /* \"farms-pools/SafeERC20.sol\":1767:1806  token.allowance(address(this), spender) */\n  0x44\n  dup1\n  dup3\n  add\n  swap3\n  0x20\n  swap3\n  swap1\n  swap2\n  swap1\n  dup3\n  swap1\n  sub\n  add\n  dup2\n    /* \"farms-pools/SafeERC20.sol\":1767:1782  token.allowance */\n  dup7\n    /* \"farms-pools/SafeERC20.sol\":1767:1806  token.allowance(address(this), spender) */\n  dup1\n  extcodesize\n  iszero\n  dup1\n  iszero\n  tag_19\n  jumpi\n  0x00\n  dup1\n  revert\ntag_19:\n  pop\n  gas\n  staticcall\n  iszero\n  dup1\n  iszero\n  tag_21\n  jumpi\n  returndatasize\n  0x00\n  dup1\n  returndatacopy\n  revert(0x00, returndatasize)\ntag_21:\n  pop\n  pop\n  pop\n  pop\n  mload(0x40)\n  returndatasize\n  0x20\n  dup2\n  lt\n  iszero\n  tag_22\n  jumpi\n  0x00\n  dup1\n  revert\ntag_22:\n  pop\n  mload\n    /* \"farms-pools/SafeERC20.sol\":1767:1811  token.allowance(address(this), spender) == 0 */\n  iszero\n    /* \"farms-pools/SafeERC20.sol\":1750:1812  (value == 0) || (token.allowance(address(this), spender) == 0) */\ntag_18:\n    /* \"farms-pools/SafeERC20.sol\":1742:1894  require((value == 0) || (token.allowance(address(this), spender) == 0),\r... */\n  tag_23\n  jumpi\n  mload(0x40)\n  shl(0xe5, 0x461bcd)\n  dup2\n  mstore\n  0x04\n  add\n  dup1\n  dup1\n  0x20\n  add\n  dup3\n  dup2\n  sub\n  dup3\n  mstore\n  0x36\n  dup2\n  mstore\n  0x20\n  add\n  dup1\n  data_ef945ddb1bfdc0da870feb4560d868b047642b4ac7f2fb7f8b7c51cb4a411e25\n  0x36\n  swap2\n  codecopy\n  0x40\n  add\n  swap2\n  pop\n  pop\n  mload(0x40)\n  dup1\n  swap2\n  sub\n  swap1\n  revert\ntag_23:\n    /* \"farms-pools/SafeERC20.sol\":1932:1994  abi.encodeWithSelector(token.approve.selector, spender, value) */\n  0x40\n  dup1\n  mload\n  sub(shl(0xa0, 0x01), 0x01)\n  dup5\n  and\n  0x24\n  dup3\n  add\n  mstore\n  0x44\n  dup1\n  dup3\n  add\n  dup5\n  swap1\n  mstore\n  dup3\n  mload\n  dup1\n  dup4\n  sub\n  swap1\n  swap2\n  add\n  dup2\n  mstore\n  0x64\n  swap1\n  swap2\n  add\n  swap1\n  swap2\n  mstore\n  0x20\n  dup2\n  add\n  dup1\n  mload\n  sub(shl(0xe0, 0x01), 0x01)\n  swap1\n  dup2\n  and\n  shl(0xe0, 0x095ea7b3)\n  or\n  swap1\n  swap2\n  mstore\n    /* \"farms-pools/SafeERC20.sol\":1905:1995  _callOptionalReturn(token, abi.encodeWithSelector(token.approve.selector, spender, value)) */\n  tag_24\n  swap2\n    /* \"farms-pools/SafeERC20.sol\":1925:1930  token */\n  dup6\n  swap2\n    /* \"farms-pools/SafeERC20.sol\":1905:1924  _callOptionalReturn */\n  tag_25\n    /* \"farms-pools/SafeERC20.sol\":1905:1995  _callOptionalReturn(token, abi.encodeWithSelector(token.approve.selector, spender, value)) */\n  and\n  jump\t// in\ntag_24:\n    /* \"farms-pools/SafeERC20.sol\":1381:2003  function safeApprove(IERC20 token, address spender, uint256 value) internal {\r... */\n  pop\n  pop\n  pop\n  jump\t// out\n    /* \"farms-pools/SafeERC20.sol\":3027:3788  function _callOptionalReturn(IERC20 token, bytes memory data) private {\r... */\ntag_25:\n    /* \"farms-pools/SafeERC20.sol\":3451:3474  bytes memory returndata */\n  0x60\n    /* \"farms-pools/SafeERC20.sol\":3477:3546  address(token).functionCall(data, \"SafeERC20: low-level call failed\") */\n  tag_27\n    /* \"farms-pools/SafeERC20.sol\":3505:3509  data */\n  dup3\n    /* \"farms-pools/SafeERC20.sol\":3477:3546  address(token).functionCall(data, \"SafeERC20: low-level call failed\") */\n  mload(0x40)\n  dup1\n  0x40\n  add\n  0x40\n  mstore\n  dup1\n  0x20\n  dup2\n  mstore\n  0x20\n  add\n  0x5361666545524332303a206c6f772d6c6576656c2063616c6c206661696c6564\n  dup2\n  mstore\n  pop\n    /* \"farms-pools/SafeERC20.sol\":3485:3490  token */\n  dup6\n  sub(shl(0xa0, 0x01), 0x01)\n    /* \"farms-pools/SafeERC20.sol\":3477:3504  address(token).functionCall */\n  and\n  or(tag_0_164, shl(0x20, tag_28))\n  swap1\n    /* \"farms-pools/SafeERC20.sol\":3477:3546  address(token).functionCall(data, \"SafeERC20: low-level call failed\") */\n  swap3\n  swap2\n  swap1\n  0x20\n  shr\n  jump\t// in\ntag_27:\n    /* \"farms-pools/SafeERC20.sol\":3561:3578  returndata.length */\n  dup1\n  mload\n    /* \"farms-pools/SafeERC20.sol\":3451:3546  bytes memory returndata = address(token).functionCall(data, \"SafeERC20: low-level call failed\") */\n  swap1\n  swap2\n  pop\n    /* \"farms-pools/SafeERC20.sol\":3561:3582  returndata.length > 0 */\n  iszero\n    /* \"farms-pools/SafeERC20.sol\":3557:3781  if (returndata.length > 0) { // Return data is optional\r... */\n  tag_24\n  jumpi\n    /* \"farms-pools/SafeERC20.sol\":3703:3713  returndata */\n  dup1\n    /* \"farms-pools/SafeERC20.sol\":3692:3722  abi.decode(returndata, (bool)) */\n  dup1\n  0x20\n  add\n  swap1\n  mload\n  0x20\n  dup2\n  lt\n  iszero\n  tag_30\n  jumpi\n  0x00\n  dup1\n  revert\ntag_30:\n  pop\n  mload\n    /* \"farms-pools/SafeERC20.sol\":3684:3769  require(abi.decode(returndata, (bool)), \"SafeERC20: ERC20 operation did not succeed\") */\n  tag_24\n  jumpi\n  mload(0x40)\n  shl(0xe5, 0x461bcd)\n  dup2\n  mstore\n  0x04\n  add\n  dup1\n  dup1\n  0x20\n  add\n  dup3\n  dup2\n  sub\n  dup3\n  mstore\n  0x2a\n  dup2\n  mstore\n  0x20\n  add\n  dup1\n  data_e11ad79d1e4a7f2e5f376964cb99e8e8f7904e3fc16a109f7a7ecb9aa7956dcd\n  0x2a\n  swap2\n  codecopy\n  0x40\n  add\n  swap2\n  pop\n  pop\n  mload(0x40)\n  dup1\n  swap2\n  sub\n  swap1\n  revert\n    /* \"farms-pools/utils/Address.sol\":3669:3864  function functionCall(address target, bytes memory data, string memory errorMessage) internal returns (bytes memory) {\r... */\ntag_28:\n    /* \"farms-pools/utils/Address.sol\":3772:3784  bytes memory */\n  0x60\n    /* \"farms-pools/utils/Address.sol\":3804:3856  functionCallWithValue(target, data, 0, errorMessage) */\n  tag_33\n    /* \"farms-pools/utils/Address.sol\":3826:3832  target */\n  dup5\n    /* \"farms-pools/utils/Address.sol\":3834:3838  data */\n  dup5\n    /* \"farms-pools/utils/Address.sol\":3840:3841  0 */\n  0x00\n    /* \"farms-pools/utils/Address.sol\":3843:3855  errorMessage */\n  dup6\n    /* \"farms-pools/utils/Address.sol\":3804:3825  functionCallWithValue */\n  tag_34\n    /* \"farms-pools/utils/Address.sol\":3804:3856  functionCallWithValue(target, data, 0, errorMessage) */\n  jump\t// in\ntag_33:\n    /* \"farms-pools/utils/Address.sol\":3797:3856  return functionCallWithValue(target, data, 0, errorMessage) */\n  swap1\n  pop\n    /* \"farms-pools/utils/Address.sol\":3669:3864  function functionCall(address target, bytes memory data, string memory errorMessage) internal returns (bytes memory) {\r... */\ntag_32:\n  swap4\n  swap3\n  pop\n  pop\n  pop\n  jump\t// out\n    /* \"farms-pools/utils/Address.sol\":4721:5251  function functionCallWithValue(address target, bytes memory data, uint256 value, string memory errorMessage) internal returns (bytes memory) {\r... */\ntag_34:\n    /* \"farms-pools/utils/Address.sol\":4848:4860  bytes memory */\n  0x60\n    /* \"farms-pools/utils/Address.sol\":4906:4911  value */\n  dup3\n    /* \"farms-pools/utils/Address.sol\":4881:4902  address(this).balance */\n  selfbalance\n    /* \"farms-pools/utils/Address.sol\":4881:4911  address(this).balance >= value */\n  lt\n  iszero\n    /* \"farms-pools/utils/Address.sol\":4873:4954  require(address(this).balance >= value, \"Address: insufficient balance for call\") */\n  tag_36\n  jumpi\n  mload(0x40)\n  shl(0xe5, 0x461bcd)\n  dup2\n  mstore\n  0x04\n  add\n  dup1\n  dup1\n  0x20\n  add\n  dup3\n  dup2\n  sub\n  dup3\n  mstore\n  0x26\n  dup2\n  mstore\n  0x20\n  add\n  dup1\n  data_565f1a77334fc4792800921178c71e4521acffab18ff9e7885b49377ee80ab4c\n  0x26\n  swap2\n  codecopy\n  0x40\n  add\n  swap2\n  pop\n  pop\n  mload(0x40)\n  dup1\n  swap2\n  sub\n  swap1\n  revert\ntag_36:\n    /* \"farms-pools/utils/Address.sol\":4973:4991  isContract(target) */\n  tag_37\n    /* \"farms-pools/utils/Address.sol\":4984:4990  target */\n  dup6\n    /* \"farms-pools/utils/Address.sol\":4973:4983  isContract */\n  tag_38\n    /* \"farms-pools/utils/Address.sol\":4973:4991  isContract(target) */\n  jump\t// in\ntag_37:\n    /* \"farms-pools/utils/Address.sol\":4965:5025  require(isContract(target), \"Address: call to non-contract\") */\n  tag_39\n  jumpi\n  0x40\n  dup1\n  mload\n  shl(0xe5, 0x461bcd)\n  dup2\n  mstore\n  0x20\n  0x04\n  dup3\n  add\n  mstore\n  0x1d\n  0x24\n  dup3\n  add\n  mstore\n  0x416464726573733a2063616c6c20746f206e6f6e2d636f6e7472616374000000\n  0x44\n  dup3\n  add\n  mstore\n  swap1\n  mload\n  swap1\n  dup2\n  swap1\n  sub\n  0x64\n  add\n  swap1\n  revert\ntag_39:\n    /* \"farms-pools/utils/Address.sol\":5099:5111  bool success */\n  0x00\n    /* \"farms-pools/utils/Address.sol\":5113:5136  bytes memory returndata */\n  0x60\n    /* \"farms-pools/utils/Address.sol\":5140:5146  target */\n  dup7\n  sub(shl(0xa0, 0x01), 0x01)\n    /* \"farms-pools/utils/Address.sol\":5140:5151  target.call */\n  and\n    /* \"farms-pools/utils/Address.sol\":5160:5165  value */\n  dup6\n    /* \"farms-pools/utils/Address.sol\":5168:5172  data */\n  dup8\n    /* \"farms-pools/utils/Address.sol\":5140:5173  target.call{ value: value }(data) */\n  mload(0x40)\n  dup1\n  dup3\n  dup1\n  mload\n  swap1\n  0x20\n  add\n  swap1\n  dup1\n  dup4\n  dup4\ntag_40:\n  0x20\n  dup4\n  lt\n  tag_42\n  jumpi\n  dup1\n  mload\n  dup3\n  mstore\n  not(0x1f)\n  swap1\n  swap3\n  add\n  swap2\n  0x20\n  swap2\n  dup3\n  add\n  swap2\n  add\n  jump(tag_40)\ntag_42:\n  0x01\n  dup4\n  0x20\n  sub\n  0x0100\n  exp\n  sub\n  dup1\n  not\n  dup3\n  mload\n  and\n  dup2\n  dup5\n  mload\n  and\n  dup1\n  dup3\n  or\n  dup6\n  mstore\n  pop\n  pop\n  pop\n  pop\n  pop\n  pop\n  swap1\n  pop\n  add\n  swap2\n  pop\n  pop\n  0x00\n  mload(0x40)\n  dup1\n  dup4\n  sub\n  dup2\n  dup6\n  dup8\n  gas\n  call\n  swap3\n  pop\n  pop\n  pop\n  returndatasize\n  dup1\n  0x00\n  dup2\n  eq\n  tag_45\n  jumpi\n  mload(0x40)\n  swap2\n  pop\n  and(add(returndatasize, 0x3f), not(0x1f))\n  dup3\n  add\n  0x40\n  mstore\n  returndatasize\n  dup3\n  mstore\n  returndatasize\n  0x00\n  0x20\n  dup5\n  add\n  returndatacopy\n  jump(tag_44)\ntag_45:\n  0x60\n  swap2\n  pop\ntag_44:\n  pop\n    /* \"farms-pools/utils/Address.sol\":5098:5173  (bool success, bytes memory returndata) = target.call{ value: value }(data) */\n  swap1\n  swap3\n  pop\n  swap1\n  pop\n    /* \"farms-pools/utils/Address.sol\":5191:5243  _verifyCallResult(success, returndata, errorMessage) */\n  tag_46\n    /* \"farms-pools/utils/Address.sol\":5098:5173  (bool success, bytes memory returndata) = target.call{ value: value }(data) */\n  dup3\n  dup3\n    /* \"farms-pools/utils/Address.sol\":5230:5242  errorMessage */\n  dup7\n    /* \"farms-pools/utils/Address.sol\":5191:5208  _verifyCallResult */\n  tag_47\n    /* \"farms-pools/utils/Address.sol\":5191:5243  _verifyCallResult(success, returndata, errorMessage) */\n  jump\t// in\ntag_46:\n    /* \"farms-pools/utils/Address.sol\":5184:5243  return _verifyCallResult(success, returndata, errorMessage) */\n  swap8\n    /* \"farms-pools/utils/Address.sol\":4721:5251  function functionCallWithValue(address target, bytes memory data, uint256 value, string memory errorMessage) internal returns (bytes memory) {\r... */\n  swap7\n  pop\n  pop\n  pop\n  pop\n  pop\n  pop\n  pop\n  jump\t// out\n    /* \"farms-pools/utils/Address.sol\":751:1173  function isContract(address account) internal view returns (bool) {\r... */\ntag_38:\n    /* \"farms-pools/utils/Address.sol\":1118:1138  extcodesize(account) */\n  extcodesize\n    /* \"farms-pools/utils/Address.sol\":1157:1165  size > 0 */\n  iszero\n  iszero\n  swap1\n    /* \"farms-pools/utils/Address.sol\":751:1173  function isContract(address account) internal view returns (bool) {\r... */\n  jump\t// out\n    /* \"farms-pools/utils/Address.sol\":7261:8003  function _verifyCallResult(bool success, bytes memory returndata, string memory errorMessage) private pure returns(bytes memory) {\r... */\ntag_47:\n    /* \"farms-pools/utils/Address.sol\":7376:7388  bytes memory */\n  0x60\n    /* \"farms-pools/utils/Address.sol\":7405:7412  success */\n  dup4\n    /* \"farms-pools/utils/Address.sol\":7401:7996  if (success) {\r... */\n  iszero\n  tag_50\n  jumpi\n  pop\n    /* \"farms-pools/utils/Address.sol\":7436:7446  returndata */\n  dup2\n    /* \"farms-pools/utils/Address.sol\":7429:7446  return returndata */\n  jump(tag_32)\n    /* \"farms-pools/utils/Address.sol\":7401:7996  if (success) {\r... */\ntag_50:\n    /* \"farms-pools/utils/Address.sol\":7550:7567  returndata.length */\n  dup3\n  mload\n    /* \"farms-pools/utils/Address.sol\":7550:7571  returndata.length > 0 */\n  iszero\n    /* \"farms-pools/utils/Address.sol\":7546:7985  if (returndata.length > 0) {\r... */\n  tag_52\n  jumpi\n    /* \"farms-pools/utils/Address.sol\":7813:7823  returndata */\n  dup3\n    /* \"farms-pools/utils/Address.sol\":7807:7824  mload(returndata) */\n  mload\n    /* \"farms-pools/utils/Address.sol\":7874:7889  returndata_size */\n  dup1\n    /* \"farms-pools/utils/Address.sol\":7861:7871  returndata */\n  dup5\n    /* \"farms-pools/utils/Address.sol\":7857:7859  32 */\n  0x20\n    /* \"farms-pools/utils/Address.sol\":7853:7872  add(32, returndata) */\n  add\n    /* \"farms-pools/utils/Address.sol\":7846:7890  revert(add(32, returndata), returndata_size) */\n  revert\n    /* \"farms-pools/utils/Address.sol\":7761:7909  {\r... */\ntag_52:\n    /* \"farms-pools/utils/Address.sol\":7956:7968  errorMessage */\n  dup2\n    /* \"farms-pools/utils/Address.sol\":7949:7969  revert(errorMessage) */\n  mload(0x40)\n  shl(0xe5, 0x461bcd)\n  dup2\n  mstore\n  0x04\n  add\n  dup1\n  dup1\n  0x20\n  add\n  dup3\n  dup2\n  sub\n  dup3\n  mstore\n  dup4\n  dup2\n  dup2\n  mload\n  dup2\n  mstore\n  0x20\n  add\n  swap2\n  pop\n  dup1\n  mload\n  swap1\n  0x20\n  add\n  swap1\n  dup1\n  dup4\n  dup4\n  0x00\ntag_54:\n  dup4\n  dup2\n  lt\n  iszero\n  tag_56\n  jumpi\n  dup2\n  dup2\n  add\n  mload\n  dup4\n  dup3\n  add\n  mstore\n  0x20\n  add\n  jump(tag_54)\ntag_56:\n  pop\n  pop\n  pop\n  pop\n  swap1\n  pop\n  swap1\n  dup2\n  add\n  swap1\n  0x1f\n  and\n  dup1\n  iszero\n  tag_57\n  jumpi\n  dup1\n  dup3\n  sub\n  dup1\n  mload\n  0x01\n  dup4\n  0x20\n  sub\n  0x0100\n  exp\n  sub\n  not\n  and\n  dup2\n  mstore\n  0x20\n  add\n  swap2\n  pop\ntag_57:\n  pop\n  swap3\n  pop\n  pop\n  pop\n  mload(0x40)\n  dup1\n  swap2\n  sub\n  swap1\n  revert\n    /* \"farms-pools/LandbaseLockPool.sol\":229:21923  contract LandbaseLockPool is Ownable, Pausable {\r... */\ntag_15:\n  shr(0x60, mload(0x80))\n  shr(0x60, mload(0xa0))\n  shr(0x60, mload(0xc0))\n  codecopy(0x00, dataOffset(sub_0), dataSize(sub_0))\n  assignImmutable(\"0x64e604787cbf194841e7b68d7cd28786f6c9a0a3ab9f8b0a0e87cb4387ab0107\")\n  assignImmutable(\"0xb9aa4ff60d3edb7fbc3b53bd780c9274ed80a5ba1a237d38b011edab2b031b4a\")\n  assignImmutable(\"0x7ae9fd093408c444e1cd944d183f5410919486c93305c223a5a94b5e79d77d3b\")\n  return(0x00, dataSize(sub_0))\nstop\ndata_506f1b59863f183c6ac4f29f4cc284383ff9846bdae98e937f71108256fea9ea 737461727420626c6f636b2063616e277420626568696e642063757272656e7420626c6f636b\ndata_565f1a77334fc4792800921178c71e4521acffab18ff9e7885b49377ee80ab4c 416464726573733a20696e73756666696369656e742062616c616e636520666f722063616c6c\ndata_e11ad79d1e4a7f2e5f376964cb99e8e8f7904e3fc16a109f7a7ecb9aa7956dcd 5361666545524332303a204552433230206f7065726174696f6e20646964206e6f742073756363656564\ndata_e7e60fff60ba5b691ce03013041a838e37a54104910525ca5ef5521e8edc3e12 656e6420626c6f636b2063616e277420626568696e6420737461727420626c6f636b\ndata_ef945ddb1bfdc0da870feb4560d868b047642b4ac7f2fb7f8b7c51cb4a411e25 5361666545524332303a20617070726f76652066726f6d206e6f6e2d7a65726f20746f206e6f6e2d7a65726f20616c6c6f77616e6365\n\nsub_0: assembly {\n        /* \"farms-pools/LandbaseLockPool.sol\":229:21923  contract LandbaseLockPool is Ownable, Pausable {\r... */\n      mstore(0x40, 0x80)\n      callvalue\n      dup1\n      iszero\n      tag_1\n      jumpi\n      0x00\n      dup1\n      revert\n    tag_1:\n      pop\n      jumpi(tag_2, lt(calldatasize, 0x04))\n      shr(0xe0, calldataload(0x00))\n      dup1\n      0x853828b6\n      gt\n      tag_49\n      jumpi\n      dup1\n      0xdad6f0dc\n      gt\n      tag_50\n      jumpi\n      dup1\n      0xec78e832\n      gt\n      tag_51\n      jumpi\n      dup1\n      0xec78e832\n      eq\n      tag_43\n      jumpi\n      dup1\n      0xf0f44260\n      eq\n      tag_44\n      jumpi\n      dup1\n      0xf2fde38b\n      eq\n      tag_45\n      jumpi\n      dup1\n      0xf851a440\n      eq\n      tag_46\n      jumpi\n      dup1\n      0xfb1db278\n      eq\n      tag_47\n      jumpi\n      dup1\n      0xfc0c546a\n      eq\n      tag_48\n      jumpi\n      jump(tag_2)\n    tag_51:\n      dup1\n      0xdad6f0dc\n      eq\n      tag_37\n      jumpi\n      dup1\n      0xdb2e21bc\n      eq\n      tag_38\n      jumpi\n      dup1\n      0xdd191719\n      eq\n      tag_39\n      jumpi\n      dup1\n      0xdef68a9c\n      eq\n      tag_40\n      jumpi\n      dup1\n      0xdf10b4e6\n      eq\n      tag_41\n      jumpi\n      dup1\n      0xe941fa78\n      eq\n      tag_42\n      jumpi\n      jump(tag_2)\n    tag_50:\n      dup1\n      0x9d72596b\n      gt\n      tag_52\n      jumpi\n      dup1\n      0x9d72596b\n      eq\n      tag_31\n      jumpi\n      dup1\n      0xb60f0531\n      eq\n      tag_32\n      jumpi\n      dup1\n      0xb6ac642a\n      eq\n      tag_33\n      jumpi\n      dup1\n      0xb6b55f25\n      eq\n      tag_34\n      jumpi\n      dup1\n      0xbdca9165\n      eq\n      tag_35\n      jumpi\n      dup1\n      0xd4b0de2f\n      eq\n      tag_36\n      jumpi\n      jump(tag_2)\n    tag_52:\n      dup1\n      0x853828b6\n      eq\n      tag_26\n      jumpi\n      dup1\n      0x87788782\n      eq\n      tag_27\n      jumpi\n      dup1\n      0x8da5cb5b\n      eq\n      tag_28\n      jumpi\n      dup1\n      0x90321e1a\n      eq\n      tag_29\n      jumpi\n      dup1\n      0x9513997f\n      eq\n      tag_30\n      jumpi\n      jump(tag_2)\n    tag_49:\n      dup1\n      0x4641257d\n      gt\n      tag_53\n      jumpi\n      dup1\n      0x704b6c02\n      gt\n      tag_54\n      jumpi\n      dup1\n      0x704b6c02\n      eq\n      tag_20\n      jumpi\n      dup1\n      0x70897b23\n      eq\n      tag_21\n      jumpi\n      dup1\n      0x715018a6\n      eq\n      tag_22\n      jumpi\n      dup1\n      0x722713f7\n      eq\n      tag_23\n      jumpi\n      dup1\n      0x77c7b8fc\n      eq\n      tag_24\n      jumpi\n      dup1\n      0x8456cb59\n      eq\n      tag_25\n      jumpi\n      jump(tag_2)\n    tag_54:\n      dup1\n      0x4641257d\n      eq\n      tag_14\n      jumpi\n      dup1\n      0x48a0d754\n      eq\n      tag_15\n      jumpi\n      dup1\n      0x48cd4cb1\n      eq\n      tag_16\n      jumpi\n      dup1\n      0x58ebceb6\n      eq\n      tag_17\n      jumpi\n      dup1\n      0x5c975abb\n      eq\n      tag_18\n      jumpi\n      dup1\n      0x61d027b3\n      eq\n      tag_19\n      jumpi\n      jump(tag_2)\n    tag_53:\n      dup1\n      0x26465826\n      gt\n      tag_55\n      jumpi\n      dup1\n      0x26465826\n      eq\n      tag_8\n      jumpi\n      dup1\n      0x2ad5a53f\n      eq\n      tag_9\n      jumpi\n      dup1\n      0x2cfc5f01\n      eq\n      tag_10\n      jumpi\n      dup1\n      0x2e1a7d4d\n      eq\n      tag_11\n      jumpi\n      dup1\n      0x3a98ef39\n      eq\n      tag_12\n      jumpi\n      dup1\n      0x3f4ba83a\n      eq\n      tag_13\n      jumpi\n      jump(tag_2)\n    tag_55:\n      dup1\n      0x6f0231\n      eq\n      tag_3\n      jumpi\n      dup1\n      0x06f5a745\n      eq\n      tag_4\n      jumpi\n      dup1\n      0x083c6323\n      eq\n      tag_5\n      jumpi\n      dup1\n      0x1959a002\n      eq\n      tag_6\n      jumpi\n      dup1\n      0x1efac1b8\n      eq\n      tag_7\n      jumpi\n    tag_2:\n      0x00\n      dup1\n      revert\n        /* \"farms-pools/LandbaseLockPool.sol\":18124:18446  function updateEndBlock(uint256 _endBlock) external onlyAdmin {\r... */\n    tag_3:\n      tag_56\n      0x04\n      dup1\n      calldatasize\n      sub\n      0x20\n      dup2\n      lt\n      iszero\n      tag_57\n      jumpi\n      0x00\n      dup1\n      revert\n    tag_57:\n      pop\n      calldataload\n      tag_58\n      jump\t// in\n    tag_56:\n      stop\n        /* \"farms-pools/LandbaseLockPool.sol\":1500:1551  mapping(address =>  UserIFOInfo) public userIFOInfo */\n    tag_4:\n      tag_59\n      0x04\n      dup1\n      calldatasize\n      sub\n      0x20\n      dup2\n      lt\n      iszero\n      tag_60\n      jumpi\n      0x00\n      dup1\n      revert\n    tag_60:\n      pop\n      calldataload\n      sub(shl(0xa0, 0x01), 0x01)\n      and\n      tag_61\n      jump\t// in\n    tag_59:\n      0x40\n      dup1\n      mload\n      swap6\n      dup7\n      mstore\n      0x20\n      dup7\n      add\n      swap5\n      swap1\n      swap5\n      mstore\n      dup5\n      dup5\n      add\n      swap3\n      swap1\n      swap3\n      mstore\n      0x60\n      dup5\n      add\n      mstore\n      0x80\n      dup4\n      add\n      mstore\n      mload\n      swap1\n      dup2\n      swap1\n      sub\n      0xa0\n      add\n      swap1\n      return\n        /* \"farms-pools/LandbaseLockPool.sol\":1592:1615  uint256 public endBlock */\n    tag_5:\n      tag_62\n      tag_63\n      jump\t// in\n    tag_62:\n      0x40\n      dup1\n      mload\n      swap2\n      dup3\n      mstore\n      mload\n      swap1\n      dup2\n      swap1\n      sub\n      0x20\n      add\n      swap1\n      return\n        /* \"farms-pools/LandbaseLockPool.sol\":1438:1482  mapping(address => UserInfo) public userInfo */\n    tag_6:\n      tag_64\n      0x04\n      dup1\n      calldatasize\n      sub\n      0x20\n      dup2\n      lt\n      iszero\n      tag_65\n      jumpi\n      0x00\n      dup1\n      revert\n    tag_65:\n      pop\n      calldataload\n      sub(shl(0xa0, 0x01), 0x01)\n      and\n      tag_66\n      jump\t// in\n    tag_64:\n      0x40\n      dup1\n      mload\n      swap5\n      dup6\n      mstore\n      0x20\n      dup6\n      add\n      swap4\n      swap1\n      swap4\n      mstore\n      dup4\n      dup4\n      add\n      swap2\n      swap1\n      swap2\n      mstore\n      0x60\n      dup4\n      add\n      mstore\n      mload\n      swap1\n      dup2\n      swap1\n      sub\n      0x80\n      add\n      swap1\n      return\n        /* \"farms-pools/LandbaseLockPool.sol\":16976:17277  function setWithdrawFeePeriod(uint256 _withdrawFeePeriod) external onlyAdmin {\r... */\n    tag_7:\n      tag_56\n      0x04\n      dup1\n      calldatasize\n      sub\n      0x20\n      dup2\n      lt\n      iszero\n      tag_68\n      jumpi\n      0x00\n      dup1\n      revert\n    tag_68:\n      pop\n      calldataload\n      tag_69\n      jump\t// in\n        /* \"farms-pools/LandbaseLockPool.sol\":16353:16535  function setCallFee(uint256 _callFee) external onlyAdmin {\r... */\n    tag_8:\n      tag_56\n      0x04\n      dup1\n      calldatasize\n      sub\n      0x20\n      dup2\n      lt\n      iszero\n      tag_71\n      jumpi\n      0x00\n      dup1\n      revert\n    tag_71:\n      pop\n      calldataload\n      tag_72\n      jump\t// in\n        /* \"farms-pools/LandbaseLockPool.sol\":1817:1859  uint256 public constant MAX_CALL_FEE = 100 */\n    tag_9:\n      tag_62\n      tag_74\n      jump\t// in\n        /* \"farms-pools/LandbaseLockPool.sol\":1931:1990  uint256 public constant MAX_WITHDRAW_FEE_PERIOD = 168 hours */\n    tag_10:\n      tag_62\n      tag_76\n      jump\t// in\n        /* \"farms-pools/LandbaseLockPool.sol\":11170:12814  function withdraw(uint256 _shares) public notContract {\r... */\n    tag_11:\n      tag_56\n      0x04\n      dup1\n      calldatasize\n      sub\n      0x20\n      dup2\n      lt\n      iszero\n      tag_78\n      jumpi\n      0x00\n      dup1\n      revert\n    tag_78:\n      pop\n      calldataload\n      tag_79\n      jump\t// in\n        /* \"farms-pools/LandbaseLockPool.sol\":1624:1650  uint256 public totalShares */\n    tag_12:\n      tag_62\n      tag_81\n      jump\t// in\n        /* \"farms-pools/LandbaseLockPool.sol\":19593:19696  function unpause() external onlyAdmin whenPaused {\r... */\n    tag_13:\n      tag_56\n      tag_83\n      jump\t// in\n        /* \"farms-pools/LandbaseLockPool.sol\":14740:15352  function harvest() external notContract whenNotPaused {\r... */\n    tag_14:\n      tag_56\n      tag_85\n      jump\t// in\n        /* \"farms-pools/LandbaseLockPool.sol\":20876:20983  function available() public view returns (uint256) {\r... */\n    tag_15:\n      tag_62\n      tag_87\n      jump\t// in\n        /* \"farms-pools/LandbaseLockPool.sol\":1560:1585  uint256 public startBlock */\n    tag_16:\n      tag_62\n      tag_89\n      jump\t// in\n        /* \"farms-pools/LandbaseLockPool.sol\":20256:20490  function calculateTotalPendingCakeRewards() external view returns (uint256) {\r... */\n    tag_17:\n      tag_62\n      tag_91\n      jump\t// in\n        /* \"farms-pools/utils/Pausable.sol\":1090:1176  function paused() public view virtual returns (bool) {\r... */\n    tag_18:\n      tag_92\n      tag_93\n      jump\t// in\n    tag_92:\n      0x40\n      dup1\n      mload\n      swap2\n      iszero\n      iszero\n      dup3\n      mstore\n      mload\n      swap1\n      dup2\n      swap1\n      sub\n      0x20\n      add\n      swap1\n      return\n        /* \"farms-pools/LandbaseLockPool.sol\":1723:1746  address public treasury */\n    tag_19:\n      tag_94\n      tag_95\n      jump\t// in\n    tag_94:\n      0x40\n      dup1\n      mload\n      sub(shl(0xa0, 0x01), 0x01)\n      swap1\n      swap3\n      and\n      dup3\n      mstore\n      mload\n      swap1\n      dup2\n      swap1\n      sub\n      0x20\n      add\n      swap1\n      return\n        /* \"farms-pools/LandbaseLockPool.sol\":15463:15615  function setAdmin(address _admin) external onlyOwner {\r... */\n    tag_20:\n      tag_56\n      0x04\n      dup1\n      calldatasize\n      sub\n      0x20\n      dup2\n      lt\n      iszero\n      tag_97\n      jumpi\n      0x00\n      dup1\n      revert\n    tag_97:\n      pop\n      calldataload\n      sub(shl(0xa0, 0x01), 0x01)\n      and\n      tag_98\n      jump\t// in\n        /* \"farms-pools/LandbaseLockPool.sol\":16009:16247  function setPerformanceFee(uint256 _performanceFee) external onlyAdmin {\r... */\n    tag_21:\n      tag_56\n      0x04\n      dup1\n      calldatasize\n      sub\n      0x20\n      dup2\n      lt\n      iszero\n      tag_100\n      jumpi\n      0x00\n      dup1\n      revert\n    tag_100:\n      pop\n      calldataload\n      tag_101\n      jump\t// in\n        /* \"farms-pools/access/Ownable.sol\":1770:1918  function renounceOwnership() public virtual onlyOwner {\r... */\n    tag_22:\n      tag_56\n      tag_103\n      jump\t// in\n        /* \"farms-pools/LandbaseLockPool.sol\":21140:21341  function balanceOf() public view returns (uint256) {\r... */\n    tag_23:\n      tag_62\n      tag_105\n      jump\t// in\n        /* \"farms-pools/LandbaseLockPool.sol\":20563:20717  function getPricePerFullShare() external view returns (uint256) {\r... */\n    tag_24:\n      tag_62\n      tag_107\n      jump\t// in\n        /* \"farms-pools/LandbaseLockPool.sol\":19375:19475  function pause() external onlyAdmin whenNotPaused {\r... */\n    tag_25:\n      tag_56\n      tag_109\n      jump\t// in\n        /* \"farms-pools/LandbaseLockPool.sol\":10210:10310  function withdrawAll() external notContract {\r... */\n    tag_26:\n      tag_56\n      tag_111\n      jump\t// in\n        /* \"farms-pools/LandbaseLockPool.sol\":2009:2044  uint256 public performanceFee = 200 */\n    tag_27:\n      tag_62\n      tag_113\n      jump\t// in\n        /* \"farms-pools/access/Ownable.sol\":1119:1206  function owner() public view virtual returns (address) {\r... */\n    tag_28:\n      tag_94\n      tag_115\n      jump\t// in\n        /* \"farms-pools/LandbaseLockPool.sol\":2057:2084  uint256 public callFee = 25 */\n    tag_29:\n      tag_62\n      tag_117\n      jump\t// in\n        /* \"farms-pools/LandbaseLockPool.sol\":17516:17944  function updateStartAndEndBlocks(uint256 _startBlock, uint256 _endBlock) external onlyAdmin {\r... */\n    tag_30:\n      tag_56\n      0x04\n      dup1\n      calldatasize\n      sub\n      0x40\n      dup2\n      lt\n      iszero\n      tag_119\n      jumpi\n      0x00\n      dup1\n      revert\n    tag_119:\n      pop\n      dup1\n      calldataload\n      swap1\n      0x20\n      add\n      calldataload\n      tag_120\n      jump\t// in\n        /* \"farms-pools/LandbaseLockPool.sol\":19845:20105  function calculateHarvestCakeRewards() external view returns (uint256) {\r... */\n    tag_31:\n      tag_62\n      tag_122\n      jump\t// in\n        /* \"farms-pools/LandbaseLockPool.sol\":1657:1689  uint256 public lastHarvestedTime */\n    tag_32:\n      tag_62\n      tag_124\n      jump\t// in\n        /* \"farms-pools/LandbaseLockPool.sol\":16645:16859  function setWithdrawFee(uint256 _withdrawFee) external onlyAdmin {\r... */\n    tag_33:\n      tag_56\n      0x04\n      dup1\n      calldatasize\n      sub\n      0x20\n      dup2\n      lt\n      iszero\n      tag_126\n      jumpi\n      0x00\n      dup1\n      revert\n    tag_126:\n      pop\n      calldataload\n      tag_127\n      jump\t// in\n        /* \"farms-pools/LandbaseLockPool.sol\":4745:5808  function deposit(uint256 _amount) external whenNotPaused notContract {\r... */\n    tag_34:\n      tag_56\n      0x04\n      dup1\n      calldatasize\n      sub\n      0x20\n      dup2\n      lt\n      iszero\n      tag_129\n      jumpi\n      0x00\n      dup1\n      revert\n    tag_129:\n      pop\n      calldataload\n      tag_130\n      jump\t// in\n        /* \"farms-pools/LandbaseLockPool.sol\":1755:1804  uint256 public constant MAX_PERFORMANCE_FEE = 600 */\n    tag_35:\n      tag_62\n      tag_132\n      jump\t// in\n        /* \"farms-pools/LandbaseLockPool.sol\":1872:1918  uint256 public constant MAX_WITHDRAW_FEE = 400 */\n    tag_36:\n      tag_62\n      tag_134\n      jump\t// in\n        /* \"farms-pools/LandbaseLockPool.sol\":9701:10137  function getUserCredit(address _user) external view returns(uint256 avgBalance) {\r... */\n    tag_37:\n      tag_62\n      0x04\n      dup1\n      calldatasize\n      sub\n      0x20\n      dup2\n      lt\n      iszero\n      tag_136\n      jumpi\n      0x00\n      dup1\n      revert\n    tag_136:\n      pop\n      calldataload\n      sub(shl(0xa0, 0x01), 0x01)\n      and\n      tag_137\n      jump\t// in\n        /* \"farms-pools/LandbaseLockPool.sol\":18619:18788  function emergencyWithdraw() external onlyAdmin {\r... */\n    tag_38:\n      tag_56\n      tag_139\n      jump\t// in\n        /* \"farms-pools/LandbaseLockPool.sol\":10453:10589  function emergencyWithdrawAll() external notContract {\r... */\n    tag_39:\n      tag_56\n      tag_141\n      jump\t// in\n        /* \"farms-pools/LandbaseLockPool.sol\":18880:19257  function inCaseTokensGetStuck(address _token) external onlyAdmin {\r... */\n    tag_40:\n      tag_56\n      0x04\n      dup1\n      calldatasize\n      sub\n      0x20\n      dup2\n      lt\n      iszero\n      tag_143\n      jumpi\n      0x00\n      dup1\n      revert\n    tag_143:\n      pop\n      calldataload\n      sub(shl(0xa0, 0x01), 0x01)\n      and\n      tag_144\n      jump\t// in\n        /* \"farms-pools/LandbaseLockPool.sol\":2221:2264  uint256 public withdrawFeePeriod = 72 hours */\n    tag_41:\n      tag_62\n      tag_146\n      jump\t// in\n        /* \"farms-pools/LandbaseLockPool.sol\":2100:2131  uint256 public withdrawFee = 10 */\n    tag_42:\n      tag_62\n      tag_148\n      jump\t// in\n        /* \"farms-pools/LandbaseLockPool.sol\":1330:1366  IERC20 public immutable receiptToken */\n    tag_43:\n      tag_94\n      tag_150\n      jump\t// in\n        /* \"farms-pools/LandbaseLockPool.sol\":15729:15896  function setTreasury(address _treasury) external onlyOwner {\r... */\n    tag_44:\n      tag_56\n      0x04\n      dup1\n      calldatasize\n      sub\n      0x20\n      dup2\n      lt\n      iszero\n      tag_152\n      jumpi\n      0x00\n      dup1\n      revert\n    tag_152:\n      pop\n      calldataload\n      sub(shl(0xa0, 0x01), 0x01)\n      and\n      tag_153\n      jump\t// in\n        /* \"farms-pools/access/Ownable.sol\":2073:2317  function transferOwnership(address newOwner) public virtual onlyOwner {\r... */\n    tag_45:\n      tag_56\n      0x04\n      dup1\n      calldatasize\n      sub\n      0x20\n      dup2\n      lt\n      iszero\n      tag_155\n      jumpi\n      0x00\n      dup1\n      revert\n    tag_155:\n      pop\n      calldataload\n      sub(shl(0xa0, 0x01), 0x01)\n      and\n      tag_156\n      jump\t// in\n        /* \"farms-pools/LandbaseLockPool.sol\":1696:1716  address public admin */\n    tag_46:\n      tag_94\n      tag_158\n      jump\t// in\n        /* \"farms-pools/LandbaseLockPool.sol\":1390:1429  IMasterChef public immutable masterchef */\n    tag_47:\n      tag_94\n      tag_160\n      jump\t// in\n        /* \"farms-pools/LandbaseLockPool.sol\":1280:1309  IERC20 public immutable token */\n    tag_48:\n      tag_94\n      tag_162\n      jump\t// in\n        /* \"farms-pools/LandbaseLockPool.sol\":18124:18446  function updateEndBlock(uint256 _endBlock) external onlyAdmin {\r... */\n    tag_58:\n        /* \"farms-pools/LandbaseLockPool.sol\":4236:4241  admin */\n      and(sub(shl(0xa0, 0x01), 0x01), sload(0x07))\n        /* \"farms-pools/LandbaseLockPool.sol\":4222:4232  msg.sender */\n      caller\n        /* \"farms-pools/LandbaseLockPool.sol\":4222:4241  msg.sender == admin */\n      eq\n        /* \"farms-pools/LandbaseLockPool.sol\":4214:4257  require(msg.sender == admin, \"admin: wut?\") */\n      tag_166\n      jumpi\n      0x40\n      dup1\n      mload\n      shl(0xe5, 0x461bcd)\n      dup2\n      mstore\n      0x20\n      0x04\n      dup3\n      add\n      mstore\n      0x0b\n      0x24\n      dup3\n      add\n      mstore\n      shl(0xa8, 0x61646d696e3a207775743f)\n      0x44\n      dup3\n      add\n      mstore\n      swap1\n      mload\n      swap1\n      dup2\n      swap1\n      sub\n      0x64\n      add\n      swap1\n      revert\n    tag_166:\n        /* \"farms-pools/LandbaseLockPool.sol\":18220:18229  _endBlock */\n      dup1\n        /* \"farms-pools/LandbaseLockPool.sol\":18205:18217  block.number */\n      number\n        /* \"farms-pools/LandbaseLockPool.sol\":18205:18229  block.number < _endBlock */\n      lt\n        /* \"farms-pools/LandbaseLockPool.sol\":18197:18274  require(block.number < _endBlock, \"new end block can't behind current block\") */\n      tag_168\n      jumpi\n      mload(0x40)\n      shl(0xe5, 0x461bcd)\n      dup2\n      mstore\n      0x04\n      add\n      dup1\n      dup1\n      0x20\n      add\n      dup3\n      dup2\n      sub\n      dup3\n      mstore\n      0x28\n      dup2\n      mstore\n      0x20\n      add\n      dup1\n      data_6d2e0ee418a4fa9636bc860d0410414c2f3bb829ed67581046f589a0e038df7e\n      0x28\n      swap2\n      codecopy\n      0x40\n      add\n      swap2\n      pop\n      pop\n      mload(0x40)\n      dup1\n      swap2\n      sub\n      swap1\n      revert\n    tag_168:\n        /* \"farms-pools/LandbaseLockPool.sol\":18308:18316  endBlock */\n      sload(0x04)\n        /* \"farms-pools/LandbaseLockPool.sol\":18293:18305  block.number */\n      number\n        /* \"farms-pools/LandbaseLockPool.sol\":18293:18316  block.number < endBlock */\n      lt\n        /* \"farms-pools/LandbaseLockPool.sol\":18285:18362  require(block.number < endBlock,  \"old end block can't behind current block\") */\n      tag_169\n      jumpi\n      mload(0x40)\n      shl(0xe5, 0x461bcd)\n      dup2\n      mstore\n      0x04\n      add\n      dup1\n      dup1\n      0x20\n      add\n      dup3\n      dup2\n      sub\n      dup3\n      mstore\n      0x28\n      dup2\n      mstore\n      0x20\n      add\n      dup1\n      data_e10f87a14096ac956401d5f800040ab40e68d1d271dcb4693c1df00be0147b71\n      0x28\n      swap2\n      codecopy\n      0x40\n      add\n      swap2\n      pop\n      pop\n      mload(0x40)\n      dup1\n      swap2\n      sub\n      swap1\n      revert\n    tag_169:\n        /* \"farms-pools/LandbaseLockPool.sol\":18375:18383  endBlock */\n      0x04\n        /* \"farms-pools/LandbaseLockPool.sol\":18375:18395  endBlock = _endBlock */\n      dup2\n      swap1\n      sstore\n        /* \"farms-pools/LandbaseLockPool.sol\":18413:18438  UpdateEndBlock(_endBlock) */\n      0x40\n      dup1\n      mload\n      dup3\n      dup2\n      mstore\n      swap1\n      mload\n      0x72a01621587849e39c667eb81696643997f818c6c286614cd1497e5ef2e9ecd6\n      swap2\n      dup2\n      swap1\n      sub\n      0x20\n      add\n      swap1\n      log1\n        /* \"farms-pools/LandbaseLockPool.sol\":18124:18446  function updateEndBlock(uint256 _endBlock) external onlyAdmin {\r... */\n      pop\n      jump\t// out\n        /* \"farms-pools/LandbaseLockPool.sol\":1500:1551  mapping(address =>  UserIFOInfo) public userIFOInfo */\n    tag_61:\n      0x02\n      0x20\n      dup2\n      swap1\n      mstore\n      0x00\n      swap2\n      dup3\n      mstore\n      0x40\n      swap1\n      swap2\n      keccak256\n      dup1\n      sload\n      0x01\n      dup3\n      add\n      sload\n      swap3\n      dup3\n      add\n      sload\n      0x03\n      dup4\n      add\n      sload\n      0x04\n      swap1\n      swap4\n      add\n      sload\n      swap2\n      swap4\n      swap3\n      swap1\n      swap2\n      dup6\n      jump\t// out\n        /* \"farms-pools/LandbaseLockPool.sol\":1592:1615  uint256 public endBlock */\n    tag_63:\n      sload(0x04)\n      dup2\n      jump\t// out\n        /* \"farms-pools/LandbaseLockPool.sol\":1438:1482  mapping(address => UserInfo) public userInfo */\n    tag_66:\n      0x01\n      0x20\n      dup2\n      swap1\n      mstore\n      0x00\n      swap2\n      dup3\n      mstore\n      0x40\n      swap1\n      swap2\n      keccak256\n      dup1\n      sload\n      swap2\n      dup2\n      add\n      sload\n      0x02\n      dup3\n      add\n      sload\n      0x03\n      swap1\n      swap3\n      add\n      sload\n      swap1\n      swap2\n      swap1\n      dup5\n      jump\t// out\n        /* \"farms-pools/LandbaseLockPool.sol\":16976:17277  function setWithdrawFeePeriod(uint256 _withdrawFeePeriod) external onlyAdmin {\r... */\n    tag_69:\n        /* \"farms-pools/LandbaseLockPool.sol\":4236:4241  admin */\n      and(sub(shl(0xa0, 0x01), 0x01), sload(0x07))\n        /* \"farms-pools/LandbaseLockPool.sol\":4222:4232  msg.sender */\n      caller\n        /* \"farms-pools/LandbaseLockPool.sol\":4222:4241  msg.sender == admin */\n      eq\n        /* \"farms-pools/LandbaseLockPool.sol\":4214:4257  require(msg.sender == admin, \"admin: wut?\") */\n      tag_171\n      jumpi\n      0x40\n      dup1\n      mload\n      shl(0xe5, 0x461bcd)\n      dup2\n      mstore\n      0x20\n      0x04\n      dup3\n      add\n      mstore\n      0x0b\n      0x24\n      dup3\n      add\n      mstore\n      shl(0xa8, 0x61646d696e3a207775743f)\n      0x44\n      dup3\n      add\n      mstore\n      swap1\n      mload\n      swap1\n      dup2\n      swap1\n      sub\n      0x64\n      add\n      swap1\n      revert\n    tag_171:\n        /* \"farms-pools/LandbaseLockPool.sol\":1981:1990  168 hours */\n      0x093a80\n        /* \"farms-pools/LandbaseLockPool.sol\":17086:17104  _withdrawFeePeriod */\n      dup2\n        /* \"farms-pools/LandbaseLockPool.sol\":17086:17131  _withdrawFeePeriod <= MAX_WITHDRAW_FEE_PERIOD */\n      gt\n      iszero\n        /* \"farms-pools/LandbaseLockPool.sol\":17064:17220  require(\r... */\n      tag_173\n      jumpi\n      mload(0x40)\n      shl(0xe5, 0x461bcd)\n      dup2\n      mstore\n      0x04\n      add\n      dup1\n      dup1\n      0x20\n      add\n      dup3\n      dup2\n      sub\n      dup3\n      mstore\n      0x3d\n      dup2\n      mstore\n      0x20\n      add\n      dup1\n      data_cfca239801295453e18a917561471428326355dcfd35c2679d3e455f8ddb6850\n      0x3d\n      swap2\n      codecopy\n      0x40\n      add\n      swap2\n      pop\n      pop\n      mload(0x40)\n      dup1\n      swap2\n      sub\n      swap1\n      revert\n    tag_173:\n        /* \"farms-pools/LandbaseLockPool.sol\":17231:17248  withdrawFeePeriod */\n      0x0c\n        /* \"farms-pools/LandbaseLockPool.sol\":17231:17269  withdrawFeePeriod = _withdrawFeePeriod */\n      sstore\n        /* \"farms-pools/LandbaseLockPool.sol\":16976:17277  function setWithdrawFeePeriod(uint256 _withdrawFeePeriod) external onlyAdmin {\r... */\n      jump\t// out\n        /* \"farms-pools/LandbaseLockPool.sol\":16353:16535  function setCallFee(uint256 _callFee) external onlyAdmin {\r... */\n    tag_72:\n        /* \"farms-pools/LandbaseLockPool.sol\":4236:4241  admin */\n      and(sub(shl(0xa0, 0x01), 0x01), sload(0x07))\n        /* \"farms-pools/LandbaseLockPool.sol\":4222:4232  msg.sender */\n      caller\n        /* \"farms-pools/LandbaseLockPool.sol\":4222:4241  msg.sender == admin */\n      eq\n        /* \"farms-pools/LandbaseLockPool.sol\":4214:4257  require(msg.sender == admin, \"admin: wut?\") */\n      tag_175\n      jumpi\n      0x40\n      dup1\n      mload\n      shl(0xe5, 0x461bcd)\n      dup2\n      mstore\n      0x20\n      0x04\n      dup3\n      add\n      mstore\n      0x0b\n      0x24\n      dup3\n      add\n      mstore\n      shl(0xa8, 0x61646d696e3a207775743f)\n      0x44\n      dup3\n      add\n      mstore\n      swap1\n      mload\n      swap1\n      dup2\n      swap1\n      sub\n      0x64\n      add\n      swap1\n      revert\n    tag_175:\n        /* \"farms-pools/LandbaseLockPool.sol\":1856:1859  100 */\n      0x64\n        /* \"farms-pools/LandbaseLockPool.sol\":16429:16437  _callFee */\n      dup2\n        /* \"farms-pools/LandbaseLockPool.sol\":16429:16453  _callFee <= MAX_CALL_FEE */\n      gt\n      iszero\n        /* \"farms-pools/LandbaseLockPool.sol\":16421:16498  require(_callFee <= MAX_CALL_FEE, \"callFee cannot be more than MAX_CALL_FEE\") */\n      tag_177\n      jumpi\n      mload(0x40)\n      shl(0xe5, 0x461bcd)\n      dup2\n      mstore\n      0x04\n      add\n      dup1\n      dup1\n      0x20\n      add\n      dup3\n      dup2\n      sub\n      dup3\n      mstore\n      0x28\n      dup2\n      mstore\n      0x20\n      add\n      dup1\n      data_5f4afedb5cb4c613eb925791e30905bbaa67a23ed369aa450ccf1eb0e08c07ff\n      0x28\n      swap2\n      codecopy\n      0x40\n      add\n      swap2\n      pop\n      pop\n      mload(0x40)\n      dup1\n      swap2\n      sub\n      swap1\n      revert\n    tag_177:\n        /* \"farms-pools/LandbaseLockPool.sol\":16509:16516  callFee */\n      0x0a\n        /* \"farms-pools/LandbaseLockPool.sol\":16509:16527  callFee = _callFee */\n      sstore\n        /* \"farms-pools/LandbaseLockPool.sol\":16353:16535  function setCallFee(uint256 _callFee) external onlyAdmin {\r... */\n      jump\t// out\n        /* \"farms-pools/LandbaseLockPool.sol\":1817:1859  uint256 public constant MAX_CALL_FEE = 100 */\n    tag_74:\n        /* \"farms-pools/LandbaseLockPool.sol\":1856:1859  100 */\n      0x64\n        /* \"farms-pools/LandbaseLockPool.sol\":1817:1859  uint256 public constant MAX_CALL_FEE = 100 */\n      dup2\n      jump\t// out\n        /* \"farms-pools/LandbaseLockPool.sol\":1931:1990  uint256 public constant MAX_WITHDRAW_FEE_PERIOD = 168 hours */\n    tag_76:\n        /* \"farms-pools/LandbaseLockPool.sol\":1981:1990  168 hours */\n      0x093a80\n        /* \"farms-pools/LandbaseLockPool.sol\":1931:1990  uint256 public constant MAX_WITHDRAW_FEE_PERIOD = 168 hours */\n      dup2\n      jump\t// out\n        /* \"farms-pools/LandbaseLockPool.sol\":11170:12814  function withdraw(uint256 _shares) public notContract {\r... */\n    tag_79:\n        /* \"farms-pools/LandbaseLockPool.sol\":4412:4435  _isContract(msg.sender) */\n      tag_179\n        /* \"farms-pools/LandbaseLockPool.sol\":4424:4434  msg.sender */\n      caller\n        /* \"farms-pools/LandbaseLockPool.sol\":4412:4423  _isContract */\n      tag_180\n        /* \"farms-pools/LandbaseLockPool.sol\":4412:4435  _isContract(msg.sender) */\n      jump\t// in\n    tag_179:\n        /* \"farms-pools/LandbaseLockPool.sol\":4411:4435  !_isContract(msg.sender) */\n      iszero\n        /* \"farms-pools/LandbaseLockPool.sol\":4403:4460  require(!_isContract(msg.sender), \"contract not allowed\") */\n      tag_181\n      jumpi\n      0x40\n      dup1\n      mload\n      shl(0xe5, 0x461bcd)\n      dup2\n      mstore\n      0x20\n      0x04\n      dup3\n      add\n      mstore\n      0x14\n      0x24\n      dup3\n      add\n      mstore\n      shl(0x62, 0x18dbdb9d1c9858dd081b9bdd08185b1b1bddd959)\n      0x44\n      dup3\n      add\n      mstore\n      swap1\n      mload\n      swap1\n      dup2\n      swap1\n      sub\n      0x64\n      add\n      swap1\n      revert\n    tag_181:\n        /* \"farms-pools/LandbaseLockPool.sol\":4479:4489  msg.sender */\n      caller\n        /* \"farms-pools/LandbaseLockPool.sol\":4493:4502  tx.origin */\n      origin\n        /* \"farms-pools/LandbaseLockPool.sol\":4479:4502  msg.sender == tx.origin */\n      eq\n        /* \"farms-pools/LandbaseLockPool.sol\":4471:4533  require(msg.sender == tx.origin, \"proxy contract not allowed\") */\n      tag_182\n      jumpi\n      0x40\n      dup1\n      mload\n      shl(0xe5, 0x461bcd)\n      dup2\n      mstore\n      0x20\n      0x04\n      dup3\n      add\n      mstore\n      0x1a\n      0x24\n      dup3\n      add\n      mstore\n      0x00\n      dup1\n      mload\n      0x20\n      data_7fed9a49aa73ae2a737052ad81231890c87ba88fdcecfa2465f440d93f710eda\n      dup4\n      codecopy\n      dup2\n      mload\n      swap2\n      mstore\n      0x44\n      dup3\n      add\n      mstore\n      swap1\n      mload\n      swap1\n      dup2\n      swap1\n      sub\n      0x64\n      add\n      swap1\n      revert\n    tag_182:\n        /* \"farms-pools/LandbaseLockPool.sol\":11268:11278  msg.sender */\n      caller\n        /* \"farms-pools/LandbaseLockPool.sol\":11235:11256  UserInfo storage user */\n      0x00\n        /* \"farms-pools/LandbaseLockPool.sol\":11259:11279  userInfo[msg.sender] */\n      swap1\n      dup2\n      mstore\n        /* \"farms-pools/LandbaseLockPool.sol\":11259:11267  userInfo */\n      0x01\n        /* \"farms-pools/LandbaseLockPool.sol\":11259:11279  userInfo[msg.sender] */\n      0x20\n      mstore\n      0x40\n      swap1\n      keccak256\n        /* \"farms-pools/LandbaseLockPool.sol\":11298:11309  _shares > 0 */\n      dup2\n        /* \"farms-pools/LandbaseLockPool.sol\":11290:11333  require(_shares > 0, \"Nothing to withdraw\") */\n      tag_184\n      jumpi\n      0x40\n      dup1\n      mload\n      shl(0xe5, 0x461bcd)\n      dup2\n      mstore\n      0x20\n      0x04\n      dup3\n      add\n      mstore\n      0x13\n      0x24\n      dup3\n      add\n      mstore\n      shl(0x68, 0x4e6f7468696e6720746f207769746864726177)\n      0x44\n      dup3\n      add\n      mstore\n      swap1\n      mload\n      swap1\n      dup2\n      swap1\n      sub\n      0x64\n      add\n      swap1\n      revert\n    tag_184:\n        /* \"farms-pools/LandbaseLockPool.sol\":11363:11374  user.shares */\n      dup1\n      sload\n        /* \"farms-pools/LandbaseLockPool.sol\":11352:11374  _shares <= user.shares */\n      dup3\n      gt\n      iszero\n        /* \"farms-pools/LandbaseLockPool.sol\":11344:11410  require(_shares <= user.shares, \"Withdraw amount exceeds balance\") */\n      tag_185\n      jumpi\n      0x40\n      dup1\n      mload\n      shl(0xe5, 0x461bcd)\n      dup2\n      mstore\n      0x20\n      0x04\n      dup3\n      add\n      mstore\n      0x1f\n      0x24\n      dup3\n      add\n      mstore\n      0x576974686472617720616d6f756e7420657863656564732062616c616e636500\n      0x44\n      dup3\n      add\n      mstore\n      swap1\n      mload\n      swap1\n      dup2\n      swap1\n      sub\n      0x64\n      add\n      swap1\n      revert\n    tag_185:\n        /* \"farms-pools/LandbaseLockPool.sol\":11423:11444  uint256 currentAmount */\n      0x00\n        /* \"farms-pools/LandbaseLockPool.sol\":11447:11490  (balanceOf().mul(_shares)).div(totalShares) */\n      tag_186\n        /* \"farms-pools/LandbaseLockPool.sol\":11478:11489  totalShares */\n      sload(0x05)\n        /* \"farms-pools/LandbaseLockPool.sol\":11448:11472  balanceOf().mul(_shares) */\n      tag_187\n        /* \"farms-pools/LandbaseLockPool.sol\":11464:11471  _shares */\n      dup6\n        /* \"farms-pools/LandbaseLockPool.sol\":11448:11459  balanceOf() */\n      tag_188\n        /* \"farms-pools/LandbaseLockPool.sol\":11448:11457  balanceOf */\n      tag_105\n        /* \"farms-pools/LandbaseLockPool.sol\":11448:11459  balanceOf() */\n      jump\t// in\n    tag_188:\n        /* \"farms-pools/LandbaseLockPool.sol\":11448:11463  balanceOf().mul */\n      swap1\n      tag_189\n        /* \"farms-pools/LandbaseLockPool.sol\":11448:11472  balanceOf().mul(_shares) */\n      jump\t// in\n    tag_187:\n        /* \"farms-pools/LandbaseLockPool.sol\":11447:11477  (balanceOf().mul(_shares)).div */\n      swap1\n      tag_190\n        /* \"farms-pools/LandbaseLockPool.sol\":11447:11490  (balanceOf().mul(_shares)).div(totalShares) */\n      jump\t// in\n    tag_186:\n        /* \"farms-pools/LandbaseLockPool.sol\":11565:11576  user.shares */\n      dup3\n      sload\n        /* \"farms-pools/LandbaseLockPool.sol\":11423:11490  uint256 currentAmount = (balanceOf().mul(_shares)).div(totalShares) */\n      swap1\n      swap2\n      pop\n      dup2\n      swap1\n        /* \"farms-pools/LandbaseLockPool.sol\":11565:11589  user.shares.sub(_shares) */\n      tag_191\n      swap1\n        /* \"farms-pools/LandbaseLockPool.sol\":11581:11588  _shares */\n      dup6\n        /* \"farms-pools/LandbaseLockPool.sol\":11565:11580  user.shares.sub */\n      tag_192\n        /* \"farms-pools/LandbaseLockPool.sol\":11565:11589  user.shares.sub(_shares) */\n      jump\t// in\n    tag_191:\n        /* \"farms-pools/LandbaseLockPool.sol\":11551:11589  user.shares = user.shares.sub(_shares) */\n      dup4\n      sstore\n        /* \"farms-pools/LandbaseLockPool.sol\":11614:11625  totalShares */\n      sload(0x05)\n        /* \"farms-pools/LandbaseLockPool.sol\":11614:11638  totalShares.sub(_shares) */\n      tag_193\n      swap1\n        /* \"farms-pools/LandbaseLockPool.sol\":11630:11637  _shares */\n      dup6\n        /* \"farms-pools/LandbaseLockPool.sol\":11614:11629  totalShares.sub */\n      tag_192\n        /* \"farms-pools/LandbaseLockPool.sol\":11614:11638  totalShares.sub(_shares) */\n      jump\t// in\n    tag_193:\n        /* \"farms-pools/LandbaseLockPool.sol\":11600:11611  totalShares */\n      0x05\n        /* \"farms-pools/LandbaseLockPool.sol\":11600:11638  totalShares = totalShares.sub(_shares) */\n      sstore\n        /* \"farms-pools/LandbaseLockPool.sol\":11651:11662  uint256 bal */\n      0x00\n        /* \"farms-pools/LandbaseLockPool.sol\":11665:11676  available() */\n      tag_194\n        /* \"farms-pools/LandbaseLockPool.sol\":11665:11674  available */\n      tag_87\n        /* \"farms-pools/LandbaseLockPool.sol\":11665:11676  available() */\n      jump\t// in\n    tag_194:\n        /* \"farms-pools/LandbaseLockPool.sol\":11651:11676  uint256 bal = available() */\n      swap1\n      pop\n        /* \"farms-pools/LandbaseLockPool.sol\":11697:11710  currentAmount */\n      dup3\n        /* \"farms-pools/LandbaseLockPool.sol\":11691:11694  bal */\n      dup2\n        /* \"farms-pools/LandbaseLockPool.sol\":11691:11710  bal < currentAmount */\n      lt\n        /* \"farms-pools/LandbaseLockPool.sol\":11687:12041  if (bal < currentAmount) {\r... */\n      iszero\n      tag_195\n      jumpi\n        /* \"farms-pools/LandbaseLockPool.sol\":11727:11746  uint256 balWithdraw */\n      0x00\n        /* \"farms-pools/LandbaseLockPool.sol\":11749:11771  currentAmount.sub(bal) */\n      tag_196\n        /* \"farms-pools/LandbaseLockPool.sol\":11749:11762  currentAmount */\n      dup5\n        /* \"farms-pools/LandbaseLockPool.sol\":11767:11770  bal */\n      dup4\n        /* \"farms-pools/LandbaseLockPool.sol\":11749:11766  currentAmount.sub */\n      tag_192\n        /* \"farms-pools/LandbaseLockPool.sol\":11749:11771  currentAmount.sub(bal) */\n      jump\t// in\n    tag_196:\n        /* \"farms-pools/LandbaseLockPool.sol\":11727:11771  uint256 balWithdraw = currentAmount.sub(bal) */\n      swap1\n      pop\n        /* \"farms-pools/LandbaseLockPool.sol\":11798:11808  masterchef */\n      immutable(\"0x64e604787cbf194841e7b68d7cd28786f6c9a0a3ab9f8b0a0e87cb4387ab0107\")\n      sub(shl(0xa0, 0x01), 0x01)\n        /* \"farms-pools/LandbaseLockPool.sol\":11786:11822  IMasterChef(masterchef).leaveStaking */\n      and\n      0x1058d281\n        /* \"farms-pools/LandbaseLockPool.sol\":11823:11834  balWithdraw */\n      dup3\n        /* \"farms-pools/LandbaseLockPool.sol\":11786:11835  IMasterChef(masterchef).leaveStaking(balWithdraw) */\n      mload(0x40)\n      dup3\n      0xffffffff\n      and\n      0xe0\n      shl\n      dup2\n      mstore\n      0x04\n      add\n      dup1\n      dup3\n      dup2\n      mstore\n      0x20\n      add\n      swap2\n      pop\n      pop\n      0x00\n      mload(0x40)\n      dup1\n      dup4\n      sub\n      dup2\n      0x00\n      dup8\n      dup1\n      extcodesize\n      iszero\n      dup1\n      iszero\n      tag_197\n      jumpi\n      0x00\n      dup1\n      revert\n    tag_197:\n      pop\n      gas\n      call\n      iszero\n      dup1\n      iszero\n      tag_199\n      jumpi\n      returndatasize\n      0x00\n      dup1\n      returndatacopy\n      revert(0x00, returndatasize)\n    tag_199:\n      pop\n      pop\n      pop\n      pop\n        /* \"farms-pools/LandbaseLockPool.sol\":11850:11866  uint256 balAfter */\n      0x00\n        /* \"farms-pools/LandbaseLockPool.sol\":11869:11880  available() */\n      tag_200\n        /* \"farms-pools/LandbaseLockPool.sol\":11869:11878  available */\n      tag_87\n        /* \"farms-pools/LandbaseLockPool.sol\":11869:11880  available() */\n      jump\t// in\n    tag_200:\n        /* \"farms-pools/LandbaseLockPool.sol\":11850:11880  uint256 balAfter = available() */\n      swap1\n      pop\n        /* \"farms-pools/LandbaseLockPool.sol\":11895:11907  uint256 diff */\n      0x00\n        /* \"farms-pools/LandbaseLockPool.sol\":11910:11927  balAfter.sub(bal) */\n      tag_201\n        /* \"farms-pools/LandbaseLockPool.sol\":11850:11880  uint256 balAfter = available() */\n      dup3\n        /* \"farms-pools/LandbaseLockPool.sol\":11923:11926  bal */\n      dup6\n        /* \"farms-pools/LandbaseLockPool.sol\":11910:11922  balAfter.sub */\n      tag_192\n        /* \"farms-pools/LandbaseLockPool.sol\":11910:11927  balAfter.sub(bal) */\n      jump\t// in\n    tag_201:\n        /* \"farms-pools/LandbaseLockPool.sol\":11895:11927  uint256 diff = balAfter.sub(bal) */\n      swap1\n      pop\n        /* \"farms-pools/LandbaseLockPool.sol\":11953:11964  balWithdraw */\n      dup3\n        /* \"farms-pools/LandbaseLockPool.sol\":11946:11950  diff */\n      dup2\n        /* \"farms-pools/LandbaseLockPool.sol\":11946:11964  diff < balWithdraw */\n      lt\n        /* \"farms-pools/LandbaseLockPool.sol\":11942:12030  if (diff < balWithdraw) {\r... */\n      iszero\n      tag_202\n      jumpi\n        /* \"farms-pools/LandbaseLockPool.sol\":12001:12014  bal.add(diff) */\n      tag_203\n        /* \"farms-pools/LandbaseLockPool.sol\":12001:12004  bal */\n      dup5\n        /* \"farms-pools/LandbaseLockPool.sol\":12009:12013  diff */\n      dup3\n        /* \"farms-pools/LandbaseLockPool.sol\":12001:12008  bal.add */\n      tag_204\n        /* \"farms-pools/LandbaseLockPool.sol\":12001:12014  bal.add(diff) */\n      jump\t// in\n    tag_203:\n        /* \"farms-pools/LandbaseLockPool.sol\":11985:12014  currentAmount = bal.add(diff) */\n      swap6\n      pop\n        /* \"farms-pools/LandbaseLockPool.sol\":11942:12030  if (diff < balWithdraw) {\r... */\n    tag_202:\n        /* \"farms-pools/LandbaseLockPool.sol\":11687:12041  if (bal < currentAmount) {\r... */\n      pop\n      pop\n      pop\n    tag_195:\n        /* \"farms-pools/LandbaseLockPool.sol\":12102:12119  withdrawFeePeriod */\n      sload(0x0c)\n        /* \"farms-pools/LandbaseLockPool.sol\":12075:12097  user.lastDepositedTime */\n      0x01\n      dup6\n      add\n      sload\n        /* \"farms-pools/LandbaseLockPool.sol\":12075:12120  user.lastDepositedTime.add(withdrawFeePeriod) */\n      tag_205\n      swap2\n        /* \"farms-pools/LandbaseLockPool.sol\":12075:12101  user.lastDepositedTime.add */\n      tag_204\n        /* \"farms-pools/LandbaseLockPool.sol\":12075:12120  user.lastDepositedTime.add(withdrawFeePeriod) */\n      jump\t// in\n    tag_205:\n        /* \"farms-pools/LandbaseLockPool.sol\":12057:12072  block.timestamp */\n      timestamp\n        /* \"farms-pools/LandbaseLockPool.sol\":12057:12120  block.timestamp < user.lastDepositedTime.add(withdrawFeePeriod) */\n      lt\n        /* \"farms-pools/LandbaseLockPool.sol\":12053:12350  if (block.timestamp < user.lastDepositedTime.add(withdrawFeePeriod)) {\r... */\n      iszero\n      tag_206\n      jumpi\n        /* \"farms-pools/LandbaseLockPool.sol\":12137:12163  uint256 currentWithdrawFee */\n      0x00\n        /* \"farms-pools/LandbaseLockPool.sol\":12166:12207  currentAmount.mul(withdrawFee).div(10000) */\n      tag_207\n        /* \"farms-pools/LandbaseLockPool.sol\":12201:12206  10000 */\n      0x2710\n        /* \"farms-pools/LandbaseLockPool.sol\":12166:12196  currentAmount.mul(withdrawFee) */\n      tag_187\n        /* \"farms-pools/LandbaseLockPool.sol\":12184:12195  withdrawFee */\n      sload(0x0b)\n        /* \"farms-pools/LandbaseLockPool.sol\":12166:12179  currentAmount */\n      dup8\n        /* \"farms-pools/LandbaseLockPool.sol\":12166:12183  currentAmount.mul */\n      tag_189\n      swap1\n        /* \"farms-pools/LandbaseLockPool.sol\":12166:12196  currentAmount.mul(withdrawFee) */\n      swap2\n      swap1\n      0xffffffff\n      and\n      jump\t// in\n        /* \"farms-pools/LandbaseLockPool.sol\":12166:12207  currentAmount.mul(withdrawFee).div(10000) */\n    tag_207:\n        /* \"farms-pools/LandbaseLockPool.sol\":12241:12249  treasury */\n      sload(0x08)\n        /* \"farms-pools/LandbaseLockPool.sol\":12137:12207  uint256 currentWithdrawFee = currentAmount.mul(withdrawFee).div(10000) */\n      swap1\n      swap2\n      pop\n        /* \"farms-pools/LandbaseLockPool.sol\":12222:12270  token.safeTransfer(treasury, currentWithdrawFee) */\n      tag_209\n      swap1\n      sub(shl(0xa0, 0x01), 0x01)\n        /* \"farms-pools/LandbaseLockPool.sol\":12222:12227  token */\n      immutable(\"0x7ae9fd093408c444e1cd944d183f5410919486c93305c223a5a94b5e79d77d3b\")\n        /* \"farms-pools/LandbaseLockPool.sol\":12222:12240  token.safeTransfer */\n      dup2\n      and\n      swap2\n        /* \"farms-pools/LandbaseLockPool.sol\":12241:12249  treasury */\n      and\n        /* \"farms-pools/LandbaseLockPool.sol\":12137:12207  uint256 currentWithdrawFee = currentAmount.mul(withdrawFee).div(10000) */\n      dup4\n        /* \"farms-pools/LandbaseLockPool.sol\":12222:12240  token.safeTransfer */\n      tag_210\n        /* \"farms-pools/LandbaseLockPool.sol\":12222:12270  token.safeTransfer(treasury, currentWithdrawFee) */\n      jump\t// in\n    tag_209:\n        /* \"farms-pools/LandbaseLockPool.sol\":12301:12338  currentAmount.sub(currentWithdrawFee) */\n      tag_211\n        /* \"farms-pools/LandbaseLockPool.sol\":12301:12314  currentAmount */\n      dup5\n        /* \"farms-pools/LandbaseLockPool.sol\":12319:12337  currentWithdrawFee */\n      dup3\n        /* \"farms-pools/LandbaseLockPool.sol\":12301:12318  currentAmount.sub */\n      tag_192\n        /* \"farms-pools/LandbaseLockPool.sol\":12301:12338  currentAmount.sub(currentWithdrawFee) */\n      jump\t// in\n    tag_211:\n        /* \"farms-pools/LandbaseLockPool.sol\":12285:12338  currentAmount = currentAmount.sub(currentWithdrawFee) */\n      swap4\n      pop\n        /* \"farms-pools/LandbaseLockPool.sol\":12053:12350  if (block.timestamp < user.lastDepositedTime.add(withdrawFeePeriod)) {\r... */\n      pop\n    tag_206:\n        /* \"farms-pools/LandbaseLockPool.sol\":12366:12377  user.shares */\n      dup4\n      sload\n        /* \"farms-pools/LandbaseLockPool.sol\":12366:12381  user.shares > 0 */\n      iszero\n        /* \"farms-pools/LandbaseLockPool.sol\":12362:12545  if (user.shares > 0) {\r... */\n      tag_212\n      jumpi\n        /* \"farms-pools/LandbaseLockPool.sol\":12426:12471  user.shares.mul(balanceOf()).div(totalShares) */\n      tag_213\n        /* \"farms-pools/LandbaseLockPool.sol\":12459:12470  totalShares */\n      sload(0x05)\n        /* \"farms-pools/LandbaseLockPool.sol\":12426:12454  user.shares.mul(balanceOf()) */\n      tag_187\n        /* \"farms-pools/LandbaseLockPool.sol\":12442:12453  balanceOf() */\n      tag_215\n        /* \"farms-pools/LandbaseLockPool.sol\":12442:12451  balanceOf */\n      tag_105\n        /* \"farms-pools/LandbaseLockPool.sol\":12442:12453  balanceOf() */\n      jump\t// in\n    tag_215:\n        /* \"farms-pools/LandbaseLockPool.sol\":12426:12437  user.shares */\n      dup8\n      sload\n      swap1\n        /* \"farms-pools/LandbaseLockPool.sol\":12426:12441  user.shares.mul */\n      tag_189\n        /* \"farms-pools/LandbaseLockPool.sol\":12426:12454  user.shares.mul(balanceOf()) */\n      jump\t// in\n        /* \"farms-pools/LandbaseLockPool.sol\":12426:12471  user.shares.mul(balanceOf()).div(totalShares) */\n    tag_213:\n        /* \"farms-pools/LandbaseLockPool.sol\":12398:12423  user.cakeAtLastUserAction */\n      0x02\n      dup6\n      add\n        /* \"farms-pools/LandbaseLockPool.sol\":12398:12471  user.cakeAtLastUserAction = user.shares.mul(balanceOf()).div(totalShares) */\n      sstore\n        /* \"farms-pools/LandbaseLockPool.sol\":12362:12545  if (user.shares > 0) {\r... */\n      jump(tag_216)\n    tag_212:\n        /* \"farms-pools/LandbaseLockPool.sol\":12532:12533  0 */\n      0x00\n        /* \"farms-pools/LandbaseLockPool.sol\":12504:12529  user.cakeAtLastUserAction */\n      0x02\n      dup6\n      add\n        /* \"farms-pools/LandbaseLockPool.sol\":12504:12533  user.cakeAtLastUserAction = 0 */\n      sstore\n        /* \"farms-pools/LandbaseLockPool.sol\":12362:12545  if (user.shares > 0) {\r... */\n    tag_216:\n        /* \"farms-pools/LandbaseLockPool.sol\":12583:12598  block.timestamp */\n      timestamp\n        /* \"farms-pools/LandbaseLockPool.sol\":12557:12580  user.lastUserActionTime */\n      0x03\n      dup6\n      add\n        /* \"farms-pools/LandbaseLockPool.sol\":12557:12598  user.lastUserActionTime = block.timestamp */\n      sstore\n        /* \"farms-pools/LandbaseLockPool.sol\":12634:12686  _updateUserIFO(ifoDeductAmount, IFOActions.Withdraw) */\n      tag_217\n        /* \"farms-pools/LandbaseLockPool.sol\":12649:12664  ifoDeductAmount */\n      dup3\n        /* \"farms-pools/LandbaseLockPool.sol\":12666:12685  IFOActions.Withdraw */\n      0x01\n        /* \"farms-pools/LandbaseLockPool.sol\":12634:12648  _updateUserIFO */\n      tag_218\n        /* \"farms-pools/LandbaseLockPool.sol\":12634:12686  _updateUserIFO(ifoDeductAmount, IFOActions.Withdraw) */\n      jump\t// in\n    tag_217:\n        /* \"farms-pools/LandbaseLockPool.sol\":12699:12744  token.safeTransfer(msg.sender, currentAmount) */\n      tag_219\n      sub(shl(0xa0, 0x01), 0x01)\n        /* \"farms-pools/LandbaseLockPool.sol\":12699:12704  token */\n      immutable(\"0x7ae9fd093408c444e1cd944d183f5410919486c93305c223a5a94b5e79d77d3b\")\n        /* \"farms-pools/LandbaseLockPool.sol\":12699:12717  token.safeTransfer */\n      and\n        /* \"farms-pools/LandbaseLockPool.sol\":12718:12728  msg.sender */\n      caller\n        /* \"farms-pools/LandbaseLockPool.sol\":12730:12743  currentAmount */\n      dup6\n        /* \"farms-pools/LandbaseLockPool.sol\":12699:12717  token.safeTransfer */\n      tag_210\n        /* \"farms-pools/LandbaseLockPool.sol\":12699:12744  token.safeTransfer(msg.sender, currentAmount) */\n      jump\t// in\n    tag_219:\n        /* \"farms-pools/LandbaseLockPool.sol\":12762:12806  Withdraw(msg.sender, currentAmount, _shares) */\n      0x40\n      dup1\n      mload\n      dup5\n      dup2\n      mstore\n      0x20\n      dup2\n      add\n      dup8\n      swap1\n      mstore\n      dup2\n      mload\n        /* \"farms-pools/LandbaseLockPool.sol\":12771:12781  msg.sender */\n      caller\n      swap3\n        /* \"farms-pools/LandbaseLockPool.sol\":12762:12806  Withdraw(msg.sender, currentAmount, _shares) */\n      0xf279e6a1f5e320cca91135676d9cb6e44ca8a08c0b88342bcdb1144f6511b568\n      swap3\n      dup3\n      swap1\n      sub\n      add\n      swap1\n      log2\n        /* \"farms-pools/LandbaseLockPool.sol\":4544:4545  _ */\n      pop\n      pop\n      pop\n      pop\n        /* \"farms-pools/LandbaseLockPool.sol\":11170:12814  function withdraw(uint256 _shares) public notContract {\r... */\n      pop\n      jump\t// out\n        /* \"farms-pools/LandbaseLockPool.sol\":1624:1650  uint256 public totalShares */\n    tag_81:\n      sload(0x05)\n      dup2\n      jump\t// out\n        /* \"farms-pools/LandbaseLockPool.sol\":19593:19696  function unpause() external onlyAdmin whenPaused {\r... */\n    tag_83:\n        /* \"farms-pools/LandbaseLockPool.sol\":4236:4241  admin */\n      and(sub(shl(0xa0, 0x01), 0x01), sload(0x07))\n        /* \"farms-pools/LandbaseLockPool.sol\":4222:4232  msg.sender */\n      caller\n        /* \"farms-pools/LandbaseLockPool.sol\":4222:4241  msg.sender == admin */\n      eq\n        /* \"farms-pools/LandbaseLockPool.sol\":4214:4257  require(msg.sender == admin, \"admin: wut?\") */\n      tag_221\n      jumpi\n      0x40\n      dup1\n      mload\n      shl(0xe5, 0x461bcd)\n      dup2\n      mstore\n      0x20\n      0x04\n      dup3\n      add\n      mstore\n      0x0b\n      0x24\n      dup3\n      add\n      mstore\n      shl(0xa8, 0x61646d696e3a207775743f)\n      0x44\n      dup3\n      add\n      mstore\n      swap1\n      mload\n      swap1\n      dup2\n      swap1\n      sub\n      0x64\n      add\n      swap1\n      revert\n    tag_221:\n        /* \"farms-pools/utils/Pausable.sol\":1693:1701  paused() */\n      tag_223\n        /* \"farms-pools/utils/Pausable.sol\":1693:1699  paused */\n      tag_93\n        /* \"farms-pools/utils/Pausable.sol\":1693:1701  paused() */\n      jump\t// in\n    tag_223:\n        /* \"farms-pools/utils/Pausable.sol\":1685:1726  require(paused(), \"Pausable: not paused\") */\n      tag_224\n      jumpi\n      0x40\n      dup1\n      mload\n      shl(0xe5, 0x461bcd)\n      dup2\n      mstore\n      0x20\n      0x04\n      dup3\n      add\n      mstore\n      0x14\n      0x24\n      dup3\n      add\n      mstore\n      shl(0x62, 0x14185d5cd8589b194e881b9bdd081c185d5cd959)\n      0x44\n      dup3\n      add\n      mstore\n      swap1\n      mload\n      swap1\n      dup2\n      swap1\n      sub\n      0x64\n      add\n      swap1\n      revert\n    tag_224:\n        /* \"farms-pools/LandbaseLockPool.sol\":19653:19663  _unpause() */\n      tag_226\n        /* \"farms-pools/LandbaseLockPool.sol\":19653:19661  _unpause */\n      tag_227\n        /* \"farms-pools/LandbaseLockPool.sol\":19653:19663  _unpause() */\n      jump\t// in\n    tag_226:\n        /* \"farms-pools/LandbaseLockPool.sol\":19679:19688  Unpause() */\n      mload(0x40)\n      0x7805862f689e2f13df9f062ff482ad3ad112aca9e0847911ed832e158c525b33\n      swap1\n      0x00\n      swap1\n      log1\n        /* \"farms-pools/LandbaseLockPool.sol\":19593:19696  function unpause() external onlyAdmin whenPaused {\r... */\n      jump\t// out\n        /* \"farms-pools/LandbaseLockPool.sol\":14740:15352  function harvest() external notContract whenNotPaused {\r... */\n    tag_85:\n        /* \"farms-pools/LandbaseLockPool.sol\":4412:4435  _isContract(msg.sender) */\n      tag_229\n        /* \"farms-pools/LandbaseLockPool.sol\":4424:4434  msg.sender */\n      caller\n        /* \"farms-pools/LandbaseLockPool.sol\":4412:4423  _isContract */\n      tag_180\n        /* \"farms-pools/LandbaseLockPool.sol\":4412:4435  _isContract(msg.sender) */\n      jump\t// in\n    tag_229:\n        /* \"farms-pools/LandbaseLockPool.sol\":4411:4435  !_isContract(msg.sender) */\n      iszero\n        /* \"farms-pools/LandbaseLockPool.sol\":4403:4460  require(!_isContract(msg.sender), \"contract not allowed\") */\n      tag_230\n      jumpi\n      0x40\n      dup1\n      mload\n      shl(0xe5, 0x461bcd)\n      dup2\n      mstore\n      0x20\n      0x04\n      dup3\n      add\n      mstore\n      0x14\n      0x24\n      dup3\n      add\n      mstore\n      shl(0x62, 0x18dbdb9d1c9858dd081b9bdd08185b1b1bddd959)\n      0x44\n      dup3\n      add\n      mstore\n      swap1\n      mload\n      swap1\n      dup2\n      swap1\n      sub\n      0x64\n      add\n      swap1\n      revert\n    tag_230:\n        /* \"farms-pools/LandbaseLockPool.sol\":4479:4489  msg.sender */\n      caller\n        /* \"farms-pools/LandbaseLockPool.sol\":4493:4502  tx.origin */\n      origin\n        /* \"farms-pools/LandbaseLockPool.sol\":4479:4502  msg.sender == tx.origin */\n      eq\n        /* \"farms-pools/LandbaseLockPool.sol\":4471:4533  require(msg.sender == tx.origin, \"proxy contract not allowed\") */\n      tag_231\n      jumpi\n      0x40\n      dup1\n      mload\n      shl(0xe5, 0x461bcd)\n      dup2\n      mstore\n      0x20\n      0x04\n      dup3\n      add\n      mstore\n      0x1a\n      0x24\n      dup3\n      add\n      mstore\n      0x00\n      dup1\n      mload\n      0x20\n      data_7fed9a49aa73ae2a737052ad81231890c87ba88fdcecfa2465f440d93f710eda\n      dup4\n      codecopy\n      dup2\n      mload\n      swap2\n      mstore\n      0x44\n      dup3\n      add\n      mstore\n      swap1\n      mload\n      swap1\n      dup2\n      swap1\n      sub\n      0x64\n      add\n      swap1\n      revert\n    tag_231:\n        /* \"farms-pools/utils/Pausable.sol\":1416:1424  paused() */\n      tag_233\n        /* \"farms-pools/utils/Pausable.sol\":1416:1422  paused */\n      tag_93\n        /* \"farms-pools/utils/Pausable.sol\":1416:1424  paused() */\n      jump\t// in\n    tag_233:\n        /* \"farms-pools/utils/Pausable.sol\":1415:1424  !paused() */\n      iszero\n        /* \"farms-pools/utils/Pausable.sol\":1407:1445  require(!paused(), \"Pausable: paused\") */\n      tag_234\n      jumpi\n      0x40\n      dup1\n      mload\n      shl(0xe5, 0x461bcd)\n      dup2\n      mstore\n      0x20\n      0x04\n      dup3\n      add\n      mstore\n      0x10\n      0x24\n      dup3\n      add\n      mstore\n      shl(0x82, 0x14185d5cd8589b194e881c185d5cd959)\n      0x44\n      dup3\n      add\n      mstore\n      swap1\n      mload\n      swap1\n      dup2\n      swap1\n      sub\n      0x64\n      add\n      swap1\n      revert\n    tag_234:\n        /* \"farms-pools/LandbaseLockPool.sol\":14805:14822  uint256 beforeBal */\n      0x00\n        /* \"farms-pools/LandbaseLockPool.sol\":14825:14836  available() */\n      tag_236\n        /* \"farms-pools/LandbaseLockPool.sol\":14825:14834  available */\n      tag_87\n        /* \"farms-pools/LandbaseLockPool.sol\":14825:14836  available() */\n      jump\t// in\n    tag_236:\n        /* \"farms-pools/LandbaseLockPool.sol\":14805:14836  uint256 beforeBal = available() */\n      swap1\n      pop\n        /* \"farms-pools/LandbaseLockPool.sol\":14859:14869  masterchef */\n      immutable(\"0x64e604787cbf194841e7b68d7cd28786f6c9a0a3ab9f8b0a0e87cb4387ab0107\")\n      sub(shl(0xa0, 0x01), 0x01)\n        /* \"farms-pools/LandbaseLockPool.sol\":14847:14883  IMasterChef(masterchef).leaveStaking */\n      and\n      0x1058d281\n        /* \"farms-pools/LandbaseLockPool.sol\":14884:14885  0 */\n      0x00\n        /* \"farms-pools/LandbaseLockPool.sol\":14847:14886  IMasterChef(masterchef).leaveStaking(0) */\n      mload(0x40)\n      dup3\n      0xffffffff\n      and\n      0xe0\n      shl\n      dup2\n      mstore\n      0x04\n      add\n      dup1\n      dup3\n      dup2\n      mstore\n      0x20\n      add\n      swap2\n      pop\n      pop\n      0x00\n      mload(0x40)\n      dup1\n      dup4\n      sub\n      dup2\n      0x00\n      dup8\n      dup1\n      extcodesize\n      iszero\n      dup1\n      iszero\n      tag_237\n      jumpi\n      0x00\n      dup1\n      revert\n    tag_237:\n      pop\n      gas\n      call\n      iszero\n      dup1\n      iszero\n      tag_239\n      jumpi\n      returndatasize\n      0x00\n      dup1\n      returndatacopy\n      revert(0x00, returndatasize)\n    tag_239:\n      pop\n      pop\n      pop\n      pop\n        /* \"farms-pools/LandbaseLockPool.sol\":14897:14908  uint256 bal */\n      0x00\n        /* \"farms-pools/LandbaseLockPool.sol\":14911:14937  available().sub(beforeBal) */\n      tag_240\n        /* \"farms-pools/LandbaseLockPool.sol\":14927:14936  beforeBal */\n      dup3\n        /* \"farms-pools/LandbaseLockPool.sol\":14911:14922  available() */\n      tag_241\n        /* \"farms-pools/LandbaseLockPool.sol\":14911:14920  available */\n      tag_87\n        /* \"farms-pools/LandbaseLockPool.sol\":14911:14922  available() */\n      jump\t// in\n    tag_241:\n        /* \"farms-pools/LandbaseLockPool.sol\":14911:14926  available().sub */\n      swap1\n      tag_192\n        /* \"farms-pools/LandbaseLockPool.sol\":14911:14937  available().sub(beforeBal) */\n      jump\t// in\n    tag_240:\n        /* \"farms-pools/LandbaseLockPool.sol\":14897:14937  uint256 bal = available().sub(beforeBal) */\n      swap1\n      pop\n        /* \"farms-pools/LandbaseLockPool.sol\":14950:14979  uint256 currentPerformanceFee */\n      0x00\n        /* \"farms-pools/LandbaseLockPool.sol\":14982:15016  bal.mul(performanceFee).div(10000) */\n      tag_242\n        /* \"farms-pools/LandbaseLockPool.sol\":15010:15015  10000 */\n      0x2710\n        /* \"farms-pools/LandbaseLockPool.sol\":14982:15005  bal.mul(performanceFee) */\n      tag_187\n        /* \"farms-pools/LandbaseLockPool.sol\":14990:15004  performanceFee */\n      sload(0x09)\n        /* \"farms-pools/LandbaseLockPool.sol\":14982:14985  bal */\n      dup6\n        /* \"farms-pools/LandbaseLockPool.sol\":14982:14989  bal.mul */\n      tag_189\n      swap1\n        /* \"farms-pools/LandbaseLockPool.sol\":14982:15005  bal.mul(performanceFee) */\n      swap2\n      swap1\n      0xffffffff\n      and\n      jump\t// in\n        /* \"farms-pools/LandbaseLockPool.sol\":14982:15016  bal.mul(performanceFee).div(10000) */\n    tag_242:\n        /* \"farms-pools/LandbaseLockPool.sol\":15046:15054  treasury */\n      sload(0x08)\n        /* \"farms-pools/LandbaseLockPool.sol\":14950:15016  uint256 currentPerformanceFee = bal.mul(performanceFee).div(10000) */\n      swap1\n      swap2\n      pop\n        /* \"farms-pools/LandbaseLockPool.sol\":15027:15078  token.safeTransfer(treasury, currentPerformanceFee) */\n      tag_244\n      swap1\n      sub(shl(0xa0, 0x01), 0x01)\n        /* \"farms-pools/LandbaseLockPool.sol\":15027:15032  token */\n      immutable(\"0x7ae9fd093408c444e1cd944d183f5410919486c93305c223a5a94b5e79d77d3b\")\n        /* \"farms-pools/LandbaseLockPool.sol\":15027:15045  token.safeTransfer */\n      dup2\n      and\n      swap2\n        /* \"farms-pools/LandbaseLockPool.sol\":15046:15054  treasury */\n      and\n        /* \"farms-pools/LandbaseLockPool.sol\":14950:15016  uint256 currentPerformanceFee = bal.mul(performanceFee).div(10000) */\n      dup4\n        /* \"farms-pools/LandbaseLockPool.sol\":15027:15045  token.safeTransfer */\n      tag_210\n        /* \"farms-pools/LandbaseLockPool.sol\":15027:15078  token.safeTransfer(treasury, currentPerformanceFee) */\n      jump\t// in\n    tag_244:\n        /* \"farms-pools/LandbaseLockPool.sol\":15091:15113  uint256 currentCallFee */\n      0x00\n        /* \"farms-pools/LandbaseLockPool.sol\":15116:15143  bal.mul(callFee).div(10000) */\n      tag_245\n        /* \"farms-pools/LandbaseLockPool.sol\":15137:15142  10000 */\n      0x2710\n        /* \"farms-pools/LandbaseLockPool.sol\":15116:15132  bal.mul(callFee) */\n      tag_187\n        /* \"farms-pools/LandbaseLockPool.sol\":15124:15131  callFee */\n      sload(0x0a)\n        /* \"farms-pools/LandbaseLockPool.sol\":15116:15119  bal */\n      dup7\n        /* \"farms-pools/LandbaseLockPool.sol\":15116:15123  bal.mul */\n      tag_189\n      swap1\n        /* \"farms-pools/LandbaseLockPool.sol\":15116:15132  bal.mul(callFee) */\n      swap2\n      swap1\n      0xffffffff\n      and\n      jump\t// in\n        /* \"farms-pools/LandbaseLockPool.sol\":15116:15143  bal.mul(callFee).div(10000) */\n    tag_245:\n        /* \"farms-pools/LandbaseLockPool.sol\":15091:15143  uint256 currentCallFee = bal.mul(callFee).div(10000) */\n      swap1\n      pop\n        /* \"farms-pools/LandbaseLockPool.sol\":15154:15200  token.safeTransfer(msg.sender, currentCallFee) */\n      tag_247\n      sub(shl(0xa0, 0x01), 0x01)\n        /* \"farms-pools/LandbaseLockPool.sol\":15154:15159  token */\n      immutable(\"0x7ae9fd093408c444e1cd944d183f5410919486c93305c223a5a94b5e79d77d3b\")\n        /* \"farms-pools/LandbaseLockPool.sol\":15154:15172  token.safeTransfer */\n      and\n        /* \"farms-pools/LandbaseLockPool.sol\":15173:15183  msg.sender */\n      caller\n        /* \"farms-pools/LandbaseLockPool.sol\":15091:15143  uint256 currentCallFee = bal.mul(callFee).div(10000) */\n      dup4\n        /* \"farms-pools/LandbaseLockPool.sol\":15154:15172  token.safeTransfer */\n      tag_210\n        /* \"farms-pools/LandbaseLockPool.sol\":15154:15200  token.safeTransfer(msg.sender, currentCallFee) */\n      jump\t// in\n    tag_247:\n        /* \"farms-pools/LandbaseLockPool.sol\":15213:15220  _earn() */\n      tag_248\n        /* \"farms-pools/LandbaseLockPool.sol\":15213:15218  _earn */\n      tag_249\n        /* \"farms-pools/LandbaseLockPool.sol\":15213:15220  _earn() */\n      jump\t// in\n    tag_248:\n        /* \"farms-pools/LandbaseLockPool.sol\":15253:15268  block.timestamp */\n      timestamp\n        /* \"farms-pools/LandbaseLockPool.sol\":15233:15250  lastHarvestedTime */\n      0x06\n        /* \"farms-pools/LandbaseLockPool.sol\":15233:15268  lastHarvestedTime = block.timestamp */\n      sstore\n        /* \"farms-pools/LandbaseLockPool.sol\":15286:15344  Harvest(msg.sender, currentPerformanceFee, currentCallFee) */\n      0x40\n      dup1\n      mload\n      dup4\n      dup2\n      mstore\n      0x20\n      dup2\n      add\n      dup4\n      swap1\n      mstore\n      dup2\n      mload\n        /* \"farms-pools/LandbaseLockPool.sol\":15294:15304  msg.sender */\n      caller\n      swap3\n        /* \"farms-pools/LandbaseLockPool.sol\":15286:15344  Harvest(msg.sender, currentPerformanceFee, currentCallFee) */\n      0x71bab65ced2e5750775a0613be067df48ef06cf92a496ebf7663ae0660924954\n      swap3\n      dup3\n      swap1\n      sub\n      add\n      swap1\n      log2\n        /* \"farms-pools/utils/Pausable.sol\":1456:1457  _ */\n      pop\n      pop\n      pop\n      pop\n        /* \"farms-pools/LandbaseLockPool.sol\":14740:15352  function harvest() external notContract whenNotPaused {\r... */\n      jump\t// out\n        /* \"farms-pools/LandbaseLockPool.sol\":20876:20983  function available() public view returns (uint256) {\r... */\n    tag_87:\n        /* \"farms-pools/LandbaseLockPool.sol\":20918:20925  uint256 */\n      0x00\n        /* \"farms-pools/LandbaseLockPool.sol\":20945:20950  token */\n      immutable(\"0x7ae9fd093408c444e1cd944d183f5410919486c93305c223a5a94b5e79d77d3b\")\n      sub(shl(0xa0, 0x01), 0x01)\n        /* \"farms-pools/LandbaseLockPool.sol\":20945:20960  token.balanceOf */\n      and\n      0x70a08231\n        /* \"farms-pools/LandbaseLockPool.sol\":20969:20973  this */\n      address\n        /* \"farms-pools/LandbaseLockPool.sol\":20945:20975  token.balanceOf(address(this)) */\n      mload(0x40)\n      dup3\n      0xffffffff\n      and\n      0xe0\n      shl\n      dup2\n      mstore\n      0x04\n      add\n      dup1\n      dup3\n      sub(shl(0xa0, 0x01), 0x01)\n      and\n      dup2\n      mstore\n      0x20\n      add\n      swap2\n      pop\n      pop\n      0x20\n      mload(0x40)\n      dup1\n      dup4\n      sub\n      dup2\n      dup7\n      dup1\n      extcodesize\n      iszero\n      dup1\n      iszero\n      tag_251\n      jumpi\n      0x00\n      dup1\n      revert\n    tag_251:\n      pop\n      gas\n      staticcall\n      iszero\n      dup1\n      iszero\n      tag_253\n      jumpi\n      returndatasize\n      0x00\n      dup1\n      returndatacopy\n      revert(0x00, returndatasize)\n    tag_253:\n      pop\n      pop\n      pop\n      pop\n      mload(0x40)\n      returndatasize\n      0x20\n      dup2\n      lt\n      iszero\n      tag_254\n      jumpi\n      0x00\n      dup1\n      revert\n    tag_254:\n      pop\n      mload\n      swap1\n      pop\n        /* \"farms-pools/LandbaseLockPool.sol\":20876:20983  function available() public view returns (uint256) {\r... */\n      swap1\n      jump\t// out\n        /* \"farms-pools/LandbaseLockPool.sol\":1560:1585  uint256 public startBlock */\n    tag_89:\n      sload(0x03)\n      dup2\n      jump\t// out\n        /* \"farms-pools/LandbaseLockPool.sol\":20256:20490  function calculateTotalPendingCakeRewards() external view returns (uint256) {\r... */\n    tag_91:\n        /* \"farms-pools/LandbaseLockPool.sol\":20323:20330  uint256 */\n      0x00\n        /* \"farms-pools/LandbaseLockPool.sol\":20343:20357  uint256 amount */\n      dup1\n        /* \"farms-pools/LandbaseLockPool.sol\":20372:20382  masterchef */\n      immutable(\"0x64e604787cbf194841e7b68d7cd28786f6c9a0a3ab9f8b0a0e87cb4387ab0107\")\n      sub(shl(0xa0, 0x01), 0x01)\n        /* \"farms-pools/LandbaseLockPool.sol\":20360:20395  IMasterChef(masterchef).pendingCake */\n      and\n      0x1175a1dd\n        /* \"farms-pools/LandbaseLockPool.sol\":20396:20397  0 */\n      0x00\n        /* \"farms-pools/LandbaseLockPool.sol\":20407:20411  this */\n      address\n        /* \"farms-pools/LandbaseLockPool.sol\":20360:20413  IMasterChef(masterchef).pendingCake(0, address(this)) */\n      mload(0x40)\n      dup4\n      0xffffffff\n      and\n      0xe0\n      shl\n      dup2\n      mstore\n      0x04\n      add\n      dup1\n      dup4\n      dup2\n      mstore\n      0x20\n      add\n      dup3\n      sub(shl(0xa0, 0x01), 0x01)\n      and\n      dup2\n      mstore\n      0x20\n      add\n      swap3\n      pop\n      pop\n      pop\n      0x20\n      mload(0x40)\n      dup1\n      dup4\n      sub\n      dup2\n      dup7\n      dup1\n      extcodesize\n      iszero\n      dup1\n      iszero\n      tag_256\n      jumpi\n      0x00\n      dup1\n      revert\n    tag_256:\n      pop\n      gas\n      staticcall\n      iszero\n      dup1\n      iszero\n      tag_258\n      jumpi\n      returndatasize\n      0x00\n      dup1\n      returndatacopy\n      revert(0x00, returndatasize)\n    tag_258:\n      pop\n      pop\n      pop\n      pop\n      mload(0x40)\n      returndatasize\n      0x20\n      dup2\n      lt\n      iszero\n      tag_259\n      jumpi\n      0x00\n      dup1\n      revert\n    tag_259:\n      pop\n      mload\n      swap1\n      pop\n        /* \"farms-pools/LandbaseLockPool.sol\":20433:20456  amount.add(available()) */\n      tag_260\n        /* \"farms-pools/LandbaseLockPool.sol\":20444:20455  available() */\n      tag_261\n        /* \"farms-pools/LandbaseLockPool.sol\":20444:20453  available */\n      tag_87\n        /* \"farms-pools/LandbaseLockPool.sol\":20444:20455  available() */\n      jump\t// in\n    tag_261:\n        /* \"farms-pools/LandbaseLockPool.sol\":20433:20439  amount */\n      dup3\n      swap1\n        /* \"farms-pools/LandbaseLockPool.sol\":20433:20443  amount.add */\n      tag_204\n        /* \"farms-pools/LandbaseLockPool.sol\":20433:20456  amount.add(available()) */\n      jump\t// in\n    tag_260:\n        /* \"farms-pools/LandbaseLockPool.sol\":20424:20456  amount = amount.add(available()) */\n      swap2\n      pop\n      pop\n        /* \"farms-pools/LandbaseLockPool.sol\":20256:20490  function calculateTotalPendingCakeRewards() external view returns (uint256) {\r... */\n      swap1\n      jump\t// out\n        /* \"farms-pools/utils/Pausable.sol\":1090:1176  function paused() public view virtual returns (bool) {\r... */\n    tag_93:\n        /* \"farms-pools/utils/Pausable.sol\":1137:1141  bool */\n      0x00\n        /* \"farms-pools/utils/Pausable.sol\":1161:1168  _paused */\n      sload\n      shl(0xa0, 0x01)\n      swap1\n      div\n      0xff\n      and\n      swap1\n        /* \"farms-pools/utils/Pausable.sol\":1090:1176  function paused() public view virtual returns (bool) {\r... */\n      jump\t// out\n        /* \"farms-pools/LandbaseLockPool.sol\":1723:1746  address public treasury */\n    tag_95:\n      and(sub(shl(0xa0, 0x01), 0x01), sload(0x08))\n      dup2\n      jump\t// out\n        /* \"farms-pools/LandbaseLockPool.sol\":15463:15615  function setAdmin(address _admin) external onlyOwner {\r... */\n    tag_98:\n        /* \"farms-pools/access/Ownable.sol\":1350:1362  _msgSender() */\n      tag_264\n        /* \"farms-pools/access/Ownable.sol\":1350:1360  _msgSender */\n      tag_265\n        /* \"farms-pools/access/Ownable.sol\":1350:1362  _msgSender() */\n      jump\t// in\n    tag_264:\n      sub(shl(0xa0, 0x01), 0x01)\n        /* \"farms-pools/access/Ownable.sol\":1339:1362  owner() == _msgSender() */\n      and\n        /* \"farms-pools/access/Ownable.sol\":1339:1346  owner() */\n      tag_266\n        /* \"farms-pools/access/Ownable.sol\":1339:1344  owner */\n      tag_115\n        /* \"farms-pools/access/Ownable.sol\":1339:1346  owner() */\n      jump\t// in\n    tag_266:\n      sub(shl(0xa0, 0x01), 0x01)\n        /* \"farms-pools/access/Ownable.sol\":1339:1362  owner() == _msgSender() */\n      and\n      eq\n        /* \"farms-pools/access/Ownable.sol\":1331:1399  require(owner() == _msgSender(), \"Ownable: caller is not the owner\") */\n      tag_267\n      jumpi\n      0x40\n      dup1\n      mload\n      shl(0xe5, 0x461bcd)\n      dup2\n      mstore\n      0x20\n      0x04\n      dup3\n      add\n      dup2\n      swap1\n      mstore\n      0x24\n      dup3\n      add\n      mstore\n      0x00\n      dup1\n      mload\n      0x20\n      data_9924ebdf1add33d25d4ef888e16131f0a5687b0580a36c21b5c301a6c462effe\n      dup4\n      codecopy\n      dup2\n      mload\n      swap2\n      mstore\n      0x44\n      dup3\n      add\n      mstore\n      swap1\n      mload\n      swap1\n      dup2\n      swap1\n      sub\n      0x64\n      add\n      swap1\n      revert\n    tag_267:\n      sub(shl(0xa0, 0x01), 0x01)\n        /* \"farms-pools/LandbaseLockPool.sol\":15535:15555  _admin != address(0) */\n      dup2\n      and\n        /* \"farms-pools/LandbaseLockPool.sol\":15527:15582  require(_admin != address(0), \"Cannot be zero address\") */\n      tag_269\n      jumpi\n      0x40\n      dup1\n      mload\n      shl(0xe5, 0x461bcd)\n      dup2\n      mstore\n      0x20\n      0x04\n      dup3\n      add\n      mstore\n      0x16\n      0x24\n      dup3\n      add\n      mstore\n      shl(0x50, 0x43616e6e6f74206265207a65726f2061646472657373)\n      0x44\n      dup3\n      add\n      mstore\n      swap1\n      mload\n      swap1\n      dup2\n      swap1\n      sub\n      0x64\n      add\n      swap1\n      revert\n    tag_269:\n        /* \"farms-pools/LandbaseLockPool.sol\":15593:15598  admin */\n      0x07\n        /* \"farms-pools/LandbaseLockPool.sol\":15593:15607  admin = _admin */\n      dup1\n      sload\n      not(sub(shl(0xa0, 0x01), 0x01))\n      and\n      sub(shl(0xa0, 0x01), 0x01)\n      swap3\n      swap1\n      swap3\n      and\n      swap2\n      swap1\n      swap2\n      or\n      swap1\n      sstore\n        /* \"farms-pools/LandbaseLockPool.sol\":15463:15615  function setAdmin(address _admin) external onlyOwner {\r... */\n      jump\t// out\n        /* \"farms-pools/LandbaseLockPool.sol\":16009:16247  function setPerformanceFee(uint256 _performanceFee) external onlyAdmin {\r... */\n    tag_101:\n        /* \"farms-pools/LandbaseLockPool.sol\":4236:4241  admin */\n      and(sub(shl(0xa0, 0x01), 0x01), sload(0x07))\n        /* \"farms-pools/LandbaseLockPool.sol\":4222:4232  msg.sender */\n      caller\n        /* \"farms-pools/LandbaseLockPool.sol\":4222:4241  msg.sender == admin */\n      eq\n        /* \"farms-pools/LandbaseLockPool.sol\":4214:4257  require(msg.sender == admin, \"admin: wut?\") */\n      tag_271\n      jumpi\n      0x40\n      dup1\n      mload\n      shl(0xe5, 0x461bcd)\n      dup2\n      mstore\n      0x20\n      0x04\n      dup3\n      add\n      mstore\n      0x0b\n      0x24\n      dup3\n      add\n      mstore\n      shl(0xa8, 0x61646d696e3a207775743f)\n      0x44\n      dup3\n      add\n      mstore\n      swap1\n      mload\n      swap1\n      dup2\n      swap1\n      sub\n      0x64\n      add\n      swap1\n      revert\n    tag_271:\n        /* \"farms-pools/LandbaseLockPool.sol\":1801:1804  600 */\n      0x0258\n        /* \"farms-pools/LandbaseLockPool.sol\":16099:16114  _performanceFee */\n      dup2\n        /* \"farms-pools/LandbaseLockPool.sol\":16099:16137  _performanceFee <= MAX_PERFORMANCE_FEE */\n      gt\n      iszero\n        /* \"farms-pools/LandbaseLockPool.sol\":16091:16196  require(_performanceFee <= MAX_PERFORMANCE_FEE, \"performanceFee cannot be more than MAX_PERFORMANCE_FEE\") */\n      tag_273\n      jumpi\n      mload(0x40)\n      shl(0xe5, 0x461bcd)\n      dup2\n      mstore\n      0x04\n      add\n      dup1\n      dup1\n      0x20\n      add\n      dup3\n      dup2\n      sub\n      dup3\n      mstore\n      0x36\n      dup2\n      mstore\n      0x20\n      add\n      dup1\n      data_6432039cf9ff586e7b7914864ffeeb65018de8382b891f7abea9a0fa0a0eeba5\n      0x36\n      swap2\n      codecopy\n      0x40\n      add\n      swap2\n      pop\n      pop\n      mload(0x40)\n      dup1\n      swap2\n      sub\n      swap1\n      revert\n    tag_273:\n        /* \"farms-pools/LandbaseLockPool.sol\":16207:16221  performanceFee */\n      0x09\n        /* \"farms-pools/LandbaseLockPool.sol\":16207:16239  performanceFee = _performanceFee */\n      sstore\n        /* \"farms-pools/LandbaseLockPool.sol\":16009:16247  function setPerformanceFee(uint256 _performanceFee) external onlyAdmin {\r... */\n      jump\t// out\n        /* \"farms-pools/access/Ownable.sol\":1770:1918  function renounceOwnership() public virtual onlyOwner {\r... */\n    tag_103:\n        /* \"farms-pools/access/Ownable.sol\":1350:1362  _msgSender() */\n      tag_275\n        /* \"farms-pools/access/Ownable.sol\":1350:1360  _msgSender */\n      tag_265\n        /* \"farms-pools/access/Ownable.sol\":1350:1362  _msgSender() */\n      jump\t// in\n    tag_275:\n      sub(shl(0xa0, 0x01), 0x01)\n        /* \"farms-pools/access/Ownable.sol\":1339:1362  owner() == _msgSender() */\n      and\n        /* \"farms-pools/access/Ownable.sol\":1339:1346  owner() */\n      tag_276\n        /* \"farms-pools/access/Ownable.sol\":1339:1344  owner */\n      tag_115\n        /* \"farms-pools/access/Ownable.sol\":1339:1346  owner() */\n      jump\t// in\n    tag_276:\n      sub(shl(0xa0, 0x01), 0x01)\n        /* \"farms-pools/access/Ownable.sol\":1339:1362  owner() == _msgSender() */\n      and\n      eq\n        /* \"farms-pools/access/Ownable.sol\":1331:1399  require(owner() == _msgSender(), \"Ownable: caller is not the owner\") */\n      tag_277\n      jumpi\n      0x40\n      dup1\n      mload\n      shl(0xe5, 0x461bcd)\n      dup2\n      mstore\n      0x20\n      0x04\n      dup3\n      add\n      dup2\n      swap1\n      mstore\n      0x24\n      dup3\n      add\n      mstore\n      0x00\n      dup1\n      mload\n      0x20\n      data_9924ebdf1add33d25d4ef888e16131f0a5687b0580a36c21b5c301a6c462effe\n      dup4\n      codecopy\n      dup2\n      mload\n      swap2\n      mstore\n      0x44\n      dup3\n      add\n      mstore\n      swap1\n      mload\n      swap1\n      dup2\n      swap1\n      sub\n      0x64\n      add\n      swap1\n      revert\n    tag_277:\n        /* \"farms-pools/access/Ownable.sol\":1877:1878  0 */\n      0x00\n        /* \"farms-pools/access/Ownable.sol\":1861:1867  _owner */\n      dup1\n      sload\n        /* \"farms-pools/access/Ownable.sol\":1840:1880  OwnershipTransferred(_owner, address(0)) */\n      mload(0x40)\n      sub(shl(0xa0, 0x01), 0x01)\n        /* \"farms-pools/access/Ownable.sol\":1861:1867  _owner */\n      swap1\n      swap2\n      and\n      swap1\n        /* \"farms-pools/access/Ownable.sol\":1840:1880  OwnershipTransferred(_owner, address(0)) */\n      0x8be0079c531659141344cd1fd0a4f28419497f9722a3daafe3b4186f6b6457e0\n      swap1\n        /* \"farms-pools/access/Ownable.sol\":1877:1878  0 */\n      dup4\n      swap1\n        /* \"farms-pools/access/Ownable.sol\":1840:1880  OwnershipTransferred(_owner, address(0)) */\n      log3\n        /* \"farms-pools/access/Ownable.sol\":1908:1909  0 */\n      0x00\n        /* \"farms-pools/access/Ownable.sol\":1891:1910  _owner = address(0) */\n      dup1\n      sload\n      not(sub(shl(0xa0, 0x01), 0x01))\n      and\n      swap1\n      sstore\n        /* \"farms-pools/access/Ownable.sol\":1770:1918  function renounceOwnership() public virtual onlyOwner {\r... */\n      jump\t// out\n        /* \"farms-pools/LandbaseLockPool.sol\":21140:21341  function balanceOf() public view returns (uint256) {\r... */\n    tag_105:\n        /* \"farms-pools/LandbaseLockPool.sol\":21182:21189  uint256 */\n      0x00\n        /* \"farms-pools/LandbaseLockPool.sol\":21203:21217  uint256 amount */\n      dup1\n        /* \"farms-pools/LandbaseLockPool.sol\":21235:21245  masterchef */\n      immutable(\"0x64e604787cbf194841e7b68d7cd28786f6c9a0a3ab9f8b0a0e87cb4387ab0107\")\n      sub(shl(0xa0, 0x01), 0x01)\n        /* \"farms-pools/LandbaseLockPool.sol\":21223:21255  IMasterChef(masterchef).userInfo */\n      and\n      0x93f1a40b\n        /* \"farms-pools/LandbaseLockPool.sol\":21256:21257  0 */\n      0x00\n        /* \"farms-pools/LandbaseLockPool.sol\":21267:21271  this */\n      address\n        /* \"farms-pools/LandbaseLockPool.sol\":21223:21273  IMasterChef(masterchef).userInfo(0, address(this)) */\n      mload(0x40)\n      dup4\n      0xffffffff\n      and\n      0xe0\n      shl\n      dup2\n      mstore\n      0x04\n      add\n      dup1\n      dup4\n      dup2\n      mstore\n      0x20\n      add\n      dup3\n      sub(shl(0xa0, 0x01), 0x01)\n      and\n      dup2\n      mstore\n      0x20\n      add\n      swap3\n      pop\n      pop\n      pop\n      0x40\n      dup1\n      mload\n      dup1\n      dup4\n      sub\n      dup2\n      dup7\n      dup1\n      extcodesize\n      iszero\n      dup1\n      iszero\n      tag_280\n      jumpi\n      0x00\n      dup1\n      revert\n    tag_280:\n      pop\n      gas\n      staticcall\n      iszero\n      dup1\n      iszero\n      tag_282\n      jumpi\n      returndatasize\n      0x00\n      dup1\n      returndatacopy\n      revert(0x00, returndatasize)\n    tag_282:\n      pop\n      pop\n      pop\n      pop\n      mload(0x40)\n      returndatasize\n      0x40\n      dup2\n      lt\n      iszero\n      tag_283\n      jumpi\n      0x00\n      dup1\n      revert\n    tag_283:\n      pop\n      mload\n      0x40\n        /* \"farms-pools/LandbaseLockPool.sol\":21291:21321  token.balanceOf(address(this)) */\n      dup1\n      mload\n      shl(0xe0, 0x70a08231)\n      dup2\n      mstore\n        /* \"farms-pools/LandbaseLockPool.sol\":21315:21319  this */\n      address\n        /* \"farms-pools/LandbaseLockPool.sol\":21291:21321  token.balanceOf(address(this)) */\n      0x04\n      dup3\n      add\n      mstore\n      swap1\n      mload\n        /* \"farms-pools/LandbaseLockPool.sol\":21223:21273  IMasterChef(masterchef).userInfo(0, address(this)) */\n      swap2\n      swap3\n      pop\n        /* \"farms-pools/LandbaseLockPool.sol\":21291:21333  token.balanceOf(address(this)).add(amount) */\n      tag_260\n      swap2\n        /* \"farms-pools/LandbaseLockPool.sol\":21223:21273  IMasterChef(masterchef).userInfo(0, address(this)) */\n      dup4\n      swap2\n      sub(shl(0xa0, 0x01), 0x01)\n        /* \"farms-pools/LandbaseLockPool.sol\":21291:21296  token */\n      immutable(\"0x7ae9fd093408c444e1cd944d183f5410919486c93305c223a5a94b5e79d77d3b\")\n        /* \"farms-pools/LandbaseLockPool.sol\":21291:21306  token.balanceOf */\n      and\n      swap2\n      0x70a08231\n      swap2\n        /* \"farms-pools/LandbaseLockPool.sol\":21291:21321  token.balanceOf(address(this)) */\n      0x24\n      dup1\n      dup3\n      add\n      swap3\n        /* \"farms-pools/LandbaseLockPool.sol\":21223:21273  IMasterChef(masterchef).userInfo(0, address(this)) */\n      0x20\n      swap3\n        /* \"farms-pools/LandbaseLockPool.sol\":21291:21321  token.balanceOf(address(this)) */\n      swap1\n      swap2\n      swap1\n      dup3\n      swap1\n      sub\n      add\n      dup2\n        /* \"farms-pools/LandbaseLockPool.sol\":21291:21306  token.balanceOf */\n      dup7\n        /* \"farms-pools/LandbaseLockPool.sol\":21291:21321  token.balanceOf(address(this)) */\n      dup1\n      extcodesize\n      iszero\n      dup1\n      iszero\n      tag_285\n      jumpi\n      0x00\n      dup1\n      revert\n    tag_285:\n      pop\n      gas\n      staticcall\n      iszero\n      dup1\n      iszero\n      tag_287\n      jumpi\n      returndatasize\n      0x00\n      dup1\n      returndatacopy\n      revert(0x00, returndatasize)\n    tag_287:\n      pop\n      pop\n      pop\n      pop\n      mload(0x40)\n      returndatasize\n      0x20\n      dup2\n      lt\n      iszero\n      tag_288\n      jumpi\n      0x00\n      dup1\n      revert\n    tag_288:\n      pop\n      mload\n      swap1\n        /* \"farms-pools/LandbaseLockPool.sol\":21291:21325  token.balanceOf(address(this)).add */\n      tag_204\n        /* \"farms-pools/LandbaseLockPool.sol\":21291:21333  token.balanceOf(address(this)).add(amount) */\n      jump\t// in\n        /* \"farms-pools/LandbaseLockPool.sol\":20563:20717  function getPricePerFullShare() external view returns (uint256) {\r... */\n    tag_107:\n        /* \"farms-pools/LandbaseLockPool.sol\":20618:20625  uint256 */\n      0x00\n        /* \"farms-pools/LandbaseLockPool.sol\":20645:20656  totalShares */\n      sload(0x05)\n        /* \"farms-pools/LandbaseLockPool.sol\":20660:20661  0 */\n      0x00\n        /* \"farms-pools/LandbaseLockPool.sol\":20645:20661  totalShares == 0 */\n      eq\n        /* \"farms-pools/LandbaseLockPool.sol\":20645:20709  totalShares == 0 ? 1e18 : balanceOf().mul(1e18).div(totalShares) */\n      tag_290\n      jumpi\n        /* \"farms-pools/LandbaseLockPool.sol\":20671:20709  balanceOf().mul(1e18).div(totalShares) */\n      tag_291\n        /* \"farms-pools/LandbaseLockPool.sol\":20697:20708  totalShares */\n      sload(0x05)\n        /* \"farms-pools/LandbaseLockPool.sol\":20671:20692  balanceOf().mul(1e18) */\n      tag_187\n        /* \"farms-pools/LandbaseLockPool.sol\":20687:20691  1e18 */\n      0x0de0b6b3a7640000\n        /* \"farms-pools/LandbaseLockPool.sol\":20671:20682  balanceOf() */\n      tag_188\n        /* \"farms-pools/LandbaseLockPool.sol\":20671:20680  balanceOf */\n      tag_105\n        /* \"farms-pools/LandbaseLockPool.sol\":20671:20682  balanceOf() */\n      jump\t// in\n        /* \"farms-pools/LandbaseLockPool.sol\":20671:20709  balanceOf().mul(1e18).div(totalShares) */\n    tag_291:\n        /* \"farms-pools/LandbaseLockPool.sol\":20645:20709  totalShares == 0 ? 1e18 : balanceOf().mul(1e18).div(totalShares) */\n      jump(tag_294)\n    tag_290:\n        /* \"farms-pools/LandbaseLockPool.sol\":20664:20668  1e18 */\n      0x0de0b6b3a7640000\n        /* \"farms-pools/LandbaseLockPool.sol\":20645:20709  totalShares == 0 ? 1e18 : balanceOf().mul(1e18).div(totalShares) */\n    tag_294:\n        /* \"farms-pools/LandbaseLockPool.sol\":20638:20709  return totalShares == 0 ? 1e18 : balanceOf().mul(1e18).div(totalShares) */\n      swap1\n      pop\n        /* \"farms-pools/LandbaseLockPool.sol\":20563:20717  function getPricePerFullShare() external view returns (uint256) {\r... */\n      swap1\n      jump\t// out\n        /* \"farms-pools/LandbaseLockPool.sol\":19375:19475  function pause() external onlyAdmin whenNotPaused {\r... */\n    tag_109:\n        /* \"farms-pools/LandbaseLockPool.sol\":4236:4241  admin */\n      and(sub(shl(0xa0, 0x01), 0x01), sload(0x07))\n        /* \"farms-pools/LandbaseLockPool.sol\":4222:4232  msg.sender */\n      caller\n        /* \"farms-pools/LandbaseLockPool.sol\":4222:4241  msg.sender == admin */\n      eq\n        /* \"farms-pools/LandbaseLockPool.sol\":4214:4257  require(msg.sender == admin, \"admin: wut?\") */\n      tag_296\n      jumpi\n      0x40\n      dup1\n      mload\n      shl(0xe5, 0x461bcd)\n      dup2\n      mstore\n      0x20\n      0x04\n      dup3\n      add\n      mstore\n      0x0b\n      0x24\n      dup3\n      add\n      mstore\n      shl(0xa8, 0x61646d696e3a207775743f)\n      0x44\n      dup3\n      add\n      mstore\n      swap1\n      mload\n      swap1\n      dup2\n      swap1\n      sub\n      0x64\n      add\n      swap1\n      revert\n    tag_296:\n        /* \"farms-pools/utils/Pausable.sol\":1416:1424  paused() */\n      tag_298\n        /* \"farms-pools/utils/Pausable.sol\":1416:1422  paused */\n      tag_93\n        /* \"farms-pools/utils/Pausable.sol\":1416:1424  paused() */\n      jump\t// in\n    tag_298:\n        /* \"farms-pools/utils/Pausable.sol\":1415:1424  !paused() */\n      iszero\n        /* \"farms-pools/utils/Pausable.sol\":1407:1445  require(!paused(), \"Pausable: paused\") */\n      tag_299\n      jumpi\n      0x40\n      dup1\n      mload\n      shl(0xe5, 0x461bcd)\n      dup2\n      mstore\n      0x20\n      0x04\n      dup3\n      add\n      mstore\n      0x10\n      0x24\n      dup3\n      add\n      mstore\n      shl(0x82, 0x14185d5cd8589b194e881c185d5cd959)\n      0x44\n      dup3\n      add\n      mstore\n      swap1\n      mload\n      swap1\n      dup2\n      swap1\n      sub\n      0x64\n      add\n      swap1\n      revert\n    tag_299:\n        /* \"farms-pools/LandbaseLockPool.sol\":19436:19444  _pause() */\n      tag_301\n        /* \"farms-pools/LandbaseLockPool.sol\":19436:19442  _pause */\n      tag_302\n        /* \"farms-pools/LandbaseLockPool.sol\":19436:19444  _pause() */\n      jump\t// in\n    tag_301:\n        /* \"farms-pools/LandbaseLockPool.sol\":19460:19467  Pause() */\n      mload(0x40)\n      0x6985a02210a168e66602d3235cb6db0e70f92b3ba4d376a33c0f3d9434bff625\n      swap1\n      0x00\n      swap1\n      log1\n        /* \"farms-pools/LandbaseLockPool.sol\":19375:19475  function pause() external onlyAdmin whenNotPaused {\r... */\n      jump\t// out\n        /* \"farms-pools/LandbaseLockPool.sol\":10210:10310  function withdrawAll() external notContract {\r... */\n    tag_111:\n        /* \"farms-pools/LandbaseLockPool.sol\":4412:4435  _isContract(msg.sender) */\n      tag_304\n        /* \"farms-pools/LandbaseLockPool.sol\":4424:4434  msg.sender */\n      caller\n        /* \"farms-pools/LandbaseLockPool.sol\":4412:4423  _isContract */\n      tag_180\n        /* \"farms-pools/LandbaseLockPool.sol\":4412:4435  _isContract(msg.sender) */\n      jump\t// in\n    tag_304:\n        /* \"farms-pools/LandbaseLockPool.sol\":4411:4435  !_isContract(msg.sender) */\n      iszero\n        /* \"farms-pools/LandbaseLockPool.sol\":4403:4460  require(!_isContract(msg.sender), \"contract not allowed\") */\n      tag_305\n      jumpi\n      0x40\n      dup1\n      mload\n      shl(0xe5, 0x461bcd)\n      dup2\n      mstore\n      0x20\n      0x04\n      dup3\n      add\n      mstore\n      0x14\n      0x24\n      dup3\n      add\n      mstore\n      shl(0x62, 0x18dbdb9d1c9858dd081b9bdd08185b1b1bddd959)\n      0x44\n      dup3\n      add\n      mstore\n      swap1\n      mload\n      swap1\n      dup2\n      swap1\n      sub\n      0x64\n      add\n      swap1\n      revert\n    tag_305:\n        /* \"farms-pools/LandbaseLockPool.sol\":4479:4489  msg.sender */\n      caller\n        /* \"farms-pools/LandbaseLockPool.sol\":4493:4502  tx.origin */\n      origin\n        /* \"farms-pools/LandbaseLockPool.sol\":4479:4502  msg.sender == tx.origin */\n      eq\n        /* \"farms-pools/LandbaseLockPool.sol\":4471:4533  require(msg.sender == tx.origin, \"proxy contract not allowed\") */\n      tag_306\n      jumpi\n      0x40\n      dup1\n      mload\n      shl(0xe5, 0x461bcd)\n      dup2\n      mstore\n      0x20\n      0x04\n      dup3\n      add\n      mstore\n      0x1a\n      0x24\n      dup3\n      add\n      mstore\n      0x00\n      dup1\n      mload\n      0x20\n      data_7fed9a49aa73ae2a737052ad81231890c87ba88fdcecfa2465f440d93f710eda\n      dup4\n      codecopy\n      dup2\n      mload\n      swap2\n      mstore\n      0x44\n      dup3\n      add\n      mstore\n      swap1\n      mload\n      swap1\n      dup2\n      swap1\n      sub\n      0x64\n      add\n      swap1\n      revert\n    tag_306:\n        /* \"farms-pools/LandbaseLockPool.sol\":10283:10293  msg.sender */\n      caller\n        /* \"farms-pools/LandbaseLockPool.sol\":10274:10294  userInfo[msg.sender] */\n      0x00\n      swap1\n      dup2\n      mstore\n        /* \"farms-pools/LandbaseLockPool.sol\":10274:10282  userInfo */\n      0x01\n        /* \"farms-pools/LandbaseLockPool.sol\":10274:10294  userInfo[msg.sender] */\n      0x20\n      mstore\n      0x40\n      swap1\n      keccak256\n        /* \"farms-pools/LandbaseLockPool.sol\":10274:10301  userInfo[msg.sender].shares */\n      sload\n        /* \"farms-pools/LandbaseLockPool.sol\":10265:10302  withdraw(userInfo[msg.sender].shares) */\n      tag_308\n      swap1\n        /* \"farms-pools/LandbaseLockPool.sol\":10265:10273  withdraw */\n      tag_79\n        /* \"farms-pools/LandbaseLockPool.sol\":10265:10302  withdraw(userInfo[msg.sender].shares) */\n      jump\t// in\n    tag_308:\n        /* \"farms-pools/LandbaseLockPool.sol\":10210:10310  function withdrawAll() external notContract {\r... */\n      jump\t// out\n        /* \"farms-pools/LandbaseLockPool.sol\":2009:2044  uint256 public performanceFee = 200 */\n    tag_113:\n      sload(0x09)\n      dup2\n      jump\t// out\n        /* \"farms-pools/access/Ownable.sol\":1119:1206  function owner() public view virtual returns (address) {\r... */\n    tag_115:\n        /* \"farms-pools/access/Ownable.sol\":1165:1172  address */\n      0x00\n        /* \"farms-pools/access/Ownable.sol\":1192:1198  _owner */\n      sload\n      sub(shl(0xa0, 0x01), 0x01)\n      and\n        /* \"farms-pools/access/Ownable.sol\":1119:1206  function owner() public view virtual returns (address) {\r... */\n      swap1\n      jump\t// out\n        /* \"farms-pools/LandbaseLockPool.sol\":2057:2084  uint256 public callFee = 25 */\n    tag_117:\n      sload(0x0a)\n      dup2\n      jump\t// out\n        /* \"farms-pools/LandbaseLockPool.sol\":17516:17944  function updateStartAndEndBlocks(uint256 _startBlock, uint256 _endBlock) external onlyAdmin {\r... */\n    tag_120:\n        /* \"farms-pools/LandbaseLockPool.sol\":4236:4241  admin */\n      and(sub(shl(0xa0, 0x01), 0x01), sload(0x07))\n        /* \"farms-pools/LandbaseLockPool.sol\":4222:4232  msg.sender */\n      caller\n        /* \"farms-pools/LandbaseLockPool.sol\":4222:4241  msg.sender == admin */\n      eq\n        /* \"farms-pools/LandbaseLockPool.sol\":4214:4257  require(msg.sender == admin, \"admin: wut?\") */\n      tag_311\n      jumpi\n      0x40\n      dup1\n      mload\n      shl(0xe5, 0x461bcd)\n      dup2\n      mstore\n      0x20\n      0x04\n      dup3\n      add\n      mstore\n      0x0b\n      0x24\n      dup3\n      add\n      mstore\n      shl(0xa8, 0x61646d696e3a207775743f)\n      0x44\n      dup3\n      add\n      mstore\n      swap1\n      mload\n      swap1\n      dup2\n      swap1\n      sub\n      0x64\n      add\n      swap1\n      revert\n    tag_311:\n        /* \"farms-pools/LandbaseLockPool.sol\":17642:17653  _startBlock */\n      dup2\n        /* \"farms-pools/LandbaseLockPool.sol\":17627:17639  block.number */\n      number\n        /* \"farms-pools/LandbaseLockPool.sol\":17627:17653  block.number < _startBlock */\n      lt\n        /* \"farms-pools/LandbaseLockPool.sol\":17619:17710  require(block.number < _startBlock, \"Pool current block must be lower than new startBlock\") */\n      tag_313\n      jumpi\n      mload(0x40)\n      shl(0xe5, 0x461bcd)\n      dup2\n      mstore\n      0x04\n      add\n      dup1\n      dup1\n      0x20\n      add\n      dup3\n      dup2\n      sub\n      dup3\n      mstore\n      0x34\n      dup2\n      mstore\n      0x20\n      add\n      dup1\n      data_c9c3e461d0a427a4e9ec61c7672ef5d0872b7afe41af330c564d77d66b5b728b\n      0x34\n      swap2\n      codecopy\n      0x40\n      add\n      swap2\n      pop\n      pop\n      mload(0x40)\n      dup1\n      swap2\n      sub\n      swap1\n      revert\n    tag_313:\n        /* \"farms-pools/LandbaseLockPool.sol\":17743:17752  _endBlock */\n      dup1\n        /* \"farms-pools/LandbaseLockPool.sol\":17729:17740  _startBlock */\n      dup3\n        /* \"farms-pools/LandbaseLockPool.sol\":17729:17752  _startBlock < _endBlock */\n      lt\n        /* \"farms-pools/LandbaseLockPool.sol\":17721:17803  require(_startBlock < _endBlock, \"New startBlock must be lower than new endBlock\") */\n      tag_314\n      jumpi\n      mload(0x40)\n      shl(0xe5, 0x461bcd)\n      dup2\n      mstore\n      0x04\n      add\n      dup1\n      dup1\n      0x20\n      add\n      dup3\n      dup2\n      sub\n      dup3\n      mstore\n      0x2e\n      dup2\n      mstore\n      0x20\n      add\n      dup1\n      data_55e8b512461165150226d7fb62af16288a660c0fc1f35821ba4ad8ad658a0bb0\n      0x2e\n      swap2\n      codecopy\n      0x40\n      add\n      swap2\n      pop\n      pop\n      mload(0x40)\n      dup1\n      swap2\n      sub\n      swap1\n      revert\n    tag_314:\n        /* \"farms-pools/LandbaseLockPool.sol\":17816:17826  startBlock */\n      0x03\n        /* \"farms-pools/LandbaseLockPool.sol\":17816:17840  startBlock = _startBlock */\n      dup3\n      swap1\n      sstore\n        /* \"farms-pools/LandbaseLockPool.sol\":17851:17859  endBlock */\n      0x04\n        /* \"farms-pools/LandbaseLockPool.sol\":17851:17871  endBlock = _endBlock */\n      dup2\n      swap1\n      sstore\n        /* \"farms-pools/LandbaseLockPool.sol\":17889:17936  UpdateStartAndEndBlocks(_startBlock, _endBlock) */\n      0x40\n      dup1\n      mload\n      dup4\n      dup2\n      mstore\n      0x20\n      dup2\n      add\n      dup4\n      swap1\n      mstore\n      dup2\n      mload\n      0x053462fec8f17a9d662e3778a6027b6c0c1ac0da2390a991aa33cb3aa60cae4e\n      swap3\n      swap2\n      dup2\n      swap1\n      sub\n      swap1\n      swap2\n      add\n      swap1\n      log1\n        /* \"farms-pools/LandbaseLockPool.sol\":17516:17944  function updateStartAndEndBlocks(uint256 _startBlock, uint256 _endBlock) external onlyAdmin {\r... */\n      pop\n      pop\n      jump\t// out\n        /* \"farms-pools/LandbaseLockPool.sol\":19845:20105  function calculateHarvestCakeRewards() external view returns (uint256) {\r... */\n    tag_122:\n        /* \"farms-pools/LandbaseLockPool.sol\":19907:19914  uint256 */\n      0x00\n        /* \"farms-pools/LandbaseLockPool.sol\":19927:19941  uint256 amount */\n      dup1\n        /* \"farms-pools/LandbaseLockPool.sol\":19956:19966  masterchef */\n      immutable(\"0x64e604787cbf194841e7b68d7cd28786f6c9a0a3ab9f8b0a0e87cb4387ab0107\")\n      sub(shl(0xa0, 0x01), 0x01)\n        /* \"farms-pools/LandbaseLockPool.sol\":19944:19979  IMasterChef(masterchef).pendingCake */\n      and\n      0x1175a1dd\n        /* \"farms-pools/LandbaseLockPool.sol\":19980:19981  0 */\n      0x00\n        /* \"farms-pools/LandbaseLockPool.sol\":19991:19995  this */\n      address\n        /* \"farms-pools/LandbaseLockPool.sol\":19944:19997  IMasterChef(masterchef).pendingCake(0, address(this)) */\n      mload(0x40)\n      dup4\n      0xffffffff\n      and\n      0xe0\n      shl\n      dup2\n      mstore\n      0x04\n      add\n      dup1\n      dup4\n      dup2\n      mstore\n      0x20\n      add\n      dup3\n      sub(shl(0xa0, 0x01), 0x01)\n      and\n      dup2\n      mstore\n      0x20\n      add\n      swap3\n      pop\n      pop\n      pop\n      0x20\n      mload(0x40)\n      dup1\n      dup4\n      sub\n      dup2\n      dup7\n      dup1\n      extcodesize\n      iszero\n      dup1\n      iszero\n      tag_316\n      jumpi\n      0x00\n      dup1\n      revert\n    tag_316:\n      pop\n      gas\n      staticcall\n      iszero\n      dup1\n      iszero\n      tag_318\n      jumpi\n      returndatasize\n      0x00\n      dup1\n      returndatacopy\n      revert(0x00, returndatasize)\n    tag_318:\n      pop\n      pop\n      pop\n      pop\n      mload(0x40)\n      returndatasize\n      0x20\n      dup2\n      lt\n      iszero\n      tag_319\n      jumpi\n      0x00\n      dup1\n      revert\n    tag_319:\n      pop\n      mload\n        /* \"farms-pools/LandbaseLockPool.sol\":20044:20051  callFee */\n      sload(0x0a)\n        /* \"farms-pools/LandbaseLockPool.sol\":19944:19997  IMasterChef(masterchef).pendingCake(0, address(this)) */\n      swap1\n      swap2\n      pop\n        /* \"farms-pools/LandbaseLockPool.sol\":20008:20030  uint256 currentCallFee */\n      0x00\n      swap1\n        /* \"farms-pools/LandbaseLockPool.sol\":20033:20063  amount.mul(callFee).div(10000) */\n      tag_320\n      swap1\n        /* \"farms-pools/LandbaseLockPool.sol\":20057:20062  10000 */\n      0x2710\n      swap1\n        /* \"farms-pools/LandbaseLockPool.sol\":20033:20052  amount.mul(callFee) */\n      tag_187\n      swap1\n        /* \"farms-pools/LandbaseLockPool.sol\":19944:19997  IMasterChef(masterchef).pendingCake(0, address(this)) */\n      dup6\n      swap1\n        /* \"farms-pools/LandbaseLockPool.sol\":20033:20043  amount.mul */\n      tag_189\n        /* \"farms-pools/LandbaseLockPool.sol\":20033:20052  amount.mul(callFee) */\n      jump\t// in\n        /* \"farms-pools/LandbaseLockPool.sol\":20033:20063  amount.mul(callFee).div(10000) */\n    tag_320:\n        /* \"farms-pools/LandbaseLockPool.sol\":20008:20063  uint256 currentCallFee = amount.mul(callFee).div(10000) */\n      swap3\n      pop\n      pop\n      pop\n        /* \"farms-pools/LandbaseLockPool.sol\":19845:20105  function calculateHarvestCakeRewards() external view returns (uint256) {\r... */\n      swap1\n      jump\t// out\n        /* \"farms-pools/LandbaseLockPool.sol\":1657:1689  uint256 public lastHarvestedTime */\n    tag_124:\n      sload(0x06)\n      dup2\n      jump\t// out\n        /* \"farms-pools/LandbaseLockPool.sol\":16645:16859  function setWithdrawFee(uint256 _withdrawFee) external onlyAdmin {\r... */\n    tag_127:\n        /* \"farms-pools/LandbaseLockPool.sol\":4236:4241  admin */\n      and(sub(shl(0xa0, 0x01), 0x01), sload(0x07))\n        /* \"farms-pools/LandbaseLockPool.sol\":4222:4232  msg.sender */\n      caller\n        /* \"farms-pools/LandbaseLockPool.sol\":4222:4241  msg.sender == admin */\n      eq\n        /* \"farms-pools/LandbaseLockPool.sol\":4214:4257  require(msg.sender == admin, \"admin: wut?\") */\n      tag_323\n      jumpi\n      0x40\n      dup1\n      mload\n      shl(0xe5, 0x461bcd)\n      dup2\n      mstore\n      0x20\n      0x04\n      dup3\n      add\n      mstore\n      0x0b\n      0x24\n      dup3\n      add\n      mstore\n      shl(0xa8, 0x61646d696e3a207775743f)\n      0x44\n      dup3\n      add\n      mstore\n      swap1\n      mload\n      swap1\n      dup2\n      swap1\n      sub\n      0x64\n      add\n      swap1\n      revert\n    tag_323:\n        /* \"farms-pools/LandbaseLockPool.sol\":1915:1918  400 */\n      0x0190\n        /* \"farms-pools/LandbaseLockPool.sol\":16729:16741  _withdrawFee */\n      dup2\n        /* \"farms-pools/LandbaseLockPool.sol\":16729:16761  _withdrawFee <= MAX_WITHDRAW_FEE */\n      gt\n      iszero\n        /* \"farms-pools/LandbaseLockPool.sol\":16721:16814  require(_withdrawFee <= MAX_WITHDRAW_FEE, \"withdrawFee cannot be more than MAX_WITHDRAW_FEE\") */\n      tag_325\n      jumpi\n      mload(0x40)\n      shl(0xe5, 0x461bcd)\n      dup2\n      mstore\n      0x04\n      add\n      dup1\n      dup1\n      0x20\n      add\n      dup3\n      dup2\n      sub\n      dup3\n      mstore\n      0x30\n      dup2\n      mstore\n      0x20\n      add\n      dup1\n      data_e7bb9c347f949e24da350c193cc8369c19aa7e8a530aba25a3447a9658c66f18\n      0x30\n      swap2\n      codecopy\n      0x40\n      add\n      swap2\n      pop\n      pop\n      mload(0x40)\n      dup1\n      swap2\n      sub\n      swap1\n      revert\n    tag_325:\n        /* \"farms-pools/LandbaseLockPool.sol\":16825:16836  withdrawFee */\n      0x0b\n        /* \"farms-pools/LandbaseLockPool.sol\":16825:16851  withdrawFee = _withdrawFee */\n      sstore\n        /* \"farms-pools/LandbaseLockPool.sol\":16645:16859  function setWithdrawFee(uint256 _withdrawFee) external onlyAdmin {\r... */\n      jump\t// out\n        /* \"farms-pools/LandbaseLockPool.sol\":4745:5808  function deposit(uint256 _amount) external whenNotPaused notContract {\r... */\n    tag_130:\n        /* \"farms-pools/utils/Pausable.sol\":1416:1424  paused() */\n      tag_327\n        /* \"farms-pools/utils/Pausable.sol\":1416:1422  paused */\n      tag_93\n        /* \"farms-pools/utils/Pausable.sol\":1416:1424  paused() */\n      jump\t// in\n    tag_327:\n        /* \"farms-pools/utils/Pausable.sol\":1415:1424  !paused() */\n      iszero\n        /* \"farms-pools/utils/Pausable.sol\":1407:1445  require(!paused(), \"Pausable: paused\") */\n      tag_328\n      jumpi\n      0x40\n      dup1\n      mload\n      shl(0xe5, 0x461bcd)\n      dup2\n      mstore\n      0x20\n      0x04\n      dup3\n      add\n      mstore\n      0x10\n      0x24\n      dup3\n      add\n      mstore\n      shl(0x82, 0x14185d5cd8589b194e881c185d5cd959)\n      0x44\n      dup3\n      add\n      mstore\n      swap1\n      mload\n      swap1\n      dup2\n      swap1\n      sub\n      0x64\n      add\n      swap1\n      revert\n    tag_328:\n        /* \"farms-pools/LandbaseLockPool.sol\":4412:4435  _isContract(msg.sender) */\n      tag_330\n        /* \"farms-pools/LandbaseLockPool.sol\":4424:4434  msg.sender */\n      caller\n        /* \"farms-pools/LandbaseLockPool.sol\":4412:4423  _isContract */\n      tag_180\n        /* \"farms-pools/LandbaseLockPool.sol\":4412:4435  _isContract(msg.sender) */\n      jump\t// in\n    tag_330:\n        /* \"farms-pools/LandbaseLockPool.sol\":4411:4435  !_isContract(msg.sender) */\n      iszero\n        /* \"farms-pools/LandbaseLockPool.sol\":4403:4460  require(!_isContract(msg.sender), \"contract not allowed\") */\n      tag_331\n      jumpi\n      0x40\n      dup1\n      mload\n      shl(0xe5, 0x461bcd)\n      dup2\n      mstore\n      0x20\n      0x04\n      dup3\n      add\n      mstore\n      0x14\n      0x24\n      dup3\n      add\n      mstore\n      shl(0x62, 0x18dbdb9d1c9858dd081b9bdd08185b1b1bddd959)\n      0x44\n      dup3\n      add\n      mstore\n      swap1\n      mload\n      swap1\n      dup2\n      swap1\n      sub\n      0x64\n      add\n      swap1\n      revert\n    tag_331:\n        /* \"farms-pools/LandbaseLockPool.sol\":4479:4489  msg.sender */\n      caller\n        /* \"farms-pools/LandbaseLockPool.sol\":4493:4502  tx.origin */\n      origin\n        /* \"farms-pools/LandbaseLockPool.sol\":4479:4502  msg.sender == tx.origin */\n      eq\n        /* \"farms-pools/LandbaseLockPool.sol\":4471:4533  require(msg.sender == tx.origin, \"proxy contract not allowed\") */\n      tag_332\n      jumpi\n      0x40\n      dup1\n      mload\n      shl(0xe5, 0x461bcd)\n      dup2\n      mstore\n      0x20\n      0x04\n      dup3\n      add\n      mstore\n      0x1a\n      0x24\n      dup3\n      add\n      mstore\n      0x00\n      dup1\n      mload\n      0x20\n      data_7fed9a49aa73ae2a737052ad81231890c87ba88fdcecfa2465f440d93f710eda\n      dup4\n      codecopy\n      dup2\n      mload\n      swap2\n      mstore\n      0x44\n      dup3\n      add\n      mstore\n      swap1\n      mload\n      swap1\n      dup2\n      swap1\n      sub\n      0x64\n      add\n      swap1\n      revert\n    tag_332:\n        /* \"farms-pools/LandbaseLockPool.sol\":4843:4844  0 */\n      0x00\n        /* \"farms-pools/LandbaseLockPool.sol\":4833:4840  _amount */\n      dup2\n        /* \"farms-pools/LandbaseLockPool.sol\":4833:4844  _amount > 0 */\n      gt\n        /* \"farms-pools/LandbaseLockPool.sol\":4825:4867  require(_amount > 0, \"Nothing to deposit\") */\n      tag_334\n      jumpi\n      0x40\n      dup1\n      mload\n      shl(0xe5, 0x461bcd)\n      dup2\n      mstore\n      0x20\n      0x04\n      dup3\n      add\n      mstore\n      0x12\n      0x24\n      dup3\n      add\n      mstore\n      shl(0x72, 0x139bdd1a1a5b99c81d1bc819195c1bdcda5d)\n      0x44\n      dup3\n      add\n      mstore\n      swap1\n      mload\n      swap1\n      dup2\n      swap1\n      sub\n      0x64\n      add\n      swap1\n      revert\n    tag_334:\n        /* \"farms-pools/LandbaseLockPool.sol\":4880:4892  uint256 pool */\n      0x00\n        /* \"farms-pools/LandbaseLockPool.sol\":4895:4906  balanceOf() */\n      tag_335\n        /* \"farms-pools/LandbaseLockPool.sol\":4895:4904  balanceOf */\n      tag_105\n        /* \"farms-pools/LandbaseLockPool.sol\":4895:4906  balanceOf() */\n      jump\t// in\n    tag_335:\n        /* \"farms-pools/LandbaseLockPool.sol\":4880:4906  uint256 pool = balanceOf() */\n      swap1\n      pop\n        /* \"farms-pools/LandbaseLockPool.sol\":4917:4975  token.safeTransferFrom(msg.sender, address(this), _amount) */\n      tag_336\n      sub(shl(0xa0, 0x01), 0x01)\n        /* \"farms-pools/LandbaseLockPool.sol\":4917:4922  token */\n      immutable(\"0x7ae9fd093408c444e1cd944d183f5410919486c93305c223a5a94b5e79d77d3b\")\n        /* \"farms-pools/LandbaseLockPool.sol\":4917:4939  token.safeTransferFrom */\n      and\n        /* \"farms-pools/LandbaseLockPool.sol\":4940:4950  msg.sender */\n      caller\n        /* \"farms-pools/LandbaseLockPool.sol\":4960:4964  this */\n      address\n        /* \"farms-pools/LandbaseLockPool.sol\":4967:4974  _amount */\n      dup6\n        /* \"farms-pools/LandbaseLockPool.sol\":4917:4939  token.safeTransferFrom */\n      tag_337\n        /* \"farms-pools/LandbaseLockPool.sol\":4917:4975  token.safeTransferFrom(msg.sender, address(this), _amount) */\n      jump\t// in\n    tag_336:\n        /* \"farms-pools/LandbaseLockPool.sol\":4986:5007  uint256 currentShares */\n      0x00\n        /* \"farms-pools/LandbaseLockPool.sol\":5026:5037  totalShares */\n      sload(0x05)\n        /* \"farms-pools/LandbaseLockPool.sol\":5041:5042  0 */\n      0x00\n        /* \"farms-pools/LandbaseLockPool.sol\":5026:5042  totalShares != 0 */\n      eq\n        /* \"farms-pools/LandbaseLockPool.sol\":5022:5179  if (totalShares != 0) {\r... */\n      tag_338\n      jumpi\n        /* \"farms-pools/LandbaseLockPool.sol\":5075:5111  (_amount.mul(totalShares)).div(pool) */\n      tag_339\n        /* \"farms-pools/LandbaseLockPool.sol\":5106:5110  pool */\n      dup3\n        /* \"farms-pools/LandbaseLockPool.sol\":5076:5100  _amount.mul(totalShares) */\n      tag_187\n        /* \"farms-pools/LandbaseLockPool.sol\":5088:5099  totalShares */\n      sload(0x05)\n        /* \"farms-pools/LandbaseLockPool.sol\":5076:5083  _amount */\n      dup7\n        /* \"farms-pools/LandbaseLockPool.sol\":5076:5087  _amount.mul */\n      tag_189\n      swap1\n        /* \"farms-pools/LandbaseLockPool.sol\":5076:5100  _amount.mul(totalShares) */\n      swap2\n      swap1\n      0xffffffff\n      and\n      jump\t// in\n        /* \"farms-pools/LandbaseLockPool.sol\":5075:5111  (_amount.mul(totalShares)).div(pool) */\n    tag_339:\n        /* \"farms-pools/LandbaseLockPool.sol\":5059:5111  currentShares = (_amount.mul(totalShares)).div(pool) */\n      swap1\n      pop\n        /* \"farms-pools/LandbaseLockPool.sol\":5022:5179  if (totalShares != 0) {\r... */\n      jump(tag_341)\n    tag_338:\n      pop\n        /* \"farms-pools/LandbaseLockPool.sol\":5160:5167  _amount */\n      dup2\n        /* \"farms-pools/LandbaseLockPool.sol\":5022:5179  if (totalShares != 0) {\r... */\n    tag_341:\n        /* \"farms-pools/LandbaseLockPool.sol\":5213:5214  0 */\n      0x00\n        /* \"farms-pools/LandbaseLockPool.sol\":5197:5210  currentShares */\n      dup2\n        /* \"farms-pools/LandbaseLockPool.sol\":5197:5214  currentShares > 0 */\n      gt\n        /* \"farms-pools/LandbaseLockPool.sol\":5189:5265  require(currentShares > 0, \"deposit amount is too small to allocate shares\") */\n      tag_342\n      jumpi\n      mload(0x40)\n      shl(0xe5, 0x461bcd)\n      dup2\n      mstore\n      0x04\n      add\n      dup1\n      dup1\n      0x20\n      add\n      dup3\n      dup2\n      sub\n      dup3\n      mstore\n      0x2e\n      dup2\n      mstore\n      0x20\n      add\n      dup1\n      data_a6806e6705a9ee3b0e0c4b8d8e7cb4e2da5d59db3275bba90220e3e7d15d16f8\n      0x2e\n      swap2\n      codecopy\n      0x40\n      add\n      swap2\n      pop\n      pop\n      mload(0x40)\n      dup1\n      swap2\n      sub\n      swap1\n      revert\n    tag_342:\n        /* \"farms-pools/LandbaseLockPool.sol\":5311:5321  msg.sender */\n      caller\n        /* \"farms-pools/LandbaseLockPool.sol\":5278:5299  UserInfo storage user */\n      0x00\n        /* \"farms-pools/LandbaseLockPool.sol\":5302:5322  userInfo[msg.sender] */\n      swap1\n      dup2\n      mstore\n        /* \"farms-pools/LandbaseLockPool.sol\":5302:5310  userInfo */\n      0x01\n        /* \"farms-pools/LandbaseLockPool.sol\":5302:5322  userInfo[msg.sender] */\n      0x20\n      mstore\n      0x40\n      swap1\n      keccak256\n        /* \"farms-pools/LandbaseLockPool.sol\":5357:5368  user.shares */\n      dup1\n      sload\n        /* \"farms-pools/LandbaseLockPool.sol\":5357:5387  user.shares.add(currentShares) */\n      tag_343\n      swap1\n        /* \"farms-pools/LandbaseLockPool.sol\":5373:5386  currentShares */\n      dup4\n        /* \"farms-pools/LandbaseLockPool.sol\":5357:5372  user.shares.add */\n      tag_204\n        /* \"farms-pools/LandbaseLockPool.sol\":5357:5387  user.shares.add(currentShares) */\n      jump\t// in\n    tag_343:\n        /* \"farms-pools/LandbaseLockPool.sol\":5343:5387  user.shares = user.shares.add(currentShares) */\n      dup2\n      sstore\n        /* \"farms-pools/LandbaseLockPool.sol\":5423:5438  block.timestamp */\n      timestamp\n        /* \"farms-pools/LandbaseLockPool.sol\":5398:5420  user.lastDepositedTime */\n      0x01\n      dup3\n      add\n        /* \"farms-pools/LandbaseLockPool.sol\":5398:5438  user.lastDepositedTime = block.timestamp */\n      sstore\n        /* \"farms-pools/LandbaseLockPool.sol\":5465:5476  totalShares */\n      sload(0x05)\n        /* \"farms-pools/LandbaseLockPool.sol\":5465:5495  totalShares.add(currentShares) */\n      tag_344\n      swap1\n        /* \"farms-pools/LandbaseLockPool.sol\":5481:5494  currentShares */\n      dup4\n        /* \"farms-pools/LandbaseLockPool.sol\":5465:5480  totalShares.add */\n      tag_204\n        /* \"farms-pools/LandbaseLockPool.sol\":5465:5495  totalShares.add(currentShares) */\n      jump\t// in\n    tag_344:\n        /* \"farms-pools/LandbaseLockPool.sol\":5451:5462  totalShares */\n      0x05\n        /* \"farms-pools/LandbaseLockPool.sol\":5451:5495  totalShares = totalShares.add(currentShares) */\n      dup2\n      swap1\n      sstore\n        /* \"farms-pools/LandbaseLockPool.sol\":5536:5581  user.shares.mul(balanceOf()).div(totalShares) */\n      tag_345\n      swap1\n        /* \"farms-pools/LandbaseLockPool.sol\":5536:5564  user.shares.mul(balanceOf()) */\n      tag_187\n        /* \"farms-pools/LandbaseLockPool.sol\":5552:5563  balanceOf() */\n      tag_347\n        /* \"farms-pools/LandbaseLockPool.sol\":5552:5561  balanceOf */\n      tag_105\n        /* \"farms-pools/LandbaseLockPool.sol\":5552:5563  balanceOf() */\n      jump\t// in\n    tag_347:\n        /* \"farms-pools/LandbaseLockPool.sol\":5536:5547  user.shares */\n      dup5\n      sload\n      swap1\n        /* \"farms-pools/LandbaseLockPool.sol\":5536:5551  user.shares.mul */\n      tag_189\n        /* \"farms-pools/LandbaseLockPool.sol\":5536:5564  user.shares.mul(balanceOf()) */\n      jump\t// in\n        /* \"farms-pools/LandbaseLockPool.sol\":5536:5581  user.shares.mul(balanceOf()).div(totalShares) */\n    tag_345:\n        /* \"farms-pools/LandbaseLockPool.sol\":5508:5533  user.cakeAtLastUserAction */\n      0x02\n      dup3\n      add\n        /* \"farms-pools/LandbaseLockPool.sol\":5508:5581  user.cakeAtLastUserAction = user.shares.mul(balanceOf()).div(totalShares) */\n      sstore\n        /* \"farms-pools/LandbaseLockPool.sol\":5618:5633  block.timestamp */\n      timestamp\n        /* \"farms-pools/LandbaseLockPool.sol\":5592:5615  user.lastUserActionTime */\n      0x03\n      dup3\n      add\n        /* \"farms-pools/LandbaseLockPool.sol\":5592:5633  user.lastUserActionTime = block.timestamp */\n      sstore\n        /* \"farms-pools/LandbaseLockPool.sol\":5659:5702  _updateUserIFO(_amount, IFOActions.Deposit) */\n      tag_348\n        /* \"farms-pools/LandbaseLockPool.sol\":5674:5681  _amount */\n      dup5\n      0x00\n        /* \"farms-pools/LandbaseLockPool.sol\":5659:5673  _updateUserIFO */\n      tag_218\n        /* \"farms-pools/LandbaseLockPool.sol\":5659:5702  _updateUserIFO(_amount, IFOActions.Deposit) */\n      jump\t// in\n    tag_348:\n        /* \"farms-pools/LandbaseLockPool.sol\":5715:5722  _earn() */\n      tag_349\n        /* \"farms-pools/LandbaseLockPool.sol\":5715:5720  _earn */\n      tag_249\n        /* \"farms-pools/LandbaseLockPool.sol\":5715:5722  _earn() */\n      jump\t// in\n    tag_349:\n        /* \"farms-pools/LandbaseLockPool.sol\":5740:5800  Deposit(msg.sender, _amount, currentShares, block.timestamp) */\n      0x40\n      dup1\n      mload\n      dup6\n      dup2\n      mstore\n      0x20\n      dup2\n      add\n      dup5\n      swap1\n      mstore\n        /* \"farms-pools/LandbaseLockPool.sol\":5784:5799  block.timestamp */\n      timestamp\n        /* \"farms-pools/LandbaseLockPool.sol\":5740:5800  Deposit(msg.sender, _amount, currentShares, block.timestamp) */\n      dup2\n      dup4\n      add\n      mstore\n      swap1\n      mload\n        /* \"farms-pools/LandbaseLockPool.sol\":5748:5758  msg.sender */\n      caller\n      swap2\n        /* \"farms-pools/LandbaseLockPool.sol\":5740:5800  Deposit(msg.sender, _amount, currentShares, block.timestamp) */\n      0x36af321ec8d3c75236829c5317affd40ddb308863a1236d2d277a4025cccee1e\n      swap2\n      swap1\n      dup2\n      swap1\n      sub\n      0x60\n      add\n      swap1\n      log2\n        /* \"farms-pools/LandbaseLockPool.sol\":4544:4545  _ */\n      pop\n      pop\n      pop\n        /* \"farms-pools/LandbaseLockPool.sol\":4745:5808  function deposit(uint256 _amount) external whenNotPaused notContract {\r... */\n      pop\n      jump\t// out\n        /* \"farms-pools/LandbaseLockPool.sol\":1755:1804  uint256 public constant MAX_PERFORMANCE_FEE = 600 */\n    tag_132:\n        /* \"farms-pools/LandbaseLockPool.sol\":1801:1804  600 */\n      0x0258\n        /* \"farms-pools/LandbaseLockPool.sol\":1755:1804  uint256 public constant MAX_PERFORMANCE_FEE = 600 */\n      dup2\n      jump\t// out\n        /* \"farms-pools/LandbaseLockPool.sol\":1872:1918  uint256 public constant MAX_WITHDRAW_FEE = 400 */\n    tag_134:\n        /* \"farms-pools/LandbaseLockPool.sol\":1915:1918  400 */\n      0x0190\n        /* \"farms-pools/LandbaseLockPool.sol\":1872:1918  uint256 public constant MAX_WITHDRAW_FEE = 400 */\n      dup2\n      jump\t// out\n        /* \"farms-pools/LandbaseLockPool.sol\":9701:10137  function getUserCredit(address _user) external view returns(uint256 avgBalance) {\r... */\n    tag_137:\n      sub(shl(0xa0, 0x01), 0x01)\n        /* \"farms-pools/LandbaseLockPool.sol\":9822:9840  userIFOInfo[_user] */\n      dup2\n      and\n        /* \"farms-pools/LandbaseLockPool.sol\":9761:9779  uint256 avgBalance */\n      0x00\n        /* \"farms-pools/LandbaseLockPool.sol\":9822:9840  userIFOInfo[_user] */\n      swap1\n      dup2\n      mstore\n        /* \"farms-pools/LandbaseLockPool.sol\":9822:9833  userIFOInfo */\n      0x02\n        /* \"farms-pools/LandbaseLockPool.sol\":9822:9840  userIFOInfo[_user] */\n      0x20\n      mstore\n      0x40\n      dup2\n      keccak256\n        /* \"farms-pools/LandbaseLockPool.sol\":9865:9882  _isIFOAvailable() */\n      tag_351\n        /* \"farms-pools/LandbaseLockPool.sol\":9865:9880  _isIFOAvailable */\n      tag_352\n        /* \"farms-pools/LandbaseLockPool.sol\":9865:9882  _isIFOAvailable() */\n      jump\t// in\n    tag_351:\n        /* \"farms-pools/LandbaseLockPool.sol\":9861:10130  if (_isIFOAvailable()){\r... */\n      iszero\n      tag_353\n      jumpi\n        /* \"farms-pools/LandbaseLockPool.sol\":9911:10069  _calculateAvgBalance(IFOInfo.lastActionBlock, IFOInfo.lastValidActionBlock, IFOInfo.lastActionBalance, IFOInfo.lastValidActionBalance, IFOInfo.lastAvgBalance) */\n      tag_354\n        /* \"farms-pools/LandbaseLockPool.sol\":9932:9939  IFOInfo */\n      dup2\n        /* \"farms-pools/LandbaseLockPool.sol\":9932:9955  IFOInfo.lastActionBlock */\n      0x02\n      add\n      sload\n        /* \"farms-pools/LandbaseLockPool.sol\":9957:9964  IFOInfo */\n      dup3\n        /* \"farms-pools/LandbaseLockPool.sol\":9957:9985  IFOInfo.lastValidActionBlock */\n      0x03\n      add\n      sload\n        /* \"farms-pools/LandbaseLockPool.sol\":9987:9994  IFOInfo */\n      dup4\n        /* \"farms-pools/LandbaseLockPool.sol\":9987:10012  IFOInfo.lastActionBalance */\n      0x00\n      add\n      sload\n        /* \"farms-pools/LandbaseLockPool.sol\":10014:10021  IFOInfo */\n      dup5\n        /* \"farms-pools/LandbaseLockPool.sol\":10014:10044  IFOInfo.lastValidActionBalance */\n      0x01\n      add\n      sload\n        /* \"farms-pools/LandbaseLockPool.sol\":10046:10053  IFOInfo */\n      dup6\n        /* \"farms-pools/LandbaseLockPool.sol\":10046:10068  IFOInfo.lastAvgBalance */\n      0x04\n      add\n      sload\n        /* \"farms-pools/LandbaseLockPool.sol\":9911:9931  _calculateAvgBalance */\n      tag_355\n        /* \"farms-pools/LandbaseLockPool.sol\":9911:10069  _calculateAvgBalance(IFOInfo.lastActionBlock, IFOInfo.lastValidActionBlock, IFOInfo.lastActionBalance, IFOInfo.lastValidActionBalance, IFOInfo.lastAvgBalance) */\n      jump\t// in\n    tag_354:\n        /* \"farms-pools/LandbaseLockPool.sol\":9898:10069  avgBalance = _calculateAvgBalance(IFOInfo.lastActionBlock, IFOInfo.lastValidActionBlock, IFOInfo.lastActionBalance, IFOInfo.lastValidActionBalance, IFOInfo.lastAvgBalance) */\n      swap2\n      pop\n        /* \"farms-pools/LandbaseLockPool.sol\":9861:10130  if (_isIFOAvailable()){\r... */\n      jump(tag_356)\n    tag_353:\n        /* \"farms-pools/LandbaseLockPool.sol\":10114:10115  0 */\n      0x00\n        /* \"farms-pools/LandbaseLockPool.sol\":10101:10115  avgBalance = 0 */\n      swap2\n      pop\n        /* \"farms-pools/LandbaseLockPool.sol\":9861:10130  if (_isIFOAvailable()){\r... */\n    tag_356:\n        /* \"farms-pools/LandbaseLockPool.sol\":9701:10137  function getUserCredit(address _user) external view returns(uint256 avgBalance) {\r... */\n      pop\n      swap2\n      swap1\n      pop\n      jump\t// out\n        /* \"farms-pools/LandbaseLockPool.sol\":18619:18788  function emergencyWithdraw() external onlyAdmin {\r... */\n    tag_139:\n        /* \"farms-pools/LandbaseLockPool.sol\":4236:4241  admin */\n      and(sub(shl(0xa0, 0x01), 0x01), sload(0x07))\n        /* \"farms-pools/LandbaseLockPool.sol\":4222:4232  msg.sender */\n      caller\n        /* \"farms-pools/LandbaseLockPool.sol\":4222:4241  msg.sender == admin */\n      eq\n        /* \"farms-pools/LandbaseLockPool.sol\":4214:4257  require(msg.sender == admin, \"admin: wut?\") */\n      tag_358\n      jumpi\n      0x40\n      dup1\n      mload\n      shl(0xe5, 0x461bcd)\n      dup2\n      mstore\n      0x20\n      0x04\n      dup3\n      add\n      mstore\n      0x0b\n      0x24\n      dup3\n      add\n      mstore\n      shl(0xa8, 0x61646d696e3a207775743f)\n      0x44\n      dup3\n      add\n      mstore\n      swap1\n      mload\n      swap1\n      dup2\n      swap1\n      sub\n      0x64\n      add\n      swap1\n      revert\n    tag_358:\n        /* \"farms-pools/LandbaseLockPool.sol\":18690:18700  masterchef */\n      immutable(\"0x64e604787cbf194841e7b68d7cd28786f6c9a0a3ab9f8b0a0e87cb4387ab0107\")\n      sub(shl(0xa0, 0x01), 0x01)\n        /* \"farms-pools/LandbaseLockPool.sol\":18678:18719  IMasterChef(masterchef).emergencyWithdraw */\n      and\n      0x5312ea8e\n        /* \"farms-pools/LandbaseLockPool.sol\":18720:18721  0 */\n      0x00\n        /* \"farms-pools/LandbaseLockPool.sol\":18678:18722  IMasterChef(masterchef).emergencyWithdraw(0) */\n      mload(0x40)\n      dup3\n      0xffffffff\n      and\n      0xe0\n      shl\n      dup2\n      mstore\n      0x04\n      add\n      dup1\n      dup3\n      dup2\n      mstore\n      0x20\n      add\n      swap2\n      pop\n      pop\n      0x00\n      mload(0x40)\n      dup1\n      dup4\n      sub\n      dup2\n      0x00\n      dup8\n      dup1\n      extcodesize\n      iszero\n      dup1\n      iszero\n      tag_360\n      jumpi\n      0x00\n      dup1\n      revert\n    tag_360:\n      pop\n      gas\n      call\n      iszero\n      dup1\n      iszero\n      tag_362\n      jumpi\n      returndatasize\n      0x00\n      dup1\n      returndatacopy\n      revert(0x00, returndatasize)\n    tag_362:\n      pop\n      pop\n      pop\n      pop\n        /* \"farms-pools/LandbaseLockPool.sol\":18737:18745  paused() */\n      tag_363\n        /* \"farms-pools/LandbaseLockPool.sol\":18737:18743  paused */\n      tag_93\n        /* \"farms-pools/LandbaseLockPool.sol\":18737:18745  paused() */\n      jump\t// in\n    tag_363:\n        /* \"farms-pools/LandbaseLockPool.sol\":18733:18781  if(!paused()){\r... */\n      tag_308\n      jumpi\n        /* \"farms-pools/LandbaseLockPool.sol\":18761:18769  _pause() */\n      tag_308\n        /* \"farms-pools/LandbaseLockPool.sol\":18761:18767  _pause */\n      tag_302\n        /* \"farms-pools/LandbaseLockPool.sol\":18761:18769  _pause() */\n      jump\t// in\n        /* \"farms-pools/LandbaseLockPool.sol\":10453:10589  function emergencyWithdrawAll() external notContract {\r... */\n    tag_141:\n        /* \"farms-pools/LandbaseLockPool.sol\":4412:4435  _isContract(msg.sender) */\n      tag_367\n        /* \"farms-pools/LandbaseLockPool.sol\":4424:4434  msg.sender */\n      caller\n        /* \"farms-pools/LandbaseLockPool.sol\":4412:4423  _isContract */\n      tag_180\n        /* \"farms-pools/LandbaseLockPool.sol\":4412:4435  _isContract(msg.sender) */\n      jump\t// in\n    tag_367:\n        /* \"farms-pools/LandbaseLockPool.sol\":4411:4435  !_isContract(msg.sender) */\n      iszero\n        /* \"farms-pools/LandbaseLockPool.sol\":4403:4460  require(!_isContract(msg.sender), \"contract not allowed\") */\n      tag_368\n      jumpi\n      0x40\n      dup1\n      mload\n      shl(0xe5, 0x461bcd)\n      dup2\n      mstore\n      0x20\n      0x04\n      dup3\n      add\n      mstore\n      0x14\n      0x24\n      dup3\n      add\n      mstore\n      shl(0x62, 0x18dbdb9d1c9858dd081b9bdd08185b1b1bddd959)\n      0x44\n      dup3\n      add\n      mstore\n      swap1\n      mload\n      swap1\n      dup2\n      swap1\n      sub\n      0x64\n      add\n      swap1\n      revert\n    tag_368:\n        /* \"farms-pools/LandbaseLockPool.sol\":4479:4489  msg.sender */\n      caller\n        /* \"farms-pools/LandbaseLockPool.sol\":4493:4502  tx.origin */\n      origin\n        /* \"farms-pools/LandbaseLockPool.sol\":4479:4502  msg.sender == tx.origin */\n      eq\n        /* \"farms-pools/LandbaseLockPool.sol\":4471:4533  require(msg.sender == tx.origin, \"proxy contract not allowed\") */\n      tag_369\n      jumpi\n      0x40\n      dup1\n      mload\n      shl(0xe5, 0x461bcd)\n      dup2\n      mstore\n      0x20\n      0x04\n      dup3\n      add\n      mstore\n      0x1a\n      0x24\n      dup3\n      add\n      mstore\n      0x00\n      dup1\n      mload\n      0x20\n      data_7fed9a49aa73ae2a737052ad81231890c87ba88fdcecfa2465f440d93f710eda\n      dup4\n      codecopy\n      dup2\n      mload\n      swap2\n      mstore\n      0x44\n      dup3\n      add\n      mstore\n      swap1\n      mload\n      swap1\n      dup2\n      swap1\n      sub\n      0x64\n      add\n      swap1\n      revert\n    tag_369:\n        /* \"farms-pools/LandbaseLockPool.sol\":10517:10531  _zeroFreeIFO() */\n      tag_371\n        /* \"farms-pools/LandbaseLockPool.sol\":10517:10529  _zeroFreeIFO */\n      tag_372\n        /* \"farms-pools/LandbaseLockPool.sol\":10517:10531  _zeroFreeIFO() */\n      jump\t// in\n    tag_371:\n        /* \"farms-pools/LandbaseLockPool.sol\":10562:10572  msg.sender */\n      caller\n        /* \"farms-pools/LandbaseLockPool.sol\":10553:10573  userInfo[msg.sender] */\n      0x00\n      swap1\n      dup2\n      mstore\n        /* \"farms-pools/LandbaseLockPool.sol\":10553:10561  userInfo */\n      0x01\n        /* \"farms-pools/LandbaseLockPool.sol\":10553:10573  userInfo[msg.sender] */\n      0x20\n      mstore\n      0x40\n      swap1\n      keccak256\n        /* \"farms-pools/LandbaseLockPool.sol\":10553:10580  userInfo[msg.sender].shares */\n      sload\n        /* \"farms-pools/LandbaseLockPool.sol\":10542:10581  withdrawV1(userInfo[msg.sender].shares) */\n      tag_308\n      swap1\n        /* \"farms-pools/LandbaseLockPool.sol\":10542:10552  withdrawV1 */\n      tag_374\n        /* \"farms-pools/LandbaseLockPool.sol\":10542:10581  withdrawV1(userInfo[msg.sender].shares) */\n      jump\t// in\n        /* \"farms-pools/LandbaseLockPool.sol\":18880:19257  function inCaseTokensGetStuck(address _token) external onlyAdmin {\r... */\n    tag_144:\n        /* \"farms-pools/LandbaseLockPool.sol\":4236:4241  admin */\n      and(sub(shl(0xa0, 0x01), 0x01), sload(0x07))\n        /* \"farms-pools/LandbaseLockPool.sol\":4222:4232  msg.sender */\n      caller\n        /* \"farms-pools/LandbaseLockPool.sol\":4222:4241  msg.sender == admin */\n      eq\n        /* \"farms-pools/LandbaseLockPool.sol\":4214:4257  require(msg.sender == admin, \"admin: wut?\") */\n      tag_376\n      jumpi\n      0x40\n      dup1\n      mload\n      shl(0xe5, 0x461bcd)\n      dup2\n      mstore\n      0x20\n      0x04\n      dup3\n      add\n      mstore\n      0x0b\n      0x24\n      dup3\n      add\n      mstore\n      shl(0xa8, 0x61646d696e3a207775743f)\n      0x44\n      dup3\n      add\n      mstore\n      swap1\n      mload\n      swap1\n      dup2\n      swap1\n      sub\n      0x64\n      add\n      swap1\n      revert\n    tag_376:\n        /* \"farms-pools/LandbaseLockPool.sol\":18982:18987  token */\n      immutable(\"0x7ae9fd093408c444e1cd944d183f5410919486c93305c223a5a94b5e79d77d3b\")\n      sub(shl(0xa0, 0x01), 0x01)\n        /* \"farms-pools/LandbaseLockPool.sol\":18964:18988  _token != address(token) */\n      and\n        /* \"farms-pools/LandbaseLockPool.sol\":18964:18970  _token */\n      dup2\n      sub(shl(0xa0, 0x01), 0x01)\n        /* \"farms-pools/LandbaseLockPool.sol\":18964:18988  _token != address(token) */\n      and\n      eq\n      iszero\n        /* \"farms-pools/LandbaseLockPool.sol\":18956:19030  require(_token != address(token), \"Token cannot be same as deposit token\") */\n      tag_378\n      jumpi\n      mload(0x40)\n      shl(0xe5, 0x461bcd)\n      dup2\n      mstore\n      0x04\n      add\n      dup1\n      dup1\n      0x20\n      add\n      dup3\n      dup2\n      sub\n      dup3\n      mstore\n      0x25\n      dup2\n      mstore\n      0x20\n      add\n      dup1\n      data_3ea9d2748b0a4cf4d9041ea5447cc8d433bce6ae4e36584bac37b5bb6ca2fc19\n      0x25\n      swap2\n      codecopy\n      0x40\n      add\n      swap2\n      pop\n      pop\n      mload(0x40)\n      dup1\n      swap2\n      sub\n      swap1\n      revert\n    tag_378:\n        /* \"farms-pools/LandbaseLockPool.sol\":19067:19079  receiptToken */\n      immutable(\"0xb9aa4ff60d3edb7fbc3b53bd780c9274ed80a5ba1a237d38b011edab2b031b4a\")\n      sub(shl(0xa0, 0x01), 0x01)\n        /* \"farms-pools/LandbaseLockPool.sol\":19049:19080  _token != address(receiptToken) */\n      and\n        /* \"farms-pools/LandbaseLockPool.sol\":19049:19055  _token */\n      dup2\n      sub(shl(0xa0, 0x01), 0x01)\n        /* \"farms-pools/LandbaseLockPool.sol\":19049:19080  _token != address(receiptToken) */\n      and\n      eq\n      iszero\n        /* \"farms-pools/LandbaseLockPool.sol\":19041:19122  require(_token != address(receiptToken), \"Token cannot be same as receipt token\") */\n      tag_379\n      jumpi\n      mload(0x40)\n      shl(0xe5, 0x461bcd)\n      dup2\n      mstore\n      0x04\n      add\n      dup1\n      dup1\n      0x20\n      add\n      dup3\n      dup2\n      sub\n      dup3\n      mstore\n      0x25\n      dup2\n      mstore\n      0x20\n      add\n      dup1\n      data_56f1cb28260a5fe006a543516f28c8e9fca2a3d42753a5ece1397133ea778f1c\n      0x25\n      swap2\n      codecopy\n      0x40\n      add\n      swap2\n      pop\n      pop\n      mload(0x40)\n      dup1\n      swap2\n      sub\n      swap1\n      revert\n    tag_379:\n        /* \"farms-pools/LandbaseLockPool.sol\":19135:19149  uint256 amount */\n      0x00\n        /* \"farms-pools/LandbaseLockPool.sol\":19159:19165  _token */\n      dup2\n      sub(shl(0xa0, 0x01), 0x01)\n        /* \"farms-pools/LandbaseLockPool.sol\":19152:19176  IERC20(_token).balanceOf */\n      and\n      0x70a08231\n        /* \"farms-pools/LandbaseLockPool.sol\":19185:19189  this */\n      address\n        /* \"farms-pools/LandbaseLockPool.sol\":19152:19191  IERC20(_token).balanceOf(address(this)) */\n      mload(0x40)\n      dup3\n      0xffffffff\n      and\n      0xe0\n      shl\n      dup2\n      mstore\n      0x04\n      add\n      dup1\n      dup3\n      sub(shl(0xa0, 0x01), 0x01)\n      and\n      dup2\n      mstore\n      0x20\n      add\n      swap2\n      pop\n      pop\n      0x20\n      mload(0x40)\n      dup1\n      dup4\n      sub\n      dup2\n      dup7\n      dup1\n      extcodesize\n      iszero\n      dup1\n      iszero\n      tag_380\n      jumpi\n      0x00\n      dup1\n      revert\n    tag_380:\n      pop\n      gas\n      staticcall\n      iszero\n      dup1\n      iszero\n      tag_382\n      jumpi\n      returndatasize\n      0x00\n      dup1\n      returndatacopy\n      revert(0x00, returndatasize)\n    tag_382:\n      pop\n      pop\n      pop\n      pop\n      mload(0x40)\n      returndatasize\n      0x20\n      dup2\n      lt\n      iszero\n      tag_383\n      jumpi\n      0x00\n      dup1\n      revert\n    tag_383:\n      pop\n      mload\n      swap1\n      pop\n        /* \"farms-pools/LandbaseLockPool.sol\":19202:19249  IERC20(_token).safeTransfer(msg.sender, amount) */\n      tag_384\n      sub(shl(0xa0, 0x01), 0x01)\n        /* \"farms-pools/LandbaseLockPool.sol\":19202:19229  IERC20(_token).safeTransfer */\n      dup4\n      and\n        /* \"farms-pools/LandbaseLockPool.sol\":19230:19240  msg.sender */\n      caller\n        /* \"farms-pools/LandbaseLockPool.sol\":19152:19191  IERC20(_token).balanceOf(address(this)) */\n      dup4\n        /* \"farms-pools/LandbaseLockPool.sol\":19202:19229  IERC20(_token).safeTransfer */\n      tag_210\n        /* \"farms-pools/LandbaseLockPool.sol\":19202:19249  IERC20(_token).safeTransfer(msg.sender, amount) */\n      jump\t// in\n    tag_384:\n        /* \"farms-pools/LandbaseLockPool.sol\":4268:4269  _ */\n      pop\n        /* \"farms-pools/LandbaseLockPool.sol\":18880:19257  function inCaseTokensGetStuck(address _token) external onlyAdmin {\r... */\n      pop\n      jump\t// out\n        /* \"farms-pools/LandbaseLockPool.sol\":2221:2264  uint256 public withdrawFeePeriod = 72 hours */\n    tag_146:\n      sload(0x0c)\n      dup2\n      jump\t// out\n        /* \"farms-pools/LandbaseLockPool.sol\":2100:2131  uint256 public withdrawFee = 10 */\n    tag_148:\n      sload(0x0b)\n      dup2\n      jump\t// out\n        /* \"farms-pools/LandbaseLockPool.sol\":1330:1366  IERC20 public immutable receiptToken */\n    tag_150:\n      immutable(\"0xb9aa4ff60d3edb7fbc3b53bd780c9274ed80a5ba1a237d38b011edab2b031b4a\")\n      dup2\n      jump\t// out\n        /* \"farms-pools/LandbaseLockPool.sol\":15729:15896  function setTreasury(address _treasury) external onlyOwner {\r... */\n    tag_153:\n        /* \"farms-pools/access/Ownable.sol\":1350:1362  _msgSender() */\n      tag_386\n        /* \"farms-pools/access/Ownable.sol\":1350:1360  _msgSender */\n      tag_265\n        /* \"farms-pools/access/Ownable.sol\":1350:1362  _msgSender() */\n      jump\t// in\n    tag_386:\n      sub(shl(0xa0, 0x01), 0x01)\n        /* \"farms-pools/access/Ownable.sol\":1339:1362  owner() == _msgSender() */\n      and\n        /* \"farms-pools/access/Ownable.sol\":1339:1346  owner() */\n      tag_387\n        /* \"farms-pools/access/Ownable.sol\":1339:1344  owner */\n      tag_115\n        /* \"farms-pools/access/Ownable.sol\":1339:1346  owner() */\n      jump\t// in\n    tag_387:\n      sub(shl(0xa0, 0x01), 0x01)\n        /* \"farms-pools/access/Ownable.sol\":1339:1362  owner() == _msgSender() */\n      and\n      eq\n        /* \"farms-pools/access/Ownable.sol\":1331:1399  require(owner() == _msgSender(), \"Ownable: caller is not the owner\") */\n      tag_388\n      jumpi\n      0x40\n      dup1\n      mload\n      shl(0xe5, 0x461bcd)\n      dup2\n      mstore\n      0x20\n      0x04\n      dup3\n      add\n      dup2\n      swap1\n      mstore\n      0x24\n      dup3\n      add\n      mstore\n      0x00\n      dup1\n      mload\n      0x20\n      data_9924ebdf1add33d25d4ef888e16131f0a5687b0580a36c21b5c301a6c462effe\n      dup4\n      codecopy\n      dup2\n      mload\n      swap2\n      mstore\n      0x44\n      dup3\n      add\n      mstore\n      swap1\n      mload\n      swap1\n      dup2\n      swap1\n      sub\n      0x64\n      add\n      swap1\n      revert\n    tag_388:\n      sub(shl(0xa0, 0x01), 0x01)\n        /* \"farms-pools/LandbaseLockPool.sol\":15807:15830  _treasury != address(0) */\n      dup2\n      and\n        /* \"farms-pools/LandbaseLockPool.sol\":15799:15857  require(_treasury != address(0), \"Cannot be zero address\") */\n      tag_390\n      jumpi\n      0x40\n      dup1\n      mload\n      shl(0xe5, 0x461bcd)\n      dup2\n      mstore\n      0x20\n      0x04\n      dup3\n      add\n      mstore\n      0x16\n      0x24\n      dup3\n      add\n      mstore\n      shl(0x50, 0x43616e6e6f74206265207a65726f2061646472657373)\n      0x44\n      dup3\n      add\n      mstore\n      swap1\n      mload\n      swap1\n      dup2\n      swap1\n      sub\n      0x64\n      add\n      swap1\n      revert\n    tag_390:\n        /* \"farms-pools/LandbaseLockPool.sol\":15868:15876  treasury */\n      0x08\n        /* \"farms-pools/LandbaseLockPool.sol\":15868:15888  treasury = _treasury */\n      dup1\n      sload\n      not(sub(shl(0xa0, 0x01), 0x01))\n      and\n      sub(shl(0xa0, 0x01), 0x01)\n      swap3\n      swap1\n      swap3\n      and\n      swap2\n      swap1\n      swap2\n      or\n      swap1\n      sstore\n        /* \"farms-pools/LandbaseLockPool.sol\":15729:15896  function setTreasury(address _treasury) external onlyOwner {\r... */\n      jump\t// out\n        /* \"farms-pools/access/Ownable.sol\":2073:2317  function transferOwnership(address newOwner) public virtual onlyOwner {\r... */\n    tag_156:\n        /* \"farms-pools/access/Ownable.sol\":1350:1362  _msgSender() */\n      tag_392\n        /* \"farms-pools/access/Ownable.sol\":1350:1360  _msgSender */\n      tag_265\n        /* \"farms-pools/access/Ownable.sol\":1350:1362  _msgSender() */\n      jump\t// in\n    tag_392:\n      sub(shl(0xa0, 0x01), 0x01)\n        /* \"farms-pools/access/Ownable.sol\":1339:1362  owner() == _msgSender() */\n      and\n        /* \"farms-pools/access/Ownable.sol\":1339:1346  owner() */\n      tag_393\n        /* \"farms-pools/access/Ownable.sol\":1339:1344  owner */\n      tag_115\n        /* \"farms-pools/access/Ownable.sol\":1339:1346  owner() */\n      jump\t// in\n    tag_393:\n      sub(shl(0xa0, 0x01), 0x01)\n        /* \"farms-pools/access/Ownable.sol\":1339:1362  owner() == _msgSender() */\n      and\n      eq\n        /* \"farms-pools/access/Ownable.sol\":1331:1399  require(owner() == _msgSender(), \"Ownable: caller is not the owner\") */\n      tag_394\n      jumpi\n      0x40\n      dup1\n      mload\n      shl(0xe5, 0x461bcd)\n      dup2\n      mstore\n      0x20\n      0x04\n      dup3\n      add\n      dup2\n      swap1\n      mstore\n      0x24\n      dup3\n      add\n      mstore\n      0x00\n      dup1\n      mload\n      0x20\n      data_9924ebdf1add33d25d4ef888e16131f0a5687b0580a36c21b5c301a6c462effe\n      dup4\n      codecopy\n      dup2\n      mload\n      swap2\n      mstore\n      0x44\n      dup3\n      add\n      mstore\n      swap1\n      mload\n      swap1\n      dup2\n      swap1\n      sub\n      0x64\n      add\n      swap1\n      revert\n    tag_394:\n      sub(shl(0xa0, 0x01), 0x01)\n        /* \"farms-pools/access/Ownable.sol\":2162:2184  newOwner != address(0) */\n      dup2\n      and\n        /* \"farms-pools/access/Ownable.sol\":2154:2227  require(newOwner != address(0), \"Ownable: new owner is the zero address\") */\n      tag_396\n      jumpi\n      mload(0x40)\n      shl(0xe5, 0x461bcd)\n      dup2\n      mstore\n      0x04\n      add\n      dup1\n      dup1\n      0x20\n      add\n      dup3\n      dup2\n      sub\n      dup3\n      mstore\n      0x26\n      dup2\n      mstore\n      0x20\n      add\n      dup1\n      data_245f15ff17f551913a7a18385165551503906a406f905ac1c2437281a7cd0cfe\n      0x26\n      swap2\n      codecopy\n      0x40\n      add\n      swap2\n      pop\n      pop\n      mload(0x40)\n      dup1\n      swap2\n      sub\n      swap1\n      revert\n    tag_396:\n        /* \"farms-pools/access/Ownable.sol\":2264:2270  _owner */\n      0x00\n      dup1\n      sload\n        /* \"farms-pools/access/Ownable.sol\":2243:2281  OwnershipTransferred(_owner, newOwner) */\n      mload(0x40)\n      sub(shl(0xa0, 0x01), 0x01)\n      dup1\n      dup6\n      and\n      swap4\n        /* \"farms-pools/access/Ownable.sol\":2264:2270  _owner */\n      swap3\n      and\n      swap2\n        /* \"farms-pools/access/Ownable.sol\":2243:2281  OwnershipTransferred(_owner, newOwner) */\n      0x8be0079c531659141344cd1fd0a4f28419497f9722a3daafe3b4186f6b6457e0\n      swap2\n      log3\n        /* \"farms-pools/access/Ownable.sol\":2292:2298  _owner */\n      0x00\n        /* \"farms-pools/access/Ownable.sol\":2292:2309  _owner = newOwner */\n      dup1\n      sload\n      not(sub(shl(0xa0, 0x01), 0x01))\n      and\n      sub(shl(0xa0, 0x01), 0x01)\n      swap3\n      swap1\n      swap3\n      and\n      swap2\n      swap1\n      swap2\n      or\n      swap1\n      sstore\n        /* \"farms-pools/access/Ownable.sol\":2073:2317  function transferOwnership(address newOwner) public virtual onlyOwner {\r... */\n      jump\t// out\n        /* \"farms-pools/LandbaseLockPool.sol\":1696:1716  address public admin */\n    tag_158:\n      and(sub(shl(0xa0, 0x01), 0x01), sload(0x07))\n      dup2\n      jump\t// out\n        /* \"farms-pools/LandbaseLockPool.sol\":1390:1429  IMasterChef public immutable masterchef */\n    tag_160:\n      immutable(\"0x64e604787cbf194841e7b68d7cd28786f6c9a0a3ab9f8b0a0e87cb4387ab0107\")\n      dup2\n      jump\t// out\n        /* \"farms-pools/LandbaseLockPool.sol\":1280:1309  IERC20 public immutable token */\n    tag_162:\n      immutable(\"0x7ae9fd093408c444e1cd944d183f5410919486c93305c223a5a94b5e79d77d3b\")\n      dup2\n      jump\t// out\n        /* \"farms-pools/SafeERC20.sol\":1381:2003  function safeApprove(IERC20 token, address spender, uint256 value) internal {\r... */\n    tag_163:\n        /* \"farms-pools/SafeERC20.sol\":1751:1761  value == 0 */\n      dup1\n      iszero\n      dup1\n        /* \"farms-pools/SafeERC20.sol\":1750:1812  (value == 0) || (token.allowance(address(this), spender) == 0) */\n      tag_398\n      jumpi\n      pop\n        /* \"farms-pools/SafeERC20.sol\":1767:1806  token.allowance(address(this), spender) */\n      0x40\n      dup1\n      mload\n      shl(0xe1, 0x6eb1769f)\n      dup2\n      mstore\n        /* \"farms-pools/SafeERC20.sol\":1791:1795  this */\n      address\n        /* \"farms-pools/SafeERC20.sol\":1767:1806  token.allowance(address(this), spender) */\n      0x04\n      dup3\n      add\n      mstore\n      sub(shl(0xa0, 0x01), 0x01)\n      dup5\n      dup2\n      and\n      0x24\n      dup4\n      add\n      mstore\n      swap2\n      mload\n        /* \"farms-pools/SafeERC20.sol\":1767:1782  token.allowance */\n      swap2\n      dup6\n      and\n      swap2\n      0xdd62ed3e\n      swap2\n        /* \"farms-pools/SafeERC20.sol\":1767:1806  token.allowance(address(this), spender) */\n      0x44\n      dup1\n      dup3\n      add\n      swap3\n      0x20\n      swap3\n      swap1\n      swap2\n      swap1\n      dup3\n      swap1\n      sub\n      add\n      dup2\n        /* \"farms-pools/SafeERC20.sol\":1767:1782  token.allowance */\n      dup7\n        /* \"farms-pools/SafeERC20.sol\":1767:1806  token.allowance(address(this), spender) */\n      dup1\n      extcodesize\n      iszero\n      dup1\n      iszero\n      tag_399\n      jumpi\n      0x00\n      dup1\n      revert\n    tag_399:\n      pop\n      gas\n      staticcall\n      iszero\n      dup1\n      iszero\n      tag_401\n      jumpi\n      returndatasize\n      0x00\n      dup1\n      returndatacopy\n      revert(0x00, returndatasize)\n    tag_401:\n      pop\n      pop\n      pop\n      pop\n      mload(0x40)\n      returndatasize\n      0x20\n      dup2\n      lt\n      iszero\n      tag_402\n      jumpi\n      0x00\n      dup1\n      revert\n    tag_402:\n      pop\n      mload\n        /* \"farms-pools/SafeERC20.sol\":1767:1811  token.allowance(address(this), spender) == 0 */\n      iszero\n        /* \"farms-pools/SafeERC20.sol\":1750:1812  (value == 0) || (token.allowance(address(this), spender) == 0) */\n    tag_398:\n        /* \"farms-pools/SafeERC20.sol\":1742:1894  require((value == 0) || (token.allowance(address(this), spender) == 0),\r... */\n      tag_403\n      jumpi\n      mload(0x40)\n      shl(0xe5, 0x461bcd)\n      dup2\n      mstore\n      0x04\n      add\n      dup1\n      dup1\n      0x20\n      add\n      dup3\n      dup2\n      sub\n      dup3\n      mstore\n      0x36\n      dup2\n      mstore\n      0x20\n      add\n      dup1\n      data_ef945ddb1bfdc0da870feb4560d868b047642b4ac7f2fb7f8b7c51cb4a411e25\n      0x36\n      swap2\n      codecopy\n      0x40\n      add\n      swap2\n      pop\n      pop\n      mload(0x40)\n      dup1\n      swap2\n      sub\n      swap1\n      revert\n    tag_403:\n        /* \"farms-pools/SafeERC20.sol\":1932:1994  abi.encodeWithSelector(token.approve.selector, spender, value) */\n      0x40\n      dup1\n      mload\n      sub(shl(0xa0, 0x01), 0x01)\n      dup5\n      and\n      0x24\n      dup3\n      add\n      mstore\n      0x44\n      dup1\n      dup3\n      add\n      dup5\n      swap1\n      mstore\n      dup3\n      mload\n      dup1\n      dup4\n      sub\n      swap1\n      swap2\n      add\n      dup2\n      mstore\n      0x64\n      swap1\n      swap2\n      add\n      swap1\n      swap2\n      mstore\n      0x20\n      dup2\n      add\n      dup1\n      mload\n      sub(shl(0xe0, 0x01), 0x01)\n      and\n      shl(0xe0, 0x095ea7b3)\n      or\n      swap1\n      mstore\n        /* \"farms-pools/SafeERC20.sol\":1905:1995  _callOptionalReturn(token, abi.encodeWithSelector(token.approve.selector, spender, value)) */\n      tag_404\n      swap1\n        /* \"farms-pools/SafeERC20.sol\":1925:1930  token */\n      dup5\n      swap1\n        /* \"farms-pools/SafeERC20.sol\":1905:1924  _callOptionalReturn */\n      tag_405\n        /* \"farms-pools/SafeERC20.sol\":1905:1995  _callOptionalReturn(token, abi.encodeWithSelector(token.approve.selector, spender, value)) */\n      jump\t// in\n    tag_404:\n        /* \"farms-pools/SafeERC20.sol\":1381:2003  function safeApprove(IERC20 token, address spender, uint256 value) internal {\r... */\n      pop\n      pop\n      pop\n      jump\t// out\n        /* \"farms-pools/utils/Address.sol\":3669:3864  function functionCall(address target, bytes memory data, string memory errorMessage) internal returns (bytes memory) {\r... */\n    tag_164:\n        /* \"farms-pools/utils/Address.sol\":3772:3784  bytes memory */\n      0x60\n        /* \"farms-pools/utils/Address.sol\":3804:3856  functionCallWithValue(target, data, 0, errorMessage) */\n      tag_407\n        /* \"farms-pools/utils/Address.sol\":3826:3832  target */\n      dup5\n        /* \"farms-pools/utils/Address.sol\":3834:3838  data */\n      dup5\n        /* \"farms-pools/utils/Address.sol\":3840:3841  0 */\n      0x00\n        /* \"farms-pools/utils/Address.sol\":3843:3855  errorMessage */\n      dup6\n        /* \"farms-pools/utils/Address.sol\":3804:3825  functionCallWithValue */\n      tag_408\n        /* \"farms-pools/utils/Address.sol\":3804:3856  functionCallWithValue(target, data, 0, errorMessage) */\n      jump\t// in\n    tag_407:\n        /* \"farms-pools/utils/Address.sol\":3797:3856  return functionCallWithValue(target, data, 0, errorMessage) */\n      swap1\n      pop\n        /* \"farms-pools/utils/Address.sol\":3669:3864  function functionCall(address target, bytes memory data, string memory errorMessage) internal returns (bytes memory) {\r... */\n    tag_406:\n      swap4\n      swap3\n      pop\n      pop\n      pop\n      jump\t// out\n        /* \"farms-pools/LandbaseLockPool.sol\":21729:21920  function _isContract(address addr) internal view returns (bool) {\r... */\n    tag_180:\n        /* \"farms-pools/LandbaseLockPool.sol\":21859:21876  extcodesize(addr) */\n      extcodesize\n        /* \"farms-pools/LandbaseLockPool.sol\":21904:21912  size > 0 */\n      iszero\n      iszero\n      swap1\n        /* \"farms-pools/LandbaseLockPool.sol\":21729:21920  function _isContract(address addr) internal view returns (bool) {\r... */\n      jump\t// out\n        /* \"farms-pools/libraries/SafeMath.sol\":3653:3873  function mul(uint256 a, uint256 b) internal pure returns (uint256) {\r... */\n    tag_189:\n        /* \"farms-pools/libraries/SafeMath.sol\":3711:3718  uint256 */\n      0x00\n        /* \"farms-pools/libraries/SafeMath.sol\":3735:3741  a == 0 */\n      dup3\n        /* \"farms-pools/libraries/SafeMath.sol\":3731:3751  if (a == 0) return 0 */\n      tag_411\n      jumpi\n      pop\n        /* \"farms-pools/libraries/SafeMath.sol\":3750:3751  0 */\n      0x00\n        /* \"farms-pools/libraries/SafeMath.sol\":3743:3751  return 0 */\n      jump(tag_410)\n        /* \"farms-pools/libraries/SafeMath.sol\":3731:3751  if (a == 0) return 0 */\n    tag_411:\n        /* \"farms-pools/libraries/SafeMath.sol\":3774:3779  a * b */\n      dup3\n      dup3\n      mul\n        /* \"farms-pools/libraries/SafeMath.sol\":3778:3779  b */\n      dup3\n        /* \"farms-pools/libraries/SafeMath.sol\":3774:3775  a */\n      dup5\n        /* \"farms-pools/libraries/SafeMath.sol\":3774:3779  a * b */\n      dup3\n        /* \"farms-pools/libraries/SafeMath.sol\":3774:3775  a */\n      dup2\n        /* \"farms-pools/libraries/SafeMath.sol\":3798:3803  c / a */\n      tag_412\n      jumpi\n      invalid\n    tag_412:\n      div\n        /* \"farms-pools/libraries/SafeMath.sol\":3798:3808  c / a == b */\n      eq\n        /* \"farms-pools/libraries/SafeMath.sol\":3790:3846  require(c / a == b, \"SafeMath: multiplication overflow\") */\n      tag_413\n      jumpi\n      mload(0x40)\n      shl(0xe5, 0x461bcd)\n      dup2\n      mstore\n      0x04\n      add\n      dup1\n      dup1\n      0x20\n      add\n      dup3\n      dup2\n      sub\n      dup3\n      mstore\n      0x21\n      dup2\n      mstore\n      0x20\n      add\n      dup1\n      data_9113bb53c2876a3805b2c9242029423fc540a728243ce887ab24c82cf119fba3\n      0x21\n      swap2\n      codecopy\n      0x40\n      add\n      swap2\n      pop\n      pop\n      mload(0x40)\n      dup1\n      swap2\n      sub\n      swap1\n      revert\n    tag_413:\n        /* \"farms-pools/libraries/SafeMath.sol\":3864:3865  c */\n      swap1\n      pop\n        /* \"farms-pools/libraries/SafeMath.sol\":3653:3873  function mul(uint256 a, uint256 b) internal pure returns (uint256) {\r... */\n    tag_410:\n      swap3\n      swap2\n      pop\n      pop\n      jump\t// out\n        /* \"farms-pools/libraries/SafeMath.sol\":4351:4504  function div(uint256 a, uint256 b) internal pure returns (uint256) {\r... */\n    tag_190:\n        /* \"farms-pools/libraries/SafeMath.sol\":4409:4416  uint256 */\n      0x00\n        /* \"farms-pools/libraries/SafeMath.sol\":4441:4442  0 */\n      dup1\n        /* \"farms-pools/libraries/SafeMath.sol\":4437:4438  b */\n      dup3\n        /* \"farms-pools/libraries/SafeMath.sol\":4437:4442  b > 0 */\n      gt\n        /* \"farms-pools/libraries/SafeMath.sol\":4429:4473  require(b > 0, \"SafeMath: division by zero\") */\n      tag_415\n      jumpi\n      0x40\n      dup1\n      mload\n      shl(0xe5, 0x461bcd)\n      dup2\n      mstore\n      0x20\n      0x04\n      dup3\n      add\n      mstore\n      0x1a\n      0x24\n      dup3\n      add\n      mstore\n      0x536166654d6174683a206469766973696f6e206279207a65726f000000000000\n      0x44\n      dup3\n      add\n      mstore\n      swap1\n      mload\n      swap1\n      dup2\n      swap1\n      sub\n      0x64\n      add\n      swap1\n      revert\n    tag_415:\n        /* \"farms-pools/libraries/SafeMath.sol\":4495:4496  b */\n      dup2\n        /* \"farms-pools/libraries/SafeMath.sol\":4491:4492  a */\n      dup4\n        /* \"farms-pools/libraries/SafeMath.sol\":4491:4496  a / b */\n      dup2\n      tag_416\n      jumpi\n      invalid\n    tag_416:\n      div\n      swap4\n        /* \"farms-pools/libraries/SafeMath.sol\":4351:4504  function div(uint256 a, uint256 b) internal pure returns (uint256) {\r... */\n      swap3\n      pop\n      pop\n      pop\n      jump\t// out\n        /* \"farms-pools/libraries/SafeMath.sol\":3236:3394  function sub(uint256 a, uint256 b) internal pure returns (uint256) {\r... */\n    tag_192:\n        /* \"farms-pools/libraries/SafeMath.sol\":3294:3301  uint256 */\n      0x00\n        /* \"farms-pools/libraries/SafeMath.sol\":3327:3328  a */\n      dup3\n        /* \"farms-pools/libraries/SafeMath.sol\":3322:3323  b */\n      dup3\n        /* \"farms-pools/libraries/SafeMath.sol\":3322:3328  b <= a */\n      gt\n      iszero\n        /* \"farms-pools/libraries/SafeMath.sol\":3314:3363  require(b <= a, \"SafeMath: subtraction overflow\") */\n      tag_418\n      jumpi\n      0x40\n      dup1\n      mload\n      shl(0xe5, 0x461bcd)\n      dup2\n      mstore\n      0x20\n      0x04\n      dup3\n      add\n      mstore\n      0x1e\n      0x24\n      dup3\n      add\n      mstore\n      0x536166654d6174683a207375627472616374696f6e206f766572666c6f770000\n      0x44\n      dup3\n      add\n      mstore\n      swap1\n      mload\n      swap1\n      dup2\n      swap1\n      sub\n      0x64\n      add\n      swap1\n      revert\n    tag_418:\n      pop\n        /* \"farms-pools/libraries/SafeMath.sol\":3381:3386  a - b */\n      swap1\n      sub\n      swap1\n        /* \"farms-pools/libraries/SafeMath.sol\":3236:3394  function sub(uint256 a, uint256 b) internal pure returns (uint256) {\r... */\n      jump\t// out\n        /* \"farms-pools/libraries/SafeMath.sol\":2774:2953  function add(uint256 a, uint256 b) internal pure returns (uint256) {\r... */\n    tag_204:\n        /* \"farms-pools/libraries/SafeMath.sol\":2832:2839  uint256 */\n      0x00\n        /* \"farms-pools/libraries/SafeMath.sol\":2864:2869  a + b */\n      dup3\n      dup3\n      add\n        /* \"farms-pools/libraries/SafeMath.sol\":2888:2894  c >= a */\n      dup4\n      dup2\n      lt\n      iszero\n        /* \"farms-pools/libraries/SafeMath.sol\":2880:2926  require(c >= a, \"SafeMath: addition overflow\") */\n      tag_413\n      jumpi\n      0x40\n      dup1\n      mload\n      shl(0xe5, 0x461bcd)\n      dup2\n      mstore\n      0x20\n      0x04\n      dup3\n      add\n      mstore\n      0x1b\n      0x24\n      dup3\n      add\n      mstore\n      0x536166654d6174683a206164646974696f6e206f766572666c6f770000000000\n      0x44\n      dup3\n      add\n      mstore\n      swap1\n      mload\n      swap1\n      dup2\n      swap1\n      sub\n      0x64\n      add\n      swap1\n      revert\n        /* \"farms-pools/SafeERC20.sol\":722:899  function safeTransfer(IERC20 token, address to, uint256 value) internal {\r... */\n    tag_210:\n        /* \"farms-pools/SafeERC20.sol\":832:890  abi.encodeWithSelector(token.transfer.selector, to, value) */\n      0x40\n      dup1\n      mload\n      sub(shl(0xa0, 0x01), 0x01)\n      dup5\n      and\n      0x24\n      dup3\n      add\n      mstore\n      0x44\n      dup1\n      dup3\n      add\n      dup5\n      swap1\n      mstore\n      dup3\n      mload\n      dup1\n      dup4\n      sub\n      swap1\n      swap2\n      add\n      dup2\n      mstore\n      0x64\n      swap1\n      swap2\n      add\n      swap1\n      swap2\n      mstore\n      0x20\n      dup2\n      add\n      dup1\n      mload\n      sub(shl(0xe0, 0x01), 0x01)\n      and\n      shl(0xe0, 0xa9059cbb)\n      or\n      swap1\n      mstore\n        /* \"farms-pools/SafeERC20.sol\":805:891  _callOptionalReturn(token, abi.encodeWithSelector(token.transfer.selector, to, value)) */\n      tag_404\n      swap1\n        /* \"farms-pools/SafeERC20.sol\":825:830  token */\n      dup5\n      swap1\n        /* \"farms-pools/SafeERC20.sol\":805:824  _callOptionalReturn */\n      tag_405\n        /* \"farms-pools/SafeERC20.sol\":805:891  _callOptionalReturn(token, abi.encodeWithSelector(token.transfer.selector, to, value)) */\n      jump\t// in\n        /* \"farms-pools/LandbaseLockPool.sol\":8446:9569  function _updateUserIFO(uint256 _amount, IFOActions _action) internal {\r... */\n    tag_218:\n        /* \"farms-pools/LandbaseLockPool.sol\":8569:8579  msg.sender */\n      caller\n        /* \"farms-pools/LandbaseLockPool.sol\":8527:8554  UserIFOInfo storage IFOInfo */\n      0x00\n        /* \"farms-pools/LandbaseLockPool.sol\":8557:8580  userIFOInfo[msg.sender] */\n      swap1\n      dup2\n      mstore\n        /* \"farms-pools/LandbaseLockPool.sol\":8557:8568  userIFOInfo */\n      0x02\n        /* \"farms-pools/LandbaseLockPool.sol\":8557:8580  userIFOInfo[msg.sender] */\n      0x20\n      mstore\n      0x40\n      dup2\n      keccak256\n      swap1\n        /* \"farms-pools/LandbaseLockPool.sol\":8623:8640  _isIFOAvailable() */\n      tag_424\n        /* \"farms-pools/LandbaseLockPool.sol\":8623:8638  _isIFOAvailable */\n      tag_352\n        /* \"farms-pools/LandbaseLockPool.sol\":8623:8640  _isIFOAvailable() */\n      jump\t// in\n    tag_424:\n        /* \"farms-pools/LandbaseLockPool.sol\":8622:8640  !_isIFOAvailable() */\n      iszero\n        /* \"farms-pools/LandbaseLockPool.sol\":8622:8805  !_isIFOAvailable() ? 0 : _calculateAvgBalance(IFOInfo.lastActionBlock, IFOInfo.lastValidActionBlock, IFOInfo.lastActionBalance, IFOInfo.lastValidActionBalance, IFOInfo.lastAvgBalance) */\n      tag_425\n      jumpi\n        /* \"farms-pools/LandbaseLockPool.sol\":8647:8805  _calculateAvgBalance(IFOInfo.lastActionBlock, IFOInfo.lastValidActionBlock, IFOInfo.lastActionBalance, IFOInfo.lastValidActionBalance, IFOInfo.lastAvgBalance) */\n      tag_426\n        /* \"farms-pools/LandbaseLockPool.sol\":8668:8675  IFOInfo */\n      dup3\n        /* \"farms-pools/LandbaseLockPool.sol\":8668:8691  IFOInfo.lastActionBlock */\n      0x02\n      add\n      sload\n        /* \"farms-pools/LandbaseLockPool.sol\":8693:8700  IFOInfo */\n      dup4\n        /* \"farms-pools/LandbaseLockPool.sol\":8693:8721  IFOInfo.lastValidActionBlock */\n      0x03\n      add\n      sload\n        /* \"farms-pools/LandbaseLockPool.sol\":8723:8730  IFOInfo */\n      dup5\n        /* \"farms-pools/LandbaseLockPool.sol\":8723:8748  IFOInfo.lastActionBalance */\n      0x00\n      add\n      sload\n        /* \"farms-pools/LandbaseLockPool.sol\":8750:8757  IFOInfo */\n      dup6\n        /* \"farms-pools/LandbaseLockPool.sol\":8750:8780  IFOInfo.lastValidActionBalance */\n      0x01\n      add\n      sload\n        /* \"farms-pools/LandbaseLockPool.sol\":8782:8789  IFOInfo */\n      dup7\n        /* \"farms-pools/LandbaseLockPool.sol\":8782:8804  IFOInfo.lastAvgBalance */\n      0x04\n      add\n      sload\n        /* \"farms-pools/LandbaseLockPool.sol\":8647:8667  _calculateAvgBalance */\n      tag_355\n        /* \"farms-pools/LandbaseLockPool.sol\":8647:8805  _calculateAvgBalance(IFOInfo.lastActionBlock, IFOInfo.lastValidActionBlock, IFOInfo.lastActionBalance, IFOInfo.lastValidActionBalance, IFOInfo.lastAvgBalance) */\n      jump\t// in\n    tag_426:\n        /* \"farms-pools/LandbaseLockPool.sol\":8622:8805  !_isIFOAvailable() ? 0 : _calculateAvgBalance(IFOInfo.lastActionBlock, IFOInfo.lastValidActionBlock, IFOInfo.lastActionBalance, IFOInfo.lastValidActionBalance, IFOInfo.lastAvgBalance) */\n      jump(tag_427)\n    tag_425:\n        /* \"farms-pools/LandbaseLockPool.sol\":8643:8644  0 */\n      0x00\n        /* \"farms-pools/LandbaseLockPool.sol\":8622:8805  !_isIFOAvailable() ? 0 : _calculateAvgBalance(IFOInfo.lastActionBlock, IFOInfo.lastValidActionBlock, IFOInfo.lastActionBalance, IFOInfo.lastValidActionBalance, IFOInfo.lastAvgBalance) */\n    tag_427:\n        /* \"farms-pools/LandbaseLockPool.sol\":8601:8805  uint256 avgBalance = !_isIFOAvailable() ? 0 : _calculateAvgBalance(IFOInfo.lastActionBlock, IFOInfo.lastValidActionBlock, IFOInfo.lastActionBalance, IFOInfo.lastValidActionBalance, IFOInfo.lastAvgBalance) */\n      swap1\n      pop\n        /* \"farms-pools/LandbaseLockPool.sol\":8841:8860  IFOActions.Withdraw */\n      0x01\n        /* \"farms-pools/LandbaseLockPool.sol\":8830:8837  _action */\n      dup4\n        /* \"farms-pools/LandbaseLockPool.sol\":8830:8860  _action == IFOActions.Withdraw */\n      0x01\n      dup2\n      gt\n      iszero\n      tag_429\n      jumpi\n      invalid\n    tag_429:\n      eq\n        /* \"farms-pools/LandbaseLockPool.sol\":8826:9093  if (_action == IFOActions.Withdraw){\r... */\n      iszero\n      tag_430\n      jumpi\n        /* \"farms-pools/LandbaseLockPool.sol\":8914:8939  IFOInfo.lastActionBalance */\n      dup2\n      sload\n        /* \"farms-pools/LandbaseLockPool.sol\":8904:8939  _amount > IFOInfo.lastActionBalance */\n      dup5\n      gt\n        /* \"farms-pools/LandbaseLockPool.sol\":8904:8984  _amount > IFOInfo.lastActionBalance ? 0 : IFOInfo.lastActionBalance.sub(_amount) */\n      tag_431\n      jumpi\n        /* \"farms-pools/LandbaseLockPool.sol\":8946:8971  IFOInfo.lastActionBalance */\n      dup2\n      sload\n        /* \"farms-pools/LandbaseLockPool.sol\":8946:8984  IFOInfo.lastActionBalance.sub(_amount) */\n      tag_432\n      swap1\n        /* \"farms-pools/LandbaseLockPool.sol\":8976:8983  _amount */\n      dup6\n        /* \"farms-pools/LandbaseLockPool.sol\":8946:8975  IFOInfo.lastActionBalance.sub */\n      tag_192\n        /* \"farms-pools/LandbaseLockPool.sol\":8946:8984  IFOInfo.lastActionBalance.sub(_amount) */\n      jump\t// in\n    tag_432:\n        /* \"farms-pools/LandbaseLockPool.sol\":8904:8984  _amount > IFOInfo.lastActionBalance ? 0 : IFOInfo.lastActionBalance.sub(_amount) */\n      jump(tag_433)\n    tag_431:\n        /* \"farms-pools/LandbaseLockPool.sol\":8942:8943  0 */\n      0x00\n        /* \"farms-pools/LandbaseLockPool.sol\":8904:8984  _amount > IFOInfo.lastActionBalance ? 0 : IFOInfo.lastActionBalance.sub(_amount) */\n    tag_433:\n        /* \"farms-pools/LandbaseLockPool.sol\":8876:8984  IFOInfo.lastActionBalance = _amount > IFOInfo.lastActionBalance ? 0 : IFOInfo.lastActionBalance.sub(_amount) */\n      dup3\n      sstore\n        /* \"farms-pools/LandbaseLockPool.sol\":8826:9093  if (_action == IFOActions.Withdraw){\r... */\n      jump(tag_434)\n    tag_430:\n        /* \"farms-pools/LandbaseLockPool.sol\":9043:9068  IFOInfo.lastActionBalance */\n      dup2\n      sload\n        /* \"farms-pools/LandbaseLockPool.sol\":9043:9081  IFOInfo.lastActionBalance.add(_amount) */\n      tag_435\n      swap1\n        /* \"farms-pools/LandbaseLockPool.sol\":9073:9080  _amount */\n      dup6\n        /* \"farms-pools/LandbaseLockPool.sol\":9043:9072  IFOInfo.lastActionBalance.add */\n      tag_204\n        /* \"farms-pools/LandbaseLockPool.sol\":9043:9081  IFOInfo.lastActionBalance.add(_amount) */\n      jump\t// in\n    tag_435:\n        /* \"farms-pools/LandbaseLockPool.sol\":9015:9081  IFOInfo.lastActionBalance = IFOInfo.lastActionBalance.add(_amount) */\n      dup3\n      sstore\n        /* \"farms-pools/LandbaseLockPool.sol\":8826:9093  if (_action == IFOActions.Withdraw){\r... */\n    tag_434:\n        /* \"farms-pools/LandbaseLockPool.sol\":9109:9130  _isValidActionBlock() */\n      tag_436\n        /* \"farms-pools/LandbaseLockPool.sol\":9109:9128  _isValidActionBlock */\n      tag_437\n        /* \"farms-pools/LandbaseLockPool.sol\":9109:9130  _isValidActionBlock() */\n      jump\t// in\n    tag_436:\n        /* \"farms-pools/LandbaseLockPool.sol\":9105:9278  if (_isValidActionBlock()) {\r... */\n      iszero\n      tag_438\n      jumpi\n        /* \"farms-pools/LandbaseLockPool.sol\":9181:9206  IFOInfo.lastActionBalance */\n      dup2\n      sload\n        /* \"farms-pools/LandbaseLockPool.sol\":9148:9178  IFOInfo.lastValidActionBalance */\n      0x01\n      dup4\n      add\n        /* \"farms-pools/LandbaseLockPool.sol\":9148:9206  IFOInfo.lastValidActionBalance = IFOInfo.lastActionBalance */\n      sstore\n        /* \"farms-pools/LandbaseLockPool.sol\":9254:9266  block.number */\n      number\n        /* \"farms-pools/LandbaseLockPool.sol\":9222:9250  IFOInfo.lastValidActionBlock */\n      0x03\n      dup4\n      add\n        /* \"farms-pools/LandbaseLockPool.sol\":9222:9266  IFOInfo.lastValidActionBlock =  block.number */\n      sstore\n        /* \"farms-pools/LandbaseLockPool.sol\":9105:9278  if (_isValidActionBlock()) {\r... */\n    tag_438:\n        /* \"farms-pools/LandbaseLockPool.sol\":9298:9320  IFOInfo.lastAvgBalance */\n      0x04\n      dup3\n      add\n        /* \"farms-pools/LandbaseLockPool.sol\":9298:9333  IFOInfo.lastAvgBalance = avgBalance */\n      dup2\n      swap1\n      sstore\n        /* \"farms-pools/LandbaseLockPool.sol\":9370:9382  block.number */\n      number\n        /* \"farms-pools/LandbaseLockPool.sol\":9344:9367  IFOInfo.lastActionBlock */\n      0x02\n      dup4\n      add\n        /* \"farms-pools/LandbaseLockPool.sol\":9344:9382  IFOInfo.lastActionBlock = block.number */\n      dup2\n      swap1\n      sstore\n        /* \"farms-pools/LandbaseLockPool.sol\":9448:9473  IFOInfo.lastActionBalance */\n      dup3\n      sload\n        /* \"farms-pools/LandbaseLockPool.sol\":9475:9505  IFOInfo.lastValidActionBalance */\n      0x01\n      dup5\n      add\n      sload\n        /* \"farms-pools/LandbaseLockPool.sol\":9532:9560  IFOInfo.lastValidActionBlock */\n      0x03\n      dup6\n      add\n      sload\n        /* \"farms-pools/LandbaseLockPool.sol\":9398:9561  UpdateUserIFO(msg.sender, IFOInfo.lastAvgBalance, IFOInfo.lastActionBalance, IFOInfo.lastValidActionBalance, IFOInfo.lastActionBlock, IFOInfo.lastValidActionBlock) */\n      0x40\n      dup1\n      mload\n      dup7\n      dup2\n      mstore\n      0x20\n      dup2\n      add\n      swap5\n      swap1\n      swap5\n      mstore\n      dup4\n      dup2\n      add\n      swap3\n      swap1\n      swap3\n      mstore\n      0x60\n      dup4\n      add\n      swap4\n      swap1\n      swap4\n      mstore\n      0x80\n      dup3\n      add\n      swap3\n      swap1\n      swap3\n      mstore\n      swap1\n      mload\n        /* \"farms-pools/LandbaseLockPool.sol\":9412:9422  msg.sender */\n      caller\n      swap2\n        /* \"farms-pools/LandbaseLockPool.sol\":9398:9561  UpdateUserIFO(msg.sender, IFOInfo.lastAvgBalance, IFOInfo.lastActionBalance, IFOInfo.lastValidActionBalance, IFOInfo.lastActionBlock, IFOInfo.lastValidActionBlock) */\n      0x6a9632041d5ad6a474679da2ac648103e26069c6e77dca5f3675d3fdcbe1ac17\n      swap2\n      swap1\n      dup2\n      swap1\n      sub\n      0xa0\n      add\n      swap1\n      log2\n        /* \"farms-pools/LandbaseLockPool.sol\":8446:9569  function _updateUserIFO(uint256 _amount, IFOActions _action) internal {\r... */\n      pop\n      pop\n      pop\n      pop\n      jump\t// out\n        /* \"farms-pools/utils/Pausable.sol\":2149:2269  function _unpause() internal virtual whenPaused {\r... */\n    tag_227:\n        /* \"farms-pools/utils/Pausable.sol\":1693:1701  paused() */\n      tag_440\n        /* \"farms-pools/utils/Pausable.sol\":1693:1699  paused */\n      tag_93\n        /* \"farms-pools/utils/Pausable.sol\":1693:1701  paused() */\n      jump\t// in\n    tag_440:\n        /* \"farms-pools/utils/Pausable.sol\":1685:1726  require(paused(), \"Pausable: not paused\") */\n      tag_441\n      jumpi\n      0x40\n      dup1\n      mload\n      shl(0xe5, 0x461bcd)\n      dup2\n      mstore\n      0x20\n      0x04\n      dup3\n      add\n      mstore\n      0x14\n      0x24\n      dup3\n      add\n      mstore\n      shl(0x62, 0x14185d5cd8589b194e881b9bdd081c185d5cd959)\n      0x44\n      dup3\n      add\n      mstore\n      swap1\n      mload\n      swap1\n      dup2\n      swap1\n      sub\n      0x64\n      add\n      swap1\n      revert\n    tag_441:\n        /* \"farms-pools/utils/Pausable.sol\":2218:2223  false */\n      0x00\n        /* \"farms-pools/utils/Pausable.sol\":2208:2223  _paused = false */\n      dup1\n      sload\n      not(shl(0xa0, 0xff))\n      and\n      swap1\n      sstore\n        /* \"farms-pools/utils/Pausable.sol\":2239:2261  Unpaused(_msgSender()) */\n      0x5db9ee0a495bf2e6ff9c91a7834c1ba4fdd244a5e8aa4e537bd38aeae4b073aa\n        /* \"farms-pools/utils/Pausable.sol\":2248:2260  _msgSender() */\n      tag_443\n        /* \"farms-pools/utils/Pausable.sol\":2248:2258  _msgSender */\n      tag_265\n        /* \"farms-pools/utils/Pausable.sol\":2248:2260  _msgSender() */\n      jump\t// in\n    tag_443:\n        /* \"farms-pools/utils/Pausable.sol\":2239:2261  Unpaused(_msgSender()) */\n      0x40\n      dup1\n      mload\n      sub(shl(0xa0, 0x01), 0x01)\n      swap1\n      swap3\n      and\n      dup3\n      mstore\n      mload\n      swap1\n      dup2\n      swap1\n      sub\n      0x20\n      add\n      swap1\n      log1\n        /* \"farms-pools/utils/Pausable.sol\":2149:2269  function _unpause() internal virtual whenPaused {\r... */\n      jump\t// out\n        /* \"farms-pools/LandbaseLockPool.sol\":21439:21600  function _earn() internal {\r... */\n    tag_249:\n        /* \"farms-pools/LandbaseLockPool.sol\":21476:21487  uint256 bal */\n      0x00\n        /* \"farms-pools/LandbaseLockPool.sol\":21490:21501  available() */\n      tag_445\n        /* \"farms-pools/LandbaseLockPool.sol\":21490:21499  available */\n      tag_87\n        /* \"farms-pools/LandbaseLockPool.sol\":21490:21501  available() */\n      jump\t// in\n    tag_445:\n        /* \"farms-pools/LandbaseLockPool.sol\":21476:21501  uint256 bal = available() */\n      swap1\n      pop\n        /* \"farms-pools/LandbaseLockPool.sol\":21516:21523  bal > 0 */\n      dup1\n      iszero\n        /* \"farms-pools/LandbaseLockPool.sol\":21512:21593  if (bal > 0) {\r... */\n      tag_446\n      jumpi\n        /* \"farms-pools/LandbaseLockPool.sol\":21552:21562  masterchef */\n      immutable(\"0x64e604787cbf194841e7b68d7cd28786f6c9a0a3ab9f8b0a0e87cb4387ab0107\")\n      sub(shl(0xa0, 0x01), 0x01)\n        /* \"farms-pools/LandbaseLockPool.sol\":21540:21576  IMasterChef(masterchef).enterStaking */\n      and\n      0x41441d3b\n        /* \"farms-pools/LandbaseLockPool.sol\":21577:21580  bal */\n      dup3\n        /* \"farms-pools/LandbaseLockPool.sol\":21540:21581  IMasterChef(masterchef).enterStaking(bal) */\n      mload(0x40)\n      dup3\n      0xffffffff\n      and\n      0xe0\n      shl\n      dup2\n      mstore\n      0x04\n      add\n      dup1\n      dup3\n      dup2\n      mstore\n      0x20\n      add\n      swap2\n      pop\n      pop\n      0x00\n      mload(0x40)\n      dup1\n      dup4\n      sub\n      dup2\n      0x00\n      dup8\n      dup1\n      extcodesize\n      iszero\n      dup1\n      iszero\n      tag_447\n      jumpi\n      0x00\n      dup1\n      revert\n    tag_447:\n      pop\n      gas\n      call\n      iszero\n      dup1\n      iszero\n      tag_449\n      jumpi\n      returndatasize\n      0x00\n      dup1\n      returndatacopy\n      revert(0x00, returndatasize)\n    tag_449:\n      pop\n      pop\n      pop\n      pop\n        /* \"farms-pools/LandbaseLockPool.sol\":21512:21593  if (bal > 0) {\r... */\n    tag_446:\n        /* \"farms-pools/LandbaseLockPool.sol\":21439:21600  function _earn() internal {\r... */\n      pop\n      jump\t// out\n        /* \"farms-pools/utils/Context.sol\":613:719  function _msgSender() internal view virtual returns (address payable) {\r... */\n    tag_265:\n        /* \"farms-pools/utils/Context.sol\":701:711  msg.sender */\n      caller\n        /* \"farms-pools/utils/Context.sol\":613:719  function _msgSender() internal view virtual returns (address payable) {\r... */\n      swap1\n      jump\t// out\n        /* \"farms-pools/utils/Pausable.sol\":1890:2008  function _pause() internal virtual whenNotPaused {\r... */\n    tag_302:\n        /* \"farms-pools/utils/Pausable.sol\":1416:1424  paused() */\n      tag_452\n        /* \"farms-pools/utils/Pausable.sol\":1416:1422  paused */\n      tag_93\n        /* \"farms-pools/utils/Pausable.sol\":1416:1424  paused() */\n      jump\t// in\n    tag_452:\n        /* \"farms-pools/utils/Pausable.sol\":1415:1424  !paused() */\n      iszero\n        /* \"farms-pools/utils/Pausable.sol\":1407:1445  require(!paused(), \"Pausable: paused\") */\n      tag_453\n      jumpi\n      0x40\n      dup1\n      mload\n      shl(0xe5, 0x461bcd)\n      dup2\n      mstore\n      0x20\n      0x04\n      dup3\n      add\n      mstore\n      0x10\n      0x24\n      dup3\n      add\n      mstore\n      shl(0x82, 0x14185d5cd8589b194e881c185d5cd959)\n      0x44\n      dup3\n      add\n      mstore\n      swap1\n      mload\n      swap1\n      dup2\n      swap1\n      sub\n      0x64\n      add\n      swap1\n      revert\n    tag_453:\n        /* \"farms-pools/utils/Pausable.sol\":1950:1957  _paused */\n      0x00\n        /* \"farms-pools/utils/Pausable.sol\":1950:1964  _paused = true */\n      dup1\n      sload\n      not(shl(0xa0, 0xff))\n      and\n      shl(0xa0, 0x01)\n      or\n      swap1\n      sstore\n        /* \"farms-pools/utils/Pausable.sol\":1980:2000  Paused(_msgSender()) */\n      0x62e78cea01bee320cd4e420270b5ea74000d11b0c9f74754ebdbfc544b05a258\n        /* \"farms-pools/utils/Pausable.sol\":1987:1999  _msgSender() */\n      tag_443\n        /* \"farms-pools/utils/Pausable.sol\":1987:1997  _msgSender */\n      tag_265\n        /* \"farms-pools/utils/Pausable.sol\":1987:1999  _msgSender() */\n      jump\t// in\n        /* \"farms-pools/SafeERC20.sol\":907:1112  function safeTransferFrom(IERC20 token, address from, address to, uint256 value) internal {\r... */\n    tag_337:\n        /* \"farms-pools/SafeERC20.sol\":1035:1103  abi.encodeWithSelector(token.transferFrom.selector, from, to, value) */\n      0x40\n      dup1\n      mload\n      sub(shl(0xa0, 0x01), 0x01)\n      dup1\n      dup7\n      and\n      0x24\n      dup4\n      add\n      mstore\n      dup5\n      and\n      0x44\n      dup3\n      add\n      mstore\n      0x64\n      dup1\n      dup3\n      add\n      dup5\n      swap1\n      mstore\n      dup3\n      mload\n      dup1\n      dup4\n      sub\n      swap1\n      swap2\n      add\n      dup2\n      mstore\n      0x84\n      swap1\n      swap2\n      add\n      swap1\n      swap2\n      mstore\n      0x20\n      dup2\n      add\n      dup1\n      mload\n      sub(shl(0xe0, 0x01), 0x01)\n      and\n      shl(0xe0, 0x23b872dd)\n      or\n      swap1\n      mstore\n        /* \"farms-pools/SafeERC20.sol\":1008:1104  _callOptionalReturn(token, abi.encodeWithSelector(token.transferFrom.selector, from, to, value)) */\n      tag_457\n      swap1\n        /* \"farms-pools/SafeERC20.sol\":1028:1033  token */\n      dup6\n      swap1\n        /* \"farms-pools/SafeERC20.sol\":1008:1027  _callOptionalReturn */\n      tag_405\n        /* \"farms-pools/SafeERC20.sol\":1008:1104  _callOptionalReturn(token, abi.encodeWithSelector(token.transferFrom.selector, from, to, value)) */\n      jump\t// in\n    tag_457:\n        /* \"farms-pools/SafeERC20.sol\":907:1112  function safeTransferFrom(IERC20 token, address from, address to, uint256 value) internal {\r... */\n      pop\n      pop\n      pop\n      pop\n      jump\t// out\n        /* \"farms-pools/LandbaseLockPool.sol\":5954:6206  function _isIFOAvailable() internal view returns(bool) {\r... */\n    tag_352:\n        /* \"farms-pools/LandbaseLockPool.sol\":6188:6198  startBlock */\n      sload(0x03)\n        /* \"farms-pools/LandbaseLockPool.sol\":6173:6185  block.number */\n      number\n        /* \"farms-pools/LandbaseLockPool.sol\":6173:6198  block.number > startBlock */\n      gt\n        /* \"farms-pools/LandbaseLockPool.sol\":5954:6206  function _isIFOAvailable() internal view returns(bool) {\r... */\n      swap1\n      jump\t// out\n        /* \"farms-pools/LandbaseLockPool.sol\":7099:8275  function _calculateAvgBalance(uint256  _lastActionBlock, uint256  _lastValidActionBlock, uint256 _lastActionBalance, uint256  _lastValidActionBalance, uint256 _lastAvgBalance) internal view returns(uint256 avgBalance) {\r... */\n    tag_355:\n        /* \"farms-pools/LandbaseLockPool.sol\":7570:7578  endBlock */\n      sload(0x04)\n        /* \"farms-pools/LandbaseLockPool.sol\":7297:7315  uint256 avgBalance */\n      0x00\n      swap1\n        /* \"farms-pools/LandbaseLockPool.sol\":7351:7363  block.number */\n      number\n      swap1\n        /* \"farms-pools/LandbaseLockPool.sol\":7550:7578  _lastActionBlock >= endBlock */\n      dup8\n      lt\n        /* \"farms-pools/LandbaseLockPool.sol\":7546:7628  if (_lastActionBlock >= endBlock){\r... */\n      tag_460\n      jumpi\n        /* \"farms-pools/LandbaseLockPool.sol\":7601:7616  _lastAvgBalance */\n      dup3\n        /* \"farms-pools/LandbaseLockPool.sol\":7594:7616  return _lastAvgBalance */\n      swap2\n      pop\n      pop\n      jump(tag_459)\n        /* \"farms-pools/LandbaseLockPool.sol\":7546:7628  if (_lastActionBlock >= endBlock){\r... */\n    tag_460:\n        /* \"farms-pools/LandbaseLockPool.sol\":7723:7733  startBlock */\n      sload(0x03)\n        /* \"farms-pools/LandbaseLockPool.sol\":7699:7720  _lastValidActionBlock */\n      dup7\n        /* \"farms-pools/LandbaseLockPool.sol\":7699:7733  _lastValidActionBlock < startBlock */\n      lt\n        /* \"farms-pools/LandbaseLockPool.sol\":7695:7888  if (_lastValidActionBlock < startBlock){\r... */\n      iszero\n      tag_461\n      jumpi\n        /* \"farms-pools/LandbaseLockPool.sol\":7773:7783  startBlock */\n      sload(0x03)\n        /* \"farms-pools/LandbaseLockPool.sol\":7749:7783  _lastValidActionBlock = startBlock */\n      swap6\n      pop\n        /* \"farms-pools/LandbaseLockPool.sol\":7816:7817  0 */\n      0x00\n        /* \"farms-pools/LandbaseLockPool.sol\":7798:7817  _lastAvgBalance = 0 */\n      swap3\n      pop\n        /* \"farms-pools/LandbaseLockPool.sol\":7858:7876  _lastActionBalance */\n      dup5\n        /* \"farms-pools/LandbaseLockPool.sol\":7832:7876  _lastValidActionBalance = _lastActionBalance */\n      swap4\n      pop\n        /* \"farms-pools/LandbaseLockPool.sol\":7695:7888  if (_lastValidActionBlock < startBlock){\r... */\n    tag_461:\n        /* \"farms-pools/LandbaseLockPool.sol\":7930:7938  endBlock */\n      sload(0x04)\n        /* \"farms-pools/LandbaseLockPool.sol\":7915:7927  currentBlock */\n      dup2\n        /* \"farms-pools/LandbaseLockPool.sol\":7915:7938  currentBlock < endBlock */\n      lt\n        /* \"farms-pools/LandbaseLockPool.sol\":7915:7965  currentBlock < endBlock ?  currentBlock : endBlock */\n      tag_462\n      jumpi\n        /* \"farms-pools/LandbaseLockPool.sol\":7957:7965  endBlock */\n      sload(0x04)\n        /* \"farms-pools/LandbaseLockPool.sol\":7915:7965  currentBlock < endBlock ?  currentBlock : endBlock */\n      jump(tag_463)\n    tag_462:\n        /* \"farms-pools/LandbaseLockPool.sol\":7942:7954  currentBlock */\n      dup1\n        /* \"farms-pools/LandbaseLockPool.sol\":7915:7965  currentBlock < endBlock ?  currentBlock : endBlock */\n    tag_463:\n        /* \"farms-pools/LandbaseLockPool.sol\":7900:7965  currentBlock = currentBlock < endBlock ?  currentBlock : endBlock */\n      swap1\n      pop\n        /* \"farms-pools/LandbaseLockPool.sol\":7978:8000  uint256 lastContribute */\n      0x00\n        /* \"farms-pools/LandbaseLockPool.sol\":8004:8062  _lastAvgBalance.mul(_lastValidActionBlock.sub(startBlock)) */\n      tag_464\n        /* \"farms-pools/LandbaseLockPool.sol\":8024:8061  _lastValidActionBlock.sub(startBlock) */\n      tag_465\n        /* \"farms-pools/LandbaseLockPool.sol\":8050:8060  startBlock */\n      sload(0x03)\n        /* \"farms-pools/LandbaseLockPool.sol\":8024:8045  _lastValidActionBlock */\n      dup10\n        /* \"farms-pools/LandbaseLockPool.sol\":8024:8049  _lastValidActionBlock.sub */\n      tag_192\n      swap1\n        /* \"farms-pools/LandbaseLockPool.sol\":8024:8061  _lastValidActionBlock.sub(startBlock) */\n      swap2\n      swap1\n      0xffffffff\n      and\n      jump\t// in\n    tag_465:\n        /* \"farms-pools/LandbaseLockPool.sol\":8004:8019  _lastAvgBalance */\n      dup6\n      swap1\n        /* \"farms-pools/LandbaseLockPool.sol\":8004:8023  _lastAvgBalance.mul */\n      tag_189\n        /* \"farms-pools/LandbaseLockPool.sol\":8004:8062  _lastAvgBalance.mul(_lastValidActionBlock.sub(startBlock)) */\n      jump\t// in\n    tag_464:\n        /* \"farms-pools/LandbaseLockPool.sol\":7978:8062  uint256 lastContribute  = _lastAvgBalance.mul(_lastValidActionBlock.sub(startBlock)) */\n      swap1\n      pop\n        /* \"farms-pools/LandbaseLockPool.sol\":8073:8098  uint256 currentContribute */\n      0x00\n        /* \"farms-pools/LandbaseLockPool.sol\":8102:8170  _lastValidActionBalance.mul(currentBlock.sub(_lastValidActionBlock)) */\n      tag_466\n        /* \"farms-pools/LandbaseLockPool.sol\":8130:8169  currentBlock.sub(_lastValidActionBlock) */\n      tag_467\n        /* \"farms-pools/LandbaseLockPool.sol\":8130:8142  currentBlock */\n      dup5\n        /* \"farms-pools/LandbaseLockPool.sol\":8147:8168  _lastValidActionBlock */\n      dup11\n        /* \"farms-pools/LandbaseLockPool.sol\":8130:8146  currentBlock.sub */\n      tag_192\n        /* \"farms-pools/LandbaseLockPool.sol\":8130:8169  currentBlock.sub(_lastValidActionBlock) */\n      jump\t// in\n    tag_467:\n        /* \"farms-pools/LandbaseLockPool.sol\":8102:8125  _lastValidActionBalance */\n      dup8\n      swap1\n        /* \"farms-pools/LandbaseLockPool.sol\":8102:8129  _lastValidActionBalance.mul */\n      tag_189\n        /* \"farms-pools/LandbaseLockPool.sol\":8102:8170  _lastValidActionBalance.mul(currentBlock.sub(_lastValidActionBlock)) */\n      jump\t// in\n    tag_466:\n        /* \"farms-pools/LandbaseLockPool.sol\":8073:8170  uint256 currentContribute  = _lastValidActionBalance.mul(currentBlock.sub(_lastValidActionBlock)) */\n      swap1\n      pop\n        /* \"farms-pools/LandbaseLockPool.sol\":8194:8267  (lastContribute.add(currentContribute)).div(currentBlock.sub(startBlock)) */\n      tag_468\n        /* \"farms-pools/LandbaseLockPool.sol\":8238:8266  currentBlock.sub(startBlock) */\n      tag_469\n        /* \"farms-pools/LandbaseLockPool.sol\":8255:8265  startBlock */\n      sload(0x03)\n        /* \"farms-pools/LandbaseLockPool.sol\":8238:8250  currentBlock */\n      dup6\n        /* \"farms-pools/LandbaseLockPool.sol\":8238:8254  currentBlock.sub */\n      tag_192\n      swap1\n        /* \"farms-pools/LandbaseLockPool.sol\":8238:8266  currentBlock.sub(startBlock) */\n      swap2\n      swap1\n      0xffffffff\n      and\n      jump\t// in\n    tag_469:\n        /* \"farms-pools/LandbaseLockPool.sol\":8195:8232  lastContribute.add(currentContribute) */\n      tag_187\n        /* \"farms-pools/LandbaseLockPool.sol\":8195:8209  lastContribute */\n      dup5\n        /* \"farms-pools/LandbaseLockPool.sol\":8214:8231  currentContribute */\n      dup5\n        /* \"farms-pools/LandbaseLockPool.sol\":8195:8213  lastContribute.add */\n      tag_204\n        /* \"farms-pools/LandbaseLockPool.sol\":8195:8232  lastContribute.add(currentContribute) */\n      jump\t// in\n        /* \"farms-pools/LandbaseLockPool.sol\":8194:8267  (lastContribute.add(currentContribute)).div(currentBlock.sub(startBlock)) */\n    tag_468:\n        /* \"farms-pools/LandbaseLockPool.sol\":8181:8267  avgBalance = (lastContribute.add(currentContribute)).div(currentBlock.sub(startBlock)) */\n      swap4\n      pop\n        /* \"farms-pools/LandbaseLockPool.sol\":7099:8275  function _calculateAvgBalance(uint256  _lastActionBlock, uint256  _lastValidActionBlock, uint256 _lastActionBalance, uint256  _lastValidActionBalance, uint256 _lastAvgBalance) internal view returns(uint256 avgBalance) {\r... */\n      pop\n      pop\n      pop\n    tag_459:\n      swap6\n      swap5\n      pop\n      pop\n      pop\n      pop\n      pop\n      jump\t// out\n        /* \"farms-pools/LandbaseLockPool.sol\":10664:11037  function _zeroFreeIFO() internal {\r... */\n    tag_372:\n        /* \"farms-pools/LandbaseLockPool.sol\":10750:10760  msg.sender */\n      caller\n        /* \"farms-pools/LandbaseLockPool.sol\":10708:10735  UserIFOInfo storage IFOInfo */\n      0x00\n        /* \"farms-pools/LandbaseLockPool.sol\":10738:10761  userIFOInfo[msg.sender] */\n      dup2\n      dup2\n      mstore\n        /* \"farms-pools/LandbaseLockPool.sol\":10738:10749  userIFOInfo */\n      0x02\n        /* \"farms-pools/LandbaseLockPool.sol\":10738:10761  userIFOInfo[msg.sender] */\n      0x20\n      dup2\n      dup2\n      mstore\n      0x40\n      dup1\n      dup5\n      keccak256\n        /* \"farms-pools/LandbaseLockPool.sol\":10774:10803  IFOInfo.lastActionBalance = 0 */\n      dup5\n      dup2\n      sstore\n        /* \"farms-pools/LandbaseLockPool.sol\":10814:10844  IFOInfo.lastValidActionBalance */\n      0x01\n      dup2\n      add\n        /* \"farms-pools/LandbaseLockPool.sol\":10814:10848  IFOInfo.lastValidActionBalance = 0 */\n      dup6\n      swap1\n      sstore\n        /* \"farms-pools/LandbaseLockPool.sol\":10859:10882  IFOInfo.lastActionBlock */\n      swap3\n      dup4\n      add\n        /* \"farms-pools/LandbaseLockPool.sol\":10859:10886  IFOInfo.lastActionBlock = 0 */\n      dup5\n      swap1\n      sstore\n        /* \"farms-pools/LandbaseLockPool.sol\":10897:10925  IFOInfo.lastValidActionBlock */\n      0x03\n      dup4\n      add\n        /* \"farms-pools/LandbaseLockPool.sol\":10897:10929  IFOInfo.lastValidActionBlock = 0 */\n      dup5\n      swap1\n      sstore\n        /* \"farms-pools/LandbaseLockPool.sol\":10940:10962  IFOInfo.lastAvgBalance */\n      0x04\n      dup4\n      add\n        /* \"farms-pools/LandbaseLockPool.sol\":10940:10966  IFOInfo.lastAvgBalance = 0 */\n      swap4\n      swap1\n      swap4\n      sstore\n        /* \"farms-pools/LandbaseLockPool.sol\":10992:11029  ZeroFreeIFO(msg.sender, block.number) */\n      dup3\n      mload\n        /* \"farms-pools/LandbaseLockPool.sol\":11016:11028  block.number */\n      number\n        /* \"farms-pools/LandbaseLockPool.sol\":10992:11029  ZeroFreeIFO(msg.sender, block.number) */\n      dup2\n      mstore\n      swap3\n      mload\n        /* \"farms-pools/LandbaseLockPool.sol\":10738:10761  userIFOInfo[msg.sender] */\n      swap2\n      swap4\n        /* \"farms-pools/LandbaseLockPool.sol\":10750:10760  msg.sender */\n      swap3\n        /* \"farms-pools/LandbaseLockPool.sol\":10992:11029  ZeroFreeIFO(msg.sender, block.number) */\n      0x6f66ff41198a141a4e315cd2ff387f32686a6d469da7496ffee40eaf05e4a411\n      swap3\n      swap1\n      dup2\n      swap1\n      sub\n      swap1\n      swap2\n      add\n      swap1\n      log2\n        /* \"farms-pools/LandbaseLockPool.sol\":10664:11037  function _zeroFreeIFO() internal {\r... */\n      pop\n      jump\t// out\n        /* \"farms-pools/LandbaseLockPool.sol\":13109:14607  function withdrawV1(uint256 _shares) internal {\r... */\n    tag_374:\n        /* \"farms-pools/LandbaseLockPool.sol\":13199:13209  msg.sender */\n      caller\n        /* \"farms-pools/LandbaseLockPool.sol\":13166:13187  UserInfo storage user */\n      0x00\n        /* \"farms-pools/LandbaseLockPool.sol\":13190:13210  userInfo[msg.sender] */\n      swap1\n      dup2\n      mstore\n        /* \"farms-pools/LandbaseLockPool.sol\":13190:13198  userInfo */\n      0x01\n        /* \"farms-pools/LandbaseLockPool.sol\":13190:13210  userInfo[msg.sender] */\n      0x20\n      mstore\n      0x40\n      swap1\n      keccak256\n        /* \"farms-pools/LandbaseLockPool.sol\":13229:13240  _shares > 0 */\n      dup2\n        /* \"farms-pools/LandbaseLockPool.sol\":13221:13264  require(_shares > 0, \"Nothing to withdraw\") */\n      tag_473\n      jumpi\n      0x40\n      dup1\n      mload\n      shl(0xe5, 0x461bcd)\n      dup2\n      mstore\n      0x20\n      0x04\n      dup3\n      add\n      mstore\n      0x13\n      0x24\n      dup3\n      add\n      mstore\n      shl(0x68, 0x4e6f7468696e6720746f207769746864726177)\n      0x44\n      dup3\n      add\n      mstore\n      swap1\n      mload\n      swap1\n      dup2\n      swap1\n      sub\n      0x64\n      add\n      swap1\n      revert\n    tag_473:\n        /* \"farms-pools/LandbaseLockPool.sol\":13294:13305  user.shares */\n      dup1\n      sload\n        /* \"farms-pools/LandbaseLockPool.sol\":13283:13305  _shares <= user.shares */\n      dup3\n      gt\n      iszero\n        /* \"farms-pools/LandbaseLockPool.sol\":13275:13341  require(_shares <= user.shares, \"Withdraw amount exceeds balance\") */\n      tag_474\n      jumpi\n      0x40\n      dup1\n      mload\n      shl(0xe5, 0x461bcd)\n      dup2\n      mstore\n      0x20\n      0x04\n      dup3\n      add\n      mstore\n      0x1f\n      0x24\n      dup3\n      add\n      mstore\n      0x576974686472617720616d6f756e7420657863656564732062616c616e636500\n      0x44\n      dup3\n      add\n      mstore\n      swap1\n      mload\n      swap1\n      dup2\n      swap1\n      sub\n      0x64\n      add\n      swap1\n      revert\n    tag_474:\n        /* \"farms-pools/LandbaseLockPool.sol\":13354:13375  uint256 currentAmount */\n      0x00\n        /* \"farms-pools/LandbaseLockPool.sol\":13378:13421  (balanceOf().mul(_shares)).div(totalShares) */\n      tag_475\n        /* \"farms-pools/LandbaseLockPool.sol\":13409:13420  totalShares */\n      sload(0x05)\n        /* \"farms-pools/LandbaseLockPool.sol\":13379:13403  balanceOf().mul(_shares) */\n      tag_187\n        /* \"farms-pools/LandbaseLockPool.sol\":13395:13402  _shares */\n      dup6\n        /* \"farms-pools/LandbaseLockPool.sol\":13379:13390  balanceOf() */\n      tag_188\n        /* \"farms-pools/LandbaseLockPool.sol\":13379:13388  balanceOf */\n      tag_105\n        /* \"farms-pools/LandbaseLockPool.sol\":13379:13390  balanceOf() */\n      jump\t// in\n        /* \"farms-pools/LandbaseLockPool.sol\":13378:13421  (balanceOf().mul(_shares)).div(totalShares) */\n    tag_475:\n        /* \"farms-pools/LandbaseLockPool.sol\":13446:13457  user.shares */\n      dup3\n      sload\n        /* \"farms-pools/LandbaseLockPool.sol\":13354:13421  uint256 currentAmount = (balanceOf().mul(_shares)).div(totalShares) */\n      swap1\n      swap2\n      pop\n        /* \"farms-pools/LandbaseLockPool.sol\":13446:13470  user.shares.sub(_shares) */\n      tag_478\n      swap1\n        /* \"farms-pools/LandbaseLockPool.sol\":13462:13469  _shares */\n      dup5\n        /* \"farms-pools/LandbaseLockPool.sol\":13446:13461  user.shares.sub */\n      tag_192\n        /* \"farms-pools/LandbaseLockPool.sol\":13446:13470  user.shares.sub(_shares) */\n      jump\t// in\n    tag_478:\n        /* \"farms-pools/LandbaseLockPool.sol\":13432:13470  user.shares = user.shares.sub(_shares) */\n      dup3\n      sstore\n        /* \"farms-pools/LandbaseLockPool.sol\":13495:13506  totalShares */\n      sload(0x05)\n        /* \"farms-pools/LandbaseLockPool.sol\":13495:13519  totalShares.sub(_shares) */\n      tag_479\n      swap1\n        /* \"farms-pools/LandbaseLockPool.sol\":13511:13518  _shares */\n      dup5\n        /* \"farms-pools/LandbaseLockPool.sol\":13495:13510  totalShares.sub */\n      tag_192\n        /* \"farms-pools/LandbaseLockPool.sol\":13495:13519  totalShares.sub(_shares) */\n      jump\t// in\n    tag_479:\n        /* \"farms-pools/LandbaseLockPool.sol\":13481:13492  totalShares */\n      0x05\n        /* \"farms-pools/LandbaseLockPool.sol\":13481:13519  totalShares = totalShares.sub(_shares) */\n      sstore\n        /* \"farms-pools/LandbaseLockPool.sol\":13532:13543  uint256 bal */\n      0x00\n        /* \"farms-pools/LandbaseLockPool.sol\":13546:13557  available() */\n      tag_480\n        /* \"farms-pools/LandbaseLockPool.sol\":13546:13555  available */\n      tag_87\n        /* \"farms-pools/LandbaseLockPool.sol\":13546:13557  available() */\n      jump\t// in\n    tag_480:\n        /* \"farms-pools/LandbaseLockPool.sol\":13532:13557  uint256 bal = available() */\n      swap1\n      pop\n        /* \"farms-pools/LandbaseLockPool.sol\":13578:13591  currentAmount */\n      dup2\n        /* \"farms-pools/LandbaseLockPool.sol\":13572:13575  bal */\n      dup2\n        /* \"farms-pools/LandbaseLockPool.sol\":13572:13591  bal < currentAmount */\n      lt\n        /* \"farms-pools/LandbaseLockPool.sol\":13568:13922  if (bal < currentAmount) {\r... */\n      iszero\n      tag_481\n      jumpi\n        /* \"farms-pools/LandbaseLockPool.sol\":13608:13627  uint256 balWithdraw */\n      0x00\n        /* \"farms-pools/LandbaseLockPool.sol\":13630:13652  currentAmount.sub(bal) */\n      tag_482\n        /* \"farms-pools/LandbaseLockPool.sol\":13630:13643  currentAmount */\n      dup4\n        /* \"farms-pools/LandbaseLockPool.sol\":13648:13651  bal */\n      dup4\n        /* \"farms-pools/LandbaseLockPool.sol\":13630:13647  currentAmount.sub */\n      tag_192\n        /* \"farms-pools/LandbaseLockPool.sol\":13630:13652  currentAmount.sub(bal) */\n      jump\t// in\n    tag_482:\n        /* \"farms-pools/LandbaseLockPool.sol\":13608:13652  uint256 balWithdraw = currentAmount.sub(bal) */\n      swap1\n      pop\n        /* \"farms-pools/LandbaseLockPool.sol\":13679:13689  masterchef */\n      immutable(\"0x64e604787cbf194841e7b68d7cd28786f6c9a0a3ab9f8b0a0e87cb4387ab0107\")\n      sub(shl(0xa0, 0x01), 0x01)\n        /* \"farms-pools/LandbaseLockPool.sol\":13667:13703  IMasterChef(masterchef).leaveStaking */\n      and\n      0x1058d281\n        /* \"farms-pools/LandbaseLockPool.sol\":13704:13715  balWithdraw */\n      dup3\n        /* \"farms-pools/LandbaseLockPool.sol\":13667:13716  IMasterChef(masterchef).leaveStaking(balWithdraw) */\n      mload(0x40)\n      dup3\n      0xffffffff\n      and\n      0xe0\n      shl\n      dup2\n      mstore\n      0x04\n      add\n      dup1\n      dup3\n      dup2\n      mstore\n      0x20\n      add\n      swap2\n      pop\n      pop\n      0x00\n      mload(0x40)\n      dup1\n      dup4\n      sub\n      dup2\n      0x00\n      dup8\n      dup1\n      extcodesize\n      iszero\n      dup1\n      iszero\n      tag_483\n      jumpi\n      0x00\n      dup1\n      revert\n    tag_483:\n      pop\n      gas\n      call\n      iszero\n      dup1\n      iszero\n      tag_485\n      jumpi\n      returndatasize\n      0x00\n      dup1\n      returndatacopy\n      revert(0x00, returndatasize)\n    tag_485:\n      pop\n      pop\n      pop\n      pop\n        /* \"farms-pools/LandbaseLockPool.sol\":13731:13747  uint256 balAfter */\n      0x00\n        /* \"farms-pools/LandbaseLockPool.sol\":13750:13761  available() */\n      tag_486\n        /* \"farms-pools/LandbaseLockPool.sol\":13750:13759  available */\n      tag_87\n        /* \"farms-pools/LandbaseLockPool.sol\":13750:13761  available() */\n      jump\t// in\n    tag_486:\n        /* \"farms-pools/LandbaseLockPool.sol\":13731:13761  uint256 balAfter = available() */\n      swap1\n      pop\n        /* \"farms-pools/LandbaseLockPool.sol\":13776:13788  uint256 diff */\n      0x00\n        /* \"farms-pools/LandbaseLockPool.sol\":13791:13808  balAfter.sub(bal) */\n      tag_487\n        /* \"farms-pools/LandbaseLockPool.sol\":13731:13761  uint256 balAfter = available() */\n      dup3\n        /* \"farms-pools/LandbaseLockPool.sol\":13804:13807  bal */\n      dup6\n        /* \"farms-pools/LandbaseLockPool.sol\":13791:13803  balAfter.sub */\n      tag_192\n        /* \"farms-pools/LandbaseLockPool.sol\":13791:13808  balAfter.sub(bal) */\n      jump\t// in\n    tag_487:\n        /* \"farms-pools/LandbaseLockPool.sol\":13776:13808  uint256 diff = balAfter.sub(bal) */\n      swap1\n      pop\n        /* \"farms-pools/LandbaseLockPool.sol\":13834:13845  balWithdraw */\n      dup3\n        /* \"farms-pools/LandbaseLockPool.sol\":13827:13831  diff */\n      dup2\n        /* \"farms-pools/LandbaseLockPool.sol\":13827:13845  diff < balWithdraw */\n      lt\n        /* \"farms-pools/LandbaseLockPool.sol\":13823:13911  if (diff < balWithdraw) {\r... */\n      iszero\n      tag_488\n      jumpi\n        /* \"farms-pools/LandbaseLockPool.sol\":13882:13895  bal.add(diff) */\n      tag_489\n        /* \"farms-pools/LandbaseLockPool.sol\":13882:13885  bal */\n      dup5\n        /* \"farms-pools/LandbaseLockPool.sol\":13890:13894  diff */\n      dup3\n        /* \"farms-pools/LandbaseLockPool.sol\":13882:13889  bal.add */\n      tag_204\n        /* \"farms-pools/LandbaseLockPool.sol\":13882:13895  bal.add(diff) */\n      jump\t// in\n    tag_489:\n        /* \"farms-pools/LandbaseLockPool.sol\":13866:13895  currentAmount = bal.add(diff) */\n      swap5\n      pop\n        /* \"farms-pools/LandbaseLockPool.sol\":13823:13911  if (diff < balWithdraw) {\r... */\n    tag_488:\n        /* \"farms-pools/LandbaseLockPool.sol\":13568:13922  if (bal < currentAmount) {\r... */\n      pop\n      pop\n      pop\n    tag_481:\n        /* \"farms-pools/LandbaseLockPool.sol\":13983:14000  withdrawFeePeriod */\n      sload(0x0c)\n        /* \"farms-pools/LandbaseLockPool.sol\":13956:13978  user.lastDepositedTime */\n      0x01\n      dup5\n      add\n      sload\n        /* \"farms-pools/LandbaseLockPool.sol\":13956:14001  user.lastDepositedTime.add(withdrawFeePeriod) */\n      tag_490\n      swap2\n        /* \"farms-pools/LandbaseLockPool.sol\":13956:13982  user.lastDepositedTime.add */\n      tag_204\n        /* \"farms-pools/LandbaseLockPool.sol\":13956:14001  user.lastDepositedTime.add(withdrawFeePeriod) */\n      jump\t// in\n    tag_490:\n        /* \"farms-pools/LandbaseLockPool.sol\":13938:13953  block.timestamp */\n      timestamp\n        /* \"farms-pools/LandbaseLockPool.sol\":13938:14001  block.timestamp < user.lastDepositedTime.add(withdrawFeePeriod) */\n      lt\n        /* \"farms-pools/LandbaseLockPool.sol\":13934:14231  if (block.timestamp < user.lastDepositedTime.add(withdrawFeePeriod)) {\r... */\n      iszero\n      tag_491\n      jumpi\n        /* \"farms-pools/LandbaseLockPool.sol\":14018:14044  uint256 currentWithdrawFee */\n      0x00\n        /* \"farms-pools/LandbaseLockPool.sol\":14047:14088  currentAmount.mul(withdrawFee).div(10000) */\n      tag_492\n        /* \"farms-pools/LandbaseLockPool.sol\":14082:14087  10000 */\n      0x2710\n        /* \"farms-pools/LandbaseLockPool.sol\":14047:14077  currentAmount.mul(withdrawFee) */\n      tag_187\n        /* \"farms-pools/LandbaseLockPool.sol\":14065:14076  withdrawFee */\n      sload(0x0b)\n        /* \"farms-pools/LandbaseLockPool.sol\":14047:14060  currentAmount */\n      dup7\n        /* \"farms-pools/LandbaseLockPool.sol\":14047:14064  currentAmount.mul */\n      tag_189\n      swap1\n        /* \"farms-pools/LandbaseLockPool.sol\":14047:14077  currentAmount.mul(withdrawFee) */\n      swap2\n      swap1\n      0xffffffff\n      and\n      jump\t// in\n        /* \"farms-pools/LandbaseLockPool.sol\":14047:14088  currentAmount.mul(withdrawFee).div(10000) */\n    tag_492:\n        /* \"farms-pools/LandbaseLockPool.sol\":14122:14130  treasury */\n      sload(0x08)\n        /* \"farms-pools/LandbaseLockPool.sol\":14018:14088  uint256 currentWithdrawFee = currentAmount.mul(withdrawFee).div(10000) */\n      swap1\n      swap2\n      pop\n        /* \"farms-pools/LandbaseLockPool.sol\":14103:14151  token.safeTransfer(treasury, currentWithdrawFee) */\n      tag_494\n      swap1\n      sub(shl(0xa0, 0x01), 0x01)\n        /* \"farms-pools/LandbaseLockPool.sol\":14103:14108  token */\n      immutable(\"0x7ae9fd093408c444e1cd944d183f5410919486c93305c223a5a94b5e79d77d3b\")\n        /* \"farms-pools/LandbaseLockPool.sol\":14103:14121  token.safeTransfer */\n      dup2\n      and\n      swap2\n        /* \"farms-pools/LandbaseLockPool.sol\":14122:14130  treasury */\n      and\n        /* \"farms-pools/LandbaseLockPool.sol\":14018:14088  uint256 currentWithdrawFee = currentAmount.mul(withdrawFee).div(10000) */\n      dup4\n        /* \"farms-pools/LandbaseLockPool.sol\":14103:14121  token.safeTransfer */\n      tag_210\n        /* \"farms-pools/LandbaseLockPool.sol\":14103:14151  token.safeTransfer(treasury, currentWithdrawFee) */\n      jump\t// in\n    tag_494:\n        /* \"farms-pools/LandbaseLockPool.sol\":14182:14219  currentAmount.sub(currentWithdrawFee) */\n      tag_495\n        /* \"farms-pools/LandbaseLockPool.sol\":14182:14195  currentAmount */\n      dup4\n        /* \"farms-pools/LandbaseLockPool.sol\":14200:14218  currentWithdrawFee */\n      dup3\n        /* \"farms-pools/LandbaseLockPool.sol\":14182:14199  currentAmount.sub */\n      tag_192\n        /* \"farms-pools/LandbaseLockPool.sol\":14182:14219  currentAmount.sub(currentWithdrawFee) */\n      jump\t// in\n    tag_495:\n        /* \"farms-pools/LandbaseLockPool.sol\":14166:14219  currentAmount = currentAmount.sub(currentWithdrawFee) */\n      swap3\n      pop\n        /* \"farms-pools/LandbaseLockPool.sol\":13934:14231  if (block.timestamp < user.lastDepositedTime.add(withdrawFeePeriod)) {\r... */\n      pop\n    tag_491:\n        /* \"farms-pools/LandbaseLockPool.sol\":14247:14258  user.shares */\n      dup3\n      sload\n        /* \"farms-pools/LandbaseLockPool.sol\":14247:14262  user.shares > 0 */\n      iszero\n        /* \"farms-pools/LandbaseLockPool.sol\":14243:14426  if (user.shares > 0) {\r... */\n      tag_496\n      jumpi\n        /* \"farms-pools/LandbaseLockPool.sol\":14307:14352  user.shares.mul(balanceOf()).div(totalShares) */\n      tag_497\n        /* \"farms-pools/LandbaseLockPool.sol\":14340:14351  totalShares */\n      sload(0x05)\n        /* \"farms-pools/LandbaseLockPool.sol\":14307:14335  user.shares.mul(balanceOf()) */\n      tag_187\n        /* \"farms-pools/LandbaseLockPool.sol\":14323:14334  balanceOf() */\n      tag_499\n        /* \"farms-pools/LandbaseLockPool.sol\":14323:14332  balanceOf */\n      tag_105\n        /* \"farms-pools/LandbaseLockPool.sol\":14323:14334  balanceOf() */\n      jump\t// in\n    tag_499:\n        /* \"farms-pools/LandbaseLockPool.sol\":14307:14318  user.shares */\n      dup7\n      sload\n      swap1\n        /* \"farms-pools/LandbaseLockPool.sol\":14307:14322  user.shares.mul */\n      tag_189\n        /* \"farms-pools/LandbaseLockPool.sol\":14307:14335  user.shares.mul(balanceOf()) */\n      jump\t// in\n        /* \"farms-pools/LandbaseLockPool.sol\":14307:14352  user.shares.mul(balanceOf()).div(totalShares) */\n    tag_497:\n        /* \"farms-pools/LandbaseLockPool.sol\":14279:14304  user.cakeAtLastUserAction */\n      0x02\n      dup5\n      add\n        /* \"farms-pools/LandbaseLockPool.sol\":14279:14352  user.cakeAtLastUserAction = user.shares.mul(balanceOf()).div(totalShares) */\n      sstore\n        /* \"farms-pools/LandbaseLockPool.sol\":14243:14426  if (user.shares > 0) {\r... */\n      jump(tag_500)\n    tag_496:\n        /* \"farms-pools/LandbaseLockPool.sol\":14413:14414  0 */\n      0x00\n        /* \"farms-pools/LandbaseLockPool.sol\":14385:14410  user.cakeAtLastUserAction */\n      0x02\n      dup5\n      add\n        /* \"farms-pools/LandbaseLockPool.sol\":14385:14414  user.cakeAtLastUserAction = 0 */\n      sstore\n        /* \"farms-pools/LandbaseLockPool.sol\":14243:14426  if (user.shares > 0) {\r... */\n    tag_500:\n        /* \"farms-pools/LandbaseLockPool.sol\":14464:14479  block.timestamp */\n      timestamp\n        /* \"farms-pools/LandbaseLockPool.sol\":14438:14461  user.lastUserActionTime */\n      0x03\n      dup5\n      add\n        /* \"farms-pools/LandbaseLockPool.sol\":14438:14479  user.lastUserActionTime = block.timestamp */\n      sstore\n        /* \"farms-pools/LandbaseLockPool.sol\":14492:14537  token.safeTransfer(msg.sender, currentAmount) */\n      tag_501\n      sub(shl(0xa0, 0x01), 0x01)\n        /* \"farms-pools/LandbaseLockPool.sol\":14492:14497  token */\n      immutable(\"0x7ae9fd093408c444e1cd944d183f5410919486c93305c223a5a94b5e79d77d3b\")\n        /* \"farms-pools/LandbaseLockPool.sol\":14492:14510  token.safeTransfer */\n      and\n        /* \"farms-pools/LandbaseLockPool.sol\":14511:14521  msg.sender */\n      caller\n        /* \"farms-pools/LandbaseLockPool.sol\":14523:14536  currentAmount */\n      dup5\n        /* \"farms-pools/LandbaseLockPool.sol\":14492:14510  token.safeTransfer */\n      tag_210\n        /* \"farms-pools/LandbaseLockPool.sol\":14492:14537  token.safeTransfer(msg.sender, currentAmount) */\n      jump\t// in\n    tag_501:\n        /* \"farms-pools/LandbaseLockPool.sol\":14555:14599  Withdraw(msg.sender, currentAmount, _shares) */\n      0x40\n      dup1\n      mload\n      dup4\n      dup2\n      mstore\n      0x20\n      dup2\n      add\n      dup7\n      swap1\n      mstore\n      dup2\n      mload\n        /* \"farms-pools/LandbaseLockPool.sol\":14564:14574  msg.sender */\n      caller\n      swap3\n        /* \"farms-pools/LandbaseLockPool.sol\":14555:14599  Withdraw(msg.sender, currentAmount, _shares) */\n      0xf279e6a1f5e320cca91135676d9cb6e44ca8a08c0b88342bcdb1144f6511b568\n      swap3\n      dup3\n      swap1\n      sub\n      add\n      swap1\n      log2\n        /* \"farms-pools/LandbaseLockPool.sol\":13109:14607  function withdrawV1(uint256 _shares) internal {\r... */\n      pop\n      pop\n      pop\n      pop\n      jump\t// out\n        /* \"farms-pools/SafeERC20.sol\":3027:3788  function _callOptionalReturn(IERC20 token, bytes memory data) private {\r... */\n    tag_405:\n        /* \"farms-pools/SafeERC20.sol\":3451:3474  bytes memory returndata */\n      0x60\n        /* \"farms-pools/SafeERC20.sol\":3477:3546  address(token).functionCall(data, \"SafeERC20: low-level call failed\") */\n      tag_503\n        /* \"farms-pools/SafeERC20.sol\":3505:3509  data */\n      dup3\n        /* \"farms-pools/SafeERC20.sol\":3477:3546  address(token).functionCall(data, \"SafeERC20: low-level call failed\") */\n      mload(0x40)\n      dup1\n      0x40\n      add\n      0x40\n      mstore\n      dup1\n      0x20\n      dup2\n      mstore\n      0x20\n      add\n      0x5361666545524332303a206c6f772d6c6576656c2063616c6c206661696c6564\n      dup2\n      mstore\n      pop\n        /* \"farms-pools/SafeERC20.sol\":3485:3490  token */\n      dup6\n      sub(shl(0xa0, 0x01), 0x01)\n        /* \"farms-pools/SafeERC20.sol\":3477:3504  address(token).functionCall */\n      and\n      tag_164\n      swap1\n        /* \"farms-pools/SafeERC20.sol\":3477:3546  address(token).functionCall(data, \"SafeERC20: low-level call failed\") */\n      swap3\n      swap2\n      swap1\n      0xffffffff\n      and\n      jump\t// in\n    tag_503:\n        /* \"farms-pools/SafeERC20.sol\":3561:3578  returndata.length */\n      dup1\n      mload\n        /* \"farms-pools/SafeERC20.sol\":3451:3546  bytes memory returndata = address(token).functionCall(data, \"SafeERC20: low-level call failed\") */\n      swap1\n      swap2\n      pop\n        /* \"farms-pools/SafeERC20.sol\":3561:3582  returndata.length > 0 */\n      iszero\n        /* \"farms-pools/SafeERC20.sol\":3557:3781  if (returndata.length > 0) { // Return data is optional\r... */\n      tag_404\n      jumpi\n        /* \"farms-pools/SafeERC20.sol\":3703:3713  returndata */\n      dup1\n        /* \"farms-pools/SafeERC20.sol\":3692:3722  abi.decode(returndata, (bool)) */\n      dup1\n      0x20\n      add\n      swap1\n      mload\n      0x20\n      dup2\n      lt\n      iszero\n      tag_505\n      jumpi\n      0x00\n      dup1\n      revert\n    tag_505:\n      pop\n      mload\n        /* \"farms-pools/SafeERC20.sol\":3684:3769  require(abi.decode(returndata, (bool)), \"SafeERC20: ERC20 operation did not succeed\") */\n      tag_404\n      jumpi\n      mload(0x40)\n      shl(0xe5, 0x461bcd)\n      dup2\n      mstore\n      0x04\n      add\n      dup1\n      dup1\n      0x20\n      add\n      dup3\n      dup2\n      sub\n      dup3\n      mstore\n      0x2a\n      dup2\n      mstore\n      0x20\n      add\n      dup1\n      data_e11ad79d1e4a7f2e5f376964cb99e8e8f7904e3fc16a109f7a7ecb9aa7956dcd\n      0x2a\n      swap2\n      codecopy\n      0x40\n      add\n      swap2\n      pop\n      pop\n      mload(0x40)\n      dup1\n      swap2\n      sub\n      swap1\n      revert\n        /* \"farms-pools/utils/Address.sol\":4721:5251  function functionCallWithValue(address target, bytes memory data, uint256 value, string memory errorMessage) internal returns (bytes memory) {\r... */\n    tag_408:\n        /* \"farms-pools/utils/Address.sol\":4848:4860  bytes memory */\n      0x60\n        /* \"farms-pools/utils/Address.sol\":4906:4911  value */\n      dup3\n        /* \"farms-pools/utils/Address.sol\":4881:4902  address(this).balance */\n      selfbalance\n        /* \"farms-pools/utils/Address.sol\":4881:4911  address(this).balance >= value */\n      lt\n      iszero\n        /* \"farms-pools/utils/Address.sol\":4873:4954  require(address(this).balance >= value, \"Address: insufficient balance for call\") */\n      tag_508\n      jumpi\n      mload(0x40)\n      shl(0xe5, 0x461bcd)\n      dup2\n      mstore\n      0x04\n      add\n      dup1\n      dup1\n      0x20\n      add\n      dup3\n      dup2\n      sub\n      dup3\n      mstore\n      0x26\n      dup2\n      mstore\n      0x20\n      add\n      dup1\n      data_565f1a77334fc4792800921178c71e4521acffab18ff9e7885b49377ee80ab4c\n      0x26\n      swap2\n      codecopy\n      0x40\n      add\n      swap2\n      pop\n      pop\n      mload(0x40)\n      dup1\n      swap2\n      sub\n      swap1\n      revert\n    tag_508:\n        /* \"farms-pools/utils/Address.sol\":4973:4991  isContract(target) */\n      tag_509\n        /* \"farms-pools/utils/Address.sol\":4984:4990  target */\n      dup6\n        /* \"farms-pools/utils/Address.sol\":4973:4983  isContract */\n      tag_180\n        /* \"farms-pools/utils/Address.sol\":4973:4991  isContract(target) */\n      jump\t// in\n    tag_509:\n        /* \"farms-pools/utils/Address.sol\":4965:5025  require(isContract(target), \"Address: call to non-contract\") */\n      tag_511\n      jumpi\n      0x40\n      dup1\n      mload\n      shl(0xe5, 0x461bcd)\n      dup2\n      mstore\n      0x20\n      0x04\n      dup3\n      add\n      mstore\n      0x1d\n      0x24\n      dup3\n      add\n      mstore\n      0x416464726573733a2063616c6c20746f206e6f6e2d636f6e7472616374000000\n      0x44\n      dup3\n      add\n      mstore\n      swap1\n      mload\n      swap1\n      dup2\n      swap1\n      sub\n      0x64\n      add\n      swap1\n      revert\n    tag_511:\n        /* \"farms-pools/utils/Address.sol\":5099:5111  bool success */\n      0x00\n        /* \"farms-pools/utils/Address.sol\":5113:5136  bytes memory returndata */\n      0x60\n        /* \"farms-pools/utils/Address.sol\":5140:5146  target */\n      dup7\n      sub(shl(0xa0, 0x01), 0x01)\n        /* \"farms-pools/utils/Address.sol\":5140:5151  target.call */\n      and\n        /* \"farms-pools/utils/Address.sol\":5160:5165  value */\n      dup6\n        /* \"farms-pools/utils/Address.sol\":5168:5172  data */\n      dup8\n        /* \"farms-pools/utils/Address.sol\":5140:5173  target.call{ value: value }(data) */\n      mload(0x40)\n      dup1\n      dup3\n      dup1\n      mload\n      swap1\n      0x20\n      add\n      swap1\n      dup1\n      dup4\n      dup4\n    tag_512:\n      0x20\n      dup4\n      lt\n      tag_514\n      jumpi\n      dup1\n      mload\n      dup3\n      mstore\n      not(0x1f)\n      swap1\n      swap3\n      add\n      swap2\n      0x20\n      swap2\n      dup3\n      add\n      swap2\n      add\n      jump(tag_512)\n    tag_514:\n      0x01\n      dup4\n      0x20\n      sub\n      0x0100\n      exp\n      sub\n      dup1\n      not\n      dup3\n      mload\n      and\n      dup2\n      dup5\n      mload\n      and\n      dup1\n      dup3\n      or\n      dup6\n      mstore\n      pop\n      pop\n      pop\n      pop\n      pop\n      pop\n      swap1\n      pop\n      add\n      swap2\n      pop\n      pop\n      0x00\n      mload(0x40)\n      dup1\n      dup4\n      sub\n      dup2\n      dup6\n      dup8\n      gas\n      call\n      swap3\n      pop\n      pop\n      pop\n      returndatasize\n      dup1\n      0x00\n      dup2\n      eq\n      tag_517\n      jumpi\n      mload(0x40)\n      swap2\n      pop\n      and(add(returndatasize, 0x3f), not(0x1f))\n      dup3\n      add\n      0x40\n      mstore\n      returndatasize\n      dup3\n      mstore\n      returndatasize\n      0x00\n      0x20\n      dup5\n      add\n      returndatacopy\n      jump(tag_516)\n    tag_517:\n      0x60\n      swap2\n      pop\n    tag_516:\n      pop\n        /* \"farms-pools/utils/Address.sol\":5098:5173  (bool success, bytes memory returndata) = target.call{ value: value }(data) */\n      swap2\n      pop\n      swap2\n      pop\n        /* \"farms-pools/utils/Address.sol\":5191:5243  _verifyCallResult(success, returndata, errorMessage) */\n      tag_518\n        /* \"farms-pools/utils/Address.sol\":5209:5216  success */\n      dup3\n        /* \"farms-pools/utils/Address.sol\":5218:5228  returndata */\n      dup3\n        /* \"farms-pools/utils/Address.sol\":5230:5242  errorMessage */\n      dup7\n        /* \"farms-pools/utils/Address.sol\":5191:5208  _verifyCallResult */\n      tag_519\n        /* \"farms-pools/utils/Address.sol\":5191:5243  _verifyCallResult(success, returndata, errorMessage) */\n      jump\t// in\n    tag_518:\n        /* \"farms-pools/utils/Address.sol\":5184:5243  return _verifyCallResult(success, returndata, errorMessage) */\n      swap8\n        /* \"farms-pools/utils/Address.sol\":4721:5251  function functionCallWithValue(address target, bytes memory data, uint256 value, string memory errorMessage) internal returns (bytes memory) {\r... */\n      swap7\n      pop\n      pop\n      pop\n      pop\n      pop\n      pop\n      pop\n      jump\t// out\n        /* \"farms-pools/LandbaseLockPool.sol\":6417:6556  function _isValidActionBlock() internal view returns(bool) {\r... */\n    tag_437:\n        /* \"farms-pools/LandbaseLockPool.sol\":6470:6474  bool */\n      0x00\n        /* \"farms-pools/LandbaseLockPool.sol\":6510:6520  startBlock */\n      sload(0x03)\n        /* \"farms-pools/LandbaseLockPool.sol\":6494:6506  block.number */\n      number\n        /* \"farms-pools/LandbaseLockPool.sol\":6494:6520  block.number >= startBlock */\n      lt\n      iszero\n        /* \"farms-pools/LandbaseLockPool.sol\":6494:6548  block.number >= startBlock && block.number <= endBlock */\n      dup1\n      iszero\n      tag_294\n      jumpi\n      pop\n      pop\n        /* \"farms-pools/LandbaseLockPool.sol\":6540:6548  endBlock */\n      sload(0x04)\n        /* \"farms-pools/LandbaseLockPool.sol\":6524:6536  block.number */\n      number\n        /* \"farms-pools/LandbaseLockPool.sol\":6524:6548  block.number <= endBlock */\n      gt\n      iszero\n      swap1\n        /* \"farms-pools/LandbaseLockPool.sol\":6417:6556  function _isValidActionBlock() internal view returns(bool) {\r... */\n      jump\t// out\n        /* \"farms-pools/utils/Address.sol\":7261:8003  function _verifyCallResult(bool success, bytes memory returndata, string memory errorMessage) private pure returns(bytes memory) {\r... */\n    tag_519:\n        /* \"farms-pools/utils/Address.sol\":7376:7388  bytes memory */\n      0x60\n        /* \"farms-pools/utils/Address.sol\":7405:7412  success */\n      dup4\n        /* \"farms-pools/utils/Address.sol\":7401:7996  if (success) {\r... */\n      iszero\n      tag_524\n      jumpi\n      pop\n        /* \"farms-pools/utils/Address.sol\":7436:7446  returndata */\n      dup2\n        /* \"farms-pools/utils/Address.sol\":7429:7446  return returndata */\n      jump(tag_406)\n        /* \"farms-pools/utils/Address.sol\":7401:7996  if (success) {\r... */\n    tag_524:\n        /* \"farms-pools/utils/Address.sol\":7550:7567  returndata.length */\n      dup3\n      mload\n        /* \"farms-pools/utils/Address.sol\":7550:7571  returndata.length > 0 */\n      iszero\n        /* \"farms-pools/utils/Address.sol\":7546:7985  if (returndata.length > 0) {\r... */\n      tag_526\n      jumpi\n        /* \"farms-pools/utils/Address.sol\":7813:7823  returndata */\n      dup3\n        /* \"farms-pools/utils/Address.sol\":7807:7824  mload(returndata) */\n      mload\n        /* \"farms-pools/utils/Address.sol\":7874:7889  returndata_size */\n      dup1\n        /* \"farms-pools/utils/Address.sol\":7861:7871  returndata */\n      dup5\n        /* \"farms-pools/utils/Address.sol\":7857:7859  32 */\n      0x20\n        /* \"farms-pools/utils/Address.sol\":7853:7872  add(32, returndata) */\n      add\n        /* \"farms-pools/utils/Address.sol\":7846:7890  revert(add(32, returndata), returndata_size) */\n      revert\n        /* \"farms-pools/utils/Address.sol\":7761:7909  {\r... */\n    tag_526:\n        /* \"farms-pools/utils/Address.sol\":7956:7968  errorMessage */\n      dup2\n        /* \"farms-pools/utils/Address.sol\":7949:7969  revert(errorMessage) */\n      mload(0x40)\n      shl(0xe5, 0x461bcd)\n      dup2\n      mstore\n      0x04\n      add\n      dup1\n      dup1\n      0x20\n      add\n      dup3\n      dup2\n      sub\n      dup3\n      mstore\n      dup4\n      dup2\n      dup2\n      mload\n      dup2\n      mstore\n      0x20\n      add\n      swap2\n      pop\n      dup1\n      mload\n      swap1\n      0x20\n      add\n      swap1\n      dup1\n      dup4\n      dup4\n      0x00\n    tag_528:\n      dup4\n      dup2\n      lt\n      iszero\n      tag_530\n      jumpi\n      dup2\n      dup2\n      add\n      mload\n      dup4\n      dup3\n      add\n      mstore\n      0x20\n      add\n      jump(tag_528)\n    tag_530:\n      pop\n      pop\n      pop\n      pop\n      swap1\n      pop\n      swap1\n      dup2\n      add\n      swap1\n      0x1f\n      and\n      dup1\n      iszero\n      tag_531\n      jumpi\n      dup1\n      dup3\n      sub\n      dup1\n      mload\n      0x01\n      dup4\n      0x20\n      sub\n      0x0100\n      exp\n      sub\n      not\n      and\n      dup2\n      mstore\n      0x20\n      add\n      swap2\n      pop\n    tag_531:\n      pop\n      swap3\n      pop\n      pop\n      pop\n      mload(0x40)\n      dup1\n      swap2\n      sub\n      swap1\n      revert\n    stop\n    data_245f15ff17f551913a7a18385165551503906a406f905ac1c2437281a7cd0cfe 4f776e61626c653a206e6577206f776e657220697320746865207a65726f2061646472657373\n    data_3ea9d2748b0a4cf4d9041ea5447cc8d433bce6ae4e36584bac37b5bb6ca2fc19 546f6b656e2063616e6e6f742062652073616d65206173206465706f73697420746f6b656e\n    data_55e8b512461165150226d7fb62af16288a660c0fc1f35821ba4ad8ad658a0bb0 4e6577207374617274426c6f636b206d757374206265206c6f776572207468616e206e657720656e64426c6f636b\n    data_565f1a77334fc4792800921178c71e4521acffab18ff9e7885b49377ee80ab4c 416464726573733a20696e73756666696369656e742062616c616e636520666f722063616c6c\n    data_56f1cb28260a5fe006a543516f28c8e9fca2a3d42753a5ece1397133ea778f1c 546f6b656e2063616e6e6f742062652073616d65206173207265636569707420746f6b656e\n    data_5f4afedb5cb4c613eb925791e30905bbaa67a23ed369aa450ccf1eb0e08c07ff 63616c6c4665652063616e6e6f74206265206d6f7265207468616e204d41585f43414c4c5f464545\n    data_6432039cf9ff586e7b7914864ffeeb65018de8382b891f7abea9a0fa0a0eeba5 706572666f726d616e63654665652063616e6e6f74206265206d6f7265207468616e204d41585f504552464f524d414e43455f464545\n    data_6d2e0ee418a4fa9636bc860d0410414c2f3bb829ed67581046f589a0e038df7e 6e657720656e6420626c6f636b2063616e277420626568696e642063757272656e7420626c6f636b\n    data_7fed9a49aa73ae2a737052ad81231890c87ba88fdcecfa2465f440d93f710eda 70726f787920636f6e7472616374206e6f7420616c6c6f776564000000000000\n    data_9113bb53c2876a3805b2c9242029423fc540a728243ce887ab24c82cf119fba3 536166654d6174683a206d756c7469706c69636174696f6e206f766572666c6f77\n    data_9924ebdf1add33d25d4ef888e16131f0a5687b0580a36c21b5c301a6c462effe 4f776e61626c653a2063616c6c6572206973206e6f7420746865206f776e6572\n    data_a6806e6705a9ee3b0e0c4b8d8e7cb4e2da5d59db3275bba90220e3e7d15d16f8 6465706f73697420616d6f756e7420697320746f6f20736d616c6c20746f20616c6c6f6361746520736861726573\n    data_c9c3e461d0a427a4e9ec61c7672ef5d0872b7afe41af330c564d77d66b5b728b 506f6f6c2063757272656e7420626c6f636b206d757374206265206c6f776572207468616e206e6577207374617274426c6f636b\n    data_cfca239801295453e18a917561471428326355dcfd35c2679d3e455f8ddb6850 7769746864726177466565506572696f642063616e6e6f74206265206d6f7265207468616e204d41585f57495448445241575f4645455f504552494f44\n    data_e10f87a14096ac956401d5f800040ab40e68d1d271dcb4693c1df00be0147b71 6f6c6420656e6420626c6f636b2063616e277420626568696e642063757272656e7420626c6f636b\n    data_e11ad79d1e4a7f2e5f376964cb99e8e8f7904e3fc16a109f7a7ecb9aa7956dcd 5361666545524332303a204552433230206f7065726174696f6e20646964206e6f742073756363656564\n    data_e7bb9c347f949e24da350c193cc8369c19aa7e8a530aba25a3447a9658c66f18 77697468647261774665652063616e6e6f74206265206d6f7265207468616e204d41585f57495448445241575f464545\n    data_ef945ddb1bfdc0da870feb4560d868b047642b4ac7f2fb7f8b7c51cb4a411e25 5361666545524332303a20617070726f76652066726f6d206e6f6e2d7a65726f20746f206e6f6e2d7a65726f20616c6c6f77616e6365\n\n    auxdata: 0xa2646970667358221220ddacfadf47e6539b272e0941f4e2c131dc0f652dbd0107e0971e2e3c98d8fe1264736f6c634300060c0033\n}\n",
				"bytecode": {
					"linkReferences": {},
					"object": "60e060405260c86009556019600a55600a600b556203f480600c553480156200002757600080fd5b506040516200390438038062003904833981810160405260e08110156200004d57600080fd5b508051602082015160408301516060840151608085015160a086015160c0909601519495939492939192909190600062000086620001e4565b600080546001600160a01b0319166001600160a01b0383169081178255604051929350917f8be0079c531659141344cd1fd0a4f28419497f9722a3daafe3b4186f6b6457e0908290a3506000805460ff60a01b191690554382116200011d5760405162461bcd60e51b8152600401808060200182810382526026815260200180620038366026913960400191505060405180910390fd5b8082106200015d5760405162461bcd60e51b8152600401808060200182810382526022815260200180620038ac6022913960400191505060405180910390fd5b6001600160601b0319606088811b821660805287811b821660a05286901b1660c052600780546001600160a01b038681166001600160a01b03199283161790925560088054868416921691909117905560038390556004829055620001d79088168660001962002157620001e8602090811b91909117901c565b50505050505050620005fb565b3390565b80158062000272575060408051636eb1769f60e11b81523060048201526001600160a01b03848116602483015291519185169163dd62ed3e91604480820192602092909190829003018186803b1580156200024257600080fd5b505afa15801562000257573d6000803e3d6000fd5b505050506040513d60208110156200026e57600080fd5b5051155b620002af5760405162461bcd60e51b8152600401808060200182810382526036815260200180620038ce6036913960400191505060405180910390fd5b604080516001600160a01b038416602482015260448082018490528251808303909101815260649091019091526020810180516001600160e01b0390811663095ea7b360e01b17909152620003079185916200030c16565b505050565b606062000368826040518060400160405280602081526020017f5361666545524332303a206c6f772d6c6576656c2063616c6c206661696c6564815250856001600160a01b0316620003c860201b6200226f179092919060201c565b80519091501562000307578080602001905160208110156200038957600080fd5b5051620003075760405162461bcd60e51b815260040180806020018281038252602a81526020018062003882602a913960400191505060405180910390fd5b6060620003d98484600085620003e3565b90505b9392505050565b606082471015620004265760405162461bcd60e51b81526004018080602001828103825260268152602001806200385c6026913960400191505060405180910390fd5b62000431856200054b565b62000483576040805162461bcd60e51b815260206004820152601d60248201527f416464726573733a2063616c6c20746f206e6f6e2d636f6e7472616374000000604482015290519081900360640190fd5b60006060866001600160a01b031685876040518082805190602001908083835b60208310620004c45780518252601f199092019160209182019101620004a3565b6001836020036101000a03801982511681845116808217855250505050505090500191505060006040518083038185875af1925050503d806000811462000528576040519150601f19603f3d011682016040523d82523d6000602084013e6200052d565b606091505b5090925090506200054082828662000551565b979650505050505050565b3b151590565b6060831562000562575081620003dc565b825115620005735782518084602001fd5b8160405162461bcd60e51b81526004018080602001828103825283818151815260200191508051906020019080838360005b83811015620005bf578181015183820152602001620005a5565b50505050905090810190601f168015620005ed5780820380516001836020036101000a031916815260200191505b509250505060405180910390fd5b60805160601c60a05160601c60c05160601c6131a66200069060003980610a505280610dfc5280611033528061132852806117515280611bec5280612111528061263652806129c9525080611df25280611f04525080610b485280610bcf5280610ec05280610f155280610f8c52806113f052806119f15280611d8152806121355280612ac15280612b3d52506131a66000f3fe608060405234801561001057600080fd5b50600436106102895760003560e01c8063853828b61161015c578063dad6f0dc116100ce578063ec78e83211610087578063ec78e832146105a7578063f0f44260146105af578063f2fde38b146105d5578063f851a440146105fb578063fb1db27814610603578063fc0c546a1461060b57610289565b8063dad6f0dc1461053b578063db2e21bc14610561578063dd19171914610569578063def68a9c14610571578063df10b4e614610597578063e941fa781461059f57610289565b80639d72596b116101205780639d72596b146104e1578063b60f0531146104e9578063b6ac642a146104f1578063b6b55f251461050e578063bdca91651461052b578063d4b0de2f1461053357610289565b8063853828b61461049e57806387788782146104a65780638da5cb5b146104ae57806390321e1a146104b65780639513997f146104be57610289565b80634641257d11610200578063704b6c02116101b9578063704b6c021461043b57806370897b2314610461578063715018a61461047e578063722713f71461048657806377c7b8fc1461048e5780638456cb591461049657610289565b80634641257d146103db57806348a0d754146103e357806348cd4cb1146103eb57806358ebceb6146103f35780635c975abb146103fb57806361d027b31461041757610289565b8063264658261161025257806326465826146103815780632ad5a53f1461039e5780632cfc5f01146103a65780632e1a7d4d146103ae5780633a98ef39146103cb5780633f4ba83a146103d357610289565b80626f02311461028e57806306f5a745146102ad578063083c6323146102fe5780631959a002146103185780631efac1b814610364575b600080fd5b6102ab600480360360208110156102a457600080fd5b5035610613565b005b6102d3600480360360208110156102c357600080fd5b50356001600160a01b0316610719565b6040805195865260208601949094528484019290925260608401526080830152519081900360a00190f35b610306610748565b60408051918252519081900360200190f35b61033e6004803603602081101561032e57600080fd5b50356001600160a01b031661074e565b604080519485526020850193909352838301919091526060830152519081900360800190f35b6102ab6004803603602081101561037a57600080fd5b5035610776565b6102ab6004803603602081101561039757600080fd5b503561080a565b61030661089c565b6103066108a1565b6102ab600480360360208110156103c457600080fd5b50356108a8565b610306610c37565b6102ab610c3d565b6102ab610d0d565b610306610f88565b610306611028565b61030661102e565b6104036110ed565b604080519115158252519081900360200190f35b61041f6110fd565b604080516001600160a01b039092168252519081900360200190f35b6102ab6004803603602081101561045157600080fd5b50356001600160a01b031661110c565b6102ab6004803603602081101561047757600080fd5b50356111e4565b6102ab611277565b610306611323565b610306611469565b6102ab6114a3565b6102ab611570565b61030661161f565b61041f611625565b610306611634565b6102ab600480360360408110156104d457600080fd5b508035906020013561163a565b61030661174c565b610306611814565b6102ab6004803603602081101561050757600080fd5b503561181a565b6102ab6004803603602081101561052457600080fd5b50356118ad565b610306611b39565b610306611b3f565b6103066004803603602081101561055157600080fd5b50356001600160a01b0316611b45565b6102ab611b9d565b6102ab611c7d565b6102ab6004803603602081101561058757600080fd5b50356001600160a01b0316611d32565b610306611ef6565b610306611efc565b61041f611f02565b6102ab600480360360208110156105c557600080fd5b50356001600160a01b0316611f26565b6102ab600480360360208110156105eb57600080fd5b50356001600160a01b0316611ffe565b61041f612100565b61041f61210f565b61041f612133565b6007546001600160a01b03163314610660576040805162461bcd60e51b815260206004820152600b60248201526a61646d696e3a207775743f60a81b604482015290519081900360640190fd5b80431061069e5760405162461bcd60e51b8152600401808060200182810382526028815260200180612f916028913960400191505060405180910390fd5b60045443106106de5760405162461bcd60e51b81526004018080602001828103825260288152602001806130b96028913960400191505060405180910390fd5b60048190556040805182815290517f72a01621587849e39c667eb81696643997f818c6c286614cd1497e5ef2e9ecd69181900360200190a150565b600260208190526000918252604090912080546001820154928201546003830154600490930154919392909185565b60045481565b6001602081905260009182526040909120805491810154600282015460039092015490919084565b6007546001600160a01b031633146107c3576040805162461bcd60e51b815260206004820152600b60248201526a61646d696e3a207775743f60a81b604482015290519081900360640190fd5b62093a808111156108055760405162461bcd60e51b815260040180806020018281038252603d81526020018061307c603d913960400191505060405180910390fd5b600c55565b6007546001600160a01b03163314610857576040805162461bcd60e51b815260206004820152600b60248201526a61646d696e3a207775743f60a81b604482015290519081900360640190fd5b60648111156108975760405162461bcd60e51b8152600401808060200182810382526028815260200180612f336028913960400191505060405180910390fd5b600a55565b606481565b62093a8081565b6108b133612288565b156108fa576040805162461bcd60e51b815260206004820152601460248201527318dbdb9d1c9858dd081b9bdd08185b1b1bddd95960621b604482015290519081900360640190fd5b33321461093c576040805162461bcd60e51b815260206004820152601a6024820152600080516020612fb9833981519152604482015290519081900360640190fd5b33600090815260016020526040902081610993576040805162461bcd60e51b81526020600482015260136024820152724e6f7468696e6720746f20776974686472617760681b604482015290519081900360640190fd5b80548211156109e9576040805162461bcd60e51b815260206004820152601f60248201527f576974686472617720616d6f756e7420657863656564732062616c616e636500604482015290519081900360640190fd5b6000610a09600554610a03856109fd611323565b9061228e565b906122f0565b82549091508190610a1a9085612357565b8355600554610a299085612357565b6005556000610a36610f88565b905082811015610aff576000610a4c8483612357565b90507f00000000000000000000000000000000000000000000000000000000000000006001600160a01b0316631058d281826040518263ffffffff1660e01b815260040180828152602001915050600060405180830381600087803b158015610ab457600080fd5b505af1158015610ac8573d6000803e3d6000fd5b505050506000610ad6610f88565b90506000610ae48285612357565b905082811015610afb57610af884826123b4565b95505b5050505b600c546001850154610b10916123b4565b421015610b7f576000610b34612710610a03600b548761228e90919063ffffffff16565b600854909150610b71906001600160a01b037f0000000000000000000000000000000000000000000000000000000000000000811691168361240e565b610b7b8482612357565b9350505b835415610ba957610b9f600554610a03610b97611323565b87549061228e565b6002850155610bb1565b600060028501555b426003850155610bc2826001612460565b610bf66001600160a01b037f000000000000000000000000000000000000000000000000000000000000000016338561240e565b6040805184815260208101879052815133927ff279e6a1f5e320cca91135676d9cb6e44ca8a08c0b88342bcdb1144f6511b568928290030190a25050505050565b60055481565b6007546001600160a01b03163314610c8a576040805162461bcd60e51b815260206004820152600b60248201526a61646d696e3a207775743f60a81b604482015290519081900360640190fd5b610c926110ed565b610cda576040805162461bcd60e51b815260206004820152601460248201527314185d5cd8589b194e881b9bdd081c185d5cd95960621b604482015290519081900360640190fd5b610ce261257f565b6040517f7805862f689e2f13df9f062ff482ad3ad112aca9e0847911ed832e158c525b3390600090a1565b610d1633612288565b15610d5f576040805162461bcd60e51b815260206004820152601460248201527318dbdb9d1c9858dd081b9bdd08185b1b1bddd95960621b604482015290519081900360640190fd5b333214610da1576040805162461bcd60e51b815260206004820152601a6024820152600080516020612fb9833981519152604482015290519081900360640190fd5b610da96110ed565b15610dee576040805162461bcd60e51b815260206004820152601060248201526f14185d5cd8589b194e881c185d5cd95960821b604482015290519081900360640190fd5b6000610df8610f88565b90507f00000000000000000000000000000000000000000000000000000000000000006001600160a01b0316631058d28160006040518263ffffffff1660e01b815260040180828152602001915050600060405180830381600087803b158015610e6157600080fd5b505af1158015610e75573d6000803e3d6000fd5b505050506000610e8d82610e87610f88565b90612357565b90506000610eac612710610a036009548561228e90919063ffffffff16565b600854909150610ee9906001600160a01b037f0000000000000000000000000000000000000000000000000000000000000000811691168361240e565b6000610f06612710610a03600a548661228e90919063ffffffff16565b9050610f3c6001600160a01b037f000000000000000000000000000000000000000000000000000000000000000016338361240e565b610f44612622565b426006556040805183815260208101839052815133927f71bab65ced2e5750775a0613be067df48ef06cf92a496ebf7663ae0660924954928290030190a250505050565b60007f00000000000000000000000000000000000000000000000000000000000000006001600160a01b03166370a08231306040518263ffffffff1660e01b815260040180826001600160a01b0316815260200191505060206040518083038186803b158015610ff757600080fd5b505afa15801561100b573d6000803e3d6000fd5b505050506040513d602081101561102157600080fd5b5051905090565b60035481565b6000807f00000000000000000000000000000000000000000000000000000000000000006001600160a01b0316631175a1dd6000306040518363ffffffff1660e01b815260040180838152602001826001600160a01b031681526020019250505060206040518083038186803b1580156110a757600080fd5b505afa1580156110bb573d6000803e3d6000fd5b505050506040513d60208110156110d157600080fd5b505190506110e76110e0610f88565b82906123b4565b91505090565b600054600160a01b900460ff1690565b6008546001600160a01b031681565b6111146126b6565b6001600160a01b0316611125611625565b6001600160a01b03161461116e576040805162461bcd60e51b81526020600482018190526024820152600080516020612ffa833981519152604482015290519081900360640190fd5b6001600160a01b0381166111c2576040805162461bcd60e51b815260206004820152601660248201527543616e6e6f74206265207a65726f206164647265737360501b604482015290519081900360640190fd5b600780546001600160a01b0319166001600160a01b0392909216919091179055565b6007546001600160a01b03163314611231576040805162461bcd60e51b815260206004820152600b60248201526a61646d696e3a207775743f60a81b604482015290519081900360640190fd5b6102588111156112725760405162461bcd60e51b8152600401808060200182810382526036815260200180612f5b6036913960400191505060405180910390fd5b600955565b61127f6126b6565b6001600160a01b0316611290611625565b6001600160a01b0316146112d9576040805162461bcd60e51b81526020600482018190526024820152600080516020612ffa833981519152604482015290519081900360640190fd5b600080546040516001600160a01b03909116907f8be0079c531659141344cd1fd0a4f28419497f9722a3daafe3b4186f6b6457e0908390a3600080546001600160a01b0319169055565b6000807f00000000000000000000000000000000000000000000000000000000000000006001600160a01b03166393f1a40b6000306040518363ffffffff1660e01b815260040180838152602001826001600160a01b0316815260200192505050604080518083038186803b15801561139b57600080fd5b505afa1580156113af573d6000803e3d6000fd5b505050506040513d60408110156113c557600080fd5b5051604080516370a0823160e01b815230600482015290519192506110e79183916001600160a01b037f000000000000000000000000000000000000000000000000000000000000000016916370a0823191602480820192602092909190829003018186803b15801561143757600080fd5b505afa15801561144b573d6000803e3d6000fd5b505050506040513d602081101561146157600080fd5b5051906123b4565b60006005546000146114945761148f600554610a03670de0b6b3a76400006109fd611323565b61149e565b670de0b6b3a76400005b905090565b6007546001600160a01b031633146114f0576040805162461bcd60e51b815260206004820152600b60248201526a61646d696e3a207775743f60a81b604482015290519081900360640190fd5b6114f86110ed565b1561153d576040805162461bcd60e51b815260206004820152601060248201526f14185d5cd8589b194e881c185d5cd95960821b604482015290519081900360640190fd5b6115456126ba565b6040517f6985a02210a168e66602d3235cb6db0e70f92b3ba4d376a33c0f3d9434bff62590600090a1565b61157933612288565b156115c2576040805162461bcd60e51b815260206004820152601460248201527318dbdb9d1c9858dd081b9bdd08185b1b1bddd95960621b604482015290519081900360640190fd5b333214611604576040805162461bcd60e51b815260206004820152601a6024820152600080516020612fb9833981519152604482015290519081900360640190fd5b3360009081526001602052604090205461161d906108a8565b565b60095481565b6000546001600160a01b031690565b600a5481565b6007546001600160a01b03163314611687576040805162461bcd60e51b815260206004820152600b60248201526a61646d696e3a207775743f60a81b604482015290519081900360640190fd5b8143106116c55760405162461bcd60e51b81526004018080602001828103825260348152602001806130486034913960400191505060405180910390fd5b8082106117035760405162461bcd60e51b815260040180806020018281038252602e815260200180612eba602e913960400191505060405180910390fd5b60038290556004819055604080518381526020810183905281517f053462fec8f17a9d662e3778a6027b6c0c1ac0da2390a991aa33cb3aa60cae4e929181900390910190a15050565b6000807f00000000000000000000000000000000000000000000000000000000000000006001600160a01b0316631175a1dd6000306040518363ffffffff1660e01b815260040180838152602001826001600160a01b031681526020019250505060206040518083038186803b1580156117c557600080fd5b505afa1580156117d9573d6000803e3d6000fd5b505050506040513d60208110156117ef57600080fd5b5051600a5490915060009061180d9061271090610a0390859061228e565b9250505090565b60065481565b6007546001600160a01b03163314611867576040805162461bcd60e51b815260206004820152600b60248201526a61646d696e3a207775743f60a81b604482015290519081900360640190fd5b6101908111156118a85760405162461bcd60e51b815260040180806020018281038252603081526020018061310b6030913960400191505060405180910390fd5b600b55565b6118b56110ed565b156118fa576040805162461bcd60e51b815260206004820152601060248201526f14185d5cd8589b194e881c185d5cd95960821b604482015290519081900360640190fd5b61190333612288565b1561194c576040805162461bcd60e51b815260206004820152601460248201527318dbdb9d1c9858dd081b9bdd08185b1b1bddd95960621b604482015290519081900360640190fd5b33321461198e576040805162461bcd60e51b815260206004820152601a6024820152600080516020612fb9833981519152604482015290519081900360640190fd5b600081116119d8576040805162461bcd60e51b8152602060048201526012602482015271139bdd1a1a5b99c81d1bc819195c1bdcda5d60721b604482015290519081900360640190fd5b60006119e2611323565b9050611a196001600160a01b037f000000000000000000000000000000000000000000000000000000000000000016333085612743565b6000600554600014611a4557611a3e82610a036005548661228e90919063ffffffff16565b9050611a48565b50815b60008111611a875760405162461bcd60e51b815260040180806020018281038252602e81526020018061301a602e913960400191505060405180910390fd5b3360009081526001602052604090208054611aa290836123b4565b8155426001820155600554611ab790836123b4565b6005819055611ad390610a03611acb611323565b84549061228e565b6002820155426003820155611ae9846000612460565b611af1612622565b60408051858152602081018490524281830152905133917f36af321ec8d3c75236829c5317affd40ddb308863a1236d2d277a4025cccee1e919081900360600190a250505050565b61025881565b61019081565b6001600160a01b0381166000908152600260205260408120611b656127a3565b15611b9257611b8b816002015482600301548360000154846001015485600401546127ab565b9150611b97565b600091505b50919050565b6007546001600160a01b03163314611bea576040805162461bcd60e51b815260206004820152600b60248201526a61646d696e3a207775743f60a81b604482015290519081900360640190fd5b7f00000000000000000000000000000000000000000000000000000000000000006001600160a01b0316635312ea8e60006040518263ffffffff1660e01b815260040180828152602001915050600060405180830381600087803b158015611c5157600080fd5b505af1158015611c65573d6000803e3d6000fd5b50505050611c716110ed565b61161d5761161d6126ba565b611c8633612288565b15611ccf576040805162461bcd60e51b815260206004820152601460248201527318dbdb9d1c9858dd081b9bdd08185b1b1bddd95960621b604482015290519081900360640190fd5b333214611d11576040805162461bcd60e51b815260206004820152601a6024820152600080516020612fb9833981519152604482015290519081900360640190fd5b611d1961285a565b3360009081526001602052604090205461161d906128c3565b6007546001600160a01b03163314611d7f576040805162461bcd60e51b815260206004820152600b60248201526a61646d696e3a207775743f60a81b604482015290519081900360640190fd5b7f00000000000000000000000000000000000000000000000000000000000000006001600160a01b0316816001600160a01b03161415611df05760405162461bcd60e51b8152600401808060200182810382526025815260200180612e956025913960400191505060405180910390fd5b7f00000000000000000000000000000000000000000000000000000000000000006001600160a01b0316816001600160a01b03161415611e615760405162461bcd60e51b8152600401808060200182810382526025815260200180612f0e6025913960400191505060405180910390fd5b6000816001600160a01b03166370a08231306040518263ffffffff1660e01b815260040180826001600160a01b0316815260200191505060206040518083038186803b158015611eb057600080fd5b505afa158015611ec4573d6000803e3d6000fd5b505050506040513d6020811015611eda57600080fd5b50519050611ef26001600160a01b038316338361240e565b5050565b600c5481565b600b5481565b7f000000000000000000000000000000000000000000000000000000000000000081565b611f2e6126b6565b6001600160a01b0316611f3f611625565b6001600160a01b031614611f88576040805162461bcd60e51b81526020600482018190526024820152600080516020612ffa833981519152604482015290519081900360640190fd5b6001600160a01b038116611fdc576040805162461bcd60e51b815260206004820152601660248201527543616e6e6f74206265207a65726f206164647265737360501b604482015290519081900360640190fd5b600880546001600160a01b0319166001600160a01b0392909216919091179055565b6120066126b6565b6001600160a01b0316612017611625565b6001600160a01b031614612060576040805162461bcd60e51b81526020600482018190526024820152600080516020612ffa833981519152604482015290519081900360640190fd5b6001600160a01b0381166120a55760405162461bcd60e51b8152600401808060200182810382526026815260200180612e6f6026913960400191505060405180910390fd5b600080546040516001600160a01b03808516939216917f8be0079c531659141344cd1fd0a4f28419497f9722a3daafe3b4186f6b6457e091a3600080546001600160a01b0319166001600160a01b0392909216919091179055565b6007546001600160a01b031681565b7f000000000000000000000000000000000000000000000000000000000000000081565b7f000000000000000000000000000000000000000000000000000000000000000081565b8015806121dd575060408051636eb1769f60e11b81523060048201526001600160a01b03848116602483015291519185169163dd62ed3e91604480820192602092909190829003018186803b1580156121af57600080fd5b505afa1580156121c3573d6000803e3d6000fd5b505050506040513d60208110156121d957600080fd5b5051155b6122185760405162461bcd60e51b815260040180806020018281038252603681526020018061313b6036913960400191505060405180910390fd5b604080516001600160a01b038416602482015260448082018490528251808303909101815260649091019091526020810180516001600160e01b031663095ea7b360e01b17905261226a908490612ba4565b505050565b606061227e8484600085612c55565b90505b9392505050565b3b151590565b60008261229d575060006122ea565b828202828482816122aa57fe5b04146122e75760405162461bcd60e51b8152600401808060200182810382526021815260200180612fd96021913960400191505060405180910390fd5b90505b92915050565b6000808211612346576040805162461bcd60e51b815260206004820152601a60248201527f536166654d6174683a206469766973696f6e206279207a65726f000000000000604482015290519081900360640190fd5b81838161234f57fe5b049392505050565b6000828211156123ae576040805162461bcd60e51b815260206004820152601e60248201527f536166654d6174683a207375627472616374696f6e206f766572666c6f770000604482015290519081900360640190fd5b50900390565b6000828201838110156122e7576040805162461bcd60e51b815260206004820152601b60248201527f536166654d6174683a206164646974696f6e206f766572666c6f770000000000604482015290519081900360640190fd5b604080516001600160a01b038416602482015260448082018490528251808303909101815260649091019091526020810180516001600160e01b031663a9059cbb60e01b17905261226a908490612ba4565b336000908152600260205260408120906124786127a3565b156124a35761249e826002015483600301548460000154856001015486600401546127ab565b6124a6565b60005b905060018360018111156124b657fe5b14156124df57815484116124d55781546124d09085612357565b6124d8565b60005b82556124ee565b81546124eb90856123b4565b82555b6124f6612db1565b1561250957815460018301554360038301555b6004820181905543600283018190558254600184015460038501546040805186815260208101949094528381019290925260608301939093526080820192909252905133917f6a9632041d5ad6a474679da2ac648103e26069c6e77dca5f3675d3fdcbe1ac17919081900360a00190a250505050565b6125876110ed565b6125cf576040805162461bcd60e51b815260206004820152601460248201527314185d5cd8589b194e881b9bdd081c185d5cd95960621b604482015290519081900360640190fd5b6000805460ff60a01b191690557f5db9ee0a495bf2e6ff9c91a7834c1ba4fdd244a5e8aa4e537bd38aeae4b073aa6126056126b6565b604080516001600160a01b039092168252519081900360200190a1565b600061262c610f88565b905080156126b3577f00000000000000000000000000000000000000000000000000000000000000006001600160a01b03166341441d3b826040518263ffffffff1660e01b815260040180828152602001915050600060405180830381600087803b15801561269a57600080fd5b505af11580156126ae573d6000803e3d6000fd5b505050505b50565b3390565b6126c26110ed565b15612707576040805162461bcd60e51b815260206004820152601060248201526f14185d5cd8589b194e881c185d5cd95960821b604482015290519081900360640190fd5b6000805460ff60a01b1916600160a01b1790557f62e78cea01bee320cd4e420270b5ea74000d11b0c9f74754ebdbfc544b05a2586126056126b6565b604080516001600160a01b0380861660248301528416604482015260648082018490528251808303909101815260849091019091526020810180516001600160e01b03166323b872dd60e01b17905261279d908590612ba4565b50505050565b600354431190565b600454600090439087106127c25782915050612851565b6003548610156127d9576003549550600092508493505b60045481106127ea576004546127ec565b805b9050600061280f6128086003548961235790919063ffffffff16565b859061228e565b90506000612827612820848a612357565b879061228e565b905061284b6128416003548561235790919063ffffffff16565b610a0384846123b4565b93505050505b95945050505050565b33600081815260026020818152604080842084815560018101859055928301849055600383018490556004830193909355825143815292519193927f6f66ff41198a141a4e315cd2ff387f32686a6d469da7496ffee40eaf05e4a411929081900390910190a250565b3360009081526001602052604090208161291a576040805162461bcd60e51b81526020600482015260136024820152724e6f7468696e6720746f20776974686472617760681b604482015290519081900360640190fd5b8054821115612970576040805162461bcd60e51b815260206004820152601f60248201527f576974686472617720616d6f756e7420657863656564732062616c616e636500604482015290519081900360640190fd5b6000612984600554610a03856109fd611323565b82549091506129939084612357565b82556005546129a29084612357565b60055560006129af610f88565b905081811015612a785760006129c58383612357565b90507f00000000000000000000000000000000000000000000000000000000000000006001600160a01b0316631058d281826040518263ffffffff1660e01b815260040180828152602001915050600060405180830381600087803b158015612a2d57600080fd5b505af1158015612a41573d6000803e3d6000fd5b505050506000612a4f610f88565b90506000612a5d8285612357565b905082811015612a7457612a7184826123b4565b94505b5050505b600c546001840154612a89916123b4565b421015612af8576000612aad612710610a03600b548661228e90919063ffffffff16565b600854909150612aea906001600160a01b037f0000000000000000000000000000000000000000000000000000000000000000811691168361240e565b612af48382612357565b9250505b825415612b2257612b18600554610a03612b10611323565b86549061228e565b6002840155612b2a565b600060028401555b426003840155612b646001600160a01b037f000000000000000000000000000000000000000000000000000000000000000016338461240e565b6040805183815260208101869052815133927ff279e6a1f5e320cca91135676d9cb6e44ca8a08c0b88342bcdb1144f6511b568928290030190a250505050565b6060612bf9826040518060400160405280602081526020017f5361666545524332303a206c6f772d6c6576656c2063616c6c206661696c6564815250856001600160a01b031661226f9092919063ffffffff16565b80519091501561226a57808060200190516020811015612c1857600080fd5b505161226a5760405162461bcd60e51b815260040180806020018281038252602a8152602001806130e1602a913960400191505060405180910390fd5b606082471015612c965760405162461bcd60e51b8152600401808060200182810382526026815260200180612ee86026913960400191505060405180910390fd5b612c9f85612288565b612cf0576040805162461bcd60e51b815260206004820152601d60248201527f416464726573733a2063616c6c20746f206e6f6e2d636f6e7472616374000000604482015290519081900360640190fd5b60006060866001600160a01b031685876040518082805190602001908083835b60208310612d2f5780518252601f199092019160209182019101612d10565b6001836020036101000a03801982511681845116808217855250505050505090500191505060006040518083038185875af1925050503d8060008114612d91576040519150601f19603f3d011682016040523d82523d6000602084013e612d96565b606091505b5091509150612da6828286612dca565b979650505050505050565b6000600354431015801561149e57505060045443111590565b60608315612dd9575081612281565b825115612de95782518084602001fd5b8160405162461bcd60e51b81526004018080602001828103825283818151815260200191508051906020019080838360005b83811015612e33578181015183820152602001612e1b565b50505050905090810190601f168015612e605780820380516001836020036101000a031916815260200191505b509250505060405180910390fdfe4f776e61626c653a206e6577206f776e657220697320746865207a65726f2061646472657373546f6b656e2063616e6e6f742062652073616d65206173206465706f73697420746f6b656e4e6577207374617274426c6f636b206d757374206265206c6f776572207468616e206e657720656e64426c6f636b416464726573733a20696e73756666696369656e742062616c616e636520666f722063616c6c546f6b656e2063616e6e6f742062652073616d65206173207265636569707420746f6b656e63616c6c4665652063616e6e6f74206265206d6f7265207468616e204d41585f43414c4c5f464545706572666f726d616e63654665652063616e6e6f74206265206d6f7265207468616e204d41585f504552464f524d414e43455f4645456e657720656e6420626c6f636b2063616e277420626568696e642063757272656e7420626c6f636b70726f787920636f6e7472616374206e6f7420616c6c6f776564000000000000536166654d6174683a206d756c7469706c69636174696f6e206f766572666c6f774f776e61626c653a2063616c6c6572206973206e6f7420746865206f776e65726465706f73697420616d6f756e7420697320746f6f20736d616c6c20746f20616c6c6f6361746520736861726573506f6f6c2063757272656e7420626c6f636b206d757374206265206c6f776572207468616e206e6577207374617274426c6f636b7769746864726177466565506572696f642063616e6e6f74206265206d6f7265207468616e204d41585f57495448445241575f4645455f504552494f446f6c6420656e6420626c6f636b2063616e277420626568696e642063757272656e7420626c6f636b5361666545524332303a204552433230206f7065726174696f6e20646964206e6f74207375636365656477697468647261774665652063616e6e6f74206265206d6f7265207468616e204d41585f57495448445241575f4645455361666545524332303a20617070726f76652066726f6d206e6f6e2d7a65726f20746f206e6f6e2d7a65726f20616c6c6f77616e6365a2646970667358221220ddacfadf47e6539b272e0941f4e2c131dc0f652dbd0107e0971e2e3c98d8fe1264736f6c634300060c0033737461727420626c6f636b2063616e277420626568696e642063757272656e7420626c6f636b416464726573733a20696e73756666696369656e742062616c616e636520666f722063616c6c5361666545524332303a204552433230206f7065726174696f6e20646964206e6f742073756363656564656e6420626c6f636b2063616e277420626568696e6420737461727420626c6f636b5361666545524332303a20617070726f76652066726f6d206e6f6e2d7a65726f20746f206e6f6e2d7a65726f20616c6c6f77616e6365",
					"opcodes": "PUSH1 0xE0 PUSH1 0x40 MSTORE PUSH1 0xC8 PUSH1 0x9 SSTORE PUSH1 0x19 PUSH1 0xA SSTORE PUSH1 0xA PUSH1 0xB SSTORE PUSH3 0x3F480 PUSH1 0xC SSTORE CALLVALUE DUP1 ISZERO PUSH3 0x27 JUMPI PUSH1 0x0 DUP1 REVERT JUMPDEST POP PUSH1 0x40 MLOAD PUSH3 0x3904 CODESIZE SUB DUP1 PUSH3 0x3904 DUP4 CODECOPY DUP2 DUP2 ADD PUSH1 0x40 MSTORE PUSH1 0xE0 DUP2 LT ISZERO PUSH3 0x4D JUMPI PUSH1 0x0 DUP1 REVERT JUMPDEST POP DUP1 MLOAD PUSH1 0x20 DUP3 ADD MLOAD PUSH1 0x40 DUP4 ADD MLOAD PUSH1 0x60 DUP5 ADD MLOAD PUSH1 0x80 DUP6 ADD MLOAD PUSH1 0xA0 DUP7 ADD MLOAD PUSH1 0xC0 SWAP1 SWAP7 ADD MLOAD SWAP5 SWAP6 SWAP4 SWAP5 SWAP3 SWAP4 SWAP2 SWAP3 SWAP1 SWAP2 SWAP1 PUSH1 0x0 PUSH3 0x86 PUSH3 0x1E4 JUMP JUMPDEST PUSH1 0x0 DUP1 SLOAD PUSH1 0x1 PUSH1 0x1 PUSH1 0xA0 SHL SUB NOT AND PUSH1 0x1 PUSH1 0x1 PUSH1 0xA0 SHL SUB DUP4 AND SWAP1 DUP2 OR DUP3 SSTORE PUSH1 0x40 MLOAD SWAP3 SWAP4 POP SWAP2 PUSH32 0x8BE0079C531659141344CD1FD0A4F28419497F9722A3DAAFE3B4186F6B6457E0 SWAP1 DUP3 SWAP1 LOG3 POP PUSH1 0x0 DUP1 SLOAD PUSH1 0xFF PUSH1 0xA0 SHL NOT AND SWAP1 SSTORE NUMBER DUP3 GT PUSH3 0x11D JUMPI PUSH1 0x40 MLOAD PUSH3 0x461BCD PUSH1 0xE5 SHL DUP2 MSTORE PUSH1 0x4 ADD DUP1 DUP1 PUSH1 0x20 ADD DUP3 DUP2 SUB DUP3 MSTORE PUSH1 0x26 DUP2 MSTORE PUSH1 0x20 ADD DUP1 PUSH3 0x3836 PUSH1 0x26 SWAP2 CODECOPY PUSH1 0x40 ADD SWAP2 POP POP PUSH1 0x40 MLOAD DUP1 SWAP2 SUB SWAP1 REVERT JUMPDEST DUP1 DUP3 LT PUSH3 0x15D JUMPI PUSH1 0x40 MLOAD PUSH3 0x461BCD PUSH1 0xE5 SHL DUP2 MSTORE PUSH1 0x4 ADD DUP1 DUP1 PUSH1 0x20 ADD DUP3 DUP2 SUB DUP3 MSTORE PUSH1 0x22 DUP2 MSTORE PUSH1 0x20 ADD DUP1 PUSH3 0x38AC PUSH1 0x22 SWAP2 CODECOPY PUSH1 0x40 ADD SWAP2 POP POP PUSH1 0x40 MLOAD DUP1 SWAP2 SUB SWAP1 REVERT JUMPDEST PUSH1 0x1 PUSH1 0x1 PUSH1 0x60 SHL SUB NOT PUSH1 0x60 DUP9 DUP2 SHL DUP3 AND PUSH1 0x80 MSTORE DUP8 DUP2 SHL DUP3 AND PUSH1 0xA0 MSTORE DUP7 SWAP1 SHL AND PUSH1 0xC0 MSTORE PUSH1 0x7 DUP1 SLOAD PUSH1 0x1 PUSH1 0x1 PUSH1 0xA0 SHL SUB DUP7 DUP2 AND PUSH1 0x1 PUSH1 0x1 PUSH1 0xA0 SHL SUB NOT SWAP3 DUP4 AND OR SWAP1 SWAP3 SSTORE PUSH1 0x8 DUP1 SLOAD DUP7 DUP5 AND SWAP3 AND SWAP2 SWAP1 SWAP2 OR SWAP1 SSTORE PUSH1 0x3 DUP4 SWAP1 SSTORE PUSH1 0x4 DUP3 SWAP1 SSTORE PUSH3 0x1D7 SWAP1 DUP9 AND DUP7 PUSH1 0x0 NOT PUSH3 0x2157 PUSH3 0x1E8 PUSH1 0x20 SWAP1 DUP2 SHL SWAP2 SWAP1 SWAP2 OR SWAP1 SHR JUMP JUMPDEST POP POP POP POP POP POP POP PUSH3 0x5FB JUMP JUMPDEST CALLER SWAP1 JUMP JUMPDEST DUP1 ISZERO DUP1 PUSH3 0x272 JUMPI POP PUSH1 0x40 DUP1 MLOAD PUSH4 0x6EB1769F PUSH1 0xE1 SHL DUP2 MSTORE ADDRESS PUSH1 0x4 DUP3 ADD MSTORE PUSH1 0x1 PUSH1 0x1 PUSH1 0xA0 SHL SUB DUP5 DUP2 AND PUSH1 0x24 DUP4 ADD MSTORE SWAP2 MLOAD SWAP2 DUP6 AND SWAP2 PUSH4 0xDD62ED3E SWAP2 PUSH1 0x44 DUP1 DUP3 ADD SWAP3 PUSH1 0x20 SWAP3 SWAP1 SWAP2 SWAP1 DUP3 SWAP1 SUB ADD DUP2 DUP7 DUP1 EXTCODESIZE ISZERO DUP1 ISZERO PUSH3 0x242 JUMPI PUSH1 0x0 DUP1 REVERT JUMPDEST POP GAS STATICCALL ISZERO DUP1 ISZERO PUSH3 0x257 JUMPI RETURNDATASIZE PUSH1 0x0 DUP1 RETURNDATACOPY RETURNDATASIZE PUSH1 0x0 REVERT JUMPDEST POP POP POP POP PUSH1 0x40 MLOAD RETURNDATASIZE PUSH1 0x20 DUP2 LT ISZERO PUSH3 0x26E JUMPI PUSH1 0x0 DUP1 REVERT JUMPDEST POP MLOAD ISZERO JUMPDEST PUSH3 0x2AF JUMPI PUSH1 0x40 MLOAD PUSH3 0x461BCD PUSH1 0xE5 SHL DUP2 MSTORE PUSH1 0x4 ADD DUP1 DUP1 PUSH1 0x20 ADD DUP3 DUP2 SUB DUP3 MSTORE PUSH1 0x36 DUP2 MSTORE PUSH1 0x20 ADD DUP1 PUSH3 0x38CE PUSH1 0x36 SWAP2 CODECOPY PUSH1 0x40 ADD SWAP2 POP POP PUSH1 0x40 MLOAD DUP1 SWAP2 SUB SWAP1 REVERT JUMPDEST PUSH1 0x40 DUP1 MLOAD PUSH1 0x1 PUSH1 0x1 PUSH1 0xA0 SHL SUB DUP5 AND PUSH1 0x24 DUP3 ADD MSTORE PUSH1 0x44 DUP1 DUP3 ADD DUP5 SWAP1 MSTORE DUP3 MLOAD DUP1 DUP4 SUB SWAP1 SWAP2 ADD DUP2 MSTORE PUSH1 0x64 SWAP1 SWAP2 ADD SWAP1 SWAP2 MSTORE PUSH1 0x20 DUP2 ADD DUP1 MLOAD PUSH1 0x1 PUSH1 0x1 PUSH1 0xE0 SHL SUB SWAP1 DUP2 AND PUSH4 0x95EA7B3 PUSH1 0xE0 SHL OR SWAP1 SWAP2 MSTORE PUSH3 0x307 SWAP2 DUP6 SWAP2 PUSH3 0x30C AND JUMP JUMPDEST POP POP POP JUMP JUMPDEST PUSH1 0x60 PUSH3 0x368 DUP3 PUSH1 0x40 MLOAD DUP1 PUSH1 0x40 ADD PUSH1 0x40 MSTORE DUP1 PUSH1 0x20 DUP2 MSTORE PUSH1 0x20 ADD PUSH32 0x5361666545524332303A206C6F772D6C6576656C2063616C6C206661696C6564 DUP2 MSTORE POP DUP6 PUSH1 0x1 PUSH1 0x1 PUSH1 0xA0 SHL SUB AND PUSH3 0x3C8 PUSH1 0x20 SHL PUSH3 0x226F OR SWAP1 SWAP3 SWAP2 SWAP1 PUSH1 0x20 SHR JUMP JUMPDEST DUP1 MLOAD SWAP1 SWAP2 POP ISZERO PUSH3 0x307 JUMPI DUP1 DUP1 PUSH1 0x20 ADD SWAP1 MLOAD PUSH1 0x20 DUP2 LT ISZERO PUSH3 0x389 JUMPI PUSH1 0x0 DUP1 REVERT JUMPDEST POP MLOAD PUSH3 0x307 JUMPI PUSH1 0x40 MLOAD PUSH3 0x461BCD PUSH1 0xE5 SHL DUP2 MSTORE PUSH1 0x4 ADD DUP1 DUP1 PUSH1 0x20 ADD DUP3 DUP2 SUB DUP3 MSTORE PUSH1 0x2A DUP2 MSTORE PUSH1 0x20 ADD DUP1 PUSH3 0x3882 PUSH1 0x2A SWAP2 CODECOPY PUSH1 0x40 ADD SWAP2 POP POP PUSH1 0x40 MLOAD DUP1 SWAP2 SUB SWAP1 REVERT JUMPDEST PUSH1 0x60 PUSH3 0x3D9 DUP5 DUP5 PUSH1 0x0 DUP6 PUSH3 0x3E3 JUMP JUMPDEST SWAP1 POP JUMPDEST SWAP4 SWAP3 POP POP POP JUMP JUMPDEST PUSH1 0x60 DUP3 SELFBALANCE LT ISZERO PUSH3 0x426 JUMPI PUSH1 0x40 MLOAD PUSH3 0x461BCD PUSH1 0xE5 SHL DUP2 MSTORE PUSH1 0x4 ADD DUP1 DUP1 PUSH1 0x20 ADD DUP3 DUP2 SUB DUP3 MSTORE PUSH1 0x26 DUP2 MSTORE PUSH1 0x20 ADD DUP1 PUSH3 0x385C PUSH1 0x26 SWAP2 CODECOPY PUSH1 0x40 ADD SWAP2 POP POP PUSH1 0x40 MLOAD DUP1 SWAP2 SUB SWAP1 REVERT JUMPDEST PUSH3 0x431 DUP6 PUSH3 0x54B JUMP JUMPDEST PUSH3 0x483 JUMPI PUSH1 0x40 DUP1 MLOAD PUSH3 0x461BCD PUSH1 0xE5 SHL DUP2 MSTORE PUSH1 0x20 PUSH1 0x4 DUP3 ADD MSTORE PUSH1 0x1D PUSH1 0x24 DUP3 ADD MSTORE PUSH32 0x416464726573733A2063616C6C20746F206E6F6E2D636F6E7472616374000000 PUSH1 0x44 DUP3 ADD MSTORE SWAP1 MLOAD SWAP1 DUP2 SWAP1 SUB PUSH1 0x64 ADD SWAP1 REVERT JUMPDEST PUSH1 0x0 PUSH1 0x60 DUP7 PUSH1 0x1 PUSH1 0x1 PUSH1 0xA0 SHL SUB AND DUP6 DUP8 PUSH1 0x40 MLOAD DUP1 DUP3 DUP1 MLOAD SWAP1 PUSH1 0x20 ADD SWAP1 DUP1 DUP4 DUP4 JUMPDEST PUSH1 0x20 DUP4 LT PUSH3 0x4C4 JUMPI DUP1 MLOAD DUP3 MSTORE PUSH1 0x1F NOT SWAP1 SWAP3 ADD SWAP2 PUSH1 0x20 SWAP2 DUP3 ADD SWAP2 ADD PUSH3 0x4A3 JUMP JUMPDEST PUSH1 0x1 DUP4 PUSH1 0x20 SUB PUSH2 0x100 EXP SUB DUP1 NOT DUP3 MLOAD AND DUP2 DUP5 MLOAD AND DUP1 DUP3 OR DUP6 MSTORE POP POP POP POP POP POP SWAP1 POP ADD SWAP2 POP POP PUSH1 0x0 PUSH1 0x40 MLOAD DUP1 DUP4 SUB DUP2 DUP6 DUP8 GAS CALL SWAP3 POP POP POP RETURNDATASIZE DUP1 PUSH1 0x0 DUP2 EQ PUSH3 0x528 JUMPI PUSH1 0x40 MLOAD SWAP2 POP PUSH1 0x1F NOT PUSH1 0x3F RETURNDATASIZE ADD AND DUP3 ADD PUSH1 0x40 MSTORE RETURNDATASIZE DUP3 MSTORE RETURNDATASIZE PUSH1 0x0 PUSH1 0x20 DUP5 ADD RETURNDATACOPY PUSH3 0x52D JUMP JUMPDEST PUSH1 0x60 SWAP2 POP JUMPDEST POP SWAP1 SWAP3 POP SWAP1 POP PUSH3 0x540 DUP3 DUP3 DUP7 PUSH3 0x551 JUMP JUMPDEST SWAP8 SWAP7 POP POP POP POP POP POP POP JUMP JUMPDEST EXTCODESIZE ISZERO ISZERO SWAP1 JUMP JUMPDEST PUSH1 0x60 DUP4 ISZERO PUSH3 0x562 JUMPI POP DUP2 PUSH3 0x3DC JUMP JUMPDEST DUP3 MLOAD ISZERO PUSH3 0x573 JUMPI DUP3 MLOAD DUP1 DUP5 PUSH1 0x20 ADD REVERT JUMPDEST DUP2 PUSH1 0x40 MLOAD PUSH3 0x461BCD PUSH1 0xE5 SHL DUP2 MSTORE PUSH1 0x4 ADD DUP1 DUP1 PUSH1 0x20 ADD DUP3 DUP2 SUB DUP3 MSTORE DUP4 DUP2 DUP2 MLOAD DUP2 MSTORE PUSH1 0x20 ADD SWAP2 POP DUP1 MLOAD SWAP1 PUSH1 0x20 ADD SWAP1 DUP1 DUP4 DUP4 PUSH1 0x0 JUMPDEST DUP4 DUP2 LT ISZERO PUSH3 0x5BF JUMPI DUP2 DUP2 ADD MLOAD DUP4 DUP3 ADD MSTORE PUSH1 0x20 ADD PUSH3 0x5A5 JUMP JUMPDEST POP POP POP POP SWAP1 POP SWAP1 DUP2 ADD SWAP1 PUSH1 0x1F AND DUP1 ISZERO PUSH3 0x5ED JUMPI DUP1 DUP3 SUB DUP1 MLOAD PUSH1 0x1 DUP4 PUSH1 0x20 SUB PUSH2 0x100 EXP SUB NOT AND DUP2 MSTORE PUSH1 0x20 ADD SWAP2 POP JUMPDEST POP SWAP3 POP POP POP PUSH1 0x40 MLOAD DUP1 SWAP2 SUB SWAP1 REVERT JUMPDEST PUSH1 0x80 MLOAD PUSH1 0x60 SHR PUSH1 0xA0 MLOAD PUSH1 0x60 SHR PUSH1 0xC0 MLOAD PUSH1 0x60 SHR PUSH2 0x31A6 PUSH3 0x690 PUSH1 0x0 CODECOPY DUP1 PUSH2 0xA50 MSTORE DUP1 PUSH2 0xDFC MSTORE DUP1 PUSH2 0x1033 MSTORE DUP1 PUSH2 0x1328 MSTORE DUP1 PUSH2 0x1751 MSTORE DUP1 PUSH2 0x1BEC MSTORE DUP1 PUSH2 0x2111 MSTORE DUP1 PUSH2 0x2636 MSTORE DUP1 PUSH2 0x29C9 MSTORE POP DUP1 PUSH2 0x1DF2 MSTORE DUP1 PUSH2 0x1F04 MSTORE POP DUP1 PUSH2 0xB48 MSTORE DUP1 PUSH2 0xBCF MSTORE DUP1 PUSH2 0xEC0 MSTORE DUP1 PUSH2 0xF15 MSTORE DUP1 PUSH2 0xF8C MSTORE DUP1 PUSH2 0x13F0 MSTORE DUP1 PUSH2 0x19F1 MSTORE DUP1 PUSH2 0x1D81 MSTORE DUP1 PUSH2 0x2135 MSTORE DUP1 PUSH2 0x2AC1 MSTORE DUP1 PUSH2 0x2B3D MSTORE POP PUSH2 0x31A6 PUSH1 0x0 RETURN INVALID PUSH1 0x80 PUSH1 0x40 MSTORE CALLVALUE DUP1 ISZERO PUSH2 0x10 JUMPI PUSH1 0x0 DUP1 REVERT JUMPDEST POP PUSH1 0x4 CALLDATASIZE LT PUSH2 0x289 JUMPI PUSH1 0x0 CALLDATALOAD PUSH1 0xE0 SHR DUP1 PUSH4 0x853828B6 GT PUSH2 0x15C JUMPI DUP1 PUSH4 0xDAD6F0DC GT PUSH2 0xCE JUMPI DUP1 PUSH4 0xEC78E832 GT PUSH2 0x87 JUMPI DUP1 PUSH4 0xEC78E832 EQ PUSH2 0x5A7 JUMPI DUP1 PUSH4 0xF0F44260 EQ PUSH2 0x5AF JUMPI DUP1 PUSH4 0xF2FDE38B EQ PUSH2 0x5D5 JUMPI DUP1 PUSH4 0xF851A440 EQ PUSH2 0x5FB JUMPI DUP1 PUSH4 0xFB1DB278 EQ PUSH2 0x603 JUMPI DUP1 PUSH4 0xFC0C546A EQ PUSH2 0x60B JUMPI PUSH2 0x289 JUMP JUMPDEST DUP1 PUSH4 0xDAD6F0DC EQ PUSH2 0x53B JUMPI DUP1 PUSH4 0xDB2E21BC EQ PUSH2 0x561 JUMPI DUP1 PUSH4 0xDD191719 EQ PUSH2 0x569 JUMPI DUP1 PUSH4 0xDEF68A9C EQ PUSH2 0x571 JUMPI DUP1 PUSH4 0xDF10B4E6 EQ PUSH2 0x597 JUMPI DUP1 PUSH4 0xE941FA78 EQ PUSH2 0x59F JUMPI PUSH2 0x289 JUMP JUMPDEST DUP1 PUSH4 0x9D72596B GT PUSH2 0x120 JUMPI DUP1 PUSH4 0x9D72596B EQ PUSH2 0x4E1 JUMPI DUP1 PUSH4 0xB60F0531 EQ PUSH2 0x4E9 JUMPI DUP1 PUSH4 0xB6AC642A EQ PUSH2 0x4F1 JUMPI DUP1 PUSH4 0xB6B55F25 EQ PUSH2 0x50E JUMPI DUP1 PUSH4 0xBDCA9165 EQ PUSH2 0x52B JUMPI DUP1 PUSH4 0xD4B0DE2F EQ PUSH2 0x533 JUMPI PUSH2 0x289 JUMP JUMPDEST DUP1 PUSH4 0x853828B6 EQ PUSH2 0x49E JUMPI DUP1 PUSH4 0x87788782 EQ PUSH2 0x4A6 JUMPI DUP1 PUSH4 0x8DA5CB5B EQ PUSH2 0x4AE JUMPI DUP1 PUSH4 0x90321E1A EQ PUSH2 0x4B6 JUMPI DUP1 PUSH4 0x9513997F EQ PUSH2 0x4BE JUMPI PUSH2 0x289 JUMP JUMPDEST DUP1 PUSH4 0x4641257D GT PUSH2 0x200 JUMPI DUP1 PUSH4 0x704B6C02 GT PUSH2 0x1B9 JUMPI DUP1 PUSH4 0x704B6C02 EQ PUSH2 0x43B JUMPI DUP1 PUSH4 0x70897B23 EQ PUSH2 0x461 JUMPI DUP1 PUSH4 0x715018A6 EQ PUSH2 0x47E JUMPI DUP1 PUSH4 0x722713F7 EQ PUSH2 0x486 JUMPI DUP1 PUSH4 0x77C7B8FC EQ PUSH2 0x48E JUMPI DUP1 PUSH4 0x8456CB59 EQ PUSH2 0x496 JUMPI PUSH2 0x289 JUMP JUMPDEST DUP1 PUSH4 0x4641257D EQ PUSH2 0x3DB JUMPI DUP1 PUSH4 0x48A0D754 EQ PUSH2 0x3E3 JUMPI DUP1 PUSH4 0x48CD4CB1 EQ PUSH2 0x3EB JUMPI DUP1 PUSH4 0x58EBCEB6 EQ PUSH2 0x3F3 JUMPI DUP1 PUSH4 0x5C975ABB EQ PUSH2 0x3FB JUMPI DUP1 PUSH4 0x61D027B3 EQ PUSH2 0x417 JUMPI PUSH2 0x289 JUMP JUMPDEST DUP1 PUSH4 0x26465826 GT PUSH2 0x252 JUMPI DUP1 PUSH4 0x26465826 EQ PUSH2 0x381 JUMPI DUP1 PUSH4 0x2AD5A53F EQ PUSH2 0x39E JUMPI DUP1 PUSH4 0x2CFC5F01 EQ PUSH2 0x3A6 JUMPI DUP1 PUSH4 0x2E1A7D4D EQ PUSH2 0x3AE JUMPI DUP1 PUSH4 0x3A98EF39 EQ PUSH2 0x3CB JUMPI DUP1 PUSH4 0x3F4BA83A EQ PUSH2 0x3D3 JUMPI PUSH2 0x289 JUMP JUMPDEST DUP1 PUSH3 0x6F0231 EQ PUSH2 0x28E JUMPI DUP1 PUSH4 0x6F5A745 EQ PUSH2 0x2AD JUMPI DUP1 PUSH4 0x83C6323 EQ PUSH2 0x2FE JUMPI DUP1 PUSH4 0x1959A002 EQ PUSH2 0x318 JUMPI DUP1 PUSH4 0x1EFAC1B8 EQ PUSH2 0x364 JUMPI JUMPDEST PUSH1 0x0 DUP1 REVERT JUMPDEST PUSH2 0x2AB PUSH1 0x4 DUP1 CALLDATASIZE SUB PUSH1 0x20 DUP2 LT ISZERO PUSH2 0x2A4 JUMPI PUSH1 0x0 DUP1 REVERT JUMPDEST POP CALLDATALOAD PUSH2 0x613 JUMP JUMPDEST STOP JUMPDEST PUSH2 0x2D3 PUSH1 0x4 DUP1 CALLDATASIZE SUB PUSH1 0x20 DUP2 LT ISZERO PUSH2 0x2C3 JUMPI PUSH1 0x0 DUP1 REVERT JUMPDEST POP CALLDATALOAD PUSH1 0x1 PUSH1 0x1 PUSH1 0xA0 SHL SUB AND PUSH2 0x719 JUMP JUMPDEST PUSH1 0x40 DUP1 MLOAD SWAP6 DUP7 MSTORE PUSH1 0x20 DUP7 ADD SWAP5 SWAP1 SWAP5 MSTORE DUP5 DUP5 ADD SWAP3 SWAP1 SWAP3 MSTORE PUSH1 0x60 DUP5 ADD MSTORE PUSH1 0x80 DUP4 ADD MSTORE MLOAD SWAP1 DUP2 SWAP1 SUB PUSH1 0xA0 ADD SWAP1 RETURN JUMPDEST PUSH2 0x306 PUSH2 0x748 JUMP JUMPDEST PUSH1 0x40 DUP1 MLOAD SWAP2 DUP3 MSTORE MLOAD SWAP1 DUP2 SWAP1 SUB PUSH1 0x20 ADD SWAP1 RETURN JUMPDEST PUSH2 0x33E PUSH1 0x4 DUP1 CALLDATASIZE SUB PUSH1 0x20 DUP2 LT ISZERO PUSH2 0x32E JUMPI PUSH1 0x0 DUP1 REVERT JUMPDEST POP CALLDATALOAD PUSH1 0x1 PUSH1 0x1 PUSH1 0xA0 SHL SUB AND PUSH2 0x74E JUMP JUMPDEST PUSH1 0x40 DUP1 MLOAD SWAP5 DUP6 MSTORE PUSH1 0x20 DUP6 ADD SWAP4 SWAP1 SWAP4 MSTORE DUP4 DUP4 ADD SWAP2 SWAP1 SWAP2 MSTORE PUSH1 0x60 DUP4 ADD MSTORE MLOAD SWAP1 DUP2 SWAP1 SUB PUSH1 0x80 ADD SWAP1 RETURN JUMPDEST PUSH2 0x2AB PUSH1 0x4 DUP1 CALLDATASIZE SUB PUSH1 0x20 DUP2 LT ISZERO PUSH2 0x37A JUMPI PUSH1 0x0 DUP1 REVERT JUMPDEST POP CALLDATALOAD PUSH2 0x776 JUMP JUMPDEST PUSH2 0x2AB PUSH1 0x4 DUP1 CALLDATASIZE SUB PUSH1 0x20 DUP2 LT ISZERO PUSH2 0x397 JUMPI PUSH1 0x0 DUP1 REVERT JUMPDEST POP CALLDATALOAD PUSH2 0x80A JUMP JUMPDEST PUSH2 0x306 PUSH2 0x89C JUMP JUMPDEST PUSH2 0x306 PUSH2 0x8A1 JUMP JUMPDEST PUSH2 0x2AB PUSH1 0x4 DUP1 CALLDATASIZE SUB PUSH1 0x20 DUP2 LT ISZERO PUSH2 0x3C4 JUMPI PUSH1 0x0 DUP1 REVERT JUMPDEST POP CALLDATALOAD PUSH2 0x8A8 JUMP JUMPDEST PUSH2 0x306 PUSH2 0xC37 JUMP JUMPDEST PUSH2 0x2AB PUSH2 0xC3D JUMP JUMPDEST PUSH2 0x2AB PUSH2 0xD0D JUMP JUMPDEST PUSH2 0x306 PUSH2 0xF88 JUMP JUMPDEST PUSH2 0x306 PUSH2 0x1028 JUMP JUMPDEST PUSH2 0x306 PUSH2 0x102E JUMP JUMPDEST PUSH2 0x403 PUSH2 0x10ED JUMP JUMPDEST PUSH1 0x40 DUP1 MLOAD SWAP2 ISZERO ISZERO DUP3 MSTORE MLOAD SWAP1 DUP2 SWAP1 SUB PUSH1 0x20 ADD SWAP1 RETURN JUMPDEST PUSH2 0x41F PUSH2 0x10FD JUMP JUMPDEST PUSH1 0x40 DUP1 MLOAD PUSH1 0x1 PUSH1 0x1 PUSH1 0xA0 SHL SUB SWAP1 SWAP3 AND DUP3 MSTORE MLOAD SWAP1 DUP2 SWAP1 SUB PUSH1 0x20 ADD SWAP1 RETURN JUMPDEST PUSH2 0x2AB PUSH1 0x4 DUP1 CALLDATASIZE SUB PUSH1 0x20 DUP2 LT ISZERO PUSH2 0x451 JUMPI PUSH1 0x0 DUP1 REVERT JUMPDEST POP CALLDATALOAD PUSH1 0x1 PUSH1 0x1 PUSH1 0xA0 SHL SUB AND PUSH2 0x110C JUMP JUMPDEST PUSH2 0x2AB PUSH1 0x4 DUP1 CALLDATASIZE SUB PUSH1 0x20 DUP2 LT ISZERO PUSH2 0x477 JUMPI PUSH1 0x0 DUP1 REVERT JUMPDEST POP CALLDATALOAD PUSH2 0x11E4 JUMP JUMPDEST PUSH2 0x2AB PUSH2 0x1277 JUMP JUMPDEST PUSH2 0x306 PUSH2 0x1323 JUMP JUMPDEST PUSH2 0x306 PUSH2 0x1469 JUMP JUMPDEST PUSH2 0x2AB PUSH2 0x14A3 JUMP JUMPDEST PUSH2 0x2AB PUSH2 0x1570 JUMP JUMPDEST PUSH2 0x306 PUSH2 0x161F JUMP JUMPDEST PUSH2 0x41F PUSH2 0x1625 JUMP JUMPDEST PUSH2 0x306 PUSH2 0x1634 JUMP JUMPDEST PUSH2 0x2AB PUSH1 0x4 DUP1 CALLDATASIZE SUB PUSH1 0x40 DUP2 LT ISZERO PUSH2 0x4D4 JUMPI PUSH1 0x0 DUP1 REVERT JUMPDEST POP DUP1 CALLDATALOAD SWAP1 PUSH1 0x20 ADD CALLDATALOAD PUSH2 0x163A JUMP JUMPDEST PUSH2 0x306 PUSH2 0x174C JUMP JUMPDEST PUSH2 0x306 PUSH2 0x1814 JUMP JUMPDEST PUSH2 0x2AB PUSH1 0x4 DUP1 CALLDATASIZE SUB PUSH1 0x20 DUP2 LT ISZERO PUSH2 0x507 JUMPI PUSH1 0x0 DUP1 REVERT JUMPDEST POP CALLDATALOAD PUSH2 0x181A JUMP JUMPDEST PUSH2 0x2AB PUSH1 0x4 DUP1 CALLDATASIZE SUB PUSH1 0x20 DUP2 LT ISZERO PUSH2 0x524 JUMPI PUSH1 0x0 DUP1 REVERT JUMPDEST POP CALLDATALOAD PUSH2 0x18AD JUMP JUMPDEST PUSH2 0x306 PUSH2 0x1B39 JUMP JUMPDEST PUSH2 0x306 PUSH2 0x1B3F JUMP JUMPDEST PUSH2 0x306 PUSH1 0x4 DUP1 CALLDATASIZE SUB PUSH1 0x20 DUP2 LT ISZERO PUSH2 0x551 JUMPI PUSH1 0x0 DUP1 REVERT JUMPDEST POP CALLDATALOAD PUSH1 0x1 PUSH1 0x1 PUSH1 0xA0 SHL SUB AND PUSH2 0x1B45 JUMP JUMPDEST PUSH2 0x2AB PUSH2 0x1B9D JUMP JUMPDEST PUSH2 0x2AB PUSH2 0x1C7D JUMP JUMPDEST PUSH2 0x2AB PUSH1 0x4 DUP1 CALLDATASIZE SUB PUSH1 0x20 DUP2 LT ISZERO PUSH2 0x587 JUMPI PUSH1 0x0 DUP1 REVERT JUMPDEST POP CALLDATALOAD PUSH1 0x1 PUSH1 0x1 PUSH1 0xA0 SHL SUB AND PUSH2 0x1D32 JUMP JUMPDEST PUSH2 0x306 PUSH2 0x1EF6 JUMP JUMPDEST PUSH2 0x306 PUSH2 0x1EFC JUMP JUMPDEST PUSH2 0x41F PUSH2 0x1F02 JUMP JUMPDEST PUSH2 0x2AB PUSH1 0x4 DUP1 CALLDATASIZE SUB PUSH1 0x20 DUP2 LT ISZERO PUSH2 0x5C5 JUMPI PUSH1 0x0 DUP1 REVERT JUMPDEST POP CALLDATALOAD PUSH1 0x1 PUSH1 0x1 PUSH1 0xA0 SHL SUB AND PUSH2 0x1F26 JUMP JUMPDEST PUSH2 0x2AB PUSH1 0x4 DUP1 CALLDATASIZE SUB PUSH1 0x20 DUP2 LT ISZERO PUSH2 0x5EB JUMPI PUSH1 0x0 DUP1 REVERT JUMPDEST POP CALLDATALOAD PUSH1 0x1 PUSH1 0x1 PUSH1 0xA0 SHL SUB AND PUSH2 0x1FFE JUMP JUMPDEST PUSH2 0x41F PUSH2 0x2100 JUMP JUMPDEST PUSH2 0x41F PUSH2 0x210F JUMP JUMPDEST PUSH2 0x41F PUSH2 0x2133 JUMP JUMPDEST PUSH1 0x7 SLOAD PUSH1 0x1 PUSH1 0x1 PUSH1 0xA0 SHL SUB AND CALLER EQ PUSH2 0x660 JUMPI PUSH1 0x40 DUP1 MLOAD PUSH3 0x461BCD PUSH1 0xE5 SHL DUP2 MSTORE PUSH1 0x20 PUSH1 0x4 DUP3 ADD MSTORE PUSH1 0xB PUSH1 0x24 DUP3 ADD MSTORE PUSH11 0x61646D696E3A207775743F PUSH1 0xA8 SHL PUSH1 0x44 DUP3 ADD MSTORE SWAP1 MLOAD SWAP1 DUP2 SWAP1 SUB PUSH1 0x64 ADD SWAP1 REVERT JUMPDEST DUP1 NUMBER LT PUSH2 0x69E JUMPI PUSH1 0x40 MLOAD PUSH3 0x461BCD PUSH1 0xE5 SHL DUP2 MSTORE PUSH1 0x4 ADD DUP1 DUP1 PUSH1 0x20 ADD DUP3 DUP2 SUB DUP3 MSTORE PUSH1 0x28 DUP2 MSTORE PUSH1 0x20 ADD DUP1 PUSH2 0x2F91 PUSH1 0x28 SWAP2 CODECOPY PUSH1 0x40 ADD SWAP2 POP POP PUSH1 0x40 MLOAD DUP1 SWAP2 SUB SWAP1 REVERT JUMPDEST PUSH1 0x4 SLOAD NUMBER LT PUSH2 0x6DE JUMPI PUSH1 0x40 MLOAD PUSH3 0x461BCD PUSH1 0xE5 SHL DUP2 MSTORE PUSH1 0x4 ADD DUP1 DUP1 PUSH1 0x20 ADD DUP3 DUP2 SUB DUP3 MSTORE PUSH1 0x28 DUP2 MSTORE PUSH1 0x20 ADD DUP1 PUSH2 0x30B9 PUSH1 0x28 SWAP2 CODECOPY PUSH1 0x40 ADD SWAP2 POP POP PUSH1 0x40 MLOAD DUP1 SWAP2 SUB SWAP1 REVERT JUMPDEST PUSH1 0x4 DUP2 SWAP1 SSTORE PUSH1 0x40 DUP1 MLOAD DUP3 DUP2 MSTORE SWAP1 MLOAD PUSH32 0x72A01621587849E39C667EB81696643997F818C6C286614CD1497E5EF2E9ECD6 SWAP2 DUP2 SWAP1 SUB PUSH1 0x20 ADD SWAP1 LOG1 POP JUMP JUMPDEST PUSH1 0x2 PUSH1 0x20 DUP2 SWAP1 MSTORE PUSH1 0x0 SWAP2 DUP3 MSTORE PUSH1 0x40 SWAP1 SWAP2 KECCAK256 DUP1 SLOAD PUSH1 0x1 DUP3 ADD SLOAD SWAP3 DUP3 ADD SLOAD PUSH1 0x3 DUP4 ADD SLOAD PUSH1 0x4 SWAP1 SWAP4 ADD SLOAD SWAP2 SWAP4 SWAP3 SWAP1 SWAP2 DUP6 JUMP JUMPDEST PUSH1 0x4 SLOAD DUP2 JUMP JUMPDEST PUSH1 0x1 PUSH1 0x20 DUP2 SWAP1 MSTORE PUSH1 0x0 SWAP2 DUP3 MSTORE PUSH1 0x40 SWAP1 SWAP2 KECCAK256 DUP1 SLOAD SWAP2 DUP2 ADD SLOAD PUSH1 0x2 DUP3 ADD SLOAD PUSH1 0x3 SWAP1 SWAP3 ADD SLOAD SWAP1 SWAP2 SWAP1 DUP5 JUMP JUMPDEST PUSH1 0x7 SLOAD PUSH1 0x1 PUSH1 0x1 PUSH1 0xA0 SHL SUB AND CALLER EQ PUSH2 0x7C3 JUMPI PUSH1 0x40 DUP1 MLOAD PUSH3 0x461BCD PUSH1 0xE5 SHL DUP2 MSTORE PUSH1 0x20 PUSH1 0x4 DUP3 ADD MSTORE PUSH1 0xB PUSH1 0x24 DUP3 ADD MSTORE PUSH11 0x61646D696E3A207775743F PUSH1 0xA8 SHL PUSH1 0x44 DUP3 ADD MSTORE SWAP1 MLOAD SWAP1 DUP2 SWAP1 SUB PUSH1 0x64 ADD SWAP1 REVERT JUMPDEST PUSH3 0x93A80 DUP2 GT ISZERO PUSH2 0x805 JUMPI PUSH1 0x40 MLOAD PUSH3 0x461BCD PUSH1 0xE5 SHL DUP2 MSTORE PUSH1 0x4 ADD DUP1 DUP1 PUSH1 0x20 ADD DUP3 DUP2 SUB DUP3 MSTORE PUSH1 0x3D DUP2 MSTORE PUSH1 0x20 ADD DUP1 PUSH2 0x307C PUSH1 0x3D SWAP2 CODECOPY PUSH1 0x40 ADD SWAP2 POP POP PUSH1 0x40 MLOAD DUP1 SWAP2 SUB SWAP1 REVERT JUMPDEST PUSH1 0xC SSTORE JUMP JUMPDEST PUSH1 0x7 SLOAD PUSH1 0x1 PUSH1 0x1 PUSH1 0xA0 SHL SUB AND CALLER EQ PUSH2 0x857 JUMPI PUSH1 0x40 DUP1 MLOAD PUSH3 0x461BCD PUSH1 0xE5 SHL DUP2 MSTORE PUSH1 0x20 PUSH1 0x4 DUP3 ADD MSTORE PUSH1 0xB PUSH1 0x24 DUP3 ADD MSTORE PUSH11 0x61646D696E3A207775743F PUSH1 0xA8 SHL PUSH1 0x44 DUP3 ADD MSTORE SWAP1 MLOAD SWAP1 DUP2 SWAP1 SUB PUSH1 0x64 ADD SWAP1 REVERT JUMPDEST PUSH1 0x64 DUP2 GT ISZERO PUSH2 0x897 JUMPI PUSH1 0x40 MLOAD PUSH3 0x461BCD PUSH1 0xE5 SHL DUP2 MSTORE PUSH1 0x4 ADD DUP1 DUP1 PUSH1 0x20 ADD DUP3 DUP2 SUB DUP3 MSTORE PUSH1 0x28 DUP2 MSTORE PUSH1 0x20 ADD DUP1 PUSH2 0x2F33 PUSH1 0x28 SWAP2 CODECOPY PUSH1 0x40 ADD SWAP2 POP POP PUSH1 0x40 MLOAD DUP1 SWAP2 SUB SWAP1 REVERT JUMPDEST PUSH1 0xA SSTORE JUMP JUMPDEST PUSH1 0x64 DUP2 JUMP JUMPDEST PUSH3 0x93A80 DUP2 JUMP JUMPDEST PUSH2 0x8B1 CALLER PUSH2 0x2288 JUMP JUMPDEST ISZERO PUSH2 0x8FA JUMPI PUSH1 0x40 DUP1 MLOAD PUSH3 0x461BCD PUSH1 0xE5 SHL DUP2 MSTORE PUSH1 0x20 PUSH1 0x4 DUP3 ADD MSTORE PUSH1 0x14 PUSH1 0x24 DUP3 ADD MSTORE PUSH20 0x18DBDB9D1C9858DD081B9BDD08185B1B1BDDD959 PUSH1 0x62 SHL PUSH1 0x44 DUP3 ADD MSTORE SWAP1 MLOAD SWAP1 DUP2 SWAP1 SUB PUSH1 0x64 ADD SWAP1 REVERT JUMPDEST CALLER ORIGIN EQ PUSH2 0x93C JUMPI PUSH1 0x40 DUP1 MLOAD PUSH3 0x461BCD PUSH1 0xE5 SHL DUP2 MSTORE PUSH1 0x20 PUSH1 0x4 DUP3 ADD MSTORE PUSH1 0x1A PUSH1 0x24 DUP3 ADD MSTORE PUSH1 0x0 DUP1 MLOAD PUSH1 0x20 PUSH2 0x2FB9 DUP4 CODECOPY DUP2 MLOAD SWAP2 MSTORE PUSH1 0x44 DUP3 ADD MSTORE SWAP1 MLOAD SWAP1 DUP2 SWAP1 SUB PUSH1 0x64 ADD SWAP1 REVERT JUMPDEST CALLER PUSH1 0x0 SWAP1 DUP2 MSTORE PUSH1 0x1 PUSH1 0x20 MSTORE PUSH1 0x40 SWAP1 KECCAK256 DUP2 PUSH2 0x993 JUMPI PUSH1 0x40 DUP1 MLOAD PUSH3 0x461BCD PUSH1 0xE5 SHL DUP2 MSTORE PUSH1 0x20 PUSH1 0x4 DUP3 ADD MSTORE PUSH1 0x13 PUSH1 0x24 DUP3 ADD MSTORE PUSH19 0x4E6F7468696E6720746F207769746864726177 PUSH1 0x68 SHL PUSH1 0x44 DUP3 ADD MSTORE SWAP1 MLOAD SWAP1 DUP2 SWAP1 SUB PUSH1 0x64 ADD SWAP1 REVERT JUMPDEST DUP1 SLOAD DUP3 GT ISZERO PUSH2 0x9E9 JUMPI PUSH1 0x40 DUP1 MLOAD PUSH3 0x461BCD PUSH1 0xE5 SHL DUP2 MSTORE PUSH1 0x20 PUSH1 0x4 DUP3 ADD MSTORE PUSH1 0x1F PUSH1 0x24 DUP3 ADD MSTORE PUSH32 0x576974686472617720616D6F756E7420657863656564732062616C616E636500 PUSH1 0x44 DUP3 ADD MSTORE SWAP1 MLOAD SWAP1 DUP2 SWAP1 SUB PUSH1 0x64 ADD SWAP1 REVERT JUMPDEST PUSH1 0x0 PUSH2 0xA09 PUSH1 0x5 SLOAD PUSH2 0xA03 DUP6 PUSH2 0x9FD PUSH2 0x1323 JUMP JUMPDEST SWAP1 PUSH2 0x228E JUMP JUMPDEST SWAP1 PUSH2 0x22F0 JUMP JUMPDEST DUP3 SLOAD SWAP1 SWAP2 POP DUP2 SWAP1 PUSH2 0xA1A SWAP1 DUP6 PUSH2 0x2357 JUMP JUMPDEST DUP4 SSTORE PUSH1 0x5 SLOAD PUSH2 0xA29 SWAP1 DUP6 PUSH2 0x2357 JUMP JUMPDEST PUSH1 0x5 SSTORE PUSH1 0x0 PUSH2 0xA36 PUSH2 0xF88 JUMP JUMPDEST SWAP1 POP DUP3 DUP2 LT ISZERO PUSH2 0xAFF JUMPI PUSH1 0x0 PUSH2 0xA4C DUP5 DUP4 PUSH2 0x2357 JUMP JUMPDEST SWAP1 POP PUSH32 0x0 PUSH1 0x1 PUSH1 0x1 PUSH1 0xA0 SHL SUB AND PUSH4 0x1058D281 DUP3 PUSH1 0x40 MLOAD DUP3 PUSH4 0xFFFFFFFF AND PUSH1 0xE0 SHL DUP2 MSTORE PUSH1 0x4 ADD DUP1 DUP3 DUP2 MSTORE PUSH1 0x20 ADD SWAP2 POP POP PUSH1 0x0 PUSH1 0x40 MLOAD DUP1 DUP4 SUB DUP2 PUSH1 0x0 DUP8 DUP1 EXTCODESIZE ISZERO DUP1 ISZERO PUSH2 0xAB4 JUMPI PUSH1 0x0 DUP1 REVERT JUMPDEST POP GAS CALL ISZERO DUP1 ISZERO PUSH2 0xAC8 JUMPI RETURNDATASIZE PUSH1 0x0 DUP1 RETURNDATACOPY RETURNDATASIZE PUSH1 0x0 REVERT JUMPDEST POP POP POP POP PUSH1 0x0 PUSH2 0xAD6 PUSH2 0xF88 JUMP JUMPDEST SWAP1 POP PUSH1 0x0 PUSH2 0xAE4 DUP3 DUP6 PUSH2 0x2357 JUMP JUMPDEST SWAP1 POP DUP3 DUP2 LT ISZERO PUSH2 0xAFB JUMPI PUSH2 0xAF8 DUP5 DUP3 PUSH2 0x23B4 JUMP JUMPDEST SWAP6 POP JUMPDEST POP POP POP JUMPDEST PUSH1 0xC SLOAD PUSH1 0x1 DUP6 ADD SLOAD PUSH2 0xB10 SWAP2 PUSH2 0x23B4 JUMP JUMPDEST TIMESTAMP LT ISZERO PUSH2 0xB7F JUMPI PUSH1 0x0 PUSH2 0xB34 PUSH2 0x2710 PUSH2 0xA03 PUSH1 0xB SLOAD DUP8 PUSH2 0x228E SWAP1 SWAP2 SWAP1 PUSH4 0xFFFFFFFF AND JUMP JUMPDEST PUSH1 0x8 SLOAD SWAP1 SWAP2 POP PUSH2 0xB71 SWAP1 PUSH1 0x1 PUSH1 0x1 PUSH1 0xA0 SHL SUB PUSH32 0x0 DUP2 AND SWAP2 AND DUP4 PUSH2 0x240E JUMP JUMPDEST PUSH2 0xB7B DUP5 DUP3 PUSH2 0x2357 JUMP JUMPDEST SWAP4 POP POP JUMPDEST DUP4 SLOAD ISZERO PUSH2 0xBA9 JUMPI PUSH2 0xB9F PUSH1 0x5 SLOAD PUSH2 0xA03 PUSH2 0xB97 PUSH2 0x1323 JUMP JUMPDEST DUP8 SLOAD SWAP1 PUSH2 0x228E JUMP JUMPDEST PUSH1 0x2 DUP6 ADD SSTORE PUSH2 0xBB1 JUMP JUMPDEST PUSH1 0x0 PUSH1 0x2 DUP6 ADD SSTORE JUMPDEST TIMESTAMP PUSH1 0x3 DUP6 ADD SSTORE PUSH2 0xBC2 DUP3 PUSH1 0x1 PUSH2 0x2460 JUMP JUMPDEST PUSH2 0xBF6 PUSH1 0x1 PUSH1 0x1 PUSH1 0xA0 SHL SUB PUSH32 0x0 AND CALLER DUP6 PUSH2 0x240E JUMP JUMPDEST PUSH1 0x40 DUP1 MLOAD DUP5 DUP2 MSTORE PUSH1 0x20 DUP2 ADD DUP8 SWAP1 MSTORE DUP2 MLOAD CALLER SWAP3 PUSH32 0xF279E6A1F5E320CCA91135676D9CB6E44CA8A08C0B88342BCDB1144F6511B568 SWAP3 DUP3 SWAP1 SUB ADD SWAP1 LOG2 POP POP POP POP POP JUMP JUMPDEST PUSH1 0x5 SLOAD DUP2 JUMP JUMPDEST PUSH1 0x7 SLOAD PUSH1 0x1 PUSH1 0x1 PUSH1 0xA0 SHL SUB AND CALLER EQ PUSH2 0xC8A JUMPI PUSH1 0x40 DUP1 MLOAD PUSH3 0x461BCD PUSH1 0xE5 SHL DUP2 MSTORE PUSH1 0x20 PUSH1 0x4 DUP3 ADD MSTORE PUSH1 0xB PUSH1 0x24 DUP3 ADD MSTORE PUSH11 0x61646D696E3A207775743F PUSH1 0xA8 SHL PUSH1 0x44 DUP3 ADD MSTORE SWAP1 MLOAD SWAP1 DUP2 SWAP1 SUB PUSH1 0x64 ADD SWAP1 REVERT JUMPDEST PUSH2 0xC92 PUSH2 0x10ED JUMP JUMPDEST PUSH2 0xCDA JUMPI PUSH1 0x40 DUP1 MLOAD PUSH3 0x461BCD PUSH1 0xE5 SHL DUP2 MSTORE PUSH1 0x20 PUSH1 0x4 DUP3 ADD MSTORE PUSH1 0x14 PUSH1 0x24 DUP3 ADD MSTORE PUSH20 0x14185D5CD8589B194E881B9BDD081C185D5CD959 PUSH1 0x62 SHL PUSH1 0x44 DUP3 ADD MSTORE SWAP1 MLOAD SWAP1 DUP2 SWAP1 SUB PUSH1 0x64 ADD SWAP1 REVERT JUMPDEST PUSH2 0xCE2 PUSH2 0x257F JUMP JUMPDEST PUSH1 0x40 MLOAD PUSH32 0x7805862F689E2F13DF9F062FF482AD3AD112ACA9E0847911ED832E158C525B33 SWAP1 PUSH1 0x0 SWAP1 LOG1 JUMP JUMPDEST PUSH2 0xD16 CALLER PUSH2 0x2288 JUMP JUMPDEST ISZERO PUSH2 0xD5F JUMPI PUSH1 0x40 DUP1 MLOAD PUSH3 0x461BCD PUSH1 0xE5 SHL DUP2 MSTORE PUSH1 0x20 PUSH1 0x4 DUP3 ADD MSTORE PUSH1 0x14 PUSH1 0x24 DUP3 ADD MSTORE PUSH20 0x18DBDB9D1C9858DD081B9BDD08185B1B1BDDD959 PUSH1 0x62 SHL PUSH1 0x44 DUP3 ADD MSTORE SWAP1 MLOAD SWAP1 DUP2 SWAP1 SUB PUSH1 0x64 ADD SWAP1 REVERT JUMPDEST CALLER ORIGIN EQ PUSH2 0xDA1 JUMPI PUSH1 0x40 DUP1 MLOAD PUSH3 0x461BCD PUSH1 0xE5 SHL DUP2 MSTORE PUSH1 0x20 PUSH1 0x4 DUP3 ADD MSTORE PUSH1 0x1A PUSH1 0x24 DUP3 ADD MSTORE PUSH1 0x0 DUP1 MLOAD PUSH1 0x20 PUSH2 0x2FB9 DUP4 CODECOPY DUP2 MLOAD SWAP2 MSTORE PUSH1 0x44 DUP3 ADD MSTORE SWAP1 MLOAD SWAP1 DUP2 SWAP1 SUB PUSH1 0x64 ADD SWAP1 REVERT JUMPDEST PUSH2 0xDA9 PUSH2 0x10ED JUMP JUMPDEST ISZERO PUSH2 0xDEE JUMPI PUSH1 0x40 DUP1 MLOAD PUSH3 0x461BCD PUSH1 0xE5 SHL DUP2 MSTORE PUSH1 0x20 PUSH1 0x4 DUP3 ADD MSTORE PUSH1 0x10 PUSH1 0x24 DUP3 ADD MSTORE PUSH16 0x14185D5CD8589B194E881C185D5CD959 PUSH1 0x82 SHL PUSH1 0x44 DUP3 ADD MSTORE SWAP1 MLOAD SWAP1 DUP2 SWAP1 SUB PUSH1 0x64 ADD SWAP1 REVERT JUMPDEST PUSH1 0x0 PUSH2 0xDF8 PUSH2 0xF88 JUMP JUMPDEST SWAP1 POP PUSH32 0x0 PUSH1 0x1 PUSH1 0x1 PUSH1 0xA0 SHL SUB AND PUSH4 0x1058D281 PUSH1 0x0 PUSH1 0x40 MLOAD DUP3 PUSH4 0xFFFFFFFF AND PUSH1 0xE0 SHL DUP2 MSTORE PUSH1 0x4 ADD DUP1 DUP3 DUP2 MSTORE PUSH1 0x20 ADD SWAP2 POP POP PUSH1 0x0 PUSH1 0x40 MLOAD DUP1 DUP4 SUB DUP2 PUSH1 0x0 DUP8 DUP1 EXTCODESIZE ISZERO DUP1 ISZERO PUSH2 0xE61 JUMPI PUSH1 0x0 DUP1 REVERT JUMPDEST POP GAS CALL ISZERO DUP1 ISZERO PUSH2 0xE75 JUMPI RETURNDATASIZE PUSH1 0x0 DUP1 RETURNDATACOPY RETURNDATASIZE PUSH1 0x0 REVERT JUMPDEST POP POP POP POP PUSH1 0x0 PUSH2 0xE8D DUP3 PUSH2 0xE87 PUSH2 0xF88 JUMP JUMPDEST SWAP1 PUSH2 0x2357 JUMP JUMPDEST SWAP1 POP PUSH1 0x0 PUSH2 0xEAC PUSH2 0x2710 PUSH2 0xA03 PUSH1 0x9 SLOAD DUP6 PUSH2 0x228E SWAP1 SWAP2 SWAP1 PUSH4 0xFFFFFFFF AND JUMP JUMPDEST PUSH1 0x8 SLOAD SWAP1 SWAP2 POP PUSH2 0xEE9 SWAP1 PUSH1 0x1 PUSH1 0x1 PUSH1 0xA0 SHL SUB PUSH32 0x0 DUP2 AND SWAP2 AND DUP4 PUSH2 0x240E JUMP JUMPDEST PUSH1 0x0 PUSH2 0xF06 PUSH2 0x2710 PUSH2 0xA03 PUSH1 0xA SLOAD DUP7 PUSH2 0x228E SWAP1 SWAP2 SWAP1 PUSH4 0xFFFFFFFF AND JUMP JUMPDEST SWAP1 POP PUSH2 0xF3C PUSH1 0x1 PUSH1 0x1 PUSH1 0xA0 SHL SUB PUSH32 0x0 AND CALLER DUP4 PUSH2 0x240E JUMP JUMPDEST PUSH2 0xF44 PUSH2 0x2622 JUMP JUMPDEST TIMESTAMP PUSH1 0x6 SSTORE PUSH1 0x40 DUP1 MLOAD DUP4 DUP2 MSTORE PUSH1 0x20 DUP2 ADD DUP4 SWAP1 MSTORE DUP2 MLOAD CALLER SWAP3 PUSH32 0x71BAB65CED2E5750775A0613BE067DF48EF06CF92A496EBF7663AE0660924954 SWAP3 DUP3 SWAP1 SUB ADD SWAP1 LOG2 POP POP POP POP JUMP JUMPDEST PUSH1 0x0 PUSH32 0x0 PUSH1 0x1 PUSH1 0x1 PUSH1 0xA0 SHL SUB AND PUSH4 0x70A08231 ADDRESS PUSH1 0x40 MLOAD DUP3 PUSH4 0xFFFFFFFF AND PUSH1 0xE0 SHL DUP2 MSTORE PUSH1 0x4 ADD DUP1 DUP3 PUSH1 0x1 PUSH1 0x1 PUSH1 0xA0 SHL SUB AND DUP2 MSTORE PUSH1 0x20 ADD SWAP2 POP POP PUSH1 0x20 PUSH1 0x40 MLOAD DUP1 DUP4 SUB DUP2 DUP7 DUP1 EXTCODESIZE ISZERO DUP1 ISZERO PUSH2 0xFF7 JUMPI PUSH1 0x0 DUP1 REVERT JUMPDEST POP GAS STATICCALL ISZERO DUP1 ISZERO PUSH2 0x100B JUMPI RETURNDATASIZE PUSH1 0x0 DUP1 RETURNDATACOPY RETURNDATASIZE PUSH1 0x0 REVERT JUMPDEST POP POP POP POP PUSH1 0x40 MLOAD RETURNDATASIZE PUSH1 0x20 DUP2 LT ISZERO PUSH2 0x1021 JUMPI PUSH1 0x0 DUP1 REVERT JUMPDEST POP MLOAD SWAP1 POP SWAP1 JUMP JUMPDEST PUSH1 0x3 SLOAD DUP2 JUMP JUMPDEST PUSH1 0x0 DUP1 PUSH32 0x0 PUSH1 0x1 PUSH1 0x1 PUSH1 0xA0 SHL SUB AND PUSH4 0x1175A1DD PUSH1 0x0 ADDRESS PUSH1 0x40 MLOAD DUP4 PUSH4 0xFFFFFFFF AND PUSH1 0xE0 SHL DUP2 MSTORE PUSH1 0x4 ADD DUP1 DUP4 DUP2 MSTORE PUSH1 0x20 ADD DUP3 PUSH1 0x1 PUSH1 0x1 PUSH1 0xA0 SHL SUB AND DUP2 MSTORE PUSH1 0x20 ADD SWAP3 POP POP POP PUSH1 0x20 PUSH1 0x40 MLOAD DUP1 DUP4 SUB DUP2 DUP7 DUP1 EXTCODESIZE ISZERO DUP1 ISZERO PUSH2 0x10A7 JUMPI PUSH1 0x0 DUP1 REVERT JUMPDEST POP GAS STATICCALL ISZERO DUP1 ISZERO PUSH2 0x10BB JUMPI RETURNDATASIZE PUSH1 0x0 DUP1 RETURNDATACOPY RETURNDATASIZE PUSH1 0x0 REVERT JUMPDEST POP POP POP POP PUSH1 0x40 MLOAD RETURNDATASIZE PUSH1 0x20 DUP2 LT ISZERO PUSH2 0x10D1 JUMPI PUSH1 0x0 DUP1 REVERT JUMPDEST POP MLOAD SWAP1 POP PUSH2 0x10E7 PUSH2 0x10E0 PUSH2 0xF88 JUMP JUMPDEST DUP3 SWAP1 PUSH2 0x23B4 JUMP JUMPDEST SWAP2 POP POP SWAP1 JUMP JUMPDEST PUSH1 0x0 SLOAD PUSH1 0x1 PUSH1 0xA0 SHL SWAP1 DIV PUSH1 0xFF AND SWAP1 JUMP JUMPDEST PUSH1 0x8 SLOAD PUSH1 0x1 PUSH1 0x1 PUSH1 0xA0 SHL SUB AND DUP2 JUMP JUMPDEST PUSH2 0x1114 PUSH2 0x26B6 JUMP JUMPDEST PUSH1 0x1 PUSH1 0x1 PUSH1 0xA0 SHL SUB AND PUSH2 0x1125 PUSH2 0x1625 JUMP JUMPDEST PUSH1 0x1 PUSH1 0x1 PUSH1 0xA0 SHL SUB AND EQ PUSH2 0x116E JUMPI PUSH1 0x40 DUP1 MLOAD PUSH3 0x461BCD PUSH1 0xE5 SHL DUP2 MSTORE PUSH1 0x20 PUSH1 0x4 DUP3 ADD DUP2 SWAP1 MSTORE PUSH1 0x24 DUP3 ADD MSTORE PUSH1 0x0 DUP1 MLOAD PUSH1 0x20 PUSH2 0x2FFA DUP4 CODECOPY DUP2 MLOAD SWAP2 MSTORE PUSH1 0x44 DUP3 ADD MSTORE SWAP1 MLOAD SWAP1 DUP2 SWAP1 SUB PUSH1 0x64 ADD SWAP1 REVERT JUMPDEST PUSH1 0x1 PUSH1 0x1 PUSH1 0xA0 SHL SUB DUP2 AND PUSH2 0x11C2 JUMPI PUSH1 0x40 DUP1 MLOAD PUSH3 0x461BCD PUSH1 0xE5 SHL DUP2 MSTORE PUSH1 0x20 PUSH1 0x4 DUP3 ADD MSTORE PUSH1 0x16 PUSH1 0x24 DUP3 ADD MSTORE PUSH22 0x43616E6E6F74206265207A65726F2061646472657373 PUSH1 0x50 SHL PUSH1 0x44 DUP3 ADD MSTORE SWAP1 MLOAD SWAP1 DUP2 SWAP1 SUB PUSH1 0x64 ADD SWAP1 REVERT JUMPDEST PUSH1 0x7 DUP1 SLOAD PUSH1 0x1 PUSH1 0x1 PUSH1 0xA0 SHL SUB NOT AND PUSH1 0x1 PUSH1 0x1 PUSH1 0xA0 SHL SUB SWAP3 SWAP1 SWAP3 AND SWAP2 SWAP1 SWAP2 OR SWAP1 SSTORE JUMP JUMPDEST PUSH1 0x7 SLOAD PUSH1 0x1 PUSH1 0x1 PUSH1 0xA0 SHL SUB AND CALLER EQ PUSH2 0x1231 JUMPI PUSH1 0x40 DUP1 MLOAD PUSH3 0x461BCD PUSH1 0xE5 SHL DUP2 MSTORE PUSH1 0x20 PUSH1 0x4 DUP3 ADD MSTORE PUSH1 0xB PUSH1 0x24 DUP3 ADD MSTORE PUSH11 0x61646D696E3A207775743F PUSH1 0xA8 SHL PUSH1 0x44 DUP3 ADD MSTORE SWAP1 MLOAD SWAP1 DUP2 SWAP1 SUB PUSH1 0x64 ADD SWAP1 REVERT JUMPDEST PUSH2 0x258 DUP2 GT ISZERO PUSH2 0x1272 JUMPI PUSH1 0x40 MLOAD PUSH3 0x461BCD PUSH1 0xE5 SHL DUP2 MSTORE PUSH1 0x4 ADD DUP1 DUP1 PUSH1 0x20 ADD DUP3 DUP2 SUB DUP3 MSTORE PUSH1 0x36 DUP2 MSTORE PUSH1 0x20 ADD DUP1 PUSH2 0x2F5B PUSH1 0x36 SWAP2 CODECOPY PUSH1 0x40 ADD SWAP2 POP POP PUSH1 0x40 MLOAD DUP1 SWAP2 SUB SWAP1 REVERT JUMPDEST PUSH1 0x9 SSTORE JUMP JUMPDEST PUSH2 0x127F PUSH2 0x26B6 JUMP JUMPDEST PUSH1 0x1 PUSH1 0x1 PUSH1 0xA0 SHL SUB AND PUSH2 0x1290 PUSH2 0x1625 JUMP JUMPDEST PUSH1 0x1 PUSH1 0x1 PUSH1 0xA0 SHL SUB AND EQ PUSH2 0x12D9 JUMPI PUSH1 0x40 DUP1 MLOAD PUSH3 0x461BCD PUSH1 0xE5 SHL DUP2 MSTORE PUSH1 0x20 PUSH1 0x4 DUP3 ADD DUP2 SWAP1 MSTORE PUSH1 0x24 DUP3 ADD MSTORE PUSH1 0x0 DUP1 MLOAD PUSH1 0x20 PUSH2 0x2FFA DUP4 CODECOPY DUP2 MLOAD SWAP2 MSTORE PUSH1 0x44 DUP3 ADD MSTORE SWAP1 MLOAD SWAP1 DUP2 SWAP1 SUB PUSH1 0x64 ADD SWAP1 REVERT JUMPDEST PUSH1 0x0 DUP1 SLOAD PUSH1 0x40 MLOAD PUSH1 0x1 PUSH1 0x1 PUSH1 0xA0 SHL SUB SWAP1 SWAP2 AND SWAP1 PUSH32 0x8BE0079C531659141344CD1FD0A4F28419497F9722A3DAAFE3B4186F6B6457E0 SWAP1 DUP4 SWAP1 LOG3 PUSH1 0x0 DUP1 SLOAD PUSH1 0x1 PUSH1 0x1 PUSH1 0xA0 SHL SUB NOT AND SWAP1 SSTORE JUMP JUMPDEST PUSH1 0x0 DUP1 PUSH32 0x0 PUSH1 0x1 PUSH1 0x1 PUSH1 0xA0 SHL SUB AND PUSH4 0x93F1A40B PUSH1 0x0 ADDRESS PUSH1 0x40 MLOAD DUP4 PUSH4 0xFFFFFFFF AND PUSH1 0xE0 SHL DUP2 MSTORE PUSH1 0x4 ADD DUP1 DUP4 DUP2 MSTORE PUSH1 0x20 ADD DUP3 PUSH1 0x1 PUSH1 0x1 PUSH1 0xA0 SHL SUB AND DUP2 MSTORE PUSH1 0x20 ADD SWAP3 POP POP POP PUSH1 0x40 DUP1 MLOAD DUP1 DUP4 SUB DUP2 DUP7 DUP1 EXTCODESIZE ISZERO DUP1 ISZERO PUSH2 0x139B JUMPI PUSH1 0x0 DUP1 REVERT JUMPDEST POP GAS STATICCALL ISZERO DUP1 ISZERO PUSH2 0x13AF JUMPI RETURNDATASIZE PUSH1 0x0 DUP1 RETURNDATACOPY RETURNDATASIZE PUSH1 0x0 REVERT JUMPDEST POP POP POP POP PUSH1 0x40 MLOAD RETURNDATASIZE PUSH1 0x40 DUP2 LT ISZERO PUSH2 0x13C5 JUMPI PUSH1 0x0 DUP1 REVERT JUMPDEST POP MLOAD PUSH1 0x40 DUP1 MLOAD PUSH4 0x70A08231 PUSH1 0xE0 SHL DUP2 MSTORE ADDRESS PUSH1 0x4 DUP3 ADD MSTORE SWAP1 MLOAD SWAP2 SWAP3 POP PUSH2 0x10E7 SWAP2 DUP4 SWAP2 PUSH1 0x1 PUSH1 0x1 PUSH1 0xA0 SHL SUB PUSH32 0x0 AND SWAP2 PUSH4 0x70A08231 SWAP2 PUSH1 0x24 DUP1 DUP3 ADD SWAP3 PUSH1 0x20 SWAP3 SWAP1 SWAP2 SWAP1 DUP3 SWAP1 SUB ADD DUP2 DUP7 DUP1 EXTCODESIZE ISZERO DUP1 ISZERO PUSH2 0x1437 JUMPI PUSH1 0x0 DUP1 REVERT JUMPDEST POP GAS STATICCALL ISZERO DUP1 ISZERO PUSH2 0x144B JUMPI RETURNDATASIZE PUSH1 0x0 DUP1 RETURNDATACOPY RETURNDATASIZE PUSH1 0x0 REVERT JUMPDEST POP POP POP POP PUSH1 0x40 MLOAD RETURNDATASIZE PUSH1 0x20 DUP2 LT ISZERO PUSH2 0x1461 JUMPI PUSH1 0x0 DUP1 REVERT JUMPDEST POP MLOAD SWAP1 PUSH2 0x23B4 JUMP JUMPDEST PUSH1 0x0 PUSH1 0x5 SLOAD PUSH1 0x0 EQ PUSH2 0x1494 JUMPI PUSH2 0x148F PUSH1 0x5 SLOAD PUSH2 0xA03 PUSH8 0xDE0B6B3A7640000 PUSH2 0x9FD PUSH2 0x1323 JUMP JUMPDEST PUSH2 0x149E JUMP JUMPDEST PUSH8 0xDE0B6B3A7640000 JUMPDEST SWAP1 POP SWAP1 JUMP JUMPDEST PUSH1 0x7 SLOAD PUSH1 0x1 PUSH1 0x1 PUSH1 0xA0 SHL SUB AND CALLER EQ PUSH2 0x14F0 JUMPI PUSH1 0x40 DUP1 MLOAD PUSH3 0x461BCD PUSH1 0xE5 SHL DUP2 MSTORE PUSH1 0x20 PUSH1 0x4 DUP3 ADD MSTORE PUSH1 0xB PUSH1 0x24 DUP3 ADD MSTORE PUSH11 0x61646D696E3A207775743F PUSH1 0xA8 SHL PUSH1 0x44 DUP3 ADD MSTORE SWAP1 MLOAD SWAP1 DUP2 SWAP1 SUB PUSH1 0x64 ADD SWAP1 REVERT JUMPDEST PUSH2 0x14F8 PUSH2 0x10ED JUMP JUMPDEST ISZERO PUSH2 0x153D JUMPI PUSH1 0x40 DUP1 MLOAD PUSH3 0x461BCD PUSH1 0xE5 SHL DUP2 MSTORE PUSH1 0x20 PUSH1 0x4 DUP3 ADD MSTORE PUSH1 0x10 PUSH1 0x24 DUP3 ADD MSTORE PUSH16 0x14185D5CD8589B194E881C185D5CD959 PUSH1 0x82 SHL PUSH1 0x44 DUP3 ADD MSTORE SWAP1 MLOAD SWAP1 DUP2 SWAP1 SUB PUSH1 0x64 ADD SWAP1 REVERT JUMPDEST PUSH2 0x1545 PUSH2 0x26BA JUMP JUMPDEST PUSH1 0x40 MLOAD PUSH32 0x6985A02210A168E66602D3235CB6DB0E70F92B3BA4D376A33C0F3D9434BFF625 SWAP1 PUSH1 0x0 SWAP1 LOG1 JUMP JUMPDEST PUSH2 0x1579 CALLER PUSH2 0x2288 JUMP JUMPDEST ISZERO PUSH2 0x15C2 JUMPI PUSH1 0x40 DUP1 MLOAD PUSH3 0x461BCD PUSH1 0xE5 SHL DUP2 MSTORE PUSH1 0x20 PUSH1 0x4 DUP3 ADD MSTORE PUSH1 0x14 PUSH1 0x24 DUP3 ADD MSTORE PUSH20 0x18DBDB9D1C9858DD081B9BDD08185B1B1BDDD959 PUSH1 0x62 SHL PUSH1 0x44 DUP3 ADD MSTORE SWAP1 MLOAD SWAP1 DUP2 SWAP1 SUB PUSH1 0x64 ADD SWAP1 REVERT JUMPDEST CALLER ORIGIN EQ PUSH2 0x1604 JUMPI PUSH1 0x40 DUP1 MLOAD PUSH3 0x461BCD PUSH1 0xE5 SHL DUP2 MSTORE PUSH1 0x20 PUSH1 0x4 DUP3 ADD MSTORE PUSH1 0x1A PUSH1 0x24 DUP3 ADD MSTORE PUSH1 0x0 DUP1 MLOAD PUSH1 0x20 PUSH2 0x2FB9 DUP4 CODECOPY DUP2 MLOAD SWAP2 MSTORE PUSH1 0x44 DUP3 ADD MSTORE SWAP1 MLOAD SWAP1 DUP2 SWAP1 SUB PUSH1 0x64 ADD SWAP1 REVERT JUMPDEST CALLER PUSH1 0x0 SWAP1 DUP2 MSTORE PUSH1 0x1 PUSH1 0x20 MSTORE PUSH1 0x40 SWAP1 KECCAK256 SLOAD PUSH2 0x161D SWAP1 PUSH2 0x8A8 JUMP JUMPDEST JUMP JUMPDEST PUSH1 0x9 SLOAD DUP2 JUMP JUMPDEST PUSH1 0x0 SLOAD PUSH1 0x1 PUSH1 0x1 PUSH1 0xA0 SHL SUB AND SWAP1 JUMP JUMPDEST PUSH1 0xA SLOAD DUP2 JUMP JUMPDEST PUSH1 0x7 SLOAD PUSH1 0x1 PUSH1 0x1 PUSH1 0xA0 SHL SUB AND CALLER EQ PUSH2 0x1687 JUMPI PUSH1 0x40 DUP1 MLOAD PUSH3 0x461BCD PUSH1 0xE5 SHL DUP2 MSTORE PUSH1 0x20 PUSH1 0x4 DUP3 ADD MSTORE PUSH1 0xB PUSH1 0x24 DUP3 ADD MSTORE PUSH11 0x61646D696E3A207775743F PUSH1 0xA8 SHL PUSH1 0x44 DUP3 ADD MSTORE SWAP1 MLOAD SWAP1 DUP2 SWAP1 SUB PUSH1 0x64 ADD SWAP1 REVERT JUMPDEST DUP2 NUMBER LT PUSH2 0x16C5 JUMPI PUSH1 0x40 MLOAD PUSH3 0x461BCD PUSH1 0xE5 SHL DUP2 MSTORE PUSH1 0x4 ADD DUP1 DUP1 PUSH1 0x20 ADD DUP3 DUP2 SUB DUP3 MSTORE PUSH1 0x34 DUP2 MSTORE PUSH1 0x20 ADD DUP1 PUSH2 0x3048 PUSH1 0x34 SWAP2 CODECOPY PUSH1 0x40 ADD SWAP2 POP POP PUSH1 0x40 MLOAD DUP1 SWAP2 SUB SWAP1 REVERT JUMPDEST DUP1 DUP3 LT PUSH2 0x1703 JUMPI PUSH1 0x40 MLOAD PUSH3 0x461BCD PUSH1 0xE5 SHL DUP2 MSTORE PUSH1 0x4 ADD DUP1 DUP1 PUSH1 0x20 ADD DUP3 DUP2 SUB DUP3 MSTORE PUSH1 0x2E DUP2 MSTORE PUSH1 0x20 ADD DUP1 PUSH2 0x2EBA PUSH1 0x2E SWAP2 CODECOPY PUSH1 0x40 ADD SWAP2 POP POP PUSH1 0x40 MLOAD DUP1 SWAP2 SUB SWAP1 REVERT JUMPDEST PUSH1 0x3 DUP3 SWAP1 SSTORE PUSH1 0x4 DUP2 SWAP1 SSTORE PUSH1 0x40 DUP1 MLOAD DUP4 DUP2 MSTORE PUSH1 0x20 DUP2 ADD DUP4 SWAP1 MSTORE DUP2 MLOAD PUSH32 0x53462FEC8F17A9D662E3778A6027B6C0C1AC0DA2390A991AA33CB3AA60CAE4E SWAP3 SWAP2 DUP2 SWAP1 SUB SWAP1 SWAP2 ADD SWAP1 LOG1 POP POP JUMP JUMPDEST PUSH1 0x0 DUP1 PUSH32 0x0 PUSH1 0x1 PUSH1 0x1 PUSH1 0xA0 SHL SUB AND PUSH4 0x1175A1DD PUSH1 0x0 ADDRESS PUSH1 0x40 MLOAD DUP4 PUSH4 0xFFFFFFFF AND PUSH1 0xE0 SHL DUP2 MSTORE PUSH1 0x4 ADD DUP1 DUP4 DUP2 MSTORE PUSH1 0x20 ADD DUP3 PUSH1 0x1 PUSH1 0x1 PUSH1 0xA0 SHL SUB AND DUP2 MSTORE PUSH1 0x20 ADD SWAP3 POP POP POP PUSH1 0x20 PUSH1 0x40 MLOAD DUP1 DUP4 SUB DUP2 DUP7 DUP1 EXTCODESIZE ISZERO DUP1 ISZERO PUSH2 0x17C5 JUMPI PUSH1 0x0 DUP1 REVERT JUMPDEST POP GAS STATICCALL ISZERO DUP1 ISZERO PUSH2 0x17D9 JUMPI RETURNDATASIZE PUSH1 0x0 DUP1 RETURNDATACOPY RETURNDATASIZE PUSH1 0x0 REVERT JUMPDEST POP POP POP POP PUSH1 0x40 MLOAD RETURNDATASIZE PUSH1 0x20 DUP2 LT ISZERO PUSH2 0x17EF JUMPI PUSH1 0x0 DUP1 REVERT JUMPDEST POP MLOAD PUSH1 0xA SLOAD SWAP1 SWAP2 POP PUSH1 0x0 SWAP1 PUSH2 0x180D SWAP1 PUSH2 0x2710 SWAP1 PUSH2 0xA03 SWAP1 DUP6 SWAP1 PUSH2 0x228E JUMP JUMPDEST SWAP3 POP POP POP SWAP1 JUMP JUMPDEST PUSH1 0x6 SLOAD DUP2 JUMP JUMPDEST PUSH1 0x7 SLOAD PUSH1 0x1 PUSH1 0x1 PUSH1 0xA0 SHL SUB AND CALLER EQ PUSH2 0x1867 JUMPI PUSH1 0x40 DUP1 MLOAD PUSH3 0x461BCD PUSH1 0xE5 SHL DUP2 MSTORE PUSH1 0x20 PUSH1 0x4 DUP3 ADD MSTORE PUSH1 0xB PUSH1 0x24 DUP3 ADD MSTORE PUSH11 0x61646D696E3A207775743F PUSH1 0xA8 SHL PUSH1 0x44 DUP3 ADD MSTORE SWAP1 MLOAD SWAP1 DUP2 SWAP1 SUB PUSH1 0x64 ADD SWAP1 REVERT JUMPDEST PUSH2 0x190 DUP2 GT ISZERO PUSH2 0x18A8 JUMPI PUSH1 0x40 MLOAD PUSH3 0x461BCD PUSH1 0xE5 SHL DUP2 MSTORE PUSH1 0x4 ADD DUP1 DUP1 PUSH1 0x20 ADD DUP3 DUP2 SUB DUP3 MSTORE PUSH1 0x30 DUP2 MSTORE PUSH1 0x20 ADD DUP1 PUSH2 0x310B PUSH1 0x30 SWAP2 CODECOPY PUSH1 0x40 ADD SWAP2 POP POP PUSH1 0x40 MLOAD DUP1 SWAP2 SUB SWAP1 REVERT JUMPDEST PUSH1 0xB SSTORE JUMP JUMPDEST PUSH2 0x18B5 PUSH2 0x10ED JUMP JUMPDEST ISZERO PUSH2 0x18FA JUMPI PUSH1 0x40 DUP1 MLOAD PUSH3 0x461BCD PUSH1 0xE5 SHL DUP2 MSTORE PUSH1 0x20 PUSH1 0x4 DUP3 ADD MSTORE PUSH1 0x10 PUSH1 0x24 DUP3 ADD MSTORE PUSH16 0x14185D5CD8589B194E881C185D5CD959 PUSH1 0x82 SHL PUSH1 0x44 DUP3 ADD MSTORE SWAP1 MLOAD SWAP1 DUP2 SWAP1 SUB PUSH1 0x64 ADD SWAP1 REVERT JUMPDEST PUSH2 0x1903 CALLER PUSH2 0x2288 JUMP JUMPDEST ISZERO PUSH2 0x194C JUMPI PUSH1 0x40 DUP1 MLOAD PUSH3 0x461BCD PUSH1 0xE5 SHL DUP2 MSTORE PUSH1 0x20 PUSH1 0x4 DUP3 ADD MSTORE PUSH1 0x14 PUSH1 0x24 DUP3 ADD MSTORE PUSH20 0x18DBDB9D1C9858DD081B9BDD08185B1B1BDDD959 PUSH1 0x62 SHL PUSH1 0x44 DUP3 ADD MSTORE SWAP1 MLOAD SWAP1 DUP2 SWAP1 SUB PUSH1 0x64 ADD SWAP1 REVERT JUMPDEST CALLER ORIGIN EQ PUSH2 0x198E JUMPI PUSH1 0x40 DUP1 MLOAD PUSH3 0x461BCD PUSH1 0xE5 SHL DUP2 MSTORE PUSH1 0x20 PUSH1 0x4 DUP3 ADD MSTORE PUSH1 0x1A PUSH1 0x24 DUP3 ADD MSTORE PUSH1 0x0 DUP1 MLOAD PUSH1 0x20 PUSH2 0x2FB9 DUP4 CODECOPY DUP2 MLOAD SWAP2 MSTORE PUSH1 0x44 DUP3 ADD MSTORE SWAP1 MLOAD SWAP1 DUP2 SWAP1 SUB PUSH1 0x64 ADD SWAP1 REVERT JUMPDEST PUSH1 0x0 DUP2 GT PUSH2 0x19D8 JUMPI PUSH1 0x40 DUP1 MLOAD PUSH3 0x461BCD PUSH1 0xE5 SHL DUP2 MSTORE PUSH1 0x20 PUSH1 0x4 DUP3 ADD MSTORE PUSH1 0x12 PUSH1 0x24 DUP3 ADD MSTORE PUSH18 0x139BDD1A1A5B99C81D1BC819195C1BDCDA5D PUSH1 0x72 SHL PUSH1 0x44 DUP3 ADD MSTORE SWAP1 MLOAD SWAP1 DUP2 SWAP1 SUB PUSH1 0x64 ADD SWAP1 REVERT JUMPDEST PUSH1 0x0 PUSH2 0x19E2 PUSH2 0x1323 JUMP JUMPDEST SWAP1 POP PUSH2 0x1A19 PUSH1 0x1 PUSH1 0x1 PUSH1 0xA0 SHL SUB PUSH32 0x0 AND CALLER ADDRESS DUP6 PUSH2 0x2743 JUMP JUMPDEST PUSH1 0x0 PUSH1 0x5 SLOAD PUSH1 0x0 EQ PUSH2 0x1A45 JUMPI PUSH2 0x1A3E DUP3 PUSH2 0xA03 PUSH1 0x5 SLOAD DUP7 PUSH2 0x228E SWAP1 SWAP2 SWAP1 PUSH4 0xFFFFFFFF AND JUMP JUMPDEST SWAP1 POP PUSH2 0x1A48 JUMP JUMPDEST POP DUP2 JUMPDEST PUSH1 0x0 DUP2 GT PUSH2 0x1A87 JUMPI PUSH1 0x40 MLOAD PUSH3 0x461BCD PUSH1 0xE5 SHL DUP2 MSTORE PUSH1 0x4 ADD DUP1 DUP1 PUSH1 0x20 ADD DUP3 DUP2 SUB DUP3 MSTORE PUSH1 0x2E DUP2 MSTORE PUSH1 0x20 ADD DUP1 PUSH2 0x301A PUSH1 0x2E SWAP2 CODECOPY PUSH1 0x40 ADD SWAP2 POP POP PUSH1 0x40 MLOAD DUP1 SWAP2 SUB SWAP1 REVERT JUMPDEST CALLER PUSH1 0x0 SWAP1 DUP2 MSTORE PUSH1 0x1 PUSH1 0x20 MSTORE PUSH1 0x40 SWAP1 KECCAK256 DUP1 SLOAD PUSH2 0x1AA2 SWAP1 DUP4 PUSH2 0x23B4 JUMP JUMPDEST DUP2 SSTORE TIMESTAMP PUSH1 0x1 DUP3 ADD SSTORE PUSH1 0x5 SLOAD PUSH2 0x1AB7 SWAP1 DUP4 PUSH2 0x23B4 JUMP JUMPDEST PUSH1 0x5 DUP2 SWAP1 SSTORE PUSH2 0x1AD3 SWAP1 PUSH2 0xA03 PUSH2 0x1ACB PUSH2 0x1323 JUMP JUMPDEST DUP5 SLOAD SWAP1 PUSH2 0x228E JUMP JUMPDEST PUSH1 0x2 DUP3 ADD SSTORE TIMESTAMP PUSH1 0x3 DUP3 ADD SSTORE PUSH2 0x1AE9 DUP5 PUSH1 0x0 PUSH2 0x2460 JUMP JUMPDEST PUSH2 0x1AF1 PUSH2 0x2622 JUMP JUMPDEST PUSH1 0x40 DUP1 MLOAD DUP6 DUP2 MSTORE PUSH1 0x20 DUP2 ADD DUP5 SWAP1 MSTORE TIMESTAMP DUP2 DUP4 ADD MSTORE SWAP1 MLOAD CALLER SWAP2 PUSH32 0x36AF321EC8D3C75236829C5317AFFD40DDB308863A1236D2D277A4025CCCEE1E SWAP2 SWAP1 DUP2 SWAP1 SUB PUSH1 0x60 ADD SWAP1 LOG2 POP POP POP POP JUMP JUMPDEST PUSH2 0x258 DUP2 JUMP JUMPDEST PUSH2 0x190 DUP2 JUMP JUMPDEST PUSH1 0x1 PUSH1 0x1 PUSH1 0xA0 SHL SUB DUP2 AND PUSH1 0x0 SWAP1 DUP2 MSTORE PUSH1 0x2 PUSH1 0x20 MSTORE PUSH1 0x40 DUP2 KECCAK256 PUSH2 0x1B65 PUSH2 0x27A3 JUMP JUMPDEST ISZERO PUSH2 0x1B92 JUMPI PUSH2 0x1B8B DUP2 PUSH1 0x2 ADD SLOAD DUP3 PUSH1 0x3 ADD SLOAD DUP4 PUSH1 0x0 ADD SLOAD DUP5 PUSH1 0x1 ADD SLOAD DUP6 PUSH1 0x4 ADD SLOAD PUSH2 0x27AB JUMP JUMPDEST SWAP2 POP PUSH2 0x1B97 JUMP JUMPDEST PUSH1 0x0 SWAP2 POP JUMPDEST POP SWAP2 SWAP1 POP JUMP JUMPDEST PUSH1 0x7 SLOAD PUSH1 0x1 PUSH1 0x1 PUSH1 0xA0 SHL SUB AND CALLER EQ PUSH2 0x1BEA JUMPI PUSH1 0x40 DUP1 MLOAD PUSH3 0x461BCD PUSH1 0xE5 SHL DUP2 MSTORE PUSH1 0x20 PUSH1 0x4 DUP3 ADD MSTORE PUSH1 0xB PUSH1 0x24 DUP3 ADD MSTORE PUSH11 0x61646D696E3A207775743F PUSH1 0xA8 SHL PUSH1 0x44 DUP3 ADD MSTORE SWAP1 MLOAD SWAP1 DUP2 SWAP1 SUB PUSH1 0x64 ADD SWAP1 REVERT JUMPDEST PUSH32 0x0 PUSH1 0x1 PUSH1 0x1 PUSH1 0xA0 SHL SUB AND PUSH4 0x5312EA8E PUSH1 0x0 PUSH1 0x40 MLOAD DUP3 PUSH4 0xFFFFFFFF AND PUSH1 0xE0 SHL DUP2 MSTORE PUSH1 0x4 ADD DUP1 DUP3 DUP2 MSTORE PUSH1 0x20 ADD SWAP2 POP POP PUSH1 0x0 PUSH1 0x40 MLOAD DUP1 DUP4 SUB DUP2 PUSH1 0x0 DUP8 DUP1 EXTCODESIZE ISZERO DUP1 ISZERO PUSH2 0x1C51 JUMPI PUSH1 0x0 DUP1 REVERT JUMPDEST POP GAS CALL ISZERO DUP1 ISZERO PUSH2 0x1C65 JUMPI RETURNDATASIZE PUSH1 0x0 DUP1 RETURNDATACOPY RETURNDATASIZE PUSH1 0x0 REVERT JUMPDEST POP POP POP POP PUSH2 0x1C71 PUSH2 0x10ED JUMP JUMPDEST PUSH2 0x161D JUMPI PUSH2 0x161D PUSH2 0x26BA JUMP JUMPDEST PUSH2 0x1C86 CALLER PUSH2 0x2288 JUMP JUMPDEST ISZERO PUSH2 0x1CCF JUMPI PUSH1 0x40 DUP1 MLOAD PUSH3 0x461BCD PUSH1 0xE5 SHL DUP2 MSTORE PUSH1 0x20 PUSH1 0x4 DUP3 ADD MSTORE PUSH1 0x14 PUSH1 0x24 DUP3 ADD MSTORE PUSH20 0x18DBDB9D1C9858DD081B9BDD08185B1B1BDDD959 PUSH1 0x62 SHL PUSH1 0x44 DUP3 ADD MSTORE SWAP1 MLOAD SWAP1 DUP2 SWAP1 SUB PUSH1 0x64 ADD SWAP1 REVERT JUMPDEST CALLER ORIGIN EQ PUSH2 0x1D11 JUMPI PUSH1 0x40 DUP1 MLOAD PUSH3 0x461BCD PUSH1 0xE5 SHL DUP2 MSTORE PUSH1 0x20 PUSH1 0x4 DUP3 ADD MSTORE PUSH1 0x1A PUSH1 0x24 DUP3 ADD MSTORE PUSH1 0x0 DUP1 MLOAD PUSH1 0x20 PUSH2 0x2FB9 DUP4 CODECOPY DUP2 MLOAD SWAP2 MSTORE PUSH1 0x44 DUP3 ADD MSTORE SWAP1 MLOAD SWAP1 DUP2 SWAP1 SUB PUSH1 0x64 ADD SWAP1 REVERT JUMPDEST PUSH2 0x1D19 PUSH2 0x285A JUMP JUMPDEST CALLER PUSH1 0x0 SWAP1 DUP2 MSTORE PUSH1 0x1 PUSH1 0x20 MSTORE PUSH1 0x40 SWAP1 KECCAK256 SLOAD PUSH2 0x161D SWAP1 PUSH2 0x28C3 JUMP JUMPDEST PUSH1 0x7 SLOAD PUSH1 0x1 PUSH1 0x1 PUSH1 0xA0 SHL SUB AND CALLER EQ PUSH2 0x1D7F JUMPI PUSH1 0x40 DUP1 MLOAD PUSH3 0x461BCD PUSH1 0xE5 SHL DUP2 MSTORE PUSH1 0x20 PUSH1 0x4 DUP3 ADD MSTORE PUSH1 0xB PUSH1 0x24 DUP3 ADD MSTORE PUSH11 0x61646D696E3A207775743F PUSH1 0xA8 SHL PUSH1 0x44 DUP3 ADD MSTORE SWAP1 MLOAD SWAP1 DUP2 SWAP1 SUB PUSH1 0x64 ADD SWAP1 REVERT JUMPDEST PUSH32 0x0 PUSH1 0x1 PUSH1 0x1 PUSH1 0xA0 SHL SUB AND DUP2 PUSH1 0x1 PUSH1 0x1 PUSH1 0xA0 SHL SUB AND EQ ISZERO PUSH2 0x1DF0 JUMPI PUSH1 0x40 MLOAD PUSH3 0x461BCD PUSH1 0xE5 SHL DUP2 MSTORE PUSH1 0x4 ADD DUP1 DUP1 PUSH1 0x20 ADD DUP3 DUP2 SUB DUP3 MSTORE PUSH1 0x25 DUP2 MSTORE PUSH1 0x20 ADD DUP1 PUSH2 0x2E95 PUSH1 0x25 SWAP2 CODECOPY PUSH1 0x40 ADD SWAP2 POP POP PUSH1 0x40 MLOAD DUP1 SWAP2 SUB SWAP1 REVERT JUMPDEST PUSH32 0x0 PUSH1 0x1 PUSH1 0x1 PUSH1 0xA0 SHL SUB AND DUP2 PUSH1 0x1 PUSH1 0x1 PUSH1 0xA0 SHL SUB AND EQ ISZERO PUSH2 0x1E61 JUMPI PUSH1 0x40 MLOAD PUSH3 0x461BCD PUSH1 0xE5 SHL DUP2 MSTORE PUSH1 0x4 ADD DUP1 DUP1 PUSH1 0x20 ADD DUP3 DUP2 SUB DUP3 MSTORE PUSH1 0x25 DUP2 MSTORE PUSH1 0x20 ADD DUP1 PUSH2 0x2F0E PUSH1 0x25 SWAP2 CODECOPY PUSH1 0x40 ADD SWAP2 POP POP PUSH1 0x40 MLOAD DUP1 SWAP2 SUB SWAP1 REVERT JUMPDEST PUSH1 0x0 DUP2 PUSH1 0x1 PUSH1 0x1 PUSH1 0xA0 SHL SUB AND PUSH4 0x70A08231 ADDRESS PUSH1 0x40 MLOAD DUP3 PUSH4 0xFFFFFFFF AND PUSH1 0xE0 SHL DUP2 MSTORE PUSH1 0x4 ADD DUP1 DUP3 PUSH1 0x1 PUSH1 0x1 PUSH1 0xA0 SHL SUB AND DUP2 MSTORE PUSH1 0x20 ADD SWAP2 POP POP PUSH1 0x20 PUSH1 0x40 MLOAD DUP1 DUP4 SUB DUP2 DUP7 DUP1 EXTCODESIZE ISZERO DUP1 ISZERO PUSH2 0x1EB0 JUMPI PUSH1 0x0 DUP1 REVERT JUMPDEST POP GAS STATICCALL ISZERO DUP1 ISZERO PUSH2 0x1EC4 JUMPI RETURNDATASIZE PUSH1 0x0 DUP1 RETURNDATACOPY RETURNDATASIZE PUSH1 0x0 REVERT JUMPDEST POP POP POP POP PUSH1 0x40 MLOAD RETURNDATASIZE PUSH1 0x20 DUP2 LT ISZERO PUSH2 0x1EDA JUMPI PUSH1 0x0 DUP1 REVERT JUMPDEST POP MLOAD SWAP1 POP PUSH2 0x1EF2 PUSH1 0x1 PUSH1 0x1 PUSH1 0xA0 SHL SUB DUP4 AND CALLER DUP4 PUSH2 0x240E JUMP JUMPDEST POP POP JUMP JUMPDEST PUSH1 0xC SLOAD DUP2 JUMP JUMPDEST PUSH1 0xB SLOAD DUP2 JUMP JUMPDEST PUSH32 0x0 DUP2 JUMP JUMPDEST PUSH2 0x1F2E PUSH2 0x26B6 JUMP JUMPDEST PUSH1 0x1 PUSH1 0x1 PUSH1 0xA0 SHL SUB AND PUSH2 0x1F3F PUSH2 0x1625 JUMP JUMPDEST PUSH1 0x1 PUSH1 0x1 PUSH1 0xA0 SHL SUB AND EQ PUSH2 0x1F88 JUMPI PUSH1 0x40 DUP1 MLOAD PUSH3 0x461BCD PUSH1 0xE5 SHL DUP2 MSTORE PUSH1 0x20 PUSH1 0x4 DUP3 ADD DUP2 SWAP1 MSTORE PUSH1 0x24 DUP3 ADD MSTORE PUSH1 0x0 DUP1 MLOAD PUSH1 0x20 PUSH2 0x2FFA DUP4 CODECOPY DUP2 MLOAD SWAP2 MSTORE PUSH1 0x44 DUP3 ADD MSTORE SWAP1 MLOAD SWAP1 DUP2 SWAP1 SUB PUSH1 0x64 ADD SWAP1 REVERT JUMPDEST PUSH1 0x1 PUSH1 0x1 PUSH1 0xA0 SHL SUB DUP2 AND PUSH2 0x1FDC JUMPI PUSH1 0x40 DUP1 MLOAD PUSH3 0x461BCD PUSH1 0xE5 SHL DUP2 MSTORE PUSH1 0x20 PUSH1 0x4 DUP3 ADD MSTORE PUSH1 0x16 PUSH1 0x24 DUP3 ADD MSTORE PUSH22 0x43616E6E6F74206265207A65726F2061646472657373 PUSH1 0x50 SHL PUSH1 0x44 DUP3 ADD MSTORE SWAP1 MLOAD SWAP1 DUP2 SWAP1 SUB PUSH1 0x64 ADD SWAP1 REVERT JUMPDEST PUSH1 0x8 DUP1 SLOAD PUSH1 0x1 PUSH1 0x1 PUSH1 0xA0 SHL SUB NOT AND PUSH1 0x1 PUSH1 0x1 PUSH1 0xA0 SHL SUB SWAP3 SWAP1 SWAP3 AND SWAP2 SWAP1 SWAP2 OR SWAP1 SSTORE JUMP JUMPDEST PUSH2 0x2006 PUSH2 0x26B6 JUMP JUMPDEST PUSH1 0x1 PUSH1 0x1 PUSH1 0xA0 SHL SUB AND PUSH2 0x2017 PUSH2 0x1625 JUMP JUMPDEST PUSH1 0x1 PUSH1 0x1 PUSH1 0xA0 SHL SUB AND EQ PUSH2 0x2060 JUMPI PUSH1 0x40 DUP1 MLOAD PUSH3 0x461BCD PUSH1 0xE5 SHL DUP2 MSTORE PUSH1 0x20 PUSH1 0x4 DUP3 ADD DUP2 SWAP1 MSTORE PUSH1 0x24 DUP3 ADD MSTORE PUSH1 0x0 DUP1 MLOAD PUSH1 0x20 PUSH2 0x2FFA DUP4 CODECOPY DUP2 MLOAD SWAP2 MSTORE PUSH1 0x44 DUP3 ADD MSTORE SWAP1 MLOAD SWAP1 DUP2 SWAP1 SUB PUSH1 0x64 ADD SWAP1 REVERT JUMPDEST PUSH1 0x1 PUSH1 0x1 PUSH1 0xA0 SHL SUB DUP2 AND PUSH2 0x20A5 JUMPI PUSH1 0x40 MLOAD PUSH3 0x461BCD PUSH1 0xE5 SHL DUP2 MSTORE PUSH1 0x4 ADD DUP1 DUP1 PUSH1 0x20 ADD DUP3 DUP2 SUB DUP3 MSTORE PUSH1 0x26 DUP2 MSTORE PUSH1 0x20 ADD DUP1 PUSH2 0x2E6F PUSH1 0x26 SWAP2 CODECOPY PUSH1 0x40 ADD SWAP2 POP POP PUSH1 0x40 MLOAD DUP1 SWAP2 SUB SWAP1 REVERT JUMPDEST PUSH1 0x0 DUP1 SLOAD PUSH1 0x40 MLOAD PUSH1 0x1 PUSH1 0x1 PUSH1 0xA0 SHL SUB DUP1 DUP6 AND SWAP4 SWAP3 AND SWAP2 PUSH32 0x8BE0079C531659141344CD1FD0A4F28419497F9722A3DAAFE3B4186F6B6457E0 SWAP2 LOG3 PUSH1 0x0 DUP1 SLOAD PUSH1 0x1 PUSH1 0x1 PUSH1 0xA0 SHL SUB NOT AND PUSH1 0x1 PUSH1 0x1 PUSH1 0xA0 SHL SUB SWAP3 SWAP1 SWAP3 AND SWAP2 SWAP1 SWAP2 OR SWAP1 SSTORE JUMP JUMPDEST PUSH1 0x7 SLOAD PUSH1 0x1 PUSH1 0x1 PUSH1 0xA0 SHL SUB AND DUP2 JUMP JUMPDEST PUSH32 0x0 DUP2 JUMP JUMPDEST PUSH32 0x0 DUP2 JUMP JUMPDEST DUP1 ISZERO DUP1 PUSH2 0x21DD JUMPI POP PUSH1 0x40 DUP1 MLOAD PUSH4 0x6EB1769F PUSH1 0xE1 SHL DUP2 MSTORE ADDRESS PUSH1 0x4 DUP3 ADD MSTORE PUSH1 0x1 PUSH1 0x1 PUSH1 0xA0 SHL SUB DUP5 DUP2 AND PUSH1 0x24 DUP4 ADD MSTORE SWAP2 MLOAD SWAP2 DUP6 AND SWAP2 PUSH4 0xDD62ED3E SWAP2 PUSH1 0x44 DUP1 DUP3 ADD SWAP3 PUSH1 0x20 SWAP3 SWAP1 SWAP2 SWAP1 DUP3 SWAP1 SUB ADD DUP2 DUP7 DUP1 EXTCODESIZE ISZERO DUP1 ISZERO PUSH2 0x21AF JUMPI PUSH1 0x0 DUP1 REVERT JUMPDEST POP GAS STATICCALL ISZERO DUP1 ISZERO PUSH2 0x21C3 JUMPI RETURNDATASIZE PUSH1 0x0 DUP1 RETURNDATACOPY RETURNDATASIZE PUSH1 0x0 REVERT JUMPDEST POP POP POP POP PUSH1 0x40 MLOAD RETURNDATASIZE PUSH1 0x20 DUP2 LT ISZERO PUSH2 0x21D9 JUMPI PUSH1 0x0 DUP1 REVERT JUMPDEST POP MLOAD ISZERO JUMPDEST PUSH2 0x2218 JUMPI PUSH1 0x40 MLOAD PUSH3 0x461BCD PUSH1 0xE5 SHL DUP2 MSTORE PUSH1 0x4 ADD DUP1 DUP1 PUSH1 0x20 ADD DUP3 DUP2 SUB DUP3 MSTORE PUSH1 0x36 DUP2 MSTORE PUSH1 0x20 ADD DUP1 PUSH2 0x313B PUSH1 0x36 SWAP2 CODECOPY PUSH1 0x40 ADD SWAP2 POP POP PUSH1 0x40 MLOAD DUP1 SWAP2 SUB SWAP1 REVERT JUMPDEST PUSH1 0x40 DUP1 MLOAD PUSH1 0x1 PUSH1 0x1 PUSH1 0xA0 SHL SUB DUP5 AND PUSH1 0x24 DUP3 ADD MSTORE PUSH1 0x44 DUP1 DUP3 ADD DUP5 SWAP1 MSTORE DUP3 MLOAD DUP1 DUP4 SUB SWAP1 SWAP2 ADD DUP2 MSTORE PUSH1 0x64 SWAP1 SWAP2 ADD SWAP1 SWAP2 MSTORE PUSH1 0x20 DUP2 ADD DUP1 MLOAD PUSH1 0x1 PUSH1 0x1 PUSH1 0xE0 SHL SUB AND PUSH4 0x95EA7B3 PUSH1 0xE0 SHL OR SWAP1 MSTORE PUSH2 0x226A SWAP1 DUP5 SWAP1 PUSH2 0x2BA4 JUMP JUMPDEST POP POP POP JUMP JUMPDEST PUSH1 0x60 PUSH2 0x227E DUP5 DUP5 PUSH1 0x0 DUP6 PUSH2 0x2C55 JUMP JUMPDEST SWAP1 POP JUMPDEST SWAP4 SWAP3 POP POP POP JUMP JUMPDEST EXTCODESIZE ISZERO ISZERO SWAP1 JUMP JUMPDEST PUSH1 0x0 DUP3 PUSH2 0x229D JUMPI POP PUSH1 0x0 PUSH2 0x22EA JUMP JUMPDEST DUP3 DUP3 MUL DUP3 DUP5 DUP3 DUP2 PUSH2 0x22AA JUMPI INVALID JUMPDEST DIV EQ PUSH2 0x22E7 JUMPI PUSH1 0x40 MLOAD PUSH3 0x461BCD PUSH1 0xE5 SHL DUP2 MSTORE PUSH1 0x4 ADD DUP1 DUP1 PUSH1 0x20 ADD DUP3 DUP2 SUB DUP3 MSTORE PUSH1 0x21 DUP2 MSTORE PUSH1 0x20 ADD DUP1 PUSH2 0x2FD9 PUSH1 0x21 SWAP2 CODECOPY PUSH1 0x40 ADD SWAP2 POP POP PUSH1 0x40 MLOAD DUP1 SWAP2 SUB SWAP1 REVERT JUMPDEST SWAP1 POP JUMPDEST SWAP3 SWAP2 POP POP JUMP JUMPDEST PUSH1 0x0 DUP1 DUP3 GT PUSH2 0x2346 JUMPI PUSH1 0x40 DUP1 MLOAD PUSH3 0x461BCD PUSH1 0xE5 SHL DUP2 MSTORE PUSH1 0x20 PUSH1 0x4 DUP3 ADD MSTORE PUSH1 0x1A PUSH1 0x24 DUP3 ADD MSTORE PUSH32 0x536166654D6174683A206469766973696F6E206279207A65726F000000000000 PUSH1 0x44 DUP3 ADD MSTORE SWAP1 MLOAD SWAP1 DUP2 SWAP1 SUB PUSH1 0x64 ADD SWAP1 REVERT JUMPDEST DUP2 DUP4 DUP2 PUSH2 0x234F JUMPI INVALID JUMPDEST DIV SWAP4 SWAP3 POP POP POP JUMP JUMPDEST PUSH1 0x0 DUP3 DUP3 GT ISZERO PUSH2 0x23AE JUMPI PUSH1 0x40 DUP1 MLOAD PUSH3 0x461BCD PUSH1 0xE5 SHL DUP2 MSTORE PUSH1 0x20 PUSH1 0x4 DUP3 ADD MSTORE PUSH1 0x1E PUSH1 0x24 DUP3 ADD MSTORE PUSH32 0x536166654D6174683A207375627472616374696F6E206F766572666C6F770000 PUSH1 0x44 DUP3 ADD MSTORE SWAP1 MLOAD SWAP1 DUP2 SWAP1 SUB PUSH1 0x64 ADD SWAP1 REVERT JUMPDEST POP SWAP1 SUB SWAP1 JUMP JUMPDEST PUSH1 0x0 DUP3 DUP3 ADD DUP4 DUP2 LT ISZERO PUSH2 0x22E7 JUMPI PUSH1 0x40 DUP1 MLOAD PUSH3 0x461BCD PUSH1 0xE5 SHL DUP2 MSTORE PUSH1 0x20 PUSH1 0x4 DUP3 ADD MSTORE PUSH1 0x1B PUSH1 0x24 DUP3 ADD MSTORE PUSH32 0x536166654D6174683A206164646974696F6E206F766572666C6F770000000000 PUSH1 0x44 DUP3 ADD MSTORE SWAP1 MLOAD SWAP1 DUP2 SWAP1 SUB PUSH1 0x64 ADD SWAP1 REVERT JUMPDEST PUSH1 0x40 DUP1 MLOAD PUSH1 0x1 PUSH1 0x1 PUSH1 0xA0 SHL SUB DUP5 AND PUSH1 0x24 DUP3 ADD MSTORE PUSH1 0x44 DUP1 DUP3 ADD DUP5 SWAP1 MSTORE DUP3 MLOAD DUP1 DUP4 SUB SWAP1 SWAP2 ADD DUP2 MSTORE PUSH1 0x64 SWAP1 SWAP2 ADD SWAP1 SWAP2 MSTORE PUSH1 0x20 DUP2 ADD DUP1 MLOAD PUSH1 0x1 PUSH1 0x1 PUSH1 0xE0 SHL SUB AND PUSH4 0xA9059CBB PUSH1 0xE0 SHL OR SWAP1 MSTORE PUSH2 0x226A SWAP1 DUP5 SWAP1 PUSH2 0x2BA4 JUMP JUMPDEST CALLER PUSH1 0x0 SWAP1 DUP2 MSTORE PUSH1 0x2 PUSH1 0x20 MSTORE PUSH1 0x40 DUP2 KECCAK256 SWAP1 PUSH2 0x2478 PUSH2 0x27A3 JUMP JUMPDEST ISZERO PUSH2 0x24A3 JUMPI PUSH2 0x249E DUP3 PUSH1 0x2 ADD SLOAD DUP4 PUSH1 0x3 ADD SLOAD DUP5 PUSH1 0x0 ADD SLOAD DUP6 PUSH1 0x1 ADD SLOAD DUP7 PUSH1 0x4 ADD SLOAD PUSH2 0x27AB JUMP JUMPDEST PUSH2 0x24A6 JUMP JUMPDEST PUSH1 0x0 JUMPDEST SWAP1 POP PUSH1 0x1 DUP4 PUSH1 0x1 DUP2 GT ISZERO PUSH2 0x24B6 JUMPI INVALID JUMPDEST EQ ISZERO PUSH2 0x24DF JUMPI DUP2 SLOAD DUP5 GT PUSH2 0x24D5 JUMPI DUP2 SLOAD PUSH2 0x24D0 SWAP1 DUP6 PUSH2 0x2357 JUMP JUMPDEST PUSH2 0x24D8 JUMP JUMPDEST PUSH1 0x0 JUMPDEST DUP3 SSTORE PUSH2 0x24EE JUMP JUMPDEST DUP2 SLOAD PUSH2 0x24EB SWAP1 DUP6 PUSH2 0x23B4 JUMP JUMPDEST DUP3 SSTORE JUMPDEST PUSH2 0x24F6 PUSH2 0x2DB1 JUMP JUMPDEST ISZERO PUSH2 0x2509 JUMPI DUP2 SLOAD PUSH1 0x1 DUP4 ADD SSTORE NUMBER PUSH1 0x3 DUP4 ADD SSTORE JUMPDEST PUSH1 0x4 DUP3 ADD DUP2 SWAP1 SSTORE NUMBER PUSH1 0x2 DUP4 ADD DUP2 SWAP1 SSTORE DUP3 SLOAD PUSH1 0x1 DUP5 ADD SLOAD PUSH1 0x3 DUP6 ADD SLOAD PUSH1 0x40 DUP1 MLOAD DUP7 DUP2 MSTORE PUSH1 0x20 DUP2 ADD SWAP5 SWAP1 SWAP5 MSTORE DUP4 DUP2 ADD SWAP3 SWAP1 SWAP3 MSTORE PUSH1 0x60 DUP4 ADD SWAP4 SWAP1 SWAP4 MSTORE PUSH1 0x80 DUP3 ADD SWAP3 SWAP1 SWAP3 MSTORE SWAP1 MLOAD CALLER SWAP2 PUSH32 0x6A9632041D5AD6A474679DA2AC648103E26069C6E77DCA5F3675D3FDCBE1AC17 SWAP2 SWAP1 DUP2 SWAP1 SUB PUSH1 0xA0 ADD SWAP1 LOG2 POP POP POP POP JUMP JUMPDEST PUSH2 0x2587 PUSH2 0x10ED JUMP JUMPDEST PUSH2 0x25CF JUMPI PUSH1 0x40 DUP1 MLOAD PUSH3 0x461BCD PUSH1 0xE5 SHL DUP2 MSTORE PUSH1 0x20 PUSH1 0x4 DUP3 ADD MSTORE PUSH1 0x14 PUSH1 0x24 DUP3 ADD MSTORE PUSH20 0x14185D5CD8589B194E881B9BDD081C185D5CD959 PUSH1 0x62 SHL PUSH1 0x44 DUP3 ADD MSTORE SWAP1 MLOAD SWAP1 DUP2 SWAP1 SUB PUSH1 0x64 ADD SWAP1 REVERT JUMPDEST PUSH1 0x0 DUP1 SLOAD PUSH1 0xFF PUSH1 0xA0 SHL NOT AND SWAP1 SSTORE PUSH32 0x5DB9EE0A495BF2E6FF9C91A7834C1BA4FDD244A5E8AA4E537BD38AEAE4B073AA PUSH2 0x2605 PUSH2 0x26B6 JUMP JUMPDEST PUSH1 0x40 DUP1 MLOAD PUSH1 0x1 PUSH1 0x1 PUSH1 0xA0 SHL SUB SWAP1 SWAP3 AND DUP3 MSTORE MLOAD SWAP1 DUP2 SWAP1 SUB PUSH1 0x20 ADD SWAP1 LOG1 JUMP JUMPDEST PUSH1 0x0 PUSH2 0x262C PUSH2 0xF88 JUMP JUMPDEST SWAP1 POP DUP1 ISZERO PUSH2 0x26B3 JUMPI PUSH32 0x0 PUSH1 0x1 PUSH1 0x1 PUSH1 0xA0 SHL SUB AND PUSH4 0x41441D3B DUP3 PUSH1 0x40 MLOAD DUP3 PUSH4 0xFFFFFFFF AND PUSH1 0xE0 SHL DUP2 MSTORE PUSH1 0x4 ADD DUP1 DUP3 DUP2 MSTORE PUSH1 0x20 ADD SWAP2 POP POP PUSH1 0x0 PUSH1 0x40 MLOAD DUP1 DUP4 SUB DUP2 PUSH1 0x0 DUP8 DUP1 EXTCODESIZE ISZERO DUP1 ISZERO PUSH2 0x269A JUMPI PUSH1 0x0 DUP1 REVERT JUMPDEST POP GAS CALL ISZERO DUP1 ISZERO PUSH2 0x26AE JUMPI RETURNDATASIZE PUSH1 0x0 DUP1 RETURNDATACOPY RETURNDATASIZE PUSH1 0x0 REVERT JUMPDEST POP POP POP POP JUMPDEST POP JUMP JUMPDEST CALLER SWAP1 JUMP JUMPDEST PUSH2 0x26C2 PUSH2 0x10ED JUMP JUMPDEST ISZERO PUSH2 0x2707 JUMPI PUSH1 0x40 DUP1 MLOAD PUSH3 0x461BCD PUSH1 0xE5 SHL DUP2 MSTORE PUSH1 0x20 PUSH1 0x4 DUP3 ADD MSTORE PUSH1 0x10 PUSH1 0x24 DUP3 ADD MSTORE PUSH16 0x14185D5CD8589B194E881C185D5CD959 PUSH1 0x82 SHL PUSH1 0x44 DUP3 ADD MSTORE SWAP1 MLOAD SWAP1 DUP2 SWAP1 SUB PUSH1 0x64 ADD SWAP1 REVERT JUMPDEST PUSH1 0x0 DUP1 SLOAD PUSH1 0xFF PUSH1 0xA0 SHL NOT AND PUSH1 0x1 PUSH1 0xA0 SHL OR SWAP1 SSTORE PUSH32 0x62E78CEA01BEE320CD4E420270B5EA74000D11B0C9F74754EBDBFC544B05A258 PUSH2 0x2605 PUSH2 0x26B6 JUMP JUMPDEST PUSH1 0x40 DUP1 MLOAD PUSH1 0x1 PUSH1 0x1 PUSH1 0xA0 SHL SUB DUP1 DUP7 AND PUSH1 0x24 DUP4 ADD MSTORE DUP5 AND PUSH1 0x44 DUP3 ADD MSTORE PUSH1 0x64 DUP1 DUP3 ADD DUP5 SWAP1 MSTORE DUP3 MLOAD DUP1 DUP4 SUB SWAP1 SWAP2 ADD DUP2 MSTORE PUSH1 0x84 SWAP1 SWAP2 ADD SWAP1 SWAP2 MSTORE PUSH1 0x20 DUP2 ADD DUP1 MLOAD PUSH1 0x1 PUSH1 0x1 PUSH1 0xE0 SHL SUB AND PUSH4 0x23B872DD PUSH1 0xE0 SHL OR SWAP1 MSTORE PUSH2 0x279D SWAP1 DUP6 SWAP1 PUSH2 0x2BA4 JUMP JUMPDEST POP POP POP POP JUMP JUMPDEST PUSH1 0x3 SLOAD NUMBER GT SWAP1 JUMP JUMPDEST PUSH1 0x4 SLOAD PUSH1 0x0 SWAP1 NUMBER SWAP1 DUP8 LT PUSH2 0x27C2 JUMPI DUP3 SWAP2 POP POP PUSH2 0x2851 JUMP JUMPDEST PUSH1 0x3 SLOAD DUP7 LT ISZERO PUSH2 0x27D9 JUMPI PUSH1 0x3 SLOAD SWAP6 POP PUSH1 0x0 SWAP3 POP DUP5 SWAP4 POP JUMPDEST PUSH1 0x4 SLOAD DUP2 LT PUSH2 0x27EA JUMPI PUSH1 0x4 SLOAD PUSH2 0x27EC JUMP JUMPDEST DUP1 JUMPDEST SWAP1 POP PUSH1 0x0 PUSH2 0x280F PUSH2 0x2808 PUSH1 0x3 SLOAD DUP10 PUSH2 0x2357 SWAP1 SWAP2 SWAP1 PUSH4 0xFFFFFFFF AND JUMP JUMPDEST DUP6 SWAP1 PUSH2 0x228E JUMP JUMPDEST SWAP1 POP PUSH1 0x0 PUSH2 0x2827 PUSH2 0x2820 DUP5 DUP11 PUSH2 0x2357 JUMP JUMPDEST DUP8 SWAP1 PUSH2 0x228E JUMP JUMPDEST SWAP1 POP PUSH2 0x284B PUSH2 0x2841 PUSH1 0x3 SLOAD DUP6 PUSH2 0x2357 SWAP1 SWAP2 SWAP1 PUSH4 0xFFFFFFFF AND JUMP JUMPDEST PUSH2 0xA03 DUP5 DUP5 PUSH2 0x23B4 JUMP JUMPDEST SWAP4 POP POP POP POP JUMPDEST SWAP6 SWAP5 POP POP POP POP POP JUMP JUMPDEST CALLER PUSH1 0x0 DUP2 DUP2 MSTORE PUSH1 0x2 PUSH1 0x20 DUP2 DUP2 MSTORE PUSH1 0x40 DUP1 DUP5 KECCAK256 DUP5 DUP2 SSTORE PUSH1 0x1 DUP2 ADD DUP6 SWAP1 SSTORE SWAP3 DUP4 ADD DUP5 SWAP1 SSTORE PUSH1 0x3 DUP4 ADD DUP5 SWAP1 SSTORE PUSH1 0x4 DUP4 ADD SWAP4 SWAP1 SWAP4 SSTORE DUP3 MLOAD NUMBER DUP2 MSTORE SWAP3 MLOAD SWAP2 SWAP4 SWAP3 PUSH32 0x6F66FF41198A141A4E315CD2FF387F32686A6D469DA7496FFEE40EAF05E4A411 SWAP3 SWAP1 DUP2 SWAP1 SUB SWAP1 SWAP2 ADD SWAP1 LOG2 POP JUMP JUMPDEST CALLER PUSH1 0x0 SWAP1 DUP2 MSTORE PUSH1 0x1 PUSH1 0x20 MSTORE PUSH1 0x40 SWAP1 KECCAK256 DUP2 PUSH2 0x291A JUMPI PUSH1 0x40 DUP1 MLOAD PUSH3 0x461BCD PUSH1 0xE5 SHL DUP2 MSTORE PUSH1 0x20 PUSH1 0x4 DUP3 ADD MSTORE PUSH1 0x13 PUSH1 0x24 DUP3 ADD MSTORE PUSH19 0x4E6F7468696E6720746F207769746864726177 PUSH1 0x68 SHL PUSH1 0x44 DUP3 ADD MSTORE SWAP1 MLOAD SWAP1 DUP2 SWAP1 SUB PUSH1 0x64 ADD SWAP1 REVERT JUMPDEST DUP1 SLOAD DUP3 GT ISZERO PUSH2 0x2970 JUMPI PUSH1 0x40 DUP1 MLOAD PUSH3 0x461BCD PUSH1 0xE5 SHL DUP2 MSTORE PUSH1 0x20 PUSH1 0x4 DUP3 ADD MSTORE PUSH1 0x1F PUSH1 0x24 DUP3 ADD MSTORE PUSH32 0x576974686472617720616D6F756E7420657863656564732062616C616E636500 PUSH1 0x44 DUP3 ADD MSTORE SWAP1 MLOAD SWAP1 DUP2 SWAP1 SUB PUSH1 0x64 ADD SWAP1 REVERT JUMPDEST PUSH1 0x0 PUSH2 0x2984 PUSH1 0x5 SLOAD PUSH2 0xA03 DUP6 PUSH2 0x9FD PUSH2 0x1323 JUMP JUMPDEST DUP3 SLOAD SWAP1 SWAP2 POP PUSH2 0x2993 SWAP1 DUP5 PUSH2 0x2357 JUMP JUMPDEST DUP3 SSTORE PUSH1 0x5 SLOAD PUSH2 0x29A2 SWAP1 DUP5 PUSH2 0x2357 JUMP JUMPDEST PUSH1 0x5 SSTORE PUSH1 0x0 PUSH2 0x29AF PUSH2 0xF88 JUMP JUMPDEST SWAP1 POP DUP2 DUP2 LT ISZERO PUSH2 0x2A78 JUMPI PUSH1 0x0 PUSH2 0x29C5 DUP4 DUP4 PUSH2 0x2357 JUMP JUMPDEST SWAP1 POP PUSH32 0x0 PUSH1 0x1 PUSH1 0x1 PUSH1 0xA0 SHL SUB AND PUSH4 0x1058D281 DUP3 PUSH1 0x40 MLOAD DUP3 PUSH4 0xFFFFFFFF AND PUSH1 0xE0 SHL DUP2 MSTORE PUSH1 0x4 ADD DUP1 DUP3 DUP2 MSTORE PUSH1 0x20 ADD SWAP2 POP POP PUSH1 0x0 PUSH1 0x40 MLOAD DUP1 DUP4 SUB DUP2 PUSH1 0x0 DUP8 DUP1 EXTCODESIZE ISZERO DUP1 ISZERO PUSH2 0x2A2D JUMPI PUSH1 0x0 DUP1 REVERT JUMPDEST POP GAS CALL ISZERO DUP1 ISZERO PUSH2 0x2A41 JUMPI RETURNDATASIZE PUSH1 0x0 DUP1 RETURNDATACOPY RETURNDATASIZE PUSH1 0x0 REVERT JUMPDEST POP POP POP POP PUSH1 0x0 PUSH2 0x2A4F PUSH2 0xF88 JUMP JUMPDEST SWAP1 POP PUSH1 0x0 PUSH2 0x2A5D DUP3 DUP6 PUSH2 0x2357 JUMP JUMPDEST SWAP1 POP DUP3 DUP2 LT ISZERO PUSH2 0x2A74 JUMPI PUSH2 0x2A71 DUP5 DUP3 PUSH2 0x23B4 JUMP JUMPDEST SWAP5 POP JUMPDEST POP POP POP JUMPDEST PUSH1 0xC SLOAD PUSH1 0x1 DUP5 ADD SLOAD PUSH2 0x2A89 SWAP2 PUSH2 0x23B4 JUMP JUMPDEST TIMESTAMP LT ISZERO PUSH2 0x2AF8 JUMPI PUSH1 0x0 PUSH2 0x2AAD PUSH2 0x2710 PUSH2 0xA03 PUSH1 0xB SLOAD DUP7 PUSH2 0x228E SWAP1 SWAP2 SWAP1 PUSH4 0xFFFFFFFF AND JUMP JUMPDEST PUSH1 0x8 SLOAD SWAP1 SWAP2 POP PUSH2 0x2AEA SWAP1 PUSH1 0x1 PUSH1 0x1 PUSH1 0xA0 SHL SUB PUSH32 0x0 DUP2 AND SWAP2 AND DUP4 PUSH2 0x240E JUMP JUMPDEST PUSH2 0x2AF4 DUP4 DUP3 PUSH2 0x2357 JUMP JUMPDEST SWAP3 POP POP JUMPDEST DUP3 SLOAD ISZERO PUSH2 0x2B22 JUMPI PUSH2 0x2B18 PUSH1 0x5 SLOAD PUSH2 0xA03 PUSH2 0x2B10 PUSH2 0x1323 JUMP JUMPDEST DUP7 SLOAD SWAP1 PUSH2 0x228E JUMP JUMPDEST PUSH1 0x2 DUP5 ADD SSTORE PUSH2 0x2B2A JUMP JUMPDEST PUSH1 0x0 PUSH1 0x2 DUP5 ADD SSTORE JUMPDEST TIMESTAMP PUSH1 0x3 DUP5 ADD SSTORE PUSH2 0x2B64 PUSH1 0x1 PUSH1 0x1 PUSH1 0xA0 SHL SUB PUSH32 0x0 AND CALLER DUP5 PUSH2 0x240E JUMP JUMPDEST PUSH1 0x40 DUP1 MLOAD DUP4 DUP2 MSTORE PUSH1 0x20 DUP2 ADD DUP7 SWAP1 MSTORE DUP2 MLOAD CALLER SWAP3 PUSH32 0xF279E6A1F5E320CCA91135676D9CB6E44CA8A08C0B88342BCDB1144F6511B568 SWAP3 DUP3 SWAP1 SUB ADD SWAP1 LOG2 POP POP POP POP JUMP JUMPDEST PUSH1 0x60 PUSH2 0x2BF9 DUP3 PUSH1 0x40 MLOAD DUP1 PUSH1 0x40 ADD PUSH1 0x40 MSTORE DUP1 PUSH1 0x20 DUP2 MSTORE PUSH1 0x20 ADD PUSH32 0x5361666545524332303A206C6F772D6C6576656C2063616C6C206661696C6564 DUP2 MSTORE POP DUP6 PUSH1 0x1 PUSH1 0x1 PUSH1 0xA0 SHL SUB AND PUSH2 0x226F SWAP1 SWAP3 SWAP2 SWAP1 PUSH4 0xFFFFFFFF AND JUMP JUMPDEST DUP1 MLOAD SWAP1 SWAP2 POP ISZERO PUSH2 0x226A JUMPI DUP1 DUP1 PUSH1 0x20 ADD SWAP1 MLOAD PUSH1 0x20 DUP2 LT ISZERO PUSH2 0x2C18 JUMPI PUSH1 0x0 DUP1 REVERT JUMPDEST POP MLOAD PUSH2 0x226A JUMPI PUSH1 0x40 MLOAD PUSH3 0x461BCD PUSH1 0xE5 SHL DUP2 MSTORE PUSH1 0x4 ADD DUP1 DUP1 PUSH1 0x20 ADD DUP3 DUP2 SUB DUP3 MSTORE PUSH1 0x2A DUP2 MSTORE PUSH1 0x20 ADD DUP1 PUSH2 0x30E1 PUSH1 0x2A SWAP2 CODECOPY PUSH1 0x40 ADD SWAP2 POP POP PUSH1 0x40 MLOAD DUP1 SWAP2 SUB SWAP1 REVERT JUMPDEST PUSH1 0x60 DUP3 SELFBALANCE LT ISZERO PUSH2 0x2C96 JUMPI PUSH1 0x40 MLOAD PUSH3 0x461BCD PUSH1 0xE5 SHL DUP2 MSTORE PUSH1 0x4 ADD DUP1 DUP1 PUSH1 0x20 ADD DUP3 DUP2 SUB DUP3 MSTORE PUSH1 0x26 DUP2 MSTORE PUSH1 0x20 ADD DUP1 PUSH2 0x2EE8 PUSH1 0x26 SWAP2 CODECOPY PUSH1 0x40 ADD SWAP2 POP POP PUSH1 0x40 MLOAD DUP1 SWAP2 SUB SWAP1 REVERT JUMPDEST PUSH2 0x2C9F DUP6 PUSH2 0x2288 JUMP JUMPDEST PUSH2 0x2CF0 JUMPI PUSH1 0x40 DUP1 MLOAD PUSH3 0x461BCD PUSH1 0xE5 SHL DUP2 MSTORE PUSH1 0x20 PUSH1 0x4 DUP3 ADD MSTORE PUSH1 0x1D PUSH1 0x24 DUP3 ADD MSTORE PUSH32 0x416464726573733A2063616C6C20746F206E6F6E2D636F6E7472616374000000 PUSH1 0x44 DUP3 ADD MSTORE SWAP1 MLOAD SWAP1 DUP2 SWAP1 SUB PUSH1 0x64 ADD SWAP1 REVERT JUMPDEST PUSH1 0x0 PUSH1 0x60 DUP7 PUSH1 0x1 PUSH1 0x1 PUSH1 0xA0 SHL SUB AND DUP6 DUP8 PUSH1 0x40 MLOAD DUP1 DUP3 DUP1 MLOAD SWAP1 PUSH1 0x20 ADD SWAP1 DUP1 DUP4 DUP4 JUMPDEST PUSH1 0x20 DUP4 LT PUSH2 0x2D2F JUMPI DUP1 MLOAD DUP3 MSTORE PUSH1 0x1F NOT SWAP1 SWAP3 ADD SWAP2 PUSH1 0x20 SWAP2 DUP3 ADD SWAP2 ADD PUSH2 0x2D10 JUMP JUMPDEST PUSH1 0x1 DUP4 PUSH1 0x20 SUB PUSH2 0x100 EXP SUB DUP1 NOT DUP3 MLOAD AND DUP2 DUP5 MLOAD AND DUP1 DUP3 OR DUP6 MSTORE POP POP POP POP POP POP SWAP1 POP ADD SWAP2 POP POP PUSH1 0x0 PUSH1 0x40 MLOAD DUP1 DUP4 SUB DUP2 DUP6 DUP8 GAS CALL SWAP3 POP POP POP RETURNDATASIZE DUP1 PUSH1 0x0 DUP2 EQ PUSH2 0x2D91 JUMPI PUSH1 0x40 MLOAD SWAP2 POP PUSH1 0x1F NOT PUSH1 0x3F RETURNDATASIZE ADD AND DUP3 ADD PUSH1 0x40 MSTORE RETURNDATASIZE DUP3 MSTORE RETURNDATASIZE PUSH1 0x0 PUSH1 0x20 DUP5 ADD RETURNDATACOPY PUSH2 0x2D96 JUMP JUMPDEST PUSH1 0x60 SWAP2 POP JUMPDEST POP SWAP2 POP SWAP2 POP PUSH2 0x2DA6 DUP3 DUP3 DUP7 PUSH2 0x2DCA JUMP JUMPDEST SWAP8 SWAP7 POP POP POP POP POP POP POP JUMP JUMPDEST PUSH1 0x0 PUSH1 0x3 SLOAD NUMBER LT ISZERO DUP1 ISZERO PUSH2 0x149E JUMPI POP POP PUSH1 0x4 SLOAD NUMBER GT ISZERO SWAP1 JUMP JUMPDEST PUSH1 0x60 DUP4 ISZERO PUSH2 0x2DD9 JUMPI POP DUP2 PUSH2 0x2281 JUMP JUMPDEST DUP3 MLOAD ISZERO PUSH2 0x2DE9 JUMPI DUP3 MLOAD DUP1 DUP5 PUSH1 0x20 ADD REVERT JUMPDEST DUP2 PUSH1 0x40 MLOAD PUSH3 0x461BCD PUSH1 0xE5 SHL DUP2 MSTORE PUSH1 0x4 ADD DUP1 DUP1 PUSH1 0x20 ADD DUP3 DUP2 SUB DUP3 MSTORE DUP4 DUP2 DUP2 MLOAD DUP2 MSTORE PUSH1 0x20 ADD SWAP2 POP DUP1 MLOAD SWAP1 PUSH1 0x20 ADD SWAP1 DUP1 DUP4 DUP4 PUSH1 0x0 JUMPDEST DUP4 DUP2 LT ISZERO PUSH2 0x2E33 JUMPI DUP2 DUP2 ADD MLOAD DUP4 DUP3 ADD MSTORE PUSH1 0x20 ADD PUSH2 0x2E1B JUMP JUMPDEST POP POP POP POP SWAP1 POP SWAP1 DUP2 ADD SWAP1 PUSH1 0x1F AND DUP1 ISZERO PUSH2 0x2E60 JUMPI DUP1 DUP3 SUB DUP1 MLOAD PUSH1 0x1 DUP4 PUSH1 0x20 SUB PUSH2 0x100 EXP SUB NOT AND DUP2 MSTORE PUSH1 0x20 ADD SWAP2 POP JUMPDEST POP SWAP3 POP POP POP PUSH1 0x40 MLOAD DUP1 SWAP2 SUB SWAP1 REVERT INVALID 0x4F PUSH24 0x6E61626C653A206E6577206F776E65722069732074686520 PUSH27 0x65726F2061646472657373546F6B656E2063616E6E6F7420626520 PUSH20 0x616D65206173206465706F73697420746F6B656E 0x4E PUSH6 0x772073746172 PUSH21 0x426C6F636B206D757374206265206C6F7765722074 PUSH9 0x616E206E657720656E PUSH5 0x426C6F636B COINBASE PUSH5 0x6472657373 GASPRICE KECCAK256 PUSH10 0x6E73756666696369656E PUSH21 0x2062616C616E636520666F722063616C6C546F6B65 PUSH15 0x2063616E6E6F742062652073616D65 KECCAK256 PUSH2 0x7320 PUSH19 0x65636569707420746F6B656E63616C6C466565 KECCAK256 PUSH4 0x616E6E6F PUSH21 0x206265206D6F7265207468616E204D41585F43414C 0x4C 0x5F CHAINID GASLIMIT GASLIMIT PUSH17 0x6572666F726D616E63654665652063616E PUSH15 0x6F74206265206D6F7265207468616E KECCAK256 0x4D COINBASE PC 0x5F POP GASLIMIT MSTORE CHAINID 0x4F MSTORE 0x4D COINBASE 0x4E NUMBER GASLIMIT 0x5F CHAINID GASLIMIT GASLIMIT PUSH15 0x657720656E6420626C6F636B206361 PUSH15 0x277420626568696E64206375727265 PUSH15 0x7420626C6F636B70726F787920636F PUSH15 0x7472616374206E6F7420616C6C6F77 PUSH6 0x640000000000 STOP MSTORE8 PUSH2 0x6665 0x4D PUSH2 0x7468 GASPRICE KECCAK256 PUSH14 0x756C7469706C69636174696F6E20 PUSH16 0x766572666C6F774F776E61626C653A20 PUSH4 0x616C6C65 PUSH19 0x206973206E6F7420746865206F776E65726465 PUSH17 0x6F73697420616D6F756E7420697320746F PUSH16 0x20736D616C6C20746F20616C6C6F6361 PUSH21 0x6520736861726573506F6F6C2063757272656E7420 PUSH3 0x6C6F63 PUSH12 0x206D757374206265206C6F77 PUSH6 0x72207468616E KECCAK256 PUSH15 0x6577207374617274426C6F636B7769 PUSH21 0x6864726177466565506572696F642063616E6E6F74 KECCAK256 PUSH3 0x65206D PUSH16 0x7265207468616E204D41585F57495448 DIFFICULTY MSTORE COINBASE JUMPI 0x5F CHAINID GASLIMIT GASLIMIT 0x5F POP GASLIMIT MSTORE 0x49 0x4F DIFFICULTY PUSH16 0x6C6420656E6420626C6F636B2063616E 0x27 PUSH21 0x20626568696E642063757272656E7420626C6F636B MSTORE8 PUSH2 0x6665 GASLIMIT MSTORE NUMBER ORIGIN ADDRESS GASPRICE KECCAK256 GASLIMIT MSTORE NUMBER ORIGIN ADDRESS KECCAK256 PUSH16 0x7065726174696F6E20646964206E6F74 KECCAK256 PUSH20 0x7563636565647769746864726177466565206361 PUSH15 0x6E6F74206265206D6F726520746861 PUSH15 0x204D41585F57495448445241575F46 GASLIMIT GASLIMIT MSTORE8 PUSH2 0x6665 GASLIMIT MSTORE NUMBER ORIGIN ADDRESS GASPRICE KECCAK256 PUSH2 0x7070 PUSH19 0x6F76652066726F6D206E6F6E2D7A65726F2074 PUSH16 0x206E6F6E2D7A65726F20616C6C6F7761 PUSH15 0x6365A2646970667358221220DDACFA 0xDF SELFBALANCE 0xE6 MSTORE8 SWAP12 0x27 0x2E MULMOD COINBASE DELEGATECALL 0xE2 0xC1 BALANCE 0xDC 0xF PUSH6 0x2DBD0107E097 0x1E 0x2E EXTCODECOPY SWAP9 0xD8 INVALID SLT PUSH5 0x736F6C6343 STOP MOD 0xC STOP CALLER PUSH20 0x7461727420626C6F636B2063616E277420626568 PUSH10 0x6E642063757272656E74 KECCAK256 PUSH3 0x6C6F63 PUSH12 0x416464726573733A20696E73 PUSH22 0x6666696369656E742062616C616E636520666F722063 PUSH2 0x6C6C MSTORE8 PUSH2 0x6665 GASLIMIT MSTORE NUMBER ORIGIN ADDRESS GASPRICE KECCAK256 GASLIMIT MSTORE NUMBER ORIGIN ADDRESS KECCAK256 PUSH16 0x7065726174696F6E20646964206E6F74 KECCAK256 PUSH20 0x756363656564656E6420626C6F636B2063616E27 PUSH21 0x20626568696E6420737461727420626C6F636B5361 PUSH7 0x6545524332303A KECCAK256 PUSH2 0x7070 PUSH19 0x6F76652066726F6D206E6F6E2D7A65726F2074 PUSH16 0x206E6F6E2D7A65726F20616C6C6F7761 PUSH15 0x636500000000000000000000000000 "
				},
				"gasEstimates": {
					"creation": {
						"codeDepositCost": "2542000",
						"executionCost": "infinite",
						"totalCost": "infinite"
					},
					"external": {
						"MAX_CALL_FEE()": "266",
						"MAX_PERFORMANCE_FEE()": "331",
						"MAX_WITHDRAW_FEE()": "353",
						"MAX_WITHDRAW_FEE_PERIOD()": "288",
						"admin()": "1147",
						"available()": "infinite",
						"balanceOf()": "infinite",
						"calculateHarvestCakeRewards()": "infinite",
						"calculateTotalPendingCakeRewards()": "infinite",
						"callFee()": "1110",
						"deposit(uint256)": "infinite",
						"emergencyWithdraw()": "infinite",
						"emergencyWithdrawAll()": "infinite",
						"endBlock()": "1089",
						"getPricePerFullShare()": "infinite",
						"getUserCredit(address)": "infinite",
						"harvest()": "infinite",
						"inCaseTokensGetStuck(address)": "infinite",
						"lastHarvestedTime()": "1065",
						"masterchef()": "infinite",
						"owner()": "1127",
						"pause()": "infinite",
						"paused()": "1161",
						"performanceFee()": "1066",
						"receiptToken()": "infinite",
						"renounceOwnership()": "infinite",
						"setAdmin(address)": "infinite",
						"setCallFee(uint256)": "infinite",
						"setPerformanceFee(uint256)": "infinite",
						"setTreasury(address)": "infinite",
						"setWithdrawFee(uint256)": "infinite",
						"setWithdrawFeePeriod(uint256)": "infinite",
						"startBlock()": "1088",
						"token()": "infinite",
						"totalShares()": "1132",
						"transferOwnership(address)": "infinite",
						"treasury()": "1193",
						"unpause()": "infinite",
						"updateEndBlock(uint256)": "infinite",
						"updateStartAndEndBlocks(uint256,uint256)": "infinite",
						"userIFOInfo(address)": "4537",
						"userInfo(address)": "3751",
						"withdraw(uint256)": "infinite",
						"withdrawAll()": "infinite",
						"withdrawFee()": "1153",
						"withdrawFeePeriod()": "1131"
					},
					"internal": {
						"_calculateAvgBalance(uint256,uint256,uint256,uint256,uint256)": "infinite",
						"_earn()": "infinite",
						"_isContract(address)": "718",
						"_isIFOAvailable()": "820",
						"_isValidActionBlock()": "1660",
						"_updateUserIFO(uint256,enum LandbaseLockPool.IFOActions)": "infinite",
						"_zeroFreeIFO()": "infinite",
						"withdrawV1(uint256)": "infinite"
					}
				},
				"methodIdentifiers": {
					"MAX_CALL_FEE()": "2ad5a53f",
					"MAX_PERFORMANCE_FEE()": "bdca9165",
					"MAX_WITHDRAW_FEE()": "d4b0de2f",
					"MAX_WITHDRAW_FEE_PERIOD()": "2cfc5f01",
					"admin()": "f851a440",
					"available()": "48a0d754",
					"balanceOf()": "722713f7",
					"calculateHarvestCakeRewards()": "9d72596b",
					"calculateTotalPendingCakeRewards()": "58ebceb6",
					"callFee()": "90321e1a",
					"deposit(uint256)": "b6b55f25",
					"emergencyWithdraw()": "db2e21bc",
					"emergencyWithdrawAll()": "dd191719",
					"endBlock()": "083c6323",
					"getPricePerFullShare()": "77c7b8fc",
					"getUserCredit(address)": "dad6f0dc",
					"harvest()": "4641257d",
					"inCaseTokensGetStuck(address)": "def68a9c",
					"lastHarvestedTime()": "b60f0531",
					"masterchef()": "fb1db278",
					"owner()": "8da5cb5b",
					"pause()": "8456cb59",
					"paused()": "5c975abb",
					"performanceFee()": "87788782",
					"receiptToken()": "ec78e832",
					"renounceOwnership()": "715018a6",
					"setAdmin(address)": "704b6c02",
					"setCallFee(uint256)": "26465826",
					"setPerformanceFee(uint256)": "70897b23",
					"setTreasury(address)": "f0f44260",
					"setWithdrawFee(uint256)": "b6ac642a",
					"setWithdrawFeePeriod(uint256)": "1efac1b8",
					"startBlock()": "48cd4cb1",
					"token()": "fc0c546a",
					"totalShares()": "3a98ef39",
					"transferOwnership(address)": "f2fde38b",
					"treasury()": "61d027b3",
					"unpause()": "3f4ba83a",
					"updateEndBlock(uint256)": "006f0231",
					"updateStartAndEndBlocks(uint256,uint256)": "9513997f",
					"userIFOInfo(address)": "06f5a745",
					"userInfo(address)": "1959a002",
					"withdraw(uint256)": "2e1a7d4d",
					"withdrawAll()": "853828b6",
					"withdrawFee()": "e941fa78",
					"withdrawFeePeriod()": "df10b4e6"
				}
			},
			"storageLayout": {
				"storage": [
					{
						"astId": 1990,
						"contract": "farms-pools/LandbaseLockPool.sol:LandbaseLockPool",
						"label": "_owner",
						"offset": 0,
						"slot": "0",
						"type": "t_address"
					},
					{
						"astId": 2836,
						"contract": "farms-pools/LandbaseLockPool.sol:LandbaseLockPool",
						"label": "_paused",
						"offset": 20,
						"slot": "0",
						"type": "t_bool"
					},
					{
						"astId": 127,
						"contract": "farms-pools/LandbaseLockPool.sol:LandbaseLockPool",
						"label": "userInfo",
						"offset": 0,
						"slot": "1",
						"type": "t_mapping(t_address,t_struct(UserInfo)103_storage)"
					},
					{
						"astId": 131,
						"contract": "farms-pools/LandbaseLockPool.sol:LandbaseLockPool",
						"label": "userIFOInfo",
						"offset": 0,
						"slot": "2",
						"type": "t_mapping(t_address,t_struct(UserIFOInfo)114_storage)"
					},
					{
						"astId": 133,
						"contract": "farms-pools/LandbaseLockPool.sol:LandbaseLockPool",
						"label": "startBlock",
						"offset": 0,
						"slot": "3",
						"type": "t_uint256"
					},
					{
						"astId": 135,
						"contract": "farms-pools/LandbaseLockPool.sol:LandbaseLockPool",
						"label": "endBlock",
						"offset": 0,
						"slot": "4",
						"type": "t_uint256"
					},
					{
						"astId": 137,
						"contract": "farms-pools/LandbaseLockPool.sol:LandbaseLockPool",
						"label": "totalShares",
						"offset": 0,
						"slot": "5",
						"type": "t_uint256"
					},
					{
						"astId": 139,
						"contract": "farms-pools/LandbaseLockPool.sol:LandbaseLockPool",
						"label": "lastHarvestedTime",
						"offset": 0,
						"slot": "6",
						"type": "t_uint256"
					},
					{
						"astId": 141,
						"contract": "farms-pools/LandbaseLockPool.sol:LandbaseLockPool",
						"label": "admin",
						"offset": 0,
						"slot": "7",
						"type": "t_address"
					},
					{
						"astId": 143,
						"contract": "farms-pools/LandbaseLockPool.sol:LandbaseLockPool",
						"label": "treasury",
						"offset": 0,
						"slot": "8",
						"type": "t_address"
					},
					{
						"astId": 158,
						"contract": "farms-pools/LandbaseLockPool.sol:LandbaseLockPool",
						"label": "performanceFee",
						"offset": 0,
						"slot": "9",
						"type": "t_uint256"
					},
					{
						"astId": 161,
						"contract": "farms-pools/LandbaseLockPool.sol:LandbaseLockPool",
						"label": "callFee",
						"offset": 0,
						"slot": "10",
						"type": "t_uint256"
					},
					{
						"astId": 164,
						"contract": "farms-pools/LandbaseLockPool.sol:LandbaseLockPool",
						"label": "withdrawFee",
						"offset": 0,
						"slot": "11",
						"type": "t_uint256"
					},
					{
						"astId": 167,
						"contract": "farms-pools/LandbaseLockPool.sol:LandbaseLockPool",
						"label": "withdrawFeePeriod",
						"offset": 0,
						"slot": "12",
						"type": "t_uint256"
					}
				],
				"types": {
					"t_address": {
						"encoding": "inplace",
						"label": "address",
						"numberOfBytes": "20"
					},
					"t_bool": {
						"encoding": "inplace",
						"label": "bool",
						"numberOfBytes": "1"
					},
					"t_mapping(t_address,t_struct(UserIFOInfo)114_storage)": {
						"encoding": "mapping",
						"key": "t_address",
						"label": "mapping(address => struct LandbaseLockPool.UserIFOInfo)",
						"numberOfBytes": "32",
						"value": "t_struct(UserIFOInfo)114_storage"
					},
					"t_mapping(t_address,t_struct(UserInfo)103_storage)": {
						"encoding": "mapping",
						"key": "t_address",
						"label": "mapping(address => struct LandbaseLockPool.UserInfo)",
						"numberOfBytes": "32",
						"value": "t_struct(UserInfo)103_storage"
					},
					"t_struct(UserIFOInfo)114_storage": {
						"encoding": "inplace",
						"label": "struct LandbaseLockPool.UserIFOInfo",
						"members": [
							{
								"astId": 105,
								"contract": "farms-pools/LandbaseLockPool.sol:LandbaseLockPool",
								"label": "lastActionBalance",
								"offset": 0,
								"slot": "0",
								"type": "t_uint256"
							},
							{
								"astId": 107,
								"contract": "farms-pools/LandbaseLockPool.sol:LandbaseLockPool",
								"label": "lastValidActionBalance",
								"offset": 0,
								"slot": "1",
								"type": "t_uint256"
							},
							{
								"astId": 109,
								"contract": "farms-pools/LandbaseLockPool.sol:LandbaseLockPool",
								"label": "lastActionBlock",
								"offset": 0,
								"slot": "2",
								"type": "t_uint256"
							},
							{
								"astId": 111,
								"contract": "farms-pools/LandbaseLockPool.sol:LandbaseLockPool",
								"label": "lastValidActionBlock",
								"offset": 0,
								"slot": "3",
								"type": "t_uint256"
							},
							{
								"astId": 113,
								"contract": "farms-pools/LandbaseLockPool.sol:LandbaseLockPool",
								"label": "lastAvgBalance",
								"offset": 0,
								"slot": "4",
								"type": "t_uint256"
							}
						],
						"numberOfBytes": "160"
					},
					"t_struct(UserInfo)103_storage": {
						"encoding": "inplace",
						"label": "struct LandbaseLockPool.UserInfo",
						"members": [
							{
								"astId": 96,
								"contract": "farms-pools/LandbaseLockPool.sol:LandbaseLockPool",
								"label": "shares",
								"offset": 0,
								"slot": "0",
								"type": "t_uint256"
							},
							{
								"astId": 98,
								"contract": "farms-pools/LandbaseLockPool.sol:LandbaseLockPool",
								"label": "lastDepositedTime",
								"offset": 0,
								"slot": "1",
								"type": "t_uint256"
							},
							{
								"astId": 100,
								"contract": "farms-pools/LandbaseLockPool.sol:LandbaseLockPool",
								"label": "cakeAtLastUserAction",
								"offset": 0,
								"slot": "2",
								"type": "t_uint256"
							},
							{
								"astId": 102,
								"contract": "farms-pools/LandbaseLockPool.sol:LandbaseLockPool",
								"label": "lastUserActionTime",
								"offset": 0,
								"slot": "3",
								"type": "t_uint256"
							}
						],
						"numberOfBytes": "128"
					},
					"t_uint256": {
						"encoding": "inplace",
						"label": "uint256",
						"numberOfBytes": "32"
					}
				}
			},
			"userdoc": {
				"kind": "user",
				"methods": {
					"available()": {
						"notice": "Custom logic for how much the vault allows to be borrowed"
					},
					"balanceOf()": {
						"notice": "Calculates the total underlying tokens"
					},
					"calculateHarvestCakeRewards()": {
						"notice": "Calculates the expected harvest reward from third party"
					},
					"calculateTotalPendingCakeRewards()": {
						"notice": "Calculates the total pending rewards that can be restaked"
					},
					"constructor": "Constructor",
					"deposit(uint256)": {
						"notice": "Deposits funds into the Cake Vault"
					},
					"emergencyWithdraw()": {
						"notice": "Withdraws from MasterChef to Vault without caring about rewards."
					},
					"emergencyWithdrawAll()": {
						"notice": "Withdraws user all funds in emergency,it's called by user not admin,the userifo status will be clear"
					},
					"getPricePerFullShare()": {
						"notice": "Calculates the price per share"
					},
					"getUserCredit(address)": {
						"notice": "calculate IFO latest average balance for specific user"
					},
					"harvest()": {
						"notice": "Reinvests CAKE tokens into MasterChef"
					},
					"inCaseTokensGetStuck(address)": {
						"notice": "Withdraw unexpected tokens sent to the Cake Vault"
					},
					"pause()": {
						"notice": "Triggers stopped state"
					},
					"setAdmin(address)": {
						"notice": "Sets admin address"
					},
					"setCallFee(uint256)": {
						"notice": "Sets call fee"
					},
					"setPerformanceFee(uint256)": {
						"notice": "Sets performance fee"
					},
					"setTreasury(address)": {
						"notice": "Sets treasury address"
					},
					"setWithdrawFee(uint256)": {
						"notice": "Sets withdraw fee"
					},
					"setWithdrawFeePeriod(uint256)": {
						"notice": "Sets withdraw fee period"
					},
					"unpause()": {
						"notice": "Returns to normal state"
					},
					"updateEndBlock(uint256)": {
						"notice": "It allows the admin to update end block"
					},
					"updateStartAndEndBlocks(uint256,uint256)": {
						"notice": "It allows the admin to update start and end blocks"
					},
					"withdraw(uint256)": {
						"notice": "Withdraws from funds from the IFOPool"
					},
					"withdrawAll()": {
						"notice": "Withdraws all funds for a user"
					}
				},
				"version": 1
			}
		}
	}
}