{
	"farms-pools/LandbaseLockPool.sol": {
		"LandbaseLockPool": {
			"abi": [
				{
					"inputs": [
						{
							"internalType": "contract IERC20",
							"name": "_token",
							"type": "address"
						},
						{
							"internalType": "contract IERC20",
							"name": "_receiptToken",
							"type": "address"
						},
						{
							"internalType": "contract IMasterChef",
							"name": "_masterchef",
							"type": "address"
						},
						{
							"internalType": "address",
							"name": "_admin",
							"type": "address"
						},
						{
							"internalType": "address",
							"name": "_treasury",
							"type": "address"
						},
						{
							"internalType": "uint256",
							"name": "_startBlock",
							"type": "uint256"
						},
						{
							"internalType": "uint256",
							"name": "_endBlock",
							"type": "uint256"
						}
					],
					"stateMutability": "nonpayable",
					"type": "constructor"
				},
				{
					"anonymous": false,
					"inputs": [
						{
							"indexed": true,
							"internalType": "address",
							"name": "sender",
							"type": "address"
						},
						{
							"indexed": false,
							"internalType": "uint256",
							"name": "amount",
							"type": "uint256"
						},
						{
							"indexed": false,
							"internalType": "uint256",
							"name": "shares",
							"type": "uint256"
						},
						{
							"indexed": false,
							"internalType": "uint256",
							"name": "lastDepositedTime",
							"type": "uint256"
						}
					],
					"name": "Deposit",
					"type": "event"
				},
				{
					"anonymous": false,
					"inputs": [
						{
							"indexed": true,
							"internalType": "address",
							"name": "sender",
							"type": "address"
						},
						{
							"indexed": false,
							"internalType": "uint256",
							"name": "performanceFee",
							"type": "uint256"
						},
						{
							"indexed": false,
							"internalType": "uint256",
							"name": "callFee",
							"type": "uint256"
						}
					],
					"name": "Harvest",
					"type": "event"
				},
				{
					"anonymous": false,
					"inputs": [
						{
							"indexed": true,
							"internalType": "address",
							"name": "previousOwner",
							"type": "address"
						},
						{
							"indexed": true,
							"internalType": "address",
							"name": "newOwner",
							"type": "address"
						}
					],
					"name": "OwnershipTransferred",
					"type": "event"
				},
				{
					"anonymous": false,
					"inputs": [],
					"name": "Pause",
					"type": "event"
				},
				{
					"anonymous": false,
					"inputs": [
						{
							"indexed": false,
							"internalType": "address",
							"name": "account",
							"type": "address"
						}
					],
					"name": "Paused",
					"type": "event"
				},
				{
					"anonymous": false,
					"inputs": [],
					"name": "Unpause",
					"type": "event"
				},
				{
					"anonymous": false,
					"inputs": [
						{
							"indexed": false,
							"internalType": "address",
							"name": "account",
							"type": "address"
						}
					],
					"name": "Unpaused",
					"type": "event"
				},
				{
					"anonymous": false,
					"inputs": [
						{
							"indexed": false,
							"internalType": "uint256",
							"name": "endBlock",
							"type": "uint256"
						}
					],
					"name": "UpdateEndBlock",
					"type": "event"
				},
				{
					"anonymous": false,
					"inputs": [
						{
							"indexed": false,
							"internalType": "uint256",
							"name": "startBlock",
							"type": "uint256"
						},
						{
							"indexed": false,
							"internalType": "uint256",
							"name": "endBlock",
							"type": "uint256"
						}
					],
					"name": "UpdateStartAndEndBlocks",
					"type": "event"
				},
				{
					"anonymous": false,
					"inputs": [
						{
							"indexed": true,
							"internalType": "address",
							"name": "sender",
							"type": "address"
						},
						{
							"indexed": false,
							"internalType": "uint256",
							"name": "lastAvgBalance",
							"type": "uint256"
						},
						{
							"indexed": false,
							"internalType": "uint256",
							"name": "lastActionBalance",
							"type": "uint256"
						},
						{
							"indexed": false,
							"internalType": "uint256",
							"name": "lastValidActionBalance",
							"type": "uint256"
						},
						{
							"indexed": false,
							"internalType": "uint256",
							"name": "lastActionBlock",
							"type": "uint256"
						},
						{
							"indexed": false,
							"internalType": "uint256",
							"name": "lastValidActionBlock",
							"type": "uint256"
						}
					],
					"name": "UpdateUserIFO",
					"type": "event"
				},
				{
					"anonymous": false,
					"inputs": [
						{
							"indexed": true,
							"internalType": "address",
							"name": "sender",
							"type": "address"
						},
						{
							"indexed": false,
							"internalType": "uint256",
							"name": "amount",
							"type": "uint256"
						},
						{
							"indexed": false,
							"internalType": "uint256",
							"name": "shares",
							"type": "uint256"
						}
					],
					"name": "Withdraw",
					"type": "event"
				},
				{
					"anonymous": false,
					"inputs": [
						{
							"indexed": true,
							"internalType": "address",
							"name": "sender",
							"type": "address"
						},
						{
							"indexed": false,
							"internalType": "uint256",
							"name": "currentBlock",
							"type": "uint256"
						}
					],
					"name": "ZeroFreeIFO",
					"type": "event"
				},
				{
					"inputs": [],
					"name": "MAX_CALL_FEE",
					"outputs": [
						{
							"internalType": "uint256",
							"name": "",
							"type": "uint256"
						}
					],
					"stateMutability": "view",
					"type": "function"
				},
				{
					"inputs": [],
					"name": "MAX_PERFORMANCE_FEE",
					"outputs": [
						{
							"internalType": "uint256",
							"name": "",
							"type": "uint256"
						}
					],
					"stateMutability": "view",
					"type": "function"
				},
				{
					"inputs": [],
					"name": "MAX_WITHDRAW_FEE",
					"outputs": [
						{
							"internalType": "uint256",
							"name": "",
							"type": "uint256"
						}
					],
					"stateMutability": "view",
					"type": "function"
				},
				{
					"inputs": [],
					"name": "MAX_WITHDRAW_FEE_PERIOD",
					"outputs": [
						{
							"internalType": "uint256",
							"name": "",
							"type": "uint256"
						}
					],
					"stateMutability": "view",
					"type": "function"
				},
				{
					"inputs": [],
					"name": "admin",
					"outputs": [
						{
							"internalType": "address",
							"name": "",
							"type": "address"
						}
					],
					"stateMutability": "view",
					"type": "function"
				},
				{
					"inputs": [],
					"name": "available",
					"outputs": [
						{
							"internalType": "uint256",
							"name": "",
							"type": "uint256"
						}
					],
					"stateMutability": "view",
					"type": "function"
				},
				{
					"inputs": [],
					"name": "balanceOf",
					"outputs": [
						{
							"internalType": "uint256",
							"name": "",
							"type": "uint256"
						}
					],
					"stateMutability": "view",
					"type": "function"
				},
				{
					"inputs": [],
					"name": "calculateHarvestCakeRewards",
					"outputs": [
						{
							"internalType": "uint256",
							"name": "",
							"type": "uint256"
						}
					],
					"stateMutability": "view",
					"type": "function"
				},
				{
					"inputs": [],
					"name": "calculateTotalPendingCakeRewards",
					"outputs": [
						{
							"internalType": "uint256",
							"name": "",
							"type": "uint256"
						}
					],
					"stateMutability": "view",
					"type": "function"
				},
				{
					"inputs": [],
					"name": "callFee",
					"outputs": [
						{
							"internalType": "uint256",
							"name": "",
							"type": "uint256"
						}
					],
					"stateMutability": "view",
					"type": "function"
				},
				{
					"inputs": [
						{
							"internalType": "uint256",
							"name": "_amount",
							"type": "uint256"
						}
					],
					"name": "deposit",
					"outputs": [],
					"stateMutability": "nonpayable",
					"type": "function"
				},
				{
					"inputs": [],
					"name": "emergencyWithdraw",
					"outputs": [],
					"stateMutability": "nonpayable",
					"type": "function"
				},
				{
					"inputs": [],
					"name": "emergencyWithdrawAll",
					"outputs": [],
					"stateMutability": "nonpayable",
					"type": "function"
				},
				{
					"inputs": [],
					"name": "endBlock",
					"outputs": [
						{
							"internalType": "uint256",
							"name": "",
							"type": "uint256"
						}
					],
					"stateMutability": "view",
					"type": "function"
				},
				{
					"inputs": [],
					"name": "getPricePerFullShare",
					"outputs": [
						{
							"internalType": "uint256",
							"name": "",
							"type": "uint256"
						}
					],
					"stateMutability": "view",
					"type": "function"
				},
				{
					"inputs": [
						{
							"internalType": "address",
							"name": "_user",
							"type": "address"
						}
					],
					"name": "getUserCredit",
					"outputs": [
						{
							"internalType": "uint256",
							"name": "avgBalance",
							"type": "uint256"
						}
					],
					"stateMutability": "view",
					"type": "function"
				},
				{
					"inputs": [],
					"name": "harvest",
					"outputs": [],
					"stateMutability": "nonpayable",
					"type": "function"
				},
				{
					"inputs": [
						{
							"internalType": "address",
							"name": "_token",
							"type": "address"
						}
					],
					"name": "inCaseTokensGetStuck",
					"outputs": [],
					"stateMutability": "nonpayable",
					"type": "function"
				},
				{
					"inputs": [],
					"name": "lastHarvestedTime",
					"outputs": [
						{
							"internalType": "uint256",
							"name": "",
							"type": "uint256"
						}
					],
					"stateMutability": "view",
					"type": "function"
				},
				{
					"inputs": [],
					"name": "masterchef",
					"outputs": [
						{
							"internalType": "contract IMasterChef",
							"name": "",
							"type": "address"
						}
					],
					"stateMutability": "view",
					"type": "function"
				},
				{
					"inputs": [],
					"name": "owner",
					"outputs": [
						{
							"internalType": "address",
							"name": "",
							"type": "address"
						}
					],
					"stateMutability": "view",
					"type": "function"
				},
				{
					"inputs": [],
					"name": "pause",
					"outputs": [],
					"stateMutability": "nonpayable",
					"type": "function"
				},
				{
					"inputs": [],
					"name": "paused",
					"outputs": [
						{
							"internalType": "bool",
							"name": "",
							"type": "bool"
						}
					],
					"stateMutability": "view",
					"type": "function"
				},
				{
					"inputs": [],
					"name": "performanceFee",
					"outputs": [
						{
							"internalType": "uint256",
							"name": "",
							"type": "uint256"
						}
					],
					"stateMutability": "view",
					"type": "function"
				},
				{
					"inputs": [],
					"name": "receiptToken",
					"outputs": [
						{
							"internalType": "contract IERC20",
							"name": "",
							"type": "address"
						}
					],
					"stateMutability": "view",
					"type": "function"
				},
				{
					"inputs": [],
					"name": "renounceOwnership",
					"outputs": [],
					"stateMutability": "nonpayable",
					"type": "function"
				},
				{
					"inputs": [
						{
							"internalType": "address",
							"name": "_admin",
							"type": "address"
						}
					],
					"name": "setAdmin",
					"outputs": [],
					"stateMutability": "nonpayable",
					"type": "function"
				},
				{
					"inputs": [
						{
							"internalType": "uint256",
							"name": "_callFee",
							"type": "uint256"
						}
					],
					"name": "setCallFee",
					"outputs": [],
					"stateMutability": "nonpayable",
					"type": "function"
				},
				{
					"inputs": [
						{
							"internalType": "uint256",
							"name": "_performanceFee",
							"type": "uint256"
						}
					],
					"name": "setPerformanceFee",
					"outputs": [],
					"stateMutability": "nonpayable",
					"type": "function"
				},
				{
					"inputs": [
						{
							"internalType": "address",
							"name": "_treasury",
							"type": "address"
						}
					],
					"name": "setTreasury",
					"outputs": [],
					"stateMutability": "nonpayable",
					"type": "function"
				},
				{
					"inputs": [
						{
							"internalType": "uint256",
							"name": "_withdrawFee",
							"type": "uint256"
						}
					],
					"name": "setWithdrawFee",
					"outputs": [],
					"stateMutability": "nonpayable",
					"type": "function"
				},
				{
					"inputs": [
						{
							"internalType": "uint256",
							"name": "_withdrawFeePeriod",
							"type": "uint256"
						}
					],
					"name": "setWithdrawFeePeriod",
					"outputs": [],
					"stateMutability": "nonpayable",
					"type": "function"
				},
				{
					"inputs": [],
					"name": "startBlock",
					"outputs": [
						{
							"internalType": "uint256",
							"name": "",
							"type": "uint256"
						}
					],
					"stateMutability": "view",
					"type": "function"
				},
				{
					"inputs": [],
					"name": "token",
					"outputs": [
						{
							"internalType": "contract IERC20",
							"name": "",
							"type": "address"
						}
					],
					"stateMutability": "view",
					"type": "function"
				},
				{
					"inputs": [],
					"name": "totalShares",
					"outputs": [
						{
							"internalType": "uint256",
							"name": "",
							"type": "uint256"
						}
					],
					"stateMutability": "view",
					"type": "function"
				},
				{
					"inputs": [
						{
							"internalType": "address",
							"name": "newOwner",
							"type": "address"
						}
					],
					"name": "transferOwnership",
					"outputs": [],
					"stateMutability": "nonpayable",
					"type": "function"
				},
				{
					"inputs": [],
					"name": "treasury",
					"outputs": [
						{
							"internalType": "address",
							"name": "",
							"type": "address"
						}
					],
					"stateMutability": "view",
					"type": "function"
				},
				{
					"inputs": [],
					"name": "unpause",
					"outputs": [],
					"stateMutability": "nonpayable",
					"type": "function"
				},
				{
					"inputs": [
						{
							"internalType": "uint256",
							"name": "_endBlock",
							"type": "uint256"
						}
					],
					"name": "updateEndBlock",
					"outputs": [],
					"stateMutability": "nonpayable",
					"type": "function"
				},
				{
					"inputs": [
						{
							"internalType": "uint256",
							"name": "_startBlock",
							"type": "uint256"
						},
						{
							"internalType": "uint256",
							"name": "_endBlock",
							"type": "uint256"
						}
					],
					"name": "updateStartAndEndBlocks",
					"outputs": [],
					"stateMutability": "nonpayable",
					"type": "function"
				},
				{
					"inputs": [
						{
							"internalType": "address",
							"name": "",
							"type": "address"
						}
					],
					"name": "userIFOInfo",
					"outputs": [
						{
							"internalType": "uint256",
							"name": "lastActionBalance",
							"type": "uint256"
						},
						{
							"internalType": "uint256",
							"name": "lastValidActionBalance",
							"type": "uint256"
						},
						{
							"internalType": "uint256",
							"name": "lastActionBlock",
							"type": "uint256"
						},
						{
							"internalType": "uint256",
							"name": "lastValidActionBlock",
							"type": "uint256"
						},
						{
							"internalType": "uint256",
							"name": "lastAvgBalance",
							"type": "uint256"
						}
					],
					"stateMutability": "view",
					"type": "function"
				},
				{
					"inputs": [
						{
							"internalType": "address",
							"name": "",
							"type": "address"
						}
					],
					"name": "userInfo",
					"outputs": [
						{
							"internalType": "uint256",
							"name": "shares",
							"type": "uint256"
						},
						{
							"internalType": "uint256",
							"name": "lastDepositedTime",
							"type": "uint256"
						},
						{
							"internalType": "uint256",
							"name": "cakeAtLastUserAction",
							"type": "uint256"
						},
						{
							"internalType": "uint256",
							"name": "lastUserActionTime",
							"type": "uint256"
						}
					],
					"stateMutability": "view",
					"type": "function"
				},
				{
					"inputs": [
						{
							"internalType": "uint256",
							"name": "_shares",
							"type": "uint256"
						}
					],
					"name": "withdraw",
					"outputs": [],
					"stateMutability": "nonpayable",
					"type": "function"
				},
				{
					"inputs": [],
					"name": "withdrawAll",
					"outputs": [],
					"stateMutability": "nonpayable",
					"type": "function"
				},
				{
					"inputs": [],
					"name": "withdrawFee",
					"outputs": [
						{
							"internalType": "uint256",
							"name": "",
							"type": "uint256"
						}
					],
					"stateMutability": "view",
					"type": "function"
				},
				{
					"inputs": [],
					"name": "withdrawFeePeriod",
					"outputs": [
						{
							"internalType": "uint256",
							"name": "",
							"type": "uint256"
						}
					],
					"stateMutability": "view",
					"type": "function"
				}
			],
			"devdoc": {
				"kind": "dev",
				"methods": {
					"available()": {
						"details": "The contract puts 100% of the tokens to work."
					},
					"balanceOf()": {
						"details": "It includes tokens held by the contract and held in MasterChef"
					},
					"calculateHarvestCakeRewards()": {
						"returns": {
							"_0": "Expected reward to collect in CAKE"
						}
					},
					"calculateTotalPendingCakeRewards()": {
						"returns": {
							"_0": "Returns total pending cake rewards"
						}
					},
					"constructor": {
						"params": {
							"_admin": ": address of the admin",
							"_endBlock": ": IFO end block height",
							"_masterchef": ": MasterChef contract",
							"_receiptToken": ": Syrup token contract",
							"_startBlock": ": IFO start block height",
							"_token": ": Cake token contract",
							"_treasury": ": address of the treasury (collects fees)"
						}
					},
					"deposit(uint256)": {
						"details": "Only possible when contract not paused.",
						"params": {
							"_amount": ": number of tokens to deposit (in CAKE)"
						}
					},
					"emergencyWithdraw()": {
						"details": "EMERGENCY ONLY. Only callable by the contract admin."
					},
					"getUserCredit(address)": {
						"params": {
							"_user": ": user address"
						}
					},
					"harvest()": {
						"details": "Only possible when contract not paused."
					},
					"owner()": {
						"details": "Returns the address of the current owner."
					},
					"pause()": {
						"details": "Only possible when contract not paused."
					},
					"paused()": {
						"details": "Returns true if the contract is paused, and false otherwise."
					},
					"renounceOwnership()": {
						"details": "Leaves the contract without owner. It will not be possible to call `onlyOwner` functions anymore. Can only be called by the current owner. NOTE: Renouncing ownership will leave the contract without an owner, thereby removing any functionality that is only available to the owner."
					},
					"setAdmin(address)": {
						"details": "Only callable by the contract owner."
					},
					"setCallFee(uint256)": {
						"details": "Only callable by the contract admin."
					},
					"setPerformanceFee(uint256)": {
						"details": "Only callable by the contract admin."
					},
					"setTreasury(address)": {
						"details": "Only callable by the contract owner."
					},
					"setWithdrawFee(uint256)": {
						"details": "Only callable by the contract admin."
					},
					"setWithdrawFeePeriod(uint256)": {
						"details": "Only callable by the contract admin."
					},
					"transferOwnership(address)": {
						"details": "Transfers ownership of the contract to a new account (`newOwner`). Can only be called by the current owner."
					},
					"unpause()": {
						"details": "Only possible when contract is paused."
					},
					"updateEndBlock(uint256)": {
						"details": "This function is only callable by owner.",
						"params": {
							"_endBlock": ": the new end block"
						}
					},
					"updateStartAndEndBlocks(uint256,uint256)": {
						"details": "This function is only callable by owner.",
						"params": {
							"_endBlock": ": the new end block",
							"_startBlock": ": the new start block"
						}
					},
					"withdraw(uint256)": {
						"params": {
							"_shares": ": Number of shares to withdraw"
						}
					}
				},
				"version": 1
			},
			"evm": {
				"assembly": "    /* \"farms-pools/LandbaseLockPool.sol\":229:21848  contract LandbaseLockPool is Ownable, Pausable {\r... */\n  mstore(0x40, 0xe0)\n    /* \"farms-pools/LandbaseLockPool.sol\":2041:2044  200 */\n  0xc8\n    /* \"farms-pools/LandbaseLockPool.sol\":2009:2044  uint256 public performanceFee = 200 */\n  0x09\n  sstore\n    /* \"farms-pools/LandbaseLockPool.sol\":2082:2084  25 */\n  0x19\n    /* \"farms-pools/LandbaseLockPool.sol\":2057:2084  uint256 public callFee = 25 */\n  0x0a\n  sstore\n    /* \"farms-pools/LandbaseLockPool.sol\":2129:2131  10 */\n  0x0a\n    /* \"farms-pools/LandbaseLockPool.sol\":2100:2131  uint256 public withdrawFee = 10 */\n  0x0b\n  sstore\n    /* \"farms-pools/LandbaseLockPool.sol\":2181:2189  72 hours */\n  0x03f480\n    /* \"farms-pools/LandbaseLockPool.sol\":2146:2189  uint256 public withdrawFeePeriod = 72 hours */\n  0x0c\n  sstore\n    /* \"farms-pools/LandbaseLockPool.sol\":3290:4019  constructor(\r... */\n  callvalue\n  dup1\n  iszero\n  tag_1\n  jumpi\n  0x00\n  dup1\n  revert\ntag_1:\n  pop\n  mload(0x40)\n  sub(codesize, bytecodeSize)\n  dup1\n  bytecodeSize\n  dup4\n  codecopy\n  dup2\n  dup2\n  add\n  0x40\n  mstore\n  0xe0\n  dup2\n  lt\n  iszero\n  tag_2\n  jumpi\n  0x00\n  dup1\n  revert\ntag_2:\n  dup2\n  add\n  swap1\n  dup1\n  dup1\n  mload\n  swap1\n  0x20\n  add\n  swap1\n  swap3\n  swap2\n  swap1\n  dup1\n  mload\n  swap1\n  0x20\n  add\n  swap1\n  swap3\n  swap2\n  swap1\n  dup1\n  mload\n  swap1\n  0x20\n  add\n  swap1\n  swap3\n  swap2\n  swap1\n  dup1\n  mload\n  swap1\n  0x20\n  add\n  swap1\n  swap3\n  swap2\n  swap1\n  dup1\n  mload\n  swap1\n  0x20\n  add\n  swap1\n  swap3\n  swap2\n  swap1\n  dup1\n  mload\n  swap1\n  0x20\n  add\n  swap1\n  swap3\n  swap2\n  swap1\n  dup1\n  mload\n  swap1\n  0x20\n  add\n  swap1\n  swap3\n  swap2\n  swap1\n  pop\n  pop\n  pop\n    /* \"farms-pools/access/Ownable.sol\":910:927  address msgSender */\n  0x00\n    /* \"farms-pools/access/Ownable.sol\":930:942  _msgSender() */\n  tag_7\n    /* \"farms-pools/access/Ownable.sol\":930:940  _msgSender */\n  shl(0x20, tag_8)\n    /* \"farms-pools/access/Ownable.sol\":930:942  _msgSender() */\n  0x20\n  shr\n  jump\t// in\ntag_7:\n    /* \"farms-pools/access/Ownable.sol\":910:942  address msgSender = _msgSender() */\n  swap1\n  pop\n    /* \"farms-pools/access/Ownable.sol\":962:971  msgSender */\n  dup1\n    /* \"farms-pools/access/Ownable.sol\":953:959  _owner */\n  0x00\n  dup1\n    /* \"farms-pools/access/Ownable.sol\":953:971  _owner = msgSender */\n  0x0100\n  exp\n  dup2\n  sload\n  dup2\n  0xffffffffffffffffffffffffffffffffffffffff\n  mul\n  not\n  and\n  swap1\n  dup4\n  0xffffffffffffffffffffffffffffffffffffffff\n  and\n  mul\n  or\n  swap1\n  sstore\n  pop\n    /* \"farms-pools/access/Ownable.sol\":1020:1029  msgSender */\n  dup1\n    /* \"farms-pools/access/Ownable.sol\":987:1030  OwnershipTransferred(address(0), msgSender) */\n  0xffffffffffffffffffffffffffffffffffffffff\n  and\n    /* \"farms-pools/access/Ownable.sol\":1016:1017  0 */\n  0x00\n    /* \"farms-pools/access/Ownable.sol\":987:1030  OwnershipTransferred(address(0), msgSender) */\n  0xffffffffffffffffffffffffffffffffffffffff\n  and\n  0x8be0079c531659141344cd1fd0a4f28419497f9722a3daafe3b4186f6b6457e0\n  mload(0x40)\n  mload(0x40)\n  dup1\n  swap2\n  sub\n  swap1\n  log3\n    /* \"farms-pools/access/Ownable.sol\":875:1038  constructor () internal {\r... */\n  pop\n    /* \"farms-pools/utils/Pausable.sol\":977:982  false */\n  0x00\n    /* \"farms-pools/utils/Pausable.sol\":967:974  _paused */\n  dup1\n  0x14\n    /* \"farms-pools/utils/Pausable.sol\":967:982  _paused = false */\n  0x0100\n  exp\n  dup2\n  sload\n  dup2\n  0xff\n  mul\n  not\n  and\n  swap1\n  dup4\n  iszero\n  iszero\n  mul\n  or\n  swap1\n  sstore\n  pop\n    /* \"farms-pools/LandbaseLockPool.sol\":3550:3561  _startBlock */\n  dup2\n    /* \"farms-pools/LandbaseLockPool.sol\":3535:3547  block.number */\n  number\n    /* \"farms-pools/LandbaseLockPool.sol\":3535:3561  block.number < _startBlock */\n  lt\n    /* \"farms-pools/LandbaseLockPool.sol\":3527:3604  require(block.number < _startBlock, \"start block can't behind current block\") */\n  tag_11\n  jumpi\n  mload(0x40)\n  0x08c379a000000000000000000000000000000000000000000000000000000000\n  dup2\n  mstore\n  0x04\n  add\n  dup1\n  dup1\n  0x20\n  add\n  dup3\n  dup2\n  sub\n  dup3\n  mstore\n  0x26\n  dup2\n  mstore\n  0x20\n  add\n  dup1\n  data_506f1b59863f183c6ac4f29f4cc284383ff9846bdae98e937f71108256fea9ea\n  0x26\n  swap2\n  codecopy\n  0x40\n  add\n  swap2\n  pop\n  pop\n  mload(0x40)\n  dup1\n  swap2\n  sub\n  swap1\n  revert\ntag_11:\n    /* \"farms-pools/LandbaseLockPool.sol\":3637:3646  _endBlock */\n  dup1\n    /* \"farms-pools/LandbaseLockPool.sol\":3623:3634  _startBlock */\n  dup3\n    /* \"farms-pools/LandbaseLockPool.sol\":3623:3646  _startBlock < _endBlock */\n  lt\n    /* \"farms-pools/LandbaseLockPool.sol\":3615:3685  require(_startBlock < _endBlock, \"end block can't behind start block\") */\n  tag_12\n  jumpi\n  mload(0x40)\n  0x08c379a000000000000000000000000000000000000000000000000000000000\n  dup2\n  mstore\n  0x04\n  add\n  dup1\n  dup1\n  0x20\n  add\n  dup3\n  dup2\n  sub\n  dup3\n  mstore\n  0x22\n  dup2\n  mstore\n  0x20\n  add\n  dup1\n  data_e7e60fff60ba5b691ce03013041a838e37a54104910525ca5ef5521e8edc3e12\n  0x22\n  swap2\n  codecopy\n  0x40\n  add\n  swap2\n  pop\n  pop\n  mload(0x40)\n  dup1\n  swap2\n  sub\n  swap1\n  revert\ntag_12:\n    /* \"farms-pools/LandbaseLockPool.sol\":3706:3712  _token */\n  dup7\n    /* \"farms-pools/LandbaseLockPool.sol\":3698:3712  token = _token */\n  0xffffffffffffffffffffffffffffffffffffffff\n  and\n  0x80\n  dup2\n  0xffffffffffffffffffffffffffffffffffffffff\n  and\n  0x60\n  shl\n  dup2\n  mstore\n  pop\n  pop\n    /* \"farms-pools/LandbaseLockPool.sol\":3738:3751  _receiptToken */\n  dup6\n    /* \"farms-pools/LandbaseLockPool.sol\":3723:3751  receiptToken = _receiptToken */\n  0xffffffffffffffffffffffffffffffffffffffff\n  and\n  0xa0\n  dup2\n  0xffffffffffffffffffffffffffffffffffffffff\n  and\n  0x60\n  shl\n  dup2\n  mstore\n  pop\n  pop\n    /* \"farms-pools/LandbaseLockPool.sol\":3775:3786  _masterchef */\n  dup5\n    /* \"farms-pools/LandbaseLockPool.sol\":3762:3786  masterchef = _masterchef */\n  0xffffffffffffffffffffffffffffffffffffffff\n  and\n  0xc0\n  dup2\n  0xffffffffffffffffffffffffffffffffffffffff\n  and\n  0x60\n  shl\n  dup2\n  mstore\n  pop\n  pop\n    /* \"farms-pools/LandbaseLockPool.sol\":3805:3811  _admin */\n  dup4\n    /* \"farms-pools/LandbaseLockPool.sol\":3797:3802  admin */\n  0x07\n  0x00\n    /* \"farms-pools/LandbaseLockPool.sol\":3797:3811  admin = _admin */\n  0x0100\n  exp\n  dup2\n  sload\n  dup2\n  0xffffffffffffffffffffffffffffffffffffffff\n  mul\n  not\n  and\n  swap1\n  dup4\n  0xffffffffffffffffffffffffffffffffffffffff\n  and\n  mul\n  or\n  swap1\n  sstore\n  pop\n    /* \"farms-pools/LandbaseLockPool.sol\":3833:3842  _treasury */\n  dup3\n    /* \"farms-pools/LandbaseLockPool.sol\":3822:3830  treasury */\n  0x08\n  0x00\n    /* \"farms-pools/LandbaseLockPool.sol\":3822:3842  treasury = _treasury */\n  0x0100\n  exp\n  dup2\n  sload\n  dup2\n  0xffffffffffffffffffffffffffffffffffffffff\n  mul\n  not\n  and\n  swap1\n  dup4\n  0xffffffffffffffffffffffffffffffffffffffff\n  and\n  mul\n  or\n  swap1\n  sstore\n  pop\n    /* \"farms-pools/LandbaseLockPool.sol\":3866:3877  _startBlock */\n  dup2\n    /* \"farms-pools/LandbaseLockPool.sol\":3853:3863  startBlock */\n  0x03\n    /* \"farms-pools/LandbaseLockPool.sol\":3853:3877  startBlock = _startBlock */\n  dup2\n  swap1\n  sstore\n  pop\n    /* \"farms-pools/LandbaseLockPool.sol\":3899:3908  _endBlock */\n  dup1\n    /* \"farms-pools/LandbaseLockPool.sol\":3888:3896  endBlock */\n  0x04\n    /* \"farms-pools/LandbaseLockPool.sol\":3888:3908  endBlock = _endBlock */\n  dup2\n  swap1\n  sstore\n  pop\n    /* \"farms-pools/LandbaseLockPool.sol\":3950:4011  IERC20(_token).safeApprove(address(_masterchef), uint256(-1)) */\n  tag_13\n    /* \"farms-pools/LandbaseLockPool.sol\":3985:3996  _masterchef */\n  dup6\n    /* \"farms-pools/LandbaseLockPool.sol\":4007:4009  -1 */\n  0xffffffffffffffffffffffffffffffffffffffffffffffffffffffffffffffff\n    /* \"farms-pools/LandbaseLockPool.sol\":3957:3963  _token */\n  dup10\n    /* \"farms-pools/LandbaseLockPool.sol\":3950:3976  IERC20(_token).safeApprove */\n  0xffffffffffffffffffffffffffffffffffffffff\n  and\n  or(tag_0_163, shl(0x20, tag_14))\n  swap1\n    /* \"farms-pools/LandbaseLockPool.sol\":3950:4011  IERC20(_token).safeApprove(address(_masterchef), uint256(-1)) */\n  swap3\n  swap2\n  swap1\n  0x20\n  shr\n  jump\t// in\ntag_13:\n    /* \"farms-pools/LandbaseLockPool.sol\":3290:4019  constructor(\r... */\n  pop\n  pop\n  pop\n  pop\n  pop\n  pop\n  pop\n    /* \"farms-pools/LandbaseLockPool.sol\":229:21848  contract LandbaseLockPool is Ownable, Pausable {\r... */\n  jump(tag_15)\n    /* \"farms-pools/utils/Context.sol\":613:719  function _msgSender() internal view virtual returns (address payable) {\r... */\ntag_8:\n    /* \"farms-pools/utils/Context.sol\":666:681  address payable */\n  0x00\n    /* \"farms-pools/utils/Context.sol\":701:711  msg.sender */\n  caller\n    /* \"farms-pools/utils/Context.sol\":694:711  return msg.sender */\n  swap1\n  pop\n    /* \"farms-pools/utils/Context.sol\":613:719  function _msgSender() internal view virtual returns (address payable) {\r... */\n  swap1\n  jump\t// out\n    /* \"farms-pools/SafeERC20.sol\":1381:2003  function safeApprove(IERC20 token, address spender, uint256 value) internal {\r... */\ntag_14:\n    /* \"farms-pools/SafeERC20.sol\":1760:1761  0 */\n  0x00\n    /* \"farms-pools/SafeERC20.sol\":1751:1756  value */\n  dup2\n    /* \"farms-pools/SafeERC20.sol\":1751:1761  value == 0 */\n  eq\n    /* \"farms-pools/SafeERC20.sol\":1750:1812  (value == 0) || (token.allowance(address(this), spender) == 0) */\n  dup1\n  tag_18\n  jumpi\n  pop\n    /* \"farms-pools/SafeERC20.sol\":1810:1811  0 */\n  0x00\n    /* \"farms-pools/SafeERC20.sol\":1767:1772  token */\n  dup4\n    /* \"farms-pools/SafeERC20.sol\":1767:1782  token.allowance */\n  0xffffffffffffffffffffffffffffffffffffffff\n  and\n  0xdd62ed3e\n    /* \"farms-pools/SafeERC20.sol\":1791:1795  this */\n  address\n    /* \"farms-pools/SafeERC20.sol\":1798:1805  spender */\n  dup6\n    /* \"farms-pools/SafeERC20.sol\":1767:1806  token.allowance(address(this), spender) */\n  mload(0x40)\n  dup4\n  0xffffffff\n  and\n  0xe0\n  shl\n  dup2\n  mstore\n  0x04\n  add\n  dup1\n  dup4\n  0xffffffffffffffffffffffffffffffffffffffff\n  and\n  dup2\n  mstore\n  0x20\n  add\n  dup3\n  0xffffffffffffffffffffffffffffffffffffffff\n  and\n  dup2\n  mstore\n  0x20\n  add\n  swap3\n  pop\n  pop\n  pop\n  0x20\n  mload(0x40)\n  dup1\n  dup4\n  sub\n  dup2\n  dup7\n  dup1\n  extcodesize\n  iszero\n  dup1\n  iszero\n  tag_19\n  jumpi\n  0x00\n  dup1\n  revert\ntag_19:\n  pop\n  gas\n  staticcall\n  iszero\n  dup1\n  iszero\n  tag_21\n  jumpi\n  returndatasize\n  0x00\n  dup1\n  returndatacopy\n  revert(0x00, returndatasize)\ntag_21:\n  pop\n  pop\n  pop\n  pop\n  mload(0x40)\n  returndatasize\n  0x20\n  dup2\n  lt\n  iszero\n  tag_22\n  jumpi\n  0x00\n  dup1\n  revert\ntag_22:\n  dup2\n  add\n  swap1\n  dup1\n  dup1\n  mload\n  swap1\n  0x20\n  add\n  swap1\n  swap3\n  swap2\n  swap1\n  pop\n  pop\n  pop\n    /* \"farms-pools/SafeERC20.sol\":1767:1811  token.allowance(address(this), spender) == 0 */\n  eq\n    /* \"farms-pools/SafeERC20.sol\":1750:1812  (value == 0) || (token.allowance(address(this), spender) == 0) */\ntag_18:\n    /* \"farms-pools/SafeERC20.sol\":1742:1894  require((value == 0) || (token.allowance(address(this), spender) == 0),\r... */\n  tag_23\n  jumpi\n  mload(0x40)\n  0x08c379a000000000000000000000000000000000000000000000000000000000\n  dup2\n  mstore\n  0x04\n  add\n  dup1\n  dup1\n  0x20\n  add\n  dup3\n  dup2\n  sub\n  dup3\n  mstore\n  0x36\n  dup2\n  mstore\n  0x20\n  add\n  dup1\n  data_ef945ddb1bfdc0da870feb4560d868b047642b4ac7f2fb7f8b7c51cb4a411e25\n  0x36\n  swap2\n  codecopy\n  0x40\n  add\n  swap2\n  pop\n  pop\n  mload(0x40)\n  dup1\n  swap2\n  sub\n  swap1\n  revert\ntag_23:\n    /* \"farms-pools/SafeERC20.sol\":1905:1995  _callOptionalReturn(token, abi.encodeWithSelector(token.approve.selector, spender, value)) */\n  tag_24\n    /* \"farms-pools/SafeERC20.sol\":1925:1930  token */\n  dup4\n    /* \"farms-pools/SafeERC20.sol\":1955:1977  token.approve.selector */\n  shl(0xe0, 0x095ea7b3)\n    /* \"farms-pools/SafeERC20.sol\":1979:1986  spender */\n  dup5\n    /* \"farms-pools/SafeERC20.sol\":1988:1993  value */\n  dup5\n    /* \"farms-pools/SafeERC20.sol\":1932:1994  abi.encodeWithSelector(token.approve.selector, spender, value) */\n  add(0x24, mload(0x40))\n  dup1\n  dup4\n  0xffffffffffffffffffffffffffffffffffffffff\n  and\n  dup2\n  mstore\n  0x20\n  add\n  dup3\n  dup2\n  mstore\n  0x20\n  add\n  swap3\n  pop\n  pop\n  pop\n  mload(0x40)\n  0x20\n  dup2\n  dup4\n  sub\n  sub\n  dup2\n  mstore\n  swap1\n  0x40\n  mstore\n  swap1\n  not(0xffffffffffffffffffffffffffffffffffffffffffffffffffffffff)\n  and\n  0x20\n  dup3\n  add\n  dup1\n  mload\n  0xffffffffffffffffffffffffffffffffffffffffffffffffffffffff\n  dup4\n  dup2\n  dup4\n  and\n  or\n  dup4\n  mstore\n  pop\n  pop\n  pop\n  pop\n    /* \"farms-pools/SafeERC20.sol\":1905:1924  _callOptionalReturn */\n  shl(0x20, tag_25)\n    /* \"farms-pools/SafeERC20.sol\":1905:1995  _callOptionalReturn(token, abi.encodeWithSelector(token.approve.selector, spender, value)) */\n  0x20\n  shr\n  jump\t// in\ntag_24:\n    /* \"farms-pools/SafeERC20.sol\":1381:2003  function safeApprove(IERC20 token, address spender, uint256 value) internal {\r... */\n  pop\n  pop\n  pop\n  jump\t// out\n    /* \"farms-pools/SafeERC20.sol\":3027:3788  function _callOptionalReturn(IERC20 token, bytes memory data) private {\r... */\ntag_25:\n    /* \"farms-pools/SafeERC20.sol\":3451:3474  bytes memory returndata */\n  0x60\n    /* \"farms-pools/SafeERC20.sol\":3477:3546  address(token).functionCall(data, \"SafeERC20: low-level call failed\") */\n  tag_27\n    /* \"farms-pools/SafeERC20.sol\":3505:3509  data */\n  dup3\n    /* \"farms-pools/SafeERC20.sol\":3477:3546  address(token).functionCall(data, \"SafeERC20: low-level call failed\") */\n  mload(0x40)\n  dup1\n  0x40\n  add\n  0x40\n  mstore\n  dup1\n  0x20\n  dup2\n  mstore\n  0x20\n  add\n  0x5361666545524332303a206c6f772d6c6576656c2063616c6c206661696c6564\n  dup2\n  mstore\n  pop\n    /* \"farms-pools/SafeERC20.sol\":3485:3490  token */\n  dup6\n    /* \"farms-pools/SafeERC20.sol\":3477:3504  address(token).functionCall */\n  0xffffffffffffffffffffffffffffffffffffffff\n  and\n  or(tag_0_164, shl(0x20, tag_28))\n  swap1\n    /* \"farms-pools/SafeERC20.sol\":3477:3546  address(token).functionCall(data, \"SafeERC20: low-level call failed\") */\n  swap3\n  swap2\n  swap1\n  0x20\n  shr\n  jump\t// in\ntag_27:\n    /* \"farms-pools/SafeERC20.sol\":3451:3546  bytes memory returndata = address(token).functionCall(data, \"SafeERC20: low-level call failed\") */\n  swap1\n  pop\n    /* \"farms-pools/SafeERC20.sol\":3581:3582  0 */\n  0x00\n    /* \"farms-pools/SafeERC20.sol\":3561:3571  returndata */\n  dup2\n    /* \"farms-pools/SafeERC20.sol\":3561:3578  returndata.length */\n  mload\n    /* \"farms-pools/SafeERC20.sol\":3561:3582  returndata.length > 0 */\n  gt\n    /* \"farms-pools/SafeERC20.sol\":3557:3781  if (returndata.length > 0) { // Return data is optional\r... */\n  iszero\n  tag_29\n  jumpi\n    /* \"farms-pools/SafeERC20.sol\":3703:3713  returndata */\n  dup1\n    /* \"farms-pools/SafeERC20.sol\":3692:3722  abi.decode(returndata, (bool)) */\n  dup1\n  0x20\n  add\n  swap1\n  mload\n  0x20\n  dup2\n  lt\n  iszero\n  tag_30\n  jumpi\n  0x00\n  dup1\n  revert\ntag_30:\n  dup2\n  add\n  swap1\n  dup1\n  dup1\n  mload\n  swap1\n  0x20\n  add\n  swap1\n  swap3\n  swap2\n  swap1\n  pop\n  pop\n  pop\n    /* \"farms-pools/SafeERC20.sol\":3684:3769  require(abi.decode(returndata, (bool)), \"SafeERC20: ERC20 operation did not succeed\") */\n  tag_31\n  jumpi\n  mload(0x40)\n  0x08c379a000000000000000000000000000000000000000000000000000000000\n  dup2\n  mstore\n  0x04\n  add\n  dup1\n  dup1\n  0x20\n  add\n  dup3\n  dup2\n  sub\n  dup3\n  mstore\n  0x2a\n  dup2\n  mstore\n  0x20\n  add\n  dup1\n  data_e11ad79d1e4a7f2e5f376964cb99e8e8f7904e3fc16a109f7a7ecb9aa7956dcd\n  0x2a\n  swap2\n  codecopy\n  0x40\n  add\n  swap2\n  pop\n  pop\n  mload(0x40)\n  dup1\n  swap2\n  sub\n  swap1\n  revert\ntag_31:\n    /* \"farms-pools/SafeERC20.sol\":3557:3781  if (returndata.length > 0) { // Return data is optional\r... */\ntag_29:\n    /* \"farms-pools/SafeERC20.sol\":3027:3788  function _callOptionalReturn(IERC20 token, bytes memory data) private {\r... */\n  pop\n  pop\n  pop\n  jump\t// out\n    /* \"farms-pools/utils/Address.sol\":3669:3864  function functionCall(address target, bytes memory data, string memory errorMessage) internal returns (bytes memory) {\r... */\ntag_28:\n    /* \"farms-pools/utils/Address.sol\":3772:3784  bytes memory */\n  0x60\n    /* \"farms-pools/utils/Address.sol\":3804:3856  functionCallWithValue(target, data, 0, errorMessage) */\n  tag_33\n    /* \"farms-pools/utils/Address.sol\":3826:3832  target */\n  dup5\n    /* \"farms-pools/utils/Address.sol\":3834:3838  data */\n  dup5\n    /* \"farms-pools/utils/Address.sol\":3840:3841  0 */\n  0x00\n    /* \"farms-pools/utils/Address.sol\":3843:3855  errorMessage */\n  dup6\n    /* \"farms-pools/utils/Address.sol\":3804:3825  functionCallWithValue */\n  shl(0x20, tag_34)\n    /* \"farms-pools/utils/Address.sol\":3804:3856  functionCallWithValue(target, data, 0, errorMessage) */\n  0x20\n  shr\n  jump\t// in\ntag_33:\n    /* \"farms-pools/utils/Address.sol\":3797:3856  return functionCallWithValue(target, data, 0, errorMessage) */\n  swap1\n  pop\n    /* \"farms-pools/utils/Address.sol\":3669:3864  function functionCall(address target, bytes memory data, string memory errorMessage) internal returns (bytes memory) {\r... */\n  swap4\n  swap3\n  pop\n  pop\n  pop\n  jump\t// out\n    /* \"farms-pools/utils/Address.sol\":4721:5251  function functionCallWithValue(address target, bytes memory data, uint256 value, string memory errorMessage) internal returns (bytes memory) {\r... */\ntag_34:\n    /* \"farms-pools/utils/Address.sol\":4848:4860  bytes memory */\n  0x60\n    /* \"farms-pools/utils/Address.sol\":4906:4911  value */\n  dup3\n    /* \"farms-pools/utils/Address.sol\":4881:4902  address(this).balance */\n  selfbalance\n    /* \"farms-pools/utils/Address.sol\":4881:4911  address(this).balance >= value */\n  lt\n  iszero\n    /* \"farms-pools/utils/Address.sol\":4873:4954  require(address(this).balance >= value, \"Address: insufficient balance for call\") */\n  tag_36\n  jumpi\n  mload(0x40)\n  0x08c379a000000000000000000000000000000000000000000000000000000000\n  dup2\n  mstore\n  0x04\n  add\n  dup1\n  dup1\n  0x20\n  add\n  dup3\n  dup2\n  sub\n  dup3\n  mstore\n  0x26\n  dup2\n  mstore\n  0x20\n  add\n  dup1\n  data_565f1a77334fc4792800921178c71e4521acffab18ff9e7885b49377ee80ab4c\n  0x26\n  swap2\n  codecopy\n  0x40\n  add\n  swap2\n  pop\n  pop\n  mload(0x40)\n  dup1\n  swap2\n  sub\n  swap1\n  revert\ntag_36:\n    /* \"farms-pools/utils/Address.sol\":4973:4991  isContract(target) */\n  tag_37\n    /* \"farms-pools/utils/Address.sol\":4984:4990  target */\n  dup6\n    /* \"farms-pools/utils/Address.sol\":4973:4983  isContract */\n  shl(0x20, tag_38)\n    /* \"farms-pools/utils/Address.sol\":4973:4991  isContract(target) */\n  0x20\n  shr\n  jump\t// in\ntag_37:\n    /* \"farms-pools/utils/Address.sol\":4965:5025  require(isContract(target), \"Address: call to non-contract\") */\n  tag_39\n  jumpi\n  mload(0x40)\n  0x08c379a000000000000000000000000000000000000000000000000000000000\n  dup2\n  mstore\n  0x04\n  add\n  dup1\n  dup1\n  0x20\n  add\n  dup3\n  dup2\n  sub\n  dup3\n  mstore\n  0x1d\n  dup2\n  mstore\n  0x20\n  add\n  dup1\n  0x416464726573733a2063616c6c20746f206e6f6e2d636f6e7472616374000000\n  dup2\n  mstore\n  pop\n  0x20\n  add\n  swap2\n  pop\n  pop\n  mload(0x40)\n  dup1\n  swap2\n  sub\n  swap1\n  revert\ntag_39:\n    /* \"farms-pools/utils/Address.sol\":5099:5111  bool success */\n  0x00\n    /* \"farms-pools/utils/Address.sol\":5113:5136  bytes memory returndata */\n  0x60\n    /* \"farms-pools/utils/Address.sol\":5140:5146  target */\n  dup7\n    /* \"farms-pools/utils/Address.sol\":5140:5151  target.call */\n  0xffffffffffffffffffffffffffffffffffffffff\n  and\n    /* \"farms-pools/utils/Address.sol\":5160:5165  value */\n  dup6\n    /* \"farms-pools/utils/Address.sol\":5168:5172  data */\n  dup8\n    /* \"farms-pools/utils/Address.sol\":5140:5173  target.call{ value: value }(data) */\n  mload(0x40)\n  dup1\n  dup3\n  dup1\n  mload\n  swap1\n  0x20\n  add\n  swap1\n  dup1\n  dup4\n  dup4\ntag_40:\n  0x20\n  dup4\n  lt\n  tag_42\n  jumpi\n  dup1\n  mload\n  dup3\n  mstore\n  0x20\n  dup3\n  add\n  swap2\n  pop\n  0x20\n  dup2\n  add\n  swap1\n  pop\n  0x20\n  dup4\n  sub\n  swap3\n  pop\n  jump(tag_40)\ntag_42:\n  0x01\n  dup4\n  0x20\n  sub\n  0x0100\n  exp\n  sub\n  dup1\n  not\n  dup3\n  mload\n  and\n  dup2\n  dup5\n  mload\n  and\n  dup1\n  dup3\n  or\n  dup6\n  mstore\n  pop\n  pop\n  pop\n  pop\n  pop\n  pop\n  swap1\n  pop\n  add\n  swap2\n  pop\n  pop\n  0x00\n  mload(0x40)\n  dup1\n  dup4\n  sub\n  dup2\n  dup6\n  dup8\n  gas\n  call\n  swap3\n  pop\n  pop\n  pop\n  returndatasize\n  dup1\n  0x00\n  dup2\n  eq\n  tag_45\n  jumpi\n  mload(0x40)\n  swap2\n  pop\n  and(add(returndatasize, 0x3f), not(0x1f))\n  dup3\n  add\n  0x40\n  mstore\n  returndatasize\n  dup3\n  mstore\n  returndatasize\n  0x00\n  0x20\n  dup5\n  add\n  returndatacopy\n  jump(tag_44)\ntag_45:\n  0x60\n  swap2\n  pop\ntag_44:\n  pop\n    /* \"farms-pools/utils/Address.sol\":5098:5173  (bool success, bytes memory returndata) = target.call{ value: value }(data) */\n  swap2\n  pop\n  swap2\n  pop\n    /* \"farms-pools/utils/Address.sol\":5191:5243  _verifyCallResult(success, returndata, errorMessage) */\n  tag_46\n    /* \"farms-pools/utils/Address.sol\":5209:5216  success */\n  dup3\n    /* \"farms-pools/utils/Address.sol\":5218:5228  returndata */\n  dup3\n    /* \"farms-pools/utils/Address.sol\":5230:5242  errorMessage */\n  dup7\n    /* \"farms-pools/utils/Address.sol\":5191:5208  _verifyCallResult */\n  shl(0x20, tag_47)\n    /* \"farms-pools/utils/Address.sol\":5191:5243  _verifyCallResult(success, returndata, errorMessage) */\n  0x20\n  shr\n  jump\t// in\ntag_46:\n    /* \"farms-pools/utils/Address.sol\":5184:5243  return _verifyCallResult(success, returndata, errorMessage) */\n  swap3\n  pop\n  pop\n  pop\n    /* \"farms-pools/utils/Address.sol\":4721:5251  function functionCallWithValue(address target, bytes memory data, uint256 value, string memory errorMessage) internal returns (bytes memory) {\r... */\n  swap5\n  swap4\n  pop\n  pop\n  pop\n  pop\n  jump\t// out\n    /* \"farms-pools/utils/Address.sol\":751:1173  function isContract(address account) internal view returns (bool) {\r... */\ntag_38:\n    /* \"farms-pools/utils/Address.sol\":811:815  bool */\n  0x00\n    /* \"farms-pools/utils/Address.sol\":1019:1031  uint256 size */\n  dup1\n    /* \"farms-pools/utils/Address.sol\":1130:1137  account */\n  dup3\n    /* \"farms-pools/utils/Address.sol\":1118:1138  extcodesize(account) */\n  extcodesize\n    /* \"farms-pools/utils/Address.sol\":1110:1138  size := extcodesize(account) */\n  swap1\n  pop\n    /* \"farms-pools/utils/Address.sol\":1164:1165  0 */\n  0x00\n    /* \"farms-pools/utils/Address.sol\":1157:1161  size */\n  dup2\n    /* \"farms-pools/utils/Address.sol\":1157:1165  size > 0 */\n  gt\n    /* \"farms-pools/utils/Address.sol\":1150:1165  return size > 0 */\n  swap2\n  pop\n  pop\n    /* \"farms-pools/utils/Address.sol\":751:1173  function isContract(address account) internal view returns (bool) {\r... */\n  swap2\n  swap1\n  pop\n  jump\t// out\n    /* \"farms-pools/utils/Address.sol\":7261:8003  function _verifyCallResult(bool success, bytes memory returndata, string memory errorMessage) private pure returns(bytes memory) {\r... */\ntag_47:\n    /* \"farms-pools/utils/Address.sol\":7376:7388  bytes memory */\n  0x60\n    /* \"farms-pools/utils/Address.sol\":7405:7412  success */\n  dup4\n    /* \"farms-pools/utils/Address.sol\":7401:7996  if (success) {\r... */\n  iszero\n  tag_50\n  jumpi\n    /* \"farms-pools/utils/Address.sol\":7436:7446  returndata */\n  dup3\n    /* \"farms-pools/utils/Address.sol\":7429:7446  return returndata */\n  swap1\n  pop\n  jump(tag_49)\n    /* \"farms-pools/utils/Address.sol\":7401:7996  if (success) {\r... */\ntag_50:\n    /* \"farms-pools/utils/Address.sol\":7570:7571  0 */\n  0x00\n    /* \"farms-pools/utils/Address.sol\":7550:7560  returndata */\n  dup4\n    /* \"farms-pools/utils/Address.sol\":7550:7567  returndata.length */\n  mload\n    /* \"farms-pools/utils/Address.sol\":7550:7571  returndata.length > 0 */\n  gt\n    /* \"farms-pools/utils/Address.sol\":7546:7985  if (returndata.length > 0) {\r... */\n  iszero\n  tag_52\n  jumpi\n    /* \"farms-pools/utils/Address.sol\":7813:7823  returndata */\n  dup3\n    /* \"farms-pools/utils/Address.sol\":7807:7824  mload(returndata) */\n  mload\n    /* \"farms-pools/utils/Address.sol\":7874:7889  returndata_size */\n  dup1\n    /* \"farms-pools/utils/Address.sol\":7861:7871  returndata */\n  dup5\n    /* \"farms-pools/utils/Address.sol\":7857:7859  32 */\n  0x20\n    /* \"farms-pools/utils/Address.sol\":7853:7872  add(32, returndata) */\n  add\n    /* \"farms-pools/utils/Address.sol\":7846:7890  revert(add(32, returndata), returndata_size) */\n  revert\n    /* \"farms-pools/utils/Address.sol\":7761:7909  {\r... */\ntag_52:\n    /* \"farms-pools/utils/Address.sol\":7956:7968  errorMessage */\n  dup2\n    /* \"farms-pools/utils/Address.sol\":7949:7969  revert(errorMessage) */\n  mload(0x40)\n  0x08c379a000000000000000000000000000000000000000000000000000000000\n  dup2\n  mstore\n  0x04\n  add\n  dup1\n  dup1\n  0x20\n  add\n  dup3\n  dup2\n  sub\n  dup3\n  mstore\n  dup4\n  dup2\n  dup2\n  mload\n  dup2\n  mstore\n  0x20\n  add\n  swap2\n  pop\n  dup1\n  mload\n  swap1\n  0x20\n  add\n  swap1\n  dup1\n  dup4\n  dup4\n  0x00\ntag_54:\n  dup4\n  dup2\n  lt\n  iszero\n  tag_56\n  jumpi\n  dup1\n  dup3\n  add\n  mload\n  dup2\n  dup5\n  add\n  mstore\n  0x20\n  dup2\n  add\n  swap1\n  pop\n  jump(tag_54)\ntag_56:\n  pop\n  pop\n  pop\n  pop\n  swap1\n  pop\n  swap1\n  dup2\n  add\n  swap1\n  0x1f\n  and\n  dup1\n  iszero\n  tag_57\n  jumpi\n  dup1\n  dup3\n  sub\n  dup1\n  mload\n  0x01\n  dup4\n  0x20\n  sub\n  0x0100\n  exp\n  sub\n  not\n  and\n  dup2\n  mstore\n  0x20\n  add\n  swap2\n  pop\ntag_57:\n  pop\n  swap3\n  pop\n  pop\n  pop\n  mload(0x40)\n  dup1\n  swap2\n  sub\n  swap1\n  revert\n    /* \"farms-pools/utils/Address.sol\":7261:8003  function _verifyCallResult(bool success, bytes memory returndata, string memory errorMessage) private pure returns(bytes memory) {\r... */\ntag_49:\n  swap4\n  swap3\n  pop\n  pop\n  pop\n  jump\t// out\n    /* \"farms-pools/LandbaseLockPool.sol\":229:21848  contract LandbaseLockPool is Ownable, Pausable {\r... */\ntag_15:\n  shr(0x60, mload(0x80))\n  shr(0x60, mload(0xa0))\n  shr(0x60, mload(0xc0))\n  codecopy(0x00, dataOffset(sub_0), dataSize(sub_0))\n  assignImmutable(\"0x64e604787cbf194841e7b68d7cd28786f6c9a0a3ab9f8b0a0e87cb4387ab0107\")\n  assignImmutable(\"0xb9aa4ff60d3edb7fbc3b53bd780c9274ed80a5ba1a237d38b011edab2b031b4a\")\n  assignImmutable(\"0x7ae9fd093408c444e1cd944d183f5410919486c93305c223a5a94b5e79d77d3b\")\n  return(0x00, dataSize(sub_0))\nstop\ndata_506f1b59863f183c6ac4f29f4cc284383ff9846bdae98e937f71108256fea9ea 737461727420626c6f636b2063616e277420626568696e642063757272656e7420626c6f636b\ndata_565f1a77334fc4792800921178c71e4521acffab18ff9e7885b49377ee80ab4c 416464726573733a20696e73756666696369656e742062616c616e636520666f722063616c6c\ndata_e11ad79d1e4a7f2e5f376964cb99e8e8f7904e3fc16a109f7a7ecb9aa7956dcd 5361666545524332303a204552433230206f7065726174696f6e20646964206e6f742073756363656564\ndata_e7e60fff60ba5b691ce03013041a838e37a54104910525ca5ef5521e8edc3e12 656e6420626c6f636b2063616e277420626568696e6420737461727420626c6f636b\ndata_ef945ddb1bfdc0da870feb4560d868b047642b4ac7f2fb7f8b7c51cb4a411e25 5361666545524332303a20617070726f76652066726f6d206e6f6e2d7a65726f20746f206e6f6e2d7a65726f20616c6c6f77616e6365\n\nsub_0: assembly {\n        /* \"farms-pools/LandbaseLockPool.sol\":229:21848  contract LandbaseLockPool is Ownable, Pausable {\r... */\n      mstore(0x40, 0x80)\n      callvalue\n      dup1\n      iszero\n      tag_1\n      jumpi\n      0x00\n      dup1\n      revert\n    tag_1:\n      pop\n      jumpi(tag_2, lt(calldatasize, 0x04))\n      shr(0xe0, calldataload(0x00))\n      dup1\n      0x853828b6\n      gt\n      tag_49\n      jumpi\n      dup1\n      0xdad6f0dc\n      gt\n      tag_50\n      jumpi\n      dup1\n      0xec78e832\n      gt\n      tag_51\n      jumpi\n      dup1\n      0xec78e832\n      eq\n      tag_43\n      jumpi\n      dup1\n      0xf0f44260\n      eq\n      tag_44\n      jumpi\n      dup1\n      0xf2fde38b\n      eq\n      tag_45\n      jumpi\n      dup1\n      0xf851a440\n      eq\n      tag_46\n      jumpi\n      dup1\n      0xfb1db278\n      eq\n      tag_47\n      jumpi\n      dup1\n      0xfc0c546a\n      eq\n      tag_48\n      jumpi\n      jump(tag_2)\n    tag_51:\n      dup1\n      0xdad6f0dc\n      eq\n      tag_37\n      jumpi\n      dup1\n      0xdb2e21bc\n      eq\n      tag_38\n      jumpi\n      dup1\n      0xdd191719\n      eq\n      tag_39\n      jumpi\n      dup1\n      0xdef68a9c\n      eq\n      tag_40\n      jumpi\n      dup1\n      0xdf10b4e6\n      eq\n      tag_41\n      jumpi\n      dup1\n      0xe941fa78\n      eq\n      tag_42\n      jumpi\n      jump(tag_2)\n    tag_50:\n      dup1\n      0x9d72596b\n      gt\n      tag_52\n      jumpi\n      dup1\n      0x9d72596b\n      eq\n      tag_31\n      jumpi\n      dup1\n      0xb60f0531\n      eq\n      tag_32\n      jumpi\n      dup1\n      0xb6ac642a\n      eq\n      tag_33\n      jumpi\n      dup1\n      0xb6b55f25\n      eq\n      tag_34\n      jumpi\n      dup1\n      0xbdca9165\n      eq\n      tag_35\n      jumpi\n      dup1\n      0xd4b0de2f\n      eq\n      tag_36\n      jumpi\n      jump(tag_2)\n    tag_52:\n      dup1\n      0x853828b6\n      eq\n      tag_26\n      jumpi\n      dup1\n      0x87788782\n      eq\n      tag_27\n      jumpi\n      dup1\n      0x8da5cb5b\n      eq\n      tag_28\n      jumpi\n      dup1\n      0x90321e1a\n      eq\n      tag_29\n      jumpi\n      dup1\n      0x9513997f\n      eq\n      tag_30\n      jumpi\n      jump(tag_2)\n    tag_49:\n      dup1\n      0x4641257d\n      gt\n      tag_53\n      jumpi\n      dup1\n      0x704b6c02\n      gt\n      tag_54\n      jumpi\n      dup1\n      0x704b6c02\n      eq\n      tag_20\n      jumpi\n      dup1\n      0x70897b23\n      eq\n      tag_21\n      jumpi\n      dup1\n      0x715018a6\n      eq\n      tag_22\n      jumpi\n      dup1\n      0x722713f7\n      eq\n      tag_23\n      jumpi\n      dup1\n      0x77c7b8fc\n      eq\n      tag_24\n      jumpi\n      dup1\n      0x8456cb59\n      eq\n      tag_25\n      jumpi\n      jump(tag_2)\n    tag_54:\n      dup1\n      0x4641257d\n      eq\n      tag_14\n      jumpi\n      dup1\n      0x48a0d754\n      eq\n      tag_15\n      jumpi\n      dup1\n      0x48cd4cb1\n      eq\n      tag_16\n      jumpi\n      dup1\n      0x58ebceb6\n      eq\n      tag_17\n      jumpi\n      dup1\n      0x5c975abb\n      eq\n      tag_18\n      jumpi\n      dup1\n      0x61d027b3\n      eq\n      tag_19\n      jumpi\n      jump(tag_2)\n    tag_53:\n      dup1\n      0x26465826\n      gt\n      tag_55\n      jumpi\n      dup1\n      0x26465826\n      eq\n      tag_8\n      jumpi\n      dup1\n      0x2ad5a53f\n      eq\n      tag_9\n      jumpi\n      dup1\n      0x2cfc5f01\n      eq\n      tag_10\n      jumpi\n      dup1\n      0x2e1a7d4d\n      eq\n      tag_11\n      jumpi\n      dup1\n      0x3a98ef39\n      eq\n      tag_12\n      jumpi\n      dup1\n      0x3f4ba83a\n      eq\n      tag_13\n      jumpi\n      jump(tag_2)\n    tag_55:\n      dup1\n      0x6f0231\n      eq\n      tag_3\n      jumpi\n      dup1\n      0x06f5a745\n      eq\n      tag_4\n      jumpi\n      dup1\n      0x083c6323\n      eq\n      tag_5\n      jumpi\n      dup1\n      0x1959a002\n      eq\n      tag_6\n      jumpi\n      dup1\n      0x1efac1b8\n      eq\n      tag_7\n      jumpi\n    tag_2:\n      0x00\n      dup1\n      revert\n        /* \"farms-pools/LandbaseLockPool.sol\":18049:18371  function updateEndBlock(uint256 _endBlock) external onlyAdmin {\r... */\n    tag_3:\n      tag_56\n      0x04\n      dup1\n      calldatasize\n      sub\n      0x20\n      dup2\n      lt\n      iszero\n      tag_57\n      jumpi\n      0x00\n      dup1\n      revert\n    tag_57:\n      dup2\n      add\n      swap1\n      dup1\n      dup1\n      calldataload\n      swap1\n      0x20\n      add\n      swap1\n      swap3\n      swap2\n      swap1\n      pop\n      pop\n      pop\n      tag_58\n      jump\t// in\n    tag_56:\n      stop\n        /* \"farms-pools/LandbaseLockPool.sol\":1500:1551  mapping(address =>  UserIFOInfo) public userIFOInfo */\n    tag_4:\n      tag_59\n      0x04\n      dup1\n      calldatasize\n      sub\n      0x20\n      dup2\n      lt\n      iszero\n      tag_60\n      jumpi\n      0x00\n      dup1\n      revert\n    tag_60:\n      dup2\n      add\n      swap1\n      dup1\n      dup1\n      calldataload\n      0xffffffffffffffffffffffffffffffffffffffff\n      and\n      swap1\n      0x20\n      add\n      swap1\n      swap3\n      swap2\n      swap1\n      pop\n      pop\n      pop\n      tag_61\n      jump\t// in\n    tag_59:\n      mload(0x40)\n      dup1\n      dup7\n      dup2\n      mstore\n      0x20\n      add\n      dup6\n      dup2\n      mstore\n      0x20\n      add\n      dup5\n      dup2\n      mstore\n      0x20\n      add\n      dup4\n      dup2\n      mstore\n      0x20\n      add\n      dup3\n      dup2\n      mstore\n      0x20\n      add\n      swap6\n      pop\n      pop\n      pop\n      pop\n      pop\n      pop\n      mload(0x40)\n      dup1\n      swap2\n      sub\n      swap1\n      return\n        /* \"farms-pools/LandbaseLockPool.sol\":1592:1615  uint256 public endBlock */\n    tag_5:\n      tag_62\n      tag_63\n      jump\t// in\n    tag_62:\n      mload(0x40)\n      dup1\n      dup3\n      dup2\n      mstore\n      0x20\n      add\n      swap2\n      pop\n      pop\n      mload(0x40)\n      dup1\n      swap2\n      sub\n      swap1\n      return\n        /* \"farms-pools/LandbaseLockPool.sol\":1438:1482  mapping(address => UserInfo) public userInfo */\n    tag_6:\n      tag_64\n      0x04\n      dup1\n      calldatasize\n      sub\n      0x20\n      dup2\n      lt\n      iszero\n      tag_65\n      jumpi\n      0x00\n      dup1\n      revert\n    tag_65:\n      dup2\n      add\n      swap1\n      dup1\n      dup1\n      calldataload\n      0xffffffffffffffffffffffffffffffffffffffff\n      and\n      swap1\n      0x20\n      add\n      swap1\n      swap3\n      swap2\n      swap1\n      pop\n      pop\n      pop\n      tag_66\n      jump\t// in\n    tag_64:\n      mload(0x40)\n      dup1\n      dup6\n      dup2\n      mstore\n      0x20\n      add\n      dup5\n      dup2\n      mstore\n      0x20\n      add\n      dup4\n      dup2\n      mstore\n      0x20\n      add\n      dup3\n      dup2\n      mstore\n      0x20\n      add\n      swap5\n      pop\n      pop\n      pop\n      pop\n      pop\n      mload(0x40)\n      dup1\n      swap2\n      sub\n      swap1\n      return\n        /* \"farms-pools/LandbaseLockPool.sol\":16901:17202  function setWithdrawFeePeriod(uint256 _withdrawFeePeriod) external onlyAdmin {\r... */\n    tag_7:\n      tag_67\n      0x04\n      dup1\n      calldatasize\n      sub\n      0x20\n      dup2\n      lt\n      iszero\n      tag_68\n      jumpi\n      0x00\n      dup1\n      revert\n    tag_68:\n      dup2\n      add\n      swap1\n      dup1\n      dup1\n      calldataload\n      swap1\n      0x20\n      add\n      swap1\n      swap3\n      swap2\n      swap1\n      pop\n      pop\n      pop\n      tag_69\n      jump\t// in\n    tag_67:\n      stop\n        /* \"farms-pools/LandbaseLockPool.sol\":16278:16460  function setCallFee(uint256 _callFee) external onlyAdmin {\r... */\n    tag_8:\n      tag_70\n      0x04\n      dup1\n      calldatasize\n      sub\n      0x20\n      dup2\n      lt\n      iszero\n      tag_71\n      jumpi\n      0x00\n      dup1\n      revert\n    tag_71:\n      dup2\n      add\n      swap1\n      dup1\n      dup1\n      calldataload\n      swap1\n      0x20\n      add\n      swap1\n      swap3\n      swap2\n      swap1\n      pop\n      pop\n      pop\n      tag_72\n      jump\t// in\n    tag_70:\n      stop\n        /* \"farms-pools/LandbaseLockPool.sol\":1817:1859  uint256 public constant MAX_CALL_FEE = 100 */\n    tag_9:\n      tag_73\n      tag_74\n      jump\t// in\n    tag_73:\n      mload(0x40)\n      dup1\n      dup3\n      dup2\n      mstore\n      0x20\n      add\n      swap2\n      pop\n      pop\n      mload(0x40)\n      dup1\n      swap2\n      sub\n      swap1\n      return\n        /* \"farms-pools/LandbaseLockPool.sol\":1931:1990  uint256 public constant MAX_WITHDRAW_FEE_PERIOD = 168 hours */\n    tag_10:\n      tag_75\n      tag_76\n      jump\t// in\n    tag_75:\n      mload(0x40)\n      dup1\n      dup3\n      dup2\n      mstore\n      0x20\n      add\n      swap2\n      pop\n      pop\n      mload(0x40)\n      dup1\n      swap2\n      sub\n      swap1\n      return\n        /* \"farms-pools/LandbaseLockPool.sol\":11095:12739  function withdraw(uint256 _shares) public notContract {\r... */\n    tag_11:\n      tag_77\n      0x04\n      dup1\n      calldatasize\n      sub\n      0x20\n      dup2\n      lt\n      iszero\n      tag_78\n      jumpi\n      0x00\n      dup1\n      revert\n    tag_78:\n      dup2\n      add\n      swap1\n      dup1\n      dup1\n      calldataload\n      swap1\n      0x20\n      add\n      swap1\n      swap3\n      swap2\n      swap1\n      pop\n      pop\n      pop\n      tag_79\n      jump\t// in\n    tag_77:\n      stop\n        /* \"farms-pools/LandbaseLockPool.sol\":1624:1650  uint256 public totalShares */\n    tag_12:\n      tag_80\n      tag_81\n      jump\t// in\n    tag_80:\n      mload(0x40)\n      dup1\n      dup3\n      dup2\n      mstore\n      0x20\n      add\n      swap2\n      pop\n      pop\n      mload(0x40)\n      dup1\n      swap2\n      sub\n      swap1\n      return\n        /* \"farms-pools/LandbaseLockPool.sol\":19518:19621  function unpause() external onlyAdmin whenPaused {\r... */\n    tag_13:\n      tag_82\n      tag_83\n      jump\t// in\n    tag_82:\n      stop\n        /* \"farms-pools/LandbaseLockPool.sol\":14665:15277  function harvest() external notContract whenNotPaused {\r... */\n    tag_14:\n      tag_84\n      tag_85\n      jump\t// in\n    tag_84:\n      stop\n        /* \"farms-pools/LandbaseLockPool.sol\":20801:20908  function available() public view returns (uint256) {\r... */\n    tag_15:\n      tag_86\n      tag_87\n      jump\t// in\n    tag_86:\n      mload(0x40)\n      dup1\n      dup3\n      dup2\n      mstore\n      0x20\n      add\n      swap2\n      pop\n      pop\n      mload(0x40)\n      dup1\n      swap2\n      sub\n      swap1\n      return\n        /* \"farms-pools/LandbaseLockPool.sol\":1560:1585  uint256 public startBlock */\n    tag_16:\n      tag_88\n      tag_89\n      jump\t// in\n    tag_88:\n      mload(0x40)\n      dup1\n      dup3\n      dup2\n      mstore\n      0x20\n      add\n      swap2\n      pop\n      pop\n      mload(0x40)\n      dup1\n      swap2\n      sub\n      swap1\n      return\n        /* \"farms-pools/LandbaseLockPool.sol\":20181:20415  function calculateTotalPendingCakeRewards() external view returns (uint256) {\r... */\n    tag_17:\n      tag_90\n      tag_91\n      jump\t// in\n    tag_90:\n      mload(0x40)\n      dup1\n      dup3\n      dup2\n      mstore\n      0x20\n      add\n      swap2\n      pop\n      pop\n      mload(0x40)\n      dup1\n      swap2\n      sub\n      swap1\n      return\n        /* \"farms-pools/utils/Pausable.sol\":1090:1176  function paused() public view virtual returns (bool) {\r... */\n    tag_18:\n      tag_92\n      tag_93\n      jump\t// in\n    tag_92:\n      mload(0x40)\n      dup1\n      dup3\n      iszero\n      iszero\n      dup2\n      mstore\n      0x20\n      add\n      swap2\n      pop\n      pop\n      mload(0x40)\n      dup1\n      swap2\n      sub\n      swap1\n      return\n        /* \"farms-pools/LandbaseLockPool.sol\":1723:1746  address public treasury */\n    tag_19:\n      tag_94\n      tag_95\n      jump\t// in\n    tag_94:\n      mload(0x40)\n      dup1\n      dup3\n      0xffffffffffffffffffffffffffffffffffffffff\n      and\n      dup2\n      mstore\n      0x20\n      add\n      swap2\n      pop\n      pop\n      mload(0x40)\n      dup1\n      swap2\n      sub\n      swap1\n      return\n        /* \"farms-pools/LandbaseLockPool.sol\":15388:15540  function setAdmin(address _admin) external onlyOwner {\r... */\n    tag_20:\n      tag_96\n      0x04\n      dup1\n      calldatasize\n      sub\n      0x20\n      dup2\n      lt\n      iszero\n      tag_97\n      jumpi\n      0x00\n      dup1\n      revert\n    tag_97:\n      dup2\n      add\n      swap1\n      dup1\n      dup1\n      calldataload\n      0xffffffffffffffffffffffffffffffffffffffff\n      and\n      swap1\n      0x20\n      add\n      swap1\n      swap3\n      swap2\n      swap1\n      pop\n      pop\n      pop\n      tag_98\n      jump\t// in\n    tag_96:\n      stop\n        /* \"farms-pools/LandbaseLockPool.sol\":15934:16172  function setPerformanceFee(uint256 _performanceFee) external onlyAdmin {\r... */\n    tag_21:\n      tag_99\n      0x04\n      dup1\n      calldatasize\n      sub\n      0x20\n      dup2\n      lt\n      iszero\n      tag_100\n      jumpi\n      0x00\n      dup1\n      revert\n    tag_100:\n      dup2\n      add\n      swap1\n      dup1\n      dup1\n      calldataload\n      swap1\n      0x20\n      add\n      swap1\n      swap3\n      swap2\n      swap1\n      pop\n      pop\n      pop\n      tag_101\n      jump\t// in\n    tag_99:\n      stop\n        /* \"farms-pools/access/Ownable.sol\":1770:1918  function renounceOwnership() public virtual onlyOwner {\r... */\n    tag_22:\n      tag_102\n      tag_103\n      jump\t// in\n    tag_102:\n      stop\n        /* \"farms-pools/LandbaseLockPool.sol\":21065:21266  function balanceOf() public view returns (uint256) {\r... */\n    tag_23:\n      tag_104\n      tag_105\n      jump\t// in\n    tag_104:\n      mload(0x40)\n      dup1\n      dup3\n      dup2\n      mstore\n      0x20\n      add\n      swap2\n      pop\n      pop\n      mload(0x40)\n      dup1\n      swap2\n      sub\n      swap1\n      return\n        /* \"farms-pools/LandbaseLockPool.sol\":20488:20642  function getPricePerFullShare() external view returns (uint256) {\r... */\n    tag_24:\n      tag_106\n      tag_107\n      jump\t// in\n    tag_106:\n      mload(0x40)\n      dup1\n      dup3\n      dup2\n      mstore\n      0x20\n      add\n      swap2\n      pop\n      pop\n      mload(0x40)\n      dup1\n      swap2\n      sub\n      swap1\n      return\n        /* \"farms-pools/LandbaseLockPool.sol\":19300:19400  function pause() external onlyAdmin whenNotPaused {\r... */\n    tag_25:\n      tag_108\n      tag_109\n      jump\t// in\n    tag_108:\n      stop\n        /* \"farms-pools/LandbaseLockPool.sol\":10135:10235  function withdrawAll() external notContract {\r... */\n    tag_26:\n      tag_110\n      tag_111\n      jump\t// in\n    tag_110:\n      stop\n        /* \"farms-pools/LandbaseLockPool.sol\":2009:2044  uint256 public performanceFee = 200 */\n    tag_27:\n      tag_112\n      tag_113\n      jump\t// in\n    tag_112:\n      mload(0x40)\n      dup1\n      dup3\n      dup2\n      mstore\n      0x20\n      add\n      swap2\n      pop\n      pop\n      mload(0x40)\n      dup1\n      swap2\n      sub\n      swap1\n      return\n        /* \"farms-pools/access/Ownable.sol\":1119:1206  function owner() public view virtual returns (address) {\r... */\n    tag_28:\n      tag_114\n      tag_115\n      jump\t// in\n    tag_114:\n      mload(0x40)\n      dup1\n      dup3\n      0xffffffffffffffffffffffffffffffffffffffff\n      and\n      dup2\n      mstore\n      0x20\n      add\n      swap2\n      pop\n      pop\n      mload(0x40)\n      dup1\n      swap2\n      sub\n      swap1\n      return\n        /* \"farms-pools/LandbaseLockPool.sol\":2057:2084  uint256 public callFee = 25 */\n    tag_29:\n      tag_116\n      tag_117\n      jump\t// in\n    tag_116:\n      mload(0x40)\n      dup1\n      dup3\n      dup2\n      mstore\n      0x20\n      add\n      swap2\n      pop\n      pop\n      mload(0x40)\n      dup1\n      swap2\n      sub\n      swap1\n      return\n        /* \"farms-pools/LandbaseLockPool.sol\":17441:17869  function updateStartAndEndBlocks(uint256 _startBlock, uint256 _endBlock) external onlyAdmin {\r... */\n    tag_30:\n      tag_118\n      0x04\n      dup1\n      calldatasize\n      sub\n      0x40\n      dup2\n      lt\n      iszero\n      tag_119\n      jumpi\n      0x00\n      dup1\n      revert\n    tag_119:\n      dup2\n      add\n      swap1\n      dup1\n      dup1\n      calldataload\n      swap1\n      0x20\n      add\n      swap1\n      swap3\n      swap2\n      swap1\n      dup1\n      calldataload\n      swap1\n      0x20\n      add\n      swap1\n      swap3\n      swap2\n      swap1\n      pop\n      pop\n      pop\n      tag_120\n      jump\t// in\n    tag_118:\n      stop\n        /* \"farms-pools/LandbaseLockPool.sol\":19770:20030  function calculateHarvestCakeRewards() external view returns (uint256) {\r... */\n    tag_31:\n      tag_121\n      tag_122\n      jump\t// in\n    tag_121:\n      mload(0x40)\n      dup1\n      dup3\n      dup2\n      mstore\n      0x20\n      add\n      swap2\n      pop\n      pop\n      mload(0x40)\n      dup1\n      swap2\n      sub\n      swap1\n      return\n        /* \"farms-pools/LandbaseLockPool.sol\":1657:1689  uint256 public lastHarvestedTime */\n    tag_32:\n      tag_123\n      tag_124\n      jump\t// in\n    tag_123:\n      mload(0x40)\n      dup1\n      dup3\n      dup2\n      mstore\n      0x20\n      add\n      swap2\n      pop\n      pop\n      mload(0x40)\n      dup1\n      swap2\n      sub\n      swap1\n      return\n        /* \"farms-pools/LandbaseLockPool.sol\":16570:16784  function setWithdrawFee(uint256 _withdrawFee) external onlyAdmin {\r... */\n    tag_33:\n      tag_125\n      0x04\n      dup1\n      calldatasize\n      sub\n      0x20\n      dup2\n      lt\n      iszero\n      tag_126\n      jumpi\n      0x00\n      dup1\n      revert\n    tag_126:\n      dup2\n      add\n      swap1\n      dup1\n      dup1\n      calldataload\n      swap1\n      0x20\n      add\n      swap1\n      swap3\n      swap2\n      swap1\n      pop\n      pop\n      pop\n      tag_127\n      jump\t// in\n    tag_125:\n      stop\n        /* \"farms-pools/LandbaseLockPool.sol\":4670:5733  function deposit(uint256 _amount) external whenNotPaused notContract {\r... */\n    tag_34:\n      tag_128\n      0x04\n      dup1\n      calldatasize\n      sub\n      0x20\n      dup2\n      lt\n      iszero\n      tag_129\n      jumpi\n      0x00\n      dup1\n      revert\n    tag_129:\n      dup2\n      add\n      swap1\n      dup1\n      dup1\n      calldataload\n      swap1\n      0x20\n      add\n      swap1\n      swap3\n      swap2\n      swap1\n      pop\n      pop\n      pop\n      tag_130\n      jump\t// in\n    tag_128:\n      stop\n        /* \"farms-pools/LandbaseLockPool.sol\":1755:1804  uint256 public constant MAX_PERFORMANCE_FEE = 600 */\n    tag_35:\n      tag_131\n      tag_132\n      jump\t// in\n    tag_131:\n      mload(0x40)\n      dup1\n      dup3\n      dup2\n      mstore\n      0x20\n      add\n      swap2\n      pop\n      pop\n      mload(0x40)\n      dup1\n      swap2\n      sub\n      swap1\n      return\n        /* \"farms-pools/LandbaseLockPool.sol\":1872:1918  uint256 public constant MAX_WITHDRAW_FEE = 400 */\n    tag_36:\n      tag_133\n      tag_134\n      jump\t// in\n    tag_133:\n      mload(0x40)\n      dup1\n      dup3\n      dup2\n      mstore\n      0x20\n      add\n      swap2\n      pop\n      pop\n      mload(0x40)\n      dup1\n      swap2\n      sub\n      swap1\n      return\n        /* \"farms-pools/LandbaseLockPool.sol\":9626:10062  function getUserCredit(address _user) external view returns(uint256 avgBalance) {\r... */\n    tag_37:\n      tag_135\n      0x04\n      dup1\n      calldatasize\n      sub\n      0x20\n      dup2\n      lt\n      iszero\n      tag_136\n      jumpi\n      0x00\n      dup1\n      revert\n    tag_136:\n      dup2\n      add\n      swap1\n      dup1\n      dup1\n      calldataload\n      0xffffffffffffffffffffffffffffffffffffffff\n      and\n      swap1\n      0x20\n      add\n      swap1\n      swap3\n      swap2\n      swap1\n      pop\n      pop\n      pop\n      tag_137\n      jump\t// in\n    tag_135:\n      mload(0x40)\n      dup1\n      dup3\n      dup2\n      mstore\n      0x20\n      add\n      swap2\n      pop\n      pop\n      mload(0x40)\n      dup1\n      swap2\n      sub\n      swap1\n      return\n        /* \"farms-pools/LandbaseLockPool.sol\":18544:18713  function emergencyWithdraw() external onlyAdmin {\r... */\n    tag_38:\n      tag_138\n      tag_139\n      jump\t// in\n    tag_138:\n      stop\n        /* \"farms-pools/LandbaseLockPool.sol\":10378:10514  function emergencyWithdrawAll() external notContract {\r... */\n    tag_39:\n      tag_140\n      tag_141\n      jump\t// in\n    tag_140:\n      stop\n        /* \"farms-pools/LandbaseLockPool.sol\":18805:19182  function inCaseTokensGetStuck(address _token) external onlyAdmin {\r... */\n    tag_40:\n      tag_142\n      0x04\n      dup1\n      calldatasize\n      sub\n      0x20\n      dup2\n      lt\n      iszero\n      tag_143\n      jumpi\n      0x00\n      dup1\n      revert\n    tag_143:\n      dup2\n      add\n      swap1\n      dup1\n      dup1\n      calldataload\n      0xffffffffffffffffffffffffffffffffffffffff\n      and\n      swap1\n      0x20\n      add\n      swap1\n      swap3\n      swap2\n      swap1\n      pop\n      pop\n      pop\n      tag_144\n      jump\t// in\n    tag_142:\n      stop\n        /* \"farms-pools/LandbaseLockPool.sol\":2146:2189  uint256 public withdrawFeePeriod = 72 hours */\n    tag_41:\n      tag_145\n      tag_146\n      jump\t// in\n    tag_145:\n      mload(0x40)\n      dup1\n      dup3\n      dup2\n      mstore\n      0x20\n      add\n      swap2\n      pop\n      pop\n      mload(0x40)\n      dup1\n      swap2\n      sub\n      swap1\n      return\n        /* \"farms-pools/LandbaseLockPool.sol\":2100:2131  uint256 public withdrawFee = 10 */\n    tag_42:\n      tag_147\n      tag_148\n      jump\t// in\n    tag_147:\n      mload(0x40)\n      dup1\n      dup3\n      dup2\n      mstore\n      0x20\n      add\n      swap2\n      pop\n      pop\n      mload(0x40)\n      dup1\n      swap2\n      sub\n      swap1\n      return\n        /* \"farms-pools/LandbaseLockPool.sol\":1330:1366  IERC20 public immutable receiptToken */\n    tag_43:\n      tag_149\n      tag_150\n      jump\t// in\n    tag_149:\n      mload(0x40)\n      dup1\n      dup3\n      0xffffffffffffffffffffffffffffffffffffffff\n      and\n      dup2\n      mstore\n      0x20\n      add\n      swap2\n      pop\n      pop\n      mload(0x40)\n      dup1\n      swap2\n      sub\n      swap1\n      return\n        /* \"farms-pools/LandbaseLockPool.sol\":15654:15821  function setTreasury(address _treasury) external onlyOwner {\r... */\n    tag_44:\n      tag_151\n      0x04\n      dup1\n      calldatasize\n      sub\n      0x20\n      dup2\n      lt\n      iszero\n      tag_152\n      jumpi\n      0x00\n      dup1\n      revert\n    tag_152:\n      dup2\n      add\n      swap1\n      dup1\n      dup1\n      calldataload\n      0xffffffffffffffffffffffffffffffffffffffff\n      and\n      swap1\n      0x20\n      add\n      swap1\n      swap3\n      swap2\n      swap1\n      pop\n      pop\n      pop\n      tag_153\n      jump\t// in\n    tag_151:\n      stop\n        /* \"farms-pools/access/Ownable.sol\":2073:2317  function transferOwnership(address newOwner) public virtual onlyOwner {\r... */\n    tag_45:\n      tag_154\n      0x04\n      dup1\n      calldatasize\n      sub\n      0x20\n      dup2\n      lt\n      iszero\n      tag_155\n      jumpi\n      0x00\n      dup1\n      revert\n    tag_155:\n      dup2\n      add\n      swap1\n      dup1\n      dup1\n      calldataload\n      0xffffffffffffffffffffffffffffffffffffffff\n      and\n      swap1\n      0x20\n      add\n      swap1\n      swap3\n      swap2\n      swap1\n      pop\n      pop\n      pop\n      tag_156\n      jump\t// in\n    tag_154:\n      stop\n        /* \"farms-pools/LandbaseLockPool.sol\":1696:1716  address public admin */\n    tag_46:\n      tag_157\n      tag_158\n      jump\t// in\n    tag_157:\n      mload(0x40)\n      dup1\n      dup3\n      0xffffffffffffffffffffffffffffffffffffffff\n      and\n      dup2\n      mstore\n      0x20\n      add\n      swap2\n      pop\n      pop\n      mload(0x40)\n      dup1\n      swap2\n      sub\n      swap1\n      return\n        /* \"farms-pools/LandbaseLockPool.sol\":1390:1429  IMasterChef public immutable masterchef */\n    tag_47:\n      tag_159\n      tag_160\n      jump\t// in\n    tag_159:\n      mload(0x40)\n      dup1\n      dup3\n      0xffffffffffffffffffffffffffffffffffffffff\n      and\n      dup2\n      mstore\n      0x20\n      add\n      swap2\n      pop\n      pop\n      mload(0x40)\n      dup1\n      swap2\n      sub\n      swap1\n      return\n        /* \"farms-pools/LandbaseLockPool.sol\":1280:1309  IERC20 public immutable token */\n    tag_48:\n      tag_161\n      tag_162\n      jump\t// in\n    tag_161:\n      mload(0x40)\n      dup1\n      dup3\n      0xffffffffffffffffffffffffffffffffffffffff\n      and\n      dup2\n      mstore\n      0x20\n      add\n      swap2\n      pop\n      pop\n      mload(0x40)\n      dup1\n      swap2\n      sub\n      swap1\n      return\n        /* \"farms-pools/LandbaseLockPool.sol\":18049:18371  function updateEndBlock(uint256 _endBlock) external onlyAdmin {\r... */\n    tag_58:\n        /* \"farms-pools/LandbaseLockPool.sol\":4161:4166  admin */\n      0x07\n      0x00\n      swap1\n      sload\n      swap1\n      0x0100\n      exp\n      swap1\n      div\n      0xffffffffffffffffffffffffffffffffffffffff\n      and\n        /* \"farms-pools/LandbaseLockPool.sol\":4147:4166  msg.sender == admin */\n      0xffffffffffffffffffffffffffffffffffffffff\n      and\n        /* \"farms-pools/LandbaseLockPool.sol\":4147:4157  msg.sender */\n      caller\n        /* \"farms-pools/LandbaseLockPool.sol\":4147:4166  msg.sender == admin */\n      0xffffffffffffffffffffffffffffffffffffffff\n      and\n      eq\n        /* \"farms-pools/LandbaseLockPool.sol\":4139:4182  require(msg.sender == admin, \"admin: wut?\") */\n      tag_166\n      jumpi\n      mload(0x40)\n      0x08c379a000000000000000000000000000000000000000000000000000000000\n      dup2\n      mstore\n      0x04\n      add\n      dup1\n      dup1\n      0x20\n      add\n      dup3\n      dup2\n      sub\n      dup3\n      mstore\n      0x0b\n      dup2\n      mstore\n      0x20\n      add\n      dup1\n      0x61646d696e3a207775743f000000000000000000000000000000000000000000\n      dup2\n      mstore\n      pop\n      0x20\n      add\n      swap2\n      pop\n      pop\n      mload(0x40)\n      dup1\n      swap2\n      sub\n      swap1\n      revert\n    tag_166:\n        /* \"farms-pools/LandbaseLockPool.sol\":18145:18154  _endBlock */\n      dup1\n        /* \"farms-pools/LandbaseLockPool.sol\":18130:18142  block.number */\n      number\n        /* \"farms-pools/LandbaseLockPool.sol\":18130:18154  block.number < _endBlock */\n      lt\n        /* \"farms-pools/LandbaseLockPool.sol\":18122:18199  require(block.number < _endBlock, \"new end block can't behind current block\") */\n      tag_168\n      jumpi\n      mload(0x40)\n      0x08c379a000000000000000000000000000000000000000000000000000000000\n      dup2\n      mstore\n      0x04\n      add\n      dup1\n      dup1\n      0x20\n      add\n      dup3\n      dup2\n      sub\n      dup3\n      mstore\n      0x28\n      dup2\n      mstore\n      0x20\n      add\n      dup1\n      data_6d2e0ee418a4fa9636bc860d0410414c2f3bb829ed67581046f589a0e038df7e\n      0x28\n      swap2\n      codecopy\n      0x40\n      add\n      swap2\n      pop\n      pop\n      mload(0x40)\n      dup1\n      swap2\n      sub\n      swap1\n      revert\n    tag_168:\n        /* \"farms-pools/LandbaseLockPool.sol\":18233:18241  endBlock */\n      sload(0x04)\n        /* \"farms-pools/LandbaseLockPool.sol\":18218:18230  block.number */\n      number\n        /* \"farms-pools/LandbaseLockPool.sol\":18218:18241  block.number < endBlock */\n      lt\n        /* \"farms-pools/LandbaseLockPool.sol\":18210:18287  require(block.number < endBlock,  \"old end block can't behind current block\") */\n      tag_169\n      jumpi\n      mload(0x40)\n      0x08c379a000000000000000000000000000000000000000000000000000000000\n      dup2\n      mstore\n      0x04\n      add\n      dup1\n      dup1\n      0x20\n      add\n      dup3\n      dup2\n      sub\n      dup3\n      mstore\n      0x28\n      dup2\n      mstore\n      0x20\n      add\n      dup1\n      data_e10f87a14096ac956401d5f800040ab40e68d1d271dcb4693c1df00be0147b71\n      0x28\n      swap2\n      codecopy\n      0x40\n      add\n      swap2\n      pop\n      pop\n      mload(0x40)\n      dup1\n      swap2\n      sub\n      swap1\n      revert\n    tag_169:\n        /* \"farms-pools/LandbaseLockPool.sol\":18311:18320  _endBlock */\n      dup1\n        /* \"farms-pools/LandbaseLockPool.sol\":18300:18308  endBlock */\n      0x04\n        /* \"farms-pools/LandbaseLockPool.sol\":18300:18320  endBlock = _endBlock */\n      dup2\n      swap1\n      sstore\n      pop\n        /* \"farms-pools/LandbaseLockPool.sol\":18338:18363  UpdateEndBlock(_endBlock) */\n      0x72a01621587849e39c667eb81696643997f818c6c286614cd1497e5ef2e9ecd6\n        /* \"farms-pools/LandbaseLockPool.sol\":18353:18362  _endBlock */\n      dup2\n        /* \"farms-pools/LandbaseLockPool.sol\":18338:18363  UpdateEndBlock(_endBlock) */\n      mload(0x40)\n      dup1\n      dup3\n      dup2\n      mstore\n      0x20\n      add\n      swap2\n      pop\n      pop\n      mload(0x40)\n      dup1\n      swap2\n      sub\n      swap1\n      log1\n        /* \"farms-pools/LandbaseLockPool.sol\":18049:18371  function updateEndBlock(uint256 _endBlock) external onlyAdmin {\r... */\n      pop\n      jump\t// out\n        /* \"farms-pools/LandbaseLockPool.sol\":1500:1551  mapping(address =>  UserIFOInfo) public userIFOInfo */\n    tag_61:\n      mstore(0x20, 0x02)\n      dup1\n      0x00\n      mstore\n      keccak256(0x00, 0x40)\n      0x00\n      swap2\n      pop\n      swap1\n      pop\n      dup1\n      0x00\n      add\n      sload\n      swap1\n      dup1\n      0x01\n      add\n      sload\n      swap1\n      dup1\n      0x02\n      add\n      sload\n      swap1\n      dup1\n      0x03\n      add\n      sload\n      swap1\n      dup1\n      0x04\n      add\n      sload\n      swap1\n      pop\n      dup6\n      jump\t// out\n        /* \"farms-pools/LandbaseLockPool.sol\":1592:1615  uint256 public endBlock */\n    tag_63:\n      sload(0x04)\n      dup2\n      jump\t// out\n        /* \"farms-pools/LandbaseLockPool.sol\":1438:1482  mapping(address => UserInfo) public userInfo */\n    tag_66:\n      mstore(0x20, 0x01)\n      dup1\n      0x00\n      mstore\n      keccak256(0x00, 0x40)\n      0x00\n      swap2\n      pop\n      swap1\n      pop\n      dup1\n      0x00\n      add\n      sload\n      swap1\n      dup1\n      0x01\n      add\n      sload\n      swap1\n      dup1\n      0x02\n      add\n      sload\n      swap1\n      dup1\n      0x03\n      add\n      sload\n      swap1\n      pop\n      dup5\n      jump\t// out\n        /* \"farms-pools/LandbaseLockPool.sol\":16901:17202  function setWithdrawFeePeriod(uint256 _withdrawFeePeriod) external onlyAdmin {\r... */\n    tag_69:\n        /* \"farms-pools/LandbaseLockPool.sol\":4161:4166  admin */\n      0x07\n      0x00\n      swap1\n      sload\n      swap1\n      0x0100\n      exp\n      swap1\n      div\n      0xffffffffffffffffffffffffffffffffffffffff\n      and\n        /* \"farms-pools/LandbaseLockPool.sol\":4147:4166  msg.sender == admin */\n      0xffffffffffffffffffffffffffffffffffffffff\n      and\n        /* \"farms-pools/LandbaseLockPool.sol\":4147:4157  msg.sender */\n      caller\n        /* \"farms-pools/LandbaseLockPool.sol\":4147:4166  msg.sender == admin */\n      0xffffffffffffffffffffffffffffffffffffffff\n      and\n      eq\n        /* \"farms-pools/LandbaseLockPool.sol\":4139:4182  require(msg.sender == admin, \"admin: wut?\") */\n      tag_171\n      jumpi\n      mload(0x40)\n      0x08c379a000000000000000000000000000000000000000000000000000000000\n      dup2\n      mstore\n      0x04\n      add\n      dup1\n      dup1\n      0x20\n      add\n      dup3\n      dup2\n      sub\n      dup3\n      mstore\n      0x0b\n      dup2\n      mstore\n      0x20\n      add\n      dup1\n      0x61646d696e3a207775743f000000000000000000000000000000000000000000\n      dup2\n      mstore\n      pop\n      0x20\n      add\n      swap2\n      pop\n      pop\n      mload(0x40)\n      dup1\n      swap2\n      sub\n      swap1\n      revert\n    tag_171:\n        /* \"farms-pools/LandbaseLockPool.sol\":1981:1990  168 hours */\n      0x093a80\n        /* \"farms-pools/LandbaseLockPool.sol\":17011:17029  _withdrawFeePeriod */\n      dup2\n        /* \"farms-pools/LandbaseLockPool.sol\":17011:17056  _withdrawFeePeriod <= MAX_WITHDRAW_FEE_PERIOD */\n      gt\n      iszero\n        /* \"farms-pools/LandbaseLockPool.sol\":16989:17145  require(\r... */\n      tag_173\n      jumpi\n      mload(0x40)\n      0x08c379a000000000000000000000000000000000000000000000000000000000\n      dup2\n      mstore\n      0x04\n      add\n      dup1\n      dup1\n      0x20\n      add\n      dup3\n      dup2\n      sub\n      dup3\n      mstore\n      0x3d\n      dup2\n      mstore\n      0x20\n      add\n      dup1\n      data_cfca239801295453e18a917561471428326355dcfd35c2679d3e455f8ddb6850\n      0x3d\n      swap2\n      codecopy\n      0x40\n      add\n      swap2\n      pop\n      pop\n      mload(0x40)\n      dup1\n      swap2\n      sub\n      swap1\n      revert\n    tag_173:\n        /* \"farms-pools/LandbaseLockPool.sol\":17176:17194  _withdrawFeePeriod */\n      dup1\n        /* \"farms-pools/LandbaseLockPool.sol\":17156:17173  withdrawFeePeriod */\n      0x0c\n        /* \"farms-pools/LandbaseLockPool.sol\":17156:17194  withdrawFeePeriod = _withdrawFeePeriod */\n      dup2\n      swap1\n      sstore\n      pop\n        /* \"farms-pools/LandbaseLockPool.sol\":16901:17202  function setWithdrawFeePeriod(uint256 _withdrawFeePeriod) external onlyAdmin {\r... */\n      pop\n      jump\t// out\n        /* \"farms-pools/LandbaseLockPool.sol\":16278:16460  function setCallFee(uint256 _callFee) external onlyAdmin {\r... */\n    tag_72:\n        /* \"farms-pools/LandbaseLockPool.sol\":4161:4166  admin */\n      0x07\n      0x00\n      swap1\n      sload\n      swap1\n      0x0100\n      exp\n      swap1\n      div\n      0xffffffffffffffffffffffffffffffffffffffff\n      and\n        /* \"farms-pools/LandbaseLockPool.sol\":4147:4166  msg.sender == admin */\n      0xffffffffffffffffffffffffffffffffffffffff\n      and\n        /* \"farms-pools/LandbaseLockPool.sol\":4147:4157  msg.sender */\n      caller\n        /* \"farms-pools/LandbaseLockPool.sol\":4147:4166  msg.sender == admin */\n      0xffffffffffffffffffffffffffffffffffffffff\n      and\n      eq\n        /* \"farms-pools/LandbaseLockPool.sol\":4139:4182  require(msg.sender == admin, \"admin: wut?\") */\n      tag_175\n      jumpi\n      mload(0x40)\n      0x08c379a000000000000000000000000000000000000000000000000000000000\n      dup2\n      mstore\n      0x04\n      add\n      dup1\n      dup1\n      0x20\n      add\n      dup3\n      dup2\n      sub\n      dup3\n      mstore\n      0x0b\n      dup2\n      mstore\n      0x20\n      add\n      dup1\n      0x61646d696e3a207775743f000000000000000000000000000000000000000000\n      dup2\n      mstore\n      pop\n      0x20\n      add\n      swap2\n      pop\n      pop\n      mload(0x40)\n      dup1\n      swap2\n      sub\n      swap1\n      revert\n    tag_175:\n        /* \"farms-pools/LandbaseLockPool.sol\":1856:1859  100 */\n      0x64\n        /* \"farms-pools/LandbaseLockPool.sol\":16354:16362  _callFee */\n      dup2\n        /* \"farms-pools/LandbaseLockPool.sol\":16354:16378  _callFee <= MAX_CALL_FEE */\n      gt\n      iszero\n        /* \"farms-pools/LandbaseLockPool.sol\":16346:16423  require(_callFee <= MAX_CALL_FEE, \"callFee cannot be more than MAX_CALL_FEE\") */\n      tag_177\n      jumpi\n      mload(0x40)\n      0x08c379a000000000000000000000000000000000000000000000000000000000\n      dup2\n      mstore\n      0x04\n      add\n      dup1\n      dup1\n      0x20\n      add\n      dup3\n      dup2\n      sub\n      dup3\n      mstore\n      0x28\n      dup2\n      mstore\n      0x20\n      add\n      dup1\n      data_5f4afedb5cb4c613eb925791e30905bbaa67a23ed369aa450ccf1eb0e08c07ff\n      0x28\n      swap2\n      codecopy\n      0x40\n      add\n      swap2\n      pop\n      pop\n      mload(0x40)\n      dup1\n      swap2\n      sub\n      swap1\n      revert\n    tag_177:\n        /* \"farms-pools/LandbaseLockPool.sol\":16444:16452  _callFee */\n      dup1\n        /* \"farms-pools/LandbaseLockPool.sol\":16434:16441  callFee */\n      0x0a\n        /* \"farms-pools/LandbaseLockPool.sol\":16434:16452  callFee = _callFee */\n      dup2\n      swap1\n      sstore\n      pop\n        /* \"farms-pools/LandbaseLockPool.sol\":16278:16460  function setCallFee(uint256 _callFee) external onlyAdmin {\r... */\n      pop\n      jump\t// out\n        /* \"farms-pools/LandbaseLockPool.sol\":1817:1859  uint256 public constant MAX_CALL_FEE = 100 */\n    tag_74:\n        /* \"farms-pools/LandbaseLockPool.sol\":1856:1859  100 */\n      0x64\n        /* \"farms-pools/LandbaseLockPool.sol\":1817:1859  uint256 public constant MAX_CALL_FEE = 100 */\n      dup2\n      jump\t// out\n        /* \"farms-pools/LandbaseLockPool.sol\":1931:1990  uint256 public constant MAX_WITHDRAW_FEE_PERIOD = 168 hours */\n    tag_76:\n        /* \"farms-pools/LandbaseLockPool.sol\":1981:1990  168 hours */\n      0x093a80\n        /* \"farms-pools/LandbaseLockPool.sol\":1931:1990  uint256 public constant MAX_WITHDRAW_FEE_PERIOD = 168 hours */\n      dup2\n      jump\t// out\n        /* \"farms-pools/LandbaseLockPool.sol\":11095:12739  function withdraw(uint256 _shares) public notContract {\r... */\n    tag_79:\n        /* \"farms-pools/LandbaseLockPool.sol\":4337:4360  _isContract(msg.sender) */\n      tag_179\n        /* \"farms-pools/LandbaseLockPool.sol\":4349:4359  msg.sender */\n      caller\n        /* \"farms-pools/LandbaseLockPool.sol\":4337:4348  _isContract */\n      tag_180\n        /* \"farms-pools/LandbaseLockPool.sol\":4337:4360  _isContract(msg.sender) */\n      jump\t// in\n    tag_179:\n        /* \"farms-pools/LandbaseLockPool.sol\":4336:4360  !_isContract(msg.sender) */\n      iszero\n        /* \"farms-pools/LandbaseLockPool.sol\":4328:4385  require(!_isContract(msg.sender), \"contract not allowed\") */\n      tag_181\n      jumpi\n      mload(0x40)\n      0x08c379a000000000000000000000000000000000000000000000000000000000\n      dup2\n      mstore\n      0x04\n      add\n      dup1\n      dup1\n      0x20\n      add\n      dup3\n      dup2\n      sub\n      dup3\n      mstore\n      0x14\n      dup2\n      mstore\n      0x20\n      add\n      dup1\n      0x636f6e7472616374206e6f7420616c6c6f776564000000000000000000000000\n      dup2\n      mstore\n      pop\n      0x20\n      add\n      swap2\n      pop\n      pop\n      mload(0x40)\n      dup1\n      swap2\n      sub\n      swap1\n      revert\n    tag_181:\n        /* \"farms-pools/LandbaseLockPool.sol\":4418:4427  tx.origin */\n      origin\n        /* \"farms-pools/LandbaseLockPool.sol\":4404:4427  msg.sender == tx.origin */\n      0xffffffffffffffffffffffffffffffffffffffff\n      and\n        /* \"farms-pools/LandbaseLockPool.sol\":4404:4414  msg.sender */\n      caller\n        /* \"farms-pools/LandbaseLockPool.sol\":4404:4427  msg.sender == tx.origin */\n      0xffffffffffffffffffffffffffffffffffffffff\n      and\n      eq\n        /* \"farms-pools/LandbaseLockPool.sol\":4396:4458  require(msg.sender == tx.origin, \"proxy contract not allowed\") */\n      tag_182\n      jumpi\n      mload(0x40)\n      0x08c379a000000000000000000000000000000000000000000000000000000000\n      dup2\n      mstore\n      0x04\n      add\n      dup1\n      dup1\n      0x20\n      add\n      dup3\n      dup2\n      sub\n      dup3\n      mstore\n      0x1a\n      dup2\n      mstore\n      0x20\n      add\n      dup1\n      0x70726f787920636f6e7472616374206e6f7420616c6c6f776564000000000000\n      dup2\n      mstore\n      pop\n      0x20\n      add\n      swap2\n      pop\n      pop\n      mload(0x40)\n      dup1\n      swap2\n      sub\n      swap1\n      revert\n    tag_182:\n        /* \"farms-pools/LandbaseLockPool.sol\":11160:11181  UserInfo storage user */\n      0x00\n        /* \"farms-pools/LandbaseLockPool.sol\":11184:11192  userInfo */\n      0x01\n        /* \"farms-pools/LandbaseLockPool.sol\":11184:11204  userInfo[msg.sender] */\n      0x00\n        /* \"farms-pools/LandbaseLockPool.sol\":11193:11203  msg.sender */\n      caller\n        /* \"farms-pools/LandbaseLockPool.sol\":11184:11204  userInfo[msg.sender] */\n      0xffffffffffffffffffffffffffffffffffffffff\n      and\n      0xffffffffffffffffffffffffffffffffffffffff\n      and\n      dup2\n      mstore\n      0x20\n      add\n      swap1\n      dup2\n      mstore\n      0x20\n      add\n      0x00\n      keccak256\n        /* \"farms-pools/LandbaseLockPool.sol\":11160:11204  UserInfo storage user = userInfo[msg.sender] */\n      swap1\n      pop\n        /* \"farms-pools/LandbaseLockPool.sol\":11233:11234  0 */\n      0x00\n        /* \"farms-pools/LandbaseLockPool.sol\":11223:11230  _shares */\n      dup3\n        /* \"farms-pools/LandbaseLockPool.sol\":11223:11234  _shares > 0 */\n      gt\n        /* \"farms-pools/LandbaseLockPool.sol\":11215:11258  require(_shares > 0, \"Nothing to withdraw\") */\n      tag_184\n      jumpi\n      mload(0x40)\n      0x08c379a000000000000000000000000000000000000000000000000000000000\n      dup2\n      mstore\n      0x04\n      add\n      dup1\n      dup1\n      0x20\n      add\n      dup3\n      dup2\n      sub\n      dup3\n      mstore\n      0x13\n      dup2\n      mstore\n      0x20\n      add\n      dup1\n      0x4e6f7468696e6720746f20776974686472617700000000000000000000000000\n      dup2\n      mstore\n      pop\n      0x20\n      add\n      swap2\n      pop\n      pop\n      mload(0x40)\n      dup1\n      swap2\n      sub\n      swap1\n      revert\n    tag_184:\n        /* \"farms-pools/LandbaseLockPool.sol\":11288:11292  user */\n      dup1\n        /* \"farms-pools/LandbaseLockPool.sol\":11288:11299  user.shares */\n      0x00\n      add\n      sload\n        /* \"farms-pools/LandbaseLockPool.sol\":11277:11284  _shares */\n      dup3\n        /* \"farms-pools/LandbaseLockPool.sol\":11277:11299  _shares <= user.shares */\n      gt\n      iszero\n        /* \"farms-pools/LandbaseLockPool.sol\":11269:11335  require(_shares <= user.shares, \"Withdraw amount exceeds balance\") */\n      tag_185\n      jumpi\n      mload(0x40)\n      0x08c379a000000000000000000000000000000000000000000000000000000000\n      dup2\n      mstore\n      0x04\n      add\n      dup1\n      dup1\n      0x20\n      add\n      dup3\n      dup2\n      sub\n      dup3\n      mstore\n      0x1f\n      dup2\n      mstore\n      0x20\n      add\n      dup1\n      0x576974686472617720616d6f756e7420657863656564732062616c616e636500\n      dup2\n      mstore\n      pop\n      0x20\n      add\n      swap2\n      pop\n      pop\n      mload(0x40)\n      dup1\n      swap2\n      sub\n      swap1\n      revert\n    tag_185:\n        /* \"farms-pools/LandbaseLockPool.sol\":11348:11369  uint256 currentAmount */\n      0x00\n        /* \"farms-pools/LandbaseLockPool.sol\":11372:11415  (balanceOf().mul(_shares)).div(totalShares) */\n      tag_186\n        /* \"farms-pools/LandbaseLockPool.sol\":11403:11414  totalShares */\n      sload(0x05)\n        /* \"farms-pools/LandbaseLockPool.sol\":11373:11397  balanceOf().mul(_shares) */\n      tag_187\n        /* \"farms-pools/LandbaseLockPool.sol\":11389:11396  _shares */\n      dup6\n        /* \"farms-pools/LandbaseLockPool.sol\":11373:11384  balanceOf() */\n      tag_188\n        /* \"farms-pools/LandbaseLockPool.sol\":11373:11382  balanceOf */\n      tag_105\n        /* \"farms-pools/LandbaseLockPool.sol\":11373:11384  balanceOf() */\n      jump\t// in\n    tag_188:\n        /* \"farms-pools/LandbaseLockPool.sol\":11373:11388  balanceOf().mul */\n      tag_189\n      swap1\n        /* \"farms-pools/LandbaseLockPool.sol\":11373:11397  balanceOf().mul(_shares) */\n      swap2\n      swap1\n      0xffffffff\n      and\n      jump\t// in\n    tag_187:\n        /* \"farms-pools/LandbaseLockPool.sol\":11372:11402  (balanceOf().mul(_shares)).div */\n      tag_190\n      swap1\n        /* \"farms-pools/LandbaseLockPool.sol\":11372:11415  (balanceOf().mul(_shares)).div(totalShares) */\n      swap2\n      swap1\n      0xffffffff\n      and\n      jump\t// in\n    tag_186:\n        /* \"farms-pools/LandbaseLockPool.sol\":11348:11415  uint256 currentAmount = (balanceOf().mul(_shares)).div(totalShares) */\n      swap1\n      pop\n        /* \"farms-pools/LandbaseLockPool.sol\":11426:11449  uint256 ifoDeductAmount */\n      0x00\n        /* \"farms-pools/LandbaseLockPool.sol\":11452:11465  currentAmount */\n      dup2\n        /* \"farms-pools/LandbaseLockPool.sol\":11426:11465  uint256 ifoDeductAmount = currentAmount */\n      swap1\n      pop\n        /* \"farms-pools/LandbaseLockPool.sol\":11490:11514  user.shares.sub(_shares) */\n      tag_191\n        /* \"farms-pools/LandbaseLockPool.sol\":11506:11513  _shares */\n      dup5\n        /* \"farms-pools/LandbaseLockPool.sol\":11490:11494  user */\n      dup5\n        /* \"farms-pools/LandbaseLockPool.sol\":11490:11501  user.shares */\n      0x00\n      add\n      sload\n        /* \"farms-pools/LandbaseLockPool.sol\":11490:11505  user.shares.sub */\n      tag_192\n      swap1\n        /* \"farms-pools/LandbaseLockPool.sol\":11490:11514  user.shares.sub(_shares) */\n      swap2\n      swap1\n      0xffffffff\n      and\n      jump\t// in\n    tag_191:\n        /* \"farms-pools/LandbaseLockPool.sol\":11476:11480  user */\n      dup4\n        /* \"farms-pools/LandbaseLockPool.sol\":11476:11487  user.shares */\n      0x00\n      add\n        /* \"farms-pools/LandbaseLockPool.sol\":11476:11514  user.shares = user.shares.sub(_shares) */\n      dup2\n      swap1\n      sstore\n      pop\n        /* \"farms-pools/LandbaseLockPool.sol\":11539:11563  totalShares.sub(_shares) */\n      tag_193\n        /* \"farms-pools/LandbaseLockPool.sol\":11555:11562  _shares */\n      dup5\n        /* \"farms-pools/LandbaseLockPool.sol\":11539:11550  totalShares */\n      sload(0x05)\n        /* \"farms-pools/LandbaseLockPool.sol\":11539:11554  totalShares.sub */\n      tag_192\n      swap1\n        /* \"farms-pools/LandbaseLockPool.sol\":11539:11563  totalShares.sub(_shares) */\n      swap2\n      swap1\n      0xffffffff\n      and\n      jump\t// in\n    tag_193:\n        /* \"farms-pools/LandbaseLockPool.sol\":11525:11536  totalShares */\n      0x05\n        /* \"farms-pools/LandbaseLockPool.sol\":11525:11563  totalShares = totalShares.sub(_shares) */\n      dup2\n      swap1\n      sstore\n      pop\n        /* \"farms-pools/LandbaseLockPool.sol\":11576:11587  uint256 bal */\n      0x00\n        /* \"farms-pools/LandbaseLockPool.sol\":11590:11601  available() */\n      tag_194\n        /* \"farms-pools/LandbaseLockPool.sol\":11590:11599  available */\n      tag_87\n        /* \"farms-pools/LandbaseLockPool.sol\":11590:11601  available() */\n      jump\t// in\n    tag_194:\n        /* \"farms-pools/LandbaseLockPool.sol\":11576:11601  uint256 bal = available() */\n      swap1\n      pop\n        /* \"farms-pools/LandbaseLockPool.sol\":11622:11635  currentAmount */\n      dup3\n        /* \"farms-pools/LandbaseLockPool.sol\":11616:11619  bal */\n      dup2\n        /* \"farms-pools/LandbaseLockPool.sol\":11616:11635  bal < currentAmount */\n      lt\n        /* \"farms-pools/LandbaseLockPool.sol\":11612:11966  if (bal < currentAmount) {\r... */\n      iszero\n      tag_195\n      jumpi\n        /* \"farms-pools/LandbaseLockPool.sol\":11652:11671  uint256 balWithdraw */\n      0x00\n        /* \"farms-pools/LandbaseLockPool.sol\":11674:11696  currentAmount.sub(bal) */\n      tag_196\n        /* \"farms-pools/LandbaseLockPool.sol\":11692:11695  bal */\n      dup3\n        /* \"farms-pools/LandbaseLockPool.sol\":11674:11687  currentAmount */\n      dup6\n        /* \"farms-pools/LandbaseLockPool.sol\":11674:11691  currentAmount.sub */\n      tag_192\n      swap1\n        /* \"farms-pools/LandbaseLockPool.sol\":11674:11696  currentAmount.sub(bal) */\n      swap2\n      swap1\n      0xffffffff\n      and\n      jump\t// in\n    tag_196:\n        /* \"farms-pools/LandbaseLockPool.sol\":11652:11696  uint256 balWithdraw = currentAmount.sub(bal) */\n      swap1\n      pop\n        /* \"farms-pools/LandbaseLockPool.sol\":11723:11733  masterchef */\n      immutable(\"0x64e604787cbf194841e7b68d7cd28786f6c9a0a3ab9f8b0a0e87cb4387ab0107\")\n        /* \"farms-pools/LandbaseLockPool.sol\":11711:11747  IMasterChef(masterchef).leaveStaking */\n      0xffffffffffffffffffffffffffffffffffffffff\n      and\n      0x1058d281\n        /* \"farms-pools/LandbaseLockPool.sol\":11748:11759  balWithdraw */\n      dup3\n        /* \"farms-pools/LandbaseLockPool.sol\":11711:11760  IMasterChef(masterchef).leaveStaking(balWithdraw) */\n      mload(0x40)\n      dup3\n      0xffffffff\n      and\n      0xe0\n      shl\n      dup2\n      mstore\n      0x04\n      add\n      dup1\n      dup3\n      dup2\n      mstore\n      0x20\n      add\n      swap2\n      pop\n      pop\n      0x00\n      mload(0x40)\n      dup1\n      dup4\n      sub\n      dup2\n      0x00\n      dup8\n      dup1\n      extcodesize\n      iszero\n      dup1\n      iszero\n      tag_197\n      jumpi\n      0x00\n      dup1\n      revert\n    tag_197:\n      pop\n      gas\n      call\n      iszero\n      dup1\n      iszero\n      tag_199\n      jumpi\n      returndatasize\n      0x00\n      dup1\n      returndatacopy\n      revert(0x00, returndatasize)\n    tag_199:\n      pop\n      pop\n      pop\n      pop\n        /* \"farms-pools/LandbaseLockPool.sol\":11775:11791  uint256 balAfter */\n      0x00\n        /* \"farms-pools/LandbaseLockPool.sol\":11794:11805  available() */\n      tag_200\n        /* \"farms-pools/LandbaseLockPool.sol\":11794:11803  available */\n      tag_87\n        /* \"farms-pools/LandbaseLockPool.sol\":11794:11805  available() */\n      jump\t// in\n    tag_200:\n        /* \"farms-pools/LandbaseLockPool.sol\":11775:11805  uint256 balAfter = available() */\n      swap1\n      pop\n        /* \"farms-pools/LandbaseLockPool.sol\":11820:11832  uint256 diff */\n      0x00\n        /* \"farms-pools/LandbaseLockPool.sol\":11835:11852  balAfter.sub(bal) */\n      tag_201\n        /* \"farms-pools/LandbaseLockPool.sol\":11848:11851  bal */\n      dup5\n        /* \"farms-pools/LandbaseLockPool.sol\":11835:11843  balAfter */\n      dup4\n        /* \"farms-pools/LandbaseLockPool.sol\":11835:11847  balAfter.sub */\n      tag_192\n      swap1\n        /* \"farms-pools/LandbaseLockPool.sol\":11835:11852  balAfter.sub(bal) */\n      swap2\n      swap1\n      0xffffffff\n      and\n      jump\t// in\n    tag_201:\n        /* \"farms-pools/LandbaseLockPool.sol\":11820:11852  uint256 diff = balAfter.sub(bal) */\n      swap1\n      pop\n        /* \"farms-pools/LandbaseLockPool.sol\":11878:11889  balWithdraw */\n      dup3\n        /* \"farms-pools/LandbaseLockPool.sol\":11871:11875  diff */\n      dup2\n        /* \"farms-pools/LandbaseLockPool.sol\":11871:11889  diff < balWithdraw */\n      lt\n        /* \"farms-pools/LandbaseLockPool.sol\":11867:11955  if (diff < balWithdraw) {\r... */\n      iszero\n      tag_202\n      jumpi\n        /* \"farms-pools/LandbaseLockPool.sol\":11926:11939  bal.add(diff) */\n      tag_203\n        /* \"farms-pools/LandbaseLockPool.sol\":11934:11938  diff */\n      dup2\n        /* \"farms-pools/LandbaseLockPool.sol\":11926:11929  bal */\n      dup6\n        /* \"farms-pools/LandbaseLockPool.sol\":11926:11933  bal.add */\n      tag_204\n      swap1\n        /* \"farms-pools/LandbaseLockPool.sol\":11926:11939  bal.add(diff) */\n      swap2\n      swap1\n      0xffffffff\n      and\n      jump\t// in\n    tag_203:\n        /* \"farms-pools/LandbaseLockPool.sol\":11910:11939  currentAmount = bal.add(diff) */\n      swap6\n      pop\n        /* \"farms-pools/LandbaseLockPool.sol\":11867:11955  if (diff < balWithdraw) {\r... */\n    tag_202:\n        /* \"farms-pools/LandbaseLockPool.sol\":11612:11966  if (bal < currentAmount) {\r... */\n      pop\n      pop\n      pop\n    tag_195:\n        /* \"farms-pools/LandbaseLockPool.sol\":12000:12045  user.lastDepositedTime.add(withdrawFeePeriod) */\n      tag_205\n        /* \"farms-pools/LandbaseLockPool.sol\":12027:12044  withdrawFeePeriod */\n      sload(0x0c)\n        /* \"farms-pools/LandbaseLockPool.sol\":12000:12004  user */\n      dup6\n        /* \"farms-pools/LandbaseLockPool.sol\":12000:12022  user.lastDepositedTime */\n      0x01\n      add\n      sload\n        /* \"farms-pools/LandbaseLockPool.sol\":12000:12026  user.lastDepositedTime.add */\n      tag_204\n      swap1\n        /* \"farms-pools/LandbaseLockPool.sol\":12000:12045  user.lastDepositedTime.add(withdrawFeePeriod) */\n      swap2\n      swap1\n      0xffffffff\n      and\n      jump\t// in\n    tag_205:\n        /* \"farms-pools/LandbaseLockPool.sol\":11982:11997  block.timestamp */\n      timestamp\n        /* \"farms-pools/LandbaseLockPool.sol\":11982:12045  block.timestamp < user.lastDepositedTime.add(withdrawFeePeriod) */\n      lt\n        /* \"farms-pools/LandbaseLockPool.sol\":11978:12275  if (block.timestamp < user.lastDepositedTime.add(withdrawFeePeriod)) {\r... */\n      iszero\n      tag_206\n      jumpi\n        /* \"farms-pools/LandbaseLockPool.sol\":12062:12088  uint256 currentWithdrawFee */\n      0x00\n        /* \"farms-pools/LandbaseLockPool.sol\":12091:12132  currentAmount.mul(withdrawFee).div(10000) */\n      tag_207\n        /* \"farms-pools/LandbaseLockPool.sol\":12126:12131  10000 */\n      0x2710\n        /* \"farms-pools/LandbaseLockPool.sol\":12091:12121  currentAmount.mul(withdrawFee) */\n      tag_208\n        /* \"farms-pools/LandbaseLockPool.sol\":12109:12120  withdrawFee */\n      sload(0x0b)\n        /* \"farms-pools/LandbaseLockPool.sol\":12091:12104  currentAmount */\n      dup8\n        /* \"farms-pools/LandbaseLockPool.sol\":12091:12108  currentAmount.mul */\n      tag_189\n      swap1\n        /* \"farms-pools/LandbaseLockPool.sol\":12091:12121  currentAmount.mul(withdrawFee) */\n      swap2\n      swap1\n      0xffffffff\n      and\n      jump\t// in\n    tag_208:\n        /* \"farms-pools/LandbaseLockPool.sol\":12091:12125  currentAmount.mul(withdrawFee).div */\n      tag_190\n      swap1\n        /* \"farms-pools/LandbaseLockPool.sol\":12091:12132  currentAmount.mul(withdrawFee).div(10000) */\n      swap2\n      swap1\n      0xffffffff\n      and\n      jump\t// in\n    tag_207:\n        /* \"farms-pools/LandbaseLockPool.sol\":12062:12132  uint256 currentWithdrawFee = currentAmount.mul(withdrawFee).div(10000) */\n      swap1\n      pop\n        /* \"farms-pools/LandbaseLockPool.sol\":12147:12195  token.safeTransfer(treasury, currentWithdrawFee) */\n      tag_209\n        /* \"farms-pools/LandbaseLockPool.sol\":12166:12174  treasury */\n      0x08\n      0x00\n      swap1\n      sload\n      swap1\n      0x0100\n      exp\n      swap1\n      div\n      0xffffffffffffffffffffffffffffffffffffffff\n      and\n        /* \"farms-pools/LandbaseLockPool.sol\":12176:12194  currentWithdrawFee */\n      dup3\n        /* \"farms-pools/LandbaseLockPool.sol\":12147:12152  token */\n      immutable(\"0x7ae9fd093408c444e1cd944d183f5410919486c93305c223a5a94b5e79d77d3b\")\n        /* \"farms-pools/LandbaseLockPool.sol\":12147:12165  token.safeTransfer */\n      0xffffffffffffffffffffffffffffffffffffffff\n      and\n      tag_210\n      swap1\n        /* \"farms-pools/LandbaseLockPool.sol\":12147:12195  token.safeTransfer(treasury, currentWithdrawFee) */\n      swap3\n      swap2\n      swap1\n      0xffffffff\n      and\n      jump\t// in\n    tag_209:\n        /* \"farms-pools/LandbaseLockPool.sol\":12226:12263  currentAmount.sub(currentWithdrawFee) */\n      tag_211\n        /* \"farms-pools/LandbaseLockPool.sol\":12244:12262  currentWithdrawFee */\n      dup2\n        /* \"farms-pools/LandbaseLockPool.sol\":12226:12239  currentAmount */\n      dup6\n        /* \"farms-pools/LandbaseLockPool.sol\":12226:12243  currentAmount.sub */\n      tag_192\n      swap1\n        /* \"farms-pools/LandbaseLockPool.sol\":12226:12263  currentAmount.sub(currentWithdrawFee) */\n      swap2\n      swap1\n      0xffffffff\n      and\n      jump\t// in\n    tag_211:\n        /* \"farms-pools/LandbaseLockPool.sol\":12210:12263  currentAmount = currentAmount.sub(currentWithdrawFee) */\n      swap4\n      pop\n        /* \"farms-pools/LandbaseLockPool.sol\":11978:12275  if (block.timestamp < user.lastDepositedTime.add(withdrawFeePeriod)) {\r... */\n      pop\n    tag_206:\n        /* \"farms-pools/LandbaseLockPool.sol\":12305:12306  0 */\n      0x00\n        /* \"farms-pools/LandbaseLockPool.sol\":12291:12295  user */\n      dup5\n        /* \"farms-pools/LandbaseLockPool.sol\":12291:12302  user.shares */\n      0x00\n      add\n      sload\n        /* \"farms-pools/LandbaseLockPool.sol\":12291:12306  user.shares > 0 */\n      gt\n        /* \"farms-pools/LandbaseLockPool.sol\":12287:12470  if (user.shares > 0) {\r... */\n      iszero\n      tag_212\n      jumpi\n        /* \"farms-pools/LandbaseLockPool.sol\":12351:12396  user.shares.mul(balanceOf()).div(totalShares) */\n      tag_213\n        /* \"farms-pools/LandbaseLockPool.sol\":12384:12395  totalShares */\n      sload(0x05)\n        /* \"farms-pools/LandbaseLockPool.sol\":12351:12379  user.shares.mul(balanceOf()) */\n      tag_214\n        /* \"farms-pools/LandbaseLockPool.sol\":12367:12378  balanceOf() */\n      tag_215\n        /* \"farms-pools/LandbaseLockPool.sol\":12367:12376  balanceOf */\n      tag_105\n        /* \"farms-pools/LandbaseLockPool.sol\":12367:12378  balanceOf() */\n      jump\t// in\n    tag_215:\n        /* \"farms-pools/LandbaseLockPool.sol\":12351:12355  user */\n      dup8\n        /* \"farms-pools/LandbaseLockPool.sol\":12351:12362  user.shares */\n      0x00\n      add\n      sload\n        /* \"farms-pools/LandbaseLockPool.sol\":12351:12366  user.shares.mul */\n      tag_189\n      swap1\n        /* \"farms-pools/LandbaseLockPool.sol\":12351:12379  user.shares.mul(balanceOf()) */\n      swap2\n      swap1\n      0xffffffff\n      and\n      jump\t// in\n    tag_214:\n        /* \"farms-pools/LandbaseLockPool.sol\":12351:12383  user.shares.mul(balanceOf()).div */\n      tag_190\n      swap1\n        /* \"farms-pools/LandbaseLockPool.sol\":12351:12396  user.shares.mul(balanceOf()).div(totalShares) */\n      swap2\n      swap1\n      0xffffffff\n      and\n      jump\t// in\n    tag_213:\n        /* \"farms-pools/LandbaseLockPool.sol\":12323:12327  user */\n      dup5\n        /* \"farms-pools/LandbaseLockPool.sol\":12323:12348  user.cakeAtLastUserAction */\n      0x02\n      add\n        /* \"farms-pools/LandbaseLockPool.sol\":12323:12396  user.cakeAtLastUserAction = user.shares.mul(balanceOf()).div(totalShares) */\n      dup2\n      swap1\n      sstore\n      pop\n        /* \"farms-pools/LandbaseLockPool.sol\":12287:12470  if (user.shares > 0) {\r... */\n      jump(tag_216)\n    tag_212:\n        /* \"farms-pools/LandbaseLockPool.sol\":12457:12458  0 */\n      0x00\n        /* \"farms-pools/LandbaseLockPool.sol\":12429:12433  user */\n      dup5\n        /* \"farms-pools/LandbaseLockPool.sol\":12429:12454  user.cakeAtLastUserAction */\n      0x02\n      add\n        /* \"farms-pools/LandbaseLockPool.sol\":12429:12458  user.cakeAtLastUserAction = 0 */\n      dup2\n      swap1\n      sstore\n      pop\n        /* \"farms-pools/LandbaseLockPool.sol\":12287:12470  if (user.shares > 0) {\r... */\n    tag_216:\n        /* \"farms-pools/LandbaseLockPool.sol\":12508:12523  block.timestamp */\n      timestamp\n        /* \"farms-pools/LandbaseLockPool.sol\":12482:12486  user */\n      dup5\n        /* \"farms-pools/LandbaseLockPool.sol\":12482:12505  user.lastUserActionTime */\n      0x03\n      add\n        /* \"farms-pools/LandbaseLockPool.sol\":12482:12523  user.lastUserActionTime = block.timestamp */\n      dup2\n      swap1\n      sstore\n      pop\n        /* \"farms-pools/LandbaseLockPool.sol\":12559:12611  _updateUserIFO(ifoDeductAmount, IFOActions.Withdraw) */\n      tag_217\n        /* \"farms-pools/LandbaseLockPool.sol\":12574:12589  ifoDeductAmount */\n      dup3\n        /* \"farms-pools/LandbaseLockPool.sol\":12591:12610  IFOActions.Withdraw */\n      0x01\n        /* \"farms-pools/LandbaseLockPool.sol\":12559:12573  _updateUserIFO */\n      tag_218\n        /* \"farms-pools/LandbaseLockPool.sol\":12559:12611  _updateUserIFO(ifoDeductAmount, IFOActions.Withdraw) */\n      jump\t// in\n    tag_217:\n        /* \"farms-pools/LandbaseLockPool.sol\":12624:12669  token.safeTransfer(msg.sender, currentAmount) */\n      tag_219\n        /* \"farms-pools/LandbaseLockPool.sol\":12643:12653  msg.sender */\n      caller\n        /* \"farms-pools/LandbaseLockPool.sol\":12655:12668  currentAmount */\n      dup5\n        /* \"farms-pools/LandbaseLockPool.sol\":12624:12629  token */\n      immutable(\"0x7ae9fd093408c444e1cd944d183f5410919486c93305c223a5a94b5e79d77d3b\")\n        /* \"farms-pools/LandbaseLockPool.sol\":12624:12642  token.safeTransfer */\n      0xffffffffffffffffffffffffffffffffffffffff\n      and\n      tag_210\n      swap1\n        /* \"farms-pools/LandbaseLockPool.sol\":12624:12669  token.safeTransfer(msg.sender, currentAmount) */\n      swap3\n      swap2\n      swap1\n      0xffffffff\n      and\n      jump\t// in\n    tag_219:\n        /* \"farms-pools/LandbaseLockPool.sol\":12696:12706  msg.sender */\n      caller\n        /* \"farms-pools/LandbaseLockPool.sol\":12687:12731  Withdraw(msg.sender, currentAmount, _shares) */\n      0xffffffffffffffffffffffffffffffffffffffff\n      and\n      0xf279e6a1f5e320cca91135676d9cb6e44ca8a08c0b88342bcdb1144f6511b568\n        /* \"farms-pools/LandbaseLockPool.sol\":12708:12721  currentAmount */\n      dup5\n        /* \"farms-pools/LandbaseLockPool.sol\":12723:12730  _shares */\n      dup8\n        /* \"farms-pools/LandbaseLockPool.sol\":12687:12731  Withdraw(msg.sender, currentAmount, _shares) */\n      mload(0x40)\n      dup1\n      dup4\n      dup2\n      mstore\n      0x20\n      add\n      dup3\n      dup2\n      mstore\n      0x20\n      add\n      swap3\n      pop\n      pop\n      pop\n      mload(0x40)\n      dup1\n      swap2\n      sub\n      swap1\n      log2\n        /* \"farms-pools/LandbaseLockPool.sol\":4469:4470  _ */\n      pop\n      pop\n      pop\n      pop\n        /* \"farms-pools/LandbaseLockPool.sol\":11095:12739  function withdraw(uint256 _shares) public notContract {\r... */\n      pop\n      jump\t// out\n        /* \"farms-pools/LandbaseLockPool.sol\":1624:1650  uint256 public totalShares */\n    tag_81:\n      sload(0x05)\n      dup2\n      jump\t// out\n        /* \"farms-pools/LandbaseLockPool.sol\":19518:19621  function unpause() external onlyAdmin whenPaused {\r... */\n    tag_83:\n        /* \"farms-pools/LandbaseLockPool.sol\":4161:4166  admin */\n      0x07\n      0x00\n      swap1\n      sload\n      swap1\n      0x0100\n      exp\n      swap1\n      div\n      0xffffffffffffffffffffffffffffffffffffffff\n      and\n        /* \"farms-pools/LandbaseLockPool.sol\":4147:4166  msg.sender == admin */\n      0xffffffffffffffffffffffffffffffffffffffff\n      and\n        /* \"farms-pools/LandbaseLockPool.sol\":4147:4157  msg.sender */\n      caller\n        /* \"farms-pools/LandbaseLockPool.sol\":4147:4166  msg.sender == admin */\n      0xffffffffffffffffffffffffffffffffffffffff\n      and\n      eq\n        /* \"farms-pools/LandbaseLockPool.sol\":4139:4182  require(msg.sender == admin, \"admin: wut?\") */\n      tag_221\n      jumpi\n      mload(0x40)\n      0x08c379a000000000000000000000000000000000000000000000000000000000\n      dup2\n      mstore\n      0x04\n      add\n      dup1\n      dup1\n      0x20\n      add\n      dup3\n      dup2\n      sub\n      dup3\n      mstore\n      0x0b\n      dup2\n      mstore\n      0x20\n      add\n      dup1\n      0x61646d696e3a207775743f000000000000000000000000000000000000000000\n      dup2\n      mstore\n      pop\n      0x20\n      add\n      swap2\n      pop\n      pop\n      mload(0x40)\n      dup1\n      swap2\n      sub\n      swap1\n      revert\n    tag_221:\n        /* \"farms-pools/utils/Pausable.sol\":1693:1701  paused() */\n      tag_223\n        /* \"farms-pools/utils/Pausable.sol\":1693:1699  paused */\n      tag_93\n        /* \"farms-pools/utils/Pausable.sol\":1693:1701  paused() */\n      jump\t// in\n    tag_223:\n        /* \"farms-pools/utils/Pausable.sol\":1685:1726  require(paused(), \"Pausable: not paused\") */\n      tag_224\n      jumpi\n      mload(0x40)\n      0x08c379a000000000000000000000000000000000000000000000000000000000\n      dup2\n      mstore\n      0x04\n      add\n      dup1\n      dup1\n      0x20\n      add\n      dup3\n      dup2\n      sub\n      dup3\n      mstore\n      0x14\n      dup2\n      mstore\n      0x20\n      add\n      dup1\n      0x5061757361626c653a206e6f7420706175736564000000000000000000000000\n      dup2\n      mstore\n      pop\n      0x20\n      add\n      swap2\n      pop\n      pop\n      mload(0x40)\n      dup1\n      swap2\n      sub\n      swap1\n      revert\n    tag_224:\n        /* \"farms-pools/LandbaseLockPool.sol\":19578:19588  _unpause() */\n      tag_226\n        /* \"farms-pools/LandbaseLockPool.sol\":19578:19586  _unpause */\n      tag_227\n        /* \"farms-pools/LandbaseLockPool.sol\":19578:19588  _unpause() */\n      jump\t// in\n    tag_226:\n        /* \"farms-pools/LandbaseLockPool.sol\":19604:19613  Unpause() */\n      0x7805862f689e2f13df9f062ff482ad3ad112aca9e0847911ed832e158c525b33\n      mload(0x40)\n      mload(0x40)\n      dup1\n      swap2\n      sub\n      swap1\n      log1\n        /* \"farms-pools/LandbaseLockPool.sol\":19518:19621  function unpause() external onlyAdmin whenPaused {\r... */\n      jump\t// out\n        /* \"farms-pools/LandbaseLockPool.sol\":14665:15277  function harvest() external notContract whenNotPaused {\r... */\n    tag_85:\n        /* \"farms-pools/LandbaseLockPool.sol\":4337:4360  _isContract(msg.sender) */\n      tag_229\n        /* \"farms-pools/LandbaseLockPool.sol\":4349:4359  msg.sender */\n      caller\n        /* \"farms-pools/LandbaseLockPool.sol\":4337:4348  _isContract */\n      tag_180\n        /* \"farms-pools/LandbaseLockPool.sol\":4337:4360  _isContract(msg.sender) */\n      jump\t// in\n    tag_229:\n        /* \"farms-pools/LandbaseLockPool.sol\":4336:4360  !_isContract(msg.sender) */\n      iszero\n        /* \"farms-pools/LandbaseLockPool.sol\":4328:4385  require(!_isContract(msg.sender), \"contract not allowed\") */\n      tag_230\n      jumpi\n      mload(0x40)\n      0x08c379a000000000000000000000000000000000000000000000000000000000\n      dup2\n      mstore\n      0x04\n      add\n      dup1\n      dup1\n      0x20\n      add\n      dup3\n      dup2\n      sub\n      dup3\n      mstore\n      0x14\n      dup2\n      mstore\n      0x20\n      add\n      dup1\n      0x636f6e7472616374206e6f7420616c6c6f776564000000000000000000000000\n      dup2\n      mstore\n      pop\n      0x20\n      add\n      swap2\n      pop\n      pop\n      mload(0x40)\n      dup1\n      swap2\n      sub\n      swap1\n      revert\n    tag_230:\n        /* \"farms-pools/LandbaseLockPool.sol\":4418:4427  tx.origin */\n      origin\n        /* \"farms-pools/LandbaseLockPool.sol\":4404:4427  msg.sender == tx.origin */\n      0xffffffffffffffffffffffffffffffffffffffff\n      and\n        /* \"farms-pools/LandbaseLockPool.sol\":4404:4414  msg.sender */\n      caller\n        /* \"farms-pools/LandbaseLockPool.sol\":4404:4427  msg.sender == tx.origin */\n      0xffffffffffffffffffffffffffffffffffffffff\n      and\n      eq\n        /* \"farms-pools/LandbaseLockPool.sol\":4396:4458  require(msg.sender == tx.origin, \"proxy contract not allowed\") */\n      tag_231\n      jumpi\n      mload(0x40)\n      0x08c379a000000000000000000000000000000000000000000000000000000000\n      dup2\n      mstore\n      0x04\n      add\n      dup1\n      dup1\n      0x20\n      add\n      dup3\n      dup2\n      sub\n      dup3\n      mstore\n      0x1a\n      dup2\n      mstore\n      0x20\n      add\n      dup1\n      0x70726f787920636f6e7472616374206e6f7420616c6c6f776564000000000000\n      dup2\n      mstore\n      pop\n      0x20\n      add\n      swap2\n      pop\n      pop\n      mload(0x40)\n      dup1\n      swap2\n      sub\n      swap1\n      revert\n    tag_231:\n        /* \"farms-pools/utils/Pausable.sol\":1416:1424  paused() */\n      tag_233\n        /* \"farms-pools/utils/Pausable.sol\":1416:1422  paused */\n      tag_93\n        /* \"farms-pools/utils/Pausable.sol\":1416:1424  paused() */\n      jump\t// in\n    tag_233:\n        /* \"farms-pools/utils/Pausable.sol\":1415:1424  !paused() */\n      iszero\n        /* \"farms-pools/utils/Pausable.sol\":1407:1445  require(!paused(), \"Pausable: paused\") */\n      tag_234\n      jumpi\n      mload(0x40)\n      0x08c379a000000000000000000000000000000000000000000000000000000000\n      dup2\n      mstore\n      0x04\n      add\n      dup1\n      dup1\n      0x20\n      add\n      dup3\n      dup2\n      sub\n      dup3\n      mstore\n      0x10\n      dup2\n      mstore\n      0x20\n      add\n      dup1\n      0x5061757361626c653a2070617573656400000000000000000000000000000000\n      dup2\n      mstore\n      pop\n      0x20\n      add\n      swap2\n      pop\n      pop\n      mload(0x40)\n      dup1\n      swap2\n      sub\n      swap1\n      revert\n    tag_234:\n        /* \"farms-pools/LandbaseLockPool.sol\":14730:14747  uint256 beforeBal */\n      0x00\n        /* \"farms-pools/LandbaseLockPool.sol\":14750:14761  available() */\n      tag_236\n        /* \"farms-pools/LandbaseLockPool.sol\":14750:14759  available */\n      tag_87\n        /* \"farms-pools/LandbaseLockPool.sol\":14750:14761  available() */\n      jump\t// in\n    tag_236:\n        /* \"farms-pools/LandbaseLockPool.sol\":14730:14761  uint256 beforeBal = available() */\n      swap1\n      pop\n        /* \"farms-pools/LandbaseLockPool.sol\":14784:14794  masterchef */\n      immutable(\"0x64e604787cbf194841e7b68d7cd28786f6c9a0a3ab9f8b0a0e87cb4387ab0107\")\n        /* \"farms-pools/LandbaseLockPool.sol\":14772:14808  IMasterChef(masterchef).leaveStaking */\n      0xffffffffffffffffffffffffffffffffffffffff\n      and\n      0x1058d281\n        /* \"farms-pools/LandbaseLockPool.sol\":14809:14810  0 */\n      0x00\n        /* \"farms-pools/LandbaseLockPool.sol\":14772:14811  IMasterChef(masterchef).leaveStaking(0) */\n      mload(0x40)\n      dup3\n      0xffffffff\n      and\n      0xe0\n      shl\n      dup2\n      mstore\n      0x04\n      add\n      dup1\n      dup3\n      dup2\n      mstore\n      0x20\n      add\n      swap2\n      pop\n      pop\n      0x00\n      mload(0x40)\n      dup1\n      dup4\n      sub\n      dup2\n      0x00\n      dup8\n      dup1\n      extcodesize\n      iszero\n      dup1\n      iszero\n      tag_237\n      jumpi\n      0x00\n      dup1\n      revert\n    tag_237:\n      pop\n      gas\n      call\n      iszero\n      dup1\n      iszero\n      tag_239\n      jumpi\n      returndatasize\n      0x00\n      dup1\n      returndatacopy\n      revert(0x00, returndatasize)\n    tag_239:\n      pop\n      pop\n      pop\n      pop\n        /* \"farms-pools/LandbaseLockPool.sol\":14822:14833  uint256 bal */\n      0x00\n        /* \"farms-pools/LandbaseLockPool.sol\":14836:14862  available().sub(beforeBal) */\n      tag_240\n        /* \"farms-pools/LandbaseLockPool.sol\":14852:14861  beforeBal */\n      dup3\n        /* \"farms-pools/LandbaseLockPool.sol\":14836:14847  available() */\n      tag_241\n        /* \"farms-pools/LandbaseLockPool.sol\":14836:14845  available */\n      tag_87\n        /* \"farms-pools/LandbaseLockPool.sol\":14836:14847  available() */\n      jump\t// in\n    tag_241:\n        /* \"farms-pools/LandbaseLockPool.sol\":14836:14851  available().sub */\n      tag_192\n      swap1\n        /* \"farms-pools/LandbaseLockPool.sol\":14836:14862  available().sub(beforeBal) */\n      swap2\n      swap1\n      0xffffffff\n      and\n      jump\t// in\n    tag_240:\n        /* \"farms-pools/LandbaseLockPool.sol\":14822:14862  uint256 bal = available().sub(beforeBal) */\n      swap1\n      pop\n        /* \"farms-pools/LandbaseLockPool.sol\":14875:14904  uint256 currentPerformanceFee */\n      0x00\n        /* \"farms-pools/LandbaseLockPool.sol\":14907:14941  bal.mul(performanceFee).div(10000) */\n      tag_242\n        /* \"farms-pools/LandbaseLockPool.sol\":14935:14940  10000 */\n      0x2710\n        /* \"farms-pools/LandbaseLockPool.sol\":14907:14930  bal.mul(performanceFee) */\n      tag_243\n        /* \"farms-pools/LandbaseLockPool.sol\":14915:14929  performanceFee */\n      sload(0x09)\n        /* \"farms-pools/LandbaseLockPool.sol\":14907:14910  bal */\n      dup6\n        /* \"farms-pools/LandbaseLockPool.sol\":14907:14914  bal.mul */\n      tag_189\n      swap1\n        /* \"farms-pools/LandbaseLockPool.sol\":14907:14930  bal.mul(performanceFee) */\n      swap2\n      swap1\n      0xffffffff\n      and\n      jump\t// in\n    tag_243:\n        /* \"farms-pools/LandbaseLockPool.sol\":14907:14934  bal.mul(performanceFee).div */\n      tag_190\n      swap1\n        /* \"farms-pools/LandbaseLockPool.sol\":14907:14941  bal.mul(performanceFee).div(10000) */\n      swap2\n      swap1\n      0xffffffff\n      and\n      jump\t// in\n    tag_242:\n        /* \"farms-pools/LandbaseLockPool.sol\":14875:14941  uint256 currentPerformanceFee = bal.mul(performanceFee).div(10000) */\n      swap1\n      pop\n        /* \"farms-pools/LandbaseLockPool.sol\":14952:15003  token.safeTransfer(treasury, currentPerformanceFee) */\n      tag_244\n        /* \"farms-pools/LandbaseLockPool.sol\":14971:14979  treasury */\n      0x08\n      0x00\n      swap1\n      sload\n      swap1\n      0x0100\n      exp\n      swap1\n      div\n      0xffffffffffffffffffffffffffffffffffffffff\n      and\n        /* \"farms-pools/LandbaseLockPool.sol\":14981:15002  currentPerformanceFee */\n      dup3\n        /* \"farms-pools/LandbaseLockPool.sol\":14952:14957  token */\n      immutable(\"0x7ae9fd093408c444e1cd944d183f5410919486c93305c223a5a94b5e79d77d3b\")\n        /* \"farms-pools/LandbaseLockPool.sol\":14952:14970  token.safeTransfer */\n      0xffffffffffffffffffffffffffffffffffffffff\n      and\n      tag_210\n      swap1\n        /* \"farms-pools/LandbaseLockPool.sol\":14952:15003  token.safeTransfer(treasury, currentPerformanceFee) */\n      swap3\n      swap2\n      swap1\n      0xffffffff\n      and\n      jump\t// in\n    tag_244:\n        /* \"farms-pools/LandbaseLockPool.sol\":15016:15038  uint256 currentCallFee */\n      0x00\n        /* \"farms-pools/LandbaseLockPool.sol\":15041:15068  bal.mul(callFee).div(10000) */\n      tag_245\n        /* \"farms-pools/LandbaseLockPool.sol\":15062:15067  10000 */\n      0x2710\n        /* \"farms-pools/LandbaseLockPool.sol\":15041:15057  bal.mul(callFee) */\n      tag_246\n        /* \"farms-pools/LandbaseLockPool.sol\":15049:15056  callFee */\n      sload(0x0a)\n        /* \"farms-pools/LandbaseLockPool.sol\":15041:15044  bal */\n      dup7\n        /* \"farms-pools/LandbaseLockPool.sol\":15041:15048  bal.mul */\n      tag_189\n      swap1\n        /* \"farms-pools/LandbaseLockPool.sol\":15041:15057  bal.mul(callFee) */\n      swap2\n      swap1\n      0xffffffff\n      and\n      jump\t// in\n    tag_246:\n        /* \"farms-pools/LandbaseLockPool.sol\":15041:15061  bal.mul(callFee).div */\n      tag_190\n      swap1\n        /* \"farms-pools/LandbaseLockPool.sol\":15041:15068  bal.mul(callFee).div(10000) */\n      swap2\n      swap1\n      0xffffffff\n      and\n      jump\t// in\n    tag_245:\n        /* \"farms-pools/LandbaseLockPool.sol\":15016:15068  uint256 currentCallFee = bal.mul(callFee).div(10000) */\n      swap1\n      pop\n        /* \"farms-pools/LandbaseLockPool.sol\":15079:15125  token.safeTransfer(msg.sender, currentCallFee) */\n      tag_247\n        /* \"farms-pools/LandbaseLockPool.sol\":15098:15108  msg.sender */\n      caller\n        /* \"farms-pools/LandbaseLockPool.sol\":15110:15124  currentCallFee */\n      dup3\n        /* \"farms-pools/LandbaseLockPool.sol\":15079:15084  token */\n      immutable(\"0x7ae9fd093408c444e1cd944d183f5410919486c93305c223a5a94b5e79d77d3b\")\n        /* \"farms-pools/LandbaseLockPool.sol\":15079:15097  token.safeTransfer */\n      0xffffffffffffffffffffffffffffffffffffffff\n      and\n      tag_210\n      swap1\n        /* \"farms-pools/LandbaseLockPool.sol\":15079:15125  token.safeTransfer(msg.sender, currentCallFee) */\n      swap3\n      swap2\n      swap1\n      0xffffffff\n      and\n      jump\t// in\n    tag_247:\n        /* \"farms-pools/LandbaseLockPool.sol\":15138:15145  _earn() */\n      tag_248\n        /* \"farms-pools/LandbaseLockPool.sol\":15138:15143  _earn */\n      tag_249\n        /* \"farms-pools/LandbaseLockPool.sol\":15138:15145  _earn() */\n      jump\t// in\n    tag_248:\n        /* \"farms-pools/LandbaseLockPool.sol\":15178:15193  block.timestamp */\n      timestamp\n        /* \"farms-pools/LandbaseLockPool.sol\":15158:15175  lastHarvestedTime */\n      0x06\n        /* \"farms-pools/LandbaseLockPool.sol\":15158:15193  lastHarvestedTime = block.timestamp */\n      dup2\n      swap1\n      sstore\n      pop\n        /* \"farms-pools/LandbaseLockPool.sol\":15219:15229  msg.sender */\n      caller\n        /* \"farms-pools/LandbaseLockPool.sol\":15211:15269  Harvest(msg.sender, currentPerformanceFee, currentCallFee) */\n      0xffffffffffffffffffffffffffffffffffffffff\n      and\n      0x71bab65ced2e5750775a0613be067df48ef06cf92a496ebf7663ae0660924954\n        /* \"farms-pools/LandbaseLockPool.sol\":15231:15252  currentPerformanceFee */\n      dup4\n        /* \"farms-pools/LandbaseLockPool.sol\":15254:15268  currentCallFee */\n      dup4\n        /* \"farms-pools/LandbaseLockPool.sol\":15211:15269  Harvest(msg.sender, currentPerformanceFee, currentCallFee) */\n      mload(0x40)\n      dup1\n      dup4\n      dup2\n      mstore\n      0x20\n      add\n      dup3\n      dup2\n      mstore\n      0x20\n      add\n      swap3\n      pop\n      pop\n      pop\n      mload(0x40)\n      dup1\n      swap2\n      sub\n      swap1\n      log2\n        /* \"farms-pools/utils/Pausable.sol\":1456:1457  _ */\n      pop\n      pop\n      pop\n      pop\n        /* \"farms-pools/LandbaseLockPool.sol\":14665:15277  function harvest() external notContract whenNotPaused {\r... */\n      jump\t// out\n        /* \"farms-pools/LandbaseLockPool.sol\":20801:20908  function available() public view returns (uint256) {\r... */\n    tag_87:\n        /* \"farms-pools/LandbaseLockPool.sol\":20843:20850  uint256 */\n      0x00\n        /* \"farms-pools/LandbaseLockPool.sol\":20870:20875  token */\n      immutable(\"0x7ae9fd093408c444e1cd944d183f5410919486c93305c223a5a94b5e79d77d3b\")\n        /* \"farms-pools/LandbaseLockPool.sol\":20870:20885  token.balanceOf */\n      0xffffffffffffffffffffffffffffffffffffffff\n      and\n      0x70a08231\n        /* \"farms-pools/LandbaseLockPool.sol\":20894:20898  this */\n      address\n        /* \"farms-pools/LandbaseLockPool.sol\":20870:20900  token.balanceOf(address(this)) */\n      mload(0x40)\n      dup3\n      0xffffffff\n      and\n      0xe0\n      shl\n      dup2\n      mstore\n      0x04\n      add\n      dup1\n      dup3\n      0xffffffffffffffffffffffffffffffffffffffff\n      and\n      dup2\n      mstore\n      0x20\n      add\n      swap2\n      pop\n      pop\n      0x20\n      mload(0x40)\n      dup1\n      dup4\n      sub\n      dup2\n      dup7\n      dup1\n      extcodesize\n      iszero\n      dup1\n      iszero\n      tag_251\n      jumpi\n      0x00\n      dup1\n      revert\n    tag_251:\n      pop\n      gas\n      staticcall\n      iszero\n      dup1\n      iszero\n      tag_253\n      jumpi\n      returndatasize\n      0x00\n      dup1\n      returndatacopy\n      revert(0x00, returndatasize)\n    tag_253:\n      pop\n      pop\n      pop\n      pop\n      mload(0x40)\n      returndatasize\n      0x20\n      dup2\n      lt\n      iszero\n      tag_254\n      jumpi\n      0x00\n      dup1\n      revert\n    tag_254:\n      dup2\n      add\n      swap1\n      dup1\n      dup1\n      mload\n      swap1\n      0x20\n      add\n      swap1\n      swap3\n      swap2\n      swap1\n      pop\n      pop\n      pop\n        /* \"farms-pools/LandbaseLockPool.sol\":20863:20900  return token.balanceOf(address(this)) */\n      swap1\n      pop\n        /* \"farms-pools/LandbaseLockPool.sol\":20801:20908  function available() public view returns (uint256) {\r... */\n      swap1\n      jump\t// out\n        /* \"farms-pools/LandbaseLockPool.sol\":1560:1585  uint256 public startBlock */\n    tag_89:\n      sload(0x03)\n      dup2\n      jump\t// out\n        /* \"farms-pools/LandbaseLockPool.sol\":20181:20415  function calculateTotalPendingCakeRewards() external view returns (uint256) {\r... */\n    tag_91:\n        /* \"farms-pools/LandbaseLockPool.sol\":20248:20255  uint256 */\n      0x00\n        /* \"farms-pools/LandbaseLockPool.sol\":20268:20282  uint256 amount */\n      dup1\n        /* \"farms-pools/LandbaseLockPool.sol\":20297:20307  masterchef */\n      immutable(\"0x64e604787cbf194841e7b68d7cd28786f6c9a0a3ab9f8b0a0e87cb4387ab0107\")\n        /* \"farms-pools/LandbaseLockPool.sol\":20285:20320  IMasterChef(masterchef).pendingCake */\n      0xffffffffffffffffffffffffffffffffffffffff\n      and\n      0x1175a1dd\n        /* \"farms-pools/LandbaseLockPool.sol\":20321:20322  0 */\n      0x00\n        /* \"farms-pools/LandbaseLockPool.sol\":20332:20336  this */\n      address\n        /* \"farms-pools/LandbaseLockPool.sol\":20285:20338  IMasterChef(masterchef).pendingCake(0, address(this)) */\n      mload(0x40)\n      dup4\n      0xffffffff\n      and\n      0xe0\n      shl\n      dup2\n      mstore\n      0x04\n      add\n      dup1\n      dup4\n      dup2\n      mstore\n      0x20\n      add\n      dup3\n      0xffffffffffffffffffffffffffffffffffffffff\n      and\n      dup2\n      mstore\n      0x20\n      add\n      swap3\n      pop\n      pop\n      pop\n      0x20\n      mload(0x40)\n      dup1\n      dup4\n      sub\n      dup2\n      dup7\n      dup1\n      extcodesize\n      iszero\n      dup1\n      iszero\n      tag_256\n      jumpi\n      0x00\n      dup1\n      revert\n    tag_256:\n      pop\n      gas\n      staticcall\n      iszero\n      dup1\n      iszero\n      tag_258\n      jumpi\n      returndatasize\n      0x00\n      dup1\n      returndatacopy\n      revert(0x00, returndatasize)\n    tag_258:\n      pop\n      pop\n      pop\n      pop\n      mload(0x40)\n      returndatasize\n      0x20\n      dup2\n      lt\n      iszero\n      tag_259\n      jumpi\n      0x00\n      dup1\n      revert\n    tag_259:\n      dup2\n      add\n      swap1\n      dup1\n      dup1\n      mload\n      swap1\n      0x20\n      add\n      swap1\n      swap3\n      swap2\n      swap1\n      pop\n      pop\n      pop\n        /* \"farms-pools/LandbaseLockPool.sol\":20268:20338  uint256 amount = IMasterChef(masterchef).pendingCake(0, address(this)) */\n      swap1\n      pop\n        /* \"farms-pools/LandbaseLockPool.sol\":20358:20381  amount.add(available()) */\n      tag_260\n        /* \"farms-pools/LandbaseLockPool.sol\":20369:20380  available() */\n      tag_261\n        /* \"farms-pools/LandbaseLockPool.sol\":20369:20378  available */\n      tag_87\n        /* \"farms-pools/LandbaseLockPool.sol\":20369:20380  available() */\n      jump\t// in\n    tag_261:\n        /* \"farms-pools/LandbaseLockPool.sol\":20358:20364  amount */\n      dup3\n        /* \"farms-pools/LandbaseLockPool.sol\":20358:20368  amount.add */\n      tag_204\n      swap1\n        /* \"farms-pools/LandbaseLockPool.sol\":20358:20381  amount.add(available()) */\n      swap2\n      swap1\n      0xffffffff\n      and\n      jump\t// in\n    tag_260:\n        /* \"farms-pools/LandbaseLockPool.sol\":20349:20381  amount = amount.add(available()) */\n      swap1\n      pop\n        /* \"farms-pools/LandbaseLockPool.sol\":20401:20407  amount */\n      dup1\n        /* \"farms-pools/LandbaseLockPool.sol\":20394:20407  return amount */\n      swap2\n      pop\n      pop\n        /* \"farms-pools/LandbaseLockPool.sol\":20181:20415  function calculateTotalPendingCakeRewards() external view returns (uint256) {\r... */\n      swap1\n      jump\t// out\n        /* \"farms-pools/utils/Pausable.sol\":1090:1176  function paused() public view virtual returns (bool) {\r... */\n    tag_93:\n        /* \"farms-pools/utils/Pausable.sol\":1137:1141  bool */\n      0x00\n        /* \"farms-pools/utils/Pausable.sol\":1161:1168  _paused */\n      dup1\n      0x14\n      swap1\n      sload\n      swap1\n      0x0100\n      exp\n      swap1\n      div\n      0xff\n      and\n        /* \"farms-pools/utils/Pausable.sol\":1154:1168  return _paused */\n      swap1\n      pop\n        /* \"farms-pools/utils/Pausable.sol\":1090:1176  function paused() public view virtual returns (bool) {\r... */\n      swap1\n      jump\t// out\n        /* \"farms-pools/LandbaseLockPool.sol\":1723:1746  address public treasury */\n    tag_95:\n      0x08\n      0x00\n      swap1\n      sload\n      swap1\n      0x0100\n      exp\n      swap1\n      div\n      0xffffffffffffffffffffffffffffffffffffffff\n      and\n      dup2\n      jump\t// out\n        /* \"farms-pools/LandbaseLockPool.sol\":15388:15540  function setAdmin(address _admin) external onlyOwner {\r... */\n    tag_98:\n        /* \"farms-pools/access/Ownable.sol\":1350:1362  _msgSender() */\n      tag_264\n        /* \"farms-pools/access/Ownable.sol\":1350:1360  _msgSender */\n      tag_265\n        /* \"farms-pools/access/Ownable.sol\":1350:1362  _msgSender() */\n      jump\t// in\n    tag_264:\n        /* \"farms-pools/access/Ownable.sol\":1339:1362  owner() == _msgSender() */\n      0xffffffffffffffffffffffffffffffffffffffff\n      and\n        /* \"farms-pools/access/Ownable.sol\":1339:1346  owner() */\n      tag_266\n        /* \"farms-pools/access/Ownable.sol\":1339:1344  owner */\n      tag_115\n        /* \"farms-pools/access/Ownable.sol\":1339:1346  owner() */\n      jump\t// in\n    tag_266:\n        /* \"farms-pools/access/Ownable.sol\":1339:1362  owner() == _msgSender() */\n      0xffffffffffffffffffffffffffffffffffffffff\n      and\n      eq\n        /* \"farms-pools/access/Ownable.sol\":1331:1399  require(owner() == _msgSender(), \"Ownable: caller is not the owner\") */\n      tag_267\n      jumpi\n      mload(0x40)\n      0x08c379a000000000000000000000000000000000000000000000000000000000\n      dup2\n      mstore\n      0x04\n      add\n      dup1\n      dup1\n      0x20\n      add\n      dup3\n      dup2\n      sub\n      dup3\n      mstore\n      0x20\n      dup2\n      mstore\n      0x20\n      add\n      dup1\n      0x4f776e61626c653a2063616c6c6572206973206e6f7420746865206f776e6572\n      dup2\n      mstore\n      pop\n      0x20\n      add\n      swap2\n      pop\n      pop\n      mload(0x40)\n      dup1\n      swap2\n      sub\n      swap1\n      revert\n    tag_267:\n        /* \"farms-pools/LandbaseLockPool.sol\":15478:15479  0 */\n      0x00\n        /* \"farms-pools/LandbaseLockPool.sol\":15460:15480  _admin != address(0) */\n      0xffffffffffffffffffffffffffffffffffffffff\n      and\n        /* \"farms-pools/LandbaseLockPool.sol\":15460:15466  _admin */\n      dup2\n        /* \"farms-pools/LandbaseLockPool.sol\":15460:15480  _admin != address(0) */\n      0xffffffffffffffffffffffffffffffffffffffff\n      and\n      eq\n      iszero\n        /* \"farms-pools/LandbaseLockPool.sol\":15452:15507  require(_admin != address(0), \"Cannot be zero address\") */\n      tag_269\n      jumpi\n      mload(0x40)\n      0x08c379a000000000000000000000000000000000000000000000000000000000\n      dup2\n      mstore\n      0x04\n      add\n      dup1\n      dup1\n      0x20\n      add\n      dup3\n      dup2\n      sub\n      dup3\n      mstore\n      0x16\n      dup2\n      mstore\n      0x20\n      add\n      dup1\n      0x43616e6e6f74206265207a65726f206164647265737300000000000000000000\n      dup2\n      mstore\n      pop\n      0x20\n      add\n      swap2\n      pop\n      pop\n      mload(0x40)\n      dup1\n      swap2\n      sub\n      swap1\n      revert\n    tag_269:\n        /* \"farms-pools/LandbaseLockPool.sol\":15526:15532  _admin */\n      dup1\n        /* \"farms-pools/LandbaseLockPool.sol\":15518:15523  admin */\n      0x07\n      0x00\n        /* \"farms-pools/LandbaseLockPool.sol\":15518:15532  admin = _admin */\n      0x0100\n      exp\n      dup2\n      sload\n      dup2\n      0xffffffffffffffffffffffffffffffffffffffff\n      mul\n      not\n      and\n      swap1\n      dup4\n      0xffffffffffffffffffffffffffffffffffffffff\n      and\n      mul\n      or\n      swap1\n      sstore\n      pop\n        /* \"farms-pools/LandbaseLockPool.sol\":15388:15540  function setAdmin(address _admin) external onlyOwner {\r... */\n      pop\n      jump\t// out\n        /* \"farms-pools/LandbaseLockPool.sol\":15934:16172  function setPerformanceFee(uint256 _performanceFee) external onlyAdmin {\r... */\n    tag_101:\n        /* \"farms-pools/LandbaseLockPool.sol\":4161:4166  admin */\n      0x07\n      0x00\n      swap1\n      sload\n      swap1\n      0x0100\n      exp\n      swap1\n      div\n      0xffffffffffffffffffffffffffffffffffffffff\n      and\n        /* \"farms-pools/LandbaseLockPool.sol\":4147:4166  msg.sender == admin */\n      0xffffffffffffffffffffffffffffffffffffffff\n      and\n        /* \"farms-pools/LandbaseLockPool.sol\":4147:4157  msg.sender */\n      caller\n        /* \"farms-pools/LandbaseLockPool.sol\":4147:4166  msg.sender == admin */\n      0xffffffffffffffffffffffffffffffffffffffff\n      and\n      eq\n        /* \"farms-pools/LandbaseLockPool.sol\":4139:4182  require(msg.sender == admin, \"admin: wut?\") */\n      tag_271\n      jumpi\n      mload(0x40)\n      0x08c379a000000000000000000000000000000000000000000000000000000000\n      dup2\n      mstore\n      0x04\n      add\n      dup1\n      dup1\n      0x20\n      add\n      dup3\n      dup2\n      sub\n      dup3\n      mstore\n      0x0b\n      dup2\n      mstore\n      0x20\n      add\n      dup1\n      0x61646d696e3a207775743f000000000000000000000000000000000000000000\n      dup2\n      mstore\n      pop\n      0x20\n      add\n      swap2\n      pop\n      pop\n      mload(0x40)\n      dup1\n      swap2\n      sub\n      swap1\n      revert\n    tag_271:\n        /* \"farms-pools/LandbaseLockPool.sol\":1801:1804  600 */\n      0x0258\n        /* \"farms-pools/LandbaseLockPool.sol\":16024:16039  _performanceFee */\n      dup2\n        /* \"farms-pools/LandbaseLockPool.sol\":16024:16062  _performanceFee <= MAX_PERFORMANCE_FEE */\n      gt\n      iszero\n        /* \"farms-pools/LandbaseLockPool.sol\":16016:16121  require(_performanceFee <= MAX_PERFORMANCE_FEE, \"performanceFee cannot be more than MAX_PERFORMANCE_FEE\") */\n      tag_273\n      jumpi\n      mload(0x40)\n      0x08c379a000000000000000000000000000000000000000000000000000000000\n      dup2\n      mstore\n      0x04\n      add\n      dup1\n      dup1\n      0x20\n      add\n      dup3\n      dup2\n      sub\n      dup3\n      mstore\n      0x36\n      dup2\n      mstore\n      0x20\n      add\n      dup1\n      data_6432039cf9ff586e7b7914864ffeeb65018de8382b891f7abea9a0fa0a0eeba5\n      0x36\n      swap2\n      codecopy\n      0x40\n      add\n      swap2\n      pop\n      pop\n      mload(0x40)\n      dup1\n      swap2\n      sub\n      swap1\n      revert\n    tag_273:\n        /* \"farms-pools/LandbaseLockPool.sol\":16149:16164  _performanceFee */\n      dup1\n        /* \"farms-pools/LandbaseLockPool.sol\":16132:16146  performanceFee */\n      0x09\n        /* \"farms-pools/LandbaseLockPool.sol\":16132:16164  performanceFee = _performanceFee */\n      dup2\n      swap1\n      sstore\n      pop\n        /* \"farms-pools/LandbaseLockPool.sol\":15934:16172  function setPerformanceFee(uint256 _performanceFee) external onlyAdmin {\r... */\n      pop\n      jump\t// out\n        /* \"farms-pools/access/Ownable.sol\":1770:1918  function renounceOwnership() public virtual onlyOwner {\r... */\n    tag_103:\n        /* \"farms-pools/access/Ownable.sol\":1350:1362  _msgSender() */\n      tag_275\n        /* \"farms-pools/access/Ownable.sol\":1350:1360  _msgSender */\n      tag_265\n        /* \"farms-pools/access/Ownable.sol\":1350:1362  _msgSender() */\n      jump\t// in\n    tag_275:\n        /* \"farms-pools/access/Ownable.sol\":1339:1362  owner() == _msgSender() */\n      0xffffffffffffffffffffffffffffffffffffffff\n      and\n        /* \"farms-pools/access/Ownable.sol\":1339:1346  owner() */\n      tag_276\n        /* \"farms-pools/access/Ownable.sol\":1339:1344  owner */\n      tag_115\n        /* \"farms-pools/access/Ownable.sol\":1339:1346  owner() */\n      jump\t// in\n    tag_276:\n        /* \"farms-pools/access/Ownable.sol\":1339:1362  owner() == _msgSender() */\n      0xffffffffffffffffffffffffffffffffffffffff\n      and\n      eq\n        /* \"farms-pools/access/Ownable.sol\":1331:1399  require(owner() == _msgSender(), \"Ownable: caller is not the owner\") */\n      tag_277\n      jumpi\n      mload(0x40)\n      0x08c379a000000000000000000000000000000000000000000000000000000000\n      dup2\n      mstore\n      0x04\n      add\n      dup1\n      dup1\n      0x20\n      add\n      dup3\n      dup2\n      sub\n      dup3\n      mstore\n      0x20\n      dup2\n      mstore\n      0x20\n      add\n      dup1\n      0x4f776e61626c653a2063616c6c6572206973206e6f7420746865206f776e6572\n      dup2\n      mstore\n      pop\n      0x20\n      add\n      swap2\n      pop\n      pop\n      mload(0x40)\n      dup1\n      swap2\n      sub\n      swap1\n      revert\n    tag_277:\n        /* \"farms-pools/access/Ownable.sol\":1877:1878  0 */\n      0x00\n        /* \"farms-pools/access/Ownable.sol\":1840:1880  OwnershipTransferred(_owner, address(0)) */\n      0xffffffffffffffffffffffffffffffffffffffff\n      and\n        /* \"farms-pools/access/Ownable.sol\":1861:1867  _owner */\n      0x00\n      dup1\n      sload\n      swap1\n      0x0100\n      exp\n      swap1\n      div\n      0xffffffffffffffffffffffffffffffffffffffff\n      and\n        /* \"farms-pools/access/Ownable.sol\":1840:1880  OwnershipTransferred(_owner, address(0)) */\n      0xffffffffffffffffffffffffffffffffffffffff\n      and\n      0x8be0079c531659141344cd1fd0a4f28419497f9722a3daafe3b4186f6b6457e0\n      mload(0x40)\n      mload(0x40)\n      dup1\n      swap2\n      sub\n      swap1\n      log3\n        /* \"farms-pools/access/Ownable.sol\":1908:1909  0 */\n      0x00\n        /* \"farms-pools/access/Ownable.sol\":1891:1897  _owner */\n      dup1\n      0x00\n        /* \"farms-pools/access/Ownable.sol\":1891:1910  _owner = address(0) */\n      0x0100\n      exp\n      dup2\n      sload\n      dup2\n      0xffffffffffffffffffffffffffffffffffffffff\n      mul\n      not\n      and\n      swap1\n      dup4\n      0xffffffffffffffffffffffffffffffffffffffff\n      and\n      mul\n      or\n      swap1\n      sstore\n      pop\n        /* \"farms-pools/access/Ownable.sol\":1770:1918  function renounceOwnership() public virtual onlyOwner {\r... */\n      jump\t// out\n        /* \"farms-pools/LandbaseLockPool.sol\":21065:21266  function balanceOf() public view returns (uint256) {\r... */\n    tag_105:\n        /* \"farms-pools/LandbaseLockPool.sol\":21107:21114  uint256 */\n      0x00\n        /* \"farms-pools/LandbaseLockPool.sol\":21128:21142  uint256 amount */\n      dup1\n        /* \"farms-pools/LandbaseLockPool.sol\":21160:21170  masterchef */\n      immutable(\"0x64e604787cbf194841e7b68d7cd28786f6c9a0a3ab9f8b0a0e87cb4387ab0107\")\n        /* \"farms-pools/LandbaseLockPool.sol\":21148:21180  IMasterChef(masterchef).userInfo */\n      0xffffffffffffffffffffffffffffffffffffffff\n      and\n      0x93f1a40b\n        /* \"farms-pools/LandbaseLockPool.sol\":21181:21182  0 */\n      0x00\n        /* \"farms-pools/LandbaseLockPool.sol\":21192:21196  this */\n      address\n        /* \"farms-pools/LandbaseLockPool.sol\":21148:21198  IMasterChef(masterchef).userInfo(0, address(this)) */\n      mload(0x40)\n      dup4\n      0xffffffff\n      and\n      0xe0\n      shl\n      dup2\n      mstore\n      0x04\n      add\n      dup1\n      dup4\n      dup2\n      mstore\n      0x20\n      add\n      dup3\n      0xffffffffffffffffffffffffffffffffffffffff\n      and\n      dup2\n      mstore\n      0x20\n      add\n      swap3\n      pop\n      pop\n      pop\n      0x40\n      dup1\n      mload\n      dup1\n      dup4\n      sub\n      dup2\n      dup7\n      dup1\n      extcodesize\n      iszero\n      dup1\n      iszero\n      tag_280\n      jumpi\n      0x00\n      dup1\n      revert\n    tag_280:\n      pop\n      gas\n      staticcall\n      iszero\n      dup1\n      iszero\n      tag_282\n      jumpi\n      returndatasize\n      0x00\n      dup1\n      returndatacopy\n      revert(0x00, returndatasize)\n    tag_282:\n      pop\n      pop\n      pop\n      pop\n      mload(0x40)\n      returndatasize\n      0x40\n      dup2\n      lt\n      iszero\n      tag_283\n      jumpi\n      0x00\n      dup1\n      revert\n    tag_283:\n      dup2\n      add\n      swap1\n      dup1\n      dup1\n      mload\n      swap1\n      0x20\n      add\n      swap1\n      swap3\n      swap2\n      swap1\n      dup1\n      mload\n      swap1\n      0x20\n      add\n      swap1\n      swap3\n      swap2\n      swap1\n      pop\n      pop\n      pop\n        /* \"farms-pools/LandbaseLockPool.sol\":21127:21198  (uint256 amount, ) = IMasterChef(masterchef).userInfo(0, address(this)) */\n      pop\n      swap1\n      pop\n        /* \"farms-pools/LandbaseLockPool.sol\":21216:21258  token.balanceOf(address(this)).add(amount) */\n      tag_284\n        /* \"farms-pools/LandbaseLockPool.sol\":21251:21257  amount */\n      dup2\n        /* \"farms-pools/LandbaseLockPool.sol\":21216:21221  token */\n      immutable(\"0x7ae9fd093408c444e1cd944d183f5410919486c93305c223a5a94b5e79d77d3b\")\n        /* \"farms-pools/LandbaseLockPool.sol\":21216:21231  token.balanceOf */\n      0xffffffffffffffffffffffffffffffffffffffff\n      and\n      0x70a08231\n        /* \"farms-pools/LandbaseLockPool.sol\":21240:21244  this */\n      address\n        /* \"farms-pools/LandbaseLockPool.sol\":21216:21246  token.balanceOf(address(this)) */\n      mload(0x40)\n      dup3\n      0xffffffff\n      and\n      0xe0\n      shl\n      dup2\n      mstore\n      0x04\n      add\n      dup1\n      dup3\n      0xffffffffffffffffffffffffffffffffffffffff\n      and\n      dup2\n      mstore\n      0x20\n      add\n      swap2\n      pop\n      pop\n      0x20\n      mload(0x40)\n      dup1\n      dup4\n      sub\n      dup2\n      dup7\n      dup1\n      extcodesize\n      iszero\n      dup1\n      iszero\n      tag_285\n      jumpi\n      0x00\n      dup1\n      revert\n    tag_285:\n      pop\n      gas\n      staticcall\n      iszero\n      dup1\n      iszero\n      tag_287\n      jumpi\n      returndatasize\n      0x00\n      dup1\n      returndatacopy\n      revert(0x00, returndatasize)\n    tag_287:\n      pop\n      pop\n      pop\n      pop\n      mload(0x40)\n      returndatasize\n      0x20\n      dup2\n      lt\n      iszero\n      tag_288\n      jumpi\n      0x00\n      dup1\n      revert\n    tag_288:\n      dup2\n      add\n      swap1\n      dup1\n      dup1\n      mload\n      swap1\n      0x20\n      add\n      swap1\n      swap3\n      swap2\n      swap1\n      pop\n      pop\n      pop\n        /* \"farms-pools/LandbaseLockPool.sol\":21216:21250  token.balanceOf(address(this)).add */\n      tag_204\n      swap1\n        /* \"farms-pools/LandbaseLockPool.sol\":21216:21258  token.balanceOf(address(this)).add(amount) */\n      swap2\n      swap1\n      0xffffffff\n      and\n      jump\t// in\n    tag_284:\n        /* \"farms-pools/LandbaseLockPool.sol\":21209:21258  return token.balanceOf(address(this)).add(amount) */\n      swap2\n      pop\n      pop\n        /* \"farms-pools/LandbaseLockPool.sol\":21065:21266  function balanceOf() public view returns (uint256) {\r... */\n      swap1\n      jump\t// out\n        /* \"farms-pools/LandbaseLockPool.sol\":20488:20642  function getPricePerFullShare() external view returns (uint256) {\r... */\n    tag_107:\n        /* \"farms-pools/LandbaseLockPool.sol\":20543:20550  uint256 */\n      0x00\n        /* \"farms-pools/LandbaseLockPool.sol\":20585:20586  0 */\n      dup1\n        /* \"farms-pools/LandbaseLockPool.sol\":20570:20581  totalShares */\n      sload(0x05)\n        /* \"farms-pools/LandbaseLockPool.sol\":20570:20586  totalShares == 0 */\n      eq\n        /* \"farms-pools/LandbaseLockPool.sol\":20570:20634  totalShares == 0 ? 1e18 : balanceOf().mul(1e18).div(totalShares) */\n      tag_290\n      jumpi\n        /* \"farms-pools/LandbaseLockPool.sol\":20596:20634  balanceOf().mul(1e18).div(totalShares) */\n      tag_291\n        /* \"farms-pools/LandbaseLockPool.sol\":20622:20633  totalShares */\n      sload(0x05)\n        /* \"farms-pools/LandbaseLockPool.sol\":20596:20617  balanceOf().mul(1e18) */\n      tag_292\n        /* \"farms-pools/LandbaseLockPool.sol\":20612:20616  1e18 */\n      0x0de0b6b3a7640000\n        /* \"farms-pools/LandbaseLockPool.sol\":20596:20607  balanceOf() */\n      tag_293\n        /* \"farms-pools/LandbaseLockPool.sol\":20596:20605  balanceOf */\n      tag_105\n        /* \"farms-pools/LandbaseLockPool.sol\":20596:20607  balanceOf() */\n      jump\t// in\n    tag_293:\n        /* \"farms-pools/LandbaseLockPool.sol\":20596:20611  balanceOf().mul */\n      tag_189\n      swap1\n        /* \"farms-pools/LandbaseLockPool.sol\":20596:20617  balanceOf().mul(1e18) */\n      swap2\n      swap1\n      0xffffffff\n      and\n      jump\t// in\n    tag_292:\n        /* \"farms-pools/LandbaseLockPool.sol\":20596:20621  balanceOf().mul(1e18).div */\n      tag_190\n      swap1\n        /* \"farms-pools/LandbaseLockPool.sol\":20596:20634  balanceOf().mul(1e18).div(totalShares) */\n      swap2\n      swap1\n      0xffffffff\n      and\n      jump\t// in\n    tag_291:\n        /* \"farms-pools/LandbaseLockPool.sol\":20570:20634  totalShares == 0 ? 1e18 : balanceOf().mul(1e18).div(totalShares) */\n      jump(tag_294)\n    tag_290:\n        /* \"farms-pools/LandbaseLockPool.sol\":20589:20593  1e18 */\n      0x0de0b6b3a7640000\n        /* \"farms-pools/LandbaseLockPool.sol\":20570:20634  totalShares == 0 ? 1e18 : balanceOf().mul(1e18).div(totalShares) */\n    tag_294:\n        /* \"farms-pools/LandbaseLockPool.sol\":20563:20634  return totalShares == 0 ? 1e18 : balanceOf().mul(1e18).div(totalShares) */\n      swap1\n      pop\n        /* \"farms-pools/LandbaseLockPool.sol\":20488:20642  function getPricePerFullShare() external view returns (uint256) {\r... */\n      swap1\n      jump\t// out\n        /* \"farms-pools/LandbaseLockPool.sol\":19300:19400  function pause() external onlyAdmin whenNotPaused {\r... */\n    tag_109:\n        /* \"farms-pools/LandbaseLockPool.sol\":4161:4166  admin */\n      0x07\n      0x00\n      swap1\n      sload\n      swap1\n      0x0100\n      exp\n      swap1\n      div\n      0xffffffffffffffffffffffffffffffffffffffff\n      and\n        /* \"farms-pools/LandbaseLockPool.sol\":4147:4166  msg.sender == admin */\n      0xffffffffffffffffffffffffffffffffffffffff\n      and\n        /* \"farms-pools/LandbaseLockPool.sol\":4147:4157  msg.sender */\n      caller\n        /* \"farms-pools/LandbaseLockPool.sol\":4147:4166  msg.sender == admin */\n      0xffffffffffffffffffffffffffffffffffffffff\n      and\n      eq\n        /* \"farms-pools/LandbaseLockPool.sol\":4139:4182  require(msg.sender == admin, \"admin: wut?\") */\n      tag_296\n      jumpi\n      mload(0x40)\n      0x08c379a000000000000000000000000000000000000000000000000000000000\n      dup2\n      mstore\n      0x04\n      add\n      dup1\n      dup1\n      0x20\n      add\n      dup3\n      dup2\n      sub\n      dup3\n      mstore\n      0x0b\n      dup2\n      mstore\n      0x20\n      add\n      dup1\n      0x61646d696e3a207775743f000000000000000000000000000000000000000000\n      dup2\n      mstore\n      pop\n      0x20\n      add\n      swap2\n      pop\n      pop\n      mload(0x40)\n      dup1\n      swap2\n      sub\n      swap1\n      revert\n    tag_296:\n        /* \"farms-pools/utils/Pausable.sol\":1416:1424  paused() */\n      tag_298\n        /* \"farms-pools/utils/Pausable.sol\":1416:1422  paused */\n      tag_93\n        /* \"farms-pools/utils/Pausable.sol\":1416:1424  paused() */\n      jump\t// in\n    tag_298:\n        /* \"farms-pools/utils/Pausable.sol\":1415:1424  !paused() */\n      iszero\n        /* \"farms-pools/utils/Pausable.sol\":1407:1445  require(!paused(), \"Pausable: paused\") */\n      tag_299\n      jumpi\n      mload(0x40)\n      0x08c379a000000000000000000000000000000000000000000000000000000000\n      dup2\n      mstore\n      0x04\n      add\n      dup1\n      dup1\n      0x20\n      add\n      dup3\n      dup2\n      sub\n      dup3\n      mstore\n      0x10\n      dup2\n      mstore\n      0x20\n      add\n      dup1\n      0x5061757361626c653a2070617573656400000000000000000000000000000000\n      dup2\n      mstore\n      pop\n      0x20\n      add\n      swap2\n      pop\n      pop\n      mload(0x40)\n      dup1\n      swap2\n      sub\n      swap1\n      revert\n    tag_299:\n        /* \"farms-pools/LandbaseLockPool.sol\":19361:19369  _pause() */\n      tag_301\n        /* \"farms-pools/LandbaseLockPool.sol\":19361:19367  _pause */\n      tag_302\n        /* \"farms-pools/LandbaseLockPool.sol\":19361:19369  _pause() */\n      jump\t// in\n    tag_301:\n        /* \"farms-pools/LandbaseLockPool.sol\":19385:19392  Pause() */\n      0x6985a02210a168e66602d3235cb6db0e70f92b3ba4d376a33c0f3d9434bff625\n      mload(0x40)\n      mload(0x40)\n      dup1\n      swap2\n      sub\n      swap1\n      log1\n        /* \"farms-pools/LandbaseLockPool.sol\":19300:19400  function pause() external onlyAdmin whenNotPaused {\r... */\n      jump\t// out\n        /* \"farms-pools/LandbaseLockPool.sol\":10135:10235  function withdrawAll() external notContract {\r... */\n    tag_111:\n        /* \"farms-pools/LandbaseLockPool.sol\":4337:4360  _isContract(msg.sender) */\n      tag_304\n        /* \"farms-pools/LandbaseLockPool.sol\":4349:4359  msg.sender */\n      caller\n        /* \"farms-pools/LandbaseLockPool.sol\":4337:4348  _isContract */\n      tag_180\n        /* \"farms-pools/LandbaseLockPool.sol\":4337:4360  _isContract(msg.sender) */\n      jump\t// in\n    tag_304:\n        /* \"farms-pools/LandbaseLockPool.sol\":4336:4360  !_isContract(msg.sender) */\n      iszero\n        /* \"farms-pools/LandbaseLockPool.sol\":4328:4385  require(!_isContract(msg.sender), \"contract not allowed\") */\n      tag_305\n      jumpi\n      mload(0x40)\n      0x08c379a000000000000000000000000000000000000000000000000000000000\n      dup2\n      mstore\n      0x04\n      add\n      dup1\n      dup1\n      0x20\n      add\n      dup3\n      dup2\n      sub\n      dup3\n      mstore\n      0x14\n      dup2\n      mstore\n      0x20\n      add\n      dup1\n      0x636f6e7472616374206e6f7420616c6c6f776564000000000000000000000000\n      dup2\n      mstore\n      pop\n      0x20\n      add\n      swap2\n      pop\n      pop\n      mload(0x40)\n      dup1\n      swap2\n      sub\n      swap1\n      revert\n    tag_305:\n        /* \"farms-pools/LandbaseLockPool.sol\":4418:4427  tx.origin */\n      origin\n        /* \"farms-pools/LandbaseLockPool.sol\":4404:4427  msg.sender == tx.origin */\n      0xffffffffffffffffffffffffffffffffffffffff\n      and\n        /* \"farms-pools/LandbaseLockPool.sol\":4404:4414  msg.sender */\n      caller\n        /* \"farms-pools/LandbaseLockPool.sol\":4404:4427  msg.sender == tx.origin */\n      0xffffffffffffffffffffffffffffffffffffffff\n      and\n      eq\n        /* \"farms-pools/LandbaseLockPool.sol\":4396:4458  require(msg.sender == tx.origin, \"proxy contract not allowed\") */\n      tag_306\n      jumpi\n      mload(0x40)\n      0x08c379a000000000000000000000000000000000000000000000000000000000\n      dup2\n      mstore\n      0x04\n      add\n      dup1\n      dup1\n      0x20\n      add\n      dup3\n      dup2\n      sub\n      dup3\n      mstore\n      0x1a\n      dup2\n      mstore\n      0x20\n      add\n      dup1\n      0x70726f787920636f6e7472616374206e6f7420616c6c6f776564000000000000\n      dup2\n      mstore\n      pop\n      0x20\n      add\n      swap2\n      pop\n      pop\n      mload(0x40)\n      dup1\n      swap2\n      sub\n      swap1\n      revert\n    tag_306:\n        /* \"farms-pools/LandbaseLockPool.sol\":10190:10227  withdraw(userInfo[msg.sender].shares) */\n      tag_308\n        /* \"farms-pools/LandbaseLockPool.sol\":10199:10207  userInfo */\n      0x01\n        /* \"farms-pools/LandbaseLockPool.sol\":10199:10219  userInfo[msg.sender] */\n      0x00\n        /* \"farms-pools/LandbaseLockPool.sol\":10208:10218  msg.sender */\n      caller\n        /* \"farms-pools/LandbaseLockPool.sol\":10199:10219  userInfo[msg.sender] */\n      0xffffffffffffffffffffffffffffffffffffffff\n      and\n      0xffffffffffffffffffffffffffffffffffffffff\n      and\n      dup2\n      mstore\n      0x20\n      add\n      swap1\n      dup2\n      mstore\n      0x20\n      add\n      0x00\n      keccak256\n        /* \"farms-pools/LandbaseLockPool.sol\":10199:10226  userInfo[msg.sender].shares */\n      0x00\n      add\n      sload\n        /* \"farms-pools/LandbaseLockPool.sol\":10190:10198  withdraw */\n      tag_79\n        /* \"farms-pools/LandbaseLockPool.sol\":10190:10227  withdraw(userInfo[msg.sender].shares) */\n      jump\t// in\n    tag_308:\n        /* \"farms-pools/LandbaseLockPool.sol\":10135:10235  function withdrawAll() external notContract {\r... */\n      jump\t// out\n        /* \"farms-pools/LandbaseLockPool.sol\":2009:2044  uint256 public performanceFee = 200 */\n    tag_113:\n      sload(0x09)\n      dup2\n      jump\t// out\n        /* \"farms-pools/access/Ownable.sol\":1119:1206  function owner() public view virtual returns (address) {\r... */\n    tag_115:\n        /* \"farms-pools/access/Ownable.sol\":1165:1172  address */\n      0x00\n        /* \"farms-pools/access/Ownable.sol\":1192:1198  _owner */\n      dup1\n      0x00\n      swap1\n      sload\n      swap1\n      0x0100\n      exp\n      swap1\n      div\n      0xffffffffffffffffffffffffffffffffffffffff\n      and\n        /* \"farms-pools/access/Ownable.sol\":1185:1198  return _owner */\n      swap1\n      pop\n        /* \"farms-pools/access/Ownable.sol\":1119:1206  function owner() public view virtual returns (address) {\r... */\n      swap1\n      jump\t// out\n        /* \"farms-pools/LandbaseLockPool.sol\":2057:2084  uint256 public callFee = 25 */\n    tag_117:\n      sload(0x0a)\n      dup2\n      jump\t// out\n        /* \"farms-pools/LandbaseLockPool.sol\":17441:17869  function updateStartAndEndBlocks(uint256 _startBlock, uint256 _endBlock) external onlyAdmin {\r... */\n    tag_120:\n        /* \"farms-pools/LandbaseLockPool.sol\":4161:4166  admin */\n      0x07\n      0x00\n      swap1\n      sload\n      swap1\n      0x0100\n      exp\n      swap1\n      div\n      0xffffffffffffffffffffffffffffffffffffffff\n      and\n        /* \"farms-pools/LandbaseLockPool.sol\":4147:4166  msg.sender == admin */\n      0xffffffffffffffffffffffffffffffffffffffff\n      and\n        /* \"farms-pools/LandbaseLockPool.sol\":4147:4157  msg.sender */\n      caller\n        /* \"farms-pools/LandbaseLockPool.sol\":4147:4166  msg.sender == admin */\n      0xffffffffffffffffffffffffffffffffffffffff\n      and\n      eq\n        /* \"farms-pools/LandbaseLockPool.sol\":4139:4182  require(msg.sender == admin, \"admin: wut?\") */\n      tag_311\n      jumpi\n      mload(0x40)\n      0x08c379a000000000000000000000000000000000000000000000000000000000\n      dup2\n      mstore\n      0x04\n      add\n      dup1\n      dup1\n      0x20\n      add\n      dup3\n      dup2\n      sub\n      dup3\n      mstore\n      0x0b\n      dup2\n      mstore\n      0x20\n      add\n      dup1\n      0x61646d696e3a207775743f000000000000000000000000000000000000000000\n      dup2\n      mstore\n      pop\n      0x20\n      add\n      swap2\n      pop\n      pop\n      mload(0x40)\n      dup1\n      swap2\n      sub\n      swap1\n      revert\n    tag_311:\n        /* \"farms-pools/LandbaseLockPool.sol\":17567:17578  _startBlock */\n      dup2\n        /* \"farms-pools/LandbaseLockPool.sol\":17552:17564  block.number */\n      number\n        /* \"farms-pools/LandbaseLockPool.sol\":17552:17578  block.number < _startBlock */\n      lt\n        /* \"farms-pools/LandbaseLockPool.sol\":17544:17635  require(block.number < _startBlock, \"Pool current block must be lower than new startBlock\") */\n      tag_313\n      jumpi\n      mload(0x40)\n      0x08c379a000000000000000000000000000000000000000000000000000000000\n      dup2\n      mstore\n      0x04\n      add\n      dup1\n      dup1\n      0x20\n      add\n      dup3\n      dup2\n      sub\n      dup3\n      mstore\n      0x34\n      dup2\n      mstore\n      0x20\n      add\n      dup1\n      data_c9c3e461d0a427a4e9ec61c7672ef5d0872b7afe41af330c564d77d66b5b728b\n      0x34\n      swap2\n      codecopy\n      0x40\n      add\n      swap2\n      pop\n      pop\n      mload(0x40)\n      dup1\n      swap2\n      sub\n      swap1\n      revert\n    tag_313:\n        /* \"farms-pools/LandbaseLockPool.sol\":17668:17677  _endBlock */\n      dup1\n        /* \"farms-pools/LandbaseLockPool.sol\":17654:17665  _startBlock */\n      dup3\n        /* \"farms-pools/LandbaseLockPool.sol\":17654:17677  _startBlock < _endBlock */\n      lt\n        /* \"farms-pools/LandbaseLockPool.sol\":17646:17728  require(_startBlock < _endBlock, \"New startBlock must be lower than new endBlock\") */\n      tag_314\n      jumpi\n      mload(0x40)\n      0x08c379a000000000000000000000000000000000000000000000000000000000\n      dup2\n      mstore\n      0x04\n      add\n      dup1\n      dup1\n      0x20\n      add\n      dup3\n      dup2\n      sub\n      dup3\n      mstore\n      0x2e\n      dup2\n      mstore\n      0x20\n      add\n      dup1\n      data_55e8b512461165150226d7fb62af16288a660c0fc1f35821ba4ad8ad658a0bb0\n      0x2e\n      swap2\n      codecopy\n      0x40\n      add\n      swap2\n      pop\n      pop\n      mload(0x40)\n      dup1\n      swap2\n      sub\n      swap1\n      revert\n    tag_314:\n        /* \"farms-pools/LandbaseLockPool.sol\":17754:17765  _startBlock */\n      dup2\n        /* \"farms-pools/LandbaseLockPool.sol\":17741:17751  startBlock */\n      0x03\n        /* \"farms-pools/LandbaseLockPool.sol\":17741:17765  startBlock = _startBlock */\n      dup2\n      swap1\n      sstore\n      pop\n        /* \"farms-pools/LandbaseLockPool.sol\":17787:17796  _endBlock */\n      dup1\n        /* \"farms-pools/LandbaseLockPool.sol\":17776:17784  endBlock */\n      0x04\n        /* \"farms-pools/LandbaseLockPool.sol\":17776:17796  endBlock = _endBlock */\n      dup2\n      swap1\n      sstore\n      pop\n        /* \"farms-pools/LandbaseLockPool.sol\":17814:17861  UpdateStartAndEndBlocks(_startBlock, _endBlock) */\n      0x053462fec8f17a9d662e3778a6027b6c0c1ac0da2390a991aa33cb3aa60cae4e\n        /* \"farms-pools/LandbaseLockPool.sol\":17838:17849  _startBlock */\n      dup3\n        /* \"farms-pools/LandbaseLockPool.sol\":17851:17860  _endBlock */\n      dup3\n        /* \"farms-pools/LandbaseLockPool.sol\":17814:17861  UpdateStartAndEndBlocks(_startBlock, _endBlock) */\n      mload(0x40)\n      dup1\n      dup4\n      dup2\n      mstore\n      0x20\n      add\n      dup3\n      dup2\n      mstore\n      0x20\n      add\n      swap3\n      pop\n      pop\n      pop\n      mload(0x40)\n      dup1\n      swap2\n      sub\n      swap1\n      log1\n        /* \"farms-pools/LandbaseLockPool.sol\":17441:17869  function updateStartAndEndBlocks(uint256 _startBlock, uint256 _endBlock) external onlyAdmin {\r... */\n      pop\n      pop\n      jump\t// out\n        /* \"farms-pools/LandbaseLockPool.sol\":19770:20030  function calculateHarvestCakeRewards() external view returns (uint256) {\r... */\n    tag_122:\n        /* \"farms-pools/LandbaseLockPool.sol\":19832:19839  uint256 */\n      0x00\n        /* \"farms-pools/LandbaseLockPool.sol\":19852:19866  uint256 amount */\n      dup1\n        /* \"farms-pools/LandbaseLockPool.sol\":19881:19891  masterchef */\n      immutable(\"0x64e604787cbf194841e7b68d7cd28786f6c9a0a3ab9f8b0a0e87cb4387ab0107\")\n        /* \"farms-pools/LandbaseLockPool.sol\":19869:19904  IMasterChef(masterchef).pendingCake */\n      0xffffffffffffffffffffffffffffffffffffffff\n      and\n      0x1175a1dd\n        /* \"farms-pools/LandbaseLockPool.sol\":19905:19906  0 */\n      0x00\n        /* \"farms-pools/LandbaseLockPool.sol\":19916:19920  this */\n      address\n        /* \"farms-pools/LandbaseLockPool.sol\":19869:19922  IMasterChef(masterchef).pendingCake(0, address(this)) */\n      mload(0x40)\n      dup4\n      0xffffffff\n      and\n      0xe0\n      shl\n      dup2\n      mstore\n      0x04\n      add\n      dup1\n      dup4\n      dup2\n      mstore\n      0x20\n      add\n      dup3\n      0xffffffffffffffffffffffffffffffffffffffff\n      and\n      dup2\n      mstore\n      0x20\n      add\n      swap3\n      pop\n      pop\n      pop\n      0x20\n      mload(0x40)\n      dup1\n      dup4\n      sub\n      dup2\n      dup7\n      dup1\n      extcodesize\n      iszero\n      dup1\n      iszero\n      tag_316\n      jumpi\n      0x00\n      dup1\n      revert\n    tag_316:\n      pop\n      gas\n      staticcall\n      iszero\n      dup1\n      iszero\n      tag_318\n      jumpi\n      returndatasize\n      0x00\n      dup1\n      returndatacopy\n      revert(0x00, returndatasize)\n    tag_318:\n      pop\n      pop\n      pop\n      pop\n      mload(0x40)\n      returndatasize\n      0x20\n      dup2\n      lt\n      iszero\n      tag_319\n      jumpi\n      0x00\n      dup1\n      revert\n    tag_319:\n      dup2\n      add\n      swap1\n      dup1\n      dup1\n      mload\n      swap1\n      0x20\n      add\n      swap1\n      swap3\n      swap2\n      swap1\n      pop\n      pop\n      pop\n        /* \"farms-pools/LandbaseLockPool.sol\":19852:19922  uint256 amount = IMasterChef(masterchef).pendingCake(0, address(this)) */\n      swap1\n      pop\n        /* \"farms-pools/LandbaseLockPool.sol\":19933:19955  uint256 currentCallFee */\n      0x00\n        /* \"farms-pools/LandbaseLockPool.sol\":19958:19988  amount.mul(callFee).div(10000) */\n      tag_320\n        /* \"farms-pools/LandbaseLockPool.sol\":19982:19987  10000 */\n      0x2710\n        /* \"farms-pools/LandbaseLockPool.sol\":19958:19977  amount.mul(callFee) */\n      tag_321\n        /* \"farms-pools/LandbaseLockPool.sol\":19969:19976  callFee */\n      sload(0x0a)\n        /* \"farms-pools/LandbaseLockPool.sol\":19958:19964  amount */\n      dup6\n        /* \"farms-pools/LandbaseLockPool.sol\":19958:19968  amount.mul */\n      tag_189\n      swap1\n        /* \"farms-pools/LandbaseLockPool.sol\":19958:19977  amount.mul(callFee) */\n      swap2\n      swap1\n      0xffffffff\n      and\n      jump\t// in\n    tag_321:\n        /* \"farms-pools/LandbaseLockPool.sol\":19958:19981  amount.mul(callFee).div */\n      tag_190\n      swap1\n        /* \"farms-pools/LandbaseLockPool.sol\":19958:19988  amount.mul(callFee).div(10000) */\n      swap2\n      swap1\n      0xffffffff\n      and\n      jump\t// in\n    tag_320:\n        /* \"farms-pools/LandbaseLockPool.sol\":19933:19988  uint256 currentCallFee = amount.mul(callFee).div(10000) */\n      swap1\n      pop\n        /* \"farms-pools/LandbaseLockPool.sol\":20008:20022  currentCallFee */\n      dup1\n        /* \"farms-pools/LandbaseLockPool.sol\":20001:20022  return currentCallFee */\n      swap3\n      pop\n      pop\n      pop\n        /* \"farms-pools/LandbaseLockPool.sol\":19770:20030  function calculateHarvestCakeRewards() external view returns (uint256) {\r... */\n      swap1\n      jump\t// out\n        /* \"farms-pools/LandbaseLockPool.sol\":1657:1689  uint256 public lastHarvestedTime */\n    tag_124:\n      sload(0x06)\n      dup2\n      jump\t// out\n        /* \"farms-pools/LandbaseLockPool.sol\":16570:16784  function setWithdrawFee(uint256 _withdrawFee) external onlyAdmin {\r... */\n    tag_127:\n        /* \"farms-pools/LandbaseLockPool.sol\":4161:4166  admin */\n      0x07\n      0x00\n      swap1\n      sload\n      swap1\n      0x0100\n      exp\n      swap1\n      div\n      0xffffffffffffffffffffffffffffffffffffffff\n      and\n        /* \"farms-pools/LandbaseLockPool.sol\":4147:4166  msg.sender == admin */\n      0xffffffffffffffffffffffffffffffffffffffff\n      and\n        /* \"farms-pools/LandbaseLockPool.sol\":4147:4157  msg.sender */\n      caller\n        /* \"farms-pools/LandbaseLockPool.sol\":4147:4166  msg.sender == admin */\n      0xffffffffffffffffffffffffffffffffffffffff\n      and\n      eq\n        /* \"farms-pools/LandbaseLockPool.sol\":4139:4182  require(msg.sender == admin, \"admin: wut?\") */\n      tag_323\n      jumpi\n      mload(0x40)\n      0x08c379a000000000000000000000000000000000000000000000000000000000\n      dup2\n      mstore\n      0x04\n      add\n      dup1\n      dup1\n      0x20\n      add\n      dup3\n      dup2\n      sub\n      dup3\n      mstore\n      0x0b\n      dup2\n      mstore\n      0x20\n      add\n      dup1\n      0x61646d696e3a207775743f000000000000000000000000000000000000000000\n      dup2\n      mstore\n      pop\n      0x20\n      add\n      swap2\n      pop\n      pop\n      mload(0x40)\n      dup1\n      swap2\n      sub\n      swap1\n      revert\n    tag_323:\n        /* \"farms-pools/LandbaseLockPool.sol\":1915:1918  400 */\n      0x0190\n        /* \"farms-pools/LandbaseLockPool.sol\":16654:16666  _withdrawFee */\n      dup2\n        /* \"farms-pools/LandbaseLockPool.sol\":16654:16686  _withdrawFee <= MAX_WITHDRAW_FEE */\n      gt\n      iszero\n        /* \"farms-pools/LandbaseLockPool.sol\":16646:16739  require(_withdrawFee <= MAX_WITHDRAW_FEE, \"withdrawFee cannot be more than MAX_WITHDRAW_FEE\") */\n      tag_325\n      jumpi\n      mload(0x40)\n      0x08c379a000000000000000000000000000000000000000000000000000000000\n      dup2\n      mstore\n      0x04\n      add\n      dup1\n      dup1\n      0x20\n      add\n      dup3\n      dup2\n      sub\n      dup3\n      mstore\n      0x30\n      dup2\n      mstore\n      0x20\n      add\n      dup1\n      data_e7bb9c347f949e24da350c193cc8369c19aa7e8a530aba25a3447a9658c66f18\n      0x30\n      swap2\n      codecopy\n      0x40\n      add\n      swap2\n      pop\n      pop\n      mload(0x40)\n      dup1\n      swap2\n      sub\n      swap1\n      revert\n    tag_325:\n        /* \"farms-pools/LandbaseLockPool.sol\":16764:16776  _withdrawFee */\n      dup1\n        /* \"farms-pools/LandbaseLockPool.sol\":16750:16761  withdrawFee */\n      0x0b\n        /* \"farms-pools/LandbaseLockPool.sol\":16750:16776  withdrawFee = _withdrawFee */\n      dup2\n      swap1\n      sstore\n      pop\n        /* \"farms-pools/LandbaseLockPool.sol\":16570:16784  function setWithdrawFee(uint256 _withdrawFee) external onlyAdmin {\r... */\n      pop\n      jump\t// out\n        /* \"farms-pools/LandbaseLockPool.sol\":4670:5733  function deposit(uint256 _amount) external whenNotPaused notContract {\r... */\n    tag_130:\n        /* \"farms-pools/utils/Pausable.sol\":1416:1424  paused() */\n      tag_327\n        /* \"farms-pools/utils/Pausable.sol\":1416:1422  paused */\n      tag_93\n        /* \"farms-pools/utils/Pausable.sol\":1416:1424  paused() */\n      jump\t// in\n    tag_327:\n        /* \"farms-pools/utils/Pausable.sol\":1415:1424  !paused() */\n      iszero\n        /* \"farms-pools/utils/Pausable.sol\":1407:1445  require(!paused(), \"Pausable: paused\") */\n      tag_328\n      jumpi\n      mload(0x40)\n      0x08c379a000000000000000000000000000000000000000000000000000000000\n      dup2\n      mstore\n      0x04\n      add\n      dup1\n      dup1\n      0x20\n      add\n      dup3\n      dup2\n      sub\n      dup3\n      mstore\n      0x10\n      dup2\n      mstore\n      0x20\n      add\n      dup1\n      0x5061757361626c653a2070617573656400000000000000000000000000000000\n      dup2\n      mstore\n      pop\n      0x20\n      add\n      swap2\n      pop\n      pop\n      mload(0x40)\n      dup1\n      swap2\n      sub\n      swap1\n      revert\n    tag_328:\n        /* \"farms-pools/LandbaseLockPool.sol\":4337:4360  _isContract(msg.sender) */\n      tag_330\n        /* \"farms-pools/LandbaseLockPool.sol\":4349:4359  msg.sender */\n      caller\n        /* \"farms-pools/LandbaseLockPool.sol\":4337:4348  _isContract */\n      tag_180\n        /* \"farms-pools/LandbaseLockPool.sol\":4337:4360  _isContract(msg.sender) */\n      jump\t// in\n    tag_330:\n        /* \"farms-pools/LandbaseLockPool.sol\":4336:4360  !_isContract(msg.sender) */\n      iszero\n        /* \"farms-pools/LandbaseLockPool.sol\":4328:4385  require(!_isContract(msg.sender), \"contract not allowed\") */\n      tag_331\n      jumpi\n      mload(0x40)\n      0x08c379a000000000000000000000000000000000000000000000000000000000\n      dup2\n      mstore\n      0x04\n      add\n      dup1\n      dup1\n      0x20\n      add\n      dup3\n      dup2\n      sub\n      dup3\n      mstore\n      0x14\n      dup2\n      mstore\n      0x20\n      add\n      dup1\n      0x636f6e7472616374206e6f7420616c6c6f776564000000000000000000000000\n      dup2\n      mstore\n      pop\n      0x20\n      add\n      swap2\n      pop\n      pop\n      mload(0x40)\n      dup1\n      swap2\n      sub\n      swap1\n      revert\n    tag_331:\n        /* \"farms-pools/LandbaseLockPool.sol\":4418:4427  tx.origin */\n      origin\n        /* \"farms-pools/LandbaseLockPool.sol\":4404:4427  msg.sender == tx.origin */\n      0xffffffffffffffffffffffffffffffffffffffff\n      and\n        /* \"farms-pools/LandbaseLockPool.sol\":4404:4414  msg.sender */\n      caller\n        /* \"farms-pools/LandbaseLockPool.sol\":4404:4427  msg.sender == tx.origin */\n      0xffffffffffffffffffffffffffffffffffffffff\n      and\n      eq\n        /* \"farms-pools/LandbaseLockPool.sol\":4396:4458  require(msg.sender == tx.origin, \"proxy contract not allowed\") */\n      tag_332\n      jumpi\n      mload(0x40)\n      0x08c379a000000000000000000000000000000000000000000000000000000000\n      dup2\n      mstore\n      0x04\n      add\n      dup1\n      dup1\n      0x20\n      add\n      dup3\n      dup2\n      sub\n      dup3\n      mstore\n      0x1a\n      dup2\n      mstore\n      0x20\n      add\n      dup1\n      0x70726f787920636f6e7472616374206e6f7420616c6c6f776564000000000000\n      dup2\n      mstore\n      pop\n      0x20\n      add\n      swap2\n      pop\n      pop\n      mload(0x40)\n      dup1\n      swap2\n      sub\n      swap1\n      revert\n    tag_332:\n        /* \"farms-pools/LandbaseLockPool.sol\":4768:4769  0 */\n      0x00\n        /* \"farms-pools/LandbaseLockPool.sol\":4758:4765  _amount */\n      dup2\n        /* \"farms-pools/LandbaseLockPool.sol\":4758:4769  _amount > 0 */\n      gt\n        /* \"farms-pools/LandbaseLockPool.sol\":4750:4792  require(_amount > 0, \"Nothing to deposit\") */\n      tag_334\n      jumpi\n      mload(0x40)\n      0x08c379a000000000000000000000000000000000000000000000000000000000\n      dup2\n      mstore\n      0x04\n      add\n      dup1\n      dup1\n      0x20\n      add\n      dup3\n      dup2\n      sub\n      dup3\n      mstore\n      0x12\n      dup2\n      mstore\n      0x20\n      add\n      dup1\n      0x4e6f7468696e6720746f206465706f7369740000000000000000000000000000\n      dup2\n      mstore\n      pop\n      0x20\n      add\n      swap2\n      pop\n      pop\n      mload(0x40)\n      dup1\n      swap2\n      sub\n      swap1\n      revert\n    tag_334:\n        /* \"farms-pools/LandbaseLockPool.sol\":4805:4817  uint256 pool */\n      0x00\n        /* \"farms-pools/LandbaseLockPool.sol\":4820:4831  balanceOf() */\n      tag_335\n        /* \"farms-pools/LandbaseLockPool.sol\":4820:4829  balanceOf */\n      tag_105\n        /* \"farms-pools/LandbaseLockPool.sol\":4820:4831  balanceOf() */\n      jump\t// in\n    tag_335:\n        /* \"farms-pools/LandbaseLockPool.sol\":4805:4831  uint256 pool = balanceOf() */\n      swap1\n      pop\n        /* \"farms-pools/LandbaseLockPool.sol\":4842:4900  token.safeTransferFrom(msg.sender, address(this), _amount) */\n      tag_336\n        /* \"farms-pools/LandbaseLockPool.sol\":4865:4875  msg.sender */\n      caller\n        /* \"farms-pools/LandbaseLockPool.sol\":4885:4889  this */\n      address\n        /* \"farms-pools/LandbaseLockPool.sol\":4892:4899  _amount */\n      dup5\n        /* \"farms-pools/LandbaseLockPool.sol\":4842:4847  token */\n      immutable(\"0x7ae9fd093408c444e1cd944d183f5410919486c93305c223a5a94b5e79d77d3b\")\n        /* \"farms-pools/LandbaseLockPool.sol\":4842:4864  token.safeTransferFrom */\n      0xffffffffffffffffffffffffffffffffffffffff\n      and\n      tag_337\n      swap1\n        /* \"farms-pools/LandbaseLockPool.sol\":4842:4900  token.safeTransferFrom(msg.sender, address(this), _amount) */\n      swap4\n      swap3\n      swap2\n      swap1\n      0xffffffff\n      and\n      jump\t// in\n    tag_336:\n        /* \"farms-pools/LandbaseLockPool.sol\":4911:4932  uint256 currentShares */\n      0x00\n        /* \"farms-pools/LandbaseLockPool.sol\":4966:4967  0 */\n      dup1\n        /* \"farms-pools/LandbaseLockPool.sol\":4951:4962  totalShares */\n      sload(0x05)\n        /* \"farms-pools/LandbaseLockPool.sol\":4951:4967  totalShares != 0 */\n      eq\n        /* \"farms-pools/LandbaseLockPool.sol\":4947:5104  if (totalShares != 0) {\r... */\n      tag_338\n      jumpi\n        /* \"farms-pools/LandbaseLockPool.sol\":5000:5036  (_amount.mul(totalShares)).div(pool) */\n      tag_339\n        /* \"farms-pools/LandbaseLockPool.sol\":5031:5035  pool */\n      dup3\n        /* \"farms-pools/LandbaseLockPool.sol\":5001:5025  _amount.mul(totalShares) */\n      tag_340\n        /* \"farms-pools/LandbaseLockPool.sol\":5013:5024  totalShares */\n      sload(0x05)\n        /* \"farms-pools/LandbaseLockPool.sol\":5001:5008  _amount */\n      dup7\n        /* \"farms-pools/LandbaseLockPool.sol\":5001:5012  _amount.mul */\n      tag_189\n      swap1\n        /* \"farms-pools/LandbaseLockPool.sol\":5001:5025  _amount.mul(totalShares) */\n      swap2\n      swap1\n      0xffffffff\n      and\n      jump\t// in\n    tag_340:\n        /* \"farms-pools/LandbaseLockPool.sol\":5000:5030  (_amount.mul(totalShares)).div */\n      tag_190\n      swap1\n        /* \"farms-pools/LandbaseLockPool.sol\":5000:5036  (_amount.mul(totalShares)).div(pool) */\n      swap2\n      swap1\n      0xffffffff\n      and\n      jump\t// in\n    tag_339:\n        /* \"farms-pools/LandbaseLockPool.sol\":4984:5036  currentShares = (_amount.mul(totalShares)).div(pool) */\n      swap1\n      pop\n        /* \"farms-pools/LandbaseLockPool.sol\":4947:5104  if (totalShares != 0) {\r... */\n      jump(tag_341)\n    tag_338:\n        /* \"farms-pools/LandbaseLockPool.sol\":5085:5092  _amount */\n      dup3\n        /* \"farms-pools/LandbaseLockPool.sol\":5069:5092  currentShares = _amount */\n      swap1\n      pop\n        /* \"farms-pools/LandbaseLockPool.sol\":4947:5104  if (totalShares != 0) {\r... */\n    tag_341:\n        /* \"farms-pools/LandbaseLockPool.sol\":5138:5139  0 */\n      0x00\n        /* \"farms-pools/LandbaseLockPool.sol\":5122:5135  currentShares */\n      dup2\n        /* \"farms-pools/LandbaseLockPool.sol\":5122:5139  currentShares > 0 */\n      gt\n        /* \"farms-pools/LandbaseLockPool.sol\":5114:5190  require(currentShares > 0, \"deposit amount is too small to allocate shares\") */\n      tag_342\n      jumpi\n      mload(0x40)\n      0x08c379a000000000000000000000000000000000000000000000000000000000\n      dup2\n      mstore\n      0x04\n      add\n      dup1\n      dup1\n      0x20\n      add\n      dup3\n      dup2\n      sub\n      dup3\n      mstore\n      0x2e\n      dup2\n      mstore\n      0x20\n      add\n      dup1\n      data_a6806e6705a9ee3b0e0c4b8d8e7cb4e2da5d59db3275bba90220e3e7d15d16f8\n      0x2e\n      swap2\n      codecopy\n      0x40\n      add\n      swap2\n      pop\n      pop\n      mload(0x40)\n      dup1\n      swap2\n      sub\n      swap1\n      revert\n    tag_342:\n        /* \"farms-pools/LandbaseLockPool.sol\":5203:5224  UserInfo storage user */\n      0x00\n        /* \"farms-pools/LandbaseLockPool.sol\":5227:5235  userInfo */\n      0x01\n        /* \"farms-pools/LandbaseLockPool.sol\":5227:5247  userInfo[msg.sender] */\n      0x00\n        /* \"farms-pools/LandbaseLockPool.sol\":5236:5246  msg.sender */\n      caller\n        /* \"farms-pools/LandbaseLockPool.sol\":5227:5247  userInfo[msg.sender] */\n      0xffffffffffffffffffffffffffffffffffffffff\n      and\n      0xffffffffffffffffffffffffffffffffffffffff\n      and\n      dup2\n      mstore\n      0x20\n      add\n      swap1\n      dup2\n      mstore\n      0x20\n      add\n      0x00\n      keccak256\n        /* \"farms-pools/LandbaseLockPool.sol\":5203:5247  UserInfo storage user = userInfo[msg.sender] */\n      swap1\n      pop\n        /* \"farms-pools/LandbaseLockPool.sol\":5282:5312  user.shares.add(currentShares) */\n      tag_343\n        /* \"farms-pools/LandbaseLockPool.sol\":5298:5311  currentShares */\n      dup3\n        /* \"farms-pools/LandbaseLockPool.sol\":5282:5286  user */\n      dup3\n        /* \"farms-pools/LandbaseLockPool.sol\":5282:5293  user.shares */\n      0x00\n      add\n      sload\n        /* \"farms-pools/LandbaseLockPool.sol\":5282:5297  user.shares.add */\n      tag_204\n      swap1\n        /* \"farms-pools/LandbaseLockPool.sol\":5282:5312  user.shares.add(currentShares) */\n      swap2\n      swap1\n      0xffffffff\n      and\n      jump\t// in\n    tag_343:\n        /* \"farms-pools/LandbaseLockPool.sol\":5268:5272  user */\n      dup2\n        /* \"farms-pools/LandbaseLockPool.sol\":5268:5279  user.shares */\n      0x00\n      add\n        /* \"farms-pools/LandbaseLockPool.sol\":5268:5312  user.shares = user.shares.add(currentShares) */\n      dup2\n      swap1\n      sstore\n      pop\n        /* \"farms-pools/LandbaseLockPool.sol\":5348:5363  block.timestamp */\n      timestamp\n        /* \"farms-pools/LandbaseLockPool.sol\":5323:5327  user */\n      dup2\n        /* \"farms-pools/LandbaseLockPool.sol\":5323:5345  user.lastDepositedTime */\n      0x01\n      add\n        /* \"farms-pools/LandbaseLockPool.sol\":5323:5363  user.lastDepositedTime = block.timestamp */\n      dup2\n      swap1\n      sstore\n      pop\n        /* \"farms-pools/LandbaseLockPool.sol\":5390:5420  totalShares.add(currentShares) */\n      tag_344\n        /* \"farms-pools/LandbaseLockPool.sol\":5406:5419  currentShares */\n      dup3\n        /* \"farms-pools/LandbaseLockPool.sol\":5390:5401  totalShares */\n      sload(0x05)\n        /* \"farms-pools/LandbaseLockPool.sol\":5390:5405  totalShares.add */\n      tag_204\n      swap1\n        /* \"farms-pools/LandbaseLockPool.sol\":5390:5420  totalShares.add(currentShares) */\n      swap2\n      swap1\n      0xffffffff\n      and\n      jump\t// in\n    tag_344:\n        /* \"farms-pools/LandbaseLockPool.sol\":5376:5387  totalShares */\n      0x05\n        /* \"farms-pools/LandbaseLockPool.sol\":5376:5420  totalShares = totalShares.add(currentShares) */\n      dup2\n      swap1\n      sstore\n      pop\n        /* \"farms-pools/LandbaseLockPool.sol\":5461:5506  user.shares.mul(balanceOf()).div(totalShares) */\n      tag_345\n        /* \"farms-pools/LandbaseLockPool.sol\":5494:5505  totalShares */\n      sload(0x05)\n        /* \"farms-pools/LandbaseLockPool.sol\":5461:5489  user.shares.mul(balanceOf()) */\n      tag_346\n        /* \"farms-pools/LandbaseLockPool.sol\":5477:5488  balanceOf() */\n      tag_347\n        /* \"farms-pools/LandbaseLockPool.sol\":5477:5486  balanceOf */\n      tag_105\n        /* \"farms-pools/LandbaseLockPool.sol\":5477:5488  balanceOf() */\n      jump\t// in\n    tag_347:\n        /* \"farms-pools/LandbaseLockPool.sol\":5461:5465  user */\n      dup5\n        /* \"farms-pools/LandbaseLockPool.sol\":5461:5472  user.shares */\n      0x00\n      add\n      sload\n        /* \"farms-pools/LandbaseLockPool.sol\":5461:5476  user.shares.mul */\n      tag_189\n      swap1\n        /* \"farms-pools/LandbaseLockPool.sol\":5461:5489  user.shares.mul(balanceOf()) */\n      swap2\n      swap1\n      0xffffffff\n      and\n      jump\t// in\n    tag_346:\n        /* \"farms-pools/LandbaseLockPool.sol\":5461:5493  user.shares.mul(balanceOf()).div */\n      tag_190\n      swap1\n        /* \"farms-pools/LandbaseLockPool.sol\":5461:5506  user.shares.mul(balanceOf()).div(totalShares) */\n      swap2\n      swap1\n      0xffffffff\n      and\n      jump\t// in\n    tag_345:\n        /* \"farms-pools/LandbaseLockPool.sol\":5433:5437  user */\n      dup2\n        /* \"farms-pools/LandbaseLockPool.sol\":5433:5458  user.cakeAtLastUserAction */\n      0x02\n      add\n        /* \"farms-pools/LandbaseLockPool.sol\":5433:5506  user.cakeAtLastUserAction = user.shares.mul(balanceOf()).div(totalShares) */\n      dup2\n      swap1\n      sstore\n      pop\n        /* \"farms-pools/LandbaseLockPool.sol\":5543:5558  block.timestamp */\n      timestamp\n        /* \"farms-pools/LandbaseLockPool.sol\":5517:5521  user */\n      dup2\n        /* \"farms-pools/LandbaseLockPool.sol\":5517:5540  user.lastUserActionTime */\n      0x03\n      add\n        /* \"farms-pools/LandbaseLockPool.sol\":5517:5558  user.lastUserActionTime = block.timestamp */\n      dup2\n      swap1\n      sstore\n      pop\n        /* \"farms-pools/LandbaseLockPool.sol\":5584:5627  _updateUserIFO(_amount, IFOActions.Deposit) */\n      tag_348\n        /* \"farms-pools/LandbaseLockPool.sol\":5599:5606  _amount */\n      dup5\n        /* \"farms-pools/LandbaseLockPool.sol\":5608:5626  IFOActions.Deposit */\n      0x00\n        /* \"farms-pools/LandbaseLockPool.sol\":5584:5598  _updateUserIFO */\n      tag_218\n        /* \"farms-pools/LandbaseLockPool.sol\":5584:5627  _updateUserIFO(_amount, IFOActions.Deposit) */\n      jump\t// in\n    tag_348:\n        /* \"farms-pools/LandbaseLockPool.sol\":5640:5647  _earn() */\n      tag_349\n        /* \"farms-pools/LandbaseLockPool.sol\":5640:5645  _earn */\n      tag_249\n        /* \"farms-pools/LandbaseLockPool.sol\":5640:5647  _earn() */\n      jump\t// in\n    tag_349:\n        /* \"farms-pools/LandbaseLockPool.sol\":5673:5683  msg.sender */\n      caller\n        /* \"farms-pools/LandbaseLockPool.sol\":5665:5725  Deposit(msg.sender, _amount, currentShares, block.timestamp) */\n      0xffffffffffffffffffffffffffffffffffffffff\n      and\n      0x36af321ec8d3c75236829c5317affd40ddb308863a1236d2d277a4025cccee1e\n        /* \"farms-pools/LandbaseLockPool.sol\":5685:5692  _amount */\n      dup6\n        /* \"farms-pools/LandbaseLockPool.sol\":5694:5707  currentShares */\n      dup5\n        /* \"farms-pools/LandbaseLockPool.sol\":5709:5724  block.timestamp */\n      timestamp\n        /* \"farms-pools/LandbaseLockPool.sol\":5665:5725  Deposit(msg.sender, _amount, currentShares, block.timestamp) */\n      mload(0x40)\n      dup1\n      dup5\n      dup2\n      mstore\n      0x20\n      add\n      dup4\n      dup2\n      mstore\n      0x20\n      add\n      dup3\n      dup2\n      mstore\n      0x20\n      add\n      swap4\n      pop\n      pop\n      pop\n      pop\n      mload(0x40)\n      dup1\n      swap2\n      sub\n      swap1\n      log2\n        /* \"farms-pools/LandbaseLockPool.sol\":4469:4470  _ */\n      pop\n      pop\n      pop\n        /* \"farms-pools/LandbaseLockPool.sol\":4670:5733  function deposit(uint256 _amount) external whenNotPaused notContract {\r... */\n      pop\n      jump\t// out\n        /* \"farms-pools/LandbaseLockPool.sol\":1755:1804  uint256 public constant MAX_PERFORMANCE_FEE = 600 */\n    tag_132:\n        /* \"farms-pools/LandbaseLockPool.sol\":1801:1804  600 */\n      0x0258\n        /* \"farms-pools/LandbaseLockPool.sol\":1755:1804  uint256 public constant MAX_PERFORMANCE_FEE = 600 */\n      dup2\n      jump\t// out\n        /* \"farms-pools/LandbaseLockPool.sol\":1872:1918  uint256 public constant MAX_WITHDRAW_FEE = 400 */\n    tag_134:\n        /* \"farms-pools/LandbaseLockPool.sol\":1915:1918  400 */\n      0x0190\n        /* \"farms-pools/LandbaseLockPool.sol\":1872:1918  uint256 public constant MAX_WITHDRAW_FEE = 400 */\n      dup2\n      jump\t// out\n        /* \"farms-pools/LandbaseLockPool.sol\":9626:10062  function getUserCredit(address _user) external view returns(uint256 avgBalance) {\r... */\n    tag_137:\n        /* \"farms-pools/LandbaseLockPool.sol\":9686:9704  uint256 avgBalance */\n      0x00\n        /* \"farms-pools/LandbaseLockPool.sol\":9717:9744  UserIFOInfo storage IFOInfo */\n      dup1\n        /* \"farms-pools/LandbaseLockPool.sol\":9747:9758  userIFOInfo */\n      0x02\n        /* \"farms-pools/LandbaseLockPool.sol\":9747:9765  userIFOInfo[_user] */\n      0x00\n        /* \"farms-pools/LandbaseLockPool.sol\":9759:9764  _user */\n      dup5\n        /* \"farms-pools/LandbaseLockPool.sol\":9747:9765  userIFOInfo[_user] */\n      0xffffffffffffffffffffffffffffffffffffffff\n      and\n      0xffffffffffffffffffffffffffffffffffffffff\n      and\n      dup2\n      mstore\n      0x20\n      add\n      swap1\n      dup2\n      mstore\n      0x20\n      add\n      0x00\n      keccak256\n        /* \"farms-pools/LandbaseLockPool.sol\":9717:9765  UserIFOInfo storage IFOInfo = userIFOInfo[_user] */\n      swap1\n      pop\n        /* \"farms-pools/LandbaseLockPool.sol\":9790:9807  _isIFOAvailable() */\n      tag_351\n        /* \"farms-pools/LandbaseLockPool.sol\":9790:9805  _isIFOAvailable */\n      tag_352\n        /* \"farms-pools/LandbaseLockPool.sol\":9790:9807  _isIFOAvailable() */\n      jump\t// in\n    tag_351:\n        /* \"farms-pools/LandbaseLockPool.sol\":9786:10055  if (_isIFOAvailable()){\r... */\n      iszero\n      tag_353\n      jumpi\n        /* \"farms-pools/LandbaseLockPool.sol\":9836:9994  _calculateAvgBalance(IFOInfo.lastActionBlock, IFOInfo.lastValidActionBlock, IFOInfo.lastActionBalance, IFOInfo.lastValidActionBalance, IFOInfo.lastAvgBalance) */\n      tag_354\n        /* \"farms-pools/LandbaseLockPool.sol\":9857:9864  IFOInfo */\n      dup2\n        /* \"farms-pools/LandbaseLockPool.sol\":9857:9880  IFOInfo.lastActionBlock */\n      0x02\n      add\n      sload\n        /* \"farms-pools/LandbaseLockPool.sol\":9882:9889  IFOInfo */\n      dup3\n        /* \"farms-pools/LandbaseLockPool.sol\":9882:9910  IFOInfo.lastValidActionBlock */\n      0x03\n      add\n      sload\n        /* \"farms-pools/LandbaseLockPool.sol\":9912:9919  IFOInfo */\n      dup4\n        /* \"farms-pools/LandbaseLockPool.sol\":9912:9937  IFOInfo.lastActionBalance */\n      0x00\n      add\n      sload\n        /* \"farms-pools/LandbaseLockPool.sol\":9939:9946  IFOInfo */\n      dup5\n        /* \"farms-pools/LandbaseLockPool.sol\":9939:9969  IFOInfo.lastValidActionBalance */\n      0x01\n      add\n      sload\n        /* \"farms-pools/LandbaseLockPool.sol\":9971:9978  IFOInfo */\n      dup6\n        /* \"farms-pools/LandbaseLockPool.sol\":9971:9993  IFOInfo.lastAvgBalance */\n      0x04\n      add\n      sload\n        /* \"farms-pools/LandbaseLockPool.sol\":9836:9856  _calculateAvgBalance */\n      tag_355\n        /* \"farms-pools/LandbaseLockPool.sol\":9836:9994  _calculateAvgBalance(IFOInfo.lastActionBlock, IFOInfo.lastValidActionBlock, IFOInfo.lastActionBalance, IFOInfo.lastValidActionBalance, IFOInfo.lastAvgBalance) */\n      jump\t// in\n    tag_354:\n        /* \"farms-pools/LandbaseLockPool.sol\":9823:9994  avgBalance = _calculateAvgBalance(IFOInfo.lastActionBlock, IFOInfo.lastValidActionBlock, IFOInfo.lastActionBalance, IFOInfo.lastValidActionBalance, IFOInfo.lastAvgBalance) */\n      swap2\n      pop\n        /* \"farms-pools/LandbaseLockPool.sol\":9786:10055  if (_isIFOAvailable()){\r... */\n      jump(tag_356)\n    tag_353:\n        /* \"farms-pools/LandbaseLockPool.sol\":10039:10040  0 */\n      0x00\n        /* \"farms-pools/LandbaseLockPool.sol\":10026:10040  avgBalance = 0 */\n      swap2\n      pop\n        /* \"farms-pools/LandbaseLockPool.sol\":9786:10055  if (_isIFOAvailable()){\r... */\n    tag_356:\n        /* \"farms-pools/LandbaseLockPool.sol\":9626:10062  function getUserCredit(address _user) external view returns(uint256 avgBalance) {\r... */\n      pop\n      swap2\n      swap1\n      pop\n      jump\t// out\n        /* \"farms-pools/LandbaseLockPool.sol\":18544:18713  function emergencyWithdraw() external onlyAdmin {\r... */\n    tag_139:\n        /* \"farms-pools/LandbaseLockPool.sol\":4161:4166  admin */\n      0x07\n      0x00\n      swap1\n      sload\n      swap1\n      0x0100\n      exp\n      swap1\n      div\n      0xffffffffffffffffffffffffffffffffffffffff\n      and\n        /* \"farms-pools/LandbaseLockPool.sol\":4147:4166  msg.sender == admin */\n      0xffffffffffffffffffffffffffffffffffffffff\n      and\n        /* \"farms-pools/LandbaseLockPool.sol\":4147:4157  msg.sender */\n      caller\n        /* \"farms-pools/LandbaseLockPool.sol\":4147:4166  msg.sender == admin */\n      0xffffffffffffffffffffffffffffffffffffffff\n      and\n      eq\n        /* \"farms-pools/LandbaseLockPool.sol\":4139:4182  require(msg.sender == admin, \"admin: wut?\") */\n      tag_358\n      jumpi\n      mload(0x40)\n      0x08c379a000000000000000000000000000000000000000000000000000000000\n      dup2\n      mstore\n      0x04\n      add\n      dup1\n      dup1\n      0x20\n      add\n      dup3\n      dup2\n      sub\n      dup3\n      mstore\n      0x0b\n      dup2\n      mstore\n      0x20\n      add\n      dup1\n      0x61646d696e3a207775743f000000000000000000000000000000000000000000\n      dup2\n      mstore\n      pop\n      0x20\n      add\n      swap2\n      pop\n      pop\n      mload(0x40)\n      dup1\n      swap2\n      sub\n      swap1\n      revert\n    tag_358:\n        /* \"farms-pools/LandbaseLockPool.sol\":18615:18625  masterchef */\n      immutable(\"0x64e604787cbf194841e7b68d7cd28786f6c9a0a3ab9f8b0a0e87cb4387ab0107\")\n        /* \"farms-pools/LandbaseLockPool.sol\":18603:18644  IMasterChef(masterchef).emergencyWithdraw */\n      0xffffffffffffffffffffffffffffffffffffffff\n      and\n      0x5312ea8e\n        /* \"farms-pools/LandbaseLockPool.sol\":18645:18646  0 */\n      0x00\n        /* \"farms-pools/LandbaseLockPool.sol\":18603:18647  IMasterChef(masterchef).emergencyWithdraw(0) */\n      mload(0x40)\n      dup3\n      0xffffffff\n      and\n      0xe0\n      shl\n      dup2\n      mstore\n      0x04\n      add\n      dup1\n      dup3\n      dup2\n      mstore\n      0x20\n      add\n      swap2\n      pop\n      pop\n      0x00\n      mload(0x40)\n      dup1\n      dup4\n      sub\n      dup2\n      0x00\n      dup8\n      dup1\n      extcodesize\n      iszero\n      dup1\n      iszero\n      tag_360\n      jumpi\n      0x00\n      dup1\n      revert\n    tag_360:\n      pop\n      gas\n      call\n      iszero\n      dup1\n      iszero\n      tag_362\n      jumpi\n      returndatasize\n      0x00\n      dup1\n      returndatacopy\n      revert(0x00, returndatasize)\n    tag_362:\n      pop\n      pop\n      pop\n      pop\n        /* \"farms-pools/LandbaseLockPool.sol\":18662:18670  paused() */\n      tag_363\n        /* \"farms-pools/LandbaseLockPool.sol\":18662:18668  paused */\n      tag_93\n        /* \"farms-pools/LandbaseLockPool.sol\":18662:18670  paused() */\n      jump\t// in\n    tag_363:\n        /* \"farms-pools/LandbaseLockPool.sol\":18658:18706  if(!paused()){\r... */\n      tag_364\n      jumpi\n        /* \"farms-pools/LandbaseLockPool.sol\":18686:18694  _pause() */\n      tag_365\n        /* \"farms-pools/LandbaseLockPool.sol\":18686:18692  _pause */\n      tag_302\n        /* \"farms-pools/LandbaseLockPool.sol\":18686:18694  _pause() */\n      jump\t// in\n    tag_365:\n        /* \"farms-pools/LandbaseLockPool.sol\":18658:18706  if(!paused()){\r... */\n    tag_364:\n        /* \"farms-pools/LandbaseLockPool.sol\":18544:18713  function emergencyWithdraw() external onlyAdmin {\r... */\n      jump\t// out\n        /* \"farms-pools/LandbaseLockPool.sol\":10378:10514  function emergencyWithdrawAll() external notContract {\r... */\n    tag_141:\n        /* \"farms-pools/LandbaseLockPool.sol\":4337:4360  _isContract(msg.sender) */\n      tag_367\n        /* \"farms-pools/LandbaseLockPool.sol\":4349:4359  msg.sender */\n      caller\n        /* \"farms-pools/LandbaseLockPool.sol\":4337:4348  _isContract */\n      tag_180\n        /* \"farms-pools/LandbaseLockPool.sol\":4337:4360  _isContract(msg.sender) */\n      jump\t// in\n    tag_367:\n        /* \"farms-pools/LandbaseLockPool.sol\":4336:4360  !_isContract(msg.sender) */\n      iszero\n        /* \"farms-pools/LandbaseLockPool.sol\":4328:4385  require(!_isContract(msg.sender), \"contract not allowed\") */\n      tag_368\n      jumpi\n      mload(0x40)\n      0x08c379a000000000000000000000000000000000000000000000000000000000\n      dup2\n      mstore\n      0x04\n      add\n      dup1\n      dup1\n      0x20\n      add\n      dup3\n      dup2\n      sub\n      dup3\n      mstore\n      0x14\n      dup2\n      mstore\n      0x20\n      add\n      dup1\n      0x636f6e7472616374206e6f7420616c6c6f776564000000000000000000000000\n      dup2\n      mstore\n      pop\n      0x20\n      add\n      swap2\n      pop\n      pop\n      mload(0x40)\n      dup1\n      swap2\n      sub\n      swap1\n      revert\n    tag_368:\n        /* \"farms-pools/LandbaseLockPool.sol\":4418:4427  tx.origin */\n      origin\n        /* \"farms-pools/LandbaseLockPool.sol\":4404:4427  msg.sender == tx.origin */\n      0xffffffffffffffffffffffffffffffffffffffff\n      and\n        /* \"farms-pools/LandbaseLockPool.sol\":4404:4414  msg.sender */\n      caller\n        /* \"farms-pools/LandbaseLockPool.sol\":4404:4427  msg.sender == tx.origin */\n      0xffffffffffffffffffffffffffffffffffffffff\n      and\n      eq\n        /* \"farms-pools/LandbaseLockPool.sol\":4396:4458  require(msg.sender == tx.origin, \"proxy contract not allowed\") */\n      tag_369\n      jumpi\n      mload(0x40)\n      0x08c379a000000000000000000000000000000000000000000000000000000000\n      dup2\n      mstore\n      0x04\n      add\n      dup1\n      dup1\n      0x20\n      add\n      dup3\n      dup2\n      sub\n      dup3\n      mstore\n      0x1a\n      dup2\n      mstore\n      0x20\n      add\n      dup1\n      0x70726f787920636f6e7472616374206e6f7420616c6c6f776564000000000000\n      dup2\n      mstore\n      pop\n      0x20\n      add\n      swap2\n      pop\n      pop\n      mload(0x40)\n      dup1\n      swap2\n      sub\n      swap1\n      revert\n    tag_369:\n        /* \"farms-pools/LandbaseLockPool.sol\":10442:10456  _zeroFreeIFO() */\n      tag_371\n        /* \"farms-pools/LandbaseLockPool.sol\":10442:10454  _zeroFreeIFO */\n      tag_372\n        /* \"farms-pools/LandbaseLockPool.sol\":10442:10456  _zeroFreeIFO() */\n      jump\t// in\n    tag_371:\n        /* \"farms-pools/LandbaseLockPool.sol\":10467:10506  withdrawV1(userInfo[msg.sender].shares) */\n      tag_373\n        /* \"farms-pools/LandbaseLockPool.sol\":10478:10486  userInfo */\n      0x01\n        /* \"farms-pools/LandbaseLockPool.sol\":10478:10498  userInfo[msg.sender] */\n      0x00\n        /* \"farms-pools/LandbaseLockPool.sol\":10487:10497  msg.sender */\n      caller\n        /* \"farms-pools/LandbaseLockPool.sol\":10478:10498  userInfo[msg.sender] */\n      0xffffffffffffffffffffffffffffffffffffffff\n      and\n      0xffffffffffffffffffffffffffffffffffffffff\n      and\n      dup2\n      mstore\n      0x20\n      add\n      swap1\n      dup2\n      mstore\n      0x20\n      add\n      0x00\n      keccak256\n        /* \"farms-pools/LandbaseLockPool.sol\":10478:10505  userInfo[msg.sender].shares */\n      0x00\n      add\n      sload\n        /* \"farms-pools/LandbaseLockPool.sol\":10467:10477  withdrawV1 */\n      tag_374\n        /* \"farms-pools/LandbaseLockPool.sol\":10467:10506  withdrawV1(userInfo[msg.sender].shares) */\n      jump\t// in\n    tag_373:\n        /* \"farms-pools/LandbaseLockPool.sol\":10378:10514  function emergencyWithdrawAll() external notContract {\r... */\n      jump\t// out\n        /* \"farms-pools/LandbaseLockPool.sol\":18805:19182  function inCaseTokensGetStuck(address _token) external onlyAdmin {\r... */\n    tag_144:\n        /* \"farms-pools/LandbaseLockPool.sol\":4161:4166  admin */\n      0x07\n      0x00\n      swap1\n      sload\n      swap1\n      0x0100\n      exp\n      swap1\n      div\n      0xffffffffffffffffffffffffffffffffffffffff\n      and\n        /* \"farms-pools/LandbaseLockPool.sol\":4147:4166  msg.sender == admin */\n      0xffffffffffffffffffffffffffffffffffffffff\n      and\n        /* \"farms-pools/LandbaseLockPool.sol\":4147:4157  msg.sender */\n      caller\n        /* \"farms-pools/LandbaseLockPool.sol\":4147:4166  msg.sender == admin */\n      0xffffffffffffffffffffffffffffffffffffffff\n      and\n      eq\n        /* \"farms-pools/LandbaseLockPool.sol\":4139:4182  require(msg.sender == admin, \"admin: wut?\") */\n      tag_376\n      jumpi\n      mload(0x40)\n      0x08c379a000000000000000000000000000000000000000000000000000000000\n      dup2\n      mstore\n      0x04\n      add\n      dup1\n      dup1\n      0x20\n      add\n      dup3\n      dup2\n      sub\n      dup3\n      mstore\n      0x0b\n      dup2\n      mstore\n      0x20\n      add\n      dup1\n      0x61646d696e3a207775743f000000000000000000000000000000000000000000\n      dup2\n      mstore\n      pop\n      0x20\n      add\n      swap2\n      pop\n      pop\n      mload(0x40)\n      dup1\n      swap2\n      sub\n      swap1\n      revert\n    tag_376:\n        /* \"farms-pools/LandbaseLockPool.sol\":18907:18912  token */\n      immutable(\"0x7ae9fd093408c444e1cd944d183f5410919486c93305c223a5a94b5e79d77d3b\")\n        /* \"farms-pools/LandbaseLockPool.sol\":18889:18913  _token != address(token) */\n      0xffffffffffffffffffffffffffffffffffffffff\n      and\n        /* \"farms-pools/LandbaseLockPool.sol\":18889:18895  _token */\n      dup2\n        /* \"farms-pools/LandbaseLockPool.sol\":18889:18913  _token != address(token) */\n      0xffffffffffffffffffffffffffffffffffffffff\n      and\n      eq\n      iszero\n        /* \"farms-pools/LandbaseLockPool.sol\":18881:18955  require(_token != address(token), \"Token cannot be same as deposit token\") */\n      tag_378\n      jumpi\n      mload(0x40)\n      0x08c379a000000000000000000000000000000000000000000000000000000000\n      dup2\n      mstore\n      0x04\n      add\n      dup1\n      dup1\n      0x20\n      add\n      dup3\n      dup2\n      sub\n      dup3\n      mstore\n      0x25\n      dup2\n      mstore\n      0x20\n      add\n      dup1\n      data_3ea9d2748b0a4cf4d9041ea5447cc8d433bce6ae4e36584bac37b5bb6ca2fc19\n      0x25\n      swap2\n      codecopy\n      0x40\n      add\n      swap2\n      pop\n      pop\n      mload(0x40)\n      dup1\n      swap2\n      sub\n      swap1\n      revert\n    tag_378:\n        /* \"farms-pools/LandbaseLockPool.sol\":18992:19004  receiptToken */\n      immutable(\"0xb9aa4ff60d3edb7fbc3b53bd780c9274ed80a5ba1a237d38b011edab2b031b4a\")\n        /* \"farms-pools/LandbaseLockPool.sol\":18974:19005  _token != address(receiptToken) */\n      0xffffffffffffffffffffffffffffffffffffffff\n      and\n        /* \"farms-pools/LandbaseLockPool.sol\":18974:18980  _token */\n      dup2\n        /* \"farms-pools/LandbaseLockPool.sol\":18974:19005  _token != address(receiptToken) */\n      0xffffffffffffffffffffffffffffffffffffffff\n      and\n      eq\n      iszero\n        /* \"farms-pools/LandbaseLockPool.sol\":18966:19047  require(_token != address(receiptToken), \"Token cannot be same as receipt token\") */\n      tag_379\n      jumpi\n      mload(0x40)\n      0x08c379a000000000000000000000000000000000000000000000000000000000\n      dup2\n      mstore\n      0x04\n      add\n      dup1\n      dup1\n      0x20\n      add\n      dup3\n      dup2\n      sub\n      dup3\n      mstore\n      0x25\n      dup2\n      mstore\n      0x20\n      add\n      dup1\n      data_56f1cb28260a5fe006a543516f28c8e9fca2a3d42753a5ece1397133ea778f1c\n      0x25\n      swap2\n      codecopy\n      0x40\n      add\n      swap2\n      pop\n      pop\n      mload(0x40)\n      dup1\n      swap2\n      sub\n      swap1\n      revert\n    tag_379:\n        /* \"farms-pools/LandbaseLockPool.sol\":19060:19074  uint256 amount */\n      0x00\n        /* \"farms-pools/LandbaseLockPool.sol\":19084:19090  _token */\n      dup2\n        /* \"farms-pools/LandbaseLockPool.sol\":19077:19101  IERC20(_token).balanceOf */\n      0xffffffffffffffffffffffffffffffffffffffff\n      and\n      0x70a08231\n        /* \"farms-pools/LandbaseLockPool.sol\":19110:19114  this */\n      address\n        /* \"farms-pools/LandbaseLockPool.sol\":19077:19116  IERC20(_token).balanceOf(address(this)) */\n      mload(0x40)\n      dup3\n      0xffffffff\n      and\n      0xe0\n      shl\n      dup2\n      mstore\n      0x04\n      add\n      dup1\n      dup3\n      0xffffffffffffffffffffffffffffffffffffffff\n      and\n      dup2\n      mstore\n      0x20\n      add\n      swap2\n      pop\n      pop\n      0x20\n      mload(0x40)\n      dup1\n      dup4\n      sub\n      dup2\n      dup7\n      dup1\n      extcodesize\n      iszero\n      dup1\n      iszero\n      tag_380\n      jumpi\n      0x00\n      dup1\n      revert\n    tag_380:\n      pop\n      gas\n      staticcall\n      iszero\n      dup1\n      iszero\n      tag_382\n      jumpi\n      returndatasize\n      0x00\n      dup1\n      returndatacopy\n      revert(0x00, returndatasize)\n    tag_382:\n      pop\n      pop\n      pop\n      pop\n      mload(0x40)\n      returndatasize\n      0x20\n      dup2\n      lt\n      iszero\n      tag_383\n      jumpi\n      0x00\n      dup1\n      revert\n    tag_383:\n      dup2\n      add\n      swap1\n      dup1\n      dup1\n      mload\n      swap1\n      0x20\n      add\n      swap1\n      swap3\n      swap2\n      swap1\n      pop\n      pop\n      pop\n        /* \"farms-pools/LandbaseLockPool.sol\":19060:19116  uint256 amount = IERC20(_token).balanceOf(address(this)) */\n      swap1\n      pop\n        /* \"farms-pools/LandbaseLockPool.sol\":19127:19174  IERC20(_token).safeTransfer(msg.sender, amount) */\n      tag_384\n        /* \"farms-pools/LandbaseLockPool.sol\":19155:19165  msg.sender */\n      caller\n        /* \"farms-pools/LandbaseLockPool.sol\":19167:19173  amount */\n      dup3\n        /* \"farms-pools/LandbaseLockPool.sol\":19134:19140  _token */\n      dup5\n        /* \"farms-pools/LandbaseLockPool.sol\":19127:19154  IERC20(_token).safeTransfer */\n      0xffffffffffffffffffffffffffffffffffffffff\n      and\n      tag_210\n      swap1\n        /* \"farms-pools/LandbaseLockPool.sol\":19127:19174  IERC20(_token).safeTransfer(msg.sender, amount) */\n      swap3\n      swap2\n      swap1\n      0xffffffff\n      and\n      jump\t// in\n    tag_384:\n        /* \"farms-pools/LandbaseLockPool.sol\":4193:4194  _ */\n      pop\n        /* \"farms-pools/LandbaseLockPool.sol\":18805:19182  function inCaseTokensGetStuck(address _token) external onlyAdmin {\r... */\n      pop\n      jump\t// out\n        /* \"farms-pools/LandbaseLockPool.sol\":2146:2189  uint256 public withdrawFeePeriod = 72 hours */\n    tag_146:\n      sload(0x0c)\n      dup2\n      jump\t// out\n        /* \"farms-pools/LandbaseLockPool.sol\":2100:2131  uint256 public withdrawFee = 10 */\n    tag_148:\n      sload(0x0b)\n      dup2\n      jump\t// out\n        /* \"farms-pools/LandbaseLockPool.sol\":1330:1366  IERC20 public immutable receiptToken */\n    tag_150:\n      immutable(\"0xb9aa4ff60d3edb7fbc3b53bd780c9274ed80a5ba1a237d38b011edab2b031b4a\")\n      dup2\n      jump\t// out\n        /* \"farms-pools/LandbaseLockPool.sol\":15654:15821  function setTreasury(address _treasury) external onlyOwner {\r... */\n    tag_153:\n        /* \"farms-pools/access/Ownable.sol\":1350:1362  _msgSender() */\n      tag_386\n        /* \"farms-pools/access/Ownable.sol\":1350:1360  _msgSender */\n      tag_265\n        /* \"farms-pools/access/Ownable.sol\":1350:1362  _msgSender() */\n      jump\t// in\n    tag_386:\n        /* \"farms-pools/access/Ownable.sol\":1339:1362  owner() == _msgSender() */\n      0xffffffffffffffffffffffffffffffffffffffff\n      and\n        /* \"farms-pools/access/Ownable.sol\":1339:1346  owner() */\n      tag_387\n        /* \"farms-pools/access/Ownable.sol\":1339:1344  owner */\n      tag_115\n        /* \"farms-pools/access/Ownable.sol\":1339:1346  owner() */\n      jump\t// in\n    tag_387:\n        /* \"farms-pools/access/Ownable.sol\":1339:1362  owner() == _msgSender() */\n      0xffffffffffffffffffffffffffffffffffffffff\n      and\n      eq\n        /* \"farms-pools/access/Ownable.sol\":1331:1399  require(owner() == _msgSender(), \"Ownable: caller is not the owner\") */\n      tag_388\n      jumpi\n      mload(0x40)\n      0x08c379a000000000000000000000000000000000000000000000000000000000\n      dup2\n      mstore\n      0x04\n      add\n      dup1\n      dup1\n      0x20\n      add\n      dup3\n      dup2\n      sub\n      dup3\n      mstore\n      0x20\n      dup2\n      mstore\n      0x20\n      add\n      dup1\n      0x4f776e61626c653a2063616c6c6572206973206e6f7420746865206f776e6572\n      dup2\n      mstore\n      pop\n      0x20\n      add\n      swap2\n      pop\n      pop\n      mload(0x40)\n      dup1\n      swap2\n      sub\n      swap1\n      revert\n    tag_388:\n        /* \"farms-pools/LandbaseLockPool.sol\":15753:15754  0 */\n      0x00\n        /* \"farms-pools/LandbaseLockPool.sol\":15732:15755  _treasury != address(0) */\n      0xffffffffffffffffffffffffffffffffffffffff\n      and\n        /* \"farms-pools/LandbaseLockPool.sol\":15732:15741  _treasury */\n      dup2\n        /* \"farms-pools/LandbaseLockPool.sol\":15732:15755  _treasury != address(0) */\n      0xffffffffffffffffffffffffffffffffffffffff\n      and\n      eq\n      iszero\n        /* \"farms-pools/LandbaseLockPool.sol\":15724:15782  require(_treasury != address(0), \"Cannot be zero address\") */\n      tag_390\n      jumpi\n      mload(0x40)\n      0x08c379a000000000000000000000000000000000000000000000000000000000\n      dup2\n      mstore\n      0x04\n      add\n      dup1\n      dup1\n      0x20\n      add\n      dup3\n      dup2\n      sub\n      dup3\n      mstore\n      0x16\n      dup2\n      mstore\n      0x20\n      add\n      dup1\n      0x43616e6e6f74206265207a65726f206164647265737300000000000000000000\n      dup2\n      mstore\n      pop\n      0x20\n      add\n      swap2\n      pop\n      pop\n      mload(0x40)\n      dup1\n      swap2\n      sub\n      swap1\n      revert\n    tag_390:\n        /* \"farms-pools/LandbaseLockPool.sol\":15804:15813  _treasury */\n      dup1\n        /* \"farms-pools/LandbaseLockPool.sol\":15793:15801  treasury */\n      0x08\n      0x00\n        /* \"farms-pools/LandbaseLockPool.sol\":15793:15813  treasury = _treasury */\n      0x0100\n      exp\n      dup2\n      sload\n      dup2\n      0xffffffffffffffffffffffffffffffffffffffff\n      mul\n      not\n      and\n      swap1\n      dup4\n      0xffffffffffffffffffffffffffffffffffffffff\n      and\n      mul\n      or\n      swap1\n      sstore\n      pop\n        /* \"farms-pools/LandbaseLockPool.sol\":15654:15821  function setTreasury(address _treasury) external onlyOwner {\r... */\n      pop\n      jump\t// out\n        /* \"farms-pools/access/Ownable.sol\":2073:2317  function transferOwnership(address newOwner) public virtual onlyOwner {\r... */\n    tag_156:\n        /* \"farms-pools/access/Ownable.sol\":1350:1362  _msgSender() */\n      tag_392\n        /* \"farms-pools/access/Ownable.sol\":1350:1360  _msgSender */\n      tag_265\n        /* \"farms-pools/access/Ownable.sol\":1350:1362  _msgSender() */\n      jump\t// in\n    tag_392:\n        /* \"farms-pools/access/Ownable.sol\":1339:1362  owner() == _msgSender() */\n      0xffffffffffffffffffffffffffffffffffffffff\n      and\n        /* \"farms-pools/access/Ownable.sol\":1339:1346  owner() */\n      tag_393\n        /* \"farms-pools/access/Ownable.sol\":1339:1344  owner */\n      tag_115\n        /* \"farms-pools/access/Ownable.sol\":1339:1346  owner() */\n      jump\t// in\n    tag_393:\n        /* \"farms-pools/access/Ownable.sol\":1339:1362  owner() == _msgSender() */\n      0xffffffffffffffffffffffffffffffffffffffff\n      and\n      eq\n        /* \"farms-pools/access/Ownable.sol\":1331:1399  require(owner() == _msgSender(), \"Ownable: caller is not the owner\") */\n      tag_394\n      jumpi\n      mload(0x40)\n      0x08c379a000000000000000000000000000000000000000000000000000000000\n      dup2\n      mstore\n      0x04\n      add\n      dup1\n      dup1\n      0x20\n      add\n      dup3\n      dup2\n      sub\n      dup3\n      mstore\n      0x20\n      dup2\n      mstore\n      0x20\n      add\n      dup1\n      0x4f776e61626c653a2063616c6c6572206973206e6f7420746865206f776e6572\n      dup2\n      mstore\n      pop\n      0x20\n      add\n      swap2\n      pop\n      pop\n      mload(0x40)\n      dup1\n      swap2\n      sub\n      swap1\n      revert\n    tag_394:\n        /* \"farms-pools/access/Ownable.sol\":2182:2183  0 */\n      0x00\n        /* \"farms-pools/access/Ownable.sol\":2162:2184  newOwner != address(0) */\n      0xffffffffffffffffffffffffffffffffffffffff\n      and\n        /* \"farms-pools/access/Ownable.sol\":2162:2170  newOwner */\n      dup2\n        /* \"farms-pools/access/Ownable.sol\":2162:2184  newOwner != address(0) */\n      0xffffffffffffffffffffffffffffffffffffffff\n      and\n      eq\n      iszero\n        /* \"farms-pools/access/Ownable.sol\":2154:2227  require(newOwner != address(0), \"Ownable: new owner is the zero address\") */\n      tag_396\n      jumpi\n      mload(0x40)\n      0x08c379a000000000000000000000000000000000000000000000000000000000\n      dup2\n      mstore\n      0x04\n      add\n      dup1\n      dup1\n      0x20\n      add\n      dup3\n      dup2\n      sub\n      dup3\n      mstore\n      0x26\n      dup2\n      mstore\n      0x20\n      add\n      dup1\n      data_245f15ff17f551913a7a18385165551503906a406f905ac1c2437281a7cd0cfe\n      0x26\n      swap2\n      codecopy\n      0x40\n      add\n      swap2\n      pop\n      pop\n      mload(0x40)\n      dup1\n      swap2\n      sub\n      swap1\n      revert\n    tag_396:\n        /* \"farms-pools/access/Ownable.sol\":2272:2280  newOwner */\n      dup1\n        /* \"farms-pools/access/Ownable.sol\":2243:2281  OwnershipTransferred(_owner, newOwner) */\n      0xffffffffffffffffffffffffffffffffffffffff\n      and\n        /* \"farms-pools/access/Ownable.sol\":2264:2270  _owner */\n      0x00\n      dup1\n      sload\n      swap1\n      0x0100\n      exp\n      swap1\n      div\n      0xffffffffffffffffffffffffffffffffffffffff\n      and\n        /* \"farms-pools/access/Ownable.sol\":2243:2281  OwnershipTransferred(_owner, newOwner) */\n      0xffffffffffffffffffffffffffffffffffffffff\n      and\n      0x8be0079c531659141344cd1fd0a4f28419497f9722a3daafe3b4186f6b6457e0\n      mload(0x40)\n      mload(0x40)\n      dup1\n      swap2\n      sub\n      swap1\n      log3\n        /* \"farms-pools/access/Ownable.sol\":2301:2309  newOwner */\n      dup1\n        /* \"farms-pools/access/Ownable.sol\":2292:2298  _owner */\n      0x00\n      dup1\n        /* \"farms-pools/access/Ownable.sol\":2292:2309  _owner = newOwner */\n      0x0100\n      exp\n      dup2\n      sload\n      dup2\n      0xffffffffffffffffffffffffffffffffffffffff\n      mul\n      not\n      and\n      swap1\n      dup4\n      0xffffffffffffffffffffffffffffffffffffffff\n      and\n      mul\n      or\n      swap1\n      sstore\n      pop\n        /* \"farms-pools/access/Ownable.sol\":2073:2317  function transferOwnership(address newOwner) public virtual onlyOwner {\r... */\n      pop\n      jump\t// out\n        /* \"farms-pools/LandbaseLockPool.sol\":1696:1716  address public admin */\n    tag_158:\n      0x07\n      0x00\n      swap1\n      sload\n      swap1\n      0x0100\n      exp\n      swap1\n      div\n      0xffffffffffffffffffffffffffffffffffffffff\n      and\n      dup2\n      jump\t// out\n        /* \"farms-pools/LandbaseLockPool.sol\":1390:1429  IMasterChef public immutable masterchef */\n    tag_160:\n      immutable(\"0x64e604787cbf194841e7b68d7cd28786f6c9a0a3ab9f8b0a0e87cb4387ab0107\")\n      dup2\n      jump\t// out\n        /* \"farms-pools/LandbaseLockPool.sol\":1280:1309  IERC20 public immutable token */\n    tag_162:\n      immutable(\"0x7ae9fd093408c444e1cd944d183f5410919486c93305c223a5a94b5e79d77d3b\")\n      dup2\n      jump\t// out\n        /* \"farms-pools/SafeERC20.sol\":1381:2003  function safeApprove(IERC20 token, address spender, uint256 value) internal {\r... */\n    tag_163:\n        /* \"farms-pools/SafeERC20.sol\":1760:1761  0 */\n      0x00\n        /* \"farms-pools/SafeERC20.sol\":1751:1756  value */\n      dup2\n        /* \"farms-pools/SafeERC20.sol\":1751:1761  value == 0 */\n      eq\n        /* \"farms-pools/SafeERC20.sol\":1750:1812  (value == 0) || (token.allowance(address(this), spender) == 0) */\n      dup1\n      tag_398\n      jumpi\n      pop\n        /* \"farms-pools/SafeERC20.sol\":1810:1811  0 */\n      0x00\n        /* \"farms-pools/SafeERC20.sol\":1767:1772  token */\n      dup4\n        /* \"farms-pools/SafeERC20.sol\":1767:1782  token.allowance */\n      0xffffffffffffffffffffffffffffffffffffffff\n      and\n      0xdd62ed3e\n        /* \"farms-pools/SafeERC20.sol\":1791:1795  this */\n      address\n        /* \"farms-pools/SafeERC20.sol\":1798:1805  spender */\n      dup6\n        /* \"farms-pools/SafeERC20.sol\":1767:1806  token.allowance(address(this), spender) */\n      mload(0x40)\n      dup4\n      0xffffffff\n      and\n      0xe0\n      shl\n      dup2\n      mstore\n      0x04\n      add\n      dup1\n      dup4\n      0xffffffffffffffffffffffffffffffffffffffff\n      and\n      dup2\n      mstore\n      0x20\n      add\n      dup3\n      0xffffffffffffffffffffffffffffffffffffffff\n      and\n      dup2\n      mstore\n      0x20\n      add\n      swap3\n      pop\n      pop\n      pop\n      0x20\n      mload(0x40)\n      dup1\n      dup4\n      sub\n      dup2\n      dup7\n      dup1\n      extcodesize\n      iszero\n      dup1\n      iszero\n      tag_399\n      jumpi\n      0x00\n      dup1\n      revert\n    tag_399:\n      pop\n      gas\n      staticcall\n      iszero\n      dup1\n      iszero\n      tag_401\n      jumpi\n      returndatasize\n      0x00\n      dup1\n      returndatacopy\n      revert(0x00, returndatasize)\n    tag_401:\n      pop\n      pop\n      pop\n      pop\n      mload(0x40)\n      returndatasize\n      0x20\n      dup2\n      lt\n      iszero\n      tag_402\n      jumpi\n      0x00\n      dup1\n      revert\n    tag_402:\n      dup2\n      add\n      swap1\n      dup1\n      dup1\n      mload\n      swap1\n      0x20\n      add\n      swap1\n      swap3\n      swap2\n      swap1\n      pop\n      pop\n      pop\n        /* \"farms-pools/SafeERC20.sol\":1767:1811  token.allowance(address(this), spender) == 0 */\n      eq\n        /* \"farms-pools/SafeERC20.sol\":1750:1812  (value == 0) || (token.allowance(address(this), spender) == 0) */\n    tag_398:\n        /* \"farms-pools/SafeERC20.sol\":1742:1894  require((value == 0) || (token.allowance(address(this), spender) == 0),\r... */\n      tag_403\n      jumpi\n      mload(0x40)\n      0x08c379a000000000000000000000000000000000000000000000000000000000\n      dup2\n      mstore\n      0x04\n      add\n      dup1\n      dup1\n      0x20\n      add\n      dup3\n      dup2\n      sub\n      dup3\n      mstore\n      0x36\n      dup2\n      mstore\n      0x20\n      add\n      dup1\n      data_ef945ddb1bfdc0da870feb4560d868b047642b4ac7f2fb7f8b7c51cb4a411e25\n      0x36\n      swap2\n      codecopy\n      0x40\n      add\n      swap2\n      pop\n      pop\n      mload(0x40)\n      dup1\n      swap2\n      sub\n      swap1\n      revert\n    tag_403:\n        /* \"farms-pools/SafeERC20.sol\":1905:1995  _callOptionalReturn(token, abi.encodeWithSelector(token.approve.selector, spender, value)) */\n      tag_404\n        /* \"farms-pools/SafeERC20.sol\":1925:1930  token */\n      dup4\n        /* \"farms-pools/SafeERC20.sol\":1955:1977  token.approve.selector */\n      shl(0xe0, 0x095ea7b3)\n        /* \"farms-pools/SafeERC20.sol\":1979:1986  spender */\n      dup5\n        /* \"farms-pools/SafeERC20.sol\":1988:1993  value */\n      dup5\n        /* \"farms-pools/SafeERC20.sol\":1932:1994  abi.encodeWithSelector(token.approve.selector, spender, value) */\n      add(0x24, mload(0x40))\n      dup1\n      dup4\n      0xffffffffffffffffffffffffffffffffffffffff\n      and\n      dup2\n      mstore\n      0x20\n      add\n      dup3\n      dup2\n      mstore\n      0x20\n      add\n      swap3\n      pop\n      pop\n      pop\n      mload(0x40)\n      0x20\n      dup2\n      dup4\n      sub\n      sub\n      dup2\n      mstore\n      swap1\n      0x40\n      mstore\n      swap1\n      not(0xffffffffffffffffffffffffffffffffffffffffffffffffffffffff)\n      and\n      0x20\n      dup3\n      add\n      dup1\n      mload\n      0xffffffffffffffffffffffffffffffffffffffffffffffffffffffff\n      dup4\n      dup2\n      dup4\n      and\n      or\n      dup4\n      mstore\n      pop\n      pop\n      pop\n      pop\n        /* \"farms-pools/SafeERC20.sol\":1905:1924  _callOptionalReturn */\n      tag_405\n        /* \"farms-pools/SafeERC20.sol\":1905:1995  _callOptionalReturn(token, abi.encodeWithSelector(token.approve.selector, spender, value)) */\n      jump\t// in\n    tag_404:\n        /* \"farms-pools/SafeERC20.sol\":1381:2003  function safeApprove(IERC20 token, address spender, uint256 value) internal {\r... */\n      pop\n      pop\n      pop\n      jump\t// out\n        /* \"farms-pools/utils/Address.sol\":3669:3864  function functionCall(address target, bytes memory data, string memory errorMessage) internal returns (bytes memory) {\r... */\n    tag_164:\n        /* \"farms-pools/utils/Address.sol\":3772:3784  bytes memory */\n      0x60\n        /* \"farms-pools/utils/Address.sol\":3804:3856  functionCallWithValue(target, data, 0, errorMessage) */\n      tag_407\n        /* \"farms-pools/utils/Address.sol\":3826:3832  target */\n      dup5\n        /* \"farms-pools/utils/Address.sol\":3834:3838  data */\n      dup5\n        /* \"farms-pools/utils/Address.sol\":3840:3841  0 */\n      0x00\n        /* \"farms-pools/utils/Address.sol\":3843:3855  errorMessage */\n      dup6\n        /* \"farms-pools/utils/Address.sol\":3804:3825  functionCallWithValue */\n      tag_408\n        /* \"farms-pools/utils/Address.sol\":3804:3856  functionCallWithValue(target, data, 0, errorMessage) */\n      jump\t// in\n    tag_407:\n        /* \"farms-pools/utils/Address.sol\":3797:3856  return functionCallWithValue(target, data, 0, errorMessage) */\n      swap1\n      pop\n        /* \"farms-pools/utils/Address.sol\":3669:3864  function functionCall(address target, bytes memory data, string memory errorMessage) internal returns (bytes memory) {\r... */\n      swap4\n      swap3\n      pop\n      pop\n      pop\n      jump\t// out\n        /* \"farms-pools/LandbaseLockPool.sol\":21654:21845  function _isContract(address addr) internal view returns (bool) {\r... */\n    tag_180:\n        /* \"farms-pools/LandbaseLockPool.sol\":21712:21716  bool */\n      0x00\n        /* \"farms-pools/LandbaseLockPool.sol\":21729:21741  uint256 size */\n      dup1\n        /* \"farms-pools/LandbaseLockPool.sol\":21796:21800  addr */\n      dup3\n        /* \"farms-pools/LandbaseLockPool.sol\":21784:21801  extcodesize(addr) */\n      extcodesize\n        /* \"farms-pools/LandbaseLockPool.sol\":21776:21801  size := extcodesize(addr) */\n      swap1\n      pop\n        /* \"farms-pools/LandbaseLockPool.sol\":21836:21837  0 */\n      0x00\n        /* \"farms-pools/LandbaseLockPool.sol\":21829:21833  size */\n      dup2\n        /* \"farms-pools/LandbaseLockPool.sol\":21829:21837  size > 0 */\n      gt\n        /* \"farms-pools/LandbaseLockPool.sol\":21822:21837  return size > 0 */\n      swap2\n      pop\n      pop\n        /* \"farms-pools/LandbaseLockPool.sol\":21654:21845  function _isContract(address addr) internal view returns (bool) {\r... */\n      swap2\n      swap1\n      pop\n      jump\t// out\n        /* \"farms-pools/libraries/SafeMath.sol\":3653:3873  function mul(uint256 a, uint256 b) internal pure returns (uint256) {\r... */\n    tag_189:\n        /* \"farms-pools/libraries/SafeMath.sol\":3711:3718  uint256 */\n      0x00\n        /* \"farms-pools/libraries/SafeMath.sol\":3740:3741  0 */\n      dup1\n        /* \"farms-pools/libraries/SafeMath.sol\":3735:3736  a */\n      dup4\n        /* \"farms-pools/libraries/SafeMath.sol\":3735:3741  a == 0 */\n      eq\n        /* \"farms-pools/libraries/SafeMath.sol\":3731:3751  if (a == 0) return 0 */\n      iszero\n      tag_411\n      jumpi\n        /* \"farms-pools/libraries/SafeMath.sol\":3750:3751  0 */\n      0x00\n        /* \"farms-pools/libraries/SafeMath.sol\":3743:3751  return 0 */\n      swap1\n      pop\n      jump(tag_410)\n        /* \"farms-pools/libraries/SafeMath.sol\":3731:3751  if (a == 0) return 0 */\n    tag_411:\n        /* \"farms-pools/libraries/SafeMath.sol\":3762:3771  uint256 c */\n      0x00\n        /* \"farms-pools/libraries/SafeMath.sol\":3778:3779  b */\n      dup3\n        /* \"farms-pools/libraries/SafeMath.sol\":3774:3775  a */\n      dup5\n        /* \"farms-pools/libraries/SafeMath.sol\":3774:3779  a * b */\n      mul\n        /* \"farms-pools/libraries/SafeMath.sol\":3762:3779  uint256 c = a * b */\n      swap1\n      pop\n        /* \"farms-pools/libraries/SafeMath.sol\":3807:3808  b */\n      dup3\n        /* \"farms-pools/libraries/SafeMath.sol\":3802:3803  a */\n      dup5\n        /* \"farms-pools/libraries/SafeMath.sol\":3798:3799  c */\n      dup3\n        /* \"farms-pools/libraries/SafeMath.sol\":3798:3803  c / a */\n      dup2\n      tag_412\n      jumpi\n      invalid\n    tag_412:\n      div\n        /* \"farms-pools/libraries/SafeMath.sol\":3798:3808  c / a == b */\n      eq\n        /* \"farms-pools/libraries/SafeMath.sol\":3790:3846  require(c / a == b, \"SafeMath: multiplication overflow\") */\n      tag_413\n      jumpi\n      mload(0x40)\n      0x08c379a000000000000000000000000000000000000000000000000000000000\n      dup2\n      mstore\n      0x04\n      add\n      dup1\n      dup1\n      0x20\n      add\n      dup3\n      dup2\n      sub\n      dup3\n      mstore\n      0x21\n      dup2\n      mstore\n      0x20\n      add\n      dup1\n      data_9113bb53c2876a3805b2c9242029423fc540a728243ce887ab24c82cf119fba3\n      0x21\n      swap2\n      codecopy\n      0x40\n      add\n      swap2\n      pop\n      pop\n      mload(0x40)\n      dup1\n      swap2\n      sub\n      swap1\n      revert\n    tag_413:\n        /* \"farms-pools/libraries/SafeMath.sol\":3864:3865  c */\n      dup1\n        /* \"farms-pools/libraries/SafeMath.sol\":3857:3865  return c */\n      swap2\n      pop\n      pop\n        /* \"farms-pools/libraries/SafeMath.sol\":3653:3873  function mul(uint256 a, uint256 b) internal pure returns (uint256) {\r... */\n    tag_410:\n      swap3\n      swap2\n      pop\n      pop\n      jump\t// out\n        /* \"farms-pools/libraries/SafeMath.sol\":4351:4504  function div(uint256 a, uint256 b) internal pure returns (uint256) {\r... */\n    tag_190:\n        /* \"farms-pools/libraries/SafeMath.sol\":4409:4416  uint256 */\n      0x00\n        /* \"farms-pools/libraries/SafeMath.sol\":4441:4442  0 */\n      dup1\n        /* \"farms-pools/libraries/SafeMath.sol\":4437:4438  b */\n      dup3\n        /* \"farms-pools/libraries/SafeMath.sol\":4437:4442  b > 0 */\n      gt\n        /* \"farms-pools/libraries/SafeMath.sol\":4429:4473  require(b > 0, \"SafeMath: division by zero\") */\n      tag_415\n      jumpi\n      mload(0x40)\n      0x08c379a000000000000000000000000000000000000000000000000000000000\n      dup2\n      mstore\n      0x04\n      add\n      dup1\n      dup1\n      0x20\n      add\n      dup3\n      dup2\n      sub\n      dup3\n      mstore\n      0x1a\n      dup2\n      mstore\n      0x20\n      add\n      dup1\n      0x536166654d6174683a206469766973696f6e206279207a65726f000000000000\n      dup2\n      mstore\n      pop\n      0x20\n      add\n      swap2\n      pop\n      pop\n      mload(0x40)\n      dup1\n      swap2\n      sub\n      swap1\n      revert\n    tag_415:\n        /* \"farms-pools/libraries/SafeMath.sol\":4495:4496  b */\n      dup2\n        /* \"farms-pools/libraries/SafeMath.sol\":4491:4492  a */\n      dup4\n        /* \"farms-pools/libraries/SafeMath.sol\":4491:4496  a / b */\n      dup2\n      tag_416\n      jumpi\n      invalid\n    tag_416:\n      div\n        /* \"farms-pools/libraries/SafeMath.sol\":4484:4496  return a / b */\n      swap1\n      pop\n        /* \"farms-pools/libraries/SafeMath.sol\":4351:4504  function div(uint256 a, uint256 b) internal pure returns (uint256) {\r... */\n      swap3\n      swap2\n      pop\n      pop\n      jump\t// out\n        /* \"farms-pools/libraries/SafeMath.sol\":3236:3394  function sub(uint256 a, uint256 b) internal pure returns (uint256) {\r... */\n    tag_192:\n        /* \"farms-pools/libraries/SafeMath.sol\":3294:3301  uint256 */\n      0x00\n        /* \"farms-pools/libraries/SafeMath.sol\":3327:3328  a */\n      dup3\n        /* \"farms-pools/libraries/SafeMath.sol\":3322:3323  b */\n      dup3\n        /* \"farms-pools/libraries/SafeMath.sol\":3322:3328  b <= a */\n      gt\n      iszero\n        /* \"farms-pools/libraries/SafeMath.sol\":3314:3363  require(b <= a, \"SafeMath: subtraction overflow\") */\n      tag_418\n      jumpi\n      mload(0x40)\n      0x08c379a000000000000000000000000000000000000000000000000000000000\n      dup2\n      mstore\n      0x04\n      add\n      dup1\n      dup1\n      0x20\n      add\n      dup3\n      dup2\n      sub\n      dup3\n      mstore\n      0x1e\n      dup2\n      mstore\n      0x20\n      add\n      dup1\n      0x536166654d6174683a207375627472616374696f6e206f766572666c6f770000\n      dup2\n      mstore\n      pop\n      0x20\n      add\n      swap2\n      pop\n      pop\n      mload(0x40)\n      dup1\n      swap2\n      sub\n      swap1\n      revert\n    tag_418:\n        /* \"farms-pools/libraries/SafeMath.sol\":3385:3386  b */\n      dup2\n        /* \"farms-pools/libraries/SafeMath.sol\":3381:3382  a */\n      dup4\n        /* \"farms-pools/libraries/SafeMath.sol\":3381:3386  a - b */\n      sub\n        /* \"farms-pools/libraries/SafeMath.sol\":3374:3386  return a - b */\n      swap1\n      pop\n        /* \"farms-pools/libraries/SafeMath.sol\":3236:3394  function sub(uint256 a, uint256 b) internal pure returns (uint256) {\r... */\n      swap3\n      swap2\n      pop\n      pop\n      jump\t// out\n        /* \"farms-pools/libraries/SafeMath.sol\":2774:2953  function add(uint256 a, uint256 b) internal pure returns (uint256) {\r... */\n    tag_204:\n        /* \"farms-pools/libraries/SafeMath.sol\":2832:2839  uint256 */\n      0x00\n        /* \"farms-pools/libraries/SafeMath.sol\":2852:2861  uint256 c */\n      dup1\n        /* \"farms-pools/libraries/SafeMath.sol\":2868:2869  b */\n      dup3\n        /* \"farms-pools/libraries/SafeMath.sol\":2864:2865  a */\n      dup5\n        /* \"farms-pools/libraries/SafeMath.sol\":2864:2869  a + b */\n      add\n        /* \"farms-pools/libraries/SafeMath.sol\":2852:2869  uint256 c = a + b */\n      swap1\n      pop\n        /* \"farms-pools/libraries/SafeMath.sol\":2893:2894  a */\n      dup4\n        /* \"farms-pools/libraries/SafeMath.sol\":2888:2889  c */\n      dup2\n        /* \"farms-pools/libraries/SafeMath.sol\":2888:2894  c >= a */\n      lt\n      iszero\n        /* \"farms-pools/libraries/SafeMath.sol\":2880:2926  require(c >= a, \"SafeMath: addition overflow\") */\n      tag_420\n      jumpi\n      mload(0x40)\n      0x08c379a000000000000000000000000000000000000000000000000000000000\n      dup2\n      mstore\n      0x04\n      add\n      dup1\n      dup1\n      0x20\n      add\n      dup3\n      dup2\n      sub\n      dup3\n      mstore\n      0x1b\n      dup2\n      mstore\n      0x20\n      add\n      dup1\n      0x536166654d6174683a206164646974696f6e206f766572666c6f770000000000\n      dup2\n      mstore\n      pop\n      0x20\n      add\n      swap2\n      pop\n      pop\n      mload(0x40)\n      dup1\n      swap2\n      sub\n      swap1\n      revert\n    tag_420:\n        /* \"farms-pools/libraries/SafeMath.sol\":2944:2945  c */\n      dup1\n        /* \"farms-pools/libraries/SafeMath.sol\":2937:2945  return c */\n      swap2\n      pop\n      pop\n        /* \"farms-pools/libraries/SafeMath.sol\":2774:2953  function add(uint256 a, uint256 b) internal pure returns (uint256) {\r... */\n      swap3\n      swap2\n      pop\n      pop\n      jump\t// out\n        /* \"farms-pools/SafeERC20.sol\":722:899  function safeTransfer(IERC20 token, address to, uint256 value) internal {\r... */\n    tag_210:\n        /* \"farms-pools/SafeERC20.sol\":805:891  _callOptionalReturn(token, abi.encodeWithSelector(token.transfer.selector, to, value)) */\n      tag_422\n        /* \"farms-pools/SafeERC20.sol\":825:830  token */\n      dup4\n        /* \"farms-pools/SafeERC20.sol\":855:878  token.transfer.selector */\n      shl(0xe0, 0xa9059cbb)\n        /* \"farms-pools/SafeERC20.sol\":880:882  to */\n      dup5\n        /* \"farms-pools/SafeERC20.sol\":884:889  value */\n      dup5\n        /* \"farms-pools/SafeERC20.sol\":832:890  abi.encodeWithSelector(token.transfer.selector, to, value) */\n      add(0x24, mload(0x40))\n      dup1\n      dup4\n      0xffffffffffffffffffffffffffffffffffffffff\n      and\n      dup2\n      mstore\n      0x20\n      add\n      dup3\n      dup2\n      mstore\n      0x20\n      add\n      swap3\n      pop\n      pop\n      pop\n      mload(0x40)\n      0x20\n      dup2\n      dup4\n      sub\n      sub\n      dup2\n      mstore\n      swap1\n      0x40\n      mstore\n      swap1\n      not(0xffffffffffffffffffffffffffffffffffffffffffffffffffffffff)\n      and\n      0x20\n      dup3\n      add\n      dup1\n      mload\n      0xffffffffffffffffffffffffffffffffffffffffffffffffffffffff\n      dup4\n      dup2\n      dup4\n      and\n      or\n      dup4\n      mstore\n      pop\n      pop\n      pop\n      pop\n        /* \"farms-pools/SafeERC20.sol\":805:824  _callOptionalReturn */\n      tag_405\n        /* \"farms-pools/SafeERC20.sol\":805:891  _callOptionalReturn(token, abi.encodeWithSelector(token.transfer.selector, to, value)) */\n      jump\t// in\n    tag_422:\n        /* \"farms-pools/SafeERC20.sol\":722:899  function safeTransfer(IERC20 token, address to, uint256 value) internal {\r... */\n      pop\n      pop\n      pop\n      jump\t// out\n        /* \"farms-pools/LandbaseLockPool.sol\":8371:9494  function _updateUserIFO(uint256 _amount, IFOActions _action) internal {\r... */\n    tag_218:\n        /* \"farms-pools/LandbaseLockPool.sol\":8452:8479  UserIFOInfo storage IFOInfo */\n      0x00\n        /* \"farms-pools/LandbaseLockPool.sol\":8482:8493  userIFOInfo */\n      0x02\n        /* \"farms-pools/LandbaseLockPool.sol\":8482:8505  userIFOInfo[msg.sender] */\n      0x00\n        /* \"farms-pools/LandbaseLockPool.sol\":8494:8504  msg.sender */\n      caller\n        /* \"farms-pools/LandbaseLockPool.sol\":8482:8505  userIFOInfo[msg.sender] */\n      0xffffffffffffffffffffffffffffffffffffffff\n      and\n      0xffffffffffffffffffffffffffffffffffffffff\n      and\n      dup2\n      mstore\n      0x20\n      add\n      swap1\n      dup2\n      mstore\n      0x20\n      add\n      0x00\n      keccak256\n        /* \"farms-pools/LandbaseLockPool.sol\":8452:8505  UserIFOInfo storage IFOInfo = userIFOInfo[msg.sender] */\n      swap1\n      pop\n        /* \"farms-pools/LandbaseLockPool.sol\":8526:8544  uint256 avgBalance */\n      0x00\n        /* \"farms-pools/LandbaseLockPool.sol\":8548:8565  _isIFOAvailable() */\n      tag_424\n        /* \"farms-pools/LandbaseLockPool.sol\":8548:8563  _isIFOAvailable */\n      tag_352\n        /* \"farms-pools/LandbaseLockPool.sol\":8548:8565  _isIFOAvailable() */\n      jump\t// in\n    tag_424:\n        /* \"farms-pools/LandbaseLockPool.sol\":8547:8565  !_isIFOAvailable() */\n      iszero\n        /* \"farms-pools/LandbaseLockPool.sol\":8547:8730  !_isIFOAvailable() ? 0 : _calculateAvgBalance(IFOInfo.lastActionBlock, IFOInfo.lastValidActionBlock, IFOInfo.lastActionBalance, IFOInfo.lastValidActionBalance, IFOInfo.lastAvgBalance) */\n      tag_425\n      jumpi\n        /* \"farms-pools/LandbaseLockPool.sol\":8572:8730  _calculateAvgBalance(IFOInfo.lastActionBlock, IFOInfo.lastValidActionBlock, IFOInfo.lastActionBalance, IFOInfo.lastValidActionBalance, IFOInfo.lastAvgBalance) */\n      tag_426\n        /* \"farms-pools/LandbaseLockPool.sol\":8593:8600  IFOInfo */\n      dup3\n        /* \"farms-pools/LandbaseLockPool.sol\":8593:8616  IFOInfo.lastActionBlock */\n      0x02\n      add\n      sload\n        /* \"farms-pools/LandbaseLockPool.sol\":8618:8625  IFOInfo */\n      dup4\n        /* \"farms-pools/LandbaseLockPool.sol\":8618:8646  IFOInfo.lastValidActionBlock */\n      0x03\n      add\n      sload\n        /* \"farms-pools/LandbaseLockPool.sol\":8648:8655  IFOInfo */\n      dup5\n        /* \"farms-pools/LandbaseLockPool.sol\":8648:8673  IFOInfo.lastActionBalance */\n      0x00\n      add\n      sload\n        /* \"farms-pools/LandbaseLockPool.sol\":8675:8682  IFOInfo */\n      dup6\n        /* \"farms-pools/LandbaseLockPool.sol\":8675:8705  IFOInfo.lastValidActionBalance */\n      0x01\n      add\n      sload\n        /* \"farms-pools/LandbaseLockPool.sol\":8707:8714  IFOInfo */\n      dup7\n        /* \"farms-pools/LandbaseLockPool.sol\":8707:8729  IFOInfo.lastAvgBalance */\n      0x04\n      add\n      sload\n        /* \"farms-pools/LandbaseLockPool.sol\":8572:8592  _calculateAvgBalance */\n      tag_355\n        /* \"farms-pools/LandbaseLockPool.sol\":8572:8730  _calculateAvgBalance(IFOInfo.lastActionBlock, IFOInfo.lastValidActionBlock, IFOInfo.lastActionBalance, IFOInfo.lastValidActionBalance, IFOInfo.lastAvgBalance) */\n      jump\t// in\n    tag_426:\n        /* \"farms-pools/LandbaseLockPool.sol\":8547:8730  !_isIFOAvailable() ? 0 : _calculateAvgBalance(IFOInfo.lastActionBlock, IFOInfo.lastValidActionBlock, IFOInfo.lastActionBalance, IFOInfo.lastValidActionBalance, IFOInfo.lastAvgBalance) */\n      jump(tag_427)\n    tag_425:\n        /* \"farms-pools/LandbaseLockPool.sol\":8568:8569  0 */\n      0x00\n        /* \"farms-pools/LandbaseLockPool.sol\":8547:8730  !_isIFOAvailable() ? 0 : _calculateAvgBalance(IFOInfo.lastActionBlock, IFOInfo.lastValidActionBlock, IFOInfo.lastActionBalance, IFOInfo.lastValidActionBalance, IFOInfo.lastAvgBalance) */\n    tag_427:\n        /* \"farms-pools/LandbaseLockPool.sol\":8526:8730  uint256 avgBalance = !_isIFOAvailable() ? 0 : _calculateAvgBalance(IFOInfo.lastActionBlock, IFOInfo.lastValidActionBlock, IFOInfo.lastActionBalance, IFOInfo.lastValidActionBalance, IFOInfo.lastAvgBalance) */\n      swap1\n      pop\n        /* \"farms-pools/LandbaseLockPool.sol\":8766:8785  IFOActions.Withdraw */\n      0x01\n        /* \"farms-pools/LandbaseLockPool.sol\":8755:8785  _action == IFOActions.Withdraw */\n      dup1\n      dup2\n      gt\n      iszero\n      tag_428\n      jumpi\n      invalid\n    tag_428:\n        /* \"farms-pools/LandbaseLockPool.sol\":8755:8762  _action */\n      dup4\n        /* \"farms-pools/LandbaseLockPool.sol\":8755:8785  _action == IFOActions.Withdraw */\n      0x01\n      dup2\n      gt\n      iszero\n      tag_429\n      jumpi\n      invalid\n    tag_429:\n      eq\n        /* \"farms-pools/LandbaseLockPool.sol\":8751:9018  if (_action == IFOActions.Withdraw){\r... */\n      iszero\n      tag_430\n      jumpi\n        /* \"farms-pools/LandbaseLockPool.sol\":8839:8846  IFOInfo */\n      dup2\n        /* \"farms-pools/LandbaseLockPool.sol\":8839:8864  IFOInfo.lastActionBalance */\n      0x00\n      add\n      sload\n        /* \"farms-pools/LandbaseLockPool.sol\":8829:8836  _amount */\n      dup5\n        /* \"farms-pools/LandbaseLockPool.sol\":8829:8864  _amount > IFOInfo.lastActionBalance */\n      gt\n        /* \"farms-pools/LandbaseLockPool.sol\":8829:8909  _amount > IFOInfo.lastActionBalance ? 0 : IFOInfo.lastActionBalance.sub(_amount) */\n      tag_431\n      jumpi\n        /* \"farms-pools/LandbaseLockPool.sol\":8871:8909  IFOInfo.lastActionBalance.sub(_amount) */\n      tag_432\n        /* \"farms-pools/LandbaseLockPool.sol\":8901:8908  _amount */\n      dup5\n        /* \"farms-pools/LandbaseLockPool.sol\":8871:8878  IFOInfo */\n      dup4\n        /* \"farms-pools/LandbaseLockPool.sol\":8871:8896  IFOInfo.lastActionBalance */\n      0x00\n      add\n      sload\n        /* \"farms-pools/LandbaseLockPool.sol\":8871:8900  IFOInfo.lastActionBalance.sub */\n      tag_192\n      swap1\n        /* \"farms-pools/LandbaseLockPool.sol\":8871:8909  IFOInfo.lastActionBalance.sub(_amount) */\n      swap2\n      swap1\n      0xffffffff\n      and\n      jump\t// in\n    tag_432:\n        /* \"farms-pools/LandbaseLockPool.sol\":8829:8909  _amount > IFOInfo.lastActionBalance ? 0 : IFOInfo.lastActionBalance.sub(_amount) */\n      jump(tag_433)\n    tag_431:\n        /* \"farms-pools/LandbaseLockPool.sol\":8867:8868  0 */\n      0x00\n        /* \"farms-pools/LandbaseLockPool.sol\":8829:8909  _amount > IFOInfo.lastActionBalance ? 0 : IFOInfo.lastActionBalance.sub(_amount) */\n    tag_433:\n        /* \"farms-pools/LandbaseLockPool.sol\":8801:8808  IFOInfo */\n      dup3\n        /* \"farms-pools/LandbaseLockPool.sol\":8801:8826  IFOInfo.lastActionBalance */\n      0x00\n      add\n        /* \"farms-pools/LandbaseLockPool.sol\":8801:8909  IFOInfo.lastActionBalance = _amount > IFOInfo.lastActionBalance ? 0 : IFOInfo.lastActionBalance.sub(_amount) */\n      dup2\n      swap1\n      sstore\n      pop\n        /* \"farms-pools/LandbaseLockPool.sol\":8751:9018  if (_action == IFOActions.Withdraw){\r... */\n      jump(tag_434)\n    tag_430:\n        /* \"farms-pools/LandbaseLockPool.sol\":8968:9006  IFOInfo.lastActionBalance.add(_amount) */\n      tag_435\n        /* \"farms-pools/LandbaseLockPool.sol\":8998:9005  _amount */\n      dup5\n        /* \"farms-pools/LandbaseLockPool.sol\":8968:8975  IFOInfo */\n      dup4\n        /* \"farms-pools/LandbaseLockPool.sol\":8968:8993  IFOInfo.lastActionBalance */\n      0x00\n      add\n      sload\n        /* \"farms-pools/LandbaseLockPool.sol\":8968:8997  IFOInfo.lastActionBalance.add */\n      tag_204\n      swap1\n        /* \"farms-pools/LandbaseLockPool.sol\":8968:9006  IFOInfo.lastActionBalance.add(_amount) */\n      swap2\n      swap1\n      0xffffffff\n      and\n      jump\t// in\n    tag_435:\n        /* \"farms-pools/LandbaseLockPool.sol\":8940:8947  IFOInfo */\n      dup3\n        /* \"farms-pools/LandbaseLockPool.sol\":8940:8965  IFOInfo.lastActionBalance */\n      0x00\n      add\n        /* \"farms-pools/LandbaseLockPool.sol\":8940:9006  IFOInfo.lastActionBalance = IFOInfo.lastActionBalance.add(_amount) */\n      dup2\n      swap1\n      sstore\n      pop\n        /* \"farms-pools/LandbaseLockPool.sol\":8751:9018  if (_action == IFOActions.Withdraw){\r... */\n    tag_434:\n        /* \"farms-pools/LandbaseLockPool.sol\":9034:9055  _isValidActionBlock() */\n      tag_436\n        /* \"farms-pools/LandbaseLockPool.sol\":9034:9053  _isValidActionBlock */\n      tag_437\n        /* \"farms-pools/LandbaseLockPool.sol\":9034:9055  _isValidActionBlock() */\n      jump\t// in\n    tag_436:\n        /* \"farms-pools/LandbaseLockPool.sol\":9030:9203  if (_isValidActionBlock()) {\r... */\n      iszero\n      tag_438\n      jumpi\n        /* \"farms-pools/LandbaseLockPool.sol\":9106:9113  IFOInfo */\n      dup2\n        /* \"farms-pools/LandbaseLockPool.sol\":9106:9131  IFOInfo.lastActionBalance */\n      0x00\n      add\n      sload\n        /* \"farms-pools/LandbaseLockPool.sol\":9073:9080  IFOInfo */\n      dup3\n        /* \"farms-pools/LandbaseLockPool.sol\":9073:9103  IFOInfo.lastValidActionBalance */\n      0x01\n      add\n        /* \"farms-pools/LandbaseLockPool.sol\":9073:9131  IFOInfo.lastValidActionBalance = IFOInfo.lastActionBalance */\n      dup2\n      swap1\n      sstore\n      pop\n        /* \"farms-pools/LandbaseLockPool.sol\":9179:9191  block.number */\n      number\n        /* \"farms-pools/LandbaseLockPool.sol\":9147:9154  IFOInfo */\n      dup3\n        /* \"farms-pools/LandbaseLockPool.sol\":9147:9175  IFOInfo.lastValidActionBlock */\n      0x03\n      add\n        /* \"farms-pools/LandbaseLockPool.sol\":9147:9191  IFOInfo.lastValidActionBlock =  block.number */\n      dup2\n      swap1\n      sstore\n      pop\n        /* \"farms-pools/LandbaseLockPool.sol\":9030:9203  if (_isValidActionBlock()) {\r... */\n    tag_438:\n        /* \"farms-pools/LandbaseLockPool.sol\":9248:9258  avgBalance */\n      dup1\n        /* \"farms-pools/LandbaseLockPool.sol\":9223:9230  IFOInfo */\n      dup3\n        /* \"farms-pools/LandbaseLockPool.sol\":9223:9245  IFOInfo.lastAvgBalance */\n      0x04\n      add\n        /* \"farms-pools/LandbaseLockPool.sol\":9223:9258  IFOInfo.lastAvgBalance = avgBalance */\n      dup2\n      swap1\n      sstore\n      pop\n        /* \"farms-pools/LandbaseLockPool.sol\":9295:9307  block.number */\n      number\n        /* \"farms-pools/LandbaseLockPool.sol\":9269:9276  IFOInfo */\n      dup3\n        /* \"farms-pools/LandbaseLockPool.sol\":9269:9292  IFOInfo.lastActionBlock */\n      0x02\n      add\n        /* \"farms-pools/LandbaseLockPool.sol\":9269:9307  IFOInfo.lastActionBlock = block.number */\n      dup2\n      swap1\n      sstore\n      pop\n        /* \"farms-pools/LandbaseLockPool.sol\":9337:9347  msg.sender */\n      caller\n        /* \"farms-pools/LandbaseLockPool.sol\":9323:9486  UpdateUserIFO(msg.sender, IFOInfo.lastAvgBalance, IFOInfo.lastActionBalance, IFOInfo.lastValidActionBalance, IFOInfo.lastActionBlock, IFOInfo.lastValidActionBlock) */\n      0xffffffffffffffffffffffffffffffffffffffff\n      and\n      0x6a9632041d5ad6a474679da2ac648103e26069c6e77dca5f3675d3fdcbe1ac17\n        /* \"farms-pools/LandbaseLockPool.sol\":9349:9356  IFOInfo */\n      dup4\n        /* \"farms-pools/LandbaseLockPool.sol\":9349:9371  IFOInfo.lastAvgBalance */\n      0x04\n      add\n      sload\n        /* \"farms-pools/LandbaseLockPool.sol\":9373:9380  IFOInfo */\n      dup5\n        /* \"farms-pools/LandbaseLockPool.sol\":9373:9398  IFOInfo.lastActionBalance */\n      0x00\n      add\n      sload\n        /* \"farms-pools/LandbaseLockPool.sol\":9400:9407  IFOInfo */\n      dup6\n        /* \"farms-pools/LandbaseLockPool.sol\":9400:9430  IFOInfo.lastValidActionBalance */\n      0x01\n      add\n      sload\n        /* \"farms-pools/LandbaseLockPool.sol\":9432:9439  IFOInfo */\n      dup7\n        /* \"farms-pools/LandbaseLockPool.sol\":9432:9455  IFOInfo.lastActionBlock */\n      0x02\n      add\n      sload\n        /* \"farms-pools/LandbaseLockPool.sol\":9457:9464  IFOInfo */\n      dup8\n        /* \"farms-pools/LandbaseLockPool.sol\":9457:9485  IFOInfo.lastValidActionBlock */\n      0x03\n      add\n      sload\n        /* \"farms-pools/LandbaseLockPool.sol\":9323:9486  UpdateUserIFO(msg.sender, IFOInfo.lastAvgBalance, IFOInfo.lastActionBalance, IFOInfo.lastValidActionBalance, IFOInfo.lastActionBlock, IFOInfo.lastValidActionBlock) */\n      mload(0x40)\n      dup1\n      dup7\n      dup2\n      mstore\n      0x20\n      add\n      dup6\n      dup2\n      mstore\n      0x20\n      add\n      dup5\n      dup2\n      mstore\n      0x20\n      add\n      dup4\n      dup2\n      mstore\n      0x20\n      add\n      dup3\n      dup2\n      mstore\n      0x20\n      add\n      swap6\n      pop\n      pop\n      pop\n      pop\n      pop\n      pop\n      mload(0x40)\n      dup1\n      swap2\n      sub\n      swap1\n      log2\n        /* \"farms-pools/LandbaseLockPool.sol\":8371:9494  function _updateUserIFO(uint256 _amount, IFOActions _action) internal {\r... */\n      pop\n      pop\n      pop\n      pop\n      jump\t// out\n        /* \"farms-pools/utils/Pausable.sol\":2149:2269  function _unpause() internal virtual whenPaused {\r... */\n    tag_227:\n        /* \"farms-pools/utils/Pausable.sol\":1693:1701  paused() */\n      tag_440\n        /* \"farms-pools/utils/Pausable.sol\":1693:1699  paused */\n      tag_93\n        /* \"farms-pools/utils/Pausable.sol\":1693:1701  paused() */\n      jump\t// in\n    tag_440:\n        /* \"farms-pools/utils/Pausable.sol\":1685:1726  require(paused(), \"Pausable: not paused\") */\n      tag_441\n      jumpi\n      mload(0x40)\n      0x08c379a000000000000000000000000000000000000000000000000000000000\n      dup2\n      mstore\n      0x04\n      add\n      dup1\n      dup1\n      0x20\n      add\n      dup3\n      dup2\n      sub\n      dup3\n      mstore\n      0x14\n      dup2\n      mstore\n      0x20\n      add\n      dup1\n      0x5061757361626c653a206e6f7420706175736564000000000000000000000000\n      dup2\n      mstore\n      pop\n      0x20\n      add\n      swap2\n      pop\n      pop\n      mload(0x40)\n      dup1\n      swap2\n      sub\n      swap1\n      revert\n    tag_441:\n        /* \"farms-pools/utils/Pausable.sol\":2218:2223  false */\n      0x00\n        /* \"farms-pools/utils/Pausable.sol\":2208:2215  _paused */\n      dup1\n      0x14\n        /* \"farms-pools/utils/Pausable.sol\":2208:2223  _paused = false */\n      0x0100\n      exp\n      dup2\n      sload\n      dup2\n      0xff\n      mul\n      not\n      and\n      swap1\n      dup4\n      iszero\n      iszero\n      mul\n      or\n      swap1\n      sstore\n      pop\n        /* \"farms-pools/utils/Pausable.sol\":2239:2261  Unpaused(_msgSender()) */\n      0x5db9ee0a495bf2e6ff9c91a7834c1ba4fdd244a5e8aa4e537bd38aeae4b073aa\n        /* \"farms-pools/utils/Pausable.sol\":2248:2260  _msgSender() */\n      tag_443\n        /* \"farms-pools/utils/Pausable.sol\":2248:2258  _msgSender */\n      tag_265\n        /* \"farms-pools/utils/Pausable.sol\":2248:2260  _msgSender() */\n      jump\t// in\n    tag_443:\n        /* \"farms-pools/utils/Pausable.sol\":2239:2261  Unpaused(_msgSender()) */\n      mload(0x40)\n      dup1\n      dup3\n      0xffffffffffffffffffffffffffffffffffffffff\n      and\n      dup2\n      mstore\n      0x20\n      add\n      swap2\n      pop\n      pop\n      mload(0x40)\n      dup1\n      swap2\n      sub\n      swap1\n      log1\n        /* \"farms-pools/utils/Pausable.sol\":2149:2269  function _unpause() internal virtual whenPaused {\r... */\n      jump\t// out\n        /* \"farms-pools/LandbaseLockPool.sol\":21364:21525  function _earn() internal {\r... */\n    tag_249:\n        /* \"farms-pools/LandbaseLockPool.sol\":21401:21412  uint256 bal */\n      0x00\n        /* \"farms-pools/LandbaseLockPool.sol\":21415:21426  available() */\n      tag_445\n        /* \"farms-pools/LandbaseLockPool.sol\":21415:21424  available */\n      tag_87\n        /* \"farms-pools/LandbaseLockPool.sol\":21415:21426  available() */\n      jump\t// in\n    tag_445:\n        /* \"farms-pools/LandbaseLockPool.sol\":21401:21426  uint256 bal = available() */\n      swap1\n      pop\n        /* \"farms-pools/LandbaseLockPool.sol\":21447:21448  0 */\n      0x00\n        /* \"farms-pools/LandbaseLockPool.sol\":21441:21444  bal */\n      dup2\n        /* \"farms-pools/LandbaseLockPool.sol\":21441:21448  bal > 0 */\n      gt\n        /* \"farms-pools/LandbaseLockPool.sol\":21437:21518  if (bal > 0) {\r... */\n      iszero\n      tag_446\n      jumpi\n        /* \"farms-pools/LandbaseLockPool.sol\":21477:21487  masterchef */\n      immutable(\"0x64e604787cbf194841e7b68d7cd28786f6c9a0a3ab9f8b0a0e87cb4387ab0107\")\n        /* \"farms-pools/LandbaseLockPool.sol\":21465:21501  IMasterChef(masterchef).enterStaking */\n      0xffffffffffffffffffffffffffffffffffffffff\n      and\n      0x41441d3b\n        /* \"farms-pools/LandbaseLockPool.sol\":21502:21505  bal */\n      dup3\n        /* \"farms-pools/LandbaseLockPool.sol\":21465:21506  IMasterChef(masterchef).enterStaking(bal) */\n      mload(0x40)\n      dup3\n      0xffffffff\n      and\n      0xe0\n      shl\n      dup2\n      mstore\n      0x04\n      add\n      dup1\n      dup3\n      dup2\n      mstore\n      0x20\n      add\n      swap2\n      pop\n      pop\n      0x00\n      mload(0x40)\n      dup1\n      dup4\n      sub\n      dup2\n      0x00\n      dup8\n      dup1\n      extcodesize\n      iszero\n      dup1\n      iszero\n      tag_447\n      jumpi\n      0x00\n      dup1\n      revert\n    tag_447:\n      pop\n      gas\n      call\n      iszero\n      dup1\n      iszero\n      tag_449\n      jumpi\n      returndatasize\n      0x00\n      dup1\n      returndatacopy\n      revert(0x00, returndatasize)\n    tag_449:\n      pop\n      pop\n      pop\n      pop\n        /* \"farms-pools/LandbaseLockPool.sol\":21437:21518  if (bal > 0) {\r... */\n    tag_446:\n        /* \"farms-pools/LandbaseLockPool.sol\":21364:21525  function _earn() internal {\r... */\n      pop\n      jump\t// out\n        /* \"farms-pools/utils/Context.sol\":613:719  function _msgSender() internal view virtual returns (address payable) {\r... */\n    tag_265:\n        /* \"farms-pools/utils/Context.sol\":666:681  address payable */\n      0x00\n        /* \"farms-pools/utils/Context.sol\":701:711  msg.sender */\n      caller\n        /* \"farms-pools/utils/Context.sol\":694:711  return msg.sender */\n      swap1\n      pop\n        /* \"farms-pools/utils/Context.sol\":613:719  function _msgSender() internal view virtual returns (address payable) {\r... */\n      swap1\n      jump\t// out\n        /* \"farms-pools/utils/Pausable.sol\":1890:2008  function _pause() internal virtual whenNotPaused {\r... */\n    tag_302:\n        /* \"farms-pools/utils/Pausable.sol\":1416:1424  paused() */\n      tag_452\n        /* \"farms-pools/utils/Pausable.sol\":1416:1422  paused */\n      tag_93\n        /* \"farms-pools/utils/Pausable.sol\":1416:1424  paused() */\n      jump\t// in\n    tag_452:\n        /* \"farms-pools/utils/Pausable.sol\":1415:1424  !paused() */\n      iszero\n        /* \"farms-pools/utils/Pausable.sol\":1407:1445  require(!paused(), \"Pausable: paused\") */\n      tag_453\n      jumpi\n      mload(0x40)\n      0x08c379a000000000000000000000000000000000000000000000000000000000\n      dup2\n      mstore\n      0x04\n      add\n      dup1\n      dup1\n      0x20\n      add\n      dup3\n      dup2\n      sub\n      dup3\n      mstore\n      0x10\n      dup2\n      mstore\n      0x20\n      add\n      dup1\n      0x5061757361626c653a2070617573656400000000000000000000000000000000\n      dup2\n      mstore\n      pop\n      0x20\n      add\n      swap2\n      pop\n      pop\n      mload(0x40)\n      dup1\n      swap2\n      sub\n      swap1\n      revert\n    tag_453:\n        /* \"farms-pools/utils/Pausable.sol\":1960:1964  true */\n      0x01\n        /* \"farms-pools/utils/Pausable.sol\":1950:1957  _paused */\n      0x00\n      0x14\n        /* \"farms-pools/utils/Pausable.sol\":1950:1964  _paused = true */\n      0x0100\n      exp\n      dup2\n      sload\n      dup2\n      0xff\n      mul\n      not\n      and\n      swap1\n      dup4\n      iszero\n      iszero\n      mul\n      or\n      swap1\n      sstore\n      pop\n        /* \"farms-pools/utils/Pausable.sol\":1980:2000  Paused(_msgSender()) */\n      0x62e78cea01bee320cd4e420270b5ea74000d11b0c9f74754ebdbfc544b05a258\n        /* \"farms-pools/utils/Pausable.sol\":1987:1999  _msgSender() */\n      tag_455\n        /* \"farms-pools/utils/Pausable.sol\":1987:1997  _msgSender */\n      tag_265\n        /* \"farms-pools/utils/Pausable.sol\":1987:1999  _msgSender() */\n      jump\t// in\n    tag_455:\n        /* \"farms-pools/utils/Pausable.sol\":1980:2000  Paused(_msgSender()) */\n      mload(0x40)\n      dup1\n      dup3\n      0xffffffffffffffffffffffffffffffffffffffff\n      and\n      dup2\n      mstore\n      0x20\n      add\n      swap2\n      pop\n      pop\n      mload(0x40)\n      dup1\n      swap2\n      sub\n      swap1\n      log1\n        /* \"farms-pools/utils/Pausable.sol\":1890:2008  function _pause() internal virtual whenNotPaused {\r... */\n      jump\t// out\n        /* \"farms-pools/SafeERC20.sol\":907:1112  function safeTransferFrom(IERC20 token, address from, address to, uint256 value) internal {\r... */\n    tag_337:\n        /* \"farms-pools/SafeERC20.sol\":1008:1104  _callOptionalReturn(token, abi.encodeWithSelector(token.transferFrom.selector, from, to, value)) */\n      tag_457\n        /* \"farms-pools/SafeERC20.sol\":1028:1033  token */\n      dup5\n        /* \"farms-pools/SafeERC20.sol\":1058:1085  token.transferFrom.selector */\n      shl(0xe0, 0x23b872dd)\n        /* \"farms-pools/SafeERC20.sol\":1087:1091  from */\n      dup6\n        /* \"farms-pools/SafeERC20.sol\":1093:1095  to */\n      dup6\n        /* \"farms-pools/SafeERC20.sol\":1097:1102  value */\n      dup6\n        /* \"farms-pools/SafeERC20.sol\":1035:1103  abi.encodeWithSelector(token.transferFrom.selector, from, to, value) */\n      add(0x24, mload(0x40))\n      dup1\n      dup5\n      0xffffffffffffffffffffffffffffffffffffffff\n      and\n      dup2\n      mstore\n      0x20\n      add\n      dup4\n      0xffffffffffffffffffffffffffffffffffffffff\n      and\n      dup2\n      mstore\n      0x20\n      add\n      dup3\n      dup2\n      mstore\n      0x20\n      add\n      swap4\n      pop\n      pop\n      pop\n      pop\n      mload(0x40)\n      0x20\n      dup2\n      dup4\n      sub\n      sub\n      dup2\n      mstore\n      swap1\n      0x40\n      mstore\n      swap1\n      not(0xffffffffffffffffffffffffffffffffffffffffffffffffffffffff)\n      and\n      0x20\n      dup3\n      add\n      dup1\n      mload\n      0xffffffffffffffffffffffffffffffffffffffffffffffffffffffff\n      dup4\n      dup2\n      dup4\n      and\n      or\n      dup4\n      mstore\n      pop\n      pop\n      pop\n      pop\n        /* \"farms-pools/SafeERC20.sol\":1008:1027  _callOptionalReturn */\n      tag_405\n        /* \"farms-pools/SafeERC20.sol\":1008:1104  _callOptionalReturn(token, abi.encodeWithSelector(token.transferFrom.selector, from, to, value)) */\n      jump\t// in\n    tag_457:\n        /* \"farms-pools/SafeERC20.sol\":907:1112  function safeTransferFrom(IERC20 token, address from, address to, uint256 value) internal {\r... */\n      pop\n      pop\n      pop\n      pop\n      jump\t// out\n        /* \"farms-pools/LandbaseLockPool.sol\":5879:6131  function _isIFOAvailable() internal view returns(bool) {\r... */\n    tag_352:\n        /* \"farms-pools/LandbaseLockPool.sol\":5928:5932  bool */\n      0x00\n        /* \"farms-pools/LandbaseLockPool.sol\":6113:6123  startBlock */\n      sload(0x03)\n        /* \"farms-pools/LandbaseLockPool.sol\":6098:6110  block.number */\n      number\n        /* \"farms-pools/LandbaseLockPool.sol\":6098:6123  block.number > startBlock */\n      gt\n        /* \"farms-pools/LandbaseLockPool.sol\":6091:6123  return block.number > startBlock */\n      swap1\n      pop\n        /* \"farms-pools/LandbaseLockPool.sol\":5879:6131  function _isIFOAvailable() internal view returns(bool) {\r... */\n      swap1\n      jump\t// out\n        /* \"farms-pools/LandbaseLockPool.sol\":7024:8200  function _calculateAvgBalance(uint256  _lastActionBlock, uint256  _lastValidActionBlock, uint256 _lastActionBalance, uint256  _lastValidActionBalance, uint256 _lastAvgBalance) internal view returns(uint256 avgBalance) {\r... */\n    tag_355:\n        /* \"farms-pools/LandbaseLockPool.sol\":7222:7240  uint256 avgBalance */\n      0x00\n        /* \"farms-pools/LandbaseLockPool.sol\":7253:7273  uint256 currentBlock */\n      dup1\n        /* \"farms-pools/LandbaseLockPool.sol\":7276:7288  block.number */\n      number\n        /* \"farms-pools/LandbaseLockPool.sol\":7253:7288  uint256 currentBlock = block.number */\n      swap1\n      pop\n        /* \"farms-pools/LandbaseLockPool.sol\":7495:7503  endBlock */\n      sload(0x04)\n        /* \"farms-pools/LandbaseLockPool.sol\":7475:7491  _lastActionBlock */\n      dup8\n        /* \"farms-pools/LandbaseLockPool.sol\":7475:7503  _lastActionBlock >= endBlock */\n      lt\n        /* \"farms-pools/LandbaseLockPool.sol\":7471:7553  if (_lastActionBlock >= endBlock){\r... */\n      tag_460\n      jumpi\n        /* \"farms-pools/LandbaseLockPool.sol\":7526:7541  _lastAvgBalance */\n      dup3\n        /* \"farms-pools/LandbaseLockPool.sol\":7519:7541  return _lastAvgBalance */\n      swap2\n      pop\n      pop\n      jump(tag_459)\n        /* \"farms-pools/LandbaseLockPool.sol\":7471:7553  if (_lastActionBlock >= endBlock){\r... */\n    tag_460:\n        /* \"farms-pools/LandbaseLockPool.sol\":7648:7658  startBlock */\n      sload(0x03)\n        /* \"farms-pools/LandbaseLockPool.sol\":7624:7645  _lastValidActionBlock */\n      dup7\n        /* \"farms-pools/LandbaseLockPool.sol\":7624:7658  _lastValidActionBlock < startBlock */\n      lt\n        /* \"farms-pools/LandbaseLockPool.sol\":7620:7813  if (_lastValidActionBlock < startBlock){\r... */\n      iszero\n      tag_461\n      jumpi\n        /* \"farms-pools/LandbaseLockPool.sol\":7698:7708  startBlock */\n      sload(0x03)\n        /* \"farms-pools/LandbaseLockPool.sol\":7674:7708  _lastValidActionBlock = startBlock */\n      swap6\n      pop\n        /* \"farms-pools/LandbaseLockPool.sol\":7741:7742  0 */\n      0x00\n        /* \"farms-pools/LandbaseLockPool.sol\":7723:7742  _lastAvgBalance = 0 */\n      swap3\n      pop\n        /* \"farms-pools/LandbaseLockPool.sol\":7783:7801  _lastActionBalance */\n      dup5\n        /* \"farms-pools/LandbaseLockPool.sol\":7757:7801  _lastValidActionBalance = _lastActionBalance */\n      swap4\n      pop\n        /* \"farms-pools/LandbaseLockPool.sol\":7620:7813  if (_lastValidActionBlock < startBlock){\r... */\n    tag_461:\n        /* \"farms-pools/LandbaseLockPool.sol\":7855:7863  endBlock */\n      sload(0x04)\n        /* \"farms-pools/LandbaseLockPool.sol\":7840:7852  currentBlock */\n      dup2\n        /* \"farms-pools/LandbaseLockPool.sol\":7840:7863  currentBlock < endBlock */\n      lt\n        /* \"farms-pools/LandbaseLockPool.sol\":7840:7890  currentBlock < endBlock ?  currentBlock : endBlock */\n      tag_462\n      jumpi\n        /* \"farms-pools/LandbaseLockPool.sol\":7882:7890  endBlock */\n      sload(0x04)\n        /* \"farms-pools/LandbaseLockPool.sol\":7840:7890  currentBlock < endBlock ?  currentBlock : endBlock */\n      jump(tag_463)\n    tag_462:\n        /* \"farms-pools/LandbaseLockPool.sol\":7867:7879  currentBlock */\n      dup1\n        /* \"farms-pools/LandbaseLockPool.sol\":7840:7890  currentBlock < endBlock ?  currentBlock : endBlock */\n    tag_463:\n        /* \"farms-pools/LandbaseLockPool.sol\":7825:7890  currentBlock = currentBlock < endBlock ?  currentBlock : endBlock */\n      swap1\n      pop\n        /* \"farms-pools/LandbaseLockPool.sol\":7903:7925  uint256 lastContribute */\n      0x00\n        /* \"farms-pools/LandbaseLockPool.sol\":7929:7987  _lastAvgBalance.mul(_lastValidActionBlock.sub(startBlock)) */\n      tag_464\n        /* \"farms-pools/LandbaseLockPool.sol\":7949:7986  _lastValidActionBlock.sub(startBlock) */\n      tag_465\n        /* \"farms-pools/LandbaseLockPool.sol\":7975:7985  startBlock */\n      sload(0x03)\n        /* \"farms-pools/LandbaseLockPool.sol\":7949:7970  _lastValidActionBlock */\n      dup10\n        /* \"farms-pools/LandbaseLockPool.sol\":7949:7974  _lastValidActionBlock.sub */\n      tag_192\n      swap1\n        /* \"farms-pools/LandbaseLockPool.sol\":7949:7986  _lastValidActionBlock.sub(startBlock) */\n      swap2\n      swap1\n      0xffffffff\n      and\n      jump\t// in\n    tag_465:\n        /* \"farms-pools/LandbaseLockPool.sol\":7929:7944  _lastAvgBalance */\n      dup6\n        /* \"farms-pools/LandbaseLockPool.sol\":7929:7948  _lastAvgBalance.mul */\n      tag_189\n      swap1\n        /* \"farms-pools/LandbaseLockPool.sol\":7929:7987  _lastAvgBalance.mul(_lastValidActionBlock.sub(startBlock)) */\n      swap2\n      swap1\n      0xffffffff\n      and\n      jump\t// in\n    tag_464:\n        /* \"farms-pools/LandbaseLockPool.sol\":7903:7987  uint256 lastContribute  = _lastAvgBalance.mul(_lastValidActionBlock.sub(startBlock)) */\n      swap1\n      pop\n        /* \"farms-pools/LandbaseLockPool.sol\":7998:8023  uint256 currentContribute */\n      0x00\n        /* \"farms-pools/LandbaseLockPool.sol\":8027:8095  _lastValidActionBalance.mul(currentBlock.sub(_lastValidActionBlock)) */\n      tag_466\n        /* \"farms-pools/LandbaseLockPool.sol\":8055:8094  currentBlock.sub(_lastValidActionBlock) */\n      tag_467\n        /* \"farms-pools/LandbaseLockPool.sol\":8072:8093  _lastValidActionBlock */\n      dup10\n        /* \"farms-pools/LandbaseLockPool.sol\":8055:8067  currentBlock */\n      dup6\n        /* \"farms-pools/LandbaseLockPool.sol\":8055:8071  currentBlock.sub */\n      tag_192\n      swap1\n        /* \"farms-pools/LandbaseLockPool.sol\":8055:8094  currentBlock.sub(_lastValidActionBlock) */\n      swap2\n      swap1\n      0xffffffff\n      and\n      jump\t// in\n    tag_467:\n        /* \"farms-pools/LandbaseLockPool.sol\":8027:8050  _lastValidActionBalance */\n      dup8\n        /* \"farms-pools/LandbaseLockPool.sol\":8027:8054  _lastValidActionBalance.mul */\n      tag_189\n      swap1\n        /* \"farms-pools/LandbaseLockPool.sol\":8027:8095  _lastValidActionBalance.mul(currentBlock.sub(_lastValidActionBlock)) */\n      swap2\n      swap1\n      0xffffffff\n      and\n      jump\t// in\n    tag_466:\n        /* \"farms-pools/LandbaseLockPool.sol\":7998:8095  uint256 currentContribute  = _lastValidActionBalance.mul(currentBlock.sub(_lastValidActionBlock)) */\n      swap1\n      pop\n        /* \"farms-pools/LandbaseLockPool.sol\":8119:8192  (lastContribute.add(currentContribute)).div(currentBlock.sub(startBlock)) */\n      tag_468\n        /* \"farms-pools/LandbaseLockPool.sol\":8163:8191  currentBlock.sub(startBlock) */\n      tag_469\n        /* \"farms-pools/LandbaseLockPool.sol\":8180:8190  startBlock */\n      sload(0x03)\n        /* \"farms-pools/LandbaseLockPool.sol\":8163:8175  currentBlock */\n      dup6\n        /* \"farms-pools/LandbaseLockPool.sol\":8163:8179  currentBlock.sub */\n      tag_192\n      swap1\n        /* \"farms-pools/LandbaseLockPool.sol\":8163:8191  currentBlock.sub(startBlock) */\n      swap2\n      swap1\n      0xffffffff\n      and\n      jump\t// in\n    tag_469:\n        /* \"farms-pools/LandbaseLockPool.sol\":8120:8157  lastContribute.add(currentContribute) */\n      tag_470\n        /* \"farms-pools/LandbaseLockPool.sol\":8139:8156  currentContribute */\n      dup4\n        /* \"farms-pools/LandbaseLockPool.sol\":8120:8134  lastContribute */\n      dup6\n        /* \"farms-pools/LandbaseLockPool.sol\":8120:8138  lastContribute.add */\n      tag_204\n      swap1\n        /* \"farms-pools/LandbaseLockPool.sol\":8120:8157  lastContribute.add(currentContribute) */\n      swap2\n      swap1\n      0xffffffff\n      and\n      jump\t// in\n    tag_470:\n        /* \"farms-pools/LandbaseLockPool.sol\":8119:8162  (lastContribute.add(currentContribute)).div */\n      tag_190\n      swap1\n        /* \"farms-pools/LandbaseLockPool.sol\":8119:8192  (lastContribute.add(currentContribute)).div(currentBlock.sub(startBlock)) */\n      swap2\n      swap1\n      0xffffffff\n      and\n      jump\t// in\n    tag_468:\n        /* \"farms-pools/LandbaseLockPool.sol\":8106:8192  avgBalance = (lastContribute.add(currentContribute)).div(currentBlock.sub(startBlock)) */\n      swap4\n      pop\n        /* \"farms-pools/LandbaseLockPool.sol\":7024:8200  function _calculateAvgBalance(uint256  _lastActionBlock, uint256  _lastValidActionBlock, uint256 _lastActionBalance, uint256  _lastValidActionBalance, uint256 _lastAvgBalance) internal view returns(uint256 avgBalance) {\r... */\n      pop\n      pop\n      pop\n    tag_459:\n      swap6\n      swap5\n      pop\n      pop\n      pop\n      pop\n      pop\n      jump\t// out\n        /* \"farms-pools/LandbaseLockPool.sol\":10589:10962  function _zeroFreeIFO() internal {\r... */\n    tag_372:\n        /* \"farms-pools/LandbaseLockPool.sol\":10633:10660  UserIFOInfo storage IFOInfo */\n      0x00\n        /* \"farms-pools/LandbaseLockPool.sol\":10663:10674  userIFOInfo */\n      0x02\n        /* \"farms-pools/LandbaseLockPool.sol\":10663:10686  userIFOInfo[msg.sender] */\n      0x00\n        /* \"farms-pools/LandbaseLockPool.sol\":10675:10685  msg.sender */\n      caller\n        /* \"farms-pools/LandbaseLockPool.sol\":10663:10686  userIFOInfo[msg.sender] */\n      0xffffffffffffffffffffffffffffffffffffffff\n      and\n      0xffffffffffffffffffffffffffffffffffffffff\n      and\n      dup2\n      mstore\n      0x20\n      add\n      swap1\n      dup2\n      mstore\n      0x20\n      add\n      0x00\n      keccak256\n        /* \"farms-pools/LandbaseLockPool.sol\":10633:10686  UserIFOInfo storage IFOInfo = userIFOInfo[msg.sender] */\n      swap1\n      pop\n        /* \"farms-pools/LandbaseLockPool.sol\":10727:10728  0 */\n      0x00\n        /* \"farms-pools/LandbaseLockPool.sol\":10699:10706  IFOInfo */\n      dup2\n        /* \"farms-pools/LandbaseLockPool.sol\":10699:10724  IFOInfo.lastActionBalance */\n      0x00\n      add\n        /* \"farms-pools/LandbaseLockPool.sol\":10699:10728  IFOInfo.lastActionBalance = 0 */\n      dup2\n      swap1\n      sstore\n      pop\n        /* \"farms-pools/LandbaseLockPool.sol\":10772:10773  0 */\n      0x00\n        /* \"farms-pools/LandbaseLockPool.sol\":10739:10746  IFOInfo */\n      dup2\n        /* \"farms-pools/LandbaseLockPool.sol\":10739:10769  IFOInfo.lastValidActionBalance */\n      0x01\n      add\n        /* \"farms-pools/LandbaseLockPool.sol\":10739:10773  IFOInfo.lastValidActionBalance = 0 */\n      dup2\n      swap1\n      sstore\n      pop\n        /* \"farms-pools/LandbaseLockPool.sol\":10810:10811  0 */\n      0x00\n        /* \"farms-pools/LandbaseLockPool.sol\":10784:10791  IFOInfo */\n      dup2\n        /* \"farms-pools/LandbaseLockPool.sol\":10784:10807  IFOInfo.lastActionBlock */\n      0x02\n      add\n        /* \"farms-pools/LandbaseLockPool.sol\":10784:10811  IFOInfo.lastActionBlock = 0 */\n      dup2\n      swap1\n      sstore\n      pop\n        /* \"farms-pools/LandbaseLockPool.sol\":10853:10854  0 */\n      0x00\n        /* \"farms-pools/LandbaseLockPool.sol\":10822:10829  IFOInfo */\n      dup2\n        /* \"farms-pools/LandbaseLockPool.sol\":10822:10850  IFOInfo.lastValidActionBlock */\n      0x03\n      add\n        /* \"farms-pools/LandbaseLockPool.sol\":10822:10854  IFOInfo.lastValidActionBlock = 0 */\n      dup2\n      swap1\n      sstore\n      pop\n        /* \"farms-pools/LandbaseLockPool.sol\":10890:10891  0 */\n      0x00\n        /* \"farms-pools/LandbaseLockPool.sol\":10865:10872  IFOInfo */\n      dup2\n        /* \"farms-pools/LandbaseLockPool.sol\":10865:10887  IFOInfo.lastAvgBalance */\n      0x04\n      add\n        /* \"farms-pools/LandbaseLockPool.sol\":10865:10891  IFOInfo.lastAvgBalance = 0 */\n      dup2\n      swap1\n      sstore\n      pop\n        /* \"farms-pools/LandbaseLockPool.sol\":10929:10939  msg.sender */\n      caller\n        /* \"farms-pools/LandbaseLockPool.sol\":10917:10954  ZeroFreeIFO(msg.sender, block.number) */\n      0xffffffffffffffffffffffffffffffffffffffff\n      and\n      0x6f66ff41198a141a4e315cd2ff387f32686a6d469da7496ffee40eaf05e4a411\n        /* \"farms-pools/LandbaseLockPool.sol\":10941:10953  block.number */\n      number\n        /* \"farms-pools/LandbaseLockPool.sol\":10917:10954  ZeroFreeIFO(msg.sender, block.number) */\n      mload(0x40)\n      dup1\n      dup3\n      dup2\n      mstore\n      0x20\n      add\n      swap2\n      pop\n      pop\n      mload(0x40)\n      dup1\n      swap2\n      sub\n      swap1\n      log2\n        /* \"farms-pools/LandbaseLockPool.sol\":10589:10962  function _zeroFreeIFO() internal {\r... */\n      pop\n      jump\t// out\n        /* \"farms-pools/LandbaseLockPool.sol\":13034:14532  function withdrawV1(uint256 _shares) internal {\r... */\n    tag_374:\n        /* \"farms-pools/LandbaseLockPool.sol\":13091:13112  UserInfo storage user */\n      0x00\n        /* \"farms-pools/LandbaseLockPool.sol\":13115:13123  userInfo */\n      0x01\n        /* \"farms-pools/LandbaseLockPool.sol\":13115:13135  userInfo[msg.sender] */\n      0x00\n        /* \"farms-pools/LandbaseLockPool.sol\":13124:13134  msg.sender */\n      caller\n        /* \"farms-pools/LandbaseLockPool.sol\":13115:13135  userInfo[msg.sender] */\n      0xffffffffffffffffffffffffffffffffffffffff\n      and\n      0xffffffffffffffffffffffffffffffffffffffff\n      and\n      dup2\n      mstore\n      0x20\n      add\n      swap1\n      dup2\n      mstore\n      0x20\n      add\n      0x00\n      keccak256\n        /* \"farms-pools/LandbaseLockPool.sol\":13091:13135  UserInfo storage user = userInfo[msg.sender] */\n      swap1\n      pop\n        /* \"farms-pools/LandbaseLockPool.sol\":13164:13165  0 */\n      0x00\n        /* \"farms-pools/LandbaseLockPool.sol\":13154:13161  _shares */\n      dup3\n        /* \"farms-pools/LandbaseLockPool.sol\":13154:13165  _shares > 0 */\n      gt\n        /* \"farms-pools/LandbaseLockPool.sol\":13146:13189  require(_shares > 0, \"Nothing to withdraw\") */\n      tag_473\n      jumpi\n      mload(0x40)\n      0x08c379a000000000000000000000000000000000000000000000000000000000\n      dup2\n      mstore\n      0x04\n      add\n      dup1\n      dup1\n      0x20\n      add\n      dup3\n      dup2\n      sub\n      dup3\n      mstore\n      0x13\n      dup2\n      mstore\n      0x20\n      add\n      dup1\n      0x4e6f7468696e6720746f20776974686472617700000000000000000000000000\n      dup2\n      mstore\n      pop\n      0x20\n      add\n      swap2\n      pop\n      pop\n      mload(0x40)\n      dup1\n      swap2\n      sub\n      swap1\n      revert\n    tag_473:\n        /* \"farms-pools/LandbaseLockPool.sol\":13219:13223  user */\n      dup1\n        /* \"farms-pools/LandbaseLockPool.sol\":13219:13230  user.shares */\n      0x00\n      add\n      sload\n        /* \"farms-pools/LandbaseLockPool.sol\":13208:13215  _shares */\n      dup3\n        /* \"farms-pools/LandbaseLockPool.sol\":13208:13230  _shares <= user.shares */\n      gt\n      iszero\n        /* \"farms-pools/LandbaseLockPool.sol\":13200:13266  require(_shares <= user.shares, \"Withdraw amount exceeds balance\") */\n      tag_474\n      jumpi\n      mload(0x40)\n      0x08c379a000000000000000000000000000000000000000000000000000000000\n      dup2\n      mstore\n      0x04\n      add\n      dup1\n      dup1\n      0x20\n      add\n      dup3\n      dup2\n      sub\n      dup3\n      mstore\n      0x1f\n      dup2\n      mstore\n      0x20\n      add\n      dup1\n      0x576974686472617720616d6f756e7420657863656564732062616c616e636500\n      dup2\n      mstore\n      pop\n      0x20\n      add\n      swap2\n      pop\n      pop\n      mload(0x40)\n      dup1\n      swap2\n      sub\n      swap1\n      revert\n    tag_474:\n        /* \"farms-pools/LandbaseLockPool.sol\":13279:13300  uint256 currentAmount */\n      0x00\n        /* \"farms-pools/LandbaseLockPool.sol\":13303:13346  (balanceOf().mul(_shares)).div(totalShares) */\n      tag_475\n        /* \"farms-pools/LandbaseLockPool.sol\":13334:13345  totalShares */\n      sload(0x05)\n        /* \"farms-pools/LandbaseLockPool.sol\":13304:13328  balanceOf().mul(_shares) */\n      tag_476\n        /* \"farms-pools/LandbaseLockPool.sol\":13320:13327  _shares */\n      dup6\n        /* \"farms-pools/LandbaseLockPool.sol\":13304:13315  balanceOf() */\n      tag_477\n        /* \"farms-pools/LandbaseLockPool.sol\":13304:13313  balanceOf */\n      tag_105\n        /* \"farms-pools/LandbaseLockPool.sol\":13304:13315  balanceOf() */\n      jump\t// in\n    tag_477:\n        /* \"farms-pools/LandbaseLockPool.sol\":13304:13319  balanceOf().mul */\n      tag_189\n      swap1\n        /* \"farms-pools/LandbaseLockPool.sol\":13304:13328  balanceOf().mul(_shares) */\n      swap2\n      swap1\n      0xffffffff\n      and\n      jump\t// in\n    tag_476:\n        /* \"farms-pools/LandbaseLockPool.sol\":13303:13333  (balanceOf().mul(_shares)).div */\n      tag_190\n      swap1\n        /* \"farms-pools/LandbaseLockPool.sol\":13303:13346  (balanceOf().mul(_shares)).div(totalShares) */\n      swap2\n      swap1\n      0xffffffff\n      and\n      jump\t// in\n    tag_475:\n        /* \"farms-pools/LandbaseLockPool.sol\":13279:13346  uint256 currentAmount = (balanceOf().mul(_shares)).div(totalShares) */\n      swap1\n      pop\n        /* \"farms-pools/LandbaseLockPool.sol\":13371:13395  user.shares.sub(_shares) */\n      tag_478\n        /* \"farms-pools/LandbaseLockPool.sol\":13387:13394  _shares */\n      dup4\n        /* \"farms-pools/LandbaseLockPool.sol\":13371:13375  user */\n      dup4\n        /* \"farms-pools/LandbaseLockPool.sol\":13371:13382  user.shares */\n      0x00\n      add\n      sload\n        /* \"farms-pools/LandbaseLockPool.sol\":13371:13386  user.shares.sub */\n      tag_192\n      swap1\n        /* \"farms-pools/LandbaseLockPool.sol\":13371:13395  user.shares.sub(_shares) */\n      swap2\n      swap1\n      0xffffffff\n      and\n      jump\t// in\n    tag_478:\n        /* \"farms-pools/LandbaseLockPool.sol\":13357:13361  user */\n      dup3\n        /* \"farms-pools/LandbaseLockPool.sol\":13357:13368  user.shares */\n      0x00\n      add\n        /* \"farms-pools/LandbaseLockPool.sol\":13357:13395  user.shares = user.shares.sub(_shares) */\n      dup2\n      swap1\n      sstore\n      pop\n        /* \"farms-pools/LandbaseLockPool.sol\":13420:13444  totalShares.sub(_shares) */\n      tag_479\n        /* \"farms-pools/LandbaseLockPool.sol\":13436:13443  _shares */\n      dup4\n        /* \"farms-pools/LandbaseLockPool.sol\":13420:13431  totalShares */\n      sload(0x05)\n        /* \"farms-pools/LandbaseLockPool.sol\":13420:13435  totalShares.sub */\n      tag_192\n      swap1\n        /* \"farms-pools/LandbaseLockPool.sol\":13420:13444  totalShares.sub(_shares) */\n      swap2\n      swap1\n      0xffffffff\n      and\n      jump\t// in\n    tag_479:\n        /* \"farms-pools/LandbaseLockPool.sol\":13406:13417  totalShares */\n      0x05\n        /* \"farms-pools/LandbaseLockPool.sol\":13406:13444  totalShares = totalShares.sub(_shares) */\n      dup2\n      swap1\n      sstore\n      pop\n        /* \"farms-pools/LandbaseLockPool.sol\":13457:13468  uint256 bal */\n      0x00\n        /* \"farms-pools/LandbaseLockPool.sol\":13471:13482  available() */\n      tag_480\n        /* \"farms-pools/LandbaseLockPool.sol\":13471:13480  available */\n      tag_87\n        /* \"farms-pools/LandbaseLockPool.sol\":13471:13482  available() */\n      jump\t// in\n    tag_480:\n        /* \"farms-pools/LandbaseLockPool.sol\":13457:13482  uint256 bal = available() */\n      swap1\n      pop\n        /* \"farms-pools/LandbaseLockPool.sol\":13503:13516  currentAmount */\n      dup2\n        /* \"farms-pools/LandbaseLockPool.sol\":13497:13500  bal */\n      dup2\n        /* \"farms-pools/LandbaseLockPool.sol\":13497:13516  bal < currentAmount */\n      lt\n        /* \"farms-pools/LandbaseLockPool.sol\":13493:13847  if (bal < currentAmount) {\r... */\n      iszero\n      tag_481\n      jumpi\n        /* \"farms-pools/LandbaseLockPool.sol\":13533:13552  uint256 balWithdraw */\n      0x00\n        /* \"farms-pools/LandbaseLockPool.sol\":13555:13577  currentAmount.sub(bal) */\n      tag_482\n        /* \"farms-pools/LandbaseLockPool.sol\":13573:13576  bal */\n      dup3\n        /* \"farms-pools/LandbaseLockPool.sol\":13555:13568  currentAmount */\n      dup5\n        /* \"farms-pools/LandbaseLockPool.sol\":13555:13572  currentAmount.sub */\n      tag_192\n      swap1\n        /* \"farms-pools/LandbaseLockPool.sol\":13555:13577  currentAmount.sub(bal) */\n      swap2\n      swap1\n      0xffffffff\n      and\n      jump\t// in\n    tag_482:\n        /* \"farms-pools/LandbaseLockPool.sol\":13533:13577  uint256 balWithdraw = currentAmount.sub(bal) */\n      swap1\n      pop\n        /* \"farms-pools/LandbaseLockPool.sol\":13604:13614  masterchef */\n      immutable(\"0x64e604787cbf194841e7b68d7cd28786f6c9a0a3ab9f8b0a0e87cb4387ab0107\")\n        /* \"farms-pools/LandbaseLockPool.sol\":13592:13628  IMasterChef(masterchef).leaveStaking */\n      0xffffffffffffffffffffffffffffffffffffffff\n      and\n      0x1058d281\n        /* \"farms-pools/LandbaseLockPool.sol\":13629:13640  balWithdraw */\n      dup3\n        /* \"farms-pools/LandbaseLockPool.sol\":13592:13641  IMasterChef(masterchef).leaveStaking(balWithdraw) */\n      mload(0x40)\n      dup3\n      0xffffffff\n      and\n      0xe0\n      shl\n      dup2\n      mstore\n      0x04\n      add\n      dup1\n      dup3\n      dup2\n      mstore\n      0x20\n      add\n      swap2\n      pop\n      pop\n      0x00\n      mload(0x40)\n      dup1\n      dup4\n      sub\n      dup2\n      0x00\n      dup8\n      dup1\n      extcodesize\n      iszero\n      dup1\n      iszero\n      tag_483\n      jumpi\n      0x00\n      dup1\n      revert\n    tag_483:\n      pop\n      gas\n      call\n      iszero\n      dup1\n      iszero\n      tag_485\n      jumpi\n      returndatasize\n      0x00\n      dup1\n      returndatacopy\n      revert(0x00, returndatasize)\n    tag_485:\n      pop\n      pop\n      pop\n      pop\n        /* \"farms-pools/LandbaseLockPool.sol\":13656:13672  uint256 balAfter */\n      0x00\n        /* \"farms-pools/LandbaseLockPool.sol\":13675:13686  available() */\n      tag_486\n        /* \"farms-pools/LandbaseLockPool.sol\":13675:13684  available */\n      tag_87\n        /* \"farms-pools/LandbaseLockPool.sol\":13675:13686  available() */\n      jump\t// in\n    tag_486:\n        /* \"farms-pools/LandbaseLockPool.sol\":13656:13686  uint256 balAfter = available() */\n      swap1\n      pop\n        /* \"farms-pools/LandbaseLockPool.sol\":13701:13713  uint256 diff */\n      0x00\n        /* \"farms-pools/LandbaseLockPool.sol\":13716:13733  balAfter.sub(bal) */\n      tag_487\n        /* \"farms-pools/LandbaseLockPool.sol\":13729:13732  bal */\n      dup5\n        /* \"farms-pools/LandbaseLockPool.sol\":13716:13724  balAfter */\n      dup4\n        /* \"farms-pools/LandbaseLockPool.sol\":13716:13728  balAfter.sub */\n      tag_192\n      swap1\n        /* \"farms-pools/LandbaseLockPool.sol\":13716:13733  balAfter.sub(bal) */\n      swap2\n      swap1\n      0xffffffff\n      and\n      jump\t// in\n    tag_487:\n        /* \"farms-pools/LandbaseLockPool.sol\":13701:13733  uint256 diff = balAfter.sub(bal) */\n      swap1\n      pop\n        /* \"farms-pools/LandbaseLockPool.sol\":13759:13770  balWithdraw */\n      dup3\n        /* \"farms-pools/LandbaseLockPool.sol\":13752:13756  diff */\n      dup2\n        /* \"farms-pools/LandbaseLockPool.sol\":13752:13770  diff < balWithdraw */\n      lt\n        /* \"farms-pools/LandbaseLockPool.sol\":13748:13836  if (diff < balWithdraw) {\r... */\n      iszero\n      tag_488\n      jumpi\n        /* \"farms-pools/LandbaseLockPool.sol\":13807:13820  bal.add(diff) */\n      tag_489\n        /* \"farms-pools/LandbaseLockPool.sol\":13815:13819  diff */\n      dup2\n        /* \"farms-pools/LandbaseLockPool.sol\":13807:13810  bal */\n      dup6\n        /* \"farms-pools/LandbaseLockPool.sol\":13807:13814  bal.add */\n      tag_204\n      swap1\n        /* \"farms-pools/LandbaseLockPool.sol\":13807:13820  bal.add(diff) */\n      swap2\n      swap1\n      0xffffffff\n      and\n      jump\t// in\n    tag_489:\n        /* \"farms-pools/LandbaseLockPool.sol\":13791:13820  currentAmount = bal.add(diff) */\n      swap5\n      pop\n        /* \"farms-pools/LandbaseLockPool.sol\":13748:13836  if (diff < balWithdraw) {\r... */\n    tag_488:\n        /* \"farms-pools/LandbaseLockPool.sol\":13493:13847  if (bal < currentAmount) {\r... */\n      pop\n      pop\n      pop\n    tag_481:\n        /* \"farms-pools/LandbaseLockPool.sol\":13881:13926  user.lastDepositedTime.add(withdrawFeePeriod) */\n      tag_490\n        /* \"farms-pools/LandbaseLockPool.sol\":13908:13925  withdrawFeePeriod */\n      sload(0x0c)\n        /* \"farms-pools/LandbaseLockPool.sol\":13881:13885  user */\n      dup5\n        /* \"farms-pools/LandbaseLockPool.sol\":13881:13903  user.lastDepositedTime */\n      0x01\n      add\n      sload\n        /* \"farms-pools/LandbaseLockPool.sol\":13881:13907  user.lastDepositedTime.add */\n      tag_204\n      swap1\n        /* \"farms-pools/LandbaseLockPool.sol\":13881:13926  user.lastDepositedTime.add(withdrawFeePeriod) */\n      swap2\n      swap1\n      0xffffffff\n      and\n      jump\t// in\n    tag_490:\n        /* \"farms-pools/LandbaseLockPool.sol\":13863:13878  block.timestamp */\n      timestamp\n        /* \"farms-pools/LandbaseLockPool.sol\":13863:13926  block.timestamp < user.lastDepositedTime.add(withdrawFeePeriod) */\n      lt\n        /* \"farms-pools/LandbaseLockPool.sol\":13859:14156  if (block.timestamp < user.lastDepositedTime.add(withdrawFeePeriod)) {\r... */\n      iszero\n      tag_491\n      jumpi\n        /* \"farms-pools/LandbaseLockPool.sol\":13943:13969  uint256 currentWithdrawFee */\n      0x00\n        /* \"farms-pools/LandbaseLockPool.sol\":13972:14013  currentAmount.mul(withdrawFee).div(10000) */\n      tag_492\n        /* \"farms-pools/LandbaseLockPool.sol\":14007:14012  10000 */\n      0x2710\n        /* \"farms-pools/LandbaseLockPool.sol\":13972:14002  currentAmount.mul(withdrawFee) */\n      tag_493\n        /* \"farms-pools/LandbaseLockPool.sol\":13990:14001  withdrawFee */\n      sload(0x0b)\n        /* \"farms-pools/LandbaseLockPool.sol\":13972:13985  currentAmount */\n      dup7\n        /* \"farms-pools/LandbaseLockPool.sol\":13972:13989  currentAmount.mul */\n      tag_189\n      swap1\n        /* \"farms-pools/LandbaseLockPool.sol\":13972:14002  currentAmount.mul(withdrawFee) */\n      swap2\n      swap1\n      0xffffffff\n      and\n      jump\t// in\n    tag_493:\n        /* \"farms-pools/LandbaseLockPool.sol\":13972:14006  currentAmount.mul(withdrawFee).div */\n      tag_190\n      swap1\n        /* \"farms-pools/LandbaseLockPool.sol\":13972:14013  currentAmount.mul(withdrawFee).div(10000) */\n      swap2\n      swap1\n      0xffffffff\n      and\n      jump\t// in\n    tag_492:\n        /* \"farms-pools/LandbaseLockPool.sol\":13943:14013  uint256 currentWithdrawFee = currentAmount.mul(withdrawFee).div(10000) */\n      swap1\n      pop\n        /* \"farms-pools/LandbaseLockPool.sol\":14028:14076  token.safeTransfer(treasury, currentWithdrawFee) */\n      tag_494\n        /* \"farms-pools/LandbaseLockPool.sol\":14047:14055  treasury */\n      0x08\n      0x00\n      swap1\n      sload\n      swap1\n      0x0100\n      exp\n      swap1\n      div\n      0xffffffffffffffffffffffffffffffffffffffff\n      and\n        /* \"farms-pools/LandbaseLockPool.sol\":14057:14075  currentWithdrawFee */\n      dup3\n        /* \"farms-pools/LandbaseLockPool.sol\":14028:14033  token */\n      immutable(\"0x7ae9fd093408c444e1cd944d183f5410919486c93305c223a5a94b5e79d77d3b\")\n        /* \"farms-pools/LandbaseLockPool.sol\":14028:14046  token.safeTransfer */\n      0xffffffffffffffffffffffffffffffffffffffff\n      and\n      tag_210\n      swap1\n        /* \"farms-pools/LandbaseLockPool.sol\":14028:14076  token.safeTransfer(treasury, currentWithdrawFee) */\n      swap3\n      swap2\n      swap1\n      0xffffffff\n      and\n      jump\t// in\n    tag_494:\n        /* \"farms-pools/LandbaseLockPool.sol\":14107:14144  currentAmount.sub(currentWithdrawFee) */\n      tag_495\n        /* \"farms-pools/LandbaseLockPool.sol\":14125:14143  currentWithdrawFee */\n      dup2\n        /* \"farms-pools/LandbaseLockPool.sol\":14107:14120  currentAmount */\n      dup5\n        /* \"farms-pools/LandbaseLockPool.sol\":14107:14124  currentAmount.sub */\n      tag_192\n      swap1\n        /* \"farms-pools/LandbaseLockPool.sol\":14107:14144  currentAmount.sub(currentWithdrawFee) */\n      swap2\n      swap1\n      0xffffffff\n      and\n      jump\t// in\n    tag_495:\n        /* \"farms-pools/LandbaseLockPool.sol\":14091:14144  currentAmount = currentAmount.sub(currentWithdrawFee) */\n      swap3\n      pop\n        /* \"farms-pools/LandbaseLockPool.sol\":13859:14156  if (block.timestamp < user.lastDepositedTime.add(withdrawFeePeriod)) {\r... */\n      pop\n    tag_491:\n        /* \"farms-pools/LandbaseLockPool.sol\":14186:14187  0 */\n      0x00\n        /* \"farms-pools/LandbaseLockPool.sol\":14172:14176  user */\n      dup4\n        /* \"farms-pools/LandbaseLockPool.sol\":14172:14183  user.shares */\n      0x00\n      add\n      sload\n        /* \"farms-pools/LandbaseLockPool.sol\":14172:14187  user.shares > 0 */\n      gt\n        /* \"farms-pools/LandbaseLockPool.sol\":14168:14351  if (user.shares > 0) {\r... */\n      iszero\n      tag_496\n      jumpi\n        /* \"farms-pools/LandbaseLockPool.sol\":14232:14277  user.shares.mul(balanceOf()).div(totalShares) */\n      tag_497\n        /* \"farms-pools/LandbaseLockPool.sol\":14265:14276  totalShares */\n      sload(0x05)\n        /* \"farms-pools/LandbaseLockPool.sol\":14232:14260  user.shares.mul(balanceOf()) */\n      tag_498\n        /* \"farms-pools/LandbaseLockPool.sol\":14248:14259  balanceOf() */\n      tag_499\n        /* \"farms-pools/LandbaseLockPool.sol\":14248:14257  balanceOf */\n      tag_105\n        /* \"farms-pools/LandbaseLockPool.sol\":14248:14259  balanceOf() */\n      jump\t// in\n    tag_499:\n        /* \"farms-pools/LandbaseLockPool.sol\":14232:14236  user */\n      dup7\n        /* \"farms-pools/LandbaseLockPool.sol\":14232:14243  user.shares */\n      0x00\n      add\n      sload\n        /* \"farms-pools/LandbaseLockPool.sol\":14232:14247  user.shares.mul */\n      tag_189\n      swap1\n        /* \"farms-pools/LandbaseLockPool.sol\":14232:14260  user.shares.mul(balanceOf()) */\n      swap2\n      swap1\n      0xffffffff\n      and\n      jump\t// in\n    tag_498:\n        /* \"farms-pools/LandbaseLockPool.sol\":14232:14264  user.shares.mul(balanceOf()).div */\n      tag_190\n      swap1\n        /* \"farms-pools/LandbaseLockPool.sol\":14232:14277  user.shares.mul(balanceOf()).div(totalShares) */\n      swap2\n      swap1\n      0xffffffff\n      and\n      jump\t// in\n    tag_497:\n        /* \"farms-pools/LandbaseLockPool.sol\":14204:14208  user */\n      dup4\n        /* \"farms-pools/LandbaseLockPool.sol\":14204:14229  user.cakeAtLastUserAction */\n      0x02\n      add\n        /* \"farms-pools/LandbaseLockPool.sol\":14204:14277  user.cakeAtLastUserAction = user.shares.mul(balanceOf()).div(totalShares) */\n      dup2\n      swap1\n      sstore\n      pop\n        /* \"farms-pools/LandbaseLockPool.sol\":14168:14351  if (user.shares > 0) {\r... */\n      jump(tag_500)\n    tag_496:\n        /* \"farms-pools/LandbaseLockPool.sol\":14338:14339  0 */\n      0x00\n        /* \"farms-pools/LandbaseLockPool.sol\":14310:14314  user */\n      dup4\n        /* \"farms-pools/LandbaseLockPool.sol\":14310:14335  user.cakeAtLastUserAction */\n      0x02\n      add\n        /* \"farms-pools/LandbaseLockPool.sol\":14310:14339  user.cakeAtLastUserAction = 0 */\n      dup2\n      swap1\n      sstore\n      pop\n        /* \"farms-pools/LandbaseLockPool.sol\":14168:14351  if (user.shares > 0) {\r... */\n    tag_500:\n        /* \"farms-pools/LandbaseLockPool.sol\":14389:14404  block.timestamp */\n      timestamp\n        /* \"farms-pools/LandbaseLockPool.sol\":14363:14367  user */\n      dup4\n        /* \"farms-pools/LandbaseLockPool.sol\":14363:14386  user.lastUserActionTime */\n      0x03\n      add\n        /* \"farms-pools/LandbaseLockPool.sol\":14363:14404  user.lastUserActionTime = block.timestamp */\n      dup2\n      swap1\n      sstore\n      pop\n        /* \"farms-pools/LandbaseLockPool.sol\":14417:14462  token.safeTransfer(msg.sender, currentAmount) */\n      tag_501\n        /* \"farms-pools/LandbaseLockPool.sol\":14436:14446  msg.sender */\n      caller\n        /* \"farms-pools/LandbaseLockPool.sol\":14448:14461  currentAmount */\n      dup4\n        /* \"farms-pools/LandbaseLockPool.sol\":14417:14422  token */\n      immutable(\"0x7ae9fd093408c444e1cd944d183f5410919486c93305c223a5a94b5e79d77d3b\")\n        /* \"farms-pools/LandbaseLockPool.sol\":14417:14435  token.safeTransfer */\n      0xffffffffffffffffffffffffffffffffffffffff\n      and\n      tag_210\n      swap1\n        /* \"farms-pools/LandbaseLockPool.sol\":14417:14462  token.safeTransfer(msg.sender, currentAmount) */\n      swap3\n      swap2\n      swap1\n      0xffffffff\n      and\n      jump\t// in\n    tag_501:\n        /* \"farms-pools/LandbaseLockPool.sol\":14489:14499  msg.sender */\n      caller\n        /* \"farms-pools/LandbaseLockPool.sol\":14480:14524  Withdraw(msg.sender, currentAmount, _shares) */\n      0xffffffffffffffffffffffffffffffffffffffff\n      and\n      0xf279e6a1f5e320cca91135676d9cb6e44ca8a08c0b88342bcdb1144f6511b568\n        /* \"farms-pools/LandbaseLockPool.sol\":14501:14514  currentAmount */\n      dup4\n        /* \"farms-pools/LandbaseLockPool.sol\":14516:14523  _shares */\n      dup7\n        /* \"farms-pools/LandbaseLockPool.sol\":14480:14524  Withdraw(msg.sender, currentAmount, _shares) */\n      mload(0x40)\n      dup1\n      dup4\n      dup2\n      mstore\n      0x20\n      add\n      dup3\n      dup2\n      mstore\n      0x20\n      add\n      swap3\n      pop\n      pop\n      pop\n      mload(0x40)\n      dup1\n      swap2\n      sub\n      swap1\n      log2\n        /* \"farms-pools/LandbaseLockPool.sol\":13034:14532  function withdrawV1(uint256 _shares) internal {\r... */\n      pop\n      pop\n      pop\n      pop\n      jump\t// out\n        /* \"farms-pools/SafeERC20.sol\":3027:3788  function _callOptionalReturn(IERC20 token, bytes memory data) private {\r... */\n    tag_405:\n        /* \"farms-pools/SafeERC20.sol\":3451:3474  bytes memory returndata */\n      0x60\n        /* \"farms-pools/SafeERC20.sol\":3477:3546  address(token).functionCall(data, \"SafeERC20: low-level call failed\") */\n      tag_503\n        /* \"farms-pools/SafeERC20.sol\":3505:3509  data */\n      dup3\n        /* \"farms-pools/SafeERC20.sol\":3477:3546  address(token).functionCall(data, \"SafeERC20: low-level call failed\") */\n      mload(0x40)\n      dup1\n      0x40\n      add\n      0x40\n      mstore\n      dup1\n      0x20\n      dup2\n      mstore\n      0x20\n      add\n      0x5361666545524332303a206c6f772d6c6576656c2063616c6c206661696c6564\n      dup2\n      mstore\n      pop\n        /* \"farms-pools/SafeERC20.sol\":3485:3490  token */\n      dup6\n        /* \"farms-pools/SafeERC20.sol\":3477:3504  address(token).functionCall */\n      0xffffffffffffffffffffffffffffffffffffffff\n      and\n      tag_164\n      swap1\n        /* \"farms-pools/SafeERC20.sol\":3477:3546  address(token).functionCall(data, \"SafeERC20: low-level call failed\") */\n      swap3\n      swap2\n      swap1\n      0xffffffff\n      and\n      jump\t// in\n    tag_503:\n        /* \"farms-pools/SafeERC20.sol\":3451:3546  bytes memory returndata = address(token).functionCall(data, \"SafeERC20: low-level call failed\") */\n      swap1\n      pop\n        /* \"farms-pools/SafeERC20.sol\":3581:3582  0 */\n      0x00\n        /* \"farms-pools/SafeERC20.sol\":3561:3571  returndata */\n      dup2\n        /* \"farms-pools/SafeERC20.sol\":3561:3578  returndata.length */\n      mload\n        /* \"farms-pools/SafeERC20.sol\":3561:3582  returndata.length > 0 */\n      gt\n        /* \"farms-pools/SafeERC20.sol\":3557:3781  if (returndata.length > 0) { // Return data is optional\r... */\n      iszero\n      tag_504\n      jumpi\n        /* \"farms-pools/SafeERC20.sol\":3703:3713  returndata */\n      dup1\n        /* \"farms-pools/SafeERC20.sol\":3692:3722  abi.decode(returndata, (bool)) */\n      dup1\n      0x20\n      add\n      swap1\n      mload\n      0x20\n      dup2\n      lt\n      iszero\n      tag_505\n      jumpi\n      0x00\n      dup1\n      revert\n    tag_505:\n      dup2\n      add\n      swap1\n      dup1\n      dup1\n      mload\n      swap1\n      0x20\n      add\n      swap1\n      swap3\n      swap2\n      swap1\n      pop\n      pop\n      pop\n        /* \"farms-pools/SafeERC20.sol\":3684:3769  require(abi.decode(returndata, (bool)), \"SafeERC20: ERC20 operation did not succeed\") */\n      tag_506\n      jumpi\n      mload(0x40)\n      0x08c379a000000000000000000000000000000000000000000000000000000000\n      dup2\n      mstore\n      0x04\n      add\n      dup1\n      dup1\n      0x20\n      add\n      dup3\n      dup2\n      sub\n      dup3\n      mstore\n      0x2a\n      dup2\n      mstore\n      0x20\n      add\n      dup1\n      data_e11ad79d1e4a7f2e5f376964cb99e8e8f7904e3fc16a109f7a7ecb9aa7956dcd\n      0x2a\n      swap2\n      codecopy\n      0x40\n      add\n      swap2\n      pop\n      pop\n      mload(0x40)\n      dup1\n      swap2\n      sub\n      swap1\n      revert\n    tag_506:\n        /* \"farms-pools/SafeERC20.sol\":3557:3781  if (returndata.length > 0) { // Return data is optional\r... */\n    tag_504:\n        /* \"farms-pools/SafeERC20.sol\":3027:3788  function _callOptionalReturn(IERC20 token, bytes memory data) private {\r... */\n      pop\n      pop\n      pop\n      jump\t// out\n        /* \"farms-pools/utils/Address.sol\":4721:5251  function functionCallWithValue(address target, bytes memory data, uint256 value, string memory errorMessage) internal returns (bytes memory) {\r... */\n    tag_408:\n        /* \"farms-pools/utils/Address.sol\":4848:4860  bytes memory */\n      0x60\n        /* \"farms-pools/utils/Address.sol\":4906:4911  value */\n      dup3\n        /* \"farms-pools/utils/Address.sol\":4881:4902  address(this).balance */\n      selfbalance\n        /* \"farms-pools/utils/Address.sol\":4881:4911  address(this).balance >= value */\n      lt\n      iszero\n        /* \"farms-pools/utils/Address.sol\":4873:4954  require(address(this).balance >= value, \"Address: insufficient balance for call\") */\n      tag_508\n      jumpi\n      mload(0x40)\n      0x08c379a000000000000000000000000000000000000000000000000000000000\n      dup2\n      mstore\n      0x04\n      add\n      dup1\n      dup1\n      0x20\n      add\n      dup3\n      dup2\n      sub\n      dup3\n      mstore\n      0x26\n      dup2\n      mstore\n      0x20\n      add\n      dup1\n      data_565f1a77334fc4792800921178c71e4521acffab18ff9e7885b49377ee80ab4c\n      0x26\n      swap2\n      codecopy\n      0x40\n      add\n      swap2\n      pop\n      pop\n      mload(0x40)\n      dup1\n      swap2\n      sub\n      swap1\n      revert\n    tag_508:\n        /* \"farms-pools/utils/Address.sol\":4973:4991  isContract(target) */\n      tag_509\n        /* \"farms-pools/utils/Address.sol\":4984:4990  target */\n      dup6\n        /* \"farms-pools/utils/Address.sol\":4973:4983  isContract */\n      tag_510\n        /* \"farms-pools/utils/Address.sol\":4973:4991  isContract(target) */\n      jump\t// in\n    tag_509:\n        /* \"farms-pools/utils/Address.sol\":4965:5025  require(isContract(target), \"Address: call to non-contract\") */\n      tag_511\n      jumpi\n      mload(0x40)\n      0x08c379a000000000000000000000000000000000000000000000000000000000\n      dup2\n      mstore\n      0x04\n      add\n      dup1\n      dup1\n      0x20\n      add\n      dup3\n      dup2\n      sub\n      dup3\n      mstore\n      0x1d\n      dup2\n      mstore\n      0x20\n      add\n      dup1\n      0x416464726573733a2063616c6c20746f206e6f6e2d636f6e7472616374000000\n      dup2\n      mstore\n      pop\n      0x20\n      add\n      swap2\n      pop\n      pop\n      mload(0x40)\n      dup1\n      swap2\n      sub\n      swap1\n      revert\n    tag_511:\n        /* \"farms-pools/utils/Address.sol\":5099:5111  bool success */\n      0x00\n        /* \"farms-pools/utils/Address.sol\":5113:5136  bytes memory returndata */\n      0x60\n        /* \"farms-pools/utils/Address.sol\":5140:5146  target */\n      dup7\n        /* \"farms-pools/utils/Address.sol\":5140:5151  target.call */\n      0xffffffffffffffffffffffffffffffffffffffff\n      and\n        /* \"farms-pools/utils/Address.sol\":5160:5165  value */\n      dup6\n        /* \"farms-pools/utils/Address.sol\":5168:5172  data */\n      dup8\n        /* \"farms-pools/utils/Address.sol\":5140:5173  target.call{ value: value }(data) */\n      mload(0x40)\n      dup1\n      dup3\n      dup1\n      mload\n      swap1\n      0x20\n      add\n      swap1\n      dup1\n      dup4\n      dup4\n    tag_512:\n      0x20\n      dup4\n      lt\n      tag_514\n      jumpi\n      dup1\n      mload\n      dup3\n      mstore\n      0x20\n      dup3\n      add\n      swap2\n      pop\n      0x20\n      dup2\n      add\n      swap1\n      pop\n      0x20\n      dup4\n      sub\n      swap3\n      pop\n      jump(tag_512)\n    tag_514:\n      0x01\n      dup4\n      0x20\n      sub\n      0x0100\n      exp\n      sub\n      dup1\n      not\n      dup3\n      mload\n      and\n      dup2\n      dup5\n      mload\n      and\n      dup1\n      dup3\n      or\n      dup6\n      mstore\n      pop\n      pop\n      pop\n      pop\n      pop\n      pop\n      swap1\n      pop\n      add\n      swap2\n      pop\n      pop\n      0x00\n      mload(0x40)\n      dup1\n      dup4\n      sub\n      dup2\n      dup6\n      dup8\n      gas\n      call\n      swap3\n      pop\n      pop\n      pop\n      returndatasize\n      dup1\n      0x00\n      dup2\n      eq\n      tag_517\n      jumpi\n      mload(0x40)\n      swap2\n      pop\n      and(add(returndatasize, 0x3f), not(0x1f))\n      dup3\n      add\n      0x40\n      mstore\n      returndatasize\n      dup3\n      mstore\n      returndatasize\n      0x00\n      0x20\n      dup5\n      add\n      returndatacopy\n      jump(tag_516)\n    tag_517:\n      0x60\n      swap2\n      pop\n    tag_516:\n      pop\n        /* \"farms-pools/utils/Address.sol\":5098:5173  (bool success, bytes memory returndata) = target.call{ value: value }(data) */\n      swap2\n      pop\n      swap2\n      pop\n        /* \"farms-pools/utils/Address.sol\":5191:5243  _verifyCallResult(success, returndata, errorMessage) */\n      tag_518\n        /* \"farms-pools/utils/Address.sol\":5209:5216  success */\n      dup3\n        /* \"farms-pools/utils/Address.sol\":5218:5228  returndata */\n      dup3\n        /* \"farms-pools/utils/Address.sol\":5230:5242  errorMessage */\n      dup7\n        /* \"farms-pools/utils/Address.sol\":5191:5208  _verifyCallResult */\n      tag_519\n        /* \"farms-pools/utils/Address.sol\":5191:5243  _verifyCallResult(success, returndata, errorMessage) */\n      jump\t// in\n    tag_518:\n        /* \"farms-pools/utils/Address.sol\":5184:5243  return _verifyCallResult(success, returndata, errorMessage) */\n      swap3\n      pop\n      pop\n      pop\n        /* \"farms-pools/utils/Address.sol\":4721:5251  function functionCallWithValue(address target, bytes memory data, uint256 value, string memory errorMessage) internal returns (bytes memory) {\r... */\n      swap5\n      swap4\n      pop\n      pop\n      pop\n      pop\n      jump\t// out\n        /* \"farms-pools/LandbaseLockPool.sol\":6342:6481  function _isValidActionBlock() internal view returns(bool) {\r... */\n    tag_437:\n        /* \"farms-pools/LandbaseLockPool.sol\":6395:6399  bool */\n      0x00\n        /* \"farms-pools/LandbaseLockPool.sol\":6435:6445  startBlock */\n      sload(0x03)\n        /* \"farms-pools/LandbaseLockPool.sol\":6419:6431  block.number */\n      number\n        /* \"farms-pools/LandbaseLockPool.sol\":6419:6445  block.number >= startBlock */\n      lt\n      iszero\n        /* \"farms-pools/LandbaseLockPool.sol\":6419:6473  block.number >= startBlock && block.number <= endBlock */\n      dup1\n      iszero\n      tag_521\n      jumpi\n      pop\n        /* \"farms-pools/LandbaseLockPool.sol\":6465:6473  endBlock */\n      sload(0x04)\n        /* \"farms-pools/LandbaseLockPool.sol\":6449:6461  block.number */\n      number\n        /* \"farms-pools/LandbaseLockPool.sol\":6449:6473  block.number <= endBlock */\n      gt\n      iszero\n        /* \"farms-pools/LandbaseLockPool.sol\":6419:6473  block.number >= startBlock && block.number <= endBlock */\n    tag_521:\n        /* \"farms-pools/LandbaseLockPool.sol\":6412:6473  return block.number >= startBlock && block.number <= endBlock */\n      swap1\n      pop\n        /* \"farms-pools/LandbaseLockPool.sol\":6342:6481  function _isValidActionBlock() internal view returns(bool) {\r... */\n      swap1\n      jump\t// out\n        /* \"farms-pools/utils/Address.sol\":751:1173  function isContract(address account) internal view returns (bool) {\r... */\n    tag_510:\n        /* \"farms-pools/utils/Address.sol\":811:815  bool */\n      0x00\n        /* \"farms-pools/utils/Address.sol\":1019:1031  uint256 size */\n      dup1\n        /* \"farms-pools/utils/Address.sol\":1130:1137  account */\n      dup3\n        /* \"farms-pools/utils/Address.sol\":1118:1138  extcodesize(account) */\n      extcodesize\n        /* \"farms-pools/utils/Address.sol\":1110:1138  size := extcodesize(account) */\n      swap1\n      pop\n        /* \"farms-pools/utils/Address.sol\":1164:1165  0 */\n      0x00\n        /* \"farms-pools/utils/Address.sol\":1157:1161  size */\n      dup2\n        /* \"farms-pools/utils/Address.sol\":1157:1165  size > 0 */\n      gt\n        /* \"farms-pools/utils/Address.sol\":1150:1165  return size > 0 */\n      swap2\n      pop\n      pop\n        /* \"farms-pools/utils/Address.sol\":751:1173  function isContract(address account) internal view returns (bool) {\r... */\n      swap2\n      swap1\n      pop\n      jump\t// out\n        /* \"farms-pools/utils/Address.sol\":7261:8003  function _verifyCallResult(bool success, bytes memory returndata, string memory errorMessage) private pure returns(bytes memory) {\r... */\n    tag_519:\n        /* \"farms-pools/utils/Address.sol\":7376:7388  bytes memory */\n      0x60\n        /* \"farms-pools/utils/Address.sol\":7405:7412  success */\n      dup4\n        /* \"farms-pools/utils/Address.sol\":7401:7996  if (success) {\r... */\n      iszero\n      tag_524\n      jumpi\n        /* \"farms-pools/utils/Address.sol\":7436:7446  returndata */\n      dup3\n        /* \"farms-pools/utils/Address.sol\":7429:7446  return returndata */\n      swap1\n      pop\n      jump(tag_523)\n        /* \"farms-pools/utils/Address.sol\":7401:7996  if (success) {\r... */\n    tag_524:\n        /* \"farms-pools/utils/Address.sol\":7570:7571  0 */\n      0x00\n        /* \"farms-pools/utils/Address.sol\":7550:7560  returndata */\n      dup4\n        /* \"farms-pools/utils/Address.sol\":7550:7567  returndata.length */\n      mload\n        /* \"farms-pools/utils/Address.sol\":7550:7571  returndata.length > 0 */\n      gt\n        /* \"farms-pools/utils/Address.sol\":7546:7985  if (returndata.length > 0) {\r... */\n      iszero\n      tag_526\n      jumpi\n        /* \"farms-pools/utils/Address.sol\":7813:7823  returndata */\n      dup3\n        /* \"farms-pools/utils/Address.sol\":7807:7824  mload(returndata) */\n      mload\n        /* \"farms-pools/utils/Address.sol\":7874:7889  returndata_size */\n      dup1\n        /* \"farms-pools/utils/Address.sol\":7861:7871  returndata */\n      dup5\n        /* \"farms-pools/utils/Address.sol\":7857:7859  32 */\n      0x20\n        /* \"farms-pools/utils/Address.sol\":7853:7872  add(32, returndata) */\n      add\n        /* \"farms-pools/utils/Address.sol\":7846:7890  revert(add(32, returndata), returndata_size) */\n      revert\n        /* \"farms-pools/utils/Address.sol\":7761:7909  {\r... */\n    tag_526:\n        /* \"farms-pools/utils/Address.sol\":7956:7968  errorMessage */\n      dup2\n        /* \"farms-pools/utils/Address.sol\":7949:7969  revert(errorMessage) */\n      mload(0x40)\n      0x08c379a000000000000000000000000000000000000000000000000000000000\n      dup2\n      mstore\n      0x04\n      add\n      dup1\n      dup1\n      0x20\n      add\n      dup3\n      dup2\n      sub\n      dup3\n      mstore\n      dup4\n      dup2\n      dup2\n      mload\n      dup2\n      mstore\n      0x20\n      add\n      swap2\n      pop\n      dup1\n      mload\n      swap1\n      0x20\n      add\n      swap1\n      dup1\n      dup4\n      dup4\n      0x00\n    tag_528:\n      dup4\n      dup2\n      lt\n      iszero\n      tag_530\n      jumpi\n      dup1\n      dup3\n      add\n      mload\n      dup2\n      dup5\n      add\n      mstore\n      0x20\n      dup2\n      add\n      swap1\n      pop\n      jump(tag_528)\n    tag_530:\n      pop\n      pop\n      pop\n      pop\n      swap1\n      pop\n      swap1\n      dup2\n      add\n      swap1\n      0x1f\n      and\n      dup1\n      iszero\n      tag_531\n      jumpi\n      dup1\n      dup3\n      sub\n      dup1\n      mload\n      0x01\n      dup4\n      0x20\n      sub\n      0x0100\n      exp\n      sub\n      not\n      and\n      dup2\n      mstore\n      0x20\n      add\n      swap2\n      pop\n    tag_531:\n      pop\n      swap3\n      pop\n      pop\n      pop\n      mload(0x40)\n      dup1\n      swap2\n      sub\n      swap1\n      revert\n        /* \"farms-pools/utils/Address.sol\":7261:8003  function _verifyCallResult(bool success, bytes memory returndata, string memory errorMessage) private pure returns(bytes memory) {\r... */\n    tag_523:\n      swap4\n      swap3\n      pop\n      pop\n      pop\n      jump\t// out\n    stop\n    data_245f15ff17f551913a7a18385165551503906a406f905ac1c2437281a7cd0cfe 4f776e61626c653a206e6577206f776e657220697320746865207a65726f2061646472657373\n    data_3ea9d2748b0a4cf4d9041ea5447cc8d433bce6ae4e36584bac37b5bb6ca2fc19 546f6b656e2063616e6e6f742062652073616d65206173206465706f73697420746f6b656e\n    data_55e8b512461165150226d7fb62af16288a660c0fc1f35821ba4ad8ad658a0bb0 4e6577207374617274426c6f636b206d757374206265206c6f776572207468616e206e657720656e64426c6f636b\n    data_565f1a77334fc4792800921178c71e4521acffab18ff9e7885b49377ee80ab4c 416464726573733a20696e73756666696369656e742062616c616e636520666f722063616c6c\n    data_56f1cb28260a5fe006a543516f28c8e9fca2a3d42753a5ece1397133ea778f1c 546f6b656e2063616e6e6f742062652073616d65206173207265636569707420746f6b656e\n    data_5f4afedb5cb4c613eb925791e30905bbaa67a23ed369aa450ccf1eb0e08c07ff 63616c6c4665652063616e6e6f74206265206d6f7265207468616e204d41585f43414c4c5f464545\n    data_6432039cf9ff586e7b7914864ffeeb65018de8382b891f7abea9a0fa0a0eeba5 706572666f726d616e63654665652063616e6e6f74206265206d6f7265207468616e204d41585f504552464f524d414e43455f464545\n    data_6d2e0ee418a4fa9636bc860d0410414c2f3bb829ed67581046f589a0e038df7e 6e657720656e6420626c6f636b2063616e277420626568696e642063757272656e7420626c6f636b\n    data_9113bb53c2876a3805b2c9242029423fc540a728243ce887ab24c82cf119fba3 536166654d6174683a206d756c7469706c69636174696f6e206f766572666c6f77\n    data_a6806e6705a9ee3b0e0c4b8d8e7cb4e2da5d59db3275bba90220e3e7d15d16f8 6465706f73697420616d6f756e7420697320746f6f20736d616c6c20746f20616c6c6f6361746520736861726573\n    data_c9c3e461d0a427a4e9ec61c7672ef5d0872b7afe41af330c564d77d66b5b728b 506f6f6c2063757272656e7420626c6f636b206d757374206265206c6f776572207468616e206e6577207374617274426c6f636b\n    data_cfca239801295453e18a917561471428326355dcfd35c2679d3e455f8ddb6850 7769746864726177466565506572696f642063616e6e6f74206265206d6f7265207468616e204d41585f57495448445241575f4645455f504552494f44\n    data_e10f87a14096ac956401d5f800040ab40e68d1d271dcb4693c1df00be0147b71 6f6c6420656e6420626c6f636b2063616e277420626568696e642063757272656e7420626c6f636b\n    data_e11ad79d1e4a7f2e5f376964cb99e8e8f7904e3fc16a109f7a7ecb9aa7956dcd 5361666545524332303a204552433230206f7065726174696f6e20646964206e6f742073756363656564\n    data_e7bb9c347f949e24da350c193cc8369c19aa7e8a530aba25a3447a9658c66f18 77697468647261774665652063616e6e6f74206265206d6f7265207468616e204d41585f57495448445241575f464545\n    data_ef945ddb1bfdc0da870feb4560d868b047642b4ac7f2fb7f8b7c51cb4a411e25 5361666545524332303a20617070726f76652066726f6d206e6f6e2d7a65726f20746f206e6f6e2d7a65726f20616c6c6f77616e6365\n\n    auxdata: 0xa2646970667358221220402a01c5e6c8f21a32b73e6d16c505953f56e2f9dcf29f78d5e54aff9ffe6c7164736f6c634300060c0033\n}\n",
				"bytecode": {
					"linkReferences": {},
					"object": "60e060405260c86009556019600a55600a600b556203f480600c553480156200002757600080fd5b506040516200582e3803806200582e833981810160405260e08110156200004d57600080fd5b81019080805190602001909291908051906020019092919080519060200190929190805190602001909291908051906020019092919080519060200190929190805190602001909291905050506000620000ac620003ac60201b60201c565b9050806000806101000a81548173ffffffffffffffffffffffffffffffffffffffff021916908373ffffffffffffffffffffffffffffffffffffffff1602179055508073ffffffffffffffffffffffffffffffffffffffff16600073ffffffffffffffffffffffffffffffffffffffff167f8be0079c531659141344cd1fd0a4f28419497f9722a3daafe3b4186f6b6457e060405160405180910390a35060008060146101000a81548160ff021916908315150217905550814310620001be576040517f08c379a0000000000000000000000000000000000000000000000000000000008152600401808060200182810382526026815260200180620057606026913960400191505060405180910390fd5b80821062000218576040517f08c379a0000000000000000000000000000000000000000000000000000000008152600401808060200182810382526022815260200180620057d66022913960400191505060405180910390fd5b8673ffffffffffffffffffffffffffffffffffffffff1660808173ffffffffffffffffffffffffffffffffffffffff1660601b815250508573ffffffffffffffffffffffffffffffffffffffff1660a08173ffffffffffffffffffffffffffffffffffffffff1660601b815250508473ffffffffffffffffffffffffffffffffffffffff1660c08173ffffffffffffffffffffffffffffffffffffffff1660601b8152505083600760006101000a81548173ffffffffffffffffffffffffffffffffffffffff021916908373ffffffffffffffffffffffffffffffffffffffff16021790555082600860006101000a81548173ffffffffffffffffffffffffffffffffffffffff021916908373ffffffffffffffffffffffffffffffffffffffff16021790555081600381905550806004819055506200039f857fffffffffffffffffffffffffffffffffffffffffffffffffffffffffffffffff8973ffffffffffffffffffffffffffffffffffffffff16620003b460201b62003738179092919060201c565b5050505050505062000946565b600033905090565b600081148062000486575060008373ffffffffffffffffffffffffffffffffffffffff1663dd62ed3e30856040518363ffffffff1660e01b8152600401808373ffffffffffffffffffffffffffffffffffffffff1681526020018273ffffffffffffffffffffffffffffffffffffffff1681526020019250505060206040518083038186803b1580156200044757600080fd5b505afa1580156200045c573d6000803e3d6000fd5b505050506040513d60208110156200047357600080fd5b8101908080519060200190929190505050145b620004dd576040517f08c379a0000000000000000000000000000000000000000000000000000000008152600401808060200182810382526036815260200180620057f86036913960400191505060405180910390fd5b620005828363095ea7b360e01b8484604051602401808373ffffffffffffffffffffffffffffffffffffffff16815260200182815260200192505050604051602081830303815290604052907bffffffffffffffffffffffffffffffffffffffffffffffffffffffff19166020820180517bffffffffffffffffffffffffffffffffffffffffffffffffffffffff83818316178352505050506200058760201b60201c565b505050565b6060620005f0826040518060400160405280602081526020017f5361666545524332303a206c6f772d6c6576656c2063616c6c206661696c65648152508573ffffffffffffffffffffffffffffffffffffffff166200068160201b620038fd179092919060201c565b90506000815111156200067c578080602001905160208110156200061357600080fd5b81019080805190602001909291905050506200067b576040517f08c379a000000000000000000000000000000000000000000000000000000000815260040180806020018281038252602a815260200180620057ac602a913960400191505060405180910390fd5b5b505050565b6060620006988484600085620006a160201b60201c565b90509392505050565b606082471015620006fe576040517f08c379a0000000000000000000000000000000000000000000000000000000008152600401808060200182810382526026815260200180620057866026913960400191505060405180910390fd5b6200070f856200086160201b60201c565b62000782576040517f08c379a000000000000000000000000000000000000000000000000000000000815260040180806020018281038252601d8152602001807f416464726573733a2063616c6c20746f206e6f6e2d636f6e747261637400000081525060200191505060405180910390fd5b600060608673ffffffffffffffffffffffffffffffffffffffff1685876040518082805190602001908083835b60208310620007d45780518252602082019150602081019050602083039250620007af565b6001836020036101000a03801982511681845116808217855250505050505090500191505060006040518083038185875af1925050503d806000811462000838576040519150601f19603f3d011682016040523d82523d6000602084013e6200083d565b606091505b5091509150620008558282866200087460201b60201c565b92505050949350505050565b600080823b905060008111915050919050565b6060831562000886578290506200093f565b6000835111156200089a5782518084602001fd5b816040517f08c379a00000000000000000000000000000000000000000000000000000000081526004018080602001828103825283818151815260200191508051906020019080838360005b8381101562000903578082015181840152602081019050620008e6565b50505050905090810190601f168015620009315780820380516001836020036101000a031916815260200191505b509250505060405180910390fd5b9392505050565b60805160601c60a05160601c60c05160601c614d85620009db60003980611159528061172a5280611a235280611f7d528061265d5280612e1d52806136f25280613e95528061445552508061319a528061332052508061129d528061136a528061182852806118a0528061195352806120585280612aad52806130f552806137165280614599528061465b5250614d856000f3fe608060405234801561001057600080fd5b50600436106102895760003560e01c8063853828b61161015c578063dad6f0dc116100ce578063ec78e83211610087578063ec78e83214610895578063f0f44260146108c9578063f2fde38b1461090d578063f851a44014610951578063fb1db27814610985578063fc0c546a146109b957610289565b8063dad6f0dc146107a9578063db2e21bc14610801578063dd1917191461080b578063def68a9c14610815578063df10b4e614610859578063e941fa781461087757610289565b80639d72596b116101205780639d72596b146106d5578063b60f0531146106f3578063b6ac642a14610711578063b6b55f251461073f578063bdca91651461076d578063d4b0de2f1461078b57610289565b8063853828b614610623578063877887821461062d5780638da5cb5b1461064b57806390321e1a1461067f5780639513997f1461069d57610289565b80634641257d11610200578063704b6c02116101b9578063704b6c021461056157806370897b23146105a5578063715018a6146105d3578063722713f7146105dd57806377c7b8fc146105fb5780638456cb591461061957610289565b80634641257d146104a957806348a0d754146104b357806348cd4cb1146104d157806358ebceb6146104ef5780635c975abb1461050d57806361d027b31461052d57610289565b8063264658261161025257806326465826146103e95780632ad5a53f146104175780632cfc5f01146104355780632e1a7d4d146104535780633a98ef39146104815780633f4ba83a1461049f57610289565b80626f02311461028e57806306f5a745146102bc578063083c6323146103305780631959a0021461034e5780631efac1b8146103bb575b600080fd5b6102ba600480360360208110156102a457600080fd5b81019080803590602001909291905050506109ed565b005b6102fe600480360360208110156102d257600080fd5b81019080803573ffffffffffffffffffffffffffffffffffffffff169060200190929190505050610ba3565b604051808681526020018581526020018481526020018381526020018281526020019550505050505060405180910390f35b610338610bd9565b6040518082815260200191505060405180910390f35b6103906004803603602081101561036457600080fd5b81019080803573ffffffffffffffffffffffffffffffffffffffff169060200190929190505050610bdf565b6040518085815260200184815260200183815260200182815260200194505050505060405180910390f35b6103e7600480360360208110156103d157600080fd5b8101908080359060200190929190505050610c0f565b005b610415600480360360208110156103ff57600080fd5b8101908080359060200190929190505050610d38565b005b61041f610e5f565b6040518082815260200191505060405180910390f35b61043d610e64565b6040518082815260200191505060405180910390f35b61047f6004803603602081101561046957600080fd5b8101908080359060200190929190505050610e6b565b005b61048961140b565b6040518082815260200191505060405180910390f35b6104a7611411565b005b6104b1611584565b005b6104bb61194f565b6040518082815260200191505060405180910390f35b6104d9611a18565b6040518082815260200191505060405180910390f35b6104f7611a1e565b6040518082815260200191505060405180910390f35b610515611b11565b60405180821515815260200191505060405180910390f35b610535611b27565b604051808273ffffffffffffffffffffffffffffffffffffffff16815260200191505060405180910390f35b6105a36004803603602081101561057757600080fd5b81019080803573ffffffffffffffffffffffffffffffffffffffff169060200190929190505050611b4d565b005b6105d1600480360360208110156105bb57600080fd5b8101908080359060200190929190505050611ce3565b005b6105db611e0b565b005b6105e5611f78565b6040518082815260200191505060405180910390f35b61060361212c565b6040518082815260200191505060405180910390f35b610621612181565b005b61062b6122f5565b005b61063561245f565b6040518082815260200191505060405180910390f35b610653612465565b604051808273ffffffffffffffffffffffffffffffffffffffff16815260200191505060405180910390f35b61068761248e565b6040518082815260200191505060405180910390f35b6106d3600480360360408110156106b357600080fd5b810190808035906020019092919080359060200190929190505050612494565b005b6106dd612658565b6040518082815260200191505060405180910390f35b6106fb61275d565b6040518082815260200191505060405180910390f35b61073d6004803603602081101561072757600080fd5b8101908080359060200190929190505050612763565b005b61076b6004803603602081101561075557600080fd5b810190808035906020019092919050505061288b565b005b610775612cc8565b6040518082815260200191505060405180910390f35b610793612cce565b6040518082815260200191505060405180910390f35b6107eb600480360360208110156107bf57600080fd5b81019080803573ffffffffffffffffffffffffffffffffffffffff169060200190929190505050612cd4565b6040518082815260200191505060405180910390f35b610809612d58565b005b610813612ebe565b005b6108576004803603602081101561082b57600080fd5b81019080803573ffffffffffffffffffffffffffffffffffffffff169060200190929190505050613030565b005b610861613312565b6040518082815260200191505060405180910390f35b61087f613318565b6040518082815260200191505060405180910390f35b61089d61331e565b604051808273ffffffffffffffffffffffffffffffffffffffff16815260200191505060405180910390f35b61090b600480360360208110156108df57600080fd5b81019080803573ffffffffffffffffffffffffffffffffffffffff169060200190929190505050613342565b005b61094f6004803603602081101561092357600080fd5b81019080803573ffffffffffffffffffffffffffffffffffffffff1690602001909291905050506134d8565b005b6109596136ca565b604051808273ffffffffffffffffffffffffffffffffffffffff16815260200191505060405180910390f35b61098d6136f0565b604051808273ffffffffffffffffffffffffffffffffffffffff16815260200191505060405180910390f35b6109c1613714565b604051808273ffffffffffffffffffffffffffffffffffffffff16815260200191505060405180910390f35b600760009054906101000a900473ffffffffffffffffffffffffffffffffffffffff1673ffffffffffffffffffffffffffffffffffffffff163373ffffffffffffffffffffffffffffffffffffffff1614610ab0576040517f08c379a000000000000000000000000000000000000000000000000000000000815260040180806020018281038252600b8152602001807f61646d696e3a207775743f00000000000000000000000000000000000000000081525060200191505060405180910390fd5b804310610b08576040517f08c379a0000000000000000000000000000000000000000000000000000000008152600401808060200182810382526028815260200180614bb06028913960400191505060405180910390fd5b6004544310610b62576040517f08c379a0000000000000000000000000000000000000000000000000000000008152600401808060200182810382526028815260200180614c986028913960400191505060405180910390fd5b806004819055507f72a01621587849e39c667eb81696643997f818c6c286614cd1497e5ef2e9ecd6816040518082815260200191505060405180910390a150565b60026020528060005260406000206000915090508060000154908060010154908060020154908060030154908060040154905085565b60045481565b60016020528060005260406000206000915090508060000154908060010154908060020154908060030154905084565b600760009054906101000a900473ffffffffffffffffffffffffffffffffffffffff1673ffffffffffffffffffffffffffffffffffffffff163373ffffffffffffffffffffffffffffffffffffffff1614610cd2576040517f08c379a000000000000000000000000000000000000000000000000000000000815260040180806020018281038252600b8152602001807f61646d696e3a207775743f00000000000000000000000000000000000000000081525060200191505060405180910390fd5b62093a80811115610d2e576040517f08c379a000000000000000000000000000000000000000000000000000000000815260040180806020018281038252603d815260200180614c5b603d913960400191505060405180910390fd5b80600c8190555050565b600760009054906101000a900473ffffffffffffffffffffffffffffffffffffffff1673ffffffffffffffffffffffffffffffffffffffff163373ffffffffffffffffffffffffffffffffffffffff1614610dfb576040517f08c379a000000000000000000000000000000000000000000000000000000000815260040180806020018281038252600b8152602001807f61646d696e3a207775743f00000000000000000000000000000000000000000081525060200191505060405180910390fd5b6064811115610e55576040517f08c379a0000000000000000000000000000000000000000000000000000000008152600401808060200182810382526028815260200180614b526028913960400191505060405180910390fd5b80600a8190555050565b606481565b62093a8081565b610e7433613915565b15610ee7576040517f08c379a00000000000000000000000000000000000000000000000000000000081526004018080602001828103825260148152602001807f636f6e7472616374206e6f7420616c6c6f77656400000000000000000000000081525060200191505060405180910390fd5b3273ffffffffffffffffffffffffffffffffffffffff163373ffffffffffffffffffffffffffffffffffffffff1614610f88576040517f08c379a000000000000000000000000000000000000000000000000000000000815260040180806020018281038252601a8152602001807f70726f787920636f6e7472616374206e6f7420616c6c6f77656400000000000081525060200191505060405180910390fd5b6000600160003373ffffffffffffffffffffffffffffffffffffffff1673ffffffffffffffffffffffffffffffffffffffff168152602001908152602001600020905060008211611041576040517f08c379a00000000000000000000000000000000000000000000000000000000081526004018080602001828103825260138152602001807f4e6f7468696e6720746f2077697468647261770000000000000000000000000081525060200191505060405180910390fd5b80600001548211156110bb576040517f08c379a000000000000000000000000000000000000000000000000000000000815260040180806020018281038252601f8152602001807f576974686472617720616d6f756e7420657863656564732062616c616e63650081525060200191505060405180910390fd5b60006110eb6005546110dd856110cf611f78565b61392890919063ffffffff16565b6139ae90919063ffffffff16565b90506000819050611109848460000154613a3790919063ffffffff16565b836000018190555061112684600554613a3790919063ffffffff16565b600581905550600061113661194f565b9050828110156112275760006111558285613a3790919063ffffffff16565b90507f000000000000000000000000000000000000000000000000000000000000000073ffffffffffffffffffffffffffffffffffffffff16631058d281826040518263ffffffff1660e01b815260040180828152602001915050600060405180830381600087803b1580156111ca57600080fd5b505af11580156111de573d6000803e3d6000fd5b5050505060006111ec61194f565b905060006112038483613a3790919063ffffffff16565b905082811015611223576112208185613aba90919063ffffffff16565b95505b5050505b611240600c548560010154613aba90919063ffffffff16565b4210156112f8576000611272612710611264600b548761392890919063ffffffff16565b6139ae90919063ffffffff16565b90506112e1600860009054906101000a900473ffffffffffffffffffffffffffffffffffffffff16827f000000000000000000000000000000000000000000000000000000000000000073ffffffffffffffffffffffffffffffffffffffff16613b429092919063ffffffff16565b6112f48185613a3790919063ffffffff16565b9350505b60008460000154111561134457611337600554611329611316611f78565b876000015461392890919063ffffffff16565b6139ae90919063ffffffff16565b846002018190555061134f565b600084600201819055505b428460030181905550611363826001613be4565b6113ae33847f000000000000000000000000000000000000000000000000000000000000000073ffffffffffffffffffffffffffffffffffffffff16613b429092919063ffffffff16565b3373ffffffffffffffffffffffffffffffffffffffff167ff279e6a1f5e320cca91135676d9cb6e44ca8a08c0b88342bcdb1144f6511b5688487604051808381526020018281526020019250505060405180910390a25050505050565b60055481565b600760009054906101000a900473ffffffffffffffffffffffffffffffffffffffff1673ffffffffffffffffffffffffffffffffffffffff163373ffffffffffffffffffffffffffffffffffffffff16146114d4576040517f08c379a000000000000000000000000000000000000000000000000000000000815260040180806020018281038252600b8152602001807f61646d696e3a207775743f00000000000000000000000000000000000000000081525060200191505060405180910390fd5b6114dc611b11565b61154e576040517f08c379a00000000000000000000000000000000000000000000000000000000081526004018080602001828103825260148152602001807f5061757361626c653a206e6f742070617573656400000000000000000000000081525060200191505060405180910390fd5b611556613d94565b7f7805862f689e2f13df9f062ff482ad3ad112aca9e0847911ed832e158c525b3360405160405180910390a1565b61158d33613915565b15611600576040517f08c379a00000000000000000000000000000000000000000000000000000000081526004018080602001828103825260148152602001807f636f6e7472616374206e6f7420616c6c6f77656400000000000000000000000081525060200191505060405180910390fd5b3273ffffffffffffffffffffffffffffffffffffffff163373ffffffffffffffffffffffffffffffffffffffff16146116a1576040517f08c379a000000000000000000000000000000000000000000000000000000000815260040180806020018281038252601a8152602001807f70726f787920636f6e7472616374206e6f7420616c6c6f77656400000000000081525060200191505060405180910390fd5b6116a9611b11565b1561171c576040517f08c379a00000000000000000000000000000000000000000000000000000000081526004018080602001828103825260108152602001807f5061757361626c653a207061757365640000000000000000000000000000000081525060200191505060405180910390fd5b600061172661194f565b90507f000000000000000000000000000000000000000000000000000000000000000073ffffffffffffffffffffffffffffffffffffffff16631058d28160006040518263ffffffff1660e01b815260040180828152602001915050600060405180830381600087803b15801561179c57600080fd5b505af11580156117b0573d6000803e3d6000fd5b5050505060006117d0826117c261194f565b613a3790919063ffffffff16565b905060006117fd6127106117ef6009548561392890919063ffffffff16565b6139ae90919063ffffffff16565b905061186c600860009054906101000a900473ffffffffffffffffffffffffffffffffffffffff16827f000000000000000000000000000000000000000000000000000000000000000073ffffffffffffffffffffffffffffffffffffffff16613b429092919063ffffffff16565b6000611897612710611889600a548661392890919063ffffffff16565b6139ae90919063ffffffff16565b90506118e433827f000000000000000000000000000000000000000000000000000000000000000073ffffffffffffffffffffffffffffffffffffffff16613b429092919063ffffffff16565b6118ec613e7e565b426006819055503373ffffffffffffffffffffffffffffffffffffffff167f71bab65ced2e5750775a0613be067df48ef06cf92a496ebf7663ae06609249548383604051808381526020018281526020019250505060405180910390a250505050565b60007f000000000000000000000000000000000000000000000000000000000000000073ffffffffffffffffffffffffffffffffffffffff166370a08231306040518263ffffffff1660e01b8152600401808273ffffffffffffffffffffffffffffffffffffffff16815260200191505060206040518083038186803b1580156119d857600080fd5b505afa1580156119ec573d6000803e3d6000fd5b505050506040513d6020811015611a0257600080fd5b8101908080519060200190929190505050905090565b60035481565b6000807f000000000000000000000000000000000000000000000000000000000000000073ffffffffffffffffffffffffffffffffffffffff16631175a1dd6000306040518363ffffffff1660e01b8152600401808381526020018273ffffffffffffffffffffffffffffffffffffffff1681526020019250505060206040518083038186803b158015611ab157600080fd5b505afa158015611ac5573d6000803e3d6000fd5b505050506040513d6020811015611adb57600080fd5b81019080805190602001909291905050509050611b08611af961194f565b82613aba90919063ffffffff16565b90508091505090565b60008060149054906101000a900460ff16905090565b600860009054906101000a900473ffffffffffffffffffffffffffffffffffffffff1681565b611b55613f22565b73ffffffffffffffffffffffffffffffffffffffff16611b73612465565b73ffffffffffffffffffffffffffffffffffffffff1614611bfc576040517f08c379a00000000000000000000000000000000000000000000000000000000081526004018080602001828103825260208152602001807f4f776e61626c653a2063616c6c6572206973206e6f7420746865206f776e657281525060200191505060405180910390fd5b600073ffffffffffffffffffffffffffffffffffffffff168173ffffffffffffffffffffffffffffffffffffffff161415611c9f576040517f08c379a00000000000000000000000000000000000000000000000000000000081526004018080602001828103825260168152602001807f43616e6e6f74206265207a65726f20616464726573730000000000000000000081525060200191505060405180910390fd5b80600760006101000a81548173ffffffffffffffffffffffffffffffffffffffff021916908373ffffffffffffffffffffffffffffffffffffffff16021790555050565b600760009054906101000a900473ffffffffffffffffffffffffffffffffffffffff1673ffffffffffffffffffffffffffffffffffffffff163373ffffffffffffffffffffffffffffffffffffffff1614611da6576040517f08c379a000000000000000000000000000000000000000000000000000000000815260040180806020018281038252600b8152602001807f61646d696e3a207775743f00000000000000000000000000000000000000000081525060200191505060405180910390fd5b610258811115611e01576040517f08c379a0000000000000000000000000000000000000000000000000000000008152600401808060200182810382526036815260200180614b7a6036913960400191505060405180910390fd5b8060098190555050565b611e13613f22565b73ffffffffffffffffffffffffffffffffffffffff16611e31612465565b73ffffffffffffffffffffffffffffffffffffffff1614611eba576040517f08c379a00000000000000000000000000000000000000000000000000000000081526004018080602001828103825260208152602001807f4f776e61626c653a2063616c6c6572206973206e6f7420746865206f776e657281525060200191505060405180910390fd5b600073ffffffffffffffffffffffffffffffffffffffff1660008054906101000a900473ffffffffffffffffffffffffffffffffffffffff1673ffffffffffffffffffffffffffffffffffffffff167f8be0079c531659141344cd1fd0a4f28419497f9722a3daafe3b4186f6b6457e060405160405180910390a360008060006101000a81548173ffffffffffffffffffffffffffffffffffffffff021916908373ffffffffffffffffffffffffffffffffffffffff160217905550565b6000807f000000000000000000000000000000000000000000000000000000000000000073ffffffffffffffffffffffffffffffffffffffff166393f1a40b6000306040518363ffffffff1660e01b8152600401808381526020018273ffffffffffffffffffffffffffffffffffffffff16815260200192505050604080518083038186803b15801561200a57600080fd5b505afa15801561201e573d6000803e3d6000fd5b505050506040513d604081101561203457600080fd5b810190808051906020019092919080519060200190929190505050509050612126817f000000000000000000000000000000000000000000000000000000000000000073ffffffffffffffffffffffffffffffffffffffff166370a08231306040518263ffffffff1660e01b8152600401808273ffffffffffffffffffffffffffffffffffffffff16815260200191505060206040518083038186803b1580156120dd57600080fd5b505afa1580156120f1573d6000803e3d6000fd5b505050506040513d602081101561210757600080fd5b8101908080519060200190929190505050613aba90919063ffffffff16565b91505090565b600080600554146121725761216d60055461215f670de0b6b3a7640000612151611f78565b61392890919063ffffffff16565b6139ae90919063ffffffff16565b61217c565b670de0b6b3a76400005b905090565b600760009054906101000a900473ffffffffffffffffffffffffffffffffffffffff1673ffffffffffffffffffffffffffffffffffffffff163373ffffffffffffffffffffffffffffffffffffffff1614612244576040517f08c379a000000000000000000000000000000000000000000000000000000000815260040180806020018281038252600b8152602001807f61646d696e3a207775743f00000000000000000000000000000000000000000081525060200191505060405180910390fd5b61224c611b11565b156122bf576040517f08c379a00000000000000000000000000000000000000000000000000000000081526004018080602001828103825260108152602001807f5061757361626c653a207061757365640000000000000000000000000000000081525060200191505060405180910390fd5b6122c7613f2a565b7f6985a02210a168e66602d3235cb6db0e70f92b3ba4d376a33c0f3d9434bff62560405160405180910390a1565b6122fe33613915565b15612371576040517f08c379a00000000000000000000000000000000000000000000000000000000081526004018080602001828103825260148152602001807f636f6e7472616374206e6f7420616c6c6f77656400000000000000000000000081525060200191505060405180910390fd5b3273ffffffffffffffffffffffffffffffffffffffff163373ffffffffffffffffffffffffffffffffffffffff1614612412576040517f08c379a000000000000000000000000000000000000000000000000000000000815260040180806020018281038252601a8152602001807f70726f787920636f6e7472616374206e6f7420616c6c6f77656400000000000081525060200191505060405180910390fd5b61245d600160003373ffffffffffffffffffffffffffffffffffffffff1673ffffffffffffffffffffffffffffffffffffffff16815260200190815260200160002060000154610e6b565b565b60095481565b60008060009054906101000a900473ffffffffffffffffffffffffffffffffffffffff16905090565b600a5481565b600760009054906101000a900473ffffffffffffffffffffffffffffffffffffffff1673ffffffffffffffffffffffffffffffffffffffff163373ffffffffffffffffffffffffffffffffffffffff1614612557576040517f08c379a000000000000000000000000000000000000000000000000000000000815260040180806020018281038252600b8152602001807f61646d696e3a207775743f00000000000000000000000000000000000000000081525060200191505060405180910390fd5b8143106125af576040517f08c379a0000000000000000000000000000000000000000000000000000000008152600401808060200182810382526034815260200180614c276034913960400191505060405180910390fd5b808210612607576040517f08c379a000000000000000000000000000000000000000000000000000000000815260040180806020018281038252602e815260200180614ad9602e913960400191505060405180910390fd5b81600381905550806004819055507f053462fec8f17a9d662e3778a6027b6c0c1ac0da2390a991aa33cb3aa60cae4e8282604051808381526020018281526020019250505060405180910390a15050565b6000807f000000000000000000000000000000000000000000000000000000000000000073ffffffffffffffffffffffffffffffffffffffff16631175a1dd6000306040518363ffffffff1660e01b8152600401808381526020018273ffffffffffffffffffffffffffffffffffffffff1681526020019250505060206040518083038186803b1580156126eb57600080fd5b505afa1580156126ff573d6000803e3d6000fd5b505050506040513d602081101561271557600080fd5b810190808051906020019092919050505090506000612753612710612745600a548561392890919063ffffffff16565b6139ae90919063ffffffff16565b9050809250505090565b60065481565b600760009054906101000a900473ffffffffffffffffffffffffffffffffffffffff1673ffffffffffffffffffffffffffffffffffffffff163373ffffffffffffffffffffffffffffffffffffffff1614612826576040517f08c379a000000000000000000000000000000000000000000000000000000000815260040180806020018281038252600b8152602001807f61646d696e3a207775743f00000000000000000000000000000000000000000081525060200191505060405180910390fd5b610190811115612881576040517f08c379a0000000000000000000000000000000000000000000000000000000008152600401808060200182810382526030815260200180614cea6030913960400191505060405180910390fd5b80600b8190555050565b612893611b11565b15612906576040517f08c379a00000000000000000000000000000000000000000000000000000000081526004018080602001828103825260108152602001807f5061757361626c653a207061757365640000000000000000000000000000000081525060200191505060405180910390fd5b61290f33613915565b15612982576040517f08c379a00000000000000000000000000000000000000000000000000000000081526004018080602001828103825260148152602001807f636f6e7472616374206e6f7420616c6c6f77656400000000000000000000000081525060200191505060405180910390fd5b3273ffffffffffffffffffffffffffffffffffffffff163373ffffffffffffffffffffffffffffffffffffffff1614612a23576040517f08c379a000000000000000000000000000000000000000000000000000000000815260040180806020018281038252601a8152602001807f70726f787920636f6e7472616374206e6f7420616c6c6f77656400000000000081525060200191505060405180910390fd5b60008111612a99576040517f08c379a00000000000000000000000000000000000000000000000000000000081526004018080602001828103825260128152602001807f4e6f7468696e6720746f206465706f736974000000000000000000000000000081525060200191505060405180910390fd5b6000612aa3611f78565b9050612af23330847f000000000000000000000000000000000000000000000000000000000000000073ffffffffffffffffffffffffffffffffffffffff16614016909392919063ffffffff16565b60008060055414612b2b57612b2482612b166005548661392890919063ffffffff16565b6139ae90919063ffffffff16565b9050612b2f565b8290505b60008111612b88576040517f08c379a000000000000000000000000000000000000000000000000000000000815260040180806020018281038252602e815260200180614bf9602e913960400191505060405180910390fd5b6000600160003373ffffffffffffffffffffffffffffffffffffffff1673ffffffffffffffffffffffffffffffffffffffff1681526020019081526020016000209050612be2828260000154613aba90919063ffffffff16565b8160000181905550428160010181905550612c0882600554613aba90919063ffffffff16565b600581905550612c40600554612c32612c1f611f78565b846000015461392890919063ffffffff16565b6139ae90919063ffffffff16565b8160020181905550428160030181905550612c5c846000613be4565b612c64613e7e565b3373ffffffffffffffffffffffffffffffffffffffff167f36af321ec8d3c75236829c5317affd40ddb308863a1236d2d277a4025cccee1e85844260405180848152602001838152602001828152602001935050505060405180910390a250505050565b61025881565b61019081565b600080600260008473ffffffffffffffffffffffffffffffffffffffff1673ffffffffffffffffffffffffffffffffffffffff1681526020019081526020016000209050612d206140d7565b15612d4d57612d46816002015482600301548360000154846001015485600401546140e3565b9150612d52565b600091505b50919050565b600760009054906101000a900473ffffffffffffffffffffffffffffffffffffffff1673ffffffffffffffffffffffffffffffffffffffff163373ffffffffffffffffffffffffffffffffffffffff1614612e1b576040517f08c379a000000000000000000000000000000000000000000000000000000000815260040180806020018281038252600b8152602001807f61646d696e3a207775743f00000000000000000000000000000000000000000081525060200191505060405180910390fd5b7f000000000000000000000000000000000000000000000000000000000000000073ffffffffffffffffffffffffffffffffffffffff16635312ea8e60006040518263ffffffff1660e01b815260040180828152602001915050600060405180830381600087803b158015612e8f57600080fd5b505af1158015612ea3573d6000803e3d6000fd5b50505050612eaf611b11565b612ebc57612ebb613f2a565b5b565b612ec733613915565b15612f3a576040517f08c379a00000000000000000000000000000000000000000000000000000000081526004018080602001828103825260148152602001807f636f6e7472616374206e6f7420616c6c6f77656400000000000000000000000081525060200191505060405180910390fd5b3273ffffffffffffffffffffffffffffffffffffffff163373ffffffffffffffffffffffffffffffffffffffff1614612fdb576040517f08c379a000000000000000000000000000000000000000000000000000000000815260040180806020018281038252601a8152602001807f70726f787920636f6e7472616374206e6f7420616c6c6f77656400000000000081525060200191505060405180910390fd5b612fe36141c3565b61302e600160003373ffffffffffffffffffffffffffffffffffffffff1673ffffffffffffffffffffffffffffffffffffffff16815260200190815260200160002060000154614289565b565b600760009054906101000a900473ffffffffffffffffffffffffffffffffffffffff1673ffffffffffffffffffffffffffffffffffffffff163373ffffffffffffffffffffffffffffffffffffffff16146130f3576040517f08c379a000000000000000000000000000000000000000000000000000000000815260040180806020018281038252600b8152602001807f61646d696e3a207775743f00000000000000000000000000000000000000000081525060200191505060405180910390fd5b7f000000000000000000000000000000000000000000000000000000000000000073ffffffffffffffffffffffffffffffffffffffff168173ffffffffffffffffffffffffffffffffffffffff161415613198576040517f08c379a0000000000000000000000000000000000000000000000000000000008152600401808060200182810382526025815260200180614ab46025913960400191505060405180910390fd5b7f000000000000000000000000000000000000000000000000000000000000000073ffffffffffffffffffffffffffffffffffffffff168173ffffffffffffffffffffffffffffffffffffffff16141561323d576040517f08c379a0000000000000000000000000000000000000000000000000000000008152600401808060200182810382526025815260200180614b2d6025913960400191505060405180910390fd5b60008173ffffffffffffffffffffffffffffffffffffffff166370a08231306040518263ffffffff1660e01b8152600401808273ffffffffffffffffffffffffffffffffffffffff16815260200191505060206040518083038186803b1580156132a657600080fd5b505afa1580156132ba573d6000803e3d6000fd5b505050506040513d60208110156132d057600080fd5b8101908080519060200190929190505050905061330e33828473ffffffffffffffffffffffffffffffffffffffff16613b429092919063ffffffff16565b5050565b600c5481565b600b5481565b7f000000000000000000000000000000000000000000000000000000000000000081565b61334a613f22565b73ffffffffffffffffffffffffffffffffffffffff16613368612465565b73ffffffffffffffffffffffffffffffffffffffff16146133f1576040517f08c379a00000000000000000000000000000000000000000000000000000000081526004018080602001828103825260208152602001807f4f776e61626c653a2063616c6c6572206973206e6f7420746865206f776e657281525060200191505060405180910390fd5b600073ffffffffffffffffffffffffffffffffffffffff168173ffffffffffffffffffffffffffffffffffffffff161415613494576040517f08c379a00000000000000000000000000000000000000000000000000000000081526004018080602001828103825260168152602001807f43616e6e6f74206265207a65726f20616464726573730000000000000000000081525060200191505060405180910390fd5b80600860006101000a81548173ffffffffffffffffffffffffffffffffffffffff021916908373ffffffffffffffffffffffffffffffffffffffff16021790555050565b6134e0613f22565b73ffffffffffffffffffffffffffffffffffffffff166134fe612465565b73ffffffffffffffffffffffffffffffffffffffff1614613587576040517f08c379a00000000000000000000000000000000000000000000000000000000081526004018080602001828103825260208152602001807f4f776e61626c653a2063616c6c6572206973206e6f7420746865206f776e657281525060200191505060405180910390fd5b600073ffffffffffffffffffffffffffffffffffffffff168173ffffffffffffffffffffffffffffffffffffffff16141561360d576040517f08c379a0000000000000000000000000000000000000000000000000000000008152600401808060200182810382526026815260200180614a8e6026913960400191505060405180910390fd5b8073ffffffffffffffffffffffffffffffffffffffff1660008054906101000a900473ffffffffffffffffffffffffffffffffffffffff1673ffffffffffffffffffffffffffffffffffffffff167f8be0079c531659141344cd1fd0a4f28419497f9722a3daafe3b4186f6b6457e060405160405180910390a3806000806101000a81548173ffffffffffffffffffffffffffffffffffffffff021916908373ffffffffffffffffffffffffffffffffffffffff16021790555050565b600760009054906101000a900473ffffffffffffffffffffffffffffffffffffffff1681565b7f000000000000000000000000000000000000000000000000000000000000000081565b7f000000000000000000000000000000000000000000000000000000000000000081565b6000811480613806575060008373ffffffffffffffffffffffffffffffffffffffff1663dd62ed3e30856040518363ffffffff1660e01b8152600401808373ffffffffffffffffffffffffffffffffffffffff1681526020018273ffffffffffffffffffffffffffffffffffffffff1681526020019250505060206040518083038186803b1580156137c957600080fd5b505afa1580156137dd573d6000803e3d6000fd5b505050506040513d60208110156137f357600080fd5b8101908080519060200190929190505050145b61385b576040517f08c379a0000000000000000000000000000000000000000000000000000000008152600401808060200182810382526036815260200180614d1a6036913960400191505060405180910390fd5b6138f88363095ea7b360e01b8484604051602401808373ffffffffffffffffffffffffffffffffffffffff16815260200182815260200192505050604051602081830303815290604052907bffffffffffffffffffffffffffffffffffffffffffffffffffffffff19166020820180517bffffffffffffffffffffffffffffffffffffffffffffffffffffffff83818316178352505050506146fb565b505050565b606061390c84846000856147ea565b90509392505050565b600080823b905060008111915050919050565b60008083141561393b57600090506139a8565b600082840290508284828161394c57fe5b04146139a3576040517f08c379a0000000000000000000000000000000000000000000000000000000008152600401808060200182810382526021815260200180614bd86021913960400191505060405180910390fd5b809150505b92915050565b6000808211613a25576040517f08c379a000000000000000000000000000000000000000000000000000000000815260040180806020018281038252601a8152602001807f536166654d6174683a206469766973696f6e206279207a65726f00000000000081525060200191505060405180910390fd5b818381613a2e57fe5b04905092915050565b600082821115613aaf576040517f08c379a000000000000000000000000000000000000000000000000000000000815260040180806020018281038252601e8152602001807f536166654d6174683a207375627472616374696f6e206f766572666c6f77000081525060200191505060405180910390fd5b818303905092915050565b600080828401905083811015613b38576040517f08c379a000000000000000000000000000000000000000000000000000000000815260040180806020018281038252601b8152602001807f536166654d6174683a206164646974696f6e206f766572666c6f77000000000081525060200191505060405180910390fd5b8091505092915050565b613bdf8363a9059cbb60e01b8484604051602401808373ffffffffffffffffffffffffffffffffffffffff16815260200182815260200192505050604051602081830303815290604052907bffffffffffffffffffffffffffffffffffffffffffffffffffffffff19166020820180517bffffffffffffffffffffffffffffffffffffffffffffffffffffffff83818316178352505050506146fb565b505050565b6000600260003373ffffffffffffffffffffffffffffffffffffffff1673ffffffffffffffffffffffffffffffffffffffff16815260200190815260200160002090506000613c316140d7565b15613c5c57613c57826002015483600301548460000154856001015486600401546140e3565b613c5f565b60005b9050600180811115613c6d57fe5b836001811115613c7957fe5b1415613cb65781600001548411613ca657613ca1848360000154613a3790919063ffffffff16565b613ca9565b60005b8260000181905550613cd6565b613ccd848360000154613aba90919063ffffffff16565b82600001819055505b613cde614993565b15613cfa57816000015482600101819055504382600301819055505b8082600401819055504382600201819055503373ffffffffffffffffffffffffffffffffffffffff167f6a9632041d5ad6a474679da2ac648103e26069c6e77dca5f3675d3fdcbe1ac1783600401548460000154856001015486600201548760030154604051808681526020018581526020018481526020018381526020018281526020019550505050505060405180910390a250505050565b613d9c611b11565b613e0e576040517f08c379a00000000000000000000000000000000000000000000000000000000081526004018080602001828103825260148152602001807f5061757361626c653a206e6f742070617573656400000000000000000000000081525060200191505060405180910390fd5b60008060146101000a81548160ff0219169083151502179055507f5db9ee0a495bf2e6ff9c91a7834c1ba4fdd244a5e8aa4e537bd38aeae4b073aa613e51613f22565b604051808273ffffffffffffffffffffffffffffffffffffffff16815260200191505060405180910390a1565b6000613e8861194f565b90506000811115613f1f577f000000000000000000000000000000000000000000000000000000000000000073ffffffffffffffffffffffffffffffffffffffff166341441d3b826040518263ffffffff1660e01b815260040180828152602001915050600060405180830381600087803b158015613f0657600080fd5b505af1158015613f1a573d6000803e3d6000fd5b505050505b50565b600033905090565b613f32611b11565b15613fa5576040517f08c379a00000000000000000000000000000000000000000000000000000000081526004018080602001828103825260108152602001807f5061757361626c653a207061757365640000000000000000000000000000000081525060200191505060405180910390fd5b6001600060146101000a81548160ff0219169083151502179055507f62e78cea01bee320cd4e420270b5ea74000d11b0c9f74754ebdbfc544b05a258613fe9613f22565b604051808273ffffffffffffffffffffffffffffffffffffffff16815260200191505060405180910390a1565b6140d1846323b872dd60e01b858585604051602401808473ffffffffffffffffffffffffffffffffffffffff1681526020018373ffffffffffffffffffffffffffffffffffffffff1681526020018281526020019350505050604051602081830303815290604052907bffffffffffffffffffffffffffffffffffffffffffffffffffffffff19166020820180517bffffffffffffffffffffffffffffffffffffffffffffffffffffffff83818316178352505050506146fb565b50505050565b60006003544311905090565b60008043905060045487106140fb57829150506141ba565b600354861015614112576003549550600092508493505b600454811061412357600454614125565b805b9050600061415061414160035489613a3790919063ffffffff16565b8561392890919063ffffffff16565b9050600061417961416a8985613a3790919063ffffffff16565b8761392890919063ffffffff16565b90506141b461419360035485613a3790919063ffffffff16565b6141a68385613aba90919063ffffffff16565b6139ae90919063ffffffff16565b93505050505b95945050505050565b6000600260003373ffffffffffffffffffffffffffffffffffffffff1673ffffffffffffffffffffffffffffffffffffffff168152602001908152602001600020905060008160000181905550600081600101819055506000816002018190555060008160030181905550600081600401819055503373ffffffffffffffffffffffffffffffffffffffff167f6f66ff41198a141a4e315cd2ff387f32686a6d469da7496ffee40eaf05e4a411436040518082815260200191505060405180910390a250565b6000600160003373ffffffffffffffffffffffffffffffffffffffff1673ffffffffffffffffffffffffffffffffffffffff168152602001908152602001600020905060008211614342576040517f08c379a00000000000000000000000000000000000000000000000000000000081526004018080602001828103825260138152602001807f4e6f7468696e6720746f2077697468647261770000000000000000000000000081525060200191505060405180910390fd5b80600001548211156143bc576040517f08c379a000000000000000000000000000000000000000000000000000000000815260040180806020018281038252601f8152602001807f576974686472617720616d6f756e7420657863656564732062616c616e63650081525060200191505060405180910390fd5b60006143ec6005546143de856143d0611f78565b61392890919063ffffffff16565b6139ae90919063ffffffff16565b9050614405838360000154613a3790919063ffffffff16565b826000018190555061442283600554613a3790919063ffffffff16565b600581905550600061443261194f565b9050818110156145235760006144518284613a3790919063ffffffff16565b90507f000000000000000000000000000000000000000000000000000000000000000073ffffffffffffffffffffffffffffffffffffffff16631058d281826040518263ffffffff1660e01b815260040180828152602001915050600060405180830381600087803b1580156144c657600080fd5b505af11580156144da573d6000803e3d6000fd5b5050505060006144e861194f565b905060006144ff8483613a3790919063ffffffff16565b90508281101561451f5761451c8185613aba90919063ffffffff16565b94505b5050505b61453c600c548460010154613aba90919063ffffffff16565b4210156145f457600061456e612710614560600b548661392890919063ffffffff16565b6139ae90919063ffffffff16565b90506145dd600860009054906101000a900473ffffffffffffffffffffffffffffffffffffffff16827f000000000000000000000000000000000000000000000000000000000000000073ffffffffffffffffffffffffffffffffffffffff16613b429092919063ffffffff16565b6145f08184613a3790919063ffffffff16565b9250505b60008360000154111561464057614633600554614625614612611f78565b866000015461392890919063ffffffff16565b6139ae90919063ffffffff16565b836002018190555061464b565b600083600201819055505b42836003018190555061469f33837f000000000000000000000000000000000000000000000000000000000000000073ffffffffffffffffffffffffffffffffffffffff16613b429092919063ffffffff16565b3373ffffffffffffffffffffffffffffffffffffffff167ff279e6a1f5e320cca91135676d9cb6e44ca8a08c0b88342bcdb1144f6511b5688386604051808381526020018281526020019250505060405180910390a250505050565b606061475d826040518060400160405280602081526020017f5361666545524332303a206c6f772d6c6576656c2063616c6c206661696c65648152508573ffffffffffffffffffffffffffffffffffffffff166138fd9092919063ffffffff16565b90506000815111156147e55780806020019051602081101561477e57600080fd5b81019080805190602001909291905050506147e4576040517f08c379a000000000000000000000000000000000000000000000000000000000815260040180806020018281038252602a815260200180614cc0602a913960400191505060405180910390fd5b5b505050565b606082471015614845576040517f08c379a0000000000000000000000000000000000000000000000000000000008152600401808060200182810382526026815260200180614b076026913960400191505060405180910390fd5b61484e856149ae565b6148c0576040517f08c379a000000000000000000000000000000000000000000000000000000000815260040180806020018281038252601d8152602001807f416464726573733a2063616c6c20746f206e6f6e2d636f6e747261637400000081525060200191505060405180910390fd5b600060608673ffffffffffffffffffffffffffffffffffffffff1685876040518082805190602001908083835b6020831061491057805182526020820191506020810190506020830392506148ed565b6001836020036101000a03801982511681845116808217855250505050505090500191505060006040518083038185875af1925050503d8060008114614972576040519150601f19603f3d011682016040523d82523d6000602084013e614977565b606091505b50915091506149878282866149c1565b92505050949350505050565b600060035443101580156149a957506004544311155b905090565b600080823b905060008111915050919050565b606083156149d157829050614a86565b6000835111156149e45782518084602001fd5b816040517f08c379a00000000000000000000000000000000000000000000000000000000081526004018080602001828103825283818151815260200191508051906020019080838360005b83811015614a4b578082015181840152602081019050614a30565b50505050905090810190601f168015614a785780820380516001836020036101000a031916815260200191505b509250505060405180910390fd5b939250505056fe4f776e61626c653a206e6577206f776e657220697320746865207a65726f2061646472657373546f6b656e2063616e6e6f742062652073616d65206173206465706f73697420746f6b656e4e6577207374617274426c6f636b206d757374206265206c6f776572207468616e206e657720656e64426c6f636b416464726573733a20696e73756666696369656e742062616c616e636520666f722063616c6c546f6b656e2063616e6e6f742062652073616d65206173207265636569707420746f6b656e63616c6c4665652063616e6e6f74206265206d6f7265207468616e204d41585f43414c4c5f464545706572666f726d616e63654665652063616e6e6f74206265206d6f7265207468616e204d41585f504552464f524d414e43455f4645456e657720656e6420626c6f636b2063616e277420626568696e642063757272656e7420626c6f636b536166654d6174683a206d756c7469706c69636174696f6e206f766572666c6f776465706f73697420616d6f756e7420697320746f6f20736d616c6c20746f20616c6c6f6361746520736861726573506f6f6c2063757272656e7420626c6f636b206d757374206265206c6f776572207468616e206e6577207374617274426c6f636b7769746864726177466565506572696f642063616e6e6f74206265206d6f7265207468616e204d41585f57495448445241575f4645455f504552494f446f6c6420656e6420626c6f636b2063616e277420626568696e642063757272656e7420626c6f636b5361666545524332303a204552433230206f7065726174696f6e20646964206e6f74207375636365656477697468647261774665652063616e6e6f74206265206d6f7265207468616e204d41585f57495448445241575f4645455361666545524332303a20617070726f76652066726f6d206e6f6e2d7a65726f20746f206e6f6e2d7a65726f20616c6c6f77616e6365a2646970667358221220402a01c5e6c8f21a32b73e6d16c505953f56e2f9dcf29f78d5e54aff9ffe6c7164736f6c634300060c0033737461727420626c6f636b2063616e277420626568696e642063757272656e7420626c6f636b416464726573733a20696e73756666696369656e742062616c616e636520666f722063616c6c5361666545524332303a204552433230206f7065726174696f6e20646964206e6f742073756363656564656e6420626c6f636b2063616e277420626568696e6420737461727420626c6f636b5361666545524332303a20617070726f76652066726f6d206e6f6e2d7a65726f20746f206e6f6e2d7a65726f20616c6c6f77616e6365",
					"opcodes": "PUSH1 0xE0 PUSH1 0x40 MSTORE PUSH1 0xC8 PUSH1 0x9 SSTORE PUSH1 0x19 PUSH1 0xA SSTORE PUSH1 0xA PUSH1 0xB SSTORE PUSH3 0x3F480 PUSH1 0xC SSTORE CALLVALUE DUP1 ISZERO PUSH3 0x27 JUMPI PUSH1 0x0 DUP1 REVERT JUMPDEST POP PUSH1 0x40 MLOAD PUSH3 0x582E CODESIZE SUB DUP1 PUSH3 0x582E DUP4 CODECOPY DUP2 DUP2 ADD PUSH1 0x40 MSTORE PUSH1 0xE0 DUP2 LT ISZERO PUSH3 0x4D JUMPI PUSH1 0x0 DUP1 REVERT JUMPDEST DUP2 ADD SWAP1 DUP1 DUP1 MLOAD SWAP1 PUSH1 0x20 ADD SWAP1 SWAP3 SWAP2 SWAP1 DUP1 MLOAD SWAP1 PUSH1 0x20 ADD SWAP1 SWAP3 SWAP2 SWAP1 DUP1 MLOAD SWAP1 PUSH1 0x20 ADD SWAP1 SWAP3 SWAP2 SWAP1 DUP1 MLOAD SWAP1 PUSH1 0x20 ADD SWAP1 SWAP3 SWAP2 SWAP1 DUP1 MLOAD SWAP1 PUSH1 0x20 ADD SWAP1 SWAP3 SWAP2 SWAP1 DUP1 MLOAD SWAP1 PUSH1 0x20 ADD SWAP1 SWAP3 SWAP2 SWAP1 DUP1 MLOAD SWAP1 PUSH1 0x20 ADD SWAP1 SWAP3 SWAP2 SWAP1 POP POP POP PUSH1 0x0 PUSH3 0xAC PUSH3 0x3AC PUSH1 0x20 SHL PUSH1 0x20 SHR JUMP JUMPDEST SWAP1 POP DUP1 PUSH1 0x0 DUP1 PUSH2 0x100 EXP DUP2 SLOAD DUP2 PUSH20 0xFFFFFFFFFFFFFFFFFFFFFFFFFFFFFFFFFFFFFFFF MUL NOT AND SWAP1 DUP4 PUSH20 0xFFFFFFFFFFFFFFFFFFFFFFFFFFFFFFFFFFFFFFFF AND MUL OR SWAP1 SSTORE POP DUP1 PUSH20 0xFFFFFFFFFFFFFFFFFFFFFFFFFFFFFFFFFFFFFFFF AND PUSH1 0x0 PUSH20 0xFFFFFFFFFFFFFFFFFFFFFFFFFFFFFFFFFFFFFFFF AND PUSH32 0x8BE0079C531659141344CD1FD0A4F28419497F9722A3DAAFE3B4186F6B6457E0 PUSH1 0x40 MLOAD PUSH1 0x40 MLOAD DUP1 SWAP2 SUB SWAP1 LOG3 POP PUSH1 0x0 DUP1 PUSH1 0x14 PUSH2 0x100 EXP DUP2 SLOAD DUP2 PUSH1 0xFF MUL NOT AND SWAP1 DUP4 ISZERO ISZERO MUL OR SWAP1 SSTORE POP DUP2 NUMBER LT PUSH3 0x1BE JUMPI PUSH1 0x40 MLOAD PUSH32 0x8C379A000000000000000000000000000000000000000000000000000000000 DUP2 MSTORE PUSH1 0x4 ADD DUP1 DUP1 PUSH1 0x20 ADD DUP3 DUP2 SUB DUP3 MSTORE PUSH1 0x26 DUP2 MSTORE PUSH1 0x20 ADD DUP1 PUSH3 0x5760 PUSH1 0x26 SWAP2 CODECOPY PUSH1 0x40 ADD SWAP2 POP POP PUSH1 0x40 MLOAD DUP1 SWAP2 SUB SWAP1 REVERT JUMPDEST DUP1 DUP3 LT PUSH3 0x218 JUMPI PUSH1 0x40 MLOAD PUSH32 0x8C379A000000000000000000000000000000000000000000000000000000000 DUP2 MSTORE PUSH1 0x4 ADD DUP1 DUP1 PUSH1 0x20 ADD DUP3 DUP2 SUB DUP3 MSTORE PUSH1 0x22 DUP2 MSTORE PUSH1 0x20 ADD DUP1 PUSH3 0x57D6 PUSH1 0x22 SWAP2 CODECOPY PUSH1 0x40 ADD SWAP2 POP POP PUSH1 0x40 MLOAD DUP1 SWAP2 SUB SWAP1 REVERT JUMPDEST DUP7 PUSH20 0xFFFFFFFFFFFFFFFFFFFFFFFFFFFFFFFFFFFFFFFF AND PUSH1 0x80 DUP2 PUSH20 0xFFFFFFFFFFFFFFFFFFFFFFFFFFFFFFFFFFFFFFFF AND PUSH1 0x60 SHL DUP2 MSTORE POP POP DUP6 PUSH20 0xFFFFFFFFFFFFFFFFFFFFFFFFFFFFFFFFFFFFFFFF AND PUSH1 0xA0 DUP2 PUSH20 0xFFFFFFFFFFFFFFFFFFFFFFFFFFFFFFFFFFFFFFFF AND PUSH1 0x60 SHL DUP2 MSTORE POP POP DUP5 PUSH20 0xFFFFFFFFFFFFFFFFFFFFFFFFFFFFFFFFFFFFFFFF AND PUSH1 0xC0 DUP2 PUSH20 0xFFFFFFFFFFFFFFFFFFFFFFFFFFFFFFFFFFFFFFFF AND PUSH1 0x60 SHL DUP2 MSTORE POP POP DUP4 PUSH1 0x7 PUSH1 0x0 PUSH2 0x100 EXP DUP2 SLOAD DUP2 PUSH20 0xFFFFFFFFFFFFFFFFFFFFFFFFFFFFFFFFFFFFFFFF MUL NOT AND SWAP1 DUP4 PUSH20 0xFFFFFFFFFFFFFFFFFFFFFFFFFFFFFFFFFFFFFFFF AND MUL OR SWAP1 SSTORE POP DUP3 PUSH1 0x8 PUSH1 0x0 PUSH2 0x100 EXP DUP2 SLOAD DUP2 PUSH20 0xFFFFFFFFFFFFFFFFFFFFFFFFFFFFFFFFFFFFFFFF MUL NOT AND SWAP1 DUP4 PUSH20 0xFFFFFFFFFFFFFFFFFFFFFFFFFFFFFFFFFFFFFFFF AND MUL OR SWAP1 SSTORE POP DUP2 PUSH1 0x3 DUP2 SWAP1 SSTORE POP DUP1 PUSH1 0x4 DUP2 SWAP1 SSTORE POP PUSH3 0x39F DUP6 PUSH32 0xFFFFFFFFFFFFFFFFFFFFFFFFFFFFFFFFFFFFFFFFFFFFFFFFFFFFFFFFFFFFFFFF DUP10 PUSH20 0xFFFFFFFFFFFFFFFFFFFFFFFFFFFFFFFFFFFFFFFF AND PUSH3 0x3B4 PUSH1 0x20 SHL PUSH3 0x3738 OR SWAP1 SWAP3 SWAP2 SWAP1 PUSH1 0x20 SHR JUMP JUMPDEST POP POP POP POP POP POP POP PUSH3 0x946 JUMP JUMPDEST PUSH1 0x0 CALLER SWAP1 POP SWAP1 JUMP JUMPDEST PUSH1 0x0 DUP2 EQ DUP1 PUSH3 0x486 JUMPI POP PUSH1 0x0 DUP4 PUSH20 0xFFFFFFFFFFFFFFFFFFFFFFFFFFFFFFFFFFFFFFFF AND PUSH4 0xDD62ED3E ADDRESS DUP6 PUSH1 0x40 MLOAD DUP4 PUSH4 0xFFFFFFFF AND PUSH1 0xE0 SHL DUP2 MSTORE PUSH1 0x4 ADD DUP1 DUP4 PUSH20 0xFFFFFFFFFFFFFFFFFFFFFFFFFFFFFFFFFFFFFFFF AND DUP2 MSTORE PUSH1 0x20 ADD DUP3 PUSH20 0xFFFFFFFFFFFFFFFFFFFFFFFFFFFFFFFFFFFFFFFF AND DUP2 MSTORE PUSH1 0x20 ADD SWAP3 POP POP POP PUSH1 0x20 PUSH1 0x40 MLOAD DUP1 DUP4 SUB DUP2 DUP7 DUP1 EXTCODESIZE ISZERO DUP1 ISZERO PUSH3 0x447 JUMPI PUSH1 0x0 DUP1 REVERT JUMPDEST POP GAS STATICCALL ISZERO DUP1 ISZERO PUSH3 0x45C JUMPI RETURNDATASIZE PUSH1 0x0 DUP1 RETURNDATACOPY RETURNDATASIZE PUSH1 0x0 REVERT JUMPDEST POP POP POP POP PUSH1 0x40 MLOAD RETURNDATASIZE PUSH1 0x20 DUP2 LT ISZERO PUSH3 0x473 JUMPI PUSH1 0x0 DUP1 REVERT JUMPDEST DUP2 ADD SWAP1 DUP1 DUP1 MLOAD SWAP1 PUSH1 0x20 ADD SWAP1 SWAP3 SWAP2 SWAP1 POP POP POP EQ JUMPDEST PUSH3 0x4DD JUMPI PUSH1 0x40 MLOAD PUSH32 0x8C379A000000000000000000000000000000000000000000000000000000000 DUP2 MSTORE PUSH1 0x4 ADD DUP1 DUP1 PUSH1 0x20 ADD DUP3 DUP2 SUB DUP3 MSTORE PUSH1 0x36 DUP2 MSTORE PUSH1 0x20 ADD DUP1 PUSH3 0x57F8 PUSH1 0x36 SWAP2 CODECOPY PUSH1 0x40 ADD SWAP2 POP POP PUSH1 0x40 MLOAD DUP1 SWAP2 SUB SWAP1 REVERT JUMPDEST PUSH3 0x582 DUP4 PUSH4 0x95EA7B3 PUSH1 0xE0 SHL DUP5 DUP5 PUSH1 0x40 MLOAD PUSH1 0x24 ADD DUP1 DUP4 PUSH20 0xFFFFFFFFFFFFFFFFFFFFFFFFFFFFFFFFFFFFFFFF AND DUP2 MSTORE PUSH1 0x20 ADD DUP3 DUP2 MSTORE PUSH1 0x20 ADD SWAP3 POP POP POP PUSH1 0x40 MLOAD PUSH1 0x20 DUP2 DUP4 SUB SUB DUP2 MSTORE SWAP1 PUSH1 0x40 MSTORE SWAP1 PUSH28 0xFFFFFFFFFFFFFFFFFFFFFFFFFFFFFFFFFFFFFFFFFFFFFFFFFFFFFFFF NOT AND PUSH1 0x20 DUP3 ADD DUP1 MLOAD PUSH28 0xFFFFFFFFFFFFFFFFFFFFFFFFFFFFFFFFFFFFFFFFFFFFFFFFFFFFFFFF DUP4 DUP2 DUP4 AND OR DUP4 MSTORE POP POP POP POP PUSH3 0x587 PUSH1 0x20 SHL PUSH1 0x20 SHR JUMP JUMPDEST POP POP POP JUMP JUMPDEST PUSH1 0x60 PUSH3 0x5F0 DUP3 PUSH1 0x40 MLOAD DUP1 PUSH1 0x40 ADD PUSH1 0x40 MSTORE DUP1 PUSH1 0x20 DUP2 MSTORE PUSH1 0x20 ADD PUSH32 0x5361666545524332303A206C6F772D6C6576656C2063616C6C206661696C6564 DUP2 MSTORE POP DUP6 PUSH20 0xFFFFFFFFFFFFFFFFFFFFFFFFFFFFFFFFFFFFFFFF AND PUSH3 0x681 PUSH1 0x20 SHL PUSH3 0x38FD OR SWAP1 SWAP3 SWAP2 SWAP1 PUSH1 0x20 SHR JUMP JUMPDEST SWAP1 POP PUSH1 0x0 DUP2 MLOAD GT ISZERO PUSH3 0x67C JUMPI DUP1 DUP1 PUSH1 0x20 ADD SWAP1 MLOAD PUSH1 0x20 DUP2 LT ISZERO PUSH3 0x613 JUMPI PUSH1 0x0 DUP1 REVERT JUMPDEST DUP2 ADD SWAP1 DUP1 DUP1 MLOAD SWAP1 PUSH1 0x20 ADD SWAP1 SWAP3 SWAP2 SWAP1 POP POP POP PUSH3 0x67B JUMPI PUSH1 0x40 MLOAD PUSH32 0x8C379A000000000000000000000000000000000000000000000000000000000 DUP2 MSTORE PUSH1 0x4 ADD DUP1 DUP1 PUSH1 0x20 ADD DUP3 DUP2 SUB DUP3 MSTORE PUSH1 0x2A DUP2 MSTORE PUSH1 0x20 ADD DUP1 PUSH3 0x57AC PUSH1 0x2A SWAP2 CODECOPY PUSH1 0x40 ADD SWAP2 POP POP PUSH1 0x40 MLOAD DUP1 SWAP2 SUB SWAP1 REVERT JUMPDEST JUMPDEST POP POP POP JUMP JUMPDEST PUSH1 0x60 PUSH3 0x698 DUP5 DUP5 PUSH1 0x0 DUP6 PUSH3 0x6A1 PUSH1 0x20 SHL PUSH1 0x20 SHR JUMP JUMPDEST SWAP1 POP SWAP4 SWAP3 POP POP POP JUMP JUMPDEST PUSH1 0x60 DUP3 SELFBALANCE LT ISZERO PUSH3 0x6FE JUMPI PUSH1 0x40 MLOAD PUSH32 0x8C379A000000000000000000000000000000000000000000000000000000000 DUP2 MSTORE PUSH1 0x4 ADD DUP1 DUP1 PUSH1 0x20 ADD DUP3 DUP2 SUB DUP3 MSTORE PUSH1 0x26 DUP2 MSTORE PUSH1 0x20 ADD DUP1 PUSH3 0x5786 PUSH1 0x26 SWAP2 CODECOPY PUSH1 0x40 ADD SWAP2 POP POP PUSH1 0x40 MLOAD DUP1 SWAP2 SUB SWAP1 REVERT JUMPDEST PUSH3 0x70F DUP6 PUSH3 0x861 PUSH1 0x20 SHL PUSH1 0x20 SHR JUMP JUMPDEST PUSH3 0x782 JUMPI PUSH1 0x40 MLOAD PUSH32 0x8C379A000000000000000000000000000000000000000000000000000000000 DUP2 MSTORE PUSH1 0x4 ADD DUP1 DUP1 PUSH1 0x20 ADD DUP3 DUP2 SUB DUP3 MSTORE PUSH1 0x1D DUP2 MSTORE PUSH1 0x20 ADD DUP1 PUSH32 0x416464726573733A2063616C6C20746F206E6F6E2D636F6E7472616374000000 DUP2 MSTORE POP PUSH1 0x20 ADD SWAP2 POP POP PUSH1 0x40 MLOAD DUP1 SWAP2 SUB SWAP1 REVERT JUMPDEST PUSH1 0x0 PUSH1 0x60 DUP7 PUSH20 0xFFFFFFFFFFFFFFFFFFFFFFFFFFFFFFFFFFFFFFFF AND DUP6 DUP8 PUSH1 0x40 MLOAD DUP1 DUP3 DUP1 MLOAD SWAP1 PUSH1 0x20 ADD SWAP1 DUP1 DUP4 DUP4 JUMPDEST PUSH1 0x20 DUP4 LT PUSH3 0x7D4 JUMPI DUP1 MLOAD DUP3 MSTORE PUSH1 0x20 DUP3 ADD SWAP2 POP PUSH1 0x20 DUP2 ADD SWAP1 POP PUSH1 0x20 DUP4 SUB SWAP3 POP PUSH3 0x7AF JUMP JUMPDEST PUSH1 0x1 DUP4 PUSH1 0x20 SUB PUSH2 0x100 EXP SUB DUP1 NOT DUP3 MLOAD AND DUP2 DUP5 MLOAD AND DUP1 DUP3 OR DUP6 MSTORE POP POP POP POP POP POP SWAP1 POP ADD SWAP2 POP POP PUSH1 0x0 PUSH1 0x40 MLOAD DUP1 DUP4 SUB DUP2 DUP6 DUP8 GAS CALL SWAP3 POP POP POP RETURNDATASIZE DUP1 PUSH1 0x0 DUP2 EQ PUSH3 0x838 JUMPI PUSH1 0x40 MLOAD SWAP2 POP PUSH1 0x1F NOT PUSH1 0x3F RETURNDATASIZE ADD AND DUP3 ADD PUSH1 0x40 MSTORE RETURNDATASIZE DUP3 MSTORE RETURNDATASIZE PUSH1 0x0 PUSH1 0x20 DUP5 ADD RETURNDATACOPY PUSH3 0x83D JUMP JUMPDEST PUSH1 0x60 SWAP2 POP JUMPDEST POP SWAP2 POP SWAP2 POP PUSH3 0x855 DUP3 DUP3 DUP7 PUSH3 0x874 PUSH1 0x20 SHL PUSH1 0x20 SHR JUMP JUMPDEST SWAP3 POP POP POP SWAP5 SWAP4 POP POP POP POP JUMP JUMPDEST PUSH1 0x0 DUP1 DUP3 EXTCODESIZE SWAP1 POP PUSH1 0x0 DUP2 GT SWAP2 POP POP SWAP2 SWAP1 POP JUMP JUMPDEST PUSH1 0x60 DUP4 ISZERO PUSH3 0x886 JUMPI DUP3 SWAP1 POP PUSH3 0x93F JUMP JUMPDEST PUSH1 0x0 DUP4 MLOAD GT ISZERO PUSH3 0x89A JUMPI DUP3 MLOAD DUP1 DUP5 PUSH1 0x20 ADD REVERT JUMPDEST DUP2 PUSH1 0x40 MLOAD PUSH32 0x8C379A000000000000000000000000000000000000000000000000000000000 DUP2 MSTORE PUSH1 0x4 ADD DUP1 DUP1 PUSH1 0x20 ADD DUP3 DUP2 SUB DUP3 MSTORE DUP4 DUP2 DUP2 MLOAD DUP2 MSTORE PUSH1 0x20 ADD SWAP2 POP DUP1 MLOAD SWAP1 PUSH1 0x20 ADD SWAP1 DUP1 DUP4 DUP4 PUSH1 0x0 JUMPDEST DUP4 DUP2 LT ISZERO PUSH3 0x903 JUMPI DUP1 DUP3 ADD MLOAD DUP2 DUP5 ADD MSTORE PUSH1 0x20 DUP2 ADD SWAP1 POP PUSH3 0x8E6 JUMP JUMPDEST POP POP POP POP SWAP1 POP SWAP1 DUP2 ADD SWAP1 PUSH1 0x1F AND DUP1 ISZERO PUSH3 0x931 JUMPI DUP1 DUP3 SUB DUP1 MLOAD PUSH1 0x1 DUP4 PUSH1 0x20 SUB PUSH2 0x100 EXP SUB NOT AND DUP2 MSTORE PUSH1 0x20 ADD SWAP2 POP JUMPDEST POP SWAP3 POP POP POP PUSH1 0x40 MLOAD DUP1 SWAP2 SUB SWAP1 REVERT JUMPDEST SWAP4 SWAP3 POP POP POP JUMP JUMPDEST PUSH1 0x80 MLOAD PUSH1 0x60 SHR PUSH1 0xA0 MLOAD PUSH1 0x60 SHR PUSH1 0xC0 MLOAD PUSH1 0x60 SHR PUSH2 0x4D85 PUSH3 0x9DB PUSH1 0x0 CODECOPY DUP1 PUSH2 0x1159 MSTORE DUP1 PUSH2 0x172A MSTORE DUP1 PUSH2 0x1A23 MSTORE DUP1 PUSH2 0x1F7D MSTORE DUP1 PUSH2 0x265D MSTORE DUP1 PUSH2 0x2E1D MSTORE DUP1 PUSH2 0x36F2 MSTORE DUP1 PUSH2 0x3E95 MSTORE DUP1 PUSH2 0x4455 MSTORE POP DUP1 PUSH2 0x319A MSTORE DUP1 PUSH2 0x3320 MSTORE POP DUP1 PUSH2 0x129D MSTORE DUP1 PUSH2 0x136A MSTORE DUP1 PUSH2 0x1828 MSTORE DUP1 PUSH2 0x18A0 MSTORE DUP1 PUSH2 0x1953 MSTORE DUP1 PUSH2 0x2058 MSTORE DUP1 PUSH2 0x2AAD MSTORE DUP1 PUSH2 0x30F5 MSTORE DUP1 PUSH2 0x3716 MSTORE DUP1 PUSH2 0x4599 MSTORE DUP1 PUSH2 0x465B MSTORE POP PUSH2 0x4D85 PUSH1 0x0 RETURN INVALID PUSH1 0x80 PUSH1 0x40 MSTORE CALLVALUE DUP1 ISZERO PUSH2 0x10 JUMPI PUSH1 0x0 DUP1 REVERT JUMPDEST POP PUSH1 0x4 CALLDATASIZE LT PUSH2 0x289 JUMPI PUSH1 0x0 CALLDATALOAD PUSH1 0xE0 SHR DUP1 PUSH4 0x853828B6 GT PUSH2 0x15C JUMPI DUP1 PUSH4 0xDAD6F0DC GT PUSH2 0xCE JUMPI DUP1 PUSH4 0xEC78E832 GT PUSH2 0x87 JUMPI DUP1 PUSH4 0xEC78E832 EQ PUSH2 0x895 JUMPI DUP1 PUSH4 0xF0F44260 EQ PUSH2 0x8C9 JUMPI DUP1 PUSH4 0xF2FDE38B EQ PUSH2 0x90D JUMPI DUP1 PUSH4 0xF851A440 EQ PUSH2 0x951 JUMPI DUP1 PUSH4 0xFB1DB278 EQ PUSH2 0x985 JUMPI DUP1 PUSH4 0xFC0C546A EQ PUSH2 0x9B9 JUMPI PUSH2 0x289 JUMP JUMPDEST DUP1 PUSH4 0xDAD6F0DC EQ PUSH2 0x7A9 JUMPI DUP1 PUSH4 0xDB2E21BC EQ PUSH2 0x801 JUMPI DUP1 PUSH4 0xDD191719 EQ PUSH2 0x80B JUMPI DUP1 PUSH4 0xDEF68A9C EQ PUSH2 0x815 JUMPI DUP1 PUSH4 0xDF10B4E6 EQ PUSH2 0x859 JUMPI DUP1 PUSH4 0xE941FA78 EQ PUSH2 0x877 JUMPI PUSH2 0x289 JUMP JUMPDEST DUP1 PUSH4 0x9D72596B GT PUSH2 0x120 JUMPI DUP1 PUSH4 0x9D72596B EQ PUSH2 0x6D5 JUMPI DUP1 PUSH4 0xB60F0531 EQ PUSH2 0x6F3 JUMPI DUP1 PUSH4 0xB6AC642A EQ PUSH2 0x711 JUMPI DUP1 PUSH4 0xB6B55F25 EQ PUSH2 0x73F JUMPI DUP1 PUSH4 0xBDCA9165 EQ PUSH2 0x76D JUMPI DUP1 PUSH4 0xD4B0DE2F EQ PUSH2 0x78B JUMPI PUSH2 0x289 JUMP JUMPDEST DUP1 PUSH4 0x853828B6 EQ PUSH2 0x623 JUMPI DUP1 PUSH4 0x87788782 EQ PUSH2 0x62D JUMPI DUP1 PUSH4 0x8DA5CB5B EQ PUSH2 0x64B JUMPI DUP1 PUSH4 0x90321E1A EQ PUSH2 0x67F JUMPI DUP1 PUSH4 0x9513997F EQ PUSH2 0x69D JUMPI PUSH2 0x289 JUMP JUMPDEST DUP1 PUSH4 0x4641257D GT PUSH2 0x200 JUMPI DUP1 PUSH4 0x704B6C02 GT PUSH2 0x1B9 JUMPI DUP1 PUSH4 0x704B6C02 EQ PUSH2 0x561 JUMPI DUP1 PUSH4 0x70897B23 EQ PUSH2 0x5A5 JUMPI DUP1 PUSH4 0x715018A6 EQ PUSH2 0x5D3 JUMPI DUP1 PUSH4 0x722713F7 EQ PUSH2 0x5DD JUMPI DUP1 PUSH4 0x77C7B8FC EQ PUSH2 0x5FB JUMPI DUP1 PUSH4 0x8456CB59 EQ PUSH2 0x619 JUMPI PUSH2 0x289 JUMP JUMPDEST DUP1 PUSH4 0x4641257D EQ PUSH2 0x4A9 JUMPI DUP1 PUSH4 0x48A0D754 EQ PUSH2 0x4B3 JUMPI DUP1 PUSH4 0x48CD4CB1 EQ PUSH2 0x4D1 JUMPI DUP1 PUSH4 0x58EBCEB6 EQ PUSH2 0x4EF JUMPI DUP1 PUSH4 0x5C975ABB EQ PUSH2 0x50D JUMPI DUP1 PUSH4 0x61D027B3 EQ PUSH2 0x52D JUMPI PUSH2 0x289 JUMP JUMPDEST DUP1 PUSH4 0x26465826 GT PUSH2 0x252 JUMPI DUP1 PUSH4 0x26465826 EQ PUSH2 0x3E9 JUMPI DUP1 PUSH4 0x2AD5A53F EQ PUSH2 0x417 JUMPI DUP1 PUSH4 0x2CFC5F01 EQ PUSH2 0x435 JUMPI DUP1 PUSH4 0x2E1A7D4D EQ PUSH2 0x453 JUMPI DUP1 PUSH4 0x3A98EF39 EQ PUSH2 0x481 JUMPI DUP1 PUSH4 0x3F4BA83A EQ PUSH2 0x49F JUMPI PUSH2 0x289 JUMP JUMPDEST DUP1 PUSH3 0x6F0231 EQ PUSH2 0x28E JUMPI DUP1 PUSH4 0x6F5A745 EQ PUSH2 0x2BC JUMPI DUP1 PUSH4 0x83C6323 EQ PUSH2 0x330 JUMPI DUP1 PUSH4 0x1959A002 EQ PUSH2 0x34E JUMPI DUP1 PUSH4 0x1EFAC1B8 EQ PUSH2 0x3BB JUMPI JUMPDEST PUSH1 0x0 DUP1 REVERT JUMPDEST PUSH2 0x2BA PUSH1 0x4 DUP1 CALLDATASIZE SUB PUSH1 0x20 DUP2 LT ISZERO PUSH2 0x2A4 JUMPI PUSH1 0x0 DUP1 REVERT JUMPDEST DUP2 ADD SWAP1 DUP1 DUP1 CALLDATALOAD SWAP1 PUSH1 0x20 ADD SWAP1 SWAP3 SWAP2 SWAP1 POP POP POP PUSH2 0x9ED JUMP JUMPDEST STOP JUMPDEST PUSH2 0x2FE PUSH1 0x4 DUP1 CALLDATASIZE SUB PUSH1 0x20 DUP2 LT ISZERO PUSH2 0x2D2 JUMPI PUSH1 0x0 DUP1 REVERT JUMPDEST DUP2 ADD SWAP1 DUP1 DUP1 CALLDATALOAD PUSH20 0xFFFFFFFFFFFFFFFFFFFFFFFFFFFFFFFFFFFFFFFF AND SWAP1 PUSH1 0x20 ADD SWAP1 SWAP3 SWAP2 SWAP1 POP POP POP PUSH2 0xBA3 JUMP JUMPDEST PUSH1 0x40 MLOAD DUP1 DUP7 DUP2 MSTORE PUSH1 0x20 ADD DUP6 DUP2 MSTORE PUSH1 0x20 ADD DUP5 DUP2 MSTORE PUSH1 0x20 ADD DUP4 DUP2 MSTORE PUSH1 0x20 ADD DUP3 DUP2 MSTORE PUSH1 0x20 ADD SWAP6 POP POP POP POP POP POP PUSH1 0x40 MLOAD DUP1 SWAP2 SUB SWAP1 RETURN JUMPDEST PUSH2 0x338 PUSH2 0xBD9 JUMP JUMPDEST PUSH1 0x40 MLOAD DUP1 DUP3 DUP2 MSTORE PUSH1 0x20 ADD SWAP2 POP POP PUSH1 0x40 MLOAD DUP1 SWAP2 SUB SWAP1 RETURN JUMPDEST PUSH2 0x390 PUSH1 0x4 DUP1 CALLDATASIZE SUB PUSH1 0x20 DUP2 LT ISZERO PUSH2 0x364 JUMPI PUSH1 0x0 DUP1 REVERT JUMPDEST DUP2 ADD SWAP1 DUP1 DUP1 CALLDATALOAD PUSH20 0xFFFFFFFFFFFFFFFFFFFFFFFFFFFFFFFFFFFFFFFF AND SWAP1 PUSH1 0x20 ADD SWAP1 SWAP3 SWAP2 SWAP1 POP POP POP PUSH2 0xBDF JUMP JUMPDEST PUSH1 0x40 MLOAD DUP1 DUP6 DUP2 MSTORE PUSH1 0x20 ADD DUP5 DUP2 MSTORE PUSH1 0x20 ADD DUP4 DUP2 MSTORE PUSH1 0x20 ADD DUP3 DUP2 MSTORE PUSH1 0x20 ADD SWAP5 POP POP POP POP POP PUSH1 0x40 MLOAD DUP1 SWAP2 SUB SWAP1 RETURN JUMPDEST PUSH2 0x3E7 PUSH1 0x4 DUP1 CALLDATASIZE SUB PUSH1 0x20 DUP2 LT ISZERO PUSH2 0x3D1 JUMPI PUSH1 0x0 DUP1 REVERT JUMPDEST DUP2 ADD SWAP1 DUP1 DUP1 CALLDATALOAD SWAP1 PUSH1 0x20 ADD SWAP1 SWAP3 SWAP2 SWAP1 POP POP POP PUSH2 0xC0F JUMP JUMPDEST STOP JUMPDEST PUSH2 0x415 PUSH1 0x4 DUP1 CALLDATASIZE SUB PUSH1 0x20 DUP2 LT ISZERO PUSH2 0x3FF JUMPI PUSH1 0x0 DUP1 REVERT JUMPDEST DUP2 ADD SWAP1 DUP1 DUP1 CALLDATALOAD SWAP1 PUSH1 0x20 ADD SWAP1 SWAP3 SWAP2 SWAP1 POP POP POP PUSH2 0xD38 JUMP JUMPDEST STOP JUMPDEST PUSH2 0x41F PUSH2 0xE5F JUMP JUMPDEST PUSH1 0x40 MLOAD DUP1 DUP3 DUP2 MSTORE PUSH1 0x20 ADD SWAP2 POP POP PUSH1 0x40 MLOAD DUP1 SWAP2 SUB SWAP1 RETURN JUMPDEST PUSH2 0x43D PUSH2 0xE64 JUMP JUMPDEST PUSH1 0x40 MLOAD DUP1 DUP3 DUP2 MSTORE PUSH1 0x20 ADD SWAP2 POP POP PUSH1 0x40 MLOAD DUP1 SWAP2 SUB SWAP1 RETURN JUMPDEST PUSH2 0x47F PUSH1 0x4 DUP1 CALLDATASIZE SUB PUSH1 0x20 DUP2 LT ISZERO PUSH2 0x469 JUMPI PUSH1 0x0 DUP1 REVERT JUMPDEST DUP2 ADD SWAP1 DUP1 DUP1 CALLDATALOAD SWAP1 PUSH1 0x20 ADD SWAP1 SWAP3 SWAP2 SWAP1 POP POP POP PUSH2 0xE6B JUMP JUMPDEST STOP JUMPDEST PUSH2 0x489 PUSH2 0x140B JUMP JUMPDEST PUSH1 0x40 MLOAD DUP1 DUP3 DUP2 MSTORE PUSH1 0x20 ADD SWAP2 POP POP PUSH1 0x40 MLOAD DUP1 SWAP2 SUB SWAP1 RETURN JUMPDEST PUSH2 0x4A7 PUSH2 0x1411 JUMP JUMPDEST STOP JUMPDEST PUSH2 0x4B1 PUSH2 0x1584 JUMP JUMPDEST STOP JUMPDEST PUSH2 0x4BB PUSH2 0x194F JUMP JUMPDEST PUSH1 0x40 MLOAD DUP1 DUP3 DUP2 MSTORE PUSH1 0x20 ADD SWAP2 POP POP PUSH1 0x40 MLOAD DUP1 SWAP2 SUB SWAP1 RETURN JUMPDEST PUSH2 0x4D9 PUSH2 0x1A18 JUMP JUMPDEST PUSH1 0x40 MLOAD DUP1 DUP3 DUP2 MSTORE PUSH1 0x20 ADD SWAP2 POP POP PUSH1 0x40 MLOAD DUP1 SWAP2 SUB SWAP1 RETURN JUMPDEST PUSH2 0x4F7 PUSH2 0x1A1E JUMP JUMPDEST PUSH1 0x40 MLOAD DUP1 DUP3 DUP2 MSTORE PUSH1 0x20 ADD SWAP2 POP POP PUSH1 0x40 MLOAD DUP1 SWAP2 SUB SWAP1 RETURN JUMPDEST PUSH2 0x515 PUSH2 0x1B11 JUMP JUMPDEST PUSH1 0x40 MLOAD DUP1 DUP3 ISZERO ISZERO DUP2 MSTORE PUSH1 0x20 ADD SWAP2 POP POP PUSH1 0x40 MLOAD DUP1 SWAP2 SUB SWAP1 RETURN JUMPDEST PUSH2 0x535 PUSH2 0x1B27 JUMP JUMPDEST PUSH1 0x40 MLOAD DUP1 DUP3 PUSH20 0xFFFFFFFFFFFFFFFFFFFFFFFFFFFFFFFFFFFFFFFF AND DUP2 MSTORE PUSH1 0x20 ADD SWAP2 POP POP PUSH1 0x40 MLOAD DUP1 SWAP2 SUB SWAP1 RETURN JUMPDEST PUSH2 0x5A3 PUSH1 0x4 DUP1 CALLDATASIZE SUB PUSH1 0x20 DUP2 LT ISZERO PUSH2 0x577 JUMPI PUSH1 0x0 DUP1 REVERT JUMPDEST DUP2 ADD SWAP1 DUP1 DUP1 CALLDATALOAD PUSH20 0xFFFFFFFFFFFFFFFFFFFFFFFFFFFFFFFFFFFFFFFF AND SWAP1 PUSH1 0x20 ADD SWAP1 SWAP3 SWAP2 SWAP1 POP POP POP PUSH2 0x1B4D JUMP JUMPDEST STOP JUMPDEST PUSH2 0x5D1 PUSH1 0x4 DUP1 CALLDATASIZE SUB PUSH1 0x20 DUP2 LT ISZERO PUSH2 0x5BB JUMPI PUSH1 0x0 DUP1 REVERT JUMPDEST DUP2 ADD SWAP1 DUP1 DUP1 CALLDATALOAD SWAP1 PUSH1 0x20 ADD SWAP1 SWAP3 SWAP2 SWAP1 POP POP POP PUSH2 0x1CE3 JUMP JUMPDEST STOP JUMPDEST PUSH2 0x5DB PUSH2 0x1E0B JUMP JUMPDEST STOP JUMPDEST PUSH2 0x5E5 PUSH2 0x1F78 JUMP JUMPDEST PUSH1 0x40 MLOAD DUP1 DUP3 DUP2 MSTORE PUSH1 0x20 ADD SWAP2 POP POP PUSH1 0x40 MLOAD DUP1 SWAP2 SUB SWAP1 RETURN JUMPDEST PUSH2 0x603 PUSH2 0x212C JUMP JUMPDEST PUSH1 0x40 MLOAD DUP1 DUP3 DUP2 MSTORE PUSH1 0x20 ADD SWAP2 POP POP PUSH1 0x40 MLOAD DUP1 SWAP2 SUB SWAP1 RETURN JUMPDEST PUSH2 0x621 PUSH2 0x2181 JUMP JUMPDEST STOP JUMPDEST PUSH2 0x62B PUSH2 0x22F5 JUMP JUMPDEST STOP JUMPDEST PUSH2 0x635 PUSH2 0x245F JUMP JUMPDEST PUSH1 0x40 MLOAD DUP1 DUP3 DUP2 MSTORE PUSH1 0x20 ADD SWAP2 POP POP PUSH1 0x40 MLOAD DUP1 SWAP2 SUB SWAP1 RETURN JUMPDEST PUSH2 0x653 PUSH2 0x2465 JUMP JUMPDEST PUSH1 0x40 MLOAD DUP1 DUP3 PUSH20 0xFFFFFFFFFFFFFFFFFFFFFFFFFFFFFFFFFFFFFFFF AND DUP2 MSTORE PUSH1 0x20 ADD SWAP2 POP POP PUSH1 0x40 MLOAD DUP1 SWAP2 SUB SWAP1 RETURN JUMPDEST PUSH2 0x687 PUSH2 0x248E JUMP JUMPDEST PUSH1 0x40 MLOAD DUP1 DUP3 DUP2 MSTORE PUSH1 0x20 ADD SWAP2 POP POP PUSH1 0x40 MLOAD DUP1 SWAP2 SUB SWAP1 RETURN JUMPDEST PUSH2 0x6D3 PUSH1 0x4 DUP1 CALLDATASIZE SUB PUSH1 0x40 DUP2 LT ISZERO PUSH2 0x6B3 JUMPI PUSH1 0x0 DUP1 REVERT JUMPDEST DUP2 ADD SWAP1 DUP1 DUP1 CALLDATALOAD SWAP1 PUSH1 0x20 ADD SWAP1 SWAP3 SWAP2 SWAP1 DUP1 CALLDATALOAD SWAP1 PUSH1 0x20 ADD SWAP1 SWAP3 SWAP2 SWAP1 POP POP POP PUSH2 0x2494 JUMP JUMPDEST STOP JUMPDEST PUSH2 0x6DD PUSH2 0x2658 JUMP JUMPDEST PUSH1 0x40 MLOAD DUP1 DUP3 DUP2 MSTORE PUSH1 0x20 ADD SWAP2 POP POP PUSH1 0x40 MLOAD DUP1 SWAP2 SUB SWAP1 RETURN JUMPDEST PUSH2 0x6FB PUSH2 0x275D JUMP JUMPDEST PUSH1 0x40 MLOAD DUP1 DUP3 DUP2 MSTORE PUSH1 0x20 ADD SWAP2 POP POP PUSH1 0x40 MLOAD DUP1 SWAP2 SUB SWAP1 RETURN JUMPDEST PUSH2 0x73D PUSH1 0x4 DUP1 CALLDATASIZE SUB PUSH1 0x20 DUP2 LT ISZERO PUSH2 0x727 JUMPI PUSH1 0x0 DUP1 REVERT JUMPDEST DUP2 ADD SWAP1 DUP1 DUP1 CALLDATALOAD SWAP1 PUSH1 0x20 ADD SWAP1 SWAP3 SWAP2 SWAP1 POP POP POP PUSH2 0x2763 JUMP JUMPDEST STOP JUMPDEST PUSH2 0x76B PUSH1 0x4 DUP1 CALLDATASIZE SUB PUSH1 0x20 DUP2 LT ISZERO PUSH2 0x755 JUMPI PUSH1 0x0 DUP1 REVERT JUMPDEST DUP2 ADD SWAP1 DUP1 DUP1 CALLDATALOAD SWAP1 PUSH1 0x20 ADD SWAP1 SWAP3 SWAP2 SWAP1 POP POP POP PUSH2 0x288B JUMP JUMPDEST STOP JUMPDEST PUSH2 0x775 PUSH2 0x2CC8 JUMP JUMPDEST PUSH1 0x40 MLOAD DUP1 DUP3 DUP2 MSTORE PUSH1 0x20 ADD SWAP2 POP POP PUSH1 0x40 MLOAD DUP1 SWAP2 SUB SWAP1 RETURN JUMPDEST PUSH2 0x793 PUSH2 0x2CCE JUMP JUMPDEST PUSH1 0x40 MLOAD DUP1 DUP3 DUP2 MSTORE PUSH1 0x20 ADD SWAP2 POP POP PUSH1 0x40 MLOAD DUP1 SWAP2 SUB SWAP1 RETURN JUMPDEST PUSH2 0x7EB PUSH1 0x4 DUP1 CALLDATASIZE SUB PUSH1 0x20 DUP2 LT ISZERO PUSH2 0x7BF JUMPI PUSH1 0x0 DUP1 REVERT JUMPDEST DUP2 ADD SWAP1 DUP1 DUP1 CALLDATALOAD PUSH20 0xFFFFFFFFFFFFFFFFFFFFFFFFFFFFFFFFFFFFFFFF AND SWAP1 PUSH1 0x20 ADD SWAP1 SWAP3 SWAP2 SWAP1 POP POP POP PUSH2 0x2CD4 JUMP JUMPDEST PUSH1 0x40 MLOAD DUP1 DUP3 DUP2 MSTORE PUSH1 0x20 ADD SWAP2 POP POP PUSH1 0x40 MLOAD DUP1 SWAP2 SUB SWAP1 RETURN JUMPDEST PUSH2 0x809 PUSH2 0x2D58 JUMP JUMPDEST STOP JUMPDEST PUSH2 0x813 PUSH2 0x2EBE JUMP JUMPDEST STOP JUMPDEST PUSH2 0x857 PUSH1 0x4 DUP1 CALLDATASIZE SUB PUSH1 0x20 DUP2 LT ISZERO PUSH2 0x82B JUMPI PUSH1 0x0 DUP1 REVERT JUMPDEST DUP2 ADD SWAP1 DUP1 DUP1 CALLDATALOAD PUSH20 0xFFFFFFFFFFFFFFFFFFFFFFFFFFFFFFFFFFFFFFFF AND SWAP1 PUSH1 0x20 ADD SWAP1 SWAP3 SWAP2 SWAP1 POP POP POP PUSH2 0x3030 JUMP JUMPDEST STOP JUMPDEST PUSH2 0x861 PUSH2 0x3312 JUMP JUMPDEST PUSH1 0x40 MLOAD DUP1 DUP3 DUP2 MSTORE PUSH1 0x20 ADD SWAP2 POP POP PUSH1 0x40 MLOAD DUP1 SWAP2 SUB SWAP1 RETURN JUMPDEST PUSH2 0x87F PUSH2 0x3318 JUMP JUMPDEST PUSH1 0x40 MLOAD DUP1 DUP3 DUP2 MSTORE PUSH1 0x20 ADD SWAP2 POP POP PUSH1 0x40 MLOAD DUP1 SWAP2 SUB SWAP1 RETURN JUMPDEST PUSH2 0x89D PUSH2 0x331E JUMP JUMPDEST PUSH1 0x40 MLOAD DUP1 DUP3 PUSH20 0xFFFFFFFFFFFFFFFFFFFFFFFFFFFFFFFFFFFFFFFF AND DUP2 MSTORE PUSH1 0x20 ADD SWAP2 POP POP PUSH1 0x40 MLOAD DUP1 SWAP2 SUB SWAP1 RETURN JUMPDEST PUSH2 0x90B PUSH1 0x4 DUP1 CALLDATASIZE SUB PUSH1 0x20 DUP2 LT ISZERO PUSH2 0x8DF JUMPI PUSH1 0x0 DUP1 REVERT JUMPDEST DUP2 ADD SWAP1 DUP1 DUP1 CALLDATALOAD PUSH20 0xFFFFFFFFFFFFFFFFFFFFFFFFFFFFFFFFFFFFFFFF AND SWAP1 PUSH1 0x20 ADD SWAP1 SWAP3 SWAP2 SWAP1 POP POP POP PUSH2 0x3342 JUMP JUMPDEST STOP JUMPDEST PUSH2 0x94F PUSH1 0x4 DUP1 CALLDATASIZE SUB PUSH1 0x20 DUP2 LT ISZERO PUSH2 0x923 JUMPI PUSH1 0x0 DUP1 REVERT JUMPDEST DUP2 ADD SWAP1 DUP1 DUP1 CALLDATALOAD PUSH20 0xFFFFFFFFFFFFFFFFFFFFFFFFFFFFFFFFFFFFFFFF AND SWAP1 PUSH1 0x20 ADD SWAP1 SWAP3 SWAP2 SWAP1 POP POP POP PUSH2 0x34D8 JUMP JUMPDEST STOP JUMPDEST PUSH2 0x959 PUSH2 0x36CA JUMP JUMPDEST PUSH1 0x40 MLOAD DUP1 DUP3 PUSH20 0xFFFFFFFFFFFFFFFFFFFFFFFFFFFFFFFFFFFFFFFF AND DUP2 MSTORE PUSH1 0x20 ADD SWAP2 POP POP PUSH1 0x40 MLOAD DUP1 SWAP2 SUB SWAP1 RETURN JUMPDEST PUSH2 0x98D PUSH2 0x36F0 JUMP JUMPDEST PUSH1 0x40 MLOAD DUP1 DUP3 PUSH20 0xFFFFFFFFFFFFFFFFFFFFFFFFFFFFFFFFFFFFFFFF AND DUP2 MSTORE PUSH1 0x20 ADD SWAP2 POP POP PUSH1 0x40 MLOAD DUP1 SWAP2 SUB SWAP1 RETURN JUMPDEST PUSH2 0x9C1 PUSH2 0x3714 JUMP JUMPDEST PUSH1 0x40 MLOAD DUP1 DUP3 PUSH20 0xFFFFFFFFFFFFFFFFFFFFFFFFFFFFFFFFFFFFFFFF AND DUP2 MSTORE PUSH1 0x20 ADD SWAP2 POP POP PUSH1 0x40 MLOAD DUP1 SWAP2 SUB SWAP1 RETURN JUMPDEST PUSH1 0x7 PUSH1 0x0 SWAP1 SLOAD SWAP1 PUSH2 0x100 EXP SWAP1 DIV PUSH20 0xFFFFFFFFFFFFFFFFFFFFFFFFFFFFFFFFFFFFFFFF AND PUSH20 0xFFFFFFFFFFFFFFFFFFFFFFFFFFFFFFFFFFFFFFFF AND CALLER PUSH20 0xFFFFFFFFFFFFFFFFFFFFFFFFFFFFFFFFFFFFFFFF AND EQ PUSH2 0xAB0 JUMPI PUSH1 0x40 MLOAD PUSH32 0x8C379A000000000000000000000000000000000000000000000000000000000 DUP2 MSTORE PUSH1 0x4 ADD DUP1 DUP1 PUSH1 0x20 ADD DUP3 DUP2 SUB DUP3 MSTORE PUSH1 0xB DUP2 MSTORE PUSH1 0x20 ADD DUP1 PUSH32 0x61646D696E3A207775743F000000000000000000000000000000000000000000 DUP2 MSTORE POP PUSH1 0x20 ADD SWAP2 POP POP PUSH1 0x40 MLOAD DUP1 SWAP2 SUB SWAP1 REVERT JUMPDEST DUP1 NUMBER LT PUSH2 0xB08 JUMPI PUSH1 0x40 MLOAD PUSH32 0x8C379A000000000000000000000000000000000000000000000000000000000 DUP2 MSTORE PUSH1 0x4 ADD DUP1 DUP1 PUSH1 0x20 ADD DUP3 DUP2 SUB DUP3 MSTORE PUSH1 0x28 DUP2 MSTORE PUSH1 0x20 ADD DUP1 PUSH2 0x4BB0 PUSH1 0x28 SWAP2 CODECOPY PUSH1 0x40 ADD SWAP2 POP POP PUSH1 0x40 MLOAD DUP1 SWAP2 SUB SWAP1 REVERT JUMPDEST PUSH1 0x4 SLOAD NUMBER LT PUSH2 0xB62 JUMPI PUSH1 0x40 MLOAD PUSH32 0x8C379A000000000000000000000000000000000000000000000000000000000 DUP2 MSTORE PUSH1 0x4 ADD DUP1 DUP1 PUSH1 0x20 ADD DUP3 DUP2 SUB DUP3 MSTORE PUSH1 0x28 DUP2 MSTORE PUSH1 0x20 ADD DUP1 PUSH2 0x4C98 PUSH1 0x28 SWAP2 CODECOPY PUSH1 0x40 ADD SWAP2 POP POP PUSH1 0x40 MLOAD DUP1 SWAP2 SUB SWAP1 REVERT JUMPDEST DUP1 PUSH1 0x4 DUP2 SWAP1 SSTORE POP PUSH32 0x72A01621587849E39C667EB81696643997F818C6C286614CD1497E5EF2E9ECD6 DUP2 PUSH1 0x40 MLOAD DUP1 DUP3 DUP2 MSTORE PUSH1 0x20 ADD SWAP2 POP POP PUSH1 0x40 MLOAD DUP1 SWAP2 SUB SWAP1 LOG1 POP JUMP JUMPDEST PUSH1 0x2 PUSH1 0x20 MSTORE DUP1 PUSH1 0x0 MSTORE PUSH1 0x40 PUSH1 0x0 KECCAK256 PUSH1 0x0 SWAP2 POP SWAP1 POP DUP1 PUSH1 0x0 ADD SLOAD SWAP1 DUP1 PUSH1 0x1 ADD SLOAD SWAP1 DUP1 PUSH1 0x2 ADD SLOAD SWAP1 DUP1 PUSH1 0x3 ADD SLOAD SWAP1 DUP1 PUSH1 0x4 ADD SLOAD SWAP1 POP DUP6 JUMP JUMPDEST PUSH1 0x4 SLOAD DUP2 JUMP JUMPDEST PUSH1 0x1 PUSH1 0x20 MSTORE DUP1 PUSH1 0x0 MSTORE PUSH1 0x40 PUSH1 0x0 KECCAK256 PUSH1 0x0 SWAP2 POP SWAP1 POP DUP1 PUSH1 0x0 ADD SLOAD SWAP1 DUP1 PUSH1 0x1 ADD SLOAD SWAP1 DUP1 PUSH1 0x2 ADD SLOAD SWAP1 DUP1 PUSH1 0x3 ADD SLOAD SWAP1 POP DUP5 JUMP JUMPDEST PUSH1 0x7 PUSH1 0x0 SWAP1 SLOAD SWAP1 PUSH2 0x100 EXP SWAP1 DIV PUSH20 0xFFFFFFFFFFFFFFFFFFFFFFFFFFFFFFFFFFFFFFFF AND PUSH20 0xFFFFFFFFFFFFFFFFFFFFFFFFFFFFFFFFFFFFFFFF AND CALLER PUSH20 0xFFFFFFFFFFFFFFFFFFFFFFFFFFFFFFFFFFFFFFFF AND EQ PUSH2 0xCD2 JUMPI PUSH1 0x40 MLOAD PUSH32 0x8C379A000000000000000000000000000000000000000000000000000000000 DUP2 MSTORE PUSH1 0x4 ADD DUP1 DUP1 PUSH1 0x20 ADD DUP3 DUP2 SUB DUP3 MSTORE PUSH1 0xB DUP2 MSTORE PUSH1 0x20 ADD DUP1 PUSH32 0x61646D696E3A207775743F000000000000000000000000000000000000000000 DUP2 MSTORE POP PUSH1 0x20 ADD SWAP2 POP POP PUSH1 0x40 MLOAD DUP1 SWAP2 SUB SWAP1 REVERT JUMPDEST PUSH3 0x93A80 DUP2 GT ISZERO PUSH2 0xD2E JUMPI PUSH1 0x40 MLOAD PUSH32 0x8C379A000000000000000000000000000000000000000000000000000000000 DUP2 MSTORE PUSH1 0x4 ADD DUP1 DUP1 PUSH1 0x20 ADD DUP3 DUP2 SUB DUP3 MSTORE PUSH1 0x3D DUP2 MSTORE PUSH1 0x20 ADD DUP1 PUSH2 0x4C5B PUSH1 0x3D SWAP2 CODECOPY PUSH1 0x40 ADD SWAP2 POP POP PUSH1 0x40 MLOAD DUP1 SWAP2 SUB SWAP1 REVERT JUMPDEST DUP1 PUSH1 0xC DUP2 SWAP1 SSTORE POP POP JUMP JUMPDEST PUSH1 0x7 PUSH1 0x0 SWAP1 SLOAD SWAP1 PUSH2 0x100 EXP SWAP1 DIV PUSH20 0xFFFFFFFFFFFFFFFFFFFFFFFFFFFFFFFFFFFFFFFF AND PUSH20 0xFFFFFFFFFFFFFFFFFFFFFFFFFFFFFFFFFFFFFFFF AND CALLER PUSH20 0xFFFFFFFFFFFFFFFFFFFFFFFFFFFFFFFFFFFFFFFF AND EQ PUSH2 0xDFB JUMPI PUSH1 0x40 MLOAD PUSH32 0x8C379A000000000000000000000000000000000000000000000000000000000 DUP2 MSTORE PUSH1 0x4 ADD DUP1 DUP1 PUSH1 0x20 ADD DUP3 DUP2 SUB DUP3 MSTORE PUSH1 0xB DUP2 MSTORE PUSH1 0x20 ADD DUP1 PUSH32 0x61646D696E3A207775743F000000000000000000000000000000000000000000 DUP2 MSTORE POP PUSH1 0x20 ADD SWAP2 POP POP PUSH1 0x40 MLOAD DUP1 SWAP2 SUB SWAP1 REVERT JUMPDEST PUSH1 0x64 DUP2 GT ISZERO PUSH2 0xE55 JUMPI PUSH1 0x40 MLOAD PUSH32 0x8C379A000000000000000000000000000000000000000000000000000000000 DUP2 MSTORE PUSH1 0x4 ADD DUP1 DUP1 PUSH1 0x20 ADD DUP3 DUP2 SUB DUP3 MSTORE PUSH1 0x28 DUP2 MSTORE PUSH1 0x20 ADD DUP1 PUSH2 0x4B52 PUSH1 0x28 SWAP2 CODECOPY PUSH1 0x40 ADD SWAP2 POP POP PUSH1 0x40 MLOAD DUP1 SWAP2 SUB SWAP1 REVERT JUMPDEST DUP1 PUSH1 0xA DUP2 SWAP1 SSTORE POP POP JUMP JUMPDEST PUSH1 0x64 DUP2 JUMP JUMPDEST PUSH3 0x93A80 DUP2 JUMP JUMPDEST PUSH2 0xE74 CALLER PUSH2 0x3915 JUMP JUMPDEST ISZERO PUSH2 0xEE7 JUMPI PUSH1 0x40 MLOAD PUSH32 0x8C379A000000000000000000000000000000000000000000000000000000000 DUP2 MSTORE PUSH1 0x4 ADD DUP1 DUP1 PUSH1 0x20 ADD DUP3 DUP2 SUB DUP3 MSTORE PUSH1 0x14 DUP2 MSTORE PUSH1 0x20 ADD DUP1 PUSH32 0x636F6E7472616374206E6F7420616C6C6F776564000000000000000000000000 DUP2 MSTORE POP PUSH1 0x20 ADD SWAP2 POP POP PUSH1 0x40 MLOAD DUP1 SWAP2 SUB SWAP1 REVERT JUMPDEST ORIGIN PUSH20 0xFFFFFFFFFFFFFFFFFFFFFFFFFFFFFFFFFFFFFFFF AND CALLER PUSH20 0xFFFFFFFFFFFFFFFFFFFFFFFFFFFFFFFFFFFFFFFF AND EQ PUSH2 0xF88 JUMPI PUSH1 0x40 MLOAD PUSH32 0x8C379A000000000000000000000000000000000000000000000000000000000 DUP2 MSTORE PUSH1 0x4 ADD DUP1 DUP1 PUSH1 0x20 ADD DUP3 DUP2 SUB DUP3 MSTORE PUSH1 0x1A DUP2 MSTORE PUSH1 0x20 ADD DUP1 PUSH32 0x70726F787920636F6E7472616374206E6F7420616C6C6F776564000000000000 DUP2 MSTORE POP PUSH1 0x20 ADD SWAP2 POP POP PUSH1 0x40 MLOAD DUP1 SWAP2 SUB SWAP1 REVERT JUMPDEST PUSH1 0x0 PUSH1 0x1 PUSH1 0x0 CALLER PUSH20 0xFFFFFFFFFFFFFFFFFFFFFFFFFFFFFFFFFFFFFFFF AND PUSH20 0xFFFFFFFFFFFFFFFFFFFFFFFFFFFFFFFFFFFFFFFF AND DUP2 MSTORE PUSH1 0x20 ADD SWAP1 DUP2 MSTORE PUSH1 0x20 ADD PUSH1 0x0 KECCAK256 SWAP1 POP PUSH1 0x0 DUP3 GT PUSH2 0x1041 JUMPI PUSH1 0x40 MLOAD PUSH32 0x8C379A000000000000000000000000000000000000000000000000000000000 DUP2 MSTORE PUSH1 0x4 ADD DUP1 DUP1 PUSH1 0x20 ADD DUP3 DUP2 SUB DUP3 MSTORE PUSH1 0x13 DUP2 MSTORE PUSH1 0x20 ADD DUP1 PUSH32 0x4E6F7468696E6720746F20776974686472617700000000000000000000000000 DUP2 MSTORE POP PUSH1 0x20 ADD SWAP2 POP POP PUSH1 0x40 MLOAD DUP1 SWAP2 SUB SWAP1 REVERT JUMPDEST DUP1 PUSH1 0x0 ADD SLOAD DUP3 GT ISZERO PUSH2 0x10BB JUMPI PUSH1 0x40 MLOAD PUSH32 0x8C379A000000000000000000000000000000000000000000000000000000000 DUP2 MSTORE PUSH1 0x4 ADD DUP1 DUP1 PUSH1 0x20 ADD DUP3 DUP2 SUB DUP3 MSTORE PUSH1 0x1F DUP2 MSTORE PUSH1 0x20 ADD DUP1 PUSH32 0x576974686472617720616D6F756E7420657863656564732062616C616E636500 DUP2 MSTORE POP PUSH1 0x20 ADD SWAP2 POP POP PUSH1 0x40 MLOAD DUP1 SWAP2 SUB SWAP1 REVERT JUMPDEST PUSH1 0x0 PUSH2 0x10EB PUSH1 0x5 SLOAD PUSH2 0x10DD DUP6 PUSH2 0x10CF PUSH2 0x1F78 JUMP JUMPDEST PUSH2 0x3928 SWAP1 SWAP2 SWAP1 PUSH4 0xFFFFFFFF AND JUMP JUMPDEST PUSH2 0x39AE SWAP1 SWAP2 SWAP1 PUSH4 0xFFFFFFFF AND JUMP JUMPDEST SWAP1 POP PUSH1 0x0 DUP2 SWAP1 POP PUSH2 0x1109 DUP5 DUP5 PUSH1 0x0 ADD SLOAD PUSH2 0x3A37 SWAP1 SWAP2 SWAP1 PUSH4 0xFFFFFFFF AND JUMP JUMPDEST DUP4 PUSH1 0x0 ADD DUP2 SWAP1 SSTORE POP PUSH2 0x1126 DUP5 PUSH1 0x5 SLOAD PUSH2 0x3A37 SWAP1 SWAP2 SWAP1 PUSH4 0xFFFFFFFF AND JUMP JUMPDEST PUSH1 0x5 DUP2 SWAP1 SSTORE POP PUSH1 0x0 PUSH2 0x1136 PUSH2 0x194F JUMP JUMPDEST SWAP1 POP DUP3 DUP2 LT ISZERO PUSH2 0x1227 JUMPI PUSH1 0x0 PUSH2 0x1155 DUP3 DUP6 PUSH2 0x3A37 SWAP1 SWAP2 SWAP1 PUSH4 0xFFFFFFFF AND JUMP JUMPDEST SWAP1 POP PUSH32 0x0 PUSH20 0xFFFFFFFFFFFFFFFFFFFFFFFFFFFFFFFFFFFFFFFF AND PUSH4 0x1058D281 DUP3 PUSH1 0x40 MLOAD DUP3 PUSH4 0xFFFFFFFF AND PUSH1 0xE0 SHL DUP2 MSTORE PUSH1 0x4 ADD DUP1 DUP3 DUP2 MSTORE PUSH1 0x20 ADD SWAP2 POP POP PUSH1 0x0 PUSH1 0x40 MLOAD DUP1 DUP4 SUB DUP2 PUSH1 0x0 DUP8 DUP1 EXTCODESIZE ISZERO DUP1 ISZERO PUSH2 0x11CA JUMPI PUSH1 0x0 DUP1 REVERT JUMPDEST POP GAS CALL ISZERO DUP1 ISZERO PUSH2 0x11DE JUMPI RETURNDATASIZE PUSH1 0x0 DUP1 RETURNDATACOPY RETURNDATASIZE PUSH1 0x0 REVERT JUMPDEST POP POP POP POP PUSH1 0x0 PUSH2 0x11EC PUSH2 0x194F JUMP JUMPDEST SWAP1 POP PUSH1 0x0 PUSH2 0x1203 DUP5 DUP4 PUSH2 0x3A37 SWAP1 SWAP2 SWAP1 PUSH4 0xFFFFFFFF AND JUMP JUMPDEST SWAP1 POP DUP3 DUP2 LT ISZERO PUSH2 0x1223 JUMPI PUSH2 0x1220 DUP2 DUP6 PUSH2 0x3ABA SWAP1 SWAP2 SWAP1 PUSH4 0xFFFFFFFF AND JUMP JUMPDEST SWAP6 POP JUMPDEST POP POP POP JUMPDEST PUSH2 0x1240 PUSH1 0xC SLOAD DUP6 PUSH1 0x1 ADD SLOAD PUSH2 0x3ABA SWAP1 SWAP2 SWAP1 PUSH4 0xFFFFFFFF AND JUMP JUMPDEST TIMESTAMP LT ISZERO PUSH2 0x12F8 JUMPI PUSH1 0x0 PUSH2 0x1272 PUSH2 0x2710 PUSH2 0x1264 PUSH1 0xB SLOAD DUP8 PUSH2 0x3928 SWAP1 SWAP2 SWAP1 PUSH4 0xFFFFFFFF AND JUMP JUMPDEST PUSH2 0x39AE SWAP1 SWAP2 SWAP1 PUSH4 0xFFFFFFFF AND JUMP JUMPDEST SWAP1 POP PUSH2 0x12E1 PUSH1 0x8 PUSH1 0x0 SWAP1 SLOAD SWAP1 PUSH2 0x100 EXP SWAP1 DIV PUSH20 0xFFFFFFFFFFFFFFFFFFFFFFFFFFFFFFFFFFFFFFFF AND DUP3 PUSH32 0x0 PUSH20 0xFFFFFFFFFFFFFFFFFFFFFFFFFFFFFFFFFFFFFFFF AND PUSH2 0x3B42 SWAP1 SWAP3 SWAP2 SWAP1 PUSH4 0xFFFFFFFF AND JUMP JUMPDEST PUSH2 0x12F4 DUP2 DUP6 PUSH2 0x3A37 SWAP1 SWAP2 SWAP1 PUSH4 0xFFFFFFFF AND JUMP JUMPDEST SWAP4 POP POP JUMPDEST PUSH1 0x0 DUP5 PUSH1 0x0 ADD SLOAD GT ISZERO PUSH2 0x1344 JUMPI PUSH2 0x1337 PUSH1 0x5 SLOAD PUSH2 0x1329 PUSH2 0x1316 PUSH2 0x1F78 JUMP JUMPDEST DUP8 PUSH1 0x0 ADD SLOAD PUSH2 0x3928 SWAP1 SWAP2 SWAP1 PUSH4 0xFFFFFFFF AND JUMP JUMPDEST PUSH2 0x39AE SWAP1 SWAP2 SWAP1 PUSH4 0xFFFFFFFF AND JUMP JUMPDEST DUP5 PUSH1 0x2 ADD DUP2 SWAP1 SSTORE POP PUSH2 0x134F JUMP JUMPDEST PUSH1 0x0 DUP5 PUSH1 0x2 ADD DUP2 SWAP1 SSTORE POP JUMPDEST TIMESTAMP DUP5 PUSH1 0x3 ADD DUP2 SWAP1 SSTORE POP PUSH2 0x1363 DUP3 PUSH1 0x1 PUSH2 0x3BE4 JUMP JUMPDEST PUSH2 0x13AE CALLER DUP5 PUSH32 0x0 PUSH20 0xFFFFFFFFFFFFFFFFFFFFFFFFFFFFFFFFFFFFFFFF AND PUSH2 0x3B42 SWAP1 SWAP3 SWAP2 SWAP1 PUSH4 0xFFFFFFFF AND JUMP JUMPDEST CALLER PUSH20 0xFFFFFFFFFFFFFFFFFFFFFFFFFFFFFFFFFFFFFFFF AND PUSH32 0xF279E6A1F5E320CCA91135676D9CB6E44CA8A08C0B88342BCDB1144F6511B568 DUP5 DUP8 PUSH1 0x40 MLOAD DUP1 DUP4 DUP2 MSTORE PUSH1 0x20 ADD DUP3 DUP2 MSTORE PUSH1 0x20 ADD SWAP3 POP POP POP PUSH1 0x40 MLOAD DUP1 SWAP2 SUB SWAP1 LOG2 POP POP POP POP POP JUMP JUMPDEST PUSH1 0x5 SLOAD DUP2 JUMP JUMPDEST PUSH1 0x7 PUSH1 0x0 SWAP1 SLOAD SWAP1 PUSH2 0x100 EXP SWAP1 DIV PUSH20 0xFFFFFFFFFFFFFFFFFFFFFFFFFFFFFFFFFFFFFFFF AND PUSH20 0xFFFFFFFFFFFFFFFFFFFFFFFFFFFFFFFFFFFFFFFF AND CALLER PUSH20 0xFFFFFFFFFFFFFFFFFFFFFFFFFFFFFFFFFFFFFFFF AND EQ PUSH2 0x14D4 JUMPI PUSH1 0x40 MLOAD PUSH32 0x8C379A000000000000000000000000000000000000000000000000000000000 DUP2 MSTORE PUSH1 0x4 ADD DUP1 DUP1 PUSH1 0x20 ADD DUP3 DUP2 SUB DUP3 MSTORE PUSH1 0xB DUP2 MSTORE PUSH1 0x20 ADD DUP1 PUSH32 0x61646D696E3A207775743F000000000000000000000000000000000000000000 DUP2 MSTORE POP PUSH1 0x20 ADD SWAP2 POP POP PUSH1 0x40 MLOAD DUP1 SWAP2 SUB SWAP1 REVERT JUMPDEST PUSH2 0x14DC PUSH2 0x1B11 JUMP JUMPDEST PUSH2 0x154E JUMPI PUSH1 0x40 MLOAD PUSH32 0x8C379A000000000000000000000000000000000000000000000000000000000 DUP2 MSTORE PUSH1 0x4 ADD DUP1 DUP1 PUSH1 0x20 ADD DUP3 DUP2 SUB DUP3 MSTORE PUSH1 0x14 DUP2 MSTORE PUSH1 0x20 ADD DUP1 PUSH32 0x5061757361626C653A206E6F7420706175736564000000000000000000000000 DUP2 MSTORE POP PUSH1 0x20 ADD SWAP2 POP POP PUSH1 0x40 MLOAD DUP1 SWAP2 SUB SWAP1 REVERT JUMPDEST PUSH2 0x1556 PUSH2 0x3D94 JUMP JUMPDEST PUSH32 0x7805862F689E2F13DF9F062FF482AD3AD112ACA9E0847911ED832E158C525B33 PUSH1 0x40 MLOAD PUSH1 0x40 MLOAD DUP1 SWAP2 SUB SWAP1 LOG1 JUMP JUMPDEST PUSH2 0x158D CALLER PUSH2 0x3915 JUMP JUMPDEST ISZERO PUSH2 0x1600 JUMPI PUSH1 0x40 MLOAD PUSH32 0x8C379A000000000000000000000000000000000000000000000000000000000 DUP2 MSTORE PUSH1 0x4 ADD DUP1 DUP1 PUSH1 0x20 ADD DUP3 DUP2 SUB DUP3 MSTORE PUSH1 0x14 DUP2 MSTORE PUSH1 0x20 ADD DUP1 PUSH32 0x636F6E7472616374206E6F7420616C6C6F776564000000000000000000000000 DUP2 MSTORE POP PUSH1 0x20 ADD SWAP2 POP POP PUSH1 0x40 MLOAD DUP1 SWAP2 SUB SWAP1 REVERT JUMPDEST ORIGIN PUSH20 0xFFFFFFFFFFFFFFFFFFFFFFFFFFFFFFFFFFFFFFFF AND CALLER PUSH20 0xFFFFFFFFFFFFFFFFFFFFFFFFFFFFFFFFFFFFFFFF AND EQ PUSH2 0x16A1 JUMPI PUSH1 0x40 MLOAD PUSH32 0x8C379A000000000000000000000000000000000000000000000000000000000 DUP2 MSTORE PUSH1 0x4 ADD DUP1 DUP1 PUSH1 0x20 ADD DUP3 DUP2 SUB DUP3 MSTORE PUSH1 0x1A DUP2 MSTORE PUSH1 0x20 ADD DUP1 PUSH32 0x70726F787920636F6E7472616374206E6F7420616C6C6F776564000000000000 DUP2 MSTORE POP PUSH1 0x20 ADD SWAP2 POP POP PUSH1 0x40 MLOAD DUP1 SWAP2 SUB SWAP1 REVERT JUMPDEST PUSH2 0x16A9 PUSH2 0x1B11 JUMP JUMPDEST ISZERO PUSH2 0x171C JUMPI PUSH1 0x40 MLOAD PUSH32 0x8C379A000000000000000000000000000000000000000000000000000000000 DUP2 MSTORE PUSH1 0x4 ADD DUP1 DUP1 PUSH1 0x20 ADD DUP3 DUP2 SUB DUP3 MSTORE PUSH1 0x10 DUP2 MSTORE PUSH1 0x20 ADD DUP1 PUSH32 0x5061757361626C653A2070617573656400000000000000000000000000000000 DUP2 MSTORE POP PUSH1 0x20 ADD SWAP2 POP POP PUSH1 0x40 MLOAD DUP1 SWAP2 SUB SWAP1 REVERT JUMPDEST PUSH1 0x0 PUSH2 0x1726 PUSH2 0x194F JUMP JUMPDEST SWAP1 POP PUSH32 0x0 PUSH20 0xFFFFFFFFFFFFFFFFFFFFFFFFFFFFFFFFFFFFFFFF AND PUSH4 0x1058D281 PUSH1 0x0 PUSH1 0x40 MLOAD DUP3 PUSH4 0xFFFFFFFF AND PUSH1 0xE0 SHL DUP2 MSTORE PUSH1 0x4 ADD DUP1 DUP3 DUP2 MSTORE PUSH1 0x20 ADD SWAP2 POP POP PUSH1 0x0 PUSH1 0x40 MLOAD DUP1 DUP4 SUB DUP2 PUSH1 0x0 DUP8 DUP1 EXTCODESIZE ISZERO DUP1 ISZERO PUSH2 0x179C JUMPI PUSH1 0x0 DUP1 REVERT JUMPDEST POP GAS CALL ISZERO DUP1 ISZERO PUSH2 0x17B0 JUMPI RETURNDATASIZE PUSH1 0x0 DUP1 RETURNDATACOPY RETURNDATASIZE PUSH1 0x0 REVERT JUMPDEST POP POP POP POP PUSH1 0x0 PUSH2 0x17D0 DUP3 PUSH2 0x17C2 PUSH2 0x194F JUMP JUMPDEST PUSH2 0x3A37 SWAP1 SWAP2 SWAP1 PUSH4 0xFFFFFFFF AND JUMP JUMPDEST SWAP1 POP PUSH1 0x0 PUSH2 0x17FD PUSH2 0x2710 PUSH2 0x17EF PUSH1 0x9 SLOAD DUP6 PUSH2 0x3928 SWAP1 SWAP2 SWAP1 PUSH4 0xFFFFFFFF AND JUMP JUMPDEST PUSH2 0x39AE SWAP1 SWAP2 SWAP1 PUSH4 0xFFFFFFFF AND JUMP JUMPDEST SWAP1 POP PUSH2 0x186C PUSH1 0x8 PUSH1 0x0 SWAP1 SLOAD SWAP1 PUSH2 0x100 EXP SWAP1 DIV PUSH20 0xFFFFFFFFFFFFFFFFFFFFFFFFFFFFFFFFFFFFFFFF AND DUP3 PUSH32 0x0 PUSH20 0xFFFFFFFFFFFFFFFFFFFFFFFFFFFFFFFFFFFFFFFF AND PUSH2 0x3B42 SWAP1 SWAP3 SWAP2 SWAP1 PUSH4 0xFFFFFFFF AND JUMP JUMPDEST PUSH1 0x0 PUSH2 0x1897 PUSH2 0x2710 PUSH2 0x1889 PUSH1 0xA SLOAD DUP7 PUSH2 0x3928 SWAP1 SWAP2 SWAP1 PUSH4 0xFFFFFFFF AND JUMP JUMPDEST PUSH2 0x39AE SWAP1 SWAP2 SWAP1 PUSH4 0xFFFFFFFF AND JUMP JUMPDEST SWAP1 POP PUSH2 0x18E4 CALLER DUP3 PUSH32 0x0 PUSH20 0xFFFFFFFFFFFFFFFFFFFFFFFFFFFFFFFFFFFFFFFF AND PUSH2 0x3B42 SWAP1 SWAP3 SWAP2 SWAP1 PUSH4 0xFFFFFFFF AND JUMP JUMPDEST PUSH2 0x18EC PUSH2 0x3E7E JUMP JUMPDEST TIMESTAMP PUSH1 0x6 DUP2 SWAP1 SSTORE POP CALLER PUSH20 0xFFFFFFFFFFFFFFFFFFFFFFFFFFFFFFFFFFFFFFFF AND PUSH32 0x71BAB65CED2E5750775A0613BE067DF48EF06CF92A496EBF7663AE0660924954 DUP4 DUP4 PUSH1 0x40 MLOAD DUP1 DUP4 DUP2 MSTORE PUSH1 0x20 ADD DUP3 DUP2 MSTORE PUSH1 0x20 ADD SWAP3 POP POP POP PUSH1 0x40 MLOAD DUP1 SWAP2 SUB SWAP1 LOG2 POP POP POP POP JUMP JUMPDEST PUSH1 0x0 PUSH32 0x0 PUSH20 0xFFFFFFFFFFFFFFFFFFFFFFFFFFFFFFFFFFFFFFFF AND PUSH4 0x70A08231 ADDRESS PUSH1 0x40 MLOAD DUP3 PUSH4 0xFFFFFFFF AND PUSH1 0xE0 SHL DUP2 MSTORE PUSH1 0x4 ADD DUP1 DUP3 PUSH20 0xFFFFFFFFFFFFFFFFFFFFFFFFFFFFFFFFFFFFFFFF AND DUP2 MSTORE PUSH1 0x20 ADD SWAP2 POP POP PUSH1 0x20 PUSH1 0x40 MLOAD DUP1 DUP4 SUB DUP2 DUP7 DUP1 EXTCODESIZE ISZERO DUP1 ISZERO PUSH2 0x19D8 JUMPI PUSH1 0x0 DUP1 REVERT JUMPDEST POP GAS STATICCALL ISZERO DUP1 ISZERO PUSH2 0x19EC JUMPI RETURNDATASIZE PUSH1 0x0 DUP1 RETURNDATACOPY RETURNDATASIZE PUSH1 0x0 REVERT JUMPDEST POP POP POP POP PUSH1 0x40 MLOAD RETURNDATASIZE PUSH1 0x20 DUP2 LT ISZERO PUSH2 0x1A02 JUMPI PUSH1 0x0 DUP1 REVERT JUMPDEST DUP2 ADD SWAP1 DUP1 DUP1 MLOAD SWAP1 PUSH1 0x20 ADD SWAP1 SWAP3 SWAP2 SWAP1 POP POP POP SWAP1 POP SWAP1 JUMP JUMPDEST PUSH1 0x3 SLOAD DUP2 JUMP JUMPDEST PUSH1 0x0 DUP1 PUSH32 0x0 PUSH20 0xFFFFFFFFFFFFFFFFFFFFFFFFFFFFFFFFFFFFFFFF AND PUSH4 0x1175A1DD PUSH1 0x0 ADDRESS PUSH1 0x40 MLOAD DUP4 PUSH4 0xFFFFFFFF AND PUSH1 0xE0 SHL DUP2 MSTORE PUSH1 0x4 ADD DUP1 DUP4 DUP2 MSTORE PUSH1 0x20 ADD DUP3 PUSH20 0xFFFFFFFFFFFFFFFFFFFFFFFFFFFFFFFFFFFFFFFF AND DUP2 MSTORE PUSH1 0x20 ADD SWAP3 POP POP POP PUSH1 0x20 PUSH1 0x40 MLOAD DUP1 DUP4 SUB DUP2 DUP7 DUP1 EXTCODESIZE ISZERO DUP1 ISZERO PUSH2 0x1AB1 JUMPI PUSH1 0x0 DUP1 REVERT JUMPDEST POP GAS STATICCALL ISZERO DUP1 ISZERO PUSH2 0x1AC5 JUMPI RETURNDATASIZE PUSH1 0x0 DUP1 RETURNDATACOPY RETURNDATASIZE PUSH1 0x0 REVERT JUMPDEST POP POP POP POP PUSH1 0x40 MLOAD RETURNDATASIZE PUSH1 0x20 DUP2 LT ISZERO PUSH2 0x1ADB JUMPI PUSH1 0x0 DUP1 REVERT JUMPDEST DUP2 ADD SWAP1 DUP1 DUP1 MLOAD SWAP1 PUSH1 0x20 ADD SWAP1 SWAP3 SWAP2 SWAP1 POP POP POP SWAP1 POP PUSH2 0x1B08 PUSH2 0x1AF9 PUSH2 0x194F JUMP JUMPDEST DUP3 PUSH2 0x3ABA SWAP1 SWAP2 SWAP1 PUSH4 0xFFFFFFFF AND JUMP JUMPDEST SWAP1 POP DUP1 SWAP2 POP POP SWAP1 JUMP JUMPDEST PUSH1 0x0 DUP1 PUSH1 0x14 SWAP1 SLOAD SWAP1 PUSH2 0x100 EXP SWAP1 DIV PUSH1 0xFF AND SWAP1 POP SWAP1 JUMP JUMPDEST PUSH1 0x8 PUSH1 0x0 SWAP1 SLOAD SWAP1 PUSH2 0x100 EXP SWAP1 DIV PUSH20 0xFFFFFFFFFFFFFFFFFFFFFFFFFFFFFFFFFFFFFFFF AND DUP2 JUMP JUMPDEST PUSH2 0x1B55 PUSH2 0x3F22 JUMP JUMPDEST PUSH20 0xFFFFFFFFFFFFFFFFFFFFFFFFFFFFFFFFFFFFFFFF AND PUSH2 0x1B73 PUSH2 0x2465 JUMP JUMPDEST PUSH20 0xFFFFFFFFFFFFFFFFFFFFFFFFFFFFFFFFFFFFFFFF AND EQ PUSH2 0x1BFC JUMPI PUSH1 0x40 MLOAD PUSH32 0x8C379A000000000000000000000000000000000000000000000000000000000 DUP2 MSTORE PUSH1 0x4 ADD DUP1 DUP1 PUSH1 0x20 ADD DUP3 DUP2 SUB DUP3 MSTORE PUSH1 0x20 DUP2 MSTORE PUSH1 0x20 ADD DUP1 PUSH32 0x4F776E61626C653A2063616C6C6572206973206E6F7420746865206F776E6572 DUP2 MSTORE POP PUSH1 0x20 ADD SWAP2 POP POP PUSH1 0x40 MLOAD DUP1 SWAP2 SUB SWAP1 REVERT JUMPDEST PUSH1 0x0 PUSH20 0xFFFFFFFFFFFFFFFFFFFFFFFFFFFFFFFFFFFFFFFF AND DUP2 PUSH20 0xFFFFFFFFFFFFFFFFFFFFFFFFFFFFFFFFFFFFFFFF AND EQ ISZERO PUSH2 0x1C9F JUMPI PUSH1 0x40 MLOAD PUSH32 0x8C379A000000000000000000000000000000000000000000000000000000000 DUP2 MSTORE PUSH1 0x4 ADD DUP1 DUP1 PUSH1 0x20 ADD DUP3 DUP2 SUB DUP3 MSTORE PUSH1 0x16 DUP2 MSTORE PUSH1 0x20 ADD DUP1 PUSH32 0x43616E6E6F74206265207A65726F206164647265737300000000000000000000 DUP2 MSTORE POP PUSH1 0x20 ADD SWAP2 POP POP PUSH1 0x40 MLOAD DUP1 SWAP2 SUB SWAP1 REVERT JUMPDEST DUP1 PUSH1 0x7 PUSH1 0x0 PUSH2 0x100 EXP DUP2 SLOAD DUP2 PUSH20 0xFFFFFFFFFFFFFFFFFFFFFFFFFFFFFFFFFFFFFFFF MUL NOT AND SWAP1 DUP4 PUSH20 0xFFFFFFFFFFFFFFFFFFFFFFFFFFFFFFFFFFFFFFFF AND MUL OR SWAP1 SSTORE POP POP JUMP JUMPDEST PUSH1 0x7 PUSH1 0x0 SWAP1 SLOAD SWAP1 PUSH2 0x100 EXP SWAP1 DIV PUSH20 0xFFFFFFFFFFFFFFFFFFFFFFFFFFFFFFFFFFFFFFFF AND PUSH20 0xFFFFFFFFFFFFFFFFFFFFFFFFFFFFFFFFFFFFFFFF AND CALLER PUSH20 0xFFFFFFFFFFFFFFFFFFFFFFFFFFFFFFFFFFFFFFFF AND EQ PUSH2 0x1DA6 JUMPI PUSH1 0x40 MLOAD PUSH32 0x8C379A000000000000000000000000000000000000000000000000000000000 DUP2 MSTORE PUSH1 0x4 ADD DUP1 DUP1 PUSH1 0x20 ADD DUP3 DUP2 SUB DUP3 MSTORE PUSH1 0xB DUP2 MSTORE PUSH1 0x20 ADD DUP1 PUSH32 0x61646D696E3A207775743F000000000000000000000000000000000000000000 DUP2 MSTORE POP PUSH1 0x20 ADD SWAP2 POP POP PUSH1 0x40 MLOAD DUP1 SWAP2 SUB SWAP1 REVERT JUMPDEST PUSH2 0x258 DUP2 GT ISZERO PUSH2 0x1E01 JUMPI PUSH1 0x40 MLOAD PUSH32 0x8C379A000000000000000000000000000000000000000000000000000000000 DUP2 MSTORE PUSH1 0x4 ADD DUP1 DUP1 PUSH1 0x20 ADD DUP3 DUP2 SUB DUP3 MSTORE PUSH1 0x36 DUP2 MSTORE PUSH1 0x20 ADD DUP1 PUSH2 0x4B7A PUSH1 0x36 SWAP2 CODECOPY PUSH1 0x40 ADD SWAP2 POP POP PUSH1 0x40 MLOAD DUP1 SWAP2 SUB SWAP1 REVERT JUMPDEST DUP1 PUSH1 0x9 DUP2 SWAP1 SSTORE POP POP JUMP JUMPDEST PUSH2 0x1E13 PUSH2 0x3F22 JUMP JUMPDEST PUSH20 0xFFFFFFFFFFFFFFFFFFFFFFFFFFFFFFFFFFFFFFFF AND PUSH2 0x1E31 PUSH2 0x2465 JUMP JUMPDEST PUSH20 0xFFFFFFFFFFFFFFFFFFFFFFFFFFFFFFFFFFFFFFFF AND EQ PUSH2 0x1EBA JUMPI PUSH1 0x40 MLOAD PUSH32 0x8C379A000000000000000000000000000000000000000000000000000000000 DUP2 MSTORE PUSH1 0x4 ADD DUP1 DUP1 PUSH1 0x20 ADD DUP3 DUP2 SUB DUP3 MSTORE PUSH1 0x20 DUP2 MSTORE PUSH1 0x20 ADD DUP1 PUSH32 0x4F776E61626C653A2063616C6C6572206973206E6F7420746865206F776E6572 DUP2 MSTORE POP PUSH1 0x20 ADD SWAP2 POP POP PUSH1 0x40 MLOAD DUP1 SWAP2 SUB SWAP1 REVERT JUMPDEST PUSH1 0x0 PUSH20 0xFFFFFFFFFFFFFFFFFFFFFFFFFFFFFFFFFFFFFFFF AND PUSH1 0x0 DUP1 SLOAD SWAP1 PUSH2 0x100 EXP SWAP1 DIV PUSH20 0xFFFFFFFFFFFFFFFFFFFFFFFFFFFFFFFFFFFFFFFF AND PUSH20 0xFFFFFFFFFFFFFFFFFFFFFFFFFFFFFFFFFFFFFFFF AND PUSH32 0x8BE0079C531659141344CD1FD0A4F28419497F9722A3DAAFE3B4186F6B6457E0 PUSH1 0x40 MLOAD PUSH1 0x40 MLOAD DUP1 SWAP2 SUB SWAP1 LOG3 PUSH1 0x0 DUP1 PUSH1 0x0 PUSH2 0x100 EXP DUP2 SLOAD DUP2 PUSH20 0xFFFFFFFFFFFFFFFFFFFFFFFFFFFFFFFFFFFFFFFF MUL NOT AND SWAP1 DUP4 PUSH20 0xFFFFFFFFFFFFFFFFFFFFFFFFFFFFFFFFFFFFFFFF AND MUL OR SWAP1 SSTORE POP JUMP JUMPDEST PUSH1 0x0 DUP1 PUSH32 0x0 PUSH20 0xFFFFFFFFFFFFFFFFFFFFFFFFFFFFFFFFFFFFFFFF AND PUSH4 0x93F1A40B PUSH1 0x0 ADDRESS PUSH1 0x40 MLOAD DUP4 PUSH4 0xFFFFFFFF AND PUSH1 0xE0 SHL DUP2 MSTORE PUSH1 0x4 ADD DUP1 DUP4 DUP2 MSTORE PUSH1 0x20 ADD DUP3 PUSH20 0xFFFFFFFFFFFFFFFFFFFFFFFFFFFFFFFFFFFFFFFF AND DUP2 MSTORE PUSH1 0x20 ADD SWAP3 POP POP POP PUSH1 0x40 DUP1 MLOAD DUP1 DUP4 SUB DUP2 DUP7 DUP1 EXTCODESIZE ISZERO DUP1 ISZERO PUSH2 0x200A JUMPI PUSH1 0x0 DUP1 REVERT JUMPDEST POP GAS STATICCALL ISZERO DUP1 ISZERO PUSH2 0x201E JUMPI RETURNDATASIZE PUSH1 0x0 DUP1 RETURNDATACOPY RETURNDATASIZE PUSH1 0x0 REVERT JUMPDEST POP POP POP POP PUSH1 0x40 MLOAD RETURNDATASIZE PUSH1 0x40 DUP2 LT ISZERO PUSH2 0x2034 JUMPI PUSH1 0x0 DUP1 REVERT JUMPDEST DUP2 ADD SWAP1 DUP1 DUP1 MLOAD SWAP1 PUSH1 0x20 ADD SWAP1 SWAP3 SWAP2 SWAP1 DUP1 MLOAD SWAP1 PUSH1 0x20 ADD SWAP1 SWAP3 SWAP2 SWAP1 POP POP POP POP SWAP1 POP PUSH2 0x2126 DUP2 PUSH32 0x0 PUSH20 0xFFFFFFFFFFFFFFFFFFFFFFFFFFFFFFFFFFFFFFFF AND PUSH4 0x70A08231 ADDRESS PUSH1 0x40 MLOAD DUP3 PUSH4 0xFFFFFFFF AND PUSH1 0xE0 SHL DUP2 MSTORE PUSH1 0x4 ADD DUP1 DUP3 PUSH20 0xFFFFFFFFFFFFFFFFFFFFFFFFFFFFFFFFFFFFFFFF AND DUP2 MSTORE PUSH1 0x20 ADD SWAP2 POP POP PUSH1 0x20 PUSH1 0x40 MLOAD DUP1 DUP4 SUB DUP2 DUP7 DUP1 EXTCODESIZE ISZERO DUP1 ISZERO PUSH2 0x20DD JUMPI PUSH1 0x0 DUP1 REVERT JUMPDEST POP GAS STATICCALL ISZERO DUP1 ISZERO PUSH2 0x20F1 JUMPI RETURNDATASIZE PUSH1 0x0 DUP1 RETURNDATACOPY RETURNDATASIZE PUSH1 0x0 REVERT JUMPDEST POP POP POP POP PUSH1 0x40 MLOAD RETURNDATASIZE PUSH1 0x20 DUP2 LT ISZERO PUSH2 0x2107 JUMPI PUSH1 0x0 DUP1 REVERT JUMPDEST DUP2 ADD SWAP1 DUP1 DUP1 MLOAD SWAP1 PUSH1 0x20 ADD SWAP1 SWAP3 SWAP2 SWAP1 POP POP POP PUSH2 0x3ABA SWAP1 SWAP2 SWAP1 PUSH4 0xFFFFFFFF AND JUMP JUMPDEST SWAP2 POP POP SWAP1 JUMP JUMPDEST PUSH1 0x0 DUP1 PUSH1 0x5 SLOAD EQ PUSH2 0x2172 JUMPI PUSH2 0x216D PUSH1 0x5 SLOAD PUSH2 0x215F PUSH8 0xDE0B6B3A7640000 PUSH2 0x2151 PUSH2 0x1F78 JUMP JUMPDEST PUSH2 0x3928 SWAP1 SWAP2 SWAP1 PUSH4 0xFFFFFFFF AND JUMP JUMPDEST PUSH2 0x39AE SWAP1 SWAP2 SWAP1 PUSH4 0xFFFFFFFF AND JUMP JUMPDEST PUSH2 0x217C JUMP JUMPDEST PUSH8 0xDE0B6B3A7640000 JUMPDEST SWAP1 POP SWAP1 JUMP JUMPDEST PUSH1 0x7 PUSH1 0x0 SWAP1 SLOAD SWAP1 PUSH2 0x100 EXP SWAP1 DIV PUSH20 0xFFFFFFFFFFFFFFFFFFFFFFFFFFFFFFFFFFFFFFFF AND PUSH20 0xFFFFFFFFFFFFFFFFFFFFFFFFFFFFFFFFFFFFFFFF AND CALLER PUSH20 0xFFFFFFFFFFFFFFFFFFFFFFFFFFFFFFFFFFFFFFFF AND EQ PUSH2 0x2244 JUMPI PUSH1 0x40 MLOAD PUSH32 0x8C379A000000000000000000000000000000000000000000000000000000000 DUP2 MSTORE PUSH1 0x4 ADD DUP1 DUP1 PUSH1 0x20 ADD DUP3 DUP2 SUB DUP3 MSTORE PUSH1 0xB DUP2 MSTORE PUSH1 0x20 ADD DUP1 PUSH32 0x61646D696E3A207775743F000000000000000000000000000000000000000000 DUP2 MSTORE POP PUSH1 0x20 ADD SWAP2 POP POP PUSH1 0x40 MLOAD DUP1 SWAP2 SUB SWAP1 REVERT JUMPDEST PUSH2 0x224C PUSH2 0x1B11 JUMP JUMPDEST ISZERO PUSH2 0x22BF JUMPI PUSH1 0x40 MLOAD PUSH32 0x8C379A000000000000000000000000000000000000000000000000000000000 DUP2 MSTORE PUSH1 0x4 ADD DUP1 DUP1 PUSH1 0x20 ADD DUP3 DUP2 SUB DUP3 MSTORE PUSH1 0x10 DUP2 MSTORE PUSH1 0x20 ADD DUP1 PUSH32 0x5061757361626C653A2070617573656400000000000000000000000000000000 DUP2 MSTORE POP PUSH1 0x20 ADD SWAP2 POP POP PUSH1 0x40 MLOAD DUP1 SWAP2 SUB SWAP1 REVERT JUMPDEST PUSH2 0x22C7 PUSH2 0x3F2A JUMP JUMPDEST PUSH32 0x6985A02210A168E66602D3235CB6DB0E70F92B3BA4D376A33C0F3D9434BFF625 PUSH1 0x40 MLOAD PUSH1 0x40 MLOAD DUP1 SWAP2 SUB SWAP1 LOG1 JUMP JUMPDEST PUSH2 0x22FE CALLER PUSH2 0x3915 JUMP JUMPDEST ISZERO PUSH2 0x2371 JUMPI PUSH1 0x40 MLOAD PUSH32 0x8C379A000000000000000000000000000000000000000000000000000000000 DUP2 MSTORE PUSH1 0x4 ADD DUP1 DUP1 PUSH1 0x20 ADD DUP3 DUP2 SUB DUP3 MSTORE PUSH1 0x14 DUP2 MSTORE PUSH1 0x20 ADD DUP1 PUSH32 0x636F6E7472616374206E6F7420616C6C6F776564000000000000000000000000 DUP2 MSTORE POP PUSH1 0x20 ADD SWAP2 POP POP PUSH1 0x40 MLOAD DUP1 SWAP2 SUB SWAP1 REVERT JUMPDEST ORIGIN PUSH20 0xFFFFFFFFFFFFFFFFFFFFFFFFFFFFFFFFFFFFFFFF AND CALLER PUSH20 0xFFFFFFFFFFFFFFFFFFFFFFFFFFFFFFFFFFFFFFFF AND EQ PUSH2 0x2412 JUMPI PUSH1 0x40 MLOAD PUSH32 0x8C379A000000000000000000000000000000000000000000000000000000000 DUP2 MSTORE PUSH1 0x4 ADD DUP1 DUP1 PUSH1 0x20 ADD DUP3 DUP2 SUB DUP3 MSTORE PUSH1 0x1A DUP2 MSTORE PUSH1 0x20 ADD DUP1 PUSH32 0x70726F787920636F6E7472616374206E6F7420616C6C6F776564000000000000 DUP2 MSTORE POP PUSH1 0x20 ADD SWAP2 POP POP PUSH1 0x40 MLOAD DUP1 SWAP2 SUB SWAP1 REVERT JUMPDEST PUSH2 0x245D PUSH1 0x1 PUSH1 0x0 CALLER PUSH20 0xFFFFFFFFFFFFFFFFFFFFFFFFFFFFFFFFFFFFFFFF AND PUSH20 0xFFFFFFFFFFFFFFFFFFFFFFFFFFFFFFFFFFFFFFFF AND DUP2 MSTORE PUSH1 0x20 ADD SWAP1 DUP2 MSTORE PUSH1 0x20 ADD PUSH1 0x0 KECCAK256 PUSH1 0x0 ADD SLOAD PUSH2 0xE6B JUMP JUMPDEST JUMP JUMPDEST PUSH1 0x9 SLOAD DUP2 JUMP JUMPDEST PUSH1 0x0 DUP1 PUSH1 0x0 SWAP1 SLOAD SWAP1 PUSH2 0x100 EXP SWAP1 DIV PUSH20 0xFFFFFFFFFFFFFFFFFFFFFFFFFFFFFFFFFFFFFFFF AND SWAP1 POP SWAP1 JUMP JUMPDEST PUSH1 0xA SLOAD DUP2 JUMP JUMPDEST PUSH1 0x7 PUSH1 0x0 SWAP1 SLOAD SWAP1 PUSH2 0x100 EXP SWAP1 DIV PUSH20 0xFFFFFFFFFFFFFFFFFFFFFFFFFFFFFFFFFFFFFFFF AND PUSH20 0xFFFFFFFFFFFFFFFFFFFFFFFFFFFFFFFFFFFFFFFF AND CALLER PUSH20 0xFFFFFFFFFFFFFFFFFFFFFFFFFFFFFFFFFFFFFFFF AND EQ PUSH2 0x2557 JUMPI PUSH1 0x40 MLOAD PUSH32 0x8C379A000000000000000000000000000000000000000000000000000000000 DUP2 MSTORE PUSH1 0x4 ADD DUP1 DUP1 PUSH1 0x20 ADD DUP3 DUP2 SUB DUP3 MSTORE PUSH1 0xB DUP2 MSTORE PUSH1 0x20 ADD DUP1 PUSH32 0x61646D696E3A207775743F000000000000000000000000000000000000000000 DUP2 MSTORE POP PUSH1 0x20 ADD SWAP2 POP POP PUSH1 0x40 MLOAD DUP1 SWAP2 SUB SWAP1 REVERT JUMPDEST DUP2 NUMBER LT PUSH2 0x25AF JUMPI PUSH1 0x40 MLOAD PUSH32 0x8C379A000000000000000000000000000000000000000000000000000000000 DUP2 MSTORE PUSH1 0x4 ADD DUP1 DUP1 PUSH1 0x20 ADD DUP3 DUP2 SUB DUP3 MSTORE PUSH1 0x34 DUP2 MSTORE PUSH1 0x20 ADD DUP1 PUSH2 0x4C27 PUSH1 0x34 SWAP2 CODECOPY PUSH1 0x40 ADD SWAP2 POP POP PUSH1 0x40 MLOAD DUP1 SWAP2 SUB SWAP1 REVERT JUMPDEST DUP1 DUP3 LT PUSH2 0x2607 JUMPI PUSH1 0x40 MLOAD PUSH32 0x8C379A000000000000000000000000000000000000000000000000000000000 DUP2 MSTORE PUSH1 0x4 ADD DUP1 DUP1 PUSH1 0x20 ADD DUP3 DUP2 SUB DUP3 MSTORE PUSH1 0x2E DUP2 MSTORE PUSH1 0x20 ADD DUP1 PUSH2 0x4AD9 PUSH1 0x2E SWAP2 CODECOPY PUSH1 0x40 ADD SWAP2 POP POP PUSH1 0x40 MLOAD DUP1 SWAP2 SUB SWAP1 REVERT JUMPDEST DUP2 PUSH1 0x3 DUP2 SWAP1 SSTORE POP DUP1 PUSH1 0x4 DUP2 SWAP1 SSTORE POP PUSH32 0x53462FEC8F17A9D662E3778A6027B6C0C1AC0DA2390A991AA33CB3AA60CAE4E DUP3 DUP3 PUSH1 0x40 MLOAD DUP1 DUP4 DUP2 MSTORE PUSH1 0x20 ADD DUP3 DUP2 MSTORE PUSH1 0x20 ADD SWAP3 POP POP POP PUSH1 0x40 MLOAD DUP1 SWAP2 SUB SWAP1 LOG1 POP POP JUMP JUMPDEST PUSH1 0x0 DUP1 PUSH32 0x0 PUSH20 0xFFFFFFFFFFFFFFFFFFFFFFFFFFFFFFFFFFFFFFFF AND PUSH4 0x1175A1DD PUSH1 0x0 ADDRESS PUSH1 0x40 MLOAD DUP4 PUSH4 0xFFFFFFFF AND PUSH1 0xE0 SHL DUP2 MSTORE PUSH1 0x4 ADD DUP1 DUP4 DUP2 MSTORE PUSH1 0x20 ADD DUP3 PUSH20 0xFFFFFFFFFFFFFFFFFFFFFFFFFFFFFFFFFFFFFFFF AND DUP2 MSTORE PUSH1 0x20 ADD SWAP3 POP POP POP PUSH1 0x20 PUSH1 0x40 MLOAD DUP1 DUP4 SUB DUP2 DUP7 DUP1 EXTCODESIZE ISZERO DUP1 ISZERO PUSH2 0x26EB JUMPI PUSH1 0x0 DUP1 REVERT JUMPDEST POP GAS STATICCALL ISZERO DUP1 ISZERO PUSH2 0x26FF JUMPI RETURNDATASIZE PUSH1 0x0 DUP1 RETURNDATACOPY RETURNDATASIZE PUSH1 0x0 REVERT JUMPDEST POP POP POP POP PUSH1 0x40 MLOAD RETURNDATASIZE PUSH1 0x20 DUP2 LT ISZERO PUSH2 0x2715 JUMPI PUSH1 0x0 DUP1 REVERT JUMPDEST DUP2 ADD SWAP1 DUP1 DUP1 MLOAD SWAP1 PUSH1 0x20 ADD SWAP1 SWAP3 SWAP2 SWAP1 POP POP POP SWAP1 POP PUSH1 0x0 PUSH2 0x2753 PUSH2 0x2710 PUSH2 0x2745 PUSH1 0xA SLOAD DUP6 PUSH2 0x3928 SWAP1 SWAP2 SWAP1 PUSH4 0xFFFFFFFF AND JUMP JUMPDEST PUSH2 0x39AE SWAP1 SWAP2 SWAP1 PUSH4 0xFFFFFFFF AND JUMP JUMPDEST SWAP1 POP DUP1 SWAP3 POP POP POP SWAP1 JUMP JUMPDEST PUSH1 0x6 SLOAD DUP2 JUMP JUMPDEST PUSH1 0x7 PUSH1 0x0 SWAP1 SLOAD SWAP1 PUSH2 0x100 EXP SWAP1 DIV PUSH20 0xFFFFFFFFFFFFFFFFFFFFFFFFFFFFFFFFFFFFFFFF AND PUSH20 0xFFFFFFFFFFFFFFFFFFFFFFFFFFFFFFFFFFFFFFFF AND CALLER PUSH20 0xFFFFFFFFFFFFFFFFFFFFFFFFFFFFFFFFFFFFFFFF AND EQ PUSH2 0x2826 JUMPI PUSH1 0x40 MLOAD PUSH32 0x8C379A000000000000000000000000000000000000000000000000000000000 DUP2 MSTORE PUSH1 0x4 ADD DUP1 DUP1 PUSH1 0x20 ADD DUP3 DUP2 SUB DUP3 MSTORE PUSH1 0xB DUP2 MSTORE PUSH1 0x20 ADD DUP1 PUSH32 0x61646D696E3A207775743F000000000000000000000000000000000000000000 DUP2 MSTORE POP PUSH1 0x20 ADD SWAP2 POP POP PUSH1 0x40 MLOAD DUP1 SWAP2 SUB SWAP1 REVERT JUMPDEST PUSH2 0x190 DUP2 GT ISZERO PUSH2 0x2881 JUMPI PUSH1 0x40 MLOAD PUSH32 0x8C379A000000000000000000000000000000000000000000000000000000000 DUP2 MSTORE PUSH1 0x4 ADD DUP1 DUP1 PUSH1 0x20 ADD DUP3 DUP2 SUB DUP3 MSTORE PUSH1 0x30 DUP2 MSTORE PUSH1 0x20 ADD DUP1 PUSH2 0x4CEA PUSH1 0x30 SWAP2 CODECOPY PUSH1 0x40 ADD SWAP2 POP POP PUSH1 0x40 MLOAD DUP1 SWAP2 SUB SWAP1 REVERT JUMPDEST DUP1 PUSH1 0xB DUP2 SWAP1 SSTORE POP POP JUMP JUMPDEST PUSH2 0x2893 PUSH2 0x1B11 JUMP JUMPDEST ISZERO PUSH2 0x2906 JUMPI PUSH1 0x40 MLOAD PUSH32 0x8C379A000000000000000000000000000000000000000000000000000000000 DUP2 MSTORE PUSH1 0x4 ADD DUP1 DUP1 PUSH1 0x20 ADD DUP3 DUP2 SUB DUP3 MSTORE PUSH1 0x10 DUP2 MSTORE PUSH1 0x20 ADD DUP1 PUSH32 0x5061757361626C653A2070617573656400000000000000000000000000000000 DUP2 MSTORE POP PUSH1 0x20 ADD SWAP2 POP POP PUSH1 0x40 MLOAD DUP1 SWAP2 SUB SWAP1 REVERT JUMPDEST PUSH2 0x290F CALLER PUSH2 0x3915 JUMP JUMPDEST ISZERO PUSH2 0x2982 JUMPI PUSH1 0x40 MLOAD PUSH32 0x8C379A000000000000000000000000000000000000000000000000000000000 DUP2 MSTORE PUSH1 0x4 ADD DUP1 DUP1 PUSH1 0x20 ADD DUP3 DUP2 SUB DUP3 MSTORE PUSH1 0x14 DUP2 MSTORE PUSH1 0x20 ADD DUP1 PUSH32 0x636F6E7472616374206E6F7420616C6C6F776564000000000000000000000000 DUP2 MSTORE POP PUSH1 0x20 ADD SWAP2 POP POP PUSH1 0x40 MLOAD DUP1 SWAP2 SUB SWAP1 REVERT JUMPDEST ORIGIN PUSH20 0xFFFFFFFFFFFFFFFFFFFFFFFFFFFFFFFFFFFFFFFF AND CALLER PUSH20 0xFFFFFFFFFFFFFFFFFFFFFFFFFFFFFFFFFFFFFFFF AND EQ PUSH2 0x2A23 JUMPI PUSH1 0x40 MLOAD PUSH32 0x8C379A000000000000000000000000000000000000000000000000000000000 DUP2 MSTORE PUSH1 0x4 ADD DUP1 DUP1 PUSH1 0x20 ADD DUP3 DUP2 SUB DUP3 MSTORE PUSH1 0x1A DUP2 MSTORE PUSH1 0x20 ADD DUP1 PUSH32 0x70726F787920636F6E7472616374206E6F7420616C6C6F776564000000000000 DUP2 MSTORE POP PUSH1 0x20 ADD SWAP2 POP POP PUSH1 0x40 MLOAD DUP1 SWAP2 SUB SWAP1 REVERT JUMPDEST PUSH1 0x0 DUP2 GT PUSH2 0x2A99 JUMPI PUSH1 0x40 MLOAD PUSH32 0x8C379A000000000000000000000000000000000000000000000000000000000 DUP2 MSTORE PUSH1 0x4 ADD DUP1 DUP1 PUSH1 0x20 ADD DUP3 DUP2 SUB DUP3 MSTORE PUSH1 0x12 DUP2 MSTORE PUSH1 0x20 ADD DUP1 PUSH32 0x4E6F7468696E6720746F206465706F7369740000000000000000000000000000 DUP2 MSTORE POP PUSH1 0x20 ADD SWAP2 POP POP PUSH1 0x40 MLOAD DUP1 SWAP2 SUB SWAP1 REVERT JUMPDEST PUSH1 0x0 PUSH2 0x2AA3 PUSH2 0x1F78 JUMP JUMPDEST SWAP1 POP PUSH2 0x2AF2 CALLER ADDRESS DUP5 PUSH32 0x0 PUSH20 0xFFFFFFFFFFFFFFFFFFFFFFFFFFFFFFFFFFFFFFFF AND PUSH2 0x4016 SWAP1 SWAP4 SWAP3 SWAP2 SWAP1 PUSH4 0xFFFFFFFF AND JUMP JUMPDEST PUSH1 0x0 DUP1 PUSH1 0x5 SLOAD EQ PUSH2 0x2B2B JUMPI PUSH2 0x2B24 DUP3 PUSH2 0x2B16 PUSH1 0x5 SLOAD DUP7 PUSH2 0x3928 SWAP1 SWAP2 SWAP1 PUSH4 0xFFFFFFFF AND JUMP JUMPDEST PUSH2 0x39AE SWAP1 SWAP2 SWAP1 PUSH4 0xFFFFFFFF AND JUMP JUMPDEST SWAP1 POP PUSH2 0x2B2F JUMP JUMPDEST DUP3 SWAP1 POP JUMPDEST PUSH1 0x0 DUP2 GT PUSH2 0x2B88 JUMPI PUSH1 0x40 MLOAD PUSH32 0x8C379A000000000000000000000000000000000000000000000000000000000 DUP2 MSTORE PUSH1 0x4 ADD DUP1 DUP1 PUSH1 0x20 ADD DUP3 DUP2 SUB DUP3 MSTORE PUSH1 0x2E DUP2 MSTORE PUSH1 0x20 ADD DUP1 PUSH2 0x4BF9 PUSH1 0x2E SWAP2 CODECOPY PUSH1 0x40 ADD SWAP2 POP POP PUSH1 0x40 MLOAD DUP1 SWAP2 SUB SWAP1 REVERT JUMPDEST PUSH1 0x0 PUSH1 0x1 PUSH1 0x0 CALLER PUSH20 0xFFFFFFFFFFFFFFFFFFFFFFFFFFFFFFFFFFFFFFFF AND PUSH20 0xFFFFFFFFFFFFFFFFFFFFFFFFFFFFFFFFFFFFFFFF AND DUP2 MSTORE PUSH1 0x20 ADD SWAP1 DUP2 MSTORE PUSH1 0x20 ADD PUSH1 0x0 KECCAK256 SWAP1 POP PUSH2 0x2BE2 DUP3 DUP3 PUSH1 0x0 ADD SLOAD PUSH2 0x3ABA SWAP1 SWAP2 SWAP1 PUSH4 0xFFFFFFFF AND JUMP JUMPDEST DUP2 PUSH1 0x0 ADD DUP2 SWAP1 SSTORE POP TIMESTAMP DUP2 PUSH1 0x1 ADD DUP2 SWAP1 SSTORE POP PUSH2 0x2C08 DUP3 PUSH1 0x5 SLOAD PUSH2 0x3ABA SWAP1 SWAP2 SWAP1 PUSH4 0xFFFFFFFF AND JUMP JUMPDEST PUSH1 0x5 DUP2 SWAP1 SSTORE POP PUSH2 0x2C40 PUSH1 0x5 SLOAD PUSH2 0x2C32 PUSH2 0x2C1F PUSH2 0x1F78 JUMP JUMPDEST DUP5 PUSH1 0x0 ADD SLOAD PUSH2 0x3928 SWAP1 SWAP2 SWAP1 PUSH4 0xFFFFFFFF AND JUMP JUMPDEST PUSH2 0x39AE SWAP1 SWAP2 SWAP1 PUSH4 0xFFFFFFFF AND JUMP JUMPDEST DUP2 PUSH1 0x2 ADD DUP2 SWAP1 SSTORE POP TIMESTAMP DUP2 PUSH1 0x3 ADD DUP2 SWAP1 SSTORE POP PUSH2 0x2C5C DUP5 PUSH1 0x0 PUSH2 0x3BE4 JUMP JUMPDEST PUSH2 0x2C64 PUSH2 0x3E7E JUMP JUMPDEST CALLER PUSH20 0xFFFFFFFFFFFFFFFFFFFFFFFFFFFFFFFFFFFFFFFF AND PUSH32 0x36AF321EC8D3C75236829C5317AFFD40DDB308863A1236D2D277A4025CCCEE1E DUP6 DUP5 TIMESTAMP PUSH1 0x40 MLOAD DUP1 DUP5 DUP2 MSTORE PUSH1 0x20 ADD DUP4 DUP2 MSTORE PUSH1 0x20 ADD DUP3 DUP2 MSTORE PUSH1 0x20 ADD SWAP4 POP POP POP POP PUSH1 0x40 MLOAD DUP1 SWAP2 SUB SWAP1 LOG2 POP POP POP POP JUMP JUMPDEST PUSH2 0x258 DUP2 JUMP JUMPDEST PUSH2 0x190 DUP2 JUMP JUMPDEST PUSH1 0x0 DUP1 PUSH1 0x2 PUSH1 0x0 DUP5 PUSH20 0xFFFFFFFFFFFFFFFFFFFFFFFFFFFFFFFFFFFFFFFF AND PUSH20 0xFFFFFFFFFFFFFFFFFFFFFFFFFFFFFFFFFFFFFFFF AND DUP2 MSTORE PUSH1 0x20 ADD SWAP1 DUP2 MSTORE PUSH1 0x20 ADD PUSH1 0x0 KECCAK256 SWAP1 POP PUSH2 0x2D20 PUSH2 0x40D7 JUMP JUMPDEST ISZERO PUSH2 0x2D4D JUMPI PUSH2 0x2D46 DUP2 PUSH1 0x2 ADD SLOAD DUP3 PUSH1 0x3 ADD SLOAD DUP4 PUSH1 0x0 ADD SLOAD DUP5 PUSH1 0x1 ADD SLOAD DUP6 PUSH1 0x4 ADD SLOAD PUSH2 0x40E3 JUMP JUMPDEST SWAP2 POP PUSH2 0x2D52 JUMP JUMPDEST PUSH1 0x0 SWAP2 POP JUMPDEST POP SWAP2 SWAP1 POP JUMP JUMPDEST PUSH1 0x7 PUSH1 0x0 SWAP1 SLOAD SWAP1 PUSH2 0x100 EXP SWAP1 DIV PUSH20 0xFFFFFFFFFFFFFFFFFFFFFFFFFFFFFFFFFFFFFFFF AND PUSH20 0xFFFFFFFFFFFFFFFFFFFFFFFFFFFFFFFFFFFFFFFF AND CALLER PUSH20 0xFFFFFFFFFFFFFFFFFFFFFFFFFFFFFFFFFFFFFFFF AND EQ PUSH2 0x2E1B JUMPI PUSH1 0x40 MLOAD PUSH32 0x8C379A000000000000000000000000000000000000000000000000000000000 DUP2 MSTORE PUSH1 0x4 ADD DUP1 DUP1 PUSH1 0x20 ADD DUP3 DUP2 SUB DUP3 MSTORE PUSH1 0xB DUP2 MSTORE PUSH1 0x20 ADD DUP1 PUSH32 0x61646D696E3A207775743F000000000000000000000000000000000000000000 DUP2 MSTORE POP PUSH1 0x20 ADD SWAP2 POP POP PUSH1 0x40 MLOAD DUP1 SWAP2 SUB SWAP1 REVERT JUMPDEST PUSH32 0x0 PUSH20 0xFFFFFFFFFFFFFFFFFFFFFFFFFFFFFFFFFFFFFFFF AND PUSH4 0x5312EA8E PUSH1 0x0 PUSH1 0x40 MLOAD DUP3 PUSH4 0xFFFFFFFF AND PUSH1 0xE0 SHL DUP2 MSTORE PUSH1 0x4 ADD DUP1 DUP3 DUP2 MSTORE PUSH1 0x20 ADD SWAP2 POP POP PUSH1 0x0 PUSH1 0x40 MLOAD DUP1 DUP4 SUB DUP2 PUSH1 0x0 DUP8 DUP1 EXTCODESIZE ISZERO DUP1 ISZERO PUSH2 0x2E8F JUMPI PUSH1 0x0 DUP1 REVERT JUMPDEST POP GAS CALL ISZERO DUP1 ISZERO PUSH2 0x2EA3 JUMPI RETURNDATASIZE PUSH1 0x0 DUP1 RETURNDATACOPY RETURNDATASIZE PUSH1 0x0 REVERT JUMPDEST POP POP POP POP PUSH2 0x2EAF PUSH2 0x1B11 JUMP JUMPDEST PUSH2 0x2EBC JUMPI PUSH2 0x2EBB PUSH2 0x3F2A JUMP JUMPDEST JUMPDEST JUMP JUMPDEST PUSH2 0x2EC7 CALLER PUSH2 0x3915 JUMP JUMPDEST ISZERO PUSH2 0x2F3A JUMPI PUSH1 0x40 MLOAD PUSH32 0x8C379A000000000000000000000000000000000000000000000000000000000 DUP2 MSTORE PUSH1 0x4 ADD DUP1 DUP1 PUSH1 0x20 ADD DUP3 DUP2 SUB DUP3 MSTORE PUSH1 0x14 DUP2 MSTORE PUSH1 0x20 ADD DUP1 PUSH32 0x636F6E7472616374206E6F7420616C6C6F776564000000000000000000000000 DUP2 MSTORE POP PUSH1 0x20 ADD SWAP2 POP POP PUSH1 0x40 MLOAD DUP1 SWAP2 SUB SWAP1 REVERT JUMPDEST ORIGIN PUSH20 0xFFFFFFFFFFFFFFFFFFFFFFFFFFFFFFFFFFFFFFFF AND CALLER PUSH20 0xFFFFFFFFFFFFFFFFFFFFFFFFFFFFFFFFFFFFFFFF AND EQ PUSH2 0x2FDB JUMPI PUSH1 0x40 MLOAD PUSH32 0x8C379A000000000000000000000000000000000000000000000000000000000 DUP2 MSTORE PUSH1 0x4 ADD DUP1 DUP1 PUSH1 0x20 ADD DUP3 DUP2 SUB DUP3 MSTORE PUSH1 0x1A DUP2 MSTORE PUSH1 0x20 ADD DUP1 PUSH32 0x70726F787920636F6E7472616374206E6F7420616C6C6F776564000000000000 DUP2 MSTORE POP PUSH1 0x20 ADD SWAP2 POP POP PUSH1 0x40 MLOAD DUP1 SWAP2 SUB SWAP1 REVERT JUMPDEST PUSH2 0x2FE3 PUSH2 0x41C3 JUMP JUMPDEST PUSH2 0x302E PUSH1 0x1 PUSH1 0x0 CALLER PUSH20 0xFFFFFFFFFFFFFFFFFFFFFFFFFFFFFFFFFFFFFFFF AND PUSH20 0xFFFFFFFFFFFFFFFFFFFFFFFFFFFFFFFFFFFFFFFF AND DUP2 MSTORE PUSH1 0x20 ADD SWAP1 DUP2 MSTORE PUSH1 0x20 ADD PUSH1 0x0 KECCAK256 PUSH1 0x0 ADD SLOAD PUSH2 0x4289 JUMP JUMPDEST JUMP JUMPDEST PUSH1 0x7 PUSH1 0x0 SWAP1 SLOAD SWAP1 PUSH2 0x100 EXP SWAP1 DIV PUSH20 0xFFFFFFFFFFFFFFFFFFFFFFFFFFFFFFFFFFFFFFFF AND PUSH20 0xFFFFFFFFFFFFFFFFFFFFFFFFFFFFFFFFFFFFFFFF AND CALLER PUSH20 0xFFFFFFFFFFFFFFFFFFFFFFFFFFFFFFFFFFFFFFFF AND EQ PUSH2 0x30F3 JUMPI PUSH1 0x40 MLOAD PUSH32 0x8C379A000000000000000000000000000000000000000000000000000000000 DUP2 MSTORE PUSH1 0x4 ADD DUP1 DUP1 PUSH1 0x20 ADD DUP3 DUP2 SUB DUP3 MSTORE PUSH1 0xB DUP2 MSTORE PUSH1 0x20 ADD DUP1 PUSH32 0x61646D696E3A207775743F000000000000000000000000000000000000000000 DUP2 MSTORE POP PUSH1 0x20 ADD SWAP2 POP POP PUSH1 0x40 MLOAD DUP1 SWAP2 SUB SWAP1 REVERT JUMPDEST PUSH32 0x0 PUSH20 0xFFFFFFFFFFFFFFFFFFFFFFFFFFFFFFFFFFFFFFFF AND DUP2 PUSH20 0xFFFFFFFFFFFFFFFFFFFFFFFFFFFFFFFFFFFFFFFF AND EQ ISZERO PUSH2 0x3198 JUMPI PUSH1 0x40 MLOAD PUSH32 0x8C379A000000000000000000000000000000000000000000000000000000000 DUP2 MSTORE PUSH1 0x4 ADD DUP1 DUP1 PUSH1 0x20 ADD DUP3 DUP2 SUB DUP3 MSTORE PUSH1 0x25 DUP2 MSTORE PUSH1 0x20 ADD DUP1 PUSH2 0x4AB4 PUSH1 0x25 SWAP2 CODECOPY PUSH1 0x40 ADD SWAP2 POP POP PUSH1 0x40 MLOAD DUP1 SWAP2 SUB SWAP1 REVERT JUMPDEST PUSH32 0x0 PUSH20 0xFFFFFFFFFFFFFFFFFFFFFFFFFFFFFFFFFFFFFFFF AND DUP2 PUSH20 0xFFFFFFFFFFFFFFFFFFFFFFFFFFFFFFFFFFFFFFFF AND EQ ISZERO PUSH2 0x323D JUMPI PUSH1 0x40 MLOAD PUSH32 0x8C379A000000000000000000000000000000000000000000000000000000000 DUP2 MSTORE PUSH1 0x4 ADD DUP1 DUP1 PUSH1 0x20 ADD DUP3 DUP2 SUB DUP3 MSTORE PUSH1 0x25 DUP2 MSTORE PUSH1 0x20 ADD DUP1 PUSH2 0x4B2D PUSH1 0x25 SWAP2 CODECOPY PUSH1 0x40 ADD SWAP2 POP POP PUSH1 0x40 MLOAD DUP1 SWAP2 SUB SWAP1 REVERT JUMPDEST PUSH1 0x0 DUP2 PUSH20 0xFFFFFFFFFFFFFFFFFFFFFFFFFFFFFFFFFFFFFFFF AND PUSH4 0x70A08231 ADDRESS PUSH1 0x40 MLOAD DUP3 PUSH4 0xFFFFFFFF AND PUSH1 0xE0 SHL DUP2 MSTORE PUSH1 0x4 ADD DUP1 DUP3 PUSH20 0xFFFFFFFFFFFFFFFFFFFFFFFFFFFFFFFFFFFFFFFF AND DUP2 MSTORE PUSH1 0x20 ADD SWAP2 POP POP PUSH1 0x20 PUSH1 0x40 MLOAD DUP1 DUP4 SUB DUP2 DUP7 DUP1 EXTCODESIZE ISZERO DUP1 ISZERO PUSH2 0x32A6 JUMPI PUSH1 0x0 DUP1 REVERT JUMPDEST POP GAS STATICCALL ISZERO DUP1 ISZERO PUSH2 0x32BA JUMPI RETURNDATASIZE PUSH1 0x0 DUP1 RETURNDATACOPY RETURNDATASIZE PUSH1 0x0 REVERT JUMPDEST POP POP POP POP PUSH1 0x40 MLOAD RETURNDATASIZE PUSH1 0x20 DUP2 LT ISZERO PUSH2 0x32D0 JUMPI PUSH1 0x0 DUP1 REVERT JUMPDEST DUP2 ADD SWAP1 DUP1 DUP1 MLOAD SWAP1 PUSH1 0x20 ADD SWAP1 SWAP3 SWAP2 SWAP1 POP POP POP SWAP1 POP PUSH2 0x330E CALLER DUP3 DUP5 PUSH20 0xFFFFFFFFFFFFFFFFFFFFFFFFFFFFFFFFFFFFFFFF AND PUSH2 0x3B42 SWAP1 SWAP3 SWAP2 SWAP1 PUSH4 0xFFFFFFFF AND JUMP JUMPDEST POP POP JUMP JUMPDEST PUSH1 0xC SLOAD DUP2 JUMP JUMPDEST PUSH1 0xB SLOAD DUP2 JUMP JUMPDEST PUSH32 0x0 DUP2 JUMP JUMPDEST PUSH2 0x334A PUSH2 0x3F22 JUMP JUMPDEST PUSH20 0xFFFFFFFFFFFFFFFFFFFFFFFFFFFFFFFFFFFFFFFF AND PUSH2 0x3368 PUSH2 0x2465 JUMP JUMPDEST PUSH20 0xFFFFFFFFFFFFFFFFFFFFFFFFFFFFFFFFFFFFFFFF AND EQ PUSH2 0x33F1 JUMPI PUSH1 0x40 MLOAD PUSH32 0x8C379A000000000000000000000000000000000000000000000000000000000 DUP2 MSTORE PUSH1 0x4 ADD DUP1 DUP1 PUSH1 0x20 ADD DUP3 DUP2 SUB DUP3 MSTORE PUSH1 0x20 DUP2 MSTORE PUSH1 0x20 ADD DUP1 PUSH32 0x4F776E61626C653A2063616C6C6572206973206E6F7420746865206F776E6572 DUP2 MSTORE POP PUSH1 0x20 ADD SWAP2 POP POP PUSH1 0x40 MLOAD DUP1 SWAP2 SUB SWAP1 REVERT JUMPDEST PUSH1 0x0 PUSH20 0xFFFFFFFFFFFFFFFFFFFFFFFFFFFFFFFFFFFFFFFF AND DUP2 PUSH20 0xFFFFFFFFFFFFFFFFFFFFFFFFFFFFFFFFFFFFFFFF AND EQ ISZERO PUSH2 0x3494 JUMPI PUSH1 0x40 MLOAD PUSH32 0x8C379A000000000000000000000000000000000000000000000000000000000 DUP2 MSTORE PUSH1 0x4 ADD DUP1 DUP1 PUSH1 0x20 ADD DUP3 DUP2 SUB DUP3 MSTORE PUSH1 0x16 DUP2 MSTORE PUSH1 0x20 ADD DUP1 PUSH32 0x43616E6E6F74206265207A65726F206164647265737300000000000000000000 DUP2 MSTORE POP PUSH1 0x20 ADD SWAP2 POP POP PUSH1 0x40 MLOAD DUP1 SWAP2 SUB SWAP1 REVERT JUMPDEST DUP1 PUSH1 0x8 PUSH1 0x0 PUSH2 0x100 EXP DUP2 SLOAD DUP2 PUSH20 0xFFFFFFFFFFFFFFFFFFFFFFFFFFFFFFFFFFFFFFFF MUL NOT AND SWAP1 DUP4 PUSH20 0xFFFFFFFFFFFFFFFFFFFFFFFFFFFFFFFFFFFFFFFF AND MUL OR SWAP1 SSTORE POP POP JUMP JUMPDEST PUSH2 0x34E0 PUSH2 0x3F22 JUMP JUMPDEST PUSH20 0xFFFFFFFFFFFFFFFFFFFFFFFFFFFFFFFFFFFFFFFF AND PUSH2 0x34FE PUSH2 0x2465 JUMP JUMPDEST PUSH20 0xFFFFFFFFFFFFFFFFFFFFFFFFFFFFFFFFFFFFFFFF AND EQ PUSH2 0x3587 JUMPI PUSH1 0x40 MLOAD PUSH32 0x8C379A000000000000000000000000000000000000000000000000000000000 DUP2 MSTORE PUSH1 0x4 ADD DUP1 DUP1 PUSH1 0x20 ADD DUP3 DUP2 SUB DUP3 MSTORE PUSH1 0x20 DUP2 MSTORE PUSH1 0x20 ADD DUP1 PUSH32 0x4F776E61626C653A2063616C6C6572206973206E6F7420746865206F776E6572 DUP2 MSTORE POP PUSH1 0x20 ADD SWAP2 POP POP PUSH1 0x40 MLOAD DUP1 SWAP2 SUB SWAP1 REVERT JUMPDEST PUSH1 0x0 PUSH20 0xFFFFFFFFFFFFFFFFFFFFFFFFFFFFFFFFFFFFFFFF AND DUP2 PUSH20 0xFFFFFFFFFFFFFFFFFFFFFFFFFFFFFFFFFFFFFFFF AND EQ ISZERO PUSH2 0x360D JUMPI PUSH1 0x40 MLOAD PUSH32 0x8C379A000000000000000000000000000000000000000000000000000000000 DUP2 MSTORE PUSH1 0x4 ADD DUP1 DUP1 PUSH1 0x20 ADD DUP3 DUP2 SUB DUP3 MSTORE PUSH1 0x26 DUP2 MSTORE PUSH1 0x20 ADD DUP1 PUSH2 0x4A8E PUSH1 0x26 SWAP2 CODECOPY PUSH1 0x40 ADD SWAP2 POP POP PUSH1 0x40 MLOAD DUP1 SWAP2 SUB SWAP1 REVERT JUMPDEST DUP1 PUSH20 0xFFFFFFFFFFFFFFFFFFFFFFFFFFFFFFFFFFFFFFFF AND PUSH1 0x0 DUP1 SLOAD SWAP1 PUSH2 0x100 EXP SWAP1 DIV PUSH20 0xFFFFFFFFFFFFFFFFFFFFFFFFFFFFFFFFFFFFFFFF AND PUSH20 0xFFFFFFFFFFFFFFFFFFFFFFFFFFFFFFFFFFFFFFFF AND PUSH32 0x8BE0079C531659141344CD1FD0A4F28419497F9722A3DAAFE3B4186F6B6457E0 PUSH1 0x40 MLOAD PUSH1 0x40 MLOAD DUP1 SWAP2 SUB SWAP1 LOG3 DUP1 PUSH1 0x0 DUP1 PUSH2 0x100 EXP DUP2 SLOAD DUP2 PUSH20 0xFFFFFFFFFFFFFFFFFFFFFFFFFFFFFFFFFFFFFFFF MUL NOT AND SWAP1 DUP4 PUSH20 0xFFFFFFFFFFFFFFFFFFFFFFFFFFFFFFFFFFFFFFFF AND MUL OR SWAP1 SSTORE POP POP JUMP JUMPDEST PUSH1 0x7 PUSH1 0x0 SWAP1 SLOAD SWAP1 PUSH2 0x100 EXP SWAP1 DIV PUSH20 0xFFFFFFFFFFFFFFFFFFFFFFFFFFFFFFFFFFFFFFFF AND DUP2 JUMP JUMPDEST PUSH32 0x0 DUP2 JUMP JUMPDEST PUSH32 0x0 DUP2 JUMP JUMPDEST PUSH1 0x0 DUP2 EQ DUP1 PUSH2 0x3806 JUMPI POP PUSH1 0x0 DUP4 PUSH20 0xFFFFFFFFFFFFFFFFFFFFFFFFFFFFFFFFFFFFFFFF AND PUSH4 0xDD62ED3E ADDRESS DUP6 PUSH1 0x40 MLOAD DUP4 PUSH4 0xFFFFFFFF AND PUSH1 0xE0 SHL DUP2 MSTORE PUSH1 0x4 ADD DUP1 DUP4 PUSH20 0xFFFFFFFFFFFFFFFFFFFFFFFFFFFFFFFFFFFFFFFF AND DUP2 MSTORE PUSH1 0x20 ADD DUP3 PUSH20 0xFFFFFFFFFFFFFFFFFFFFFFFFFFFFFFFFFFFFFFFF AND DUP2 MSTORE PUSH1 0x20 ADD SWAP3 POP POP POP PUSH1 0x20 PUSH1 0x40 MLOAD DUP1 DUP4 SUB DUP2 DUP7 DUP1 EXTCODESIZE ISZERO DUP1 ISZERO PUSH2 0x37C9 JUMPI PUSH1 0x0 DUP1 REVERT JUMPDEST POP GAS STATICCALL ISZERO DUP1 ISZERO PUSH2 0x37DD JUMPI RETURNDATASIZE PUSH1 0x0 DUP1 RETURNDATACOPY RETURNDATASIZE PUSH1 0x0 REVERT JUMPDEST POP POP POP POP PUSH1 0x40 MLOAD RETURNDATASIZE PUSH1 0x20 DUP2 LT ISZERO PUSH2 0x37F3 JUMPI PUSH1 0x0 DUP1 REVERT JUMPDEST DUP2 ADD SWAP1 DUP1 DUP1 MLOAD SWAP1 PUSH1 0x20 ADD SWAP1 SWAP3 SWAP2 SWAP1 POP POP POP EQ JUMPDEST PUSH2 0x385B JUMPI PUSH1 0x40 MLOAD PUSH32 0x8C379A000000000000000000000000000000000000000000000000000000000 DUP2 MSTORE PUSH1 0x4 ADD DUP1 DUP1 PUSH1 0x20 ADD DUP3 DUP2 SUB DUP3 MSTORE PUSH1 0x36 DUP2 MSTORE PUSH1 0x20 ADD DUP1 PUSH2 0x4D1A PUSH1 0x36 SWAP2 CODECOPY PUSH1 0x40 ADD SWAP2 POP POP PUSH1 0x40 MLOAD DUP1 SWAP2 SUB SWAP1 REVERT JUMPDEST PUSH2 0x38F8 DUP4 PUSH4 0x95EA7B3 PUSH1 0xE0 SHL DUP5 DUP5 PUSH1 0x40 MLOAD PUSH1 0x24 ADD DUP1 DUP4 PUSH20 0xFFFFFFFFFFFFFFFFFFFFFFFFFFFFFFFFFFFFFFFF AND DUP2 MSTORE PUSH1 0x20 ADD DUP3 DUP2 MSTORE PUSH1 0x20 ADD SWAP3 POP POP POP PUSH1 0x40 MLOAD PUSH1 0x20 DUP2 DUP4 SUB SUB DUP2 MSTORE SWAP1 PUSH1 0x40 MSTORE SWAP1 PUSH28 0xFFFFFFFFFFFFFFFFFFFFFFFFFFFFFFFFFFFFFFFFFFFFFFFFFFFFFFFF NOT AND PUSH1 0x20 DUP3 ADD DUP1 MLOAD PUSH28 0xFFFFFFFFFFFFFFFFFFFFFFFFFFFFFFFFFFFFFFFFFFFFFFFFFFFFFFFF DUP4 DUP2 DUP4 AND OR DUP4 MSTORE POP POP POP POP PUSH2 0x46FB JUMP JUMPDEST POP POP POP JUMP JUMPDEST PUSH1 0x60 PUSH2 0x390C DUP5 DUP5 PUSH1 0x0 DUP6 PUSH2 0x47EA JUMP JUMPDEST SWAP1 POP SWAP4 SWAP3 POP POP POP JUMP JUMPDEST PUSH1 0x0 DUP1 DUP3 EXTCODESIZE SWAP1 POP PUSH1 0x0 DUP2 GT SWAP2 POP POP SWAP2 SWAP1 POP JUMP JUMPDEST PUSH1 0x0 DUP1 DUP4 EQ ISZERO PUSH2 0x393B JUMPI PUSH1 0x0 SWAP1 POP PUSH2 0x39A8 JUMP JUMPDEST PUSH1 0x0 DUP3 DUP5 MUL SWAP1 POP DUP3 DUP5 DUP3 DUP2 PUSH2 0x394C JUMPI INVALID JUMPDEST DIV EQ PUSH2 0x39A3 JUMPI PUSH1 0x40 MLOAD PUSH32 0x8C379A000000000000000000000000000000000000000000000000000000000 DUP2 MSTORE PUSH1 0x4 ADD DUP1 DUP1 PUSH1 0x20 ADD DUP3 DUP2 SUB DUP3 MSTORE PUSH1 0x21 DUP2 MSTORE PUSH1 0x20 ADD DUP1 PUSH2 0x4BD8 PUSH1 0x21 SWAP2 CODECOPY PUSH1 0x40 ADD SWAP2 POP POP PUSH1 0x40 MLOAD DUP1 SWAP2 SUB SWAP1 REVERT JUMPDEST DUP1 SWAP2 POP POP JUMPDEST SWAP3 SWAP2 POP POP JUMP JUMPDEST PUSH1 0x0 DUP1 DUP3 GT PUSH2 0x3A25 JUMPI PUSH1 0x40 MLOAD PUSH32 0x8C379A000000000000000000000000000000000000000000000000000000000 DUP2 MSTORE PUSH1 0x4 ADD DUP1 DUP1 PUSH1 0x20 ADD DUP3 DUP2 SUB DUP3 MSTORE PUSH1 0x1A DUP2 MSTORE PUSH1 0x20 ADD DUP1 PUSH32 0x536166654D6174683A206469766973696F6E206279207A65726F000000000000 DUP2 MSTORE POP PUSH1 0x20 ADD SWAP2 POP POP PUSH1 0x40 MLOAD DUP1 SWAP2 SUB SWAP1 REVERT JUMPDEST DUP2 DUP4 DUP2 PUSH2 0x3A2E JUMPI INVALID JUMPDEST DIV SWAP1 POP SWAP3 SWAP2 POP POP JUMP JUMPDEST PUSH1 0x0 DUP3 DUP3 GT ISZERO PUSH2 0x3AAF JUMPI PUSH1 0x40 MLOAD PUSH32 0x8C379A000000000000000000000000000000000000000000000000000000000 DUP2 MSTORE PUSH1 0x4 ADD DUP1 DUP1 PUSH1 0x20 ADD DUP3 DUP2 SUB DUP3 MSTORE PUSH1 0x1E DUP2 MSTORE PUSH1 0x20 ADD DUP1 PUSH32 0x536166654D6174683A207375627472616374696F6E206F766572666C6F770000 DUP2 MSTORE POP PUSH1 0x20 ADD SWAP2 POP POP PUSH1 0x40 MLOAD DUP1 SWAP2 SUB SWAP1 REVERT JUMPDEST DUP2 DUP4 SUB SWAP1 POP SWAP3 SWAP2 POP POP JUMP JUMPDEST PUSH1 0x0 DUP1 DUP3 DUP5 ADD SWAP1 POP DUP4 DUP2 LT ISZERO PUSH2 0x3B38 JUMPI PUSH1 0x40 MLOAD PUSH32 0x8C379A000000000000000000000000000000000000000000000000000000000 DUP2 MSTORE PUSH1 0x4 ADD DUP1 DUP1 PUSH1 0x20 ADD DUP3 DUP2 SUB DUP3 MSTORE PUSH1 0x1B DUP2 MSTORE PUSH1 0x20 ADD DUP1 PUSH32 0x536166654D6174683A206164646974696F6E206F766572666C6F770000000000 DUP2 MSTORE POP PUSH1 0x20 ADD SWAP2 POP POP PUSH1 0x40 MLOAD DUP1 SWAP2 SUB SWAP1 REVERT JUMPDEST DUP1 SWAP2 POP POP SWAP3 SWAP2 POP POP JUMP JUMPDEST PUSH2 0x3BDF DUP4 PUSH4 0xA9059CBB PUSH1 0xE0 SHL DUP5 DUP5 PUSH1 0x40 MLOAD PUSH1 0x24 ADD DUP1 DUP4 PUSH20 0xFFFFFFFFFFFFFFFFFFFFFFFFFFFFFFFFFFFFFFFF AND DUP2 MSTORE PUSH1 0x20 ADD DUP3 DUP2 MSTORE PUSH1 0x20 ADD SWAP3 POP POP POP PUSH1 0x40 MLOAD PUSH1 0x20 DUP2 DUP4 SUB SUB DUP2 MSTORE SWAP1 PUSH1 0x40 MSTORE SWAP1 PUSH28 0xFFFFFFFFFFFFFFFFFFFFFFFFFFFFFFFFFFFFFFFFFFFFFFFFFFFFFFFF NOT AND PUSH1 0x20 DUP3 ADD DUP1 MLOAD PUSH28 0xFFFFFFFFFFFFFFFFFFFFFFFFFFFFFFFFFFFFFFFFFFFFFFFFFFFFFFFF DUP4 DUP2 DUP4 AND OR DUP4 MSTORE POP POP POP POP PUSH2 0x46FB JUMP JUMPDEST POP POP POP JUMP JUMPDEST PUSH1 0x0 PUSH1 0x2 PUSH1 0x0 CALLER PUSH20 0xFFFFFFFFFFFFFFFFFFFFFFFFFFFFFFFFFFFFFFFF AND PUSH20 0xFFFFFFFFFFFFFFFFFFFFFFFFFFFFFFFFFFFFFFFF AND DUP2 MSTORE PUSH1 0x20 ADD SWAP1 DUP2 MSTORE PUSH1 0x20 ADD PUSH1 0x0 KECCAK256 SWAP1 POP PUSH1 0x0 PUSH2 0x3C31 PUSH2 0x40D7 JUMP JUMPDEST ISZERO PUSH2 0x3C5C JUMPI PUSH2 0x3C57 DUP3 PUSH1 0x2 ADD SLOAD DUP4 PUSH1 0x3 ADD SLOAD DUP5 PUSH1 0x0 ADD SLOAD DUP6 PUSH1 0x1 ADD SLOAD DUP7 PUSH1 0x4 ADD SLOAD PUSH2 0x40E3 JUMP JUMPDEST PUSH2 0x3C5F JUMP JUMPDEST PUSH1 0x0 JUMPDEST SWAP1 POP PUSH1 0x1 DUP1 DUP2 GT ISZERO PUSH2 0x3C6D JUMPI INVALID JUMPDEST DUP4 PUSH1 0x1 DUP2 GT ISZERO PUSH2 0x3C79 JUMPI INVALID JUMPDEST EQ ISZERO PUSH2 0x3CB6 JUMPI DUP2 PUSH1 0x0 ADD SLOAD DUP5 GT PUSH2 0x3CA6 JUMPI PUSH2 0x3CA1 DUP5 DUP4 PUSH1 0x0 ADD SLOAD PUSH2 0x3A37 SWAP1 SWAP2 SWAP1 PUSH4 0xFFFFFFFF AND JUMP JUMPDEST PUSH2 0x3CA9 JUMP JUMPDEST PUSH1 0x0 JUMPDEST DUP3 PUSH1 0x0 ADD DUP2 SWAP1 SSTORE POP PUSH2 0x3CD6 JUMP JUMPDEST PUSH2 0x3CCD DUP5 DUP4 PUSH1 0x0 ADD SLOAD PUSH2 0x3ABA SWAP1 SWAP2 SWAP1 PUSH4 0xFFFFFFFF AND JUMP JUMPDEST DUP3 PUSH1 0x0 ADD DUP2 SWAP1 SSTORE POP JUMPDEST PUSH2 0x3CDE PUSH2 0x4993 JUMP JUMPDEST ISZERO PUSH2 0x3CFA JUMPI DUP2 PUSH1 0x0 ADD SLOAD DUP3 PUSH1 0x1 ADD DUP2 SWAP1 SSTORE POP NUMBER DUP3 PUSH1 0x3 ADD DUP2 SWAP1 SSTORE POP JUMPDEST DUP1 DUP3 PUSH1 0x4 ADD DUP2 SWAP1 SSTORE POP NUMBER DUP3 PUSH1 0x2 ADD DUP2 SWAP1 SSTORE POP CALLER PUSH20 0xFFFFFFFFFFFFFFFFFFFFFFFFFFFFFFFFFFFFFFFF AND PUSH32 0x6A9632041D5AD6A474679DA2AC648103E26069C6E77DCA5F3675D3FDCBE1AC17 DUP4 PUSH1 0x4 ADD SLOAD DUP5 PUSH1 0x0 ADD SLOAD DUP6 PUSH1 0x1 ADD SLOAD DUP7 PUSH1 0x2 ADD SLOAD DUP8 PUSH1 0x3 ADD SLOAD PUSH1 0x40 MLOAD DUP1 DUP7 DUP2 MSTORE PUSH1 0x20 ADD DUP6 DUP2 MSTORE PUSH1 0x20 ADD DUP5 DUP2 MSTORE PUSH1 0x20 ADD DUP4 DUP2 MSTORE PUSH1 0x20 ADD DUP3 DUP2 MSTORE PUSH1 0x20 ADD SWAP6 POP POP POP POP POP POP PUSH1 0x40 MLOAD DUP1 SWAP2 SUB SWAP1 LOG2 POP POP POP POP JUMP JUMPDEST PUSH2 0x3D9C PUSH2 0x1B11 JUMP JUMPDEST PUSH2 0x3E0E JUMPI PUSH1 0x40 MLOAD PUSH32 0x8C379A000000000000000000000000000000000000000000000000000000000 DUP2 MSTORE PUSH1 0x4 ADD DUP1 DUP1 PUSH1 0x20 ADD DUP3 DUP2 SUB DUP3 MSTORE PUSH1 0x14 DUP2 MSTORE PUSH1 0x20 ADD DUP1 PUSH32 0x5061757361626C653A206E6F7420706175736564000000000000000000000000 DUP2 MSTORE POP PUSH1 0x20 ADD SWAP2 POP POP PUSH1 0x40 MLOAD DUP1 SWAP2 SUB SWAP1 REVERT JUMPDEST PUSH1 0x0 DUP1 PUSH1 0x14 PUSH2 0x100 EXP DUP2 SLOAD DUP2 PUSH1 0xFF MUL NOT AND SWAP1 DUP4 ISZERO ISZERO MUL OR SWAP1 SSTORE POP PUSH32 0x5DB9EE0A495BF2E6FF9C91A7834C1BA4FDD244A5E8AA4E537BD38AEAE4B073AA PUSH2 0x3E51 PUSH2 0x3F22 JUMP JUMPDEST PUSH1 0x40 MLOAD DUP1 DUP3 PUSH20 0xFFFFFFFFFFFFFFFFFFFFFFFFFFFFFFFFFFFFFFFF AND DUP2 MSTORE PUSH1 0x20 ADD SWAP2 POP POP PUSH1 0x40 MLOAD DUP1 SWAP2 SUB SWAP1 LOG1 JUMP JUMPDEST PUSH1 0x0 PUSH2 0x3E88 PUSH2 0x194F JUMP JUMPDEST SWAP1 POP PUSH1 0x0 DUP2 GT ISZERO PUSH2 0x3F1F JUMPI PUSH32 0x0 PUSH20 0xFFFFFFFFFFFFFFFFFFFFFFFFFFFFFFFFFFFFFFFF AND PUSH4 0x41441D3B DUP3 PUSH1 0x40 MLOAD DUP3 PUSH4 0xFFFFFFFF AND PUSH1 0xE0 SHL DUP2 MSTORE PUSH1 0x4 ADD DUP1 DUP3 DUP2 MSTORE PUSH1 0x20 ADD SWAP2 POP POP PUSH1 0x0 PUSH1 0x40 MLOAD DUP1 DUP4 SUB DUP2 PUSH1 0x0 DUP8 DUP1 EXTCODESIZE ISZERO DUP1 ISZERO PUSH2 0x3F06 JUMPI PUSH1 0x0 DUP1 REVERT JUMPDEST POP GAS CALL ISZERO DUP1 ISZERO PUSH2 0x3F1A JUMPI RETURNDATASIZE PUSH1 0x0 DUP1 RETURNDATACOPY RETURNDATASIZE PUSH1 0x0 REVERT JUMPDEST POP POP POP POP JUMPDEST POP JUMP JUMPDEST PUSH1 0x0 CALLER SWAP1 POP SWAP1 JUMP JUMPDEST PUSH2 0x3F32 PUSH2 0x1B11 JUMP JUMPDEST ISZERO PUSH2 0x3FA5 JUMPI PUSH1 0x40 MLOAD PUSH32 0x8C379A000000000000000000000000000000000000000000000000000000000 DUP2 MSTORE PUSH1 0x4 ADD DUP1 DUP1 PUSH1 0x20 ADD DUP3 DUP2 SUB DUP3 MSTORE PUSH1 0x10 DUP2 MSTORE PUSH1 0x20 ADD DUP1 PUSH32 0x5061757361626C653A2070617573656400000000000000000000000000000000 DUP2 MSTORE POP PUSH1 0x20 ADD SWAP2 POP POP PUSH1 0x40 MLOAD DUP1 SWAP2 SUB SWAP1 REVERT JUMPDEST PUSH1 0x1 PUSH1 0x0 PUSH1 0x14 PUSH2 0x100 EXP DUP2 SLOAD DUP2 PUSH1 0xFF MUL NOT AND SWAP1 DUP4 ISZERO ISZERO MUL OR SWAP1 SSTORE POP PUSH32 0x62E78CEA01BEE320CD4E420270B5EA74000D11B0C9F74754EBDBFC544B05A258 PUSH2 0x3FE9 PUSH2 0x3F22 JUMP JUMPDEST PUSH1 0x40 MLOAD DUP1 DUP3 PUSH20 0xFFFFFFFFFFFFFFFFFFFFFFFFFFFFFFFFFFFFFFFF AND DUP2 MSTORE PUSH1 0x20 ADD SWAP2 POP POP PUSH1 0x40 MLOAD DUP1 SWAP2 SUB SWAP1 LOG1 JUMP JUMPDEST PUSH2 0x40D1 DUP5 PUSH4 0x23B872DD PUSH1 0xE0 SHL DUP6 DUP6 DUP6 PUSH1 0x40 MLOAD PUSH1 0x24 ADD DUP1 DUP5 PUSH20 0xFFFFFFFFFFFFFFFFFFFFFFFFFFFFFFFFFFFFFFFF AND DUP2 MSTORE PUSH1 0x20 ADD DUP4 PUSH20 0xFFFFFFFFFFFFFFFFFFFFFFFFFFFFFFFFFFFFFFFF AND DUP2 MSTORE PUSH1 0x20 ADD DUP3 DUP2 MSTORE PUSH1 0x20 ADD SWAP4 POP POP POP POP PUSH1 0x40 MLOAD PUSH1 0x20 DUP2 DUP4 SUB SUB DUP2 MSTORE SWAP1 PUSH1 0x40 MSTORE SWAP1 PUSH28 0xFFFFFFFFFFFFFFFFFFFFFFFFFFFFFFFFFFFFFFFFFFFFFFFFFFFFFFFF NOT AND PUSH1 0x20 DUP3 ADD DUP1 MLOAD PUSH28 0xFFFFFFFFFFFFFFFFFFFFFFFFFFFFFFFFFFFFFFFFFFFFFFFFFFFFFFFF DUP4 DUP2 DUP4 AND OR DUP4 MSTORE POP POP POP POP PUSH2 0x46FB JUMP JUMPDEST POP POP POP POP JUMP JUMPDEST PUSH1 0x0 PUSH1 0x3 SLOAD NUMBER GT SWAP1 POP SWAP1 JUMP JUMPDEST PUSH1 0x0 DUP1 NUMBER SWAP1 POP PUSH1 0x4 SLOAD DUP8 LT PUSH2 0x40FB JUMPI DUP3 SWAP2 POP POP PUSH2 0x41BA JUMP JUMPDEST PUSH1 0x3 SLOAD DUP7 LT ISZERO PUSH2 0x4112 JUMPI PUSH1 0x3 SLOAD SWAP6 POP PUSH1 0x0 SWAP3 POP DUP5 SWAP4 POP JUMPDEST PUSH1 0x4 SLOAD DUP2 LT PUSH2 0x4123 JUMPI PUSH1 0x4 SLOAD PUSH2 0x4125 JUMP JUMPDEST DUP1 JUMPDEST SWAP1 POP PUSH1 0x0 PUSH2 0x4150 PUSH2 0x4141 PUSH1 0x3 SLOAD DUP10 PUSH2 0x3A37 SWAP1 SWAP2 SWAP1 PUSH4 0xFFFFFFFF AND JUMP JUMPDEST DUP6 PUSH2 0x3928 SWAP1 SWAP2 SWAP1 PUSH4 0xFFFFFFFF AND JUMP JUMPDEST SWAP1 POP PUSH1 0x0 PUSH2 0x4179 PUSH2 0x416A DUP10 DUP6 PUSH2 0x3A37 SWAP1 SWAP2 SWAP1 PUSH4 0xFFFFFFFF AND JUMP JUMPDEST DUP8 PUSH2 0x3928 SWAP1 SWAP2 SWAP1 PUSH4 0xFFFFFFFF AND JUMP JUMPDEST SWAP1 POP PUSH2 0x41B4 PUSH2 0x4193 PUSH1 0x3 SLOAD DUP6 PUSH2 0x3A37 SWAP1 SWAP2 SWAP1 PUSH4 0xFFFFFFFF AND JUMP JUMPDEST PUSH2 0x41A6 DUP4 DUP6 PUSH2 0x3ABA SWAP1 SWAP2 SWAP1 PUSH4 0xFFFFFFFF AND JUMP JUMPDEST PUSH2 0x39AE SWAP1 SWAP2 SWAP1 PUSH4 0xFFFFFFFF AND JUMP JUMPDEST SWAP4 POP POP POP POP JUMPDEST SWAP6 SWAP5 POP POP POP POP POP JUMP JUMPDEST PUSH1 0x0 PUSH1 0x2 PUSH1 0x0 CALLER PUSH20 0xFFFFFFFFFFFFFFFFFFFFFFFFFFFFFFFFFFFFFFFF AND PUSH20 0xFFFFFFFFFFFFFFFFFFFFFFFFFFFFFFFFFFFFFFFF AND DUP2 MSTORE PUSH1 0x20 ADD SWAP1 DUP2 MSTORE PUSH1 0x20 ADD PUSH1 0x0 KECCAK256 SWAP1 POP PUSH1 0x0 DUP2 PUSH1 0x0 ADD DUP2 SWAP1 SSTORE POP PUSH1 0x0 DUP2 PUSH1 0x1 ADD DUP2 SWAP1 SSTORE POP PUSH1 0x0 DUP2 PUSH1 0x2 ADD DUP2 SWAP1 SSTORE POP PUSH1 0x0 DUP2 PUSH1 0x3 ADD DUP2 SWAP1 SSTORE POP PUSH1 0x0 DUP2 PUSH1 0x4 ADD DUP2 SWAP1 SSTORE POP CALLER PUSH20 0xFFFFFFFFFFFFFFFFFFFFFFFFFFFFFFFFFFFFFFFF AND PUSH32 0x6F66FF41198A141A4E315CD2FF387F32686A6D469DA7496FFEE40EAF05E4A411 NUMBER PUSH1 0x40 MLOAD DUP1 DUP3 DUP2 MSTORE PUSH1 0x20 ADD SWAP2 POP POP PUSH1 0x40 MLOAD DUP1 SWAP2 SUB SWAP1 LOG2 POP JUMP JUMPDEST PUSH1 0x0 PUSH1 0x1 PUSH1 0x0 CALLER PUSH20 0xFFFFFFFFFFFFFFFFFFFFFFFFFFFFFFFFFFFFFFFF AND PUSH20 0xFFFFFFFFFFFFFFFFFFFFFFFFFFFFFFFFFFFFFFFF AND DUP2 MSTORE PUSH1 0x20 ADD SWAP1 DUP2 MSTORE PUSH1 0x20 ADD PUSH1 0x0 KECCAK256 SWAP1 POP PUSH1 0x0 DUP3 GT PUSH2 0x4342 JUMPI PUSH1 0x40 MLOAD PUSH32 0x8C379A000000000000000000000000000000000000000000000000000000000 DUP2 MSTORE PUSH1 0x4 ADD DUP1 DUP1 PUSH1 0x20 ADD DUP3 DUP2 SUB DUP3 MSTORE PUSH1 0x13 DUP2 MSTORE PUSH1 0x20 ADD DUP1 PUSH32 0x4E6F7468696E6720746F20776974686472617700000000000000000000000000 DUP2 MSTORE POP PUSH1 0x20 ADD SWAP2 POP POP PUSH1 0x40 MLOAD DUP1 SWAP2 SUB SWAP1 REVERT JUMPDEST DUP1 PUSH1 0x0 ADD SLOAD DUP3 GT ISZERO PUSH2 0x43BC JUMPI PUSH1 0x40 MLOAD PUSH32 0x8C379A000000000000000000000000000000000000000000000000000000000 DUP2 MSTORE PUSH1 0x4 ADD DUP1 DUP1 PUSH1 0x20 ADD DUP3 DUP2 SUB DUP3 MSTORE PUSH1 0x1F DUP2 MSTORE PUSH1 0x20 ADD DUP1 PUSH32 0x576974686472617720616D6F756E7420657863656564732062616C616E636500 DUP2 MSTORE POP PUSH1 0x20 ADD SWAP2 POP POP PUSH1 0x40 MLOAD DUP1 SWAP2 SUB SWAP1 REVERT JUMPDEST PUSH1 0x0 PUSH2 0x43EC PUSH1 0x5 SLOAD PUSH2 0x43DE DUP6 PUSH2 0x43D0 PUSH2 0x1F78 JUMP JUMPDEST PUSH2 0x3928 SWAP1 SWAP2 SWAP1 PUSH4 0xFFFFFFFF AND JUMP JUMPDEST PUSH2 0x39AE SWAP1 SWAP2 SWAP1 PUSH4 0xFFFFFFFF AND JUMP JUMPDEST SWAP1 POP PUSH2 0x4405 DUP4 DUP4 PUSH1 0x0 ADD SLOAD PUSH2 0x3A37 SWAP1 SWAP2 SWAP1 PUSH4 0xFFFFFFFF AND JUMP JUMPDEST DUP3 PUSH1 0x0 ADD DUP2 SWAP1 SSTORE POP PUSH2 0x4422 DUP4 PUSH1 0x5 SLOAD PUSH2 0x3A37 SWAP1 SWAP2 SWAP1 PUSH4 0xFFFFFFFF AND JUMP JUMPDEST PUSH1 0x5 DUP2 SWAP1 SSTORE POP PUSH1 0x0 PUSH2 0x4432 PUSH2 0x194F JUMP JUMPDEST SWAP1 POP DUP2 DUP2 LT ISZERO PUSH2 0x4523 JUMPI PUSH1 0x0 PUSH2 0x4451 DUP3 DUP5 PUSH2 0x3A37 SWAP1 SWAP2 SWAP1 PUSH4 0xFFFFFFFF AND JUMP JUMPDEST SWAP1 POP PUSH32 0x0 PUSH20 0xFFFFFFFFFFFFFFFFFFFFFFFFFFFFFFFFFFFFFFFF AND PUSH4 0x1058D281 DUP3 PUSH1 0x40 MLOAD DUP3 PUSH4 0xFFFFFFFF AND PUSH1 0xE0 SHL DUP2 MSTORE PUSH1 0x4 ADD DUP1 DUP3 DUP2 MSTORE PUSH1 0x20 ADD SWAP2 POP POP PUSH1 0x0 PUSH1 0x40 MLOAD DUP1 DUP4 SUB DUP2 PUSH1 0x0 DUP8 DUP1 EXTCODESIZE ISZERO DUP1 ISZERO PUSH2 0x44C6 JUMPI PUSH1 0x0 DUP1 REVERT JUMPDEST POP GAS CALL ISZERO DUP1 ISZERO PUSH2 0x44DA JUMPI RETURNDATASIZE PUSH1 0x0 DUP1 RETURNDATACOPY RETURNDATASIZE PUSH1 0x0 REVERT JUMPDEST POP POP POP POP PUSH1 0x0 PUSH2 0x44E8 PUSH2 0x194F JUMP JUMPDEST SWAP1 POP PUSH1 0x0 PUSH2 0x44FF DUP5 DUP4 PUSH2 0x3A37 SWAP1 SWAP2 SWAP1 PUSH4 0xFFFFFFFF AND JUMP JUMPDEST SWAP1 POP DUP3 DUP2 LT ISZERO PUSH2 0x451F JUMPI PUSH2 0x451C DUP2 DUP6 PUSH2 0x3ABA SWAP1 SWAP2 SWAP1 PUSH4 0xFFFFFFFF AND JUMP JUMPDEST SWAP5 POP JUMPDEST POP POP POP JUMPDEST PUSH2 0x453C PUSH1 0xC SLOAD DUP5 PUSH1 0x1 ADD SLOAD PUSH2 0x3ABA SWAP1 SWAP2 SWAP1 PUSH4 0xFFFFFFFF AND JUMP JUMPDEST TIMESTAMP LT ISZERO PUSH2 0x45F4 JUMPI PUSH1 0x0 PUSH2 0x456E PUSH2 0x2710 PUSH2 0x4560 PUSH1 0xB SLOAD DUP7 PUSH2 0x3928 SWAP1 SWAP2 SWAP1 PUSH4 0xFFFFFFFF AND JUMP JUMPDEST PUSH2 0x39AE SWAP1 SWAP2 SWAP1 PUSH4 0xFFFFFFFF AND JUMP JUMPDEST SWAP1 POP PUSH2 0x45DD PUSH1 0x8 PUSH1 0x0 SWAP1 SLOAD SWAP1 PUSH2 0x100 EXP SWAP1 DIV PUSH20 0xFFFFFFFFFFFFFFFFFFFFFFFFFFFFFFFFFFFFFFFF AND DUP3 PUSH32 0x0 PUSH20 0xFFFFFFFFFFFFFFFFFFFFFFFFFFFFFFFFFFFFFFFF AND PUSH2 0x3B42 SWAP1 SWAP3 SWAP2 SWAP1 PUSH4 0xFFFFFFFF AND JUMP JUMPDEST PUSH2 0x45F0 DUP2 DUP5 PUSH2 0x3A37 SWAP1 SWAP2 SWAP1 PUSH4 0xFFFFFFFF AND JUMP JUMPDEST SWAP3 POP POP JUMPDEST PUSH1 0x0 DUP4 PUSH1 0x0 ADD SLOAD GT ISZERO PUSH2 0x4640 JUMPI PUSH2 0x4633 PUSH1 0x5 SLOAD PUSH2 0x4625 PUSH2 0x4612 PUSH2 0x1F78 JUMP JUMPDEST DUP7 PUSH1 0x0 ADD SLOAD PUSH2 0x3928 SWAP1 SWAP2 SWAP1 PUSH4 0xFFFFFFFF AND JUMP JUMPDEST PUSH2 0x39AE SWAP1 SWAP2 SWAP1 PUSH4 0xFFFFFFFF AND JUMP JUMPDEST DUP4 PUSH1 0x2 ADD DUP2 SWAP1 SSTORE POP PUSH2 0x464B JUMP JUMPDEST PUSH1 0x0 DUP4 PUSH1 0x2 ADD DUP2 SWAP1 SSTORE POP JUMPDEST TIMESTAMP DUP4 PUSH1 0x3 ADD DUP2 SWAP1 SSTORE POP PUSH2 0x469F CALLER DUP4 PUSH32 0x0 PUSH20 0xFFFFFFFFFFFFFFFFFFFFFFFFFFFFFFFFFFFFFFFF AND PUSH2 0x3B42 SWAP1 SWAP3 SWAP2 SWAP1 PUSH4 0xFFFFFFFF AND JUMP JUMPDEST CALLER PUSH20 0xFFFFFFFFFFFFFFFFFFFFFFFFFFFFFFFFFFFFFFFF AND PUSH32 0xF279E6A1F5E320CCA91135676D9CB6E44CA8A08C0B88342BCDB1144F6511B568 DUP4 DUP7 PUSH1 0x40 MLOAD DUP1 DUP4 DUP2 MSTORE PUSH1 0x20 ADD DUP3 DUP2 MSTORE PUSH1 0x20 ADD SWAP3 POP POP POP PUSH1 0x40 MLOAD DUP1 SWAP2 SUB SWAP1 LOG2 POP POP POP POP JUMP JUMPDEST PUSH1 0x60 PUSH2 0x475D DUP3 PUSH1 0x40 MLOAD DUP1 PUSH1 0x40 ADD PUSH1 0x40 MSTORE DUP1 PUSH1 0x20 DUP2 MSTORE PUSH1 0x20 ADD PUSH32 0x5361666545524332303A206C6F772D6C6576656C2063616C6C206661696C6564 DUP2 MSTORE POP DUP6 PUSH20 0xFFFFFFFFFFFFFFFFFFFFFFFFFFFFFFFFFFFFFFFF AND PUSH2 0x38FD SWAP1 SWAP3 SWAP2 SWAP1 PUSH4 0xFFFFFFFF AND JUMP JUMPDEST SWAP1 POP PUSH1 0x0 DUP2 MLOAD GT ISZERO PUSH2 0x47E5 JUMPI DUP1 DUP1 PUSH1 0x20 ADD SWAP1 MLOAD PUSH1 0x20 DUP2 LT ISZERO PUSH2 0x477E JUMPI PUSH1 0x0 DUP1 REVERT JUMPDEST DUP2 ADD SWAP1 DUP1 DUP1 MLOAD SWAP1 PUSH1 0x20 ADD SWAP1 SWAP3 SWAP2 SWAP1 POP POP POP PUSH2 0x47E4 JUMPI PUSH1 0x40 MLOAD PUSH32 0x8C379A000000000000000000000000000000000000000000000000000000000 DUP2 MSTORE PUSH1 0x4 ADD DUP1 DUP1 PUSH1 0x20 ADD DUP3 DUP2 SUB DUP3 MSTORE PUSH1 0x2A DUP2 MSTORE PUSH1 0x20 ADD DUP1 PUSH2 0x4CC0 PUSH1 0x2A SWAP2 CODECOPY PUSH1 0x40 ADD SWAP2 POP POP PUSH1 0x40 MLOAD DUP1 SWAP2 SUB SWAP1 REVERT JUMPDEST JUMPDEST POP POP POP JUMP JUMPDEST PUSH1 0x60 DUP3 SELFBALANCE LT ISZERO PUSH2 0x4845 JUMPI PUSH1 0x40 MLOAD PUSH32 0x8C379A000000000000000000000000000000000000000000000000000000000 DUP2 MSTORE PUSH1 0x4 ADD DUP1 DUP1 PUSH1 0x20 ADD DUP3 DUP2 SUB DUP3 MSTORE PUSH1 0x26 DUP2 MSTORE PUSH1 0x20 ADD DUP1 PUSH2 0x4B07 PUSH1 0x26 SWAP2 CODECOPY PUSH1 0x40 ADD SWAP2 POP POP PUSH1 0x40 MLOAD DUP1 SWAP2 SUB SWAP1 REVERT JUMPDEST PUSH2 0x484E DUP6 PUSH2 0x49AE JUMP JUMPDEST PUSH2 0x48C0 JUMPI PUSH1 0x40 MLOAD PUSH32 0x8C379A000000000000000000000000000000000000000000000000000000000 DUP2 MSTORE PUSH1 0x4 ADD DUP1 DUP1 PUSH1 0x20 ADD DUP3 DUP2 SUB DUP3 MSTORE PUSH1 0x1D DUP2 MSTORE PUSH1 0x20 ADD DUP1 PUSH32 0x416464726573733A2063616C6C20746F206E6F6E2D636F6E7472616374000000 DUP2 MSTORE POP PUSH1 0x20 ADD SWAP2 POP POP PUSH1 0x40 MLOAD DUP1 SWAP2 SUB SWAP1 REVERT JUMPDEST PUSH1 0x0 PUSH1 0x60 DUP7 PUSH20 0xFFFFFFFFFFFFFFFFFFFFFFFFFFFFFFFFFFFFFFFF AND DUP6 DUP8 PUSH1 0x40 MLOAD DUP1 DUP3 DUP1 MLOAD SWAP1 PUSH1 0x20 ADD SWAP1 DUP1 DUP4 DUP4 JUMPDEST PUSH1 0x20 DUP4 LT PUSH2 0x4910 JUMPI DUP1 MLOAD DUP3 MSTORE PUSH1 0x20 DUP3 ADD SWAP2 POP PUSH1 0x20 DUP2 ADD SWAP1 POP PUSH1 0x20 DUP4 SUB SWAP3 POP PUSH2 0x48ED JUMP JUMPDEST PUSH1 0x1 DUP4 PUSH1 0x20 SUB PUSH2 0x100 EXP SUB DUP1 NOT DUP3 MLOAD AND DUP2 DUP5 MLOAD AND DUP1 DUP3 OR DUP6 MSTORE POP POP POP POP POP POP SWAP1 POP ADD SWAP2 POP POP PUSH1 0x0 PUSH1 0x40 MLOAD DUP1 DUP4 SUB DUP2 DUP6 DUP8 GAS CALL SWAP3 POP POP POP RETURNDATASIZE DUP1 PUSH1 0x0 DUP2 EQ PUSH2 0x4972 JUMPI PUSH1 0x40 MLOAD SWAP2 POP PUSH1 0x1F NOT PUSH1 0x3F RETURNDATASIZE ADD AND DUP3 ADD PUSH1 0x40 MSTORE RETURNDATASIZE DUP3 MSTORE RETURNDATASIZE PUSH1 0x0 PUSH1 0x20 DUP5 ADD RETURNDATACOPY PUSH2 0x4977 JUMP JUMPDEST PUSH1 0x60 SWAP2 POP JUMPDEST POP SWAP2 POP SWAP2 POP PUSH2 0x4987 DUP3 DUP3 DUP7 PUSH2 0x49C1 JUMP JUMPDEST SWAP3 POP POP POP SWAP5 SWAP4 POP POP POP POP JUMP JUMPDEST PUSH1 0x0 PUSH1 0x3 SLOAD NUMBER LT ISZERO DUP1 ISZERO PUSH2 0x49A9 JUMPI POP PUSH1 0x4 SLOAD NUMBER GT ISZERO JUMPDEST SWAP1 POP SWAP1 JUMP JUMPDEST PUSH1 0x0 DUP1 DUP3 EXTCODESIZE SWAP1 POP PUSH1 0x0 DUP2 GT SWAP2 POP POP SWAP2 SWAP1 POP JUMP JUMPDEST PUSH1 0x60 DUP4 ISZERO PUSH2 0x49D1 JUMPI DUP3 SWAP1 POP PUSH2 0x4A86 JUMP JUMPDEST PUSH1 0x0 DUP4 MLOAD GT ISZERO PUSH2 0x49E4 JUMPI DUP3 MLOAD DUP1 DUP5 PUSH1 0x20 ADD REVERT JUMPDEST DUP2 PUSH1 0x40 MLOAD PUSH32 0x8C379A000000000000000000000000000000000000000000000000000000000 DUP2 MSTORE PUSH1 0x4 ADD DUP1 DUP1 PUSH1 0x20 ADD DUP3 DUP2 SUB DUP3 MSTORE DUP4 DUP2 DUP2 MLOAD DUP2 MSTORE PUSH1 0x20 ADD SWAP2 POP DUP1 MLOAD SWAP1 PUSH1 0x20 ADD SWAP1 DUP1 DUP4 DUP4 PUSH1 0x0 JUMPDEST DUP4 DUP2 LT ISZERO PUSH2 0x4A4B JUMPI DUP1 DUP3 ADD MLOAD DUP2 DUP5 ADD MSTORE PUSH1 0x20 DUP2 ADD SWAP1 POP PUSH2 0x4A30 JUMP JUMPDEST POP POP POP POP SWAP1 POP SWAP1 DUP2 ADD SWAP1 PUSH1 0x1F AND DUP1 ISZERO PUSH2 0x4A78 JUMPI DUP1 DUP3 SUB DUP1 MLOAD PUSH1 0x1 DUP4 PUSH1 0x20 SUB PUSH2 0x100 EXP SUB NOT AND DUP2 MSTORE PUSH1 0x20 ADD SWAP2 POP JUMPDEST POP SWAP3 POP POP POP PUSH1 0x40 MLOAD DUP1 SWAP2 SUB SWAP1 REVERT JUMPDEST SWAP4 SWAP3 POP POP POP JUMP INVALID 0x4F PUSH24 0x6E61626C653A206E6577206F776E65722069732074686520 PUSH27 0x65726F2061646472657373546F6B656E2063616E6E6F7420626520 PUSH20 0x616D65206173206465706F73697420746F6B656E 0x4E PUSH6 0x772073746172 PUSH21 0x426C6F636B206D757374206265206C6F7765722074 PUSH9 0x616E206E657720656E PUSH5 0x426C6F636B COINBASE PUSH5 0x6472657373 GASPRICE KECCAK256 PUSH10 0x6E73756666696369656E PUSH21 0x2062616C616E636520666F722063616C6C546F6B65 PUSH15 0x2063616E6E6F742062652073616D65 KECCAK256 PUSH2 0x7320 PUSH19 0x65636569707420746F6B656E63616C6C466565 KECCAK256 PUSH4 0x616E6E6F PUSH21 0x206265206D6F7265207468616E204D41585F43414C 0x4C 0x5F CHAINID GASLIMIT GASLIMIT PUSH17 0x6572666F726D616E63654665652063616E PUSH15 0x6F74206265206D6F7265207468616E KECCAK256 0x4D COINBASE PC 0x5F POP GASLIMIT MSTORE CHAINID 0x4F MSTORE 0x4D COINBASE 0x4E NUMBER GASLIMIT 0x5F CHAINID GASLIMIT GASLIMIT PUSH15 0x657720656E6420626C6F636B206361 PUSH15 0x277420626568696E64206375727265 PUSH15 0x7420626C6F636B536166654D617468 GASPRICE KECCAK256 PUSH14 0x756C7469706C69636174696F6E20 PUSH16 0x766572666C6F776465706F7369742061 PUSH14 0x6F756E7420697320746F6F20736D PUSH2 0x6C6C KECCAK256 PUSH21 0x6F20616C6C6F6361746520736861726573506F6F6C KECCAK256 PUSH4 0x75727265 PUSH15 0x7420626C6F636B206D757374206265 KECCAK256 PUSH13 0x6F776572207468616E206E6577 KECCAK256 PUSH20 0x74617274426C6F636B7769746864726177466565 POP PUSH6 0x72696F642063 PUSH2 0x6E6E PUSH16 0x74206265206D6F7265207468616E204D COINBASE PC 0x5F JUMPI 0x49 SLOAD 0x48 DIFFICULTY MSTORE COINBASE JUMPI 0x5F CHAINID GASLIMIT GASLIMIT 0x5F POP GASLIMIT MSTORE 0x49 0x4F DIFFICULTY PUSH16 0x6C6420656E6420626C6F636B2063616E 0x27 PUSH21 0x20626568696E642063757272656E7420626C6F636B MSTORE8 PUSH2 0x6665 GASLIMIT MSTORE NUMBER ORIGIN ADDRESS GASPRICE KECCAK256 GASLIMIT MSTORE NUMBER ORIGIN ADDRESS KECCAK256 PUSH16 0x7065726174696F6E20646964206E6F74 KECCAK256 PUSH20 0x7563636565647769746864726177466565206361 PUSH15 0x6E6F74206265206D6F726520746861 PUSH15 0x204D41585F57495448445241575F46 GASLIMIT GASLIMIT MSTORE8 PUSH2 0x6665 GASLIMIT MSTORE NUMBER ORIGIN ADDRESS GASPRICE KECCAK256 PUSH2 0x7070 PUSH19 0x6F76652066726F6D206E6F6E2D7A65726F2074 PUSH16 0x206E6F6E2D7A65726F20616C6C6F7761 PUSH15 0x6365A2646970667358221220402A01 0xC5 0xE6 0xC8 CALLCODE BYTE ORIGIN 0xB7 RETURNDATACOPY PUSH14 0x16C505953F56E2F9DCF29F78D5E5 0x4A SELFDESTRUCT SWAP16 INVALID PUSH13 0x7164736F6C634300060C003373 PUSH21 0x61727420626C6F636B2063616E277420626568696E PUSH5 0x2063757272 PUSH6 0x6E7420626C6F PUSH4 0x6B416464 PUSH19 0x6573733A20696E73756666696369656E742062 PUSH2 0x6C61 PUSH15 0x636520666F722063616C6C53616665 GASLIMIT MSTORE NUMBER ORIGIN ADDRESS GASPRICE KECCAK256 GASLIMIT MSTORE NUMBER ORIGIN ADDRESS KECCAK256 PUSH16 0x7065726174696F6E20646964206E6F74 KECCAK256 PUSH20 0x756363656564656E6420626C6F636B2063616E27 PUSH21 0x20626568696E6420737461727420626C6F636B5361 PUSH7 0x6545524332303A KECCAK256 PUSH2 0x7070 PUSH19 0x6F76652066726F6D206E6F6E2D7A65726F2074 PUSH16 0x206E6F6E2D7A65726F20616C6C6F7761 PUSH15 0x636500000000000000000000000000 "
				},
				"gasEstimates": {
					"creation": {
						"codeDepositCost": "3969000",
						"executionCost": "infinite",
						"totalCost": "infinite"
					},
					"external": {
						"MAX_CALL_FEE()": "273",
						"MAX_PERFORMANCE_FEE()": "338",
						"MAX_WITHDRAW_FEE()": "360",
						"MAX_WITHDRAW_FEE_PERIOD()": "295",
						"admin()": "1157",
						"available()": "infinite",
						"balanceOf()": "infinite",
						"calculateHarvestCakeRewards()": "infinite",
						"calculateTotalPendingCakeRewards()": "infinite",
						"callFee()": "1117",
						"deposit(uint256)": "infinite",
						"emergencyWithdraw()": "infinite",
						"emergencyWithdrawAll()": "infinite",
						"endBlock()": "1096",
						"getPricePerFullShare()": "infinite",
						"getUserCredit(address)": "infinite",
						"harvest()": "infinite",
						"inCaseTokensGetStuck(address)": "infinite",
						"lastHarvestedTime()": "1072",
						"masterchef()": "infinite",
						"owner()": "1145",
						"pause()": "infinite",
						"paused()": "1239",
						"performanceFee()": "1073",
						"receiptToken()": "infinite",
						"renounceOwnership()": "24418",
						"setAdmin(address)": "22124",
						"setCallFee(uint256)": "infinite",
						"setPerformanceFee(uint256)": "infinite",
						"setTreasury(address)": "22145",
						"setWithdrawFee(uint256)": "infinite",
						"setWithdrawFeePeriod(uint256)": "infinite",
						"startBlock()": "1095",
						"token()": "infinite",
						"totalShares()": "1139",
						"transferOwnership(address)": "infinite",
						"treasury()": "1203",
						"unpause()": "infinite",
						"updateEndBlock(uint256)": "infinite",
						"updateStartAndEndBlocks(uint256,uint256)": "infinite",
						"userIFOInfo(address)": "4580",
						"userInfo(address)": "3792",
						"withdraw(uint256)": "infinite",
						"withdrawAll()": "infinite",
						"withdrawFee()": "1160",
						"withdrawFeePeriod()": "1138"
					},
					"internal": {
						"_calculateAvgBalance(uint256,uint256,uint256,uint256,uint256)": "infinite",
						"_earn()": "infinite",
						"_isContract(address)": "747",
						"_isIFOAvailable()": "828",
						"_isValidActionBlock()": "1664",
						"_updateUserIFO(uint256,enum LandbaseLockPool.IFOActions)": "infinite",
						"_zeroFreeIFO()": "infinite",
						"withdrawV1(uint256)": "infinite"
					}
				},
				"methodIdentifiers": {
					"MAX_CALL_FEE()": "2ad5a53f",
					"MAX_PERFORMANCE_FEE()": "bdca9165",
					"MAX_WITHDRAW_FEE()": "d4b0de2f",
					"MAX_WITHDRAW_FEE_PERIOD()": "2cfc5f01",
					"admin()": "f851a440",
					"available()": "48a0d754",
					"balanceOf()": "722713f7",
					"calculateHarvestCakeRewards()": "9d72596b",
					"calculateTotalPendingCakeRewards()": "58ebceb6",
					"callFee()": "90321e1a",
					"deposit(uint256)": "b6b55f25",
					"emergencyWithdraw()": "db2e21bc",
					"emergencyWithdrawAll()": "dd191719",
					"endBlock()": "083c6323",
					"getPricePerFullShare()": "77c7b8fc",
					"getUserCredit(address)": "dad6f0dc",
					"harvest()": "4641257d",
					"inCaseTokensGetStuck(address)": "def68a9c",
					"lastHarvestedTime()": "b60f0531",
					"masterchef()": "fb1db278",
					"owner()": "8da5cb5b",
					"pause()": "8456cb59",
					"paused()": "5c975abb",
					"performanceFee()": "87788782",
					"receiptToken()": "ec78e832",
					"renounceOwnership()": "715018a6",
					"setAdmin(address)": "704b6c02",
					"setCallFee(uint256)": "26465826",
					"setPerformanceFee(uint256)": "70897b23",
					"setTreasury(address)": "f0f44260",
					"setWithdrawFee(uint256)": "b6ac642a",
					"setWithdrawFeePeriod(uint256)": "1efac1b8",
					"startBlock()": "48cd4cb1",
					"token()": "fc0c546a",
					"totalShares()": "3a98ef39",
					"transferOwnership(address)": "f2fde38b",
					"treasury()": "61d027b3",
					"unpause()": "3f4ba83a",
					"updateEndBlock(uint256)": "006f0231",
					"updateStartAndEndBlocks(uint256,uint256)": "9513997f",
					"userIFOInfo(address)": "06f5a745",
					"userInfo(address)": "1959a002",
					"withdraw(uint256)": "2e1a7d4d",
					"withdrawAll()": "853828b6",
					"withdrawFee()": "e941fa78",
					"withdrawFeePeriod()": "df10b4e6"
				}
			},
			"storageLayout": {
				"storage": [
					{
						"astId": 1990,
						"contract": "farms-pools/LandbaseLockPool.sol:LandbaseLockPool",
						"label": "_owner",
						"offset": 0,
						"slot": "0",
						"type": "t_address"
					},
					{
						"astId": 2836,
						"contract": "farms-pools/LandbaseLockPool.sol:LandbaseLockPool",
						"label": "_paused",
						"offset": 20,
						"slot": "0",
						"type": "t_bool"
					},
					{
						"astId": 127,
						"contract": "farms-pools/LandbaseLockPool.sol:LandbaseLockPool",
						"label": "userInfo",
						"offset": 0,
						"slot": "1",
						"type": "t_mapping(t_address,t_struct(UserInfo)103_storage)"
					},
					{
						"astId": 131,
						"contract": "farms-pools/LandbaseLockPool.sol:LandbaseLockPool",
						"label": "userIFOInfo",
						"offset": 0,
						"slot": "2",
						"type": "t_mapping(t_address,t_struct(UserIFOInfo)114_storage)"
					},
					{
						"astId": 133,
						"contract": "farms-pools/LandbaseLockPool.sol:LandbaseLockPool",
						"label": "startBlock",
						"offset": 0,
						"slot": "3",
						"type": "t_uint256"
					},
					{
						"astId": 135,
						"contract": "farms-pools/LandbaseLockPool.sol:LandbaseLockPool",
						"label": "endBlock",
						"offset": 0,
						"slot": "4",
						"type": "t_uint256"
					},
					{
						"astId": 137,
						"contract": "farms-pools/LandbaseLockPool.sol:LandbaseLockPool",
						"label": "totalShares",
						"offset": 0,
						"slot": "5",
						"type": "t_uint256"
					},
					{
						"astId": 139,
						"contract": "farms-pools/LandbaseLockPool.sol:LandbaseLockPool",
						"label": "lastHarvestedTime",
						"offset": 0,
						"slot": "6",
						"type": "t_uint256"
					},
					{
						"astId": 141,
						"contract": "farms-pools/LandbaseLockPool.sol:LandbaseLockPool",
						"label": "admin",
						"offset": 0,
						"slot": "7",
						"type": "t_address"
					},
					{
						"astId": 143,
						"contract": "farms-pools/LandbaseLockPool.sol:LandbaseLockPool",
						"label": "treasury",
						"offset": 0,
						"slot": "8",
						"type": "t_address"
					},
					{
						"astId": 158,
						"contract": "farms-pools/LandbaseLockPool.sol:LandbaseLockPool",
						"label": "performanceFee",
						"offset": 0,
						"slot": "9",
						"type": "t_uint256"
					},
					{
						"astId": 161,
						"contract": "farms-pools/LandbaseLockPool.sol:LandbaseLockPool",
						"label": "callFee",
						"offset": 0,
						"slot": "10",
						"type": "t_uint256"
					},
					{
						"astId": 164,
						"contract": "farms-pools/LandbaseLockPool.sol:LandbaseLockPool",
						"label": "withdrawFee",
						"offset": 0,
						"slot": "11",
						"type": "t_uint256"
					},
					{
						"astId": 167,
						"contract": "farms-pools/LandbaseLockPool.sol:LandbaseLockPool",
						"label": "withdrawFeePeriod",
						"offset": 0,
						"slot": "12",
						"type": "t_uint256"
					}
				],
				"types": {
					"t_address": {
						"encoding": "inplace",
						"label": "address",
						"numberOfBytes": "20"
					},
					"t_bool": {
						"encoding": "inplace",
						"label": "bool",
						"numberOfBytes": "1"
					},
					"t_mapping(t_address,t_struct(UserIFOInfo)114_storage)": {
						"encoding": "mapping",
						"key": "t_address",
						"label": "mapping(address => struct LandbaseLockPool.UserIFOInfo)",
						"numberOfBytes": "32",
						"value": "t_struct(UserIFOInfo)114_storage"
					},
					"t_mapping(t_address,t_struct(UserInfo)103_storage)": {
						"encoding": "mapping",
						"key": "t_address",
						"label": "mapping(address => struct LandbaseLockPool.UserInfo)",
						"numberOfBytes": "32",
						"value": "t_struct(UserInfo)103_storage"
					},
					"t_struct(UserIFOInfo)114_storage": {
						"encoding": "inplace",
						"label": "struct LandbaseLockPool.UserIFOInfo",
						"members": [
							{
								"astId": 105,
								"contract": "farms-pools/LandbaseLockPool.sol:LandbaseLockPool",
								"label": "lastActionBalance",
								"offset": 0,
								"slot": "0",
								"type": "t_uint256"
							},
							{
								"astId": 107,
								"contract": "farms-pools/LandbaseLockPool.sol:LandbaseLockPool",
								"label": "lastValidActionBalance",
								"offset": 0,
								"slot": "1",
								"type": "t_uint256"
							},
							{
								"astId": 109,
								"contract": "farms-pools/LandbaseLockPool.sol:LandbaseLockPool",
								"label": "lastActionBlock",
								"offset": 0,
								"slot": "2",
								"type": "t_uint256"
							},
							{
								"astId": 111,
								"contract": "farms-pools/LandbaseLockPool.sol:LandbaseLockPool",
								"label": "lastValidActionBlock",
								"offset": 0,
								"slot": "3",
								"type": "t_uint256"
							},
							{
								"astId": 113,
								"contract": "farms-pools/LandbaseLockPool.sol:LandbaseLockPool",
								"label": "lastAvgBalance",
								"offset": 0,
								"slot": "4",
								"type": "t_uint256"
							}
						],
						"numberOfBytes": "160"
					},
					"t_struct(UserInfo)103_storage": {
						"encoding": "inplace",
						"label": "struct LandbaseLockPool.UserInfo",
						"members": [
							{
								"astId": 96,
								"contract": "farms-pools/LandbaseLockPool.sol:LandbaseLockPool",
								"label": "shares",
								"offset": 0,
								"slot": "0",
								"type": "t_uint256"
							},
							{
								"astId": 98,
								"contract": "farms-pools/LandbaseLockPool.sol:LandbaseLockPool",
								"label": "lastDepositedTime",
								"offset": 0,
								"slot": "1",
								"type": "t_uint256"
							},
							{
								"astId": 100,
								"contract": "farms-pools/LandbaseLockPool.sol:LandbaseLockPool",
								"label": "cakeAtLastUserAction",
								"offset": 0,
								"slot": "2",
								"type": "t_uint256"
							},
							{
								"astId": 102,
								"contract": "farms-pools/LandbaseLockPool.sol:LandbaseLockPool",
								"label": "lastUserActionTime",
								"offset": 0,
								"slot": "3",
								"type": "t_uint256"
							}
						],
						"numberOfBytes": "128"
					},
					"t_uint256": {
						"encoding": "inplace",
						"label": "uint256",
						"numberOfBytes": "32"
					}
				}
			},
			"userdoc": {
				"kind": "user",
				"methods": {
					"available()": {
						"notice": "Custom logic for how much the vault allows to be borrowed"
					},
					"balanceOf()": {
						"notice": "Calculates the total underlying tokens"
					},
					"calculateHarvestCakeRewards()": {
						"notice": "Calculates the expected harvest reward from third party"
					},
					"calculateTotalPendingCakeRewards()": {
						"notice": "Calculates the total pending rewards that can be restaked"
					},
					"constructor": "Constructor",
					"deposit(uint256)": {
						"notice": "Deposits funds into the Cake Vault"
					},
					"emergencyWithdraw()": {
						"notice": "Withdraws from MasterChef to Vault without caring about rewards."
					},
					"emergencyWithdrawAll()": {
						"notice": "Withdraws user all funds in emergency,it's called by user not admin,the userifo status will be clear"
					},
					"getPricePerFullShare()": {
						"notice": "Calculates the price per share"
					},
					"getUserCredit(address)": {
						"notice": "calculate IFO latest average balance for specific user"
					},
					"harvest()": {
						"notice": "Reinvests CAKE tokens into MasterChef"
					},
					"inCaseTokensGetStuck(address)": {
						"notice": "Withdraw unexpected tokens sent to the Cake Vault"
					},
					"pause()": {
						"notice": "Triggers stopped state"
					},
					"setAdmin(address)": {
						"notice": "Sets admin address"
					},
					"setCallFee(uint256)": {
						"notice": "Sets call fee"
					},
					"setPerformanceFee(uint256)": {
						"notice": "Sets performance fee"
					},
					"setTreasury(address)": {
						"notice": "Sets treasury address"
					},
					"setWithdrawFee(uint256)": {
						"notice": "Sets withdraw fee"
					},
					"setWithdrawFeePeriod(uint256)": {
						"notice": "Sets withdraw fee period"
					},
					"unpause()": {
						"notice": "Returns to normal state"
					},
					"updateEndBlock(uint256)": {
						"notice": "It allows the admin to update end block"
					},
					"updateStartAndEndBlocks(uint256,uint256)": {
						"notice": "It allows the admin to update start and end blocks"
					},
					"withdraw(uint256)": {
						"notice": "Withdraws from funds from the IFOPool"
					},
					"withdrawAll()": {
						"notice": "Withdraws all funds for a user"
					}
				},
				"version": 1
			}
		}
	}
}