{
	"contracts/BEP20.sol": {
		"BEP20": {
			"abi": [
				{
					"inputs": [
						{
							"internalType": "string",
							"name": "tokenName",
							"type": "string"
						},
						{
							"internalType": "string",
							"name": "tokenSymbol",
							"type": "string"
						}
					],
					"stateMutability": "nonpayable",
					"type": "constructor"
				},
				{
					"anonymous": false,
					"inputs": [
						{
							"indexed": true,
							"internalType": "address",
							"name": "owner",
							"type": "address"
						},
						{
							"indexed": true,
							"internalType": "address",
							"name": "spender",
							"type": "address"
						},
						{
							"indexed": false,
							"internalType": "uint256",
							"name": "value",
							"type": "uint256"
						}
					],
					"name": "Approval",
					"type": "event"
				},
				{
					"anonymous": false,
					"inputs": [
						{
							"indexed": true,
							"internalType": "address",
							"name": "previousOwner",
							"type": "address"
						},
						{
							"indexed": true,
							"internalType": "address",
							"name": "newOwner",
							"type": "address"
						}
					],
					"name": "OwnershipTransferred",
					"type": "event"
				},
				{
					"anonymous": false,
					"inputs": [
						{
							"indexed": true,
							"internalType": "address",
							"name": "from",
							"type": "address"
						},
						{
							"indexed": true,
							"internalType": "address",
							"name": "to",
							"type": "address"
						},
						{
							"indexed": false,
							"internalType": "uint256",
							"name": "value",
							"type": "uint256"
						}
					],
					"name": "Transfer",
					"type": "event"
				},
				{
					"inputs": [
						{
							"internalType": "address",
							"name": "owner",
							"type": "address"
						},
						{
							"internalType": "address",
							"name": "spender",
							"type": "address"
						}
					],
					"name": "allowance",
					"outputs": [
						{
							"internalType": "uint256",
							"name": "",
							"type": "uint256"
						}
					],
					"stateMutability": "view",
					"type": "function"
				},
				{
					"inputs": [
						{
							"internalType": "address",
							"name": "spender",
							"type": "address"
						},
						{
							"internalType": "uint256",
							"name": "amount",
							"type": "uint256"
						}
					],
					"name": "approve",
					"outputs": [
						{
							"internalType": "bool",
							"name": "",
							"type": "bool"
						}
					],
					"stateMutability": "nonpayable",
					"type": "function"
				},
				{
					"inputs": [
						{
							"internalType": "address",
							"name": "account",
							"type": "address"
						}
					],
					"name": "balanceOf",
					"outputs": [
						{
							"internalType": "uint256",
							"name": "",
							"type": "uint256"
						}
					],
					"stateMutability": "view",
					"type": "function"
				},
				{
					"inputs": [],
					"name": "decimals",
					"outputs": [
						{
							"internalType": "uint8",
							"name": "",
							"type": "uint8"
						}
					],
					"stateMutability": "view",
					"type": "function"
				},
				{
					"inputs": [
						{
							"internalType": "address",
							"name": "spender",
							"type": "address"
						},
						{
							"internalType": "uint256",
							"name": "subtractedValue",
							"type": "uint256"
						}
					],
					"name": "decreaseAllowance",
					"outputs": [
						{
							"internalType": "bool",
							"name": "",
							"type": "bool"
						}
					],
					"stateMutability": "nonpayable",
					"type": "function"
				},
				{
					"inputs": [],
					"name": "getOwner",
					"outputs": [
						{
							"internalType": "address",
							"name": "",
							"type": "address"
						}
					],
					"stateMutability": "view",
					"type": "function"
				},
				{
					"inputs": [
						{
							"internalType": "address",
							"name": "spender",
							"type": "address"
						},
						{
							"internalType": "uint256",
							"name": "addedValue",
							"type": "uint256"
						}
					],
					"name": "increaseAllowance",
					"outputs": [
						{
							"internalType": "bool",
							"name": "",
							"type": "bool"
						}
					],
					"stateMutability": "nonpayable",
					"type": "function"
				},
				{
					"inputs": [
						{
							"internalType": "uint256",
							"name": "amount",
							"type": "uint256"
						}
					],
					"name": "mint",
					"outputs": [
						{
							"internalType": "bool",
							"name": "",
							"type": "bool"
						}
					],
					"stateMutability": "nonpayable",
					"type": "function"
				},
				{
					"inputs": [],
					"name": "name",
					"outputs": [
						{
							"internalType": "string",
							"name": "",
							"type": "string"
						}
					],
					"stateMutability": "view",
					"type": "function"
				},
				{
					"inputs": [],
					"name": "owner",
					"outputs": [
						{
							"internalType": "address",
							"name": "",
							"type": "address"
						}
					],
					"stateMutability": "view",
					"type": "function"
				},
				{
					"inputs": [],
					"name": "renounceOwnership",
					"outputs": [],
					"stateMutability": "nonpayable",
					"type": "function"
				},
				{
					"inputs": [],
					"name": "symbol",
					"outputs": [
						{
							"internalType": "string",
							"name": "",
							"type": "string"
						}
					],
					"stateMutability": "view",
					"type": "function"
				},
				{
					"inputs": [],
					"name": "totalSupply",
					"outputs": [
						{
							"internalType": "uint256",
							"name": "",
							"type": "uint256"
						}
					],
					"stateMutability": "view",
					"type": "function"
				},
				{
					"inputs": [
						{
							"internalType": "address",
							"name": "recipient",
							"type": "address"
						},
						{
							"internalType": "uint256",
							"name": "amount",
							"type": "uint256"
						}
					],
					"name": "transfer",
					"outputs": [
						{
							"internalType": "bool",
							"name": "",
							"type": "bool"
						}
					],
					"stateMutability": "nonpayable",
					"type": "function"
				},
				{
					"inputs": [
						{
							"internalType": "address",
							"name": "sender",
							"type": "address"
						},
						{
							"internalType": "address",
							"name": "recipient",
							"type": "address"
						},
						{
							"internalType": "uint256",
							"name": "amount",
							"type": "uint256"
						}
					],
					"name": "transferFrom",
					"outputs": [
						{
							"internalType": "bool",
							"name": "",
							"type": "bool"
						}
					],
					"stateMutability": "nonpayable",
					"type": "function"
				},
				{
					"inputs": [
						{
							"internalType": "address",
							"name": "newOwner",
							"type": "address"
						}
					],
					"name": "transferOwnership",
					"outputs": [],
					"stateMutability": "nonpayable",
					"type": "function"
				}
			],
			"devdoc": {
				"kind": "dev",
				"methods": {
					"allowance(address,address)": {
						"details": "See {BEP20-allowance}."
					},
					"approve(address,uint256)": {
						"details": "See {BEP20-approve}. Requirements: - `spender` cannot be the zero address."
					},
					"balanceOf(address)": {
						"details": "See {BEP20-balanceOf}."
					},
					"constructor": {
						"details": "Sets the values for {name} and {symbol}, initializes {decimals} with a default value of 18. To select a different value for {decimals}, use {_setupDecimals}. All three of these values are immutable: they can only be set once during construction."
					},
					"decimals()": {
						"details": "Returns the token decimals."
					},
					"decreaseAllowance(address,uint256)": {
						"details": "Atomically decreases the allowance granted to `spender` by the caller. This is an alternative to {approve} that can be used as a mitigation for problems described in {BEP20-approve}. Emits an {Approval} event indicating the updated allowance. Requirements: - `spender` cannot be the zero address. - `spender` must have allowance for the caller of at least `subtractedValue`."
					},
					"getOwner()": {
						"details": "Returns the bep token owner."
					},
					"increaseAllowance(address,uint256)": {
						"details": "Atomically increases the allowance granted to `spender` by the caller. This is an alternative to {approve} that can be used as a mitigation for problems described in {BEP20-approve}. Emits an {Approval} event indicating the updated allowance. Requirements: - `spender` cannot be the zero address."
					},
					"mint(uint256)": {
						"details": "Creates `amount` tokens and assigns them to `msg.sender`, increasing the total supply. Requirements - `msg.sender` must be the token owner"
					},
					"name()": {
						"details": "Returns the token name."
					},
					"owner()": {
						"details": "Returns the address of the current owner."
					},
					"renounceOwnership()": {
						"details": "Leaves the contract without owner. It will not be possible to call `onlyOwner` functions anymore. Can only be called by the current owner. NOTE: Renouncing ownership will leave the contract without an owner, thereby removing any functionality that is only available to the owner."
					},
					"symbol()": {
						"details": "Returns the token symbol."
					},
					"totalSupply()": {
						"details": "See {BEP20-totalSupply}."
					},
					"transfer(address,uint256)": {
						"details": "See {BEP20-transfer}. Requirements: - `recipient` cannot be the zero address. - the caller must have a balance of at least `amount`."
					},
					"transferFrom(address,address,uint256)": {
						"details": "See {BEP20-transferFrom}. Emits an {Approval} event indicating the updated allowance. This is not required by the EIP. See the note at the beginning of {BEP20}; Requirements: - `sender` and `recipient` cannot be the zero address. - `sender` must have a balance of at least `amount`. - the caller must have allowance for `sender`'s tokens of at least `amount`."
					},
					"transferOwnership(address)": {
						"details": "Transfers ownership of the contract to a new account (`newOwner`). Can only be called by the current owner."
					}
				},
				"version": 1
			},
			"evm": {
				"assembly": "    /* \"contracts/BEP20.sol\":192:9524  contract BEP20 is IBEP20, Ownable {... */\n  mstore(0x40, 0x80)\n    /* \"contracts/BEP20.sol\":878:1035  constructor(string memory tokenName, string memory tokenSymbol) {... */\n  callvalue\n  dup1\n  iszero\n  tag_1\n  jumpi\n  0x00\n  dup1\n  revert\ntag_1:\n  pop\n  mload(0x40)\n  sub(codesize, bytecodeSize)\n  dup1\n  bytecodeSize\n  dup4\n  codecopy\n  dup2\n  dup2\n  add\n  0x40\n  mstore\n  dup2\n  add\n  swap1\n  tag_2\n  swap2\n  swap1\n  tag_3\n  jump\t// in\ntag_2:\n    /* \"contracts/access/Ownable.sol\":894:917  _setOwner(_msgSender()) */\n  tag_7\n    /* \"contracts/access/Ownable.sol\":904:916  _msgSender() */\n  tag_8\n    /* \"contracts/access/Ownable.sol\":904:914  _msgSender */\n  shl(0x20, tag_9)\n    /* \"contracts/access/Ownable.sol\":904:916  _msgSender() */\n  0x20\n  shr\n  jump\t// in\ntag_8:\n    /* \"contracts/access/Ownable.sol\":894:903  _setOwner */\n  shl(0x20, tag_10)\n    /* \"contracts/access/Ownable.sol\":894:917  _setOwner(_msgSender()) */\n  0x20\n  shr\n  jump\t// in\ntag_7:\n    /* \"contracts/BEP20.sol\":961:970  tokenName */\n  dup2\n    /* \"contracts/BEP20.sol\":953:958  _name */\n  0x06\n    /* \"contracts/BEP20.sol\":953:970  _name = tokenName */\n  swap1\n  dup1\n  mload\n  swap1\n  0x20\n  add\n  swap1\n  tag_12\n  swap3\n  swap2\n  swap1\n  tag_13\n  jump\t// in\ntag_12:\n  pop\n    /* \"contracts/BEP20.sol\":991:1002  tokenSymbol */\n  dup1\n    /* \"contracts/BEP20.sol\":981:988  _symbol */\n  0x05\n    /* \"contracts/BEP20.sol\":981:1002  _symbol = tokenSymbol */\n  swap1\n  dup1\n  mload\n  swap1\n  0x20\n  add\n  swap1\n  tag_14\n  swap3\n  swap2\n  swap1\n  tag_13\n  jump\t// in\ntag_14:\n  pop\n    /* \"contracts/BEP20.sol\":1025:1027  18 */\n  0x12\n    /* \"contracts/BEP20.sol\":1013:1022  _decimals */\n  0x04\n  0x00\n    /* \"contracts/BEP20.sol\":1013:1027  _decimals = 18 */\n  0x0100\n  exp\n  dup2\n  sload\n  dup2\n  0xff\n  mul\n  not\n  and\n  swap1\n  dup4\n  0xff\n  and\n  mul\n  or\n  swap1\n  sstore\n  pop\n    /* \"contracts/BEP20.sol\":878:1035  constructor(string memory tokenName, string memory tokenSymbol) {... */\n  pop\n  pop\n    /* \"contracts/BEP20.sol\":192:9524  contract BEP20 is IBEP20, Ownable {... */\n  jump(tag_15)\n    /* \"contracts/utils/Context.sol\":602:700  function _msgSender() internal view virtual returns (address) {... */\ntag_9:\n    /* \"contracts/utils/Context.sol\":655:662  address */\n  0x00\n    /* \"contracts/utils/Context.sol\":682:692  msg.sender */\n  caller\n    /* \"contracts/utils/Context.sol\":675:692  return msg.sender */\n  swap1\n  pop\n    /* \"contracts/utils/Context.sol\":602:700  function _msgSender() internal view virtual returns (address) {... */\n  swap1\n  jump\t// out\n    /* \"contracts/access/Ownable.sol\":2106:2279  function _setOwner(address newOwner) private {... */\ntag_10:\n    /* \"contracts/access/Ownable.sol\":2162:2178  address oldOwner */\n  0x00\n    /* \"contracts/access/Ownable.sol\":2181:2187  _owner */\n  dup1\n  0x00\n  swap1\n  sload\n  swap1\n  0x0100\n  exp\n  swap1\n  div\n  0xffffffffffffffffffffffffffffffffffffffff\n  and\n    /* \"contracts/access/Ownable.sol\":2162:2187  address oldOwner = _owner */\n  swap1\n  pop\n    /* \"contracts/access/Ownable.sol\":2207:2215  newOwner */\n  dup2\n    /* \"contracts/access/Ownable.sol\":2198:2204  _owner */\n  0x00\n  dup1\n    /* \"contracts/access/Ownable.sol\":2198:2215  _owner = newOwner */\n  0x0100\n  exp\n  dup2\n  sload\n  dup2\n  0xffffffffffffffffffffffffffffffffffffffff\n  mul\n  not\n  and\n  swap1\n  dup4\n  0xffffffffffffffffffffffffffffffffffffffff\n  and\n  mul\n  or\n  swap1\n  sstore\n  pop\n    /* \"contracts/access/Ownable.sol\":2262:2270  newOwner */\n  dup2\n    /* \"contracts/access/Ownable.sol\":2231:2271  OwnershipTransferred(oldOwner, newOwner) */\n  0xffffffffffffffffffffffffffffffffffffffff\n  and\n    /* \"contracts/access/Ownable.sol\":2252:2260  oldOwner */\n  dup2\n    /* \"contracts/access/Ownable.sol\":2231:2271  OwnershipTransferred(oldOwner, newOwner) */\n  0xffffffffffffffffffffffffffffffffffffffff\n  and\n  0x8be0079c531659141344cd1fd0a4f28419497f9722a3daafe3b4186f6b6457e0\n  mload(0x40)\n  mload(0x40)\n  dup1\n  swap2\n  sub\n  swap1\n  log3\n    /* \"contracts/access/Ownable.sol\":2151:2279  {... */\n  pop\n    /* \"contracts/access/Ownable.sol\":2106:2279  function _setOwner(address newOwner) private {... */\n  pop\n  jump\t// out\n    /* \"contracts/BEP20.sol\":192:9524  contract BEP20 is IBEP20, Ownable {... */\ntag_13:\n  dup3\n  dup1\n  sload\n  tag_18\n  swap1\n  tag_19\n  jump\t// in\ntag_18:\n  swap1\n  0x00\n  mstore\n  keccak256(0x00, 0x20)\n  swap1\n  0x1f\n  add\n  0x20\n  swap1\n  div\n  dup2\n  add\n  swap3\n  dup3\n  tag_21\n  jumpi\n  0x00\n  dup6\n  sstore\n  jump(tag_20)\ntag_21:\n  dup3\n  0x1f\n  lt\n  tag_22\n  jumpi\n  dup1\n  mload\n  not(0xff)\n  and\n  dup4\n  dup1\n  add\n  or\n  dup6\n  sstore\n  jump(tag_20)\ntag_22:\n  dup3\n  dup1\n  add\n  0x01\n  add\n  dup6\n  sstore\n  dup3\n  iszero\n  tag_20\n  jumpi\n  swap2\n  dup3\n  add\ntag_23:\n  dup3\n  dup2\n  gt\n  iszero\n  tag_24\n  jumpi\n  dup3\n  mload\n  dup3\n  sstore\n  swap2\n  0x20\n  add\n  swap2\n  swap1\n  0x01\n  add\n  swap1\n  jump(tag_23)\ntag_24:\ntag_20:\n  pop\n  swap1\n  pop\n  tag_25\n  swap2\n  swap1\n  tag_26\n  jump\t// in\ntag_25:\n  pop\n  swap1\n  jump\t// out\ntag_26:\ntag_27:\n  dup1\n  dup3\n  gt\n  iszero\n  tag_28\n  jumpi\n  0x00\n  dup2\n  0x00\n  swap1\n  sstore\n  pop\n  0x01\n  add\n  jump(tag_27)\ntag_28:\n  pop\n  swap1\n  jump\t// out\n    /* \"#utility.yul\":7:82   */\ntag_29:\n    /* \"#utility.yul\":40:46   */\n  0x00\n    /* \"#utility.yul\":73:75   */\n  0x40\n    /* \"#utility.yul\":67:76   */\n  mload\n    /* \"#utility.yul\":57:76   */\n  swap1\n  pop\n    /* \"#utility.yul\":7:82   */\n  swap1\n  jump\t// out\n    /* \"#utility.yul\":88:205   */\ntag_30:\n    /* \"#utility.yul\":197:198   */\n  0x00\n    /* \"#utility.yul\":194:195   */\n  dup1\n    /* \"#utility.yul\":187:199   */\n  revert\n    /* \"#utility.yul\":211:328   */\ntag_31:\n    /* \"#utility.yul\":320:321   */\n  0x00\n    /* \"#utility.yul\":317:318   */\n  dup1\n    /* \"#utility.yul\":310:322   */\n  revert\n    /* \"#utility.yul\":334:451   */\ntag_32:\n    /* \"#utility.yul\":443:444   */\n  0x00\n    /* \"#utility.yul\":440:441   */\n  dup1\n    /* \"#utility.yul\":433:445   */\n  revert\n    /* \"#utility.yul\":457:574   */\ntag_33:\n    /* \"#utility.yul\":566:567   */\n  0x00\n    /* \"#utility.yul\":563:564   */\n  dup1\n    /* \"#utility.yul\":556:568   */\n  revert\n    /* \"#utility.yul\":580:682   */\ntag_34:\n    /* \"#utility.yul\":621:627   */\n  0x00\n    /* \"#utility.yul\":672:674   */\n  0x1f\n    /* \"#utility.yul\":668:675   */\n  not\n    /* \"#utility.yul\":663:665   */\n  0x1f\n    /* \"#utility.yul\":656:661   */\n  dup4\n    /* \"#utility.yul\":652:666   */\n  add\n    /* \"#utility.yul\":648:676   */\n  and\n    /* \"#utility.yul\":638:676   */\n  swap1\n  pop\n    /* \"#utility.yul\":580:682   */\n  swap2\n  swap1\n  pop\n  jump\t// out\n    /* \"#utility.yul\":688:868   */\ntag_35:\n    /* \"#utility.yul\":736:813   */\n  0x4e487b7100000000000000000000000000000000000000000000000000000000\n    /* \"#utility.yul\":733:734   */\n  0x00\n    /* \"#utility.yul\":726:814   */\n  mstore\n    /* \"#utility.yul\":833:837   */\n  0x41\n    /* \"#utility.yul\":830:831   */\n  0x04\n    /* \"#utility.yul\":823:838   */\n  mstore\n    /* \"#utility.yul\":857:861   */\n  0x24\n    /* \"#utility.yul\":854:855   */\n  0x00\n    /* \"#utility.yul\":847:862   */\n  revert\n    /* \"#utility.yul\":874:1155   */\ntag_36:\n    /* \"#utility.yul\":957:984   */\n  tag_52\n    /* \"#utility.yul\":979:983   */\n  dup3\n    /* \"#utility.yul\":957:984   */\n  tag_34\n  jump\t// in\ntag_52:\n    /* \"#utility.yul\":949:955   */\n  dup2\n    /* \"#utility.yul\":945:985   */\n  add\n    /* \"#utility.yul\":1087:1093   */\n  dup2\n    /* \"#utility.yul\":1075:1085   */\n  dup2\n    /* \"#utility.yul\":1072:1094   */\n  lt\n    /* \"#utility.yul\":1051:1069   */\n  0xffffffffffffffff\n    /* \"#utility.yul\":1039:1049   */\n  dup3\n    /* \"#utility.yul\":1036:1070   */\n  gt\n    /* \"#utility.yul\":1033:1095   */\n  or\n    /* \"#utility.yul\":1030:1118   */\n  iszero\n  tag_53\n  jumpi\n    /* \"#utility.yul\":1098:1116   */\n  tag_54\n  tag_35\n  jump\t// in\ntag_54:\n    /* \"#utility.yul\":1030:1118   */\ntag_53:\n    /* \"#utility.yul\":1138:1148   */\n  dup1\n    /* \"#utility.yul\":1134:1136   */\n  0x40\n    /* \"#utility.yul\":1127:1149   */\n  mstore\n    /* \"#utility.yul\":917:1155   */\n  pop\n    /* \"#utility.yul\":874:1155   */\n  pop\n  pop\n  jump\t// out\n    /* \"#utility.yul\":1161:1290   */\ntag_37:\n    /* \"#utility.yul\":1195:1201   */\n  0x00\n    /* \"#utility.yul\":1222:1242   */\n  tag_56\n  tag_29\n  jump\t// in\ntag_56:\n    /* \"#utility.yul\":1212:1242   */\n  swap1\n  pop\n    /* \"#utility.yul\":1251:1284   */\n  tag_57\n    /* \"#utility.yul\":1279:1283   */\n  dup3\n    /* \"#utility.yul\":1271:1277   */\n  dup3\n    /* \"#utility.yul\":1251:1284   */\n  tag_36\n  jump\t// in\ntag_57:\n    /* \"#utility.yul\":1161:1290   */\n  swap2\n  swap1\n  pop\n  jump\t// out\n    /* \"#utility.yul\":1296:1604   */\ntag_38:\n    /* \"#utility.yul\":1358:1362   */\n  0x00\n    /* \"#utility.yul\":1448:1466   */\n  0xffffffffffffffff\n    /* \"#utility.yul\":1440:1446   */\n  dup3\n    /* \"#utility.yul\":1437:1467   */\n  gt\n    /* \"#utility.yul\":1434:1490   */\n  iszero\n  tag_59\n  jumpi\n    /* \"#utility.yul\":1470:1488   */\n  tag_60\n  tag_35\n  jump\t// in\ntag_60:\n    /* \"#utility.yul\":1434:1490   */\ntag_59:\n    /* \"#utility.yul\":1508:1537   */\n  tag_61\n    /* \"#utility.yul\":1530:1536   */\n  dup3\n    /* \"#utility.yul\":1508:1537   */\n  tag_34\n  jump\t// in\ntag_61:\n    /* \"#utility.yul\":1500:1537   */\n  swap1\n  pop\n    /* \"#utility.yul\":1592:1596   */\n  0x20\n    /* \"#utility.yul\":1586:1590   */\n  dup2\n    /* \"#utility.yul\":1582:1597   */\n  add\n    /* \"#utility.yul\":1574:1597   */\n  swap1\n  pop\n    /* \"#utility.yul\":1296:1604   */\n  swap2\n  swap1\n  pop\n  jump\t// out\n    /* \"#utility.yul\":1610:1917   */\ntag_39:\n    /* \"#utility.yul\":1678:1679   */\n  0x00\n    /* \"#utility.yul\":1688:1801   */\ntag_63:\n    /* \"#utility.yul\":1702:1708   */\n  dup4\n    /* \"#utility.yul\":1699:1700   */\n  dup2\n    /* \"#utility.yul\":1696:1709   */\n  lt\n    /* \"#utility.yul\":1688:1801   */\n  iszero\n  tag_65\n  jumpi\n    /* \"#utility.yul\":1787:1788   */\n  dup1\n    /* \"#utility.yul\":1782:1785   */\n  dup3\n    /* \"#utility.yul\":1778:1789   */\n  add\n    /* \"#utility.yul\":1772:1790   */\n  mload\n    /* \"#utility.yul\":1768:1769   */\n  dup2\n    /* \"#utility.yul\":1763:1766   */\n  dup5\n    /* \"#utility.yul\":1759:1770   */\n  add\n    /* \"#utility.yul\":1752:1791   */\n  mstore\n    /* \"#utility.yul\":1724:1726   */\n  0x20\n    /* \"#utility.yul\":1721:1722   */\n  dup2\n    /* \"#utility.yul\":1717:1727   */\n  add\n    /* \"#utility.yul\":1712:1727   */\n  swap1\n  pop\n    /* \"#utility.yul\":1688:1801   */\n  jump(tag_63)\ntag_65:\n    /* \"#utility.yul\":1819:1825   */\n  dup4\n    /* \"#utility.yul\":1816:1817   */\n  dup2\n    /* \"#utility.yul\":1813:1826   */\n  gt\n    /* \"#utility.yul\":1810:1911   */\n  iszero\n  tag_66\n  jumpi\n    /* \"#utility.yul\":1899:1900   */\n  0x00\n    /* \"#utility.yul\":1890:1896   */\n  dup5\n    /* \"#utility.yul\":1885:1888   */\n  dup5\n    /* \"#utility.yul\":1881:1897   */\n  add\n    /* \"#utility.yul\":1874:1901   */\n  mstore\n    /* \"#utility.yul\":1810:1911   */\ntag_66:\n    /* \"#utility.yul\":1659:1917   */\n  pop\n    /* \"#utility.yul\":1610:1917   */\n  pop\n  pop\n  pop\n  jump\t// out\n    /* \"#utility.yul\":1923:2344   */\ntag_40:\n    /* \"#utility.yul\":2012:2017   */\n  0x00\n    /* \"#utility.yul\":2037:2103   */\n  tag_68\n    /* \"#utility.yul\":2053:2102   */\n  tag_69\n    /* \"#utility.yul\":2095:2101   */\n  dup5\n    /* \"#utility.yul\":2053:2102   */\n  tag_38\n  jump\t// in\ntag_69:\n    /* \"#utility.yul\":2037:2103   */\n  tag_37\n  jump\t// in\ntag_68:\n    /* \"#utility.yul\":2028:2103   */\n  swap1\n  pop\n    /* \"#utility.yul\":2126:2132   */\n  dup3\n    /* \"#utility.yul\":2119:2124   */\n  dup2\n    /* \"#utility.yul\":2112:2133   */\n  mstore\n    /* \"#utility.yul\":2164:2168   */\n  0x20\n    /* \"#utility.yul\":2157:2162   */\n  dup2\n    /* \"#utility.yul\":2153:2169   */\n  add\n    /* \"#utility.yul\":2202:2205   */\n  dup5\n    /* \"#utility.yul\":2193:2199   */\n  dup5\n    /* \"#utility.yul\":2188:2191   */\n  dup5\n    /* \"#utility.yul\":2184:2200   */\n  add\n    /* \"#utility.yul\":2181:2206   */\n  gt\n    /* \"#utility.yul\":2178:2290   */\n  iszero\n  tag_70\n  jumpi\n    /* \"#utility.yul\":2209:2288   */\n  tag_71\n  tag_33\n  jump\t// in\ntag_71:\n    /* \"#utility.yul\":2178:2290   */\ntag_70:\n    /* \"#utility.yul\":2299:2338   */\n  tag_72\n    /* \"#utility.yul\":2331:2337   */\n  dup5\n    /* \"#utility.yul\":2326:2329   */\n  dup3\n    /* \"#utility.yul\":2321:2324   */\n  dup6\n    /* \"#utility.yul\":2299:2338   */\n  tag_39\n  jump\t// in\ntag_72:\n    /* \"#utility.yul\":2018:2344   */\n  pop\n    /* \"#utility.yul\":1923:2344   */\n  swap4\n  swap3\n  pop\n  pop\n  pop\n  jump\t// out\n    /* \"#utility.yul\":2364:2719   */\ntag_41:\n    /* \"#utility.yul\":2431:2436   */\n  0x00\n    /* \"#utility.yul\":2480:2483   */\n  dup3\n    /* \"#utility.yul\":2473:2477   */\n  0x1f\n    /* \"#utility.yul\":2465:2471   */\n  dup4\n    /* \"#utility.yul\":2461:2478   */\n  add\n    /* \"#utility.yul\":2457:2484   */\n  slt\n    /* \"#utility.yul\":2447:2569   */\n  tag_74\n  jumpi\n    /* \"#utility.yul\":2488:2567   */\n  tag_75\n  tag_32\n  jump\t// in\ntag_75:\n    /* \"#utility.yul\":2447:2569   */\ntag_74:\n    /* \"#utility.yul\":2598:2604   */\n  dup2\n    /* \"#utility.yul\":2592:2605   */\n  mload\n    /* \"#utility.yul\":2623:2713   */\n  tag_76\n    /* \"#utility.yul\":2709:2712   */\n  dup5\n    /* \"#utility.yul\":2701:2707   */\n  dup3\n    /* \"#utility.yul\":2694:2698   */\n  0x20\n    /* \"#utility.yul\":2686:2692   */\n  dup7\n    /* \"#utility.yul\":2682:2699   */\n  add\n    /* \"#utility.yul\":2623:2713   */\n  tag_40\n  jump\t// in\ntag_76:\n    /* \"#utility.yul\":2614:2713   */\n  swap2\n  pop\n    /* \"#utility.yul\":2437:2719   */\n  pop\n    /* \"#utility.yul\":2364:2719   */\n  swap3\n  swap2\n  pop\n  pop\n  jump\t// out\n    /* \"#utility.yul\":2725:3578   */\ntag_3:\n    /* \"#utility.yul\":2824:2830   */\n  0x00\n    /* \"#utility.yul\":2832:2838   */\n  dup1\n    /* \"#utility.yul\":2881:2883   */\n  0x40\n    /* \"#utility.yul\":2869:2878   */\n  dup4\n    /* \"#utility.yul\":2860:2867   */\n  dup6\n    /* \"#utility.yul\":2856:2879   */\n  sub\n    /* \"#utility.yul\":2852:2884   */\n  slt\n    /* \"#utility.yul\":2849:2968   */\n  iszero\n  tag_78\n  jumpi\n    /* \"#utility.yul\":2887:2966   */\n  tag_79\n  tag_30\n  jump\t// in\ntag_79:\n    /* \"#utility.yul\":2849:2968   */\ntag_78:\n    /* \"#utility.yul\":3028:3029   */\n  0x00\n    /* \"#utility.yul\":3017:3026   */\n  dup4\n    /* \"#utility.yul\":3013:3030   */\n  add\n    /* \"#utility.yul\":3007:3031   */\n  mload\n    /* \"#utility.yul\":3058:3076   */\n  0xffffffffffffffff\n    /* \"#utility.yul\":3050:3056   */\n  dup2\n    /* \"#utility.yul\":3047:3077   */\n  gt\n    /* \"#utility.yul\":3044:3161   */\n  iszero\n  tag_80\n  jumpi\n    /* \"#utility.yul\":3080:3159   */\n  tag_81\n  tag_31\n  jump\t// in\ntag_81:\n    /* \"#utility.yul\":3044:3161   */\ntag_80:\n    /* \"#utility.yul\":3185:3259   */\n  tag_82\n    /* \"#utility.yul\":3251:3258   */\n  dup6\n    /* \"#utility.yul\":3242:3248   */\n  dup3\n    /* \"#utility.yul\":3231:3240   */\n  dup7\n    /* \"#utility.yul\":3227:3249   */\n  add\n    /* \"#utility.yul\":3185:3259   */\n  tag_41\n  jump\t// in\ntag_82:\n    /* \"#utility.yul\":3175:3259   */\n  swap3\n  pop\n    /* \"#utility.yul\":2978:3269   */\n  pop\n    /* \"#utility.yul\":3329:3331   */\n  0x20\n    /* \"#utility.yul\":3318:3327   */\n  dup4\n    /* \"#utility.yul\":3314:3332   */\n  add\n    /* \"#utility.yul\":3308:3333   */\n  mload\n    /* \"#utility.yul\":3360:3378   */\n  0xffffffffffffffff\n    /* \"#utility.yul\":3352:3358   */\n  dup2\n    /* \"#utility.yul\":3349:3379   */\n  gt\n    /* \"#utility.yul\":3346:3463   */\n  iszero\n  tag_83\n  jumpi\n    /* \"#utility.yul\":3382:3461   */\n  tag_84\n  tag_31\n  jump\t// in\ntag_84:\n    /* \"#utility.yul\":3346:3463   */\ntag_83:\n    /* \"#utility.yul\":3487:3561   */\n  tag_85\n    /* \"#utility.yul\":3553:3560   */\n  dup6\n    /* \"#utility.yul\":3544:3550   */\n  dup3\n    /* \"#utility.yul\":3533:3542   */\n  dup7\n    /* \"#utility.yul\":3529:3551   */\n  add\n    /* \"#utility.yul\":3487:3561   */\n  tag_41\n  jump\t// in\ntag_85:\n    /* \"#utility.yul\":3477:3561   */\n  swap2\n  pop\n    /* \"#utility.yul\":3279:3571   */\n  pop\n    /* \"#utility.yul\":2725:3578   */\n  swap3\n  pop\n  swap3\n  swap1\n  pop\n  jump\t// out\n    /* \"#utility.yul\":3584:3764   */\ntag_42:\n    /* \"#utility.yul\":3632:3709   */\n  0x4e487b7100000000000000000000000000000000000000000000000000000000\n    /* \"#utility.yul\":3629:3630   */\n  0x00\n    /* \"#utility.yul\":3622:3710   */\n  mstore\n    /* \"#utility.yul\":3729:3733   */\n  0x22\n    /* \"#utility.yul\":3726:3727   */\n  0x04\n    /* \"#utility.yul\":3719:3734   */\n  mstore\n    /* \"#utility.yul\":3753:3757   */\n  0x24\n    /* \"#utility.yul\":3750:3751   */\n  0x00\n    /* \"#utility.yul\":3743:3758   */\n  revert\n    /* \"#utility.yul\":3770:4090   */\ntag_19:\n    /* \"#utility.yul\":3814:3820   */\n  0x00\n    /* \"#utility.yul\":3851:3852   */\n  0x02\n    /* \"#utility.yul\":3845:3849   */\n  dup3\n    /* \"#utility.yul\":3841:3853   */\n  div\n    /* \"#utility.yul\":3831:3853   */\n  swap1\n  pop\n    /* \"#utility.yul\":3898:3899   */\n  0x01\n    /* \"#utility.yul\":3892:3896   */\n  dup3\n    /* \"#utility.yul\":3888:3900   */\n  and\n    /* \"#utility.yul\":3919:3937   */\n  dup1\n    /* \"#utility.yul\":3909:3990   */\n  tag_88\n  jumpi\n    /* \"#utility.yul\":3975:3979   */\n  0x7f\n    /* \"#utility.yul\":3967:3973   */\n  dup3\n    /* \"#utility.yul\":3963:3980   */\n  and\n    /* \"#utility.yul\":3953:3980   */\n  swap2\n  pop\n    /* \"#utility.yul\":3909:3990   */\ntag_88:\n    /* \"#utility.yul\":4037:4039   */\n  0x20\n    /* \"#utility.yul\":4029:4035   */\n  dup3\n    /* \"#utility.yul\":4026:4040   */\n  lt\n    /* \"#utility.yul\":4006:4024   */\n  dup2\n    /* \"#utility.yul\":4003:4041   */\n  sub\n    /* \"#utility.yul\":4000:4084   */\n  tag_89\n  jumpi\n    /* \"#utility.yul\":4056:4074   */\n  tag_90\n  tag_42\n  jump\t// in\ntag_90:\n    /* \"#utility.yul\":4000:4084   */\ntag_89:\n    /* \"#utility.yul\":3821:4090   */\n  pop\n    /* \"#utility.yul\":3770:4090   */\n  swap2\n  swap1\n  pop\n  jump\t// out\n    /* \"contracts/BEP20.sol\":192:9524  contract BEP20 is IBEP20, Ownable {... */\ntag_15:\n  dataSize(sub_0)\n  dup1\n  dataOffset(sub_0)\n  0x00\n  codecopy\n  0x00\n  return\nstop\n\nsub_0: assembly {\n        /* \"contracts/BEP20.sol\":192:9524  contract BEP20 is IBEP20, Ownable {... */\n      mstore(0x40, 0x80)\n      callvalue\n      dup1\n      iszero\n      tag_1\n      jumpi\n      0x00\n      dup1\n      revert\n    tag_1:\n      pop\n      jumpi(tag_2, lt(calldatasize, 0x04))\n      shr(0xe0, calldataload(0x00))\n      dup1\n      0x893d20e8\n      gt\n      tag_19\n      jumpi\n      dup1\n      0xa457c2d7\n      gt\n      tag_20\n      jumpi\n      dup1\n      0xa457c2d7\n      eq\n      tag_15\n      jumpi\n      dup1\n      0xa9059cbb\n      eq\n      tag_16\n      jumpi\n      dup1\n      0xdd62ed3e\n      eq\n      tag_17\n      jumpi\n      dup1\n      0xf2fde38b\n      eq\n      tag_18\n      jumpi\n      jump(tag_2)\n    tag_20:\n      dup1\n      0x893d20e8\n      eq\n      tag_11\n      jumpi\n      dup1\n      0x8da5cb5b\n      eq\n      tag_12\n      jumpi\n      dup1\n      0x95d89b41\n      eq\n      tag_13\n      jumpi\n      dup1\n      0xa0712d68\n      eq\n      tag_14\n      jumpi\n      jump(tag_2)\n    tag_19:\n      dup1\n      0x313ce567\n      gt\n      tag_21\n      jumpi\n      dup1\n      0x313ce567\n      eq\n      tag_7\n      jumpi\n      dup1\n      0x39509351\n      eq\n      tag_8\n      jumpi\n      dup1\n      0x70a08231\n      eq\n      tag_9\n      jumpi\n      dup1\n      0x715018a6\n      eq\n      tag_10\n      jumpi\n      jump(tag_2)\n    tag_21:\n      dup1\n      0x06fdde03\n      eq\n      tag_3\n      jumpi\n      dup1\n      0x095ea7b3\n      eq\n      tag_4\n      jumpi\n      dup1\n      0x18160ddd\n      eq\n      tag_5\n      jumpi\n      dup1\n      0x23b872dd\n      eq\n      tag_6\n      jumpi\n    tag_2:\n      0x00\n      dup1\n      revert\n        /* \"contracts/BEP20.sol\":1260:1352  function name() public view override returns (string memory) {... */\n    tag_3:\n      tag_22\n      tag_23\n      jump\t// in\n    tag_22:\n      mload(0x40)\n      tag_24\n      swap2\n      swap1\n      tag_25\n      jump\t// in\n    tag_24:\n      mload(0x40)\n      dup1\n      swap2\n      sub\n      swap1\n      return\n        /* \"contracts/BEP20.sol\":2820:3013  function approve(address spender, uint256 amount)... */\n    tag_4:\n      tag_26\n      0x04\n      dup1\n      calldatasize\n      sub\n      dup2\n      add\n      swap1\n      tag_27\n      swap2\n      swap1\n      tag_28\n      jump\t// in\n    tag_27:\n      tag_29\n      jump\t// in\n    tag_26:\n      mload(0x40)\n      tag_30\n      swap2\n      swap1\n      tag_31\n      jump\t// in\n    tag_30:\n      mload(0x40)\n      dup1\n      swap2\n      sub\n      swap1\n      return\n        /* \"contracts/BEP20.sol\":1736:1836  function totalSupply() public view override returns (uint256) {... */\n    tag_5:\n      tag_32\n      tag_33\n      jump\t// in\n    tag_32:\n      mload(0x40)\n      tag_34\n      swap2\n      swap1\n      tag_35\n      jump\t// in\n    tag_34:\n      mload(0x40)\n      dup1\n      swap2\n      sub\n      swap1\n      return\n        /* \"contracts/BEP20.sol\":3484:3930  function transferFrom(... */\n    tag_6:\n      tag_36\n      0x04\n      dup1\n      calldatasize\n      sub\n      dup2\n      add\n      swap1\n      tag_37\n      swap2\n      swap1\n      tag_38\n      jump\t// in\n    tag_37:\n      tag_39\n      jump\t// in\n    tag_36:\n      mload(0x40)\n      tag_40\n      swap2\n      swap1\n      tag_31\n      jump\t// in\n    tag_40:\n      mload(0x40)\n      dup1\n      swap2\n      sub\n      swap1\n      return\n        /* \"contracts/BEP20.sol\":1419:1511  function decimals() public view override returns (uint8) {... */\n    tag_7:\n      tag_41\n      tag_42\n      jump\t// in\n    tag_41:\n      mload(0x40)\n      tag_43\n      swap2\n      swap1\n      tag_44\n      jump\t// in\n    tag_43:\n      mload(0x40)\n      dup1\n      swap2\n      sub\n      swap1\n      return\n        /* \"contracts/BEP20.sol\":4338:4621  function increaseAllowance(address spender, uint256 addedValue)... */\n    tag_8:\n      tag_45\n      0x04\n      dup1\n      calldatasize\n      sub\n      dup2\n      add\n      swap1\n      tag_46\n      swap2\n      swap1\n      tag_28\n      jump\t// in\n    tag_46:\n      tag_47\n      jump\t// in\n    tag_45:\n      mload(0x40)\n      tag_48\n      swap2\n      swap1\n      tag_31\n      jump\t// in\n    tag_48:\n      mload(0x40)\n      dup1\n      swap2\n      sub\n      swap1\n      return\n        /* \"contracts/BEP20.sol\":1898:2017  function balanceOf(address account) public view override returns (uint256) {... */\n    tag_9:\n      tag_49\n      0x04\n      dup1\n      calldatasize\n      sub\n      dup2\n      add\n      swap1\n      tag_50\n      swap2\n      swap1\n      tag_51\n      jump\t// in\n    tag_50:\n      tag_52\n      jump\t// in\n    tag_49:\n      mload(0x40)\n      tag_53\n      swap2\n      swap1\n      tag_35\n      jump\t// in\n    tag_53:\n      mload(0x40)\n      dup1\n      swap2\n      sub\n      swap1\n      return\n        /* \"contracts/access/Ownable.sol\":1657:1751  function renounceOwnership() public virtual onlyOwner {... */\n    tag_10:\n      tag_54\n      tag_55\n      jump\t// in\n    tag_54:\n      stop\n        /* \"contracts/BEP20.sol\":1103:1197  function getOwner() external view override returns (address) {... */\n    tag_11:\n      tag_56\n      tag_57\n      jump\t// in\n    tag_56:\n      mload(0x40)\n      tag_58\n      swap2\n      swap1\n      tag_59\n      jump\t// in\n    tag_58:\n      mload(0x40)\n      dup1\n      swap2\n      sub\n      swap1\n      return\n        /* \"contracts/access/Ownable.sol\":1006:1093  function owner() public view virtual returns (address) {... */\n    tag_12:\n      tag_60\n      tag_61\n      jump\t// in\n    tag_60:\n      mload(0x40)\n      tag_62\n      swap2\n      swap1\n      tag_59\n      jump\t// in\n    tag_62:\n      mload(0x40)\n      dup1\n      swap2\n      sub\n      swap1\n      return\n        /* \"contracts/BEP20.sol\":1576:1672  function symbol() public view override returns (string memory) {... */\n    tag_13:\n      tag_63\n      tag_64\n      jump\t// in\n    tag_63:\n      mload(0x40)\n      tag_65\n      swap2\n      swap1\n      tag_25\n      jump\t// in\n    tag_65:\n      mload(0x40)\n      dup1\n      swap2\n      sub\n      swap1\n      return\n        /* \"contracts/BEP20.sol\":5724:5854  function mint(uint256 amount) public onlyOwner returns (bool) {... */\n    tag_14:\n      tag_66\n      0x04\n      dup1\n      calldatasize\n      sub\n      dup2\n      add\n      swap1\n      tag_67\n      swap2\n      swap1\n      tag_68\n      jump\t// in\n    tag_67:\n      tag_69\n      jump\t// in\n    tag_66:\n      mload(0x40)\n      tag_70\n      swap2\n      swap1\n      tag_31\n      jump\t// in\n    tag_70:\n      mload(0x40)\n      dup1\n      swap2\n      sub\n      swap1\n      return\n        /* \"contracts/BEP20.sol\":5123:5506  function decreaseAllowance(address spender, uint256 subtractedValue)... */\n    tag_15:\n      tag_71\n      0x04\n      dup1\n      calldatasize\n      sub\n      dup2\n      add\n      swap1\n      tag_72\n      swap2\n      swap1\n      tag_28\n      jump\t// in\n    tag_72:\n      tag_73\n      jump\t// in\n    tag_71:\n      mload(0x40)\n      tag_74\n      swap2\n      swap1\n      tag_31\n      jump\t// in\n    tag_74:\n      mload(0x40)\n      dup1\n      swap2\n      sub\n      swap1\n      return\n        /* \"contracts/BEP20.sol\":2229:2428  function transfer(address recipient, uint256 amount)... */\n    tag_16:\n      tag_75\n      0x04\n      dup1\n      calldatasize\n      sub\n      dup2\n      add\n      swap1\n      tag_76\n      swap2\n      swap1\n      tag_28\n      jump\t// in\n    tag_76:\n      tag_77\n      jump\t// in\n    tag_75:\n      mload(0x40)\n      tag_78\n      swap2\n      swap1\n      tag_31\n      jump\t// in\n    tag_78:\n      mload(0x40)\n      dup1\n      swap2\n      sub\n      swap1\n      return\n        /* \"contracts/BEP20.sol\":2490:2674  function allowance(address owner, address spender)... */\n    tag_17:\n      tag_79\n      0x04\n      dup1\n      calldatasize\n      sub\n      dup2\n      add\n      swap1\n      tag_80\n      swap2\n      swap1\n      tag_81\n      jump\t// in\n    tag_80:\n      tag_82\n      jump\t// in\n    tag_79:\n      mload(0x40)\n      tag_83\n      swap2\n      swap1\n      tag_35\n      jump\t// in\n    tag_83:\n      mload(0x40)\n      dup1\n      swap2\n      sub\n      swap1\n      return\n        /* \"contracts/access/Ownable.sol\":1906:2098  function transferOwnership(address newOwner) public virtual onlyOwner {... */\n    tag_18:\n      tag_84\n      0x04\n      dup1\n      calldatasize\n      sub\n      dup2\n      add\n      swap1\n      tag_85\n      swap2\n      swap1\n      tag_51\n      jump\t// in\n    tag_85:\n      tag_86\n      jump\t// in\n    tag_84:\n      stop\n        /* \"contracts/BEP20.sol\":1260:1352  function name() public view override returns (string memory) {... */\n    tag_23:\n        /* \"contracts/BEP20.sol\":1306:1319  string memory */\n      0x60\n        /* \"contracts/BEP20.sol\":1339:1344  _name */\n      0x06\n        /* \"contracts/BEP20.sol\":1332:1344  return _name */\n      dup1\n      sload\n      tag_88\n      swap1\n      tag_89\n      jump\t// in\n    tag_88:\n      dup1\n      0x1f\n      add\n      0x20\n      dup1\n      swap2\n      div\n      mul\n      0x20\n      add\n      mload(0x40)\n      swap1\n      dup2\n      add\n      0x40\n      mstore\n      dup1\n      swap3\n      swap2\n      swap1\n      dup2\n      dup2\n      mstore\n      0x20\n      add\n      dup3\n      dup1\n      sload\n      tag_90\n      swap1\n      tag_89\n      jump\t// in\n    tag_90:\n      dup1\n      iszero\n      tag_91\n      jumpi\n      dup1\n      0x1f\n      lt\n      tag_92\n      jumpi\n      0x0100\n      dup1\n      dup4\n      sload\n      div\n      mul\n      dup4\n      mstore\n      swap2\n      0x20\n      add\n      swap2\n      jump(tag_91)\n    tag_92:\n      dup3\n      add\n      swap2\n      swap1\n      0x00\n      mstore\n      keccak256(0x00, 0x20)\n      swap1\n    tag_93:\n      dup2\n      sload\n      dup2\n      mstore\n      swap1\n      0x01\n      add\n      swap1\n      0x20\n      add\n      dup1\n      dup4\n      gt\n      tag_93\n      jumpi\n      dup3\n      swap1\n      sub\n      0x1f\n      and\n      dup3\n      add\n      swap2\n    tag_91:\n      pop\n      pop\n      pop\n      pop\n      pop\n      swap1\n      pop\n        /* \"contracts/BEP20.sol\":1260:1352  function name() public view override returns (string memory) {... */\n      swap1\n      jump\t// out\n        /* \"contracts/BEP20.sol\":2820:3013  function approve(address spender, uint256 amount)... */\n    tag_29:\n        /* \"contracts/BEP20.sol\":2922:2926  bool */\n      0x00\n        /* \"contracts/BEP20.sol\":2944:2983  _approve(_msgSender(), spender, amount) */\n      tag_95\n        /* \"contracts/BEP20.sol\":2953:2965  _msgSender() */\n      tag_96\n        /* \"contracts/BEP20.sol\":2953:2963  _msgSender */\n      tag_97\n        /* \"contracts/BEP20.sol\":2953:2965  _msgSender() */\n      jump\t// in\n    tag_96:\n        /* \"contracts/BEP20.sol\":2967:2974  spender */\n      dup5\n        /* \"contracts/BEP20.sol\":2976:2982  amount */\n      dup5\n        /* \"contracts/BEP20.sol\":2944:2952  _approve */\n      tag_98\n        /* \"contracts/BEP20.sol\":2944:2983  _approve(_msgSender(), spender, amount) */\n      jump\t// in\n    tag_95:\n        /* \"contracts/BEP20.sol\":3001:3005  true */\n      0x01\n        /* \"contracts/BEP20.sol\":2994:3005  return true */\n      swap1\n      pop\n        /* \"contracts/BEP20.sol\":2820:3013  function approve(address spender, uint256 amount)... */\n      swap3\n      swap2\n      pop\n      pop\n      jump\t// out\n        /* \"contracts/BEP20.sol\":1736:1836  function totalSupply() public view override returns (uint256) {... */\n    tag_33:\n        /* \"contracts/BEP20.sol\":1789:1796  uint256 */\n      0x00\n        /* \"contracts/BEP20.sol\":1816:1828  _totalSupply */\n      sload(0x03)\n        /* \"contracts/BEP20.sol\":1809:1828  return _totalSupply */\n      swap1\n      pop\n        /* \"contracts/BEP20.sol\":1736:1836  function totalSupply() public view override returns (uint256) {... */\n      swap1\n      jump\t// out\n        /* \"contracts/BEP20.sol\":3484:3930  function transferFrom(... */\n    tag_39:\n        /* \"contracts/BEP20.sol\":3616:3620  bool */\n      0x00\n        /* \"contracts/BEP20.sol\":3633:3669  _transfer(sender, recipient, amount) */\n      tag_101\n        /* \"contracts/BEP20.sol\":3643:3649  sender */\n      dup5\n        /* \"contracts/BEP20.sol\":3651:3660  recipient */\n      dup5\n        /* \"contracts/BEP20.sol\":3662:3668  amount */\n      dup5\n        /* \"contracts/BEP20.sol\":3633:3642  _transfer */\n      tag_102\n        /* \"contracts/BEP20.sol\":3633:3669  _transfer(sender, recipient, amount) */\n      jump\t// in\n    tag_101:\n        /* \"contracts/BEP20.sol\":3680:3900  _approve(... */\n      tag_103\n        /* \"contracts/BEP20.sol\":3703:3709  sender */\n      dup5\n        /* \"contracts/BEP20.sol\":3724:3736  _msgSender() */\n      tag_104\n        /* \"contracts/BEP20.sol\":3724:3734  _msgSender */\n      tag_97\n        /* \"contracts/BEP20.sol\":3724:3736  _msgSender() */\n      jump\t// in\n    tag_104:\n        /* \"contracts/BEP20.sol\":3751:3889  _allowances[sender][_msgSender()].sub(... */\n      tag_105\n        /* \"contracts/BEP20.sol\":3807:3813  amount */\n      dup6\n        /* \"contracts/BEP20.sol\":3751:3889  _allowances[sender][_msgSender()].sub(... */\n      mload(0x40)\n      dup1\n      0x60\n      add\n      0x40\n      mstore\n      dup1\n      0x28\n      dup2\n      mstore\n      0x20\n      add\n      data_4f3506f4ba71c79c3cbd442a3afeb30e9b27af2d84e116a4385b34e267d2287e\n      0x28\n      swap2\n      codecopy\n        /* \"contracts/BEP20.sol\":3751:3762  _allowances */\n      0x02\n        /* \"contracts/BEP20.sol\":3751:3770  _allowances[sender] */\n      0x00\n        /* \"contracts/BEP20.sol\":3763:3769  sender */\n      dup12\n        /* \"contracts/BEP20.sol\":3751:3770  _allowances[sender] */\n      0xffffffffffffffffffffffffffffffffffffffff\n      and\n      0xffffffffffffffffffffffffffffffffffffffff\n      and\n      dup2\n      mstore\n      0x20\n      add\n      swap1\n      dup2\n      mstore\n      0x20\n      add\n      0x00\n      keccak256\n        /* \"contracts/BEP20.sol\":3751:3784  _allowances[sender][_msgSender()] */\n      0x00\n        /* \"contracts/BEP20.sol\":3771:3783  _msgSender() */\n      tag_106\n        /* \"contracts/BEP20.sol\":3771:3781  _msgSender */\n      tag_97\n        /* \"contracts/BEP20.sol\":3771:3783  _msgSender() */\n      jump\t// in\n    tag_106:\n        /* \"contracts/BEP20.sol\":3751:3784  _allowances[sender][_msgSender()] */\n      0xffffffffffffffffffffffffffffffffffffffff\n      and\n      0xffffffffffffffffffffffffffffffffffffffff\n      and\n      dup2\n      mstore\n      0x20\n      add\n      swap1\n      dup2\n      mstore\n      0x20\n      add\n      0x00\n      keccak256\n      sload\n        /* \"contracts/BEP20.sol\":3751:3788  _allowances[sender][_msgSender()].sub */\n      tag_107\n      swap1\n        /* \"contracts/BEP20.sol\":3751:3889  _allowances[sender][_msgSender()].sub(... */\n      swap3\n      swap2\n      swap1\n      0xffffffff\n      and\n      jump\t// in\n    tag_105:\n        /* \"contracts/BEP20.sol\":3680:3688  _approve */\n      tag_98\n        /* \"contracts/BEP20.sol\":3680:3900  _approve(... */\n      jump\t// in\n    tag_103:\n        /* \"contracts/BEP20.sol\":3918:3922  true */\n      0x01\n        /* \"contracts/BEP20.sol\":3911:3922  return true */\n      swap1\n      pop\n        /* \"contracts/BEP20.sol\":3484:3930  function transferFrom(... */\n      swap4\n      swap3\n      pop\n      pop\n      pop\n      jump\t// out\n        /* \"contracts/BEP20.sol\":1419:1511  function decimals() public view override returns (uint8) {... */\n    tag_42:\n        /* \"contracts/BEP20.sol\":1469:1474  uint8 */\n      0x00\n        /* \"contracts/BEP20.sol\":1494:1503  _decimals */\n      0x04\n      0x00\n      swap1\n      sload\n      swap1\n      0x0100\n      exp\n      swap1\n      div\n      0xff\n      and\n        /* \"contracts/BEP20.sol\":1487:1503  return _decimals */\n      swap1\n      pop\n        /* \"contracts/BEP20.sol\":1419:1511  function decimals() public view override returns (uint8) {... */\n      swap1\n      jump\t// out\n        /* \"contracts/BEP20.sol\":4338:4621  function increaseAllowance(address spender, uint256 addedValue)... */\n    tag_47:\n        /* \"contracts/BEP20.sol\":4436:4440  bool */\n      0x00\n        /* \"contracts/BEP20.sol\":4458:4591  _approve(... */\n      tag_110\n        /* \"contracts/BEP20.sol\":4481:4493  _msgSender() */\n      tag_111\n        /* \"contracts/BEP20.sol\":4481:4491  _msgSender */\n      tag_97\n        /* \"contracts/BEP20.sol\":4481:4493  _msgSender() */\n      jump\t// in\n    tag_111:\n        /* \"contracts/BEP20.sol\":4508:4515  spender */\n      dup5\n        /* \"contracts/BEP20.sol\":4530:4580  _allowances[_msgSender()][spender].add(addedValue) */\n      tag_112\n        /* \"contracts/BEP20.sol\":4569:4579  addedValue */\n      dup6\n        /* \"contracts/BEP20.sol\":4530:4541  _allowances */\n      0x02\n        /* \"contracts/BEP20.sol\":4530:4555  _allowances[_msgSender()] */\n      0x00\n        /* \"contracts/BEP20.sol\":4542:4554  _msgSender() */\n      tag_113\n        /* \"contracts/BEP20.sol\":4542:4552  _msgSender */\n      tag_97\n        /* \"contracts/BEP20.sol\":4542:4554  _msgSender() */\n      jump\t// in\n    tag_113:\n        /* \"contracts/BEP20.sol\":4530:4555  _allowances[_msgSender()] */\n      0xffffffffffffffffffffffffffffffffffffffff\n      and\n      0xffffffffffffffffffffffffffffffffffffffff\n      and\n      dup2\n      mstore\n      0x20\n      add\n      swap1\n      dup2\n      mstore\n      0x20\n      add\n      0x00\n      keccak256\n        /* \"contracts/BEP20.sol\":4530:4564  _allowances[_msgSender()][spender] */\n      0x00\n        /* \"contracts/BEP20.sol\":4556:4563  spender */\n      dup10\n        /* \"contracts/BEP20.sol\":4530:4564  _allowances[_msgSender()][spender] */\n      0xffffffffffffffffffffffffffffffffffffffff\n      and\n      0xffffffffffffffffffffffffffffffffffffffff\n      and\n      dup2\n      mstore\n      0x20\n      add\n      swap1\n      dup2\n      mstore\n      0x20\n      add\n      0x00\n      keccak256\n      sload\n        /* \"contracts/BEP20.sol\":4530:4568  _allowances[_msgSender()][spender].add */\n      tag_114\n      swap1\n        /* \"contracts/BEP20.sol\":4530:4580  _allowances[_msgSender()][spender].add(addedValue) */\n      swap2\n      swap1\n      0xffffffff\n      and\n      jump\t// in\n    tag_112:\n        /* \"contracts/BEP20.sol\":4458:4466  _approve */\n      tag_98\n        /* \"contracts/BEP20.sol\":4458:4591  _approve(... */\n      jump\t// in\n    tag_110:\n        /* \"contracts/BEP20.sol\":4609:4613  true */\n      0x01\n        /* \"contracts/BEP20.sol\":4602:4613  return true */\n      swap1\n      pop\n        /* \"contracts/BEP20.sol\":4338:4621  function increaseAllowance(address spender, uint256 addedValue)... */\n      swap3\n      swap2\n      pop\n      pop\n      jump\t// out\n        /* \"contracts/BEP20.sol\":1898:2017  function balanceOf(address account) public view override returns (uint256) {... */\n    tag_52:\n        /* \"contracts/BEP20.sol\":1964:1971  uint256 */\n      0x00\n        /* \"contracts/BEP20.sol\":1991:2000  _balances */\n      0x01\n        /* \"contracts/BEP20.sol\":1991:2009  _balances[account] */\n      0x00\n        /* \"contracts/BEP20.sol\":2001:2008  account */\n      dup4\n        /* \"contracts/BEP20.sol\":1991:2009  _balances[account] */\n      0xffffffffffffffffffffffffffffffffffffffff\n      and\n      0xffffffffffffffffffffffffffffffffffffffff\n      and\n      dup2\n      mstore\n      0x20\n      add\n      swap1\n      dup2\n      mstore\n      0x20\n      add\n      0x00\n      keccak256\n      sload\n        /* \"contracts/BEP20.sol\":1984:2009  return _balances[account] */\n      swap1\n      pop\n        /* \"contracts/BEP20.sol\":1898:2017  function balanceOf(address account) public view override returns (uint256) {... */\n      swap2\n      swap1\n      pop\n      jump\t// out\n        /* \"contracts/access/Ownable.sol\":1657:1751  function renounceOwnership() public virtual onlyOwner {... */\n    tag_55:\n        /* \"contracts/access/Ownable.sol\":1237:1249  _msgSender() */\n      tag_117\n        /* \"contracts/access/Ownable.sol\":1237:1247  _msgSender */\n      tag_97\n        /* \"contracts/access/Ownable.sol\":1237:1249  _msgSender() */\n      jump\t// in\n    tag_117:\n        /* \"contracts/access/Ownable.sol\":1226:1249  owner() == _msgSender() */\n      0xffffffffffffffffffffffffffffffffffffffff\n      and\n        /* \"contracts/access/Ownable.sol\":1226:1233  owner() */\n      tag_118\n        /* \"contracts/access/Ownable.sol\":1226:1231  owner */\n      tag_61\n        /* \"contracts/access/Ownable.sol\":1226:1233  owner() */\n      jump\t// in\n    tag_118:\n        /* \"contracts/access/Ownable.sol\":1226:1249  owner() == _msgSender() */\n      0xffffffffffffffffffffffffffffffffffffffff\n      and\n      eq\n        /* \"contracts/access/Ownable.sol\":1218:1286  require(owner() == _msgSender(), \"Ownable: caller is not the owner\") */\n      tag_119\n      jumpi\n      mload(0x40)\n      0x08c379a000000000000000000000000000000000000000000000000000000000\n      dup2\n      mstore\n      0x04\n      add\n      tag_120\n      swap1\n      tag_121\n      jump\t// in\n    tag_120:\n      mload(0x40)\n      dup1\n      swap2\n      sub\n      swap1\n      revert\n    tag_119:\n        /* \"contracts/access/Ownable.sol\":1722:1743  _setOwner(address(0)) */\n      tag_123\n        /* \"contracts/access/Ownable.sol\":1740:1741  0 */\n      0x00\n        /* \"contracts/access/Ownable.sol\":1722:1731  _setOwner */\n      tag_124\n        /* \"contracts/access/Ownable.sol\":1722:1743  _setOwner(address(0)) */\n      jump\t// in\n    tag_123:\n        /* \"contracts/access/Ownable.sol\":1657:1751  function renounceOwnership() public virtual onlyOwner {... */\n      jump\t// out\n        /* \"contracts/BEP20.sol\":1103:1197  function getOwner() external view override returns (address) {... */\n    tag_57:\n        /* \"contracts/BEP20.sol\":1155:1162  address */\n      0x00\n        /* \"contracts/BEP20.sol\":1182:1189  owner() */\n      tag_126\n        /* \"contracts/BEP20.sol\":1182:1187  owner */\n      tag_61\n        /* \"contracts/BEP20.sol\":1182:1189  owner() */\n      jump\t// in\n    tag_126:\n        /* \"contracts/BEP20.sol\":1175:1189  return owner() */\n      swap1\n      pop\n        /* \"contracts/BEP20.sol\":1103:1197  function getOwner() external view override returns (address) {... */\n      swap1\n      jump\t// out\n        /* \"contracts/access/Ownable.sol\":1006:1093  function owner() public view virtual returns (address) {... */\n    tag_61:\n        /* \"contracts/access/Ownable.sol\":1052:1059  address */\n      0x00\n        /* \"contracts/access/Ownable.sol\":1079:1085  _owner */\n      dup1\n      0x00\n      swap1\n      sload\n      swap1\n      0x0100\n      exp\n      swap1\n      div\n      0xffffffffffffffffffffffffffffffffffffffff\n      and\n        /* \"contracts/access/Ownable.sol\":1072:1085  return _owner */\n      swap1\n      pop\n        /* \"contracts/access/Ownable.sol\":1006:1093  function owner() public view virtual returns (address) {... */\n      swap1\n      jump\t// out\n        /* \"contracts/BEP20.sol\":1576:1672  function symbol() public view override returns (string memory) {... */\n    tag_64:\n        /* \"contracts/BEP20.sol\":1624:1637  string memory */\n      0x60\n        /* \"contracts/BEP20.sol\":1657:1664  _symbol */\n      0x05\n        /* \"contracts/BEP20.sol\":1650:1664  return _symbol */\n      dup1\n      sload\n      tag_129\n      swap1\n      tag_89\n      jump\t// in\n    tag_129:\n      dup1\n      0x1f\n      add\n      0x20\n      dup1\n      swap2\n      div\n      mul\n      0x20\n      add\n      mload(0x40)\n      swap1\n      dup2\n      add\n      0x40\n      mstore\n      dup1\n      swap3\n      swap2\n      swap1\n      dup2\n      dup2\n      mstore\n      0x20\n      add\n      dup3\n      dup1\n      sload\n      tag_130\n      swap1\n      tag_89\n      jump\t// in\n    tag_130:\n      dup1\n      iszero\n      tag_131\n      jumpi\n      dup1\n      0x1f\n      lt\n      tag_132\n      jumpi\n      0x0100\n      dup1\n      dup4\n      sload\n      div\n      mul\n      dup4\n      mstore\n      swap2\n      0x20\n      add\n      swap2\n      jump(tag_131)\n    tag_132:\n      dup3\n      add\n      swap2\n      swap1\n      0x00\n      mstore\n      keccak256(0x00, 0x20)\n      swap1\n    tag_133:\n      dup2\n      sload\n      dup2\n      mstore\n      swap1\n      0x01\n      add\n      swap1\n      0x20\n      add\n      dup1\n      dup4\n      gt\n      tag_133\n      jumpi\n      dup3\n      swap1\n      sub\n      0x1f\n      and\n      dup3\n      add\n      swap2\n    tag_131:\n      pop\n      pop\n      pop\n      pop\n      pop\n      swap1\n      pop\n        /* \"contracts/BEP20.sol\":1576:1672  function symbol() public view override returns (string memory) {... */\n      swap1\n      jump\t// out\n        /* \"contracts/BEP20.sol\":5724:5854  function mint(uint256 amount) public onlyOwner returns (bool) {... */\n    tag_69:\n        /* \"contracts/BEP20.sol\":5780:5784  bool */\n      0x00\n        /* \"contracts/access/Ownable.sol\":1237:1249  _msgSender() */\n      tag_135\n        /* \"contracts/access/Ownable.sol\":1237:1247  _msgSender */\n      tag_97\n        /* \"contracts/access/Ownable.sol\":1237:1249  _msgSender() */\n      jump\t// in\n    tag_135:\n        /* \"contracts/access/Ownable.sol\":1226:1249  owner() == _msgSender() */\n      0xffffffffffffffffffffffffffffffffffffffff\n      and\n        /* \"contracts/access/Ownable.sol\":1226:1233  owner() */\n      tag_136\n        /* \"contracts/access/Ownable.sol\":1226:1231  owner */\n      tag_61\n        /* \"contracts/access/Ownable.sol\":1226:1233  owner() */\n      jump\t// in\n    tag_136:\n        /* \"contracts/access/Ownable.sol\":1226:1249  owner() == _msgSender() */\n      0xffffffffffffffffffffffffffffffffffffffff\n      and\n      eq\n        /* \"contracts/access/Ownable.sol\":1218:1286  require(owner() == _msgSender(), \"Ownable: caller is not the owner\") */\n      tag_137\n      jumpi\n      mload(0x40)\n      0x08c379a000000000000000000000000000000000000000000000000000000000\n      dup2\n      mstore\n      0x04\n      add\n      tag_138\n      swap1\n      tag_121\n      jump\t// in\n    tag_138:\n      mload(0x40)\n      dup1\n      swap2\n      sub\n      swap1\n      revert\n    tag_137:\n        /* \"contracts/BEP20.sol\":5797:5824  _mint(_msgSender(), amount) */\n      tag_140\n        /* \"contracts/BEP20.sol\":5803:5815  _msgSender() */\n      tag_141\n        /* \"contracts/BEP20.sol\":5803:5813  _msgSender */\n      tag_97\n        /* \"contracts/BEP20.sol\":5803:5815  _msgSender() */\n      jump\t// in\n    tag_141:\n        /* \"contracts/BEP20.sol\":5817:5823  amount */\n      dup4\n        /* \"contracts/BEP20.sol\":5797:5802  _mint */\n      tag_142\n        /* \"contracts/BEP20.sol\":5797:5824  _mint(_msgSender(), amount) */\n      jump\t// in\n    tag_140:\n        /* \"contracts/BEP20.sol\":5842:5846  true */\n      0x01\n        /* \"contracts/BEP20.sol\":5835:5846  return true */\n      swap1\n      pop\n        /* \"contracts/BEP20.sol\":5724:5854  function mint(uint256 amount) public onlyOwner returns (bool) {... */\n      swap2\n      swap1\n      pop\n      jump\t// out\n        /* \"contracts/BEP20.sol\":5123:5506  function decreaseAllowance(address spender, uint256 subtractedValue)... */\n    tag_73:\n        /* \"contracts/BEP20.sol\":5226:5230  bool */\n      0x00\n        /* \"contracts/BEP20.sol\":5248:5476  _approve(... */\n      tag_144\n        /* \"contracts/BEP20.sol\":5271:5283  _msgSender() */\n      tag_145\n        /* \"contracts/BEP20.sol\":5271:5281  _msgSender */\n      tag_97\n        /* \"contracts/BEP20.sol\":5271:5283  _msgSender() */\n      jump\t// in\n    tag_145:\n        /* \"contracts/BEP20.sol\":5298:5305  spender */\n      dup5\n        /* \"contracts/BEP20.sol\":5320:5465  _allowances[_msgSender()][spender].sub(... */\n      tag_146\n        /* \"contracts/BEP20.sol\":5377:5392  subtractedValue */\n      dup6\n        /* \"contracts/BEP20.sol\":5320:5465  _allowances[_msgSender()][spender].sub(... */\n      mload(0x40)\n      dup1\n      0x60\n      add\n      0x40\n      mstore\n      dup1\n      0x25\n      dup2\n      mstore\n      0x20\n      add\n      data_b7060b3538dcd3ddc8a941c91636a8115a1aa46914747fd9809d543bbb46cd22\n      0x25\n      swap2\n      codecopy\n        /* \"contracts/BEP20.sol\":5320:5331  _allowances */\n      0x02\n        /* \"contracts/BEP20.sol\":5320:5345  _allowances[_msgSender()] */\n      0x00\n        /* \"contracts/BEP20.sol\":5332:5344  _msgSender() */\n      tag_147\n        /* \"contracts/BEP20.sol\":5332:5342  _msgSender */\n      tag_97\n        /* \"contracts/BEP20.sol\":5332:5344  _msgSender() */\n      jump\t// in\n    tag_147:\n        /* \"contracts/BEP20.sol\":5320:5345  _allowances[_msgSender()] */\n      0xffffffffffffffffffffffffffffffffffffffff\n      and\n      0xffffffffffffffffffffffffffffffffffffffff\n      and\n      dup2\n      mstore\n      0x20\n      add\n      swap1\n      dup2\n      mstore\n      0x20\n      add\n      0x00\n      keccak256\n        /* \"contracts/BEP20.sol\":5320:5354  _allowances[_msgSender()][spender] */\n      0x00\n        /* \"contracts/BEP20.sol\":5346:5353  spender */\n      dup11\n        /* \"contracts/BEP20.sol\":5320:5354  _allowances[_msgSender()][spender] */\n      0xffffffffffffffffffffffffffffffffffffffff\n      and\n      0xffffffffffffffffffffffffffffffffffffffff\n      and\n      dup2\n      mstore\n      0x20\n      add\n      swap1\n      dup2\n      mstore\n      0x20\n      add\n      0x00\n      keccak256\n      sload\n        /* \"contracts/BEP20.sol\":5320:5358  _allowances[_msgSender()][spender].sub */\n      tag_107\n      swap1\n        /* \"contracts/BEP20.sol\":5320:5465  _allowances[_msgSender()][spender].sub(... */\n      swap3\n      swap2\n      swap1\n      0xffffffff\n      and\n      jump\t// in\n    tag_146:\n        /* \"contracts/BEP20.sol\":5248:5256  _approve */\n      tag_98\n        /* \"contracts/BEP20.sol\":5248:5476  _approve(... */\n      jump\t// in\n    tag_144:\n        /* \"contracts/BEP20.sol\":5494:5498  true */\n      0x01\n        /* \"contracts/BEP20.sol\":5487:5498  return true */\n      swap1\n      pop\n        /* \"contracts/BEP20.sol\":5123:5506  function decreaseAllowance(address spender, uint256 subtractedValue)... */\n      swap3\n      swap2\n      pop\n      pop\n      jump\t// out\n        /* \"contracts/BEP20.sol\":2229:2428  function transfer(address recipient, uint256 amount)... */\n    tag_77:\n        /* \"contracts/BEP20.sol\":2334:2338  bool */\n      0x00\n        /* \"contracts/BEP20.sol\":2356:2398  _transfer(_msgSender(), recipient, amount) */\n      tag_149\n        /* \"contracts/BEP20.sol\":2366:2378  _msgSender() */\n      tag_150\n        /* \"contracts/BEP20.sol\":2366:2376  _msgSender */\n      tag_97\n        /* \"contracts/BEP20.sol\":2366:2378  _msgSender() */\n      jump\t// in\n    tag_150:\n        /* \"contracts/BEP20.sol\":2380:2389  recipient */\n      dup5\n        /* \"contracts/BEP20.sol\":2391:2397  amount */\n      dup5\n        /* \"contracts/BEP20.sol\":2356:2365  _transfer */\n      tag_102\n        /* \"contracts/BEP20.sol\":2356:2398  _transfer(_msgSender(), recipient, amount) */\n      jump\t// in\n    tag_149:\n        /* \"contracts/BEP20.sol\":2416:2420  true */\n      0x01\n        /* \"contracts/BEP20.sol\":2409:2420  return true */\n      swap1\n      pop\n        /* \"contracts/BEP20.sol\":2229:2428  function transfer(address recipient, uint256 amount)... */\n      swap3\n      swap2\n      pop\n      pop\n      jump\t// out\n        /* \"contracts/BEP20.sol\":2490:2674  function allowance(address owner, address spender)... */\n    tag_82:\n        /* \"contracts/BEP20.sol\":2607:2614  uint256 */\n      0x00\n        /* \"contracts/BEP20.sol\":2639:2650  _allowances */\n      0x02\n        /* \"contracts/BEP20.sol\":2639:2657  _allowances[owner] */\n      0x00\n        /* \"contracts/BEP20.sol\":2651:2656  owner */\n      dup5\n        /* \"contracts/BEP20.sol\":2639:2657  _allowances[owner] */\n      0xffffffffffffffffffffffffffffffffffffffff\n      and\n      0xffffffffffffffffffffffffffffffffffffffff\n      and\n      dup2\n      mstore\n      0x20\n      add\n      swap1\n      dup2\n      mstore\n      0x20\n      add\n      0x00\n      keccak256\n        /* \"contracts/BEP20.sol\":2639:2666  _allowances[owner][spender] */\n      0x00\n        /* \"contracts/BEP20.sol\":2658:2665  spender */\n      dup4\n        /* \"contracts/BEP20.sol\":2639:2666  _allowances[owner][spender] */\n      0xffffffffffffffffffffffffffffffffffffffff\n      and\n      0xffffffffffffffffffffffffffffffffffffffff\n      and\n      dup2\n      mstore\n      0x20\n      add\n      swap1\n      dup2\n      mstore\n      0x20\n      add\n      0x00\n      keccak256\n      sload\n        /* \"contracts/BEP20.sol\":2632:2666  return _allowances[owner][spender] */\n      swap1\n      pop\n        /* \"contracts/BEP20.sol\":2490:2674  function allowance(address owner, address spender)... */\n      swap3\n      swap2\n      pop\n      pop\n      jump\t// out\n        /* \"contracts/access/Ownable.sol\":1906:2098  function transferOwnership(address newOwner) public virtual onlyOwner {... */\n    tag_86:\n        /* \"contracts/access/Ownable.sol\":1237:1249  _msgSender() */\n      tag_153\n        /* \"contracts/access/Ownable.sol\":1237:1247  _msgSender */\n      tag_97\n        /* \"contracts/access/Ownable.sol\":1237:1249  _msgSender() */\n      jump\t// in\n    tag_153:\n        /* \"contracts/access/Ownable.sol\":1226:1249  owner() == _msgSender() */\n      0xffffffffffffffffffffffffffffffffffffffff\n      and\n        /* \"contracts/access/Ownable.sol\":1226:1233  owner() */\n      tag_154\n        /* \"contracts/access/Ownable.sol\":1226:1231  owner */\n      tag_61\n        /* \"contracts/access/Ownable.sol\":1226:1233  owner() */\n      jump\t// in\n    tag_154:\n        /* \"contracts/access/Ownable.sol\":1226:1249  owner() == _msgSender() */\n      0xffffffffffffffffffffffffffffffffffffffff\n      and\n      eq\n        /* \"contracts/access/Ownable.sol\":1218:1286  require(owner() == _msgSender(), \"Ownable: caller is not the owner\") */\n      tag_155\n      jumpi\n      mload(0x40)\n      0x08c379a000000000000000000000000000000000000000000000000000000000\n      dup2\n      mstore\n      0x04\n      add\n      tag_156\n      swap1\n      tag_121\n      jump\t// in\n    tag_156:\n      mload(0x40)\n      dup1\n      swap2\n      sub\n      swap1\n      revert\n    tag_155:\n        /* \"contracts/access/Ownable.sol\":2015:2016  0 */\n      0x00\n        /* \"contracts/access/Ownable.sol\":1995:2017  newOwner != address(0) */\n      0xffffffffffffffffffffffffffffffffffffffff\n      and\n        /* \"contracts/access/Ownable.sol\":1995:2003  newOwner */\n      dup2\n        /* \"contracts/access/Ownable.sol\":1995:2017  newOwner != address(0) */\n      0xffffffffffffffffffffffffffffffffffffffff\n      and\n      sub\n        /* \"contracts/access/Ownable.sol\":1987:2060  require(newOwner != address(0), \"Ownable: new owner is the zero address\") */\n      tag_158\n      jumpi\n      mload(0x40)\n      0x08c379a000000000000000000000000000000000000000000000000000000000\n      dup2\n      mstore\n      0x04\n      add\n      tag_159\n      swap1\n      tag_160\n      jump\t// in\n    tag_159:\n      mload(0x40)\n      dup1\n      swap2\n      sub\n      swap1\n      revert\n    tag_158:\n        /* \"contracts/access/Ownable.sol\":2071:2090  _setOwner(newOwner) */\n      tag_161\n        /* \"contracts/access/Ownable.sol\":2081:2089  newOwner */\n      dup2\n        /* \"contracts/access/Ownable.sol\":2071:2080  _setOwner */\n      tag_124\n        /* \"contracts/access/Ownable.sol\":2071:2090  _setOwner(newOwner) */\n      jump\t// in\n    tag_161:\n        /* \"contracts/access/Ownable.sol\":1906:2098  function transferOwnership(address newOwner) public virtual onlyOwner {... */\n      pop\n      jump\t// out\n        /* \"contracts/utils/Context.sol\":602:700  function _msgSender() internal view virtual returns (address) {... */\n    tag_97:\n        /* \"contracts/utils/Context.sol\":655:662  address */\n      0x00\n        /* \"contracts/utils/Context.sol\":682:692  msg.sender */\n      caller\n        /* \"contracts/utils/Context.sol\":675:692  return msg.sender */\n      swap1\n      pop\n        /* \"contracts/utils/Context.sol\":602:700  function _msgSender() internal view virtual returns (address) {... */\n      swap1\n      jump\t// out\n        /* \"contracts/BEP20.sol\":8632:9004  function _approve(... */\n    tag_98:\n        /* \"contracts/BEP20.sol\":8777:8778  0 */\n      0x00\n        /* \"contracts/BEP20.sol\":8760:8779  owner != address(0) */\n      0xffffffffffffffffffffffffffffffffffffffff\n      and\n        /* \"contracts/BEP20.sol\":8760:8765  owner */\n      dup4\n        /* \"contracts/BEP20.sol\":8760:8779  owner != address(0) */\n      0xffffffffffffffffffffffffffffffffffffffff\n      and\n      sub\n        /* \"contracts/BEP20.sol\":8752:8820  require(owner != address(0), \"BEP20: approve from the zero address\") */\n      tag_164\n      jumpi\n      mload(0x40)\n      0x08c379a000000000000000000000000000000000000000000000000000000000\n      dup2\n      mstore\n      0x04\n      add\n      tag_165\n      swap1\n      tag_166\n      jump\t// in\n    tag_165:\n      mload(0x40)\n      dup1\n      swap2\n      sub\n      swap1\n      revert\n    tag_164:\n        /* \"contracts/BEP20.sol\":8858:8859  0 */\n      0x00\n        /* \"contracts/BEP20.sol\":8839:8860  spender != address(0) */\n      0xffffffffffffffffffffffffffffffffffffffff\n      and\n        /* \"contracts/BEP20.sol\":8839:8846  spender */\n      dup3\n        /* \"contracts/BEP20.sol\":8839:8860  spender != address(0) */\n      0xffffffffffffffffffffffffffffffffffffffff\n      and\n      sub\n        /* \"contracts/BEP20.sol\":8831:8899  require(spender != address(0), \"BEP20: approve to the zero address\") */\n      tag_167\n      jumpi\n      mload(0x40)\n      0x08c379a000000000000000000000000000000000000000000000000000000000\n      dup2\n      mstore\n      0x04\n      add\n      tag_168\n      swap1\n      tag_169\n      jump\t// in\n    tag_168:\n      mload(0x40)\n      dup1\n      swap2\n      sub\n      swap1\n      revert\n    tag_167:\n        /* \"contracts/BEP20.sol\":8942:8948  amount */\n      dup1\n        /* \"contracts/BEP20.sol\":8912:8923  _allowances */\n      0x02\n        /* \"contracts/BEP20.sol\":8912:8930  _allowances[owner] */\n      0x00\n        /* \"contracts/BEP20.sol\":8924:8929  owner */\n      dup6\n        /* \"contracts/BEP20.sol\":8912:8930  _allowances[owner] */\n      0xffffffffffffffffffffffffffffffffffffffff\n      and\n      0xffffffffffffffffffffffffffffffffffffffff\n      and\n      dup2\n      mstore\n      0x20\n      add\n      swap1\n      dup2\n      mstore\n      0x20\n      add\n      0x00\n      keccak256\n        /* \"contracts/BEP20.sol\":8912:8939  _allowances[owner][spender] */\n      0x00\n        /* \"contracts/BEP20.sol\":8931:8938  spender */\n      dup5\n        /* \"contracts/BEP20.sol\":8912:8939  _allowances[owner][spender] */\n      0xffffffffffffffffffffffffffffffffffffffff\n      and\n      0xffffffffffffffffffffffffffffffffffffffff\n      and\n      dup2\n      mstore\n      0x20\n      add\n      swap1\n      dup2\n      mstore\n      0x20\n      add\n      0x00\n      keccak256\n        /* \"contracts/BEP20.sol\":8912:8948  _allowances[owner][spender] = amount */\n      dup2\n      swap1\n      sstore\n      pop\n        /* \"contracts/BEP20.sol\":8980:8987  spender */\n      dup2\n        /* \"contracts/BEP20.sol\":8964:8996  Approval(owner, spender, amount) */\n      0xffffffffffffffffffffffffffffffffffffffff\n      and\n        /* \"contracts/BEP20.sol\":8973:8978  owner */\n      dup4\n        /* \"contracts/BEP20.sol\":8964:8996  Approval(owner, spender, amount) */\n      0xffffffffffffffffffffffffffffffffffffffff\n      and\n      0x8c5be1e5ebec7d5bd14f71427d1e84f3dd0314c0f7b2291e5b200ac8c7c3b925\n        /* \"contracts/BEP20.sol\":8989:8995  amount */\n      dup4\n        /* \"contracts/BEP20.sol\":8964:8996  Approval(owner, spender, amount) */\n      mload(0x40)\n      tag_170\n      swap2\n      swap1\n      tag_35\n      jump\t// in\n    tag_170:\n      mload(0x40)\n      dup1\n      swap2\n      sub\n      swap1\n      log3\n        /* \"contracts/BEP20.sol\":8632:9004  function _approve(... */\n      pop\n      pop\n      pop\n      jump\t// out\n        /* \"contracts/BEP20.sol\":6344:6886  function _transfer(... */\n    tag_102:\n        /* \"contracts/BEP20.sol\":6494:6495  0 */\n      0x00\n        /* \"contracts/BEP20.sol\":6476:6496  sender != address(0) */\n      0xffffffffffffffffffffffffffffffffffffffff\n      and\n        /* \"contracts/BEP20.sol\":6476:6482  sender */\n      dup4\n        /* \"contracts/BEP20.sol\":6476:6496  sender != address(0) */\n      0xffffffffffffffffffffffffffffffffffffffff\n      and\n      sub\n        /* \"contracts/BEP20.sol\":6468:6538  require(sender != address(0), \"BEP20: transfer from the zero address\") */\n      tag_172\n      jumpi\n      mload(0x40)\n      0x08c379a000000000000000000000000000000000000000000000000000000000\n      dup2\n      mstore\n      0x04\n      add\n      tag_173\n      swap1\n      tag_174\n      jump\t// in\n    tag_173:\n      mload(0x40)\n      dup1\n      swap2\n      sub\n      swap1\n      revert\n    tag_172:\n        /* \"contracts/BEP20.sol\":6578:6579  0 */\n      0x00\n        /* \"contracts/BEP20.sol\":6557:6580  recipient != address(0) */\n      0xffffffffffffffffffffffffffffffffffffffff\n      and\n        /* \"contracts/BEP20.sol\":6557:6566  recipient */\n      dup3\n        /* \"contracts/BEP20.sol\":6557:6580  recipient != address(0) */\n      0xffffffffffffffffffffffffffffffffffffffff\n      and\n      sub\n        /* \"contracts/BEP20.sol\":6549:6620  require(recipient != address(0), \"BEP20: transfer to the zero address\") */\n      tag_175\n      jumpi\n      mload(0x40)\n      0x08c379a000000000000000000000000000000000000000000000000000000000\n      dup2\n      mstore\n      0x04\n      add\n      tag_176\n      swap1\n      tag_177\n      jump\t// in\n    tag_176:\n      mload(0x40)\n      dup1\n      swap2\n      sub\n      swap1\n      revert\n    tag_175:\n        /* \"contracts/BEP20.sol\":6653:6761  _balances[sender].sub(... */\n      tag_178\n        /* \"contracts/BEP20.sol\":6689:6695  amount */\n      dup2\n        /* \"contracts/BEP20.sol\":6653:6761  _balances[sender].sub(... */\n      mload(0x40)\n      dup1\n      0x60\n      add\n      0x40\n      mstore\n      dup1\n      0x26\n      dup2\n      mstore\n      0x20\n      add\n      data_a91efd7a65ef5b4ae4d6568d674798b78a5a89184dd296c100513251c22d3e73\n      0x26\n      swap2\n      codecopy\n        /* \"contracts/BEP20.sol\":6653:6662  _balances */\n      0x01\n        /* \"contracts/BEP20.sol\":6653:6670  _balances[sender] */\n      0x00\n        /* \"contracts/BEP20.sol\":6663:6669  sender */\n      dup8\n        /* \"contracts/BEP20.sol\":6653:6670  _balances[sender] */\n      0xffffffffffffffffffffffffffffffffffffffff\n      and\n      0xffffffffffffffffffffffffffffffffffffffff\n      and\n      dup2\n      mstore\n      0x20\n      add\n      swap1\n      dup2\n      mstore\n      0x20\n      add\n      0x00\n      keccak256\n      sload\n        /* \"contracts/BEP20.sol\":6653:6674  _balances[sender].sub */\n      tag_107\n      swap1\n        /* \"contracts/BEP20.sol\":6653:6761  _balances[sender].sub(... */\n      swap3\n      swap2\n      swap1\n      0xffffffff\n      and\n      jump\t// in\n    tag_178:\n        /* \"contracts/BEP20.sol\":6633:6642  _balances */\n      0x01\n        /* \"contracts/BEP20.sol\":6633:6650  _balances[sender] */\n      0x00\n        /* \"contracts/BEP20.sol\":6643:6649  sender */\n      dup6\n        /* \"contracts/BEP20.sol\":6633:6650  _balances[sender] */\n      0xffffffffffffffffffffffffffffffffffffffff\n      and\n      0xffffffffffffffffffffffffffffffffffffffff\n      and\n      dup2\n      mstore\n      0x20\n      add\n      swap1\n      dup2\n      mstore\n      0x20\n      add\n      0x00\n      keccak256\n        /* \"contracts/BEP20.sol\":6633:6761  _balances[sender] = _balances[sender].sub(... */\n      dup2\n      swap1\n      sstore\n      pop\n        /* \"contracts/BEP20.sol\":6795:6827  _balances[recipient].add(amount) */\n      tag_179\n        /* \"contracts/BEP20.sol\":6820:6826  amount */\n      dup2\n        /* \"contracts/BEP20.sol\":6795:6804  _balances */\n      0x01\n        /* \"contracts/BEP20.sol\":6795:6815  _balances[recipient] */\n      0x00\n        /* \"contracts/BEP20.sol\":6805:6814  recipient */\n      dup6\n        /* \"contracts/BEP20.sol\":6795:6815  _balances[recipient] */\n      0xffffffffffffffffffffffffffffffffffffffff\n      and\n      0xffffffffffffffffffffffffffffffffffffffff\n      and\n      dup2\n      mstore\n      0x20\n      add\n      swap1\n      dup2\n      mstore\n      0x20\n      add\n      0x00\n      keccak256\n      sload\n        /* \"contracts/BEP20.sol\":6795:6819  _balances[recipient].add */\n      tag_114\n      swap1\n        /* \"contracts/BEP20.sol\":6795:6827  _balances[recipient].add(amount) */\n      swap2\n      swap1\n      0xffffffff\n      and\n      jump\t// in\n    tag_179:\n        /* \"contracts/BEP20.sol\":6772:6781  _balances */\n      0x01\n        /* \"contracts/BEP20.sol\":6772:6792  _balances[recipient] */\n      0x00\n        /* \"contracts/BEP20.sol\":6782:6791  recipient */\n      dup5\n        /* \"contracts/BEP20.sol\":6772:6792  _balances[recipient] */\n      0xffffffffffffffffffffffffffffffffffffffff\n      and\n      0xffffffffffffffffffffffffffffffffffffffff\n      and\n      dup2\n      mstore\n      0x20\n      add\n      swap1\n      dup2\n      mstore\n      0x20\n      add\n      0x00\n      keccak256\n        /* \"contracts/BEP20.sol\":6772:6827  _balances[recipient] = _balances[recipient].add(amount) */\n      dup2\n      swap1\n      sstore\n      pop\n        /* \"contracts/BEP20.sol\":6860:6869  recipient */\n      dup2\n        /* \"contracts/BEP20.sol\":6843:6878  Transfer(sender, recipient, amount) */\n      0xffffffffffffffffffffffffffffffffffffffff\n      and\n        /* \"contracts/BEP20.sol\":6852:6858  sender */\n      dup4\n        /* \"contracts/BEP20.sol\":6843:6878  Transfer(sender, recipient, amount) */\n      0xffffffffffffffffffffffffffffffffffffffff\n      and\n      0xddf252ad1be2c89b69c2b068fc378daa952ba7f163c4a11628f55a4df523b3ef\n        /* \"contracts/BEP20.sol\":6871:6877  amount */\n      dup4\n        /* \"contracts/BEP20.sol\":6843:6878  Transfer(sender, recipient, amount) */\n      mload(0x40)\n      tag_180\n      swap2\n      swap1\n      tag_35\n      jump\t// in\n    tag_180:\n      mload(0x40)\n      dup1\n      swap2\n      sub\n      swap1\n      log3\n        /* \"contracts/BEP20.sol\":6344:6886  function _transfer(... */\n      pop\n      pop\n      pop\n      jump\t// out\n        /* \"contracts/libraries/SafeMath.sol\":5042:5282  function sub(... */\n    tag_107:\n        /* \"contracts/libraries/SafeMath.sol\":5162:5169  uint256 */\n      0x00\n        /* \"contracts/libraries/SafeMath.sol\":5220:5221  a */\n      dup4\n        /* \"contracts/libraries/SafeMath.sol\":5215:5216  b */\n      dup4\n        /* \"contracts/libraries/SafeMath.sol\":5215:5221  b <= a */\n      gt\n      iszero\n        /* \"contracts/libraries/SafeMath.sol\":5223:5235  errorMessage */\n      dup3\n        /* \"contracts/libraries/SafeMath.sol\":5207:5236  require(b <= a, errorMessage) */\n      swap1\n      tag_182\n      jumpi\n      mload(0x40)\n      0x08c379a000000000000000000000000000000000000000000000000000000000\n      dup2\n      mstore\n      0x04\n      add\n      tag_183\n      swap2\n      swap1\n      tag_25\n      jump\t// in\n    tag_183:\n      mload(0x40)\n      dup1\n      swap2\n      sub\n      swap1\n      revert\n    tag_182:\n      pop\n        /* \"contracts/libraries/SafeMath.sol\":5262:5263  b */\n      dup3\n        /* \"contracts/libraries/SafeMath.sol\":5258:5259  a */\n      dup5\n        /* \"contracts/libraries/SafeMath.sol\":5258:5263  a - b */\n      sub\n        /* \"contracts/libraries/SafeMath.sol\":5251:5263  return a - b */\n      swap1\n      pop\n        /* \"contracts/libraries/SafeMath.sol\":5042:5282  function sub(... */\n      swap4\n      swap3\n      pop\n      pop\n      pop\n      jump\t// out\n        /* \"contracts/libraries/SafeMath.sol\":2763:2861  function add(uint256 a, uint256 b) internal pure returns (uint256) {... */\n    tag_114:\n        /* \"contracts/libraries/SafeMath.sol\":2821:2828  uint256 */\n      0x00\n        /* \"contracts/libraries/SafeMath.sol\":2852:2853  b */\n      dup2\n        /* \"contracts/libraries/SafeMath.sol\":2848:2849  a */\n      dup4\n        /* \"contracts/libraries/SafeMath.sol\":2848:2853  a + b */\n      tag_185\n      swap2\n      swap1\n      tag_186\n      jump\t// in\n    tag_185:\n        /* \"contracts/libraries/SafeMath.sol\":2841:2853  return a + b */\n      swap1\n      pop\n        /* \"contracts/libraries/SafeMath.sol\":2763:2861  function add(uint256 a, uint256 b) internal pure returns (uint256) {... */\n      swap3\n      swap2\n      pop\n      pop\n      jump\t// out\n        /* \"contracts/access/Ownable.sol\":2106:2279  function _setOwner(address newOwner) private {... */\n    tag_124:\n        /* \"contracts/access/Ownable.sol\":2162:2178  address oldOwner */\n      0x00\n        /* \"contracts/access/Ownable.sol\":2181:2187  _owner */\n      dup1\n      0x00\n      swap1\n      sload\n      swap1\n      0x0100\n      exp\n      swap1\n      div\n      0xffffffffffffffffffffffffffffffffffffffff\n      and\n        /* \"contracts/access/Ownable.sol\":2162:2187  address oldOwner = _owner */\n      swap1\n      pop\n        /* \"contracts/access/Ownable.sol\":2207:2215  newOwner */\n      dup2\n        /* \"contracts/access/Ownable.sol\":2198:2204  _owner */\n      0x00\n      dup1\n        /* \"contracts/access/Ownable.sol\":2198:2215  _owner = newOwner */\n      0x0100\n      exp\n      dup2\n      sload\n      dup2\n      0xffffffffffffffffffffffffffffffffffffffff\n      mul\n      not\n      and\n      swap1\n      dup4\n      0xffffffffffffffffffffffffffffffffffffffff\n      and\n      mul\n      or\n      swap1\n      sstore\n      pop\n        /* \"contracts/access/Ownable.sol\":2262:2270  newOwner */\n      dup2\n        /* \"contracts/access/Ownable.sol\":2231:2271  OwnershipTransferred(oldOwner, newOwner) */\n      0xffffffffffffffffffffffffffffffffffffffff\n      and\n        /* \"contracts/access/Ownable.sol\":2252:2260  oldOwner */\n      dup2\n        /* \"contracts/access/Ownable.sol\":2231:2271  OwnershipTransferred(oldOwner, newOwner) */\n      0xffffffffffffffffffffffffffffffffffffffff\n      and\n      0x8be0079c531659141344cd1fd0a4f28419497f9722a3daafe3b4186f6b6457e0\n      mload(0x40)\n      mload(0x40)\n      dup1\n      swap2\n      sub\n      swap1\n      log3\n        /* \"contracts/access/Ownable.sol\":2151:2279  {... */\n      pop\n        /* \"contracts/access/Ownable.sol\":2106:2279  function _setOwner(address newOwner) private {... */\n      pop\n      jump\t// out\n        /* \"contracts/BEP20.sol\":7167:7475  function _mint(address account, uint256 amount) internal {... */\n    tag_142:\n        /* \"contracts/BEP20.sol\":7262:7263  0 */\n      0x00\n        /* \"contracts/BEP20.sol\":7243:7264  account != address(0) */\n      0xffffffffffffffffffffffffffffffffffffffff\n      and\n        /* \"contracts/BEP20.sol\":7243:7250  account */\n      dup3\n        /* \"contracts/BEP20.sol\":7243:7264  account != address(0) */\n      0xffffffffffffffffffffffffffffffffffffffff\n      and\n      sub\n        /* \"contracts/BEP20.sol\":7235:7300  require(account != address(0), \"BEP20: mint to the zero address\") */\n      tag_189\n      jumpi\n      mload(0x40)\n      0x08c379a000000000000000000000000000000000000000000000000000000000\n      dup2\n      mstore\n      0x04\n      add\n      tag_190\n      swap1\n      tag_191\n      jump\t// in\n    tag_190:\n      mload(0x40)\n      dup1\n      swap2\n      sub\n      swap1\n      revert\n    tag_189:\n        /* \"contracts/BEP20.sol\":7328:7352  _totalSupply.add(amount) */\n      tag_192\n        /* \"contracts/BEP20.sol\":7345:7351  amount */\n      dup2\n        /* \"contracts/BEP20.sol\":7328:7340  _totalSupply */\n      sload(0x03)\n        /* \"contracts/BEP20.sol\":7328:7344  _totalSupply.add */\n      tag_114\n      swap1\n        /* \"contracts/BEP20.sol\":7328:7352  _totalSupply.add(amount) */\n      swap2\n      swap1\n      0xffffffff\n      and\n      jump\t// in\n    tag_192:\n        /* \"contracts/BEP20.sol\":7313:7325  _totalSupply */\n      0x03\n        /* \"contracts/BEP20.sol\":7313:7352  _totalSupply = _totalSupply.add(amount) */\n      dup2\n      swap1\n      sstore\n      pop\n        /* \"contracts/BEP20.sol\":7384:7414  _balances[account].add(amount) */\n      tag_193\n        /* \"contracts/BEP20.sol\":7407:7413  amount */\n      dup2\n        /* \"contracts/BEP20.sol\":7384:7393  _balances */\n      0x01\n        /* \"contracts/BEP20.sol\":7384:7402  _balances[account] */\n      0x00\n        /* \"contracts/BEP20.sol\":7394:7401  account */\n      dup6\n        /* \"contracts/BEP20.sol\":7384:7402  _balances[account] */\n      0xffffffffffffffffffffffffffffffffffffffff\n      and\n      0xffffffffffffffffffffffffffffffffffffffff\n      and\n      dup2\n      mstore\n      0x20\n      add\n      swap1\n      dup2\n      mstore\n      0x20\n      add\n      0x00\n      keccak256\n      sload\n        /* \"contracts/BEP20.sol\":7384:7406  _balances[account].add */\n      tag_114\n      swap1\n        /* \"contracts/BEP20.sol\":7384:7414  _balances[account].add(amount) */\n      swap2\n      swap1\n      0xffffffff\n      and\n      jump\t// in\n    tag_193:\n        /* \"contracts/BEP20.sol\":7363:7372  _balances */\n      0x01\n        /* \"contracts/BEP20.sol\":7363:7381  _balances[account] */\n      0x00\n        /* \"contracts/BEP20.sol\":7373:7380  account */\n      dup5\n        /* \"contracts/BEP20.sol\":7363:7381  _balances[account] */\n      0xffffffffffffffffffffffffffffffffffffffff\n      and\n      0xffffffffffffffffffffffffffffffffffffffff\n      and\n      dup2\n      mstore\n      0x20\n      add\n      swap1\n      dup2\n      mstore\n      0x20\n      add\n      0x00\n      keccak256\n        /* \"contracts/BEP20.sol\":7363:7414  _balances[account] = _balances[account].add(amount) */\n      dup2\n      swap1\n      sstore\n      pop\n        /* \"contracts/BEP20.sol\":7451:7458  account */\n      dup2\n        /* \"contracts/BEP20.sol\":7430:7467  Transfer(address(0), account, amount) */\n      0xffffffffffffffffffffffffffffffffffffffff\n      and\n        /* \"contracts/BEP20.sol\":7447:7448  0 */\n      0x00\n        /* \"contracts/BEP20.sol\":7430:7467  Transfer(address(0), account, amount) */\n      0xffffffffffffffffffffffffffffffffffffffff\n      and\n      0xddf252ad1be2c89b69c2b068fc378daa952ba7f163c4a11628f55a4df523b3ef\n        /* \"contracts/BEP20.sol\":7460:7466  amount */\n      dup4\n        /* \"contracts/BEP20.sol\":7430:7467  Transfer(address(0), account, amount) */\n      mload(0x40)\n      tag_194\n      swap2\n      swap1\n      tag_35\n      jump\t// in\n    tag_194:\n      mload(0x40)\n      dup1\n      swap2\n      sub\n      swap1\n      log3\n        /* \"contracts/BEP20.sol\":7167:7475  function _mint(address account, uint256 amount) internal {... */\n      pop\n      pop\n      jump\t// out\n        /* \"#utility.yul\":7:106   */\n    tag_195:\n        /* \"#utility.yul\":59:65   */\n      0x00\n        /* \"#utility.yul\":93:98   */\n      dup2\n        /* \"#utility.yul\":87:99   */\n      mload\n        /* \"#utility.yul\":77:99   */\n      swap1\n      pop\n        /* \"#utility.yul\":7:106   */\n      swap2\n      swap1\n      pop\n      jump\t// out\n        /* \"#utility.yul\":112:281   */\n    tag_196:\n        /* \"#utility.yul\":196:207   */\n      0x00\n        /* \"#utility.yul\":230:236   */\n      dup3\n        /* \"#utility.yul\":225:228   */\n      dup3\n        /* \"#utility.yul\":218:237   */\n      mstore\n        /* \"#utility.yul\":270:274   */\n      0x20\n        /* \"#utility.yul\":265:268   */\n      dup3\n        /* \"#utility.yul\":261:275   */\n      add\n        /* \"#utility.yul\":246:275   */\n      swap1\n      pop\n        /* \"#utility.yul\":112:281   */\n      swap3\n      swap2\n      pop\n      pop\n      jump\t// out\n        /* \"#utility.yul\":287:594   */\n    tag_197:\n        /* \"#utility.yul\":355:356   */\n      0x00\n        /* \"#utility.yul\":365:478   */\n    tag_236:\n        /* \"#utility.yul\":379:385   */\n      dup4\n        /* \"#utility.yul\":376:377   */\n      dup2\n        /* \"#utility.yul\":373:386   */\n      lt\n        /* \"#utility.yul\":365:478   */\n      iszero\n      tag_238\n      jumpi\n        /* \"#utility.yul\":464:465   */\n      dup1\n        /* \"#utility.yul\":459:462   */\n      dup3\n        /* \"#utility.yul\":455:466   */\n      add\n        /* \"#utility.yul\":449:467   */\n      mload\n        /* \"#utility.yul\":445:446   */\n      dup2\n        /* \"#utility.yul\":440:443   */\n      dup5\n        /* \"#utility.yul\":436:447   */\n      add\n        /* \"#utility.yul\":429:468   */\n      mstore\n        /* \"#utility.yul\":401:403   */\n      0x20\n        /* \"#utility.yul\":398:399   */\n      dup2\n        /* \"#utility.yul\":394:404   */\n      add\n        /* \"#utility.yul\":389:404   */\n      swap1\n      pop\n        /* \"#utility.yul\":365:478   */\n      jump(tag_236)\n    tag_238:\n        /* \"#utility.yul\":496:502   */\n      dup4\n        /* \"#utility.yul\":493:494   */\n      dup2\n        /* \"#utility.yul\":490:503   */\n      gt\n        /* \"#utility.yul\":487:588   */\n      iszero\n      tag_239\n      jumpi\n        /* \"#utility.yul\":576:577   */\n      0x00\n        /* \"#utility.yul\":567:573   */\n      dup5\n        /* \"#utility.yul\":562:565   */\n      dup5\n        /* \"#utility.yul\":558:574   */\n      add\n        /* \"#utility.yul\":551:578   */\n      mstore\n        /* \"#utility.yul\":487:588   */\n    tag_239:\n        /* \"#utility.yul\":336:594   */\n      pop\n        /* \"#utility.yul\":287:594   */\n      pop\n      pop\n      pop\n      jump\t// out\n        /* \"#utility.yul\":600:702   */\n    tag_198:\n        /* \"#utility.yul\":641:647   */\n      0x00\n        /* \"#utility.yul\":692:694   */\n      0x1f\n        /* \"#utility.yul\":688:695   */\n      not\n        /* \"#utility.yul\":683:685   */\n      0x1f\n        /* \"#utility.yul\":676:681   */\n      dup4\n        /* \"#utility.yul\":672:686   */\n      add\n        /* \"#utility.yul\":668:696   */\n      and\n        /* \"#utility.yul\":658:696   */\n      swap1\n      pop\n        /* \"#utility.yul\":600:702   */\n      swap2\n      swap1\n      pop\n      jump\t// out\n        /* \"#utility.yul\":708:1072   */\n    tag_199:\n        /* \"#utility.yul\":796:799   */\n      0x00\n        /* \"#utility.yul\":824:863   */\n      tag_242\n        /* \"#utility.yul\":857:862   */\n      dup3\n        /* \"#utility.yul\":824:863   */\n      tag_195\n      jump\t// in\n    tag_242:\n        /* \"#utility.yul\":879:950   */\n      tag_243\n        /* \"#utility.yul\":943:949   */\n      dup2\n        /* \"#utility.yul\":938:941   */\n      dup6\n        /* \"#utility.yul\":879:950   */\n      tag_196\n      jump\t// in\n    tag_243:\n        /* \"#utility.yul\":872:950   */\n      swap4\n      pop\n        /* \"#utility.yul\":959:1011   */\n      tag_244\n        /* \"#utility.yul\":1004:1010   */\n      dup2\n        /* \"#utility.yul\":999:1002   */\n      dup6\n        /* \"#utility.yul\":992:996   */\n      0x20\n        /* \"#utility.yul\":985:990   */\n      dup7\n        /* \"#utility.yul\":981:997   */\n      add\n        /* \"#utility.yul\":959:1011   */\n      tag_197\n      jump\t// in\n    tag_244:\n        /* \"#utility.yul\":1036:1065   */\n      tag_245\n        /* \"#utility.yul\":1058:1064   */\n      dup2\n        /* \"#utility.yul\":1036:1065   */\n      tag_198\n      jump\t// in\n    tag_245:\n        /* \"#utility.yul\":1031:1034   */\n      dup5\n        /* \"#utility.yul\":1027:1066   */\n      add\n        /* \"#utility.yul\":1020:1066   */\n      swap2\n      pop\n        /* \"#utility.yul\":800:1072   */\n      pop\n        /* \"#utility.yul\":708:1072   */\n      swap3\n      swap2\n      pop\n      pop\n      jump\t// out\n        /* \"#utility.yul\":1078:1391   */\n    tag_25:\n        /* \"#utility.yul\":1191:1195   */\n      0x00\n        /* \"#utility.yul\":1229:1231   */\n      0x20\n        /* \"#utility.yul\":1218:1227   */\n      dup3\n        /* \"#utility.yul\":1214:1232   */\n      add\n        /* \"#utility.yul\":1206:1232   */\n      swap1\n      pop\n        /* \"#utility.yul\":1278:1287   */\n      dup2\n        /* \"#utility.yul\":1272:1276   */\n      dup2\n        /* \"#utility.yul\":1268:1288   */\n      sub\n        /* \"#utility.yul\":1264:1265   */\n      0x00\n        /* \"#utility.yul\":1253:1262   */\n      dup4\n        /* \"#utility.yul\":1249:1266   */\n      add\n        /* \"#utility.yul\":1242:1289   */\n      mstore\n        /* \"#utility.yul\":1306:1384   */\n      tag_247\n        /* \"#utility.yul\":1379:1383   */\n      dup2\n        /* \"#utility.yul\":1370:1376   */\n      dup5\n        /* \"#utility.yul\":1306:1384   */\n      tag_199\n      jump\t// in\n    tag_247:\n        /* \"#utility.yul\":1298:1384   */\n      swap1\n      pop\n        /* \"#utility.yul\":1078:1391   */\n      swap3\n      swap2\n      pop\n      pop\n      jump\t// out\n        /* \"#utility.yul\":1478:1595   */\n    tag_201:\n        /* \"#utility.yul\":1587:1588   */\n      0x00\n        /* \"#utility.yul\":1584:1585   */\n      dup1\n        /* \"#utility.yul\":1577:1589   */\n      revert\n        /* \"#utility.yul\":1724:1850   */\n    tag_203:\n        /* \"#utility.yul\":1761:1768   */\n      0x00\n        /* \"#utility.yul\":1801:1843   */\n      0xffffffffffffffffffffffffffffffffffffffff\n        /* \"#utility.yul\":1794:1799   */\n      dup3\n        /* \"#utility.yul\":1790:1844   */\n      and\n        /* \"#utility.yul\":1779:1844   */\n      swap1\n      pop\n        /* \"#utility.yul\":1724:1850   */\n      swap2\n      swap1\n      pop\n      jump\t// out\n        /* \"#utility.yul\":1856:1952   */\n    tag_204:\n        /* \"#utility.yul\":1893:1900   */\n      0x00\n        /* \"#utility.yul\":1922:1946   */\n      tag_253\n        /* \"#utility.yul\":1940:1945   */\n      dup3\n        /* \"#utility.yul\":1922:1946   */\n      tag_203\n      jump\t// in\n    tag_253:\n        /* \"#utility.yul\":1911:1946   */\n      swap1\n      pop\n        /* \"#utility.yul\":1856:1952   */\n      swap2\n      swap1\n      pop\n      jump\t// out\n        /* \"#utility.yul\":1958:2080   */\n    tag_205:\n        /* \"#utility.yul\":2031:2055   */\n      tag_255\n        /* \"#utility.yul\":2049:2054   */\n      dup2\n        /* \"#utility.yul\":2031:2055   */\n      tag_204\n      jump\t// in\n    tag_255:\n        /* \"#utility.yul\":2024:2029   */\n      dup2\n        /* \"#utility.yul\":2021:2056   */\n      eq\n        /* \"#utility.yul\":2011:2074   */\n      tag_256\n      jumpi\n        /* \"#utility.yul\":2070:2071   */\n      0x00\n        /* \"#utility.yul\":2067:2068   */\n      dup1\n        /* \"#utility.yul\":2060:2072   */\n      revert\n        /* \"#utility.yul\":2011:2074   */\n    tag_256:\n        /* \"#utility.yul\":1958:2080   */\n      pop\n      jump\t// out\n        /* \"#utility.yul\":2086:2225   */\n    tag_206:\n        /* \"#utility.yul\":2132:2137   */\n      0x00\n        /* \"#utility.yul\":2170:2176   */\n      dup2\n        /* \"#utility.yul\":2157:2177   */\n      calldataload\n        /* \"#utility.yul\":2148:2177   */\n      swap1\n      pop\n        /* \"#utility.yul\":2186:2219   */\n      tag_258\n        /* \"#utility.yul\":2213:2218   */\n      dup2\n        /* \"#utility.yul\":2186:2219   */\n      tag_205\n      jump\t// in\n    tag_258:\n        /* \"#utility.yul\":2086:2225   */\n      swap3\n      swap2\n      pop\n      pop\n      jump\t// out\n        /* \"#utility.yul\":2231:2308   */\n    tag_207:\n        /* \"#utility.yul\":2268:2275   */\n      0x00\n        /* \"#utility.yul\":2297:2302   */\n      dup2\n        /* \"#utility.yul\":2286:2302   */\n      swap1\n      pop\n        /* \"#utility.yul\":2231:2308   */\n      swap2\n      swap1\n      pop\n      jump\t// out\n        /* \"#utility.yul\":2314:2436   */\n    tag_208:\n        /* \"#utility.yul\":2387:2411   */\n      tag_261\n        /* \"#utility.yul\":2405:2410   */\n      dup2\n        /* \"#utility.yul\":2387:2411   */\n      tag_207\n      jump\t// in\n    tag_261:\n        /* \"#utility.yul\":2380:2385   */\n      dup2\n        /* \"#utility.yul\":2377:2412   */\n      eq\n        /* \"#utility.yul\":2367:2430   */\n      tag_262\n      jumpi\n        /* \"#utility.yul\":2426:2427   */\n      0x00\n        /* \"#utility.yul\":2423:2424   */\n      dup1\n        /* \"#utility.yul\":2416:2428   */\n      revert\n        /* \"#utility.yul\":2367:2430   */\n    tag_262:\n        /* \"#utility.yul\":2314:2436   */\n      pop\n      jump\t// out\n        /* \"#utility.yul\":2442:2581   */\n    tag_209:\n        /* \"#utility.yul\":2488:2493   */\n      0x00\n        /* \"#utility.yul\":2526:2532   */\n      dup2\n        /* \"#utility.yul\":2513:2533   */\n      calldataload\n        /* \"#utility.yul\":2504:2533   */\n      swap1\n      pop\n        /* \"#utility.yul\":2542:2575   */\n      tag_264\n        /* \"#utility.yul\":2569:2574   */\n      dup2\n        /* \"#utility.yul\":2542:2575   */\n      tag_208\n      jump\t// in\n    tag_264:\n        /* \"#utility.yul\":2442:2581   */\n      swap3\n      swap2\n      pop\n      pop\n      jump\t// out\n        /* \"#utility.yul\":2587:3061   */\n    tag_28:\n        /* \"#utility.yul\":2655:2661   */\n      0x00\n        /* \"#utility.yul\":2663:2669   */\n      dup1\n        /* \"#utility.yul\":2712:2714   */\n      0x40\n        /* \"#utility.yul\":2700:2709   */\n      dup4\n        /* \"#utility.yul\":2691:2698   */\n      dup6\n        /* \"#utility.yul\":2687:2710   */\n      sub\n        /* \"#utility.yul\":2683:2715   */\n      slt\n        /* \"#utility.yul\":2680:2799   */\n      iszero\n      tag_266\n      jumpi\n        /* \"#utility.yul\":2718:2797   */\n      tag_267\n      tag_201\n      jump\t// in\n    tag_267:\n        /* \"#utility.yul\":2680:2799   */\n    tag_266:\n        /* \"#utility.yul\":2838:2839   */\n      0x00\n        /* \"#utility.yul\":2863:2916   */\n      tag_268\n        /* \"#utility.yul\":2908:2915   */\n      dup6\n        /* \"#utility.yul\":2899:2905   */\n      dup3\n        /* \"#utility.yul\":2888:2897   */\n      dup7\n        /* \"#utility.yul\":2884:2906   */\n      add\n        /* \"#utility.yul\":2863:2916   */\n      tag_206\n      jump\t// in\n    tag_268:\n        /* \"#utility.yul\":2853:2916   */\n      swap3\n      pop\n        /* \"#utility.yul\":2809:2926   */\n      pop\n        /* \"#utility.yul\":2965:2967   */\n      0x20\n        /* \"#utility.yul\":2991:3044   */\n      tag_269\n        /* \"#utility.yul\":3036:3043   */\n      dup6\n        /* \"#utility.yul\":3027:3033   */\n      dup3\n        /* \"#utility.yul\":3016:3025   */\n      dup7\n        /* \"#utility.yul\":3012:3034   */\n      add\n        /* \"#utility.yul\":2991:3044   */\n      tag_209\n      jump\t// in\n    tag_269:\n        /* \"#utility.yul\":2981:3044   */\n      swap2\n      pop\n        /* \"#utility.yul\":2936:3054   */\n      pop\n        /* \"#utility.yul\":2587:3061   */\n      swap3\n      pop\n      swap3\n      swap1\n      pop\n      jump\t// out\n        /* \"#utility.yul\":3067:3157   */\n    tag_210:\n        /* \"#utility.yul\":3101:3108   */\n      0x00\n        /* \"#utility.yul\":3144:3149   */\n      dup2\n        /* \"#utility.yul\":3137:3150   */\n      iszero\n        /* \"#utility.yul\":3130:3151   */\n      iszero\n        /* \"#utility.yul\":3119:3151   */\n      swap1\n      pop\n        /* \"#utility.yul\":3067:3157   */\n      swap2\n      swap1\n      pop\n      jump\t// out\n        /* \"#utility.yul\":3163:3272   */\n    tag_211:\n        /* \"#utility.yul\":3244:3265   */\n      tag_272\n        /* \"#utility.yul\":3259:3264   */\n      dup2\n        /* \"#utility.yul\":3244:3265   */\n      tag_210\n      jump\t// in\n    tag_272:\n        /* \"#utility.yul\":3239:3242   */\n      dup3\n        /* \"#utility.yul\":3232:3266   */\n      mstore\n        /* \"#utility.yul\":3163:3272   */\n      pop\n      pop\n      jump\t// out\n        /* \"#utility.yul\":3278:3488   */\n    tag_31:\n        /* \"#utility.yul\":3365:3369   */\n      0x00\n        /* \"#utility.yul\":3403:3405   */\n      0x20\n        /* \"#utility.yul\":3392:3401   */\n      dup3\n        /* \"#utility.yul\":3388:3406   */\n      add\n        /* \"#utility.yul\":3380:3406   */\n      swap1\n      pop\n        /* \"#utility.yul\":3416:3481   */\n      tag_274\n        /* \"#utility.yul\":3478:3479   */\n      0x00\n        /* \"#utility.yul\":3467:3476   */\n      dup4\n        /* \"#utility.yul\":3463:3480   */\n      add\n        /* \"#utility.yul\":3454:3460   */\n      dup5\n        /* \"#utility.yul\":3416:3481   */\n      tag_211\n      jump\t// in\n    tag_274:\n        /* \"#utility.yul\":3278:3488   */\n      swap3\n      swap2\n      pop\n      pop\n      jump\t// out\n        /* \"#utility.yul\":3494:3612   */\n    tag_212:\n        /* \"#utility.yul\":3581:3605   */\n      tag_276\n        /* \"#utility.yul\":3599:3604   */\n      dup2\n        /* \"#utility.yul\":3581:3605   */\n      tag_207\n      jump\t// in\n    tag_276:\n        /* \"#utility.yul\":3576:3579   */\n      dup3\n        /* \"#utility.yul\":3569:3606   */\n      mstore\n        /* \"#utility.yul\":3494:3612   */\n      pop\n      pop\n      jump\t// out\n        /* \"#utility.yul\":3618:3840   */\n    tag_35:\n        /* \"#utility.yul\":3711:3715   */\n      0x00\n        /* \"#utility.yul\":3749:3751   */\n      0x20\n        /* \"#utility.yul\":3738:3747   */\n      dup3\n        /* \"#utility.yul\":3734:3752   */\n      add\n        /* \"#utility.yul\":3726:3752   */\n      swap1\n      pop\n        /* \"#utility.yul\":3762:3833   */\n      tag_278\n        /* \"#utility.yul\":3830:3831   */\n      0x00\n        /* \"#utility.yul\":3819:3828   */\n      dup4\n        /* \"#utility.yul\":3815:3832   */\n      add\n        /* \"#utility.yul\":3806:3812   */\n      dup5\n        /* \"#utility.yul\":3762:3833   */\n      tag_212\n      jump\t// in\n    tag_278:\n        /* \"#utility.yul\":3618:3840   */\n      swap3\n      swap2\n      pop\n      pop\n      jump\t// out\n        /* \"#utility.yul\":3846:4465   */\n    tag_38:\n        /* \"#utility.yul\":3923:3929   */\n      0x00\n        /* \"#utility.yul\":3931:3937   */\n      dup1\n        /* \"#utility.yul\":3939:3945   */\n      0x00\n        /* \"#utility.yul\":3988:3990   */\n      0x60\n        /* \"#utility.yul\":3976:3985   */\n      dup5\n        /* \"#utility.yul\":3967:3974   */\n      dup7\n        /* \"#utility.yul\":3963:3986   */\n      sub\n        /* \"#utility.yul\":3959:3991   */\n      slt\n        /* \"#utility.yul\":3956:4075   */\n      iszero\n      tag_280\n      jumpi\n        /* \"#utility.yul\":3994:4073   */\n      tag_281\n      tag_201\n      jump\t// in\n    tag_281:\n        /* \"#utility.yul\":3956:4075   */\n    tag_280:\n        /* \"#utility.yul\":4114:4115   */\n      0x00\n        /* \"#utility.yul\":4139:4192   */\n      tag_282\n        /* \"#utility.yul\":4184:4191   */\n      dup7\n        /* \"#utility.yul\":4175:4181   */\n      dup3\n        /* \"#utility.yul\":4164:4173   */\n      dup8\n        /* \"#utility.yul\":4160:4182   */\n      add\n        /* \"#utility.yul\":4139:4192   */\n      tag_206\n      jump\t// in\n    tag_282:\n        /* \"#utility.yul\":4129:4192   */\n      swap4\n      pop\n        /* \"#utility.yul\":4085:4202   */\n      pop\n        /* \"#utility.yul\":4241:4243   */\n      0x20\n        /* \"#utility.yul\":4267:4320   */\n      tag_283\n        /* \"#utility.yul\":4312:4319   */\n      dup7\n        /* \"#utility.yul\":4303:4309   */\n      dup3\n        /* \"#utility.yul\":4292:4301   */\n      dup8\n        /* \"#utility.yul\":4288:4310   */\n      add\n        /* \"#utility.yul\":4267:4320   */\n      tag_206\n      jump\t// in\n    tag_283:\n        /* \"#utility.yul\":4257:4320   */\n      swap3\n      pop\n        /* \"#utility.yul\":4212:4330   */\n      pop\n        /* \"#utility.yul\":4369:4371   */\n      0x40\n        /* \"#utility.yul\":4395:4448   */\n      tag_284\n        /* \"#utility.yul\":4440:4447   */\n      dup7\n        /* \"#utility.yul\":4431:4437   */\n      dup3\n        /* \"#utility.yul\":4420:4429   */\n      dup8\n        /* \"#utility.yul\":4416:4438   */\n      add\n        /* \"#utility.yul\":4395:4448   */\n      tag_209\n      jump\t// in\n    tag_284:\n        /* \"#utility.yul\":4385:4448   */\n      swap2\n      pop\n        /* \"#utility.yul\":4340:4458   */\n      pop\n        /* \"#utility.yul\":3846:4465   */\n      swap3\n      pop\n      swap3\n      pop\n      swap3\n      jump\t// out\n        /* \"#utility.yul\":4471:4557   */\n    tag_213:\n        /* \"#utility.yul\":4506:4513   */\n      0x00\n        /* \"#utility.yul\":4546:4550   */\n      0xff\n        /* \"#utility.yul\":4539:4544   */\n      dup3\n        /* \"#utility.yul\":4535:4551   */\n      and\n        /* \"#utility.yul\":4524:4551   */\n      swap1\n      pop\n        /* \"#utility.yul\":4471:4557   */\n      swap2\n      swap1\n      pop\n      jump\t// out\n        /* \"#utility.yul\":4563:4675   */\n    tag_214:\n        /* \"#utility.yul\":4646:4668   */\n      tag_287\n        /* \"#utility.yul\":4662:4667   */\n      dup2\n        /* \"#utility.yul\":4646:4668   */\n      tag_213\n      jump\t// in\n    tag_287:\n        /* \"#utility.yul\":4641:4644   */\n      dup3\n        /* \"#utility.yul\":4634:4669   */\n      mstore\n        /* \"#utility.yul\":4563:4675   */\n      pop\n      pop\n      jump\t// out\n        /* \"#utility.yul\":4681:4895   */\n    tag_44:\n        /* \"#utility.yul\":4770:4774   */\n      0x00\n        /* \"#utility.yul\":4808:4810   */\n      0x20\n        /* \"#utility.yul\":4797:4806   */\n      dup3\n        /* \"#utility.yul\":4793:4811   */\n      add\n        /* \"#utility.yul\":4785:4811   */\n      swap1\n      pop\n        /* \"#utility.yul\":4821:4888   */\n      tag_289\n        /* \"#utility.yul\":4885:4886   */\n      0x00\n        /* \"#utility.yul\":4874:4883   */\n      dup4\n        /* \"#utility.yul\":4870:4887   */\n      add\n        /* \"#utility.yul\":4861:4867   */\n      dup5\n        /* \"#utility.yul\":4821:4888   */\n      tag_214\n      jump\t// in\n    tag_289:\n        /* \"#utility.yul\":4681:4895   */\n      swap3\n      swap2\n      pop\n      pop\n      jump\t// out\n        /* \"#utility.yul\":4901:5230   */\n    tag_51:\n        /* \"#utility.yul\":4960:4966   */\n      0x00\n        /* \"#utility.yul\":5009:5011   */\n      0x20\n        /* \"#utility.yul\":4997:5006   */\n      dup3\n        /* \"#utility.yul\":4988:4995   */\n      dup5\n        /* \"#utility.yul\":4984:5007   */\n      sub\n        /* \"#utility.yul\":4980:5012   */\n      slt\n        /* \"#utility.yul\":4977:5096   */\n      iszero\n      tag_291\n      jumpi\n        /* \"#utility.yul\":5015:5094   */\n      tag_292\n      tag_201\n      jump\t// in\n    tag_292:\n        /* \"#utility.yul\":4977:5096   */\n    tag_291:\n        /* \"#utility.yul\":5135:5136   */\n      0x00\n        /* \"#utility.yul\":5160:5213   */\n      tag_293\n        /* \"#utility.yul\":5205:5212   */\n      dup5\n        /* \"#utility.yul\":5196:5202   */\n      dup3\n        /* \"#utility.yul\":5185:5194   */\n      dup6\n        /* \"#utility.yul\":5181:5203   */\n      add\n        /* \"#utility.yul\":5160:5213   */\n      tag_206\n      jump\t// in\n    tag_293:\n        /* \"#utility.yul\":5150:5213   */\n      swap2\n      pop\n        /* \"#utility.yul\":5106:5223   */\n      pop\n        /* \"#utility.yul\":4901:5230   */\n      swap3\n      swap2\n      pop\n      pop\n      jump\t// out\n        /* \"#utility.yul\":5236:5354   */\n    tag_215:\n        /* \"#utility.yul\":5323:5347   */\n      tag_295\n        /* \"#utility.yul\":5341:5346   */\n      dup2\n        /* \"#utility.yul\":5323:5347   */\n      tag_204\n      jump\t// in\n    tag_295:\n        /* \"#utility.yul\":5318:5321   */\n      dup3\n        /* \"#utility.yul\":5311:5348   */\n      mstore\n        /* \"#utility.yul\":5236:5354   */\n      pop\n      pop\n      jump\t// out\n        /* \"#utility.yul\":5360:5582   */\n    tag_59:\n        /* \"#utility.yul\":5453:5457   */\n      0x00\n        /* \"#utility.yul\":5491:5493   */\n      0x20\n        /* \"#utility.yul\":5480:5489   */\n      dup3\n        /* \"#utility.yul\":5476:5494   */\n      add\n        /* \"#utility.yul\":5468:5494   */\n      swap1\n      pop\n        /* \"#utility.yul\":5504:5575   */\n      tag_297\n        /* \"#utility.yul\":5572:5573   */\n      0x00\n        /* \"#utility.yul\":5561:5570   */\n      dup4\n        /* \"#utility.yul\":5557:5574   */\n      add\n        /* \"#utility.yul\":5548:5554   */\n      dup5\n        /* \"#utility.yul\":5504:5575   */\n      tag_215\n      jump\t// in\n    tag_297:\n        /* \"#utility.yul\":5360:5582   */\n      swap3\n      swap2\n      pop\n      pop\n      jump\t// out\n        /* \"#utility.yul\":5588:5917   */\n    tag_68:\n        /* \"#utility.yul\":5647:5653   */\n      0x00\n        /* \"#utility.yul\":5696:5698   */\n      0x20\n        /* \"#utility.yul\":5684:5693   */\n      dup3\n        /* \"#utility.yul\":5675:5682   */\n      dup5\n        /* \"#utility.yul\":5671:5694   */\n      sub\n        /* \"#utility.yul\":5667:5699   */\n      slt\n        /* \"#utility.yul\":5664:5783   */\n      iszero\n      tag_299\n      jumpi\n        /* \"#utility.yul\":5702:5781   */\n      tag_300\n      tag_201\n      jump\t// in\n    tag_300:\n        /* \"#utility.yul\":5664:5783   */\n    tag_299:\n        /* \"#utility.yul\":5822:5823   */\n      0x00\n        /* \"#utility.yul\":5847:5900   */\n      tag_301\n        /* \"#utility.yul\":5892:5899   */\n      dup5\n        /* \"#utility.yul\":5883:5889   */\n      dup3\n        /* \"#utility.yul\":5872:5881   */\n      dup6\n        /* \"#utility.yul\":5868:5890   */\n      add\n        /* \"#utility.yul\":5847:5900   */\n      tag_209\n      jump\t// in\n    tag_301:\n        /* \"#utility.yul\":5837:5900   */\n      swap2\n      pop\n        /* \"#utility.yul\":5793:5910   */\n      pop\n        /* \"#utility.yul\":5588:5917   */\n      swap3\n      swap2\n      pop\n      pop\n      jump\t// out\n        /* \"#utility.yul\":5923:6397   */\n    tag_81:\n        /* \"#utility.yul\":5991:5997   */\n      0x00\n        /* \"#utility.yul\":5999:6005   */\n      dup1\n        /* \"#utility.yul\":6048:6050   */\n      0x40\n        /* \"#utility.yul\":6036:6045   */\n      dup4\n        /* \"#utility.yul\":6027:6034   */\n      dup6\n        /* \"#utility.yul\":6023:6046   */\n      sub\n        /* \"#utility.yul\":6019:6051   */\n      slt\n        /* \"#utility.yul\":6016:6135   */\n      iszero\n      tag_303\n      jumpi\n        /* \"#utility.yul\":6054:6133   */\n      tag_304\n      tag_201\n      jump\t// in\n    tag_304:\n        /* \"#utility.yul\":6016:6135   */\n    tag_303:\n        /* \"#utility.yul\":6174:6175   */\n      0x00\n        /* \"#utility.yul\":6199:6252   */\n      tag_305\n        /* \"#utility.yul\":6244:6251   */\n      dup6\n        /* \"#utility.yul\":6235:6241   */\n      dup3\n        /* \"#utility.yul\":6224:6233   */\n      dup7\n        /* \"#utility.yul\":6220:6242   */\n      add\n        /* \"#utility.yul\":6199:6252   */\n      tag_206\n      jump\t// in\n    tag_305:\n        /* \"#utility.yul\":6189:6252   */\n      swap3\n      pop\n        /* \"#utility.yul\":6145:6262   */\n      pop\n        /* \"#utility.yul\":6301:6303   */\n      0x20\n        /* \"#utility.yul\":6327:6380   */\n      tag_306\n        /* \"#utility.yul\":6372:6379   */\n      dup6\n        /* \"#utility.yul\":6363:6369   */\n      dup3\n        /* \"#utility.yul\":6352:6361   */\n      dup7\n        /* \"#utility.yul\":6348:6370   */\n      add\n        /* \"#utility.yul\":6327:6380   */\n      tag_206\n      jump\t// in\n    tag_306:\n        /* \"#utility.yul\":6317:6380   */\n      swap2\n      pop\n        /* \"#utility.yul\":6272:6390   */\n      pop\n        /* \"#utility.yul\":5923:6397   */\n      swap3\n      pop\n      swap3\n      swap1\n      pop\n      jump\t// out\n        /* \"#utility.yul\":6403:6583   */\n    tag_216:\n        /* \"#utility.yul\":6451:6528   */\n      0x4e487b7100000000000000000000000000000000000000000000000000000000\n        /* \"#utility.yul\":6448:6449   */\n      0x00\n        /* \"#utility.yul\":6441:6529   */\n      mstore\n        /* \"#utility.yul\":6548:6552   */\n      0x22\n        /* \"#utility.yul\":6545:6546   */\n      0x04\n        /* \"#utility.yul\":6538:6553   */\n      mstore\n        /* \"#utility.yul\":6572:6576   */\n      0x24\n        /* \"#utility.yul\":6569:6570   */\n      0x00\n        /* \"#utility.yul\":6562:6577   */\n      revert\n        /* \"#utility.yul\":6589:6909   */\n    tag_89:\n        /* \"#utility.yul\":6633:6639   */\n      0x00\n        /* \"#utility.yul\":6670:6671   */\n      0x02\n        /* \"#utility.yul\":6664:6668   */\n      dup3\n        /* \"#utility.yul\":6660:6672   */\n      div\n        /* \"#utility.yul\":6650:6672   */\n      swap1\n      pop\n        /* \"#utility.yul\":6717:6718   */\n      0x01\n        /* \"#utility.yul\":6711:6715   */\n      dup3\n        /* \"#utility.yul\":6707:6719   */\n      and\n        /* \"#utility.yul\":6738:6756   */\n      dup1\n        /* \"#utility.yul\":6728:6809   */\n      tag_309\n      jumpi\n        /* \"#utility.yul\":6794:6798   */\n      0x7f\n        /* \"#utility.yul\":6786:6792   */\n      dup3\n        /* \"#utility.yul\":6782:6799   */\n      and\n        /* \"#utility.yul\":6772:6799   */\n      swap2\n      pop\n        /* \"#utility.yul\":6728:6809   */\n    tag_309:\n        /* \"#utility.yul\":6856:6858   */\n      0x20\n        /* \"#utility.yul\":6848:6854   */\n      dup3\n        /* \"#utility.yul\":6845:6859   */\n      lt\n        /* \"#utility.yul\":6825:6843   */\n      dup2\n        /* \"#utility.yul\":6822:6860   */\n      sub\n        /* \"#utility.yul\":6819:6903   */\n      tag_310\n      jumpi\n        /* \"#utility.yul\":6875:6893   */\n      tag_311\n      tag_216\n      jump\t// in\n    tag_311:\n        /* \"#utility.yul\":6819:6903   */\n    tag_310:\n        /* \"#utility.yul\":6640:6909   */\n      pop\n        /* \"#utility.yul\":6589:6909   */\n      swap2\n      swap1\n      pop\n      jump\t// out\n        /* \"#utility.yul\":6915:7097   */\n    tag_217:\n        /* \"#utility.yul\":7055:7089   */\n      0x4f776e61626c653a2063616c6c6572206973206e6f7420746865206f776e6572\n        /* \"#utility.yul\":7051:7052   */\n      0x00\n        /* \"#utility.yul\":7043:7049   */\n      dup3\n        /* \"#utility.yul\":7039:7053   */\n      add\n        /* \"#utility.yul\":7032:7090   */\n      mstore\n        /* \"#utility.yul\":6915:7097   */\n      pop\n      jump\t// out\n        /* \"#utility.yul\":7103:7469   */\n    tag_218:\n        /* \"#utility.yul\":7245:7248   */\n      0x00\n        /* \"#utility.yul\":7266:7333   */\n      tag_314\n        /* \"#utility.yul\":7330:7332   */\n      0x20\n        /* \"#utility.yul\":7325:7328   */\n      dup4\n        /* \"#utility.yul\":7266:7333   */\n      tag_196\n      jump\t// in\n    tag_314:\n        /* \"#utility.yul\":7259:7333   */\n      swap2\n      pop\n        /* \"#utility.yul\":7342:7435   */\n      tag_315\n        /* \"#utility.yul\":7431:7434   */\n      dup3\n        /* \"#utility.yul\":7342:7435   */\n      tag_217\n      jump\t// in\n    tag_315:\n        /* \"#utility.yul\":7460:7462   */\n      0x20\n        /* \"#utility.yul\":7455:7458   */\n      dup3\n        /* \"#utility.yul\":7451:7463   */\n      add\n        /* \"#utility.yul\":7444:7463   */\n      swap1\n      pop\n        /* \"#utility.yul\":7103:7469   */\n      swap2\n      swap1\n      pop\n      jump\t// out\n        /* \"#utility.yul\":7475:7894   */\n    tag_121:\n        /* \"#utility.yul\":7641:7645   */\n      0x00\n        /* \"#utility.yul\":7679:7681   */\n      0x20\n        /* \"#utility.yul\":7668:7677   */\n      dup3\n        /* \"#utility.yul\":7664:7682   */\n      add\n        /* \"#utility.yul\":7656:7682   */\n      swap1\n      pop\n        /* \"#utility.yul\":7728:7737   */\n      dup2\n        /* \"#utility.yul\":7722:7726   */\n      dup2\n        /* \"#utility.yul\":7718:7738   */\n      sub\n        /* \"#utility.yul\":7714:7715   */\n      0x00\n        /* \"#utility.yul\":7703:7712   */\n      dup4\n        /* \"#utility.yul\":7699:7716   */\n      add\n        /* \"#utility.yul\":7692:7739   */\n      mstore\n        /* \"#utility.yul\":7756:7887   */\n      tag_317\n        /* \"#utility.yul\":7882:7886   */\n      dup2\n        /* \"#utility.yul\":7756:7887   */\n      tag_218\n      jump\t// in\n    tag_317:\n        /* \"#utility.yul\":7748:7887   */\n      swap1\n      pop\n        /* \"#utility.yul\":7475:7894   */\n      swap2\n      swap1\n      pop\n      jump\t// out\n        /* \"#utility.yul\":7900:8125   */\n    tag_219:\n        /* \"#utility.yul\":8040:8074   */\n      0x4f776e61626c653a206e6577206f776e657220697320746865207a65726f2061\n        /* \"#utility.yul\":8036:8037   */\n      0x00\n        /* \"#utility.yul\":8028:8034   */\n      dup3\n        /* \"#utility.yul\":8024:8038   */\n      add\n        /* \"#utility.yul\":8017:8075   */\n      mstore\n        /* \"#utility.yul\":8109:8117   */\n      0x6464726573730000000000000000000000000000000000000000000000000000\n        /* \"#utility.yul\":8104:8106   */\n      0x20\n        /* \"#utility.yul\":8096:8102   */\n      dup3\n        /* \"#utility.yul\":8092:8107   */\n      add\n        /* \"#utility.yul\":8085:8118   */\n      mstore\n        /* \"#utility.yul\":7900:8125   */\n      pop\n      jump\t// out\n        /* \"#utility.yul\":8131:8497   */\n    tag_220:\n        /* \"#utility.yul\":8273:8276   */\n      0x00\n        /* \"#utility.yul\":8294:8361   */\n      tag_320\n        /* \"#utility.yul\":8358:8360   */\n      0x26\n        /* \"#utility.yul\":8353:8356   */\n      dup4\n        /* \"#utility.yul\":8294:8361   */\n      tag_196\n      jump\t// in\n    tag_320:\n        /* \"#utility.yul\":8287:8361   */\n      swap2\n      pop\n        /* \"#utility.yul\":8370:8463   */\n      tag_321\n        /* \"#utility.yul\":8459:8462   */\n      dup3\n        /* \"#utility.yul\":8370:8463   */\n      tag_219\n      jump\t// in\n    tag_321:\n        /* \"#utility.yul\":8488:8490   */\n      0x40\n        /* \"#utility.yul\":8483:8486   */\n      dup3\n        /* \"#utility.yul\":8479:8491   */\n      add\n        /* \"#utility.yul\":8472:8491   */\n      swap1\n      pop\n        /* \"#utility.yul\":8131:8497   */\n      swap2\n      swap1\n      pop\n      jump\t// out\n        /* \"#utility.yul\":8503:8922   */\n    tag_160:\n        /* \"#utility.yul\":8669:8673   */\n      0x00\n        /* \"#utility.yul\":8707:8709   */\n      0x20\n        /* \"#utility.yul\":8696:8705   */\n      dup3\n        /* \"#utility.yul\":8692:8710   */\n      add\n        /* \"#utility.yul\":8684:8710   */\n      swap1\n      pop\n        /* \"#utility.yul\":8756:8765   */\n      dup2\n        /* \"#utility.yul\":8750:8754   */\n      dup2\n        /* \"#utility.yul\":8746:8766   */\n      sub\n        /* \"#utility.yul\":8742:8743   */\n      0x00\n        /* \"#utility.yul\":8731:8740   */\n      dup4\n        /* \"#utility.yul\":8727:8744   */\n      add\n        /* \"#utility.yul\":8720:8767   */\n      mstore\n        /* \"#utility.yul\":8784:8915   */\n      tag_323\n        /* \"#utility.yul\":8910:8914   */\n      dup2\n        /* \"#utility.yul\":8784:8915   */\n      tag_220\n      jump\t// in\n    tag_323:\n        /* \"#utility.yul\":8776:8915   */\n      swap1\n      pop\n        /* \"#utility.yul\":8503:8922   */\n      swap2\n      swap1\n      pop\n      jump\t// out\n        /* \"#utility.yul\":8928:9151   */\n    tag_221:\n        /* \"#utility.yul\":9068:9102   */\n      0x42455032303a20617070726f76652066726f6d20746865207a65726f20616464\n        /* \"#utility.yul\":9064:9065   */\n      0x00\n        /* \"#utility.yul\":9056:9062   */\n      dup3\n        /* \"#utility.yul\":9052:9066   */\n      add\n        /* \"#utility.yul\":9045:9103   */\n      mstore\n        /* \"#utility.yul\":9137:9143   */\n      0x7265737300000000000000000000000000000000000000000000000000000000\n        /* \"#utility.yul\":9132:9134   */\n      0x20\n        /* \"#utility.yul\":9124:9130   */\n      dup3\n        /* \"#utility.yul\":9120:9135   */\n      add\n        /* \"#utility.yul\":9113:9144   */\n      mstore\n        /* \"#utility.yul\":8928:9151   */\n      pop\n      jump\t// out\n        /* \"#utility.yul\":9157:9523   */\n    tag_222:\n        /* \"#utility.yul\":9299:9302   */\n      0x00\n        /* \"#utility.yul\":9320:9387   */\n      tag_326\n        /* \"#utility.yul\":9384:9386   */\n      0x24\n        /* \"#utility.yul\":9379:9382   */\n      dup4\n        /* \"#utility.yul\":9320:9387   */\n      tag_196\n      jump\t// in\n    tag_326:\n        /* \"#utility.yul\":9313:9387   */\n      swap2\n      pop\n        /* \"#utility.yul\":9396:9489   */\n      tag_327\n        /* \"#utility.yul\":9485:9488   */\n      dup3\n        /* \"#utility.yul\":9396:9489   */\n      tag_221\n      jump\t// in\n    tag_327:\n        /* \"#utility.yul\":9514:9516   */\n      0x40\n        /* \"#utility.yul\":9509:9512   */\n      dup3\n        /* \"#utility.yul\":9505:9517   */\n      add\n        /* \"#utility.yul\":9498:9517   */\n      swap1\n      pop\n        /* \"#utility.yul\":9157:9523   */\n      swap2\n      swap1\n      pop\n      jump\t// out\n        /* \"#utility.yul\":9529:9948   */\n    tag_166:\n        /* \"#utility.yul\":9695:9699   */\n      0x00\n        /* \"#utility.yul\":9733:9735   */\n      0x20\n        /* \"#utility.yul\":9722:9731   */\n      dup3\n        /* \"#utility.yul\":9718:9736   */\n      add\n        /* \"#utility.yul\":9710:9736   */\n      swap1\n      pop\n        /* \"#utility.yul\":9782:9791   */\n      dup2\n        /* \"#utility.yul\":9776:9780   */\n      dup2\n        /* \"#utility.yul\":9772:9792   */\n      sub\n        /* \"#utility.yul\":9768:9769   */\n      0x00\n        /* \"#utility.yul\":9757:9766   */\n      dup4\n        /* \"#utility.yul\":9753:9770   */\n      add\n        /* \"#utility.yul\":9746:9793   */\n      mstore\n        /* \"#utility.yul\":9810:9941   */\n      tag_329\n        /* \"#utility.yul\":9936:9940   */\n      dup2\n        /* \"#utility.yul\":9810:9941   */\n      tag_222\n      jump\t// in\n    tag_329:\n        /* \"#utility.yul\":9802:9941   */\n      swap1\n      pop\n        /* \"#utility.yul\":9529:9948   */\n      swap2\n      swap1\n      pop\n      jump\t// out\n        /* \"#utility.yul\":9954:10175   */\n    tag_223:\n        /* \"#utility.yul\":10094:10128   */\n      0x42455032303a20617070726f766520746f20746865207a65726f206164647265\n        /* \"#utility.yul\":10090:10091   */\n      0x00\n        /* \"#utility.yul\":10082:10088   */\n      dup3\n        /* \"#utility.yul\":10078:10092   */\n      add\n        /* \"#utility.yul\":10071:10129   */\n      mstore\n        /* \"#utility.yul\":10163:10167   */\n      0x7373000000000000000000000000000000000000000000000000000000000000\n        /* \"#utility.yul\":10158:10160   */\n      0x20\n        /* \"#utility.yul\":10150:10156   */\n      dup3\n        /* \"#utility.yul\":10146:10161   */\n      add\n        /* \"#utility.yul\":10139:10168   */\n      mstore\n        /* \"#utility.yul\":9954:10175   */\n      pop\n      jump\t// out\n        /* \"#utility.yul\":10181:10547   */\n    tag_224:\n        /* \"#utility.yul\":10323:10326   */\n      0x00\n        /* \"#utility.yul\":10344:10411   */\n      tag_332\n        /* \"#utility.yul\":10408:10410   */\n      0x22\n        /* \"#utility.yul\":10403:10406   */\n      dup4\n        /* \"#utility.yul\":10344:10411   */\n      tag_196\n      jump\t// in\n    tag_332:\n        /* \"#utility.yul\":10337:10411   */\n      swap2\n      pop\n        /* \"#utility.yul\":10420:10513   */\n      tag_333\n        /* \"#utility.yul\":10509:10512   */\n      dup3\n        /* \"#utility.yul\":10420:10513   */\n      tag_223\n      jump\t// in\n    tag_333:\n        /* \"#utility.yul\":10538:10540   */\n      0x40\n        /* \"#utility.yul\":10533:10536   */\n      dup3\n        /* \"#utility.yul\":10529:10541   */\n      add\n        /* \"#utility.yul\":10522:10541   */\n      swap1\n      pop\n        /* \"#utility.yul\":10181:10547   */\n      swap2\n      swap1\n      pop\n      jump\t// out\n        /* \"#utility.yul\":10553:10972   */\n    tag_169:\n        /* \"#utility.yul\":10719:10723   */\n      0x00\n        /* \"#utility.yul\":10757:10759   */\n      0x20\n        /* \"#utility.yul\":10746:10755   */\n      dup3\n        /* \"#utility.yul\":10742:10760   */\n      add\n        /* \"#utility.yul\":10734:10760   */\n      swap1\n      pop\n        /* \"#utility.yul\":10806:10815   */\n      dup2\n        /* \"#utility.yul\":10800:10804   */\n      dup2\n        /* \"#utility.yul\":10796:10816   */\n      sub\n        /* \"#utility.yul\":10792:10793   */\n      0x00\n        /* \"#utility.yul\":10781:10790   */\n      dup4\n        /* \"#utility.yul\":10777:10794   */\n      add\n        /* \"#utility.yul\":10770:10817   */\n      mstore\n        /* \"#utility.yul\":10834:10965   */\n      tag_335\n        /* \"#utility.yul\":10960:10964   */\n      dup2\n        /* \"#utility.yul\":10834:10965   */\n      tag_224\n      jump\t// in\n    tag_335:\n        /* \"#utility.yul\":10826:10965   */\n      swap1\n      pop\n        /* \"#utility.yul\":10553:10972   */\n      swap2\n      swap1\n      pop\n      jump\t// out\n        /* \"#utility.yul\":10978:11202   */\n    tag_225:\n        /* \"#utility.yul\":11118:11152   */\n      0x42455032303a207472616e736665722066726f6d20746865207a65726f206164\n        /* \"#utility.yul\":11114:11115   */\n      0x00\n        /* \"#utility.yul\":11106:11112   */\n      dup3\n        /* \"#utility.yul\":11102:11116   */\n      add\n        /* \"#utility.yul\":11095:11153   */\n      mstore\n        /* \"#utility.yul\":11187:11194   */\n      0x6472657373000000000000000000000000000000000000000000000000000000\n        /* \"#utility.yul\":11182:11184   */\n      0x20\n        /* \"#utility.yul\":11174:11180   */\n      dup3\n        /* \"#utility.yul\":11170:11185   */\n      add\n        /* \"#utility.yul\":11163:11195   */\n      mstore\n        /* \"#utility.yul\":10978:11202   */\n      pop\n      jump\t// out\n        /* \"#utility.yul\":11208:11574   */\n    tag_226:\n        /* \"#utility.yul\":11350:11353   */\n      0x00\n        /* \"#utility.yul\":11371:11438   */\n      tag_338\n        /* \"#utility.yul\":11435:11437   */\n      0x25\n        /* \"#utility.yul\":11430:11433   */\n      dup4\n        /* \"#utility.yul\":11371:11438   */\n      tag_196\n      jump\t// in\n    tag_338:\n        /* \"#utility.yul\":11364:11438   */\n      swap2\n      pop\n        /* \"#utility.yul\":11447:11540   */\n      tag_339\n        /* \"#utility.yul\":11536:11539   */\n      dup3\n        /* \"#utility.yul\":11447:11540   */\n      tag_225\n      jump\t// in\n    tag_339:\n        /* \"#utility.yul\":11565:11567   */\n      0x40\n        /* \"#utility.yul\":11560:11563   */\n      dup3\n        /* \"#utility.yul\":11556:11568   */\n      add\n        /* \"#utility.yul\":11549:11568   */\n      swap1\n      pop\n        /* \"#utility.yul\":11208:11574   */\n      swap2\n      swap1\n      pop\n      jump\t// out\n        /* \"#utility.yul\":11580:11999   */\n    tag_174:\n        /* \"#utility.yul\":11746:11750   */\n      0x00\n        /* \"#utility.yul\":11784:11786   */\n      0x20\n        /* \"#utility.yul\":11773:11782   */\n      dup3\n        /* \"#utility.yul\":11769:11787   */\n      add\n        /* \"#utility.yul\":11761:11787   */\n      swap1\n      pop\n        /* \"#utility.yul\":11833:11842   */\n      dup2\n        /* \"#utility.yul\":11827:11831   */\n      dup2\n        /* \"#utility.yul\":11823:11843   */\n      sub\n        /* \"#utility.yul\":11819:11820   */\n      0x00\n        /* \"#utility.yul\":11808:11817   */\n      dup4\n        /* \"#utility.yul\":11804:11821   */\n      add\n        /* \"#utility.yul\":11797:11844   */\n      mstore\n        /* \"#utility.yul\":11861:11992   */\n      tag_341\n        /* \"#utility.yul\":11987:11991   */\n      dup2\n        /* \"#utility.yul\":11861:11992   */\n      tag_226\n      jump\t// in\n    tag_341:\n        /* \"#utility.yul\":11853:11992   */\n      swap1\n      pop\n        /* \"#utility.yul\":11580:11999   */\n      swap2\n      swap1\n      pop\n      jump\t// out\n        /* \"#utility.yul\":12005:12227   */\n    tag_227:\n        /* \"#utility.yul\":12145:12179   */\n      0x42455032303a207472616e7366657220746f20746865207a65726f2061646472\n        /* \"#utility.yul\":12141:12142   */\n      0x00\n        /* \"#utility.yul\":12133:12139   */\n      dup3\n        /* \"#utility.yul\":12129:12143   */\n      add\n        /* \"#utility.yul\":12122:12180   */\n      mstore\n        /* \"#utility.yul\":12214:12219   */\n      0x6573730000000000000000000000000000000000000000000000000000000000\n        /* \"#utility.yul\":12209:12211   */\n      0x20\n        /* \"#utility.yul\":12201:12207   */\n      dup3\n        /* \"#utility.yul\":12197:12212   */\n      add\n        /* \"#utility.yul\":12190:12220   */\n      mstore\n        /* \"#utility.yul\":12005:12227   */\n      pop\n      jump\t// out\n        /* \"#utility.yul\":12233:12599   */\n    tag_228:\n        /* \"#utility.yul\":12375:12378   */\n      0x00\n        /* \"#utility.yul\":12396:12463   */\n      tag_344\n        /* \"#utility.yul\":12460:12462   */\n      0x23\n        /* \"#utility.yul\":12455:12458   */\n      dup4\n        /* \"#utility.yul\":12396:12463   */\n      tag_196\n      jump\t// in\n    tag_344:\n        /* \"#utility.yul\":12389:12463   */\n      swap2\n      pop\n        /* \"#utility.yul\":12472:12565   */\n      tag_345\n        /* \"#utility.yul\":12561:12564   */\n      dup3\n        /* \"#utility.yul\":12472:12565   */\n      tag_227\n      jump\t// in\n    tag_345:\n        /* \"#utility.yul\":12590:12592   */\n      0x40\n        /* \"#utility.yul\":12585:12588   */\n      dup3\n        /* \"#utility.yul\":12581:12593   */\n      add\n        /* \"#utility.yul\":12574:12593   */\n      swap1\n      pop\n        /* \"#utility.yul\":12233:12599   */\n      swap2\n      swap1\n      pop\n      jump\t// out\n        /* \"#utility.yul\":12605:13024   */\n    tag_177:\n        /* \"#utility.yul\":12771:12775   */\n      0x00\n        /* \"#utility.yul\":12809:12811   */\n      0x20\n        /* \"#utility.yul\":12798:12807   */\n      dup3\n        /* \"#utility.yul\":12794:12812   */\n      add\n        /* \"#utility.yul\":12786:12812   */\n      swap1\n      pop\n        /* \"#utility.yul\":12858:12867   */\n      dup2\n        /* \"#utility.yul\":12852:12856   */\n      dup2\n        /* \"#utility.yul\":12848:12868   */\n      sub\n        /* \"#utility.yul\":12844:12845   */\n      0x00\n        /* \"#utility.yul\":12833:12842   */\n      dup4\n        /* \"#utility.yul\":12829:12846   */\n      add\n        /* \"#utility.yul\":12822:12869   */\n      mstore\n        /* \"#utility.yul\":12886:13017   */\n      tag_347\n        /* \"#utility.yul\":13012:13016   */\n      dup2\n        /* \"#utility.yul\":12886:13017   */\n      tag_228\n      jump\t// in\n    tag_347:\n        /* \"#utility.yul\":12878:13017   */\n      swap1\n      pop\n        /* \"#utility.yul\":12605:13024   */\n      swap2\n      swap1\n      pop\n      jump\t// out\n        /* \"#utility.yul\":13030:13210   */\n    tag_229:\n        /* \"#utility.yul\":13078:13155   */\n      0x4e487b7100000000000000000000000000000000000000000000000000000000\n        /* \"#utility.yul\":13075:13076   */\n      0x00\n        /* \"#utility.yul\":13068:13156   */\n      mstore\n        /* \"#utility.yul\":13175:13179   */\n      0x11\n        /* \"#utility.yul\":13172:13173   */\n      0x04\n        /* \"#utility.yul\":13165:13180   */\n      mstore\n        /* \"#utility.yul\":13199:13203   */\n      0x24\n        /* \"#utility.yul\":13196:13197   */\n      0x00\n        /* \"#utility.yul\":13189:13204   */\n      revert\n        /* \"#utility.yul\":13216:13521   */\n    tag_186:\n        /* \"#utility.yul\":13256:13259   */\n      0x00\n        /* \"#utility.yul\":13275:13295   */\n      tag_350\n        /* \"#utility.yul\":13293:13294   */\n      dup3\n        /* \"#utility.yul\":13275:13295   */\n      tag_207\n      jump\t// in\n    tag_350:\n        /* \"#utility.yul\":13270:13295   */\n      swap2\n      pop\n        /* \"#utility.yul\":13309:13329   */\n      tag_351\n        /* \"#utility.yul\":13327:13328   */\n      dup4\n        /* \"#utility.yul\":13309:13329   */\n      tag_207\n      jump\t// in\n    tag_351:\n        /* \"#utility.yul\":13304:13329   */\n      swap3\n      pop\n        /* \"#utility.yul\":13463:13464   */\n      dup3\n        /* \"#utility.yul\":13395:13461   */\n      0xffffffffffffffffffffffffffffffffffffffffffffffffffffffffffffffff\n        /* \"#utility.yul\":13391:13465   */\n      sub\n        /* \"#utility.yul\":13388:13389   */\n      dup3\n        /* \"#utility.yul\":13385:13466   */\n      gt\n        /* \"#utility.yul\":13382:13489   */\n      iszero\n      tag_352\n      jumpi\n        /* \"#utility.yul\":13469:13487   */\n      tag_353\n      tag_229\n      jump\t// in\n    tag_353:\n        /* \"#utility.yul\":13382:13489   */\n    tag_352:\n        /* \"#utility.yul\":13513:13514   */\n      dup3\n        /* \"#utility.yul\":13510:13511   */\n      dup3\n        /* \"#utility.yul\":13506:13515   */\n      add\n        /* \"#utility.yul\":13499:13515   */\n      swap1\n      pop\n        /* \"#utility.yul\":13216:13521   */\n      swap3\n      swap2\n      pop\n      pop\n      jump\t// out\n        /* \"#utility.yul\":13527:13708   */\n    tag_230:\n        /* \"#utility.yul\":13667:13700   */\n      0x42455032303a206d696e7420746f20746865207a65726f206164647265737300\n        /* \"#utility.yul\":13663:13664   */\n      0x00\n        /* \"#utility.yul\":13655:13661   */\n      dup3\n        /* \"#utility.yul\":13651:13665   */\n      add\n        /* \"#utility.yul\":13644:13701   */\n      mstore\n        /* \"#utility.yul\":13527:13708   */\n      pop\n      jump\t// out\n        /* \"#utility.yul\":13714:14080   */\n    tag_231:\n        /* \"#utility.yul\":13856:13859   */\n      0x00\n        /* \"#utility.yul\":13877:13944   */\n      tag_356\n        /* \"#utility.yul\":13941:13943   */\n      0x1f\n        /* \"#utility.yul\":13936:13939   */\n      dup4\n        /* \"#utility.yul\":13877:13944   */\n      tag_196\n      jump\t// in\n    tag_356:\n        /* \"#utility.yul\":13870:13944   */\n      swap2\n      pop\n        /* \"#utility.yul\":13953:14046   */\n      tag_357\n        /* \"#utility.yul\":14042:14045   */\n      dup3\n        /* \"#utility.yul\":13953:14046   */\n      tag_230\n      jump\t// in\n    tag_357:\n        /* \"#utility.yul\":14071:14073   */\n      0x20\n        /* \"#utility.yul\":14066:14069   */\n      dup3\n        /* \"#utility.yul\":14062:14074   */\n      add\n        /* \"#utility.yul\":14055:14074   */\n      swap1\n      pop\n        /* \"#utility.yul\":13714:14080   */\n      swap2\n      swap1\n      pop\n      jump\t// out\n        /* \"#utility.yul\":14086:14505   */\n    tag_191:\n        /* \"#utility.yul\":14252:14256   */\n      0x00\n        /* \"#utility.yul\":14290:14292   */\n      0x20\n        /* \"#utility.yul\":14279:14288   */\n      dup3\n        /* \"#utility.yul\":14275:14293   */\n      add\n        /* \"#utility.yul\":14267:14293   */\n      swap1\n      pop\n        /* \"#utility.yul\":14339:14348   */\n      dup2\n        /* \"#utility.yul\":14333:14337   */\n      dup2\n        /* \"#utility.yul\":14329:14349   */\n      sub\n        /* \"#utility.yul\":14325:14326   */\n      0x00\n        /* \"#utility.yul\":14314:14323   */\n      dup4\n        /* \"#utility.yul\":14310:14327   */\n      add\n        /* \"#utility.yul\":14303:14350   */\n      mstore\n        /* \"#utility.yul\":14367:14498   */\n      tag_359\n        /* \"#utility.yul\":14493:14497   */\n      dup2\n        /* \"#utility.yul\":14367:14498   */\n      tag_231\n      jump\t// in\n    tag_359:\n        /* \"#utility.yul\":14359:14498   */\n      swap1\n      pop\n        /* \"#utility.yul\":14086:14505   */\n      swap2\n      swap1\n      pop\n      jump\t// out\n    stop\n    data_4f3506f4ba71c79c3cbd442a3afeb30e9b27af2d84e116a4385b34e267d2287e 42455032303a207472616e7366657220616d6f756e74206578636565647320616c6c6f77616e6365\n    data_a91efd7a65ef5b4ae4d6568d674798b78a5a89184dd296c100513251c22d3e73 42455032303a207472616e7366657220616d6f756e7420657863656564732062616c616e6365\n    data_b7060b3538dcd3ddc8a941c91636a8115a1aa46914747fd9809d543bbb46cd22 42455032303a2064656372656173656420616c6c6f77616e63652062656c6f77207a65726f\n\n    auxdata: 0xa2646970667358221220a0b0b44a932aeb9f89af0c752ce8d2697cad7a4d463610fd4b3167940842c49e64736f6c634300080d0033\n}\n",
				"bytecode": {
					"linkReferences": {},
					"object": "60806040523480156200001157600080fd5b5060405162001eae38038062001eae8339818101604052810190620000379190620003c6565b620000576200004b620000ad60201b60201c565b620000b560201b60201c565b81600690805190602001906200006f92919062000179565b5080600590805190602001906200008892919062000179565b506012600460006101000a81548160ff021916908360ff1602179055505050620004af565b600033905090565b60008060009054906101000a900473ffffffffffffffffffffffffffffffffffffffff169050816000806101000a81548173ffffffffffffffffffffffffffffffffffffffff021916908373ffffffffffffffffffffffffffffffffffffffff1602179055508173ffffffffffffffffffffffffffffffffffffffff168173ffffffffffffffffffffffffffffffffffffffff167f8be0079c531659141344cd1fd0a4f28419497f9722a3daafe3b4186f6b6457e060405160405180910390a35050565b82805462000187906200047a565b90600052602060002090601f016020900481019282620001ab5760008555620001f7565b82601f10620001c657805160ff1916838001178555620001f7565b82800160010185558215620001f7579182015b82811115620001f6578251825591602001919060010190620001d9565b5b5090506200020691906200020a565b5090565b5b80821115620002255760008160009055506001016200020b565b5090565b6000604051905090565b600080fd5b600080fd5b600080fd5b600080fd5b6000601f19601f8301169050919050565b7f4e487b7100000000000000000000000000000000000000000000000000000000600052604160045260246000fd5b620002928262000247565b810181811067ffffffffffffffff82111715620002b457620002b362000258565b5b80604052505050565b6000620002c962000229565b9050620002d7828262000287565b919050565b600067ffffffffffffffff821115620002fa57620002f962000258565b5b620003058262000247565b9050602081019050919050565b60005b838110156200033257808201518184015260208101905062000315565b8381111562000342576000848401525b50505050565b60006200035f6200035984620002dc565b620002bd565b9050828152602081018484840111156200037e576200037d62000242565b5b6200038b84828562000312565b509392505050565b600082601f830112620003ab57620003aa6200023d565b5b8151620003bd84826020860162000348565b91505092915050565b60008060408385031215620003e057620003df62000233565b5b600083015167ffffffffffffffff81111562000401576200040062000238565b5b6200040f8582860162000393565b925050602083015167ffffffffffffffff81111562000433576200043262000238565b5b620004418582860162000393565b9150509250929050565b7f4e487b7100000000000000000000000000000000000000000000000000000000600052602260045260246000fd5b600060028204905060018216806200049357607f821691505b602082108103620004a957620004a86200044b565b5b50919050565b6119ef80620004bf6000396000f3fe608060405234801561001057600080fd5b50600436106101005760003560e01c8063893d20e811610097578063a457c2d711610066578063a457c2d7146102b3578063a9059cbb146102e3578063dd62ed3e14610313578063f2fde38b1461034357610100565b8063893d20e8146102295780638da5cb5b1461024757806395d89b4114610265578063a0712d681461028357610100565b8063313ce567116100d3578063313ce567146101a157806339509351146101bf57806370a08231146101ef578063715018a61461021f57610100565b806306fdde0314610105578063095ea7b31461012357806318160ddd1461015357806323b872dd14610171575b600080fd5b61010d61035f565b60405161011a9190611206565b60405180910390f35b61013d600480360381019061013891906112c1565b6103f1565b60405161014a919061131c565b60405180910390f35b61015b61040f565b6040516101689190611346565b60405180910390f35b61018b60048036038101906101869190611361565b610419565b604051610198919061131c565b60405180910390f35b6101a96104f2565b6040516101b691906113d0565b60405180910390f35b6101d960048036038101906101d491906112c1565b610509565b6040516101e6919061131c565b60405180910390f35b610209600480360381019061020491906113eb565b6105bc565b6040516102169190611346565b60405180910390f35b610227610605565b005b61023161068d565b60405161023e9190611427565b60405180910390f35b61024f61069c565b60405161025c9190611427565b60405180910390f35b61026d6106c5565b60405161027a9190611206565b60405180910390f35b61029d60048036038101906102989190611442565b610757565b6040516102aa919061131c565b60405180910390f35b6102cd60048036038101906102c891906112c1565b6107ef565b6040516102da919061131c565b60405180910390f35b6102fd60048036038101906102f891906112c1565b6108bc565b60405161030a919061131c565b60405180910390f35b61032d6004803603810190610328919061146f565b6108da565b60405161033a9190611346565b60405180910390f35b61035d600480360381019061035891906113eb565b610961565b005b60606006805461036e906114de565b80601f016020809104026020016040519081016040528092919081815260200182805461039a906114de565b80156103e75780601f106103bc576101008083540402835291602001916103e7565b820191906000526020600020905b8154815290600101906020018083116103ca57829003601f168201915b5050505050905090565b60006104056103fe610a58565b8484610a60565b6001905092915050565b6000600354905090565b6000610426848484610c29565b6104e784610432610a58565b6104e28560405180606001604052806028815260200161194760289139600260008b73ffffffffffffffffffffffffffffffffffffffff1673ffffffffffffffffffffffffffffffffffffffff1681526020019081526020016000206000610498610a58565b73ffffffffffffffffffffffffffffffffffffffff1673ffffffffffffffffffffffffffffffffffffffff16815260200190815260200160002054610eb59092919063ffffffff16565b610a60565b600190509392505050565b6000600460009054906101000a900460ff16905090565b60006105b2610516610a58565b846105ad8560026000610527610a58565b73ffffffffffffffffffffffffffffffffffffffff1673ffffffffffffffffffffffffffffffffffffffff16815260200190815260200160002060008973ffffffffffffffffffffffffffffffffffffffff1673ffffffffffffffffffffffffffffffffffffffff16815260200190815260200160002054610f0a90919063ffffffff16565b610a60565b6001905092915050565b6000600160008373ffffffffffffffffffffffffffffffffffffffff1673ffffffffffffffffffffffffffffffffffffffff168152602001908152602001600020549050919050565b61060d610a58565b73ffffffffffffffffffffffffffffffffffffffff1661062b61069c565b73ffffffffffffffffffffffffffffffffffffffff1614610681576040517f08c379a00000000000000000000000000000000000000000000000000000000081526004016106789061155b565b60405180910390fd5b61068b6000610f20565b565b600061069761069c565b905090565b60008060009054906101000a900473ffffffffffffffffffffffffffffffffffffffff16905090565b6060600580546106d4906114de565b80601f0160208091040260200160405190810160405280929190818152602001828054610700906114de565b801561074d5780601f106107225761010080835404028352916020019161074d565b820191906000526020600020905b81548152906001019060200180831161073057829003601f168201915b5050505050905090565b6000610761610a58565b73ffffffffffffffffffffffffffffffffffffffff1661077f61069c565b73ffffffffffffffffffffffffffffffffffffffff16146107d5576040517f08c379a00000000000000000000000000000000000000000000000000000000081526004016107cc9061155b565b60405180910390fd5b6107e66107e0610a58565b83610fe4565b60019050919050565b60006108b26107fc610a58565b846108ad856040518060600160405280602581526020016119956025913960026000610826610a58565b73ffffffffffffffffffffffffffffffffffffffff1673ffffffffffffffffffffffffffffffffffffffff16815260200190815260200160002060008a73ffffffffffffffffffffffffffffffffffffffff1673ffffffffffffffffffffffffffffffffffffffff16815260200190815260200160002054610eb59092919063ffffffff16565b610a60565b6001905092915050565b60006108d06108c9610a58565b8484610c29565b6001905092915050565b6000600260008473ffffffffffffffffffffffffffffffffffffffff1673ffffffffffffffffffffffffffffffffffffffff16815260200190815260200160002060008373ffffffffffffffffffffffffffffffffffffffff1673ffffffffffffffffffffffffffffffffffffffff16815260200190815260200160002054905092915050565b610969610a58565b73ffffffffffffffffffffffffffffffffffffffff1661098761069c565b73ffffffffffffffffffffffffffffffffffffffff16146109dd576040517f08c379a00000000000000000000000000000000000000000000000000000000081526004016109d49061155b565b60405180910390fd5b600073ffffffffffffffffffffffffffffffffffffffff168173ffffffffffffffffffffffffffffffffffffffff1603610a4c576040517f08c379a0000000000000000000000000000000000000000000000000000000008152600401610a43906115ed565b60405180910390fd5b610a5581610f20565b50565b600033905090565b600073ffffffffffffffffffffffffffffffffffffffff168373ffffffffffffffffffffffffffffffffffffffff1603610acf576040517f08c379a0000000000000000000000000000000000000000000000000000000008152600401610ac69061167f565b60405180910390fd5b600073ffffffffffffffffffffffffffffffffffffffff168273ffffffffffffffffffffffffffffffffffffffff1603610b3e576040517f08c379a0000000000000000000000000000000000000000000000000000000008152600401610b3590611711565b60405180910390fd5b80600260008573ffffffffffffffffffffffffffffffffffffffff1673ffffffffffffffffffffffffffffffffffffffff16815260200190815260200160002060008473ffffffffffffffffffffffffffffffffffffffff1673ffffffffffffffffffffffffffffffffffffffff168152602001908152602001600020819055508173ffffffffffffffffffffffffffffffffffffffff168373ffffffffffffffffffffffffffffffffffffffff167f8c5be1e5ebec7d5bd14f71427d1e84f3dd0314c0f7b2291e5b200ac8c7c3b92583604051610c1c9190611346565b60405180910390a3505050565b600073ffffffffffffffffffffffffffffffffffffffff168373ffffffffffffffffffffffffffffffffffffffff1603610c98576040517f08c379a0000000000000000000000000000000000000000000000000000000008152600401610c8f906117a3565b60405180910390fd5b600073ffffffffffffffffffffffffffffffffffffffff168273ffffffffffffffffffffffffffffffffffffffff1603610d07576040517f08c379a0000000000000000000000000000000000000000000000000000000008152600401610cfe90611835565b60405180910390fd5b610d738160405180606001604052806026815260200161196f60269139600160008773ffffffffffffffffffffffffffffffffffffffff1673ffffffffffffffffffffffffffffffffffffffff16815260200190815260200160002054610eb59092919063ffffffff16565b600160008573ffffffffffffffffffffffffffffffffffffffff1673ffffffffffffffffffffffffffffffffffffffff16815260200190815260200160002081905550610e0881600160008573ffffffffffffffffffffffffffffffffffffffff1673ffffffffffffffffffffffffffffffffffffffff16815260200190815260200160002054610f0a90919063ffffffff16565b600160008473ffffffffffffffffffffffffffffffffffffffff1673ffffffffffffffffffffffffffffffffffffffff168152602001908152602001600020819055508173ffffffffffffffffffffffffffffffffffffffff168373ffffffffffffffffffffffffffffffffffffffff167fddf252ad1be2c89b69c2b068fc378daa952ba7f163c4a11628f55a4df523b3ef83604051610ea89190611346565b60405180910390a3505050565b6000838311158290610efd576040517f08c379a0000000000000000000000000000000000000000000000000000000008152600401610ef49190611206565b60405180910390fd5b5082840390509392505050565b60008183610f189190611884565b905092915050565b60008060009054906101000a900473ffffffffffffffffffffffffffffffffffffffff169050816000806101000a81548173ffffffffffffffffffffffffffffffffffffffff021916908373ffffffffffffffffffffffffffffffffffffffff1602179055508173ffffffffffffffffffffffffffffffffffffffff168173ffffffffffffffffffffffffffffffffffffffff167f8be0079c531659141344cd1fd0a4f28419497f9722a3daafe3b4186f6b6457e060405160405180910390a35050565b600073ffffffffffffffffffffffffffffffffffffffff168273ffffffffffffffffffffffffffffffffffffffff1603611053576040517f08c379a000000000000000000000000000000000000000000000000000000000815260040161104a90611926565b60405180910390fd5b61106881600354610f0a90919063ffffffff16565b6003819055506110c081600160008573ffffffffffffffffffffffffffffffffffffffff1673ffffffffffffffffffffffffffffffffffffffff16815260200190815260200160002054610f0a90919063ffffffff16565b600160008473ffffffffffffffffffffffffffffffffffffffff1673ffffffffffffffffffffffffffffffffffffffff168152602001908152602001600020819055508173ffffffffffffffffffffffffffffffffffffffff16600073ffffffffffffffffffffffffffffffffffffffff167fddf252ad1be2c89b69c2b068fc378daa952ba7f163c4a11628f55a4df523b3ef836040516111619190611346565b60405180910390a35050565b600081519050919050565b600082825260208201905092915050565b60005b838110156111a757808201518184015260208101905061118c565b838111156111b6576000848401525b50505050565b6000601f19601f8301169050919050565b60006111d88261116d565b6111e28185611178565b93506111f2818560208601611189565b6111fb816111bc565b840191505092915050565b6000602082019050818103600083015261122081846111cd565b905092915050565b600080fd5b600073ffffffffffffffffffffffffffffffffffffffff82169050919050565b60006112588261122d565b9050919050565b6112688161124d565b811461127357600080fd5b50565b6000813590506112858161125f565b92915050565b6000819050919050565b61129e8161128b565b81146112a957600080fd5b50565b6000813590506112bb81611295565b92915050565b600080604083850312156112d8576112d7611228565b5b60006112e685828601611276565b92505060206112f7858286016112ac565b9150509250929050565b60008115159050919050565b61131681611301565b82525050565b6000602082019050611331600083018461130d565b92915050565b6113408161128b565b82525050565b600060208201905061135b6000830184611337565b92915050565b60008060006060848603121561137a57611379611228565b5b600061138886828701611276565b935050602061139986828701611276565b92505060406113aa868287016112ac565b9150509250925092565b600060ff82169050919050565b6113ca816113b4565b82525050565b60006020820190506113e560008301846113c1565b92915050565b60006020828403121561140157611400611228565b5b600061140f84828501611276565b91505092915050565b6114218161124d565b82525050565b600060208201905061143c6000830184611418565b92915050565b60006020828403121561145857611457611228565b5b6000611466848285016112ac565b91505092915050565b6000806040838503121561148657611485611228565b5b600061149485828601611276565b92505060206114a585828601611276565b9150509250929050565b7f4e487b7100000000000000000000000000000000000000000000000000000000600052602260045260246000fd5b600060028204905060018216806114f657607f821691505b602082108103611509576115086114af565b5b50919050565b7f4f776e61626c653a2063616c6c6572206973206e6f7420746865206f776e6572600082015250565b6000611545602083611178565b91506115508261150f565b602082019050919050565b6000602082019050818103600083015261157481611538565b9050919050565b7f4f776e61626c653a206e6577206f776e657220697320746865207a65726f206160008201527f6464726573730000000000000000000000000000000000000000000000000000602082015250565b60006115d7602683611178565b91506115e28261157b565b604082019050919050565b60006020820190508181036000830152611606816115ca565b9050919050565b7f42455032303a20617070726f76652066726f6d20746865207a65726f2061646460008201527f7265737300000000000000000000000000000000000000000000000000000000602082015250565b6000611669602483611178565b91506116748261160d565b604082019050919050565b600060208201905081810360008301526116988161165c565b9050919050565b7f42455032303a20617070726f766520746f20746865207a65726f20616464726560008201527f7373000000000000000000000000000000000000000000000000000000000000602082015250565b60006116fb602283611178565b91506117068261169f565b604082019050919050565b6000602082019050818103600083015261172a816116ee565b9050919050565b7f42455032303a207472616e736665722066726f6d20746865207a65726f20616460008201527f6472657373000000000000000000000000000000000000000000000000000000602082015250565b600061178d602583611178565b915061179882611731565b604082019050919050565b600060208201905081810360008301526117bc81611780565b9050919050565b7f42455032303a207472616e7366657220746f20746865207a65726f206164647260008201527f6573730000000000000000000000000000000000000000000000000000000000602082015250565b600061181f602383611178565b915061182a826117c3565b604082019050919050565b6000602082019050818103600083015261184e81611812565b9050919050565b7f4e487b7100000000000000000000000000000000000000000000000000000000600052601160045260246000fd5b600061188f8261128b565b915061189a8361128b565b9250827fffffffffffffffffffffffffffffffffffffffffffffffffffffffffffffffff038211156118cf576118ce611855565b5b828201905092915050565b7f42455032303a206d696e7420746f20746865207a65726f206164647265737300600082015250565b6000611910601f83611178565b915061191b826118da565b602082019050919050565b6000602082019050818103600083015261193f81611903565b905091905056fe42455032303a207472616e7366657220616d6f756e74206578636565647320616c6c6f77616e636542455032303a207472616e7366657220616d6f756e7420657863656564732062616c616e636542455032303a2064656372656173656420616c6c6f77616e63652062656c6f77207a65726fa2646970667358221220a0b0b44a932aeb9f89af0c752ce8d2697cad7a4d463610fd4b3167940842c49e64736f6c634300080d0033",
					"opcodes": "PUSH1 0x80 PUSH1 0x40 MSTORE CALLVALUE DUP1 ISZERO PUSH3 0x11 JUMPI PUSH1 0x0 DUP1 REVERT JUMPDEST POP PUSH1 0x40 MLOAD PUSH3 0x1EAE CODESIZE SUB DUP1 PUSH3 0x1EAE DUP4 CODECOPY DUP2 DUP2 ADD PUSH1 0x40 MSTORE DUP2 ADD SWAP1 PUSH3 0x37 SWAP2 SWAP1 PUSH3 0x3C6 JUMP JUMPDEST PUSH3 0x57 PUSH3 0x4B PUSH3 0xAD PUSH1 0x20 SHL PUSH1 0x20 SHR JUMP JUMPDEST PUSH3 0xB5 PUSH1 0x20 SHL PUSH1 0x20 SHR JUMP JUMPDEST DUP2 PUSH1 0x6 SWAP1 DUP1 MLOAD SWAP1 PUSH1 0x20 ADD SWAP1 PUSH3 0x6F SWAP3 SWAP2 SWAP1 PUSH3 0x179 JUMP JUMPDEST POP DUP1 PUSH1 0x5 SWAP1 DUP1 MLOAD SWAP1 PUSH1 0x20 ADD SWAP1 PUSH3 0x88 SWAP3 SWAP2 SWAP1 PUSH3 0x179 JUMP JUMPDEST POP PUSH1 0x12 PUSH1 0x4 PUSH1 0x0 PUSH2 0x100 EXP DUP2 SLOAD DUP2 PUSH1 0xFF MUL NOT AND SWAP1 DUP4 PUSH1 0xFF AND MUL OR SWAP1 SSTORE POP POP POP PUSH3 0x4AF JUMP JUMPDEST PUSH1 0x0 CALLER SWAP1 POP SWAP1 JUMP JUMPDEST PUSH1 0x0 DUP1 PUSH1 0x0 SWAP1 SLOAD SWAP1 PUSH2 0x100 EXP SWAP1 DIV PUSH20 0xFFFFFFFFFFFFFFFFFFFFFFFFFFFFFFFFFFFFFFFF AND SWAP1 POP DUP2 PUSH1 0x0 DUP1 PUSH2 0x100 EXP DUP2 SLOAD DUP2 PUSH20 0xFFFFFFFFFFFFFFFFFFFFFFFFFFFFFFFFFFFFFFFF MUL NOT AND SWAP1 DUP4 PUSH20 0xFFFFFFFFFFFFFFFFFFFFFFFFFFFFFFFFFFFFFFFF AND MUL OR SWAP1 SSTORE POP DUP2 PUSH20 0xFFFFFFFFFFFFFFFFFFFFFFFFFFFFFFFFFFFFFFFF AND DUP2 PUSH20 0xFFFFFFFFFFFFFFFFFFFFFFFFFFFFFFFFFFFFFFFF AND PUSH32 0x8BE0079C531659141344CD1FD0A4F28419497F9722A3DAAFE3B4186F6B6457E0 PUSH1 0x40 MLOAD PUSH1 0x40 MLOAD DUP1 SWAP2 SUB SWAP1 LOG3 POP POP JUMP JUMPDEST DUP3 DUP1 SLOAD PUSH3 0x187 SWAP1 PUSH3 0x47A JUMP JUMPDEST SWAP1 PUSH1 0x0 MSTORE PUSH1 0x20 PUSH1 0x0 KECCAK256 SWAP1 PUSH1 0x1F ADD PUSH1 0x20 SWAP1 DIV DUP2 ADD SWAP3 DUP3 PUSH3 0x1AB JUMPI PUSH1 0x0 DUP6 SSTORE PUSH3 0x1F7 JUMP JUMPDEST DUP3 PUSH1 0x1F LT PUSH3 0x1C6 JUMPI DUP1 MLOAD PUSH1 0xFF NOT AND DUP4 DUP1 ADD OR DUP6 SSTORE PUSH3 0x1F7 JUMP JUMPDEST DUP3 DUP1 ADD PUSH1 0x1 ADD DUP6 SSTORE DUP3 ISZERO PUSH3 0x1F7 JUMPI SWAP2 DUP3 ADD JUMPDEST DUP3 DUP2 GT ISZERO PUSH3 0x1F6 JUMPI DUP3 MLOAD DUP3 SSTORE SWAP2 PUSH1 0x20 ADD SWAP2 SWAP1 PUSH1 0x1 ADD SWAP1 PUSH3 0x1D9 JUMP JUMPDEST JUMPDEST POP SWAP1 POP PUSH3 0x206 SWAP2 SWAP1 PUSH3 0x20A JUMP JUMPDEST POP SWAP1 JUMP JUMPDEST JUMPDEST DUP1 DUP3 GT ISZERO PUSH3 0x225 JUMPI PUSH1 0x0 DUP2 PUSH1 0x0 SWAP1 SSTORE POP PUSH1 0x1 ADD PUSH3 0x20B JUMP JUMPDEST POP SWAP1 JUMP JUMPDEST PUSH1 0x0 PUSH1 0x40 MLOAD SWAP1 POP SWAP1 JUMP JUMPDEST PUSH1 0x0 DUP1 REVERT JUMPDEST PUSH1 0x0 DUP1 REVERT JUMPDEST PUSH1 0x0 DUP1 REVERT JUMPDEST PUSH1 0x0 DUP1 REVERT JUMPDEST PUSH1 0x0 PUSH1 0x1F NOT PUSH1 0x1F DUP4 ADD AND SWAP1 POP SWAP2 SWAP1 POP JUMP JUMPDEST PUSH32 0x4E487B7100000000000000000000000000000000000000000000000000000000 PUSH1 0x0 MSTORE PUSH1 0x41 PUSH1 0x4 MSTORE PUSH1 0x24 PUSH1 0x0 REVERT JUMPDEST PUSH3 0x292 DUP3 PUSH3 0x247 JUMP JUMPDEST DUP2 ADD DUP2 DUP2 LT PUSH8 0xFFFFFFFFFFFFFFFF DUP3 GT OR ISZERO PUSH3 0x2B4 JUMPI PUSH3 0x2B3 PUSH3 0x258 JUMP JUMPDEST JUMPDEST DUP1 PUSH1 0x40 MSTORE POP POP POP JUMP JUMPDEST PUSH1 0x0 PUSH3 0x2C9 PUSH3 0x229 JUMP JUMPDEST SWAP1 POP PUSH3 0x2D7 DUP3 DUP3 PUSH3 0x287 JUMP JUMPDEST SWAP2 SWAP1 POP JUMP JUMPDEST PUSH1 0x0 PUSH8 0xFFFFFFFFFFFFFFFF DUP3 GT ISZERO PUSH3 0x2FA JUMPI PUSH3 0x2F9 PUSH3 0x258 JUMP JUMPDEST JUMPDEST PUSH3 0x305 DUP3 PUSH3 0x247 JUMP JUMPDEST SWAP1 POP PUSH1 0x20 DUP2 ADD SWAP1 POP SWAP2 SWAP1 POP JUMP JUMPDEST PUSH1 0x0 JUMPDEST DUP4 DUP2 LT ISZERO PUSH3 0x332 JUMPI DUP1 DUP3 ADD MLOAD DUP2 DUP5 ADD MSTORE PUSH1 0x20 DUP2 ADD SWAP1 POP PUSH3 0x315 JUMP JUMPDEST DUP4 DUP2 GT ISZERO PUSH3 0x342 JUMPI PUSH1 0x0 DUP5 DUP5 ADD MSTORE JUMPDEST POP POP POP POP JUMP JUMPDEST PUSH1 0x0 PUSH3 0x35F PUSH3 0x359 DUP5 PUSH3 0x2DC JUMP JUMPDEST PUSH3 0x2BD JUMP JUMPDEST SWAP1 POP DUP3 DUP2 MSTORE PUSH1 0x20 DUP2 ADD DUP5 DUP5 DUP5 ADD GT ISZERO PUSH3 0x37E JUMPI PUSH3 0x37D PUSH3 0x242 JUMP JUMPDEST JUMPDEST PUSH3 0x38B DUP5 DUP3 DUP6 PUSH3 0x312 JUMP JUMPDEST POP SWAP4 SWAP3 POP POP POP JUMP JUMPDEST PUSH1 0x0 DUP3 PUSH1 0x1F DUP4 ADD SLT PUSH3 0x3AB JUMPI PUSH3 0x3AA PUSH3 0x23D JUMP JUMPDEST JUMPDEST DUP2 MLOAD PUSH3 0x3BD DUP5 DUP3 PUSH1 0x20 DUP7 ADD PUSH3 0x348 JUMP JUMPDEST SWAP2 POP POP SWAP3 SWAP2 POP POP JUMP JUMPDEST PUSH1 0x0 DUP1 PUSH1 0x40 DUP4 DUP6 SUB SLT ISZERO PUSH3 0x3E0 JUMPI PUSH3 0x3DF PUSH3 0x233 JUMP JUMPDEST JUMPDEST PUSH1 0x0 DUP4 ADD MLOAD PUSH8 0xFFFFFFFFFFFFFFFF DUP2 GT ISZERO PUSH3 0x401 JUMPI PUSH3 0x400 PUSH3 0x238 JUMP JUMPDEST JUMPDEST PUSH3 0x40F DUP6 DUP3 DUP7 ADD PUSH3 0x393 JUMP JUMPDEST SWAP3 POP POP PUSH1 0x20 DUP4 ADD MLOAD PUSH8 0xFFFFFFFFFFFFFFFF DUP2 GT ISZERO PUSH3 0x433 JUMPI PUSH3 0x432 PUSH3 0x238 JUMP JUMPDEST JUMPDEST PUSH3 0x441 DUP6 DUP3 DUP7 ADD PUSH3 0x393 JUMP JUMPDEST SWAP2 POP POP SWAP3 POP SWAP3 SWAP1 POP JUMP JUMPDEST PUSH32 0x4E487B7100000000000000000000000000000000000000000000000000000000 PUSH1 0x0 MSTORE PUSH1 0x22 PUSH1 0x4 MSTORE PUSH1 0x24 PUSH1 0x0 REVERT JUMPDEST PUSH1 0x0 PUSH1 0x2 DUP3 DIV SWAP1 POP PUSH1 0x1 DUP3 AND DUP1 PUSH3 0x493 JUMPI PUSH1 0x7F DUP3 AND SWAP2 POP JUMPDEST PUSH1 0x20 DUP3 LT DUP2 SUB PUSH3 0x4A9 JUMPI PUSH3 0x4A8 PUSH3 0x44B JUMP JUMPDEST JUMPDEST POP SWAP2 SWAP1 POP JUMP JUMPDEST PUSH2 0x19EF DUP1 PUSH3 0x4BF PUSH1 0x0 CODECOPY PUSH1 0x0 RETURN INVALID PUSH1 0x80 PUSH1 0x40 MSTORE CALLVALUE DUP1 ISZERO PUSH2 0x10 JUMPI PUSH1 0x0 DUP1 REVERT JUMPDEST POP PUSH1 0x4 CALLDATASIZE LT PUSH2 0x100 JUMPI PUSH1 0x0 CALLDATALOAD PUSH1 0xE0 SHR DUP1 PUSH4 0x893D20E8 GT PUSH2 0x97 JUMPI DUP1 PUSH4 0xA457C2D7 GT PUSH2 0x66 JUMPI DUP1 PUSH4 0xA457C2D7 EQ PUSH2 0x2B3 JUMPI DUP1 PUSH4 0xA9059CBB EQ PUSH2 0x2E3 JUMPI DUP1 PUSH4 0xDD62ED3E EQ PUSH2 0x313 JUMPI DUP1 PUSH4 0xF2FDE38B EQ PUSH2 0x343 JUMPI PUSH2 0x100 JUMP JUMPDEST DUP1 PUSH4 0x893D20E8 EQ PUSH2 0x229 JUMPI DUP1 PUSH4 0x8DA5CB5B EQ PUSH2 0x247 JUMPI DUP1 PUSH4 0x95D89B41 EQ PUSH2 0x265 JUMPI DUP1 PUSH4 0xA0712D68 EQ PUSH2 0x283 JUMPI PUSH2 0x100 JUMP JUMPDEST DUP1 PUSH4 0x313CE567 GT PUSH2 0xD3 JUMPI DUP1 PUSH4 0x313CE567 EQ PUSH2 0x1A1 JUMPI DUP1 PUSH4 0x39509351 EQ PUSH2 0x1BF JUMPI DUP1 PUSH4 0x70A08231 EQ PUSH2 0x1EF JUMPI DUP1 PUSH4 0x715018A6 EQ PUSH2 0x21F JUMPI PUSH2 0x100 JUMP JUMPDEST DUP1 PUSH4 0x6FDDE03 EQ PUSH2 0x105 JUMPI DUP1 PUSH4 0x95EA7B3 EQ PUSH2 0x123 JUMPI DUP1 PUSH4 0x18160DDD EQ PUSH2 0x153 JUMPI DUP1 PUSH4 0x23B872DD EQ PUSH2 0x171 JUMPI JUMPDEST PUSH1 0x0 DUP1 REVERT JUMPDEST PUSH2 0x10D PUSH2 0x35F JUMP JUMPDEST PUSH1 0x40 MLOAD PUSH2 0x11A SWAP2 SWAP1 PUSH2 0x1206 JUMP JUMPDEST PUSH1 0x40 MLOAD DUP1 SWAP2 SUB SWAP1 RETURN JUMPDEST PUSH2 0x13D PUSH1 0x4 DUP1 CALLDATASIZE SUB DUP2 ADD SWAP1 PUSH2 0x138 SWAP2 SWAP1 PUSH2 0x12C1 JUMP JUMPDEST PUSH2 0x3F1 JUMP JUMPDEST PUSH1 0x40 MLOAD PUSH2 0x14A SWAP2 SWAP1 PUSH2 0x131C JUMP JUMPDEST PUSH1 0x40 MLOAD DUP1 SWAP2 SUB SWAP1 RETURN JUMPDEST PUSH2 0x15B PUSH2 0x40F JUMP JUMPDEST PUSH1 0x40 MLOAD PUSH2 0x168 SWAP2 SWAP1 PUSH2 0x1346 JUMP JUMPDEST PUSH1 0x40 MLOAD DUP1 SWAP2 SUB SWAP1 RETURN JUMPDEST PUSH2 0x18B PUSH1 0x4 DUP1 CALLDATASIZE SUB DUP2 ADD SWAP1 PUSH2 0x186 SWAP2 SWAP1 PUSH2 0x1361 JUMP JUMPDEST PUSH2 0x419 JUMP JUMPDEST PUSH1 0x40 MLOAD PUSH2 0x198 SWAP2 SWAP1 PUSH2 0x131C JUMP JUMPDEST PUSH1 0x40 MLOAD DUP1 SWAP2 SUB SWAP1 RETURN JUMPDEST PUSH2 0x1A9 PUSH2 0x4F2 JUMP JUMPDEST PUSH1 0x40 MLOAD PUSH2 0x1B6 SWAP2 SWAP1 PUSH2 0x13D0 JUMP JUMPDEST PUSH1 0x40 MLOAD DUP1 SWAP2 SUB SWAP1 RETURN JUMPDEST PUSH2 0x1D9 PUSH1 0x4 DUP1 CALLDATASIZE SUB DUP2 ADD SWAP1 PUSH2 0x1D4 SWAP2 SWAP1 PUSH2 0x12C1 JUMP JUMPDEST PUSH2 0x509 JUMP JUMPDEST PUSH1 0x40 MLOAD PUSH2 0x1E6 SWAP2 SWAP1 PUSH2 0x131C JUMP JUMPDEST PUSH1 0x40 MLOAD DUP1 SWAP2 SUB SWAP1 RETURN JUMPDEST PUSH2 0x209 PUSH1 0x4 DUP1 CALLDATASIZE SUB DUP2 ADD SWAP1 PUSH2 0x204 SWAP2 SWAP1 PUSH2 0x13EB JUMP JUMPDEST PUSH2 0x5BC JUMP JUMPDEST PUSH1 0x40 MLOAD PUSH2 0x216 SWAP2 SWAP1 PUSH2 0x1346 JUMP JUMPDEST PUSH1 0x40 MLOAD DUP1 SWAP2 SUB SWAP1 RETURN JUMPDEST PUSH2 0x227 PUSH2 0x605 JUMP JUMPDEST STOP JUMPDEST PUSH2 0x231 PUSH2 0x68D JUMP JUMPDEST PUSH1 0x40 MLOAD PUSH2 0x23E SWAP2 SWAP1 PUSH2 0x1427 JUMP JUMPDEST PUSH1 0x40 MLOAD DUP1 SWAP2 SUB SWAP1 RETURN JUMPDEST PUSH2 0x24F PUSH2 0x69C JUMP JUMPDEST PUSH1 0x40 MLOAD PUSH2 0x25C SWAP2 SWAP1 PUSH2 0x1427 JUMP JUMPDEST PUSH1 0x40 MLOAD DUP1 SWAP2 SUB SWAP1 RETURN JUMPDEST PUSH2 0x26D PUSH2 0x6C5 JUMP JUMPDEST PUSH1 0x40 MLOAD PUSH2 0x27A SWAP2 SWAP1 PUSH2 0x1206 JUMP JUMPDEST PUSH1 0x40 MLOAD DUP1 SWAP2 SUB SWAP1 RETURN JUMPDEST PUSH2 0x29D PUSH1 0x4 DUP1 CALLDATASIZE SUB DUP2 ADD SWAP1 PUSH2 0x298 SWAP2 SWAP1 PUSH2 0x1442 JUMP JUMPDEST PUSH2 0x757 JUMP JUMPDEST PUSH1 0x40 MLOAD PUSH2 0x2AA SWAP2 SWAP1 PUSH2 0x131C JUMP JUMPDEST PUSH1 0x40 MLOAD DUP1 SWAP2 SUB SWAP1 RETURN JUMPDEST PUSH2 0x2CD PUSH1 0x4 DUP1 CALLDATASIZE SUB DUP2 ADD SWAP1 PUSH2 0x2C8 SWAP2 SWAP1 PUSH2 0x12C1 JUMP JUMPDEST PUSH2 0x7EF JUMP JUMPDEST PUSH1 0x40 MLOAD PUSH2 0x2DA SWAP2 SWAP1 PUSH2 0x131C JUMP JUMPDEST PUSH1 0x40 MLOAD DUP1 SWAP2 SUB SWAP1 RETURN JUMPDEST PUSH2 0x2FD PUSH1 0x4 DUP1 CALLDATASIZE SUB DUP2 ADD SWAP1 PUSH2 0x2F8 SWAP2 SWAP1 PUSH2 0x12C1 JUMP JUMPDEST PUSH2 0x8BC JUMP JUMPDEST PUSH1 0x40 MLOAD PUSH2 0x30A SWAP2 SWAP1 PUSH2 0x131C JUMP JUMPDEST PUSH1 0x40 MLOAD DUP1 SWAP2 SUB SWAP1 RETURN JUMPDEST PUSH2 0x32D PUSH1 0x4 DUP1 CALLDATASIZE SUB DUP2 ADD SWAP1 PUSH2 0x328 SWAP2 SWAP1 PUSH2 0x146F JUMP JUMPDEST PUSH2 0x8DA JUMP JUMPDEST PUSH1 0x40 MLOAD PUSH2 0x33A SWAP2 SWAP1 PUSH2 0x1346 JUMP JUMPDEST PUSH1 0x40 MLOAD DUP1 SWAP2 SUB SWAP1 RETURN JUMPDEST PUSH2 0x35D PUSH1 0x4 DUP1 CALLDATASIZE SUB DUP2 ADD SWAP1 PUSH2 0x358 SWAP2 SWAP1 PUSH2 0x13EB JUMP JUMPDEST PUSH2 0x961 JUMP JUMPDEST STOP JUMPDEST PUSH1 0x60 PUSH1 0x6 DUP1 SLOAD PUSH2 0x36E SWAP1 PUSH2 0x14DE JUMP JUMPDEST DUP1 PUSH1 0x1F ADD PUSH1 0x20 DUP1 SWAP2 DIV MUL PUSH1 0x20 ADD PUSH1 0x40 MLOAD SWAP1 DUP2 ADD PUSH1 0x40 MSTORE DUP1 SWAP3 SWAP2 SWAP1 DUP2 DUP2 MSTORE PUSH1 0x20 ADD DUP3 DUP1 SLOAD PUSH2 0x39A SWAP1 PUSH2 0x14DE JUMP JUMPDEST DUP1 ISZERO PUSH2 0x3E7 JUMPI DUP1 PUSH1 0x1F LT PUSH2 0x3BC JUMPI PUSH2 0x100 DUP1 DUP4 SLOAD DIV MUL DUP4 MSTORE SWAP2 PUSH1 0x20 ADD SWAP2 PUSH2 0x3E7 JUMP JUMPDEST DUP3 ADD SWAP2 SWAP1 PUSH1 0x0 MSTORE PUSH1 0x20 PUSH1 0x0 KECCAK256 SWAP1 JUMPDEST DUP2 SLOAD DUP2 MSTORE SWAP1 PUSH1 0x1 ADD SWAP1 PUSH1 0x20 ADD DUP1 DUP4 GT PUSH2 0x3CA JUMPI DUP3 SWAP1 SUB PUSH1 0x1F AND DUP3 ADD SWAP2 JUMPDEST POP POP POP POP POP SWAP1 POP SWAP1 JUMP JUMPDEST PUSH1 0x0 PUSH2 0x405 PUSH2 0x3FE PUSH2 0xA58 JUMP JUMPDEST DUP5 DUP5 PUSH2 0xA60 JUMP JUMPDEST PUSH1 0x1 SWAP1 POP SWAP3 SWAP2 POP POP JUMP JUMPDEST PUSH1 0x0 PUSH1 0x3 SLOAD SWAP1 POP SWAP1 JUMP JUMPDEST PUSH1 0x0 PUSH2 0x426 DUP5 DUP5 DUP5 PUSH2 0xC29 JUMP JUMPDEST PUSH2 0x4E7 DUP5 PUSH2 0x432 PUSH2 0xA58 JUMP JUMPDEST PUSH2 0x4E2 DUP6 PUSH1 0x40 MLOAD DUP1 PUSH1 0x60 ADD PUSH1 0x40 MSTORE DUP1 PUSH1 0x28 DUP2 MSTORE PUSH1 0x20 ADD PUSH2 0x1947 PUSH1 0x28 SWAP2 CODECOPY PUSH1 0x2 PUSH1 0x0 DUP12 PUSH20 0xFFFFFFFFFFFFFFFFFFFFFFFFFFFFFFFFFFFFFFFF AND PUSH20 0xFFFFFFFFFFFFFFFFFFFFFFFFFFFFFFFFFFFFFFFF AND DUP2 MSTORE PUSH1 0x20 ADD SWAP1 DUP2 MSTORE PUSH1 0x20 ADD PUSH1 0x0 KECCAK256 PUSH1 0x0 PUSH2 0x498 PUSH2 0xA58 JUMP JUMPDEST PUSH20 0xFFFFFFFFFFFFFFFFFFFFFFFFFFFFFFFFFFFFFFFF AND PUSH20 0xFFFFFFFFFFFFFFFFFFFFFFFFFFFFFFFFFFFFFFFF AND DUP2 MSTORE PUSH1 0x20 ADD SWAP1 DUP2 MSTORE PUSH1 0x20 ADD PUSH1 0x0 KECCAK256 SLOAD PUSH2 0xEB5 SWAP1 SWAP3 SWAP2 SWAP1 PUSH4 0xFFFFFFFF AND JUMP JUMPDEST PUSH2 0xA60 JUMP JUMPDEST PUSH1 0x1 SWAP1 POP SWAP4 SWAP3 POP POP POP JUMP JUMPDEST PUSH1 0x0 PUSH1 0x4 PUSH1 0x0 SWAP1 SLOAD SWAP1 PUSH2 0x100 EXP SWAP1 DIV PUSH1 0xFF AND SWAP1 POP SWAP1 JUMP JUMPDEST PUSH1 0x0 PUSH2 0x5B2 PUSH2 0x516 PUSH2 0xA58 JUMP JUMPDEST DUP5 PUSH2 0x5AD DUP6 PUSH1 0x2 PUSH1 0x0 PUSH2 0x527 PUSH2 0xA58 JUMP JUMPDEST PUSH20 0xFFFFFFFFFFFFFFFFFFFFFFFFFFFFFFFFFFFFFFFF AND PUSH20 0xFFFFFFFFFFFFFFFFFFFFFFFFFFFFFFFFFFFFFFFF AND DUP2 MSTORE PUSH1 0x20 ADD SWAP1 DUP2 MSTORE PUSH1 0x20 ADD PUSH1 0x0 KECCAK256 PUSH1 0x0 DUP10 PUSH20 0xFFFFFFFFFFFFFFFFFFFFFFFFFFFFFFFFFFFFFFFF AND PUSH20 0xFFFFFFFFFFFFFFFFFFFFFFFFFFFFFFFFFFFFFFFF AND DUP2 MSTORE PUSH1 0x20 ADD SWAP1 DUP2 MSTORE PUSH1 0x20 ADD PUSH1 0x0 KECCAK256 SLOAD PUSH2 0xF0A SWAP1 SWAP2 SWAP1 PUSH4 0xFFFFFFFF AND JUMP JUMPDEST PUSH2 0xA60 JUMP JUMPDEST PUSH1 0x1 SWAP1 POP SWAP3 SWAP2 POP POP JUMP JUMPDEST PUSH1 0x0 PUSH1 0x1 PUSH1 0x0 DUP4 PUSH20 0xFFFFFFFFFFFFFFFFFFFFFFFFFFFFFFFFFFFFFFFF AND PUSH20 0xFFFFFFFFFFFFFFFFFFFFFFFFFFFFFFFFFFFFFFFF AND DUP2 MSTORE PUSH1 0x20 ADD SWAP1 DUP2 MSTORE PUSH1 0x20 ADD PUSH1 0x0 KECCAK256 SLOAD SWAP1 POP SWAP2 SWAP1 POP JUMP JUMPDEST PUSH2 0x60D PUSH2 0xA58 JUMP JUMPDEST PUSH20 0xFFFFFFFFFFFFFFFFFFFFFFFFFFFFFFFFFFFFFFFF AND PUSH2 0x62B PUSH2 0x69C JUMP JUMPDEST PUSH20 0xFFFFFFFFFFFFFFFFFFFFFFFFFFFFFFFFFFFFFFFF AND EQ PUSH2 0x681 JUMPI PUSH1 0x40 MLOAD PUSH32 0x8C379A000000000000000000000000000000000000000000000000000000000 DUP2 MSTORE PUSH1 0x4 ADD PUSH2 0x678 SWAP1 PUSH2 0x155B JUMP JUMPDEST PUSH1 0x40 MLOAD DUP1 SWAP2 SUB SWAP1 REVERT JUMPDEST PUSH2 0x68B PUSH1 0x0 PUSH2 0xF20 JUMP JUMPDEST JUMP JUMPDEST PUSH1 0x0 PUSH2 0x697 PUSH2 0x69C JUMP JUMPDEST SWAP1 POP SWAP1 JUMP JUMPDEST PUSH1 0x0 DUP1 PUSH1 0x0 SWAP1 SLOAD SWAP1 PUSH2 0x100 EXP SWAP1 DIV PUSH20 0xFFFFFFFFFFFFFFFFFFFFFFFFFFFFFFFFFFFFFFFF AND SWAP1 POP SWAP1 JUMP JUMPDEST PUSH1 0x60 PUSH1 0x5 DUP1 SLOAD PUSH2 0x6D4 SWAP1 PUSH2 0x14DE JUMP JUMPDEST DUP1 PUSH1 0x1F ADD PUSH1 0x20 DUP1 SWAP2 DIV MUL PUSH1 0x20 ADD PUSH1 0x40 MLOAD SWAP1 DUP2 ADD PUSH1 0x40 MSTORE DUP1 SWAP3 SWAP2 SWAP1 DUP2 DUP2 MSTORE PUSH1 0x20 ADD DUP3 DUP1 SLOAD PUSH2 0x700 SWAP1 PUSH2 0x14DE JUMP JUMPDEST DUP1 ISZERO PUSH2 0x74D JUMPI DUP1 PUSH1 0x1F LT PUSH2 0x722 JUMPI PUSH2 0x100 DUP1 DUP4 SLOAD DIV MUL DUP4 MSTORE SWAP2 PUSH1 0x20 ADD SWAP2 PUSH2 0x74D JUMP JUMPDEST DUP3 ADD SWAP2 SWAP1 PUSH1 0x0 MSTORE PUSH1 0x20 PUSH1 0x0 KECCAK256 SWAP1 JUMPDEST DUP2 SLOAD DUP2 MSTORE SWAP1 PUSH1 0x1 ADD SWAP1 PUSH1 0x20 ADD DUP1 DUP4 GT PUSH2 0x730 JUMPI DUP3 SWAP1 SUB PUSH1 0x1F AND DUP3 ADD SWAP2 JUMPDEST POP POP POP POP POP SWAP1 POP SWAP1 JUMP JUMPDEST PUSH1 0x0 PUSH2 0x761 PUSH2 0xA58 JUMP JUMPDEST PUSH20 0xFFFFFFFFFFFFFFFFFFFFFFFFFFFFFFFFFFFFFFFF AND PUSH2 0x77F PUSH2 0x69C JUMP JUMPDEST PUSH20 0xFFFFFFFFFFFFFFFFFFFFFFFFFFFFFFFFFFFFFFFF AND EQ PUSH2 0x7D5 JUMPI PUSH1 0x40 MLOAD PUSH32 0x8C379A000000000000000000000000000000000000000000000000000000000 DUP2 MSTORE PUSH1 0x4 ADD PUSH2 0x7CC SWAP1 PUSH2 0x155B JUMP JUMPDEST PUSH1 0x40 MLOAD DUP1 SWAP2 SUB SWAP1 REVERT JUMPDEST PUSH2 0x7E6 PUSH2 0x7E0 PUSH2 0xA58 JUMP JUMPDEST DUP4 PUSH2 0xFE4 JUMP JUMPDEST PUSH1 0x1 SWAP1 POP SWAP2 SWAP1 POP JUMP JUMPDEST PUSH1 0x0 PUSH2 0x8B2 PUSH2 0x7FC PUSH2 0xA58 JUMP JUMPDEST DUP5 PUSH2 0x8AD DUP6 PUSH1 0x40 MLOAD DUP1 PUSH1 0x60 ADD PUSH1 0x40 MSTORE DUP1 PUSH1 0x25 DUP2 MSTORE PUSH1 0x20 ADD PUSH2 0x1995 PUSH1 0x25 SWAP2 CODECOPY PUSH1 0x2 PUSH1 0x0 PUSH2 0x826 PUSH2 0xA58 JUMP JUMPDEST PUSH20 0xFFFFFFFFFFFFFFFFFFFFFFFFFFFFFFFFFFFFFFFF AND PUSH20 0xFFFFFFFFFFFFFFFFFFFFFFFFFFFFFFFFFFFFFFFF AND DUP2 MSTORE PUSH1 0x20 ADD SWAP1 DUP2 MSTORE PUSH1 0x20 ADD PUSH1 0x0 KECCAK256 PUSH1 0x0 DUP11 PUSH20 0xFFFFFFFFFFFFFFFFFFFFFFFFFFFFFFFFFFFFFFFF AND PUSH20 0xFFFFFFFFFFFFFFFFFFFFFFFFFFFFFFFFFFFFFFFF AND DUP2 MSTORE PUSH1 0x20 ADD SWAP1 DUP2 MSTORE PUSH1 0x20 ADD PUSH1 0x0 KECCAK256 SLOAD PUSH2 0xEB5 SWAP1 SWAP3 SWAP2 SWAP1 PUSH4 0xFFFFFFFF AND JUMP JUMPDEST PUSH2 0xA60 JUMP JUMPDEST PUSH1 0x1 SWAP1 POP SWAP3 SWAP2 POP POP JUMP JUMPDEST PUSH1 0x0 PUSH2 0x8D0 PUSH2 0x8C9 PUSH2 0xA58 JUMP JUMPDEST DUP5 DUP5 PUSH2 0xC29 JUMP JUMPDEST PUSH1 0x1 SWAP1 POP SWAP3 SWAP2 POP POP JUMP JUMPDEST PUSH1 0x0 PUSH1 0x2 PUSH1 0x0 DUP5 PUSH20 0xFFFFFFFFFFFFFFFFFFFFFFFFFFFFFFFFFFFFFFFF AND PUSH20 0xFFFFFFFFFFFFFFFFFFFFFFFFFFFFFFFFFFFFFFFF AND DUP2 MSTORE PUSH1 0x20 ADD SWAP1 DUP2 MSTORE PUSH1 0x20 ADD PUSH1 0x0 KECCAK256 PUSH1 0x0 DUP4 PUSH20 0xFFFFFFFFFFFFFFFFFFFFFFFFFFFFFFFFFFFFFFFF AND PUSH20 0xFFFFFFFFFFFFFFFFFFFFFFFFFFFFFFFFFFFFFFFF AND DUP2 MSTORE PUSH1 0x20 ADD SWAP1 DUP2 MSTORE PUSH1 0x20 ADD PUSH1 0x0 KECCAK256 SLOAD SWAP1 POP SWAP3 SWAP2 POP POP JUMP JUMPDEST PUSH2 0x969 PUSH2 0xA58 JUMP JUMPDEST PUSH20 0xFFFFFFFFFFFFFFFFFFFFFFFFFFFFFFFFFFFFFFFF AND PUSH2 0x987 PUSH2 0x69C JUMP JUMPDEST PUSH20 0xFFFFFFFFFFFFFFFFFFFFFFFFFFFFFFFFFFFFFFFF AND EQ PUSH2 0x9DD JUMPI PUSH1 0x40 MLOAD PUSH32 0x8C379A000000000000000000000000000000000000000000000000000000000 DUP2 MSTORE PUSH1 0x4 ADD PUSH2 0x9D4 SWAP1 PUSH2 0x155B JUMP JUMPDEST PUSH1 0x40 MLOAD DUP1 SWAP2 SUB SWAP1 REVERT JUMPDEST PUSH1 0x0 PUSH20 0xFFFFFFFFFFFFFFFFFFFFFFFFFFFFFFFFFFFFFFFF AND DUP2 PUSH20 0xFFFFFFFFFFFFFFFFFFFFFFFFFFFFFFFFFFFFFFFF AND SUB PUSH2 0xA4C JUMPI PUSH1 0x40 MLOAD PUSH32 0x8C379A000000000000000000000000000000000000000000000000000000000 DUP2 MSTORE PUSH1 0x4 ADD PUSH2 0xA43 SWAP1 PUSH2 0x15ED JUMP JUMPDEST PUSH1 0x40 MLOAD DUP1 SWAP2 SUB SWAP1 REVERT JUMPDEST PUSH2 0xA55 DUP2 PUSH2 0xF20 JUMP JUMPDEST POP JUMP JUMPDEST PUSH1 0x0 CALLER SWAP1 POP SWAP1 JUMP JUMPDEST PUSH1 0x0 PUSH20 0xFFFFFFFFFFFFFFFFFFFFFFFFFFFFFFFFFFFFFFFF AND DUP4 PUSH20 0xFFFFFFFFFFFFFFFFFFFFFFFFFFFFFFFFFFFFFFFF AND SUB PUSH2 0xACF JUMPI PUSH1 0x40 MLOAD PUSH32 0x8C379A000000000000000000000000000000000000000000000000000000000 DUP2 MSTORE PUSH1 0x4 ADD PUSH2 0xAC6 SWAP1 PUSH2 0x167F JUMP JUMPDEST PUSH1 0x40 MLOAD DUP1 SWAP2 SUB SWAP1 REVERT JUMPDEST PUSH1 0x0 PUSH20 0xFFFFFFFFFFFFFFFFFFFFFFFFFFFFFFFFFFFFFFFF AND DUP3 PUSH20 0xFFFFFFFFFFFFFFFFFFFFFFFFFFFFFFFFFFFFFFFF AND SUB PUSH2 0xB3E JUMPI PUSH1 0x40 MLOAD PUSH32 0x8C379A000000000000000000000000000000000000000000000000000000000 DUP2 MSTORE PUSH1 0x4 ADD PUSH2 0xB35 SWAP1 PUSH2 0x1711 JUMP JUMPDEST PUSH1 0x40 MLOAD DUP1 SWAP2 SUB SWAP1 REVERT JUMPDEST DUP1 PUSH1 0x2 PUSH1 0x0 DUP6 PUSH20 0xFFFFFFFFFFFFFFFFFFFFFFFFFFFFFFFFFFFFFFFF AND PUSH20 0xFFFFFFFFFFFFFFFFFFFFFFFFFFFFFFFFFFFFFFFF AND DUP2 MSTORE PUSH1 0x20 ADD SWAP1 DUP2 MSTORE PUSH1 0x20 ADD PUSH1 0x0 KECCAK256 PUSH1 0x0 DUP5 PUSH20 0xFFFFFFFFFFFFFFFFFFFFFFFFFFFFFFFFFFFFFFFF AND PUSH20 0xFFFFFFFFFFFFFFFFFFFFFFFFFFFFFFFFFFFFFFFF AND DUP2 MSTORE PUSH1 0x20 ADD SWAP1 DUP2 MSTORE PUSH1 0x20 ADD PUSH1 0x0 KECCAK256 DUP2 SWAP1 SSTORE POP DUP2 PUSH20 0xFFFFFFFFFFFFFFFFFFFFFFFFFFFFFFFFFFFFFFFF AND DUP4 PUSH20 0xFFFFFFFFFFFFFFFFFFFFFFFFFFFFFFFFFFFFFFFF AND PUSH32 0x8C5BE1E5EBEC7D5BD14F71427D1E84F3DD0314C0F7B2291E5B200AC8C7C3B925 DUP4 PUSH1 0x40 MLOAD PUSH2 0xC1C SWAP2 SWAP1 PUSH2 0x1346 JUMP JUMPDEST PUSH1 0x40 MLOAD DUP1 SWAP2 SUB SWAP1 LOG3 POP POP POP JUMP JUMPDEST PUSH1 0x0 PUSH20 0xFFFFFFFFFFFFFFFFFFFFFFFFFFFFFFFFFFFFFFFF AND DUP4 PUSH20 0xFFFFFFFFFFFFFFFFFFFFFFFFFFFFFFFFFFFFFFFF AND SUB PUSH2 0xC98 JUMPI PUSH1 0x40 MLOAD PUSH32 0x8C379A000000000000000000000000000000000000000000000000000000000 DUP2 MSTORE PUSH1 0x4 ADD PUSH2 0xC8F SWAP1 PUSH2 0x17A3 JUMP JUMPDEST PUSH1 0x40 MLOAD DUP1 SWAP2 SUB SWAP1 REVERT JUMPDEST PUSH1 0x0 PUSH20 0xFFFFFFFFFFFFFFFFFFFFFFFFFFFFFFFFFFFFFFFF AND DUP3 PUSH20 0xFFFFFFFFFFFFFFFFFFFFFFFFFFFFFFFFFFFFFFFF AND SUB PUSH2 0xD07 JUMPI PUSH1 0x40 MLOAD PUSH32 0x8C379A000000000000000000000000000000000000000000000000000000000 DUP2 MSTORE PUSH1 0x4 ADD PUSH2 0xCFE SWAP1 PUSH2 0x1835 JUMP JUMPDEST PUSH1 0x40 MLOAD DUP1 SWAP2 SUB SWAP1 REVERT JUMPDEST PUSH2 0xD73 DUP2 PUSH1 0x40 MLOAD DUP1 PUSH1 0x60 ADD PUSH1 0x40 MSTORE DUP1 PUSH1 0x26 DUP2 MSTORE PUSH1 0x20 ADD PUSH2 0x196F PUSH1 0x26 SWAP2 CODECOPY PUSH1 0x1 PUSH1 0x0 DUP8 PUSH20 0xFFFFFFFFFFFFFFFFFFFFFFFFFFFFFFFFFFFFFFFF AND PUSH20 0xFFFFFFFFFFFFFFFFFFFFFFFFFFFFFFFFFFFFFFFF AND DUP2 MSTORE PUSH1 0x20 ADD SWAP1 DUP2 MSTORE PUSH1 0x20 ADD PUSH1 0x0 KECCAK256 SLOAD PUSH2 0xEB5 SWAP1 SWAP3 SWAP2 SWAP1 PUSH4 0xFFFFFFFF AND JUMP JUMPDEST PUSH1 0x1 PUSH1 0x0 DUP6 PUSH20 0xFFFFFFFFFFFFFFFFFFFFFFFFFFFFFFFFFFFFFFFF AND PUSH20 0xFFFFFFFFFFFFFFFFFFFFFFFFFFFFFFFFFFFFFFFF AND DUP2 MSTORE PUSH1 0x20 ADD SWAP1 DUP2 MSTORE PUSH1 0x20 ADD PUSH1 0x0 KECCAK256 DUP2 SWAP1 SSTORE POP PUSH2 0xE08 DUP2 PUSH1 0x1 PUSH1 0x0 DUP6 PUSH20 0xFFFFFFFFFFFFFFFFFFFFFFFFFFFFFFFFFFFFFFFF AND PUSH20 0xFFFFFFFFFFFFFFFFFFFFFFFFFFFFFFFFFFFFFFFF AND DUP2 MSTORE PUSH1 0x20 ADD SWAP1 DUP2 MSTORE PUSH1 0x20 ADD PUSH1 0x0 KECCAK256 SLOAD PUSH2 0xF0A SWAP1 SWAP2 SWAP1 PUSH4 0xFFFFFFFF AND JUMP JUMPDEST PUSH1 0x1 PUSH1 0x0 DUP5 PUSH20 0xFFFFFFFFFFFFFFFFFFFFFFFFFFFFFFFFFFFFFFFF AND PUSH20 0xFFFFFFFFFFFFFFFFFFFFFFFFFFFFFFFFFFFFFFFF AND DUP2 MSTORE PUSH1 0x20 ADD SWAP1 DUP2 MSTORE PUSH1 0x20 ADD PUSH1 0x0 KECCAK256 DUP2 SWAP1 SSTORE POP DUP2 PUSH20 0xFFFFFFFFFFFFFFFFFFFFFFFFFFFFFFFFFFFFFFFF AND DUP4 PUSH20 0xFFFFFFFFFFFFFFFFFFFFFFFFFFFFFFFFFFFFFFFF AND PUSH32 0xDDF252AD1BE2C89B69C2B068FC378DAA952BA7F163C4A11628F55A4DF523B3EF DUP4 PUSH1 0x40 MLOAD PUSH2 0xEA8 SWAP2 SWAP1 PUSH2 0x1346 JUMP JUMPDEST PUSH1 0x40 MLOAD DUP1 SWAP2 SUB SWAP1 LOG3 POP POP POP JUMP JUMPDEST PUSH1 0x0 DUP4 DUP4 GT ISZERO DUP3 SWAP1 PUSH2 0xEFD JUMPI PUSH1 0x40 MLOAD PUSH32 0x8C379A000000000000000000000000000000000000000000000000000000000 DUP2 MSTORE PUSH1 0x4 ADD PUSH2 0xEF4 SWAP2 SWAP1 PUSH2 0x1206 JUMP JUMPDEST PUSH1 0x40 MLOAD DUP1 SWAP2 SUB SWAP1 REVERT JUMPDEST POP DUP3 DUP5 SUB SWAP1 POP SWAP4 SWAP3 POP POP POP JUMP JUMPDEST PUSH1 0x0 DUP2 DUP4 PUSH2 0xF18 SWAP2 SWAP1 PUSH2 0x1884 JUMP JUMPDEST SWAP1 POP SWAP3 SWAP2 POP POP JUMP JUMPDEST PUSH1 0x0 DUP1 PUSH1 0x0 SWAP1 SLOAD SWAP1 PUSH2 0x100 EXP SWAP1 DIV PUSH20 0xFFFFFFFFFFFFFFFFFFFFFFFFFFFFFFFFFFFFFFFF AND SWAP1 POP DUP2 PUSH1 0x0 DUP1 PUSH2 0x100 EXP DUP2 SLOAD DUP2 PUSH20 0xFFFFFFFFFFFFFFFFFFFFFFFFFFFFFFFFFFFFFFFF MUL NOT AND SWAP1 DUP4 PUSH20 0xFFFFFFFFFFFFFFFFFFFFFFFFFFFFFFFFFFFFFFFF AND MUL OR SWAP1 SSTORE POP DUP2 PUSH20 0xFFFFFFFFFFFFFFFFFFFFFFFFFFFFFFFFFFFFFFFF AND DUP2 PUSH20 0xFFFFFFFFFFFFFFFFFFFFFFFFFFFFFFFFFFFFFFFF AND PUSH32 0x8BE0079C531659141344CD1FD0A4F28419497F9722A3DAAFE3B4186F6B6457E0 PUSH1 0x40 MLOAD PUSH1 0x40 MLOAD DUP1 SWAP2 SUB SWAP1 LOG3 POP POP JUMP JUMPDEST PUSH1 0x0 PUSH20 0xFFFFFFFFFFFFFFFFFFFFFFFFFFFFFFFFFFFFFFFF AND DUP3 PUSH20 0xFFFFFFFFFFFFFFFFFFFFFFFFFFFFFFFFFFFFFFFF AND SUB PUSH2 0x1053 JUMPI PUSH1 0x40 MLOAD PUSH32 0x8C379A000000000000000000000000000000000000000000000000000000000 DUP2 MSTORE PUSH1 0x4 ADD PUSH2 0x104A SWAP1 PUSH2 0x1926 JUMP JUMPDEST PUSH1 0x40 MLOAD DUP1 SWAP2 SUB SWAP1 REVERT JUMPDEST PUSH2 0x1068 DUP2 PUSH1 0x3 SLOAD PUSH2 0xF0A SWAP1 SWAP2 SWAP1 PUSH4 0xFFFFFFFF AND JUMP JUMPDEST PUSH1 0x3 DUP2 SWAP1 SSTORE POP PUSH2 0x10C0 DUP2 PUSH1 0x1 PUSH1 0x0 DUP6 PUSH20 0xFFFFFFFFFFFFFFFFFFFFFFFFFFFFFFFFFFFFFFFF AND PUSH20 0xFFFFFFFFFFFFFFFFFFFFFFFFFFFFFFFFFFFFFFFF AND DUP2 MSTORE PUSH1 0x20 ADD SWAP1 DUP2 MSTORE PUSH1 0x20 ADD PUSH1 0x0 KECCAK256 SLOAD PUSH2 0xF0A SWAP1 SWAP2 SWAP1 PUSH4 0xFFFFFFFF AND JUMP JUMPDEST PUSH1 0x1 PUSH1 0x0 DUP5 PUSH20 0xFFFFFFFFFFFFFFFFFFFFFFFFFFFFFFFFFFFFFFFF AND PUSH20 0xFFFFFFFFFFFFFFFFFFFFFFFFFFFFFFFFFFFFFFFF AND DUP2 MSTORE PUSH1 0x20 ADD SWAP1 DUP2 MSTORE PUSH1 0x20 ADD PUSH1 0x0 KECCAK256 DUP2 SWAP1 SSTORE POP DUP2 PUSH20 0xFFFFFFFFFFFFFFFFFFFFFFFFFFFFFFFFFFFFFFFF AND PUSH1 0x0 PUSH20 0xFFFFFFFFFFFFFFFFFFFFFFFFFFFFFFFFFFFFFFFF AND PUSH32 0xDDF252AD1BE2C89B69C2B068FC378DAA952BA7F163C4A11628F55A4DF523B3EF DUP4 PUSH1 0x40 MLOAD PUSH2 0x1161 SWAP2 SWAP1 PUSH2 0x1346 JUMP JUMPDEST PUSH1 0x40 MLOAD DUP1 SWAP2 SUB SWAP1 LOG3 POP POP JUMP JUMPDEST PUSH1 0x0 DUP2 MLOAD SWAP1 POP SWAP2 SWAP1 POP JUMP JUMPDEST PUSH1 0x0 DUP3 DUP3 MSTORE PUSH1 0x20 DUP3 ADD SWAP1 POP SWAP3 SWAP2 POP POP JUMP JUMPDEST PUSH1 0x0 JUMPDEST DUP4 DUP2 LT ISZERO PUSH2 0x11A7 JUMPI DUP1 DUP3 ADD MLOAD DUP2 DUP5 ADD MSTORE PUSH1 0x20 DUP2 ADD SWAP1 POP PUSH2 0x118C JUMP JUMPDEST DUP4 DUP2 GT ISZERO PUSH2 0x11B6 JUMPI PUSH1 0x0 DUP5 DUP5 ADD MSTORE JUMPDEST POP POP POP POP JUMP JUMPDEST PUSH1 0x0 PUSH1 0x1F NOT PUSH1 0x1F DUP4 ADD AND SWAP1 POP SWAP2 SWAP1 POP JUMP JUMPDEST PUSH1 0x0 PUSH2 0x11D8 DUP3 PUSH2 0x116D JUMP JUMPDEST PUSH2 0x11E2 DUP2 DUP6 PUSH2 0x1178 JUMP JUMPDEST SWAP4 POP PUSH2 0x11F2 DUP2 DUP6 PUSH1 0x20 DUP7 ADD PUSH2 0x1189 JUMP JUMPDEST PUSH2 0x11FB DUP2 PUSH2 0x11BC JUMP JUMPDEST DUP5 ADD SWAP2 POP POP SWAP3 SWAP2 POP POP JUMP JUMPDEST PUSH1 0x0 PUSH1 0x20 DUP3 ADD SWAP1 POP DUP2 DUP2 SUB PUSH1 0x0 DUP4 ADD MSTORE PUSH2 0x1220 DUP2 DUP5 PUSH2 0x11CD JUMP JUMPDEST SWAP1 POP SWAP3 SWAP2 POP POP JUMP JUMPDEST PUSH1 0x0 DUP1 REVERT JUMPDEST PUSH1 0x0 PUSH20 0xFFFFFFFFFFFFFFFFFFFFFFFFFFFFFFFFFFFFFFFF DUP3 AND SWAP1 POP SWAP2 SWAP1 POP JUMP JUMPDEST PUSH1 0x0 PUSH2 0x1258 DUP3 PUSH2 0x122D JUMP JUMPDEST SWAP1 POP SWAP2 SWAP1 POP JUMP JUMPDEST PUSH2 0x1268 DUP2 PUSH2 0x124D JUMP JUMPDEST DUP2 EQ PUSH2 0x1273 JUMPI PUSH1 0x0 DUP1 REVERT JUMPDEST POP JUMP JUMPDEST PUSH1 0x0 DUP2 CALLDATALOAD SWAP1 POP PUSH2 0x1285 DUP2 PUSH2 0x125F JUMP JUMPDEST SWAP3 SWAP2 POP POP JUMP JUMPDEST PUSH1 0x0 DUP2 SWAP1 POP SWAP2 SWAP1 POP JUMP JUMPDEST PUSH2 0x129E DUP2 PUSH2 0x128B JUMP JUMPDEST DUP2 EQ PUSH2 0x12A9 JUMPI PUSH1 0x0 DUP1 REVERT JUMPDEST POP JUMP JUMPDEST PUSH1 0x0 DUP2 CALLDATALOAD SWAP1 POP PUSH2 0x12BB DUP2 PUSH2 0x1295 JUMP JUMPDEST SWAP3 SWAP2 POP POP JUMP JUMPDEST PUSH1 0x0 DUP1 PUSH1 0x40 DUP4 DUP6 SUB SLT ISZERO PUSH2 0x12D8 JUMPI PUSH2 0x12D7 PUSH2 0x1228 JUMP JUMPDEST JUMPDEST PUSH1 0x0 PUSH2 0x12E6 DUP6 DUP3 DUP7 ADD PUSH2 0x1276 JUMP JUMPDEST SWAP3 POP POP PUSH1 0x20 PUSH2 0x12F7 DUP6 DUP3 DUP7 ADD PUSH2 0x12AC JUMP JUMPDEST SWAP2 POP POP SWAP3 POP SWAP3 SWAP1 POP JUMP JUMPDEST PUSH1 0x0 DUP2 ISZERO ISZERO SWAP1 POP SWAP2 SWAP1 POP JUMP JUMPDEST PUSH2 0x1316 DUP2 PUSH2 0x1301 JUMP JUMPDEST DUP3 MSTORE POP POP JUMP JUMPDEST PUSH1 0x0 PUSH1 0x20 DUP3 ADD SWAP1 POP PUSH2 0x1331 PUSH1 0x0 DUP4 ADD DUP5 PUSH2 0x130D JUMP JUMPDEST SWAP3 SWAP2 POP POP JUMP JUMPDEST PUSH2 0x1340 DUP2 PUSH2 0x128B JUMP JUMPDEST DUP3 MSTORE POP POP JUMP JUMPDEST PUSH1 0x0 PUSH1 0x20 DUP3 ADD SWAP1 POP PUSH2 0x135B PUSH1 0x0 DUP4 ADD DUP5 PUSH2 0x1337 JUMP JUMPDEST SWAP3 SWAP2 POP POP JUMP JUMPDEST PUSH1 0x0 DUP1 PUSH1 0x0 PUSH1 0x60 DUP5 DUP7 SUB SLT ISZERO PUSH2 0x137A JUMPI PUSH2 0x1379 PUSH2 0x1228 JUMP JUMPDEST JUMPDEST PUSH1 0x0 PUSH2 0x1388 DUP7 DUP3 DUP8 ADD PUSH2 0x1276 JUMP JUMPDEST SWAP4 POP POP PUSH1 0x20 PUSH2 0x1399 DUP7 DUP3 DUP8 ADD PUSH2 0x1276 JUMP JUMPDEST SWAP3 POP POP PUSH1 0x40 PUSH2 0x13AA DUP7 DUP3 DUP8 ADD PUSH2 0x12AC JUMP JUMPDEST SWAP2 POP POP SWAP3 POP SWAP3 POP SWAP3 JUMP JUMPDEST PUSH1 0x0 PUSH1 0xFF DUP3 AND SWAP1 POP SWAP2 SWAP1 POP JUMP JUMPDEST PUSH2 0x13CA DUP2 PUSH2 0x13B4 JUMP JUMPDEST DUP3 MSTORE POP POP JUMP JUMPDEST PUSH1 0x0 PUSH1 0x20 DUP3 ADD SWAP1 POP PUSH2 0x13E5 PUSH1 0x0 DUP4 ADD DUP5 PUSH2 0x13C1 JUMP JUMPDEST SWAP3 SWAP2 POP POP JUMP JUMPDEST PUSH1 0x0 PUSH1 0x20 DUP3 DUP5 SUB SLT ISZERO PUSH2 0x1401 JUMPI PUSH2 0x1400 PUSH2 0x1228 JUMP JUMPDEST JUMPDEST PUSH1 0x0 PUSH2 0x140F DUP5 DUP3 DUP6 ADD PUSH2 0x1276 JUMP JUMPDEST SWAP2 POP POP SWAP3 SWAP2 POP POP JUMP JUMPDEST PUSH2 0x1421 DUP2 PUSH2 0x124D JUMP JUMPDEST DUP3 MSTORE POP POP JUMP JUMPDEST PUSH1 0x0 PUSH1 0x20 DUP3 ADD SWAP1 POP PUSH2 0x143C PUSH1 0x0 DUP4 ADD DUP5 PUSH2 0x1418 JUMP JUMPDEST SWAP3 SWAP2 POP POP JUMP JUMPDEST PUSH1 0x0 PUSH1 0x20 DUP3 DUP5 SUB SLT ISZERO PUSH2 0x1458 JUMPI PUSH2 0x1457 PUSH2 0x1228 JUMP JUMPDEST JUMPDEST PUSH1 0x0 PUSH2 0x1466 DUP5 DUP3 DUP6 ADD PUSH2 0x12AC JUMP JUMPDEST SWAP2 POP POP SWAP3 SWAP2 POP POP JUMP JUMPDEST PUSH1 0x0 DUP1 PUSH1 0x40 DUP4 DUP6 SUB SLT ISZERO PUSH2 0x1486 JUMPI PUSH2 0x1485 PUSH2 0x1228 JUMP JUMPDEST JUMPDEST PUSH1 0x0 PUSH2 0x1494 DUP6 DUP3 DUP7 ADD PUSH2 0x1276 JUMP JUMPDEST SWAP3 POP POP PUSH1 0x20 PUSH2 0x14A5 DUP6 DUP3 DUP7 ADD PUSH2 0x1276 JUMP JUMPDEST SWAP2 POP POP SWAP3 POP SWAP3 SWAP1 POP JUMP JUMPDEST PUSH32 0x4E487B7100000000000000000000000000000000000000000000000000000000 PUSH1 0x0 MSTORE PUSH1 0x22 PUSH1 0x4 MSTORE PUSH1 0x24 PUSH1 0x0 REVERT JUMPDEST PUSH1 0x0 PUSH1 0x2 DUP3 DIV SWAP1 POP PUSH1 0x1 DUP3 AND DUP1 PUSH2 0x14F6 JUMPI PUSH1 0x7F DUP3 AND SWAP2 POP JUMPDEST PUSH1 0x20 DUP3 LT DUP2 SUB PUSH2 0x1509 JUMPI PUSH2 0x1508 PUSH2 0x14AF JUMP JUMPDEST JUMPDEST POP SWAP2 SWAP1 POP JUMP JUMPDEST PUSH32 0x4F776E61626C653A2063616C6C6572206973206E6F7420746865206F776E6572 PUSH1 0x0 DUP3 ADD MSTORE POP JUMP JUMPDEST PUSH1 0x0 PUSH2 0x1545 PUSH1 0x20 DUP4 PUSH2 0x1178 JUMP JUMPDEST SWAP2 POP PUSH2 0x1550 DUP3 PUSH2 0x150F JUMP JUMPDEST PUSH1 0x20 DUP3 ADD SWAP1 POP SWAP2 SWAP1 POP JUMP JUMPDEST PUSH1 0x0 PUSH1 0x20 DUP3 ADD SWAP1 POP DUP2 DUP2 SUB PUSH1 0x0 DUP4 ADD MSTORE PUSH2 0x1574 DUP2 PUSH2 0x1538 JUMP JUMPDEST SWAP1 POP SWAP2 SWAP1 POP JUMP JUMPDEST PUSH32 0x4F776E61626C653A206E6577206F776E657220697320746865207A65726F2061 PUSH1 0x0 DUP3 ADD MSTORE PUSH32 0x6464726573730000000000000000000000000000000000000000000000000000 PUSH1 0x20 DUP3 ADD MSTORE POP JUMP JUMPDEST PUSH1 0x0 PUSH2 0x15D7 PUSH1 0x26 DUP4 PUSH2 0x1178 JUMP JUMPDEST SWAP2 POP PUSH2 0x15E2 DUP3 PUSH2 0x157B JUMP JUMPDEST PUSH1 0x40 DUP3 ADD SWAP1 POP SWAP2 SWAP1 POP JUMP JUMPDEST PUSH1 0x0 PUSH1 0x20 DUP3 ADD SWAP1 POP DUP2 DUP2 SUB PUSH1 0x0 DUP4 ADD MSTORE PUSH2 0x1606 DUP2 PUSH2 0x15CA JUMP JUMPDEST SWAP1 POP SWAP2 SWAP1 POP JUMP JUMPDEST PUSH32 0x42455032303A20617070726F76652066726F6D20746865207A65726F20616464 PUSH1 0x0 DUP3 ADD MSTORE PUSH32 0x7265737300000000000000000000000000000000000000000000000000000000 PUSH1 0x20 DUP3 ADD MSTORE POP JUMP JUMPDEST PUSH1 0x0 PUSH2 0x1669 PUSH1 0x24 DUP4 PUSH2 0x1178 JUMP JUMPDEST SWAP2 POP PUSH2 0x1674 DUP3 PUSH2 0x160D JUMP JUMPDEST PUSH1 0x40 DUP3 ADD SWAP1 POP SWAP2 SWAP1 POP JUMP JUMPDEST PUSH1 0x0 PUSH1 0x20 DUP3 ADD SWAP1 POP DUP2 DUP2 SUB PUSH1 0x0 DUP4 ADD MSTORE PUSH2 0x1698 DUP2 PUSH2 0x165C JUMP JUMPDEST SWAP1 POP SWAP2 SWAP1 POP JUMP JUMPDEST PUSH32 0x42455032303A20617070726F766520746F20746865207A65726F206164647265 PUSH1 0x0 DUP3 ADD MSTORE PUSH32 0x7373000000000000000000000000000000000000000000000000000000000000 PUSH1 0x20 DUP3 ADD MSTORE POP JUMP JUMPDEST PUSH1 0x0 PUSH2 0x16FB PUSH1 0x22 DUP4 PUSH2 0x1178 JUMP JUMPDEST SWAP2 POP PUSH2 0x1706 DUP3 PUSH2 0x169F JUMP JUMPDEST PUSH1 0x40 DUP3 ADD SWAP1 POP SWAP2 SWAP1 POP JUMP JUMPDEST PUSH1 0x0 PUSH1 0x20 DUP3 ADD SWAP1 POP DUP2 DUP2 SUB PUSH1 0x0 DUP4 ADD MSTORE PUSH2 0x172A DUP2 PUSH2 0x16EE JUMP JUMPDEST SWAP1 POP SWAP2 SWAP1 POP JUMP JUMPDEST PUSH32 0x42455032303A207472616E736665722066726F6D20746865207A65726F206164 PUSH1 0x0 DUP3 ADD MSTORE PUSH32 0x6472657373000000000000000000000000000000000000000000000000000000 PUSH1 0x20 DUP3 ADD MSTORE POP JUMP JUMPDEST PUSH1 0x0 PUSH2 0x178D PUSH1 0x25 DUP4 PUSH2 0x1178 JUMP JUMPDEST SWAP2 POP PUSH2 0x1798 DUP3 PUSH2 0x1731 JUMP JUMPDEST PUSH1 0x40 DUP3 ADD SWAP1 POP SWAP2 SWAP1 POP JUMP JUMPDEST PUSH1 0x0 PUSH1 0x20 DUP3 ADD SWAP1 POP DUP2 DUP2 SUB PUSH1 0x0 DUP4 ADD MSTORE PUSH2 0x17BC DUP2 PUSH2 0x1780 JUMP JUMPDEST SWAP1 POP SWAP2 SWAP1 POP JUMP JUMPDEST PUSH32 0x42455032303A207472616E7366657220746F20746865207A65726F2061646472 PUSH1 0x0 DUP3 ADD MSTORE PUSH32 0x6573730000000000000000000000000000000000000000000000000000000000 PUSH1 0x20 DUP3 ADD MSTORE POP JUMP JUMPDEST PUSH1 0x0 PUSH2 0x181F PUSH1 0x23 DUP4 PUSH2 0x1178 JUMP JUMPDEST SWAP2 POP PUSH2 0x182A DUP3 PUSH2 0x17C3 JUMP JUMPDEST PUSH1 0x40 DUP3 ADD SWAP1 POP SWAP2 SWAP1 POP JUMP JUMPDEST PUSH1 0x0 PUSH1 0x20 DUP3 ADD SWAP1 POP DUP2 DUP2 SUB PUSH1 0x0 DUP4 ADD MSTORE PUSH2 0x184E DUP2 PUSH2 0x1812 JUMP JUMPDEST SWAP1 POP SWAP2 SWAP1 POP JUMP JUMPDEST PUSH32 0x4E487B7100000000000000000000000000000000000000000000000000000000 PUSH1 0x0 MSTORE PUSH1 0x11 PUSH1 0x4 MSTORE PUSH1 0x24 PUSH1 0x0 REVERT JUMPDEST PUSH1 0x0 PUSH2 0x188F DUP3 PUSH2 0x128B JUMP JUMPDEST SWAP2 POP PUSH2 0x189A DUP4 PUSH2 0x128B JUMP JUMPDEST SWAP3 POP DUP3 PUSH32 0xFFFFFFFFFFFFFFFFFFFFFFFFFFFFFFFFFFFFFFFFFFFFFFFFFFFFFFFFFFFFFFFF SUB DUP3 GT ISZERO PUSH2 0x18CF JUMPI PUSH2 0x18CE PUSH2 0x1855 JUMP JUMPDEST JUMPDEST DUP3 DUP3 ADD SWAP1 POP SWAP3 SWAP2 POP POP JUMP JUMPDEST PUSH32 0x42455032303A206D696E7420746F20746865207A65726F206164647265737300 PUSH1 0x0 DUP3 ADD MSTORE POP JUMP JUMPDEST PUSH1 0x0 PUSH2 0x1910 PUSH1 0x1F DUP4 PUSH2 0x1178 JUMP JUMPDEST SWAP2 POP PUSH2 0x191B DUP3 PUSH2 0x18DA JUMP JUMPDEST PUSH1 0x20 DUP3 ADD SWAP1 POP SWAP2 SWAP1 POP JUMP JUMPDEST PUSH1 0x0 PUSH1 0x20 DUP3 ADD SWAP1 POP DUP2 DUP2 SUB PUSH1 0x0 DUP4 ADD MSTORE PUSH2 0x193F DUP2 PUSH2 0x1903 JUMP JUMPDEST SWAP1 POP SWAP2 SWAP1 POP JUMP INVALID TIMESTAMP GASLIMIT POP ORIGIN ADDRESS GASPRICE KECCAK256 PUSH21 0x72616E7366657220616D6F756E7420657863656564 PUSH20 0x20616C6C6F77616E636542455032303A20747261 PUSH15 0x7366657220616D6F756E7420657863 PUSH6 0x656473206261 PUSH13 0x616E636542455032303A206465 PUSH4 0x72656173 PUSH6 0x6420616C6C6F PUSH24 0x616E63652062656C6F77207A65726FA26469706673582212 KECCAK256 LOG0 0xB0 0xB4 0x4A SWAP4 0x2A 0xEB SWAP16 DUP10 0xAF 0xC PUSH22 0x2CE8D2697CAD7A4D463610FD4B3167940842C49E6473 PUSH16 0x6C634300080D00330000000000000000 "
				},
				"gasEstimates": {
					"creation": {
						"codeDepositCost": "1327800",
						"executionCost": "infinite",
						"totalCost": "infinite"
					},
					"external": {
						"allowance(address,address)": "infinite",
						"approve(address,uint256)": "infinite",
						"balanceOf(address)": "2908",
						"decimals()": "2502",
						"decreaseAllowance(address,uint256)": "infinite",
						"getOwner()": "2580",
						"increaseAllowance(address,uint256)": "infinite",
						"mint(uint256)": "infinite",
						"name()": "infinite",
						"owner()": "2567",
						"renounceOwnership()": "30463",
						"symbol()": "infinite",
						"totalSupply()": "2505",
						"transfer(address,uint256)": "infinite",
						"transferFrom(address,address,uint256)": "infinite",
						"transferOwnership(address)": "30808"
					},
					"internal": {
						"_approve(address,address,uint256)": "infinite",
						"_burn(address,uint256)": "infinite",
						"_burnFrom(address,uint256)": "infinite",
						"_mint(address,uint256)": "infinite",
						"_transfer(address,address,uint256)": "infinite"
					}
				},
				"methodIdentifiers": {
					"allowance(address,address)": "dd62ed3e",
					"approve(address,uint256)": "095ea7b3",
					"balanceOf(address)": "70a08231",
					"decimals()": "313ce567",
					"decreaseAllowance(address,uint256)": "a457c2d7",
					"getOwner()": "893d20e8",
					"increaseAllowance(address,uint256)": "39509351",
					"mint(uint256)": "a0712d68",
					"name()": "06fdde03",
					"owner()": "8da5cb5b",
					"renounceOwnership()": "715018a6",
					"symbol()": "95d89b41",
					"totalSupply()": "18160ddd",
					"transfer(address,uint256)": "a9059cbb",
					"transferFrom(address,address,uint256)": "23b872dd",
					"transferOwnership(address)": "f2fde38b"
				}
			},
			"storageLayout": {
				"storage": [
					{
						"astId": 631,
						"contract": "contracts/BEP20.sol:BEP20",
						"label": "_owner",
						"offset": 0,
						"slot": "0",
						"type": "t_address"
					},
					{
						"astId": 19,
						"contract": "contracts/BEP20.sol:BEP20",
						"label": "_balances",
						"offset": 0,
						"slot": "1",
						"type": "t_mapping(t_address,t_uint256)"
					},
					{
						"astId": 25,
						"contract": "contracts/BEP20.sol:BEP20",
						"label": "_allowances",
						"offset": 0,
						"slot": "2",
						"type": "t_mapping(t_address,t_mapping(t_address,t_uint256))"
					},
					{
						"astId": 27,
						"contract": "contracts/BEP20.sol:BEP20",
						"label": "_totalSupply",
						"offset": 0,
						"slot": "3",
						"type": "t_uint256"
					},
					{
						"astId": 29,
						"contract": "contracts/BEP20.sol:BEP20",
						"label": "_decimals",
						"offset": 0,
						"slot": "4",
						"type": "t_uint8"
					},
					{
						"astId": 31,
						"contract": "contracts/BEP20.sol:BEP20",
						"label": "_symbol",
						"offset": 0,
						"slot": "5",
						"type": "t_string_storage"
					},
					{
						"astId": 33,
						"contract": "contracts/BEP20.sol:BEP20",
						"label": "_name",
						"offset": 0,
						"slot": "6",
						"type": "t_string_storage"
					}
				],
				"types": {
					"t_address": {
						"encoding": "inplace",
						"label": "address",
						"numberOfBytes": "20"
					},
					"t_mapping(t_address,t_mapping(t_address,t_uint256))": {
						"encoding": "mapping",
						"key": "t_address",
						"label": "mapping(address => mapping(address => uint256))",
						"numberOfBytes": "32",
						"value": "t_mapping(t_address,t_uint256)"
					},
					"t_mapping(t_address,t_uint256)": {
						"encoding": "mapping",
						"key": "t_address",
						"label": "mapping(address => uint256)",
						"numberOfBytes": "32",
						"value": "t_uint256"
					},
					"t_string_storage": {
						"encoding": "bytes",
						"label": "string",
						"numberOfBytes": "32"
					},
					"t_uint256": {
						"encoding": "inplace",
						"label": "uint256",
						"numberOfBytes": "32"
					},
					"t_uint8": {
						"encoding": "inplace",
						"label": "uint8",
						"numberOfBytes": "1"
					}
				}
			},
			"userdoc": {
				"kind": "user",
				"methods": {},
				"version": 1
			}
		}
	}
}