{
	"contracts/SyrupBar.sol": {
		"LandbaseToken": {
			"abi": [
				{
					"anonymous": false,
					"inputs": [
						{
							"indexed": true,
							"internalType": "address",
							"name": "owner",
							"type": "address"
						},
						{
							"indexed": true,
							"internalType": "address",
							"name": "spender",
							"type": "address"
						},
						{
							"indexed": false,
							"internalType": "uint256",
							"name": "value",
							"type": "uint256"
						}
					],
					"name": "Approval",
					"type": "event"
				},
				{
					"anonymous": false,
					"inputs": [
						{
							"indexed": true,
							"internalType": "address",
							"name": "delegator",
							"type": "address"
						},
						{
							"indexed": true,
							"internalType": "address",
							"name": "fromDelegate",
							"type": "address"
						},
						{
							"indexed": true,
							"internalType": "address",
							"name": "toDelegate",
							"type": "address"
						}
					],
					"name": "DelegateChanged",
					"type": "event"
				},
				{
					"anonymous": false,
					"inputs": [
						{
							"indexed": true,
							"internalType": "address",
							"name": "delegate",
							"type": "address"
						},
						{
							"indexed": false,
							"internalType": "uint256",
							"name": "previousBalance",
							"type": "uint256"
						},
						{
							"indexed": false,
							"internalType": "uint256",
							"name": "newBalance",
							"type": "uint256"
						}
					],
					"name": "DelegateVotesChanged",
					"type": "event"
				},
				{
					"anonymous": false,
					"inputs": [
						{
							"indexed": true,
							"internalType": "address",
							"name": "previousOwner",
							"type": "address"
						},
						{
							"indexed": true,
							"internalType": "address",
							"name": "newOwner",
							"type": "address"
						}
					],
					"name": "OwnershipTransferred",
					"type": "event"
				},
				{
					"anonymous": false,
					"inputs": [
						{
							"indexed": true,
							"internalType": "address",
							"name": "from",
							"type": "address"
						},
						{
							"indexed": true,
							"internalType": "address",
							"name": "to",
							"type": "address"
						},
						{
							"indexed": false,
							"internalType": "uint256",
							"name": "value",
							"type": "uint256"
						}
					],
					"name": "Transfer",
					"type": "event"
				},
				{
					"inputs": [],
					"name": "DELEGATION_TYPEHASH",
					"outputs": [
						{
							"internalType": "bytes32",
							"name": "",
							"type": "bytes32"
						}
					],
					"stateMutability": "view",
					"type": "function"
				},
				{
					"inputs": [],
					"name": "DOMAIN_TYPEHASH",
					"outputs": [
						{
							"internalType": "bytes32",
							"name": "",
							"type": "bytes32"
						}
					],
					"stateMutability": "view",
					"type": "function"
				},
				{
					"inputs": [
						{
							"internalType": "address",
							"name": "owner",
							"type": "address"
						},
						{
							"internalType": "address",
							"name": "spender",
							"type": "address"
						}
					],
					"name": "allowance",
					"outputs": [
						{
							"internalType": "uint256",
							"name": "",
							"type": "uint256"
						}
					],
					"stateMutability": "view",
					"type": "function"
				},
				{
					"inputs": [
						{
							"internalType": "address",
							"name": "spender",
							"type": "address"
						},
						{
							"internalType": "uint256",
							"name": "amount",
							"type": "uint256"
						}
					],
					"name": "approve",
					"outputs": [
						{
							"internalType": "bool",
							"name": "",
							"type": "bool"
						}
					],
					"stateMutability": "nonpayable",
					"type": "function"
				},
				{
					"inputs": [
						{
							"internalType": "address",
							"name": "account",
							"type": "address"
						}
					],
					"name": "balanceOf",
					"outputs": [
						{
							"internalType": "uint256",
							"name": "",
							"type": "uint256"
						}
					],
					"stateMutability": "view",
					"type": "function"
				},
				{
					"inputs": [
						{
							"internalType": "address",
							"name": "",
							"type": "address"
						},
						{
							"internalType": "uint32",
							"name": "",
							"type": "uint32"
						}
					],
					"name": "checkpoints",
					"outputs": [
						{
							"internalType": "uint32",
							"name": "fromBlock",
							"type": "uint32"
						},
						{
							"internalType": "uint256",
							"name": "votes",
							"type": "uint256"
						}
					],
					"stateMutability": "view",
					"type": "function"
				},
				{
					"inputs": [],
					"name": "decimals",
					"outputs": [
						{
							"internalType": "uint8",
							"name": "",
							"type": "uint8"
						}
					],
					"stateMutability": "view",
					"type": "function"
				},
				{
					"inputs": [
						{
							"internalType": "address",
							"name": "spender",
							"type": "address"
						},
						{
							"internalType": "uint256",
							"name": "subtractedValue",
							"type": "uint256"
						}
					],
					"name": "decreaseAllowance",
					"outputs": [
						{
							"internalType": "bool",
							"name": "",
							"type": "bool"
						}
					],
					"stateMutability": "nonpayable",
					"type": "function"
				},
				{
					"inputs": [
						{
							"internalType": "address",
							"name": "delegatee",
							"type": "address"
						}
					],
					"name": "delegate",
					"outputs": [],
					"stateMutability": "nonpayable",
					"type": "function"
				},
				{
					"inputs": [
						{
							"internalType": "address",
							"name": "delegatee",
							"type": "address"
						},
						{
							"internalType": "uint256",
							"name": "nonce",
							"type": "uint256"
						},
						{
							"internalType": "uint256",
							"name": "expiry",
							"type": "uint256"
						},
						{
							"internalType": "uint8",
							"name": "v",
							"type": "uint8"
						},
						{
							"internalType": "bytes32",
							"name": "r",
							"type": "bytes32"
						},
						{
							"internalType": "bytes32",
							"name": "s",
							"type": "bytes32"
						}
					],
					"name": "delegateBySig",
					"outputs": [],
					"stateMutability": "nonpayable",
					"type": "function"
				},
				{
					"inputs": [
						{
							"internalType": "address",
							"name": "delegator",
							"type": "address"
						}
					],
					"name": "delegates",
					"outputs": [
						{
							"internalType": "address",
							"name": "",
							"type": "address"
						}
					],
					"stateMutability": "view",
					"type": "function"
				},
				{
					"inputs": [
						{
							"internalType": "address",
							"name": "account",
							"type": "address"
						}
					],
					"name": "getCurrentVotes",
					"outputs": [
						{
							"internalType": "uint256",
							"name": "",
							"type": "uint256"
						}
					],
					"stateMutability": "view",
					"type": "function"
				},
				{
					"inputs": [],
					"name": "getOwner",
					"outputs": [
						{
							"internalType": "address",
							"name": "",
							"type": "address"
						}
					],
					"stateMutability": "view",
					"type": "function"
				},
				{
					"inputs": [
						{
							"internalType": "address",
							"name": "account",
							"type": "address"
						},
						{
							"internalType": "uint256",
							"name": "blockNumber",
							"type": "uint256"
						}
					],
					"name": "getPriorVotes",
					"outputs": [
						{
							"internalType": "uint256",
							"name": "",
							"type": "uint256"
						}
					],
					"stateMutability": "view",
					"type": "function"
				},
				{
					"inputs": [
						{
							"internalType": "address",
							"name": "spender",
							"type": "address"
						},
						{
							"internalType": "uint256",
							"name": "addedValue",
							"type": "uint256"
						}
					],
					"name": "increaseAllowance",
					"outputs": [
						{
							"internalType": "bool",
							"name": "",
							"type": "bool"
						}
					],
					"stateMutability": "nonpayable",
					"type": "function"
				},
				{
					"inputs": [
						{
							"internalType": "address",
							"name": "_to",
							"type": "address"
						},
						{
							"internalType": "uint256",
							"name": "_amount",
							"type": "uint256"
						}
					],
					"name": "mint",
					"outputs": [],
					"stateMutability": "nonpayable",
					"type": "function"
				},
				{
					"inputs": [
						{
							"internalType": "uint256",
							"name": "amount",
							"type": "uint256"
						}
					],
					"name": "mint",
					"outputs": [
						{
							"internalType": "bool",
							"name": "",
							"type": "bool"
						}
					],
					"stateMutability": "nonpayable",
					"type": "function"
				},
				{
					"inputs": [],
					"name": "name",
					"outputs": [
						{
							"internalType": "string",
							"name": "",
							"type": "string"
						}
					],
					"stateMutability": "view",
					"type": "function"
				},
				{
					"inputs": [
						{
							"internalType": "address",
							"name": "",
							"type": "address"
						}
					],
					"name": "nonces",
					"outputs": [
						{
							"internalType": "uint256",
							"name": "",
							"type": "uint256"
						}
					],
					"stateMutability": "view",
					"type": "function"
				},
				{
					"inputs": [
						{
							"internalType": "address",
							"name": "",
							"type": "address"
						}
					],
					"name": "numCheckpoints",
					"outputs": [
						{
							"internalType": "uint32",
							"name": "",
							"type": "uint32"
						}
					],
					"stateMutability": "view",
					"type": "function"
				},
				{
					"inputs": [],
					"name": "owner",
					"outputs": [
						{
							"internalType": "address",
							"name": "",
							"type": "address"
						}
					],
					"stateMutability": "view",
					"type": "function"
				},
				{
					"inputs": [],
					"name": "renounceOwnership",
					"outputs": [],
					"stateMutability": "nonpayable",
					"type": "function"
				},
				{
					"inputs": [],
					"name": "symbol",
					"outputs": [
						{
							"internalType": "string",
							"name": "",
							"type": "string"
						}
					],
					"stateMutability": "view",
					"type": "function"
				},
				{
					"inputs": [],
					"name": "totalSupply",
					"outputs": [
						{
							"internalType": "uint256",
							"name": "",
							"type": "uint256"
						}
					],
					"stateMutability": "view",
					"type": "function"
				},
				{
					"inputs": [
						{
							"internalType": "address",
							"name": "recipient",
							"type": "address"
						},
						{
							"internalType": "uint256",
							"name": "amount",
							"type": "uint256"
						}
					],
					"name": "transfer",
					"outputs": [
						{
							"internalType": "bool",
							"name": "",
							"type": "bool"
						}
					],
					"stateMutability": "nonpayable",
					"type": "function"
				},
				{
					"inputs": [
						{
							"internalType": "address",
							"name": "sender",
							"type": "address"
						},
						{
							"internalType": "address",
							"name": "recipient",
							"type": "address"
						},
						{
							"internalType": "uint256",
							"name": "amount",
							"type": "uint256"
						}
					],
					"name": "transferFrom",
					"outputs": [
						{
							"internalType": "bool",
							"name": "",
							"type": "bool"
						}
					],
					"stateMutability": "nonpayable",
					"type": "function"
				},
				{
					"inputs": [
						{
							"internalType": "address",
							"name": "newOwner",
							"type": "address"
						}
					],
					"name": "transferOwnership",
					"outputs": [],
					"stateMutability": "nonpayable",
					"type": "function"
				}
			],
			"devdoc": {
				"kind": "dev",
				"methods": {
					"allowance(address,address)": {
						"details": "See {BEP20-allowance}."
					},
					"approve(address,uint256)": {
						"details": "See {BEP20-approve}. Requirements: - `spender` cannot be the zero address."
					},
					"balanceOf(address)": {
						"details": "See {BEP20-balanceOf}."
					},
					"decimals()": {
						"details": "Returns the token decimals."
					},
					"decreaseAllowance(address,uint256)": {
						"details": "Atomically decreases the allowance granted to `spender` by the caller. This is an alternative to {approve} that can be used as a mitigation for problems described in {BEP20-approve}. Emits an {Approval} event indicating the updated allowance. Requirements: - `spender` cannot be the zero address. - `spender` must have allowance for the caller of at least `subtractedValue`."
					},
					"delegate(address)": {
						"params": {
							"delegatee": "The address to delegate votes to"
						}
					},
					"delegateBySig(address,uint256,uint256,uint8,bytes32,bytes32)": {
						"params": {
							"delegatee": "The address to delegate votes to",
							"expiry": "The time at which to expire the signature",
							"nonce": "The contract state required to match the signature",
							"r": "Half of the ECDSA signature pair",
							"s": "Half of the ECDSA signature pair",
							"v": "The recovery byte of the signature"
						}
					},
					"delegates(address)": {
						"params": {
							"delegator": "The address to get delegatee for"
						}
					},
					"getCurrentVotes(address)": {
						"params": {
							"account": "The address to get votes balance"
						},
						"returns": {
							"_0": "The number of current votes for `account`"
						}
					},
					"getOwner()": {
						"details": "Returns the bep token owner."
					},
					"getPriorVotes(address,uint256)": {
						"details": "Block number must be a finalized block or else this function will revert to prevent misinformation.",
						"params": {
							"account": "The address of the account to check",
							"blockNumber": "The block number to get the vote balance at"
						},
						"returns": {
							"_0": "The number of votes the account had as of the given block"
						}
					},
					"increaseAllowance(address,uint256)": {
						"details": "Atomically increases the allowance granted to `spender` by the caller. This is an alternative to {approve} that can be used as a mitigation for problems described in {BEP20-approve}. Emits an {Approval} event indicating the updated allowance. Requirements: - `spender` cannot be the zero address."
					},
					"mint(uint256)": {
						"details": "Creates `amount` tokens and assigns them to `msg.sender`, increasing the total supply. Requirements - `msg.sender` must be the token owner"
					},
					"name()": {
						"details": "Returns the token name."
					},
					"owner()": {
						"details": "Returns the address of the current owner."
					},
					"renounceOwnership()": {
						"details": "Leaves the contract without owner. It will not be possible to call `onlyOwner` functions anymore. Can only be called by the current owner. NOTE: Renouncing ownership will leave the contract without an owner, thereby removing any functionality that is only available to the owner."
					},
					"symbol()": {
						"details": "Returns the token symbol."
					},
					"totalSupply()": {
						"details": "See {BEP20-totalSupply}."
					},
					"transfer(address,uint256)": {
						"details": "See {BEP20-transfer}. Requirements: - `recipient` cannot be the zero address. - the caller must have a balance of at least `amount`."
					},
					"transferFrom(address,address,uint256)": {
						"details": "See {BEP20-transferFrom}. Emits an {Approval} event indicating the updated allowance. This is not required by the EIP. See the note at the beginning of {BEP20}; Requirements: - `sender` and `recipient` cannot be the zero address. - `sender` must have a balance of at least `amount`. - the caller must have allowance for `sender`'s tokens of at least `amount`."
					},
					"transferOwnership(address)": {
						"details": "Transfers ownership of the contract to a new account (`newOwner`). Can only be called by the current owner."
					}
				},
				"version": 1
			},
			"evm": {
				"assembly": "    /* \"contracts/SyrupBar.sol\":29146:38085  contract LandbaseToken is BEP20(\"Landbase Coin\", \"BLC\") {\r... */\n  mstore(0x40, 0x80)\n  callvalue\n  dup1\n  iszero\n  tag_1\n  jumpi\n  0x00\n  dup1\n  revert\ntag_1:\n  pop\n    /* \"contracts/SyrupBar.sol\":20896:21040  constructor(string memory name, string memory symbol) public {\r... */\n  mload(0x40)\n  dup1\n  0x40\n  add\n  0x40\n  mstore\n  dup1\n  0x0d\n  dup2\n  mstore\n  0x20\n  add\n  shl(0x99, 0x2630b7323130b9b29021b7b4b7)\n  dup2\n  mstore\n  pop\n  mload(0x40)\n  dup1\n  0x40\n  add\n  0x40\n  mstore\n  dup1\n  0x03\n  dup2\n  mstore\n  0x20\n  add\n  shl(0xe8, 0x424c43)\n  dup2\n  mstore\n  pop\n    /* \"contracts/SyrupBar.sol\":1968:1985  address msgSender */\n  0x00\n    /* \"contracts/SyrupBar.sol\":1988:2000  _msgSender() */\n  tag_7\n    /* \"contracts/SyrupBar.sol\":1988:1998  _msgSender */\n  shl(0x20, tag_8)\n    /* \"contracts/SyrupBar.sol\":1988:2000  _msgSender() */\n  0x20\n  shr\n  jump\t// in\ntag_7:\n    /* \"contracts/SyrupBar.sol\":2011:2017  _owner */\n  0x00\n    /* \"contracts/SyrupBar.sol\":2011:2029  _owner = msgSender */\n  dup1\n  sload\n  not(sub(shl(0xa0, 0x01), 0x01))\n  and\n  sub(shl(0xa0, 0x01), 0x01)\n  dup4\n  and\n  swap1\n  dup2\n  or\n  dup3\n  sstore\n    /* \"contracts/SyrupBar.sol\":2045:2088  OwnershipTransferred(address(0), msgSender) */\n  mload(0x40)\n    /* \"contracts/SyrupBar.sol\":2011:2029  _owner = msgSender */\n  swap3\n  swap4\n  pop\n  swap2\n    /* \"contracts/SyrupBar.sol\":2045:2088  OwnershipTransferred(address(0), msgSender) */\n  0x8be0079c531659141344cd1fd0a4f28419497f9722a3daafe3b4186f6b6457e0\n  swap1\n    /* \"contracts/SyrupBar.sol\":2011:2017  _owner */\n  dup3\n  swap1\n    /* \"contracts/SyrupBar.sol\":2045:2088  OwnershipTransferred(address(0), msgSender) */\n  log3\n  pop\n    /* \"contracts/SyrupBar.sol\":20968:20980  _name = name */\n  dup2\n  mload\n  tag_10\n  swap1\n    /* \"contracts/SyrupBar.sol\":20968:20973  _name */\n  0x04\n  swap1\n    /* \"contracts/SyrupBar.sol\":20968:20980  _name = name */\n  0x20\n  dup6\n  add\n  swap1\n  tag_11\n  jump\t// in\ntag_10:\n  pop\n    /* \"contracts/SyrupBar.sol\":20991:21007  _symbol = symbol */\n  dup1\n  mload\n  tag_12\n  swap1\n    /* \"contracts/SyrupBar.sol\":20991:20998  _symbol */\n  0x05\n  swap1\n    /* \"contracts/SyrupBar.sol\":20991:21007  _symbol = symbol */\n  0x20\n  dup5\n  add\n  swap1\n  tag_11\n  jump\t// in\ntag_12:\n  pop\n  pop\n    /* \"contracts/SyrupBar.sol\":21018:21027  _decimals */\n  0x06\n    /* \"contracts/SyrupBar.sol\":21018:21032  _decimals = 18 */\n  dup1\n  sload\n  not(0xff)\n  and\n    /* \"contracts/SyrupBar.sol\":21030:21032  18 */\n  0x12\n    /* \"contracts/SyrupBar.sol\":21018:21032  _decimals = 18 */\n  or\n  swap1\n  sstore\n  pop\n    /* \"contracts/SyrupBar.sol\":29146:38085  contract LandbaseToken is BEP20(\"Landbase Coin\", \"BLC\") {\r... */\n  jump(tag_13)\n    /* \"contracts/SyrupBar.sol\":827:925  function _msgSender() internal view returns (address payable) {\r... */\ntag_8:\n    /* \"contracts/SyrupBar.sol\":907:917  msg.sender */\n  caller\n    /* \"contracts/SyrupBar.sol\":827:925  function _msgSender() internal view returns (address payable) {\r... */\n  swap1\n  jump\t// out\n    /* \"contracts/SyrupBar.sol\":29146:38085  contract LandbaseToken is BEP20(\"Landbase Coin\", \"BLC\") {\r... */\ntag_11:\n  dup3\n  dup1\n  sload\n  0x01\n  dup2\n  0x01\n  and\n  iszero\n  0x0100\n  mul\n  sub\n  and\n  0x02\n  swap1\n  div\n  swap1\n  0x00\n  mstore\n  keccak256(0x00, 0x20)\n  swap1\n  0x1f\n  add\n  0x20\n  swap1\n  div\n  dup2\n  add\n  swap3\n  dup3\n  0x1f\n  lt\n  tag_16\n  jumpi\n  dup1\n  mload\n  not(0xff)\n  and\n  dup4\n  dup1\n  add\n  or\n  dup6\n  sstore\n  jump(tag_18)\ntag_16:\n  dup3\n  dup1\n  add\n  0x01\n  add\n  dup6\n  sstore\n  dup3\n  iszero\n  tag_18\n  jumpi\n  swap2\n  dup3\n  add\ntag_17:\n  dup3\n  dup2\n  gt\n  iszero\n  tag_18\n  jumpi\n  dup3\n  mload\n  dup3\n  sstore\n  swap2\n  0x20\n  add\n  swap2\n  swap1\n  0x01\n  add\n  swap1\n  jump(tag_17)\ntag_18:\n  pop\n  tag_19\n  swap3\n  swap2\n  pop\n  tag_20\n  jump\t// in\ntag_19:\n  pop\n  swap1\n  jump\t// out\ntag_20:\ntag_21:\n  dup1\n  dup3\n  gt\n  iszero\n  tag_19\n  jumpi\n  0x00\n  dup2\n  sstore\n  0x01\n  add\n  jump(tag_21)\ntag_13:\n  dataSize(sub_0)\n  dup1\n  dataOffset(sub_0)\n  0x00\n  codecopy\n  0x00\n  return\nstop\n\nsub_0: assembly {\n        /* \"contracts/SyrupBar.sol\":29146:38085  contract LandbaseToken is BEP20(\"Landbase Coin\", \"BLC\") {\r... */\n      mstore(0x40, 0x80)\n      callvalue\n      dup1\n      iszero\n      tag_1\n      jumpi\n      0x00\n      dup1\n      revert\n    tag_1:\n      pop\n      jumpi(tag_2, lt(calldatasize, 0x04))\n      shr(0xe0, calldataload(0x00))\n      dup1\n      0x782d6fe1\n      gt\n      tag_30\n      jumpi\n      dup1\n      0xa9059cbb\n      gt\n      tag_31\n      jumpi\n      dup1\n      0xdd62ed3e\n      gt\n      tag_32\n      jumpi\n      dup1\n      0xdd62ed3e\n      eq\n      tag_26\n      jumpi\n      dup1\n      0xe7a324dc\n      eq\n      tag_27\n      jumpi\n      dup1\n      0xf1127ed8\n      eq\n      tag_28\n      jumpi\n      dup1\n      0xf2fde38b\n      eq\n      tag_29\n      jumpi\n      jump(tag_2)\n    tag_32:\n      dup1\n      0xa9059cbb\n      eq\n      tag_23\n      jumpi\n      dup1\n      0xb4b5ea57\n      eq\n      tag_24\n      jumpi\n      dup1\n      0xc3cda520\n      eq\n      tag_25\n      jumpi\n      jump(tag_2)\n    tag_31:\n      dup1\n      0x8da5cb5b\n      gt\n      tag_33\n      jumpi\n      dup1\n      0x8da5cb5b\n      eq\n      tag_19\n      jumpi\n      dup1\n      0x95d89b41\n      eq\n      tag_20\n      jumpi\n      dup1\n      0xa0712d68\n      eq\n      tag_21\n      jumpi\n      dup1\n      0xa457c2d7\n      eq\n      tag_22\n      jumpi\n      jump(tag_2)\n    tag_33:\n      dup1\n      0x782d6fe1\n      eq\n      tag_16\n      jumpi\n      dup1\n      0x7ecebe00\n      eq\n      tag_17\n      jumpi\n      dup1\n      0x893d20e8\n      eq\n      tag_18\n      jumpi\n      jump(tag_2)\n    tag_30:\n      dup1\n      0x39509351\n      gt\n      tag_34\n      jumpi\n      dup1\n      0x5c19a95c\n      gt\n      tag_35\n      jumpi\n      dup1\n      0x5c19a95c\n      eq\n      tag_12\n      jumpi\n      dup1\n      0x6fcfff45\n      eq\n      tag_13\n      jumpi\n      dup1\n      0x70a08231\n      eq\n      tag_14\n      jumpi\n      dup1\n      0x715018a6\n      eq\n      tag_15\n      jumpi\n      jump(tag_2)\n    tag_35:\n      dup1\n      0x39509351\n      eq\n      tag_9\n      jumpi\n      dup1\n      0x40c10f19\n      eq\n      tag_10\n      jumpi\n      dup1\n      0x587cde1e\n      eq\n      tag_11\n      jumpi\n      jump(tag_2)\n    tag_34:\n      dup1\n      0x06fdde03\n      eq\n      tag_3\n      jumpi\n      dup1\n      0x095ea7b3\n      eq\n      tag_4\n      jumpi\n      dup1\n      0x18160ddd\n      eq\n      tag_5\n      jumpi\n      dup1\n      0x20606b70\n      eq\n      tag_6\n      jumpi\n      dup1\n      0x23b872dd\n      eq\n      tag_7\n      jumpi\n      dup1\n      0x313ce567\n      eq\n      tag_8\n      jumpi\n    tag_2:\n      0x00\n      dup1\n      revert\n        /* \"contracts/SyrupBar.sol\":21265:21357  function name() public override view returns (string memory) {\r... */\n    tag_3:\n      tag_36\n      tag_37\n      jump\t// in\n    tag_36:\n      0x40\n      dup1\n      mload\n      0x20\n      dup1\n      dup3\n      mstore\n      dup4\n      mload\n      dup2\n      dup4\n      add\n      mstore\n      dup4\n      mload\n      swap2\n      swap3\n      dup4\n      swap3\n      swap1\n      dup4\n      add\n      swap2\n      dup6\n      add\n      swap1\n      dup1\n      dup4\n      dup4\n      0x00\n    tag_38:\n      dup4\n      dup2\n      lt\n      iszero\n      tag_40\n      jumpi\n      dup2\n      dup2\n      add\n      mload\n      dup4\n      dup3\n      add\n      mstore\n      0x20\n      add\n      jump(tag_38)\n    tag_40:\n      pop\n      pop\n      pop\n      pop\n      swap1\n      pop\n      swap1\n      dup2\n      add\n      swap1\n      0x1f\n      and\n      dup1\n      iszero\n      tag_41\n      jumpi\n      dup1\n      dup3\n      sub\n      dup1\n      mload\n      0x01\n      dup4\n      0x20\n      sub\n      0x0100\n      exp\n      sub\n      not\n      and\n      dup2\n      mstore\n      0x20\n      add\n      swap2\n      pop\n    tag_41:\n      pop\n      swap3\n      pop\n      pop\n      pop\n      mload(0x40)\n      dup1\n      swap2\n      sub\n      swap1\n      return\n        /* \"contracts/SyrupBar.sol\":22752:22913  function approve(address spender, uint256 amount) public override returns (bool) {\r... */\n    tag_4:\n      tag_42\n      0x04\n      dup1\n      calldatasize\n      sub\n      0x40\n      dup2\n      lt\n      iszero\n      tag_43\n      jumpi\n      0x00\n      dup1\n      revert\n    tag_43:\n      pop\n      sub(shl(0xa0, 0x01), 0x01)\n      dup2\n      calldataload\n      and\n      swap1\n      0x20\n      add\n      calldataload\n      tag_44\n      jump\t// in\n    tag_42:\n      0x40\n      dup1\n      mload\n      swap2\n      iszero\n      iszero\n      dup3\n      mstore\n      mload\n      swap1\n      dup2\n      swap1\n      sub\n      0x20\n      add\n      swap1\n      return\n        /* \"contracts/SyrupBar.sol\":21741:21841  function totalSupply() public override view returns (uint256) {\r... */\n    tag_5:\n      tag_45\n      tag_46\n      jump\t// in\n    tag_45:\n      0x40\n      dup1\n      mload\n      swap2\n      dup3\n      mstore\n      mload\n      swap1\n      dup2\n      swap1\n      sub\n      0x20\n      add\n      swap1\n      return\n        /* \"contracts/SyrupBar.sol\":30487:30609  bytes32 public constant DOMAIN_TYPEHASH = keccak256(\"EIP712Domain(string name,uint256 chainId,address verifyingContract)\") */\n    tag_6:\n      tag_45\n      tag_48\n      jump\t// in\n        /* \"contracts/SyrupBar.sol\":23384:23781  function transferFrom(\r... */\n    tag_7:\n      tag_42\n      0x04\n      dup1\n      calldatasize\n      sub\n      0x60\n      dup2\n      lt\n      iszero\n      tag_50\n      jumpi\n      0x00\n      dup1\n      revert\n    tag_50:\n      pop\n      sub(shl(0xa0, 0x01), 0x01)\n      dup2\n      calldataload\n      dup2\n      and\n      swap2\n      0x20\n      dup2\n      add\n      calldataload\n      swap1\n      swap2\n      and\n      swap1\n      0x40\n      add\n      calldataload\n      tag_51\n      jump\t// in\n        /* \"contracts/SyrupBar.sol\":21424:21516  function decimals() public override view returns (uint8) {\r... */\n    tag_8:\n      tag_52\n      tag_53\n      jump\t// in\n    tag_52:\n      0x40\n      dup1\n      mload\n      0xff\n      swap1\n      swap3\n      and\n      dup3\n      mstore\n      mload\n      swap1\n      dup2\n      swap1\n      sub\n      0x20\n      add\n      swap1\n      return\n        /* \"contracts/SyrupBar.sol\":24189:24399  function increaseAllowance(address spender, uint256 addedValue) public returns (bool) {\r... */\n    tag_9:\n      tag_42\n      0x04\n      dup1\n      calldatasize\n      sub\n      0x40\n      dup2\n      lt\n      iszero\n      tag_55\n      jumpi\n      0x00\n      dup1\n      revert\n    tag_55:\n      pop\n      sub(shl(0xa0, 0x01), 0x01)\n      dup2\n      calldataload\n      and\n      swap1\n      0x20\n      add\n      calldataload\n      tag_56\n      jump\t// in\n        /* \"contracts/SyrupBar.sol\":29307:29469  function mint(address _to, uint256 _amount) public onlyOwner {\r... */\n    tag_10:\n      tag_57\n      0x04\n      dup1\n      calldatasize\n      sub\n      0x40\n      dup2\n      lt\n      iszero\n      tag_58\n      jumpi\n      0x00\n      dup1\n      revert\n    tag_58:\n      pop\n      sub(shl(0xa0, 0x01), 0x01)\n      dup2\n      calldataload\n      and\n      swap1\n      0x20\n      add\n      calldataload\n      tag_59\n      jump\t// in\n    tag_57:\n      stop\n        /* \"contracts/SyrupBar.sol\":31470:31619  function delegates(address delegator)\r... */\n    tag_11:\n      tag_60\n      0x04\n      dup1\n      calldatasize\n      sub\n      0x20\n      dup2\n      lt\n      iszero\n      tag_61\n      jumpi\n      0x00\n      dup1\n      revert\n    tag_61:\n      pop\n      calldataload\n      sub(shl(0xa0, 0x01), 0x01)\n      and\n      tag_62\n      jump\t// in\n    tag_60:\n      0x40\n      dup1\n      mload\n      sub(shl(0xa0, 0x01), 0x01)\n      swap1\n      swap3\n      and\n      dup3\n      mstore\n      mload\n      swap1\n      dup2\n      swap1\n      sub\n      0x20\n      add\n      swap1\n      return\n        /* \"contracts/SyrupBar.sol\":31763:31867  function delegate(address delegatee) external {\r... */\n    tag_12:\n      tag_57\n      0x04\n      dup1\n      calldatasize\n      sub\n      0x20\n      dup2\n      lt\n      iszero\n      tag_64\n      jumpi\n      0x00\n      dup1\n      revert\n    tag_64:\n      pop\n      calldataload\n      sub(shl(0xa0, 0x01), 0x01)\n      and\n      tag_65\n      jump\t// in\n        /* \"contracts/SyrupBar.sol\":30365:30414  mapping (address => uint32) public numCheckpoints */\n    tag_13:\n      tag_66\n      0x04\n      dup1\n      calldatasize\n      sub\n      0x20\n      dup2\n      lt\n      iszero\n      tag_67\n      jumpi\n      0x00\n      dup1\n      revert\n    tag_67:\n      pop\n      calldataload\n      sub(shl(0xa0, 0x01), 0x01)\n      and\n      tag_68\n      jump\t// in\n    tag_66:\n      0x40\n      dup1\n      mload\n      0xffffffff\n      swap1\n      swap3\n      and\n      dup3\n      mstore\n      mload\n      swap1\n      dup2\n      swap1\n      sub\n      0x20\n      add\n      swap1\n      return\n        /* \"contracts/SyrupBar.sol\":21903:22022  function balanceOf(address account) public override view returns (uint256) {\r... */\n    tag_14:\n      tag_45\n      0x04\n      dup1\n      calldatasize\n      sub\n      0x20\n      dup2\n      lt\n      iszero\n      tag_70\n      jumpi\n      0x00\n      dup1\n      revert\n    tag_70:\n      pop\n      calldataload\n      sub(shl(0xa0, 0x01), 0x01)\n      and\n      tag_71\n      jump\t// in\n        /* \"contracts/SyrupBar.sol\":2819:2959  function renounceOwnership() public onlyOwner {\r... */\n    tag_15:\n      tag_57\n      tag_73\n      jump\t// in\n        /* \"contracts/SyrupBar.sol\":34378:35635  function getPriorVotes(address account, uint blockNumber)\r... */\n    tag_16:\n      tag_45\n      0x04\n      dup1\n      calldatasize\n      sub\n      0x40\n      dup2\n      lt\n      iszero\n      tag_75\n      jumpi\n      0x00\n      dup1\n      revert\n    tag_75:\n      pop\n      sub(shl(0xa0, 0x01), 0x01)\n      dup2\n      calldataload\n      and\n      swap1\n      0x20\n      add\n      calldataload\n      tag_76\n      jump\t// in\n        /* \"contracts/SyrupBar.sol\":30901:30940  mapping (address => uint) public nonces */\n    tag_17:\n      tag_45\n      0x04\n      dup1\n      calldatasize\n      sub\n      0x20\n      dup2\n      lt\n      iszero\n      tag_78\n      jumpi\n      0x00\n      dup1\n      revert\n    tag_78:\n      pop\n      calldataload\n      sub(shl(0xa0, 0x01), 0x01)\n      and\n      tag_79\n      jump\t// in\n        /* \"contracts/SyrupBar.sol\":21108:21202  function getOwner() external override view returns (address) {\r... */\n    tag_18:\n      tag_60\n      tag_81\n      jump\t// in\n        /* \"contracts/SyrupBar.sol\":2177:2256  function owner() public view returns (address) {\r... */\n    tag_19:\n      tag_60\n      tag_83\n      jump\t// in\n        /* \"contracts/SyrupBar.sol\":21581:21677  function symbol() public override view returns (string memory) {\r... */\n    tag_20:\n      tag_36\n      tag_85\n      jump\t// in\n        /* \"contracts/SyrupBar.sol\":25430:25560  function mint(uint256 amount) public onlyOwner returns (bool) {\r... */\n    tag_21:\n      tag_42\n      0x04\n      dup1\n      calldatasize\n      sub\n      0x20\n      dup2\n      lt\n      iszero\n      tag_91\n      jumpi\n      0x00\n      dup1\n      revert\n    tag_91:\n      pop\n      calldataload\n      tag_92\n      jump\t// in\n        /* \"contracts/SyrupBar.sol\":24901:25212  function decreaseAllowance(address spender, uint256 subtractedValue) public returns (bool) {\r... */\n    tag_22:\n      tag_42\n      0x04\n      dup1\n      calldatasize\n      sub\n      0x40\n      dup2\n      lt\n      iszero\n      tag_94\n      jumpi\n      0x00\n      dup1\n      revert\n    tag_94:\n      pop\n      sub(shl(0xa0, 0x01), 0x01)\n      dup2\n      calldataload\n      and\n      swap1\n      0x20\n      add\n      calldataload\n      tag_95\n      jump\t// in\n        /* \"contracts/SyrupBar.sol\":22234:22401  function transfer(address recipient, uint256 amount) public override returns (bool) {\r... */\n    tag_23:\n      tag_42\n      0x04\n      dup1\n      calldatasize\n      sub\n      0x40\n      dup2\n      lt\n      iszero\n      tag_97\n      jumpi\n      0x00\n      dup1\n      revert\n    tag_97:\n      pop\n      sub(shl(0xa0, 0x01), 0x01)\n      dup2\n      calldataload\n      and\n      swap1\n      0x20\n      add\n      calldataload\n      tag_98\n      jump\t// in\n        /* \"contracts/SyrupBar.sol\":33692:33947  function getCurrentVotes(address account)\r... */\n    tag_24:\n      tag_45\n      0x04\n      dup1\n      calldatasize\n      sub\n      0x20\n      dup2\n      lt\n      iszero\n      tag_100\n      jumpi\n      0x00\n      dup1\n      revert\n    tag_100:\n      pop\n      calldataload\n      sub(shl(0xa0, 0x01), 0x01)\n      and\n      tag_101\n      jump\t// in\n        /* \"contracts/SyrupBar.sol\":32301:33491  function delegateBySig(\r... */\n    tag_25:\n      tag_57\n      0x04\n      dup1\n      calldatasize\n      sub\n      0xc0\n      dup2\n      lt\n      iszero\n      tag_103\n      jumpi\n      0x00\n      dup1\n      revert\n    tag_103:\n      pop\n      sub(shl(0xa0, 0x01), 0x01)\n      dup2\n      calldataload\n      and\n      swap1\n      0x20\n      dup2\n      add\n      calldataload\n      swap1\n      0x40\n      dup2\n      add\n      calldataload\n      swap1\n      0xff\n      0x60\n      dup3\n      add\n      calldataload\n      and\n      swap1\n      0x80\n      dup2\n      add\n      calldataload\n      swap1\n      0xa0\n      add\n      calldataload\n      tag_104\n      jump\t// in\n        /* \"contracts/SyrupBar.sol\":22463:22606  function allowance(address owner, address spender) public override view returns (uint256) {\r... */\n    tag_26:\n      tag_45\n      0x04\n      dup1\n      calldatasize\n      sub\n      0x40\n      dup2\n      lt\n      iszero\n      tag_106\n      jumpi\n      0x00\n      dup1\n      revert\n    tag_106:\n      pop\n      sub(shl(0xa0, 0x01), 0x01)\n      dup2\n      calldataload\n      dup2\n      and\n      swap2\n      0x20\n      add\n      calldataload\n      and\n      tag_107\n      jump\t// in\n        /* \"contracts/SyrupBar.sol\":30703:30820  bytes32 public constant DELEGATION_TYPEHASH = keccak256(\"Delegation(address delegatee,uint256 nonce,uint256 expiry)\") */\n    tag_27:\n      tag_45\n      tag_109\n      jump\t// in\n        /* \"contracts/SyrupBar.sol\":30226:30296  mapping (address => mapping (uint32 => Checkpoint)) public checkpoints */\n    tag_28:\n      tag_110\n      0x04\n      dup1\n      calldatasize\n      sub\n      0x40\n      dup2\n      lt\n      iszero\n      tag_111\n      jumpi\n      0x00\n      dup1\n      revert\n    tag_111:\n      pop\n      dup1\n      calldataload\n      sub(shl(0xa0, 0x01), 0x01)\n      and\n      swap1\n      0x20\n      add\n      calldataload\n      0xffffffff\n      and\n      tag_112\n      jump\t// in\n    tag_110:\n      0x40\n      dup1\n      mload\n      0xffffffff\n      swap1\n      swap4\n      and\n      dup4\n      mstore\n      0x20\n      dup4\n      add\n      swap2\n      swap1\n      swap2\n      mstore\n      dup1\n      mload\n      swap2\n      dup3\n      swap1\n      sub\n      add\n      swap1\n      return\n        /* \"contracts/SyrupBar.sol\":3114:3223  function transferOwnership(address newOwner) public onlyOwner {\r... */\n    tag_29:\n      tag_57\n      0x04\n      dup1\n      calldatasize\n      sub\n      0x20\n      dup2\n      lt\n      iszero\n      tag_114\n      jumpi\n      0x00\n      dup1\n      revert\n    tag_114:\n      pop\n      calldataload\n      sub(shl(0xa0, 0x01), 0x01)\n      and\n      tag_115\n      jump\t// in\n        /* \"contracts/SyrupBar.sol\":21265:21357  function name() public override view returns (string memory) {\r... */\n    tag_37:\n        /* \"contracts/SyrupBar.sol\":21344:21349  _name */\n      0x04\n        /* \"contracts/SyrupBar.sol\":21337:21349  return _name */\n      dup1\n      sload\n      0x40\n      dup1\n      mload\n      0x20\n      0x1f\n      0x02\n      not(0x00)\n      0x0100\n      0x01\n      dup9\n      and\n      iszero\n      mul\n      add\n      swap1\n      swap6\n      and\n      swap5\n      swap1\n      swap5\n      div\n      swap4\n      dup5\n      add\n      dup2\n      swap1\n      div\n      dup2\n      mul\n      dup3\n      add\n      dup2\n      add\n      swap1\n      swap3\n      mstore\n      dup3\n      dup2\n      mstore\n        /* \"contracts/SyrupBar.sol\":21311:21324  string memory */\n      0x60\n      swap4\n        /* \"contracts/SyrupBar.sol\":21337:21349  return _name */\n      swap1\n      swap3\n        /* \"contracts/SyrupBar.sol\":21344:21349  _name */\n      swap1\n      swap2\n        /* \"contracts/SyrupBar.sol\":21337:21349  return _name */\n      dup4\n      add\n        /* \"contracts/SyrupBar.sol\":21344:21349  _name */\n      dup3\n        /* \"contracts/SyrupBar.sol\":21337:21349  return _name */\n      dup3\n      dup1\n      iszero\n      tag_117\n      jumpi\n      dup1\n      0x1f\n      lt\n      tag_118\n      jumpi\n      0x0100\n      dup1\n      dup4\n      sload\n      div\n      mul\n      dup4\n      mstore\n      swap2\n      0x20\n      add\n      swap2\n      jump(tag_117)\n    tag_118:\n      dup3\n      add\n      swap2\n      swap1\n      0x00\n      mstore\n      keccak256(0x00, 0x20)\n      swap1\n    tag_119:\n      dup2\n      sload\n      dup2\n      mstore\n      swap1\n      0x01\n      add\n      swap1\n      0x20\n      add\n      dup1\n      dup4\n      gt\n      tag_119\n      jumpi\n      dup3\n      swap1\n      sub\n      0x1f\n      and\n      dup3\n      add\n      swap2\n    tag_117:\n      pop\n      pop\n      pop\n      pop\n      pop\n      swap1\n      pop\n        /* \"contracts/SyrupBar.sol\":21265:21357  function name() public override view returns (string memory) {\r... */\n      swap1\n      jump\t// out\n        /* \"contracts/SyrupBar.sol\":22752:22913  function approve(address spender, uint256 amount) public override returns (bool) {\r... */\n    tag_44:\n        /* \"contracts/SyrupBar.sol\":22827:22831  bool */\n      0x00\n        /* \"contracts/SyrupBar.sol\":22844:22883  _approve(_msgSender(), spender, amount) */\n      tag_121\n        /* \"contracts/SyrupBar.sol\":22853:22865  _msgSender() */\n      tag_122\n        /* \"contracts/SyrupBar.sol\":22853:22863  _msgSender */\n      tag_123\n        /* \"contracts/SyrupBar.sol\":22853:22865  _msgSender() */\n      jump\t// in\n    tag_122:\n        /* \"contracts/SyrupBar.sol\":22867:22874  spender */\n      dup5\n        /* \"contracts/SyrupBar.sol\":22876:22882  amount */\n      dup5\n        /* \"contracts/SyrupBar.sol\":22844:22852  _approve */\n      tag_124\n        /* \"contracts/SyrupBar.sol\":22844:22883  _approve(_msgSender(), spender, amount) */\n      jump\t// in\n    tag_121:\n      pop\n        /* \"contracts/SyrupBar.sol\":22901:22905  true */\n      0x01\n        /* \"contracts/SyrupBar.sol\":22752:22913  function approve(address spender, uint256 amount) public override returns (bool) {\r... */\n    tag_120:\n      swap3\n      swap2\n      pop\n      pop\n      jump\t// out\n        /* \"contracts/SyrupBar.sol\":21741:21841  function totalSupply() public override view returns (uint256) {\r... */\n    tag_46:\n        /* \"contracts/SyrupBar.sol\":21821:21833  _totalSupply */\n      sload(0x03)\n        /* \"contracts/SyrupBar.sol\":21741:21841  function totalSupply() public override view returns (uint256) {\r... */\n      swap1\n      jump\t// out\n        /* \"contracts/SyrupBar.sol\":30487:30609  bytes32 public constant DOMAIN_TYPEHASH = keccak256(\"EIP712Domain(string name,uint256 chainId,address verifyingContract)\") */\n    tag_48:\n        /* \"contracts/SyrupBar.sol\":30529:30609  keccak256(\"EIP712Domain(string name,uint256 chainId,address verifyingContract)\") */\n      0x8cad95687ba82c2ce50e74f7b754645e5117c3a5bec8151c0726d5857980a866\n        /* \"contracts/SyrupBar.sol\":30487:30609  bytes32 public constant DOMAIN_TYPEHASH = keccak256(\"EIP712Domain(string name,uint256 chainId,address verifyingContract)\") */\n      dup2\n      jump\t// out\n        /* \"contracts/SyrupBar.sol\":23384:23781  function transferFrom(\r... */\n    tag_51:\n        /* \"contracts/SyrupBar.sol\":23516:23520  bool */\n      0x00\n        /* \"contracts/SyrupBar.sol\":23533:23569  _transfer(sender, recipient, amount) */\n      tag_127\n        /* \"contracts/SyrupBar.sol\":23543:23549  sender */\n      dup5\n        /* \"contracts/SyrupBar.sol\":23551:23560  recipient */\n      dup5\n        /* \"contracts/SyrupBar.sol\":23562:23568  amount */\n      dup5\n        /* \"contracts/SyrupBar.sol\":23533:23542  _transfer */\n      tag_128\n        /* \"contracts/SyrupBar.sol\":23533:23569  _transfer(sender, recipient, amount) */\n      jump\t// in\n    tag_127:\n        /* \"contracts/SyrupBar.sol\":23580:23751  _approve(\r... */\n      tag_129\n        /* \"contracts/SyrupBar.sol\":23603:23609  sender */\n      dup5\n        /* \"contracts/SyrupBar.sol\":23624:23636  _msgSender() */\n      tag_130\n        /* \"contracts/SyrupBar.sol\":23624:23634  _msgSender */\n      tag_123\n        /* \"contracts/SyrupBar.sol\":23624:23636  _msgSender() */\n      jump\t// in\n    tag_130:\n        /* \"contracts/SyrupBar.sol\":23651:23740  _allowances[sender][_msgSender()].sub(amount, 'BEP20: transfer amount exceeds allowance') */\n      tag_131\n        /* \"contracts/SyrupBar.sol\":23689:23695  amount */\n      dup6\n        /* \"contracts/SyrupBar.sol\":23651:23740  _allowances[sender][_msgSender()].sub(amount, 'BEP20: transfer amount exceeds allowance') */\n      mload(0x40)\n      dup1\n      0x60\n      add\n      0x40\n      mstore\n      dup1\n      0x28\n      dup2\n      mstore\n      0x20\n      add\n      data_4f3506f4ba71c79c3cbd442a3afeb30e9b27af2d84e116a4385b34e267d2287e\n      0x28\n      swap2\n      codecopy\n      sub(shl(0xa0, 0x01), 0x01)\n        /* \"contracts/SyrupBar.sol\":23651:23670  _allowances[sender] */\n      dup11\n      and\n      0x00\n      swap1\n      dup2\n      mstore\n        /* \"contracts/SyrupBar.sol\":23651:23662  _allowances */\n      0x02\n        /* \"contracts/SyrupBar.sol\":23651:23670  _allowances[sender] */\n      0x20\n      mstore\n      0x40\n      dup2\n      keccak256\n      swap1\n        /* \"contracts/SyrupBar.sol\":23671:23683  _msgSender() */\n      tag_132\n        /* \"contracts/SyrupBar.sol\":23671:23681  _msgSender */\n      tag_123\n        /* \"contracts/SyrupBar.sol\":23671:23683  _msgSender() */\n      jump\t// in\n    tag_132:\n      sub(shl(0xa0, 0x01), 0x01)\n        /* \"contracts/SyrupBar.sol\":23651:23684  _allowances[sender][_msgSender()] */\n      and\n      dup2\n      mstore\n      0x20\n      dup2\n      add\n      swap2\n      swap1\n      swap2\n      mstore\n      0x40\n      add\n      0x00\n      keccak256\n      sload\n      swap2\n        /* \"contracts/SyrupBar.sol\":23651:23740  _allowances[sender][_msgSender()].sub(amount, 'BEP20: transfer amount exceeds allowance') */\n      swap1\n        /* \"contracts/SyrupBar.sol\":23651:23688  _allowances[sender][_msgSender()].sub */\n      tag_133\n        /* \"contracts/SyrupBar.sol\":23651:23740  _allowances[sender][_msgSender()].sub(amount, 'BEP20: transfer amount exceeds allowance') */\n      jump\t// in\n    tag_131:\n        /* \"contracts/SyrupBar.sol\":23580:23588  _approve */\n      tag_124\n        /* \"contracts/SyrupBar.sol\":23580:23751  _approve(\r... */\n      jump\t// in\n    tag_129:\n      pop\n        /* \"contracts/SyrupBar.sol\":23769:23773  true */\n      0x01\n        /* \"contracts/SyrupBar.sol\":23384:23781  function transferFrom(\r... */\n      swap4\n      swap3\n      pop\n      pop\n      pop\n      jump\t// out\n        /* \"contracts/SyrupBar.sol\":21424:21516  function decimals() public override view returns (uint8) {\r... */\n    tag_53:\n        /* \"contracts/SyrupBar.sol\":21499:21508  _decimals */\n      and(0xff, sload(0x06))\n        /* \"contracts/SyrupBar.sol\":21424:21516  function decimals() public override view returns (uint8) {\r... */\n      swap1\n      jump\t// out\n        /* \"contracts/SyrupBar.sol\":24189:24399  function increaseAllowance(address spender, uint256 addedValue) public returns (bool) {\r... */\n    tag_56:\n        /* \"contracts/SyrupBar.sol\":24269:24273  bool */\n      0x00\n        /* \"contracts/SyrupBar.sol\":24286:24369  _approve(_msgSender(), spender, _allowances[_msgSender()][spender].add(addedValue)) */\n      tag_121\n        /* \"contracts/SyrupBar.sol\":24295:24307  _msgSender() */\n      tag_137\n        /* \"contracts/SyrupBar.sol\":24295:24305  _msgSender */\n      tag_123\n        /* \"contracts/SyrupBar.sol\":24295:24307  _msgSender() */\n      jump\t// in\n    tag_137:\n        /* \"contracts/SyrupBar.sol\":24309:24316  spender */\n      dup5\n        /* \"contracts/SyrupBar.sol\":24318:24368  _allowances[_msgSender()][spender].add(addedValue) */\n      tag_131\n        /* \"contracts/SyrupBar.sol\":24357:24367  addedValue */\n      dup6\n        /* \"contracts/SyrupBar.sol\":24318:24329  _allowances */\n      0x02\n        /* \"contracts/SyrupBar.sol\":24318:24343  _allowances[_msgSender()] */\n      0x00\n        /* \"contracts/SyrupBar.sol\":24330:24342  _msgSender() */\n      tag_139\n        /* \"contracts/SyrupBar.sol\":24330:24340  _msgSender */\n      tag_123\n        /* \"contracts/SyrupBar.sol\":24330:24342  _msgSender() */\n      jump\t// in\n    tag_139:\n      sub(shl(0xa0, 0x01), 0x01)\n        /* \"contracts/SyrupBar.sol\":24318:24343  _allowances[_msgSender()] */\n      swap1\n      dup2\n      and\n      dup3\n      mstore\n      0x20\n      dup1\n      dup4\n      add\n      swap4\n      swap1\n      swap4\n      mstore\n      0x40\n      swap2\n      dup3\n      add\n      0x00\n      swap1\n      dup2\n      keccak256\n        /* \"contracts/SyrupBar.sol\":24318:24352  _allowances[_msgSender()][spender] */\n      swap2\n      dup13\n      and\n      dup2\n      mstore\n      swap3\n      mstore\n      swap1\n      keccak256\n      sload\n      swap1\n        /* \"contracts/SyrupBar.sol\":24318:24356  _allowances[_msgSender()][spender].add */\n      tag_140\n        /* \"contracts/SyrupBar.sol\":24318:24368  _allowances[_msgSender()][spender].add(addedValue) */\n      jump\t// in\n        /* \"contracts/SyrupBar.sol\":29307:29469  function mint(address _to, uint256 _amount) public onlyOwner {\r... */\n    tag_59:\n        /* \"contracts/SyrupBar.sol\":2399:2411  _msgSender() */\n      tag_142\n        /* \"contracts/SyrupBar.sol\":2399:2409  _msgSender */\n      tag_123\n        /* \"contracts/SyrupBar.sol\":2399:2411  _msgSender() */\n      jump\t// in\n    tag_142:\n        /* \"contracts/SyrupBar.sol\":2389:2395  _owner */\n      sload(0x00)\n      sub(shl(0xa0, 0x01), 0x01)\n      swap1\n      dup2\n      and\n        /* \"contracts/SyrupBar.sol\":2389:2411  _owner == _msgSender() */\n      swap2\n      and\n      eq\n        /* \"contracts/SyrupBar.sol\":2381:2448  require(_owner == _msgSender(), 'Ownable: caller is not the owner') */\n      tag_143\n      jumpi\n      0x40\n      dup1\n      mload\n      shl(0xe5, 0x461bcd)\n      dup2\n      mstore\n      0x20\n      0x04\n      dup3\n      add\n      dup2\n      swap1\n      mstore\n      0x24\n      dup3\n      add\n      mstore\n      0x00\n      dup1\n      mload\n      0x20\n      data_9924ebdf1add33d25d4ef888e16131f0a5687b0580a36c21b5c301a6c462effe\n      dup4\n      codecopy\n      dup2\n      mload\n      swap2\n      mstore\n      0x44\n      dup3\n      add\n      mstore\n      swap1\n      mload\n      swap1\n      dup2\n      swap1\n      sub\n      0x64\n      add\n      swap1\n      revert\n    tag_143:\n        /* \"contracts/SyrupBar.sol\":29379:29398  _mint(_to, _amount) */\n      tag_145\n        /* \"contracts/SyrupBar.sol\":29385:29388  _to */\n      dup3\n        /* \"contracts/SyrupBar.sol\":29390:29397  _amount */\n      dup3\n        /* \"contracts/SyrupBar.sol\":29379:29384  _mint */\n      tag_146\n        /* \"contracts/SyrupBar.sol\":29379:29398  _mint(_to, _amount) */\n      jump\t// in\n    tag_145:\n      sub(shl(0xa0, 0x01), 0x01)\n        /* \"contracts/SyrupBar.sol\":29436:29451  _delegates[_to] */\n      dup1\n      dup4\n      and\n        /* \"contracts/SyrupBar.sol\":29432:29433  0 */\n      0x00\n        /* \"contracts/SyrupBar.sol\":29436:29451  _delegates[_to] */\n      swap1\n      dup2\n      mstore\n        /* \"contracts/SyrupBar.sol\":29436:29446  _delegates */\n      0x07\n        /* \"contracts/SyrupBar.sol\":29436:29451  _delegates[_to] */\n      0x20\n      mstore\n      0x40\n      dup2\n      keccak256\n      sload\n        /* \"contracts/SyrupBar.sol\":29409:29461  _moveDelegates(address(0), _delegates[_to], _amount) */\n      tag_147\n      swap3\n        /* \"contracts/SyrupBar.sol\":29436:29451  _delegates[_to] */\n      and\n        /* \"contracts/SyrupBar.sol\":29453:29460  _amount */\n      dup4\n        /* \"contracts/SyrupBar.sol\":29409:29423  _moveDelegates */\n      tag_148\n        /* \"contracts/SyrupBar.sol\":29409:29461  _moveDelegates(address(0), _delegates[_to], _amount) */\n      jump\t// in\n    tag_147:\n        /* \"contracts/SyrupBar.sol\":29307:29469  function mint(address _to, uint256 _amount) public onlyOwner {\r... */\n      pop\n      pop\n      jump\t// out\n        /* \"contracts/SyrupBar.sol\":31470:31619  function delegates(address delegator)\r... */\n    tag_62:\n      sub(shl(0xa0, 0x01), 0x01)\n        /* \"contracts/SyrupBar.sol\":31590:31611  _delegates[delegator] */\n      swap1\n      dup2\n      and\n        /* \"contracts/SyrupBar.sol\":31558:31565  address */\n      0x00\n        /* \"contracts/SyrupBar.sol\":31590:31611  _delegates[delegator] */\n      swap1\n      dup2\n      mstore\n        /* \"contracts/SyrupBar.sol\":31590:31600  _delegates */\n      0x07\n        /* \"contracts/SyrupBar.sol\":31590:31611  _delegates[delegator] */\n      0x20\n      mstore\n      0x40\n      swap1\n      keccak256\n      sload\n      and\n      swap1\n        /* \"contracts/SyrupBar.sol\":31470:31619  function delegates(address delegator)\r... */\n      jump\t// out\n        /* \"contracts/SyrupBar.sol\":31763:31867  function delegate(address delegatee) external {\r... */\n    tag_65:\n        /* \"contracts/SyrupBar.sol\":31827:31859  _delegate(msg.sender, delegatee) */\n      tag_151\n        /* \"contracts/SyrupBar.sol\":31837:31847  msg.sender */\n      caller\n        /* \"contracts/SyrupBar.sol\":31849:31858  delegatee */\n      dup3\n        /* \"contracts/SyrupBar.sol\":31827:31836  _delegate */\n      tag_152\n        /* \"contracts/SyrupBar.sol\":31827:31859  _delegate(msg.sender, delegatee) */\n      jump\t// in\n    tag_151:\n        /* \"contracts/SyrupBar.sol\":31763:31867  function delegate(address delegatee) external {\r... */\n      pop\n      jump\t// out\n        /* \"contracts/SyrupBar.sol\":30365:30414  mapping (address => uint32) public numCheckpoints */\n    tag_68:\n      mstore(0x20, 0x09)\n      0x00\n      swap1\n      dup2\n      mstore\n      0x40\n      swap1\n      keccak256\n      sload\n      0xffffffff\n      and\n      dup2\n      jump\t// out\n        /* \"contracts/SyrupBar.sol\":21903:22022  function balanceOf(address account) public override view returns (uint256) {\r... */\n    tag_71:\n      sub(shl(0xa0, 0x01), 0x01)\n        /* \"contracts/SyrupBar.sol\":21996:22014  _balances[account] */\n      and\n        /* \"contracts/SyrupBar.sol\":21969:21976  uint256 */\n      0x00\n        /* \"contracts/SyrupBar.sol\":21996:22014  _balances[account] */\n      swap1\n      dup2\n      mstore\n        /* \"contracts/SyrupBar.sol\":21996:22005  _balances */\n      0x01\n        /* \"contracts/SyrupBar.sol\":21996:22014  _balances[account] */\n      0x20\n      mstore\n      0x40\n      swap1\n      keccak256\n      sload\n      swap1\n        /* \"contracts/SyrupBar.sol\":21903:22022  function balanceOf(address account) public override view returns (uint256) {\r... */\n      jump\t// out\n        /* \"contracts/SyrupBar.sol\":2819:2959  function renounceOwnership() public onlyOwner {\r... */\n    tag_73:\n        /* \"contracts/SyrupBar.sol\":2399:2411  _msgSender() */\n      tag_155\n        /* \"contracts/SyrupBar.sol\":2399:2409  _msgSender */\n      tag_123\n        /* \"contracts/SyrupBar.sol\":2399:2411  _msgSender() */\n      jump\t// in\n    tag_155:\n        /* \"contracts/SyrupBar.sol\":2389:2395  _owner */\n      sload(0x00)\n      sub(shl(0xa0, 0x01), 0x01)\n      swap1\n      dup2\n      and\n        /* \"contracts/SyrupBar.sol\":2389:2411  _owner == _msgSender() */\n      swap2\n      and\n      eq\n        /* \"contracts/SyrupBar.sol\":2381:2448  require(_owner == _msgSender(), 'Ownable: caller is not the owner') */\n      tag_156\n      jumpi\n      0x40\n      dup1\n      mload\n      shl(0xe5, 0x461bcd)\n      dup2\n      mstore\n      0x20\n      0x04\n      dup3\n      add\n      dup2\n      swap1\n      mstore\n      0x24\n      dup3\n      add\n      mstore\n      0x00\n      dup1\n      mload\n      0x20\n      data_9924ebdf1add33d25d4ef888e16131f0a5687b0580a36c21b5c301a6c462effe\n      dup4\n      codecopy\n      dup2\n      mload\n      swap2\n      mstore\n      0x44\n      dup3\n      add\n      mstore\n      swap1\n      mload\n      swap1\n      dup2\n      swap1\n      sub\n      0x64\n      add\n      swap1\n      revert\n    tag_156:\n        /* \"contracts/SyrupBar.sol\":2918:2919  0 */\n      0x00\n        /* \"contracts/SyrupBar.sol\":2902:2908  _owner */\n      dup1\n      sload\n        /* \"contracts/SyrupBar.sol\":2881:2921  OwnershipTransferred(_owner, address(0)) */\n      mload(0x40)\n      sub(shl(0xa0, 0x01), 0x01)\n        /* \"contracts/SyrupBar.sol\":2902:2908  _owner */\n      swap1\n      swap2\n      and\n      swap1\n        /* \"contracts/SyrupBar.sol\":2881:2921  OwnershipTransferred(_owner, address(0)) */\n      0x8be0079c531659141344cd1fd0a4f28419497f9722a3daafe3b4186f6b6457e0\n      swap1\n        /* \"contracts/SyrupBar.sol\":2918:2919  0 */\n      dup4\n      swap1\n        /* \"contracts/SyrupBar.sol\":2881:2921  OwnershipTransferred(_owner, address(0)) */\n      log3\n        /* \"contracts/SyrupBar.sol\":2949:2950  0 */\n      0x00\n        /* \"contracts/SyrupBar.sol\":2932:2951  _owner = address(0) */\n      dup1\n      sload\n      not(sub(shl(0xa0, 0x01), 0x01))\n      and\n      swap1\n      sstore\n        /* \"contracts/SyrupBar.sol\":2819:2959  function renounceOwnership() public onlyOwner {\r... */\n      jump\t// out\n        /* \"contracts/SyrupBar.sol\":34378:35635  function getPriorVotes(address account, uint blockNumber)\r... */\n    tag_76:\n        /* \"contracts/SyrupBar.sol\":34486:34493  uint256 */\n      0x00\n        /* \"contracts/SyrupBar.sol\":34533:34545  block.number */\n      number\n        /* \"contracts/SyrupBar.sol\":34519:34530  blockNumber */\n      dup3\n        /* \"contracts/SyrupBar.sol\":34519:34545  blockNumber < block.number */\n      lt\n        /* \"contracts/SyrupBar.sol\":34511:34593  require(blockNumber < block.number, \"Landbase::getPriorVotes: not yet determined\") */\n      tag_159\n      jumpi\n      mload(0x40)\n      shl(0xe5, 0x461bcd)\n      dup2\n      mstore\n      0x04\n      add\n      dup1\n      dup1\n      0x20\n      add\n      dup3\n      dup2\n      sub\n      dup3\n      mstore\n      0x2b\n      dup2\n      mstore\n      0x20\n      add\n      dup1\n      data_39d7bbb45a7f857f51f14c10411958da3f5ab325b0c33833fa65742bf2097f9a\n      0x2b\n      swap2\n      codecopy\n      0x40\n      add\n      swap2\n      pop\n      pop\n      mload(0x40)\n      dup1\n      swap2\n      sub\n      swap1\n      revert\n    tag_159:\n      sub(shl(0xa0, 0x01), 0x01)\n        /* \"contracts/SyrupBar.sol\":34628:34651  numCheckpoints[account] */\n      dup4\n      and\n        /* \"contracts/SyrupBar.sol\":34606:34625  uint32 nCheckpoints */\n      0x00\n        /* \"contracts/SyrupBar.sol\":34628:34651  numCheckpoints[account] */\n      swap1\n      dup2\n      mstore\n        /* \"contracts/SyrupBar.sol\":34628:34642  numCheckpoints */\n      0x09\n        /* \"contracts/SyrupBar.sol\":34628:34651  numCheckpoints[account] */\n      0x20\n      mstore\n      0x40\n      swap1\n      keccak256\n      sload\n      0xffffffff\n      and\n        /* \"contracts/SyrupBar.sol\":34666:34683  nCheckpoints == 0 */\n      dup1\n        /* \"contracts/SyrupBar.sol\":34662:34720  if (nCheckpoints == 0) {\r... */\n      tag_160\n      jumpi\n        /* \"contracts/SyrupBar.sol\":34707:34708  0 */\n      0x00\n        /* \"contracts/SyrupBar.sol\":34700:34708  return 0 */\n      swap2\n      pop\n      pop\n      jump(tag_120)\n        /* \"contracts/SyrupBar.sol\":34662:34720  if (nCheckpoints == 0) {\r... */\n    tag_160:\n      sub(shl(0xa0, 0x01), 0x01)\n        /* \"contracts/SyrupBar.sol\":34780:34800  checkpoints[account] */\n      dup5\n      and\n      0x00\n      swap1\n      dup2\n      mstore\n        /* \"contracts/SyrupBar.sol\":34780:34791  checkpoints */\n      0x08\n        /* \"contracts/SyrupBar.sol\":34780:34800  checkpoints[account] */\n      0x20\n      swap1\n      dup2\n      mstore\n      0x40\n      dup1\n      dup4\n      keccak256\n        /* \"contracts/SyrupBar.sol\":34780:34818  checkpoints[account][nCheckpoints - 1] */\n      0xffffffff\n      not(0x00)\n        /* \"contracts/SyrupBar.sol\":34801:34817  nCheckpoints - 1 */\n      dup7\n      add\n        /* \"contracts/SyrupBar.sol\":34780:34818  checkpoints[account][nCheckpoints - 1] */\n      dup2\n      and\n      dup6\n      mstore\n      swap3\n      mstore\n      swap1\n      swap2\n      keccak256\n        /* \"contracts/SyrupBar.sol\":34780:34828  checkpoints[account][nCheckpoints - 1].fromBlock */\n      sload\n      and\n        /* \"contracts/SyrupBar.sol\":34780:34843  checkpoints[account][nCheckpoints - 1].fromBlock <= blockNumber */\n      dup4\n      lt\n        /* \"contracts/SyrupBar.sol\":34776:34923  if (checkpoints[account][nCheckpoints - 1].fromBlock <= blockNumber) {\r... */\n      tag_161\n      jumpi\n      sub(shl(0xa0, 0x01), 0x01)\n        /* \"contracts/SyrupBar.sol\":34867:34887  checkpoints[account] */\n      dup5\n      and\n      0x00\n      swap1\n      dup2\n      mstore\n        /* \"contracts/SyrupBar.sol\":34867:34878  checkpoints */\n      0x08\n        /* \"contracts/SyrupBar.sol\":34867:34887  checkpoints[account] */\n      0x20\n      swap1\n      dup2\n      mstore\n      0x40\n      dup1\n      dup4\n      keccak256\n      not(0x00)\n        /* \"contracts/SyrupBar.sol\":34888:34904  nCheckpoints - 1 */\n      swap5\n      swap1\n      swap5\n      add\n        /* \"contracts/SyrupBar.sol\":34867:34905  checkpoints[account][nCheckpoints - 1] */\n      0xffffffff\n      and\n      dup4\n      mstore\n      swap3\n      swap1\n      mstore\n      keccak256\n        /* \"contracts/SyrupBar.sol\":34903:34904  1 */\n      0x01\n        /* \"contracts/SyrupBar.sol\":34867:34911  checkpoints[account][nCheckpoints - 1].votes */\n      add\n      sload\n      swap1\n      pop\n        /* \"contracts/SyrupBar.sol\":34860:34911  return checkpoints[account][nCheckpoints - 1].votes */\n      jump(tag_120)\n        /* \"contracts/SyrupBar.sol\":34776:34923  if (checkpoints[account][nCheckpoints - 1].fromBlock <= blockNumber) {\r... */\n    tag_161:\n      sub(shl(0xa0, 0x01), 0x01)\n        /* \"contracts/SyrupBar.sol\":34984:35004  checkpoints[account] */\n      dup5\n      and\n      0x00\n      swap1\n      dup2\n      mstore\n        /* \"contracts/SyrupBar.sol\":34984:34995  checkpoints */\n      0x08\n        /* \"contracts/SyrupBar.sol\":34984:35004  checkpoints[account] */\n      0x20\n      swap1\n      dup2\n      mstore\n      0x40\n      dup1\n      dup4\n      keccak256\n        /* \"contracts/SyrupBar.sol\":34984:35007  checkpoints[account][0] */\n      dup4\n      dup1\n      mstore\n      swap1\n      swap2\n      mstore\n      swap1\n      keccak256\n        /* \"contracts/SyrupBar.sol\":34984:35017  checkpoints[account][0].fromBlock */\n      sload\n        /* \"contracts/SyrupBar.sol\":34984:35007  checkpoints[account][0] */\n      0xffffffff\n        /* \"contracts/SyrupBar.sol\":34984:35017  checkpoints[account][0].fromBlock */\n      and\n        /* \"contracts/SyrupBar.sol\":34984:35031  checkpoints[account][0].fromBlock > blockNumber */\n      dup4\n      lt\n        /* \"contracts/SyrupBar.sol\":34980:35068  if (checkpoints[account][0].fromBlock > blockNumber) {\r... */\n      iszero\n      tag_162\n      jumpi\n        /* \"contracts/SyrupBar.sol\":35055:35056  0 */\n      0x00\n        /* \"contracts/SyrupBar.sol\":35048:35056  return 0 */\n      swap2\n      pop\n      pop\n      jump(tag_120)\n        /* \"contracts/SyrupBar.sol\":34980:35068  if (checkpoints[account][0].fromBlock > blockNumber) {\r... */\n    tag_162:\n        /* \"contracts/SyrupBar.sol\":35080:35092  uint32 lower */\n      0x00\n      not(0x00)\n        /* \"contracts/SyrupBar.sol\":35122:35138  nCheckpoints - 1 */\n      dup3\n      add\n        /* \"contracts/SyrupBar.sol\":35149:35577  while (upper > lower) {\r... */\n    tag_163:\n        /* \"contracts/SyrupBar.sol\":35164:35169  lower */\n      dup2\n        /* \"contracts/SyrupBar.sol\":35156:35169  upper > lower */\n      0xffffffff\n      and\n        /* \"contracts/SyrupBar.sol\":35156:35161  upper */\n      dup2\n        /* \"contracts/SyrupBar.sol\":35156:35169  upper > lower */\n      0xffffffff\n      and\n      gt\n        /* \"contracts/SyrupBar.sol\":35149:35577  while (upper > lower) {\r... */\n      iszero\n      tag_164\n      jumpi\n        /* \"contracts/SyrupBar.sol\":35228:35229  2 */\n      0x02\n        /* \"contracts/SyrupBar.sol\":35211:35224  upper - lower */\n      dup3\n      dup3\n      sub\n        /* \"contracts/SyrupBar.sol\":35210:35229  (upper - lower) / 2 */\n      0xffffffff\n      and\n      div\n        /* \"contracts/SyrupBar.sol\":35202:35229  upper - (upper - lower) / 2 */\n      dup2\n      sub\n        /* \"contracts/SyrupBar.sol\":35271:35291  Checkpoint memory cp */\n      tag_166\n      tag_167\n      jump\t// in\n    tag_166:\n      pop\n      sub(shl(0xa0, 0x01), 0x01)\n        /* \"contracts/SyrupBar.sol\":35294:35314  checkpoints[account] */\n      dup8\n      and\n      0x00\n      swap1\n      dup2\n      mstore\n        /* \"contracts/SyrupBar.sol\":35294:35305  checkpoints */\n      0x08\n        /* \"contracts/SyrupBar.sol\":35294:35314  checkpoints[account] */\n      0x20\n      swap1\n      dup2\n      mstore\n      0x40\n      dup1\n      dup4\n      keccak256\n        /* \"contracts/SyrupBar.sol\":35294:35322  checkpoints[account][center] */\n      0xffffffff\n      dup1\n      dup7\n      and\n      dup6\n      mstore\n      swap1\n      dup4\n      mstore\n      swap3\n      dup2\n      swap1\n      keccak256\n        /* \"contracts/SyrupBar.sol\":35271:35322  Checkpoint memory cp = checkpoints[account][center] */\n      dup2\n      mload\n      dup1\n      dup4\n      add\n      swap1\n      swap3\n      mstore\n      dup1\n      sload\n      swap1\n      swap4\n      and\n      dup1\n      dup3\n      mstore\n      0x01\n      swap1\n      swap4\n      add\n      sload\n      swap2\n      dup2\n      add\n      swap2\n      swap1\n      swap2\n      mstore\n      swap1\n        /* \"contracts/SyrupBar.sol\":35341:35368  cp.fromBlock == blockNumber */\n      dup8\n      eq\n        /* \"contracts/SyrupBar.sol\":35337:35566  if (cp.fromBlock == blockNumber) {\r... */\n      iszero\n      tag_168\n      jumpi\n        /* \"contracts/SyrupBar.sol\":35396:35404  cp.votes */\n      0x20\n      add\n      mload\n      swap5\n      pop\n        /* \"contracts/SyrupBar.sol\":35389:35404  return cp.votes */\n      tag_120\n      swap4\n      pop\n      pop\n      pop\n      pop\n      jump\n        /* \"contracts/SyrupBar.sol\":35337:35566  if (cp.fromBlock == blockNumber) {\r... */\n    tag_168:\n        /* \"contracts/SyrupBar.sol\":35430:35442  cp.fromBlock */\n      dup1\n      mload\n        /* \"contracts/SyrupBar.sol\":35430:35456  cp.fromBlock < blockNumber */\n      0xffffffff\n      and\n      dup8\n      gt\n        /* \"contracts/SyrupBar.sol\":35426:35566  if (cp.fromBlock < blockNumber) {\r... */\n      iszero\n      tag_170\n      jumpi\n        /* \"contracts/SyrupBar.sol\":35485:35491  center */\n      dup2\n        /* \"contracts/SyrupBar.sol\":35477:35491  lower = center */\n      swap4\n      pop\n        /* \"contracts/SyrupBar.sol\":35426:35566  if (cp.fromBlock < blockNumber) {\r... */\n      jump(tag_171)\n    tag_170:\n        /* \"contracts/SyrupBar.sol\":35549:35550  1 */\n      0x01\n        /* \"contracts/SyrupBar.sol\":35540:35546  center */\n      dup3\n        /* \"contracts/SyrupBar.sol\":35540:35550  center - 1 */\n      sub\n        /* \"contracts/SyrupBar.sol\":35532:35550  upper = center - 1 */\n      swap3\n      pop\n        /* \"contracts/SyrupBar.sol\":35426:35566  if (cp.fromBlock < blockNumber) {\r... */\n    tag_171:\n        /* \"contracts/SyrupBar.sol\":35149:35577  while (upper > lower) {\r... */\n      pop\n      pop\n      jump(tag_163)\n    tag_164:\n      pop\n      sub(shl(0xa0, 0x01), 0x01)\n        /* \"contracts/SyrupBar.sol\":35594:35614  checkpoints[account] */\n      dup6\n      and\n      0x00\n      swap1\n      dup2\n      mstore\n        /* \"contracts/SyrupBar.sol\":35594:35605  checkpoints */\n      0x08\n        /* \"contracts/SyrupBar.sol\":35594:35614  checkpoints[account] */\n      0x20\n      swap1\n      dup2\n      mstore\n      0x40\n      dup1\n      dup4\n      keccak256\n        /* \"contracts/SyrupBar.sol\":35594:35621  checkpoints[account][lower] */\n      0xffffffff\n      swap1\n      swap5\n      and\n      dup4\n      mstore\n      swap3\n      swap1\n      mstore\n      keccak256\n        /* \"contracts/SyrupBar.sol\":35594:35627  checkpoints[account][lower].votes */\n      0x01\n      add\n      sload\n      swap2\n      pop\n      pop\n        /* \"contracts/SyrupBar.sol\":34378:35635  function getPriorVotes(address account, uint blockNumber)\r... */\n      swap3\n      swap2\n      pop\n      pop\n      jump\t// out\n        /* \"contracts/SyrupBar.sol\":30901:30940  mapping (address => uint) public nonces */\n    tag_79:\n      mstore(0x20, 0x0a)\n      0x00\n      swap1\n      dup2\n      mstore\n      0x40\n      swap1\n      keccak256\n      sload\n      dup2\n      jump\t// out\n        /* \"contracts/SyrupBar.sol\":21108:21202  function getOwner() external override view returns (address) {\r... */\n    tag_81:\n        /* \"contracts/SyrupBar.sol\":21160:21167  address */\n      0x00\n        /* \"contracts/SyrupBar.sol\":21187:21194  owner() */\n      tag_173\n        /* \"contracts/SyrupBar.sol\":21187:21192  owner */\n      tag_83\n        /* \"contracts/SyrupBar.sol\":21187:21194  owner() */\n      jump\t// in\n    tag_173:\n        /* \"contracts/SyrupBar.sol\":21180:21194  return owner() */\n      swap1\n      pop\n        /* \"contracts/SyrupBar.sol\":21108:21202  function getOwner() external override view returns (address) {\r... */\n      swap1\n      jump\t// out\n        /* \"contracts/SyrupBar.sol\":2177:2256  function owner() public view returns (address) {\r... */\n    tag_83:\n        /* \"contracts/SyrupBar.sol\":2215:2222  address */\n      0x00\n        /* \"contracts/SyrupBar.sol\":2242:2248  _owner */\n      sload\n      sub(shl(0xa0, 0x01), 0x01)\n      and\n        /* \"contracts/SyrupBar.sol\":2177:2256  function owner() public view returns (address) {\r... */\n      swap1\n      jump\t// out\n        /* \"contracts/SyrupBar.sol\":21581:21677  function symbol() public override view returns (string memory) {\r... */\n    tag_85:\n        /* \"contracts/SyrupBar.sol\":21662:21669  _symbol */\n      0x05\n        /* \"contracts/SyrupBar.sol\":21655:21669  return _symbol */\n      dup1\n      sload\n      0x40\n      dup1\n      mload\n      0x20\n      0x1f\n      0x02\n      not(0x00)\n      0x0100\n      0x01\n      dup9\n      and\n      iszero\n      mul\n      add\n      swap1\n      swap6\n      and\n      swap5\n      swap1\n      swap5\n      div\n      swap4\n      dup5\n      add\n      dup2\n      swap1\n      div\n      dup2\n      mul\n      dup3\n      add\n      dup2\n      add\n      swap1\n      swap3\n      mstore\n      dup3\n      dup2\n      mstore\n        /* \"contracts/SyrupBar.sol\":21629:21642  string memory */\n      0x60\n      swap4\n        /* \"contracts/SyrupBar.sol\":21655:21669  return _symbol */\n      swap1\n      swap3\n        /* \"contracts/SyrupBar.sol\":21662:21669  _symbol */\n      swap1\n      swap2\n        /* \"contracts/SyrupBar.sol\":21655:21669  return _symbol */\n      dup4\n      add\n        /* \"contracts/SyrupBar.sol\":21662:21669  _symbol */\n      dup3\n        /* \"contracts/SyrupBar.sol\":21655:21669  return _symbol */\n      dup3\n      dup1\n      iszero\n      tag_117\n      jumpi\n      dup1\n      0x1f\n      lt\n      tag_118\n      jumpi\n      0x0100\n      dup1\n      dup4\n      sload\n      div\n      mul\n      dup4\n      mstore\n      swap2\n      0x20\n      add\n      swap2\n      jump(tag_117)\n        /* \"contracts/SyrupBar.sol\":25430:25560  function mint(uint256 amount) public onlyOwner returns (bool) {\r... */\n    tag_92:\n        /* \"contracts/SyrupBar.sol\":25486:25490  bool */\n      0x00\n        /* \"contracts/SyrupBar.sol\":2399:2411  _msgSender() */\n      tag_180\n        /* \"contracts/SyrupBar.sol\":2399:2409  _msgSender */\n      tag_123\n        /* \"contracts/SyrupBar.sol\":2399:2411  _msgSender() */\n      jump\t// in\n    tag_180:\n        /* \"contracts/SyrupBar.sol\":2389:2395  _owner */\n      sload(0x00)\n      sub(shl(0xa0, 0x01), 0x01)\n      swap1\n      dup2\n      and\n        /* \"contracts/SyrupBar.sol\":2389:2411  _owner == _msgSender() */\n      swap2\n      and\n      eq\n        /* \"contracts/SyrupBar.sol\":2381:2448  require(_owner == _msgSender(), 'Ownable: caller is not the owner') */\n      tag_181\n      jumpi\n      0x40\n      dup1\n      mload\n      shl(0xe5, 0x461bcd)\n      dup2\n      mstore\n      0x20\n      0x04\n      dup3\n      add\n      dup2\n      swap1\n      mstore\n      0x24\n      dup3\n      add\n      mstore\n      0x00\n      dup1\n      mload\n      0x20\n      data_9924ebdf1add33d25d4ef888e16131f0a5687b0580a36c21b5c301a6c462effe\n      dup4\n      codecopy\n      dup2\n      mload\n      swap2\n      mstore\n      0x44\n      dup3\n      add\n      mstore\n      swap1\n      mload\n      swap1\n      dup2\n      swap1\n      sub\n      0x64\n      add\n      swap1\n      revert\n    tag_181:\n        /* \"contracts/SyrupBar.sol\":25503:25530  _mint(_msgSender(), amount) */\n      tag_183\n        /* \"contracts/SyrupBar.sol\":25509:25521  _msgSender() */\n      tag_184\n        /* \"contracts/SyrupBar.sol\":25509:25519  _msgSender */\n      tag_123\n        /* \"contracts/SyrupBar.sol\":25509:25521  _msgSender() */\n      jump\t// in\n    tag_184:\n        /* \"contracts/SyrupBar.sol\":25523:25529  amount */\n      dup4\n        /* \"contracts/SyrupBar.sol\":25503:25508  _mint */\n      tag_146\n        /* \"contracts/SyrupBar.sol\":25503:25530  _mint(_msgSender(), amount) */\n      jump\t// in\n    tag_183:\n      pop\n        /* \"contracts/SyrupBar.sol\":25548:25552  true */\n      0x01\n        /* \"contracts/SyrupBar.sol\":25430:25560  function mint(uint256 amount) public onlyOwner returns (bool) {\r... */\n      swap2\n      swap1\n      pop\n      jump\t// out\n        /* \"contracts/SyrupBar.sol\":24901:25212  function decreaseAllowance(address spender, uint256 subtractedValue) public returns (bool) {\r... */\n    tag_95:\n        /* \"contracts/SyrupBar.sol\":24986:24990  bool */\n      0x00\n        /* \"contracts/SyrupBar.sol\":25003:25182  _approve(\r... */\n      tag_121\n        /* \"contracts/SyrupBar.sol\":25026:25038  _msgSender() */\n      tag_187\n        /* \"contracts/SyrupBar.sol\":25026:25036  _msgSender */\n      tag_123\n        /* \"contracts/SyrupBar.sol\":25026:25038  _msgSender() */\n      jump\t// in\n    tag_187:\n        /* \"contracts/SyrupBar.sol\":25053:25060  spender */\n      dup5\n        /* \"contracts/SyrupBar.sol\":25075:25171  _allowances[_msgSender()][spender].sub(subtractedValue, 'BEP20: decreased allowance below zero') */\n      tag_131\n        /* \"contracts/SyrupBar.sol\":25114:25129  subtractedValue */\n      dup6\n        /* \"contracts/SyrupBar.sol\":25075:25171  _allowances[_msgSender()][spender].sub(subtractedValue, 'BEP20: decreased allowance below zero') */\n      mload(0x40)\n      dup1\n      0x60\n      add\n      0x40\n      mstore\n      dup1\n      0x25\n      dup2\n      mstore\n      0x20\n      add\n      data_b7060b3538dcd3ddc8a941c91636a8115a1aa46914747fd9809d543bbb46cd22\n      0x25\n      swap2\n      codecopy\n        /* \"contracts/SyrupBar.sol\":25075:25086  _allowances */\n      0x02\n        /* \"contracts/SyrupBar.sol\":25075:25100  _allowances[_msgSender()] */\n      0x00\n        /* \"contracts/SyrupBar.sol\":25087:25099  _msgSender() */\n      tag_189\n        /* \"contracts/SyrupBar.sol\":25087:25097  _msgSender */\n      tag_123\n        /* \"contracts/SyrupBar.sol\":25087:25099  _msgSender() */\n      jump\t// in\n    tag_189:\n      sub(shl(0xa0, 0x01), 0x01)\n        /* \"contracts/SyrupBar.sol\":25075:25100  _allowances[_msgSender()] */\n      swap1\n      dup2\n      and\n      dup3\n      mstore\n      0x20\n      dup1\n      dup4\n      add\n      swap4\n      swap1\n      swap4\n      mstore\n      0x40\n      swap2\n      dup3\n      add\n      0x00\n      swap1\n      dup2\n      keccak256\n        /* \"contracts/SyrupBar.sol\":25075:25109  _allowances[_msgSender()][spender] */\n      swap2\n      dup14\n      and\n      dup2\n      mstore\n      swap3\n      mstore\n      swap1\n      keccak256\n      sload\n      swap2\n        /* \"contracts/SyrupBar.sol\":25075:25171  _allowances[_msgSender()][spender].sub(subtractedValue, 'BEP20: decreased allowance below zero') */\n      swap1\n        /* \"contracts/SyrupBar.sol\":25075:25113  _allowances[_msgSender()][spender].sub */\n      tag_133\n        /* \"contracts/SyrupBar.sol\":25075:25171  _allowances[_msgSender()][spender].sub(subtractedValue, 'BEP20: decreased allowance below zero') */\n      jump\t// in\n        /* \"contracts/SyrupBar.sol\":22234:22401  function transfer(address recipient, uint256 amount) public override returns (bool) {\r... */\n    tag_98:\n        /* \"contracts/SyrupBar.sol\":22312:22316  bool */\n      0x00\n        /* \"contracts/SyrupBar.sol\":22329:22371  _transfer(_msgSender(), recipient, amount) */\n      tag_121\n        /* \"contracts/SyrupBar.sol\":22339:22351  _msgSender() */\n      tag_192\n        /* \"contracts/SyrupBar.sol\":22339:22349  _msgSender */\n      tag_123\n        /* \"contracts/SyrupBar.sol\":22339:22351  _msgSender() */\n      jump\t// in\n    tag_192:\n        /* \"contracts/SyrupBar.sol\":22353:22362  recipient */\n      dup5\n        /* \"contracts/SyrupBar.sol\":22364:22370  amount */\n      dup5\n        /* \"contracts/SyrupBar.sol\":22329:22338  _transfer */\n      tag_128\n        /* \"contracts/SyrupBar.sol\":22329:22371  _transfer(_msgSender(), recipient, amount) */\n      jump\t// in\n        /* \"contracts/SyrupBar.sol\":33692:33947  function getCurrentVotes(address account)\r... */\n    tag_101:\n      sub(shl(0xa0, 0x01), 0x01)\n        /* \"contracts/SyrupBar.sol\":33831:33854  numCheckpoints[account] */\n      dup2\n      and\n        /* \"contracts/SyrupBar.sol\":33784:33791  uint256 */\n      0x00\n        /* \"contracts/SyrupBar.sol\":33831:33854  numCheckpoints[account] */\n      swap1\n      dup2\n      mstore\n        /* \"contracts/SyrupBar.sol\":33831:33845  numCheckpoints */\n      0x09\n        /* \"contracts/SyrupBar.sol\":33831:33854  numCheckpoints[account] */\n      0x20\n      mstore\n      0x40\n      dup2\n      keccak256\n      sload\n      0xffffffff\n      and\n        /* \"contracts/SyrupBar.sol\":33872:33888  nCheckpoints > 0 */\n      dup1\n        /* \"contracts/SyrupBar.sol\":33872:33939  nCheckpoints > 0 ? checkpoints[account][nCheckpoints - 1].votes : 0 */\n      tag_194\n      jumpi\n        /* \"contracts/SyrupBar.sol\":33938:33939  0 */\n      0x00\n        /* \"contracts/SyrupBar.sol\":33872:33939  nCheckpoints > 0 ? checkpoints[account][nCheckpoints - 1].votes : 0 */\n      jump(tag_195)\n    tag_194:\n      sub(shl(0xa0, 0x01), 0x01)\n        /* \"contracts/SyrupBar.sol\":33891:33911  checkpoints[account] */\n      dup4\n      and\n      0x00\n      swap1\n      dup2\n      mstore\n        /* \"contracts/SyrupBar.sol\":33891:33902  checkpoints */\n      0x08\n        /* \"contracts/SyrupBar.sol\":33891:33911  checkpoints[account] */\n      0x20\n      swap1\n      dup2\n      mstore\n      0x40\n      dup1\n      dup4\n      keccak256\n        /* \"contracts/SyrupBar.sol\":33891:33929  checkpoints[account][nCheckpoints - 1] */\n      0xffffffff\n      not(0x00)\n        /* \"contracts/SyrupBar.sol\":33912:33928  nCheckpoints - 1 */\n      dup7\n      add\n        /* \"contracts/SyrupBar.sol\":33891:33929  checkpoints[account][nCheckpoints - 1] */\n      and\n      dup5\n      mstore\n      swap1\n      swap2\n      mstore\n      swap1\n      keccak256\n        /* \"contracts/SyrupBar.sol\":33927:33928  1 */\n      0x01\n        /* \"contracts/SyrupBar.sol\":33891:33935  checkpoints[account][nCheckpoints - 1].votes */\n      add\n      sload\n        /* \"contracts/SyrupBar.sol\":33872:33939  nCheckpoints > 0 ? checkpoints[account][nCheckpoints - 1].votes : 0 */\n    tag_195:\n        /* \"contracts/SyrupBar.sol\":33865:33939  return nCheckpoints > 0 ? checkpoints[account][nCheckpoints - 1].votes : 0 */\n      swap4\n        /* \"contracts/SyrupBar.sol\":33692:33947  function getCurrentVotes(address account)\r... */\n      swap3\n      pop\n      pop\n      pop\n      jump\t// out\n        /* \"contracts/SyrupBar.sol\":32301:33491  function delegateBySig(\r... */\n    tag_104:\n        /* \"contracts/SyrupBar.sol\":32494:32517  bytes32 domainSeparator */\n      0x00\n        /* \"contracts/SyrupBar.sol\":30529:30609  keccak256(\"EIP712Domain(string name,uint256 chainId,address verifyingContract)\") */\n      0x8cad95687ba82c2ce50e74f7b754645e5117c3a5bec8151c0726d5857980a866\n        /* \"contracts/SyrupBar.sol\":32623:32629  name() */\n      tag_197\n        /* \"contracts/SyrupBar.sol\":32623:32627  name */\n      tag_37\n        /* \"contracts/SyrupBar.sol\":32623:32629  name() */\n      jump\t// in\n    tag_197:\n        /* \"contracts/SyrupBar.sol\":32607:32631  keccak256(bytes(name())) */\n      dup1\n      mload\n      swap1\n      0x20\n      add\n      keccak256\n        /* \"contracts/SyrupBar.sol\":32650:32662  getChainId() */\n      tag_198\n        /* \"contracts/SyrupBar.sol\":32650:32660  getChainId */\n      tag_199\n        /* \"contracts/SyrupBar.sol\":32650:32662  getChainId() */\n      jump\t// in\n    tag_198:\n        /* \"contracts/SyrupBar.sol\":32544:32709  abi.encode(\r... */\n      0x40\n      dup1\n      mload\n      0x20\n      dup1\n      dup3\n      add\n      swap6\n      swap1\n      swap6\n      mstore\n      dup1\n      dup3\n      add\n      swap4\n      swap1\n      swap4\n      mstore\n      0x60\n      dup4\n      add\n      swap2\n      swap1\n      swap2\n      mstore\n        /* \"contracts/SyrupBar.sol\":32689:32693  this */\n      address\n        /* \"contracts/SyrupBar.sol\":32544:32709  abi.encode(\r... */\n      0x80\n      dup1\n      dup5\n      add\n      swap2\n      swap1\n      swap2\n      mstore\n      dup2\n      mload\n      dup1\n      dup5\n      sub\n      swap1\n      swap2\n      add\n      dup2\n      mstore\n      0xa0\n      dup4\n      add\n      dup3\n      mstore\n        /* \"contracts/SyrupBar.sol\":32520:32720  keccak256(\r... */\n      dup1\n      mload\n      swap1\n      dup5\n      add\n      keccak256\n        /* \"contracts/SyrupBar.sol\":30749:30820  keccak256(\"Delegation(address delegatee,uint256 nonce,uint256 expiry)\") */\n      0xe48329057bfd03d55e49b547132e39cffd9c1820ad7b9d4c5307691425d15adf\n        /* \"contracts/SyrupBar.sol\":32778:32918  abi.encode(\r... */\n      0xc0\n      dup5\n      add\n      mstore\n      sub(shl(0xa0, 0x01), 0x01)\n      dup12\n      and\n      0xe0\n      dup5\n      add\n      mstore\n      0x0100\n      dup4\n      add\n      dup11\n      swap1\n      mstore\n      0x0120\n      dup1\n      dup5\n      add\n      dup11\n      swap1\n      mstore\n      dup3\n      mload\n      dup1\n      dup6\n      sub\n      swap1\n      swap2\n      add\n      dup2\n      mstore\n      0x0140\n      dup5\n      add\n      dup4\n      mstore\n        /* \"contracts/SyrupBar.sol\":32754:32929  keccak256(\r... */\n      dup1\n      mload\n      swap1\n      dup6\n      add\n      keccak256\n      shl(0xf0, 0x1901)\n        /* \"contracts/SyrupBar.sol\":32983:33106  abi.encodePacked(\r... */\n      0x0160\n      dup6\n      add\n      mstore\n      0x0162\n      dup5\n      add\n      dup3\n      swap1\n      mstore\n      0x0182\n      dup1\n      dup6\n      add\n      dup3\n      swap1\n      mstore\n      dup4\n      mload\n      dup1\n      dup7\n      sub\n      swap1\n      swap2\n      add\n      dup2\n      mstore\n      0x01a2\n      dup6\n      add\n      dup1\n      dup6\n      mstore\n        /* \"contracts/SyrupBar.sol\":32959:33117  keccak256(\r... */\n      dup2\n      mload\n      swap2\n      dup8\n      add\n      swap2\n      swap1\n      swap2\n      keccak256\n      0x00\n        /* \"contracts/SyrupBar.sol\":33150:33176  ecrecover(digest, v, r, s) */\n      swap2\n      dup3\n      swap1\n      mstore\n      0x01c2\n      dup7\n      add\n      dup1\n      dup7\n      mstore\n      dup2\n      swap1\n      mstore\n      0xff\n      dup12\n      and\n      0x01e2\n      dup8\n      add\n      mstore\n      0x0202\n      dup7\n      add\n      dup11\n      swap1\n      mstore\n      0x0222\n      dup7\n      add\n      dup10\n      swap1\n      mstore\n      swap4\n      mload\n        /* \"contracts/SyrupBar.sol\":32520:32720  keccak256(\r... */\n      swap3\n      swap7\n      pop\n        /* \"contracts/SyrupBar.sol\":32754:32929  keccak256(\r... */\n      swap1\n      swap5\n        /* \"contracts/SyrupBar.sol\":32959:33117  keccak256(\r... */\n      swap3\n      swap4\n      swap1\n      swap3\n        /* \"contracts/SyrupBar.sol\":33150:33176  ecrecover(digest, v, r, s) */\n      0x01\n      swap3\n      0x0242\n      dup1\n      dup5\n      add\n      swap4\n      not(0x1f)\n      dup4\n      add\n      swap3\n      swap1\n      dup2\n      swap1\n      sub\n      swap1\n      swap2\n      add\n      swap1\n      dup6\n      gas\n      staticcall\n      iszero\n      dup1\n      iszero\n      tag_201\n      jumpi\n      returndatasize\n      0x00\n      dup1\n      returndatacopy\n      revert(0x00, returndatasize)\n    tag_201:\n      pop\n      pop\n      mload(add(not(0x1f), mload(0x40)))\n      swap2\n      pop\n      pop\n      sub(shl(0xa0, 0x01), 0x01)\n        /* \"contracts/SyrupBar.sol\":33195:33218  signatory != address(0) */\n      dup2\n      and\n        /* \"contracts/SyrupBar.sol\":33187:33265  require(signatory != address(0), \"Landbase::delegateBySig: invalid signature\") */\n      tag_202\n      jumpi\n      mload(0x40)\n      shl(0xe5, 0x461bcd)\n      dup2\n      mstore\n      0x04\n      add\n      dup1\n      dup1\n      0x20\n      add\n      dup3\n      dup2\n      sub\n      dup3\n      mstore\n      0x2a\n      dup2\n      mstore\n      0x20\n      add\n      dup1\n      data_52b45e49c6df20e4094f486f8ef471413d643444184254d8ad88dd14fa698d80\n      0x2a\n      swap2\n      codecopy\n      0x40\n      add\n      swap2\n      pop\n      pop\n      mload(0x40)\n      dup1\n      swap2\n      sub\n      swap1\n      revert\n    tag_202:\n      sub(shl(0xa0, 0x01), 0x01)\n        /* \"contracts/SyrupBar.sol\":33293:33310  nonces[signatory] */\n      dup2\n      and\n      0x00\n      swap1\n      dup2\n      mstore\n        /* \"contracts/SyrupBar.sol\":33293:33299  nonces */\n      0x0a\n        /* \"contracts/SyrupBar.sol\":33293:33310  nonces[signatory] */\n      0x20\n      mstore\n      0x40\n      swap1\n      keccak256\n        /* \"contracts/SyrupBar.sol\":33293:33312  nonces[signatory]++ */\n      dup1\n      sload\n      0x01\n      dup2\n      add\n      swap1\n      swap2\n      sstore\n        /* \"contracts/SyrupBar.sol\":33284:33312  nonce == nonces[signatory]++ */\n      dup10\n      eq\n        /* \"contracts/SyrupBar.sol\":33276:33355  require(nonce == nonces[signatory]++, \"Landbase::delegateBySig: invalid nonce\") */\n      tag_203\n      jumpi\n      mload(0x40)\n      shl(0xe5, 0x461bcd)\n      dup2\n      mstore\n      0x04\n      add\n      dup1\n      dup1\n      0x20\n      add\n      dup3\n      dup2\n      sub\n      dup3\n      mstore\n      0x26\n      dup2\n      mstore\n      0x20\n      add\n      dup1\n      data_6f3e5d34f0c300db85e21c6ba2f3a7cc520248f798eb85964b026f02f8cba141\n      0x26\n      swap2\n      codecopy\n      0x40\n      add\n      swap2\n      pop\n      pop\n      mload(0x40)\n      dup1\n      swap2\n      sub\n      swap1\n      revert\n    tag_203:\n        /* \"contracts/SyrupBar.sol\":33381:33387  expiry */\n      dup8\n        /* \"contracts/SyrupBar.sol\":33374:33377  now */\n      timestamp\n        /* \"contracts/SyrupBar.sol\":33374:33387  now <= expiry */\n      gt\n      iszero\n        /* \"contracts/SyrupBar.sol\":33366:33434  require(now <= expiry, \"Landbase::delegateBySig: signature expired\") */\n      tag_204\n      jumpi\n      mload(0x40)\n      shl(0xe5, 0x461bcd)\n      dup2\n      mstore\n      0x04\n      add\n      dup1\n      dup1\n      0x20\n      add\n      dup3\n      dup2\n      sub\n      dup3\n      mstore\n      0x2a\n      dup2\n      mstore\n      0x20\n      add\n      dup1\n      data_68820ae31220f4af6532a2956b153f3d6ac9d2c3ffedb545abd2f8b0fcda759c\n      0x2a\n      swap2\n      codecopy\n      0x40\n      add\n      swap2\n      pop\n      pop\n      mload(0x40)\n      dup1\n      swap2\n      sub\n      swap1\n      revert\n    tag_204:\n        /* \"contracts/SyrupBar.sol\":33452:33483  _delegate(signatory, delegatee) */\n      tag_205\n        /* \"contracts/SyrupBar.sol\":33462:33471  signatory */\n      dup2\n        /* \"contracts/SyrupBar.sol\":33473:33482  delegatee */\n      dup12\n        /* \"contracts/SyrupBar.sol\":33452:33461  _delegate */\n      tag_152\n        /* \"contracts/SyrupBar.sol\":33452:33483  _delegate(signatory, delegatee) */\n      jump\t// in\n    tag_205:\n        /* \"contracts/SyrupBar.sol\":33445:33483  return _delegate(signatory, delegatee) */\n      pop\n      pop\n      pop\n      pop\n        /* \"contracts/SyrupBar.sol\":32301:33491  function delegateBySig(\r... */\n    tag_196:\n      pop\n      pop\n      pop\n      pop\n      pop\n      pop\n      jump\t// out\n        /* \"contracts/SyrupBar.sol\":22463:22606  function allowance(address owner, address spender) public override view returns (uint256) {\r... */\n    tag_107:\n      sub(shl(0xa0, 0x01), 0x01)\n        /* \"contracts/SyrupBar.sol\":22571:22589  _allowances[owner] */\n      swap2\n      dup3\n      and\n        /* \"contracts/SyrupBar.sol\":22544:22551  uint256 */\n      0x00\n        /* \"contracts/SyrupBar.sol\":22571:22589  _allowances[owner] */\n      swap1\n      dup2\n      mstore\n        /* \"contracts/SyrupBar.sol\":22571:22582  _allowances */\n      0x02\n        /* \"contracts/SyrupBar.sol\":22571:22589  _allowances[owner] */\n      0x20\n      swap1\n      dup2\n      mstore\n      0x40\n      dup1\n      dup4\n      keccak256\n        /* \"contracts/SyrupBar.sol\":22571:22598  _allowances[owner][spender] */\n      swap4\n      swap1\n      swap5\n      and\n      dup3\n      mstore\n      swap2\n      swap1\n      swap2\n      mstore\n      keccak256\n      sload\n      swap1\n        /* \"contracts/SyrupBar.sol\":22463:22606  function allowance(address owner, address spender) public override view returns (uint256) {\r... */\n      jump\t// out\n        /* \"contracts/SyrupBar.sol\":30703:30820  bytes32 public constant DELEGATION_TYPEHASH = keccak256(\"Delegation(address delegatee,uint256 nonce,uint256 expiry)\") */\n    tag_109:\n        /* \"contracts/SyrupBar.sol\":30749:30820  keccak256(\"Delegation(address delegatee,uint256 nonce,uint256 expiry)\") */\n      0xe48329057bfd03d55e49b547132e39cffd9c1820ad7b9d4c5307691425d15adf\n        /* \"contracts/SyrupBar.sol\":30703:30820  bytes32 public constant DELEGATION_TYPEHASH = keccak256(\"Delegation(address delegatee,uint256 nonce,uint256 expiry)\") */\n      dup2\n      jump\t// out\n        /* \"contracts/SyrupBar.sol\":30226:30296  mapping (address => mapping (uint32 => Checkpoint)) public checkpoints */\n    tag_112:\n      0x08\n      0x20\n      swap1\n      dup2\n      mstore\n      0x00\n      swap3\n      dup4\n      mstore\n      0x40\n      dup1\n      dup5\n      keccak256\n      swap1\n      swap2\n      mstore\n      swap1\n      dup3\n      mstore\n      swap1\n      keccak256\n      dup1\n      sload\n      0x01\n      swap1\n      swap2\n      add\n      sload\n      0xffffffff\n      swap1\n      swap2\n      and\n      swap1\n      dup3\n      jump\t// out\n        /* \"contracts/SyrupBar.sol\":3114:3223  function transferOwnership(address newOwner) public onlyOwner {\r... */\n    tag_115:\n        /* \"contracts/SyrupBar.sol\":2399:2411  _msgSender() */\n      tag_208\n        /* \"contracts/SyrupBar.sol\":2399:2409  _msgSender */\n      tag_123\n        /* \"contracts/SyrupBar.sol\":2399:2411  _msgSender() */\n      jump\t// in\n    tag_208:\n        /* \"contracts/SyrupBar.sol\":2389:2395  _owner */\n      sload(0x00)\n      sub(shl(0xa0, 0x01), 0x01)\n      swap1\n      dup2\n      and\n        /* \"contracts/SyrupBar.sol\":2389:2411  _owner == _msgSender() */\n      swap2\n      and\n      eq\n        /* \"contracts/SyrupBar.sol\":2381:2448  require(_owner == _msgSender(), 'Ownable: caller is not the owner') */\n      tag_209\n      jumpi\n      0x40\n      dup1\n      mload\n      shl(0xe5, 0x461bcd)\n      dup2\n      mstore\n      0x20\n      0x04\n      dup3\n      add\n      dup2\n      swap1\n      mstore\n      0x24\n      dup3\n      add\n      mstore\n      0x00\n      dup1\n      mload\n      0x20\n      data_9924ebdf1add33d25d4ef888e16131f0a5687b0580a36c21b5c301a6c462effe\n      dup4\n      codecopy\n      dup2\n      mload\n      swap2\n      mstore\n      0x44\n      dup3\n      add\n      mstore\n      swap1\n      mload\n      swap1\n      dup2\n      swap1\n      sub\n      0x64\n      add\n      swap1\n      revert\n    tag_209:\n        /* \"contracts/SyrupBar.sol\":3187:3215  _transferOwnership(newOwner) */\n      tag_151\n        /* \"contracts/SyrupBar.sol\":3206:3214  newOwner */\n      dup2\n        /* \"contracts/SyrupBar.sol\":3187:3205  _transferOwnership */\n      tag_212\n        /* \"contracts/SyrupBar.sol\":3187:3215  _transferOwnership(newOwner) */\n      jump\t// in\n        /* \"contracts/SyrupBar.sol\":827:925  function _msgSender() internal view returns (address payable) {\r... */\n    tag_123:\n        /* \"contracts/SyrupBar.sol\":907:917  msg.sender */\n      caller\n        /* \"contracts/SyrupBar.sol\":827:925  function _msgSender() internal view returns (address payable) {\r... */\n      swap1\n      jump\t// out\n        /* \"contracts/SyrupBar.sol\":28264:28636  function _approve(\r... */\n    tag_124:\n      sub(shl(0xa0, 0x01), 0x01)\n        /* \"contracts/SyrupBar.sol\":28392:28411  owner != address(0) */\n      dup4\n      and\n        /* \"contracts/SyrupBar.sol\":28384:28452  require(owner != address(0), 'BEP20: approve from the zero address') */\n      tag_215\n      jumpi\n      mload(0x40)\n      shl(0xe5, 0x461bcd)\n      dup2\n      mstore\n      0x04\n      add\n      dup1\n      dup1\n      0x20\n      add\n      dup3\n      dup2\n      sub\n      dup3\n      mstore\n      0x24\n      dup2\n      mstore\n      0x20\n      add\n      dup1\n      data_1441cfbef485de93bedecc35b3d10fa2992db382c4c9c583a6e423a140abe4a4\n      0x24\n      swap2\n      codecopy\n      0x40\n      add\n      swap2\n      pop\n      pop\n      mload(0x40)\n      dup1\n      swap2\n      sub\n      swap1\n      revert\n    tag_215:\n      sub(shl(0xa0, 0x01), 0x01)\n        /* \"contracts/SyrupBar.sol\":28471:28492  spender != address(0) */\n      dup3\n      and\n        /* \"contracts/SyrupBar.sol\":28463:28531  require(spender != address(0), 'BEP20: approve to the zero address') */\n      tag_216\n      jumpi\n      mload(0x40)\n      shl(0xe5, 0x461bcd)\n      dup2\n      mstore\n      0x04\n      add\n      dup1\n      dup1\n      0x20\n      add\n      dup3\n      dup2\n      sub\n      dup3\n      mstore\n      0x22\n      dup2\n      mstore\n      0x20\n      add\n      dup1\n      data_f10e7571e18b354270dee950932fb6a745efc79414b2b2556185a4ed6a1af0d5\n      0x22\n      swap2\n      codecopy\n      0x40\n      add\n      swap2\n      pop\n      pop\n      mload(0x40)\n      dup1\n      swap2\n      sub\n      swap1\n      revert\n    tag_216:\n      sub(shl(0xa0, 0x01), 0x01)\n        /* \"contracts/SyrupBar.sol\":28544:28562  _allowances[owner] */\n      dup1\n      dup5\n      and\n      0x00\n      dup2\n      dup2\n      mstore\n        /* \"contracts/SyrupBar.sol\":28544:28555  _allowances */\n      0x02\n        /* \"contracts/SyrupBar.sol\":28544:28562  _allowances[owner] */\n      0x20\n      swap1\n      dup2\n      mstore\n      0x40\n      dup1\n      dup4\n      keccak256\n        /* \"contracts/SyrupBar.sol\":28544:28571  _allowances[owner][spender] */\n      swap5\n      dup8\n      and\n      dup1\n      dup5\n      mstore\n      swap5\n      dup3\n      mstore\n      swap2\n      dup3\n      swap1\n      keccak256\n        /* \"contracts/SyrupBar.sol\":28544:28580  _allowances[owner][spender] = amount */\n      dup6\n      swap1\n      sstore\n        /* \"contracts/SyrupBar.sol\":28596:28628  Approval(owner, spender, amount) */\n      dup2\n      mload\n      dup6\n      dup2\n      mstore\n      swap2\n      mload\n      0x8c5be1e5ebec7d5bd14f71427d1e84f3dd0314c0f7b2291e5b200ac8c7c3b925\n      swap3\n      dup2\n      swap1\n      sub\n      swap1\n      swap2\n      add\n      swap1\n      log3\n        /* \"contracts/SyrupBar.sol\":28264:28636  function _approve(\r... */\n      pop\n      pop\n      pop\n      jump\t// out\n        /* \"contracts/SyrupBar.sol\":26050:26555  function _transfer(\r... */\n    tag_128:\n      sub(shl(0xa0, 0x01), 0x01)\n        /* \"contracts/SyrupBar.sol\":26182:26202  sender != address(0) */\n      dup4\n      and\n        /* \"contracts/SyrupBar.sol\":26174:26244  require(sender != address(0), 'BEP20: transfer from the zero address') */\n      tag_218\n      jumpi\n      mload(0x40)\n      shl(0xe5, 0x461bcd)\n      dup2\n      mstore\n      0x04\n      add\n      dup1\n      dup1\n      0x20\n      add\n      dup3\n      dup2\n      sub\n      dup3\n      mstore\n      0x25\n      dup2\n      mstore\n      0x20\n      add\n      dup1\n      data_0d26cf302d50b28de74be656b11d67092b32131e5712d1bcf08c4e976dacda57\n      0x25\n      swap2\n      codecopy\n      0x40\n      add\n      swap2\n      pop\n      pop\n      mload(0x40)\n      dup1\n      swap2\n      sub\n      swap1\n      revert\n    tag_218:\n      sub(shl(0xa0, 0x01), 0x01)\n        /* \"contracts/SyrupBar.sol\":26263:26286  recipient != address(0) */\n      dup3\n      and\n        /* \"contracts/SyrupBar.sol\":26255:26326  require(recipient != address(0), 'BEP20: transfer to the zero address') */\n      tag_219\n      jumpi\n      mload(0x40)\n      shl(0xe5, 0x461bcd)\n      dup2\n      mstore\n      0x04\n      add\n      dup1\n      dup1\n      0x20\n      add\n      dup3\n      dup2\n      sub\n      dup3\n      mstore\n      0x23\n      dup2\n      mstore\n      0x20\n      add\n      dup1\n      data_ade9efcb59e42e439ffe61509b352b1af56d64ccb68d80b039b7b69578f371d2\n      0x23\n      swap2\n      codecopy\n      0x40\n      add\n      swap2\n      pop\n      pop\n      mload(0x40)\n      dup1\n      swap2\n      sub\n      swap1\n      revert\n    tag_219:\n        /* \"contracts/SyrupBar.sol\":26359:26430  _balances[sender].sub(amount, 'BEP20: transfer amount exceeds balance') */\n      tag_220\n        /* \"contracts/SyrupBar.sol\":26381:26387  amount */\n      dup2\n        /* \"contracts/SyrupBar.sol\":26359:26430  _balances[sender].sub(amount, 'BEP20: transfer amount exceeds balance') */\n      mload(0x40)\n      dup1\n      0x60\n      add\n      0x40\n      mstore\n      dup1\n      0x26\n      dup2\n      mstore\n      0x20\n      add\n      data_a91efd7a65ef5b4ae4d6568d674798b78a5a89184dd296c100513251c22d3e73\n      0x26\n      swap2\n      codecopy\n      sub(shl(0xa0, 0x01), 0x01)\n        /* \"contracts/SyrupBar.sol\":26359:26376  _balances[sender] */\n      dup7\n      and\n      0x00\n      swap1\n      dup2\n      mstore\n        /* \"contracts/SyrupBar.sol\":26359:26368  _balances */\n      0x01\n        /* \"contracts/SyrupBar.sol\":26359:26376  _balances[sender] */\n      0x20\n      mstore\n      0x40\n      swap1\n      keccak256\n      sload\n      swap2\n        /* \"contracts/SyrupBar.sol\":26359:26430  _balances[sender].sub(amount, 'BEP20: transfer amount exceeds balance') */\n      swap1\n        /* \"contracts/SyrupBar.sol\":26359:26380  _balances[sender].sub */\n      tag_133\n        /* \"contracts/SyrupBar.sol\":26359:26430  _balances[sender].sub(amount, 'BEP20: transfer amount exceeds balance') */\n      jump\t// in\n    tag_220:\n      sub(shl(0xa0, 0x01), 0x01)\n        /* \"contracts/SyrupBar.sol\":26339:26356  _balances[sender] */\n      dup1\n      dup6\n      and\n      0x00\n      swap1\n      dup2\n      mstore\n        /* \"contracts/SyrupBar.sol\":26339:26348  _balances */\n      0x01\n        /* \"contracts/SyrupBar.sol\":26339:26356  _balances[sender] */\n      0x20\n      mstore\n      0x40\n      dup1\n      dup3\n      keccak256\n        /* \"contracts/SyrupBar.sol\":26339:26430  _balances[sender] = _balances[sender].sub(amount, 'BEP20: transfer amount exceeds balance') */\n      swap4\n      swap1\n      swap4\n      sstore\n        /* \"contracts/SyrupBar.sol\":26464:26484  _balances[recipient] */\n      swap1\n      dup5\n      and\n      dup2\n      mstore\n      keccak256\n      sload\n        /* \"contracts/SyrupBar.sol\":26464:26496  _balances[recipient].add(amount) */\n      tag_221\n      swap1\n        /* \"contracts/SyrupBar.sol\":26489:26495  amount */\n      dup3\n        /* \"contracts/SyrupBar.sol\":26464:26488  _balances[recipient].add */\n      tag_140\n        /* \"contracts/SyrupBar.sol\":26464:26496  _balances[recipient].add(amount) */\n      jump\t// in\n    tag_221:\n      sub(shl(0xa0, 0x01), 0x01)\n        /* \"contracts/SyrupBar.sol\":26441:26461  _balances[recipient] */\n      dup1\n      dup5\n      and\n      0x00\n      dup2\n      dup2\n      mstore\n        /* \"contracts/SyrupBar.sol\":26441:26450  _balances */\n      0x01\n        /* \"contracts/SyrupBar.sol\":26441:26461  _balances[recipient] */\n      0x20\n      swap1\n      dup2\n      mstore\n      0x40\n      swap2\n      dup3\n      swap1\n      keccak256\n        /* \"contracts/SyrupBar.sol\":26441:26496  _balances[recipient] = _balances[recipient].add(amount) */\n      swap5\n      swap1\n      swap5\n      sstore\n        /* \"contracts/SyrupBar.sol\":26512:26547  Transfer(sender, recipient, amount) */\n      dup1\n      mload\n      dup6\n      dup2\n      mstore\n      swap1\n      mload\n        /* \"contracts/SyrupBar.sol\":26441:26461  _balances[recipient] */\n      swap2\n      swap4\n        /* \"contracts/SyrupBar.sol\":26512:26547  Transfer(sender, recipient, amount) */\n      swap3\n      dup8\n      and\n      swap3\n      0xddf252ad1be2c89b69c2b068fc378daa952ba7f163c4a11628f55a4df523b3ef\n      swap3\n      swap2\n      dup3\n      swap1\n      sub\n      add\n      swap1\n      log3\n        /* \"contracts/SyrupBar.sol\":26050:26555  function _transfer(\r... */\n      pop\n      pop\n      pop\n      jump\t// out\n        /* \"contracts/SyrupBar.sol\":8467:8693  function sub(\r... */\n    tag_133:\n        /* \"contracts/SyrupBar.sol\":8587:8594  uint256 */\n      0x00\n        /* \"contracts/SyrupBar.sol\":8623:8635  errorMessage */\n      dup2\n        /* \"contracts/SyrupBar.sol\":8615:8621  b <= a */\n      dup5\n      dup5\n      gt\n      iszero\n        /* \"contracts/SyrupBar.sol\":8607:8636  require(b <= a, errorMessage) */\n      tag_223\n      jumpi\n      mload(0x40)\n      shl(0xe5, 0x461bcd)\n      dup2\n      mstore\n      0x04\n      add\n      dup1\n      dup1\n      0x20\n      add\n      dup3\n      dup2\n      sub\n      dup3\n      mstore\n      dup4\n      dup2\n      dup2\n      mload\n      dup2\n      mstore\n      0x20\n      add\n      swap2\n      pop\n      dup1\n      mload\n      swap1\n      0x20\n      add\n      swap1\n      dup1\n      dup4\n      dup4\n      0x00\n    tag_224:\n      dup4\n      dup2\n      lt\n      iszero\n      tag_226\n      jumpi\n      dup2\n      dup2\n      add\n      mload\n      dup4\n      dup3\n      add\n      mstore\n      0x20\n      add\n      jump(tag_224)\n    tag_226:\n      pop\n      pop\n      pop\n      pop\n      swap1\n      pop\n      swap1\n      dup2\n      add\n      swap1\n      0x1f\n      and\n      dup1\n      iszero\n      tag_227\n      jumpi\n      dup1\n      dup3\n      sub\n      dup1\n      mload\n      0x01\n      dup4\n      0x20\n      sub\n      0x0100\n      exp\n      sub\n      not\n      and\n      dup2\n      mstore\n      0x20\n      add\n      swap2\n      pop\n    tag_227:\n      pop\n      swap3\n      pop\n      pop\n      pop\n      mload(0x40)\n      dup1\n      swap2\n      sub\n      swap1\n      revert\n    tag_223:\n      pop\n      pop\n      pop\n        /* \"contracts/SyrupBar.sol\":8659:8664  a - b */\n      swap1\n      sub\n      swap1\n        /* \"contracts/SyrupBar.sol\":8467:8693  function sub(\r... */\n      jump\t// out\n        /* \"contracts/SyrupBar.sol\":7564:7745  function add(uint256 a, uint256 b) internal pure returns (uint256) {\r... */\n    tag_140:\n        /* \"contracts/SyrupBar.sol\":7622:7629  uint256 */\n      0x00\n        /* \"contracts/SyrupBar.sol\":7654:7659  a + b */\n      dup3\n      dup3\n      add\n        /* \"contracts/SyrupBar.sol\":7678:7684  c >= a */\n      dup4\n      dup2\n      lt\n      iszero\n        /* \"contracts/SyrupBar.sol\":7670:7716  require(c >= a, 'SafeMath: addition overflow') */\n      tag_195\n      jumpi\n      0x40\n      dup1\n      mload\n      shl(0xe5, 0x461bcd)\n      dup2\n      mstore\n      0x20\n      0x04\n      dup3\n      add\n      mstore\n      0x1b\n      0x24\n      dup3\n      add\n      mstore\n      0x536166654d6174683a206164646974696f6e206f766572666c6f770000000000\n      0x44\n      dup3\n      add\n      mstore\n      swap1\n      mload\n      swap1\n      dup2\n      swap1\n      sub\n      0x64\n      add\n      swap1\n      revert\n        /* \"contracts/SyrupBar.sol\":26836:27144  function _mint(address account, uint256 amount) internal {\r... */\n    tag_146:\n      sub(shl(0xa0, 0x01), 0x01)\n        /* \"contracts/SyrupBar.sol\":26912:26933  account != address(0) */\n      dup3\n      and\n        /* \"contracts/SyrupBar.sol\":26904:26969  require(account != address(0), 'BEP20: mint to the zero address') */\n      tag_231\n      jumpi\n      0x40\n      dup1\n      mload\n      shl(0xe5, 0x461bcd)\n      dup2\n      mstore\n      0x20\n      0x04\n      dup3\n      add\n      mstore\n      0x1f\n      0x24\n      dup3\n      add\n      mstore\n      0x42455032303a206d696e7420746f20746865207a65726f206164647265737300\n      0x44\n      dup3\n      add\n      mstore\n      swap1\n      mload\n      swap1\n      dup2\n      swap1\n      sub\n      0x64\n      add\n      swap1\n      revert\n    tag_231:\n        /* \"contracts/SyrupBar.sol\":26997:27009  _totalSupply */\n      sload(0x03)\n        /* \"contracts/SyrupBar.sol\":26997:27021  _totalSupply.add(amount) */\n      tag_232\n      swap1\n        /* \"contracts/SyrupBar.sol\":27014:27020  amount */\n      dup3\n        /* \"contracts/SyrupBar.sol\":26997:27013  _totalSupply.add */\n      tag_140\n        /* \"contracts/SyrupBar.sol\":26997:27021  _totalSupply.add(amount) */\n      jump\t// in\n    tag_232:\n        /* \"contracts/SyrupBar.sol\":26982:26994  _totalSupply */\n      0x03\n        /* \"contracts/SyrupBar.sol\":26982:27021  _totalSupply = _totalSupply.add(amount) */\n      sstore\n      sub(shl(0xa0, 0x01), 0x01)\n        /* \"contracts/SyrupBar.sol\":27053:27071  _balances[account] */\n      dup3\n      and\n      0x00\n      swap1\n      dup2\n      mstore\n        /* \"contracts/SyrupBar.sol\":27053:27062  _balances */\n      0x01\n        /* \"contracts/SyrupBar.sol\":27053:27071  _balances[account] */\n      0x20\n      mstore\n      0x40\n      swap1\n      keccak256\n      sload\n        /* \"contracts/SyrupBar.sol\":27053:27083  _balances[account].add(amount) */\n      tag_233\n      swap1\n        /* \"contracts/SyrupBar.sol\":27076:27082  amount */\n      dup3\n        /* \"contracts/SyrupBar.sol\":27053:27075  _balances[account].add */\n      tag_140\n        /* \"contracts/SyrupBar.sol\":27053:27083  _balances[account].add(amount) */\n      jump\t// in\n    tag_233:\n      sub(shl(0xa0, 0x01), 0x01)\n        /* \"contracts/SyrupBar.sol\":27032:27050  _balances[account] */\n      dup4\n      and\n      0x00\n      dup2\n      dup2\n      mstore\n        /* \"contracts/SyrupBar.sol\":27032:27041  _balances */\n      0x01\n        /* \"contracts/SyrupBar.sol\":27032:27050  _balances[account] */\n      0x20\n      swap1\n      dup2\n      mstore\n      0x40\n      dup1\n      dup4\n      keccak256\n        /* \"contracts/SyrupBar.sol\":27032:27083  _balances[account] = _balances[account].add(amount) */\n      swap5\n      swap1\n      swap5\n      sstore\n        /* \"contracts/SyrupBar.sol\":27099:27136  Transfer(address(0), account, amount) */\n      dup4\n      mload\n      dup6\n      dup2\n      mstore\n      swap4\n      mload\n        /* \"contracts/SyrupBar.sol\":27032:27050  _balances[account] */\n      swap3\n      swap4\n      swap2\n      swap3\n        /* \"contracts/SyrupBar.sol\":27099:27136  Transfer(address(0), account, amount) */\n      0xddf252ad1be2c89b69c2b068fc378daa952ba7f163c4a11628f55a4df523b3ef\n      swap3\n      dup2\n      swap1\n      sub\n      swap1\n      swap2\n      add\n      swap1\n      log3\n        /* \"contracts/SyrupBar.sol\":26836:27144  function _mint(address account, uint256 amount) internal {\r... */\n      pop\n      pop\n      jump\t// out\n        /* \"contracts/SyrupBar.sol\":36089:37036  function _moveDelegates(address srcRep, address dstRep, uint256 amount) internal {\r... */\n    tag_148:\n        /* \"contracts/SyrupBar.sol\":36195:36201  dstRep */\n      dup2\n      sub(shl(0xa0, 0x01), 0x01)\n        /* \"contracts/SyrupBar.sol\":36185:36201  srcRep != dstRep */\n      and\n        /* \"contracts/SyrupBar.sol\":36185:36191  srcRep */\n      dup4\n      sub(shl(0xa0, 0x01), 0x01)\n        /* \"contracts/SyrupBar.sol\":36185:36201  srcRep != dstRep */\n      and\n      eq\n      iszero\n        /* \"contracts/SyrupBar.sol\":36185:36215  srcRep != dstRep && amount > 0 */\n      dup1\n      iszero\n      tag_235\n      jumpi\n      pop\n        /* \"contracts/SyrupBar.sol\":36214:36215  0 */\n      0x00\n        /* \"contracts/SyrupBar.sol\":36205:36211  amount */\n      dup2\n        /* \"contracts/SyrupBar.sol\":36205:36215  amount > 0 */\n      gt\n        /* \"contracts/SyrupBar.sol\":36185:36215  srcRep != dstRep && amount > 0 */\n    tag_235:\n        /* \"contracts/SyrupBar.sol\":36181:37029  if (srcRep != dstRep && amount > 0) {\r... */\n      iszero\n      tag_244\n      jumpi\n      sub(shl(0xa0, 0x01), 0x01)\n        /* \"contracts/SyrupBar.sol\":36236:36256  srcRep != address(0) */\n      dup4\n      and\n      iszero\n        /* \"contracts/SyrupBar.sol\":36232:36617  if (srcRep != address(0)) {\r... */\n      tag_237\n      jumpi\n      sub(shl(0xa0, 0x01), 0x01)\n        /* \"contracts/SyrupBar.sol\":36344:36366  numCheckpoints[srcRep] */\n      dup4\n      and\n        /* \"contracts/SyrupBar.sol\":36325:36341  uint32 srcRepNum */\n      0x00\n        /* \"contracts/SyrupBar.sol\":36344:36366  numCheckpoints[srcRep] */\n      swap1\n      dup2\n      mstore\n        /* \"contracts/SyrupBar.sol\":36344:36358  numCheckpoints */\n      0x09\n        /* \"contracts/SyrupBar.sol\":36344:36366  numCheckpoints[srcRep] */\n      0x20\n      mstore\n      0x40\n      dup2\n      keccak256\n      sload\n      0xffffffff\n      and\n      swap1\n        /* \"contracts/SyrupBar.sol\":36405:36418  srcRepNum > 0 */\n      dup2\n        /* \"contracts/SyrupBar.sol\":36405:36465  srcRepNum > 0 ? checkpoints[srcRep][srcRepNum - 1].votes : 0 */\n      tag_238\n      jumpi\n        /* \"contracts/SyrupBar.sol\":36464:36465  0 */\n      0x00\n        /* \"contracts/SyrupBar.sol\":36405:36465  srcRepNum > 0 ? checkpoints[srcRep][srcRepNum - 1].votes : 0 */\n      jump(tag_239)\n    tag_238:\n      sub(shl(0xa0, 0x01), 0x01)\n        /* \"contracts/SyrupBar.sol\":36421:36440  checkpoints[srcRep] */\n      dup6\n      and\n      0x00\n      swap1\n      dup2\n      mstore\n        /* \"contracts/SyrupBar.sol\":36421:36432  checkpoints */\n      0x08\n        /* \"contracts/SyrupBar.sol\":36421:36440  checkpoints[srcRep] */\n      0x20\n      swap1\n      dup2\n      mstore\n      0x40\n      dup1\n      dup4\n      keccak256\n        /* \"contracts/SyrupBar.sol\":36421:36455  checkpoints[srcRep][srcRepNum - 1] */\n      0xffffffff\n      not(0x00)\n        /* \"contracts/SyrupBar.sol\":36441:36454  srcRepNum - 1 */\n      dup8\n      add\n        /* \"contracts/SyrupBar.sol\":36421:36455  checkpoints[srcRep][srcRepNum - 1] */\n      and\n      dup5\n      mstore\n      swap1\n      swap2\n      mstore\n      swap1\n      keccak256\n        /* \"contracts/SyrupBar.sol\":36453:36454  1 */\n      0x01\n        /* \"contracts/SyrupBar.sol\":36421:36461  checkpoints[srcRep][srcRepNum - 1].votes */\n      add\n      sload\n        /* \"contracts/SyrupBar.sol\":36405:36465  srcRepNum > 0 ? checkpoints[srcRep][srcRepNum - 1].votes : 0 */\n    tag_239:\n        /* \"contracts/SyrupBar.sol\":36385:36465  uint256 srcRepOld = srcRepNum > 0 ? checkpoints[srcRep][srcRepNum - 1].votes : 0 */\n      swap1\n      pop\n        /* \"contracts/SyrupBar.sol\":36484:36501  uint256 srcRepNew */\n      0x00\n        /* \"contracts/SyrupBar.sol\":36504:36525  srcRepOld.sub(amount) */\n      tag_240\n        /* \"contracts/SyrupBar.sol\":36385:36465  uint256 srcRepOld = srcRepNum > 0 ? checkpoints[srcRep][srcRepNum - 1].votes : 0 */\n      dup3\n        /* \"contracts/SyrupBar.sol\":36518:36524  amount */\n      dup6\n        /* \"contracts/SyrupBar.sol\":36504:36517  srcRepOld.sub */\n      tag_241\n        /* \"contracts/SyrupBar.sol\":36504:36525  srcRepOld.sub(amount) */\n      jump\t// in\n    tag_240:\n        /* \"contracts/SyrupBar.sol\":36484:36525  uint256 srcRepNew = srcRepOld.sub(amount) */\n      swap1\n      pop\n        /* \"contracts/SyrupBar.sol\":36544:36601  _writeCheckpoint(srcRep, srcRepNum, srcRepOld, srcRepNew) */\n      tag_242\n        /* \"contracts/SyrupBar.sol\":36561:36567  srcRep */\n      dup7\n        /* \"contracts/SyrupBar.sol\":36569:36578  srcRepNum */\n      dup5\n        /* \"contracts/SyrupBar.sol\":36580:36589  srcRepOld */\n      dup5\n        /* \"contracts/SyrupBar.sol\":36591:36600  srcRepNew */\n      dup5\n        /* \"contracts/SyrupBar.sol\":36544:36560  _writeCheckpoint */\n      tag_243\n        /* \"contracts/SyrupBar.sol\":36544:36601  _writeCheckpoint(srcRep, srcRepNum, srcRepOld, srcRepNew) */\n      jump\t// in\n    tag_242:\n        /* \"contracts/SyrupBar.sol\":36232:36617  if (srcRep != address(0)) {\r... */\n      pop\n      pop\n      pop\n    tag_237:\n      sub(shl(0xa0, 0x01), 0x01)\n        /* \"contracts/SyrupBar.sol\":36637:36657  dstRep != address(0) */\n      dup3\n      and\n      iszero\n        /* \"contracts/SyrupBar.sol\":36633:37018  if (dstRep != address(0)) {\r... */\n      tag_244\n      jumpi\n      sub(shl(0xa0, 0x01), 0x01)\n        /* \"contracts/SyrupBar.sol\":36745:36767  numCheckpoints[dstRep] */\n      dup3\n      and\n        /* \"contracts/SyrupBar.sol\":36726:36742  uint32 dstRepNum */\n      0x00\n        /* \"contracts/SyrupBar.sol\":36745:36767  numCheckpoints[dstRep] */\n      swap1\n      dup2\n      mstore\n        /* \"contracts/SyrupBar.sol\":36745:36759  numCheckpoints */\n      0x09\n        /* \"contracts/SyrupBar.sol\":36745:36767  numCheckpoints[dstRep] */\n      0x20\n      mstore\n      0x40\n      dup2\n      keccak256\n      sload\n      0xffffffff\n      and\n      swap1\n        /* \"contracts/SyrupBar.sol\":36806:36819  dstRepNum > 0 */\n      dup2\n        /* \"contracts/SyrupBar.sol\":36806:36866  dstRepNum > 0 ? checkpoints[dstRep][dstRepNum - 1].votes : 0 */\n      tag_245\n      jumpi\n        /* \"contracts/SyrupBar.sol\":36865:36866  0 */\n      0x00\n        /* \"contracts/SyrupBar.sol\":36806:36866  dstRepNum > 0 ? checkpoints[dstRep][dstRepNum - 1].votes : 0 */\n      jump(tag_246)\n    tag_245:\n      sub(shl(0xa0, 0x01), 0x01)\n        /* \"contracts/SyrupBar.sol\":36822:36841  checkpoints[dstRep] */\n      dup5\n      and\n      0x00\n      swap1\n      dup2\n      mstore\n        /* \"contracts/SyrupBar.sol\":36822:36833  checkpoints */\n      0x08\n        /* \"contracts/SyrupBar.sol\":36822:36841  checkpoints[dstRep] */\n      0x20\n      swap1\n      dup2\n      mstore\n      0x40\n      dup1\n      dup4\n      keccak256\n        /* \"contracts/SyrupBar.sol\":36822:36856  checkpoints[dstRep][dstRepNum - 1] */\n      0xffffffff\n      not(0x00)\n        /* \"contracts/SyrupBar.sol\":36842:36855  dstRepNum - 1 */\n      dup8\n      add\n        /* \"contracts/SyrupBar.sol\":36822:36856  checkpoints[dstRep][dstRepNum - 1] */\n      and\n      dup5\n      mstore\n      swap1\n      swap2\n      mstore\n      swap1\n      keccak256\n        /* \"contracts/SyrupBar.sol\":36854:36855  1 */\n      0x01\n        /* \"contracts/SyrupBar.sol\":36822:36862  checkpoints[dstRep][dstRepNum - 1].votes */\n      add\n      sload\n        /* \"contracts/SyrupBar.sol\":36806:36866  dstRepNum > 0 ? checkpoints[dstRep][dstRepNum - 1].votes : 0 */\n    tag_246:\n        /* \"contracts/SyrupBar.sol\":36786:36866  uint256 dstRepOld = dstRepNum > 0 ? checkpoints[dstRep][dstRepNum - 1].votes : 0 */\n      swap1\n      pop\n        /* \"contracts/SyrupBar.sol\":36885:36902  uint256 dstRepNew */\n      0x00\n        /* \"contracts/SyrupBar.sol\":36905:36926  dstRepOld.add(amount) */\n      tag_247\n        /* \"contracts/SyrupBar.sol\":36786:36866  uint256 dstRepOld = dstRepNum > 0 ? checkpoints[dstRep][dstRepNum - 1].votes : 0 */\n      dup3\n        /* \"contracts/SyrupBar.sol\":36919:36925  amount */\n      dup6\n        /* \"contracts/SyrupBar.sol\":36905:36918  dstRepOld.add */\n      tag_140\n        /* \"contracts/SyrupBar.sol\":36905:36926  dstRepOld.add(amount) */\n      jump\t// in\n    tag_247:\n        /* \"contracts/SyrupBar.sol\":36885:36926  uint256 dstRepNew = dstRepOld.add(amount) */\n      swap1\n      pop\n        /* \"contracts/SyrupBar.sol\":36945:37002  _writeCheckpoint(dstRep, dstRepNum, dstRepOld, dstRepNew) */\n      tag_196\n        /* \"contracts/SyrupBar.sol\":36962:36968  dstRep */\n      dup6\n        /* \"contracts/SyrupBar.sol\":36970:36979  dstRepNum */\n      dup5\n        /* \"contracts/SyrupBar.sol\":36981:36990  dstRepOld */\n      dup5\n        /* \"contracts/SyrupBar.sol\":36992:37001  dstRepNew */\n      dup5\n        /* \"contracts/SyrupBar.sol\":36945:36961  _writeCheckpoint */\n      tag_243\n        /* \"contracts/SyrupBar.sol\":36945:37002  _writeCheckpoint(dstRep, dstRepNum, dstRepOld, dstRepNew) */\n      jump\t// in\n        /* \"contracts/SyrupBar.sol\":36633:37018  if (dstRep != address(0)) {\r... */\n    tag_244:\n        /* \"contracts/SyrupBar.sol\":36089:37036  function _moveDelegates(address srcRep, address dstRep, uint256 amount) internal {\r... */\n      pop\n      pop\n      pop\n      jump\t// out\n        /* \"contracts/SyrupBar.sol\":35643:36081  function _delegate(address delegator, address delegatee)\r... */\n    tag_152:\n      sub(shl(0xa0, 0x01), 0x01)\n        /* \"contracts/SyrupBar.sol\":35760:35781  _delegates[delegator] */\n      dup1\n      dup4\n      and\n        /* \"contracts/SyrupBar.sol\":35734:35757  address currentDelegate */\n      0x00\n        /* \"contracts/SyrupBar.sol\":35760:35781  _delegates[delegator] */\n      swap1\n      dup2\n      mstore\n        /* \"contracts/SyrupBar.sol\":35760:35770  _delegates */\n      0x07\n        /* \"contracts/SyrupBar.sol\":35760:35781  _delegates[delegator] */\n      0x20\n      mstore\n      0x40\n      dup2\n      keccak256\n      sload\n      swap1\n      swap2\n      and\n      swap1\n        /* \"contracts/SyrupBar.sol\":35819:35839  balanceOf(delegator) */\n      tag_250\n        /* \"contracts/SyrupBar.sol\":35771:35780  delegator */\n      dup5\n        /* \"contracts/SyrupBar.sol\":35819:35828  balanceOf */\n      tag_71\n        /* \"contracts/SyrupBar.sol\":35819:35839  balanceOf(delegator) */\n      jump\t// in\n    tag_250:\n      sub(shl(0xa0, 0x01), 0x01)\n        /* \"contracts/SyrupBar.sol\":35895:35916  _delegates[delegator] */\n      dup6\n      dup2\n      and\n      0x00\n      dup2\n      dup2\n      mstore\n        /* \"contracts/SyrupBar.sol\":35895:35905  _delegates */\n      0x07\n        /* \"contracts/SyrupBar.sol\":35895:35916  _delegates[delegator] */\n      0x20\n      mstore\n      0x40\n      dup1\n      dup3\n      keccak256\n        /* \"contracts/SyrupBar.sol\":35895:35928  _delegates[delegator] = delegatee */\n      dup1\n      sload\n      not(sub(shl(0xa0, 0x01), 0x01))\n      and\n      dup10\n      dup7\n      and\n      swap1\n      dup2\n      or\n      swap1\n      swap2\n      sstore\n        /* \"contracts/SyrupBar.sol\":35946:36000  DelegateChanged(delegator, currentDelegate, delegatee) */\n      swap1\n      mload\n        /* \"contracts/SyrupBar.sol\":35792:35839  uint256 delegatorBalance = balanceOf(delegator) */\n      swap5\n      swap6\n      pop\n        /* \"contracts/SyrupBar.sol\":35895:35928  _delegates[delegator] = delegatee */\n      swap4\n        /* \"contracts/SyrupBar.sol\":35946:36000  DelegateChanged(delegator, currentDelegate, delegatee) */\n      swap3\n      dup7\n      and\n      swap3\n      0x3134e8a2e6d97e929a7e54011ea5485d7d196dd5f0ba4d4ef95803e8e3fc257f\n      swap2\n        /* \"contracts/SyrupBar.sol\":35895:35916  _delegates[delegator] */\n      swap1\n        /* \"contracts/SyrupBar.sol\":35946:36000  DelegateChanged(delegator, currentDelegate, delegatee) */\n      log4\n        /* \"contracts/SyrupBar.sol\":36013:36073  _moveDelegates(currentDelegate, delegatee, delegatorBalance) */\n      tag_251\n        /* \"contracts/SyrupBar.sol\":36028:36043  currentDelegate */\n      dup3\n        /* \"contracts/SyrupBar.sol\":36045:36054  delegatee */\n      dup5\n        /* \"contracts/SyrupBar.sol\":36056:36072  delegatorBalance */\n      dup4\n        /* \"contracts/SyrupBar.sol\":36013:36027  _moveDelegates */\n      tag_148\n        /* \"contracts/SyrupBar.sol\":36013:36073  _moveDelegates(currentDelegate, delegatee, delegatorBalance) */\n      jump\t// in\n    tag_251:\n        /* \"contracts/SyrupBar.sol\":35643:36081  function _delegate(address delegator, address delegatee)\r... */\n      pop\n      pop\n      pop\n      pop\n      jump\t// out\n        /* \"contracts/SyrupBar.sol\":37929:38082  function getChainId() internal pure returns (uint) {\r... */\n    tag_199:\n        /* \"contracts/SyrupBar.sol\":38039:38048  chainid() */\n      chainid\n        /* \"contracts/SyrupBar.sol\":37929:38082  function getChainId() internal pure returns (uint) {\r... */\n      swap1\n      jump\t// out\n        /* \"contracts/SyrupBar.sol\":3329:3558  function _transferOwnership(address newOwner) internal {\r... */\n    tag_212:\n      sub(shl(0xa0, 0x01), 0x01)\n        /* \"contracts/SyrupBar.sol\":3403:3425  newOwner != address(0) */\n      dup2\n      and\n        /* \"contracts/SyrupBar.sol\":3395:3468  require(newOwner != address(0), 'Ownable: new owner is the zero address') */\n      tag_254\n      jumpi\n      mload(0x40)\n      shl(0xe5, 0x461bcd)\n      dup2\n      mstore\n      0x04\n      add\n      dup1\n      dup1\n      0x20\n      add\n      dup3\n      dup2\n      sub\n      dup3\n      mstore\n      0x26\n      dup2\n      mstore\n      0x20\n      add\n      dup1\n      data_245f15ff17f551913a7a18385165551503906a406f905ac1c2437281a7cd0cfe\n      0x26\n      swap2\n      codecopy\n      0x40\n      add\n      swap2\n      pop\n      pop\n      mload(0x40)\n      dup1\n      swap2\n      sub\n      swap1\n      revert\n    tag_254:\n        /* \"contracts/SyrupBar.sol\":3505:3511  _owner */\n      0x00\n      dup1\n      sload\n        /* \"contracts/SyrupBar.sol\":3484:3522  OwnershipTransferred(_owner, newOwner) */\n      mload(0x40)\n      sub(shl(0xa0, 0x01), 0x01)\n      dup1\n      dup6\n      and\n      swap4\n        /* \"contracts/SyrupBar.sol\":3505:3511  _owner */\n      swap3\n      and\n      swap2\n        /* \"contracts/SyrupBar.sol\":3484:3522  OwnershipTransferred(_owner, newOwner) */\n      0x8be0079c531659141344cd1fd0a4f28419497f9722a3daafe3b4186f6b6457e0\n      swap2\n      log3\n        /* \"contracts/SyrupBar.sol\":3533:3539  _owner */\n      0x00\n        /* \"contracts/SyrupBar.sol\":3533:3550  _owner = newOwner */\n      dup1\n      sload\n      not(sub(shl(0xa0, 0x01), 0x01))\n      and\n      sub(shl(0xa0, 0x01), 0x01)\n      swap3\n      swap1\n      swap3\n      and\n      swap2\n      swap1\n      swap2\n      or\n      swap1\n      sstore\n        /* \"contracts/SyrupBar.sol\":3329:3558  function _transferOwnership(address newOwner) internal {\r... */\n      jump\t// out\n        /* \"contracts/SyrupBar.sol\":8028:8164  function sub(uint256 a, uint256 b) internal pure returns (uint256) {\r... */\n    tag_241:\n        /* \"contracts/SyrupBar.sol\":8086:8093  uint256 */\n      0x00\n        /* \"contracts/SyrupBar.sol\":8113:8156  sub(a, b, 'SafeMath: subtraction overflow') */\n      tag_195\n        /* \"contracts/SyrupBar.sol\":8117:8118  a */\n      dup4\n        /* \"contracts/SyrupBar.sol\":8120:8121  b */\n      dup4\n        /* \"contracts/SyrupBar.sol\":8113:8156  sub(a, b, 'SafeMath: subtraction overflow') */\n      mload(0x40)\n      dup1\n      0x40\n      add\n      0x40\n      mstore\n      dup1\n      0x1e\n      dup2\n      mstore\n      0x20\n      add\n      0x536166654d6174683a207375627472616374696f6e206f766572666c6f770000\n      dup2\n      mstore\n      pop\n        /* \"contracts/SyrupBar.sol\":8113:8116  sub */\n      tag_133\n        /* \"contracts/SyrupBar.sol\":8113:8156  sub(a, b, 'SafeMath: subtraction overflow') */\n      jump\t// in\n        /* \"contracts/SyrupBar.sol\":37044:37752  function _writeCheckpoint(\r... */\n    tag_243:\n        /* \"contracts/SyrupBar.sol\":37223:37241  uint32 blockNumber */\n      0x00\n        /* \"contracts/SyrupBar.sol\":37244:37324  safe32(block.number, \"Landbase::_writeCheckpoint: block number exceeds 32 bits\") */\n      tag_258\n        /* \"contracts/SyrupBar.sol\":37251:37263  block.number */\n      number\n        /* \"contracts/SyrupBar.sol\":37244:37324  safe32(block.number, \"Landbase::_writeCheckpoint: block number exceeds 32 bits\") */\n      mload(0x40)\n      dup1\n      0x60\n      add\n      0x40\n      mstore\n      dup1\n      0x38\n      dup2\n      mstore\n      0x20\n      add\n      data_ff32ea67761e2aa3948a5832e02debb1ecc1bee5309089b62f9646b42357aeb9\n      0x38\n      swap2\n      codecopy\n        /* \"contracts/SyrupBar.sol\":37244:37250  safe32 */\n      tag_259\n        /* \"contracts/SyrupBar.sol\":37244:37324  safe32(block.number, \"Landbase::_writeCheckpoint: block number exceeds 32 bits\") */\n      jump\t// in\n    tag_258:\n        /* \"contracts/SyrupBar.sol\":37223:37324  uint32 blockNumber = safe32(block.number, \"Landbase::_writeCheckpoint: block number exceeds 32 bits\") */\n      swap1\n      pop\n        /* \"contracts/SyrupBar.sol\":37356:37357  0 */\n      0x00\n        /* \"contracts/SyrupBar.sol\":37341:37353  nCheckpoints */\n      dup5\n        /* \"contracts/SyrupBar.sol\":37341:37357  nCheckpoints > 0 */\n      0xffffffff\n      and\n      gt\n        /* \"contracts/SyrupBar.sol\":37341:37426  nCheckpoints > 0 && checkpoints[delegatee][nCheckpoints - 1].fromBlock == blockNumber */\n      dup1\n      iszero\n      tag_260\n      jumpi\n      pop\n      sub(shl(0xa0, 0x01), 0x01)\n        /* \"contracts/SyrupBar.sol\":37361:37383  checkpoints[delegatee] */\n      dup6\n      and\n      0x00\n      swap1\n      dup2\n      mstore\n        /* \"contracts/SyrupBar.sol\":37361:37372  checkpoints */\n      0x08\n        /* \"contracts/SyrupBar.sol\":37361:37383  checkpoints[delegatee] */\n      0x20\n      swap1\n      dup2\n      mstore\n      0x40\n      dup1\n      dup4\n      keccak256\n        /* \"contracts/SyrupBar.sol\":37361:37426  checkpoints[delegatee][nCheckpoints - 1].fromBlock == blockNumber */\n      0xffffffff\n      not(0x00)\n        /* \"contracts/SyrupBar.sol\":37384:37400  nCheckpoints - 1 */\n      dup10\n      add\n        /* \"contracts/SyrupBar.sol\":37361:37401  checkpoints[delegatee][nCheckpoints - 1] */\n      dup2\n      and\n      dup6\n      mstore\n      swap3\n      mstore\n      swap1\n      swap2\n      keccak256\n        /* \"contracts/SyrupBar.sol\":37361:37411  checkpoints[delegatee][nCheckpoints - 1].fromBlock */\n      sload\n        /* \"contracts/SyrupBar.sol\":37361:37426  checkpoints[delegatee][nCheckpoints - 1].fromBlock == blockNumber */\n      dup3\n      dup3\n      and\n        /* \"contracts/SyrupBar.sol\":37361:37411  checkpoints[delegatee][nCheckpoints - 1].fromBlock */\n      swap2\n      and\n        /* \"contracts/SyrupBar.sol\":37361:37426  checkpoints[delegatee][nCheckpoints - 1].fromBlock == blockNumber */\n      eq\n        /* \"contracts/SyrupBar.sol\":37341:37426  nCheckpoints > 0 && checkpoints[delegatee][nCheckpoints - 1].fromBlock == blockNumber */\n    tag_260:\n        /* \"contracts/SyrupBar.sol\":37337:37676  if (nCheckpoints > 0 && checkpoints[delegatee][nCheckpoints - 1].fromBlock == blockNumber) {\r... */\n      iszero\n      tag_261\n      jumpi\n      sub(shl(0xa0, 0x01), 0x01)\n        /* \"contracts/SyrupBar.sol\":37443:37465  checkpoints[delegatee] */\n      dup6\n      and\n      0x00\n      swap1\n      dup2\n      mstore\n        /* \"contracts/SyrupBar.sol\":37443:37454  checkpoints */\n      0x08\n        /* \"contracts/SyrupBar.sol\":37443:37465  checkpoints[delegatee] */\n      0x20\n      swap1\n      dup2\n      mstore\n      0x40\n      dup1\n      dup4\n      keccak256\n        /* \"contracts/SyrupBar.sol\":37443:37483  checkpoints[delegatee][nCheckpoints - 1] */\n      0xffffffff\n      not(0x00)\n        /* \"contracts/SyrupBar.sol\":37466:37482  nCheckpoints - 1 */\n      dup10\n      add\n        /* \"contracts/SyrupBar.sol\":37443:37483  checkpoints[delegatee][nCheckpoints - 1] */\n      and\n      dup5\n      mstore\n      swap1\n      swap2\n      mstore\n      swap1\n      keccak256\n        /* \"contracts/SyrupBar.sol\":37481:37482  1 */\n      0x01\n        /* \"contracts/SyrupBar.sol\":37443:37489  checkpoints[delegatee][nCheckpoints - 1].votes */\n      add\n        /* \"contracts/SyrupBar.sol\":37443:37500  checkpoints[delegatee][nCheckpoints - 1].votes = newVotes */\n      dup3\n      swap1\n      sstore\n        /* \"contracts/SyrupBar.sol\":37337:37676  if (nCheckpoints > 0 && checkpoints[delegatee][nCheckpoints - 1].fromBlock == blockNumber) {\r... */\n      jump(tag_262)\n    tag_261:\n        /* \"contracts/SyrupBar.sol\":37572:37605  Checkpoint(blockNumber, newVotes) */\n      0x40\n      dup1\n      mload\n      dup1\n      dup3\n      add\n      dup3\n      mstore\n      0xffffffff\n      dup1\n      dup5\n      and\n      dup3\n      mstore\n      0x20\n      dup1\n      dup4\n      add\n      dup7\n      dup2\n      mstore\n      sub(shl(0xa0, 0x01), 0x01)\n        /* \"contracts/SyrupBar.sol\":37533:37555  checkpoints[delegatee] */\n      dup11\n      and\n      0x00\n      dup2\n      dup2\n      mstore\n        /* \"contracts/SyrupBar.sol\":37533:37544  checkpoints */\n      0x08\n        /* \"contracts/SyrupBar.sol\":37533:37555  checkpoints[delegatee] */\n      dup5\n      mstore\n      dup7\n      dup2\n      keccak256\n        /* \"contracts/SyrupBar.sol\":37533:37569  checkpoints[delegatee][nCheckpoints] */\n      dup12\n      dup7\n      and\n      dup3\n      mstore\n      dup5\n      mstore\n      dup7\n      dup2\n      keccak256\n        /* \"contracts/SyrupBar.sol\":37533:37605  checkpoints[delegatee][nCheckpoints] = Checkpoint(blockNumber, newVotes) */\n      swap6\n      mload\n      dup7\n      sload\n      swap1\n      dup7\n      and\n      not(0xffffffff)\n      swap2\n      dup3\n      and\n      or\n      dup8\n      sstore\n      swap3\n      mload\n      0x01\n      swap7\n      dup8\n      add\n      sstore\n        /* \"contracts/SyrupBar.sol\":37620:37645  numCheckpoints[delegatee] */\n      swap1\n      dup2\n      mstore\n        /* \"contracts/SyrupBar.sol\":37620:37634  numCheckpoints */\n      0x09\n        /* \"contracts/SyrupBar.sol\":37620:37645  numCheckpoints[delegatee] */\n      swap1\n      swap3\n      mstore\n      swap4\n      swap1\n      keccak256\n        /* \"contracts/SyrupBar.sol\":37620:37664  numCheckpoints[delegatee] = nCheckpoints + 1 */\n      dup1\n      sload\n        /* \"contracts/SyrupBar.sol\":37648:37664  nCheckpoints + 1 */\n      swap3\n      dup9\n      add\n        /* \"contracts/SyrupBar.sol\":37620:37664  numCheckpoints[delegatee] = nCheckpoints + 1 */\n      swap1\n      swap2\n      and\n      swap2\n      swap1\n      swap3\n      and\n      or\n      swap1\n      sstore\n        /* \"contracts/SyrupBar.sol\":37337:37676  if (nCheckpoints > 0 && checkpoints[delegatee][nCheckpoints - 1].fromBlock == blockNumber) {\r... */\n    tag_262:\n        /* \"contracts/SyrupBar.sol\":37693:37744  DelegateVotesChanged(delegatee, oldVotes, newVotes) */\n      0x40\n      dup1\n      mload\n      dup5\n      dup2\n      mstore\n      0x20\n      dup2\n      add\n      dup5\n      swap1\n      mstore\n      dup2\n      mload\n      sub(shl(0xa0, 0x01), 0x01)\n      dup9\n      and\n      swap3\n      0xdec2bacdd2f05b59de34da9b523dff8be42e5e38e818c82fdb0bae774387a724\n      swap3\n      dup3\n      swap1\n      sub\n      add\n      swap1\n      log2\n        /* \"contracts/SyrupBar.sol\":37044:37752  function _writeCheckpoint(\r... */\n      pop\n      pop\n      pop\n      pop\n      pop\n      jump\t// out\n        /* \"contracts/SyrupBar.sol\":37760:37921  function safe32(uint n, string memory errorMessage) internal pure returns (uint32) {\r... */\n    tag_259:\n        /* \"contracts/SyrupBar.sol\":37835:37841  uint32 */\n      0x00\n        /* \"contracts/SyrupBar.sol\":37873:37885  errorMessage */\n      dup2\n        /* \"contracts/SyrupBar.sol\":37866:37871  2**32 */\n      0x0100000000\n        /* \"contracts/SyrupBar.sol\":37862:37871  n < 2**32 */\n      dup5\n      lt\n        /* \"contracts/SyrupBar.sol\":37854:37886  require(n < 2**32, errorMessage) */\n      tag_264\n      jumpi\n      mload(0x40)\n      shl(0xe5, 0x461bcd)\n      dup2\n      mstore\n      0x20\n      0x04\n      dup3\n      add\n      dup2\n      dup2\n      mstore\n      dup4\n      mload\n      0x24\n      dup5\n      add\n      mstore\n      dup4\n      mload\n      swap1\n      swap3\n      dup4\n      swap3\n      0x44\n      swap1\n      swap2\n      add\n      swap2\n      swap1\n      dup6\n      add\n      swap1\n      dup1\n      dup4\n      dup4\n      0x00\n      dup4\n      iszero\n      tag_226\n      jumpi\n      dup2\n      dup2\n      add\n      mload\n      dup4\n      dup3\n      add\n      mstore\n      0x20\n      add\n      jump(tag_224)\n    tag_264:\n      pop\n        /* \"contracts/SyrupBar.sol\":37911:37912  n */\n      swap2\n      swap3\n        /* \"contracts/SyrupBar.sol\":37760:37921  function safe32(uint n, string memory errorMessage) internal pure returns (uint32) {\r... */\n      swap2\n      pop\n      pop\n      jump\t// out\n    tag_167:\n      0x40\n      dup1\n      mload\n      dup1\n      dup3\n      add\n      swap1\n      swap2\n      mstore\n      0x00\n      dup1\n      dup3\n      mstore\n      0x20\n      dup3\n      add\n      mstore\n      swap1\n      jump\t// out\n    stop\n    data_0d26cf302d50b28de74be656b11d67092b32131e5712d1bcf08c4e976dacda57 42455032303a207472616e736665722066726f6d20746865207a65726f2061646472657373\n    data_1441cfbef485de93bedecc35b3d10fa2992db382c4c9c583a6e423a140abe4a4 42455032303a20617070726f76652066726f6d20746865207a65726f2061646472657373\n    data_245f15ff17f551913a7a18385165551503906a406f905ac1c2437281a7cd0cfe 4f776e61626c653a206e6577206f776e657220697320746865207a65726f2061646472657373\n    data_39d7bbb45a7f857f51f14c10411958da3f5ab325b0c33833fa65742bf2097f9a 4c616e64626173653a3a6765745072696f72566f7465733a206e6f74207965742064657465726d696e6564\n    data_4f3506f4ba71c79c3cbd442a3afeb30e9b27af2d84e116a4385b34e267d2287e 42455032303a207472616e7366657220616d6f756e74206578636565647320616c6c6f77616e6365\n    data_52b45e49c6df20e4094f486f8ef471413d643444184254d8ad88dd14fa698d80 4c616e64626173653a3a64656c656761746542795369673a20696e76616c6964207369676e6174757265\n    data_68820ae31220f4af6532a2956b153f3d6ac9d2c3ffedb545abd2f8b0fcda759c 4c616e64626173653a3a64656c656761746542795369673a207369676e61747572652065787069726564\n    data_6f3e5d34f0c300db85e21c6ba2f3a7cc520248f798eb85964b026f02f8cba141 4c616e64626173653a3a64656c656761746542795369673a20696e76616c6964206e6f6e6365\n    data_9924ebdf1add33d25d4ef888e16131f0a5687b0580a36c21b5c301a6c462effe 4f776e61626c653a2063616c6c6572206973206e6f7420746865206f776e6572\n    data_a91efd7a65ef5b4ae4d6568d674798b78a5a89184dd296c100513251c22d3e73 42455032303a207472616e7366657220616d6f756e7420657863656564732062616c616e6365\n    data_ade9efcb59e42e439ffe61509b352b1af56d64ccb68d80b039b7b69578f371d2 42455032303a207472616e7366657220746f20746865207a65726f2061646472657373\n    data_b7060b3538dcd3ddc8a941c91636a8115a1aa46914747fd9809d543bbb46cd22 42455032303a2064656372656173656420616c6c6f77616e63652062656c6f77207a65726f\n    data_f10e7571e18b354270dee950932fb6a745efc79414b2b2556185a4ed6a1af0d5 42455032303a20617070726f766520746f20746865207a65726f2061646472657373\n    data_ff32ea67761e2aa3948a5832e02debb1ecc1bee5309089b62f9646b42357aeb9 4c616e64626173653a3a5f7772697465436865636b706f696e743a20626c6f636b206e756d62657220657863656564732033322062697473\n\n    auxdata: 0xa264697066735822122082dc983b83507195dffcc4e8f5b02c977153fad237b69e0a0d04d0d44a04fccd64736f6c634300060c0033\n}\n",
				"bytecode": {
					"linkReferences": {},
					"object": "60806040523480156200001157600080fd5b506040518060400160405280600d81526020016c2630b7323130b9b29021b7b4b760991b81525060405180604001604052806003815260200162424c4360e81b815250600062000066620000f160201b60201c565b600080546001600160a01b0319166001600160a01b0383169081178255604051929350917f8be0079c531659141344cd1fd0a4f28419497f9722a3daafe3b4186f6b6457e0908290a3508151620000c5906004906020850190620000f5565b508051620000db906005906020840190620000f5565b50506006805460ff191660121790555062000191565b3390565b828054600181600116156101000203166002900490600052602060002090601f016020900481019282601f106200013857805160ff191683800117855562000168565b8280016001018555821562000168579182015b82811115620001685782518255916020019190600101906200014b565b50620001769291506200017a565b5090565b5b808211156200017657600081556001016200017b565b611b9780620001a16000396000f3fe608060405234801561001057600080fd5b50600436106101a95760003560e01c8063782d6fe1116100f9578063a9059cbb11610097578063dd62ed3e11610071578063dd62ed3e1461055c578063e7a324dc1461058a578063f1127ed814610592578063f2fde38b146105e4576101a9565b8063a9059cbb146104c3578063b4b5ea57146104ef578063c3cda52014610515576101a9565b80638da5cb5b116100d35780638da5cb5b1461046a57806395d89b4114610472578063a0712d681461047a578063a457c2d714610497576101a9565b8063782d6fe1146104105780637ecebe001461043c578063893d20e814610462576101a9565b806339509351116101665780635c19a95c116101405780635c19a95c1461037d5780636fcfff45146103a357806370a08231146103e2578063715018a614610408576101a9565b806339509351146102e157806340c10f191461030d578063587cde1e1461033b576101a9565b806306fdde03146101ae578063095ea7b31461022b57806318160ddd1461026b57806320606b701461028557806323b872dd1461028d578063313ce567146102c3575b600080fd5b6101b661060a565b6040805160208082528351818301528351919283929083019185019080838360005b838110156101f05781810151838201526020016101d8565b50505050905090810190601f16801561021d5780820380516001836020036101000a031916815260200191505b509250505060405180910390f35b6102576004803603604081101561024157600080fd5b506001600160a01b0381351690602001356106a0565b604080519115158252519081900360200190f35b6102736106be565b60408051918252519081900360200190f35b6102736106c4565b610257600480360360608110156102a357600080fd5b506001600160a01b038135811691602081013590911690604001356106e8565b6102cb61076f565b6040805160ff9092168252519081900360200190f35b610257600480360360408110156102f757600080fd5b506001600160a01b038135169060200135610778565b6103396004803603604081101561032357600080fd5b506001600160a01b0381351690602001356107c6565b005b6103616004803603602081101561035157600080fd5b50356001600160a01b0316610851565b604080516001600160a01b039092168252519081900360200190f35b6103396004803603602081101561039357600080fd5b50356001600160a01b031661086f565b6103c9600480360360208110156103b957600080fd5b50356001600160a01b031661087c565b6040805163ffffffff9092168252519081900360200190f35b610273600480360360208110156103f857600080fd5b50356001600160a01b0316610894565b6103396108af565b6102736004803603604081101561042657600080fd5b506001600160a01b038135169060200135610951565b6102736004803603602081101561045257600080fd5b50356001600160a01b0316610b59565b610361610b6b565b610361610b7a565b6101b6610b89565b6102576004803603602081101561049057600080fd5b5035610bea565b610257600480360360408110156104ad57600080fd5b506001600160a01b038135169060200135610c5d565b610257600480360360408110156104d957600080fd5b506001600160a01b038135169060200135610cc5565b6102736004803603602081101561050557600080fd5b50356001600160a01b0316610cd9565b610339600480360360c081101561052b57600080fd5b506001600160a01b038135169060208101359060408101359060ff6060820135169060808101359060a00135610d3d565b6102736004803603604081101561057257600080fd5b506001600160a01b0381358116916020013516610fb0565b610273610fdb565b6105c4600480360360408110156105a857600080fd5b5080356001600160a01b0316906020013563ffffffff16610fff565b6040805163ffffffff909316835260208301919091528051918290030190f35b610339600480360360208110156105fa57600080fd5b50356001600160a01b031661102c565b60048054604080516020601f60026000196101006001881615020190951694909404938401819004810282018101909252828152606093909290918301828280156106965780601f1061066b57610100808354040283529160200191610696565b820191906000526020600020905b81548152906001019060200180831161067957829003601f168201915b5050505050905090565b60006106b46106ad61108d565b8484611091565b5060015b92915050565b60035490565b7f8cad95687ba82c2ce50e74f7b754645e5117c3a5bec8151c0726d5857980a86681565b60006106f584848461117d565b6107658461070161108d565b610760856040518060600160405280602881526020016119d8602891396001600160a01b038a1660009081526002602052604081209061073f61108d565b6001600160a01b0316815260208101919091526040016000205491906112cf565b611091565b5060019392505050565b60065460ff1690565b60006106b461078561108d565b84610760856002600061079661108d565b6001600160a01b03908116825260208083019390935260409182016000908120918c168152925290205490611366565b6107ce61108d565b6000546001600160a01b0390811691161461081e576040805162461bcd60e51b81526020600482018190526024820152600080516020611a7a833981519152604482015290519081900360640190fd5b61082882826113c0565b6001600160a01b0380831660009081526007602052604081205461084d9216836114a6565b5050565b6001600160a01b039081166000908152600760205260409020541690565b61087933826115e8565b50565b60096020526000908152604090205463ffffffff1681565b6001600160a01b031660009081526001602052604090205490565b6108b761108d565b6000546001600160a01b03908116911614610907576040805162461bcd60e51b81526020600482018190526024820152600080516020611a7a833981519152604482015290519081900360640190fd5b600080546040516001600160a01b03909116907f8be0079c531659141344cd1fd0a4f28419497f9722a3daafe3b4186f6b6457e0908390a3600080546001600160a01b0319169055565b60004382106109915760405162461bcd60e51b815260040180806020018281038252602b8152602001806119ad602b913960400191505060405180910390fd5b6001600160a01b03831660009081526009602052604090205463ffffffff16806109bf5760009150506106b8565b6001600160a01b038416600090815260086020908152604080832063ffffffff600019860181168552925290912054168310610a2e576001600160a01b03841660009081526008602090815260408083206000199490940163ffffffff168352929052206001015490506106b8565b6001600160a01b038416600090815260086020908152604080832083805290915290205463ffffffff16831015610a695760009150506106b8565b600060001982015b8163ffffffff168163ffffffff161115610b2257600282820363ffffffff16048103610a9b611926565b506001600160a01b038716600090815260086020908152604080832063ffffffff808616855290835292819020815180830190925280549093168082526001909301549181019190915290871415610afd576020015194506106b89350505050565b805163ffffffff16871115610b1457819350610b1b565b6001820392505b5050610a71565b506001600160a01b038516600090815260086020908152604080832063ffffffff9094168352929052206001015491505092915050565b600a6020526000908152604090205481565b6000610b75610b7a565b905090565b6000546001600160a01b031690565b60058054604080516020601f60026000196101006001881615020190951694909404938401819004810282018101909252828152606093909290918301828280156106965780601f1061066b57610100808354040283529160200191610696565b6000610bf461108d565b6000546001600160a01b03908116911614610c44576040805162461bcd60e51b81526020600482018190526024820152600080516020611a7a833981519152604482015290519081900360640190fd5b610c55610c4f61108d565b836113c0565b506001919050565b60006106b4610c6a61108d565b8461076085604051806060016040528060258152602001611ae36025913960026000610c9461108d565b6001600160a01b03908116825260208083019390935260409182016000908120918d168152925290205491906112cf565b60006106b4610cd261108d565b848461117d565b6001600160a01b03811660009081526009602052604081205463ffffffff1680610d04576000610d36565b6001600160a01b038316600090815260086020908152604080832063ffffffff60001986011684529091529020600101545b9392505050565b60007f8cad95687ba82c2ce50e74f7b754645e5117c3a5bec8151c0726d5857980a866610d6861060a565b80519060200120610d7761167d565b60408051602080820195909552808201939093526060830191909152306080808401919091528151808403909101815260a0830182528051908401207fe48329057bfd03d55e49b547132e39cffd9c1820ad7b9d4c5307691425d15adf60c08401526001600160a01b038b1660e084015261010083018a90526101208084018a9052825180850390910181526101408401835280519085012061190160f01b6101608501526101628401829052610182808501829052835180860390910181526101a285018085528151918701919091206000918290526101c2860180865281905260ff8b166101e287015261020286018a90526102228601899052935192965090949293909260019261024280840193601f198301929081900390910190855afa158015610eaa573d6000803e3d6000fd5b5050604051601f1901519150506001600160a01b038116610efc5760405162461bcd60e51b815260040180806020018281038252602a815260200180611a00602a913960400191505060405180910390fd5b6001600160a01b0381166000908152600a602052604090208054600181019091558914610f5a5760405162461bcd60e51b8152600401808060200182810382526026815260200180611a546026913960400191505060405180910390fd5b87421115610f995760405162461bcd60e51b815260040180806020018281038252602a815260200180611a2a602a913960400191505060405180910390fd5b610fa3818b6115e8565b505050505b505050505050565b6001600160a01b03918216600090815260026020908152604080832093909416825291909152205490565b7fe48329057bfd03d55e49b547132e39cffd9c1820ad7b9d4c5307691425d15adf81565b60086020908152600092835260408084209091529082529020805460019091015463ffffffff9091169082565b61103461108d565b6000546001600160a01b03908116911614611084576040805162461bcd60e51b81526020600482018190526024820152600080516020611a7a833981519152604482015290519081900360640190fd5b61087981611681565b3390565b6001600160a01b0383166110d65760405162461bcd60e51b81526004018080602001828103825260248152602001806119636024913960400191505060405180910390fd5b6001600160a01b03821661111b5760405162461bcd60e51b8152600401808060200182810382526022815260200180611b086022913960400191505060405180910390fd5b6001600160a01b03808416600081815260026020908152604080832094871680845294825291829020859055815185815291517f8c5be1e5ebec7d5bd14f71427d1e84f3dd0314c0f7b2291e5b200ac8c7c3b9259281900390910190a3505050565b6001600160a01b0383166111c25760405162461bcd60e51b815260040180806020018281038252602581526020018061193e6025913960400191505060405180910390fd5b6001600160a01b0382166112075760405162461bcd60e51b8152600401808060200182810382526023815260200180611ac06023913960400191505060405180910390fd5b61124481604051806060016040528060268152602001611a9a602691396001600160a01b03861660009081526001602052604090205491906112cf565b6001600160a01b0380851660009081526001602052604080822093909355908416815220546112739082611366565b6001600160a01b0380841660008181526001602090815260409182902094909455805185815290519193928716927fddf252ad1be2c89b69c2b068fc378daa952ba7f163c4a11628f55a4df523b3ef92918290030190a3505050565b6000818484111561135e5760405162461bcd60e51b81526004018080602001828103825283818151815260200191508051906020019080838360005b8381101561132357818101518382015260200161130b565b50505050905090810190601f1680156113505780820380516001836020036101000a031916815260200191505b509250505060405180910390fd5b505050900390565b600082820183811015610d36576040805162461bcd60e51b815260206004820152601b60248201527f536166654d6174683a206164646974696f6e206f766572666c6f770000000000604482015290519081900360640190fd5b6001600160a01b03821661141b576040805162461bcd60e51b815260206004820152601f60248201527f42455032303a206d696e7420746f20746865207a65726f206164647265737300604482015290519081900360640190fd5b6003546114289082611366565b6003556001600160a01b03821660009081526001602052604090205461144e9082611366565b6001600160a01b03831660008181526001602090815260408083209490945583518581529351929391927fddf252ad1be2c89b69c2b068fc378daa952ba7f163c4a11628f55a4df523b3ef9281900390910190a35050565b816001600160a01b0316836001600160a01b0316141580156114c85750600081115b156115e3576001600160a01b0383161561155a576001600160a01b03831660009081526009602052604081205463ffffffff16908161150857600061153a565b6001600160a01b038516600090815260086020908152604080832063ffffffff60001987011684529091529020600101545b905060006115488285611721565b905061155686848484611763565b5050505b6001600160a01b038216156115e3576001600160a01b03821660009081526009602052604081205463ffffffff1690816115955760006115c7565b6001600160a01b038416600090815260086020908152604080832063ffffffff60001987011684529091529020600101545b905060006115d58285611366565b9050610fa885848484611763565b505050565b6001600160a01b038083166000908152600760205260408120549091169061160f84610894565b6001600160a01b0385811660008181526007602052604080822080546001600160a01b031916898616908117909155905194955093928616927f3134e8a2e6d97e929a7e54011ea5485d7d196dd5f0ba4d4ef95803e8e3fc257f9190a46116778284836114a6565b50505050565b4690565b6001600160a01b0381166116c65760405162461bcd60e51b81526004018080602001828103825260268152602001806119876026913960400191505060405180910390fd5b600080546040516001600160a01b03808516939216917f8be0079c531659141344cd1fd0a4f28419497f9722a3daafe3b4186f6b6457e091a3600080546001600160a01b0319166001600160a01b0392909216919091179055565b6000610d3683836040518060400160405280601e81526020017f536166654d6174683a207375627472616374696f6e206f766572666c6f7700008152506112cf565b600061178743604051806060016040528060388152602001611b2a603891396118c8565b905060008463ffffffff161180156117d057506001600160a01b038516600090815260086020908152604080832063ffffffff6000198901811685529252909120548282169116145b1561180d576001600160a01b038516600090815260086020908152604080832063ffffffff6000198901168452909152902060010182905561187e565b60408051808201825263ffffffff808416825260208083018681526001600160a01b038a166000818152600884528681208b8616825284528681209551865490861663ffffffff19918216178755925160019687015590815260099092529390208054928801909116919092161790555b604080518481526020810184905281516001600160a01b038816927fdec2bacdd2f05b59de34da9b523dff8be42e5e38e818c82fdb0bae774387a724928290030190a25050505050565b600081640100000000841061191e5760405162461bcd60e51b815260206004820181815283516024840152835190928392604490910191908501908083836000831561132357818101518382015260200161130b565b509192915050565b60408051808201909152600080825260208201529056fe42455032303a207472616e736665722066726f6d20746865207a65726f206164647265737342455032303a20617070726f76652066726f6d20746865207a65726f20616464726573734f776e61626c653a206e6577206f776e657220697320746865207a65726f20616464726573734c616e64626173653a3a6765745072696f72566f7465733a206e6f74207965742064657465726d696e656442455032303a207472616e7366657220616d6f756e74206578636565647320616c6c6f77616e63654c616e64626173653a3a64656c656761746542795369673a20696e76616c6964207369676e61747572654c616e64626173653a3a64656c656761746542795369673a207369676e617475726520657870697265644c616e64626173653a3a64656c656761746542795369673a20696e76616c6964206e6f6e63654f776e61626c653a2063616c6c6572206973206e6f7420746865206f776e657242455032303a207472616e7366657220616d6f756e7420657863656564732062616c616e636542455032303a207472616e7366657220746f20746865207a65726f206164647265737342455032303a2064656372656173656420616c6c6f77616e63652062656c6f77207a65726f42455032303a20617070726f766520746f20746865207a65726f20616464726573734c616e64626173653a3a5f7772697465436865636b706f696e743a20626c6f636b206e756d62657220657863656564732033322062697473a264697066735822122082dc983b83507195dffcc4e8f5b02c977153fad237b69e0a0d04d0d44a04fccd64736f6c634300060c0033",
					"opcodes": "PUSH1 0x80 PUSH1 0x40 MSTORE CALLVALUE DUP1 ISZERO PUSH3 0x11 JUMPI PUSH1 0x0 DUP1 REVERT JUMPDEST POP PUSH1 0x40 MLOAD DUP1 PUSH1 0x40 ADD PUSH1 0x40 MSTORE DUP1 PUSH1 0xD DUP2 MSTORE PUSH1 0x20 ADD PUSH13 0x2630B7323130B9B29021B7B4B7 PUSH1 0x99 SHL DUP2 MSTORE POP PUSH1 0x40 MLOAD DUP1 PUSH1 0x40 ADD PUSH1 0x40 MSTORE DUP1 PUSH1 0x3 DUP2 MSTORE PUSH1 0x20 ADD PUSH3 0x424C43 PUSH1 0xE8 SHL DUP2 MSTORE POP PUSH1 0x0 PUSH3 0x66 PUSH3 0xF1 PUSH1 0x20 SHL PUSH1 0x20 SHR JUMP JUMPDEST PUSH1 0x0 DUP1 SLOAD PUSH1 0x1 PUSH1 0x1 PUSH1 0xA0 SHL SUB NOT AND PUSH1 0x1 PUSH1 0x1 PUSH1 0xA0 SHL SUB DUP4 AND SWAP1 DUP2 OR DUP3 SSTORE PUSH1 0x40 MLOAD SWAP3 SWAP4 POP SWAP2 PUSH32 0x8BE0079C531659141344CD1FD0A4F28419497F9722A3DAAFE3B4186F6B6457E0 SWAP1 DUP3 SWAP1 LOG3 POP DUP2 MLOAD PUSH3 0xC5 SWAP1 PUSH1 0x4 SWAP1 PUSH1 0x20 DUP6 ADD SWAP1 PUSH3 0xF5 JUMP JUMPDEST POP DUP1 MLOAD PUSH3 0xDB SWAP1 PUSH1 0x5 SWAP1 PUSH1 0x20 DUP5 ADD SWAP1 PUSH3 0xF5 JUMP JUMPDEST POP POP PUSH1 0x6 DUP1 SLOAD PUSH1 0xFF NOT AND PUSH1 0x12 OR SWAP1 SSTORE POP PUSH3 0x191 JUMP JUMPDEST CALLER SWAP1 JUMP JUMPDEST DUP3 DUP1 SLOAD PUSH1 0x1 DUP2 PUSH1 0x1 AND ISZERO PUSH2 0x100 MUL SUB AND PUSH1 0x2 SWAP1 DIV SWAP1 PUSH1 0x0 MSTORE PUSH1 0x20 PUSH1 0x0 KECCAK256 SWAP1 PUSH1 0x1F ADD PUSH1 0x20 SWAP1 DIV DUP2 ADD SWAP3 DUP3 PUSH1 0x1F LT PUSH3 0x138 JUMPI DUP1 MLOAD PUSH1 0xFF NOT AND DUP4 DUP1 ADD OR DUP6 SSTORE PUSH3 0x168 JUMP JUMPDEST DUP3 DUP1 ADD PUSH1 0x1 ADD DUP6 SSTORE DUP3 ISZERO PUSH3 0x168 JUMPI SWAP2 DUP3 ADD JUMPDEST DUP3 DUP2 GT ISZERO PUSH3 0x168 JUMPI DUP3 MLOAD DUP3 SSTORE SWAP2 PUSH1 0x20 ADD SWAP2 SWAP1 PUSH1 0x1 ADD SWAP1 PUSH3 0x14B JUMP JUMPDEST POP PUSH3 0x176 SWAP3 SWAP2 POP PUSH3 0x17A JUMP JUMPDEST POP SWAP1 JUMP JUMPDEST JUMPDEST DUP1 DUP3 GT ISZERO PUSH3 0x176 JUMPI PUSH1 0x0 DUP2 SSTORE PUSH1 0x1 ADD PUSH3 0x17B JUMP JUMPDEST PUSH2 0x1B97 DUP1 PUSH3 0x1A1 PUSH1 0x0 CODECOPY PUSH1 0x0 RETURN INVALID PUSH1 0x80 PUSH1 0x40 MSTORE CALLVALUE DUP1 ISZERO PUSH2 0x10 JUMPI PUSH1 0x0 DUP1 REVERT JUMPDEST POP PUSH1 0x4 CALLDATASIZE LT PUSH2 0x1A9 JUMPI PUSH1 0x0 CALLDATALOAD PUSH1 0xE0 SHR DUP1 PUSH4 0x782D6FE1 GT PUSH2 0xF9 JUMPI DUP1 PUSH4 0xA9059CBB GT PUSH2 0x97 JUMPI DUP1 PUSH4 0xDD62ED3E GT PUSH2 0x71 JUMPI DUP1 PUSH4 0xDD62ED3E EQ PUSH2 0x55C JUMPI DUP1 PUSH4 0xE7A324DC EQ PUSH2 0x58A JUMPI DUP1 PUSH4 0xF1127ED8 EQ PUSH2 0x592 JUMPI DUP1 PUSH4 0xF2FDE38B EQ PUSH2 0x5E4 JUMPI PUSH2 0x1A9 JUMP JUMPDEST DUP1 PUSH4 0xA9059CBB EQ PUSH2 0x4C3 JUMPI DUP1 PUSH4 0xB4B5EA57 EQ PUSH2 0x4EF JUMPI DUP1 PUSH4 0xC3CDA520 EQ PUSH2 0x515 JUMPI PUSH2 0x1A9 JUMP JUMPDEST DUP1 PUSH4 0x8DA5CB5B GT PUSH2 0xD3 JUMPI DUP1 PUSH4 0x8DA5CB5B EQ PUSH2 0x46A JUMPI DUP1 PUSH4 0x95D89B41 EQ PUSH2 0x472 JUMPI DUP1 PUSH4 0xA0712D68 EQ PUSH2 0x47A JUMPI DUP1 PUSH4 0xA457C2D7 EQ PUSH2 0x497 JUMPI PUSH2 0x1A9 JUMP JUMPDEST DUP1 PUSH4 0x782D6FE1 EQ PUSH2 0x410 JUMPI DUP1 PUSH4 0x7ECEBE00 EQ PUSH2 0x43C JUMPI DUP1 PUSH4 0x893D20E8 EQ PUSH2 0x462 JUMPI PUSH2 0x1A9 JUMP JUMPDEST DUP1 PUSH4 0x39509351 GT PUSH2 0x166 JUMPI DUP1 PUSH4 0x5C19A95C GT PUSH2 0x140 JUMPI DUP1 PUSH4 0x5C19A95C EQ PUSH2 0x37D JUMPI DUP1 PUSH4 0x6FCFFF45 EQ PUSH2 0x3A3 JUMPI DUP1 PUSH4 0x70A08231 EQ PUSH2 0x3E2 JUMPI DUP1 PUSH4 0x715018A6 EQ PUSH2 0x408 JUMPI PUSH2 0x1A9 JUMP JUMPDEST DUP1 PUSH4 0x39509351 EQ PUSH2 0x2E1 JUMPI DUP1 PUSH4 0x40C10F19 EQ PUSH2 0x30D JUMPI DUP1 PUSH4 0x587CDE1E EQ PUSH2 0x33B JUMPI PUSH2 0x1A9 JUMP JUMPDEST DUP1 PUSH4 0x6FDDE03 EQ PUSH2 0x1AE JUMPI DUP1 PUSH4 0x95EA7B3 EQ PUSH2 0x22B JUMPI DUP1 PUSH4 0x18160DDD EQ PUSH2 0x26B JUMPI DUP1 PUSH4 0x20606B70 EQ PUSH2 0x285 JUMPI DUP1 PUSH4 0x23B872DD EQ PUSH2 0x28D JUMPI DUP1 PUSH4 0x313CE567 EQ PUSH2 0x2C3 JUMPI JUMPDEST PUSH1 0x0 DUP1 REVERT JUMPDEST PUSH2 0x1B6 PUSH2 0x60A JUMP JUMPDEST PUSH1 0x40 DUP1 MLOAD PUSH1 0x20 DUP1 DUP3 MSTORE DUP4 MLOAD DUP2 DUP4 ADD MSTORE DUP4 MLOAD SWAP2 SWAP3 DUP4 SWAP3 SWAP1 DUP4 ADD SWAP2 DUP6 ADD SWAP1 DUP1 DUP4 DUP4 PUSH1 0x0 JUMPDEST DUP4 DUP2 LT ISZERO PUSH2 0x1F0 JUMPI DUP2 DUP2 ADD MLOAD DUP4 DUP3 ADD MSTORE PUSH1 0x20 ADD PUSH2 0x1D8 JUMP JUMPDEST POP POP POP POP SWAP1 POP SWAP1 DUP2 ADD SWAP1 PUSH1 0x1F AND DUP1 ISZERO PUSH2 0x21D JUMPI DUP1 DUP3 SUB DUP1 MLOAD PUSH1 0x1 DUP4 PUSH1 0x20 SUB PUSH2 0x100 EXP SUB NOT AND DUP2 MSTORE PUSH1 0x20 ADD SWAP2 POP JUMPDEST POP SWAP3 POP POP POP PUSH1 0x40 MLOAD DUP1 SWAP2 SUB SWAP1 RETURN JUMPDEST PUSH2 0x257 PUSH1 0x4 DUP1 CALLDATASIZE SUB PUSH1 0x40 DUP2 LT ISZERO PUSH2 0x241 JUMPI PUSH1 0x0 DUP1 REVERT JUMPDEST POP PUSH1 0x1 PUSH1 0x1 PUSH1 0xA0 SHL SUB DUP2 CALLDATALOAD AND SWAP1 PUSH1 0x20 ADD CALLDATALOAD PUSH2 0x6A0 JUMP JUMPDEST PUSH1 0x40 DUP1 MLOAD SWAP2 ISZERO ISZERO DUP3 MSTORE MLOAD SWAP1 DUP2 SWAP1 SUB PUSH1 0x20 ADD SWAP1 RETURN JUMPDEST PUSH2 0x273 PUSH2 0x6BE JUMP JUMPDEST PUSH1 0x40 DUP1 MLOAD SWAP2 DUP3 MSTORE MLOAD SWAP1 DUP2 SWAP1 SUB PUSH1 0x20 ADD SWAP1 RETURN JUMPDEST PUSH2 0x273 PUSH2 0x6C4 JUMP JUMPDEST PUSH2 0x257 PUSH1 0x4 DUP1 CALLDATASIZE SUB PUSH1 0x60 DUP2 LT ISZERO PUSH2 0x2A3 JUMPI PUSH1 0x0 DUP1 REVERT JUMPDEST POP PUSH1 0x1 PUSH1 0x1 PUSH1 0xA0 SHL SUB DUP2 CALLDATALOAD DUP2 AND SWAP2 PUSH1 0x20 DUP2 ADD CALLDATALOAD SWAP1 SWAP2 AND SWAP1 PUSH1 0x40 ADD CALLDATALOAD PUSH2 0x6E8 JUMP JUMPDEST PUSH2 0x2CB PUSH2 0x76F JUMP JUMPDEST PUSH1 0x40 DUP1 MLOAD PUSH1 0xFF SWAP1 SWAP3 AND DUP3 MSTORE MLOAD SWAP1 DUP2 SWAP1 SUB PUSH1 0x20 ADD SWAP1 RETURN JUMPDEST PUSH2 0x257 PUSH1 0x4 DUP1 CALLDATASIZE SUB PUSH1 0x40 DUP2 LT ISZERO PUSH2 0x2F7 JUMPI PUSH1 0x0 DUP1 REVERT JUMPDEST POP PUSH1 0x1 PUSH1 0x1 PUSH1 0xA0 SHL SUB DUP2 CALLDATALOAD AND SWAP1 PUSH1 0x20 ADD CALLDATALOAD PUSH2 0x778 JUMP JUMPDEST PUSH2 0x339 PUSH1 0x4 DUP1 CALLDATASIZE SUB PUSH1 0x40 DUP2 LT ISZERO PUSH2 0x323 JUMPI PUSH1 0x0 DUP1 REVERT JUMPDEST POP PUSH1 0x1 PUSH1 0x1 PUSH1 0xA0 SHL SUB DUP2 CALLDATALOAD AND SWAP1 PUSH1 0x20 ADD CALLDATALOAD PUSH2 0x7C6 JUMP JUMPDEST STOP JUMPDEST PUSH2 0x361 PUSH1 0x4 DUP1 CALLDATASIZE SUB PUSH1 0x20 DUP2 LT ISZERO PUSH2 0x351 JUMPI PUSH1 0x0 DUP1 REVERT JUMPDEST POP CALLDATALOAD PUSH1 0x1 PUSH1 0x1 PUSH1 0xA0 SHL SUB AND PUSH2 0x851 JUMP JUMPDEST PUSH1 0x40 DUP1 MLOAD PUSH1 0x1 PUSH1 0x1 PUSH1 0xA0 SHL SUB SWAP1 SWAP3 AND DUP3 MSTORE MLOAD SWAP1 DUP2 SWAP1 SUB PUSH1 0x20 ADD SWAP1 RETURN JUMPDEST PUSH2 0x339 PUSH1 0x4 DUP1 CALLDATASIZE SUB PUSH1 0x20 DUP2 LT ISZERO PUSH2 0x393 JUMPI PUSH1 0x0 DUP1 REVERT JUMPDEST POP CALLDATALOAD PUSH1 0x1 PUSH1 0x1 PUSH1 0xA0 SHL SUB AND PUSH2 0x86F JUMP JUMPDEST PUSH2 0x3C9 PUSH1 0x4 DUP1 CALLDATASIZE SUB PUSH1 0x20 DUP2 LT ISZERO PUSH2 0x3B9 JUMPI PUSH1 0x0 DUP1 REVERT JUMPDEST POP CALLDATALOAD PUSH1 0x1 PUSH1 0x1 PUSH1 0xA0 SHL SUB AND PUSH2 0x87C JUMP JUMPDEST PUSH1 0x40 DUP1 MLOAD PUSH4 0xFFFFFFFF SWAP1 SWAP3 AND DUP3 MSTORE MLOAD SWAP1 DUP2 SWAP1 SUB PUSH1 0x20 ADD SWAP1 RETURN JUMPDEST PUSH2 0x273 PUSH1 0x4 DUP1 CALLDATASIZE SUB PUSH1 0x20 DUP2 LT ISZERO PUSH2 0x3F8 JUMPI PUSH1 0x0 DUP1 REVERT JUMPDEST POP CALLDATALOAD PUSH1 0x1 PUSH1 0x1 PUSH1 0xA0 SHL SUB AND PUSH2 0x894 JUMP JUMPDEST PUSH2 0x339 PUSH2 0x8AF JUMP JUMPDEST PUSH2 0x273 PUSH1 0x4 DUP1 CALLDATASIZE SUB PUSH1 0x40 DUP2 LT ISZERO PUSH2 0x426 JUMPI PUSH1 0x0 DUP1 REVERT JUMPDEST POP PUSH1 0x1 PUSH1 0x1 PUSH1 0xA0 SHL SUB DUP2 CALLDATALOAD AND SWAP1 PUSH1 0x20 ADD CALLDATALOAD PUSH2 0x951 JUMP JUMPDEST PUSH2 0x273 PUSH1 0x4 DUP1 CALLDATASIZE SUB PUSH1 0x20 DUP2 LT ISZERO PUSH2 0x452 JUMPI PUSH1 0x0 DUP1 REVERT JUMPDEST POP CALLDATALOAD PUSH1 0x1 PUSH1 0x1 PUSH1 0xA0 SHL SUB AND PUSH2 0xB59 JUMP JUMPDEST PUSH2 0x361 PUSH2 0xB6B JUMP JUMPDEST PUSH2 0x361 PUSH2 0xB7A JUMP JUMPDEST PUSH2 0x1B6 PUSH2 0xB89 JUMP JUMPDEST PUSH2 0x257 PUSH1 0x4 DUP1 CALLDATASIZE SUB PUSH1 0x20 DUP2 LT ISZERO PUSH2 0x490 JUMPI PUSH1 0x0 DUP1 REVERT JUMPDEST POP CALLDATALOAD PUSH2 0xBEA JUMP JUMPDEST PUSH2 0x257 PUSH1 0x4 DUP1 CALLDATASIZE SUB PUSH1 0x40 DUP2 LT ISZERO PUSH2 0x4AD JUMPI PUSH1 0x0 DUP1 REVERT JUMPDEST POP PUSH1 0x1 PUSH1 0x1 PUSH1 0xA0 SHL SUB DUP2 CALLDATALOAD AND SWAP1 PUSH1 0x20 ADD CALLDATALOAD PUSH2 0xC5D JUMP JUMPDEST PUSH2 0x257 PUSH1 0x4 DUP1 CALLDATASIZE SUB PUSH1 0x40 DUP2 LT ISZERO PUSH2 0x4D9 JUMPI PUSH1 0x0 DUP1 REVERT JUMPDEST POP PUSH1 0x1 PUSH1 0x1 PUSH1 0xA0 SHL SUB DUP2 CALLDATALOAD AND SWAP1 PUSH1 0x20 ADD CALLDATALOAD PUSH2 0xCC5 JUMP JUMPDEST PUSH2 0x273 PUSH1 0x4 DUP1 CALLDATASIZE SUB PUSH1 0x20 DUP2 LT ISZERO PUSH2 0x505 JUMPI PUSH1 0x0 DUP1 REVERT JUMPDEST POP CALLDATALOAD PUSH1 0x1 PUSH1 0x1 PUSH1 0xA0 SHL SUB AND PUSH2 0xCD9 JUMP JUMPDEST PUSH2 0x339 PUSH1 0x4 DUP1 CALLDATASIZE SUB PUSH1 0xC0 DUP2 LT ISZERO PUSH2 0x52B JUMPI PUSH1 0x0 DUP1 REVERT JUMPDEST POP PUSH1 0x1 PUSH1 0x1 PUSH1 0xA0 SHL SUB DUP2 CALLDATALOAD AND SWAP1 PUSH1 0x20 DUP2 ADD CALLDATALOAD SWAP1 PUSH1 0x40 DUP2 ADD CALLDATALOAD SWAP1 PUSH1 0xFF PUSH1 0x60 DUP3 ADD CALLDATALOAD AND SWAP1 PUSH1 0x80 DUP2 ADD CALLDATALOAD SWAP1 PUSH1 0xA0 ADD CALLDATALOAD PUSH2 0xD3D JUMP JUMPDEST PUSH2 0x273 PUSH1 0x4 DUP1 CALLDATASIZE SUB PUSH1 0x40 DUP2 LT ISZERO PUSH2 0x572 JUMPI PUSH1 0x0 DUP1 REVERT JUMPDEST POP PUSH1 0x1 PUSH1 0x1 PUSH1 0xA0 SHL SUB DUP2 CALLDATALOAD DUP2 AND SWAP2 PUSH1 0x20 ADD CALLDATALOAD AND PUSH2 0xFB0 JUMP JUMPDEST PUSH2 0x273 PUSH2 0xFDB JUMP JUMPDEST PUSH2 0x5C4 PUSH1 0x4 DUP1 CALLDATASIZE SUB PUSH1 0x40 DUP2 LT ISZERO PUSH2 0x5A8 JUMPI PUSH1 0x0 DUP1 REVERT JUMPDEST POP DUP1 CALLDATALOAD PUSH1 0x1 PUSH1 0x1 PUSH1 0xA0 SHL SUB AND SWAP1 PUSH1 0x20 ADD CALLDATALOAD PUSH4 0xFFFFFFFF AND PUSH2 0xFFF JUMP JUMPDEST PUSH1 0x40 DUP1 MLOAD PUSH4 0xFFFFFFFF SWAP1 SWAP4 AND DUP4 MSTORE PUSH1 0x20 DUP4 ADD SWAP2 SWAP1 SWAP2 MSTORE DUP1 MLOAD SWAP2 DUP3 SWAP1 SUB ADD SWAP1 RETURN JUMPDEST PUSH2 0x339 PUSH1 0x4 DUP1 CALLDATASIZE SUB PUSH1 0x20 DUP2 LT ISZERO PUSH2 0x5FA JUMPI PUSH1 0x0 DUP1 REVERT JUMPDEST POP CALLDATALOAD PUSH1 0x1 PUSH1 0x1 PUSH1 0xA0 SHL SUB AND PUSH2 0x102C JUMP JUMPDEST PUSH1 0x4 DUP1 SLOAD PUSH1 0x40 DUP1 MLOAD PUSH1 0x20 PUSH1 0x1F PUSH1 0x2 PUSH1 0x0 NOT PUSH2 0x100 PUSH1 0x1 DUP9 AND ISZERO MUL ADD SWAP1 SWAP6 AND SWAP5 SWAP1 SWAP5 DIV SWAP4 DUP5 ADD DUP2 SWAP1 DIV DUP2 MUL DUP3 ADD DUP2 ADD SWAP1 SWAP3 MSTORE DUP3 DUP2 MSTORE PUSH1 0x60 SWAP4 SWAP1 SWAP3 SWAP1 SWAP2 DUP4 ADD DUP3 DUP3 DUP1 ISZERO PUSH2 0x696 JUMPI DUP1 PUSH1 0x1F LT PUSH2 0x66B JUMPI PUSH2 0x100 DUP1 DUP4 SLOAD DIV MUL DUP4 MSTORE SWAP2 PUSH1 0x20 ADD SWAP2 PUSH2 0x696 JUMP JUMPDEST DUP3 ADD SWAP2 SWAP1 PUSH1 0x0 MSTORE PUSH1 0x20 PUSH1 0x0 KECCAK256 SWAP1 JUMPDEST DUP2 SLOAD DUP2 MSTORE SWAP1 PUSH1 0x1 ADD SWAP1 PUSH1 0x20 ADD DUP1 DUP4 GT PUSH2 0x679 JUMPI DUP3 SWAP1 SUB PUSH1 0x1F AND DUP3 ADD SWAP2 JUMPDEST POP POP POP POP POP SWAP1 POP SWAP1 JUMP JUMPDEST PUSH1 0x0 PUSH2 0x6B4 PUSH2 0x6AD PUSH2 0x108D JUMP JUMPDEST DUP5 DUP5 PUSH2 0x1091 JUMP JUMPDEST POP PUSH1 0x1 JUMPDEST SWAP3 SWAP2 POP POP JUMP JUMPDEST PUSH1 0x3 SLOAD SWAP1 JUMP JUMPDEST PUSH32 0x8CAD95687BA82C2CE50E74F7B754645E5117C3A5BEC8151C0726D5857980A866 DUP2 JUMP JUMPDEST PUSH1 0x0 PUSH2 0x6F5 DUP5 DUP5 DUP5 PUSH2 0x117D JUMP JUMPDEST PUSH2 0x765 DUP5 PUSH2 0x701 PUSH2 0x108D JUMP JUMPDEST PUSH2 0x760 DUP6 PUSH1 0x40 MLOAD DUP1 PUSH1 0x60 ADD PUSH1 0x40 MSTORE DUP1 PUSH1 0x28 DUP2 MSTORE PUSH1 0x20 ADD PUSH2 0x19D8 PUSH1 0x28 SWAP2 CODECOPY PUSH1 0x1 PUSH1 0x1 PUSH1 0xA0 SHL SUB DUP11 AND PUSH1 0x0 SWAP1 DUP2 MSTORE PUSH1 0x2 PUSH1 0x20 MSTORE PUSH1 0x40 DUP2 KECCAK256 SWAP1 PUSH2 0x73F PUSH2 0x108D JUMP JUMPDEST PUSH1 0x1 PUSH1 0x1 PUSH1 0xA0 SHL SUB AND DUP2 MSTORE PUSH1 0x20 DUP2 ADD SWAP2 SWAP1 SWAP2 MSTORE PUSH1 0x40 ADD PUSH1 0x0 KECCAK256 SLOAD SWAP2 SWAP1 PUSH2 0x12CF JUMP JUMPDEST PUSH2 0x1091 JUMP JUMPDEST POP PUSH1 0x1 SWAP4 SWAP3 POP POP POP JUMP JUMPDEST PUSH1 0x6 SLOAD PUSH1 0xFF AND SWAP1 JUMP JUMPDEST PUSH1 0x0 PUSH2 0x6B4 PUSH2 0x785 PUSH2 0x108D JUMP JUMPDEST DUP5 PUSH2 0x760 DUP6 PUSH1 0x2 PUSH1 0x0 PUSH2 0x796 PUSH2 0x108D JUMP JUMPDEST PUSH1 0x1 PUSH1 0x1 PUSH1 0xA0 SHL SUB SWAP1 DUP2 AND DUP3 MSTORE PUSH1 0x20 DUP1 DUP4 ADD SWAP4 SWAP1 SWAP4 MSTORE PUSH1 0x40 SWAP2 DUP3 ADD PUSH1 0x0 SWAP1 DUP2 KECCAK256 SWAP2 DUP13 AND DUP2 MSTORE SWAP3 MSTORE SWAP1 KECCAK256 SLOAD SWAP1 PUSH2 0x1366 JUMP JUMPDEST PUSH2 0x7CE PUSH2 0x108D JUMP JUMPDEST PUSH1 0x0 SLOAD PUSH1 0x1 PUSH1 0x1 PUSH1 0xA0 SHL SUB SWAP1 DUP2 AND SWAP2 AND EQ PUSH2 0x81E JUMPI PUSH1 0x40 DUP1 MLOAD PUSH3 0x461BCD PUSH1 0xE5 SHL DUP2 MSTORE PUSH1 0x20 PUSH1 0x4 DUP3 ADD DUP2 SWAP1 MSTORE PUSH1 0x24 DUP3 ADD MSTORE PUSH1 0x0 DUP1 MLOAD PUSH1 0x20 PUSH2 0x1A7A DUP4 CODECOPY DUP2 MLOAD SWAP2 MSTORE PUSH1 0x44 DUP3 ADD MSTORE SWAP1 MLOAD SWAP1 DUP2 SWAP1 SUB PUSH1 0x64 ADD SWAP1 REVERT JUMPDEST PUSH2 0x828 DUP3 DUP3 PUSH2 0x13C0 JUMP JUMPDEST PUSH1 0x1 PUSH1 0x1 PUSH1 0xA0 SHL SUB DUP1 DUP4 AND PUSH1 0x0 SWAP1 DUP2 MSTORE PUSH1 0x7 PUSH1 0x20 MSTORE PUSH1 0x40 DUP2 KECCAK256 SLOAD PUSH2 0x84D SWAP3 AND DUP4 PUSH2 0x14A6 JUMP JUMPDEST POP POP JUMP JUMPDEST PUSH1 0x1 PUSH1 0x1 PUSH1 0xA0 SHL SUB SWAP1 DUP2 AND PUSH1 0x0 SWAP1 DUP2 MSTORE PUSH1 0x7 PUSH1 0x20 MSTORE PUSH1 0x40 SWAP1 KECCAK256 SLOAD AND SWAP1 JUMP JUMPDEST PUSH2 0x879 CALLER DUP3 PUSH2 0x15E8 JUMP JUMPDEST POP JUMP JUMPDEST PUSH1 0x9 PUSH1 0x20 MSTORE PUSH1 0x0 SWAP1 DUP2 MSTORE PUSH1 0x40 SWAP1 KECCAK256 SLOAD PUSH4 0xFFFFFFFF AND DUP2 JUMP JUMPDEST PUSH1 0x1 PUSH1 0x1 PUSH1 0xA0 SHL SUB AND PUSH1 0x0 SWAP1 DUP2 MSTORE PUSH1 0x1 PUSH1 0x20 MSTORE PUSH1 0x40 SWAP1 KECCAK256 SLOAD SWAP1 JUMP JUMPDEST PUSH2 0x8B7 PUSH2 0x108D JUMP JUMPDEST PUSH1 0x0 SLOAD PUSH1 0x1 PUSH1 0x1 PUSH1 0xA0 SHL SUB SWAP1 DUP2 AND SWAP2 AND EQ PUSH2 0x907 JUMPI PUSH1 0x40 DUP1 MLOAD PUSH3 0x461BCD PUSH1 0xE5 SHL DUP2 MSTORE PUSH1 0x20 PUSH1 0x4 DUP3 ADD DUP2 SWAP1 MSTORE PUSH1 0x24 DUP3 ADD MSTORE PUSH1 0x0 DUP1 MLOAD PUSH1 0x20 PUSH2 0x1A7A DUP4 CODECOPY DUP2 MLOAD SWAP2 MSTORE PUSH1 0x44 DUP3 ADD MSTORE SWAP1 MLOAD SWAP1 DUP2 SWAP1 SUB PUSH1 0x64 ADD SWAP1 REVERT JUMPDEST PUSH1 0x0 DUP1 SLOAD PUSH1 0x40 MLOAD PUSH1 0x1 PUSH1 0x1 PUSH1 0xA0 SHL SUB SWAP1 SWAP2 AND SWAP1 PUSH32 0x8BE0079C531659141344CD1FD0A4F28419497F9722A3DAAFE3B4186F6B6457E0 SWAP1 DUP4 SWAP1 LOG3 PUSH1 0x0 DUP1 SLOAD PUSH1 0x1 PUSH1 0x1 PUSH1 0xA0 SHL SUB NOT AND SWAP1 SSTORE JUMP JUMPDEST PUSH1 0x0 NUMBER DUP3 LT PUSH2 0x991 JUMPI PUSH1 0x40 MLOAD PUSH3 0x461BCD PUSH1 0xE5 SHL DUP2 MSTORE PUSH1 0x4 ADD DUP1 DUP1 PUSH1 0x20 ADD DUP3 DUP2 SUB DUP3 MSTORE PUSH1 0x2B DUP2 MSTORE PUSH1 0x20 ADD DUP1 PUSH2 0x19AD PUSH1 0x2B SWAP2 CODECOPY PUSH1 0x40 ADD SWAP2 POP POP PUSH1 0x40 MLOAD DUP1 SWAP2 SUB SWAP1 REVERT JUMPDEST PUSH1 0x1 PUSH1 0x1 PUSH1 0xA0 SHL SUB DUP4 AND PUSH1 0x0 SWAP1 DUP2 MSTORE PUSH1 0x9 PUSH1 0x20 MSTORE PUSH1 0x40 SWAP1 KECCAK256 SLOAD PUSH4 0xFFFFFFFF AND DUP1 PUSH2 0x9BF JUMPI PUSH1 0x0 SWAP2 POP POP PUSH2 0x6B8 JUMP JUMPDEST PUSH1 0x1 PUSH1 0x1 PUSH1 0xA0 SHL SUB DUP5 AND PUSH1 0x0 SWAP1 DUP2 MSTORE PUSH1 0x8 PUSH1 0x20 SWAP1 DUP2 MSTORE PUSH1 0x40 DUP1 DUP4 KECCAK256 PUSH4 0xFFFFFFFF PUSH1 0x0 NOT DUP7 ADD DUP2 AND DUP6 MSTORE SWAP3 MSTORE SWAP1 SWAP2 KECCAK256 SLOAD AND DUP4 LT PUSH2 0xA2E JUMPI PUSH1 0x1 PUSH1 0x1 PUSH1 0xA0 SHL SUB DUP5 AND PUSH1 0x0 SWAP1 DUP2 MSTORE PUSH1 0x8 PUSH1 0x20 SWAP1 DUP2 MSTORE PUSH1 0x40 DUP1 DUP4 KECCAK256 PUSH1 0x0 NOT SWAP5 SWAP1 SWAP5 ADD PUSH4 0xFFFFFFFF AND DUP4 MSTORE SWAP3 SWAP1 MSTORE KECCAK256 PUSH1 0x1 ADD SLOAD SWAP1 POP PUSH2 0x6B8 JUMP JUMPDEST PUSH1 0x1 PUSH1 0x1 PUSH1 0xA0 SHL SUB DUP5 AND PUSH1 0x0 SWAP1 DUP2 MSTORE PUSH1 0x8 PUSH1 0x20 SWAP1 DUP2 MSTORE PUSH1 0x40 DUP1 DUP4 KECCAK256 DUP4 DUP1 MSTORE SWAP1 SWAP2 MSTORE SWAP1 KECCAK256 SLOAD PUSH4 0xFFFFFFFF AND DUP4 LT ISZERO PUSH2 0xA69 JUMPI PUSH1 0x0 SWAP2 POP POP PUSH2 0x6B8 JUMP JUMPDEST PUSH1 0x0 PUSH1 0x0 NOT DUP3 ADD JUMPDEST DUP2 PUSH4 0xFFFFFFFF AND DUP2 PUSH4 0xFFFFFFFF AND GT ISZERO PUSH2 0xB22 JUMPI PUSH1 0x2 DUP3 DUP3 SUB PUSH4 0xFFFFFFFF AND DIV DUP2 SUB PUSH2 0xA9B PUSH2 0x1926 JUMP JUMPDEST POP PUSH1 0x1 PUSH1 0x1 PUSH1 0xA0 SHL SUB DUP8 AND PUSH1 0x0 SWAP1 DUP2 MSTORE PUSH1 0x8 PUSH1 0x20 SWAP1 DUP2 MSTORE PUSH1 0x40 DUP1 DUP4 KECCAK256 PUSH4 0xFFFFFFFF DUP1 DUP7 AND DUP6 MSTORE SWAP1 DUP4 MSTORE SWAP3 DUP2 SWAP1 KECCAK256 DUP2 MLOAD DUP1 DUP4 ADD SWAP1 SWAP3 MSTORE DUP1 SLOAD SWAP1 SWAP4 AND DUP1 DUP3 MSTORE PUSH1 0x1 SWAP1 SWAP4 ADD SLOAD SWAP2 DUP2 ADD SWAP2 SWAP1 SWAP2 MSTORE SWAP1 DUP8 EQ ISZERO PUSH2 0xAFD JUMPI PUSH1 0x20 ADD MLOAD SWAP5 POP PUSH2 0x6B8 SWAP4 POP POP POP POP JUMP JUMPDEST DUP1 MLOAD PUSH4 0xFFFFFFFF AND DUP8 GT ISZERO PUSH2 0xB14 JUMPI DUP2 SWAP4 POP PUSH2 0xB1B JUMP JUMPDEST PUSH1 0x1 DUP3 SUB SWAP3 POP JUMPDEST POP POP PUSH2 0xA71 JUMP JUMPDEST POP PUSH1 0x1 PUSH1 0x1 PUSH1 0xA0 SHL SUB DUP6 AND PUSH1 0x0 SWAP1 DUP2 MSTORE PUSH1 0x8 PUSH1 0x20 SWAP1 DUP2 MSTORE PUSH1 0x40 DUP1 DUP4 KECCAK256 PUSH4 0xFFFFFFFF SWAP1 SWAP5 AND DUP4 MSTORE SWAP3 SWAP1 MSTORE KECCAK256 PUSH1 0x1 ADD SLOAD SWAP2 POP POP SWAP3 SWAP2 POP POP JUMP JUMPDEST PUSH1 0xA PUSH1 0x20 MSTORE PUSH1 0x0 SWAP1 DUP2 MSTORE PUSH1 0x40 SWAP1 KECCAK256 SLOAD DUP2 JUMP JUMPDEST PUSH1 0x0 PUSH2 0xB75 PUSH2 0xB7A JUMP JUMPDEST SWAP1 POP SWAP1 JUMP JUMPDEST PUSH1 0x0 SLOAD PUSH1 0x1 PUSH1 0x1 PUSH1 0xA0 SHL SUB AND SWAP1 JUMP JUMPDEST PUSH1 0x5 DUP1 SLOAD PUSH1 0x40 DUP1 MLOAD PUSH1 0x20 PUSH1 0x1F PUSH1 0x2 PUSH1 0x0 NOT PUSH2 0x100 PUSH1 0x1 DUP9 AND ISZERO MUL ADD SWAP1 SWAP6 AND SWAP5 SWAP1 SWAP5 DIV SWAP4 DUP5 ADD DUP2 SWAP1 DIV DUP2 MUL DUP3 ADD DUP2 ADD SWAP1 SWAP3 MSTORE DUP3 DUP2 MSTORE PUSH1 0x60 SWAP4 SWAP1 SWAP3 SWAP1 SWAP2 DUP4 ADD DUP3 DUP3 DUP1 ISZERO PUSH2 0x696 JUMPI DUP1 PUSH1 0x1F LT PUSH2 0x66B JUMPI PUSH2 0x100 DUP1 DUP4 SLOAD DIV MUL DUP4 MSTORE SWAP2 PUSH1 0x20 ADD SWAP2 PUSH2 0x696 JUMP JUMPDEST PUSH1 0x0 PUSH2 0xBF4 PUSH2 0x108D JUMP JUMPDEST PUSH1 0x0 SLOAD PUSH1 0x1 PUSH1 0x1 PUSH1 0xA0 SHL SUB SWAP1 DUP2 AND SWAP2 AND EQ PUSH2 0xC44 JUMPI PUSH1 0x40 DUP1 MLOAD PUSH3 0x461BCD PUSH1 0xE5 SHL DUP2 MSTORE PUSH1 0x20 PUSH1 0x4 DUP3 ADD DUP2 SWAP1 MSTORE PUSH1 0x24 DUP3 ADD MSTORE PUSH1 0x0 DUP1 MLOAD PUSH1 0x20 PUSH2 0x1A7A DUP4 CODECOPY DUP2 MLOAD SWAP2 MSTORE PUSH1 0x44 DUP3 ADD MSTORE SWAP1 MLOAD SWAP1 DUP2 SWAP1 SUB PUSH1 0x64 ADD SWAP1 REVERT JUMPDEST PUSH2 0xC55 PUSH2 0xC4F PUSH2 0x108D JUMP JUMPDEST DUP4 PUSH2 0x13C0 JUMP JUMPDEST POP PUSH1 0x1 SWAP2 SWAP1 POP JUMP JUMPDEST PUSH1 0x0 PUSH2 0x6B4 PUSH2 0xC6A PUSH2 0x108D JUMP JUMPDEST DUP5 PUSH2 0x760 DUP6 PUSH1 0x40 MLOAD DUP1 PUSH1 0x60 ADD PUSH1 0x40 MSTORE DUP1 PUSH1 0x25 DUP2 MSTORE PUSH1 0x20 ADD PUSH2 0x1AE3 PUSH1 0x25 SWAP2 CODECOPY PUSH1 0x2 PUSH1 0x0 PUSH2 0xC94 PUSH2 0x108D JUMP JUMPDEST PUSH1 0x1 PUSH1 0x1 PUSH1 0xA0 SHL SUB SWAP1 DUP2 AND DUP3 MSTORE PUSH1 0x20 DUP1 DUP4 ADD SWAP4 SWAP1 SWAP4 MSTORE PUSH1 0x40 SWAP2 DUP3 ADD PUSH1 0x0 SWAP1 DUP2 KECCAK256 SWAP2 DUP14 AND DUP2 MSTORE SWAP3 MSTORE SWAP1 KECCAK256 SLOAD SWAP2 SWAP1 PUSH2 0x12CF JUMP JUMPDEST PUSH1 0x0 PUSH2 0x6B4 PUSH2 0xCD2 PUSH2 0x108D JUMP JUMPDEST DUP5 DUP5 PUSH2 0x117D JUMP JUMPDEST PUSH1 0x1 PUSH1 0x1 PUSH1 0xA0 SHL SUB DUP2 AND PUSH1 0x0 SWAP1 DUP2 MSTORE PUSH1 0x9 PUSH1 0x20 MSTORE PUSH1 0x40 DUP2 KECCAK256 SLOAD PUSH4 0xFFFFFFFF AND DUP1 PUSH2 0xD04 JUMPI PUSH1 0x0 PUSH2 0xD36 JUMP JUMPDEST PUSH1 0x1 PUSH1 0x1 PUSH1 0xA0 SHL SUB DUP4 AND PUSH1 0x0 SWAP1 DUP2 MSTORE PUSH1 0x8 PUSH1 0x20 SWAP1 DUP2 MSTORE PUSH1 0x40 DUP1 DUP4 KECCAK256 PUSH4 0xFFFFFFFF PUSH1 0x0 NOT DUP7 ADD AND DUP5 MSTORE SWAP1 SWAP2 MSTORE SWAP1 KECCAK256 PUSH1 0x1 ADD SLOAD JUMPDEST SWAP4 SWAP3 POP POP POP JUMP JUMPDEST PUSH1 0x0 PUSH32 0x8CAD95687BA82C2CE50E74F7B754645E5117C3A5BEC8151C0726D5857980A866 PUSH2 0xD68 PUSH2 0x60A JUMP JUMPDEST DUP1 MLOAD SWAP1 PUSH1 0x20 ADD KECCAK256 PUSH2 0xD77 PUSH2 0x167D JUMP JUMPDEST PUSH1 0x40 DUP1 MLOAD PUSH1 0x20 DUP1 DUP3 ADD SWAP6 SWAP1 SWAP6 MSTORE DUP1 DUP3 ADD SWAP4 SWAP1 SWAP4 MSTORE PUSH1 0x60 DUP4 ADD SWAP2 SWAP1 SWAP2 MSTORE ADDRESS PUSH1 0x80 DUP1 DUP5 ADD SWAP2 SWAP1 SWAP2 MSTORE DUP2 MLOAD DUP1 DUP5 SUB SWAP1 SWAP2 ADD DUP2 MSTORE PUSH1 0xA0 DUP4 ADD DUP3 MSTORE DUP1 MLOAD SWAP1 DUP5 ADD KECCAK256 PUSH32 0xE48329057BFD03D55E49B547132E39CFFD9C1820AD7B9D4C5307691425D15ADF PUSH1 0xC0 DUP5 ADD MSTORE PUSH1 0x1 PUSH1 0x1 PUSH1 0xA0 SHL SUB DUP12 AND PUSH1 0xE0 DUP5 ADD MSTORE PUSH2 0x100 DUP4 ADD DUP11 SWAP1 MSTORE PUSH2 0x120 DUP1 DUP5 ADD DUP11 SWAP1 MSTORE DUP3 MLOAD DUP1 DUP6 SUB SWAP1 SWAP2 ADD DUP2 MSTORE PUSH2 0x140 DUP5 ADD DUP4 MSTORE DUP1 MLOAD SWAP1 DUP6 ADD KECCAK256 PUSH2 0x1901 PUSH1 0xF0 SHL PUSH2 0x160 DUP6 ADD MSTORE PUSH2 0x162 DUP5 ADD DUP3 SWAP1 MSTORE PUSH2 0x182 DUP1 DUP6 ADD DUP3 SWAP1 MSTORE DUP4 MLOAD DUP1 DUP7 SUB SWAP1 SWAP2 ADD DUP2 MSTORE PUSH2 0x1A2 DUP6 ADD DUP1 DUP6 MSTORE DUP2 MLOAD SWAP2 DUP8 ADD SWAP2 SWAP1 SWAP2 KECCAK256 PUSH1 0x0 SWAP2 DUP3 SWAP1 MSTORE PUSH2 0x1C2 DUP7 ADD DUP1 DUP7 MSTORE DUP2 SWAP1 MSTORE PUSH1 0xFF DUP12 AND PUSH2 0x1E2 DUP8 ADD MSTORE PUSH2 0x202 DUP7 ADD DUP11 SWAP1 MSTORE PUSH2 0x222 DUP7 ADD DUP10 SWAP1 MSTORE SWAP4 MLOAD SWAP3 SWAP7 POP SWAP1 SWAP5 SWAP3 SWAP4 SWAP1 SWAP3 PUSH1 0x1 SWAP3 PUSH2 0x242 DUP1 DUP5 ADD SWAP4 PUSH1 0x1F NOT DUP4 ADD SWAP3 SWAP1 DUP2 SWAP1 SUB SWAP1 SWAP2 ADD SWAP1 DUP6 GAS STATICCALL ISZERO DUP1 ISZERO PUSH2 0xEAA JUMPI RETURNDATASIZE PUSH1 0x0 DUP1 RETURNDATACOPY RETURNDATASIZE PUSH1 0x0 REVERT JUMPDEST POP POP PUSH1 0x40 MLOAD PUSH1 0x1F NOT ADD MLOAD SWAP2 POP POP PUSH1 0x1 PUSH1 0x1 PUSH1 0xA0 SHL SUB DUP2 AND PUSH2 0xEFC JUMPI PUSH1 0x40 MLOAD PUSH3 0x461BCD PUSH1 0xE5 SHL DUP2 MSTORE PUSH1 0x4 ADD DUP1 DUP1 PUSH1 0x20 ADD DUP3 DUP2 SUB DUP3 MSTORE PUSH1 0x2A DUP2 MSTORE PUSH1 0x20 ADD DUP1 PUSH2 0x1A00 PUSH1 0x2A SWAP2 CODECOPY PUSH1 0x40 ADD SWAP2 POP POP PUSH1 0x40 MLOAD DUP1 SWAP2 SUB SWAP1 REVERT JUMPDEST PUSH1 0x1 PUSH1 0x1 PUSH1 0xA0 SHL SUB DUP2 AND PUSH1 0x0 SWAP1 DUP2 MSTORE PUSH1 0xA PUSH1 0x20 MSTORE PUSH1 0x40 SWAP1 KECCAK256 DUP1 SLOAD PUSH1 0x1 DUP2 ADD SWAP1 SWAP2 SSTORE DUP10 EQ PUSH2 0xF5A JUMPI PUSH1 0x40 MLOAD PUSH3 0x461BCD PUSH1 0xE5 SHL DUP2 MSTORE PUSH1 0x4 ADD DUP1 DUP1 PUSH1 0x20 ADD DUP3 DUP2 SUB DUP3 MSTORE PUSH1 0x26 DUP2 MSTORE PUSH1 0x20 ADD DUP1 PUSH2 0x1A54 PUSH1 0x26 SWAP2 CODECOPY PUSH1 0x40 ADD SWAP2 POP POP PUSH1 0x40 MLOAD DUP1 SWAP2 SUB SWAP1 REVERT JUMPDEST DUP8 TIMESTAMP GT ISZERO PUSH2 0xF99 JUMPI PUSH1 0x40 MLOAD PUSH3 0x461BCD PUSH1 0xE5 SHL DUP2 MSTORE PUSH1 0x4 ADD DUP1 DUP1 PUSH1 0x20 ADD DUP3 DUP2 SUB DUP3 MSTORE PUSH1 0x2A DUP2 MSTORE PUSH1 0x20 ADD DUP1 PUSH2 0x1A2A PUSH1 0x2A SWAP2 CODECOPY PUSH1 0x40 ADD SWAP2 POP POP PUSH1 0x40 MLOAD DUP1 SWAP2 SUB SWAP1 REVERT JUMPDEST PUSH2 0xFA3 DUP2 DUP12 PUSH2 0x15E8 JUMP JUMPDEST POP POP POP POP JUMPDEST POP POP POP POP POP POP JUMP JUMPDEST PUSH1 0x1 PUSH1 0x1 PUSH1 0xA0 SHL SUB SWAP2 DUP3 AND PUSH1 0x0 SWAP1 DUP2 MSTORE PUSH1 0x2 PUSH1 0x20 SWAP1 DUP2 MSTORE PUSH1 0x40 DUP1 DUP4 KECCAK256 SWAP4 SWAP1 SWAP5 AND DUP3 MSTORE SWAP2 SWAP1 SWAP2 MSTORE KECCAK256 SLOAD SWAP1 JUMP JUMPDEST PUSH32 0xE48329057BFD03D55E49B547132E39CFFD9C1820AD7B9D4C5307691425D15ADF DUP2 JUMP JUMPDEST PUSH1 0x8 PUSH1 0x20 SWAP1 DUP2 MSTORE PUSH1 0x0 SWAP3 DUP4 MSTORE PUSH1 0x40 DUP1 DUP5 KECCAK256 SWAP1 SWAP2 MSTORE SWAP1 DUP3 MSTORE SWAP1 KECCAK256 DUP1 SLOAD PUSH1 0x1 SWAP1 SWAP2 ADD SLOAD PUSH4 0xFFFFFFFF SWAP1 SWAP2 AND SWAP1 DUP3 JUMP JUMPDEST PUSH2 0x1034 PUSH2 0x108D JUMP JUMPDEST PUSH1 0x0 SLOAD PUSH1 0x1 PUSH1 0x1 PUSH1 0xA0 SHL SUB SWAP1 DUP2 AND SWAP2 AND EQ PUSH2 0x1084 JUMPI PUSH1 0x40 DUP1 MLOAD PUSH3 0x461BCD PUSH1 0xE5 SHL DUP2 MSTORE PUSH1 0x20 PUSH1 0x4 DUP3 ADD DUP2 SWAP1 MSTORE PUSH1 0x24 DUP3 ADD MSTORE PUSH1 0x0 DUP1 MLOAD PUSH1 0x20 PUSH2 0x1A7A DUP4 CODECOPY DUP2 MLOAD SWAP2 MSTORE PUSH1 0x44 DUP3 ADD MSTORE SWAP1 MLOAD SWAP1 DUP2 SWAP1 SUB PUSH1 0x64 ADD SWAP1 REVERT JUMPDEST PUSH2 0x879 DUP2 PUSH2 0x1681 JUMP JUMPDEST CALLER SWAP1 JUMP JUMPDEST PUSH1 0x1 PUSH1 0x1 PUSH1 0xA0 SHL SUB DUP4 AND PUSH2 0x10D6 JUMPI PUSH1 0x40 MLOAD PUSH3 0x461BCD PUSH1 0xE5 SHL DUP2 MSTORE PUSH1 0x4 ADD DUP1 DUP1 PUSH1 0x20 ADD DUP3 DUP2 SUB DUP3 MSTORE PUSH1 0x24 DUP2 MSTORE PUSH1 0x20 ADD DUP1 PUSH2 0x1963 PUSH1 0x24 SWAP2 CODECOPY PUSH1 0x40 ADD SWAP2 POP POP PUSH1 0x40 MLOAD DUP1 SWAP2 SUB SWAP1 REVERT JUMPDEST PUSH1 0x1 PUSH1 0x1 PUSH1 0xA0 SHL SUB DUP3 AND PUSH2 0x111B JUMPI PUSH1 0x40 MLOAD PUSH3 0x461BCD PUSH1 0xE5 SHL DUP2 MSTORE PUSH1 0x4 ADD DUP1 DUP1 PUSH1 0x20 ADD DUP3 DUP2 SUB DUP3 MSTORE PUSH1 0x22 DUP2 MSTORE PUSH1 0x20 ADD DUP1 PUSH2 0x1B08 PUSH1 0x22 SWAP2 CODECOPY PUSH1 0x40 ADD SWAP2 POP POP PUSH1 0x40 MLOAD DUP1 SWAP2 SUB SWAP1 REVERT JUMPDEST PUSH1 0x1 PUSH1 0x1 PUSH1 0xA0 SHL SUB DUP1 DUP5 AND PUSH1 0x0 DUP2 DUP2 MSTORE PUSH1 0x2 PUSH1 0x20 SWAP1 DUP2 MSTORE PUSH1 0x40 DUP1 DUP4 KECCAK256 SWAP5 DUP8 AND DUP1 DUP5 MSTORE SWAP5 DUP3 MSTORE SWAP2 DUP3 SWAP1 KECCAK256 DUP6 SWAP1 SSTORE DUP2 MLOAD DUP6 DUP2 MSTORE SWAP2 MLOAD PUSH32 0x8C5BE1E5EBEC7D5BD14F71427D1E84F3DD0314C0F7B2291E5B200AC8C7C3B925 SWAP3 DUP2 SWAP1 SUB SWAP1 SWAP2 ADD SWAP1 LOG3 POP POP POP JUMP JUMPDEST PUSH1 0x1 PUSH1 0x1 PUSH1 0xA0 SHL SUB DUP4 AND PUSH2 0x11C2 JUMPI PUSH1 0x40 MLOAD PUSH3 0x461BCD PUSH1 0xE5 SHL DUP2 MSTORE PUSH1 0x4 ADD DUP1 DUP1 PUSH1 0x20 ADD DUP3 DUP2 SUB DUP3 MSTORE PUSH1 0x25 DUP2 MSTORE PUSH1 0x20 ADD DUP1 PUSH2 0x193E PUSH1 0x25 SWAP2 CODECOPY PUSH1 0x40 ADD SWAP2 POP POP PUSH1 0x40 MLOAD DUP1 SWAP2 SUB SWAP1 REVERT JUMPDEST PUSH1 0x1 PUSH1 0x1 PUSH1 0xA0 SHL SUB DUP3 AND PUSH2 0x1207 JUMPI PUSH1 0x40 MLOAD PUSH3 0x461BCD PUSH1 0xE5 SHL DUP2 MSTORE PUSH1 0x4 ADD DUP1 DUP1 PUSH1 0x20 ADD DUP3 DUP2 SUB DUP3 MSTORE PUSH1 0x23 DUP2 MSTORE PUSH1 0x20 ADD DUP1 PUSH2 0x1AC0 PUSH1 0x23 SWAP2 CODECOPY PUSH1 0x40 ADD SWAP2 POP POP PUSH1 0x40 MLOAD DUP1 SWAP2 SUB SWAP1 REVERT JUMPDEST PUSH2 0x1244 DUP2 PUSH1 0x40 MLOAD DUP1 PUSH1 0x60 ADD PUSH1 0x40 MSTORE DUP1 PUSH1 0x26 DUP2 MSTORE PUSH1 0x20 ADD PUSH2 0x1A9A PUSH1 0x26 SWAP2 CODECOPY PUSH1 0x1 PUSH1 0x1 PUSH1 0xA0 SHL SUB DUP7 AND PUSH1 0x0 SWAP1 DUP2 MSTORE PUSH1 0x1 PUSH1 0x20 MSTORE PUSH1 0x40 SWAP1 KECCAK256 SLOAD SWAP2 SWAP1 PUSH2 0x12CF JUMP JUMPDEST PUSH1 0x1 PUSH1 0x1 PUSH1 0xA0 SHL SUB DUP1 DUP6 AND PUSH1 0x0 SWAP1 DUP2 MSTORE PUSH1 0x1 PUSH1 0x20 MSTORE PUSH1 0x40 DUP1 DUP3 KECCAK256 SWAP4 SWAP1 SWAP4 SSTORE SWAP1 DUP5 AND DUP2 MSTORE KECCAK256 SLOAD PUSH2 0x1273 SWAP1 DUP3 PUSH2 0x1366 JUMP JUMPDEST PUSH1 0x1 PUSH1 0x1 PUSH1 0xA0 SHL SUB DUP1 DUP5 AND PUSH1 0x0 DUP2 DUP2 MSTORE PUSH1 0x1 PUSH1 0x20 SWAP1 DUP2 MSTORE PUSH1 0x40 SWAP2 DUP3 SWAP1 KECCAK256 SWAP5 SWAP1 SWAP5 SSTORE DUP1 MLOAD DUP6 DUP2 MSTORE SWAP1 MLOAD SWAP2 SWAP4 SWAP3 DUP8 AND SWAP3 PUSH32 0xDDF252AD1BE2C89B69C2B068FC378DAA952BA7F163C4A11628F55A4DF523B3EF SWAP3 SWAP2 DUP3 SWAP1 SUB ADD SWAP1 LOG3 POP POP POP JUMP JUMPDEST PUSH1 0x0 DUP2 DUP5 DUP5 GT ISZERO PUSH2 0x135E JUMPI PUSH1 0x40 MLOAD PUSH3 0x461BCD PUSH1 0xE5 SHL DUP2 MSTORE PUSH1 0x4 ADD DUP1 DUP1 PUSH1 0x20 ADD DUP3 DUP2 SUB DUP3 MSTORE DUP4 DUP2 DUP2 MLOAD DUP2 MSTORE PUSH1 0x20 ADD SWAP2 POP DUP1 MLOAD SWAP1 PUSH1 0x20 ADD SWAP1 DUP1 DUP4 DUP4 PUSH1 0x0 JUMPDEST DUP4 DUP2 LT ISZERO PUSH2 0x1323 JUMPI DUP2 DUP2 ADD MLOAD DUP4 DUP3 ADD MSTORE PUSH1 0x20 ADD PUSH2 0x130B JUMP JUMPDEST POP POP POP POP SWAP1 POP SWAP1 DUP2 ADD SWAP1 PUSH1 0x1F AND DUP1 ISZERO PUSH2 0x1350 JUMPI DUP1 DUP3 SUB DUP1 MLOAD PUSH1 0x1 DUP4 PUSH1 0x20 SUB PUSH2 0x100 EXP SUB NOT AND DUP2 MSTORE PUSH1 0x20 ADD SWAP2 POP JUMPDEST POP SWAP3 POP POP POP PUSH1 0x40 MLOAD DUP1 SWAP2 SUB SWAP1 REVERT JUMPDEST POP POP POP SWAP1 SUB SWAP1 JUMP JUMPDEST PUSH1 0x0 DUP3 DUP3 ADD DUP4 DUP2 LT ISZERO PUSH2 0xD36 JUMPI PUSH1 0x40 DUP1 MLOAD PUSH3 0x461BCD PUSH1 0xE5 SHL DUP2 MSTORE PUSH1 0x20 PUSH1 0x4 DUP3 ADD MSTORE PUSH1 0x1B PUSH1 0x24 DUP3 ADD MSTORE PUSH32 0x536166654D6174683A206164646974696F6E206F766572666C6F770000000000 PUSH1 0x44 DUP3 ADD MSTORE SWAP1 MLOAD SWAP1 DUP2 SWAP1 SUB PUSH1 0x64 ADD SWAP1 REVERT JUMPDEST PUSH1 0x1 PUSH1 0x1 PUSH1 0xA0 SHL SUB DUP3 AND PUSH2 0x141B JUMPI PUSH1 0x40 DUP1 MLOAD PUSH3 0x461BCD PUSH1 0xE5 SHL DUP2 MSTORE PUSH1 0x20 PUSH1 0x4 DUP3 ADD MSTORE PUSH1 0x1F PUSH1 0x24 DUP3 ADD MSTORE PUSH32 0x42455032303A206D696E7420746F20746865207A65726F206164647265737300 PUSH1 0x44 DUP3 ADD MSTORE SWAP1 MLOAD SWAP1 DUP2 SWAP1 SUB PUSH1 0x64 ADD SWAP1 REVERT JUMPDEST PUSH1 0x3 SLOAD PUSH2 0x1428 SWAP1 DUP3 PUSH2 0x1366 JUMP JUMPDEST PUSH1 0x3 SSTORE PUSH1 0x1 PUSH1 0x1 PUSH1 0xA0 SHL SUB DUP3 AND PUSH1 0x0 SWAP1 DUP2 MSTORE PUSH1 0x1 PUSH1 0x20 MSTORE PUSH1 0x40 SWAP1 KECCAK256 SLOAD PUSH2 0x144E SWAP1 DUP3 PUSH2 0x1366 JUMP JUMPDEST PUSH1 0x1 PUSH1 0x1 PUSH1 0xA0 SHL SUB DUP4 AND PUSH1 0x0 DUP2 DUP2 MSTORE PUSH1 0x1 PUSH1 0x20 SWAP1 DUP2 MSTORE PUSH1 0x40 DUP1 DUP4 KECCAK256 SWAP5 SWAP1 SWAP5 SSTORE DUP4 MLOAD DUP6 DUP2 MSTORE SWAP4 MLOAD SWAP3 SWAP4 SWAP2 SWAP3 PUSH32 0xDDF252AD1BE2C89B69C2B068FC378DAA952BA7F163C4A11628F55A4DF523B3EF SWAP3 DUP2 SWAP1 SUB SWAP1 SWAP2 ADD SWAP1 LOG3 POP POP JUMP JUMPDEST DUP2 PUSH1 0x1 PUSH1 0x1 PUSH1 0xA0 SHL SUB AND DUP4 PUSH1 0x1 PUSH1 0x1 PUSH1 0xA0 SHL SUB AND EQ ISZERO DUP1 ISZERO PUSH2 0x14C8 JUMPI POP PUSH1 0x0 DUP2 GT JUMPDEST ISZERO PUSH2 0x15E3 JUMPI PUSH1 0x1 PUSH1 0x1 PUSH1 0xA0 SHL SUB DUP4 AND ISZERO PUSH2 0x155A JUMPI PUSH1 0x1 PUSH1 0x1 PUSH1 0xA0 SHL SUB DUP4 AND PUSH1 0x0 SWAP1 DUP2 MSTORE PUSH1 0x9 PUSH1 0x20 MSTORE PUSH1 0x40 DUP2 KECCAK256 SLOAD PUSH4 0xFFFFFFFF AND SWAP1 DUP2 PUSH2 0x1508 JUMPI PUSH1 0x0 PUSH2 0x153A JUMP JUMPDEST PUSH1 0x1 PUSH1 0x1 PUSH1 0xA0 SHL SUB DUP6 AND PUSH1 0x0 SWAP1 DUP2 MSTORE PUSH1 0x8 PUSH1 0x20 SWAP1 DUP2 MSTORE PUSH1 0x40 DUP1 DUP4 KECCAK256 PUSH4 0xFFFFFFFF PUSH1 0x0 NOT DUP8 ADD AND DUP5 MSTORE SWAP1 SWAP2 MSTORE SWAP1 KECCAK256 PUSH1 0x1 ADD SLOAD JUMPDEST SWAP1 POP PUSH1 0x0 PUSH2 0x1548 DUP3 DUP6 PUSH2 0x1721 JUMP JUMPDEST SWAP1 POP PUSH2 0x1556 DUP7 DUP5 DUP5 DUP5 PUSH2 0x1763 JUMP JUMPDEST POP POP POP JUMPDEST PUSH1 0x1 PUSH1 0x1 PUSH1 0xA0 SHL SUB DUP3 AND ISZERO PUSH2 0x15E3 JUMPI PUSH1 0x1 PUSH1 0x1 PUSH1 0xA0 SHL SUB DUP3 AND PUSH1 0x0 SWAP1 DUP2 MSTORE PUSH1 0x9 PUSH1 0x20 MSTORE PUSH1 0x40 DUP2 KECCAK256 SLOAD PUSH4 0xFFFFFFFF AND SWAP1 DUP2 PUSH2 0x1595 JUMPI PUSH1 0x0 PUSH2 0x15C7 JUMP JUMPDEST PUSH1 0x1 PUSH1 0x1 PUSH1 0xA0 SHL SUB DUP5 AND PUSH1 0x0 SWAP1 DUP2 MSTORE PUSH1 0x8 PUSH1 0x20 SWAP1 DUP2 MSTORE PUSH1 0x40 DUP1 DUP4 KECCAK256 PUSH4 0xFFFFFFFF PUSH1 0x0 NOT DUP8 ADD AND DUP5 MSTORE SWAP1 SWAP2 MSTORE SWAP1 KECCAK256 PUSH1 0x1 ADD SLOAD JUMPDEST SWAP1 POP PUSH1 0x0 PUSH2 0x15D5 DUP3 DUP6 PUSH2 0x1366 JUMP JUMPDEST SWAP1 POP PUSH2 0xFA8 DUP6 DUP5 DUP5 DUP5 PUSH2 0x1763 JUMP JUMPDEST POP POP POP JUMP JUMPDEST PUSH1 0x1 PUSH1 0x1 PUSH1 0xA0 SHL SUB DUP1 DUP4 AND PUSH1 0x0 SWAP1 DUP2 MSTORE PUSH1 0x7 PUSH1 0x20 MSTORE PUSH1 0x40 DUP2 KECCAK256 SLOAD SWAP1 SWAP2 AND SWAP1 PUSH2 0x160F DUP5 PUSH2 0x894 JUMP JUMPDEST PUSH1 0x1 PUSH1 0x1 PUSH1 0xA0 SHL SUB DUP6 DUP2 AND PUSH1 0x0 DUP2 DUP2 MSTORE PUSH1 0x7 PUSH1 0x20 MSTORE PUSH1 0x40 DUP1 DUP3 KECCAK256 DUP1 SLOAD PUSH1 0x1 PUSH1 0x1 PUSH1 0xA0 SHL SUB NOT AND DUP10 DUP7 AND SWAP1 DUP2 OR SWAP1 SWAP2 SSTORE SWAP1 MLOAD SWAP5 SWAP6 POP SWAP4 SWAP3 DUP7 AND SWAP3 PUSH32 0x3134E8A2E6D97E929A7E54011EA5485D7D196DD5F0BA4D4EF95803E8E3FC257F SWAP2 SWAP1 LOG4 PUSH2 0x1677 DUP3 DUP5 DUP4 PUSH2 0x14A6 JUMP JUMPDEST POP POP POP POP JUMP JUMPDEST CHAINID SWAP1 JUMP JUMPDEST PUSH1 0x1 PUSH1 0x1 PUSH1 0xA0 SHL SUB DUP2 AND PUSH2 0x16C6 JUMPI PUSH1 0x40 MLOAD PUSH3 0x461BCD PUSH1 0xE5 SHL DUP2 MSTORE PUSH1 0x4 ADD DUP1 DUP1 PUSH1 0x20 ADD DUP3 DUP2 SUB DUP3 MSTORE PUSH1 0x26 DUP2 MSTORE PUSH1 0x20 ADD DUP1 PUSH2 0x1987 PUSH1 0x26 SWAP2 CODECOPY PUSH1 0x40 ADD SWAP2 POP POP PUSH1 0x40 MLOAD DUP1 SWAP2 SUB SWAP1 REVERT JUMPDEST PUSH1 0x0 DUP1 SLOAD PUSH1 0x40 MLOAD PUSH1 0x1 PUSH1 0x1 PUSH1 0xA0 SHL SUB DUP1 DUP6 AND SWAP4 SWAP3 AND SWAP2 PUSH32 0x8BE0079C531659141344CD1FD0A4F28419497F9722A3DAAFE3B4186F6B6457E0 SWAP2 LOG3 PUSH1 0x0 DUP1 SLOAD PUSH1 0x1 PUSH1 0x1 PUSH1 0xA0 SHL SUB NOT AND PUSH1 0x1 PUSH1 0x1 PUSH1 0xA0 SHL SUB SWAP3 SWAP1 SWAP3 AND SWAP2 SWAP1 SWAP2 OR SWAP1 SSTORE JUMP JUMPDEST PUSH1 0x0 PUSH2 0xD36 DUP4 DUP4 PUSH1 0x40 MLOAD DUP1 PUSH1 0x40 ADD PUSH1 0x40 MSTORE DUP1 PUSH1 0x1E DUP2 MSTORE PUSH1 0x20 ADD PUSH32 0x536166654D6174683A207375627472616374696F6E206F766572666C6F770000 DUP2 MSTORE POP PUSH2 0x12CF JUMP JUMPDEST PUSH1 0x0 PUSH2 0x1787 NUMBER PUSH1 0x40 MLOAD DUP1 PUSH1 0x60 ADD PUSH1 0x40 MSTORE DUP1 PUSH1 0x38 DUP2 MSTORE PUSH1 0x20 ADD PUSH2 0x1B2A PUSH1 0x38 SWAP2 CODECOPY PUSH2 0x18C8 JUMP JUMPDEST SWAP1 POP PUSH1 0x0 DUP5 PUSH4 0xFFFFFFFF AND GT DUP1 ISZERO PUSH2 0x17D0 JUMPI POP PUSH1 0x1 PUSH1 0x1 PUSH1 0xA0 SHL SUB DUP6 AND PUSH1 0x0 SWAP1 DUP2 MSTORE PUSH1 0x8 PUSH1 0x20 SWAP1 DUP2 MSTORE PUSH1 0x40 DUP1 DUP4 KECCAK256 PUSH4 0xFFFFFFFF PUSH1 0x0 NOT DUP10 ADD DUP2 AND DUP6 MSTORE SWAP3 MSTORE SWAP1 SWAP2 KECCAK256 SLOAD DUP3 DUP3 AND SWAP2 AND EQ JUMPDEST ISZERO PUSH2 0x180D JUMPI PUSH1 0x1 PUSH1 0x1 PUSH1 0xA0 SHL SUB DUP6 AND PUSH1 0x0 SWAP1 DUP2 MSTORE PUSH1 0x8 PUSH1 0x20 SWAP1 DUP2 MSTORE PUSH1 0x40 DUP1 DUP4 KECCAK256 PUSH4 0xFFFFFFFF PUSH1 0x0 NOT DUP10 ADD AND DUP5 MSTORE SWAP1 SWAP2 MSTORE SWAP1 KECCAK256 PUSH1 0x1 ADD DUP3 SWAP1 SSTORE PUSH2 0x187E JUMP JUMPDEST PUSH1 0x40 DUP1 MLOAD DUP1 DUP3 ADD DUP3 MSTORE PUSH4 0xFFFFFFFF DUP1 DUP5 AND DUP3 MSTORE PUSH1 0x20 DUP1 DUP4 ADD DUP7 DUP2 MSTORE PUSH1 0x1 PUSH1 0x1 PUSH1 0xA0 SHL SUB DUP11 AND PUSH1 0x0 DUP2 DUP2 MSTORE PUSH1 0x8 DUP5 MSTORE DUP7 DUP2 KECCAK256 DUP12 DUP7 AND DUP3 MSTORE DUP5 MSTORE DUP7 DUP2 KECCAK256 SWAP6 MLOAD DUP7 SLOAD SWAP1 DUP7 AND PUSH4 0xFFFFFFFF NOT SWAP2 DUP3 AND OR DUP8 SSTORE SWAP3 MLOAD PUSH1 0x1 SWAP7 DUP8 ADD SSTORE SWAP1 DUP2 MSTORE PUSH1 0x9 SWAP1 SWAP3 MSTORE SWAP4 SWAP1 KECCAK256 DUP1 SLOAD SWAP3 DUP9 ADD SWAP1 SWAP2 AND SWAP2 SWAP1 SWAP3 AND OR SWAP1 SSTORE JUMPDEST PUSH1 0x40 DUP1 MLOAD DUP5 DUP2 MSTORE PUSH1 0x20 DUP2 ADD DUP5 SWAP1 MSTORE DUP2 MLOAD PUSH1 0x1 PUSH1 0x1 PUSH1 0xA0 SHL SUB DUP9 AND SWAP3 PUSH32 0xDEC2BACDD2F05B59DE34DA9B523DFF8BE42E5E38E818C82FDB0BAE774387A724 SWAP3 DUP3 SWAP1 SUB ADD SWAP1 LOG2 POP POP POP POP POP JUMP JUMPDEST PUSH1 0x0 DUP2 PUSH5 0x100000000 DUP5 LT PUSH2 0x191E JUMPI PUSH1 0x40 MLOAD PUSH3 0x461BCD PUSH1 0xE5 SHL DUP2 MSTORE PUSH1 0x20 PUSH1 0x4 DUP3 ADD DUP2 DUP2 MSTORE DUP4 MLOAD PUSH1 0x24 DUP5 ADD MSTORE DUP4 MLOAD SWAP1 SWAP3 DUP4 SWAP3 PUSH1 0x44 SWAP1 SWAP2 ADD SWAP2 SWAP1 DUP6 ADD SWAP1 DUP1 DUP4 DUP4 PUSH1 0x0 DUP4 ISZERO PUSH2 0x1323 JUMPI DUP2 DUP2 ADD MLOAD DUP4 DUP3 ADD MSTORE PUSH1 0x20 ADD PUSH2 0x130B JUMP JUMPDEST POP SWAP2 SWAP3 SWAP2 POP POP JUMP JUMPDEST PUSH1 0x40 DUP1 MLOAD DUP1 DUP3 ADD SWAP1 SWAP2 MSTORE PUSH1 0x0 DUP1 DUP3 MSTORE PUSH1 0x20 DUP3 ADD MSTORE SWAP1 JUMP INVALID TIMESTAMP GASLIMIT POP ORIGIN ADDRESS GASPRICE KECCAK256 PUSH21 0x72616E736665722066726F6D20746865207A65726F KECCAK256 PUSH2 0x6464 PUSH19 0x65737342455032303A20617070726F76652066 PUSH19 0x6F6D20746865207A65726F2061646472657373 0x4F PUSH24 0x6E61626C653A206E6577206F776E65722069732074686520 PUSH27 0x65726F20616464726573734C616E64626173653A3A676574507269 PUSH16 0x72566F7465733A206E6F742079657420 PUSH5 0x657465726D PUSH10 0x6E656442455032303A20 PUSH21 0x72616E7366657220616D6F756E7420657863656564 PUSH20 0x20616C6C6F77616E63654C616E64626173653A3A PUSH5 0x656C656761 PUSH21 0x6542795369673A20696E76616C6964207369676E61 PUSH21 0x7572654C616E64626173653A3A64656C6567617465 TIMESTAMP PUSH26 0x5369673A207369676E617475726520657870697265644C616E64 PUSH3 0x617365 GASPRICE GASPRICE PUSH5 0x656C656761 PUSH21 0x6542795369673A20696E76616C6964206E6F6E6365 0x4F PUSH24 0x6E61626C653A2063616C6C6572206973206E6F7420746865 KECCAK256 PUSH16 0x776E657242455032303A207472616E73 PUSH7 0x657220616D6F75 PUSH15 0x7420657863656564732062616C616E PUSH4 0x65424550 ORIGIN ADDRESS GASPRICE KECCAK256 PUSH21 0x72616E7366657220746F20746865207A65726F2061 PUSH5 0x6472657373 TIMESTAMP GASLIMIT POP ORIGIN ADDRESS GASPRICE KECCAK256 PUSH5 0x6563726561 PUSH20 0x656420616C6C6F77616E63652062656C6F77207A PUSH6 0x726F42455032 ADDRESS GASPRICE KECCAK256 PUSH2 0x7070 PUSH19 0x6F766520746F20746865207A65726F20616464 PUSH19 0x6573734C616E64626173653A3A5F7772697465 NUMBER PUSH9 0x65636B706F696E743A KECCAK256 PUSH3 0x6C6F63 PUSH12 0x206E756D6265722065786365 PUSH6 0x647320333220 PUSH3 0x697473 LOG2 PUSH5 0x6970667358 0x22 SLT KECCAK256 DUP3 0xDC SWAP9 EXTCODESIZE DUP4 POP PUSH18 0x95DFFCC4E8F5B02C977153FAD237B69E0A0D DIV 0xD0 0xD4 0x4A DIV 0xFC 0xCD PUSH5 0x736F6C6343 STOP MOD 0xC STOP CALLER "
				},
				"gasEstimates": {
					"creation": {
						"codeDepositCost": "1412600",
						"executionCost": "infinite",
						"totalCost": "infinite"
					},
					"external": {
						"DELEGATION_TYPEHASH()": "264",
						"DOMAIN_TYPEHASH()": "288",
						"allowance(address,address)": "1294",
						"approve(address,uint256)": "infinite",
						"balanceOf(address)": "1231",
						"checkpoints(address,uint32)": "2168",
						"decimals()": "1147",
						"decreaseAllowance(address,uint256)": "infinite",
						"delegate(address)": "infinite",
						"delegateBySig(address,uint256,uint256,uint8,bytes32,bytes32)": "infinite",
						"delegates(address)": "1262",
						"getCurrentVotes(address)": "2228",
						"getOwner()": "1162",
						"getPriorVotes(address,uint256)": "infinite",
						"increaseAllowance(address,uint256)": "infinite",
						"mint(address,uint256)": "infinite",
						"mint(uint256)": "infinite",
						"name()": "infinite",
						"nonces(address)": "1192",
						"numCheckpoints(address)": "1206",
						"owner()": "1082",
						"renounceOwnership()": "infinite",
						"symbol()": "infinite",
						"totalSupply()": "1066",
						"transfer(address,uint256)": "infinite",
						"transferFrom(address,address,uint256)": "infinite",
						"transferOwnership(address)": "infinite"
					},
					"internal": {
						"_delegate(address,address)": "infinite",
						"_moveDelegates(address,address,uint256)": "infinite",
						"_writeCheckpoint(address,uint32,uint256,uint256)": "infinite",
						"getChainId()": "14",
						"safe32(uint256,string memory)": "infinite"
					}
				},
				"methodIdentifiers": {
					"DELEGATION_TYPEHASH()": "e7a324dc",
					"DOMAIN_TYPEHASH()": "20606b70",
					"allowance(address,address)": "dd62ed3e",
					"approve(address,uint256)": "095ea7b3",
					"balanceOf(address)": "70a08231",
					"checkpoints(address,uint32)": "f1127ed8",
					"decimals()": "313ce567",
					"decreaseAllowance(address,uint256)": "a457c2d7",
					"delegate(address)": "5c19a95c",
					"delegateBySig(address,uint256,uint256,uint8,bytes32,bytes32)": "c3cda520",
					"delegates(address)": "587cde1e",
					"getCurrentVotes(address)": "b4b5ea57",
					"getOwner()": "893d20e8",
					"getPriorVotes(address,uint256)": "782d6fe1",
					"increaseAllowance(address,uint256)": "39509351",
					"mint(address,uint256)": "40c10f19",
					"mint(uint256)": "a0712d68",
					"name()": "06fdde03",
					"nonces(address)": "7ecebe00",
					"numCheckpoints(address)": "6fcfff45",
					"owner()": "8da5cb5b",
					"renounceOwnership()": "715018a6",
					"symbol()": "95d89b41",
					"totalSupply()": "18160ddd",
					"transfer(address,uint256)": "a9059cbb",
					"transferFrom(address,address,uint256)": "23b872dd",
					"transferOwnership(address)": "f2fde38b"
				}
			},
			"storageLayout": {
				"storage": [
					{
						"astId": 31,
						"contract": "contracts/SyrupBar.sol:LandbaseToken",
						"label": "_owner",
						"offset": 0,
						"slot": "0",
						"type": "t_address"
					},
					{
						"astId": 728,
						"contract": "contracts/SyrupBar.sol:LandbaseToken",
						"label": "_balances",
						"offset": 0,
						"slot": "1",
						"type": "t_mapping(t_address,t_uint256)"
					},
					{
						"astId": 734,
						"contract": "contracts/SyrupBar.sol:LandbaseToken",
						"label": "_allowances",
						"offset": 0,
						"slot": "2",
						"type": "t_mapping(t_address,t_mapping(t_address,t_uint256))"
					},
					{
						"astId": 736,
						"contract": "contracts/SyrupBar.sol:LandbaseToken",
						"label": "_totalSupply",
						"offset": 0,
						"slot": "3",
						"type": "t_uint256"
					},
					{
						"astId": 738,
						"contract": "contracts/SyrupBar.sol:LandbaseToken",
						"label": "_name",
						"offset": 0,
						"slot": "4",
						"type": "t_string_storage"
					},
					{
						"astId": 740,
						"contract": "contracts/SyrupBar.sol:LandbaseToken",
						"label": "_symbol",
						"offset": 0,
						"slot": "5",
						"type": "t_string_storage"
					},
					{
						"astId": 742,
						"contract": "contracts/SyrupBar.sol:LandbaseToken",
						"label": "_decimals",
						"offset": 0,
						"slot": "6",
						"type": "t_uint8"
					},
					{
						"astId": 1267,
						"contract": "contracts/SyrupBar.sol:LandbaseToken",
						"label": "_delegates",
						"offset": 0,
						"slot": "7",
						"type": "t_mapping(t_address,t_address)"
					},
					{
						"astId": 1279,
						"contract": "contracts/SyrupBar.sol:LandbaseToken",
						"label": "checkpoints",
						"offset": 0,
						"slot": "8",
						"type": "t_mapping(t_address,t_mapping(t_uint32,t_struct(Checkpoint)1272_storage))"
					},
					{
						"astId": 1284,
						"contract": "contracts/SyrupBar.sol:LandbaseToken",
						"label": "numCheckpoints",
						"offset": 0,
						"slot": "9",
						"type": "t_mapping(t_address,t_uint32)"
					},
					{
						"astId": 1301,
						"contract": "contracts/SyrupBar.sol:LandbaseToken",
						"label": "nonces",
						"offset": 0,
						"slot": "10",
						"type": "t_mapping(t_address,t_uint256)"
					}
				],
				"types": {
					"t_address": {
						"encoding": "inplace",
						"label": "address",
						"numberOfBytes": "20"
					},
					"t_mapping(t_address,t_address)": {
						"encoding": "mapping",
						"key": "t_address",
						"label": "mapping(address => address)",
						"numberOfBytes": "32",
						"value": "t_address"
					},
					"t_mapping(t_address,t_mapping(t_address,t_uint256))": {
						"encoding": "mapping",
						"key": "t_address",
						"label": "mapping(address => mapping(address => uint256))",
						"numberOfBytes": "32",
						"value": "t_mapping(t_address,t_uint256)"
					},
					"t_mapping(t_address,t_mapping(t_uint32,t_struct(Checkpoint)1272_storage))": {
						"encoding": "mapping",
						"key": "t_address",
						"label": "mapping(address => mapping(uint32 => struct LandbaseToken.Checkpoint))",
						"numberOfBytes": "32",
						"value": "t_mapping(t_uint32,t_struct(Checkpoint)1272_storage)"
					},
					"t_mapping(t_address,t_uint256)": {
						"encoding": "mapping",
						"key": "t_address",
						"label": "mapping(address => uint256)",
						"numberOfBytes": "32",
						"value": "t_uint256"
					},
					"t_mapping(t_address,t_uint32)": {
						"encoding": "mapping",
						"key": "t_address",
						"label": "mapping(address => uint32)",
						"numberOfBytes": "32",
						"value": "t_uint32"
					},
					"t_mapping(t_uint32,t_struct(Checkpoint)1272_storage)": {
						"encoding": "mapping",
						"key": "t_uint32",
						"label": "mapping(uint32 => struct LandbaseToken.Checkpoint)",
						"numberOfBytes": "32",
						"value": "t_struct(Checkpoint)1272_storage"
					},
					"t_string_storage": {
						"encoding": "bytes",
						"label": "string",
						"numberOfBytes": "32"
					},
					"t_struct(Checkpoint)1272_storage": {
						"encoding": "inplace",
						"label": "struct LandbaseToken.Checkpoint",
						"members": [
							{
								"astId": 1269,
								"contract": "contracts/SyrupBar.sol:LandbaseToken",
								"label": "fromBlock",
								"offset": 0,
								"slot": "0",
								"type": "t_uint32"
							},
							{
								"astId": 1271,
								"contract": "contracts/SyrupBar.sol:LandbaseToken",
								"label": "votes",
								"offset": 0,
								"slot": "1",
								"type": "t_uint256"
							}
						],
						"numberOfBytes": "64"
					},
					"t_uint256": {
						"encoding": "inplace",
						"label": "uint256",
						"numberOfBytes": "32"
					},
					"t_uint32": {
						"encoding": "inplace",
						"label": "uint32",
						"numberOfBytes": "4"
					},
					"t_uint8": {
						"encoding": "inplace",
						"label": "uint8",
						"numberOfBytes": "1"
					}
				}
			},
			"userdoc": {
				"events": {
					"DelegateChanged(address,address,address)": {
						"notice": "An event thats emitted when an account changes its delegate"
					},
					"DelegateVotesChanged(address,uint256,uint256)": {
						"notice": "An event thats emitted when a delegate account's vote balance changes"
					}
				},
				"kind": "user",
				"methods": {
					"DELEGATION_TYPEHASH()": {
						"notice": "The EIP-712 typehash for the delegation struct used by the contract"
					},
					"DOMAIN_TYPEHASH()": {
						"notice": "The EIP-712 typehash for the contract's domain"
					},
					"checkpoints(address,uint32)": {
						"notice": "A record of votes checkpoints for each account, by index"
					},
					"delegate(address)": {
						"notice": "Delegate votes from `msg.sender` to `delegatee`"
					},
					"delegateBySig(address,uint256,uint256,uint8,bytes32,bytes32)": {
						"notice": "Delegates votes from signatory to `delegatee`"
					},
					"delegates(address)": {
						"notice": "Delegate votes from `msg.sender` to `delegatee`"
					},
					"getCurrentVotes(address)": {
						"notice": "Gets the current votes balance for `account`"
					},
					"getPriorVotes(address,uint256)": {
						"notice": "Determine the prior number of votes for an account as of a block number"
					},
					"mint(address,uint256)": {
						"notice": "Creates `_amount` token to `_to`. Must only be called by the owner (MasterChef)."
					},
					"nonces(address)": {
						"notice": "A record of states for signing / validating signatures"
					},
					"numCheckpoints(address)": {
						"notice": "The number of checkpoints for each account"
					}
				},
				"version": 1
			}
		}
	}
}