{
	"contracts/SyrupBar.sol": {
		"SyrupBar": {
			"abi": [
				{
					"inputs": [
						{
							"internalType": "contract LandbaseToken",
							"name": "_LBC",
							"type": "address"
						}
					],
					"stateMutability": "nonpayable",
					"type": "constructor"
				},
				{
					"anonymous": false,
					"inputs": [
						{
							"indexed": true,
							"internalType": "address",
							"name": "owner",
							"type": "address"
						},
						{
							"indexed": true,
							"internalType": "address",
							"name": "spender",
							"type": "address"
						},
						{
							"indexed": false,
							"internalType": "uint256",
							"name": "value",
							"type": "uint256"
						}
					],
					"name": "Approval",
					"type": "event"
				},
				{
					"anonymous": false,
					"inputs": [
						{
							"indexed": true,
							"internalType": "address",
							"name": "delegator",
							"type": "address"
						},
						{
							"indexed": true,
							"internalType": "address",
							"name": "fromDelegate",
							"type": "address"
						},
						{
							"indexed": true,
							"internalType": "address",
							"name": "toDelegate",
							"type": "address"
						}
					],
					"name": "DelegateChanged",
					"type": "event"
				},
				{
					"anonymous": false,
					"inputs": [
						{
							"indexed": true,
							"internalType": "address",
							"name": "delegate",
							"type": "address"
						},
						{
							"indexed": false,
							"internalType": "uint256",
							"name": "previousBalance",
							"type": "uint256"
						},
						{
							"indexed": false,
							"internalType": "uint256",
							"name": "newBalance",
							"type": "uint256"
						}
					],
					"name": "DelegateVotesChanged",
					"type": "event"
				},
				{
					"anonymous": false,
					"inputs": [
						{
							"indexed": true,
							"internalType": "address",
							"name": "previousOwner",
							"type": "address"
						},
						{
							"indexed": true,
							"internalType": "address",
							"name": "newOwner",
							"type": "address"
						}
					],
					"name": "OwnershipTransferred",
					"type": "event"
				},
				{
					"anonymous": false,
					"inputs": [
						{
							"indexed": true,
							"internalType": "address",
							"name": "from",
							"type": "address"
						},
						{
							"indexed": true,
							"internalType": "address",
							"name": "to",
							"type": "address"
						},
						{
							"indexed": false,
							"internalType": "uint256",
							"name": "value",
							"type": "uint256"
						}
					],
					"name": "Transfer",
					"type": "event"
				},
				{
					"inputs": [],
					"name": "DELEGATION_TYPEHASH",
					"outputs": [
						{
							"internalType": "bytes32",
							"name": "",
							"type": "bytes32"
						}
					],
					"stateMutability": "view",
					"type": "function"
				},
				{
					"inputs": [],
					"name": "DOMAIN_TYPEHASH",
					"outputs": [
						{
							"internalType": "bytes32",
							"name": "",
							"type": "bytes32"
						}
					],
					"stateMutability": "view",
					"type": "function"
				},
				{
					"inputs": [
						{
							"internalType": "address",
							"name": "owner",
							"type": "address"
						},
						{
							"internalType": "address",
							"name": "spender",
							"type": "address"
						}
					],
					"name": "allowance",
					"outputs": [
						{
							"internalType": "uint256",
							"name": "",
							"type": "uint256"
						}
					],
					"stateMutability": "view",
					"type": "function"
				},
				{
					"inputs": [
						{
							"internalType": "address",
							"name": "spender",
							"type": "address"
						},
						{
							"internalType": "uint256",
							"name": "amount",
							"type": "uint256"
						}
					],
					"name": "approve",
					"outputs": [
						{
							"internalType": "bool",
							"name": "",
							"type": "bool"
						}
					],
					"stateMutability": "nonpayable",
					"type": "function"
				},
				{
					"inputs": [
						{
							"internalType": "address",
							"name": "account",
							"type": "address"
						}
					],
					"name": "balanceOf",
					"outputs": [
						{
							"internalType": "uint256",
							"name": "",
							"type": "uint256"
						}
					],
					"stateMutability": "view",
					"type": "function"
				},
				{
					"inputs": [
						{
							"internalType": "address",
							"name": "_from",
							"type": "address"
						},
						{
							"internalType": "uint256",
							"name": "_amount",
							"type": "uint256"
						}
					],
					"name": "burn",
					"outputs": [],
					"stateMutability": "nonpayable",
					"type": "function"
				},
				{
					"inputs": [
						{
							"internalType": "address",
							"name": "",
							"type": "address"
						},
						{
							"internalType": "uint32",
							"name": "",
							"type": "uint32"
						}
					],
					"name": "checkpoints",
					"outputs": [
						{
							"internalType": "uint32",
							"name": "fromBlock",
							"type": "uint32"
						},
						{
							"internalType": "uint256",
							"name": "votes",
							"type": "uint256"
						}
					],
					"stateMutability": "view",
					"type": "function"
				},
				{
					"inputs": [],
					"name": "decimals",
					"outputs": [
						{
							"internalType": "uint8",
							"name": "",
							"type": "uint8"
						}
					],
					"stateMutability": "view",
					"type": "function"
				},
				{
					"inputs": [
						{
							"internalType": "address",
							"name": "spender",
							"type": "address"
						},
						{
							"internalType": "uint256",
							"name": "subtractedValue",
							"type": "uint256"
						}
					],
					"name": "decreaseAllowance",
					"outputs": [
						{
							"internalType": "bool",
							"name": "",
							"type": "bool"
						}
					],
					"stateMutability": "nonpayable",
					"type": "function"
				},
				{
					"inputs": [
						{
							"internalType": "address",
							"name": "delegatee",
							"type": "address"
						}
					],
					"name": "delegate",
					"outputs": [],
					"stateMutability": "nonpayable",
					"type": "function"
				},
				{
					"inputs": [
						{
							"internalType": "address",
							"name": "delegatee",
							"type": "address"
						},
						{
							"internalType": "uint256",
							"name": "nonce",
							"type": "uint256"
						},
						{
							"internalType": "uint256",
							"name": "expiry",
							"type": "uint256"
						},
						{
							"internalType": "uint8",
							"name": "v",
							"type": "uint8"
						},
						{
							"internalType": "bytes32",
							"name": "r",
							"type": "bytes32"
						},
						{
							"internalType": "bytes32",
							"name": "s",
							"type": "bytes32"
						}
					],
					"name": "delegateBySig",
					"outputs": [],
					"stateMutability": "nonpayable",
					"type": "function"
				},
				{
					"inputs": [
						{
							"internalType": "address",
							"name": "delegator",
							"type": "address"
						}
					],
					"name": "delegates",
					"outputs": [
						{
							"internalType": "address",
							"name": "",
							"type": "address"
						}
					],
					"stateMutability": "view",
					"type": "function"
				},
				{
					"inputs": [
						{
							"internalType": "address",
							"name": "account",
							"type": "address"
						}
					],
					"name": "getCurrentVotes",
					"outputs": [
						{
							"internalType": "uint256",
							"name": "",
							"type": "uint256"
						}
					],
					"stateMutability": "view",
					"type": "function"
				},
				{
					"inputs": [],
					"name": "getOwner",
					"outputs": [
						{
							"internalType": "address",
							"name": "",
							"type": "address"
						}
					],
					"stateMutability": "view",
					"type": "function"
				},
				{
					"inputs": [
						{
							"internalType": "address",
							"name": "account",
							"type": "address"
						},
						{
							"internalType": "uint256",
							"name": "blockNumber",
							"type": "uint256"
						}
					],
					"name": "getPriorVotes",
					"outputs": [
						{
							"internalType": "uint256",
							"name": "",
							"type": "uint256"
						}
					],
					"stateMutability": "view",
					"type": "function"
				},
				{
					"inputs": [
						{
							"internalType": "address",
							"name": "spender",
							"type": "address"
						},
						{
							"internalType": "uint256",
							"name": "addedValue",
							"type": "uint256"
						}
					],
					"name": "increaseAllowance",
					"outputs": [
						{
							"internalType": "bool",
							"name": "",
							"type": "bool"
						}
					],
					"stateMutability": "nonpayable",
					"type": "function"
				},
				{
					"inputs": [],
					"name": "lbc",
					"outputs": [
						{
							"internalType": "contract LandbaseToken",
							"name": "",
							"type": "address"
						}
					],
					"stateMutability": "view",
					"type": "function"
				},
				{
					"inputs": [
						{
							"internalType": "address",
							"name": "_to",
							"type": "address"
						},
						{
							"internalType": "uint256",
							"name": "_amount",
							"type": "uint256"
						}
					],
					"name": "mint",
					"outputs": [],
					"stateMutability": "nonpayable",
					"type": "function"
				},
				{
					"inputs": [
						{
							"internalType": "uint256",
							"name": "amount",
							"type": "uint256"
						}
					],
					"name": "mint",
					"outputs": [
						{
							"internalType": "bool",
							"name": "",
							"type": "bool"
						}
					],
					"stateMutability": "nonpayable",
					"type": "function"
				},
				{
					"inputs": [],
					"name": "name",
					"outputs": [
						{
							"internalType": "string",
							"name": "",
							"type": "string"
						}
					],
					"stateMutability": "view",
					"type": "function"
				},
				{
					"inputs": [
						{
							"internalType": "address",
							"name": "",
							"type": "address"
						}
					],
					"name": "nonces",
					"outputs": [
						{
							"internalType": "uint256",
							"name": "",
							"type": "uint256"
						}
					],
					"stateMutability": "view",
					"type": "function"
				},
				{
					"inputs": [
						{
							"internalType": "address",
							"name": "",
							"type": "address"
						}
					],
					"name": "numCheckpoints",
					"outputs": [
						{
							"internalType": "uint32",
							"name": "",
							"type": "uint32"
						}
					],
					"stateMutability": "view",
					"type": "function"
				},
				{
					"inputs": [],
					"name": "owner",
					"outputs": [
						{
							"internalType": "address",
							"name": "",
							"type": "address"
						}
					],
					"stateMutability": "view",
					"type": "function"
				},
				{
					"inputs": [],
					"name": "renounceOwnership",
					"outputs": [],
					"stateMutability": "nonpayable",
					"type": "function"
				},
				{
					"inputs": [
						{
							"internalType": "address",
							"name": "_to",
							"type": "address"
						},
						{
							"internalType": "uint256",
							"name": "_amount",
							"type": "uint256"
						}
					],
					"name": "safeCakeTransfer",
					"outputs": [],
					"stateMutability": "nonpayable",
					"type": "function"
				},
				{
					"inputs": [],
					"name": "symbol",
					"outputs": [
						{
							"internalType": "string",
							"name": "",
							"type": "string"
						}
					],
					"stateMutability": "view",
					"type": "function"
				},
				{
					"inputs": [],
					"name": "totalSupply",
					"outputs": [
						{
							"internalType": "uint256",
							"name": "",
							"type": "uint256"
						}
					],
					"stateMutability": "view",
					"type": "function"
				},
				{
					"inputs": [
						{
							"internalType": "address",
							"name": "recipient",
							"type": "address"
						},
						{
							"internalType": "uint256",
							"name": "amount",
							"type": "uint256"
						}
					],
					"name": "transfer",
					"outputs": [
						{
							"internalType": "bool",
							"name": "",
							"type": "bool"
						}
					],
					"stateMutability": "nonpayable",
					"type": "function"
				},
				{
					"inputs": [
						{
							"internalType": "address",
							"name": "sender",
							"type": "address"
						},
						{
							"internalType": "address",
							"name": "recipient",
							"type": "address"
						},
						{
							"internalType": "uint256",
							"name": "amount",
							"type": "uint256"
						}
					],
					"name": "transferFrom",
					"outputs": [
						{
							"internalType": "bool",
							"name": "",
							"type": "bool"
						}
					],
					"stateMutability": "nonpayable",
					"type": "function"
				},
				{
					"inputs": [
						{
							"internalType": "address",
							"name": "newOwner",
							"type": "address"
						}
					],
					"name": "transferOwnership",
					"outputs": [],
					"stateMutability": "nonpayable",
					"type": "function"
				}
			],
			"devdoc": {
				"kind": "dev",
				"methods": {
					"allowance(address,address)": {
						"details": "See {BEP20-allowance}."
					},
					"approve(address,uint256)": {
						"details": "See {BEP20-approve}. Requirements: - `spender` cannot be the zero address."
					},
					"balanceOf(address)": {
						"details": "See {BEP20-balanceOf}."
					},
					"decimals()": {
						"details": "Returns the token decimals."
					},
					"decreaseAllowance(address,uint256)": {
						"details": "Atomically decreases the allowance granted to `spender` by the caller. This is an alternative to {approve} that can be used as a mitigation for problems described in {BEP20-approve}. Emits an {Approval} event indicating the updated allowance. Requirements: - `spender` cannot be the zero address. - `spender` must have allowance for the caller of at least `subtractedValue`."
					},
					"delegate(address)": {
						"params": {
							"delegatee": "The address to delegate votes to"
						}
					},
					"delegateBySig(address,uint256,uint256,uint8,bytes32,bytes32)": {
						"params": {
							"delegatee": "The address to delegate votes to",
							"expiry": "The time at which to expire the signature",
							"nonce": "The contract state required to match the signature",
							"r": "Half of the ECDSA signature pair",
							"s": "Half of the ECDSA signature pair",
							"v": "The recovery byte of the signature"
						}
					},
					"delegates(address)": {
						"params": {
							"delegator": "The address to get delegatee for"
						}
					},
					"getCurrentVotes(address)": {
						"params": {
							"account": "The address to get votes balance"
						},
						"returns": {
							"_0": "The number of current votes for `account`"
						}
					},
					"getOwner()": {
						"details": "Returns the bep token owner."
					},
					"getPriorVotes(address,uint256)": {
						"details": "Block number must be a finalized block or else this function will revert to prevent misinformation.",
						"params": {
							"account": "The address of the account to check",
							"blockNumber": "The block number to get the vote balance at"
						},
						"returns": {
							"_0": "The number of votes the account had as of the given block"
						}
					},
					"increaseAllowance(address,uint256)": {
						"details": "Atomically increases the allowance granted to `spender` by the caller. This is an alternative to {approve} that can be used as a mitigation for problems described in {BEP20-approve}. Emits an {Approval} event indicating the updated allowance. Requirements: - `spender` cannot be the zero address."
					},
					"mint(uint256)": {
						"details": "Creates `amount` tokens and assigns them to `msg.sender`, increasing the total supply. Requirements - `msg.sender` must be the token owner"
					},
					"name()": {
						"details": "Returns the token name."
					},
					"owner()": {
						"details": "Returns the address of the current owner."
					},
					"renounceOwnership()": {
						"details": "Leaves the contract without owner. It will not be possible to call `onlyOwner` functions anymore. Can only be called by the current owner. NOTE: Renouncing ownership will leave the contract without an owner, thereby removing any functionality that is only available to the owner."
					},
					"symbol()": {
						"details": "Returns the token symbol."
					},
					"totalSupply()": {
						"details": "See {BEP20-totalSupply}."
					},
					"transfer(address,uint256)": {
						"details": "See {BEP20-transfer}. Requirements: - `recipient` cannot be the zero address. - the caller must have a balance of at least `amount`."
					},
					"transferFrom(address,address,uint256)": {
						"details": "See {BEP20-transferFrom}. Emits an {Approval} event indicating the updated allowance. This is not required by the EIP. See the note at the beginning of {BEP20}; Requirements: - `sender` and `recipient` cannot be the zero address. - `sender` must have a balance of at least `amount`. - the caller must have allowance for `sender`'s tokens of at least `amount`."
					},
					"transferOwnership(address)": {
						"details": "Transfers ownership of the contract to a new account (`newOwner`). Can only be called by the current owner."
					}
				},
				"version": 1
			},
			"evm": {
				"assembly": "    /* \"contracts/SyrupBar.sol\":38119:47779  contract SyrupBar is BEP20('SyrupBar Token', 'SYRUP') {\r... */\n  mstore(0x40, 0x80)\n    /* \"contracts/SyrupBar.sol\":38683:38767  constructor(\r... */\n  callvalue\n  dup1\n  iszero\n  tag_1\n  jumpi\n  0x00\n  dup1\n  revert\ntag_1:\n  pop\n  mload(0x40)\n  sub(codesize, bytecodeSize)\n  dup1\n  bytecodeSize\n  dup4\n  codecopy\n  dup2\n  dup2\n  add\n  0x40\n  mstore\n  0x20\n  dup2\n  lt\n  iszero\n  tag_2\n  jumpi\n  0x00\n  dup1\n  revert\ntag_2:\n  pop\n  mload\n    /* \"contracts/SyrupBar.sol\":20896:21040  constructor(string memory name, string memory symbol) public {\r... */\n  0x40\n  dup1\n  mload\n  dup1\n  dup3\n  add\n  dup3\n  mstore\n  0x0e\n  dup2\n  mstore\n  shl(0x91, 0x29bcb93ab82130b9102a37b5b2b7)\n    /* \"contracts/SyrupBar.sol\":38683:38767  constructor(\r... */\n  0x20\n    /* \"contracts/SyrupBar.sol\":20896:21040  constructor(string memory name, string memory symbol) public {\r... */\n  dup3\n  dup2\n  add\n  swap2\n  swap1\n  swap2\n  mstore\n  dup3\n  mload\n  dup1\n  dup5\n  add\n  swap1\n  swap4\n  mstore\n  0x05\n  dup4\n  mstore\n  shl(0xdc, 0x0535952555)\n  swap1\n  dup4\n  add\n  mstore\n  swap1\n  0x00\n    /* \"contracts/SyrupBar.sol\":1988:2000  _msgSender() */\n  tag_9\n    /* \"contracts/SyrupBar.sol\":1988:1998  _msgSender */\n  tag_10\n    /* \"contracts/SyrupBar.sol\":1988:2000  _msgSender() */\n  jump\t// in\ntag_9:\n    /* \"contracts/SyrupBar.sol\":2011:2017  _owner */\n  0x00\n    /* \"contracts/SyrupBar.sol\":2011:2029  _owner = msgSender */\n  dup1\n  sload\n  not(sub(shl(0xa0, 0x01), 0x01))\n  and\n  sub(shl(0xa0, 0x01), 0x01)\n  dup4\n  and\n  swap1\n  dup2\n  or\n  dup3\n  sstore\n    /* \"contracts/SyrupBar.sol\":2045:2088  OwnershipTransferred(address(0), msgSender) */\n  mload(0x40)\n    /* \"contracts/SyrupBar.sol\":2011:2029  _owner = msgSender */\n  swap3\n  swap4\n  pop\n  swap2\n    /* \"contracts/SyrupBar.sol\":2045:2088  OwnershipTransferred(address(0), msgSender) */\n  0x8be0079c531659141344cd1fd0a4f28419497f9722a3daafe3b4186f6b6457e0\n  swap1\n    /* \"contracts/SyrupBar.sol\":2011:2017  _owner */\n  dup3\n  swap1\n    /* \"contracts/SyrupBar.sol\":2045:2088  OwnershipTransferred(address(0), msgSender) */\n  log3\n  pop\n    /* \"contracts/SyrupBar.sol\":20968:20980  _name = name */\n  dup2\n  mload\n  tag_12\n  swap1\n    /* \"contracts/SyrupBar.sol\":20968:20973  _name */\n  0x04\n  swap1\n    /* \"contracts/SyrupBar.sol\":20968:20980  _name = name */\n  0x20\n  dup6\n  add\n  swap1\n  tag_13\n  jump\t// in\ntag_12:\n  pop\n    /* \"contracts/SyrupBar.sol\":20991:21007  _symbol = symbol */\n  dup1\n  mload\n  tag_14\n  swap1\n    /* \"contracts/SyrupBar.sol\":20991:20998  _symbol */\n  0x05\n  swap1\n    /* \"contracts/SyrupBar.sol\":20991:21007  _symbol = symbol */\n  0x20\n  dup5\n  add\n  swap1\n  tag_13\n  jump\t// in\ntag_14:\n  pop\n  pop\n    /* \"contracts/SyrupBar.sol\":21018:21027  _decimals */\n  0x06\n    /* \"contracts/SyrupBar.sol\":21018:21032  _decimals = 18 */\n  dup1\n  sload\n  sub(shl(0xa0, 0x01), 0x01)\n    /* \"contracts/SyrupBar.sol\":38749:38759  lbc = _LBC */\n  swap1\n  swap4\n  and\n    /* \"contracts/SyrupBar.sol\":21018:21032  _decimals = 18 */\n  0x0100\n    /* \"contracts/SyrupBar.sol\":38749:38759  lbc = _LBC */\n  mul\n  not(sub(shl(0xa8, 0x01), 0x0100))\n  not(0xff)\n    /* \"contracts/SyrupBar.sol\":21018:21032  _decimals = 18 */\n  swap1\n  swap5\n  and\n    /* \"contracts/SyrupBar.sol\":21030:21032  18 */\n  0x12\n    /* \"contracts/SyrupBar.sol\":21018:21032  _decimals = 18 */\n  or\n    /* \"contracts/SyrupBar.sol\":38749:38759  lbc = _LBC */\n  swap4\n  swap1\n  swap4\n  and\n  swap3\n  swap1\n  swap3\n  or\n  swap1\n  swap2\n  sstore\n  pop\n    /* \"contracts/SyrupBar.sol\":38119:47779  contract SyrupBar is BEP20('SyrupBar Token', 'SYRUP') {\r... */\n  jump(tag_16)\n    /* \"contracts/SyrupBar.sol\":827:925  function _msgSender() internal view returns (address payable) {\r... */\ntag_10:\n    /* \"contracts/SyrupBar.sol\":907:917  msg.sender */\n  caller\n    /* \"contracts/SyrupBar.sol\":827:925  function _msgSender() internal view returns (address payable) {\r... */\n  swap1\n  jump\t// out\n    /* \"contracts/SyrupBar.sol\":38119:47779  contract SyrupBar is BEP20('SyrupBar Token', 'SYRUP') {\r... */\ntag_13:\n  dup3\n  dup1\n  sload\n  0x01\n  dup2\n  0x01\n  and\n  iszero\n  0x0100\n  mul\n  sub\n  and\n  0x02\n  swap1\n  div\n  swap1\n  0x00\n  mstore\n  keccak256(0x00, 0x20)\n  swap1\n  0x1f\n  add\n  0x20\n  swap1\n  div\n  dup2\n  add\n  swap3\n  dup3\n  0x1f\n  lt\n  tag_19\n  jumpi\n  dup1\n  mload\n  not(0xff)\n  and\n  dup4\n  dup1\n  add\n  or\n  dup6\n  sstore\n  jump(tag_21)\ntag_19:\n  dup3\n  dup1\n  add\n  0x01\n  add\n  dup6\n  sstore\n  dup3\n  iszero\n  tag_21\n  jumpi\n  swap2\n  dup3\n  add\ntag_20:\n  dup3\n  dup2\n  gt\n  iszero\n  tag_21\n  jumpi\n  dup3\n  mload\n  dup3\n  sstore\n  swap2\n  0x20\n  add\n  swap2\n  swap1\n  0x01\n  add\n  swap1\n  jump(tag_20)\ntag_21:\n  pop\n  tag_22\n  swap3\n  swap2\n  pop\n  tag_23\n  jump\t// in\ntag_22:\n  pop\n  swap1\n  jump\t// out\ntag_23:\ntag_24:\n  dup1\n  dup3\n  gt\n  iszero\n  tag_22\n  jumpi\n  0x00\n  dup2\n  sstore\n  0x01\n  add\n  jump(tag_24)\ntag_16:\n  dataSize(sub_0)\n  dup1\n  dataOffset(sub_0)\n  0x00\n  codecopy\n  0x00\n  return\nstop\n\nsub_0: assembly {\n        /* \"contracts/SyrupBar.sol\":38119:47779  contract SyrupBar is BEP20('SyrupBar Token', 'SYRUP') {\r... */\n      mstore(0x40, 0x80)\n      callvalue\n      dup1\n      iszero\n      tag_1\n      jumpi\n      0x00\n      dup1\n      revert\n    tag_1:\n      pop\n      jumpi(tag_2, lt(calldatasize, 0x04))\n      shr(0xe0, calldataload(0x00))\n      dup1\n      0x7ecebe00\n      gt\n      tag_33\n      jumpi\n      dup1\n      0xa457c2d7\n      gt\n      tag_34\n      jumpi\n      dup1\n      0xdd62ed3e\n      gt\n      tag_35\n      jumpi\n      dup1\n      0xdd62ed3e\n      eq\n      tag_29\n      jumpi\n      dup1\n      0xe7a324dc\n      eq\n      tag_30\n      jumpi\n      dup1\n      0xf1127ed8\n      eq\n      tag_31\n      jumpi\n      dup1\n      0xf2fde38b\n      eq\n      tag_32\n      jumpi\n      jump(tag_2)\n    tag_35:\n      dup1\n      0xa457c2d7\n      eq\n      tag_25\n      jumpi\n      dup1\n      0xa9059cbb\n      eq\n      tag_26\n      jumpi\n      dup1\n      0xb4b5ea57\n      eq\n      tag_27\n      jumpi\n      dup1\n      0xc3cda520\n      eq\n      tag_28\n      jumpi\n      jump(tag_2)\n    tag_34:\n      dup1\n      0x95d89b41\n      gt\n      tag_36\n      jumpi\n      dup1\n      0x95d89b41\n      eq\n      tag_21\n      jumpi\n      dup1\n      0x9dc29fac\n      eq\n      tag_22\n      jumpi\n      dup1\n      0xa0712d68\n      eq\n      tag_23\n      jumpi\n      dup1\n      0xa2e6ddcc\n      eq\n      tag_24\n      jumpi\n      jump(tag_2)\n    tag_36:\n      dup1\n      0x7ecebe00\n      eq\n      tag_18\n      jumpi\n      dup1\n      0x893d20e8\n      eq\n      tag_19\n      jumpi\n      dup1\n      0x8da5cb5b\n      eq\n      tag_20\n      jumpi\n      jump(tag_2)\n    tag_33:\n      dup1\n      0x39509351\n      gt\n      tag_37\n      jumpi\n      dup1\n      0x6fcfff45\n      gt\n      tag_38\n      jumpi\n      dup1\n      0x6fcfff45\n      eq\n      tag_14\n      jumpi\n      dup1\n      0x70a08231\n      eq\n      tag_15\n      jumpi\n      dup1\n      0x715018a6\n      eq\n      tag_16\n      jumpi\n      dup1\n      0x782d6fe1\n      eq\n      tag_17\n      jumpi\n      jump(tag_2)\n    tag_38:\n      dup1\n      0x39509351\n      eq\n      tag_10\n      jumpi\n      dup1\n      0x40c10f19\n      eq\n      tag_11\n      jumpi\n      dup1\n      0x587cde1e\n      eq\n      tag_12\n      jumpi\n      dup1\n      0x5c19a95c\n      eq\n      tag_13\n      jumpi\n      jump(tag_2)\n    tag_37:\n      dup1\n      0x20606b70\n      gt\n      tag_39\n      jumpi\n      dup1\n      0x20606b70\n      eq\n      tag_6\n      jumpi\n      dup1\n      0x23b872dd\n      eq\n      tag_7\n      jumpi\n      dup1\n      0x313ce567\n      eq\n      tag_8\n      jumpi\n      dup1\n      0x358892ec\n      eq\n      tag_9\n      jumpi\n      jump(tag_2)\n    tag_39:\n      dup1\n      0x06fdde03\n      eq\n      tag_3\n      jumpi\n      dup1\n      0x095ea7b3\n      eq\n      tag_4\n      jumpi\n      dup1\n      0x18160ddd\n      eq\n      tag_5\n      jumpi\n    tag_2:\n      0x00\n      dup1\n      revert\n        /* \"contracts/SyrupBar.sol\":21265:21357  function name() public override view returns (string memory) {\r... */\n    tag_3:\n      tag_40\n      tag_41\n      jump\t// in\n    tag_40:\n      0x40\n      dup1\n      mload\n      0x20\n      dup1\n      dup3\n      mstore\n      dup4\n      mload\n      dup2\n      dup4\n      add\n      mstore\n      dup4\n      mload\n      swap2\n      swap3\n      dup4\n      swap3\n      swap1\n      dup4\n      add\n      swap2\n      dup6\n      add\n      swap1\n      dup1\n      dup4\n      dup4\n      0x00\n    tag_42:\n      dup4\n      dup2\n      lt\n      iszero\n      tag_44\n      jumpi\n      dup2\n      dup2\n      add\n      mload\n      dup4\n      dup3\n      add\n      mstore\n      0x20\n      add\n      jump(tag_42)\n    tag_44:\n      pop\n      pop\n      pop\n      pop\n      swap1\n      pop\n      swap1\n      dup2\n      add\n      swap1\n      0x1f\n      and\n      dup1\n      iszero\n      tag_45\n      jumpi\n      dup1\n      dup3\n      sub\n      dup1\n      mload\n      0x01\n      dup4\n      0x20\n      sub\n      0x0100\n      exp\n      sub\n      not\n      and\n      dup2\n      mstore\n      0x20\n      add\n      swap2\n      pop\n    tag_45:\n      pop\n      swap3\n      pop\n      pop\n      pop\n      mload(0x40)\n      dup1\n      swap2\n      sub\n      swap1\n      return\n        /* \"contracts/SyrupBar.sol\":22752:22913  function approve(address spender, uint256 amount) public override returns (bool) {\r... */\n    tag_4:\n      tag_46\n      0x04\n      dup1\n      calldatasize\n      sub\n      0x40\n      dup2\n      lt\n      iszero\n      tag_47\n      jumpi\n      0x00\n      dup1\n      revert\n    tag_47:\n      pop\n      sub(shl(0xa0, 0x01), 0x01)\n      dup2\n      calldataload\n      and\n      swap1\n      0x20\n      add\n      calldataload\n      tag_48\n      jump\t// in\n    tag_46:\n      0x40\n      dup1\n      mload\n      swap2\n      iszero\n      iszero\n      dup3\n      mstore\n      mload\n      swap1\n      dup2\n      swap1\n      sub\n      0x20\n      add\n      swap1\n      return\n        /* \"contracts/SyrupBar.sol\":21741:21841  function totalSupply() public override view returns (uint256) {\r... */\n    tag_5:\n      tag_49\n      tag_50\n      jump\t// in\n    tag_49:\n      0x40\n      dup1\n      mload\n      swap2\n      dup3\n      mstore\n      mload\n      swap1\n      dup2\n      swap1\n      sub\n      0x20\n      add\n      swap1\n      return\n        /* \"contracts/SyrupBar.sol\":40181:40303  bytes32 public constant DOMAIN_TYPEHASH = keccak256(\"EIP712Domain(string name,uint256 chainId,address verifyingContract)\") */\n    tag_6:\n      tag_49\n      tag_52\n      jump\t// in\n        /* \"contracts/SyrupBar.sol\":23384:23781  function transferFrom(\r... */\n    tag_7:\n      tag_46\n      0x04\n      dup1\n      calldatasize\n      sub\n      0x60\n      dup2\n      lt\n      iszero\n      tag_54\n      jumpi\n      0x00\n      dup1\n      revert\n    tag_54:\n      pop\n      sub(shl(0xa0, 0x01), 0x01)\n      dup2\n      calldataload\n      dup2\n      and\n      swap2\n      0x20\n      dup2\n      add\n      calldataload\n      swap1\n      swap2\n      and\n      swap1\n      0x40\n      add\n      calldataload\n      tag_55\n      jump\t// in\n        /* \"contracts/SyrupBar.sol\":21424:21516  function decimals() public override view returns (uint8) {\r... */\n    tag_8:\n      tag_56\n      tag_57\n      jump\t// in\n    tag_56:\n      0x40\n      dup1\n      mload\n      0xff\n      swap1\n      swap3\n      and\n      dup3\n      mstore\n      mload\n      swap1\n      dup2\n      swap1\n      sub\n      0x20\n      add\n      swap1\n      return\n        /* \"contracts/SyrupBar.sol\":38648:38672  LandbaseToken public lbc */\n    tag_9:\n      tag_58\n      tag_59\n      jump\t// in\n    tag_58:\n      0x40\n      dup1\n      mload\n      sub(shl(0xa0, 0x01), 0x01)\n      swap1\n      swap3\n      and\n      dup3\n      mstore\n      mload\n      swap1\n      dup2\n      swap1\n      sub\n      0x20\n      add\n      swap1\n      return\n        /* \"contracts/SyrupBar.sol\":24189:24399  function increaseAllowance(address spender, uint256 addedValue) public returns (bool) {\r... */\n    tag_10:\n      tag_46\n      0x04\n      dup1\n      calldatasize\n      sub\n      0x40\n      dup2\n      lt\n      iszero\n      tag_61\n      jumpi\n      0x00\n      dup1\n      revert\n    tag_61:\n      pop\n      sub(shl(0xa0, 0x01), 0x01)\n      dup2\n      calldataload\n      and\n      swap1\n      0x20\n      add\n      calldataload\n      tag_62\n      jump\t// in\n        /* \"contracts/SyrupBar.sol\":38278:38440  function mint(address _to, uint256 _amount) public onlyOwner {\r... */\n    tag_11:\n      tag_63\n      0x04\n      dup1\n      calldatasize\n      sub\n      0x40\n      dup2\n      lt\n      iszero\n      tag_64\n      jumpi\n      0x00\n      dup1\n      revert\n    tag_64:\n      pop\n      sub(shl(0xa0, 0x01), 0x01)\n      dup2\n      calldataload\n      and\n      swap1\n      0x20\n      add\n      calldataload\n      tag_65\n      jump\t// in\n    tag_63:\n      stop\n        /* \"contracts/SyrupBar.sol\":41164:41313  function delegates(address delegator)\r... */\n    tag_12:\n      tag_58\n      0x04\n      dup1\n      calldatasize\n      sub\n      0x20\n      dup2\n      lt\n      iszero\n      tag_67\n      jumpi\n      0x00\n      dup1\n      revert\n    tag_67:\n      pop\n      calldataload\n      sub(shl(0xa0, 0x01), 0x01)\n      and\n      tag_68\n      jump\t// in\n        /* \"contracts/SyrupBar.sol\":41457:41561  function delegate(address delegatee) external {\r... */\n    tag_13:\n      tag_63\n      0x04\n      dup1\n      calldatasize\n      sub\n      0x20\n      dup2\n      lt\n      iszero\n      tag_70\n      jumpi\n      0x00\n      dup1\n      revert\n    tag_70:\n      pop\n      calldataload\n      sub(shl(0xa0, 0x01), 0x01)\n      and\n      tag_71\n      jump\t// in\n        /* \"contracts/SyrupBar.sol\":40059:40108  mapping (address => uint32) public numCheckpoints */\n    tag_14:\n      tag_72\n      0x04\n      dup1\n      calldatasize\n      sub\n      0x20\n      dup2\n      lt\n      iszero\n      tag_73\n      jumpi\n      0x00\n      dup1\n      revert\n    tag_73:\n      pop\n      calldataload\n      sub(shl(0xa0, 0x01), 0x01)\n      and\n      tag_74\n      jump\t// in\n    tag_72:\n      0x40\n      dup1\n      mload\n      0xffffffff\n      swap1\n      swap3\n      and\n      dup3\n      mstore\n      mload\n      swap1\n      dup2\n      swap1\n      sub\n      0x20\n      add\n      swap1\n      return\n        /* \"contracts/SyrupBar.sol\":21903:22022  function balanceOf(address account) public override view returns (uint256) {\r... */\n    tag_15:\n      tag_49\n      0x04\n      dup1\n      calldatasize\n      sub\n      0x20\n      dup2\n      lt\n      iszero\n      tag_76\n      jumpi\n      0x00\n      dup1\n      revert\n    tag_76:\n      pop\n      calldataload\n      sub(shl(0xa0, 0x01), 0x01)\n      and\n      tag_77\n      jump\t// in\n        /* \"contracts/SyrupBar.sol\":2819:2959  function renounceOwnership() public onlyOwner {\r... */\n    tag_16:\n      tag_63\n      tag_79\n      jump\t// in\n        /* \"contracts/SyrupBar.sol\":44072:45329  function getPriorVotes(address account, uint blockNumber)\r... */\n    tag_17:\n      tag_49\n      0x04\n      dup1\n      calldatasize\n      sub\n      0x40\n      dup2\n      lt\n      iszero\n      tag_81\n      jumpi\n      0x00\n      dup1\n      revert\n    tag_81:\n      pop\n      sub(shl(0xa0, 0x01), 0x01)\n      dup2\n      calldataload\n      and\n      swap1\n      0x20\n      add\n      calldataload\n      tag_82\n      jump\t// in\n        /* \"contracts/SyrupBar.sol\":40595:40634  mapping (address => uint) public nonces */\n    tag_18:\n      tag_49\n      0x04\n      dup1\n      calldatasize\n      sub\n      0x20\n      dup2\n      lt\n      iszero\n      tag_84\n      jumpi\n      0x00\n      dup1\n      revert\n    tag_84:\n      pop\n      calldataload\n      sub(shl(0xa0, 0x01), 0x01)\n      and\n      tag_85\n      jump\t// in\n        /* \"contracts/SyrupBar.sol\":21108:21202  function getOwner() external override view returns (address) {\r... */\n    tag_19:\n      tag_58\n      tag_87\n      jump\t// in\n        /* \"contracts/SyrupBar.sol\":2177:2256  function owner() public view returns (address) {\r... */\n    tag_20:\n      tag_58\n      tag_89\n      jump\t// in\n        /* \"contracts/SyrupBar.sol\":21581:21677  function symbol() public override view returns (string memory) {\r... */\n    tag_21:\n      tag_40\n      tag_91\n      jump\t// in\n        /* \"contracts/SyrupBar.sol\":38448:38616  function burn(address _from ,uint256 _amount) public onlyOwner {\r... */\n    tag_22:\n      tag_63\n      0x04\n      dup1\n      calldatasize\n      sub\n      0x40\n      dup2\n      lt\n      iszero\n      tag_97\n      jumpi\n      0x00\n      dup1\n      revert\n    tag_97:\n      pop\n      sub(shl(0xa0, 0x01), 0x01)\n      dup2\n      calldataload\n      and\n      swap1\n      0x20\n      add\n      calldataload\n      tag_98\n      jump\t// in\n        /* \"contracts/SyrupBar.sol\":25430:25560  function mint(uint256 amount) public onlyOwner returns (bool) {\r... */\n    tag_23:\n      tag_46\n      0x04\n      dup1\n      calldatasize\n      sub\n      0x20\n      dup2\n      lt\n      iszero\n      tag_100\n      jumpi\n      0x00\n      dup1\n      revert\n    tag_100:\n      pop\n      calldataload\n      tag_101\n      jump\t// in\n        /* \"contracts/SyrupBar.sol\":38880:39163  function safeCakeTransfer(address _to, uint256 _amount) public onlyOwner {\r... */\n    tag_24:\n      tag_63\n      0x04\n      dup1\n      calldatasize\n      sub\n      0x40\n      dup2\n      lt\n      iszero\n      tag_103\n      jumpi\n      0x00\n      dup1\n      revert\n    tag_103:\n      pop\n      sub(shl(0xa0, 0x01), 0x01)\n      dup2\n      calldataload\n      and\n      swap1\n      0x20\n      add\n      calldataload\n      tag_104\n      jump\t// in\n        /* \"contracts/SyrupBar.sol\":24901:25212  function decreaseAllowance(address spender, uint256 subtractedValue) public returns (bool) {\r... */\n    tag_25:\n      tag_46\n      0x04\n      dup1\n      calldatasize\n      sub\n      0x40\n      dup2\n      lt\n      iszero\n      tag_106\n      jumpi\n      0x00\n      dup1\n      revert\n    tag_106:\n      pop\n      sub(shl(0xa0, 0x01), 0x01)\n      dup2\n      calldataload\n      and\n      swap1\n      0x20\n      add\n      calldataload\n      tag_107\n      jump\t// in\n        /* \"contracts/SyrupBar.sol\":22234:22401  function transfer(address recipient, uint256 amount) public override returns (bool) {\r... */\n    tag_26:\n      tag_46\n      0x04\n      dup1\n      calldatasize\n      sub\n      0x40\n      dup2\n      lt\n      iszero\n      tag_109\n      jumpi\n      0x00\n      dup1\n      revert\n    tag_109:\n      pop\n      sub(shl(0xa0, 0x01), 0x01)\n      dup2\n      calldataload\n      and\n      swap1\n      0x20\n      add\n      calldataload\n      tag_110\n      jump\t// in\n        /* \"contracts/SyrupBar.sol\":43386:43641  function getCurrentVotes(address account)\r... */\n    tag_27:\n      tag_49\n      0x04\n      dup1\n      calldatasize\n      sub\n      0x20\n      dup2\n      lt\n      iszero\n      tag_112\n      jumpi\n      0x00\n      dup1\n      revert\n    tag_112:\n      pop\n      calldataload\n      sub(shl(0xa0, 0x01), 0x01)\n      and\n      tag_113\n      jump\t// in\n        /* \"contracts/SyrupBar.sol\":41995:43185  function delegateBySig(\r... */\n    tag_28:\n      tag_63\n      0x04\n      dup1\n      calldatasize\n      sub\n      0xc0\n      dup2\n      lt\n      iszero\n      tag_115\n      jumpi\n      0x00\n      dup1\n      revert\n    tag_115:\n      pop\n      sub(shl(0xa0, 0x01), 0x01)\n      dup2\n      calldataload\n      and\n      swap1\n      0x20\n      dup2\n      add\n      calldataload\n      swap1\n      0x40\n      dup2\n      add\n      calldataload\n      swap1\n      0xff\n      0x60\n      dup3\n      add\n      calldataload\n      and\n      swap1\n      0x80\n      dup2\n      add\n      calldataload\n      swap1\n      0xa0\n      add\n      calldataload\n      tag_116\n      jump\t// in\n        /* \"contracts/SyrupBar.sol\":22463:22606  function allowance(address owner, address spender) public override view returns (uint256) {\r... */\n    tag_29:\n      tag_49\n      0x04\n      dup1\n      calldatasize\n      sub\n      0x40\n      dup2\n      lt\n      iszero\n      tag_118\n      jumpi\n      0x00\n      dup1\n      revert\n    tag_118:\n      pop\n      sub(shl(0xa0, 0x01), 0x01)\n      dup2\n      calldataload\n      dup2\n      and\n      swap2\n      0x20\n      add\n      calldataload\n      and\n      tag_119\n      jump\t// in\n        /* \"contracts/SyrupBar.sol\":40397:40514  bytes32 public constant DELEGATION_TYPEHASH = keccak256(\"Delegation(address delegatee,uint256 nonce,uint256 expiry)\") */\n    tag_30:\n      tag_49\n      tag_121\n      jump\t// in\n        /* \"contracts/SyrupBar.sol\":39920:39990  mapping (address => mapping (uint32 => Checkpoint)) public checkpoints */\n    tag_31:\n      tag_122\n      0x04\n      dup1\n      calldatasize\n      sub\n      0x40\n      dup2\n      lt\n      iszero\n      tag_123\n      jumpi\n      0x00\n      dup1\n      revert\n    tag_123:\n      pop\n      dup1\n      calldataload\n      sub(shl(0xa0, 0x01), 0x01)\n      and\n      swap1\n      0x20\n      add\n      calldataload\n      0xffffffff\n      and\n      tag_124\n      jump\t// in\n    tag_122:\n      0x40\n      dup1\n      mload\n      0xffffffff\n      swap1\n      swap4\n      and\n      dup4\n      mstore\n      0x20\n      dup4\n      add\n      swap2\n      swap1\n      swap2\n      mstore\n      dup1\n      mload\n      swap2\n      dup3\n      swap1\n      sub\n      add\n      swap1\n      return\n        /* \"contracts/SyrupBar.sol\":3114:3223  function transferOwnership(address newOwner) public onlyOwner {\r... */\n    tag_32:\n      tag_63\n      0x04\n      dup1\n      calldatasize\n      sub\n      0x20\n      dup2\n      lt\n      iszero\n      tag_126\n      jumpi\n      0x00\n      dup1\n      revert\n    tag_126:\n      pop\n      calldataload\n      sub(shl(0xa0, 0x01), 0x01)\n      and\n      tag_127\n      jump\t// in\n        /* \"contracts/SyrupBar.sol\":21265:21357  function name() public override view returns (string memory) {\r... */\n    tag_41:\n        /* \"contracts/SyrupBar.sol\":21344:21349  _name */\n      0x04\n        /* \"contracts/SyrupBar.sol\":21337:21349  return _name */\n      dup1\n      sload\n      0x40\n      dup1\n      mload\n      0x20\n      0x1f\n      0x02\n      not(0x00)\n      0x0100\n      0x01\n      dup9\n      and\n      iszero\n      mul\n      add\n      swap1\n      swap6\n      and\n      swap5\n      swap1\n      swap5\n      div\n      swap4\n      dup5\n      add\n      dup2\n      swap1\n      div\n      dup2\n      mul\n      dup3\n      add\n      dup2\n      add\n      swap1\n      swap3\n      mstore\n      dup3\n      dup2\n      mstore\n        /* \"contracts/SyrupBar.sol\":21311:21324  string memory */\n      0x60\n      swap4\n        /* \"contracts/SyrupBar.sol\":21337:21349  return _name */\n      swap1\n      swap3\n        /* \"contracts/SyrupBar.sol\":21344:21349  _name */\n      swap1\n      swap2\n        /* \"contracts/SyrupBar.sol\":21337:21349  return _name */\n      dup4\n      add\n        /* \"contracts/SyrupBar.sol\":21344:21349  _name */\n      dup3\n        /* \"contracts/SyrupBar.sol\":21337:21349  return _name */\n      dup3\n      dup1\n      iszero\n      tag_129\n      jumpi\n      dup1\n      0x1f\n      lt\n      tag_130\n      jumpi\n      0x0100\n      dup1\n      dup4\n      sload\n      div\n      mul\n      dup4\n      mstore\n      swap2\n      0x20\n      add\n      swap2\n      jump(tag_129)\n    tag_130:\n      dup3\n      add\n      swap2\n      swap1\n      0x00\n      mstore\n      keccak256(0x00, 0x20)\n      swap1\n    tag_131:\n      dup2\n      sload\n      dup2\n      mstore\n      swap1\n      0x01\n      add\n      swap1\n      0x20\n      add\n      dup1\n      dup4\n      gt\n      tag_131\n      jumpi\n      dup3\n      swap1\n      sub\n      0x1f\n      and\n      dup3\n      add\n      swap2\n    tag_129:\n      pop\n      pop\n      pop\n      pop\n      pop\n      swap1\n      pop\n        /* \"contracts/SyrupBar.sol\":21265:21357  function name() public override view returns (string memory) {\r... */\n      swap1\n      jump\t// out\n        /* \"contracts/SyrupBar.sol\":22752:22913  function approve(address spender, uint256 amount) public override returns (bool) {\r... */\n    tag_48:\n        /* \"contracts/SyrupBar.sol\":22827:22831  bool */\n      0x00\n        /* \"contracts/SyrupBar.sol\":22844:22883  _approve(_msgSender(), spender, amount) */\n      tag_133\n        /* \"contracts/SyrupBar.sol\":22853:22865  _msgSender() */\n      tag_134\n        /* \"contracts/SyrupBar.sol\":22853:22863  _msgSender */\n      tag_135\n        /* \"contracts/SyrupBar.sol\":22853:22865  _msgSender() */\n      jump\t// in\n    tag_134:\n        /* \"contracts/SyrupBar.sol\":22867:22874  spender */\n      dup5\n        /* \"contracts/SyrupBar.sol\":22876:22882  amount */\n      dup5\n        /* \"contracts/SyrupBar.sol\":22844:22852  _approve */\n      tag_136\n        /* \"contracts/SyrupBar.sol\":22844:22883  _approve(_msgSender(), spender, amount) */\n      jump\t// in\n    tag_133:\n      pop\n        /* \"contracts/SyrupBar.sol\":22901:22905  true */\n      0x01\n        /* \"contracts/SyrupBar.sol\":22752:22913  function approve(address spender, uint256 amount) public override returns (bool) {\r... */\n    tag_132:\n      swap3\n      swap2\n      pop\n      pop\n      jump\t// out\n        /* \"contracts/SyrupBar.sol\":21741:21841  function totalSupply() public override view returns (uint256) {\r... */\n    tag_50:\n        /* \"contracts/SyrupBar.sol\":21821:21833  _totalSupply */\n      sload(0x03)\n        /* \"contracts/SyrupBar.sol\":21741:21841  function totalSupply() public override view returns (uint256) {\r... */\n      swap1\n      jump\t// out\n        /* \"contracts/SyrupBar.sol\":40181:40303  bytes32 public constant DOMAIN_TYPEHASH = keccak256(\"EIP712Domain(string name,uint256 chainId,address verifyingContract)\") */\n    tag_52:\n        /* \"contracts/SyrupBar.sol\":40223:40303  keccak256(\"EIP712Domain(string name,uint256 chainId,address verifyingContract)\") */\n      0x8cad95687ba82c2ce50e74f7b754645e5117c3a5bec8151c0726d5857980a866\n        /* \"contracts/SyrupBar.sol\":40181:40303  bytes32 public constant DOMAIN_TYPEHASH = keccak256(\"EIP712Domain(string name,uint256 chainId,address verifyingContract)\") */\n      dup2\n      jump\t// out\n        /* \"contracts/SyrupBar.sol\":23384:23781  function transferFrom(\r... */\n    tag_55:\n        /* \"contracts/SyrupBar.sol\":23516:23520  bool */\n      0x00\n        /* \"contracts/SyrupBar.sol\":23533:23569  _transfer(sender, recipient, amount) */\n      tag_139\n        /* \"contracts/SyrupBar.sol\":23543:23549  sender */\n      dup5\n        /* \"contracts/SyrupBar.sol\":23551:23560  recipient */\n      dup5\n        /* \"contracts/SyrupBar.sol\":23562:23568  amount */\n      dup5\n        /* \"contracts/SyrupBar.sol\":23533:23542  _transfer */\n      tag_140\n        /* \"contracts/SyrupBar.sol\":23533:23569  _transfer(sender, recipient, amount) */\n      jump\t// in\n    tag_139:\n        /* \"contracts/SyrupBar.sol\":23580:23751  _approve(\r... */\n      tag_141\n        /* \"contracts/SyrupBar.sol\":23603:23609  sender */\n      dup5\n        /* \"contracts/SyrupBar.sol\":23624:23636  _msgSender() */\n      tag_142\n        /* \"contracts/SyrupBar.sol\":23624:23634  _msgSender */\n      tag_135\n        /* \"contracts/SyrupBar.sol\":23624:23636  _msgSender() */\n      jump\t// in\n    tag_142:\n        /* \"contracts/SyrupBar.sol\":23651:23740  _allowances[sender][_msgSender()].sub(amount, 'BEP20: transfer amount exceeds allowance') */\n      tag_143\n        /* \"contracts/SyrupBar.sol\":23689:23695  amount */\n      dup6\n        /* \"contracts/SyrupBar.sol\":23651:23740  _allowances[sender][_msgSender()].sub(amount, 'BEP20: transfer amount exceeds allowance') */\n      mload(0x40)\n      dup1\n      0x60\n      add\n      0x40\n      mstore\n      dup1\n      0x28\n      dup2\n      mstore\n      0x20\n      add\n      data_4f3506f4ba71c79c3cbd442a3afeb30e9b27af2d84e116a4385b34e267d2287e\n      0x28\n      swap2\n      codecopy\n      sub(shl(0xa0, 0x01), 0x01)\n        /* \"contracts/SyrupBar.sol\":23651:23670  _allowances[sender] */\n      dup11\n      and\n      0x00\n      swap1\n      dup2\n      mstore\n        /* \"contracts/SyrupBar.sol\":23651:23662  _allowances */\n      0x02\n        /* \"contracts/SyrupBar.sol\":23651:23670  _allowances[sender] */\n      0x20\n      mstore\n      0x40\n      dup2\n      keccak256\n      swap1\n        /* \"contracts/SyrupBar.sol\":23671:23683  _msgSender() */\n      tag_144\n        /* \"contracts/SyrupBar.sol\":23671:23681  _msgSender */\n      tag_135\n        /* \"contracts/SyrupBar.sol\":23671:23683  _msgSender() */\n      jump\t// in\n    tag_144:\n      sub(shl(0xa0, 0x01), 0x01)\n        /* \"contracts/SyrupBar.sol\":23651:23684  _allowances[sender][_msgSender()] */\n      and\n      dup2\n      mstore\n      0x20\n      dup2\n      add\n      swap2\n      swap1\n      swap2\n      mstore\n      0x40\n      add\n      0x00\n      keccak256\n      sload\n      swap2\n        /* \"contracts/SyrupBar.sol\":23651:23740  _allowances[sender][_msgSender()].sub(amount, 'BEP20: transfer amount exceeds allowance') */\n      swap1\n        /* \"contracts/SyrupBar.sol\":23651:23688  _allowances[sender][_msgSender()].sub */\n      tag_145\n        /* \"contracts/SyrupBar.sol\":23651:23740  _allowances[sender][_msgSender()].sub(amount, 'BEP20: transfer amount exceeds allowance') */\n      jump\t// in\n    tag_143:\n        /* \"contracts/SyrupBar.sol\":23580:23588  _approve */\n      tag_136\n        /* \"contracts/SyrupBar.sol\":23580:23751  _approve(\r... */\n      jump\t// in\n    tag_141:\n      pop\n        /* \"contracts/SyrupBar.sol\":23769:23773  true */\n      0x01\n        /* \"contracts/SyrupBar.sol\":23384:23781  function transferFrom(\r... */\n      swap4\n      swap3\n      pop\n      pop\n      pop\n      jump\t// out\n        /* \"contracts/SyrupBar.sol\":21424:21516  function decimals() public override view returns (uint8) {\r... */\n    tag_57:\n        /* \"contracts/SyrupBar.sol\":21499:21508  _decimals */\n      and(0xff, sload(0x06))\n        /* \"contracts/SyrupBar.sol\":21424:21516  function decimals() public override view returns (uint8) {\r... */\n      swap1\n      jump\t// out\n        /* \"contracts/SyrupBar.sol\":38648:38672  LandbaseToken public lbc */\n    tag_59:\n      sload(0x06)\n      0x0100\n      swap1\n      div\n      sub(shl(0xa0, 0x01), 0x01)\n      and\n      dup2\n      jump\t// out\n        /* \"contracts/SyrupBar.sol\":24189:24399  function increaseAllowance(address spender, uint256 addedValue) public returns (bool) {\r... */\n    tag_62:\n        /* \"contracts/SyrupBar.sol\":24269:24273  bool */\n      0x00\n        /* \"contracts/SyrupBar.sol\":24286:24369  _approve(_msgSender(), spender, _allowances[_msgSender()][spender].add(addedValue)) */\n      tag_133\n        /* \"contracts/SyrupBar.sol\":24295:24307  _msgSender() */\n      tag_149\n        /* \"contracts/SyrupBar.sol\":24295:24305  _msgSender */\n      tag_135\n        /* \"contracts/SyrupBar.sol\":24295:24307  _msgSender() */\n      jump\t// in\n    tag_149:\n        /* \"contracts/SyrupBar.sol\":24309:24316  spender */\n      dup5\n        /* \"contracts/SyrupBar.sol\":24318:24368  _allowances[_msgSender()][spender].add(addedValue) */\n      tag_143\n        /* \"contracts/SyrupBar.sol\":24357:24367  addedValue */\n      dup6\n        /* \"contracts/SyrupBar.sol\":24318:24329  _allowances */\n      0x02\n        /* \"contracts/SyrupBar.sol\":24318:24343  _allowances[_msgSender()] */\n      0x00\n        /* \"contracts/SyrupBar.sol\":24330:24342  _msgSender() */\n      tag_151\n        /* \"contracts/SyrupBar.sol\":24330:24340  _msgSender */\n      tag_135\n        /* \"contracts/SyrupBar.sol\":24330:24342  _msgSender() */\n      jump\t// in\n    tag_151:\n      sub(shl(0xa0, 0x01), 0x01)\n        /* \"contracts/SyrupBar.sol\":24318:24343  _allowances[_msgSender()] */\n      swap1\n      dup2\n      and\n      dup3\n      mstore\n      0x20\n      dup1\n      dup4\n      add\n      swap4\n      swap1\n      swap4\n      mstore\n      0x40\n      swap2\n      dup3\n      add\n      0x00\n      swap1\n      dup2\n      keccak256\n        /* \"contracts/SyrupBar.sol\":24318:24352  _allowances[_msgSender()][spender] */\n      swap2\n      dup13\n      and\n      dup2\n      mstore\n      swap3\n      mstore\n      swap1\n      keccak256\n      sload\n      swap1\n        /* \"contracts/SyrupBar.sol\":24318:24356  _allowances[_msgSender()][spender].add */\n      tag_152\n        /* \"contracts/SyrupBar.sol\":24318:24368  _allowances[_msgSender()][spender].add(addedValue) */\n      jump\t// in\n        /* \"contracts/SyrupBar.sol\":38278:38440  function mint(address _to, uint256 _amount) public onlyOwner {\r... */\n    tag_65:\n        /* \"contracts/SyrupBar.sol\":2399:2411  _msgSender() */\n      tag_154\n        /* \"contracts/SyrupBar.sol\":2399:2409  _msgSender */\n      tag_135\n        /* \"contracts/SyrupBar.sol\":2399:2411  _msgSender() */\n      jump\t// in\n    tag_154:\n        /* \"contracts/SyrupBar.sol\":2389:2395  _owner */\n      sload(0x00)\n      sub(shl(0xa0, 0x01), 0x01)\n      swap1\n      dup2\n      and\n        /* \"contracts/SyrupBar.sol\":2389:2411  _owner == _msgSender() */\n      swap2\n      and\n      eq\n        /* \"contracts/SyrupBar.sol\":2381:2448  require(_owner == _msgSender(), 'Ownable: caller is not the owner') */\n      tag_155\n      jumpi\n      0x40\n      dup1\n      mload\n      shl(0xe5, 0x461bcd)\n      dup2\n      mstore\n      0x20\n      0x04\n      dup3\n      add\n      dup2\n      swap1\n      mstore\n      0x24\n      dup3\n      add\n      mstore\n      0x00\n      dup1\n      mload\n      0x20\n      data_9924ebdf1add33d25d4ef888e16131f0a5687b0580a36c21b5c301a6c462effe\n      dup4\n      codecopy\n      dup2\n      mload\n      swap2\n      mstore\n      0x44\n      dup3\n      add\n      mstore\n      swap1\n      mload\n      swap1\n      dup2\n      swap1\n      sub\n      0x64\n      add\n      swap1\n      revert\n    tag_155:\n        /* \"contracts/SyrupBar.sol\":38350:38369  _mint(_to, _amount) */\n      tag_157\n        /* \"contracts/SyrupBar.sol\":38356:38359  _to */\n      dup3\n        /* \"contracts/SyrupBar.sol\":38361:38368  _amount */\n      dup3\n        /* \"contracts/SyrupBar.sol\":38350:38355  _mint */\n      tag_158\n        /* \"contracts/SyrupBar.sol\":38350:38369  _mint(_to, _amount) */\n      jump\t// in\n    tag_157:\n      sub(shl(0xa0, 0x01), 0x01)\n        /* \"contracts/SyrupBar.sol\":38407:38422  _delegates[_to] */\n      dup1\n      dup4\n      and\n        /* \"contracts/SyrupBar.sol\":38403:38404  0 */\n      0x00\n        /* \"contracts/SyrupBar.sol\":38407:38422  _delegates[_to] */\n      swap1\n      dup2\n      mstore\n        /* \"contracts/SyrupBar.sol\":38407:38417  _delegates */\n      0x07\n        /* \"contracts/SyrupBar.sol\":38407:38422  _delegates[_to] */\n      0x20\n      mstore\n      0x40\n      dup2\n      keccak256\n      sload\n        /* \"contracts/SyrupBar.sol\":38380:38432  _moveDelegates(address(0), _delegates[_to], _amount) */\n      tag_159\n      swap3\n        /* \"contracts/SyrupBar.sol\":38407:38422  _delegates[_to] */\n      and\n        /* \"contracts/SyrupBar.sol\":38424:38431  _amount */\n      dup4\n        /* \"contracts/SyrupBar.sol\":38380:38394  _moveDelegates */\n      tag_160\n        /* \"contracts/SyrupBar.sol\":38380:38432  _moveDelegates(address(0), _delegates[_to], _amount) */\n      jump\t// in\n    tag_159:\n        /* \"contracts/SyrupBar.sol\":38278:38440  function mint(address _to, uint256 _amount) public onlyOwner {\r... */\n      pop\n      pop\n      jump\t// out\n        /* \"contracts/SyrupBar.sol\":41164:41313  function delegates(address delegator)\r... */\n    tag_68:\n      sub(shl(0xa0, 0x01), 0x01)\n        /* \"contracts/SyrupBar.sol\":41284:41305  _delegates[delegator] */\n      swap1\n      dup2\n      and\n        /* \"contracts/SyrupBar.sol\":41252:41259  address */\n      0x00\n        /* \"contracts/SyrupBar.sol\":41284:41305  _delegates[delegator] */\n      swap1\n      dup2\n      mstore\n        /* \"contracts/SyrupBar.sol\":41284:41294  _delegates */\n      0x07\n        /* \"contracts/SyrupBar.sol\":41284:41305  _delegates[delegator] */\n      0x20\n      mstore\n      0x40\n      swap1\n      keccak256\n      sload\n      and\n      swap1\n        /* \"contracts/SyrupBar.sol\":41164:41313  function delegates(address delegator)\r... */\n      jump\t// out\n        /* \"contracts/SyrupBar.sol\":41457:41561  function delegate(address delegatee) external {\r... */\n    tag_71:\n        /* \"contracts/SyrupBar.sol\":41521:41553  _delegate(msg.sender, delegatee) */\n      tag_163\n        /* \"contracts/SyrupBar.sol\":41531:41541  msg.sender */\n      caller\n        /* \"contracts/SyrupBar.sol\":41543:41552  delegatee */\n      dup3\n        /* \"contracts/SyrupBar.sol\":41521:41530  _delegate */\n      tag_164\n        /* \"contracts/SyrupBar.sol\":41521:41553  _delegate(msg.sender, delegatee) */\n      jump\t// in\n    tag_163:\n        /* \"contracts/SyrupBar.sol\":41457:41561  function delegate(address delegatee) external {\r... */\n      pop\n      jump\t// out\n        /* \"contracts/SyrupBar.sol\":40059:40108  mapping (address => uint32) public numCheckpoints */\n    tag_74:\n      mstore(0x20, 0x09)\n      0x00\n      swap1\n      dup2\n      mstore\n      0x40\n      swap1\n      keccak256\n      sload\n      0xffffffff\n      and\n      dup2\n      jump\t// out\n        /* \"contracts/SyrupBar.sol\":21903:22022  function balanceOf(address account) public override view returns (uint256) {\r... */\n    tag_77:\n      sub(shl(0xa0, 0x01), 0x01)\n        /* \"contracts/SyrupBar.sol\":21996:22014  _balances[account] */\n      and\n        /* \"contracts/SyrupBar.sol\":21969:21976  uint256 */\n      0x00\n        /* \"contracts/SyrupBar.sol\":21996:22014  _balances[account] */\n      swap1\n      dup2\n      mstore\n        /* \"contracts/SyrupBar.sol\":21996:22005  _balances */\n      0x01\n        /* \"contracts/SyrupBar.sol\":21996:22014  _balances[account] */\n      0x20\n      mstore\n      0x40\n      swap1\n      keccak256\n      sload\n      swap1\n        /* \"contracts/SyrupBar.sol\":21903:22022  function balanceOf(address account) public override view returns (uint256) {\r... */\n      jump\t// out\n        /* \"contracts/SyrupBar.sol\":2819:2959  function renounceOwnership() public onlyOwner {\r... */\n    tag_79:\n        /* \"contracts/SyrupBar.sol\":2399:2411  _msgSender() */\n      tag_167\n        /* \"contracts/SyrupBar.sol\":2399:2409  _msgSender */\n      tag_135\n        /* \"contracts/SyrupBar.sol\":2399:2411  _msgSender() */\n      jump\t// in\n    tag_167:\n        /* \"contracts/SyrupBar.sol\":2389:2395  _owner */\n      sload(0x00)\n      sub(shl(0xa0, 0x01), 0x01)\n      swap1\n      dup2\n      and\n        /* \"contracts/SyrupBar.sol\":2389:2411  _owner == _msgSender() */\n      swap2\n      and\n      eq\n        /* \"contracts/SyrupBar.sol\":2381:2448  require(_owner == _msgSender(), 'Ownable: caller is not the owner') */\n      tag_168\n      jumpi\n      0x40\n      dup1\n      mload\n      shl(0xe5, 0x461bcd)\n      dup2\n      mstore\n      0x20\n      0x04\n      dup3\n      add\n      dup2\n      swap1\n      mstore\n      0x24\n      dup3\n      add\n      mstore\n      0x00\n      dup1\n      mload\n      0x20\n      data_9924ebdf1add33d25d4ef888e16131f0a5687b0580a36c21b5c301a6c462effe\n      dup4\n      codecopy\n      dup2\n      mload\n      swap2\n      mstore\n      0x44\n      dup3\n      add\n      mstore\n      swap1\n      mload\n      swap1\n      dup2\n      swap1\n      sub\n      0x64\n      add\n      swap1\n      revert\n    tag_168:\n        /* \"contracts/SyrupBar.sol\":2918:2919  0 */\n      0x00\n        /* \"contracts/SyrupBar.sol\":2902:2908  _owner */\n      dup1\n      sload\n        /* \"contracts/SyrupBar.sol\":2881:2921  OwnershipTransferred(_owner, address(0)) */\n      mload(0x40)\n      sub(shl(0xa0, 0x01), 0x01)\n        /* \"contracts/SyrupBar.sol\":2902:2908  _owner */\n      swap1\n      swap2\n      and\n      swap1\n        /* \"contracts/SyrupBar.sol\":2881:2921  OwnershipTransferred(_owner, address(0)) */\n      0x8be0079c531659141344cd1fd0a4f28419497f9722a3daafe3b4186f6b6457e0\n      swap1\n        /* \"contracts/SyrupBar.sol\":2918:2919  0 */\n      dup4\n      swap1\n        /* \"contracts/SyrupBar.sol\":2881:2921  OwnershipTransferred(_owner, address(0)) */\n      log3\n        /* \"contracts/SyrupBar.sol\":2949:2950  0 */\n      0x00\n        /* \"contracts/SyrupBar.sol\":2932:2951  _owner = address(0) */\n      dup1\n      sload\n      not(sub(shl(0xa0, 0x01), 0x01))\n      and\n      swap1\n      sstore\n        /* \"contracts/SyrupBar.sol\":2819:2959  function renounceOwnership() public onlyOwner {\r... */\n      jump\t// out\n        /* \"contracts/SyrupBar.sol\":44072:45329  function getPriorVotes(address account, uint blockNumber)\r... */\n    tag_82:\n        /* \"contracts/SyrupBar.sol\":44180:44187  uint256 */\n      0x00\n        /* \"contracts/SyrupBar.sol\":44227:44239  block.number */\n      number\n        /* \"contracts/SyrupBar.sol\":44213:44224  blockNumber */\n      dup3\n        /* \"contracts/SyrupBar.sol\":44213:44239  blockNumber < block.number */\n      lt\n        /* \"contracts/SyrupBar.sol\":44205:44287  require(blockNumber < block.number, \"Landbase::getPriorVotes: not yet determined\") */\n      tag_171\n      jumpi\n      mload(0x40)\n      shl(0xe5, 0x461bcd)\n      dup2\n      mstore\n      0x04\n      add\n      dup1\n      dup1\n      0x20\n      add\n      dup3\n      dup2\n      sub\n      dup3\n      mstore\n      0x2b\n      dup2\n      mstore\n      0x20\n      add\n      dup1\n      data_39d7bbb45a7f857f51f14c10411958da3f5ab325b0c33833fa65742bf2097f9a\n      0x2b\n      swap2\n      codecopy\n      0x40\n      add\n      swap2\n      pop\n      pop\n      mload(0x40)\n      dup1\n      swap2\n      sub\n      swap1\n      revert\n    tag_171:\n      sub(shl(0xa0, 0x01), 0x01)\n        /* \"contracts/SyrupBar.sol\":44322:44345  numCheckpoints[account] */\n      dup4\n      and\n        /* \"contracts/SyrupBar.sol\":44300:44319  uint32 nCheckpoints */\n      0x00\n        /* \"contracts/SyrupBar.sol\":44322:44345  numCheckpoints[account] */\n      swap1\n      dup2\n      mstore\n        /* \"contracts/SyrupBar.sol\":44322:44336  numCheckpoints */\n      0x09\n        /* \"contracts/SyrupBar.sol\":44322:44345  numCheckpoints[account] */\n      0x20\n      mstore\n      0x40\n      swap1\n      keccak256\n      sload\n      0xffffffff\n      and\n        /* \"contracts/SyrupBar.sol\":44360:44377  nCheckpoints == 0 */\n      dup1\n        /* \"contracts/SyrupBar.sol\":44356:44414  if (nCheckpoints == 0) {\r... */\n      tag_172\n      jumpi\n        /* \"contracts/SyrupBar.sol\":44401:44402  0 */\n      0x00\n        /* \"contracts/SyrupBar.sol\":44394:44402  return 0 */\n      swap2\n      pop\n      pop\n      jump(tag_132)\n        /* \"contracts/SyrupBar.sol\":44356:44414  if (nCheckpoints == 0) {\r... */\n    tag_172:\n      sub(shl(0xa0, 0x01), 0x01)\n        /* \"contracts/SyrupBar.sol\":44474:44494  checkpoints[account] */\n      dup5\n      and\n      0x00\n      swap1\n      dup2\n      mstore\n        /* \"contracts/SyrupBar.sol\":44474:44485  checkpoints */\n      0x08\n        /* \"contracts/SyrupBar.sol\":44474:44494  checkpoints[account] */\n      0x20\n      swap1\n      dup2\n      mstore\n      0x40\n      dup1\n      dup4\n      keccak256\n        /* \"contracts/SyrupBar.sol\":44474:44512  checkpoints[account][nCheckpoints - 1] */\n      0xffffffff\n      not(0x00)\n        /* \"contracts/SyrupBar.sol\":44495:44511  nCheckpoints - 1 */\n      dup7\n      add\n        /* \"contracts/SyrupBar.sol\":44474:44512  checkpoints[account][nCheckpoints - 1] */\n      dup2\n      and\n      dup6\n      mstore\n      swap3\n      mstore\n      swap1\n      swap2\n      keccak256\n        /* \"contracts/SyrupBar.sol\":44474:44522  checkpoints[account][nCheckpoints - 1].fromBlock */\n      sload\n      and\n        /* \"contracts/SyrupBar.sol\":44474:44537  checkpoints[account][nCheckpoints - 1].fromBlock <= blockNumber */\n      dup4\n      lt\n        /* \"contracts/SyrupBar.sol\":44470:44617  if (checkpoints[account][nCheckpoints - 1].fromBlock <= blockNumber) {\r... */\n      tag_173\n      jumpi\n      sub(shl(0xa0, 0x01), 0x01)\n        /* \"contracts/SyrupBar.sol\":44561:44581  checkpoints[account] */\n      dup5\n      and\n      0x00\n      swap1\n      dup2\n      mstore\n        /* \"contracts/SyrupBar.sol\":44561:44572  checkpoints */\n      0x08\n        /* \"contracts/SyrupBar.sol\":44561:44581  checkpoints[account] */\n      0x20\n      swap1\n      dup2\n      mstore\n      0x40\n      dup1\n      dup4\n      keccak256\n      not(0x00)\n        /* \"contracts/SyrupBar.sol\":44582:44598  nCheckpoints - 1 */\n      swap5\n      swap1\n      swap5\n      add\n        /* \"contracts/SyrupBar.sol\":44561:44599  checkpoints[account][nCheckpoints - 1] */\n      0xffffffff\n      and\n      dup4\n      mstore\n      swap3\n      swap1\n      mstore\n      keccak256\n        /* \"contracts/SyrupBar.sol\":44597:44598  1 */\n      0x01\n        /* \"contracts/SyrupBar.sol\":44561:44605  checkpoints[account][nCheckpoints - 1].votes */\n      add\n      sload\n      swap1\n      pop\n        /* \"contracts/SyrupBar.sol\":44554:44605  return checkpoints[account][nCheckpoints - 1].votes */\n      jump(tag_132)\n        /* \"contracts/SyrupBar.sol\":44470:44617  if (checkpoints[account][nCheckpoints - 1].fromBlock <= blockNumber) {\r... */\n    tag_173:\n      sub(shl(0xa0, 0x01), 0x01)\n        /* \"contracts/SyrupBar.sol\":44678:44698  checkpoints[account] */\n      dup5\n      and\n      0x00\n      swap1\n      dup2\n      mstore\n        /* \"contracts/SyrupBar.sol\":44678:44689  checkpoints */\n      0x08\n        /* \"contracts/SyrupBar.sol\":44678:44698  checkpoints[account] */\n      0x20\n      swap1\n      dup2\n      mstore\n      0x40\n      dup1\n      dup4\n      keccak256\n        /* \"contracts/SyrupBar.sol\":44678:44701  checkpoints[account][0] */\n      dup4\n      dup1\n      mstore\n      swap1\n      swap2\n      mstore\n      swap1\n      keccak256\n        /* \"contracts/SyrupBar.sol\":44678:44711  checkpoints[account][0].fromBlock */\n      sload\n        /* \"contracts/SyrupBar.sol\":44678:44701  checkpoints[account][0] */\n      0xffffffff\n        /* \"contracts/SyrupBar.sol\":44678:44711  checkpoints[account][0].fromBlock */\n      and\n        /* \"contracts/SyrupBar.sol\":44678:44725  checkpoints[account][0].fromBlock > blockNumber */\n      dup4\n      lt\n        /* \"contracts/SyrupBar.sol\":44674:44762  if (checkpoints[account][0].fromBlock > blockNumber) {\r... */\n      iszero\n      tag_174\n      jumpi\n        /* \"contracts/SyrupBar.sol\":44749:44750  0 */\n      0x00\n        /* \"contracts/SyrupBar.sol\":44742:44750  return 0 */\n      swap2\n      pop\n      pop\n      jump(tag_132)\n        /* \"contracts/SyrupBar.sol\":44674:44762  if (checkpoints[account][0].fromBlock > blockNumber) {\r... */\n    tag_174:\n        /* \"contracts/SyrupBar.sol\":44774:44786  uint32 lower */\n      0x00\n      not(0x00)\n        /* \"contracts/SyrupBar.sol\":44816:44832  nCheckpoints - 1 */\n      dup3\n      add\n        /* \"contracts/SyrupBar.sol\":44843:45271  while (upper > lower) {\r... */\n    tag_175:\n        /* \"contracts/SyrupBar.sol\":44858:44863  lower */\n      dup2\n        /* \"contracts/SyrupBar.sol\":44850:44863  upper > lower */\n      0xffffffff\n      and\n        /* \"contracts/SyrupBar.sol\":44850:44855  upper */\n      dup2\n        /* \"contracts/SyrupBar.sol\":44850:44863  upper > lower */\n      0xffffffff\n      and\n      gt\n        /* \"contracts/SyrupBar.sol\":44843:45271  while (upper > lower) {\r... */\n      iszero\n      tag_176\n      jumpi\n        /* \"contracts/SyrupBar.sol\":44922:44923  2 */\n      0x02\n        /* \"contracts/SyrupBar.sol\":44905:44918  upper - lower */\n      dup3\n      dup3\n      sub\n        /* \"contracts/SyrupBar.sol\":44904:44923  (upper - lower) / 2 */\n      0xffffffff\n      and\n      div\n        /* \"contracts/SyrupBar.sol\":44896:44923  upper - (upper - lower) / 2 */\n      dup2\n      sub\n        /* \"contracts/SyrupBar.sol\":44965:44985  Checkpoint memory cp */\n      tag_178\n      tag_179\n      jump\t// in\n    tag_178:\n      pop\n      sub(shl(0xa0, 0x01), 0x01)\n        /* \"contracts/SyrupBar.sol\":44988:45008  checkpoints[account] */\n      dup8\n      and\n      0x00\n      swap1\n      dup2\n      mstore\n        /* \"contracts/SyrupBar.sol\":44988:44999  checkpoints */\n      0x08\n        /* \"contracts/SyrupBar.sol\":44988:45008  checkpoints[account] */\n      0x20\n      swap1\n      dup2\n      mstore\n      0x40\n      dup1\n      dup4\n      keccak256\n        /* \"contracts/SyrupBar.sol\":44988:45016  checkpoints[account][center] */\n      0xffffffff\n      dup1\n      dup7\n      and\n      dup6\n      mstore\n      swap1\n      dup4\n      mstore\n      swap3\n      dup2\n      swap1\n      keccak256\n        /* \"contracts/SyrupBar.sol\":44965:45016  Checkpoint memory cp = checkpoints[account][center] */\n      dup2\n      mload\n      dup1\n      dup4\n      add\n      swap1\n      swap3\n      mstore\n      dup1\n      sload\n      swap1\n      swap4\n      and\n      dup1\n      dup3\n      mstore\n      0x01\n      swap1\n      swap4\n      add\n      sload\n      swap2\n      dup2\n      add\n      swap2\n      swap1\n      swap2\n      mstore\n      swap1\n        /* \"contracts/SyrupBar.sol\":45035:45062  cp.fromBlock == blockNumber */\n      dup8\n      eq\n        /* \"contracts/SyrupBar.sol\":45031:45260  if (cp.fromBlock == blockNumber) {\r... */\n      iszero\n      tag_180\n      jumpi\n        /* \"contracts/SyrupBar.sol\":45090:45098  cp.votes */\n      0x20\n      add\n      mload\n      swap5\n      pop\n        /* \"contracts/SyrupBar.sol\":45083:45098  return cp.votes */\n      tag_132\n      swap4\n      pop\n      pop\n      pop\n      pop\n      jump\n        /* \"contracts/SyrupBar.sol\":45031:45260  if (cp.fromBlock == blockNumber) {\r... */\n    tag_180:\n        /* \"contracts/SyrupBar.sol\":45124:45136  cp.fromBlock */\n      dup1\n      mload\n        /* \"contracts/SyrupBar.sol\":45124:45150  cp.fromBlock < blockNumber */\n      0xffffffff\n      and\n      dup8\n      gt\n        /* \"contracts/SyrupBar.sol\":45120:45260  if (cp.fromBlock < blockNumber) {\r... */\n      iszero\n      tag_182\n      jumpi\n        /* \"contracts/SyrupBar.sol\":45179:45185  center */\n      dup2\n        /* \"contracts/SyrupBar.sol\":45171:45185  lower = center */\n      swap4\n      pop\n        /* \"contracts/SyrupBar.sol\":45120:45260  if (cp.fromBlock < blockNumber) {\r... */\n      jump(tag_183)\n    tag_182:\n        /* \"contracts/SyrupBar.sol\":45243:45244  1 */\n      0x01\n        /* \"contracts/SyrupBar.sol\":45234:45240  center */\n      dup3\n        /* \"contracts/SyrupBar.sol\":45234:45244  center - 1 */\n      sub\n        /* \"contracts/SyrupBar.sol\":45226:45244  upper = center - 1 */\n      swap3\n      pop\n        /* \"contracts/SyrupBar.sol\":45120:45260  if (cp.fromBlock < blockNumber) {\r... */\n    tag_183:\n        /* \"contracts/SyrupBar.sol\":44843:45271  while (upper > lower) {\r... */\n      pop\n      pop\n      jump(tag_175)\n    tag_176:\n      pop\n      sub(shl(0xa0, 0x01), 0x01)\n        /* \"contracts/SyrupBar.sol\":45288:45308  checkpoints[account] */\n      dup6\n      and\n      0x00\n      swap1\n      dup2\n      mstore\n        /* \"contracts/SyrupBar.sol\":45288:45299  checkpoints */\n      0x08\n        /* \"contracts/SyrupBar.sol\":45288:45308  checkpoints[account] */\n      0x20\n      swap1\n      dup2\n      mstore\n      0x40\n      dup1\n      dup4\n      keccak256\n        /* \"contracts/SyrupBar.sol\":45288:45315  checkpoints[account][lower] */\n      0xffffffff\n      swap1\n      swap5\n      and\n      dup4\n      mstore\n      swap3\n      swap1\n      mstore\n      keccak256\n        /* \"contracts/SyrupBar.sol\":45288:45321  checkpoints[account][lower].votes */\n      0x01\n      add\n      sload\n      swap2\n      pop\n      pop\n        /* \"contracts/SyrupBar.sol\":44072:45329  function getPriorVotes(address account, uint blockNumber)\r... */\n      swap3\n      swap2\n      pop\n      pop\n      jump\t// out\n        /* \"contracts/SyrupBar.sol\":40595:40634  mapping (address => uint) public nonces */\n    tag_85:\n      mstore(0x20, 0x0a)\n      0x00\n      swap1\n      dup2\n      mstore\n      0x40\n      swap1\n      keccak256\n      sload\n      dup2\n      jump\t// out\n        /* \"contracts/SyrupBar.sol\":21108:21202  function getOwner() external override view returns (address) {\r... */\n    tag_87:\n        /* \"contracts/SyrupBar.sol\":21160:21167  address */\n      0x00\n        /* \"contracts/SyrupBar.sol\":21187:21194  owner() */\n      tag_185\n        /* \"contracts/SyrupBar.sol\":21187:21192  owner */\n      tag_89\n        /* \"contracts/SyrupBar.sol\":21187:21194  owner() */\n      jump\t// in\n    tag_185:\n        /* \"contracts/SyrupBar.sol\":21180:21194  return owner() */\n      swap1\n      pop\n        /* \"contracts/SyrupBar.sol\":21108:21202  function getOwner() external override view returns (address) {\r... */\n      swap1\n      jump\t// out\n        /* \"contracts/SyrupBar.sol\":2177:2256  function owner() public view returns (address) {\r... */\n    tag_89:\n        /* \"contracts/SyrupBar.sol\":2215:2222  address */\n      0x00\n        /* \"contracts/SyrupBar.sol\":2242:2248  _owner */\n      sload\n      sub(shl(0xa0, 0x01), 0x01)\n      and\n        /* \"contracts/SyrupBar.sol\":2177:2256  function owner() public view returns (address) {\r... */\n      swap1\n      jump\t// out\n        /* \"contracts/SyrupBar.sol\":21581:21677  function symbol() public override view returns (string memory) {\r... */\n    tag_91:\n        /* \"contracts/SyrupBar.sol\":21662:21669  _symbol */\n      0x05\n        /* \"contracts/SyrupBar.sol\":21655:21669  return _symbol */\n      dup1\n      sload\n      0x40\n      dup1\n      mload\n      0x20\n      0x1f\n      0x02\n      not(0x00)\n      0x0100\n      0x01\n      dup9\n      and\n      iszero\n      mul\n      add\n      swap1\n      swap6\n      and\n      swap5\n      swap1\n      swap5\n      div\n      swap4\n      dup5\n      add\n      dup2\n      swap1\n      div\n      dup2\n      mul\n      dup3\n      add\n      dup2\n      add\n      swap1\n      swap3\n      mstore\n      dup3\n      dup2\n      mstore\n        /* \"contracts/SyrupBar.sol\":21629:21642  string memory */\n      0x60\n      swap4\n        /* \"contracts/SyrupBar.sol\":21655:21669  return _symbol */\n      swap1\n      swap3\n        /* \"contracts/SyrupBar.sol\":21662:21669  _symbol */\n      swap1\n      swap2\n        /* \"contracts/SyrupBar.sol\":21655:21669  return _symbol */\n      dup4\n      add\n        /* \"contracts/SyrupBar.sol\":21662:21669  _symbol */\n      dup3\n        /* \"contracts/SyrupBar.sol\":21655:21669  return _symbol */\n      dup3\n      dup1\n      iszero\n      tag_129\n      jumpi\n      dup1\n      0x1f\n      lt\n      tag_130\n      jumpi\n      0x0100\n      dup1\n      dup4\n      sload\n      div\n      mul\n      dup4\n      mstore\n      swap2\n      0x20\n      add\n      swap2\n      jump(tag_129)\n        /* \"contracts/SyrupBar.sol\":38448:38616  function burn(address _from ,uint256 _amount) public onlyOwner {\r... */\n    tag_98:\n        /* \"contracts/SyrupBar.sol\":2399:2411  _msgSender() */\n      tag_192\n        /* \"contracts/SyrupBar.sol\":2399:2409  _msgSender */\n      tag_135\n        /* \"contracts/SyrupBar.sol\":2399:2411  _msgSender() */\n      jump\t// in\n    tag_192:\n        /* \"contracts/SyrupBar.sol\":2389:2395  _owner */\n      sload(0x00)\n      sub(shl(0xa0, 0x01), 0x01)\n      swap1\n      dup2\n      and\n        /* \"contracts/SyrupBar.sol\":2389:2411  _owner == _msgSender() */\n      swap2\n      and\n      eq\n        /* \"contracts/SyrupBar.sol\":2381:2448  require(_owner == _msgSender(), 'Ownable: caller is not the owner') */\n      tag_193\n      jumpi\n      0x40\n      dup1\n      mload\n      shl(0xe5, 0x461bcd)\n      dup2\n      mstore\n      0x20\n      0x04\n      dup3\n      add\n      dup2\n      swap1\n      mstore\n      0x24\n      dup3\n      add\n      mstore\n      0x00\n      dup1\n      mload\n      0x20\n      data_9924ebdf1add33d25d4ef888e16131f0a5687b0580a36c21b5c301a6c462effe\n      dup4\n      codecopy\n      dup2\n      mload\n      swap2\n      mstore\n      0x44\n      dup3\n      add\n      mstore\n      swap1\n      mload\n      swap1\n      dup2\n      swap1\n      sub\n      0x64\n      add\n      swap1\n      revert\n    tag_193:\n        /* \"contracts/SyrupBar.sol\":38522:38543  _burn(_from, _amount) */\n      tag_157\n        /* \"contracts/SyrupBar.sol\":38528:38533  _from */\n      dup3\n        /* \"contracts/SyrupBar.sol\":38535:38542  _amount */\n      dup3\n        /* \"contracts/SyrupBar.sol\":38522:38527  _burn */\n      tag_196\n        /* \"contracts/SyrupBar.sol\":38522:38543  _burn(_from, _amount) */\n      jump\t// in\n        /* \"contracts/SyrupBar.sol\":25430:25560  function mint(uint256 amount) public onlyOwner returns (bool) {\r... */\n    tag_101:\n        /* \"contracts/SyrupBar.sol\":25486:25490  bool */\n      0x00\n        /* \"contracts/SyrupBar.sol\":2399:2411  _msgSender() */\n      tag_199\n        /* \"contracts/SyrupBar.sol\":2399:2409  _msgSender */\n      tag_135\n        /* \"contracts/SyrupBar.sol\":2399:2411  _msgSender() */\n      jump\t// in\n    tag_199:\n        /* \"contracts/SyrupBar.sol\":2389:2395  _owner */\n      sload(0x00)\n      sub(shl(0xa0, 0x01), 0x01)\n      swap1\n      dup2\n      and\n        /* \"contracts/SyrupBar.sol\":2389:2411  _owner == _msgSender() */\n      swap2\n      and\n      eq\n        /* \"contracts/SyrupBar.sol\":2381:2448  require(_owner == _msgSender(), 'Ownable: caller is not the owner') */\n      tag_200\n      jumpi\n      0x40\n      dup1\n      mload\n      shl(0xe5, 0x461bcd)\n      dup2\n      mstore\n      0x20\n      0x04\n      dup3\n      add\n      dup2\n      swap1\n      mstore\n      0x24\n      dup3\n      add\n      mstore\n      0x00\n      dup1\n      mload\n      0x20\n      data_9924ebdf1add33d25d4ef888e16131f0a5687b0580a36c21b5c301a6c462effe\n      dup4\n      codecopy\n      dup2\n      mload\n      swap2\n      mstore\n      0x44\n      dup3\n      add\n      mstore\n      swap1\n      mload\n      swap1\n      dup2\n      swap1\n      sub\n      0x64\n      add\n      swap1\n      revert\n    tag_200:\n        /* \"contracts/SyrupBar.sol\":25503:25530  _mint(_msgSender(), amount) */\n      tag_202\n        /* \"contracts/SyrupBar.sol\":25509:25521  _msgSender() */\n      tag_203\n        /* \"contracts/SyrupBar.sol\":25509:25519  _msgSender */\n      tag_135\n        /* \"contracts/SyrupBar.sol\":25509:25521  _msgSender() */\n      jump\t// in\n    tag_203:\n        /* \"contracts/SyrupBar.sol\":25523:25529  amount */\n      dup4\n        /* \"contracts/SyrupBar.sol\":25503:25508  _mint */\n      tag_158\n        /* \"contracts/SyrupBar.sol\":25503:25530  _mint(_msgSender(), amount) */\n      jump\t// in\n    tag_202:\n      pop\n        /* \"contracts/SyrupBar.sol\":25548:25552  true */\n      0x01\n        /* \"contracts/SyrupBar.sol\":25430:25560  function mint(uint256 amount) public onlyOwner returns (bool) {\r... */\n      swap2\n      swap1\n      pop\n      jump\t// out\n        /* \"contracts/SyrupBar.sol\":38880:39163  function safeCakeTransfer(address _to, uint256 _amount) public onlyOwner {\r... */\n    tag_104:\n        /* \"contracts/SyrupBar.sol\":2399:2411  _msgSender() */\n      tag_205\n        /* \"contracts/SyrupBar.sol\":2399:2409  _msgSender */\n      tag_135\n        /* \"contracts/SyrupBar.sol\":2399:2411  _msgSender() */\n      jump\t// in\n    tag_205:\n        /* \"contracts/SyrupBar.sol\":2389:2395  _owner */\n      sload(0x00)\n      sub(shl(0xa0, 0x01), 0x01)\n      swap1\n      dup2\n      and\n        /* \"contracts/SyrupBar.sol\":2389:2411  _owner == _msgSender() */\n      swap2\n      and\n      eq\n        /* \"contracts/SyrupBar.sol\":2381:2448  require(_owner == _msgSender(), 'Ownable: caller is not the owner') */\n      tag_206\n      jumpi\n      0x40\n      dup1\n      mload\n      shl(0xe5, 0x461bcd)\n      dup2\n      mstore\n      0x20\n      0x04\n      dup3\n      add\n      dup2\n      swap1\n      mstore\n      0x24\n      dup3\n      add\n      mstore\n      0x00\n      dup1\n      mload\n      0x20\n      data_9924ebdf1add33d25d4ef888e16131f0a5687b0580a36c21b5c301a6c462effe\n      dup4\n      codecopy\n      dup2\n      mload\n      swap2\n      mstore\n      0x44\n      dup3\n      add\n      mstore\n      swap1\n      mload\n      swap1\n      dup2\n      swap1\n      sub\n      0x64\n      add\n      swap1\n      revert\n    tag_206:\n        /* \"contracts/SyrupBar.sol\":38982:38985  lbc */\n      sload(0x06)\n        /* \"contracts/SyrupBar.sol\":38982:39010  lbc.balanceOf(address(this)) */\n      0x40\n      dup1\n      mload\n      shl(0xe0, 0x70a08231)\n      dup2\n      mstore\n        /* \"contracts/SyrupBar.sol\":39004:39008  this */\n      address\n        /* \"contracts/SyrupBar.sol\":38982:39010  lbc.balanceOf(address(this)) */\n      0x04\n      dup3\n      add\n      mstore\n      swap1\n      mload\n      0x00\n      swap3\n        /* \"contracts/SyrupBar.sol\":38982:38985  lbc */\n      0x0100\n      swap1\n      div\n      sub(shl(0xa0, 0x01), 0x01)\n      and\n      swap2\n        /* \"contracts/SyrupBar.sol\":38982:38995  lbc.balanceOf */\n      0x70a08231\n      swap2\n        /* \"contracts/SyrupBar.sol\":38982:39010  lbc.balanceOf(address(this)) */\n      0x24\n      dup1\n      dup4\n      add\n      swap3\n      0x20\n      swap3\n      swap2\n      swap1\n      dup3\n      swap1\n      sub\n      add\n      dup2\n        /* \"contracts/SyrupBar.sol\":38982:38985  lbc */\n      dup7\n        /* \"contracts/SyrupBar.sol\":38982:39010  lbc.balanceOf(address(this)) */\n      dup1\n      extcodesize\n      iszero\n      dup1\n      iszero\n      tag_208\n      jumpi\n      0x00\n      dup1\n      revert\n    tag_208:\n      pop\n      gas\n      staticcall\n      iszero\n      dup1\n      iszero\n      tag_210\n      jumpi\n      returndatasize\n      0x00\n      dup1\n      returndatacopy\n      revert(0x00, returndatasize)\n    tag_210:\n      pop\n      pop\n      pop\n      pop\n      mload(0x40)\n      returndatasize\n      0x20\n      dup2\n      lt\n      iszero\n      tag_211\n      jumpi\n      0x00\n      dup1\n      revert\n    tag_211:\n      pop\n      mload\n      swap1\n      pop\n        /* \"contracts/SyrupBar.sol\":39025:39042  _amount > cakeBal */\n      dup1\n      dup3\n      gt\n        /* \"contracts/SyrupBar.sol\":39021:39156  if (_amount > cakeBal) {\r... */\n      iszero\n      tag_212\n      jumpi\n        /* \"contracts/SyrupBar.sol\":39059:39062  lbc */\n      sload(0x06)\n        /* \"contracts/SyrupBar.sol\":39059:39085  lbc.transfer(_to, cakeBal) */\n      0x40\n      dup1\n      mload\n      shl(0xe0, 0xa9059cbb)\n      dup2\n      mstore\n      sub(shl(0xa0, 0x01), 0x01)\n      dup7\n      dup2\n      and\n      0x04\n      dup4\n      add\n      mstore\n      0x24\n      dup3\n      add\n      dup6\n      swap1\n      mstore\n      swap2\n      mload\n        /* \"contracts/SyrupBar.sol\":39059:39062  lbc */\n      0x0100\n      swap1\n      swap4\n      div\n      swap1\n      swap2\n      and\n      swap2\n        /* \"contracts/SyrupBar.sol\":39059:39071  lbc.transfer */\n      0xa9059cbb\n      swap2\n        /* \"contracts/SyrupBar.sol\":39059:39085  lbc.transfer(_to, cakeBal) */\n      0x44\n      dup1\n      dup3\n      add\n      swap3\n      0x20\n      swap3\n      swap1\n      swap2\n      swap1\n      dup3\n      swap1\n      sub\n      add\n      dup2\n      0x00\n        /* \"contracts/SyrupBar.sol\":39059:39062  lbc */\n      dup8\n        /* \"contracts/SyrupBar.sol\":39059:39085  lbc.transfer(_to, cakeBal) */\n      dup1\n      extcodesize\n      iszero\n      dup1\n      iszero\n      tag_213\n      jumpi\n      0x00\n      dup1\n      revert\n    tag_213:\n      pop\n      gas\n      call\n      iszero\n      dup1\n      iszero\n      tag_215\n      jumpi\n      returndatasize\n      0x00\n      dup1\n      returndatacopy\n      revert(0x00, returndatasize)\n    tag_215:\n      pop\n      pop\n      pop\n      pop\n      mload(0x40)\n      returndatasize\n      0x20\n      dup2\n      lt\n      iszero\n      tag_216\n      jumpi\n      0x00\n      dup1\n      revert\n    tag_216:\n      pop\n        /* \"contracts/SyrupBar.sol\":39021:39156  if (_amount > cakeBal) {\r... */\n      tag_217\n      swap1\n      pop\n      jump\n    tag_212:\n        /* \"contracts/SyrupBar.sol\":39118:39121  lbc */\n      sload(0x06)\n        /* \"contracts/SyrupBar.sol\":39118:39144  lbc.transfer(_to, _amount) */\n      0x40\n      dup1\n      mload\n      shl(0xe0, 0xa9059cbb)\n      dup2\n      mstore\n      sub(shl(0xa0, 0x01), 0x01)\n      dup7\n      dup2\n      and\n      0x04\n      dup4\n      add\n      mstore\n      0x24\n      dup3\n      add\n      dup7\n      swap1\n      mstore\n      swap2\n      mload\n        /* \"contracts/SyrupBar.sol\":39118:39121  lbc */\n      0x0100\n      swap1\n      swap4\n      div\n      swap1\n      swap2\n      and\n      swap2\n        /* \"contracts/SyrupBar.sol\":39118:39130  lbc.transfer */\n      0xa9059cbb\n      swap2\n        /* \"contracts/SyrupBar.sol\":39118:39144  lbc.transfer(_to, _amount) */\n      0x44\n      dup1\n      dup3\n      add\n      swap3\n      0x20\n      swap3\n      swap1\n      swap2\n      swap1\n      dup3\n      swap1\n      sub\n      add\n      dup2\n      0x00\n        /* \"contracts/SyrupBar.sol\":39118:39121  lbc */\n      dup8\n        /* \"contracts/SyrupBar.sol\":39118:39144  lbc.transfer(_to, _amount) */\n      dup1\n      extcodesize\n      iszero\n      dup1\n      iszero\n      tag_218\n      jumpi\n      0x00\n      dup1\n      revert\n    tag_218:\n      pop\n      gas\n      call\n      iszero\n      dup1\n      iszero\n      tag_220\n      jumpi\n      returndatasize\n      0x00\n      dup1\n      returndatacopy\n      revert(0x00, returndatasize)\n    tag_220:\n      pop\n      pop\n      pop\n      pop\n      mload(0x40)\n      returndatasize\n      0x20\n      dup2\n      lt\n      iszero\n      tag_221\n      jumpi\n      0x00\n      dup1\n      revert\n    tag_221:\n      pop\n      pop\n        /* \"contracts/SyrupBar.sol\":39021:39156  if (_amount > cakeBal) {\r... */\n    tag_217:\n        /* \"contracts/SyrupBar.sol\":2459:2460  _ */\n      pop\n        /* \"contracts/SyrupBar.sol\":38880:39163  function safeCakeTransfer(address _to, uint256 _amount) public onlyOwner {\r... */\n      pop\n      pop\n      jump\t// out\n        /* \"contracts/SyrupBar.sol\":24901:25212  function decreaseAllowance(address spender, uint256 subtractedValue) public returns (bool) {\r... */\n    tag_107:\n        /* \"contracts/SyrupBar.sol\":24986:24990  bool */\n      0x00\n        /* \"contracts/SyrupBar.sol\":25003:25182  _approve(\r... */\n      tag_133\n        /* \"contracts/SyrupBar.sol\":25026:25038  _msgSender() */\n      tag_224\n        /* \"contracts/SyrupBar.sol\":25026:25036  _msgSender */\n      tag_135\n        /* \"contracts/SyrupBar.sol\":25026:25038  _msgSender() */\n      jump\t// in\n    tag_224:\n        /* \"contracts/SyrupBar.sol\":25053:25060  spender */\n      dup5\n        /* \"contracts/SyrupBar.sol\":25075:25171  _allowances[_msgSender()][spender].sub(subtractedValue, 'BEP20: decreased allowance below zero') */\n      tag_143\n        /* \"contracts/SyrupBar.sol\":25114:25129  subtractedValue */\n      dup6\n        /* \"contracts/SyrupBar.sol\":25075:25171  _allowances[_msgSender()][spender].sub(subtractedValue, 'BEP20: decreased allowance below zero') */\n      mload(0x40)\n      dup1\n      0x60\n      add\n      0x40\n      mstore\n      dup1\n      0x25\n      dup2\n      mstore\n      0x20\n      add\n      data_b7060b3538dcd3ddc8a941c91636a8115a1aa46914747fd9809d543bbb46cd22\n      0x25\n      swap2\n      codecopy\n        /* \"contracts/SyrupBar.sol\":25075:25086  _allowances */\n      0x02\n        /* \"contracts/SyrupBar.sol\":25075:25100  _allowances[_msgSender()] */\n      0x00\n        /* \"contracts/SyrupBar.sol\":25087:25099  _msgSender() */\n      tag_226\n        /* \"contracts/SyrupBar.sol\":25087:25097  _msgSender */\n      tag_135\n        /* \"contracts/SyrupBar.sol\":25087:25099  _msgSender() */\n      jump\t// in\n    tag_226:\n      sub(shl(0xa0, 0x01), 0x01)\n        /* \"contracts/SyrupBar.sol\":25075:25100  _allowances[_msgSender()] */\n      swap1\n      dup2\n      and\n      dup3\n      mstore\n      0x20\n      dup1\n      dup4\n      add\n      swap4\n      swap1\n      swap4\n      mstore\n      0x40\n      swap2\n      dup3\n      add\n      0x00\n      swap1\n      dup2\n      keccak256\n        /* \"contracts/SyrupBar.sol\":25075:25109  _allowances[_msgSender()][spender] */\n      swap2\n      dup14\n      and\n      dup2\n      mstore\n      swap3\n      mstore\n      swap1\n      keccak256\n      sload\n      swap2\n        /* \"contracts/SyrupBar.sol\":25075:25171  _allowances[_msgSender()][spender].sub(subtractedValue, 'BEP20: decreased allowance below zero') */\n      swap1\n        /* \"contracts/SyrupBar.sol\":25075:25113  _allowances[_msgSender()][spender].sub */\n      tag_145\n        /* \"contracts/SyrupBar.sol\":25075:25171  _allowances[_msgSender()][spender].sub(subtractedValue, 'BEP20: decreased allowance below zero') */\n      jump\t// in\n        /* \"contracts/SyrupBar.sol\":22234:22401  function transfer(address recipient, uint256 amount) public override returns (bool) {\r... */\n    tag_110:\n        /* \"contracts/SyrupBar.sol\":22312:22316  bool */\n      0x00\n        /* \"contracts/SyrupBar.sol\":22329:22371  _transfer(_msgSender(), recipient, amount) */\n      tag_133\n        /* \"contracts/SyrupBar.sol\":22339:22351  _msgSender() */\n      tag_229\n        /* \"contracts/SyrupBar.sol\":22339:22349  _msgSender */\n      tag_135\n        /* \"contracts/SyrupBar.sol\":22339:22351  _msgSender() */\n      jump\t// in\n    tag_229:\n        /* \"contracts/SyrupBar.sol\":22353:22362  recipient */\n      dup5\n        /* \"contracts/SyrupBar.sol\":22364:22370  amount */\n      dup5\n        /* \"contracts/SyrupBar.sol\":22329:22338  _transfer */\n      tag_140\n        /* \"contracts/SyrupBar.sol\":22329:22371  _transfer(_msgSender(), recipient, amount) */\n      jump\t// in\n        /* \"contracts/SyrupBar.sol\":43386:43641  function getCurrentVotes(address account)\r... */\n    tag_113:\n      sub(shl(0xa0, 0x01), 0x01)\n        /* \"contracts/SyrupBar.sol\":43525:43548  numCheckpoints[account] */\n      dup2\n      and\n        /* \"contracts/SyrupBar.sol\":43478:43485  uint256 */\n      0x00\n        /* \"contracts/SyrupBar.sol\":43525:43548  numCheckpoints[account] */\n      swap1\n      dup2\n      mstore\n        /* \"contracts/SyrupBar.sol\":43525:43539  numCheckpoints */\n      0x09\n        /* \"contracts/SyrupBar.sol\":43525:43548  numCheckpoints[account] */\n      0x20\n      mstore\n      0x40\n      dup2\n      keccak256\n      sload\n      0xffffffff\n      and\n        /* \"contracts/SyrupBar.sol\":43566:43582  nCheckpoints > 0 */\n      dup1\n        /* \"contracts/SyrupBar.sol\":43566:43633  nCheckpoints > 0 ? checkpoints[account][nCheckpoints - 1].votes : 0 */\n      tag_231\n      jumpi\n        /* \"contracts/SyrupBar.sol\":43632:43633  0 */\n      0x00\n        /* \"contracts/SyrupBar.sol\":43566:43633  nCheckpoints > 0 ? checkpoints[account][nCheckpoints - 1].votes : 0 */\n      jump(tag_232)\n    tag_231:\n      sub(shl(0xa0, 0x01), 0x01)\n        /* \"contracts/SyrupBar.sol\":43585:43605  checkpoints[account] */\n      dup4\n      and\n      0x00\n      swap1\n      dup2\n      mstore\n        /* \"contracts/SyrupBar.sol\":43585:43596  checkpoints */\n      0x08\n        /* \"contracts/SyrupBar.sol\":43585:43605  checkpoints[account] */\n      0x20\n      swap1\n      dup2\n      mstore\n      0x40\n      dup1\n      dup4\n      keccak256\n        /* \"contracts/SyrupBar.sol\":43585:43623  checkpoints[account][nCheckpoints - 1] */\n      0xffffffff\n      not(0x00)\n        /* \"contracts/SyrupBar.sol\":43606:43622  nCheckpoints - 1 */\n      dup7\n      add\n        /* \"contracts/SyrupBar.sol\":43585:43623  checkpoints[account][nCheckpoints - 1] */\n      and\n      dup5\n      mstore\n      swap1\n      swap2\n      mstore\n      swap1\n      keccak256\n        /* \"contracts/SyrupBar.sol\":43621:43622  1 */\n      0x01\n        /* \"contracts/SyrupBar.sol\":43585:43629  checkpoints[account][nCheckpoints - 1].votes */\n      add\n      sload\n        /* \"contracts/SyrupBar.sol\":43566:43633  nCheckpoints > 0 ? checkpoints[account][nCheckpoints - 1].votes : 0 */\n    tag_232:\n        /* \"contracts/SyrupBar.sol\":43559:43633  return nCheckpoints > 0 ? checkpoints[account][nCheckpoints - 1].votes : 0 */\n      swap4\n        /* \"contracts/SyrupBar.sol\":43386:43641  function getCurrentVotes(address account)\r... */\n      swap3\n      pop\n      pop\n      pop\n      jump\t// out\n        /* \"contracts/SyrupBar.sol\":41995:43185  function delegateBySig(\r... */\n    tag_116:\n        /* \"contracts/SyrupBar.sol\":42188:42211  bytes32 domainSeparator */\n      0x00\n        /* \"contracts/SyrupBar.sol\":40223:40303  keccak256(\"EIP712Domain(string name,uint256 chainId,address verifyingContract)\") */\n      0x8cad95687ba82c2ce50e74f7b754645e5117c3a5bec8151c0726d5857980a866\n        /* \"contracts/SyrupBar.sol\":42317:42323  name() */\n      tag_234\n        /* \"contracts/SyrupBar.sol\":42317:42321  name */\n      tag_41\n        /* \"contracts/SyrupBar.sol\":42317:42323  name() */\n      jump\t// in\n    tag_234:\n        /* \"contracts/SyrupBar.sol\":42301:42325  keccak256(bytes(name())) */\n      dup1\n      mload\n      swap1\n      0x20\n      add\n      keccak256\n        /* \"contracts/SyrupBar.sol\":42344:42356  getChainId() */\n      tag_235\n        /* \"contracts/SyrupBar.sol\":42344:42354  getChainId */\n      tag_236\n        /* \"contracts/SyrupBar.sol\":42344:42356  getChainId() */\n      jump\t// in\n    tag_235:\n        /* \"contracts/SyrupBar.sol\":42238:42403  abi.encode(\r... */\n      0x40\n      dup1\n      mload\n      0x20\n      dup1\n      dup3\n      add\n      swap6\n      swap1\n      swap6\n      mstore\n      dup1\n      dup3\n      add\n      swap4\n      swap1\n      swap4\n      mstore\n      0x60\n      dup4\n      add\n      swap2\n      swap1\n      swap2\n      mstore\n        /* \"contracts/SyrupBar.sol\":42383:42387  this */\n      address\n        /* \"contracts/SyrupBar.sol\":42238:42403  abi.encode(\r... */\n      0x80\n      dup1\n      dup5\n      add\n      swap2\n      swap1\n      swap2\n      mstore\n      dup2\n      mload\n      dup1\n      dup5\n      sub\n      swap1\n      swap2\n      add\n      dup2\n      mstore\n      0xa0\n      dup4\n      add\n      dup3\n      mstore\n        /* \"contracts/SyrupBar.sol\":42214:42414  keccak256(\r... */\n      dup1\n      mload\n      swap1\n      dup5\n      add\n      keccak256\n        /* \"contracts/SyrupBar.sol\":40443:40514  keccak256(\"Delegation(address delegatee,uint256 nonce,uint256 expiry)\") */\n      0xe48329057bfd03d55e49b547132e39cffd9c1820ad7b9d4c5307691425d15adf\n        /* \"contracts/SyrupBar.sol\":42472:42612  abi.encode(\r... */\n      0xc0\n      dup5\n      add\n      mstore\n      sub(shl(0xa0, 0x01), 0x01)\n      dup12\n      and\n      0xe0\n      dup5\n      add\n      mstore\n      0x0100\n      dup4\n      add\n      dup11\n      swap1\n      mstore\n      0x0120\n      dup1\n      dup5\n      add\n      dup11\n      swap1\n      mstore\n      dup3\n      mload\n      dup1\n      dup6\n      sub\n      swap1\n      swap2\n      add\n      dup2\n      mstore\n      0x0140\n      dup5\n      add\n      dup4\n      mstore\n        /* \"contracts/SyrupBar.sol\":42448:42623  keccak256(\r... */\n      dup1\n      mload\n      swap1\n      dup6\n      add\n      keccak256\n      shl(0xf0, 0x1901)\n        /* \"contracts/SyrupBar.sol\":42677:42800  abi.encodePacked(\r... */\n      0x0160\n      dup6\n      add\n      mstore\n      0x0162\n      dup5\n      add\n      dup3\n      swap1\n      mstore\n      0x0182\n      dup1\n      dup6\n      add\n      dup3\n      swap1\n      mstore\n      dup4\n      mload\n      dup1\n      dup7\n      sub\n      swap1\n      swap2\n      add\n      dup2\n      mstore\n      0x01a2\n      dup6\n      add\n      dup1\n      dup6\n      mstore\n        /* \"contracts/SyrupBar.sol\":42653:42811  keccak256(\r... */\n      dup2\n      mload\n      swap2\n      dup8\n      add\n      swap2\n      swap1\n      swap2\n      keccak256\n      0x00\n        /* \"contracts/SyrupBar.sol\":42844:42870  ecrecover(digest, v, r, s) */\n      swap2\n      dup3\n      swap1\n      mstore\n      0x01c2\n      dup7\n      add\n      dup1\n      dup7\n      mstore\n      dup2\n      swap1\n      mstore\n      0xff\n      dup12\n      and\n      0x01e2\n      dup8\n      add\n      mstore\n      0x0202\n      dup7\n      add\n      dup11\n      swap1\n      mstore\n      0x0222\n      dup7\n      add\n      dup10\n      swap1\n      mstore\n      swap4\n      mload\n        /* \"contracts/SyrupBar.sol\":42214:42414  keccak256(\r... */\n      swap3\n      swap7\n      pop\n        /* \"contracts/SyrupBar.sol\":42448:42623  keccak256(\r... */\n      swap1\n      swap5\n        /* \"contracts/SyrupBar.sol\":42653:42811  keccak256(\r... */\n      swap3\n      swap4\n      swap1\n      swap3\n        /* \"contracts/SyrupBar.sol\":42844:42870  ecrecover(digest, v, r, s) */\n      0x01\n      swap3\n      0x0242\n      dup1\n      dup5\n      add\n      swap4\n      not(0x1f)\n      dup4\n      add\n      swap3\n      swap1\n      dup2\n      swap1\n      sub\n      swap1\n      swap2\n      add\n      swap1\n      dup6\n      gas\n      staticcall\n      iszero\n      dup1\n      iszero\n      tag_238\n      jumpi\n      returndatasize\n      0x00\n      dup1\n      returndatacopy\n      revert(0x00, returndatasize)\n    tag_238:\n      pop\n      pop\n      mload(add(not(0x1f), mload(0x40)))\n      swap2\n      pop\n      pop\n      sub(shl(0xa0, 0x01), 0x01)\n        /* \"contracts/SyrupBar.sol\":42889:42912  signatory != address(0) */\n      dup2\n      and\n        /* \"contracts/SyrupBar.sol\":42881:42959  require(signatory != address(0), \"Landbase::delegateBySig: invalid signature\") */\n      tag_239\n      jumpi\n      mload(0x40)\n      shl(0xe5, 0x461bcd)\n      dup2\n      mstore\n      0x04\n      add\n      dup1\n      dup1\n      0x20\n      add\n      dup3\n      dup2\n      sub\n      dup3\n      mstore\n      0x2a\n      dup2\n      mstore\n      0x20\n      add\n      dup1\n      data_52b45e49c6df20e4094f486f8ef471413d643444184254d8ad88dd14fa698d80\n      0x2a\n      swap2\n      codecopy\n      0x40\n      add\n      swap2\n      pop\n      pop\n      mload(0x40)\n      dup1\n      swap2\n      sub\n      swap1\n      revert\n    tag_239:\n      sub(shl(0xa0, 0x01), 0x01)\n        /* \"contracts/SyrupBar.sol\":42987:43004  nonces[signatory] */\n      dup2\n      and\n      0x00\n      swap1\n      dup2\n      mstore\n        /* \"contracts/SyrupBar.sol\":42987:42993  nonces */\n      0x0a\n        /* \"contracts/SyrupBar.sol\":42987:43004  nonces[signatory] */\n      0x20\n      mstore\n      0x40\n      swap1\n      keccak256\n        /* \"contracts/SyrupBar.sol\":42987:43006  nonces[signatory]++ */\n      dup1\n      sload\n      0x01\n      dup2\n      add\n      swap1\n      swap2\n      sstore\n        /* \"contracts/SyrupBar.sol\":42978:43006  nonce == nonces[signatory]++ */\n      dup10\n      eq\n        /* \"contracts/SyrupBar.sol\":42970:43049  require(nonce == nonces[signatory]++, \"Landbase::delegateBySig: invalid nonce\") */\n      tag_240\n      jumpi\n      mload(0x40)\n      shl(0xe5, 0x461bcd)\n      dup2\n      mstore\n      0x04\n      add\n      dup1\n      dup1\n      0x20\n      add\n      dup3\n      dup2\n      sub\n      dup3\n      mstore\n      0x26\n      dup2\n      mstore\n      0x20\n      add\n      dup1\n      data_6f3e5d34f0c300db85e21c6ba2f3a7cc520248f798eb85964b026f02f8cba141\n      0x26\n      swap2\n      codecopy\n      0x40\n      add\n      swap2\n      pop\n      pop\n      mload(0x40)\n      dup1\n      swap2\n      sub\n      swap1\n      revert\n    tag_240:\n        /* \"contracts/SyrupBar.sol\":43075:43081  expiry */\n      dup8\n        /* \"contracts/SyrupBar.sol\":43068:43071  now */\n      timestamp\n        /* \"contracts/SyrupBar.sol\":43068:43081  now <= expiry */\n      gt\n      iszero\n        /* \"contracts/SyrupBar.sol\":43060:43128  require(now <= expiry, \"Landbase::delegateBySig: signature expired\") */\n      tag_241\n      jumpi\n      mload(0x40)\n      shl(0xe5, 0x461bcd)\n      dup2\n      mstore\n      0x04\n      add\n      dup1\n      dup1\n      0x20\n      add\n      dup3\n      dup2\n      sub\n      dup3\n      mstore\n      0x2a\n      dup2\n      mstore\n      0x20\n      add\n      dup1\n      data_68820ae31220f4af6532a2956b153f3d6ac9d2c3ffedb545abd2f8b0fcda759c\n      0x2a\n      swap2\n      codecopy\n      0x40\n      add\n      swap2\n      pop\n      pop\n      mload(0x40)\n      dup1\n      swap2\n      sub\n      swap1\n      revert\n    tag_241:\n        /* \"contracts/SyrupBar.sol\":43146:43177  _delegate(signatory, delegatee) */\n      tag_242\n        /* \"contracts/SyrupBar.sol\":43156:43165  signatory */\n      dup2\n        /* \"contracts/SyrupBar.sol\":43167:43176  delegatee */\n      dup12\n        /* \"contracts/SyrupBar.sol\":43146:43155  _delegate */\n      tag_164\n        /* \"contracts/SyrupBar.sol\":43146:43177  _delegate(signatory, delegatee) */\n      jump\t// in\n    tag_242:\n        /* \"contracts/SyrupBar.sol\":43139:43177  return _delegate(signatory, delegatee) */\n      pop\n      pop\n      pop\n      pop\n        /* \"contracts/SyrupBar.sol\":41995:43185  function delegateBySig(\r... */\n    tag_233:\n      pop\n      pop\n      pop\n      pop\n      pop\n      pop\n      jump\t// out\n        /* \"contracts/SyrupBar.sol\":22463:22606  function allowance(address owner, address spender) public override view returns (uint256) {\r... */\n    tag_119:\n      sub(shl(0xa0, 0x01), 0x01)\n        /* \"contracts/SyrupBar.sol\":22571:22589  _allowances[owner] */\n      swap2\n      dup3\n      and\n        /* \"contracts/SyrupBar.sol\":22544:22551  uint256 */\n      0x00\n        /* \"contracts/SyrupBar.sol\":22571:22589  _allowances[owner] */\n      swap1\n      dup2\n      mstore\n        /* \"contracts/SyrupBar.sol\":22571:22582  _allowances */\n      0x02\n        /* \"contracts/SyrupBar.sol\":22571:22589  _allowances[owner] */\n      0x20\n      swap1\n      dup2\n      mstore\n      0x40\n      dup1\n      dup4\n      keccak256\n        /* \"contracts/SyrupBar.sol\":22571:22598  _allowances[owner][spender] */\n      swap4\n      swap1\n      swap5\n      and\n      dup3\n      mstore\n      swap2\n      swap1\n      swap2\n      mstore\n      keccak256\n      sload\n      swap1\n        /* \"contracts/SyrupBar.sol\":22463:22606  function allowance(address owner, address spender) public override view returns (uint256) {\r... */\n      jump\t// out\n        /* \"contracts/SyrupBar.sol\":40397:40514  bytes32 public constant DELEGATION_TYPEHASH = keccak256(\"Delegation(address delegatee,uint256 nonce,uint256 expiry)\") */\n    tag_121:\n        /* \"contracts/SyrupBar.sol\":40443:40514  keccak256(\"Delegation(address delegatee,uint256 nonce,uint256 expiry)\") */\n      0xe48329057bfd03d55e49b547132e39cffd9c1820ad7b9d4c5307691425d15adf\n        /* \"contracts/SyrupBar.sol\":40397:40514  bytes32 public constant DELEGATION_TYPEHASH = keccak256(\"Delegation(address delegatee,uint256 nonce,uint256 expiry)\") */\n      dup2\n      jump\t// out\n        /* \"contracts/SyrupBar.sol\":39920:39990  mapping (address => mapping (uint32 => Checkpoint)) public checkpoints */\n    tag_124:\n      0x08\n      0x20\n      swap1\n      dup2\n      mstore\n      0x00\n      swap3\n      dup4\n      mstore\n      0x40\n      dup1\n      dup5\n      keccak256\n      swap1\n      swap2\n      mstore\n      swap1\n      dup3\n      mstore\n      swap1\n      keccak256\n      dup1\n      sload\n      0x01\n      swap1\n      swap2\n      add\n      sload\n      0xffffffff\n      swap1\n      swap2\n      and\n      swap1\n      dup3\n      jump\t// out\n        /* \"contracts/SyrupBar.sol\":3114:3223  function transferOwnership(address newOwner) public onlyOwner {\r... */\n    tag_127:\n        /* \"contracts/SyrupBar.sol\":2399:2411  _msgSender() */\n      tag_245\n        /* \"contracts/SyrupBar.sol\":2399:2409  _msgSender */\n      tag_135\n        /* \"contracts/SyrupBar.sol\":2399:2411  _msgSender() */\n      jump\t// in\n    tag_245:\n        /* \"contracts/SyrupBar.sol\":2389:2395  _owner */\n      sload(0x00)\n      sub(shl(0xa0, 0x01), 0x01)\n      swap1\n      dup2\n      and\n        /* \"contracts/SyrupBar.sol\":2389:2411  _owner == _msgSender() */\n      swap2\n      and\n      eq\n        /* \"contracts/SyrupBar.sol\":2381:2448  require(_owner == _msgSender(), 'Ownable: caller is not the owner') */\n      tag_246\n      jumpi\n      0x40\n      dup1\n      mload\n      shl(0xe5, 0x461bcd)\n      dup2\n      mstore\n      0x20\n      0x04\n      dup3\n      add\n      dup2\n      swap1\n      mstore\n      0x24\n      dup3\n      add\n      mstore\n      0x00\n      dup1\n      mload\n      0x20\n      data_9924ebdf1add33d25d4ef888e16131f0a5687b0580a36c21b5c301a6c462effe\n      dup4\n      codecopy\n      dup2\n      mload\n      swap2\n      mstore\n      0x44\n      dup3\n      add\n      mstore\n      swap1\n      mload\n      swap1\n      dup2\n      swap1\n      sub\n      0x64\n      add\n      swap1\n      revert\n    tag_246:\n        /* \"contracts/SyrupBar.sol\":3187:3215  _transferOwnership(newOwner) */\n      tag_163\n        /* \"contracts/SyrupBar.sol\":3206:3214  newOwner */\n      dup2\n        /* \"contracts/SyrupBar.sol\":3187:3205  _transferOwnership */\n      tag_249\n        /* \"contracts/SyrupBar.sol\":3187:3215  _transferOwnership(newOwner) */\n      jump\t// in\n        /* \"contracts/SyrupBar.sol\":827:925  function _msgSender() internal view returns (address payable) {\r... */\n    tag_135:\n        /* \"contracts/SyrupBar.sol\":907:917  msg.sender */\n      caller\n        /* \"contracts/SyrupBar.sol\":827:925  function _msgSender() internal view returns (address payable) {\r... */\n      swap1\n      jump\t// out\n        /* \"contracts/SyrupBar.sol\":28264:28636  function _approve(\r... */\n    tag_136:\n      sub(shl(0xa0, 0x01), 0x01)\n        /* \"contracts/SyrupBar.sol\":28392:28411  owner != address(0) */\n      dup4\n      and\n        /* \"contracts/SyrupBar.sol\":28384:28452  require(owner != address(0), 'BEP20: approve from the zero address') */\n      tag_252\n      jumpi\n      mload(0x40)\n      shl(0xe5, 0x461bcd)\n      dup2\n      mstore\n      0x04\n      add\n      dup1\n      dup1\n      0x20\n      add\n      dup3\n      dup2\n      sub\n      dup3\n      mstore\n      0x24\n      dup2\n      mstore\n      0x20\n      add\n      dup1\n      data_1441cfbef485de93bedecc35b3d10fa2992db382c4c9c583a6e423a140abe4a4\n      0x24\n      swap2\n      codecopy\n      0x40\n      add\n      swap2\n      pop\n      pop\n      mload(0x40)\n      dup1\n      swap2\n      sub\n      swap1\n      revert\n    tag_252:\n      sub(shl(0xa0, 0x01), 0x01)\n        /* \"contracts/SyrupBar.sol\":28471:28492  spender != address(0) */\n      dup3\n      and\n        /* \"contracts/SyrupBar.sol\":28463:28531  require(spender != address(0), 'BEP20: approve to the zero address') */\n      tag_253\n      jumpi\n      mload(0x40)\n      shl(0xe5, 0x461bcd)\n      dup2\n      mstore\n      0x04\n      add\n      dup1\n      dup1\n      0x20\n      add\n      dup3\n      dup2\n      sub\n      dup3\n      mstore\n      0x22\n      dup2\n      mstore\n      0x20\n      add\n      dup1\n      data_f10e7571e18b354270dee950932fb6a745efc79414b2b2556185a4ed6a1af0d5\n      0x22\n      swap2\n      codecopy\n      0x40\n      add\n      swap2\n      pop\n      pop\n      mload(0x40)\n      dup1\n      swap2\n      sub\n      swap1\n      revert\n    tag_253:\n      sub(shl(0xa0, 0x01), 0x01)\n        /* \"contracts/SyrupBar.sol\":28544:28562  _allowances[owner] */\n      dup1\n      dup5\n      and\n      0x00\n      dup2\n      dup2\n      mstore\n        /* \"contracts/SyrupBar.sol\":28544:28555  _allowances */\n      0x02\n        /* \"contracts/SyrupBar.sol\":28544:28562  _allowances[owner] */\n      0x20\n      swap1\n      dup2\n      mstore\n      0x40\n      dup1\n      dup4\n      keccak256\n        /* \"contracts/SyrupBar.sol\":28544:28571  _allowances[owner][spender] */\n      swap5\n      dup8\n      and\n      dup1\n      dup5\n      mstore\n      swap5\n      dup3\n      mstore\n      swap2\n      dup3\n      swap1\n      keccak256\n        /* \"contracts/SyrupBar.sol\":28544:28580  _allowances[owner][spender] = amount */\n      dup6\n      swap1\n      sstore\n        /* \"contracts/SyrupBar.sol\":28596:28628  Approval(owner, spender, amount) */\n      dup2\n      mload\n      dup6\n      dup2\n      mstore\n      swap2\n      mload\n      0x8c5be1e5ebec7d5bd14f71427d1e84f3dd0314c0f7b2291e5b200ac8c7c3b925\n      swap3\n      dup2\n      swap1\n      sub\n      swap1\n      swap2\n      add\n      swap1\n      log3\n        /* \"contracts/SyrupBar.sol\":28264:28636  function _approve(\r... */\n      pop\n      pop\n      pop\n      jump\t// out\n        /* \"contracts/SyrupBar.sol\":26050:26555  function _transfer(\r... */\n    tag_140:\n      sub(shl(0xa0, 0x01), 0x01)\n        /* \"contracts/SyrupBar.sol\":26182:26202  sender != address(0) */\n      dup4\n      and\n        /* \"contracts/SyrupBar.sol\":26174:26244  require(sender != address(0), 'BEP20: transfer from the zero address') */\n      tag_255\n      jumpi\n      mload(0x40)\n      shl(0xe5, 0x461bcd)\n      dup2\n      mstore\n      0x04\n      add\n      dup1\n      dup1\n      0x20\n      add\n      dup3\n      dup2\n      sub\n      dup3\n      mstore\n      0x25\n      dup2\n      mstore\n      0x20\n      add\n      dup1\n      data_0d26cf302d50b28de74be656b11d67092b32131e5712d1bcf08c4e976dacda57\n      0x25\n      swap2\n      codecopy\n      0x40\n      add\n      swap2\n      pop\n      pop\n      mload(0x40)\n      dup1\n      swap2\n      sub\n      swap1\n      revert\n    tag_255:\n      sub(shl(0xa0, 0x01), 0x01)\n        /* \"contracts/SyrupBar.sol\":26263:26286  recipient != address(0) */\n      dup3\n      and\n        /* \"contracts/SyrupBar.sol\":26255:26326  require(recipient != address(0), 'BEP20: transfer to the zero address') */\n      tag_256\n      jumpi\n      mload(0x40)\n      shl(0xe5, 0x461bcd)\n      dup2\n      mstore\n      0x04\n      add\n      dup1\n      dup1\n      0x20\n      add\n      dup3\n      dup2\n      sub\n      dup3\n      mstore\n      0x23\n      dup2\n      mstore\n      0x20\n      add\n      dup1\n      data_ade9efcb59e42e439ffe61509b352b1af56d64ccb68d80b039b7b69578f371d2\n      0x23\n      swap2\n      codecopy\n      0x40\n      add\n      swap2\n      pop\n      pop\n      mload(0x40)\n      dup1\n      swap2\n      sub\n      swap1\n      revert\n    tag_256:\n        /* \"contracts/SyrupBar.sol\":26359:26430  _balances[sender].sub(amount, 'BEP20: transfer amount exceeds balance') */\n      tag_257\n        /* \"contracts/SyrupBar.sol\":26381:26387  amount */\n      dup2\n        /* \"contracts/SyrupBar.sol\":26359:26430  _balances[sender].sub(amount, 'BEP20: transfer amount exceeds balance') */\n      mload(0x40)\n      dup1\n      0x60\n      add\n      0x40\n      mstore\n      dup1\n      0x26\n      dup2\n      mstore\n      0x20\n      add\n      data_a91efd7a65ef5b4ae4d6568d674798b78a5a89184dd296c100513251c22d3e73\n      0x26\n      swap2\n      codecopy\n      sub(shl(0xa0, 0x01), 0x01)\n        /* \"contracts/SyrupBar.sol\":26359:26376  _balances[sender] */\n      dup7\n      and\n      0x00\n      swap1\n      dup2\n      mstore\n        /* \"contracts/SyrupBar.sol\":26359:26368  _balances */\n      0x01\n        /* \"contracts/SyrupBar.sol\":26359:26376  _balances[sender] */\n      0x20\n      mstore\n      0x40\n      swap1\n      keccak256\n      sload\n      swap2\n        /* \"contracts/SyrupBar.sol\":26359:26430  _balances[sender].sub(amount, 'BEP20: transfer amount exceeds balance') */\n      swap1\n        /* \"contracts/SyrupBar.sol\":26359:26380  _balances[sender].sub */\n      tag_145\n        /* \"contracts/SyrupBar.sol\":26359:26430  _balances[sender].sub(amount, 'BEP20: transfer amount exceeds balance') */\n      jump\t// in\n    tag_257:\n      sub(shl(0xa0, 0x01), 0x01)\n        /* \"contracts/SyrupBar.sol\":26339:26356  _balances[sender] */\n      dup1\n      dup6\n      and\n      0x00\n      swap1\n      dup2\n      mstore\n        /* \"contracts/SyrupBar.sol\":26339:26348  _balances */\n      0x01\n        /* \"contracts/SyrupBar.sol\":26339:26356  _balances[sender] */\n      0x20\n      mstore\n      0x40\n      dup1\n      dup3\n      keccak256\n        /* \"contracts/SyrupBar.sol\":26339:26430  _balances[sender] = _balances[sender].sub(amount, 'BEP20: transfer amount exceeds balance') */\n      swap4\n      swap1\n      swap4\n      sstore\n        /* \"contracts/SyrupBar.sol\":26464:26484  _balances[recipient] */\n      swap1\n      dup5\n      and\n      dup2\n      mstore\n      keccak256\n      sload\n        /* \"contracts/SyrupBar.sol\":26464:26496  _balances[recipient].add(amount) */\n      tag_258\n      swap1\n        /* \"contracts/SyrupBar.sol\":26489:26495  amount */\n      dup3\n        /* \"contracts/SyrupBar.sol\":26464:26488  _balances[recipient].add */\n      tag_152\n        /* \"contracts/SyrupBar.sol\":26464:26496  _balances[recipient].add(amount) */\n      jump\t// in\n    tag_258:\n      sub(shl(0xa0, 0x01), 0x01)\n        /* \"contracts/SyrupBar.sol\":26441:26461  _balances[recipient] */\n      dup1\n      dup5\n      and\n      0x00\n      dup2\n      dup2\n      mstore\n        /* \"contracts/SyrupBar.sol\":26441:26450  _balances */\n      0x01\n        /* \"contracts/SyrupBar.sol\":26441:26461  _balances[recipient] */\n      0x20\n      swap1\n      dup2\n      mstore\n      0x40\n      swap2\n      dup3\n      swap1\n      keccak256\n        /* \"contracts/SyrupBar.sol\":26441:26496  _balances[recipient] = _balances[recipient].add(amount) */\n      swap5\n      swap1\n      swap5\n      sstore\n        /* \"contracts/SyrupBar.sol\":26512:26547  Transfer(sender, recipient, amount) */\n      dup1\n      mload\n      dup6\n      dup2\n      mstore\n      swap1\n      mload\n        /* \"contracts/SyrupBar.sol\":26441:26461  _balances[recipient] */\n      swap2\n      swap4\n        /* \"contracts/SyrupBar.sol\":26512:26547  Transfer(sender, recipient, amount) */\n      swap3\n      dup8\n      and\n      swap3\n      0xddf252ad1be2c89b69c2b068fc378daa952ba7f163c4a11628f55a4df523b3ef\n      swap3\n      swap2\n      dup3\n      swap1\n      sub\n      add\n      swap1\n      log3\n        /* \"contracts/SyrupBar.sol\":26050:26555  function _transfer(\r... */\n      pop\n      pop\n      pop\n      jump\t// out\n        /* \"contracts/SyrupBar.sol\":8467:8693  function sub(\r... */\n    tag_145:\n        /* \"contracts/SyrupBar.sol\":8587:8594  uint256 */\n      0x00\n        /* \"contracts/SyrupBar.sol\":8623:8635  errorMessage */\n      dup2\n        /* \"contracts/SyrupBar.sol\":8615:8621  b <= a */\n      dup5\n      dup5\n      gt\n      iszero\n        /* \"contracts/SyrupBar.sol\":8607:8636  require(b <= a, errorMessage) */\n      tag_260\n      jumpi\n      mload(0x40)\n      shl(0xe5, 0x461bcd)\n      dup2\n      mstore\n      0x04\n      add\n      dup1\n      dup1\n      0x20\n      add\n      dup3\n      dup2\n      sub\n      dup3\n      mstore\n      dup4\n      dup2\n      dup2\n      mload\n      dup2\n      mstore\n      0x20\n      add\n      swap2\n      pop\n      dup1\n      mload\n      swap1\n      0x20\n      add\n      swap1\n      dup1\n      dup4\n      dup4\n      0x00\n    tag_261:\n      dup4\n      dup2\n      lt\n      iszero\n      tag_263\n      jumpi\n      dup2\n      dup2\n      add\n      mload\n      dup4\n      dup3\n      add\n      mstore\n      0x20\n      add\n      jump(tag_261)\n    tag_263:\n      pop\n      pop\n      pop\n      pop\n      swap1\n      pop\n      swap1\n      dup2\n      add\n      swap1\n      0x1f\n      and\n      dup1\n      iszero\n      tag_264\n      jumpi\n      dup1\n      dup3\n      sub\n      dup1\n      mload\n      0x01\n      dup4\n      0x20\n      sub\n      0x0100\n      exp\n      sub\n      not\n      and\n      dup2\n      mstore\n      0x20\n      add\n      swap2\n      pop\n    tag_264:\n      pop\n      swap3\n      pop\n      pop\n      pop\n      mload(0x40)\n      dup1\n      swap2\n      sub\n      swap1\n      revert\n    tag_260:\n      pop\n      pop\n      pop\n        /* \"contracts/SyrupBar.sol\":8659:8664  a - b */\n      swap1\n      sub\n      swap1\n        /* \"contracts/SyrupBar.sol\":8467:8693  function sub(\r... */\n      jump\t// out\n        /* \"contracts/SyrupBar.sol\":7564:7745  function add(uint256 a, uint256 b) internal pure returns (uint256) {\r... */\n    tag_152:\n        /* \"contracts/SyrupBar.sol\":7622:7629  uint256 */\n      0x00\n        /* \"contracts/SyrupBar.sol\":7654:7659  a + b */\n      dup3\n      dup3\n      add\n        /* \"contracts/SyrupBar.sol\":7678:7684  c >= a */\n      dup4\n      dup2\n      lt\n      iszero\n        /* \"contracts/SyrupBar.sol\":7670:7716  require(c >= a, 'SafeMath: addition overflow') */\n      tag_232\n      jumpi\n      0x40\n      dup1\n      mload\n      shl(0xe5, 0x461bcd)\n      dup2\n      mstore\n      0x20\n      0x04\n      dup3\n      add\n      mstore\n      0x1b\n      0x24\n      dup3\n      add\n      mstore\n      0x536166654d6174683a206164646974696f6e206f766572666c6f770000000000\n      0x44\n      dup3\n      add\n      mstore\n      swap1\n      mload\n      swap1\n      dup2\n      swap1\n      sub\n      0x64\n      add\n      swap1\n      revert\n        /* \"contracts/SyrupBar.sol\":26836:27144  function _mint(address account, uint256 amount) internal {\r... */\n    tag_158:\n      sub(shl(0xa0, 0x01), 0x01)\n        /* \"contracts/SyrupBar.sol\":26912:26933  account != address(0) */\n      dup3\n      and\n        /* \"contracts/SyrupBar.sol\":26904:26969  require(account != address(0), 'BEP20: mint to the zero address') */\n      tag_268\n      jumpi\n      0x40\n      dup1\n      mload\n      shl(0xe5, 0x461bcd)\n      dup2\n      mstore\n      0x20\n      0x04\n      dup3\n      add\n      mstore\n      0x1f\n      0x24\n      dup3\n      add\n      mstore\n      0x42455032303a206d696e7420746f20746865207a65726f206164647265737300\n      0x44\n      dup3\n      add\n      mstore\n      swap1\n      mload\n      swap1\n      dup2\n      swap1\n      sub\n      0x64\n      add\n      swap1\n      revert\n    tag_268:\n        /* \"contracts/SyrupBar.sol\":26997:27009  _totalSupply */\n      sload(0x03)\n        /* \"contracts/SyrupBar.sol\":26997:27021  _totalSupply.add(amount) */\n      tag_269\n      swap1\n        /* \"contracts/SyrupBar.sol\":27014:27020  amount */\n      dup3\n        /* \"contracts/SyrupBar.sol\":26997:27013  _totalSupply.add */\n      tag_152\n        /* \"contracts/SyrupBar.sol\":26997:27021  _totalSupply.add(amount) */\n      jump\t// in\n    tag_269:\n        /* \"contracts/SyrupBar.sol\":26982:26994  _totalSupply */\n      0x03\n        /* \"contracts/SyrupBar.sol\":26982:27021  _totalSupply = _totalSupply.add(amount) */\n      sstore\n      sub(shl(0xa0, 0x01), 0x01)\n        /* \"contracts/SyrupBar.sol\":27053:27071  _balances[account] */\n      dup3\n      and\n      0x00\n      swap1\n      dup2\n      mstore\n        /* \"contracts/SyrupBar.sol\":27053:27062  _balances */\n      0x01\n        /* \"contracts/SyrupBar.sol\":27053:27071  _balances[account] */\n      0x20\n      mstore\n      0x40\n      swap1\n      keccak256\n      sload\n        /* \"contracts/SyrupBar.sol\":27053:27083  _balances[account].add(amount) */\n      tag_270\n      swap1\n        /* \"contracts/SyrupBar.sol\":27076:27082  amount */\n      dup3\n        /* \"contracts/SyrupBar.sol\":27053:27075  _balances[account].add */\n      tag_152\n        /* \"contracts/SyrupBar.sol\":27053:27083  _balances[account].add(amount) */\n      jump\t// in\n    tag_270:\n      sub(shl(0xa0, 0x01), 0x01)\n        /* \"contracts/SyrupBar.sol\":27032:27050  _balances[account] */\n      dup4\n      and\n      0x00\n      dup2\n      dup2\n      mstore\n        /* \"contracts/SyrupBar.sol\":27032:27041  _balances */\n      0x01\n        /* \"contracts/SyrupBar.sol\":27032:27050  _balances[account] */\n      0x20\n      swap1\n      dup2\n      mstore\n      0x40\n      dup1\n      dup4\n      keccak256\n        /* \"contracts/SyrupBar.sol\":27032:27083  _balances[account] = _balances[account].add(amount) */\n      swap5\n      swap1\n      swap5\n      sstore\n        /* \"contracts/SyrupBar.sol\":27099:27136  Transfer(address(0), account, amount) */\n      dup4\n      mload\n      dup6\n      dup2\n      mstore\n      swap4\n      mload\n        /* \"contracts/SyrupBar.sol\":27032:27050  _balances[account] */\n      swap3\n      swap4\n      swap2\n      swap3\n        /* \"contracts/SyrupBar.sol\":27099:27136  Transfer(address(0), account, amount) */\n      0xddf252ad1be2c89b69c2b068fc378daa952ba7f163c4a11628f55a4df523b3ef\n      swap3\n      dup2\n      swap1\n      sub\n      swap1\n      swap2\n      add\n      swap1\n      log3\n        /* \"contracts/SyrupBar.sol\":26836:27144  function _mint(address account, uint256 amount) internal {\r... */\n      pop\n      pop\n      jump\t// out\n        /* \"contracts/SyrupBar.sol\":45783:46730  function _moveDelegates(address srcRep, address dstRep, uint256 amount) internal {\r... */\n    tag_160:\n        /* \"contracts/SyrupBar.sol\":45889:45895  dstRep */\n      dup2\n      sub(shl(0xa0, 0x01), 0x01)\n        /* \"contracts/SyrupBar.sol\":45879:45895  srcRep != dstRep */\n      and\n        /* \"contracts/SyrupBar.sol\":45879:45885  srcRep */\n      dup4\n      sub(shl(0xa0, 0x01), 0x01)\n        /* \"contracts/SyrupBar.sol\":45879:45895  srcRep != dstRep */\n      and\n      eq\n      iszero\n        /* \"contracts/SyrupBar.sol\":45879:45909  srcRep != dstRep && amount > 0 */\n      dup1\n      iszero\n      tag_272\n      jumpi\n      pop\n        /* \"contracts/SyrupBar.sol\":45908:45909  0 */\n      0x00\n        /* \"contracts/SyrupBar.sol\":45899:45905  amount */\n      dup2\n        /* \"contracts/SyrupBar.sol\":45899:45909  amount > 0 */\n      gt\n        /* \"contracts/SyrupBar.sol\":45879:45909  srcRep != dstRep && amount > 0 */\n    tag_272:\n        /* \"contracts/SyrupBar.sol\":45875:46723  if (srcRep != dstRep && amount > 0) {\r... */\n      iszero\n      tag_217\n      jumpi\n      sub(shl(0xa0, 0x01), 0x01)\n        /* \"contracts/SyrupBar.sol\":45930:45950  srcRep != address(0) */\n      dup4\n      and\n      iszero\n        /* \"contracts/SyrupBar.sol\":45926:46311  if (srcRep != address(0)) {\r... */\n      tag_274\n      jumpi\n      sub(shl(0xa0, 0x01), 0x01)\n        /* \"contracts/SyrupBar.sol\":46038:46060  numCheckpoints[srcRep] */\n      dup4\n      and\n        /* \"contracts/SyrupBar.sol\":46019:46035  uint32 srcRepNum */\n      0x00\n        /* \"contracts/SyrupBar.sol\":46038:46060  numCheckpoints[srcRep] */\n      swap1\n      dup2\n      mstore\n        /* \"contracts/SyrupBar.sol\":46038:46052  numCheckpoints */\n      0x09\n        /* \"contracts/SyrupBar.sol\":46038:46060  numCheckpoints[srcRep] */\n      0x20\n      mstore\n      0x40\n      dup2\n      keccak256\n      sload\n      0xffffffff\n      and\n      swap1\n        /* \"contracts/SyrupBar.sol\":46099:46112  srcRepNum > 0 */\n      dup2\n        /* \"contracts/SyrupBar.sol\":46099:46159  srcRepNum > 0 ? checkpoints[srcRep][srcRepNum - 1].votes : 0 */\n      tag_275\n      jumpi\n        /* \"contracts/SyrupBar.sol\":46158:46159  0 */\n      0x00\n        /* \"contracts/SyrupBar.sol\":46099:46159  srcRepNum > 0 ? checkpoints[srcRep][srcRepNum - 1].votes : 0 */\n      jump(tag_276)\n    tag_275:\n      sub(shl(0xa0, 0x01), 0x01)\n        /* \"contracts/SyrupBar.sol\":46115:46134  checkpoints[srcRep] */\n      dup6\n      and\n      0x00\n      swap1\n      dup2\n      mstore\n        /* \"contracts/SyrupBar.sol\":46115:46126  checkpoints */\n      0x08\n        /* \"contracts/SyrupBar.sol\":46115:46134  checkpoints[srcRep] */\n      0x20\n      swap1\n      dup2\n      mstore\n      0x40\n      dup1\n      dup4\n      keccak256\n        /* \"contracts/SyrupBar.sol\":46115:46149  checkpoints[srcRep][srcRepNum - 1] */\n      0xffffffff\n      not(0x00)\n        /* \"contracts/SyrupBar.sol\":46135:46148  srcRepNum - 1 */\n      dup8\n      add\n        /* \"contracts/SyrupBar.sol\":46115:46149  checkpoints[srcRep][srcRepNum - 1] */\n      and\n      dup5\n      mstore\n      swap1\n      swap2\n      mstore\n      swap1\n      keccak256\n        /* \"contracts/SyrupBar.sol\":46147:46148  1 */\n      0x01\n        /* \"contracts/SyrupBar.sol\":46115:46155  checkpoints[srcRep][srcRepNum - 1].votes */\n      add\n      sload\n        /* \"contracts/SyrupBar.sol\":46099:46159  srcRepNum > 0 ? checkpoints[srcRep][srcRepNum - 1].votes : 0 */\n    tag_276:\n        /* \"contracts/SyrupBar.sol\":46079:46159  uint256 srcRepOld = srcRepNum > 0 ? checkpoints[srcRep][srcRepNum - 1].votes : 0 */\n      swap1\n      pop\n        /* \"contracts/SyrupBar.sol\":46178:46195  uint256 srcRepNew */\n      0x00\n        /* \"contracts/SyrupBar.sol\":46198:46219  srcRepOld.sub(amount) */\n      tag_277\n        /* \"contracts/SyrupBar.sol\":46079:46159  uint256 srcRepOld = srcRepNum > 0 ? checkpoints[srcRep][srcRepNum - 1].votes : 0 */\n      dup3\n        /* \"contracts/SyrupBar.sol\":46212:46218  amount */\n      dup6\n        /* \"contracts/SyrupBar.sol\":46198:46211  srcRepOld.sub */\n      tag_278\n        /* \"contracts/SyrupBar.sol\":46198:46219  srcRepOld.sub(amount) */\n      jump\t// in\n    tag_277:\n        /* \"contracts/SyrupBar.sol\":46178:46219  uint256 srcRepNew = srcRepOld.sub(amount) */\n      swap1\n      pop\n        /* \"contracts/SyrupBar.sol\":46238:46295  _writeCheckpoint(srcRep, srcRepNum, srcRepOld, srcRepNew) */\n      tag_279\n        /* \"contracts/SyrupBar.sol\":46255:46261  srcRep */\n      dup7\n        /* \"contracts/SyrupBar.sol\":46263:46272  srcRepNum */\n      dup5\n        /* \"contracts/SyrupBar.sol\":46274:46283  srcRepOld */\n      dup5\n        /* \"contracts/SyrupBar.sol\":46285:46294  srcRepNew */\n      dup5\n        /* \"contracts/SyrupBar.sol\":46238:46254  _writeCheckpoint */\n      tag_280\n        /* \"contracts/SyrupBar.sol\":46238:46295  _writeCheckpoint(srcRep, srcRepNum, srcRepOld, srcRepNew) */\n      jump\t// in\n    tag_279:\n        /* \"contracts/SyrupBar.sol\":45926:46311  if (srcRep != address(0)) {\r... */\n      pop\n      pop\n      pop\n    tag_274:\n      sub(shl(0xa0, 0x01), 0x01)\n        /* \"contracts/SyrupBar.sol\":46331:46351  dstRep != address(0) */\n      dup3\n      and\n      iszero\n        /* \"contracts/SyrupBar.sol\":46327:46712  if (dstRep != address(0)) {\r... */\n      tag_217\n      jumpi\n      sub(shl(0xa0, 0x01), 0x01)\n        /* \"contracts/SyrupBar.sol\":46439:46461  numCheckpoints[dstRep] */\n      dup3\n      and\n        /* \"contracts/SyrupBar.sol\":46420:46436  uint32 dstRepNum */\n      0x00\n        /* \"contracts/SyrupBar.sol\":46439:46461  numCheckpoints[dstRep] */\n      swap1\n      dup2\n      mstore\n        /* \"contracts/SyrupBar.sol\":46439:46453  numCheckpoints */\n      0x09\n        /* \"contracts/SyrupBar.sol\":46439:46461  numCheckpoints[dstRep] */\n      0x20\n      mstore\n      0x40\n      dup2\n      keccak256\n      sload\n      0xffffffff\n      and\n      swap1\n        /* \"contracts/SyrupBar.sol\":46500:46513  dstRepNum > 0 */\n      dup2\n        /* \"contracts/SyrupBar.sol\":46500:46560  dstRepNum > 0 ? checkpoints[dstRep][dstRepNum - 1].votes : 0 */\n      tag_282\n      jumpi\n        /* \"contracts/SyrupBar.sol\":46559:46560  0 */\n      0x00\n        /* \"contracts/SyrupBar.sol\":46500:46560  dstRepNum > 0 ? checkpoints[dstRep][dstRepNum - 1].votes : 0 */\n      jump(tag_283)\n    tag_282:\n      sub(shl(0xa0, 0x01), 0x01)\n        /* \"contracts/SyrupBar.sol\":46516:46535  checkpoints[dstRep] */\n      dup5\n      and\n      0x00\n      swap1\n      dup2\n      mstore\n        /* \"contracts/SyrupBar.sol\":46516:46527  checkpoints */\n      0x08\n        /* \"contracts/SyrupBar.sol\":46516:46535  checkpoints[dstRep] */\n      0x20\n      swap1\n      dup2\n      mstore\n      0x40\n      dup1\n      dup4\n      keccak256\n        /* \"contracts/SyrupBar.sol\":46516:46550  checkpoints[dstRep][dstRepNum - 1] */\n      0xffffffff\n      not(0x00)\n        /* \"contracts/SyrupBar.sol\":46536:46549  dstRepNum - 1 */\n      dup8\n      add\n        /* \"contracts/SyrupBar.sol\":46516:46550  checkpoints[dstRep][dstRepNum - 1] */\n      and\n      dup5\n      mstore\n      swap1\n      swap2\n      mstore\n      swap1\n      keccak256\n        /* \"contracts/SyrupBar.sol\":46548:46549  1 */\n      0x01\n        /* \"contracts/SyrupBar.sol\":46516:46556  checkpoints[dstRep][dstRepNum - 1].votes */\n      add\n      sload\n        /* \"contracts/SyrupBar.sol\":46500:46560  dstRepNum > 0 ? checkpoints[dstRep][dstRepNum - 1].votes : 0 */\n    tag_283:\n        /* \"contracts/SyrupBar.sol\":46480:46560  uint256 dstRepOld = dstRepNum > 0 ? checkpoints[dstRep][dstRepNum - 1].votes : 0 */\n      swap1\n      pop\n        /* \"contracts/SyrupBar.sol\":46579:46596  uint256 dstRepNew */\n      0x00\n        /* \"contracts/SyrupBar.sol\":46599:46620  dstRepOld.add(amount) */\n      tag_284\n        /* \"contracts/SyrupBar.sol\":46480:46560  uint256 dstRepOld = dstRepNum > 0 ? checkpoints[dstRep][dstRepNum - 1].votes : 0 */\n      dup3\n        /* \"contracts/SyrupBar.sol\":46613:46619  amount */\n      dup6\n        /* \"contracts/SyrupBar.sol\":46599:46612  dstRepOld.add */\n      tag_152\n        /* \"contracts/SyrupBar.sol\":46599:46620  dstRepOld.add(amount) */\n      jump\t// in\n    tag_284:\n        /* \"contracts/SyrupBar.sol\":46579:46620  uint256 dstRepNew = dstRepOld.add(amount) */\n      swap1\n      pop\n        /* \"contracts/SyrupBar.sol\":46639:46696  _writeCheckpoint(dstRep, dstRepNum, dstRepOld, dstRepNew) */\n      tag_233\n        /* \"contracts/SyrupBar.sol\":46656:46662  dstRep */\n      dup6\n        /* \"contracts/SyrupBar.sol\":46664:46673  dstRepNum */\n      dup5\n        /* \"contracts/SyrupBar.sol\":46675:46684  dstRepOld */\n      dup5\n        /* \"contracts/SyrupBar.sol\":46686:46695  dstRepNew */\n      dup5\n        /* \"contracts/SyrupBar.sol\":46639:46655  _writeCheckpoint */\n      tag_280\n        /* \"contracts/SyrupBar.sol\":46639:46696  _writeCheckpoint(dstRep, dstRepNum, dstRepOld, dstRepNew) */\n      jump\t// in\n        /* \"contracts/SyrupBar.sol\":45337:45775  function _delegate(address delegator, address delegatee)\r... */\n    tag_164:\n      sub(shl(0xa0, 0x01), 0x01)\n        /* \"contracts/SyrupBar.sol\":45454:45475  _delegates[delegator] */\n      dup1\n      dup4\n      and\n        /* \"contracts/SyrupBar.sol\":45428:45451  address currentDelegate */\n      0x00\n        /* \"contracts/SyrupBar.sol\":45454:45475  _delegates[delegator] */\n      swap1\n      dup2\n      mstore\n        /* \"contracts/SyrupBar.sol\":45454:45464  _delegates */\n      0x07\n        /* \"contracts/SyrupBar.sol\":45454:45475  _delegates[delegator] */\n      0x20\n      mstore\n      0x40\n      dup2\n      keccak256\n      sload\n      swap1\n      swap2\n      and\n      swap1\n        /* \"contracts/SyrupBar.sol\":45513:45533  balanceOf(delegator) */\n      tag_287\n        /* \"contracts/SyrupBar.sol\":45465:45474  delegator */\n      dup5\n        /* \"contracts/SyrupBar.sol\":45513:45522  balanceOf */\n      tag_77\n        /* \"contracts/SyrupBar.sol\":45513:45533  balanceOf(delegator) */\n      jump\t// in\n    tag_287:\n      sub(shl(0xa0, 0x01), 0x01)\n        /* \"contracts/SyrupBar.sol\":45589:45610  _delegates[delegator] */\n      dup6\n      dup2\n      and\n      0x00\n      dup2\n      dup2\n      mstore\n        /* \"contracts/SyrupBar.sol\":45589:45599  _delegates */\n      0x07\n        /* \"contracts/SyrupBar.sol\":45589:45610  _delegates[delegator] */\n      0x20\n      mstore\n      0x40\n      dup1\n      dup3\n      keccak256\n        /* \"contracts/SyrupBar.sol\":45589:45622  _delegates[delegator] = delegatee */\n      dup1\n      sload\n      not(sub(shl(0xa0, 0x01), 0x01))\n      and\n      dup10\n      dup7\n      and\n      swap1\n      dup2\n      or\n      swap1\n      swap2\n      sstore\n        /* \"contracts/SyrupBar.sol\":45640:45694  DelegateChanged(delegator, currentDelegate, delegatee) */\n      swap1\n      mload\n        /* \"contracts/SyrupBar.sol\":45486:45533  uint256 delegatorBalance = balanceOf(delegator) */\n      swap5\n      swap6\n      pop\n        /* \"contracts/SyrupBar.sol\":45589:45622  _delegates[delegator] = delegatee */\n      swap4\n        /* \"contracts/SyrupBar.sol\":45640:45694  DelegateChanged(delegator, currentDelegate, delegatee) */\n      swap3\n      dup7\n      and\n      swap3\n      0x3134e8a2e6d97e929a7e54011ea5485d7d196dd5f0ba4d4ef95803e8e3fc257f\n      swap2\n        /* \"contracts/SyrupBar.sol\":45589:45610  _delegates[delegator] */\n      swap1\n        /* \"contracts/SyrupBar.sol\":45640:45694  DelegateChanged(delegator, currentDelegate, delegatee) */\n      log4\n        /* \"contracts/SyrupBar.sol\":45707:45767  _moveDelegates(currentDelegate, delegatee, delegatorBalance) */\n      tag_288\n        /* \"contracts/SyrupBar.sol\":45722:45737  currentDelegate */\n      dup3\n        /* \"contracts/SyrupBar.sol\":45739:45748  delegatee */\n      dup5\n        /* \"contracts/SyrupBar.sol\":45750:45766  delegatorBalance */\n      dup4\n        /* \"contracts/SyrupBar.sol\":45707:45721  _moveDelegates */\n      tag_160\n        /* \"contracts/SyrupBar.sol\":45707:45767  _moveDelegates(currentDelegate, delegatee, delegatorBalance) */\n      jump\t// in\n    tag_288:\n        /* \"contracts/SyrupBar.sol\":45337:45775  function _delegate(address delegator, address delegatee)\r... */\n      pop\n      pop\n      pop\n      pop\n      jump\t// out\n        /* \"contracts/SyrupBar.sol\":27476:27824  function _burn(address account, uint256 amount) internal {\r... */\n    tag_196:\n      sub(shl(0xa0, 0x01), 0x01)\n        /* \"contracts/SyrupBar.sol\":27552:27573  account != address(0) */\n      dup3\n      and\n        /* \"contracts/SyrupBar.sol\":27544:27611  require(account != address(0), 'BEP20: burn from the zero address') */\n      tag_290\n      jumpi\n      mload(0x40)\n      shl(0xe5, 0x461bcd)\n      dup2\n      mstore\n      0x04\n      add\n      dup1\n      dup1\n      0x20\n      add\n      dup3\n      dup2\n      sub\n      dup3\n      mstore\n      0x21\n      dup2\n      mstore\n      0x20\n      add\n      dup1\n      data_b81edbf10508d9b81724f18ff8f3d8bfba9790734ce1f1c54dfe1030b4914855\n      0x21\n      swap2\n      codecopy\n      0x40\n      add\n      swap2\n      pop\n      pop\n      mload(0x40)\n      dup1\n      swap2\n      sub\n      swap1\n      revert\n    tag_290:\n        /* \"contracts/SyrupBar.sol\":27645:27713  _balances[account].sub(amount, 'BEP20: burn amount exceeds balance') */\n      tag_291\n        /* \"contracts/SyrupBar.sol\":27668:27674  amount */\n      dup2\n        /* \"contracts/SyrupBar.sol\":27645:27713  _balances[account].sub(amount, 'BEP20: burn amount exceeds balance') */\n      mload(0x40)\n      dup1\n      0x60\n      add\n      0x40\n      mstore\n      dup1\n      0x22\n      dup2\n      mstore\n      0x20\n      add\n      data_deaa84b30175fd0578812c46240362b7914652a35e6707ad7e1556891e4ae032\n      0x22\n      swap2\n      codecopy\n      sub(shl(0xa0, 0x01), 0x01)\n        /* \"contracts/SyrupBar.sol\":27645:27663  _balances[account] */\n      dup6\n      and\n      0x00\n      swap1\n      dup2\n      mstore\n        /* \"contracts/SyrupBar.sol\":27645:27654  _balances */\n      0x01\n        /* \"contracts/SyrupBar.sol\":27645:27663  _balances[account] */\n      0x20\n      mstore\n      0x40\n      swap1\n      keccak256\n      sload\n      swap2\n        /* \"contracts/SyrupBar.sol\":27645:27713  _balances[account].sub(amount, 'BEP20: burn amount exceeds balance') */\n      swap1\n        /* \"contracts/SyrupBar.sol\":27645:27667  _balances[account].sub */\n      tag_145\n        /* \"contracts/SyrupBar.sol\":27645:27713  _balances[account].sub(amount, 'BEP20: burn amount exceeds balance') */\n      jump\t// in\n    tag_291:\n      sub(shl(0xa0, 0x01), 0x01)\n        /* \"contracts/SyrupBar.sol\":27624:27642  _balances[account] */\n      dup4\n      and\n      0x00\n      swap1\n      dup2\n      mstore\n        /* \"contracts/SyrupBar.sol\":27624:27633  _balances */\n      0x01\n        /* \"contracts/SyrupBar.sol\":27624:27642  _balances[account] */\n      0x20\n      mstore\n      0x40\n      swap1\n      keccak256\n        /* \"contracts/SyrupBar.sol\":27624:27713  _balances[account] = _balances[account].sub(amount, 'BEP20: burn amount exceeds balance') */\n      sstore\n        /* \"contracts/SyrupBar.sol\":27739:27751  _totalSupply */\n      sload(0x03)\n        /* \"contracts/SyrupBar.sol\":27739:27763  _totalSupply.sub(amount) */\n      tag_292\n      swap1\n        /* \"contracts/SyrupBar.sol\":27756:27762  amount */\n      dup3\n        /* \"contracts/SyrupBar.sol\":27739:27755  _totalSupply.sub */\n      tag_278\n        /* \"contracts/SyrupBar.sol\":27739:27763  _totalSupply.sub(amount) */\n      jump\t// in\n    tag_292:\n        /* \"contracts/SyrupBar.sol\":27724:27736  _totalSupply */\n      0x03\n        /* \"contracts/SyrupBar.sol\":27724:27763  _totalSupply = _totalSupply.sub(amount) */\n      sstore\n        /* \"contracts/SyrupBar.sol\":27779:27816  Transfer(account, address(0), amount) */\n      0x40\n      dup1\n      mload\n      dup3\n      dup2\n      mstore\n      swap1\n      mload\n        /* \"contracts/SyrupBar.sol\":27805:27806  0 */\n      0x00\n      swap2\n      sub(shl(0xa0, 0x01), 0x01)\n        /* \"contracts/SyrupBar.sol\":27779:27816  Transfer(account, address(0), amount) */\n      dup6\n      and\n      swap2\n      0xddf252ad1be2c89b69c2b068fc378daa952ba7f163c4a11628f55a4df523b3ef\n      swap2\n      dup2\n      swap1\n      sub\n      0x20\n      add\n      swap1\n      log3\n        /* \"contracts/SyrupBar.sol\":27476:27824  function _burn(address account, uint256 amount) internal {\r... */\n      pop\n      pop\n      jump\t// out\n        /* \"contracts/SyrupBar.sol\":47623:47776  function getChainId() internal pure returns (uint) {\r... */\n    tag_236:\n        /* \"contracts/SyrupBar.sol\":47733:47742  chainid() */\n      chainid\n        /* \"contracts/SyrupBar.sol\":47623:47776  function getChainId() internal pure returns (uint) {\r... */\n      swap1\n      jump\t// out\n        /* \"contracts/SyrupBar.sol\":3329:3558  function _transferOwnership(address newOwner) internal {\r... */\n    tag_249:\n      sub(shl(0xa0, 0x01), 0x01)\n        /* \"contracts/SyrupBar.sol\":3403:3425  newOwner != address(0) */\n      dup2\n      and\n        /* \"contracts/SyrupBar.sol\":3395:3468  require(newOwner != address(0), 'Ownable: new owner is the zero address') */\n      tag_295\n      jumpi\n      mload(0x40)\n      shl(0xe5, 0x461bcd)\n      dup2\n      mstore\n      0x04\n      add\n      dup1\n      dup1\n      0x20\n      add\n      dup3\n      dup2\n      sub\n      dup3\n      mstore\n      0x26\n      dup2\n      mstore\n      0x20\n      add\n      dup1\n      data_245f15ff17f551913a7a18385165551503906a406f905ac1c2437281a7cd0cfe\n      0x26\n      swap2\n      codecopy\n      0x40\n      add\n      swap2\n      pop\n      pop\n      mload(0x40)\n      dup1\n      swap2\n      sub\n      swap1\n      revert\n    tag_295:\n        /* \"contracts/SyrupBar.sol\":3505:3511  _owner */\n      0x00\n      dup1\n      sload\n        /* \"contracts/SyrupBar.sol\":3484:3522  OwnershipTransferred(_owner, newOwner) */\n      mload(0x40)\n      sub(shl(0xa0, 0x01), 0x01)\n      dup1\n      dup6\n      and\n      swap4\n        /* \"contracts/SyrupBar.sol\":3505:3511  _owner */\n      swap3\n      and\n      swap2\n        /* \"contracts/SyrupBar.sol\":3484:3522  OwnershipTransferred(_owner, newOwner) */\n      0x8be0079c531659141344cd1fd0a4f28419497f9722a3daafe3b4186f6b6457e0\n      swap2\n      log3\n        /* \"contracts/SyrupBar.sol\":3533:3539  _owner */\n      0x00\n        /* \"contracts/SyrupBar.sol\":3533:3550  _owner = newOwner */\n      dup1\n      sload\n      not(sub(shl(0xa0, 0x01), 0x01))\n      and\n      sub(shl(0xa0, 0x01), 0x01)\n      swap3\n      swap1\n      swap3\n      and\n      swap2\n      swap1\n      swap2\n      or\n      swap1\n      sstore\n        /* \"contracts/SyrupBar.sol\":3329:3558  function _transferOwnership(address newOwner) internal {\r... */\n      jump\t// out\n        /* \"contracts/SyrupBar.sol\":8028:8164  function sub(uint256 a, uint256 b) internal pure returns (uint256) {\r... */\n    tag_278:\n        /* \"contracts/SyrupBar.sol\":8086:8093  uint256 */\n      0x00\n        /* \"contracts/SyrupBar.sol\":8113:8156  sub(a, b, 'SafeMath: subtraction overflow') */\n      tag_232\n        /* \"contracts/SyrupBar.sol\":8117:8118  a */\n      dup4\n        /* \"contracts/SyrupBar.sol\":8120:8121  b */\n      dup4\n        /* \"contracts/SyrupBar.sol\":8113:8156  sub(a, b, 'SafeMath: subtraction overflow') */\n      mload(0x40)\n      dup1\n      0x40\n      add\n      0x40\n      mstore\n      dup1\n      0x1e\n      dup2\n      mstore\n      0x20\n      add\n      0x536166654d6174683a207375627472616374696f6e206f766572666c6f770000\n      dup2\n      mstore\n      pop\n        /* \"contracts/SyrupBar.sol\":8113:8116  sub */\n      tag_145\n        /* \"contracts/SyrupBar.sol\":8113:8156  sub(a, b, 'SafeMath: subtraction overflow') */\n      jump\t// in\n        /* \"contracts/SyrupBar.sol\":46738:47446  function _writeCheckpoint(\r... */\n    tag_280:\n        /* \"contracts/SyrupBar.sol\":46917:46935  uint32 blockNumber */\n      0x00\n        /* \"contracts/SyrupBar.sol\":46938:47018  safe32(block.number, \"Landbase::_writeCheckpoint: block number exceeds 32 bits\") */\n      tag_299\n        /* \"contracts/SyrupBar.sol\":46945:46957  block.number */\n      number\n        /* \"contracts/SyrupBar.sol\":46938:47018  safe32(block.number, \"Landbase::_writeCheckpoint: block number exceeds 32 bits\") */\n      mload(0x40)\n      dup1\n      0x60\n      add\n      0x40\n      mstore\n      dup1\n      0x38\n      dup2\n      mstore\n      0x20\n      add\n      data_ff32ea67761e2aa3948a5832e02debb1ecc1bee5309089b62f9646b42357aeb9\n      0x38\n      swap2\n      codecopy\n        /* \"contracts/SyrupBar.sol\":46938:46944  safe32 */\n      tag_300\n        /* \"contracts/SyrupBar.sol\":46938:47018  safe32(block.number, \"Landbase::_writeCheckpoint: block number exceeds 32 bits\") */\n      jump\t// in\n    tag_299:\n        /* \"contracts/SyrupBar.sol\":46917:47018  uint32 blockNumber = safe32(block.number, \"Landbase::_writeCheckpoint: block number exceeds 32 bits\") */\n      swap1\n      pop\n        /* \"contracts/SyrupBar.sol\":47050:47051  0 */\n      0x00\n        /* \"contracts/SyrupBar.sol\":47035:47047  nCheckpoints */\n      dup5\n        /* \"contracts/SyrupBar.sol\":47035:47051  nCheckpoints > 0 */\n      0xffffffff\n      and\n      gt\n        /* \"contracts/SyrupBar.sol\":47035:47120  nCheckpoints > 0 && checkpoints[delegatee][nCheckpoints - 1].fromBlock == blockNumber */\n      dup1\n      iszero\n      tag_301\n      jumpi\n      pop\n      sub(shl(0xa0, 0x01), 0x01)\n        /* \"contracts/SyrupBar.sol\":47055:47077  checkpoints[delegatee] */\n      dup6\n      and\n      0x00\n      swap1\n      dup2\n      mstore\n        /* \"contracts/SyrupBar.sol\":47055:47066  checkpoints */\n      0x08\n        /* \"contracts/SyrupBar.sol\":47055:47077  checkpoints[delegatee] */\n      0x20\n      swap1\n      dup2\n      mstore\n      0x40\n      dup1\n      dup4\n      keccak256\n        /* \"contracts/SyrupBar.sol\":47055:47120  checkpoints[delegatee][nCheckpoints - 1].fromBlock == blockNumber */\n      0xffffffff\n      not(0x00)\n        /* \"contracts/SyrupBar.sol\":47078:47094  nCheckpoints - 1 */\n      dup10\n      add\n        /* \"contracts/SyrupBar.sol\":47055:47095  checkpoints[delegatee][nCheckpoints - 1] */\n      dup2\n      and\n      dup6\n      mstore\n      swap3\n      mstore\n      swap1\n      swap2\n      keccak256\n        /* \"contracts/SyrupBar.sol\":47055:47105  checkpoints[delegatee][nCheckpoints - 1].fromBlock */\n      sload\n        /* \"contracts/SyrupBar.sol\":47055:47120  checkpoints[delegatee][nCheckpoints - 1].fromBlock == blockNumber */\n      dup3\n      dup3\n      and\n        /* \"contracts/SyrupBar.sol\":47055:47105  checkpoints[delegatee][nCheckpoints - 1].fromBlock */\n      swap2\n      and\n        /* \"contracts/SyrupBar.sol\":47055:47120  checkpoints[delegatee][nCheckpoints - 1].fromBlock == blockNumber */\n      eq\n        /* \"contracts/SyrupBar.sol\":47035:47120  nCheckpoints > 0 && checkpoints[delegatee][nCheckpoints - 1].fromBlock == blockNumber */\n    tag_301:\n        /* \"contracts/SyrupBar.sol\":47031:47370  if (nCheckpoints > 0 && checkpoints[delegatee][nCheckpoints - 1].fromBlock == blockNumber) {\r... */\n      iszero\n      tag_302\n      jumpi\n      sub(shl(0xa0, 0x01), 0x01)\n        /* \"contracts/SyrupBar.sol\":47137:47159  checkpoints[delegatee] */\n      dup6\n      and\n      0x00\n      swap1\n      dup2\n      mstore\n        /* \"contracts/SyrupBar.sol\":47137:47148  checkpoints */\n      0x08\n        /* \"contracts/SyrupBar.sol\":47137:47159  checkpoints[delegatee] */\n      0x20\n      swap1\n      dup2\n      mstore\n      0x40\n      dup1\n      dup4\n      keccak256\n        /* \"contracts/SyrupBar.sol\":47137:47177  checkpoints[delegatee][nCheckpoints - 1] */\n      0xffffffff\n      not(0x00)\n        /* \"contracts/SyrupBar.sol\":47160:47176  nCheckpoints - 1 */\n      dup10\n      add\n        /* \"contracts/SyrupBar.sol\":47137:47177  checkpoints[delegatee][nCheckpoints - 1] */\n      and\n      dup5\n      mstore\n      swap1\n      swap2\n      mstore\n      swap1\n      keccak256\n        /* \"contracts/SyrupBar.sol\":47175:47176  1 */\n      0x01\n        /* \"contracts/SyrupBar.sol\":47137:47183  checkpoints[delegatee][nCheckpoints - 1].votes */\n      add\n        /* \"contracts/SyrupBar.sol\":47137:47194  checkpoints[delegatee][nCheckpoints - 1].votes = newVotes */\n      dup3\n      swap1\n      sstore\n        /* \"contracts/SyrupBar.sol\":47031:47370  if (nCheckpoints > 0 && checkpoints[delegatee][nCheckpoints - 1].fromBlock == blockNumber) {\r... */\n      jump(tag_303)\n    tag_302:\n        /* \"contracts/SyrupBar.sol\":47266:47299  Checkpoint(blockNumber, newVotes) */\n      0x40\n      dup1\n      mload\n      dup1\n      dup3\n      add\n      dup3\n      mstore\n      0xffffffff\n      dup1\n      dup5\n      and\n      dup3\n      mstore\n      0x20\n      dup1\n      dup4\n      add\n      dup7\n      dup2\n      mstore\n      sub(shl(0xa0, 0x01), 0x01)\n        /* \"contracts/SyrupBar.sol\":47227:47249  checkpoints[delegatee] */\n      dup11\n      and\n      0x00\n      dup2\n      dup2\n      mstore\n        /* \"contracts/SyrupBar.sol\":47227:47238  checkpoints */\n      0x08\n        /* \"contracts/SyrupBar.sol\":47227:47249  checkpoints[delegatee] */\n      dup5\n      mstore\n      dup7\n      dup2\n      keccak256\n        /* \"contracts/SyrupBar.sol\":47227:47263  checkpoints[delegatee][nCheckpoints] */\n      dup12\n      dup7\n      and\n      dup3\n      mstore\n      dup5\n      mstore\n      dup7\n      dup2\n      keccak256\n        /* \"contracts/SyrupBar.sol\":47227:47299  checkpoints[delegatee][nCheckpoints] = Checkpoint(blockNumber, newVotes) */\n      swap6\n      mload\n      dup7\n      sload\n      swap1\n      dup7\n      and\n      not(0xffffffff)\n      swap2\n      dup3\n      and\n      or\n      dup8\n      sstore\n      swap3\n      mload\n      0x01\n      swap7\n      dup8\n      add\n      sstore\n        /* \"contracts/SyrupBar.sol\":47314:47339  numCheckpoints[delegatee] */\n      swap1\n      dup2\n      mstore\n        /* \"contracts/SyrupBar.sol\":47314:47328  numCheckpoints */\n      0x09\n        /* \"contracts/SyrupBar.sol\":47314:47339  numCheckpoints[delegatee] */\n      swap1\n      swap3\n      mstore\n      swap4\n      swap1\n      keccak256\n        /* \"contracts/SyrupBar.sol\":47314:47358  numCheckpoints[delegatee] = nCheckpoints + 1 */\n      dup1\n      sload\n        /* \"contracts/SyrupBar.sol\":47342:47358  nCheckpoints + 1 */\n      swap3\n      dup9\n      add\n        /* \"contracts/SyrupBar.sol\":47314:47358  numCheckpoints[delegatee] = nCheckpoints + 1 */\n      swap1\n      swap2\n      and\n      swap2\n      swap1\n      swap3\n      and\n      or\n      swap1\n      sstore\n        /* \"contracts/SyrupBar.sol\":47031:47370  if (nCheckpoints > 0 && checkpoints[delegatee][nCheckpoints - 1].fromBlock == blockNumber) {\r... */\n    tag_303:\n        /* \"contracts/SyrupBar.sol\":47387:47438  DelegateVotesChanged(delegatee, oldVotes, newVotes) */\n      0x40\n      dup1\n      mload\n      dup5\n      dup2\n      mstore\n      0x20\n      dup2\n      add\n      dup5\n      swap1\n      mstore\n      dup2\n      mload\n      sub(shl(0xa0, 0x01), 0x01)\n      dup9\n      and\n      swap3\n      0xdec2bacdd2f05b59de34da9b523dff8be42e5e38e818c82fdb0bae774387a724\n      swap3\n      dup3\n      swap1\n      sub\n      add\n      swap1\n      log2\n        /* \"contracts/SyrupBar.sol\":46738:47446  function _writeCheckpoint(\r... */\n      pop\n      pop\n      pop\n      pop\n      pop\n      jump\t// out\n        /* \"contracts/SyrupBar.sol\":47454:47615  function safe32(uint n, string memory errorMessage) internal pure returns (uint32) {\r... */\n    tag_300:\n        /* \"contracts/SyrupBar.sol\":47529:47535  uint32 */\n      0x00\n        /* \"contracts/SyrupBar.sol\":47567:47579  errorMessage */\n      dup2\n        /* \"contracts/SyrupBar.sol\":47560:47565  2**32 */\n      0x0100000000\n        /* \"contracts/SyrupBar.sol\":47556:47565  n < 2**32 */\n      dup5\n      lt\n        /* \"contracts/SyrupBar.sol\":47548:47580  require(n < 2**32, errorMessage) */\n      tag_305\n      jumpi\n      mload(0x40)\n      shl(0xe5, 0x461bcd)\n      dup2\n      mstore\n      0x20\n      0x04\n      dup3\n      add\n      dup2\n      dup2\n      mstore\n      dup4\n      mload\n      0x24\n      dup5\n      add\n      mstore\n      dup4\n      mload\n      swap1\n      swap3\n      dup4\n      swap3\n      0x44\n      swap1\n      swap2\n      add\n      swap2\n      swap1\n      dup6\n      add\n      swap1\n      dup1\n      dup4\n      dup4\n      0x00\n      dup4\n      iszero\n      tag_263\n      jumpi\n      dup2\n      dup2\n      add\n      mload\n      dup4\n      dup3\n      add\n      mstore\n      0x20\n      add\n      jump(tag_261)\n    tag_305:\n      pop\n        /* \"contracts/SyrupBar.sol\":47605:47606  n */\n      swap2\n      swap3\n        /* \"contracts/SyrupBar.sol\":47454:47615  function safe32(uint n, string memory errorMessage) internal pure returns (uint32) {\r... */\n      swap2\n      pop\n      pop\n      jump\t// out\n    tag_179:\n      0x40\n      dup1\n      mload\n      dup1\n      dup3\n      add\n      swap1\n      swap2\n      mstore\n      0x00\n      dup1\n      dup3\n      mstore\n      0x20\n      dup3\n      add\n      mstore\n      swap1\n      jump\t// out\n    stop\n    data_0d26cf302d50b28de74be656b11d67092b32131e5712d1bcf08c4e976dacda57 42455032303a207472616e736665722066726f6d20746865207a65726f2061646472657373\n    data_1441cfbef485de93bedecc35b3d10fa2992db382c4c9c583a6e423a140abe4a4 42455032303a20617070726f76652066726f6d20746865207a65726f2061646472657373\n    data_245f15ff17f551913a7a18385165551503906a406f905ac1c2437281a7cd0cfe 4f776e61626c653a206e6577206f776e657220697320746865207a65726f2061646472657373\n    data_39d7bbb45a7f857f51f14c10411958da3f5ab325b0c33833fa65742bf2097f9a 4c616e64626173653a3a6765745072696f72566f7465733a206e6f74207965742064657465726d696e6564\n    data_4f3506f4ba71c79c3cbd442a3afeb30e9b27af2d84e116a4385b34e267d2287e 42455032303a207472616e7366657220616d6f756e74206578636565647320616c6c6f77616e6365\n    data_52b45e49c6df20e4094f486f8ef471413d643444184254d8ad88dd14fa698d80 4c616e64626173653a3a64656c656761746542795369673a20696e76616c6964207369676e6174757265\n    data_68820ae31220f4af6532a2956b153f3d6ac9d2c3ffedb545abd2f8b0fcda759c 4c616e64626173653a3a64656c656761746542795369673a207369676e61747572652065787069726564\n    data_6f3e5d34f0c300db85e21c6ba2f3a7cc520248f798eb85964b026f02f8cba141 4c616e64626173653a3a64656c656761746542795369673a20696e76616c6964206e6f6e6365\n    data_9924ebdf1add33d25d4ef888e16131f0a5687b0580a36c21b5c301a6c462effe 4f776e61626c653a2063616c6c6572206973206e6f7420746865206f776e6572\n    data_a91efd7a65ef5b4ae4d6568d674798b78a5a89184dd296c100513251c22d3e73 42455032303a207472616e7366657220616d6f756e7420657863656564732062616c616e6365\n    data_ade9efcb59e42e439ffe61509b352b1af56d64ccb68d80b039b7b69578f371d2 42455032303a207472616e7366657220746f20746865207a65726f2061646472657373\n    data_b7060b3538dcd3ddc8a941c91636a8115a1aa46914747fd9809d543bbb46cd22 42455032303a2064656372656173656420616c6c6f77616e63652062656c6f77207a65726f\n    data_b81edbf10508d9b81724f18ff8f3d8bfba9790734ce1f1c54dfe1030b4914855 42455032303a206275726e2066726f6d20746865207a65726f2061646472657373\n    data_deaa84b30175fd0578812c46240362b7914652a35e6707ad7e1556891e4ae032 42455032303a206275726e20616d6f756e7420657863656564732062616c616e6365\n    data_f10e7571e18b354270dee950932fb6a745efc79414b2b2556185a4ed6a1af0d5 42455032303a20617070726f766520746f20746865207a65726f2061646472657373\n    data_ff32ea67761e2aa3948a5832e02debb1ecc1bee5309089b62f9646b42357aeb9 4c616e64626173653a3a5f7772697465436865636b706f696e743a20626c6f636b206e756d62657220657863656564732033322062697473\n\n    auxdata: 0xa2646970667358221220ca1e10331be7075c9e5a110ee2ca84cfded6d05220077c5c65dfd3c6743b019464736f6c634300060c0033\n}\n",
				"bytecode": {
					"linkReferences": {},
					"object": "60806040523480156200001157600080fd5b50604051620021ac380380620021ac833981810160405260208110156200003757600080fd5b5051604080518082018252600e81526d29bcb93ab82130b9102a37b5b2b760911b60208281019190915282518084019093526005835264053595255560dc1b908301529060006200008762000136565b600080546001600160a01b0319166001600160a01b0383169081178255604051929350917f8be0079c531659141344cd1fd0a4f28419497f9722a3daafe3b4186f6b6457e0908290a3508151620000e69060049060208501906200013a565b508051620000fc9060059060208401906200013a565b5050600680546001600160a01b0390931661010002610100600160a81b031960ff19909416601217939093169290921790915550620001d6565b3390565b828054600181600116156101000203166002900490600052602060002090601f016020900481019282601f106200017d57805160ff1916838001178555620001ad565b82800160010185558215620001ad579182015b82811115620001ad57825182559160200191906001019062000190565b50620001bb929150620001bf565b5090565b5b80821115620001bb5760008155600101620001c0565b611fc680620001e66000396000f3fe608060405234801561001057600080fd5b50600436106101da5760003560e01c80637ecebe0011610104578063a457c2d7116100a2578063dd62ed3e11610071578063dd62ed3e146105ed578063e7a324dc1461061b578063f1127ed814610623578063f2fde38b14610675576101da565b8063a457c2d714610528578063a9059cbb14610554578063b4b5ea5714610580578063c3cda520146105a6576101da565b806395d89b41116100de57806395d89b41146104ab5780639dc29fac146104b3578063a0712d68146104df578063a2e6ddcc146104fc576101da565b80637ecebe0014610475578063893d20e81461049b5780638da5cb5b146104a3576101da565b8063395093511161017c5780636fcfff451161014b5780636fcfff45146103dc57806370a082311461041b578063715018a614610441578063782d6fe114610449576101da565b8063395093511461033657806340c10f1914610362578063587cde1e146103905780635c19a95c146103b6576101da565b806320606b70116101b857806320606b70146102b657806323b872dd146102be578063313ce567146102f4578063358892ec14610312576101da565b806306fdde03146101df578063095ea7b31461025c57806318160ddd1461029c575b600080fd5b6101e761069b565b6040805160208082528351818301528351919283929083019185019080838360005b83811015610221578181015183820152602001610209565b50505050905090810190601f16801561024e5780820380516001836020036101000a031916815260200191505b509250505060405180910390f35b6102886004803603604081101561027257600080fd5b506001600160a01b038135169060200135610731565b604080519115158252519081900360200190f35b6102a461074f565b60408051918252519081900360200190f35b6102a4610755565b610288600480360360608110156102d457600080fd5b506001600160a01b03813581169160208101359091169060400135610779565b6102fc610800565b6040805160ff9092168252519081900360200190f35b61031a610809565b604080516001600160a01b039092168252519081900360200190f35b6102886004803603604081101561034c57600080fd5b506001600160a01b03813516906020013561081d565b61038e6004803603604081101561037857600080fd5b506001600160a01b03813516906020013561086b565b005b61031a600480360360208110156103a657600080fd5b50356001600160a01b03166108f6565b61038e600480360360208110156103cc57600080fd5b50356001600160a01b0316610914565b610402600480360360208110156103f257600080fd5b50356001600160a01b0316610921565b6040805163ffffffff9092168252519081900360200190f35b6102a46004803603602081101561043157600080fd5b50356001600160a01b0316610939565b61038e610954565b6102a46004803603604081101561045f57600080fd5b506001600160a01b0381351690602001356109f6565b6102a46004803603602081101561048b57600080fd5b50356001600160a01b0316610bfe565b61031a610c10565b61031a610c1f565b6101e7610c2e565b61038e600480360360408110156104c957600080fd5b506001600160a01b038135169060200135610c8f565b610288600480360360208110156104f557600080fd5b5035610cf1565b61038e6004803603604081101561051257600080fd5b506001600160a01b038135169060200135610d64565b6102886004803603604081101561053e57600080fd5b506001600160a01b038135169060200135610f5e565b6102886004803603604081101561056a57600080fd5b506001600160a01b038135169060200135610fc6565b6102a46004803603602081101561059657600080fd5b50356001600160a01b0316610fda565b61038e600480360360c08110156105bc57600080fd5b506001600160a01b038135169060208101359060408101359060ff6060820135169060808101359060a0013561103e565b6102a46004803603604081101561060357600080fd5b506001600160a01b03813581169160200135166112b1565b6102a46112dc565b6106556004803603604081101561063957600080fd5b5080356001600160a01b0316906020013563ffffffff16611300565b6040805163ffffffff909316835260208301919091528051918290030190f35b61038e6004803603602081101561068b57600080fd5b50356001600160a01b031661132d565b60048054604080516020601f60026000196101006001881615020190951694909404938401819004810282018101909252828152606093909290918301828280156107275780601f106106fc57610100808354040283529160200191610727565b820191906000526020600020905b81548152906001019060200180831161070a57829003601f168201915b5050505050905090565b600061074561073e61138e565b8484611392565b5060015b92915050565b60035490565b7f8cad95687ba82c2ce50e74f7b754645e5117c3a5bec8151c0726d5857980a86681565b600061078684848461147e565b6107f68461079261138e565b6107f185604051806060016040528060288152602001611dc4602891396001600160a01b038a166000908152600260205260408120906107d061138e565b6001600160a01b0316815260208101919091526040016000205491906115d0565b611392565b5060019392505050565b60065460ff1690565b60065461010090046001600160a01b031681565b600061074561082a61138e565b846107f1856002600061083b61138e565b6001600160a01b03908116825260208083019390935260409182016000908120918c168152925290205490611667565b61087361138e565b6000546001600160a01b039081169116146108c3576040805162461bcd60e51b81526020600482018190526024820152600080516020611e66833981519152604482015290519081900360640190fd5b6108cd82826116c1565b6001600160a01b038083166000908152600760205260408120546108f29216836117a7565b5050565b6001600160a01b039081166000908152600760205260409020541690565b61091e33826118e4565b50565b60096020526000908152604090205463ffffffff1681565b6001600160a01b031660009081526001602052604090205490565b61095c61138e565b6000546001600160a01b039081169116146109ac576040805162461bcd60e51b81526020600482018190526024820152600080516020611e66833981519152604482015290519081900360640190fd5b600080546040516001600160a01b03909116907f8be0079c531659141344cd1fd0a4f28419497f9722a3daafe3b4186f6b6457e0908390a3600080546001600160a01b0319169055565b6000438210610a365760405162461bcd60e51b815260040180806020018281038252602b815260200180611d99602b913960400191505060405180910390fd5b6001600160a01b03831660009081526009602052604090205463ffffffff1680610a64576000915050610749565b6001600160a01b038416600090815260086020908152604080832063ffffffff600019860181168552925290912054168310610ad3576001600160a01b03841660009081526008602090815260408083206000199490940163ffffffff16835292905220600101549050610749565b6001600160a01b038416600090815260086020908152604080832083805290915290205463ffffffff16831015610b0e576000915050610749565b600060001982015b8163ffffffff168163ffffffff161115610bc757600282820363ffffffff16048103610b40611d12565b506001600160a01b038716600090815260086020908152604080832063ffffffff808616855290835292819020815180830190925280549093168082526001909301549181019190915290871415610ba2576020015194506107499350505050565b805163ffffffff16871115610bb957819350610bc0565b6001820392505b5050610b16565b506001600160a01b038516600090815260086020908152604080832063ffffffff9094168352929052206001015491505092915050565b600a6020526000908152604090205481565b6000610c1a610c1f565b905090565b6000546001600160a01b031690565b60058054604080516020601f60026000196101006001881615020190951694909404938401819004810282018101909252828152606093909290918301828280156107275780601f106106fc57610100808354040283529160200191610727565b610c9761138e565b6000546001600160a01b03908116911614610ce7576040805162461bcd60e51b81526020600482018190526024820152600080516020611e66833981519152604482015290519081900360640190fd5b6108cd8282611979565b6000610cfb61138e565b6000546001600160a01b03908116911614610d4b576040805162461bcd60e51b81526020600482018190526024820152600080516020611e66833981519152604482015290519081900360640190fd5b610d5c610d5661138e565b836116c1565b506001919050565b610d6c61138e565b6000546001600160a01b03908116911614610dbc576040805162461bcd60e51b81526020600482018190526024820152600080516020611e66833981519152604482015290519081900360640190fd5b600654604080516370a0823160e01b8152306004820152905160009261010090046001600160a01b0316916370a08231916024808301926020929190829003018186803b158015610e0c57600080fd5b505afa158015610e20573d6000803e3d6000fd5b505050506040513d6020811015610e3657600080fd5b5051905080821115610ed0576006546040805163a9059cbb60e01b81526001600160a01b0386811660048301526024820185905291516101009093049091169163a9059cbb916044808201926020929091908290030181600087803b158015610e9e57600080fd5b505af1158015610eb2573d6000803e3d6000fd5b505050506040513d6020811015610ec857600080fd5b50610f599050565b6006546040805163a9059cbb60e01b81526001600160a01b0386811660048301526024820186905291516101009093049091169163a9059cbb916044808201926020929091908290030181600087803b158015610f2c57600080fd5b505af1158015610f40573d6000803e3d6000fd5b505050506040513d6020811015610f5657600080fd5b50505b505050565b6000610745610f6b61138e565b846107f185604051806060016040528060258152602001611ecf6025913960026000610f9561138e565b6001600160a01b03908116825260208083019390935260409182016000908120918d168152925290205491906115d0565b6000610745610fd361138e565b848461147e565b6001600160a01b03811660009081526009602052604081205463ffffffff1680611005576000611037565b6001600160a01b038316600090815260086020908152604080832063ffffffff60001986011684529091529020600101545b9392505050565b60007f8cad95687ba82c2ce50e74f7b754645e5117c3a5bec8151c0726d5857980a86661106961069b565b80519060200120611078611a69565b60408051602080820195909552808201939093526060830191909152306080808401919091528151808403909101815260a0830182528051908401207fe48329057bfd03d55e49b547132e39cffd9c1820ad7b9d4c5307691425d15adf60c08401526001600160a01b038b1660e084015261010083018a90526101208084018a9052825180850390910181526101408401835280519085012061190160f01b6101608501526101628401829052610182808501829052835180860390910181526101a285018085528151918701919091206000918290526101c2860180865281905260ff8b166101e287015261020286018a90526102228601899052935192965090949293909260019261024280840193601f198301929081900390910190855afa1580156111ab573d6000803e3d6000fd5b5050604051601f1901519150506001600160a01b0381166111fd5760405162461bcd60e51b815260040180806020018281038252602a815260200180611dec602a913960400191505060405180910390fd5b6001600160a01b0381166000908152600a60205260409020805460018101909155891461125b5760405162461bcd60e51b8152600401808060200182810382526026815260200180611e406026913960400191505060405180910390fd5b8742111561129a5760405162461bcd60e51b815260040180806020018281038252602a815260200180611e16602a913960400191505060405180910390fd5b6112a4818b6118e4565b505050505b505050505050565b6001600160a01b03918216600090815260026020908152604080832093909416825291909152205490565b7fe48329057bfd03d55e49b547132e39cffd9c1820ad7b9d4c5307691425d15adf81565b60086020908152600092835260408084209091529082529020805460019091015463ffffffff9091169082565b61133561138e565b6000546001600160a01b03908116911614611385576040805162461bcd60e51b81526020600482018190526024820152600080516020611e66833981519152604482015290519081900360640190fd5b61091e81611a6d565b3390565b6001600160a01b0383166113d75760405162461bcd60e51b8152600401808060200182810382526024815260200180611d4f6024913960400191505060405180910390fd5b6001600160a01b03821661141c5760405162461bcd60e51b8152600401808060200182810382526022815260200180611f376022913960400191505060405180910390fd5b6001600160a01b03808416600081815260026020908152604080832094871680845294825291829020859055815185815291517f8c5be1e5ebec7d5bd14f71427d1e84f3dd0314c0f7b2291e5b200ac8c7c3b9259281900390910190a3505050565b6001600160a01b0383166114c35760405162461bcd60e51b8152600401808060200182810382526025815260200180611d2a6025913960400191505060405180910390fd5b6001600160a01b0382166115085760405162461bcd60e51b8152600401808060200182810382526023815260200180611eac6023913960400191505060405180910390fd5b61154581604051806060016040528060268152602001611e86602691396001600160a01b03861660009081526001602052604090205491906115d0565b6001600160a01b0380851660009081526001602052604080822093909355908416815220546115749082611667565b6001600160a01b0380841660008181526001602090815260409182902094909455805185815290519193928716927fddf252ad1be2c89b69c2b068fc378daa952ba7f163c4a11628f55a4df523b3ef92918290030190a3505050565b6000818484111561165f5760405162461bcd60e51b81526004018080602001828103825283818151815260200191508051906020019080838360005b8381101561162457818101518382015260200161160c565b50505050905090810190601f1680156116515780820380516001836020036101000a031916815260200191505b509250505060405180910390fd5b505050900390565b600082820183811015611037576040805162461bcd60e51b815260206004820152601b60248201527f536166654d6174683a206164646974696f6e206f766572666c6f770000000000604482015290519081900360640190fd5b6001600160a01b03821661171c576040805162461bcd60e51b815260206004820152601f60248201527f42455032303a206d696e7420746f20746865207a65726f206164647265737300604482015290519081900360640190fd5b6003546117299082611667565b6003556001600160a01b03821660009081526001602052604090205461174f9082611667565b6001600160a01b03831660008181526001602090815260408083209490945583518581529351929391927fddf252ad1be2c89b69c2b068fc378daa952ba7f163c4a11628f55a4df523b3ef9281900390910190a35050565b816001600160a01b0316836001600160a01b0316141580156117c95750600081115b15610f59576001600160a01b0383161561185b576001600160a01b03831660009081526009602052604081205463ffffffff16908161180957600061183b565b6001600160a01b038516600090815260086020908152604080832063ffffffff60001987011684529091529020600101545b905060006118498285611b0d565b905061185786848484611b4f565b5050505b6001600160a01b03821615610f59576001600160a01b03821660009081526009602052604081205463ffffffff1690816118965760006118c8565b6001600160a01b038416600090815260086020908152604080832063ffffffff60001987011684529091529020600101545b905060006118d68285611667565b90506112a985848484611b4f565b6001600160a01b038083166000908152600760205260408120549091169061190b84610939565b6001600160a01b0385811660008181526007602052604080822080546001600160a01b031916898616908117909155905194955093928616927f3134e8a2e6d97e929a7e54011ea5485d7d196dd5f0ba4d4ef95803e8e3fc257f9190a46119738284836117a7565b50505050565b6001600160a01b0382166119be5760405162461bcd60e51b8152600401808060200182810382526021815260200180611ef46021913960400191505060405180910390fd5b6119fb81604051806060016040528060228152602001611f15602291396001600160a01b03851660009081526001602052604090205491906115d0565b6001600160a01b038316600090815260016020526040902055600354611a219082611b0d565b6003556040805182815290516000916001600160a01b038516917fddf252ad1be2c89b69c2b068fc378daa952ba7f163c4a11628f55a4df523b3ef9181900360200190a35050565b4690565b6001600160a01b038116611ab25760405162461bcd60e51b8152600401808060200182810382526026815260200180611d736026913960400191505060405180910390fd5b600080546040516001600160a01b03808516939216917f8be0079c531659141344cd1fd0a4f28419497f9722a3daafe3b4186f6b6457e091a3600080546001600160a01b0319166001600160a01b0392909216919091179055565b600061103783836040518060400160405280601e81526020017f536166654d6174683a207375627472616374696f6e206f766572666c6f7700008152506115d0565b6000611b7343604051806060016040528060388152602001611f5960389139611cb4565b905060008463ffffffff16118015611bbc57506001600160a01b038516600090815260086020908152604080832063ffffffff6000198901811685529252909120548282169116145b15611bf9576001600160a01b038516600090815260086020908152604080832063ffffffff60001989011684529091529020600101829055611c6a565b60408051808201825263ffffffff808416825260208083018681526001600160a01b038a166000818152600884528681208b8616825284528681209551865490861663ffffffff19918216178755925160019687015590815260099092529390208054928801909116919092161790555b604080518481526020810184905281516001600160a01b038816927fdec2bacdd2f05b59de34da9b523dff8be42e5e38e818c82fdb0bae774387a724928290030190a25050505050565b6000816401000000008410611d0a5760405162461bcd60e51b815260206004820181815283516024840152835190928392604490910191908501908083836000831561162457818101518382015260200161160c565b509192915050565b60408051808201909152600080825260208201529056fe42455032303a207472616e736665722066726f6d20746865207a65726f206164647265737342455032303a20617070726f76652066726f6d20746865207a65726f20616464726573734f776e61626c653a206e6577206f776e657220697320746865207a65726f20616464726573734c616e64626173653a3a6765745072696f72566f7465733a206e6f74207965742064657465726d696e656442455032303a207472616e7366657220616d6f756e74206578636565647320616c6c6f77616e63654c616e64626173653a3a64656c656761746542795369673a20696e76616c6964207369676e61747572654c616e64626173653a3a64656c656761746542795369673a207369676e617475726520657870697265644c616e64626173653a3a64656c656761746542795369673a20696e76616c6964206e6f6e63654f776e61626c653a2063616c6c6572206973206e6f7420746865206f776e657242455032303a207472616e7366657220616d6f756e7420657863656564732062616c616e636542455032303a207472616e7366657220746f20746865207a65726f206164647265737342455032303a2064656372656173656420616c6c6f77616e63652062656c6f77207a65726f42455032303a206275726e2066726f6d20746865207a65726f206164647265737342455032303a206275726e20616d6f756e7420657863656564732062616c616e636542455032303a20617070726f766520746f20746865207a65726f20616464726573734c616e64626173653a3a5f7772697465436865636b706f696e743a20626c6f636b206e756d62657220657863656564732033322062697473a2646970667358221220ca1e10331be7075c9e5a110ee2ca84cfded6d05220077c5c65dfd3c6743b019464736f6c634300060c0033",
					"opcodes": "PUSH1 0x80 PUSH1 0x40 MSTORE CALLVALUE DUP1 ISZERO PUSH3 0x11 JUMPI PUSH1 0x0 DUP1 REVERT JUMPDEST POP PUSH1 0x40 MLOAD PUSH3 0x21AC CODESIZE SUB DUP1 PUSH3 0x21AC DUP4 CODECOPY DUP2 DUP2 ADD PUSH1 0x40 MSTORE PUSH1 0x20 DUP2 LT ISZERO PUSH3 0x37 JUMPI PUSH1 0x0 DUP1 REVERT JUMPDEST POP MLOAD PUSH1 0x40 DUP1 MLOAD DUP1 DUP3 ADD DUP3 MSTORE PUSH1 0xE DUP2 MSTORE PUSH14 0x29BCB93AB82130B9102A37B5B2B7 PUSH1 0x91 SHL PUSH1 0x20 DUP3 DUP2 ADD SWAP2 SWAP1 SWAP2 MSTORE DUP3 MLOAD DUP1 DUP5 ADD SWAP1 SWAP4 MSTORE PUSH1 0x5 DUP4 MSTORE PUSH5 0x535952555 PUSH1 0xDC SHL SWAP1 DUP4 ADD MSTORE SWAP1 PUSH1 0x0 PUSH3 0x87 PUSH3 0x136 JUMP JUMPDEST PUSH1 0x0 DUP1 SLOAD PUSH1 0x1 PUSH1 0x1 PUSH1 0xA0 SHL SUB NOT AND PUSH1 0x1 PUSH1 0x1 PUSH1 0xA0 SHL SUB DUP4 AND SWAP1 DUP2 OR DUP3 SSTORE PUSH1 0x40 MLOAD SWAP3 SWAP4 POP SWAP2 PUSH32 0x8BE0079C531659141344CD1FD0A4F28419497F9722A3DAAFE3B4186F6B6457E0 SWAP1 DUP3 SWAP1 LOG3 POP DUP2 MLOAD PUSH3 0xE6 SWAP1 PUSH1 0x4 SWAP1 PUSH1 0x20 DUP6 ADD SWAP1 PUSH3 0x13A JUMP JUMPDEST POP DUP1 MLOAD PUSH3 0xFC SWAP1 PUSH1 0x5 SWAP1 PUSH1 0x20 DUP5 ADD SWAP1 PUSH3 0x13A JUMP JUMPDEST POP POP PUSH1 0x6 DUP1 SLOAD PUSH1 0x1 PUSH1 0x1 PUSH1 0xA0 SHL SUB SWAP1 SWAP4 AND PUSH2 0x100 MUL PUSH2 0x100 PUSH1 0x1 PUSH1 0xA8 SHL SUB NOT PUSH1 0xFF NOT SWAP1 SWAP5 AND PUSH1 0x12 OR SWAP4 SWAP1 SWAP4 AND SWAP3 SWAP1 SWAP3 OR SWAP1 SWAP2 SSTORE POP PUSH3 0x1D6 JUMP JUMPDEST CALLER SWAP1 JUMP JUMPDEST DUP3 DUP1 SLOAD PUSH1 0x1 DUP2 PUSH1 0x1 AND ISZERO PUSH2 0x100 MUL SUB AND PUSH1 0x2 SWAP1 DIV SWAP1 PUSH1 0x0 MSTORE PUSH1 0x20 PUSH1 0x0 KECCAK256 SWAP1 PUSH1 0x1F ADD PUSH1 0x20 SWAP1 DIV DUP2 ADD SWAP3 DUP3 PUSH1 0x1F LT PUSH3 0x17D JUMPI DUP1 MLOAD PUSH1 0xFF NOT AND DUP4 DUP1 ADD OR DUP6 SSTORE PUSH3 0x1AD JUMP JUMPDEST DUP3 DUP1 ADD PUSH1 0x1 ADD DUP6 SSTORE DUP3 ISZERO PUSH3 0x1AD JUMPI SWAP2 DUP3 ADD JUMPDEST DUP3 DUP2 GT ISZERO PUSH3 0x1AD JUMPI DUP3 MLOAD DUP3 SSTORE SWAP2 PUSH1 0x20 ADD SWAP2 SWAP1 PUSH1 0x1 ADD SWAP1 PUSH3 0x190 JUMP JUMPDEST POP PUSH3 0x1BB SWAP3 SWAP2 POP PUSH3 0x1BF JUMP JUMPDEST POP SWAP1 JUMP JUMPDEST JUMPDEST DUP1 DUP3 GT ISZERO PUSH3 0x1BB JUMPI PUSH1 0x0 DUP2 SSTORE PUSH1 0x1 ADD PUSH3 0x1C0 JUMP JUMPDEST PUSH2 0x1FC6 DUP1 PUSH3 0x1E6 PUSH1 0x0 CODECOPY PUSH1 0x0 RETURN INVALID PUSH1 0x80 PUSH1 0x40 MSTORE CALLVALUE DUP1 ISZERO PUSH2 0x10 JUMPI PUSH1 0x0 DUP1 REVERT JUMPDEST POP PUSH1 0x4 CALLDATASIZE LT PUSH2 0x1DA JUMPI PUSH1 0x0 CALLDATALOAD PUSH1 0xE0 SHR DUP1 PUSH4 0x7ECEBE00 GT PUSH2 0x104 JUMPI DUP1 PUSH4 0xA457C2D7 GT PUSH2 0xA2 JUMPI DUP1 PUSH4 0xDD62ED3E GT PUSH2 0x71 JUMPI DUP1 PUSH4 0xDD62ED3E EQ PUSH2 0x5ED JUMPI DUP1 PUSH4 0xE7A324DC EQ PUSH2 0x61B JUMPI DUP1 PUSH4 0xF1127ED8 EQ PUSH2 0x623 JUMPI DUP1 PUSH4 0xF2FDE38B EQ PUSH2 0x675 JUMPI PUSH2 0x1DA JUMP JUMPDEST DUP1 PUSH4 0xA457C2D7 EQ PUSH2 0x528 JUMPI DUP1 PUSH4 0xA9059CBB EQ PUSH2 0x554 JUMPI DUP1 PUSH4 0xB4B5EA57 EQ PUSH2 0x580 JUMPI DUP1 PUSH4 0xC3CDA520 EQ PUSH2 0x5A6 JUMPI PUSH2 0x1DA JUMP JUMPDEST DUP1 PUSH4 0x95D89B41 GT PUSH2 0xDE JUMPI DUP1 PUSH4 0x95D89B41 EQ PUSH2 0x4AB JUMPI DUP1 PUSH4 0x9DC29FAC EQ PUSH2 0x4B3 JUMPI DUP1 PUSH4 0xA0712D68 EQ PUSH2 0x4DF JUMPI DUP1 PUSH4 0xA2E6DDCC EQ PUSH2 0x4FC JUMPI PUSH2 0x1DA JUMP JUMPDEST DUP1 PUSH4 0x7ECEBE00 EQ PUSH2 0x475 JUMPI DUP1 PUSH4 0x893D20E8 EQ PUSH2 0x49B JUMPI DUP1 PUSH4 0x8DA5CB5B EQ PUSH2 0x4A3 JUMPI PUSH2 0x1DA JUMP JUMPDEST DUP1 PUSH4 0x39509351 GT PUSH2 0x17C JUMPI DUP1 PUSH4 0x6FCFFF45 GT PUSH2 0x14B JUMPI DUP1 PUSH4 0x6FCFFF45 EQ PUSH2 0x3DC JUMPI DUP1 PUSH4 0x70A08231 EQ PUSH2 0x41B JUMPI DUP1 PUSH4 0x715018A6 EQ PUSH2 0x441 JUMPI DUP1 PUSH4 0x782D6FE1 EQ PUSH2 0x449 JUMPI PUSH2 0x1DA JUMP JUMPDEST DUP1 PUSH4 0x39509351 EQ PUSH2 0x336 JUMPI DUP1 PUSH4 0x40C10F19 EQ PUSH2 0x362 JUMPI DUP1 PUSH4 0x587CDE1E EQ PUSH2 0x390 JUMPI DUP1 PUSH4 0x5C19A95C EQ PUSH2 0x3B6 JUMPI PUSH2 0x1DA JUMP JUMPDEST DUP1 PUSH4 0x20606B70 GT PUSH2 0x1B8 JUMPI DUP1 PUSH4 0x20606B70 EQ PUSH2 0x2B6 JUMPI DUP1 PUSH4 0x23B872DD EQ PUSH2 0x2BE JUMPI DUP1 PUSH4 0x313CE567 EQ PUSH2 0x2F4 JUMPI DUP1 PUSH4 0x358892EC EQ PUSH2 0x312 JUMPI PUSH2 0x1DA JUMP JUMPDEST DUP1 PUSH4 0x6FDDE03 EQ PUSH2 0x1DF JUMPI DUP1 PUSH4 0x95EA7B3 EQ PUSH2 0x25C JUMPI DUP1 PUSH4 0x18160DDD EQ PUSH2 0x29C JUMPI JUMPDEST PUSH1 0x0 DUP1 REVERT JUMPDEST PUSH2 0x1E7 PUSH2 0x69B JUMP JUMPDEST PUSH1 0x40 DUP1 MLOAD PUSH1 0x20 DUP1 DUP3 MSTORE DUP4 MLOAD DUP2 DUP4 ADD MSTORE DUP4 MLOAD SWAP2 SWAP3 DUP4 SWAP3 SWAP1 DUP4 ADD SWAP2 DUP6 ADD SWAP1 DUP1 DUP4 DUP4 PUSH1 0x0 JUMPDEST DUP4 DUP2 LT ISZERO PUSH2 0x221 JUMPI DUP2 DUP2 ADD MLOAD DUP4 DUP3 ADD MSTORE PUSH1 0x20 ADD PUSH2 0x209 JUMP JUMPDEST POP POP POP POP SWAP1 POP SWAP1 DUP2 ADD SWAP1 PUSH1 0x1F AND DUP1 ISZERO PUSH2 0x24E JUMPI DUP1 DUP3 SUB DUP1 MLOAD PUSH1 0x1 DUP4 PUSH1 0x20 SUB PUSH2 0x100 EXP SUB NOT AND DUP2 MSTORE PUSH1 0x20 ADD SWAP2 POP JUMPDEST POP SWAP3 POP POP POP PUSH1 0x40 MLOAD DUP1 SWAP2 SUB SWAP1 RETURN JUMPDEST PUSH2 0x288 PUSH1 0x4 DUP1 CALLDATASIZE SUB PUSH1 0x40 DUP2 LT ISZERO PUSH2 0x272 JUMPI PUSH1 0x0 DUP1 REVERT JUMPDEST POP PUSH1 0x1 PUSH1 0x1 PUSH1 0xA0 SHL SUB DUP2 CALLDATALOAD AND SWAP1 PUSH1 0x20 ADD CALLDATALOAD PUSH2 0x731 JUMP JUMPDEST PUSH1 0x40 DUP1 MLOAD SWAP2 ISZERO ISZERO DUP3 MSTORE MLOAD SWAP1 DUP2 SWAP1 SUB PUSH1 0x20 ADD SWAP1 RETURN JUMPDEST PUSH2 0x2A4 PUSH2 0x74F JUMP JUMPDEST PUSH1 0x40 DUP1 MLOAD SWAP2 DUP3 MSTORE MLOAD SWAP1 DUP2 SWAP1 SUB PUSH1 0x20 ADD SWAP1 RETURN JUMPDEST PUSH2 0x2A4 PUSH2 0x755 JUMP JUMPDEST PUSH2 0x288 PUSH1 0x4 DUP1 CALLDATASIZE SUB PUSH1 0x60 DUP2 LT ISZERO PUSH2 0x2D4 JUMPI PUSH1 0x0 DUP1 REVERT JUMPDEST POP PUSH1 0x1 PUSH1 0x1 PUSH1 0xA0 SHL SUB DUP2 CALLDATALOAD DUP2 AND SWAP2 PUSH1 0x20 DUP2 ADD CALLDATALOAD SWAP1 SWAP2 AND SWAP1 PUSH1 0x40 ADD CALLDATALOAD PUSH2 0x779 JUMP JUMPDEST PUSH2 0x2FC PUSH2 0x800 JUMP JUMPDEST PUSH1 0x40 DUP1 MLOAD PUSH1 0xFF SWAP1 SWAP3 AND DUP3 MSTORE MLOAD SWAP1 DUP2 SWAP1 SUB PUSH1 0x20 ADD SWAP1 RETURN JUMPDEST PUSH2 0x31A PUSH2 0x809 JUMP JUMPDEST PUSH1 0x40 DUP1 MLOAD PUSH1 0x1 PUSH1 0x1 PUSH1 0xA0 SHL SUB SWAP1 SWAP3 AND DUP3 MSTORE MLOAD SWAP1 DUP2 SWAP1 SUB PUSH1 0x20 ADD SWAP1 RETURN JUMPDEST PUSH2 0x288 PUSH1 0x4 DUP1 CALLDATASIZE SUB PUSH1 0x40 DUP2 LT ISZERO PUSH2 0x34C JUMPI PUSH1 0x0 DUP1 REVERT JUMPDEST POP PUSH1 0x1 PUSH1 0x1 PUSH1 0xA0 SHL SUB DUP2 CALLDATALOAD AND SWAP1 PUSH1 0x20 ADD CALLDATALOAD PUSH2 0x81D JUMP JUMPDEST PUSH2 0x38E PUSH1 0x4 DUP1 CALLDATASIZE SUB PUSH1 0x40 DUP2 LT ISZERO PUSH2 0x378 JUMPI PUSH1 0x0 DUP1 REVERT JUMPDEST POP PUSH1 0x1 PUSH1 0x1 PUSH1 0xA0 SHL SUB DUP2 CALLDATALOAD AND SWAP1 PUSH1 0x20 ADD CALLDATALOAD PUSH2 0x86B JUMP JUMPDEST STOP JUMPDEST PUSH2 0x31A PUSH1 0x4 DUP1 CALLDATASIZE SUB PUSH1 0x20 DUP2 LT ISZERO PUSH2 0x3A6 JUMPI PUSH1 0x0 DUP1 REVERT JUMPDEST POP CALLDATALOAD PUSH1 0x1 PUSH1 0x1 PUSH1 0xA0 SHL SUB AND PUSH2 0x8F6 JUMP JUMPDEST PUSH2 0x38E PUSH1 0x4 DUP1 CALLDATASIZE SUB PUSH1 0x20 DUP2 LT ISZERO PUSH2 0x3CC JUMPI PUSH1 0x0 DUP1 REVERT JUMPDEST POP CALLDATALOAD PUSH1 0x1 PUSH1 0x1 PUSH1 0xA0 SHL SUB AND PUSH2 0x914 JUMP JUMPDEST PUSH2 0x402 PUSH1 0x4 DUP1 CALLDATASIZE SUB PUSH1 0x20 DUP2 LT ISZERO PUSH2 0x3F2 JUMPI PUSH1 0x0 DUP1 REVERT JUMPDEST POP CALLDATALOAD PUSH1 0x1 PUSH1 0x1 PUSH1 0xA0 SHL SUB AND PUSH2 0x921 JUMP JUMPDEST PUSH1 0x40 DUP1 MLOAD PUSH4 0xFFFFFFFF SWAP1 SWAP3 AND DUP3 MSTORE MLOAD SWAP1 DUP2 SWAP1 SUB PUSH1 0x20 ADD SWAP1 RETURN JUMPDEST PUSH2 0x2A4 PUSH1 0x4 DUP1 CALLDATASIZE SUB PUSH1 0x20 DUP2 LT ISZERO PUSH2 0x431 JUMPI PUSH1 0x0 DUP1 REVERT JUMPDEST POP CALLDATALOAD PUSH1 0x1 PUSH1 0x1 PUSH1 0xA0 SHL SUB AND PUSH2 0x939 JUMP JUMPDEST PUSH2 0x38E PUSH2 0x954 JUMP JUMPDEST PUSH2 0x2A4 PUSH1 0x4 DUP1 CALLDATASIZE SUB PUSH1 0x40 DUP2 LT ISZERO PUSH2 0x45F JUMPI PUSH1 0x0 DUP1 REVERT JUMPDEST POP PUSH1 0x1 PUSH1 0x1 PUSH1 0xA0 SHL SUB DUP2 CALLDATALOAD AND SWAP1 PUSH1 0x20 ADD CALLDATALOAD PUSH2 0x9F6 JUMP JUMPDEST PUSH2 0x2A4 PUSH1 0x4 DUP1 CALLDATASIZE SUB PUSH1 0x20 DUP2 LT ISZERO PUSH2 0x48B JUMPI PUSH1 0x0 DUP1 REVERT JUMPDEST POP CALLDATALOAD PUSH1 0x1 PUSH1 0x1 PUSH1 0xA0 SHL SUB AND PUSH2 0xBFE JUMP JUMPDEST PUSH2 0x31A PUSH2 0xC10 JUMP JUMPDEST PUSH2 0x31A PUSH2 0xC1F JUMP JUMPDEST PUSH2 0x1E7 PUSH2 0xC2E JUMP JUMPDEST PUSH2 0x38E PUSH1 0x4 DUP1 CALLDATASIZE SUB PUSH1 0x40 DUP2 LT ISZERO PUSH2 0x4C9 JUMPI PUSH1 0x0 DUP1 REVERT JUMPDEST POP PUSH1 0x1 PUSH1 0x1 PUSH1 0xA0 SHL SUB DUP2 CALLDATALOAD AND SWAP1 PUSH1 0x20 ADD CALLDATALOAD PUSH2 0xC8F JUMP JUMPDEST PUSH2 0x288 PUSH1 0x4 DUP1 CALLDATASIZE SUB PUSH1 0x20 DUP2 LT ISZERO PUSH2 0x4F5 JUMPI PUSH1 0x0 DUP1 REVERT JUMPDEST POP CALLDATALOAD PUSH2 0xCF1 JUMP JUMPDEST PUSH2 0x38E PUSH1 0x4 DUP1 CALLDATASIZE SUB PUSH1 0x40 DUP2 LT ISZERO PUSH2 0x512 JUMPI PUSH1 0x0 DUP1 REVERT JUMPDEST POP PUSH1 0x1 PUSH1 0x1 PUSH1 0xA0 SHL SUB DUP2 CALLDATALOAD AND SWAP1 PUSH1 0x20 ADD CALLDATALOAD PUSH2 0xD64 JUMP JUMPDEST PUSH2 0x288 PUSH1 0x4 DUP1 CALLDATASIZE SUB PUSH1 0x40 DUP2 LT ISZERO PUSH2 0x53E JUMPI PUSH1 0x0 DUP1 REVERT JUMPDEST POP PUSH1 0x1 PUSH1 0x1 PUSH1 0xA0 SHL SUB DUP2 CALLDATALOAD AND SWAP1 PUSH1 0x20 ADD CALLDATALOAD PUSH2 0xF5E JUMP JUMPDEST PUSH2 0x288 PUSH1 0x4 DUP1 CALLDATASIZE SUB PUSH1 0x40 DUP2 LT ISZERO PUSH2 0x56A JUMPI PUSH1 0x0 DUP1 REVERT JUMPDEST POP PUSH1 0x1 PUSH1 0x1 PUSH1 0xA0 SHL SUB DUP2 CALLDATALOAD AND SWAP1 PUSH1 0x20 ADD CALLDATALOAD PUSH2 0xFC6 JUMP JUMPDEST PUSH2 0x2A4 PUSH1 0x4 DUP1 CALLDATASIZE SUB PUSH1 0x20 DUP2 LT ISZERO PUSH2 0x596 JUMPI PUSH1 0x0 DUP1 REVERT JUMPDEST POP CALLDATALOAD PUSH1 0x1 PUSH1 0x1 PUSH1 0xA0 SHL SUB AND PUSH2 0xFDA JUMP JUMPDEST PUSH2 0x38E PUSH1 0x4 DUP1 CALLDATASIZE SUB PUSH1 0xC0 DUP2 LT ISZERO PUSH2 0x5BC JUMPI PUSH1 0x0 DUP1 REVERT JUMPDEST POP PUSH1 0x1 PUSH1 0x1 PUSH1 0xA0 SHL SUB DUP2 CALLDATALOAD AND SWAP1 PUSH1 0x20 DUP2 ADD CALLDATALOAD SWAP1 PUSH1 0x40 DUP2 ADD CALLDATALOAD SWAP1 PUSH1 0xFF PUSH1 0x60 DUP3 ADD CALLDATALOAD AND SWAP1 PUSH1 0x80 DUP2 ADD CALLDATALOAD SWAP1 PUSH1 0xA0 ADD CALLDATALOAD PUSH2 0x103E JUMP JUMPDEST PUSH2 0x2A4 PUSH1 0x4 DUP1 CALLDATASIZE SUB PUSH1 0x40 DUP2 LT ISZERO PUSH2 0x603 JUMPI PUSH1 0x0 DUP1 REVERT JUMPDEST POP PUSH1 0x1 PUSH1 0x1 PUSH1 0xA0 SHL SUB DUP2 CALLDATALOAD DUP2 AND SWAP2 PUSH1 0x20 ADD CALLDATALOAD AND PUSH2 0x12B1 JUMP JUMPDEST PUSH2 0x2A4 PUSH2 0x12DC JUMP JUMPDEST PUSH2 0x655 PUSH1 0x4 DUP1 CALLDATASIZE SUB PUSH1 0x40 DUP2 LT ISZERO PUSH2 0x639 JUMPI PUSH1 0x0 DUP1 REVERT JUMPDEST POP DUP1 CALLDATALOAD PUSH1 0x1 PUSH1 0x1 PUSH1 0xA0 SHL SUB AND SWAP1 PUSH1 0x20 ADD CALLDATALOAD PUSH4 0xFFFFFFFF AND PUSH2 0x1300 JUMP JUMPDEST PUSH1 0x40 DUP1 MLOAD PUSH4 0xFFFFFFFF SWAP1 SWAP4 AND DUP4 MSTORE PUSH1 0x20 DUP4 ADD SWAP2 SWAP1 SWAP2 MSTORE DUP1 MLOAD SWAP2 DUP3 SWAP1 SUB ADD SWAP1 RETURN JUMPDEST PUSH2 0x38E PUSH1 0x4 DUP1 CALLDATASIZE SUB PUSH1 0x20 DUP2 LT ISZERO PUSH2 0x68B JUMPI PUSH1 0x0 DUP1 REVERT JUMPDEST POP CALLDATALOAD PUSH1 0x1 PUSH1 0x1 PUSH1 0xA0 SHL SUB AND PUSH2 0x132D JUMP JUMPDEST PUSH1 0x4 DUP1 SLOAD PUSH1 0x40 DUP1 MLOAD PUSH1 0x20 PUSH1 0x1F PUSH1 0x2 PUSH1 0x0 NOT PUSH2 0x100 PUSH1 0x1 DUP9 AND ISZERO MUL ADD SWAP1 SWAP6 AND SWAP5 SWAP1 SWAP5 DIV SWAP4 DUP5 ADD DUP2 SWAP1 DIV DUP2 MUL DUP3 ADD DUP2 ADD SWAP1 SWAP3 MSTORE DUP3 DUP2 MSTORE PUSH1 0x60 SWAP4 SWAP1 SWAP3 SWAP1 SWAP2 DUP4 ADD DUP3 DUP3 DUP1 ISZERO PUSH2 0x727 JUMPI DUP1 PUSH1 0x1F LT PUSH2 0x6FC JUMPI PUSH2 0x100 DUP1 DUP4 SLOAD DIV MUL DUP4 MSTORE SWAP2 PUSH1 0x20 ADD SWAP2 PUSH2 0x727 JUMP JUMPDEST DUP3 ADD SWAP2 SWAP1 PUSH1 0x0 MSTORE PUSH1 0x20 PUSH1 0x0 KECCAK256 SWAP1 JUMPDEST DUP2 SLOAD DUP2 MSTORE SWAP1 PUSH1 0x1 ADD SWAP1 PUSH1 0x20 ADD DUP1 DUP4 GT PUSH2 0x70A JUMPI DUP3 SWAP1 SUB PUSH1 0x1F AND DUP3 ADD SWAP2 JUMPDEST POP POP POP POP POP SWAP1 POP SWAP1 JUMP JUMPDEST PUSH1 0x0 PUSH2 0x745 PUSH2 0x73E PUSH2 0x138E JUMP JUMPDEST DUP5 DUP5 PUSH2 0x1392 JUMP JUMPDEST POP PUSH1 0x1 JUMPDEST SWAP3 SWAP2 POP POP JUMP JUMPDEST PUSH1 0x3 SLOAD SWAP1 JUMP JUMPDEST PUSH32 0x8CAD95687BA82C2CE50E74F7B754645E5117C3A5BEC8151C0726D5857980A866 DUP2 JUMP JUMPDEST PUSH1 0x0 PUSH2 0x786 DUP5 DUP5 DUP5 PUSH2 0x147E JUMP JUMPDEST PUSH2 0x7F6 DUP5 PUSH2 0x792 PUSH2 0x138E JUMP JUMPDEST PUSH2 0x7F1 DUP6 PUSH1 0x40 MLOAD DUP1 PUSH1 0x60 ADD PUSH1 0x40 MSTORE DUP1 PUSH1 0x28 DUP2 MSTORE PUSH1 0x20 ADD PUSH2 0x1DC4 PUSH1 0x28 SWAP2 CODECOPY PUSH1 0x1 PUSH1 0x1 PUSH1 0xA0 SHL SUB DUP11 AND PUSH1 0x0 SWAP1 DUP2 MSTORE PUSH1 0x2 PUSH1 0x20 MSTORE PUSH1 0x40 DUP2 KECCAK256 SWAP1 PUSH2 0x7D0 PUSH2 0x138E JUMP JUMPDEST PUSH1 0x1 PUSH1 0x1 PUSH1 0xA0 SHL SUB AND DUP2 MSTORE PUSH1 0x20 DUP2 ADD SWAP2 SWAP1 SWAP2 MSTORE PUSH1 0x40 ADD PUSH1 0x0 KECCAK256 SLOAD SWAP2 SWAP1 PUSH2 0x15D0 JUMP JUMPDEST PUSH2 0x1392 JUMP JUMPDEST POP PUSH1 0x1 SWAP4 SWAP3 POP POP POP JUMP JUMPDEST PUSH1 0x6 SLOAD PUSH1 0xFF AND SWAP1 JUMP JUMPDEST PUSH1 0x6 SLOAD PUSH2 0x100 SWAP1 DIV PUSH1 0x1 PUSH1 0x1 PUSH1 0xA0 SHL SUB AND DUP2 JUMP JUMPDEST PUSH1 0x0 PUSH2 0x745 PUSH2 0x82A PUSH2 0x138E JUMP JUMPDEST DUP5 PUSH2 0x7F1 DUP6 PUSH1 0x2 PUSH1 0x0 PUSH2 0x83B PUSH2 0x138E JUMP JUMPDEST PUSH1 0x1 PUSH1 0x1 PUSH1 0xA0 SHL SUB SWAP1 DUP2 AND DUP3 MSTORE PUSH1 0x20 DUP1 DUP4 ADD SWAP4 SWAP1 SWAP4 MSTORE PUSH1 0x40 SWAP2 DUP3 ADD PUSH1 0x0 SWAP1 DUP2 KECCAK256 SWAP2 DUP13 AND DUP2 MSTORE SWAP3 MSTORE SWAP1 KECCAK256 SLOAD SWAP1 PUSH2 0x1667 JUMP JUMPDEST PUSH2 0x873 PUSH2 0x138E JUMP JUMPDEST PUSH1 0x0 SLOAD PUSH1 0x1 PUSH1 0x1 PUSH1 0xA0 SHL SUB SWAP1 DUP2 AND SWAP2 AND EQ PUSH2 0x8C3 JUMPI PUSH1 0x40 DUP1 MLOAD PUSH3 0x461BCD PUSH1 0xE5 SHL DUP2 MSTORE PUSH1 0x20 PUSH1 0x4 DUP3 ADD DUP2 SWAP1 MSTORE PUSH1 0x24 DUP3 ADD MSTORE PUSH1 0x0 DUP1 MLOAD PUSH1 0x20 PUSH2 0x1E66 DUP4 CODECOPY DUP2 MLOAD SWAP2 MSTORE PUSH1 0x44 DUP3 ADD MSTORE SWAP1 MLOAD SWAP1 DUP2 SWAP1 SUB PUSH1 0x64 ADD SWAP1 REVERT JUMPDEST PUSH2 0x8CD DUP3 DUP3 PUSH2 0x16C1 JUMP JUMPDEST PUSH1 0x1 PUSH1 0x1 PUSH1 0xA0 SHL SUB DUP1 DUP4 AND PUSH1 0x0 SWAP1 DUP2 MSTORE PUSH1 0x7 PUSH1 0x20 MSTORE PUSH1 0x40 DUP2 KECCAK256 SLOAD PUSH2 0x8F2 SWAP3 AND DUP4 PUSH2 0x17A7 JUMP JUMPDEST POP POP JUMP JUMPDEST PUSH1 0x1 PUSH1 0x1 PUSH1 0xA0 SHL SUB SWAP1 DUP2 AND PUSH1 0x0 SWAP1 DUP2 MSTORE PUSH1 0x7 PUSH1 0x20 MSTORE PUSH1 0x40 SWAP1 KECCAK256 SLOAD AND SWAP1 JUMP JUMPDEST PUSH2 0x91E CALLER DUP3 PUSH2 0x18E4 JUMP JUMPDEST POP JUMP JUMPDEST PUSH1 0x9 PUSH1 0x20 MSTORE PUSH1 0x0 SWAP1 DUP2 MSTORE PUSH1 0x40 SWAP1 KECCAK256 SLOAD PUSH4 0xFFFFFFFF AND DUP2 JUMP JUMPDEST PUSH1 0x1 PUSH1 0x1 PUSH1 0xA0 SHL SUB AND PUSH1 0x0 SWAP1 DUP2 MSTORE PUSH1 0x1 PUSH1 0x20 MSTORE PUSH1 0x40 SWAP1 KECCAK256 SLOAD SWAP1 JUMP JUMPDEST PUSH2 0x95C PUSH2 0x138E JUMP JUMPDEST PUSH1 0x0 SLOAD PUSH1 0x1 PUSH1 0x1 PUSH1 0xA0 SHL SUB SWAP1 DUP2 AND SWAP2 AND EQ PUSH2 0x9AC JUMPI PUSH1 0x40 DUP1 MLOAD PUSH3 0x461BCD PUSH1 0xE5 SHL DUP2 MSTORE PUSH1 0x20 PUSH1 0x4 DUP3 ADD DUP2 SWAP1 MSTORE PUSH1 0x24 DUP3 ADD MSTORE PUSH1 0x0 DUP1 MLOAD PUSH1 0x20 PUSH2 0x1E66 DUP4 CODECOPY DUP2 MLOAD SWAP2 MSTORE PUSH1 0x44 DUP3 ADD MSTORE SWAP1 MLOAD SWAP1 DUP2 SWAP1 SUB PUSH1 0x64 ADD SWAP1 REVERT JUMPDEST PUSH1 0x0 DUP1 SLOAD PUSH1 0x40 MLOAD PUSH1 0x1 PUSH1 0x1 PUSH1 0xA0 SHL SUB SWAP1 SWAP2 AND SWAP1 PUSH32 0x8BE0079C531659141344CD1FD0A4F28419497F9722A3DAAFE3B4186F6B6457E0 SWAP1 DUP4 SWAP1 LOG3 PUSH1 0x0 DUP1 SLOAD PUSH1 0x1 PUSH1 0x1 PUSH1 0xA0 SHL SUB NOT AND SWAP1 SSTORE JUMP JUMPDEST PUSH1 0x0 NUMBER DUP3 LT PUSH2 0xA36 JUMPI PUSH1 0x40 MLOAD PUSH3 0x461BCD PUSH1 0xE5 SHL DUP2 MSTORE PUSH1 0x4 ADD DUP1 DUP1 PUSH1 0x20 ADD DUP3 DUP2 SUB DUP3 MSTORE PUSH1 0x2B DUP2 MSTORE PUSH1 0x20 ADD DUP1 PUSH2 0x1D99 PUSH1 0x2B SWAP2 CODECOPY PUSH1 0x40 ADD SWAP2 POP POP PUSH1 0x40 MLOAD DUP1 SWAP2 SUB SWAP1 REVERT JUMPDEST PUSH1 0x1 PUSH1 0x1 PUSH1 0xA0 SHL SUB DUP4 AND PUSH1 0x0 SWAP1 DUP2 MSTORE PUSH1 0x9 PUSH1 0x20 MSTORE PUSH1 0x40 SWAP1 KECCAK256 SLOAD PUSH4 0xFFFFFFFF AND DUP1 PUSH2 0xA64 JUMPI PUSH1 0x0 SWAP2 POP POP PUSH2 0x749 JUMP JUMPDEST PUSH1 0x1 PUSH1 0x1 PUSH1 0xA0 SHL SUB DUP5 AND PUSH1 0x0 SWAP1 DUP2 MSTORE PUSH1 0x8 PUSH1 0x20 SWAP1 DUP2 MSTORE PUSH1 0x40 DUP1 DUP4 KECCAK256 PUSH4 0xFFFFFFFF PUSH1 0x0 NOT DUP7 ADD DUP2 AND DUP6 MSTORE SWAP3 MSTORE SWAP1 SWAP2 KECCAK256 SLOAD AND DUP4 LT PUSH2 0xAD3 JUMPI PUSH1 0x1 PUSH1 0x1 PUSH1 0xA0 SHL SUB DUP5 AND PUSH1 0x0 SWAP1 DUP2 MSTORE PUSH1 0x8 PUSH1 0x20 SWAP1 DUP2 MSTORE PUSH1 0x40 DUP1 DUP4 KECCAK256 PUSH1 0x0 NOT SWAP5 SWAP1 SWAP5 ADD PUSH4 0xFFFFFFFF AND DUP4 MSTORE SWAP3 SWAP1 MSTORE KECCAK256 PUSH1 0x1 ADD SLOAD SWAP1 POP PUSH2 0x749 JUMP JUMPDEST PUSH1 0x1 PUSH1 0x1 PUSH1 0xA0 SHL SUB DUP5 AND PUSH1 0x0 SWAP1 DUP2 MSTORE PUSH1 0x8 PUSH1 0x20 SWAP1 DUP2 MSTORE PUSH1 0x40 DUP1 DUP4 KECCAK256 DUP4 DUP1 MSTORE SWAP1 SWAP2 MSTORE SWAP1 KECCAK256 SLOAD PUSH4 0xFFFFFFFF AND DUP4 LT ISZERO PUSH2 0xB0E JUMPI PUSH1 0x0 SWAP2 POP POP PUSH2 0x749 JUMP JUMPDEST PUSH1 0x0 PUSH1 0x0 NOT DUP3 ADD JUMPDEST DUP2 PUSH4 0xFFFFFFFF AND DUP2 PUSH4 0xFFFFFFFF AND GT ISZERO PUSH2 0xBC7 JUMPI PUSH1 0x2 DUP3 DUP3 SUB PUSH4 0xFFFFFFFF AND DIV DUP2 SUB PUSH2 0xB40 PUSH2 0x1D12 JUMP JUMPDEST POP PUSH1 0x1 PUSH1 0x1 PUSH1 0xA0 SHL SUB DUP8 AND PUSH1 0x0 SWAP1 DUP2 MSTORE PUSH1 0x8 PUSH1 0x20 SWAP1 DUP2 MSTORE PUSH1 0x40 DUP1 DUP4 KECCAK256 PUSH4 0xFFFFFFFF DUP1 DUP7 AND DUP6 MSTORE SWAP1 DUP4 MSTORE SWAP3 DUP2 SWAP1 KECCAK256 DUP2 MLOAD DUP1 DUP4 ADD SWAP1 SWAP3 MSTORE DUP1 SLOAD SWAP1 SWAP4 AND DUP1 DUP3 MSTORE PUSH1 0x1 SWAP1 SWAP4 ADD SLOAD SWAP2 DUP2 ADD SWAP2 SWAP1 SWAP2 MSTORE SWAP1 DUP8 EQ ISZERO PUSH2 0xBA2 JUMPI PUSH1 0x20 ADD MLOAD SWAP5 POP PUSH2 0x749 SWAP4 POP POP POP POP JUMP JUMPDEST DUP1 MLOAD PUSH4 0xFFFFFFFF AND DUP8 GT ISZERO PUSH2 0xBB9 JUMPI DUP2 SWAP4 POP PUSH2 0xBC0 JUMP JUMPDEST PUSH1 0x1 DUP3 SUB SWAP3 POP JUMPDEST POP POP PUSH2 0xB16 JUMP JUMPDEST POP PUSH1 0x1 PUSH1 0x1 PUSH1 0xA0 SHL SUB DUP6 AND PUSH1 0x0 SWAP1 DUP2 MSTORE PUSH1 0x8 PUSH1 0x20 SWAP1 DUP2 MSTORE PUSH1 0x40 DUP1 DUP4 KECCAK256 PUSH4 0xFFFFFFFF SWAP1 SWAP5 AND DUP4 MSTORE SWAP3 SWAP1 MSTORE KECCAK256 PUSH1 0x1 ADD SLOAD SWAP2 POP POP SWAP3 SWAP2 POP POP JUMP JUMPDEST PUSH1 0xA PUSH1 0x20 MSTORE PUSH1 0x0 SWAP1 DUP2 MSTORE PUSH1 0x40 SWAP1 KECCAK256 SLOAD DUP2 JUMP JUMPDEST PUSH1 0x0 PUSH2 0xC1A PUSH2 0xC1F JUMP JUMPDEST SWAP1 POP SWAP1 JUMP JUMPDEST PUSH1 0x0 SLOAD PUSH1 0x1 PUSH1 0x1 PUSH1 0xA0 SHL SUB AND SWAP1 JUMP JUMPDEST PUSH1 0x5 DUP1 SLOAD PUSH1 0x40 DUP1 MLOAD PUSH1 0x20 PUSH1 0x1F PUSH1 0x2 PUSH1 0x0 NOT PUSH2 0x100 PUSH1 0x1 DUP9 AND ISZERO MUL ADD SWAP1 SWAP6 AND SWAP5 SWAP1 SWAP5 DIV SWAP4 DUP5 ADD DUP2 SWAP1 DIV DUP2 MUL DUP3 ADD DUP2 ADD SWAP1 SWAP3 MSTORE DUP3 DUP2 MSTORE PUSH1 0x60 SWAP4 SWAP1 SWAP3 SWAP1 SWAP2 DUP4 ADD DUP3 DUP3 DUP1 ISZERO PUSH2 0x727 JUMPI DUP1 PUSH1 0x1F LT PUSH2 0x6FC JUMPI PUSH2 0x100 DUP1 DUP4 SLOAD DIV MUL DUP4 MSTORE SWAP2 PUSH1 0x20 ADD SWAP2 PUSH2 0x727 JUMP JUMPDEST PUSH2 0xC97 PUSH2 0x138E JUMP JUMPDEST PUSH1 0x0 SLOAD PUSH1 0x1 PUSH1 0x1 PUSH1 0xA0 SHL SUB SWAP1 DUP2 AND SWAP2 AND EQ PUSH2 0xCE7 JUMPI PUSH1 0x40 DUP1 MLOAD PUSH3 0x461BCD PUSH1 0xE5 SHL DUP2 MSTORE PUSH1 0x20 PUSH1 0x4 DUP3 ADD DUP2 SWAP1 MSTORE PUSH1 0x24 DUP3 ADD MSTORE PUSH1 0x0 DUP1 MLOAD PUSH1 0x20 PUSH2 0x1E66 DUP4 CODECOPY DUP2 MLOAD SWAP2 MSTORE PUSH1 0x44 DUP3 ADD MSTORE SWAP1 MLOAD SWAP1 DUP2 SWAP1 SUB PUSH1 0x64 ADD SWAP1 REVERT JUMPDEST PUSH2 0x8CD DUP3 DUP3 PUSH2 0x1979 JUMP JUMPDEST PUSH1 0x0 PUSH2 0xCFB PUSH2 0x138E JUMP JUMPDEST PUSH1 0x0 SLOAD PUSH1 0x1 PUSH1 0x1 PUSH1 0xA0 SHL SUB SWAP1 DUP2 AND SWAP2 AND EQ PUSH2 0xD4B JUMPI PUSH1 0x40 DUP1 MLOAD PUSH3 0x461BCD PUSH1 0xE5 SHL DUP2 MSTORE PUSH1 0x20 PUSH1 0x4 DUP3 ADD DUP2 SWAP1 MSTORE PUSH1 0x24 DUP3 ADD MSTORE PUSH1 0x0 DUP1 MLOAD PUSH1 0x20 PUSH2 0x1E66 DUP4 CODECOPY DUP2 MLOAD SWAP2 MSTORE PUSH1 0x44 DUP3 ADD MSTORE SWAP1 MLOAD SWAP1 DUP2 SWAP1 SUB PUSH1 0x64 ADD SWAP1 REVERT JUMPDEST PUSH2 0xD5C PUSH2 0xD56 PUSH2 0x138E JUMP JUMPDEST DUP4 PUSH2 0x16C1 JUMP JUMPDEST POP PUSH1 0x1 SWAP2 SWAP1 POP JUMP JUMPDEST PUSH2 0xD6C PUSH2 0x138E JUMP JUMPDEST PUSH1 0x0 SLOAD PUSH1 0x1 PUSH1 0x1 PUSH1 0xA0 SHL SUB SWAP1 DUP2 AND SWAP2 AND EQ PUSH2 0xDBC JUMPI PUSH1 0x40 DUP1 MLOAD PUSH3 0x461BCD PUSH1 0xE5 SHL DUP2 MSTORE PUSH1 0x20 PUSH1 0x4 DUP3 ADD DUP2 SWAP1 MSTORE PUSH1 0x24 DUP3 ADD MSTORE PUSH1 0x0 DUP1 MLOAD PUSH1 0x20 PUSH2 0x1E66 DUP4 CODECOPY DUP2 MLOAD SWAP2 MSTORE PUSH1 0x44 DUP3 ADD MSTORE SWAP1 MLOAD SWAP1 DUP2 SWAP1 SUB PUSH1 0x64 ADD SWAP1 REVERT JUMPDEST PUSH1 0x6 SLOAD PUSH1 0x40 DUP1 MLOAD PUSH4 0x70A08231 PUSH1 0xE0 SHL DUP2 MSTORE ADDRESS PUSH1 0x4 DUP3 ADD MSTORE SWAP1 MLOAD PUSH1 0x0 SWAP3 PUSH2 0x100 SWAP1 DIV PUSH1 0x1 PUSH1 0x1 PUSH1 0xA0 SHL SUB AND SWAP2 PUSH4 0x70A08231 SWAP2 PUSH1 0x24 DUP1 DUP4 ADD SWAP3 PUSH1 0x20 SWAP3 SWAP2 SWAP1 DUP3 SWAP1 SUB ADD DUP2 DUP7 DUP1 EXTCODESIZE ISZERO DUP1 ISZERO PUSH2 0xE0C JUMPI PUSH1 0x0 DUP1 REVERT JUMPDEST POP GAS STATICCALL ISZERO DUP1 ISZERO PUSH2 0xE20 JUMPI RETURNDATASIZE PUSH1 0x0 DUP1 RETURNDATACOPY RETURNDATASIZE PUSH1 0x0 REVERT JUMPDEST POP POP POP POP PUSH1 0x40 MLOAD RETURNDATASIZE PUSH1 0x20 DUP2 LT ISZERO PUSH2 0xE36 JUMPI PUSH1 0x0 DUP1 REVERT JUMPDEST POP MLOAD SWAP1 POP DUP1 DUP3 GT ISZERO PUSH2 0xED0 JUMPI PUSH1 0x6 SLOAD PUSH1 0x40 DUP1 MLOAD PUSH4 0xA9059CBB PUSH1 0xE0 SHL DUP2 MSTORE PUSH1 0x1 PUSH1 0x1 PUSH1 0xA0 SHL SUB DUP7 DUP2 AND PUSH1 0x4 DUP4 ADD MSTORE PUSH1 0x24 DUP3 ADD DUP6 SWAP1 MSTORE SWAP2 MLOAD PUSH2 0x100 SWAP1 SWAP4 DIV SWAP1 SWAP2 AND SWAP2 PUSH4 0xA9059CBB SWAP2 PUSH1 0x44 DUP1 DUP3 ADD SWAP3 PUSH1 0x20 SWAP3 SWAP1 SWAP2 SWAP1 DUP3 SWAP1 SUB ADD DUP2 PUSH1 0x0 DUP8 DUP1 EXTCODESIZE ISZERO DUP1 ISZERO PUSH2 0xE9E JUMPI PUSH1 0x0 DUP1 REVERT JUMPDEST POP GAS CALL ISZERO DUP1 ISZERO PUSH2 0xEB2 JUMPI RETURNDATASIZE PUSH1 0x0 DUP1 RETURNDATACOPY RETURNDATASIZE PUSH1 0x0 REVERT JUMPDEST POP POP POP POP PUSH1 0x40 MLOAD RETURNDATASIZE PUSH1 0x20 DUP2 LT ISZERO PUSH2 0xEC8 JUMPI PUSH1 0x0 DUP1 REVERT JUMPDEST POP PUSH2 0xF59 SWAP1 POP JUMP JUMPDEST PUSH1 0x6 SLOAD PUSH1 0x40 DUP1 MLOAD PUSH4 0xA9059CBB PUSH1 0xE0 SHL DUP2 MSTORE PUSH1 0x1 PUSH1 0x1 PUSH1 0xA0 SHL SUB DUP7 DUP2 AND PUSH1 0x4 DUP4 ADD MSTORE PUSH1 0x24 DUP3 ADD DUP7 SWAP1 MSTORE SWAP2 MLOAD PUSH2 0x100 SWAP1 SWAP4 DIV SWAP1 SWAP2 AND SWAP2 PUSH4 0xA9059CBB SWAP2 PUSH1 0x44 DUP1 DUP3 ADD SWAP3 PUSH1 0x20 SWAP3 SWAP1 SWAP2 SWAP1 DUP3 SWAP1 SUB ADD DUP2 PUSH1 0x0 DUP8 DUP1 EXTCODESIZE ISZERO DUP1 ISZERO PUSH2 0xF2C JUMPI PUSH1 0x0 DUP1 REVERT JUMPDEST POP GAS CALL ISZERO DUP1 ISZERO PUSH2 0xF40 JUMPI RETURNDATASIZE PUSH1 0x0 DUP1 RETURNDATACOPY RETURNDATASIZE PUSH1 0x0 REVERT JUMPDEST POP POP POP POP PUSH1 0x40 MLOAD RETURNDATASIZE PUSH1 0x20 DUP2 LT ISZERO PUSH2 0xF56 JUMPI PUSH1 0x0 DUP1 REVERT JUMPDEST POP POP JUMPDEST POP POP POP JUMP JUMPDEST PUSH1 0x0 PUSH2 0x745 PUSH2 0xF6B PUSH2 0x138E JUMP JUMPDEST DUP5 PUSH2 0x7F1 DUP6 PUSH1 0x40 MLOAD DUP1 PUSH1 0x60 ADD PUSH1 0x40 MSTORE DUP1 PUSH1 0x25 DUP2 MSTORE PUSH1 0x20 ADD PUSH2 0x1ECF PUSH1 0x25 SWAP2 CODECOPY PUSH1 0x2 PUSH1 0x0 PUSH2 0xF95 PUSH2 0x138E JUMP JUMPDEST PUSH1 0x1 PUSH1 0x1 PUSH1 0xA0 SHL SUB SWAP1 DUP2 AND DUP3 MSTORE PUSH1 0x20 DUP1 DUP4 ADD SWAP4 SWAP1 SWAP4 MSTORE PUSH1 0x40 SWAP2 DUP3 ADD PUSH1 0x0 SWAP1 DUP2 KECCAK256 SWAP2 DUP14 AND DUP2 MSTORE SWAP3 MSTORE SWAP1 KECCAK256 SLOAD SWAP2 SWAP1 PUSH2 0x15D0 JUMP JUMPDEST PUSH1 0x0 PUSH2 0x745 PUSH2 0xFD3 PUSH2 0x138E JUMP JUMPDEST DUP5 DUP5 PUSH2 0x147E JUMP JUMPDEST PUSH1 0x1 PUSH1 0x1 PUSH1 0xA0 SHL SUB DUP2 AND PUSH1 0x0 SWAP1 DUP2 MSTORE PUSH1 0x9 PUSH1 0x20 MSTORE PUSH1 0x40 DUP2 KECCAK256 SLOAD PUSH4 0xFFFFFFFF AND DUP1 PUSH2 0x1005 JUMPI PUSH1 0x0 PUSH2 0x1037 JUMP JUMPDEST PUSH1 0x1 PUSH1 0x1 PUSH1 0xA0 SHL SUB DUP4 AND PUSH1 0x0 SWAP1 DUP2 MSTORE PUSH1 0x8 PUSH1 0x20 SWAP1 DUP2 MSTORE PUSH1 0x40 DUP1 DUP4 KECCAK256 PUSH4 0xFFFFFFFF PUSH1 0x0 NOT DUP7 ADD AND DUP5 MSTORE SWAP1 SWAP2 MSTORE SWAP1 KECCAK256 PUSH1 0x1 ADD SLOAD JUMPDEST SWAP4 SWAP3 POP POP POP JUMP JUMPDEST PUSH1 0x0 PUSH32 0x8CAD95687BA82C2CE50E74F7B754645E5117C3A5BEC8151C0726D5857980A866 PUSH2 0x1069 PUSH2 0x69B JUMP JUMPDEST DUP1 MLOAD SWAP1 PUSH1 0x20 ADD KECCAK256 PUSH2 0x1078 PUSH2 0x1A69 JUMP JUMPDEST PUSH1 0x40 DUP1 MLOAD PUSH1 0x20 DUP1 DUP3 ADD SWAP6 SWAP1 SWAP6 MSTORE DUP1 DUP3 ADD SWAP4 SWAP1 SWAP4 MSTORE PUSH1 0x60 DUP4 ADD SWAP2 SWAP1 SWAP2 MSTORE ADDRESS PUSH1 0x80 DUP1 DUP5 ADD SWAP2 SWAP1 SWAP2 MSTORE DUP2 MLOAD DUP1 DUP5 SUB SWAP1 SWAP2 ADD DUP2 MSTORE PUSH1 0xA0 DUP4 ADD DUP3 MSTORE DUP1 MLOAD SWAP1 DUP5 ADD KECCAK256 PUSH32 0xE48329057BFD03D55E49B547132E39CFFD9C1820AD7B9D4C5307691425D15ADF PUSH1 0xC0 DUP5 ADD MSTORE PUSH1 0x1 PUSH1 0x1 PUSH1 0xA0 SHL SUB DUP12 AND PUSH1 0xE0 DUP5 ADD MSTORE PUSH2 0x100 DUP4 ADD DUP11 SWAP1 MSTORE PUSH2 0x120 DUP1 DUP5 ADD DUP11 SWAP1 MSTORE DUP3 MLOAD DUP1 DUP6 SUB SWAP1 SWAP2 ADD DUP2 MSTORE PUSH2 0x140 DUP5 ADD DUP4 MSTORE DUP1 MLOAD SWAP1 DUP6 ADD KECCAK256 PUSH2 0x1901 PUSH1 0xF0 SHL PUSH2 0x160 DUP6 ADD MSTORE PUSH2 0x162 DUP5 ADD DUP3 SWAP1 MSTORE PUSH2 0x182 DUP1 DUP6 ADD DUP3 SWAP1 MSTORE DUP4 MLOAD DUP1 DUP7 SUB SWAP1 SWAP2 ADD DUP2 MSTORE PUSH2 0x1A2 DUP6 ADD DUP1 DUP6 MSTORE DUP2 MLOAD SWAP2 DUP8 ADD SWAP2 SWAP1 SWAP2 KECCAK256 PUSH1 0x0 SWAP2 DUP3 SWAP1 MSTORE PUSH2 0x1C2 DUP7 ADD DUP1 DUP7 MSTORE DUP2 SWAP1 MSTORE PUSH1 0xFF DUP12 AND PUSH2 0x1E2 DUP8 ADD MSTORE PUSH2 0x202 DUP7 ADD DUP11 SWAP1 MSTORE PUSH2 0x222 DUP7 ADD DUP10 SWAP1 MSTORE SWAP4 MLOAD SWAP3 SWAP7 POP SWAP1 SWAP5 SWAP3 SWAP4 SWAP1 SWAP3 PUSH1 0x1 SWAP3 PUSH2 0x242 DUP1 DUP5 ADD SWAP4 PUSH1 0x1F NOT DUP4 ADD SWAP3 SWAP1 DUP2 SWAP1 SUB SWAP1 SWAP2 ADD SWAP1 DUP6 GAS STATICCALL ISZERO DUP1 ISZERO PUSH2 0x11AB JUMPI RETURNDATASIZE PUSH1 0x0 DUP1 RETURNDATACOPY RETURNDATASIZE PUSH1 0x0 REVERT JUMPDEST POP POP PUSH1 0x40 MLOAD PUSH1 0x1F NOT ADD MLOAD SWAP2 POP POP PUSH1 0x1 PUSH1 0x1 PUSH1 0xA0 SHL SUB DUP2 AND PUSH2 0x11FD JUMPI PUSH1 0x40 MLOAD PUSH3 0x461BCD PUSH1 0xE5 SHL DUP2 MSTORE PUSH1 0x4 ADD DUP1 DUP1 PUSH1 0x20 ADD DUP3 DUP2 SUB DUP3 MSTORE PUSH1 0x2A DUP2 MSTORE PUSH1 0x20 ADD DUP1 PUSH2 0x1DEC PUSH1 0x2A SWAP2 CODECOPY PUSH1 0x40 ADD SWAP2 POP POP PUSH1 0x40 MLOAD DUP1 SWAP2 SUB SWAP1 REVERT JUMPDEST PUSH1 0x1 PUSH1 0x1 PUSH1 0xA0 SHL SUB DUP2 AND PUSH1 0x0 SWAP1 DUP2 MSTORE PUSH1 0xA PUSH1 0x20 MSTORE PUSH1 0x40 SWAP1 KECCAK256 DUP1 SLOAD PUSH1 0x1 DUP2 ADD SWAP1 SWAP2 SSTORE DUP10 EQ PUSH2 0x125B JUMPI PUSH1 0x40 MLOAD PUSH3 0x461BCD PUSH1 0xE5 SHL DUP2 MSTORE PUSH1 0x4 ADD DUP1 DUP1 PUSH1 0x20 ADD DUP3 DUP2 SUB DUP3 MSTORE PUSH1 0x26 DUP2 MSTORE PUSH1 0x20 ADD DUP1 PUSH2 0x1E40 PUSH1 0x26 SWAP2 CODECOPY PUSH1 0x40 ADD SWAP2 POP POP PUSH1 0x40 MLOAD DUP1 SWAP2 SUB SWAP1 REVERT JUMPDEST DUP8 TIMESTAMP GT ISZERO PUSH2 0x129A JUMPI PUSH1 0x40 MLOAD PUSH3 0x461BCD PUSH1 0xE5 SHL DUP2 MSTORE PUSH1 0x4 ADD DUP1 DUP1 PUSH1 0x20 ADD DUP3 DUP2 SUB DUP3 MSTORE PUSH1 0x2A DUP2 MSTORE PUSH1 0x20 ADD DUP1 PUSH2 0x1E16 PUSH1 0x2A SWAP2 CODECOPY PUSH1 0x40 ADD SWAP2 POP POP PUSH1 0x40 MLOAD DUP1 SWAP2 SUB SWAP1 REVERT JUMPDEST PUSH2 0x12A4 DUP2 DUP12 PUSH2 0x18E4 JUMP JUMPDEST POP POP POP POP JUMPDEST POP POP POP POP POP POP JUMP JUMPDEST PUSH1 0x1 PUSH1 0x1 PUSH1 0xA0 SHL SUB SWAP2 DUP3 AND PUSH1 0x0 SWAP1 DUP2 MSTORE PUSH1 0x2 PUSH1 0x20 SWAP1 DUP2 MSTORE PUSH1 0x40 DUP1 DUP4 KECCAK256 SWAP4 SWAP1 SWAP5 AND DUP3 MSTORE SWAP2 SWAP1 SWAP2 MSTORE KECCAK256 SLOAD SWAP1 JUMP JUMPDEST PUSH32 0xE48329057BFD03D55E49B547132E39CFFD9C1820AD7B9D4C5307691425D15ADF DUP2 JUMP JUMPDEST PUSH1 0x8 PUSH1 0x20 SWAP1 DUP2 MSTORE PUSH1 0x0 SWAP3 DUP4 MSTORE PUSH1 0x40 DUP1 DUP5 KECCAK256 SWAP1 SWAP2 MSTORE SWAP1 DUP3 MSTORE SWAP1 KECCAK256 DUP1 SLOAD PUSH1 0x1 SWAP1 SWAP2 ADD SLOAD PUSH4 0xFFFFFFFF SWAP1 SWAP2 AND SWAP1 DUP3 JUMP JUMPDEST PUSH2 0x1335 PUSH2 0x138E JUMP JUMPDEST PUSH1 0x0 SLOAD PUSH1 0x1 PUSH1 0x1 PUSH1 0xA0 SHL SUB SWAP1 DUP2 AND SWAP2 AND EQ PUSH2 0x1385 JUMPI PUSH1 0x40 DUP1 MLOAD PUSH3 0x461BCD PUSH1 0xE5 SHL DUP2 MSTORE PUSH1 0x20 PUSH1 0x4 DUP3 ADD DUP2 SWAP1 MSTORE PUSH1 0x24 DUP3 ADD MSTORE PUSH1 0x0 DUP1 MLOAD PUSH1 0x20 PUSH2 0x1E66 DUP4 CODECOPY DUP2 MLOAD SWAP2 MSTORE PUSH1 0x44 DUP3 ADD MSTORE SWAP1 MLOAD SWAP1 DUP2 SWAP1 SUB PUSH1 0x64 ADD SWAP1 REVERT JUMPDEST PUSH2 0x91E DUP2 PUSH2 0x1A6D JUMP JUMPDEST CALLER SWAP1 JUMP JUMPDEST PUSH1 0x1 PUSH1 0x1 PUSH1 0xA0 SHL SUB DUP4 AND PUSH2 0x13D7 JUMPI PUSH1 0x40 MLOAD PUSH3 0x461BCD PUSH1 0xE5 SHL DUP2 MSTORE PUSH1 0x4 ADD DUP1 DUP1 PUSH1 0x20 ADD DUP3 DUP2 SUB DUP3 MSTORE PUSH1 0x24 DUP2 MSTORE PUSH1 0x20 ADD DUP1 PUSH2 0x1D4F PUSH1 0x24 SWAP2 CODECOPY PUSH1 0x40 ADD SWAP2 POP POP PUSH1 0x40 MLOAD DUP1 SWAP2 SUB SWAP1 REVERT JUMPDEST PUSH1 0x1 PUSH1 0x1 PUSH1 0xA0 SHL SUB DUP3 AND PUSH2 0x141C JUMPI PUSH1 0x40 MLOAD PUSH3 0x461BCD PUSH1 0xE5 SHL DUP2 MSTORE PUSH1 0x4 ADD DUP1 DUP1 PUSH1 0x20 ADD DUP3 DUP2 SUB DUP3 MSTORE PUSH1 0x22 DUP2 MSTORE PUSH1 0x20 ADD DUP1 PUSH2 0x1F37 PUSH1 0x22 SWAP2 CODECOPY PUSH1 0x40 ADD SWAP2 POP POP PUSH1 0x40 MLOAD DUP1 SWAP2 SUB SWAP1 REVERT JUMPDEST PUSH1 0x1 PUSH1 0x1 PUSH1 0xA0 SHL SUB DUP1 DUP5 AND PUSH1 0x0 DUP2 DUP2 MSTORE PUSH1 0x2 PUSH1 0x20 SWAP1 DUP2 MSTORE PUSH1 0x40 DUP1 DUP4 KECCAK256 SWAP5 DUP8 AND DUP1 DUP5 MSTORE SWAP5 DUP3 MSTORE SWAP2 DUP3 SWAP1 KECCAK256 DUP6 SWAP1 SSTORE DUP2 MLOAD DUP6 DUP2 MSTORE SWAP2 MLOAD PUSH32 0x8C5BE1E5EBEC7D5BD14F71427D1E84F3DD0314C0F7B2291E5B200AC8C7C3B925 SWAP3 DUP2 SWAP1 SUB SWAP1 SWAP2 ADD SWAP1 LOG3 POP POP POP JUMP JUMPDEST PUSH1 0x1 PUSH1 0x1 PUSH1 0xA0 SHL SUB DUP4 AND PUSH2 0x14C3 JUMPI PUSH1 0x40 MLOAD PUSH3 0x461BCD PUSH1 0xE5 SHL DUP2 MSTORE PUSH1 0x4 ADD DUP1 DUP1 PUSH1 0x20 ADD DUP3 DUP2 SUB DUP3 MSTORE PUSH1 0x25 DUP2 MSTORE PUSH1 0x20 ADD DUP1 PUSH2 0x1D2A PUSH1 0x25 SWAP2 CODECOPY PUSH1 0x40 ADD SWAP2 POP POP PUSH1 0x40 MLOAD DUP1 SWAP2 SUB SWAP1 REVERT JUMPDEST PUSH1 0x1 PUSH1 0x1 PUSH1 0xA0 SHL SUB DUP3 AND PUSH2 0x1508 JUMPI PUSH1 0x40 MLOAD PUSH3 0x461BCD PUSH1 0xE5 SHL DUP2 MSTORE PUSH1 0x4 ADD DUP1 DUP1 PUSH1 0x20 ADD DUP3 DUP2 SUB DUP3 MSTORE PUSH1 0x23 DUP2 MSTORE PUSH1 0x20 ADD DUP1 PUSH2 0x1EAC PUSH1 0x23 SWAP2 CODECOPY PUSH1 0x40 ADD SWAP2 POP POP PUSH1 0x40 MLOAD DUP1 SWAP2 SUB SWAP1 REVERT JUMPDEST PUSH2 0x1545 DUP2 PUSH1 0x40 MLOAD DUP1 PUSH1 0x60 ADD PUSH1 0x40 MSTORE DUP1 PUSH1 0x26 DUP2 MSTORE PUSH1 0x20 ADD PUSH2 0x1E86 PUSH1 0x26 SWAP2 CODECOPY PUSH1 0x1 PUSH1 0x1 PUSH1 0xA0 SHL SUB DUP7 AND PUSH1 0x0 SWAP1 DUP2 MSTORE PUSH1 0x1 PUSH1 0x20 MSTORE PUSH1 0x40 SWAP1 KECCAK256 SLOAD SWAP2 SWAP1 PUSH2 0x15D0 JUMP JUMPDEST PUSH1 0x1 PUSH1 0x1 PUSH1 0xA0 SHL SUB DUP1 DUP6 AND PUSH1 0x0 SWAP1 DUP2 MSTORE PUSH1 0x1 PUSH1 0x20 MSTORE PUSH1 0x40 DUP1 DUP3 KECCAK256 SWAP4 SWAP1 SWAP4 SSTORE SWAP1 DUP5 AND DUP2 MSTORE KECCAK256 SLOAD PUSH2 0x1574 SWAP1 DUP3 PUSH2 0x1667 JUMP JUMPDEST PUSH1 0x1 PUSH1 0x1 PUSH1 0xA0 SHL SUB DUP1 DUP5 AND PUSH1 0x0 DUP2 DUP2 MSTORE PUSH1 0x1 PUSH1 0x20 SWAP1 DUP2 MSTORE PUSH1 0x40 SWAP2 DUP3 SWAP1 KECCAK256 SWAP5 SWAP1 SWAP5 SSTORE DUP1 MLOAD DUP6 DUP2 MSTORE SWAP1 MLOAD SWAP2 SWAP4 SWAP3 DUP8 AND SWAP3 PUSH32 0xDDF252AD1BE2C89B69C2B068FC378DAA952BA7F163C4A11628F55A4DF523B3EF SWAP3 SWAP2 DUP3 SWAP1 SUB ADD SWAP1 LOG3 POP POP POP JUMP JUMPDEST PUSH1 0x0 DUP2 DUP5 DUP5 GT ISZERO PUSH2 0x165F JUMPI PUSH1 0x40 MLOAD PUSH3 0x461BCD PUSH1 0xE5 SHL DUP2 MSTORE PUSH1 0x4 ADD DUP1 DUP1 PUSH1 0x20 ADD DUP3 DUP2 SUB DUP3 MSTORE DUP4 DUP2 DUP2 MLOAD DUP2 MSTORE PUSH1 0x20 ADD SWAP2 POP DUP1 MLOAD SWAP1 PUSH1 0x20 ADD SWAP1 DUP1 DUP4 DUP4 PUSH1 0x0 JUMPDEST DUP4 DUP2 LT ISZERO PUSH2 0x1624 JUMPI DUP2 DUP2 ADD MLOAD DUP4 DUP3 ADD MSTORE PUSH1 0x20 ADD PUSH2 0x160C JUMP JUMPDEST POP POP POP POP SWAP1 POP SWAP1 DUP2 ADD SWAP1 PUSH1 0x1F AND DUP1 ISZERO PUSH2 0x1651 JUMPI DUP1 DUP3 SUB DUP1 MLOAD PUSH1 0x1 DUP4 PUSH1 0x20 SUB PUSH2 0x100 EXP SUB NOT AND DUP2 MSTORE PUSH1 0x20 ADD SWAP2 POP JUMPDEST POP SWAP3 POP POP POP PUSH1 0x40 MLOAD DUP1 SWAP2 SUB SWAP1 REVERT JUMPDEST POP POP POP SWAP1 SUB SWAP1 JUMP JUMPDEST PUSH1 0x0 DUP3 DUP3 ADD DUP4 DUP2 LT ISZERO PUSH2 0x1037 JUMPI PUSH1 0x40 DUP1 MLOAD PUSH3 0x461BCD PUSH1 0xE5 SHL DUP2 MSTORE PUSH1 0x20 PUSH1 0x4 DUP3 ADD MSTORE PUSH1 0x1B PUSH1 0x24 DUP3 ADD MSTORE PUSH32 0x536166654D6174683A206164646974696F6E206F766572666C6F770000000000 PUSH1 0x44 DUP3 ADD MSTORE SWAP1 MLOAD SWAP1 DUP2 SWAP1 SUB PUSH1 0x64 ADD SWAP1 REVERT JUMPDEST PUSH1 0x1 PUSH1 0x1 PUSH1 0xA0 SHL SUB DUP3 AND PUSH2 0x171C JUMPI PUSH1 0x40 DUP1 MLOAD PUSH3 0x461BCD PUSH1 0xE5 SHL DUP2 MSTORE PUSH1 0x20 PUSH1 0x4 DUP3 ADD MSTORE PUSH1 0x1F PUSH1 0x24 DUP3 ADD MSTORE PUSH32 0x42455032303A206D696E7420746F20746865207A65726F206164647265737300 PUSH1 0x44 DUP3 ADD MSTORE SWAP1 MLOAD SWAP1 DUP2 SWAP1 SUB PUSH1 0x64 ADD SWAP1 REVERT JUMPDEST PUSH1 0x3 SLOAD PUSH2 0x1729 SWAP1 DUP3 PUSH2 0x1667 JUMP JUMPDEST PUSH1 0x3 SSTORE PUSH1 0x1 PUSH1 0x1 PUSH1 0xA0 SHL SUB DUP3 AND PUSH1 0x0 SWAP1 DUP2 MSTORE PUSH1 0x1 PUSH1 0x20 MSTORE PUSH1 0x40 SWAP1 KECCAK256 SLOAD PUSH2 0x174F SWAP1 DUP3 PUSH2 0x1667 JUMP JUMPDEST PUSH1 0x1 PUSH1 0x1 PUSH1 0xA0 SHL SUB DUP4 AND PUSH1 0x0 DUP2 DUP2 MSTORE PUSH1 0x1 PUSH1 0x20 SWAP1 DUP2 MSTORE PUSH1 0x40 DUP1 DUP4 KECCAK256 SWAP5 SWAP1 SWAP5 SSTORE DUP4 MLOAD DUP6 DUP2 MSTORE SWAP4 MLOAD SWAP3 SWAP4 SWAP2 SWAP3 PUSH32 0xDDF252AD1BE2C89B69C2B068FC378DAA952BA7F163C4A11628F55A4DF523B3EF SWAP3 DUP2 SWAP1 SUB SWAP1 SWAP2 ADD SWAP1 LOG3 POP POP JUMP JUMPDEST DUP2 PUSH1 0x1 PUSH1 0x1 PUSH1 0xA0 SHL SUB AND DUP4 PUSH1 0x1 PUSH1 0x1 PUSH1 0xA0 SHL SUB AND EQ ISZERO DUP1 ISZERO PUSH2 0x17C9 JUMPI POP PUSH1 0x0 DUP2 GT JUMPDEST ISZERO PUSH2 0xF59 JUMPI PUSH1 0x1 PUSH1 0x1 PUSH1 0xA0 SHL SUB DUP4 AND ISZERO PUSH2 0x185B JUMPI PUSH1 0x1 PUSH1 0x1 PUSH1 0xA0 SHL SUB DUP4 AND PUSH1 0x0 SWAP1 DUP2 MSTORE PUSH1 0x9 PUSH1 0x20 MSTORE PUSH1 0x40 DUP2 KECCAK256 SLOAD PUSH4 0xFFFFFFFF AND SWAP1 DUP2 PUSH2 0x1809 JUMPI PUSH1 0x0 PUSH2 0x183B JUMP JUMPDEST PUSH1 0x1 PUSH1 0x1 PUSH1 0xA0 SHL SUB DUP6 AND PUSH1 0x0 SWAP1 DUP2 MSTORE PUSH1 0x8 PUSH1 0x20 SWAP1 DUP2 MSTORE PUSH1 0x40 DUP1 DUP4 KECCAK256 PUSH4 0xFFFFFFFF PUSH1 0x0 NOT DUP8 ADD AND DUP5 MSTORE SWAP1 SWAP2 MSTORE SWAP1 KECCAK256 PUSH1 0x1 ADD SLOAD JUMPDEST SWAP1 POP PUSH1 0x0 PUSH2 0x1849 DUP3 DUP6 PUSH2 0x1B0D JUMP JUMPDEST SWAP1 POP PUSH2 0x1857 DUP7 DUP5 DUP5 DUP5 PUSH2 0x1B4F JUMP JUMPDEST POP POP POP JUMPDEST PUSH1 0x1 PUSH1 0x1 PUSH1 0xA0 SHL SUB DUP3 AND ISZERO PUSH2 0xF59 JUMPI PUSH1 0x1 PUSH1 0x1 PUSH1 0xA0 SHL SUB DUP3 AND PUSH1 0x0 SWAP1 DUP2 MSTORE PUSH1 0x9 PUSH1 0x20 MSTORE PUSH1 0x40 DUP2 KECCAK256 SLOAD PUSH4 0xFFFFFFFF AND SWAP1 DUP2 PUSH2 0x1896 JUMPI PUSH1 0x0 PUSH2 0x18C8 JUMP JUMPDEST PUSH1 0x1 PUSH1 0x1 PUSH1 0xA0 SHL SUB DUP5 AND PUSH1 0x0 SWAP1 DUP2 MSTORE PUSH1 0x8 PUSH1 0x20 SWAP1 DUP2 MSTORE PUSH1 0x40 DUP1 DUP4 KECCAK256 PUSH4 0xFFFFFFFF PUSH1 0x0 NOT DUP8 ADD AND DUP5 MSTORE SWAP1 SWAP2 MSTORE SWAP1 KECCAK256 PUSH1 0x1 ADD SLOAD JUMPDEST SWAP1 POP PUSH1 0x0 PUSH2 0x18D6 DUP3 DUP6 PUSH2 0x1667 JUMP JUMPDEST SWAP1 POP PUSH2 0x12A9 DUP6 DUP5 DUP5 DUP5 PUSH2 0x1B4F JUMP JUMPDEST PUSH1 0x1 PUSH1 0x1 PUSH1 0xA0 SHL SUB DUP1 DUP4 AND PUSH1 0x0 SWAP1 DUP2 MSTORE PUSH1 0x7 PUSH1 0x20 MSTORE PUSH1 0x40 DUP2 KECCAK256 SLOAD SWAP1 SWAP2 AND SWAP1 PUSH2 0x190B DUP5 PUSH2 0x939 JUMP JUMPDEST PUSH1 0x1 PUSH1 0x1 PUSH1 0xA0 SHL SUB DUP6 DUP2 AND PUSH1 0x0 DUP2 DUP2 MSTORE PUSH1 0x7 PUSH1 0x20 MSTORE PUSH1 0x40 DUP1 DUP3 KECCAK256 DUP1 SLOAD PUSH1 0x1 PUSH1 0x1 PUSH1 0xA0 SHL SUB NOT AND DUP10 DUP7 AND SWAP1 DUP2 OR SWAP1 SWAP2 SSTORE SWAP1 MLOAD SWAP5 SWAP6 POP SWAP4 SWAP3 DUP7 AND SWAP3 PUSH32 0x3134E8A2E6D97E929A7E54011EA5485D7D196DD5F0BA4D4EF95803E8E3FC257F SWAP2 SWAP1 LOG4 PUSH2 0x1973 DUP3 DUP5 DUP4 PUSH2 0x17A7 JUMP JUMPDEST POP POP POP POP JUMP JUMPDEST PUSH1 0x1 PUSH1 0x1 PUSH1 0xA0 SHL SUB DUP3 AND PUSH2 0x19BE JUMPI PUSH1 0x40 MLOAD PUSH3 0x461BCD PUSH1 0xE5 SHL DUP2 MSTORE PUSH1 0x4 ADD DUP1 DUP1 PUSH1 0x20 ADD DUP3 DUP2 SUB DUP3 MSTORE PUSH1 0x21 DUP2 MSTORE PUSH1 0x20 ADD DUP1 PUSH2 0x1EF4 PUSH1 0x21 SWAP2 CODECOPY PUSH1 0x40 ADD SWAP2 POP POP PUSH1 0x40 MLOAD DUP1 SWAP2 SUB SWAP1 REVERT JUMPDEST PUSH2 0x19FB DUP2 PUSH1 0x40 MLOAD DUP1 PUSH1 0x60 ADD PUSH1 0x40 MSTORE DUP1 PUSH1 0x22 DUP2 MSTORE PUSH1 0x20 ADD PUSH2 0x1F15 PUSH1 0x22 SWAP2 CODECOPY PUSH1 0x1 PUSH1 0x1 PUSH1 0xA0 SHL SUB DUP6 AND PUSH1 0x0 SWAP1 DUP2 MSTORE PUSH1 0x1 PUSH1 0x20 MSTORE PUSH1 0x40 SWAP1 KECCAK256 SLOAD SWAP2 SWAP1 PUSH2 0x15D0 JUMP JUMPDEST PUSH1 0x1 PUSH1 0x1 PUSH1 0xA0 SHL SUB DUP4 AND PUSH1 0x0 SWAP1 DUP2 MSTORE PUSH1 0x1 PUSH1 0x20 MSTORE PUSH1 0x40 SWAP1 KECCAK256 SSTORE PUSH1 0x3 SLOAD PUSH2 0x1A21 SWAP1 DUP3 PUSH2 0x1B0D JUMP JUMPDEST PUSH1 0x3 SSTORE PUSH1 0x40 DUP1 MLOAD DUP3 DUP2 MSTORE SWAP1 MLOAD PUSH1 0x0 SWAP2 PUSH1 0x1 PUSH1 0x1 PUSH1 0xA0 SHL SUB DUP6 AND SWAP2 PUSH32 0xDDF252AD1BE2C89B69C2B068FC378DAA952BA7F163C4A11628F55A4DF523B3EF SWAP2 DUP2 SWAP1 SUB PUSH1 0x20 ADD SWAP1 LOG3 POP POP JUMP JUMPDEST CHAINID SWAP1 JUMP JUMPDEST PUSH1 0x1 PUSH1 0x1 PUSH1 0xA0 SHL SUB DUP2 AND PUSH2 0x1AB2 JUMPI PUSH1 0x40 MLOAD PUSH3 0x461BCD PUSH1 0xE5 SHL DUP2 MSTORE PUSH1 0x4 ADD DUP1 DUP1 PUSH1 0x20 ADD DUP3 DUP2 SUB DUP3 MSTORE PUSH1 0x26 DUP2 MSTORE PUSH1 0x20 ADD DUP1 PUSH2 0x1D73 PUSH1 0x26 SWAP2 CODECOPY PUSH1 0x40 ADD SWAP2 POP POP PUSH1 0x40 MLOAD DUP1 SWAP2 SUB SWAP1 REVERT JUMPDEST PUSH1 0x0 DUP1 SLOAD PUSH1 0x40 MLOAD PUSH1 0x1 PUSH1 0x1 PUSH1 0xA0 SHL SUB DUP1 DUP6 AND SWAP4 SWAP3 AND SWAP2 PUSH32 0x8BE0079C531659141344CD1FD0A4F28419497F9722A3DAAFE3B4186F6B6457E0 SWAP2 LOG3 PUSH1 0x0 DUP1 SLOAD PUSH1 0x1 PUSH1 0x1 PUSH1 0xA0 SHL SUB NOT AND PUSH1 0x1 PUSH1 0x1 PUSH1 0xA0 SHL SUB SWAP3 SWAP1 SWAP3 AND SWAP2 SWAP1 SWAP2 OR SWAP1 SSTORE JUMP JUMPDEST PUSH1 0x0 PUSH2 0x1037 DUP4 DUP4 PUSH1 0x40 MLOAD DUP1 PUSH1 0x40 ADD PUSH1 0x40 MSTORE DUP1 PUSH1 0x1E DUP2 MSTORE PUSH1 0x20 ADD PUSH32 0x536166654D6174683A207375627472616374696F6E206F766572666C6F770000 DUP2 MSTORE POP PUSH2 0x15D0 JUMP JUMPDEST PUSH1 0x0 PUSH2 0x1B73 NUMBER PUSH1 0x40 MLOAD DUP1 PUSH1 0x60 ADD PUSH1 0x40 MSTORE DUP1 PUSH1 0x38 DUP2 MSTORE PUSH1 0x20 ADD PUSH2 0x1F59 PUSH1 0x38 SWAP2 CODECOPY PUSH2 0x1CB4 JUMP JUMPDEST SWAP1 POP PUSH1 0x0 DUP5 PUSH4 0xFFFFFFFF AND GT DUP1 ISZERO PUSH2 0x1BBC JUMPI POP PUSH1 0x1 PUSH1 0x1 PUSH1 0xA0 SHL SUB DUP6 AND PUSH1 0x0 SWAP1 DUP2 MSTORE PUSH1 0x8 PUSH1 0x20 SWAP1 DUP2 MSTORE PUSH1 0x40 DUP1 DUP4 KECCAK256 PUSH4 0xFFFFFFFF PUSH1 0x0 NOT DUP10 ADD DUP2 AND DUP6 MSTORE SWAP3 MSTORE SWAP1 SWAP2 KECCAK256 SLOAD DUP3 DUP3 AND SWAP2 AND EQ JUMPDEST ISZERO PUSH2 0x1BF9 JUMPI PUSH1 0x1 PUSH1 0x1 PUSH1 0xA0 SHL SUB DUP6 AND PUSH1 0x0 SWAP1 DUP2 MSTORE PUSH1 0x8 PUSH1 0x20 SWAP1 DUP2 MSTORE PUSH1 0x40 DUP1 DUP4 KECCAK256 PUSH4 0xFFFFFFFF PUSH1 0x0 NOT DUP10 ADD AND DUP5 MSTORE SWAP1 SWAP2 MSTORE SWAP1 KECCAK256 PUSH1 0x1 ADD DUP3 SWAP1 SSTORE PUSH2 0x1C6A JUMP JUMPDEST PUSH1 0x40 DUP1 MLOAD DUP1 DUP3 ADD DUP3 MSTORE PUSH4 0xFFFFFFFF DUP1 DUP5 AND DUP3 MSTORE PUSH1 0x20 DUP1 DUP4 ADD DUP7 DUP2 MSTORE PUSH1 0x1 PUSH1 0x1 PUSH1 0xA0 SHL SUB DUP11 AND PUSH1 0x0 DUP2 DUP2 MSTORE PUSH1 0x8 DUP5 MSTORE DUP7 DUP2 KECCAK256 DUP12 DUP7 AND DUP3 MSTORE DUP5 MSTORE DUP7 DUP2 KECCAK256 SWAP6 MLOAD DUP7 SLOAD SWAP1 DUP7 AND PUSH4 0xFFFFFFFF NOT SWAP2 DUP3 AND OR DUP8 SSTORE SWAP3 MLOAD PUSH1 0x1 SWAP7 DUP8 ADD SSTORE SWAP1 DUP2 MSTORE PUSH1 0x9 SWAP1 SWAP3 MSTORE SWAP4 SWAP1 KECCAK256 DUP1 SLOAD SWAP3 DUP9 ADD SWAP1 SWAP2 AND SWAP2 SWAP1 SWAP3 AND OR SWAP1 SSTORE JUMPDEST PUSH1 0x40 DUP1 MLOAD DUP5 DUP2 MSTORE PUSH1 0x20 DUP2 ADD DUP5 SWAP1 MSTORE DUP2 MLOAD PUSH1 0x1 PUSH1 0x1 PUSH1 0xA0 SHL SUB DUP9 AND SWAP3 PUSH32 0xDEC2BACDD2F05B59DE34DA9B523DFF8BE42E5E38E818C82FDB0BAE774387A724 SWAP3 DUP3 SWAP1 SUB ADD SWAP1 LOG2 POP POP POP POP POP JUMP JUMPDEST PUSH1 0x0 DUP2 PUSH5 0x100000000 DUP5 LT PUSH2 0x1D0A JUMPI PUSH1 0x40 MLOAD PUSH3 0x461BCD PUSH1 0xE5 SHL DUP2 MSTORE PUSH1 0x20 PUSH1 0x4 DUP3 ADD DUP2 DUP2 MSTORE DUP4 MLOAD PUSH1 0x24 DUP5 ADD MSTORE DUP4 MLOAD SWAP1 SWAP3 DUP4 SWAP3 PUSH1 0x44 SWAP1 SWAP2 ADD SWAP2 SWAP1 DUP6 ADD SWAP1 DUP1 DUP4 DUP4 PUSH1 0x0 DUP4 ISZERO PUSH2 0x1624 JUMPI DUP2 DUP2 ADD MLOAD DUP4 DUP3 ADD MSTORE PUSH1 0x20 ADD PUSH2 0x160C JUMP JUMPDEST POP SWAP2 SWAP3 SWAP2 POP POP JUMP JUMPDEST PUSH1 0x40 DUP1 MLOAD DUP1 DUP3 ADD SWAP1 SWAP2 MSTORE PUSH1 0x0 DUP1 DUP3 MSTORE PUSH1 0x20 DUP3 ADD MSTORE SWAP1 JUMP INVALID TIMESTAMP GASLIMIT POP ORIGIN ADDRESS GASPRICE KECCAK256 PUSH21 0x72616E736665722066726F6D20746865207A65726F KECCAK256 PUSH2 0x6464 PUSH19 0x65737342455032303A20617070726F76652066 PUSH19 0x6F6D20746865207A65726F2061646472657373 0x4F PUSH24 0x6E61626C653A206E6577206F776E65722069732074686520 PUSH27 0x65726F20616464726573734C616E64626173653A3A676574507269 PUSH16 0x72566F7465733A206E6F742079657420 PUSH5 0x657465726D PUSH10 0x6E656442455032303A20 PUSH21 0x72616E7366657220616D6F756E7420657863656564 PUSH20 0x20616C6C6F77616E63654C616E64626173653A3A PUSH5 0x656C656761 PUSH21 0x6542795369673A20696E76616C6964207369676E61 PUSH21 0x7572654C616E64626173653A3A64656C6567617465 TIMESTAMP PUSH26 0x5369673A207369676E617475726520657870697265644C616E64 PUSH3 0x617365 GASPRICE GASPRICE PUSH5 0x656C656761 PUSH21 0x6542795369673A20696E76616C6964206E6F6E6365 0x4F PUSH24 0x6E61626C653A2063616C6C6572206973206E6F7420746865 KECCAK256 PUSH16 0x776E657242455032303A207472616E73 PUSH7 0x657220616D6F75 PUSH15 0x7420657863656564732062616C616E PUSH4 0x65424550 ORIGIN ADDRESS GASPRICE KECCAK256 PUSH21 0x72616E7366657220746F20746865207A65726F2061 PUSH5 0x6472657373 TIMESTAMP GASLIMIT POP ORIGIN ADDRESS GASPRICE KECCAK256 PUSH5 0x6563726561 PUSH20 0x656420616C6C6F77616E63652062656C6F77207A PUSH6 0x726F42455032 ADDRESS GASPRICE KECCAK256 PUSH3 0x75726E KECCAK256 PUSH7 0x726F6D20746865 KECCAK256 PUSH27 0x65726F206164647265737342455032303A206275726E20616D6F75 PUSH15 0x7420657863656564732062616C616E PUSH4 0x65424550 ORIGIN ADDRESS GASPRICE KECCAK256 PUSH2 0x7070 PUSH19 0x6F766520746F20746865207A65726F20616464 PUSH19 0x6573734C616E64626173653A3A5F7772697465 NUMBER PUSH9 0x65636B706F696E743A KECCAK256 PUSH3 0x6C6F63 PUSH12 0x206E756D6265722065786365 PUSH6 0x647320333220 PUSH3 0x697473 LOG2 PUSH5 0x6970667358 0x22 SLT KECCAK256 0xCA 0x1E LT CALLER SHL 0xE7 SMOD 0x5C SWAP15 GAS GT 0xE 0xE2 0xCA DUP5 0xCF 0xDE 0xD6 0xD0 MSTORE KECCAK256 SMOD PUSH29 0x5C65DFD3C6743B019464736F6C634300060C0033000000000000000000 "
				},
				"gasEstimates": {
					"creation": {
						"codeDepositCost": "1626800",
						"executionCost": "infinite",
						"totalCost": "infinite"
					},
					"external": {
						"DELEGATION_TYPEHASH()": "264",
						"DOMAIN_TYPEHASH()": "244",
						"allowance(address,address)": "1294",
						"approve(address,uint256)": "infinite",
						"balanceOf(address)": "1209",
						"burn(address,uint256)": "infinite",
						"checkpoints(address,uint32)": "2168",
						"decimals()": "1103",
						"decreaseAllowance(address,uint256)": "infinite",
						"delegate(address)": "infinite",
						"delegateBySig(address,uint256,uint256,uint8,bytes32,bytes32)": "infinite",
						"delegates(address)": "1262",
						"getCurrentVotes(address)": "2250",
						"getOwner()": "1140",
						"getPriorVotes(address,uint256)": "infinite",
						"increaseAllowance(address,uint256)": "infinite",
						"lbc()": "1160",
						"mint(address,uint256)": "infinite",
						"mint(uint256)": "infinite",
						"name()": "infinite",
						"nonces(address)": "1170",
						"numCheckpoints(address)": "1184",
						"owner()": "1127",
						"renounceOwnership()": "infinite",
						"safeCakeTransfer(address,uint256)": "infinite",
						"symbol()": "infinite",
						"totalSupply()": "1089",
						"transfer(address,uint256)": "infinite",
						"transferFrom(address,address,uint256)": "infinite",
						"transferOwnership(address)": "infinite"
					},
					"internal": {
						"_delegate(address,address)": "infinite",
						"_moveDelegates(address,address,uint256)": "infinite",
						"_writeCheckpoint(address,uint32,uint256,uint256)": "infinite",
						"getChainId()": "14",
						"safe32(uint256,string memory)": "infinite"
					}
				},
				"methodIdentifiers": {
					"DELEGATION_TYPEHASH()": "e7a324dc",
					"DOMAIN_TYPEHASH()": "20606b70",
					"allowance(address,address)": "dd62ed3e",
					"approve(address,uint256)": "095ea7b3",
					"balanceOf(address)": "70a08231",
					"burn(address,uint256)": "9dc29fac",
					"checkpoints(address,uint32)": "f1127ed8",
					"decimals()": "313ce567",
					"decreaseAllowance(address,uint256)": "a457c2d7",
					"delegate(address)": "5c19a95c",
					"delegateBySig(address,uint256,uint256,uint8,bytes32,bytes32)": "c3cda520",
					"delegates(address)": "587cde1e",
					"getCurrentVotes(address)": "b4b5ea57",
					"getOwner()": "893d20e8",
					"getPriorVotes(address,uint256)": "782d6fe1",
					"increaseAllowance(address,uint256)": "39509351",
					"lbc()": "358892ec",
					"mint(address,uint256)": "40c10f19",
					"mint(uint256)": "a0712d68",
					"name()": "06fdde03",
					"nonces(address)": "7ecebe00",
					"numCheckpoints(address)": "6fcfff45",
					"owner()": "8da5cb5b",
					"renounceOwnership()": "715018a6",
					"safeCakeTransfer(address,uint256)": "a2e6ddcc",
					"symbol()": "95d89b41",
					"totalSupply()": "18160ddd",
					"transfer(address,uint256)": "a9059cbb",
					"transferFrom(address,address,uint256)": "23b872dd",
					"transferOwnership(address)": "f2fde38b"
				}
			},
			"storageLayout": {
				"storage": [
					{
						"astId": 31,
						"contract": "contracts/SyrupBar.sol:SyrupBar",
						"label": "_owner",
						"offset": 0,
						"slot": "0",
						"type": "t_address"
					},
					{
						"astId": 728,
						"contract": "contracts/SyrupBar.sol:SyrupBar",
						"label": "_balances",
						"offset": 0,
						"slot": "1",
						"type": "t_mapping(t_address,t_uint256)"
					},
					{
						"astId": 734,
						"contract": "contracts/SyrupBar.sol:SyrupBar",
						"label": "_allowances",
						"offset": 0,
						"slot": "2",
						"type": "t_mapping(t_address,t_mapping(t_address,t_uint256))"
					},
					{
						"astId": 736,
						"contract": "contracts/SyrupBar.sol:SyrupBar",
						"label": "_totalSupply",
						"offset": 0,
						"slot": "3",
						"type": "t_uint256"
					},
					{
						"astId": 738,
						"contract": "contracts/SyrupBar.sol:SyrupBar",
						"label": "_name",
						"offset": 0,
						"slot": "4",
						"type": "t_string_storage"
					},
					{
						"astId": 740,
						"contract": "contracts/SyrupBar.sol:SyrupBar",
						"label": "_symbol",
						"offset": 0,
						"slot": "5",
						"type": "t_string_storage"
					},
					{
						"astId": 742,
						"contract": "contracts/SyrupBar.sol:SyrupBar",
						"label": "_decimals",
						"offset": 0,
						"slot": "6",
						"type": "t_uint8"
					},
					{
						"astId": 1923,
						"contract": "contracts/SyrupBar.sol:SyrupBar",
						"label": "lbc",
						"offset": 1,
						"slot": "6",
						"type": "t_contract(LandbaseToken)1864"
					},
					{
						"astId": 1978,
						"contract": "contracts/SyrupBar.sol:SyrupBar",
						"label": "_delegates",
						"offset": 0,
						"slot": "7",
						"type": "t_mapping(t_address,t_address)"
					},
					{
						"astId": 1990,
						"contract": "contracts/SyrupBar.sol:SyrupBar",
						"label": "checkpoints",
						"offset": 0,
						"slot": "8",
						"type": "t_mapping(t_address,t_mapping(t_uint32,t_struct(Checkpoint)1983_storage))"
					},
					{
						"astId": 1995,
						"contract": "contracts/SyrupBar.sol:SyrupBar",
						"label": "numCheckpoints",
						"offset": 0,
						"slot": "9",
						"type": "t_mapping(t_address,t_uint32)"
					},
					{
						"astId": 2012,
						"contract": "contracts/SyrupBar.sol:SyrupBar",
						"label": "nonces",
						"offset": 0,
						"slot": "10",
						"type": "t_mapping(t_address,t_uint256)"
					}
				],
				"types": {
					"t_address": {
						"encoding": "inplace",
						"label": "address",
						"numberOfBytes": "20"
					},
					"t_contract(LandbaseToken)1864": {
						"encoding": "inplace",
						"label": "contract LandbaseToken",
						"numberOfBytes": "20"
					},
					"t_mapping(t_address,t_address)": {
						"encoding": "mapping",
						"key": "t_address",
						"label": "mapping(address => address)",
						"numberOfBytes": "32",
						"value": "t_address"
					},
					"t_mapping(t_address,t_mapping(t_address,t_uint256))": {
						"encoding": "mapping",
						"key": "t_address",
						"label": "mapping(address => mapping(address => uint256))",
						"numberOfBytes": "32",
						"value": "t_mapping(t_address,t_uint256)"
					},
					"t_mapping(t_address,t_mapping(t_uint32,t_struct(Checkpoint)1983_storage))": {
						"encoding": "mapping",
						"key": "t_address",
						"label": "mapping(address => mapping(uint32 => struct SyrupBar.Checkpoint))",
						"numberOfBytes": "32",
						"value": "t_mapping(t_uint32,t_struct(Checkpoint)1983_storage)"
					},
					"t_mapping(t_address,t_uint256)": {
						"encoding": "mapping",
						"key": "t_address",
						"label": "mapping(address => uint256)",
						"numberOfBytes": "32",
						"value": "t_uint256"
					},
					"t_mapping(t_address,t_uint32)": {
						"encoding": "mapping",
						"key": "t_address",
						"label": "mapping(address => uint32)",
						"numberOfBytes": "32",
						"value": "t_uint32"
					},
					"t_mapping(t_uint32,t_struct(Checkpoint)1983_storage)": {
						"encoding": "mapping",
						"key": "t_uint32",
						"label": "mapping(uint32 => struct SyrupBar.Checkpoint)",
						"numberOfBytes": "32",
						"value": "t_struct(Checkpoint)1983_storage"
					},
					"t_string_storage": {
						"encoding": "bytes",
						"label": "string",
						"numberOfBytes": "32"
					},
					"t_struct(Checkpoint)1983_storage": {
						"encoding": "inplace",
						"label": "struct SyrupBar.Checkpoint",
						"members": [
							{
								"astId": 1980,
								"contract": "contracts/SyrupBar.sol:SyrupBar",
								"label": "fromBlock",
								"offset": 0,
								"slot": "0",
								"type": "t_uint32"
							},
							{
								"astId": 1982,
								"contract": "contracts/SyrupBar.sol:SyrupBar",
								"label": "votes",
								"offset": 0,
								"slot": "1",
								"type": "t_uint256"
							}
						],
						"numberOfBytes": "64"
					},
					"t_uint256": {
						"encoding": "inplace",
						"label": "uint256",
						"numberOfBytes": "32"
					},
					"t_uint32": {
						"encoding": "inplace",
						"label": "uint32",
						"numberOfBytes": "4"
					},
					"t_uint8": {
						"encoding": "inplace",
						"label": "uint8",
						"numberOfBytes": "1"
					}
				}
			},
			"userdoc": {
				"events": {
					"DelegateChanged(address,address,address)": {
						"notice": "An event thats emitted when an account changes its delegate"
					},
					"DelegateVotesChanged(address,uint256,uint256)": {
						"notice": "An event thats emitted when a delegate account's vote balance changes"
					}
				},
				"kind": "user",
				"methods": {
					"DELEGATION_TYPEHASH()": {
						"notice": "The EIP-712 typehash for the delegation struct used by the contract"
					},
					"DOMAIN_TYPEHASH()": {
						"notice": "The EIP-712 typehash for the contract's domain"
					},
					"checkpoints(address,uint32)": {
						"notice": "A record of votes checkpoints for each account, by index"
					},
					"delegate(address)": {
						"notice": "Delegate votes from `msg.sender` to `delegatee`"
					},
					"delegateBySig(address,uint256,uint256,uint8,bytes32,bytes32)": {
						"notice": "Delegates votes from signatory to `delegatee`"
					},
					"delegates(address)": {
						"notice": "Delegate votes from `msg.sender` to `delegatee`"
					},
					"getCurrentVotes(address)": {
						"notice": "Gets the current votes balance for `account`"
					},
					"getPriorVotes(address,uint256)": {
						"notice": "Determine the prior number of votes for an account as of a block number"
					},
					"mint(address,uint256)": {
						"notice": "Creates `_amount` token to `_to`. Must only be called by the owner (MasterChef)."
					},
					"nonces(address)": {
						"notice": "A record of states for signing / validating signatures"
					},
					"numCheckpoints(address)": {
						"notice": "The number of checkpoints for each account"
					}
				},
				"version": 1
			}
		}
	}
}