{
	"contracts/LandbaseToken.sol": {
		"LandbaseToken": {
			"abi": [
				{
					"anonymous": false,
					"inputs": [
						{
							"indexed": true,
							"internalType": "address",
							"name": "owner",
							"type": "address"
						},
						{
							"indexed": true,
							"internalType": "address",
							"name": "spender",
							"type": "address"
						},
						{
							"indexed": false,
							"internalType": "uint256",
							"name": "value",
							"type": "uint256"
						}
					],
					"name": "Approval",
					"type": "event"
				},
				{
					"anonymous": false,
					"inputs": [
						{
							"indexed": true,
							"internalType": "address",
							"name": "delegator",
							"type": "address"
						},
						{
							"indexed": true,
							"internalType": "address",
							"name": "fromDelegate",
							"type": "address"
						},
						{
							"indexed": true,
							"internalType": "address",
							"name": "toDelegate",
							"type": "address"
						}
					],
					"name": "DelegateChanged",
					"type": "event"
				},
				{
					"anonymous": false,
					"inputs": [
						{
							"indexed": true,
							"internalType": "address",
							"name": "delegate",
							"type": "address"
						},
						{
							"indexed": false,
							"internalType": "uint256",
							"name": "previousBalance",
							"type": "uint256"
						},
						{
							"indexed": false,
							"internalType": "uint256",
							"name": "newBalance",
							"type": "uint256"
						}
					],
					"name": "DelegateVotesChanged",
					"type": "event"
				},
				{
					"anonymous": false,
					"inputs": [
						{
							"indexed": true,
							"internalType": "address",
							"name": "previousOwner",
							"type": "address"
						},
						{
							"indexed": true,
							"internalType": "address",
							"name": "newOwner",
							"type": "address"
						}
					],
					"name": "OwnershipTransferred",
					"type": "event"
				},
				{
					"anonymous": false,
					"inputs": [
						{
							"indexed": true,
							"internalType": "address",
							"name": "from",
							"type": "address"
						},
						{
							"indexed": true,
							"internalType": "address",
							"name": "to",
							"type": "address"
						},
						{
							"indexed": false,
							"internalType": "uint256",
							"name": "value",
							"type": "uint256"
						}
					],
					"name": "Transfer",
					"type": "event"
				},
				{
					"inputs": [],
					"name": "DELEGATION_TYPEHASH",
					"outputs": [
						{
							"internalType": "bytes32",
							"name": "",
							"type": "bytes32"
						}
					],
					"stateMutability": "view",
					"type": "function"
				},
				{
					"inputs": [],
					"name": "DOMAIN_TYPEHASH",
					"outputs": [
						{
							"internalType": "bytes32",
							"name": "",
							"type": "bytes32"
						}
					],
					"stateMutability": "view",
					"type": "function"
				},
				{
					"inputs": [
						{
							"internalType": "address",
							"name": "_addMinter",
							"type": "address"
						}
					],
					"name": "addMinter",
					"outputs": [
						{
							"internalType": "bool",
							"name": "",
							"type": "bool"
						}
					],
					"stateMutability": "nonpayable",
					"type": "function"
				},
				{
					"inputs": [
						{
							"internalType": "address",
							"name": "owner",
							"type": "address"
						},
						{
							"internalType": "address",
							"name": "spender",
							"type": "address"
						}
					],
					"name": "allowance",
					"outputs": [
						{
							"internalType": "uint256",
							"name": "",
							"type": "uint256"
						}
					],
					"stateMutability": "view",
					"type": "function"
				},
				{
					"inputs": [
						{
							"internalType": "address",
							"name": "spender",
							"type": "address"
						},
						{
							"internalType": "uint256",
							"name": "amount",
							"type": "uint256"
						}
					],
					"name": "approve",
					"outputs": [
						{
							"internalType": "bool",
							"name": "",
							"type": "bool"
						}
					],
					"stateMutability": "nonpayable",
					"type": "function"
				},
				{
					"inputs": [
						{
							"internalType": "address",
							"name": "account",
							"type": "address"
						}
					],
					"name": "balanceOf",
					"outputs": [
						{
							"internalType": "uint256",
							"name": "",
							"type": "uint256"
						}
					],
					"stateMutability": "view",
					"type": "function"
				},
				{
					"inputs": [
						{
							"internalType": "address",
							"name": "",
							"type": "address"
						},
						{
							"internalType": "uint32",
							"name": "",
							"type": "uint32"
						}
					],
					"name": "checkpoints",
					"outputs": [
						{
							"internalType": "uint32",
							"name": "fromBlock",
							"type": "uint32"
						},
						{
							"internalType": "uint256",
							"name": "votes",
							"type": "uint256"
						}
					],
					"stateMutability": "view",
					"type": "function"
				},
				{
					"inputs": [],
					"name": "decimals",
					"outputs": [
						{
							"internalType": "uint8",
							"name": "",
							"type": "uint8"
						}
					],
					"stateMutability": "view",
					"type": "function"
				},
				{
					"inputs": [
						{
							"internalType": "address",
							"name": "spender",
							"type": "address"
						},
						{
							"internalType": "uint256",
							"name": "subtractedValue",
							"type": "uint256"
						}
					],
					"name": "decreaseAllowance",
					"outputs": [
						{
							"internalType": "bool",
							"name": "",
							"type": "bool"
						}
					],
					"stateMutability": "nonpayable",
					"type": "function"
				},
				{
					"inputs": [
						{
							"internalType": "address",
							"name": "_delMinter",
							"type": "address"
						}
					],
					"name": "delMinter",
					"outputs": [
						{
							"internalType": "bool",
							"name": "",
							"type": "bool"
						}
					],
					"stateMutability": "nonpayable",
					"type": "function"
				},
				{
					"inputs": [
						{
							"internalType": "address",
							"name": "delegatee",
							"type": "address"
						}
					],
					"name": "delegate",
					"outputs": [],
					"stateMutability": "nonpayable",
					"type": "function"
				},
				{
					"inputs": [
						{
							"internalType": "address",
							"name": "delegatee",
							"type": "address"
						},
						{
							"internalType": "uint256",
							"name": "nonce",
							"type": "uint256"
						},
						{
							"internalType": "uint256",
							"name": "expiry",
							"type": "uint256"
						},
						{
							"internalType": "uint8",
							"name": "v",
							"type": "uint8"
						},
						{
							"internalType": "bytes32",
							"name": "r",
							"type": "bytes32"
						},
						{
							"internalType": "bytes32",
							"name": "s",
							"type": "bytes32"
						}
					],
					"name": "delegateBySig",
					"outputs": [],
					"stateMutability": "nonpayable",
					"type": "function"
				},
				{
					"inputs": [
						{
							"internalType": "address",
							"name": "delegator",
							"type": "address"
						}
					],
					"name": "delegates",
					"outputs": [
						{
							"internalType": "address",
							"name": "",
							"type": "address"
						}
					],
					"stateMutability": "view",
					"type": "function"
				},
				{
					"inputs": [
						{
							"internalType": "address",
							"name": "account",
							"type": "address"
						}
					],
					"name": "getCurrentVotes",
					"outputs": [
						{
							"internalType": "uint256",
							"name": "",
							"type": "uint256"
						}
					],
					"stateMutability": "view",
					"type": "function"
				},
				{
					"inputs": [
						{
							"internalType": "uint256",
							"name": "_index",
							"type": "uint256"
						}
					],
					"name": "getMinter",
					"outputs": [
						{
							"internalType": "address",
							"name": "",
							"type": "address"
						}
					],
					"stateMutability": "view",
					"type": "function"
				},
				{
					"inputs": [],
					"name": "getMinterLength",
					"outputs": [
						{
							"internalType": "uint256",
							"name": "",
							"type": "uint256"
						}
					],
					"stateMutability": "view",
					"type": "function"
				},
				{
					"inputs": [],
					"name": "getOwner",
					"outputs": [
						{
							"internalType": "address",
							"name": "",
							"type": "address"
						}
					],
					"stateMutability": "view",
					"type": "function"
				},
				{
					"inputs": [
						{
							"internalType": "address",
							"name": "account",
							"type": "address"
						},
						{
							"internalType": "uint256",
							"name": "blockNumber",
							"type": "uint256"
						}
					],
					"name": "getPriorVotes",
					"outputs": [
						{
							"internalType": "uint256",
							"name": "",
							"type": "uint256"
						}
					],
					"stateMutability": "view",
					"type": "function"
				},
				{
					"inputs": [
						{
							"internalType": "address",
							"name": "spender",
							"type": "address"
						},
						{
							"internalType": "uint256",
							"name": "addedValue",
							"type": "uint256"
						}
					],
					"name": "increaseAllowance",
					"outputs": [
						{
							"internalType": "bool",
							"name": "",
							"type": "bool"
						}
					],
					"stateMutability": "nonpayable",
					"type": "function"
				},
				{
					"inputs": [
						{
							"internalType": "address",
							"name": "account",
							"type": "address"
						}
					],
					"name": "isMinter",
					"outputs": [
						{
							"internalType": "bool",
							"name": "",
							"type": "bool"
						}
					],
					"stateMutability": "view",
					"type": "function"
				},
				{
					"inputs": [
						{
							"internalType": "address",
							"name": "_to",
							"type": "address"
						},
						{
							"internalType": "uint256",
							"name": "_amount",
							"type": "uint256"
						}
					],
					"name": "mint",
					"outputs": [
						{
							"internalType": "bool",
							"name": "",
							"type": "bool"
						}
					],
					"stateMutability": "nonpayable",
					"type": "function"
				},
				{
					"inputs": [
						{
							"internalType": "uint256",
							"name": "amount",
							"type": "uint256"
						}
					],
					"name": "mint",
					"outputs": [
						{
							"internalType": "bool",
							"name": "",
							"type": "bool"
						}
					],
					"stateMutability": "nonpayable",
					"type": "function"
				},
				{
					"inputs": [],
					"name": "name",
					"outputs": [
						{
							"internalType": "string",
							"name": "",
							"type": "string"
						}
					],
					"stateMutability": "view",
					"type": "function"
				},
				{
					"inputs": [
						{
							"internalType": "address",
							"name": "",
							"type": "address"
						}
					],
					"name": "nonces",
					"outputs": [
						{
							"internalType": "uint256",
							"name": "",
							"type": "uint256"
						}
					],
					"stateMutability": "view",
					"type": "function"
				},
				{
					"inputs": [
						{
							"internalType": "address",
							"name": "",
							"type": "address"
						}
					],
					"name": "numCheckpoints",
					"outputs": [
						{
							"internalType": "uint32",
							"name": "",
							"type": "uint32"
						}
					],
					"stateMutability": "view",
					"type": "function"
				},
				{
					"inputs": [],
					"name": "owner",
					"outputs": [
						{
							"internalType": "address",
							"name": "",
							"type": "address"
						}
					],
					"stateMutability": "view",
					"type": "function"
				},
				{
					"inputs": [],
					"name": "renounceOwnership",
					"outputs": [],
					"stateMutability": "nonpayable",
					"type": "function"
				},
				{
					"inputs": [],
					"name": "symbol",
					"outputs": [
						{
							"internalType": "string",
							"name": "",
							"type": "string"
						}
					],
					"stateMutability": "view",
					"type": "function"
				},
				{
					"inputs": [],
					"name": "totalSupply",
					"outputs": [
						{
							"internalType": "uint256",
							"name": "",
							"type": "uint256"
						}
					],
					"stateMutability": "view",
					"type": "function"
				},
				{
					"inputs": [
						{
							"internalType": "address",
							"name": "recipient",
							"type": "address"
						},
						{
							"internalType": "uint256",
							"name": "amount",
							"type": "uint256"
						}
					],
					"name": "transfer",
					"outputs": [
						{
							"internalType": "bool",
							"name": "",
							"type": "bool"
						}
					],
					"stateMutability": "nonpayable",
					"type": "function"
				},
				{
					"inputs": [
						{
							"internalType": "address",
							"name": "sender",
							"type": "address"
						},
						{
							"internalType": "address",
							"name": "recipient",
							"type": "address"
						},
						{
							"internalType": "uint256",
							"name": "amount",
							"type": "uint256"
						}
					],
					"name": "transferFrom",
					"outputs": [
						{
							"internalType": "bool",
							"name": "",
							"type": "bool"
						}
					],
					"stateMutability": "nonpayable",
					"type": "function"
				},
				{
					"inputs": [
						{
							"internalType": "address",
							"name": "newOwner",
							"type": "address"
						}
					],
					"name": "transferOwnership",
					"outputs": [],
					"stateMutability": "nonpayable",
					"type": "function"
				}
			],
			"devdoc": {
				"kind": "dev",
				"methods": {
					"allowance(address,address)": {
						"details": "See {BEP20-allowance}."
					},
					"approve(address,uint256)": {
						"details": "See {BEP20-approve}. Requirements: - `spender` cannot be the zero address."
					},
					"balanceOf(address)": {
						"details": "See {BEP20-balanceOf}."
					},
					"decimals()": {
						"details": "Returns the token decimals."
					},
					"decreaseAllowance(address,uint256)": {
						"details": "Atomically decreases the allowance granted to `spender` by the caller. This is an alternative to {approve} that can be used as a mitigation for problems described in {BEP20-approve}. Emits an {Approval} event indicating the updated allowance. Requirements: - `spender` cannot be the zero address. - `spender` must have allowance for the caller of at least `subtractedValue`."
					},
					"delegate(address)": {
						"params": {
							"delegatee": "The address to delegate votes to"
						}
					},
					"delegateBySig(address,uint256,uint256,uint8,bytes32,bytes32)": {
						"params": {
							"delegatee": "The address to delegate votes to",
							"expiry": "The time at which to expire the signature",
							"nonce": "The contract state required to match the signature",
							"r": "Half of the ECDSA signature pair",
							"s": "Half of the ECDSA signature pair",
							"v": "The recovery byte of the signature"
						}
					},
					"delegates(address)": {
						"params": {
							"delegator": "The address to get delegatee for"
						}
					},
					"getCurrentVotes(address)": {
						"params": {
							"account": "The address to get votes balance"
						},
						"returns": {
							"_0": "The number of current votes for `account`"
						}
					},
					"getOwner()": {
						"details": "Returns the bep token owner."
					},
					"getPriorVotes(address,uint256)": {
						"details": "Block number must be a finalized block or else this function will revert to prevent misinformation.",
						"params": {
							"account": "The address of the account to check",
							"blockNumber": "The block number to get the vote balance at"
						},
						"returns": {
							"_0": "The number of votes the account had as of the given block"
						}
					},
					"increaseAllowance(address,uint256)": {
						"details": "Atomically increases the allowance granted to `spender` by the caller. This is an alternative to {approve} that can be used as a mitigation for problems described in {BEP20-approve}. Emits an {Approval} event indicating the updated allowance. Requirements: - `spender` cannot be the zero address."
					},
					"mint(uint256)": {
						"details": "Creates `amount` tokens and assigns them to `msg.sender`, increasing the total supply. Requirements - `msg.sender` must be the token owner"
					},
					"name()": {
						"details": "Returns the token name."
					},
					"owner()": {
						"details": "Returns the address of the current owner."
					},
					"renounceOwnership()": {
						"details": "Leaves the contract without owner. It will not be possible to call `onlyOwner` functions anymore. Can only be called by the current owner. NOTE: Renouncing ownership will leave the contract without an owner, thereby removing any functionality that is only available to the owner."
					},
					"symbol()": {
						"details": "Returns the token symbol."
					},
					"totalSupply()": {
						"details": "See {BEP20-totalSupply}."
					},
					"transfer(address,uint256)": {
						"details": "See {BEP20-transfer}. Requirements: - `recipient` cannot be the zero address. - the caller must have a balance of at least `amount`."
					},
					"transferFrom(address,address,uint256)": {
						"details": "See {BEP20-transferFrom}. Emits an {Approval} event indicating the updated allowance. This is not required by the EIP. See the note at the beginning of {BEP20}; Requirements: - `sender` and `recipient` cannot be the zero address. - `sender` must have a balance of at least `amount`. - the caller must have allowance for `sender`'s tokens of at least `amount`."
					},
					"transferOwnership(address)": {
						"details": "Transfers ownership of the contract to a new account (`newOwner`). Can only be called by the current owner."
					}
				},
				"version": 1
			},
			"evm": {
				"assembly": "    /* \"contracts/LandbaseToken.sol\":166:10436  contract LandbaseToken is BEP20(\"Landbase Coin\", \"LBC\") {... */\n  mstore(0x40, 0x80)\n  callvalue\n  dup1\n  iszero\n  tag_1\n  jumpi\n  0x00\n  dup1\n  revert\ntag_1:\n  pop\n    /* \"contracts/BEP20.sol\":878:1035  constructor(string memory tokenName, string memory tokenSymbol) {... */\n  mload(0x40)\n  dup1\n  0x40\n  add\n  0x40\n  mstore\n  dup1\n  0x0d\n  dup2\n  mstore\n  0x20\n  add\n  shl(0x99, 0x2630b7323130b9b29021b7b4b7)\n  dup2\n  mstore\n  pop\n  mload(0x40)\n  dup1\n  0x40\n  add\n  0x40\n  mstore\n  dup1\n  0x03\n  dup2\n  mstore\n  0x20\n  add\n  shl(0xe8, 0x4c4243)\n  dup2\n  mstore\n  pop\n    /* \"contracts/access/Ownable.sol\":894:917  _setOwner(_msgSender()) */\n  tag_5\n    /* \"contracts/access/Ownable.sol\":904:916  _msgSender() */\n  tag_6\n    /* \"contracts/access/Ownable.sol\":904:914  _msgSender */\n  shl(0x20, tag_7)\n    /* \"contracts/access/Ownable.sol\":904:916  _msgSender() */\n  0x20\n  shr\n  jump\t// in\ntag_6:\n    /* \"contracts/access/Ownable.sol\":894:903  _setOwner */\n  tag_8\n    /* \"contracts/access/Ownable.sol\":894:917  _setOwner(_msgSender()) */\n  jump\t// in\ntag_5:\n    /* \"contracts/BEP20.sol\":953:970  _name = tokenName */\n  dup2\n  mload\n  tag_10\n  swap1\n    /* \"contracts/BEP20.sol\":953:958  _name */\n  0x06\n  swap1\n    /* \"contracts/BEP20.sol\":953:970  _name = tokenName */\n  0x20\n  dup6\n  add\n  swap1\n  tag_11\n  jump\t// in\ntag_10:\n  pop\n    /* \"contracts/BEP20.sol\":981:1002  _symbol = tokenSymbol */\n  dup1\n  mload\n  tag_12\n  swap1\n    /* \"contracts/BEP20.sol\":981:988  _symbol */\n  0x05\n  swap1\n    /* \"contracts/BEP20.sol\":981:1002  _symbol = tokenSymbol */\n  0x20\n  dup5\n  add\n  swap1\n  tag_11\n  jump\t// in\ntag_12:\n  pop\n  pop\n    /* \"contracts/BEP20.sol\":1013:1022  _decimals */\n  0x04\n    /* \"contracts/BEP20.sol\":1013:1027  _decimals = 18 */\n  dup1\n  sload\n  not(0xff)\n  and\n    /* \"contracts/BEP20.sol\":1025:1027  18 */\n  0x12\n    /* \"contracts/BEP20.sol\":1013:1027  _decimals = 18 */\n  or\n  swap1\n  sstore\n  pop\n    /* \"contracts/LandbaseToken.sol\":166:10436  contract LandbaseToken is BEP20(\"Landbase Coin\", \"LBC\") {... */\n  jump(tag_27)\n    /* \"contracts/utils/Context.sol\":602:700  function _msgSender() internal view virtual returns (address) {... */\ntag_7:\n    /* \"contracts/utils/Context.sol\":682:692  msg.sender */\n  caller\n  swap1\n    /* \"contracts/utils/Context.sol\":602:700  function _msgSender() internal view virtual returns (address) {... */\n  jump\t// out\n    /* \"contracts/access/Ownable.sol\":2106:2279  function _setOwner(address newOwner) private {... */\ntag_8:\n    /* \"contracts/access/Ownable.sol\":2162:2178  address oldOwner */\n  0x00\n    /* \"contracts/access/Ownable.sol\":2181:2187  _owner */\n  dup1\n  sload\n  sub(shl(0xa0, 0x01), 0x01)\n    /* \"contracts/access/Ownable.sol\":2198:2215  _owner = newOwner */\n  dup4\n  dup2\n  and\n  not(sub(shl(0xa0, 0x01), 0x01))\n  dup4\n  and\n  dup2\n  or\n  dup5\n  sstore\n    /* \"contracts/access/Ownable.sol\":2231:2271  OwnershipTransferred(oldOwner, newOwner) */\n  mload(0x40)\n    /* \"contracts/access/Ownable.sol\":2181:2187  _owner */\n  swap2\n  swap1\n  swap3\n  and\n  swap3\n  dup4\n  swap2\n    /* \"contracts/access/Ownable.sol\":2231:2271  OwnershipTransferred(oldOwner, newOwner) */\n  0x8be0079c531659141344cd1fd0a4f28419497f9722a3daafe3b4186f6b6457e0\n  swap2\n    /* \"contracts/access/Ownable.sol\":2162:2178  address oldOwner */\n  swap1\n    /* \"contracts/access/Ownable.sol\":2231:2271  OwnershipTransferred(oldOwner, newOwner) */\n  log3\n    /* \"contracts/access/Ownable.sol\":2151:2279  {... */\n  pop\n    /* \"contracts/access/Ownable.sol\":2106:2279  function _setOwner(address newOwner) private {... */\n  pop\n  jump\t// out\n    /* \"contracts/LandbaseToken.sol\":166:10436  contract LandbaseToken is BEP20(\"Landbase Coin\", \"LBC\") {... */\ntag_11:\n  dup3\n  dup1\n  sload\n  tag_16\n  swap1\n  tag_17\n  jump\t// in\ntag_16:\n  swap1\n  0x00\n  mstore\n  keccak256(0x00, 0x20)\n  swap1\n  0x1f\n  add\n  0x20\n  swap1\n  div\n  dup2\n  add\n  swap3\n  dup3\n  tag_19\n  jumpi\n  0x00\n  dup6\n  sstore\n  jump(tag_22)\ntag_19:\n  dup3\n  0x1f\n  lt\n  tag_20\n  jumpi\n  dup1\n  mload\n  not(0xff)\n  and\n  dup4\n  dup1\n  add\n  or\n  dup6\n  sstore\n  jump(tag_22)\ntag_20:\n  dup3\n  dup1\n  add\n  0x01\n  add\n  dup6\n  sstore\n  dup3\n  iszero\n  tag_22\n  jumpi\n  swap2\n  dup3\n  add\ntag_21:\n  dup3\n  dup2\n  gt\n  iszero\n  tag_22\n  jumpi\n  dup3\n  mload\n  dup3\n  sstore\n  swap2\n  0x20\n  add\n  swap2\n  swap1\n  0x01\n  add\n  swap1\n  jump(tag_21)\ntag_22:\n  pop\n  tag_23\n  swap3\n  swap2\n  pop\n  tag_24\n  jump\t// in\ntag_23:\n  pop\n  swap1\n  jump\t// out\ntag_24:\ntag_25:\n  dup1\n  dup3\n  gt\n  iszero\n  tag_23\n  jumpi\n  0x00\n  dup2\n  sstore\n  0x01\n  add\n  jump(tag_25)\n    /* \"#utility.yul\":14:394   */\ntag_17:\n    /* \"#utility.yul\":93:94   */\n  0x01\n    /* \"#utility.yul\":89:101   */\n  dup2\n  dup2\n  shr\n  swap1\n    /* \"#utility.yul\":136:148   */\n  dup3\n  and\n  dup1\n    /* \"#utility.yul\":157:218   */\n  tag_29\n  jumpi\n    /* \"#utility.yul\":211:215   */\n  0x7f\n    /* \"#utility.yul\":203:209   */\n  dup3\n    /* \"#utility.yul\":199:216   */\n  and\n    /* \"#utility.yul\":189:216   */\n  swap2\n  pop\n    /* \"#utility.yul\":157:218   */\ntag_29:\n    /* \"#utility.yul\":264:266   */\n  0x20\n    /* \"#utility.yul\":256:262   */\n  dup3\n    /* \"#utility.yul\":253:267   */\n  lt\n    /* \"#utility.yul\":233:251   */\n  dup2\n    /* \"#utility.yul\":230:268   */\n  sub\n    /* \"#utility.yul\":227:388   */\n  tag_30\n  jumpi\n    /* \"#utility.yul\":310:320   */\n  0x4e487b71\n    /* \"#utility.yul\":305:308   */\n  0xe0\n    /* \"#utility.yul\":301:321   */\n  shl\n    /* \"#utility.yul\":298:299   */\n  0x00\n    /* \"#utility.yul\":291:322   */\n  mstore\n    /* \"#utility.yul\":345:349   */\n  0x22\n    /* \"#utility.yul\":342:343   */\n  0x04\n    /* \"#utility.yul\":335:350   */\n  mstore\n    /* \"#utility.yul\":373:377   */\n  0x24\n    /* \"#utility.yul\":370:371   */\n  0x00\n    /* \"#utility.yul\":363:378   */\n  revert\n    /* \"#utility.yul\":227:388   */\ntag_30:\n  pop\n    /* \"#utility.yul\":14:394   */\n  swap2\n  swap1\n  pop\n  jump\t// out\ntag_27:\n    /* \"contracts/LandbaseToken.sol\":166:10436  contract LandbaseToken is BEP20(\"Landbase Coin\", \"LBC\") {... */\n  dataSize(sub_0)\n  dup1\n  dataOffset(sub_0)\n  0x00\n  codecopy\n  0x00\n  return\nstop\n\nsub_0: assembly {\n        /* \"contracts/LandbaseToken.sol\":166:10436  contract LandbaseToken is BEP20(\"Landbase Coin\", \"LBC\") {... */\n      mstore(0x40, 0x80)\n      callvalue\n      dup1\n      iszero\n      tag_1\n      jumpi\n      0x00\n      dup1\n      revert\n    tag_1:\n      pop\n      jumpi(tag_2, lt(calldatasize, 0x04))\n      shr(0xe0, calldataload(0x00))\n      dup1\n      0x782d6fe1\n      gt\n      tag_35\n      jumpi\n      dup1\n      0xa9059cbb\n      gt\n      tag_36\n      jumpi\n      dup1\n      0xdd62ed3e\n      gt\n      tag_37\n      jumpi\n      dup1\n      0xdd62ed3e\n      eq\n      tag_31\n      jumpi\n      dup1\n      0xe7a324dc\n      eq\n      tag_32\n      jumpi\n      dup1\n      0xf1127ed8\n      eq\n      tag_33\n      jumpi\n      dup1\n      0xf2fde38b\n      eq\n      tag_34\n      jumpi\n      0x00\n      dup1\n      revert\n    tag_37:\n      dup1\n      0xa9059cbb\n      eq\n      tag_27\n      jumpi\n      dup1\n      0xaa271e1a\n      eq\n      tag_28\n      jumpi\n      dup1\n      0xb4b5ea57\n      eq\n      tag_29\n      jumpi\n      dup1\n      0xc3cda520\n      eq\n      tag_30\n      jumpi\n      0x00\n      dup1\n      revert\n    tag_36:\n      dup1\n      0x95d89b41\n      gt\n      tag_38\n      jumpi\n      dup1\n      0x95d89b41\n      eq\n      tag_23\n      jumpi\n      dup1\n      0x983b2d56\n      eq\n      tag_24\n      jumpi\n      dup1\n      0xa0712d68\n      eq\n      tag_25\n      jumpi\n      dup1\n      0xa457c2d7\n      eq\n      tag_26\n      jumpi\n      0x00\n      dup1\n      revert\n    tag_38:\n      dup1\n      0x782d6fe1\n      eq\n      tag_19\n      jumpi\n      dup1\n      0x7ecebe00\n      eq\n      tag_20\n      jumpi\n      dup1\n      0x893d20e8\n      eq\n      tag_21\n      jumpi\n      dup1\n      0x8da5cb5b\n      eq\n      tag_21\n      jumpi\n      0x00\n      dup1\n      revert\n    tag_35:\n      dup1\n      0x39509351\n      gt\n      tag_39\n      jumpi\n      dup1\n      0x5c19a95c\n      gt\n      tag_40\n      jumpi\n      dup1\n      0x5c19a95c\n      eq\n      tag_15\n      jumpi\n      dup1\n      0x6fcfff45\n      eq\n      tag_16\n      jumpi\n      dup1\n      0x70a08231\n      eq\n      tag_17\n      jumpi\n      dup1\n      0x715018a6\n      eq\n      tag_18\n      jumpi\n      0x00\n      dup1\n      revert\n    tag_40:\n      dup1\n      0x39509351\n      eq\n      tag_11\n      jumpi\n      dup1\n      0x40c10f19\n      eq\n      tag_12\n      jumpi\n      dup1\n      0x587cde1e\n      eq\n      tag_13\n      jumpi\n      dup1\n      0x5b7121f8\n      eq\n      tag_14\n      jumpi\n      0x00\n      dup1\n      revert\n    tag_39:\n      dup1\n      0x20606b70\n      gt\n      tag_41\n      jumpi\n      dup1\n      0x20606b70\n      eq\n      tag_7\n      jumpi\n      dup1\n      0x23338b88\n      eq\n      tag_8\n      jumpi\n      dup1\n      0x23b872dd\n      eq\n      tag_9\n      jumpi\n      dup1\n      0x313ce567\n      eq\n      tag_10\n      jumpi\n      0x00\n      dup1\n      revert\n    tag_41:\n      dup1\n      0x0323aac7\n      eq\n      tag_3\n      jumpi\n      dup1\n      0x06fdde03\n      eq\n      tag_4\n      jumpi\n      dup1\n      0x095ea7b3\n      eq\n      tag_5\n      jumpi\n      dup1\n      0x18160ddd\n      eq\n      tag_6\n      jumpi\n    tag_2:\n      0x00\n      dup1\n      revert\n        /* \"contracts/LandbaseToken.sol\":9803:9916  function getMinterLength() public view returns (uint256) {... */\n    tag_3:\n      tag_42\n      tag_43\n      jump\t// in\n    tag_42:\n      mload(0x40)\n        /* \"#utility.yul\":160:185   */\n      swap1\n      dup2\n      mstore\n        /* \"#utility.yul\":148:150   */\n      0x20\n        /* \"#utility.yul\":133:151   */\n      add\n        /* \"contracts/LandbaseToken.sol\":9803:9916  function getMinterLength() public view returns (uint256) {... */\n    tag_44:\n      mload(0x40)\n      dup1\n      swap2\n      sub\n      swap1\n      return\n        /* \"contracts/BEP20.sol\":1260:1352  function name() public view override returns (string memory) {... */\n    tag_4:\n      tag_46\n      tag_47\n      jump\t// in\n    tag_46:\n      mload(0x40)\n      tag_44\n      swap2\n      swap1\n      tag_49\n      jump\t// in\n        /* \"contracts/BEP20.sol\":2820:3013  function approve(address spender, uint256 amount)... */\n    tag_5:\n      tag_50\n      tag_51\n      calldatasize\n      0x04\n      tag_52\n      jump\t// in\n    tag_51:\n      tag_53\n      jump\t// in\n    tag_50:\n      mload(0x40)\n        /* \"#utility.yul\":1400:1414   */\n      swap1\n      iszero\n        /* \"#utility.yul\":1393:1415   */\n      iszero\n        /* \"#utility.yul\":1375:1416   */\n      dup2\n      mstore\n        /* \"#utility.yul\":1363:1365   */\n      0x20\n        /* \"#utility.yul\":1348:1366   */\n      add\n        /* \"contracts/BEP20.sol\":2820:3013  function approve(address spender, uint256 amount)... */\n      tag_44\n        /* \"#utility.yul\":1235:1422   */\n      jump\n        /* \"contracts/BEP20.sol\":1736:1836  function totalSupply() public view override returns (uint256) {... */\n    tag_6:\n        /* \"contracts/BEP20.sol\":1816:1828  _totalSupply */\n      sload(0x03)\n        /* \"contracts/BEP20.sol\":1736:1836  function totalSupply() public view override returns (uint256) {... */\n      jump(tag_42)\n        /* \"contracts/LandbaseToken.sol\":1309:1464  bytes32 public constant DOMAIN_TYPEHASH =... */\n    tag_7:\n      tag_42\n        /* \"contracts/LandbaseToken.sol\":1360:1464  keccak256(... */\n      0x8cad95687ba82c2ce50e74f7b754645e5117c3a5bec8151c0726d5857980a866\n        /* \"contracts/LandbaseToken.sol\":1309:1464  bytes32 public constant DOMAIN_TYPEHASH =... */\n      dup2\n      jump\n        /* \"contracts/LandbaseToken.sol\":9531:9795  function delMinter(address _delMinter) public onlyOwner returns (bool) {... */\n    tag_8:\n      tag_50\n      tag_64\n      calldatasize\n      0x04\n      tag_65\n      jump\t// in\n    tag_64:\n      tag_66\n      jump\t// in\n        /* \"contracts/BEP20.sol\":3484:3930  function transferFrom(... */\n    tag_9:\n      tag_50\n      tag_69\n      calldatasize\n      0x04\n      tag_70\n      jump\t// in\n    tag_69:\n      tag_71\n      jump\t// in\n        /* \"contracts/BEP20.sol\":1419:1511  function decimals() public view override returns (uint8) {... */\n    tag_10:\n        /* \"contracts/BEP20.sol\":1494:1503  _decimals */\n      sload(0x04)\n        /* \"contracts/BEP20.sol\":1419:1511  function decimals() public view override returns (uint8) {... */\n      mload(0x40)\n        /* \"contracts/BEP20.sol\":1494:1503  _decimals */\n      0xff\n      swap1\n      swap2\n      and\n        /* \"#utility.yul\":2275:2311   */\n      dup2\n      mstore\n        /* \"#utility.yul\":2263:2265   */\n      0x20\n        /* \"#utility.yul\":2248:2266   */\n      add\n        /* \"contracts/BEP20.sol\":1419:1511  function decimals() public view override returns (uint8) {... */\n      tag_44\n        /* \"#utility.yul\":2133:2317   */\n      jump\n        /* \"contracts/BEP20.sol\":4338:4621  function increaseAllowance(address spender, uint256 addedValue)... */\n    tag_11:\n      tag_50\n      tag_78\n      calldatasize\n      0x04\n      tag_52\n      jump\t// in\n    tag_78:\n      tag_79\n      jump\t// in\n        /* \"contracts/LandbaseToken.sol\":467:699  function mint(address _to, uint256 _amount)... */\n    tag_12:\n      tag_50\n      tag_82\n      calldatasize\n      0x04\n      tag_52\n      jump\t// in\n    tag_82:\n      tag_83\n      jump\t// in\n        /* \"contracts/LandbaseToken.sol\":2408:2525  function delegates(address delegator) external view returns (address) {... */\n    tag_13:\n      tag_85\n      tag_86\n      calldatasize\n      0x04\n      tag_65\n      jump\t// in\n    tag_86:\n      sub(shl(0xa0, 0x01), 0x01)\n        /* \"contracts/LandbaseToken.sol\":2496:2517  _delegates[delegator] */\n      swap1\n      dup2\n      and\n        /* \"contracts/LandbaseToken.sol\":2469:2476  address */\n      0x00\n        /* \"contracts/LandbaseToken.sol\":2496:2517  _delegates[delegator] */\n      swap1\n      dup2\n      mstore\n        /* \"contracts/LandbaseToken.sol\":2496:2506  _delegates */\n      0x09\n        /* \"contracts/LandbaseToken.sol\":2496:2517  _delegates[delegator] */\n      0x20\n      mstore\n      0x40\n      swap1\n      keccak256\n      sload\n      and\n      swap1\n        /* \"contracts/LandbaseToken.sol\":2408:2525  function delegates(address delegator) external view returns (address) {... */\n      jump\n    tag_85:\n      mload(0x40)\n      sub(shl(0xa0, 0x01), 0x01)\n        /* \"#utility.yul\":2486:2518   */\n      swap1\n      swap2\n      and\n        /* \"#utility.yul\":2468:2519   */\n      dup2\n      mstore\n        /* \"#utility.yul\":2456:2458   */\n      0x20\n        /* \"#utility.yul\":2441:2459   */\n      add\n        /* \"contracts/LandbaseToken.sol\":2408:2525  function delegates(address delegator) external view returns (address) {... */\n      tag_44\n        /* \"#utility.yul\":2322:2525   */\n      jump\n        /* \"contracts/LandbaseToken.sol\":10061:10280  function getMinter(uint256 _index) public view onlyOwner returns (address) {... */\n    tag_14:\n      tag_85\n      tag_91\n      calldatasize\n      0x04\n      tag_92\n      jump\t// in\n    tag_91:\n      tag_93\n      jump\t// in\n        /* \"contracts/LandbaseToken.sol\":2673:2777  function delegate(address delegatee) external {... */\n    tag_15:\n      tag_95\n      tag_96\n      calldatasize\n      0x04\n      tag_65\n      jump\t// in\n    tag_96:\n      tag_97\n      jump\t// in\n    tag_95:\n      stop\n        /* \"contracts/LandbaseToken.sol\":1188:1236  mapping(address => uint32) public numCheckpoints */\n    tag_16:\n      tag_98\n      tag_99\n      calldatasize\n      0x04\n      tag_65\n      jump\t// in\n    tag_99:\n      mstore(0x20, 0x0b)\n      0x00\n      swap1\n      dup2\n      mstore\n      0x40\n      swap1\n      keccak256\n      sload\n      0xffffffff\n      and\n      dup2\n      jump\n    tag_98:\n      mload(0x40)\n        /* \"#utility.yul\":2889:2899   */\n      0xffffffff\n        /* \"#utility.yul\":2877:2900   */\n      swap1\n      swap2\n      and\n        /* \"#utility.yul\":2859:2901   */\n      dup2\n      mstore\n        /* \"#utility.yul\":2847:2849   */\n      0x20\n        /* \"#utility.yul\":2832:2850   */\n      add\n        /* \"contracts/LandbaseToken.sol\":1188:1236  mapping(address => uint32) public numCheckpoints */\n      tag_44\n        /* \"#utility.yul\":2715:2907   */\n      jump\n        /* \"contracts/BEP20.sol\":1898:2017  function balanceOf(address account) public view override returns (uint256) {... */\n    tag_17:\n      tag_42\n      tag_104\n      calldatasize\n      0x04\n      tag_65\n      jump\t// in\n    tag_104:\n      sub(shl(0xa0, 0x01), 0x01)\n        /* \"contracts/BEP20.sol\":1991:2009  _balances[account] */\n      and\n        /* \"contracts/BEP20.sol\":1964:1971  uint256 */\n      0x00\n        /* \"contracts/BEP20.sol\":1991:2009  _balances[account] */\n      swap1\n      dup2\n      mstore\n        /* \"contracts/BEP20.sol\":1991:2000  _balances */\n      0x01\n        /* \"contracts/BEP20.sol\":1991:2009  _balances[account] */\n      0x20\n      mstore\n      0x40\n      swap1\n      keccak256\n      sload\n      swap1\n        /* \"contracts/BEP20.sol\":1898:2017  function balanceOf(address account) public view override returns (uint256) {... */\n      jump\n        /* \"contracts/access/Ownable.sol\":1657:1751  function renounceOwnership() public virtual onlyOwner {... */\n    tag_18:\n      tag_95\n      tag_108\n      jump\t// in\n        /* \"contracts/LandbaseToken.sol\":5235:6532  function getPriorVotes(address account, uint256 blockNumber)... */\n    tag_19:\n      tag_42\n      tag_110\n      calldatasize\n      0x04\n      tag_52\n      jump\t// in\n    tag_110:\n      tag_111\n      jump\t// in\n        /* \"contracts/LandbaseToken.sol\":1765:1806  mapping(address => uint256) public nonces */\n    tag_20:\n      tag_42\n      tag_114\n      calldatasize\n      0x04\n      tag_65\n      jump\t// in\n    tag_114:\n      mstore(0x20, 0x0c)\n      0x00\n      swap1\n      dup2\n      mstore\n      0x40\n      swap1\n      keccak256\n      sload\n      dup2\n      jump\n        /* \"contracts/BEP20.sol\":1103:1197  function getOwner() external view override returns (address) {... */\n    tag_21:\n        /* \"contracts/BEP20.sol\":1155:1162  address */\n      0x00\n        /* \"contracts/access/Ownable.sol\":1079:1085  _owner */\n      sload\n      sub(shl(0xa0, 0x01), 0x01)\n      and\n        /* \"contracts/BEP20.sol\":1103:1197  function getOwner() external view override returns (address) {... */\n      tag_85\n        /* \"contracts/LandbaseToken.sol\":9803:9916  function getMinterLength() public view returns (uint256) {... */\n      jump\n        /* \"contracts/BEP20.sol\":1576:1672  function symbol() public view override returns (string memory) {... */\n    tag_23:\n      tag_46\n      tag_124\n      jump\t// in\n        /* \"contracts/LandbaseToken.sol\":9262:9523  function addMinter(address _addMinter) public onlyOwner returns (bool) {... */\n    tag_24:\n      tag_50\n      tag_127\n      calldatasize\n      0x04\n      tag_65\n      jump\t// in\n    tag_127:\n      tag_128\n      jump\t// in\n        /* \"contracts/BEP20.sol\":5724:5854  function mint(uint256 amount) public onlyOwner returns (bool) {... */\n    tag_25:\n      tag_50\n      tag_131\n      calldatasize\n      0x04\n      tag_92\n      jump\t// in\n    tag_131:\n      tag_132\n      jump\t// in\n        /* \"contracts/BEP20.sol\":5123:5506  function decreaseAllowance(address spender, uint256 subtractedValue)... */\n    tag_26:\n      tag_50\n      tag_135\n      calldatasize\n      0x04\n      tag_52\n      jump\t// in\n    tag_135:\n      tag_136\n      jump\t// in\n        /* \"contracts/BEP20.sol\":2229:2428  function transfer(address recipient, uint256 amount)... */\n    tag_27:\n      tag_50\n      tag_139\n      calldatasize\n      0x04\n      tag_52\n      jump\t// in\n    tag_139:\n      tag_140\n      jump\t// in\n        /* \"contracts/LandbaseToken.sol\":9924:10053  function isMinter(address account) public view returns (bool) {... */\n    tag_28:\n      tag_50\n      tag_143\n      calldatasize\n      0x04\n      tag_65\n      jump\t// in\n    tag_143:\n      tag_144\n      jump\t// in\n        /* \"contracts/LandbaseToken.sol\":4568:4804  function getCurrentVotes(address account) external view returns (uint256) {... */\n    tag_29:\n      tag_42\n      tag_147\n      calldatasize\n      0x04\n      tag_65\n      jump\t// in\n    tag_147:\n      tag_148\n      jump\t// in\n        /* \"contracts/LandbaseToken.sol\":3211:4367  function delegateBySig(... */\n    tag_30:\n      tag_95\n      tag_151\n      calldatasize\n      0x04\n      tag_152\n      jump\t// in\n    tag_151:\n      tag_153\n      jump\t// in\n        /* \"contracts/BEP20.sol\":2490:2674  function allowance(address owner, address spender)... */\n    tag_31:\n      tag_42\n      tag_155\n      calldatasize\n      0x04\n      tag_156\n      jump\t// in\n    tag_155:\n      sub(shl(0xa0, 0x01), 0x01)\n        /* \"contracts/BEP20.sol\":2639:2657  _allowances[owner] */\n      swap2\n      dup3\n      and\n        /* \"contracts/BEP20.sol\":2607:2614  uint256 */\n      0x00\n        /* \"contracts/BEP20.sol\":2639:2657  _allowances[owner] */\n      swap1\n      dup2\n      mstore\n        /* \"contracts/BEP20.sol\":2639:2650  _allowances */\n      0x02\n        /* \"contracts/BEP20.sol\":2639:2657  _allowances[owner] */\n      0x20\n      swap1\n      dup2\n      mstore\n      0x40\n      dup1\n      dup4\n      keccak256\n        /* \"contracts/BEP20.sol\":2639:2666  _allowances[owner][spender] */\n      swap4\n      swap1\n      swap5\n      and\n      dup3\n      mstore\n      swap2\n      swap1\n      swap2\n      mstore\n      keccak256\n      sload\n      swap1\n        /* \"contracts/BEP20.sol\":2490:2674  function allowance(address owner, address spender)... */\n      jump\n        /* \"contracts/LandbaseToken.sol\":1558:1684  bytes32 public constant DELEGATION_TYPEHASH =... */\n    tag_32:\n      tag_42\n        /* \"contracts/LandbaseToken.sol\":1613:1684  keccak256(\"Delegation(address delegatee,uint256 nonce,uint256 expiry)\") */\n      0xe48329057bfd03d55e49b547132e39cffd9c1820ad7b9d4c5307691425d15adf\n        /* \"contracts/LandbaseToken.sol\":1558:1684  bytes32 public constant DELEGATION_TYPEHASH =... */\n      dup2\n      jump\n        /* \"contracts/LandbaseToken.sol\":1051:1119  mapping(address => mapping(uint32 => Checkpoint)) public checkpoints */\n    tag_33:\n      tag_162\n      tag_163\n      calldatasize\n      0x04\n      tag_164\n      jump\t// in\n    tag_163:\n      0x0a\n      0x20\n      swap1\n      dup2\n      mstore\n      0x00\n      swap3\n      dup4\n      mstore\n      0x40\n      dup1\n      dup5\n      keccak256\n      swap1\n      swap2\n      mstore\n      swap1\n      dup3\n      mstore\n      swap1\n      keccak256\n      dup1\n      sload\n      0x01\n      swap1\n      swap2\n      add\n      sload\n      0xffffffff\n      swap1\n      swap2\n      and\n      swap1\n      dup3\n      jump\n    tag_162:\n      0x40\n      dup1\n      mload\n        /* \"#utility.yul\":4357:4367   */\n      0xffffffff\n        /* \"#utility.yul\":4345:4368   */\n      swap1\n      swap4\n      and\n        /* \"#utility.yul\":4327:4369   */\n      dup4\n      mstore\n        /* \"#utility.yul\":4400:4402   */\n      0x20\n        /* \"#utility.yul\":4385:4403   */\n      dup4\n      add\n        /* \"#utility.yul\":4378:4412   */\n      swap2\n      swap1\n      swap2\n      mstore\n        /* \"#utility.yul\":4300:4318   */\n      add\n        /* \"contracts/LandbaseToken.sol\":1051:1119  mapping(address => mapping(uint32 => Checkpoint)) public checkpoints */\n      tag_44\n        /* \"#utility.yul\":4155:4418   */\n      jump\n        /* \"contracts/access/Ownable.sol\":1906:2098  function transferOwnership(address newOwner) public virtual onlyOwner {... */\n    tag_34:\n      tag_95\n      tag_169\n      calldatasize\n      0x04\n      tag_65\n      jump\t// in\n    tag_169:\n      tag_170\n      jump\t// in\n        /* \"contracts/LandbaseToken.sol\":9803:9916  function getMinterLength() public view returns (uint256) {... */\n    tag_43:\n        /* \"contracts/LandbaseToken.sol\":9851:9858  uint256 */\n      0x00\n        /* \"contracts/LandbaseToken.sol\":9878:9908  EnumerableSet.length(_minters) */\n      tag_172\n        /* \"contracts/LandbaseToken.sol\":9899:9907  _minters */\n      0x07\n        /* \"contracts/LandbaseToken.sol\":9878:9898  EnumerableSet.length */\n      tag_173\n        /* \"contracts/LandbaseToken.sol\":9878:9908  EnumerableSet.length(_minters) */\n      jump\t// in\n    tag_172:\n        /* \"contracts/LandbaseToken.sol\":9871:9908  return EnumerableSet.length(_minters) */\n      swap1\n      pop\n        /* \"contracts/LandbaseToken.sol\":9803:9916  function getMinterLength() public view returns (uint256) {... */\n      swap1\n      jump\t// out\n        /* \"contracts/BEP20.sol\":1260:1352  function name() public view override returns (string memory) {... */\n    tag_47:\n        /* \"contracts/BEP20.sol\":1306:1319  string memory */\n      0x60\n        /* \"contracts/BEP20.sol\":1339:1344  _name */\n      0x06\n        /* \"contracts/BEP20.sol\":1332:1344  return _name */\n      dup1\n      sload\n      tag_175\n      swap1\n      tag_176\n      jump\t// in\n    tag_175:\n      dup1\n      0x1f\n      add\n      0x20\n      dup1\n      swap2\n      div\n      mul\n      0x20\n      add\n      mload(0x40)\n      swap1\n      dup2\n      add\n      0x40\n      mstore\n      dup1\n      swap3\n      swap2\n      swap1\n      dup2\n      dup2\n      mstore\n      0x20\n      add\n      dup3\n      dup1\n      sload\n      tag_177\n      swap1\n      tag_176\n      jump\t// in\n    tag_177:\n      dup1\n      iszero\n      tag_178\n      jumpi\n      dup1\n      0x1f\n      lt\n      tag_179\n      jumpi\n      0x0100\n      dup1\n      dup4\n      sload\n      div\n      mul\n      dup4\n      mstore\n      swap2\n      0x20\n      add\n      swap2\n      jump(tag_178)\n    tag_179:\n      dup3\n      add\n      swap2\n      swap1\n      0x00\n      mstore\n      keccak256(0x00, 0x20)\n      swap1\n    tag_180:\n      dup2\n      sload\n      dup2\n      mstore\n      swap1\n      0x01\n      add\n      swap1\n      0x20\n      add\n      dup1\n      dup4\n      gt\n      tag_180\n      jumpi\n      dup3\n      swap1\n      sub\n      0x1f\n      and\n      dup3\n      add\n      swap2\n    tag_178:\n      pop\n      pop\n      pop\n      pop\n      pop\n      swap1\n      pop\n        /* \"contracts/BEP20.sol\":1260:1352  function name() public view override returns (string memory) {... */\n      swap1\n      jump\t// out\n        /* \"contracts/BEP20.sol\":2820:3013  function approve(address spender, uint256 amount)... */\n    tag_53:\n        /* \"contracts/BEP20.sol\":2922:2926  bool */\n      0x00\n        /* \"contracts/BEP20.sol\":2944:2983  _approve(_msgSender(), spender, amount) */\n      tag_182\n        /* \"contracts/utils/Context.sol\":682:692  msg.sender */\n      caller\n        /* \"contracts/BEP20.sol\":2967:2974  spender */\n      dup5\n        /* \"contracts/BEP20.sol\":2976:2982  amount */\n      dup5\n        /* \"contracts/BEP20.sol\":2944:2952  _approve */\n      tag_185\n        /* \"contracts/BEP20.sol\":2944:2983  _approve(_msgSender(), spender, amount) */\n      jump\t// in\n    tag_182:\n      pop\n        /* \"contracts/BEP20.sol\":3001:3005  true */\n      0x01\n        /* \"contracts/BEP20.sol\":2820:3013  function approve(address spender, uint256 amount)... */\n    tag_181:\n      swap3\n      swap2\n      pop\n      pop\n      jump\t// out\n        /* \"contracts/LandbaseToken.sol\":9531:9795  function delMinter(address _delMinter) public onlyOwner returns (bool) {... */\n    tag_66:\n        /* \"contracts/LandbaseToken.sol\":9596:9600  bool */\n      0x00\n        /* \"contracts/access/Ownable.sol\":1079:1085  _owner */\n      dup1\n      sload\n      sub(shl(0xa0, 0x01), 0x01)\n      and\n        /* \"contracts/utils/Context.sol\":682:692  msg.sender */\n      caller\n        /* \"contracts/access/Ownable.sol\":1226:1249  owner() == _msgSender() */\n      eq\n        /* \"contracts/access/Ownable.sol\":1218:1286  require(owner() == _msgSender(), \"Ownable: caller is not the owner\") */\n      tag_190\n      jumpi\n      mload(0x40)\n      shl(0xe5, 0x461bcd)\n      dup2\n      mstore\n      0x04\n      add\n      tag_191\n      swap1\n      tag_192\n      jump\t// in\n    tag_191:\n      mload(0x40)\n      dup1\n      swap2\n      sub\n      swap1\n      revert\n    tag_190:\n      sub(shl(0xa0, 0x01), 0x01)\n        /* \"contracts/LandbaseToken.sol\":9635:9659  _delMinter != address(0) */\n      dup3\n      and\n        /* \"contracts/LandbaseToken.sol\":9613:9727  require(... */\n      tag_194\n      jumpi\n      mload(0x40)\n      shl(0xe5, 0x461bcd)\n      dup2\n      mstore\n        /* \"#utility.yul\":5371:5373   */\n      0x20\n        /* \"contracts/LandbaseToken.sol\":9613:9727  require(... */\n      0x04\n      dup3\n      add\n        /* \"#utility.yul\":5353:5374   */\n      mstore\n        /* \"#utility.yul\":5410:5412   */\n      0x28\n        /* \"#utility.yul\":5390:5408   */\n      0x24\n      dup3\n      add\n        /* \"#utility.yul\":5383:5413   */\n      mstore\n        /* \"#utility.yul\":5449:5483   */\n      0x4c414e44424153453a205f64656c4d696e74657220697320746865207a65726f\n        /* \"#utility.yul\":5429:5447   */\n      0x44\n      dup3\n      add\n        /* \"#utility.yul\":5422:5484   */\n      mstore\n      shl(0xc0, 0x2061646472657373)\n        /* \"#utility.yul\":5500:5518   */\n      0x64\n      dup3\n      add\n        /* \"#utility.yul\":5493:5531   */\n      mstore\n        /* \"#utility.yul\":5548:5567   */\n      0x84\n      add\n        /* \"contracts/LandbaseToken.sol\":9613:9727  require(... */\n      tag_191\n        /* \"#utility.yul\":5169:5573   */\n      jump\n        /* \"contracts/LandbaseToken.sol\":9613:9727  require(... */\n    tag_194:\n        /* \"contracts/LandbaseToken.sol\":9745:9787  EnumerableSet.remove(_minters, _delMinter) */\n      tag_197\n        /* \"contracts/LandbaseToken.sol\":9766:9774  _minters */\n      0x07\n        /* \"contracts/LandbaseToken.sol\":9776:9786  _delMinter */\n      dup4\n        /* \"contracts/LandbaseToken.sol\":9745:9765  EnumerableSet.remove */\n      tag_198\n        /* \"contracts/LandbaseToken.sol\":9745:9787  EnumerableSet.remove(_minters, _delMinter) */\n      jump\t// in\n    tag_197:\n        /* \"contracts/LandbaseToken.sol\":9738:9787  return EnumerableSet.remove(_minters, _delMinter) */\n      swap1\n      pop\n        /* \"contracts/access/Ownable.sol\":1297:1298  _ */\n    tag_193:\n        /* \"contracts/LandbaseToken.sol\":9531:9795  function delMinter(address _delMinter) public onlyOwner returns (bool) {... */\n      swap2\n      swap1\n      pop\n      jump\t// out\n        /* \"contracts/BEP20.sol\":3484:3930  function transferFrom(... */\n    tag_71:\n        /* \"contracts/BEP20.sol\":3616:3620  bool */\n      0x00\n        /* \"contracts/BEP20.sol\":3633:3669  _transfer(sender, recipient, amount) */\n      tag_200\n        /* \"contracts/BEP20.sol\":3643:3649  sender */\n      dup5\n        /* \"contracts/BEP20.sol\":3651:3660  recipient */\n      dup5\n        /* \"contracts/BEP20.sol\":3662:3668  amount */\n      dup5\n        /* \"contracts/BEP20.sol\":3633:3642  _transfer */\n      tag_201\n        /* \"contracts/BEP20.sol\":3633:3669  _transfer(sender, recipient, amount) */\n      jump\t// in\n    tag_200:\n        /* \"contracts/BEP20.sol\":3680:3900  _approve(... */\n      tag_202\n        /* \"contracts/BEP20.sol\":3703:3709  sender */\n      dup5\n        /* \"contracts/utils/Context.sol\":682:692  msg.sender */\n      caller\n        /* \"contracts/BEP20.sol\":3751:3889  _allowances[sender][_msgSender()].sub(... */\n      tag_204\n        /* \"contracts/BEP20.sol\":3807:3813  amount */\n      dup6\n        /* \"contracts/BEP20.sol\":3751:3889  _allowances[sender][_msgSender()].sub(... */\n      mload(0x40)\n      dup1\n      0x60\n      add\n      0x40\n      mstore\n      dup1\n      0x28\n      dup2\n      mstore\n      0x20\n      add\n      data_4f3506f4ba71c79c3cbd442a3afeb30e9b27af2d84e116a4385b34e267d2287e\n      0x28\n      swap2\n      codecopy\n      sub(shl(0xa0, 0x01), 0x01)\n        /* \"contracts/BEP20.sol\":3751:3770  _allowances[sender] */\n      dup11\n      and\n      0x00\n      swap1\n      dup2\n      mstore\n        /* \"contracts/BEP20.sol\":3751:3762  _allowances */\n      0x02\n        /* \"contracts/BEP20.sol\":3751:3770  _allowances[sender] */\n      0x20\n      swap1\n      dup2\n      mstore\n      0x40\n      dup1\n      dup4\n      keccak256\n        /* \"contracts/utils/Context.sol\":682:692  msg.sender */\n      caller\n        /* \"contracts/BEP20.sol\":3751:3784  _allowances[sender][_msgSender()] */\n      dup5\n      mstore\n      swap1\n      swap2\n      mstore\n      swap1\n      keccak256\n      sload\n      swap2\n      swap1\n        /* \"contracts/BEP20.sol\":3751:3788  _allowances[sender][_msgSender()].sub */\n      tag_206\n        /* \"contracts/BEP20.sol\":3751:3889  _allowances[sender][_msgSender()].sub(... */\n      jump\t// in\n    tag_204:\n        /* \"contracts/BEP20.sol\":3680:3688  _approve */\n      tag_185\n        /* \"contracts/BEP20.sol\":3680:3900  _approve(... */\n      jump\t// in\n    tag_202:\n      pop\n        /* \"contracts/BEP20.sol\":3918:3922  true */\n      0x01\n        /* \"contracts/BEP20.sol\":3484:3930  function transferFrom(... */\n      swap4\n      swap3\n      pop\n      pop\n      pop\n      jump\t// out\n        /* \"contracts/BEP20.sol\":4338:4621  function increaseAllowance(address spender, uint256 addedValue)... */\n    tag_79:\n        /* \"contracts/utils/Context.sol\":682:692  msg.sender */\n      caller\n        /* \"contracts/BEP20.sol\":4436:4440  bool */\n      0x00\n        /* \"contracts/BEP20.sol\":4530:4555  _allowances[_msgSender()] */\n      dup2\n      dup2\n      mstore\n        /* \"contracts/BEP20.sol\":4530:4541  _allowances */\n      0x02\n        /* \"contracts/BEP20.sol\":4530:4555  _allowances[_msgSender()] */\n      0x20\n      swap1\n      dup2\n      mstore\n      0x40\n      dup1\n      dup4\n      keccak256\n      sub(shl(0xa0, 0x01), 0x01)\n        /* \"contracts/BEP20.sol\":4530:4564  _allowances[_msgSender()][spender] */\n      dup8\n      and\n      dup5\n      mstore\n      swap1\n      swap2\n      mstore\n      dup2\n      keccak256\n      sload\n        /* \"contracts/BEP20.sol\":4436:4440  bool */\n      swap1\n      swap2\n        /* \"contracts/BEP20.sol\":4458:4591  _approve(... */\n      tag_182\n      swap2\n        /* \"contracts/BEP20.sol\":4508:4515  spender */\n      dup6\n      swap1\n        /* \"contracts/BEP20.sol\":4530:4580  _allowances[_msgSender()][spender].add(addedValue) */\n      tag_204\n      swap1\n        /* \"contracts/BEP20.sol\":4569:4579  addedValue */\n      dup7\n        /* \"contracts/BEP20.sol\":4530:4568  _allowances[_msgSender()][spender].add */\n      tag_213\n        /* \"contracts/BEP20.sol\":4530:4580  _allowances[_msgSender()][spender].add(addedValue) */\n      jump\t// in\n        /* \"contracts/LandbaseToken.sol\":467:699  function mint(address _to, uint256 _amount)... */\n    tag_83:\n        /* \"contracts/LandbaseToken.sol\":565:569  bool */\n      0x00\n        /* \"contracts/LandbaseToken.sol\":10364:10384  isMinter(msg.sender) */\n      tag_215\n        /* \"contracts/LandbaseToken.sol\":10373:10383  msg.sender */\n      caller\n        /* \"contracts/LandbaseToken.sol\":10364:10372  isMinter */\n      tag_144\n        /* \"contracts/LandbaseToken.sol\":10364:10384  isMinter(msg.sender) */\n      jump\t// in\n    tag_215:\n        /* \"contracts/LandbaseToken.sol\":10356:10413  require(isMinter(msg.sender), \"caller is not the minter\") */\n      tag_216\n      jumpi\n      mload(0x40)\n      shl(0xe5, 0x461bcd)\n      dup2\n      mstore\n        /* \"#utility.yul\":5780:5782   */\n      0x20\n        /* \"contracts/LandbaseToken.sol\":10356:10413  require(isMinter(msg.sender), \"caller is not the minter\") */\n      0x04\n      dup3\n      add\n        /* \"#utility.yul\":5762:5783   */\n      mstore\n        /* \"#utility.yul\":5819:5821   */\n      0x18\n        /* \"#utility.yul\":5799:5817   */\n      0x24\n      dup3\n      add\n        /* \"#utility.yul\":5792:5822   */\n      mstore\n        /* \"#utility.yul\":5858:5884   */\n      0x63616c6c6572206973206e6f7420746865206d696e7465720000000000000000\n        /* \"#utility.yul\":5838:5856   */\n      0x44\n      dup3\n      add\n        /* \"#utility.yul\":5831:5885   */\n      mstore\n        /* \"#utility.yul\":5902:5920   */\n      0x64\n      add\n        /* \"contracts/LandbaseToken.sol\":10356:10413  require(isMinter(msg.sender), \"caller is not the minter\") */\n      tag_191\n        /* \"#utility.yul\":5578:5926   */\n      jump\n        /* \"contracts/LandbaseToken.sol\":10356:10413  require(isMinter(msg.sender), \"caller is not the minter\") */\n    tag_216:\n        /* \"contracts/LandbaseToken.sol\":587:606  _mint(_to, _amount) */\n      tag_220\n        /* \"contracts/LandbaseToken.sol\":593:596  _to */\n      dup4\n        /* \"contracts/LandbaseToken.sol\":598:605  _amount */\n      dup4\n        /* \"contracts/LandbaseToken.sol\":587:592  _mint */\n      tag_221\n        /* \"contracts/LandbaseToken.sol\":587:606  _mint(_to, _amount) */\n      jump\t// in\n    tag_220:\n      sub(shl(0xa0, 0x01), 0x01)\n        /* \"contracts/LandbaseToken.sol\":644:659  _delegates[_to] */\n      dup1\n      dup5\n      and\n        /* \"contracts/LandbaseToken.sol\":640:641  0 */\n      0x00\n        /* \"contracts/LandbaseToken.sol\":644:659  _delegates[_to] */\n      swap1\n      dup2\n      mstore\n        /* \"contracts/LandbaseToken.sol\":644:654  _delegates */\n      0x09\n        /* \"contracts/LandbaseToken.sol\":644:659  _delegates[_to] */\n      0x20\n      mstore\n      0x40\n      dup2\n      keccak256\n      sload\n        /* \"contracts/LandbaseToken.sol\":617:669  _moveDelegates(address(0), _delegates[_to], _amount) */\n      tag_182\n      swap3\n        /* \"contracts/LandbaseToken.sol\":644:659  _delegates[_to] */\n      and\n        /* \"contracts/LandbaseToken.sol\":661:668  _amount */\n      dup5\n        /* \"contracts/LandbaseToken.sol\":617:631  _moveDelegates */\n      tag_223\n        /* \"contracts/LandbaseToken.sol\":617:669  _moveDelegates(address(0), _delegates[_to], _amount) */\n      jump\t// in\n        /* \"contracts/LandbaseToken.sol\":10061:10280  function getMinter(uint256 _index) public view onlyOwner returns (address) {... */\n    tag_93:\n        /* \"contracts/LandbaseToken.sol\":10127:10134  address */\n      0x00\n        /* \"contracts/access/Ownable.sol\":1079:1085  _owner */\n      dup1\n      sload\n      sub(shl(0xa0, 0x01), 0x01)\n      and\n        /* \"contracts/utils/Context.sol\":682:692  msg.sender */\n      caller\n        /* \"contracts/access/Ownable.sol\":1226:1249  owner() == _msgSender() */\n      eq\n        /* \"contracts/access/Ownable.sol\":1218:1286  require(owner() == _msgSender(), \"Ownable: caller is not the owner\") */\n      tag_228\n      jumpi\n      mload(0x40)\n      shl(0xe5, 0x461bcd)\n      dup2\n      mstore\n      0x04\n      add\n      tag_191\n      swap1\n      tag_192\n      jump\t// in\n    tag_228:\n        /* \"contracts/LandbaseToken.sol\":10185:10186  1 */\n      0x01\n        /* \"contracts/LandbaseToken.sol\":10165:10182  getMinterLength() */\n      tag_231\n        /* \"contracts/LandbaseToken.sol\":10165:10180  getMinterLength */\n      tag_43\n        /* \"contracts/LandbaseToken.sol\":10165:10182  getMinterLength() */\n      jump\t// in\n    tag_231:\n        /* \"contracts/LandbaseToken.sol\":10165:10186  getMinterLength() - 1 */\n      tag_232\n      swap2\n      swap1\n      tag_233\n      jump\t// in\n    tag_232:\n        /* \"contracts/LandbaseToken.sol\":10155:10161  _index */\n      dup3\n        /* \"contracts/LandbaseToken.sol\":10155:10186  _index <= getMinterLength() - 1 */\n      gt\n      iszero\n        /* \"contracts/LandbaseToken.sol\":10147:10220  require(_index <= getMinterLength() - 1, \"LANDBASE: index out of bounds\") */\n      tag_234\n      jumpi\n      mload(0x40)\n      shl(0xe5, 0x461bcd)\n      dup2\n      mstore\n        /* \"#utility.yul\":6395:6397   */\n      0x20\n        /* \"contracts/LandbaseToken.sol\":10147:10220  require(_index <= getMinterLength() - 1, \"LANDBASE: index out of bounds\") */\n      0x04\n      dup3\n      add\n        /* \"#utility.yul\":6377:6398   */\n      mstore\n        /* \"#utility.yul\":6434:6436   */\n      0x1d\n        /* \"#utility.yul\":6414:6432   */\n      0x24\n      dup3\n      add\n        /* \"#utility.yul\":6407:6437   */\n      mstore\n        /* \"#utility.yul\":6473:6504   */\n      0x4c414e44424153453a20696e646578206f7574206f6620626f756e6473000000\n        /* \"#utility.yul\":6453:6471   */\n      0x44\n      dup3\n      add\n        /* \"#utility.yul\":6446:6505   */\n      mstore\n        /* \"#utility.yul\":6522:6540   */\n      0x64\n      add\n        /* \"contracts/LandbaseToken.sol\":10147:10220  require(_index <= getMinterLength() - 1, \"LANDBASE: index out of bounds\") */\n      tag_191\n        /* \"#utility.yul\":6193:6546   */\n      jump\n        /* \"contracts/LandbaseToken.sol\":10147:10220  require(_index <= getMinterLength() - 1, \"LANDBASE: index out of bounds\") */\n    tag_234:\n        /* \"contracts/LandbaseToken.sol\":10238:10272  EnumerableSet.at(_minters, _index) */\n      tag_197\n        /* \"contracts/LandbaseToken.sol\":10255:10263  _minters */\n      0x07\n        /* \"contracts/LandbaseToken.sol\":10265:10271  _index */\n      dup4\n        /* \"contracts/LandbaseToken.sol\":10238:10254  EnumerableSet.at */\n      tag_238\n        /* \"contracts/LandbaseToken.sol\":10238:10272  EnumerableSet.at(_minters, _index) */\n      jump\t// in\n        /* \"contracts/LandbaseToken.sol\":2673:2777  function delegate(address delegatee) external {... */\n    tag_97:\n        /* \"contracts/LandbaseToken.sol\":2737:2769  _delegate(msg.sender, delegatee) */\n      tag_240\n        /* \"contracts/LandbaseToken.sol\":2747:2757  msg.sender */\n      caller\n        /* \"contracts/LandbaseToken.sol\":2759:2768  delegatee */\n      dup3\n        /* \"contracts/LandbaseToken.sol\":2737:2746  _delegate */\n      tag_241\n        /* \"contracts/LandbaseToken.sol\":2737:2769  _delegate(msg.sender, delegatee) */\n      jump\t// in\n    tag_240:\n        /* \"contracts/LandbaseToken.sol\":2673:2777  function delegate(address delegatee) external {... */\n      pop\n      jump\t// out\n        /* \"contracts/access/Ownable.sol\":1657:1751  function renounceOwnership() public virtual onlyOwner {... */\n    tag_108:\n        /* \"contracts/access/Ownable.sol\":1052:1059  address */\n      0x00\n        /* \"contracts/access/Ownable.sol\":1079:1085  _owner */\n      sload\n      sub(shl(0xa0, 0x01), 0x01)\n      and\n        /* \"contracts/utils/Context.sol\":682:692  msg.sender */\n      caller\n        /* \"contracts/access/Ownable.sol\":1226:1249  owner() == _msgSender() */\n      eq\n        /* \"contracts/access/Ownable.sol\":1218:1286  require(owner() == _msgSender(), \"Ownable: caller is not the owner\") */\n      tag_246\n      jumpi\n      mload(0x40)\n      shl(0xe5, 0x461bcd)\n      dup2\n      mstore\n      0x04\n      add\n      tag_191\n      swap1\n      tag_192\n      jump\t// in\n    tag_246:\n        /* \"contracts/access/Ownable.sol\":1722:1743  _setOwner(address(0)) */\n      tag_249\n        /* \"contracts/access/Ownable.sol\":1740:1741  0 */\n      0x00\n        /* \"contracts/access/Ownable.sol\":1722:1731  _setOwner */\n      tag_250\n        /* \"contracts/access/Ownable.sol\":1722:1743  _setOwner(address(0)) */\n      jump\t// in\n    tag_249:\n        /* \"contracts/access/Ownable.sol\":1657:1751  function renounceOwnership() public virtual onlyOwner {... */\n      jump\t// out\n        /* \"contracts/LandbaseToken.sol\":5235:6532  function getPriorVotes(address account, uint256 blockNumber)... */\n    tag_111:\n        /* \"contracts/LandbaseToken.sol\":5346:5353  uint256 */\n      0x00\n        /* \"contracts/LandbaseToken.sol\":5407:5419  block.number */\n      number\n        /* \"contracts/LandbaseToken.sol\":5393:5404  blockNumber */\n      dup3\n        /* \"contracts/LandbaseToken.sol\":5393:5419  blockNumber < block.number */\n      lt\n        /* \"contracts/LandbaseToken.sol\":5371:5490  require(... */\n      tag_252\n      jumpi\n      mload(0x40)\n      shl(0xe5, 0x461bcd)\n      dup2\n      mstore\n        /* \"#utility.yul\":6753:6755   */\n      0x20\n        /* \"contracts/LandbaseToken.sol\":5371:5490  require(... */\n      0x04\n      dup3\n      add\n        /* \"#utility.yul\":6735:6756   */\n      mstore\n        /* \"#utility.yul\":6792:6794   */\n      0x2b\n        /* \"#utility.yul\":6772:6790   */\n      0x24\n      dup3\n      add\n        /* \"#utility.yul\":6765:6795   */\n      mstore\n        /* \"#utility.yul\":6831:6865   */\n      0x4c414e44424153453a3a6765745072696f72566f7465733a206e6f7420796574\n        /* \"#utility.yul\":6811:6829   */\n      0x44\n      dup3\n      add\n        /* \"#utility.yul\":6804:6866   */\n      mstore\n      shl(0xaa, 0x0819195d195c9b5a5b9959)\n        /* \"#utility.yul\":6882:6900   */\n      0x64\n      dup3\n      add\n        /* \"#utility.yul\":6875:6916   */\n      mstore\n        /* \"#utility.yul\":6933:6952   */\n      0x84\n      add\n        /* \"contracts/LandbaseToken.sol\":5371:5490  require(... */\n      tag_191\n        /* \"#utility.yul\":6551:6958   */\n      jump\n        /* \"contracts/LandbaseToken.sol\":5371:5490  require(... */\n    tag_252:\n      sub(shl(0xa0, 0x01), 0x01)\n        /* \"contracts/LandbaseToken.sol\":5525:5548  numCheckpoints[account] */\n      dup4\n      and\n        /* \"contracts/LandbaseToken.sol\":5503:5522  uint32 nCheckpoints */\n      0x00\n        /* \"contracts/LandbaseToken.sol\":5525:5548  numCheckpoints[account] */\n      swap1\n      dup2\n      mstore\n        /* \"contracts/LandbaseToken.sol\":5525:5539  numCheckpoints */\n      0x0b\n        /* \"contracts/LandbaseToken.sol\":5525:5548  numCheckpoints[account] */\n      0x20\n      mstore\n      0x40\n      dup2\n      keccak256\n      sload\n      0xffffffff\n      and\n      swap1\n        /* \"contracts/LandbaseToken.sol\":5563:5580  nCheckpoints == 0 */\n      dup2\n      swap1\n      sub\n        /* \"contracts/LandbaseToken.sol\":5559:5617  if (nCheckpoints == 0) {... */\n      tag_255\n      jumpi\n        /* \"contracts/LandbaseToken.sol\":5604:5605  0 */\n      0x00\n        /* \"contracts/LandbaseToken.sol\":5597:5605  return 0 */\n      swap2\n      pop\n      pop\n      jump(tag_181)\n        /* \"contracts/LandbaseToken.sol\":5559:5617  if (nCheckpoints == 0) {... */\n    tag_255:\n      sub(shl(0xa0, 0x01), 0x01)\n        /* \"contracts/LandbaseToken.sol\":5677:5697  checkpoints[account] */\n      dup5\n      and\n      0x00\n      swap1\n      dup2\n      mstore\n        /* \"contracts/LandbaseToken.sol\":5677:5688  checkpoints */\n      0x0a\n        /* \"contracts/LandbaseToken.sol\":5677:5697  checkpoints[account] */\n      0x20\n      mstore\n      0x40\n      dup2\n      keccak256\n        /* \"contracts/LandbaseToken.sol\":5729:5740  blockNumber */\n      dup5\n      swap2\n        /* \"contracts/LandbaseToken.sol\":5698:5714  nCheckpoints - 1 */\n      tag_256\n        /* \"contracts/LandbaseToken.sol\":5713:5714  1 */\n      0x01\n        /* \"contracts/LandbaseToken.sol\":5698:5710  nCheckpoints */\n      dup6\n        /* \"contracts/LandbaseToken.sol\":5698:5714  nCheckpoints - 1 */\n      tag_257\n      jump\t// in\n    tag_256:\n        /* \"contracts/LandbaseToken.sol\":5677:5715  checkpoints[account][nCheckpoints - 1] */\n      0xffffffff\n      swap1\n      dup2\n      and\n      dup3\n      mstore\n      0x20\n      dup3\n      add\n      swap3\n      swap1\n      swap3\n      mstore\n      0x40\n      add\n      0x00\n      keccak256\n        /* \"contracts/LandbaseToken.sol\":5677:5725  checkpoints[account][nCheckpoints - 1].fromBlock */\n      sload\n      and\n        /* \"contracts/LandbaseToken.sol\":5677:5740  checkpoints[account][nCheckpoints - 1].fromBlock <= blockNumber */\n      gt\n        /* \"contracts/LandbaseToken.sol\":5673:5820  if (checkpoints[account][nCheckpoints - 1].fromBlock <= blockNumber) {... */\n      tag_258\n      jumpi\n      sub(shl(0xa0, 0x01), 0x01)\n        /* \"contracts/LandbaseToken.sol\":5764:5784  checkpoints[account] */\n      dup5\n      and\n      0x00\n      swap1\n      dup2\n      mstore\n        /* \"contracts/LandbaseToken.sol\":5764:5775  checkpoints */\n      0x0a\n        /* \"contracts/LandbaseToken.sol\":5764:5784  checkpoints[account] */\n      0x20\n      mstore\n      0x40\n      dup2\n      keccak256\n      swap1\n        /* \"contracts/LandbaseToken.sol\":5785:5801  nCheckpoints - 1 */\n      tag_259\n        /* \"contracts/LandbaseToken.sol\":5800:5801  1 */\n      0x01\n        /* \"contracts/LandbaseToken.sol\":5785:5797  nCheckpoints */\n      dup5\n        /* \"contracts/LandbaseToken.sol\":5785:5801  nCheckpoints - 1 */\n      tag_257\n      jump\t// in\n    tag_259:\n        /* \"contracts/LandbaseToken.sol\":5764:5802  checkpoints[account][nCheckpoints - 1] */\n      0xffffffff\n      and\n      0xffffffff\n      and\n      dup2\n      mstore\n      0x20\n      add\n      swap1\n      dup2\n      mstore\n      0x20\n      add\n      0x00\n      keccak256\n        /* \"contracts/LandbaseToken.sol\":5764:5808  checkpoints[account][nCheckpoints - 1].votes */\n      0x01\n      add\n      sload\n        /* \"contracts/LandbaseToken.sol\":5757:5808  return checkpoints[account][nCheckpoints - 1].votes */\n      swap2\n      pop\n      pop\n      jump(tag_181)\n        /* \"contracts/LandbaseToken.sol\":5673:5820  if (checkpoints[account][nCheckpoints - 1].fromBlock <= blockNumber) {... */\n    tag_258:\n      sub(shl(0xa0, 0x01), 0x01)\n        /* \"contracts/LandbaseToken.sol\":5881:5901  checkpoints[account] */\n      dup5\n      and\n      0x00\n      swap1\n      dup2\n      mstore\n        /* \"contracts/LandbaseToken.sol\":5881:5892  checkpoints */\n      0x0a\n        /* \"contracts/LandbaseToken.sol\":5881:5901  checkpoints[account] */\n      0x20\n      swap1\n      dup2\n      mstore\n      0x40\n      dup1\n      dup4\n      keccak256\n        /* \"contracts/LandbaseToken.sol\":5881:5904  checkpoints[account][0] */\n      dup4\n      dup1\n      mstore\n      swap1\n      swap2\n      mstore\n      swap1\n      keccak256\n        /* \"contracts/LandbaseToken.sol\":5881:5914  checkpoints[account][0].fromBlock */\n      sload\n        /* \"contracts/LandbaseToken.sol\":5881:5904  checkpoints[account][0] */\n      0xffffffff\n        /* \"contracts/LandbaseToken.sol\":5881:5914  checkpoints[account][0].fromBlock */\n      and\n        /* \"contracts/LandbaseToken.sol\":5881:5928  checkpoints[account][0].fromBlock > blockNumber */\n      dup4\n      lt\n        /* \"contracts/LandbaseToken.sol\":5877:5965  if (checkpoints[account][0].fromBlock > blockNumber) {... */\n      iszero\n      tag_260\n      jumpi\n        /* \"contracts/LandbaseToken.sol\":5952:5953  0 */\n      0x00\n        /* \"contracts/LandbaseToken.sol\":5945:5953  return 0 */\n      swap2\n      pop\n      pop\n      jump(tag_181)\n        /* \"contracts/LandbaseToken.sol\":5877:5965  if (checkpoints[account][0].fromBlock > blockNumber) {... */\n    tag_260:\n        /* \"contracts/LandbaseToken.sol\":5977:5989  uint32 lower */\n      0x00\n      dup1\n        /* \"contracts/LandbaseToken.sol\":6019:6035  nCheckpoints - 1 */\n      tag_261\n        /* \"contracts/LandbaseToken.sol\":6034:6035  1 */\n      0x01\n        /* \"contracts/LandbaseToken.sol\":6019:6031  nCheckpoints */\n      dup5\n        /* \"contracts/LandbaseToken.sol\":6019:6035  nCheckpoints - 1 */\n      tag_257\n      jump\t// in\n    tag_261:\n        /* \"contracts/LandbaseToken.sol\":6004:6035  uint32 upper = nCheckpoints - 1 */\n      swap1\n      pop\n        /* \"contracts/LandbaseToken.sol\":6046:6474  while (upper > lower) {... */\n    tag_262:\n        /* \"contracts/LandbaseToken.sol\":6061:6066  lower */\n      dup2\n        /* \"contracts/LandbaseToken.sol\":6053:6066  upper > lower */\n      0xffffffff\n      and\n        /* \"contracts/LandbaseToken.sol\":6053:6058  upper */\n      dup2\n        /* \"contracts/LandbaseToken.sol\":6053:6066  upper > lower */\n      0xffffffff\n      and\n      gt\n        /* \"contracts/LandbaseToken.sol\":6046:6474  while (upper > lower) {... */\n      iszero\n      tag_263\n      jumpi\n        /* \"contracts/LandbaseToken.sol\":6083:6096  uint32 center */\n      0x00\n        /* \"contracts/LandbaseToken.sol\":6125:6126  2 */\n      0x02\n        /* \"contracts/LandbaseToken.sol\":6108:6121  upper - lower */\n      tag_264\n        /* \"contracts/LandbaseToken.sol\":6116:6121  lower */\n      dup5\n        /* \"contracts/LandbaseToken.sol\":6108:6113  upper */\n      dup5\n        /* \"contracts/LandbaseToken.sol\":6108:6121  upper - lower */\n      tag_257\n      jump\t// in\n    tag_264:\n        /* \"contracts/LandbaseToken.sol\":6107:6126  (upper - lower) / 2 */\n      tag_265\n      swap2\n      swap1\n      tag_266\n      jump\t// in\n    tag_265:\n        /* \"contracts/LandbaseToken.sol\":6099:6126  upper - (upper - lower) / 2 */\n      tag_267\n      swap1\n        /* \"contracts/LandbaseToken.sol\":6099:6104  upper */\n      dup4\n        /* \"contracts/LandbaseToken.sol\":6099:6126  upper - (upper - lower) / 2 */\n      tag_257\n      jump\t// in\n    tag_267:\n      sub(shl(0xa0, 0x01), 0x01)\n        /* \"contracts/LandbaseToken.sol\":6191:6211  checkpoints[account] */\n      dup9\n      and\n        /* \"contracts/LandbaseToken.sol\":6168:6188  Checkpoint memory cp */\n      0x00\n        /* \"contracts/LandbaseToken.sol\":6191:6211  checkpoints[account] */\n      swap1\n      dup2\n      mstore\n        /* \"contracts/LandbaseToken.sol\":6191:6202  checkpoints */\n      0x0a\n        /* \"contracts/LandbaseToken.sol\":6191:6211  checkpoints[account] */\n      0x20\n      swap1\n      dup2\n      mstore\n      0x40\n      dup1\n      dup4\n      keccak256\n        /* \"contracts/LandbaseToken.sol\":6191:6219  checkpoints[account][center] */\n      0xffffffff\n      dup1\n      dup7\n      and\n      dup6\n      mstore\n      swap1\n      dup4\n      mstore\n      swap3\n      dup2\n      swap1\n      keccak256\n        /* \"contracts/LandbaseToken.sol\":6168:6219  Checkpoint memory cp = checkpoints[account][center] */\n      dup2\n      mload\n      dup1\n      dup4\n      add\n      swap1\n      swap3\n      mstore\n      dup1\n      sload\n      swap1\n      swap4\n      and\n      dup1\n      dup3\n      mstore\n      0x01\n      swap1\n      swap4\n      add\n      sload\n      swap2\n      dup2\n      add\n      swap2\n      swap1\n      swap2\n      mstore\n        /* \"contracts/LandbaseToken.sol\":6083:6126  uint32 center = upper - (upper - lower) / 2 */\n      swap2\n      swap3\n      pop\n        /* \"contracts/LandbaseToken.sol\":6238:6265  cp.fromBlock == blockNumber */\n      dup8\n      swap1\n      sub\n        /* \"contracts/LandbaseToken.sol\":6234:6463  if (cp.fromBlock == blockNumber) {... */\n      tag_268\n      jumpi\n        /* \"contracts/LandbaseToken.sol\":6293:6301  cp.votes */\n      0x20\n      add\n      mload\n      swap5\n      pop\n        /* \"contracts/LandbaseToken.sol\":6286:6301  return cp.votes */\n      tag_181\n      swap4\n      pop\n      pop\n      pop\n      pop\n      jump\n        /* \"contracts/LandbaseToken.sol\":6234:6463  if (cp.fromBlock == blockNumber) {... */\n    tag_268:\n        /* \"contracts/LandbaseToken.sol\":6327:6339  cp.fromBlock */\n      dup1\n      mload\n        /* \"contracts/LandbaseToken.sol\":6327:6353  cp.fromBlock < blockNumber */\n      0xffffffff\n      and\n      dup8\n      gt\n        /* \"contracts/LandbaseToken.sol\":6323:6463  if (cp.fromBlock < blockNumber) {... */\n      iszero\n      tag_270\n      jumpi\n        /* \"contracts/LandbaseToken.sol\":6382:6388  center */\n      dup2\n        /* \"contracts/LandbaseToken.sol\":6374:6388  lower = center */\n      swap4\n      pop\n        /* \"contracts/LandbaseToken.sol\":6323:6463  if (cp.fromBlock < blockNumber) {... */\n      jump(tag_271)\n    tag_270:\n        /* \"contracts/LandbaseToken.sol\":6437:6447  center - 1 */\n      tag_272\n        /* \"contracts/LandbaseToken.sol\":6446:6447  1 */\n      0x01\n        /* \"contracts/LandbaseToken.sol\":6437:6443  center */\n      dup4\n        /* \"contracts/LandbaseToken.sol\":6437:6447  center - 1 */\n      tag_257\n      jump\t// in\n    tag_272:\n        /* \"contracts/LandbaseToken.sol\":6429:6447  upper = center - 1 */\n      swap3\n      pop\n        /* \"contracts/LandbaseToken.sol\":6323:6463  if (cp.fromBlock < blockNumber) {... */\n    tag_271:\n        /* \"contracts/LandbaseToken.sol\":6068:6474  {... */\n      pop\n      pop\n        /* \"contracts/LandbaseToken.sol\":6046:6474  while (upper > lower) {... */\n      jump(tag_262)\n    tag_263:\n      pop\n      sub(shl(0xa0, 0x01), 0x01)\n        /* \"contracts/LandbaseToken.sol\":6491:6511  checkpoints[account] */\n      dup6\n      and\n      0x00\n      swap1\n      dup2\n      mstore\n        /* \"contracts/LandbaseToken.sol\":6491:6502  checkpoints */\n      0x0a\n        /* \"contracts/LandbaseToken.sol\":6491:6511  checkpoints[account] */\n      0x20\n      swap1\n      dup2\n      mstore\n      0x40\n      dup1\n      dup4\n      keccak256\n        /* \"contracts/LandbaseToken.sol\":6491:6518  checkpoints[account][lower] */\n      0xffffffff\n      swap1\n      swap5\n      and\n      dup4\n      mstore\n      swap3\n      swap1\n      mstore\n      keccak256\n        /* \"contracts/LandbaseToken.sol\":6491:6524  checkpoints[account][lower].votes */\n      0x01\n      add\n      sload\n      swap2\n      pop\n      pop\n        /* \"contracts/LandbaseToken.sol\":5235:6532  function getPriorVotes(address account, uint256 blockNumber)... */\n      swap3\n      swap2\n      pop\n      pop\n      jump\t// out\n        /* \"contracts/BEP20.sol\":1576:1672  function symbol() public view override returns (string memory) {... */\n    tag_124:\n        /* \"contracts/BEP20.sol\":1624:1637  string memory */\n      0x60\n        /* \"contracts/BEP20.sol\":1657:1664  _symbol */\n      0x05\n        /* \"contracts/BEP20.sol\":1650:1664  return _symbol */\n      dup1\n      sload\n      tag_175\n      swap1\n      tag_176\n      jump\t// in\n        /* \"contracts/LandbaseToken.sol\":9262:9523  function addMinter(address _addMinter) public onlyOwner returns (bool) {... */\n    tag_128:\n        /* \"contracts/LandbaseToken.sol\":9327:9331  bool */\n      0x00\n        /* \"contracts/access/Ownable.sol\":1079:1085  _owner */\n      dup1\n      sload\n      sub(shl(0xa0, 0x01), 0x01)\n      and\n        /* \"contracts/utils/Context.sol\":682:692  msg.sender */\n      caller\n        /* \"contracts/access/Ownable.sol\":1226:1249  owner() == _msgSender() */\n      eq\n        /* \"contracts/access/Ownable.sol\":1218:1286  require(owner() == _msgSender(), \"Ownable: caller is not the owner\") */\n      tag_285\n      jumpi\n      mload(0x40)\n      shl(0xe5, 0x461bcd)\n      dup2\n      mstore\n      0x04\n      add\n      tag_191\n      swap1\n      tag_192\n      jump\t// in\n    tag_285:\n      sub(shl(0xa0, 0x01), 0x01)\n        /* \"contracts/LandbaseToken.sol\":9366:9390  _addMinter != address(0) */\n      dup3\n      and\n        /* \"contracts/LandbaseToken.sol\":9344:9458  require(... */\n      tag_288\n      jumpi\n      mload(0x40)\n      shl(0xe5, 0x461bcd)\n      dup2\n      mstore\n        /* \"#utility.yul\":7684:7686   */\n      0x20\n        /* \"contracts/LandbaseToken.sol\":9344:9458  require(... */\n      0x04\n      dup3\n      add\n        /* \"#utility.yul\":7666:7687   */\n      mstore\n        /* \"#utility.yul\":7723:7725   */\n      0x28\n        /* \"#utility.yul\":7703:7721   */\n      0x24\n      dup3\n      add\n        /* \"#utility.yul\":7696:7726   */\n      mstore\n        /* \"#utility.yul\":7762:7796   */\n      0x4c414e44424153453a205f6164644d696e74657220697320746865207a65726f\n        /* \"#utility.yul\":7742:7760   */\n      0x44\n      dup3\n      add\n        /* \"#utility.yul\":7735:7797   */\n      mstore\n      shl(0xc0, 0x2061646472657373)\n        /* \"#utility.yul\":7813:7831   */\n      0x64\n      dup3\n      add\n        /* \"#utility.yul\":7806:7844   */\n      mstore\n        /* \"#utility.yul\":7861:7880   */\n      0x84\n      add\n        /* \"contracts/LandbaseToken.sol\":9344:9458  require(... */\n      tag_191\n        /* \"#utility.yul\":7482:7886   */\n      jump\n        /* \"contracts/LandbaseToken.sol\":9344:9458  require(... */\n    tag_288:\n        /* \"contracts/LandbaseToken.sol\":9476:9515  EnumerableSet.add(_minters, _addMinter) */\n      tag_197\n        /* \"contracts/LandbaseToken.sol\":9494:9502  _minters */\n      0x07\n        /* \"contracts/LandbaseToken.sol\":9504:9514  _addMinter */\n      dup4\n        /* \"contracts/LandbaseToken.sol\":9476:9493  EnumerableSet.add */\n      tag_292\n        /* \"contracts/LandbaseToken.sol\":9476:9515  EnumerableSet.add(_minters, _addMinter) */\n      jump\t// in\n        /* \"contracts/BEP20.sol\":5724:5854  function mint(uint256 amount) public onlyOwner returns (bool) {... */\n    tag_132:\n        /* \"contracts/BEP20.sol\":5780:5784  bool */\n      0x00\n        /* \"contracts/access/Ownable.sol\":1079:1085  _owner */\n      dup1\n      sload\n      sub(shl(0xa0, 0x01), 0x01)\n      and\n        /* \"contracts/utils/Context.sol\":682:692  msg.sender */\n      caller\n        /* \"contracts/access/Ownable.sol\":1226:1249  owner() == _msgSender() */\n      eq\n        /* \"contracts/access/Ownable.sol\":1218:1286  require(owner() == _msgSender(), \"Ownable: caller is not the owner\") */\n      tag_296\n      jumpi\n      mload(0x40)\n      shl(0xe5, 0x461bcd)\n      dup2\n      mstore\n      0x04\n      add\n      tag_191\n      swap1\n      tag_192\n      jump\t// in\n    tag_296:\n        /* \"contracts/BEP20.sol\":5797:5824  _mint(_msgSender(), amount) */\n      tag_299\n        /* \"contracts/utils/Context.sol\":682:692  msg.sender */\n      caller\n        /* \"contracts/BEP20.sol\":5817:5823  amount */\n      dup4\n        /* \"contracts/BEP20.sol\":5797:5802  _mint */\n      tag_221\n        /* \"contracts/BEP20.sol\":5797:5824  _mint(_msgSender(), amount) */\n      jump\t// in\n    tag_299:\n      pop\n        /* \"contracts/BEP20.sol\":5842:5846  true */\n      0x01\n        /* \"contracts/BEP20.sol\":5724:5854  function mint(uint256 amount) public onlyOwner returns (bool) {... */\n      swap2\n      swap1\n      pop\n      jump\t// out\n        /* \"contracts/BEP20.sol\":5123:5506  function decreaseAllowance(address spender, uint256 subtractedValue)... */\n    tag_136:\n        /* \"contracts/BEP20.sol\":5226:5230  bool */\n      0x00\n        /* \"contracts/BEP20.sol\":5248:5476  _approve(... */\n      tag_182\n        /* \"contracts/utils/Context.sol\":682:692  msg.sender */\n      caller\n        /* \"contracts/BEP20.sol\":5298:5305  spender */\n      dup5\n        /* \"contracts/BEP20.sol\":5320:5465  _allowances[_msgSender()][spender].sub(... */\n      tag_204\n        /* \"contracts/BEP20.sol\":5377:5392  subtractedValue */\n      dup6\n        /* \"contracts/BEP20.sol\":5320:5465  _allowances[_msgSender()][spender].sub(... */\n      mload(0x40)\n      dup1\n      0x60\n      add\n      0x40\n      mstore\n      dup1\n      0x25\n      dup2\n      mstore\n      0x20\n      add\n      data_b7060b3538dcd3ddc8a941c91636a8115a1aa46914747fd9809d543bbb46cd22\n      0x25\n      swap2\n      codecopy\n        /* \"contracts/utils/Context.sol\":682:692  msg.sender */\n      caller\n        /* \"contracts/BEP20.sol\":5320:5345  _allowances[_msgSender()] */\n      0x00\n      swap1\n      dup2\n      mstore\n        /* \"contracts/BEP20.sol\":5320:5331  _allowances */\n      0x02\n        /* \"contracts/BEP20.sol\":5320:5345  _allowances[_msgSender()] */\n      0x20\n      swap1\n      dup2\n      mstore\n      0x40\n      dup1\n      dup4\n      keccak256\n      sub(shl(0xa0, 0x01), 0x01)\n        /* \"contracts/BEP20.sol\":5320:5354  _allowances[_msgSender()][spender] */\n      dup14\n      and\n      dup5\n      mstore\n      swap1\n      swap2\n      mstore\n      swap1\n      keccak256\n      sload\n      swap2\n      swap1\n        /* \"contracts/BEP20.sol\":5320:5358  _allowances[_msgSender()][spender].sub */\n      tag_206\n        /* \"contracts/BEP20.sol\":5320:5465  _allowances[_msgSender()][spender].sub(... */\n      jump\t// in\n        /* \"contracts/BEP20.sol\":2229:2428  function transfer(address recipient, uint256 amount)... */\n    tag_140:\n        /* \"contracts/BEP20.sol\":2334:2338  bool */\n      0x00\n        /* \"contracts/BEP20.sol\":2356:2398  _transfer(_msgSender(), recipient, amount) */\n      tag_182\n        /* \"contracts/utils/Context.sol\":682:692  msg.sender */\n      caller\n        /* \"contracts/BEP20.sol\":2380:2389  recipient */\n      dup5\n        /* \"contracts/BEP20.sol\":2391:2397  amount */\n      dup5\n        /* \"contracts/BEP20.sol\":2356:2365  _transfer */\n      tag_201\n        /* \"contracts/BEP20.sol\":2356:2398  _transfer(_msgSender(), recipient, amount) */\n      jump\t// in\n        /* \"contracts/LandbaseToken.sol\":9924:10053  function isMinter(address account) public view returns (bool) {... */\n    tag_144:\n        /* \"contracts/LandbaseToken.sol\":9980:9984  bool */\n      0x00\n        /* \"contracts/LandbaseToken.sol\":10004:10045  EnumerableSet.contains(_minters, account) */\n      tag_197\n        /* \"contracts/LandbaseToken.sol\":10027:10035  _minters */\n      0x07\n        /* \"contracts/LandbaseToken.sol\":10037:10044  account */\n      dup4\n        /* \"contracts/LandbaseToken.sol\":10004:10026  EnumerableSet.contains */\n      tag_311\n        /* \"contracts/LandbaseToken.sol\":10004:10045  EnumerableSet.contains(_minters, account) */\n      jump\t// in\n        /* \"contracts/LandbaseToken.sol\":4568:4804  function getCurrentVotes(address account) external view returns (uint256) {... */\n    tag_148:\n      sub(shl(0xa0, 0x01), 0x01)\n        /* \"contracts/LandbaseToken.sol\":4675:4698  numCheckpoints[account] */\n      dup2\n      and\n        /* \"contracts/LandbaseToken.sol\":4633:4640  uint256 */\n      0x00\n        /* \"contracts/LandbaseToken.sol\":4675:4698  numCheckpoints[account] */\n      swap1\n      dup2\n      mstore\n        /* \"contracts/LandbaseToken.sol\":4675:4689  numCheckpoints */\n      0x0b\n        /* \"contracts/LandbaseToken.sol\":4675:4698  numCheckpoints[account] */\n      0x20\n      mstore\n      0x40\n      dup2\n      keccak256\n      sload\n      0xffffffff\n      and\n        /* \"contracts/LandbaseToken.sol\":4729:4745  nCheckpoints > 0 */\n      dup1\n        /* \"contracts/LandbaseToken.sol\":4729:4796  nCheckpoints > 0 ? checkpoints[account][nCheckpoints - 1].votes : 0 */\n      tag_313\n      jumpi\n        /* \"contracts/LandbaseToken.sol\":4795:4796  0 */\n      0x00\n        /* \"contracts/LandbaseToken.sol\":4729:4796  nCheckpoints > 0 ? checkpoints[account][nCheckpoints - 1].votes : 0 */\n      jump(tag_314)\n    tag_313:\n      sub(shl(0xa0, 0x01), 0x01)\n        /* \"contracts/LandbaseToken.sol\":4748:4768  checkpoints[account] */\n      dup4\n      and\n      0x00\n      swap1\n      dup2\n      mstore\n        /* \"contracts/LandbaseToken.sol\":4748:4759  checkpoints */\n      0x0a\n        /* \"contracts/LandbaseToken.sol\":4748:4768  checkpoints[account] */\n      0x20\n      mstore\n      0x40\n      dup2\n      keccak256\n      swap1\n        /* \"contracts/LandbaseToken.sol\":4769:4785  nCheckpoints - 1 */\n      tag_315\n        /* \"contracts/LandbaseToken.sol\":4784:4785  1 */\n      0x01\n        /* \"contracts/LandbaseToken.sol\":4769:4781  nCheckpoints */\n      dup5\n        /* \"contracts/LandbaseToken.sol\":4769:4785  nCheckpoints - 1 */\n      tag_257\n      jump\t// in\n    tag_315:\n        /* \"contracts/LandbaseToken.sol\":4748:4786  checkpoints[account][nCheckpoints - 1] */\n      0xffffffff\n      and\n      0xffffffff\n      and\n      dup2\n      mstore\n      0x20\n      add\n      swap1\n      dup2\n      mstore\n      0x20\n      add\n      0x00\n      keccak256\n        /* \"contracts/LandbaseToken.sol\":4748:4792  checkpoints[account][nCheckpoints - 1].votes */\n      0x01\n      add\n      sload\n        /* \"contracts/LandbaseToken.sol\":4729:4796  nCheckpoints > 0 ? checkpoints[account][nCheckpoints - 1].votes : 0 */\n    tag_314:\n        /* \"contracts/LandbaseToken.sol\":4709:4796  return... */\n      swap4\n        /* \"contracts/LandbaseToken.sol\":4568:4804  function getCurrentVotes(address account) external view returns (uint256) {... */\n      swap3\n      pop\n      pop\n      pop\n      jump\t// out\n        /* \"contracts/LandbaseToken.sol\":3211:4367  function delegateBySig(... */\n    tag_153:\n        /* \"contracts/LandbaseToken.sol\":3396:3419  bytes32 domainSeparator */\n      0x00\n        /* \"contracts/LandbaseToken.sol\":1360:1464  keccak256(... */\n      0x8cad95687ba82c2ce50e74f7b754645e5117c3a5bec8151c0726d5857980a866\n        /* \"contracts/LandbaseToken.sol\":3525:3531  name() */\n      tag_317\n        /* \"contracts/LandbaseToken.sol\":3525:3529  name */\n      tag_47\n        /* \"contracts/LandbaseToken.sol\":3525:3531  name() */\n      jump\t// in\n    tag_317:\n        /* \"contracts/LandbaseToken.sol\":3509:3533  keccak256(bytes(name())) */\n      dup1\n      mload\n      swap1\n      0x20\n      add\n      keccak256\n        /* \"contracts/LandbaseToken.sol\":3552:3564  getChainId() */\n      tag_318\n        /* \"contracts/LandbaseToken.sol\":9202:9211  chainid() */\n      chainid\n      swap1\n        /* \"contracts/LandbaseToken.sol\":9076:9254  function getChainId() internal view returns (uint256) {... */\n      jump\n        /* \"contracts/LandbaseToken.sol\":3552:3564  getChainId() */\n    tag_318:\n        /* \"contracts/LandbaseToken.sol\":3446:3611  abi.encode(... */\n      0x40\n      dup1\n      mload\n      0x20\n      dup1\n      dup3\n      add\n        /* \"#utility.yul\":8122:8147   */\n      swap6\n      swap1\n      swap6\n      mstore\n        /* \"#utility.yul\":8163:8181   */\n      dup1\n      dup3\n      add\n        /* \"#utility.yul\":8156:8190   */\n      swap4\n      swap1\n      swap4\n      mstore\n        /* \"#utility.yul\":8206:8224   */\n      0x60\n      dup4\n      add\n        /* \"#utility.yul\":8199:8233   */\n      swap2\n      swap1\n      swap2\n      mstore\n        /* \"contracts/LandbaseToken.sol\":3591:3595  this */\n      address\n        /* \"#utility.yul\":8249:8267   */\n      0x80\n      dup1\n      dup5\n      add\n        /* \"#utility.yul\":8242:8302   */\n      swap2\n      swap1\n      swap2\n      mstore\n        /* \"contracts/LandbaseToken.sol\":3446:3611  abi.encode(... */\n      dup2\n      mload\n      dup1\n      dup5\n      sub\n      swap1\n      swap2\n      add\n      dup2\n      mstore\n        /* \"#utility.yul\":8094:8113   */\n      0xa0\n      dup4\n      add\n        /* \"contracts/LandbaseToken.sol\":3446:3611  abi.encode(... */\n      dup3\n      mstore\n        /* \"contracts/LandbaseToken.sol\":3422:3622  keccak256(... */\n      dup1\n      mload\n      swap1\n      dup5\n      add\n      keccak256\n        /* \"contracts/LandbaseToken.sol\":1613:1684  keccak256(\"Delegation(address delegatee,uint256 nonce,uint256 expiry)\") */\n      0xe48329057bfd03d55e49b547132e39cffd9c1820ad7b9d4c5307691425d15adf\n        /* \"contracts/LandbaseToken.sol\":3680:3737  abi.encode(DELEGATION_TYPEHASH, delegatee, nonce, expiry) */\n      0xc0\n      dup5\n      add\n        /* \"#utility.yul\":8544:8569   */\n      mstore\n      sub(shl(0xa0, 0x01), 0x01)\n        /* \"#utility.yul\":8605:8637   */\n      dup12\n      and\n        /* \"#utility.yul\":8585:8603   */\n      0xe0\n      dup5\n      add\n        /* \"#utility.yul\":8578:8638   */\n      mstore\n        /* \"#utility.yul\":8654:8672   */\n      0x0100\n      dup4\n      add\n        /* \"#utility.yul\":8647:8681   */\n      dup11\n      swap1\n      mstore\n        /* \"#utility.yul\":8697:8715   */\n      0x0120\n      dup1\n      dup5\n      add\n        /* \"#utility.yul\":8690:8724   */\n      dup11\n      swap1\n      mstore\n        /* \"contracts/LandbaseToken.sol\":3680:3737  abi.encode(DELEGATION_TYPEHASH, delegatee, nonce, expiry) */\n      dup3\n      mload\n      dup1\n      dup6\n      sub\n      swap1\n      swap2\n      add\n      dup2\n      mstore\n        /* \"#utility.yul\":8516:8535   */\n      0x0140\n      dup5\n      add\n        /* \"contracts/LandbaseToken.sol\":3680:3737  abi.encode(DELEGATION_TYPEHASH, delegatee, nonce, expiry) */\n      swap1\n      swap3\n      mstore\n        /* \"contracts/LandbaseToken.sol\":3656:3748  keccak256(... */\n      dup2\n      mload\n      swap2\n      swap1\n      swap4\n      add\n      keccak256\n      shl(0xf0, 0x1901)\n        /* \"contracts/LandbaseToken.sol\":3802:3859  abi.encodePacked(\"\\x19\\x01\", domainSeparator, structHash) */\n      0x0160\n      dup4\n      add\n        /* \"#utility.yul\":8993:9020   */\n      mstore\n        /* \"#utility.yul\":9036:9047   */\n      0x0162\n      dup3\n      add\n        /* \"#utility.yul\":9029:9056   */\n      dup4\n      swap1\n      mstore\n        /* \"#utility.yul\":9072:9084   */\n      0x0182\n      dup3\n      add\n        /* \"#utility.yul\":9065:9093   */\n      dup2\n      swap1\n      mstore\n        /* \"contracts/LandbaseToken.sol\":3422:3622  keccak256(... */\n      swap2\n      swap3\n      pop\n      0x00\n      swap1\n        /* \"#utility.yul\":9109:9121   */\n      0x01a2\n      add\n        /* \"contracts/LandbaseToken.sol\":3802:3859  abi.encodePacked(\"\\x19\\x01\", domainSeparator, structHash) */\n      0x40\n      dup1\n      mload\n      not(0x1f)\n      dup2\n      dup5\n      sub\n      add\n      dup2\n      mstore\n      dup3\n      dup3\n      mstore\n        /* \"contracts/LandbaseToken.sol\":3778:3870  keccak256(... */\n      dup1\n      mload\n        /* \"contracts/LandbaseToken.sol\":3802:3859  abi.encodePacked(\"\\x19\\x01\", domainSeparator, structHash) */\n      0x20\n        /* \"contracts/LandbaseToken.sol\":3778:3870  keccak256(... */\n      swap2\n      dup3\n      add\n      keccak256\n        /* \"contracts/LandbaseToken.sol\":3883:3900  address signatory */\n      0x00\n        /* \"contracts/LandbaseToken.sol\":3903:3929  ecrecover(digest, v, r, s) */\n      dup1\n      dup6\n      mstore\n      swap2\n      dup5\n      add\n      dup1\n      dup5\n      mstore\n        /* \"#utility.yul\":9359:9384   */\n      dup2\n      swap1\n      mstore\n        /* \"#utility.yul\":9432:9436   */\n      0xff\n        /* \"#utility.yul\":9420:9437   */\n      dup11\n      and\n        /* \"#utility.yul\":9400:9418   */\n      swap3\n      dup5\n      add\n        /* \"#utility.yul\":9393:9438   */\n      swap3\n      swap1\n      swap3\n      mstore\n        /* \"#utility.yul\":9454:9472   */\n      0x60\n      dup4\n      add\n        /* \"#utility.yul\":9447:9481   */\n      dup9\n      swap1\n      mstore\n        /* \"#utility.yul\":9497:9515   */\n      0x80\n      dup4\n      add\n        /* \"#utility.yul\":9490:9524   */\n      dup8\n      swap1\n      mstore\n        /* \"contracts/LandbaseToken.sol\":3778:3870  keccak256(... */\n      swap1\n      swap3\n      pop\n        /* \"contracts/LandbaseToken.sol\":3883:3900  address signatory */\n      swap1\n        /* \"contracts/LandbaseToken.sol\":3903:3929  ecrecover(digest, v, r, s) */\n      0x01\n      swap1\n        /* \"#utility.yul\":9331:9350   */\n      0xa0\n      add\n        /* \"contracts/LandbaseToken.sol\":3903:3929  ecrecover(digest, v, r, s) */\n      0x20\n      mload(0x40)\n      0x20\n      dup2\n      sub\n      swap1\n      dup1\n      dup5\n      sub\n      swap1\n      dup6\n      gas\n      staticcall\n      iszero\n      dup1\n      iszero\n      tag_329\n      jumpi\n      returndatasize\n      0x00\n      dup1\n      returndatacopy\n      revert(0x00, returndatasize)\n    tag_329:\n      pop\n      pop\n      mload(add(not(0x1f), mload(0x40)))\n      swap2\n      pop\n      pop\n      sub(shl(0xa0, 0x01), 0x01)\n        /* \"contracts/LandbaseToken.sol\":3962:3985  signatory != address(0) */\n      dup2\n      and\n        /* \"contracts/LandbaseToken.sol\":3940:4055  require(... */\n      tag_330\n      jumpi\n      mload(0x40)\n      shl(0xe5, 0x461bcd)\n      dup2\n      mstore\n        /* \"#utility.yul\":9737:9739   */\n      0x20\n        /* \"contracts/LandbaseToken.sol\":3940:4055  require(... */\n      0x04\n      dup3\n      add\n        /* \"#utility.yul\":9719:9740   */\n      mstore\n        /* \"#utility.yul\":9776:9778   */\n      0x2a\n        /* \"#utility.yul\":9756:9774   */\n      0x24\n      dup3\n      add\n        /* \"#utility.yul\":9749:9779   */\n      mstore\n        /* \"#utility.yul\":9815:9849   */\n      0x4c414e44424153453a3a64656c656761746542795369673a20696e76616c6964\n        /* \"#utility.yul\":9795:9813   */\n      0x44\n      dup3\n      add\n        /* \"#utility.yul\":9788:9850   */\n      mstore\n      shl(0xb0, 0x207369676e6174757265)\n        /* \"#utility.yul\":9866:9884   */\n      0x64\n      dup3\n      add\n        /* \"#utility.yul\":9859:9899   */\n      mstore\n        /* \"#utility.yul\":9916:9935   */\n      0x84\n      add\n        /* \"contracts/LandbaseToken.sol\":3940:4055  require(... */\n      tag_191\n        /* \"#utility.yul\":9535:9941   */\n      jump\n        /* \"contracts/LandbaseToken.sol\":3940:4055  require(... */\n    tag_330:\n      sub(shl(0xa0, 0x01), 0x01)\n        /* \"contracts/LandbaseToken.sol\":4097:4114  nonces[signatory] */\n      dup2\n      and\n      0x00\n      swap1\n      dup2\n      mstore\n        /* \"contracts/LandbaseToken.sol\":4097:4103  nonces */\n      0x0c\n        /* \"contracts/LandbaseToken.sol\":4097:4114  nonces[signatory] */\n      0x20\n      mstore\n      0x40\n      dup2\n      keccak256\n        /* \"contracts/LandbaseToken.sol\":4097:4116  nonces[signatory]++ */\n      dup1\n      sload\n      swap2\n      tag_333\n      dup4\n      tag_334\n      jump\t// in\n    tag_333:\n      swap2\n      swap1\n      pop\n      sstore\n        /* \"contracts/LandbaseToken.sol\":4088:4093  nonce */\n      dup10\n        /* \"contracts/LandbaseToken.sol\":4088:4116  nonce == nonces[signatory]++ */\n      eq\n        /* \"contracts/LandbaseToken.sol\":4066:4182  require(... */\n      tag_335\n      jumpi\n      mload(0x40)\n      shl(0xe5, 0x461bcd)\n      dup2\n      mstore\n        /* \"#utility.yul\":10288:10290   */\n      0x20\n        /* \"contracts/LandbaseToken.sol\":4066:4182  require(... */\n      0x04\n      dup3\n      add\n        /* \"#utility.yul\":10270:10291   */\n      mstore\n        /* \"#utility.yul\":10327:10329   */\n      0x26\n        /* \"#utility.yul\":10307:10325   */\n      0x24\n      dup3\n      add\n        /* \"#utility.yul\":10300:10330   */\n      mstore\n        /* \"#utility.yul\":10366:10400   */\n      0x4c414e44424153453a3a64656c656761746542795369673a20696e76616c6964\n        /* \"#utility.yul\":10346:10364   */\n      0x44\n      dup3\n      add\n        /* \"#utility.yul\":10339:10401   */\n      mstore\n      shl(0xd0, 0x206e6f6e6365)\n        /* \"#utility.yul\":10417:10435   */\n      0x64\n      dup3\n      add\n        /* \"#utility.yul\":10410:10446   */\n      mstore\n        /* \"#utility.yul\":10463:10482   */\n      0x84\n      add\n        /* \"contracts/LandbaseToken.sol\":4066:4182  require(... */\n      tag_191\n        /* \"#utility.yul\":10086:10488   */\n      jump\n        /* \"contracts/LandbaseToken.sol\":4066:4182  require(... */\n    tag_335:\n        /* \"contracts/LandbaseToken.sol\":4234:4240  expiry */\n      dup8\n        /* \"contracts/LandbaseToken.sol\":4215:4230  block.timestamp */\n      timestamp\n        /* \"contracts/LandbaseToken.sol\":4215:4240  block.timestamp <= expiry */\n      gt\n      iszero\n        /* \"contracts/LandbaseToken.sol\":4193:4310  require(... */\n      tag_338\n      jumpi\n      mload(0x40)\n      shl(0xe5, 0x461bcd)\n      dup2\n      mstore\n        /* \"#utility.yul\":10695:10697   */\n      0x20\n        /* \"contracts/LandbaseToken.sol\":4193:4310  require(... */\n      0x04\n      dup3\n      add\n        /* \"#utility.yul\":10677:10698   */\n      mstore\n        /* \"#utility.yul\":10734:10736   */\n      0x2a\n        /* \"#utility.yul\":10714:10732   */\n      0x24\n      dup3\n      add\n        /* \"#utility.yul\":10707:10737   */\n      mstore\n        /* \"#utility.yul\":10773:10807   */\n      0x4c414e44424153453a3a64656c656761746542795369673a207369676e617475\n        /* \"#utility.yul\":10753:10771   */\n      0x44\n      dup3\n      add\n        /* \"#utility.yul\":10746:10808   */\n      mstore\n      shl(0xb2, 0x1c9948195e1c1a5c9959)\n        /* \"#utility.yul\":10824:10842   */\n      0x64\n      dup3\n      add\n        /* \"#utility.yul\":10817:10857   */\n      mstore\n        /* \"#utility.yul\":10874:10893   */\n      0x84\n      add\n        /* \"contracts/LandbaseToken.sol\":4193:4310  require(... */\n      tag_191\n        /* \"#utility.yul\":10493:10899   */\n      jump\n        /* \"contracts/LandbaseToken.sol\":4193:4310  require(... */\n    tag_338:\n        /* \"contracts/LandbaseToken.sol\":4328:4359  _delegate(signatory, delegatee) */\n      tag_341\n        /* \"contracts/LandbaseToken.sol\":4338:4347  signatory */\n      dup2\n        /* \"contracts/LandbaseToken.sol\":4349:4358  delegatee */\n      dup12\n        /* \"contracts/LandbaseToken.sol\":4328:4337  _delegate */\n      tag_241\n        /* \"contracts/LandbaseToken.sol\":4328:4359  _delegate(signatory, delegatee) */\n      jump\t// in\n    tag_341:\n        /* \"contracts/LandbaseToken.sol\":4321:4359  return _delegate(signatory, delegatee) */\n      pop\n      pop\n      pop\n      pop\n        /* \"contracts/LandbaseToken.sol\":3211:4367  function delegateBySig(... */\n    tag_316:\n      pop\n      pop\n      pop\n      pop\n      pop\n      pop\n      jump\t// out\n        /* \"contracts/access/Ownable.sol\":1906:2098  function transferOwnership(address newOwner) public virtual onlyOwner {... */\n    tag_170:\n        /* \"contracts/access/Ownable.sol\":1052:1059  address */\n      0x00\n        /* \"contracts/access/Ownable.sol\":1079:1085  _owner */\n      sload\n      sub(shl(0xa0, 0x01), 0x01)\n      and\n        /* \"contracts/utils/Context.sol\":682:692  msg.sender */\n      caller\n        /* \"contracts/access/Ownable.sol\":1226:1249  owner() == _msgSender() */\n      eq\n        /* \"contracts/access/Ownable.sol\":1218:1286  require(owner() == _msgSender(), \"Ownable: caller is not the owner\") */\n      tag_346\n      jumpi\n      mload(0x40)\n      shl(0xe5, 0x461bcd)\n      dup2\n      mstore\n      0x04\n      add\n      tag_191\n      swap1\n      tag_192\n      jump\t// in\n    tag_346:\n      sub(shl(0xa0, 0x01), 0x01)\n        /* \"contracts/access/Ownable.sol\":1995:2017  newOwner != address(0) */\n      dup2\n      and\n        /* \"contracts/access/Ownable.sol\":1987:2060  require(newOwner != address(0), \"Ownable: new owner is the zero address\") */\n      tag_349\n      jumpi\n      mload(0x40)\n      shl(0xe5, 0x461bcd)\n      dup2\n      mstore\n        /* \"#utility.yul\":11106:11108   */\n      0x20\n        /* \"contracts/access/Ownable.sol\":1987:2060  require(newOwner != address(0), \"Ownable: new owner is the zero address\") */\n      0x04\n      dup3\n      add\n        /* \"#utility.yul\":11088:11109   */\n      mstore\n        /* \"#utility.yul\":11145:11147   */\n      0x26\n        /* \"#utility.yul\":11125:11143   */\n      0x24\n      dup3\n      add\n        /* \"#utility.yul\":11118:11148   */\n      mstore\n        /* \"#utility.yul\":11184:11218   */\n      0x4f776e61626c653a206e6577206f776e657220697320746865207a65726f2061\n        /* \"#utility.yul\":11164:11182   */\n      0x44\n      dup3\n      add\n        /* \"#utility.yul\":11157:11219   */\n      mstore\n      shl(0xd0, 0x646472657373)\n        /* \"#utility.yul\":11235:11253   */\n      0x64\n      dup3\n      add\n        /* \"#utility.yul\":11228:11264   */\n      mstore\n        /* \"#utility.yul\":11281:11300   */\n      0x84\n      add\n        /* \"contracts/access/Ownable.sol\":1987:2060  require(newOwner != address(0), \"Ownable: new owner is the zero address\") */\n      tag_191\n        /* \"#utility.yul\":10904:11306   */\n      jump\n        /* \"contracts/access/Ownable.sol\":1987:2060  require(newOwner != address(0), \"Ownable: new owner is the zero address\") */\n    tag_349:\n        /* \"contracts/access/Ownable.sol\":2071:2090  _setOwner(newOwner) */\n      tag_240\n        /* \"contracts/access/Ownable.sol\":2081:2089  newOwner */\n      dup2\n        /* \"contracts/access/Ownable.sol\":2071:2080  _setOwner */\n      tag_250\n        /* \"contracts/access/Ownable.sol\":2071:2090  _setOwner(newOwner) */\n      jump\t// in\n        /* \"contracts/structs/EnumerableSet.sol\":8592:8709  function length(AddressSet storage set) internal view returns (uint256) {... */\n    tag_173:\n        /* \"contracts/structs/EnumerableSet.sol\":8655:8662  uint256 */\n      0x00\n        /* \"contracts/structs/EnumerableSet.sol\":8682:8701  _length(set._inner) */\n      tag_197\n        /* \"contracts/structs/EnumerableSet.sol\":8690:8693  set */\n      dup3\n        /* \"contracts/structs/EnumerableSet.sol\":4076:4094  set._values.length */\n      sload\n      swap1\n        /* \"contracts/structs/EnumerableSet.sol\":3993:4102  function _length(Set storage set) private view returns (uint256) {... */\n      jump\n        /* \"contracts/BEP20.sol\":8632:9004  function _approve(... */\n    tag_185:\n      sub(shl(0xa0, 0x01), 0x01)\n        /* \"contracts/BEP20.sol\":8760:8779  owner != address(0) */\n      dup4\n      and\n        /* \"contracts/BEP20.sol\":8752:8820  require(owner != address(0), \"BEP20: approve from the zero address\") */\n      tag_358\n      jumpi\n      mload(0x40)\n      shl(0xe5, 0x461bcd)\n      dup2\n      mstore\n        /* \"#utility.yul\":11513:11515   */\n      0x20\n        /* \"contracts/BEP20.sol\":8752:8820  require(owner != address(0), \"BEP20: approve from the zero address\") */\n      0x04\n      dup3\n      add\n        /* \"#utility.yul\":11495:11516   */\n      mstore\n        /* \"#utility.yul\":11552:11554   */\n      0x24\n        /* \"#utility.yul\":11532:11550   */\n      dup1\n      dup3\n      add\n        /* \"#utility.yul\":11525:11555   */\n      mstore\n        /* \"#utility.yul\":11591:11625   */\n      0x42455032303a20617070726f76652066726f6d20746865207a65726f20616464\n        /* \"#utility.yul\":11571:11589   */\n      0x44\n      dup3\n      add\n        /* \"#utility.yul\":11564:11626   */\n      mstore\n      shl(0xe0, 0x72657373)\n        /* \"#utility.yul\":11642:11660   */\n      0x64\n      dup3\n      add\n        /* \"#utility.yul\":11635:11669   */\n      mstore\n        /* \"#utility.yul\":11686:11705   */\n      0x84\n      add\n        /* \"contracts/BEP20.sol\":8752:8820  require(owner != address(0), \"BEP20: approve from the zero address\") */\n      tag_191\n        /* \"#utility.yul\":11311:11711   */\n      jump\n        /* \"contracts/BEP20.sol\":8752:8820  require(owner != address(0), \"BEP20: approve from the zero address\") */\n    tag_358:\n      sub(shl(0xa0, 0x01), 0x01)\n        /* \"contracts/BEP20.sol\":8839:8860  spender != address(0) */\n      dup3\n      and\n        /* \"contracts/BEP20.sol\":8831:8899  require(spender != address(0), \"BEP20: approve to the zero address\") */\n      tag_361\n      jumpi\n      mload(0x40)\n      shl(0xe5, 0x461bcd)\n      dup2\n      mstore\n        /* \"#utility.yul\":11918:11920   */\n      0x20\n        /* \"contracts/BEP20.sol\":8831:8899  require(spender != address(0), \"BEP20: approve to the zero address\") */\n      0x04\n      dup3\n      add\n        /* \"#utility.yul\":11900:11921   */\n      mstore\n        /* \"#utility.yul\":11957:11959   */\n      0x22\n        /* \"#utility.yul\":11937:11955   */\n      0x24\n      dup3\n      add\n        /* \"#utility.yul\":11930:11960   */\n      mstore\n        /* \"#utility.yul\":11996:12030   */\n      0x42455032303a20617070726f766520746f20746865207a65726f206164647265\n        /* \"#utility.yul\":11976:11994   */\n      0x44\n      dup3\n      add\n        /* \"#utility.yul\":11969:12031   */\n      mstore\n      shl(0xf0, 0x7373)\n        /* \"#utility.yul\":12047:12065   */\n      0x64\n      dup3\n      add\n        /* \"#utility.yul\":12040:12072   */\n      mstore\n        /* \"#utility.yul\":12089:12108   */\n      0x84\n      add\n        /* \"contracts/BEP20.sol\":8831:8899  require(spender != address(0), \"BEP20: approve to the zero address\") */\n      tag_191\n        /* \"#utility.yul\":11716:12114   */\n      jump\n        /* \"contracts/BEP20.sol\":8831:8899  require(spender != address(0), \"BEP20: approve to the zero address\") */\n    tag_361:\n      sub(shl(0xa0, 0x01), 0x01)\n        /* \"contracts/BEP20.sol\":8912:8930  _allowances[owner] */\n      dup4\n      dup2\n      and\n      0x00\n      dup2\n      dup2\n      mstore\n        /* \"contracts/BEP20.sol\":8912:8923  _allowances */\n      0x02\n        /* \"contracts/BEP20.sol\":8912:8930  _allowances[owner] */\n      0x20\n      swap1\n      dup2\n      mstore\n      0x40\n      dup1\n      dup4\n      keccak256\n        /* \"contracts/BEP20.sol\":8912:8939  _allowances[owner][spender] */\n      swap5\n      dup8\n      and\n      dup1\n      dup5\n      mstore\n      swap5\n      dup3\n      mstore\n      swap2\n      dup3\n      swap1\n      keccak256\n        /* \"contracts/BEP20.sol\":8912:8948  _allowances[owner][spender] = amount */\n      dup6\n      swap1\n      sstore\n        /* \"contracts/BEP20.sol\":8964:8996  Approval(owner, spender, amount) */\n      swap1\n      mload\n        /* \"#utility.yul\":160:185   */\n      dup5\n      dup2\n      mstore\n        /* \"contracts/BEP20.sol\":8964:8996  Approval(owner, spender, amount) */\n      0x8c5be1e5ebec7d5bd14f71427d1e84f3dd0314c0f7b2291e5b200ac8c7c3b925\n      swap2\n        /* \"#utility.yul\":133:151   */\n      add\n        /* \"contracts/BEP20.sol\":8964:8996  Approval(owner, spender, amount) */\n    tag_364:\n      mload(0x40)\n      dup1\n      swap2\n      sub\n      swap1\n      log3\n        /* \"contracts/BEP20.sol\":8632:9004  function _approve(... */\n      pop\n      pop\n      pop\n      jump\t// out\n        /* \"contracts/structs/EnumerableSet.sol\":8095:8253  function remove(AddressSet storage set, address value) internal returns (bool) {... */\n    tag_198:\n        /* \"contracts/structs/EnumerableSet.sol\":8168:8172  bool */\n      0x00\n        /* \"contracts/structs/EnumerableSet.sol\":8192:8245  _remove(set._inner, bytes32(uint256(uint160(value)))) */\n      tag_314\n        /* \"contracts/structs/EnumerableSet.sol\":8200:8203  set */\n      dup4\n      sub(shl(0xa0, 0x01), 0x01)\n        /* \"contracts/structs/EnumerableSet.sol\":8220:8243  uint256(uint160(value)) */\n      dup5\n      and\n        /* \"contracts/structs/EnumerableSet.sol\":8192:8199  _remove */\n      tag_367\n        /* \"contracts/structs/EnumerableSet.sol\":8192:8245  _remove(set._inner, bytes32(uint256(uint160(value)))) */\n      jump\t// in\n        /* \"contracts/BEP20.sol\":6344:6886  function _transfer(... */\n    tag_201:\n      sub(shl(0xa0, 0x01), 0x01)\n        /* \"contracts/BEP20.sol\":6476:6496  sender != address(0) */\n      dup4\n      and\n        /* \"contracts/BEP20.sol\":6468:6538  require(sender != address(0), \"BEP20: transfer from the zero address\") */\n      tag_369\n      jumpi\n      mload(0x40)\n      shl(0xe5, 0x461bcd)\n      dup2\n      mstore\n        /* \"#utility.yul\":12321:12323   */\n      0x20\n        /* \"contracts/BEP20.sol\":6468:6538  require(sender != address(0), \"BEP20: transfer from the zero address\") */\n      0x04\n      dup3\n      add\n        /* \"#utility.yul\":12303:12324   */\n      mstore\n        /* \"#utility.yul\":12360:12362   */\n      0x25\n        /* \"#utility.yul\":12340:12358   */\n      0x24\n      dup3\n      add\n        /* \"#utility.yul\":12333:12363   */\n      mstore\n        /* \"#utility.yul\":12399:12433   */\n      0x42455032303a207472616e736665722066726f6d20746865207a65726f206164\n        /* \"#utility.yul\":12379:12397   */\n      0x44\n      dup3\n      add\n        /* \"#utility.yul\":12372:12434   */\n      mstore\n      shl(0xd8, 0x6472657373)\n        /* \"#utility.yul\":12450:12468   */\n      0x64\n      dup3\n      add\n        /* \"#utility.yul\":12443:12478   */\n      mstore\n        /* \"#utility.yul\":12495:12514   */\n      0x84\n      add\n        /* \"contracts/BEP20.sol\":6468:6538  require(sender != address(0), \"BEP20: transfer from the zero address\") */\n      tag_191\n        /* \"#utility.yul\":12119:12520   */\n      jump\n        /* \"contracts/BEP20.sol\":6468:6538  require(sender != address(0), \"BEP20: transfer from the zero address\") */\n    tag_369:\n      sub(shl(0xa0, 0x01), 0x01)\n        /* \"contracts/BEP20.sol\":6557:6580  recipient != address(0) */\n      dup3\n      and\n        /* \"contracts/BEP20.sol\":6549:6620  require(recipient != address(0), \"BEP20: transfer to the zero address\") */\n      tag_372\n      jumpi\n      mload(0x40)\n      shl(0xe5, 0x461bcd)\n      dup2\n      mstore\n        /* \"#utility.yul\":12727:12729   */\n      0x20\n        /* \"contracts/BEP20.sol\":6549:6620  require(recipient != address(0), \"BEP20: transfer to the zero address\") */\n      0x04\n      dup3\n      add\n        /* \"#utility.yul\":12709:12730   */\n      mstore\n        /* \"#utility.yul\":12766:12768   */\n      0x23\n        /* \"#utility.yul\":12746:12764   */\n      0x24\n      dup3\n      add\n        /* \"#utility.yul\":12739:12769   */\n      mstore\n        /* \"#utility.yul\":12805:12839   */\n      0x42455032303a207472616e7366657220746f20746865207a65726f2061646472\n        /* \"#utility.yul\":12785:12803   */\n      0x44\n      dup3\n      add\n        /* \"#utility.yul\":12778:12840   */\n      mstore\n      shl(0xe8, 0x657373)\n        /* \"#utility.yul\":12856:12874   */\n      0x64\n      dup3\n      add\n        /* \"#utility.yul\":12849:12882   */\n      mstore\n        /* \"#utility.yul\":12899:12918   */\n      0x84\n      add\n        /* \"contracts/BEP20.sol\":6549:6620  require(recipient != address(0), \"BEP20: transfer to the zero address\") */\n      tag_191\n        /* \"#utility.yul\":12525:12924   */\n      jump\n        /* \"contracts/BEP20.sol\":6549:6620  require(recipient != address(0), \"BEP20: transfer to the zero address\") */\n    tag_372:\n        /* \"contracts/BEP20.sol\":6653:6761  _balances[sender].sub(... */\n      tag_375\n        /* \"contracts/BEP20.sol\":6689:6695  amount */\n      dup2\n        /* \"contracts/BEP20.sol\":6653:6761  _balances[sender].sub(... */\n      mload(0x40)\n      dup1\n      0x60\n      add\n      0x40\n      mstore\n      dup1\n      0x26\n      dup2\n      mstore\n      0x20\n      add\n      data_a91efd7a65ef5b4ae4d6568d674798b78a5a89184dd296c100513251c22d3e73\n      0x26\n      swap2\n      codecopy\n      sub(shl(0xa0, 0x01), 0x01)\n        /* \"contracts/BEP20.sol\":6653:6670  _balances[sender] */\n      dup7\n      and\n      0x00\n      swap1\n      dup2\n      mstore\n        /* \"contracts/BEP20.sol\":6653:6662  _balances */\n      0x01\n        /* \"contracts/BEP20.sol\":6653:6670  _balances[sender] */\n      0x20\n      mstore\n      0x40\n      swap1\n      keccak256\n      sload\n      swap2\n        /* \"contracts/BEP20.sol\":6653:6761  _balances[sender].sub(... */\n      swap1\n        /* \"contracts/BEP20.sol\":6653:6674  _balances[sender].sub */\n      tag_206\n        /* \"contracts/BEP20.sol\":6653:6761  _balances[sender].sub(... */\n      jump\t// in\n    tag_375:\n      sub(shl(0xa0, 0x01), 0x01)\n        /* \"contracts/BEP20.sol\":6633:6650  _balances[sender] */\n      dup1\n      dup6\n      and\n      0x00\n      swap1\n      dup2\n      mstore\n        /* \"contracts/BEP20.sol\":6633:6642  _balances */\n      0x01\n        /* \"contracts/BEP20.sol\":6633:6650  _balances[sender] */\n      0x20\n      mstore\n      0x40\n      dup1\n      dup3\n      keccak256\n        /* \"contracts/BEP20.sol\":6633:6761  _balances[sender] = _balances[sender].sub(... */\n      swap4\n      swap1\n      swap4\n      sstore\n        /* \"contracts/BEP20.sol\":6795:6815  _balances[recipient] */\n      swap1\n      dup5\n      and\n      dup2\n      mstore\n      keccak256\n      sload\n        /* \"contracts/BEP20.sol\":6795:6827  _balances[recipient].add(amount) */\n      tag_376\n      swap1\n        /* \"contracts/BEP20.sol\":6820:6826  amount */\n      dup3\n        /* \"contracts/BEP20.sol\":6795:6819  _balances[recipient].add */\n      tag_213\n        /* \"contracts/BEP20.sol\":6795:6827  _balances[recipient].add(amount) */\n      jump\t// in\n    tag_376:\n      sub(shl(0xa0, 0x01), 0x01)\n        /* \"contracts/BEP20.sol\":6772:6792  _balances[recipient] */\n      dup1\n      dup5\n      and\n      0x00\n      dup2\n      dup2\n      mstore\n        /* \"contracts/BEP20.sol\":6772:6781  _balances */\n      0x01\n        /* \"contracts/BEP20.sol\":6772:6792  _balances[recipient] */\n      0x20\n      mstore\n      0x40\n      swap1\n      dup2\n      swap1\n      keccak256\n        /* \"contracts/BEP20.sol\":6772:6827  _balances[recipient] = _balances[recipient].add(amount) */\n      swap4\n      swap1\n      swap4\n      sstore\n        /* \"contracts/BEP20.sol\":6843:6878  Transfer(sender, recipient, amount) */\n      swap2\n      mload\n      swap1\n      dup6\n      and\n      swap1\n      0xddf252ad1be2c89b69c2b068fc378daa952ba7f163c4a11628f55a4df523b3ef\n      swap1\n      tag_364\n      swap1\n        /* \"contracts/BEP20.sol\":6871:6877  amount */\n      dup6\n        /* \"#utility.yul\":160:185   */\n      dup2\n      mstore\n        /* \"#utility.yul\":148:150   */\n      0x20\n        /* \"#utility.yul\":133:151   */\n      add\n      swap1\n        /* \"#utility.yul\":14:191   */\n      jump\n        /* \"contracts/libraries/SafeMath.sol\":5042:5282  function sub(... */\n    tag_206:\n        /* \"contracts/libraries/SafeMath.sol\":5162:5169  uint256 */\n      0x00\n        /* \"contracts/libraries/SafeMath.sol\":5223:5235  errorMessage */\n      dup2\n        /* \"contracts/libraries/SafeMath.sol\":5215:5221  b <= a */\n      dup5\n      dup5\n      gt\n      iszero\n        /* \"contracts/libraries/SafeMath.sol\":5207:5236  require(b <= a, errorMessage) */\n      tag_379\n      jumpi\n      mload(0x40)\n      shl(0xe5, 0x461bcd)\n      dup2\n      mstore\n      0x04\n      add\n      tag_191\n      swap2\n      swap1\n      tag_49\n      jump\t// in\n    tag_379:\n      pop\n      pop\n      pop\n        /* \"contracts/libraries/SafeMath.sol\":5258:5263  a - b */\n      swap1\n      sub\n      swap1\n        /* \"contracts/libraries/SafeMath.sol\":5042:5282  function sub(... */\n      jump\t// out\n        /* \"contracts/libraries/SafeMath.sol\":2763:2861  function add(uint256 a, uint256 b) internal pure returns (uint256) {... */\n    tag_213:\n        /* \"contracts/libraries/SafeMath.sol\":2821:2828  uint256 */\n      0x00\n        /* \"contracts/libraries/SafeMath.sol\":2848:2853  a + b */\n      tag_314\n        /* \"contracts/libraries/SafeMath.sol\":2852:2853  b */\n      dup3\n        /* \"contracts/libraries/SafeMath.sol\":2848:2849  a */\n      dup5\n        /* \"contracts/libraries/SafeMath.sol\":2848:2853  a + b */\n      tag_383\n      jump\t// in\n        /* \"contracts/BEP20.sol\":7167:7475  function _mint(address account, uint256 amount) internal {... */\n    tag_221:\n      sub(shl(0xa0, 0x01), 0x01)\n        /* \"contracts/BEP20.sol\":7243:7264  account != address(0) */\n      dup3\n      and\n        /* \"contracts/BEP20.sol\":7235:7300  require(account != address(0), \"BEP20: mint to the zero address\") */\n      tag_385\n      jumpi\n      mload(0x40)\n      shl(0xe5, 0x461bcd)\n      dup2\n      mstore\n        /* \"#utility.yul\":13264:13266   */\n      0x20\n        /* \"contracts/BEP20.sol\":7235:7300  require(account != address(0), \"BEP20: mint to the zero address\") */\n      0x04\n      dup3\n      add\n        /* \"#utility.yul\":13246:13267   */\n      mstore\n        /* \"#utility.yul\":13303:13305   */\n      0x1f\n        /* \"#utility.yul\":13283:13301   */\n      0x24\n      dup3\n      add\n        /* \"#utility.yul\":13276:13306   */\n      mstore\n        /* \"#utility.yul\":13342:13375   */\n      0x42455032303a206d696e7420746f20746865207a65726f206164647265737300\n        /* \"#utility.yul\":13322:13340   */\n      0x44\n      dup3\n      add\n        /* \"#utility.yul\":13315:13376   */\n      mstore\n        /* \"#utility.yul\":13393:13411   */\n      0x64\n      add\n        /* \"contracts/BEP20.sol\":7235:7300  require(account != address(0), \"BEP20: mint to the zero address\") */\n      tag_191\n        /* \"#utility.yul\":13062:13417   */\n      jump\n        /* \"contracts/BEP20.sol\":7235:7300  require(account != address(0), \"BEP20: mint to the zero address\") */\n    tag_385:\n        /* \"contracts/BEP20.sol\":7328:7340  _totalSupply */\n      sload(0x03)\n        /* \"contracts/BEP20.sol\":7328:7352  _totalSupply.add(amount) */\n      tag_388\n      swap1\n        /* \"contracts/BEP20.sol\":7345:7351  amount */\n      dup3\n        /* \"contracts/BEP20.sol\":7328:7344  _totalSupply.add */\n      tag_213\n        /* \"contracts/BEP20.sol\":7328:7352  _totalSupply.add(amount) */\n      jump\t// in\n    tag_388:\n        /* \"contracts/BEP20.sol\":7313:7325  _totalSupply */\n      0x03\n        /* \"contracts/BEP20.sol\":7313:7352  _totalSupply = _totalSupply.add(amount) */\n      sstore\n      sub(shl(0xa0, 0x01), 0x01)\n        /* \"contracts/BEP20.sol\":7384:7402  _balances[account] */\n      dup3\n      and\n      0x00\n      swap1\n      dup2\n      mstore\n        /* \"contracts/BEP20.sol\":7384:7393  _balances */\n      0x01\n        /* \"contracts/BEP20.sol\":7384:7402  _balances[account] */\n      0x20\n      mstore\n      0x40\n      swap1\n      keccak256\n      sload\n        /* \"contracts/BEP20.sol\":7384:7414  _balances[account].add(amount) */\n      tag_389\n      swap1\n        /* \"contracts/BEP20.sol\":7407:7413  amount */\n      dup3\n        /* \"contracts/BEP20.sol\":7384:7406  _balances[account].add */\n      tag_213\n        /* \"contracts/BEP20.sol\":7384:7414  _balances[account].add(amount) */\n      jump\t// in\n    tag_389:\n      sub(shl(0xa0, 0x01), 0x01)\n        /* \"contracts/BEP20.sol\":7363:7381  _balances[account] */\n      dup4\n      and\n      0x00\n      dup2\n      dup2\n      mstore\n        /* \"contracts/BEP20.sol\":7363:7372  _balances */\n      0x01\n        /* \"contracts/BEP20.sol\":7363:7381  _balances[account] */\n      0x20\n      mstore\n      0x40\n      dup1\n      dup3\n      keccak256\n        /* \"contracts/BEP20.sol\":7363:7414  _balances[account] = _balances[account].add(amount) */\n      swap4\n      swap1\n      swap4\n      sstore\n        /* \"contracts/BEP20.sol\":7430:7467  Transfer(address(0), account, amount) */\n      swap2\n      mload\n        /* \"contracts/BEP20.sol\":7363:7381  _balances[account] */\n      swap1\n      swap2\n      swap1\n        /* \"contracts/BEP20.sol\":7430:7467  Transfer(address(0), account, amount) */\n      0xddf252ad1be2c89b69c2b068fc378daa952ba7f163c4a11628f55a4df523b3ef\n      swap1\n      tag_390\n      swap1\n        /* \"contracts/BEP20.sol\":7460:7466  amount */\n      dup6\n        /* \"#utility.yul\":160:185   */\n      dup2\n      mstore\n        /* \"#utility.yul\":148:150   */\n      0x20\n        /* \"#utility.yul\":133:151   */\n      add\n      swap1\n        /* \"#utility.yul\":14:191   */\n      jump\n        /* \"contracts/BEP20.sol\":7430:7467  Transfer(address(0), account, amount) */\n    tag_390:\n      mload(0x40)\n      dup1\n      swap2\n      sub\n      swap1\n      log3\n        /* \"contracts/BEP20.sol\":7167:7475  function _mint(address account, uint256 amount) internal {... */\n      pop\n      pop\n      jump\t// out\n        /* \"contracts/LandbaseToken.sol\":6974:8039  function _moveDelegates(... */\n    tag_223:\n        /* \"contracts/LandbaseToken.sol\":7114:7120  dstRep */\n      dup2\n      sub(shl(0xa0, 0x01), 0x01)\n        /* \"contracts/LandbaseToken.sol\":7104:7120  srcRep != dstRep */\n      and\n        /* \"contracts/LandbaseToken.sol\":7104:7110  srcRep */\n      dup4\n      sub(shl(0xa0, 0x01), 0x01)\n        /* \"contracts/LandbaseToken.sol\":7104:7120  srcRep != dstRep */\n      and\n      eq\n      iszero\n        /* \"contracts/LandbaseToken.sol\":7104:7134  srcRep != dstRep && amount > 0 */\n      dup1\n      iszero\n      tag_392\n      jumpi\n      pop\n        /* \"contracts/LandbaseToken.sol\":7133:7134  0 */\n      0x00\n        /* \"contracts/LandbaseToken.sol\":7124:7130  amount */\n      dup2\n        /* \"contracts/LandbaseToken.sol\":7124:7134  amount > 0 */\n      gt\n        /* \"contracts/LandbaseToken.sol\":7104:7134  srcRep != dstRep && amount > 0 */\n    tag_392:\n        /* \"contracts/LandbaseToken.sol\":7100:8032  if (srcRep != dstRep && amount > 0) {... */\n      iszero\n      tag_402\n      jumpi\n      sub(shl(0xa0, 0x01), 0x01)\n        /* \"contracts/LandbaseToken.sol\":7155:7175  srcRep != address(0) */\n      dup4\n      and\n      iszero\n        /* \"contracts/LandbaseToken.sol\":7151:7578  if (srcRep != address(0)) {... */\n      tag_394\n      jumpi\n      sub(shl(0xa0, 0x01), 0x01)\n        /* \"contracts/LandbaseToken.sol\":7263:7285  numCheckpoints[srcRep] */\n      dup4\n      and\n        /* \"contracts/LandbaseToken.sol\":7244:7260  uint32 srcRepNum */\n      0x00\n        /* \"contracts/LandbaseToken.sol\":7263:7285  numCheckpoints[srcRep] */\n      swap1\n      dup2\n      mstore\n        /* \"contracts/LandbaseToken.sol\":7263:7277  numCheckpoints */\n      0x0b\n        /* \"contracts/LandbaseToken.sol\":7263:7285  numCheckpoints[srcRep] */\n      0x20\n      mstore\n      0x40\n      dup2\n      keccak256\n      sload\n      0xffffffff\n      and\n      swap1\n        /* \"contracts/LandbaseToken.sol\":7324:7337  srcRepNum > 0 */\n      dup2\n        /* \"contracts/LandbaseToken.sol\":7324:7426  srcRepNum > 0... */\n      tag_395\n      jumpi\n        /* \"contracts/LandbaseToken.sol\":7425:7426  0 */\n      0x00\n        /* \"contracts/LandbaseToken.sol\":7324:7426  srcRepNum > 0... */\n      jump(tag_396)\n    tag_395:\n      sub(shl(0xa0, 0x01), 0x01)\n        /* \"contracts/LandbaseToken.sol\":7361:7380  checkpoints[srcRep] */\n      dup6\n      and\n      0x00\n      swap1\n      dup2\n      mstore\n        /* \"contracts/LandbaseToken.sol\":7361:7372  checkpoints */\n      0x0a\n        /* \"contracts/LandbaseToken.sol\":7361:7380  checkpoints[srcRep] */\n      0x20\n      mstore\n      0x40\n      dup2\n      keccak256\n      swap1\n        /* \"contracts/LandbaseToken.sol\":7381:7394  srcRepNum - 1 */\n      tag_397\n        /* \"contracts/LandbaseToken.sol\":7393:7394  1 */\n      0x01\n        /* \"contracts/LandbaseToken.sol\":7381:7390  srcRepNum */\n      dup6\n        /* \"contracts/LandbaseToken.sol\":7381:7394  srcRepNum - 1 */\n      tag_257\n      jump\t// in\n    tag_397:\n        /* \"contracts/LandbaseToken.sol\":7361:7395  checkpoints[srcRep][srcRepNum - 1] */\n      0xffffffff\n      and\n      0xffffffff\n      and\n      dup2\n      mstore\n      0x20\n      add\n      swap1\n      dup2\n      mstore\n      0x20\n      add\n      0x00\n      keccak256\n        /* \"contracts/LandbaseToken.sol\":7361:7401  checkpoints[srcRep][srcRepNum - 1].votes */\n      0x01\n      add\n      sload\n        /* \"contracts/LandbaseToken.sol\":7324:7426  srcRepNum > 0... */\n    tag_396:\n        /* \"contracts/LandbaseToken.sol\":7304:7426  uint256 srcRepOld = srcRepNum > 0... */\n      swap1\n      pop\n        /* \"contracts/LandbaseToken.sol\":7445:7462  uint256 srcRepNew */\n      0x00\n        /* \"contracts/LandbaseToken.sol\":7465:7486  srcRepOld.sub(amount) */\n      tag_398\n        /* \"contracts/LandbaseToken.sol\":7304:7426  uint256 srcRepOld = srcRepNum > 0... */\n      dup3\n        /* \"contracts/LandbaseToken.sol\":7479:7485  amount */\n      dup6\n        /* \"contracts/LandbaseToken.sol\":7465:7478  srcRepOld.sub */\n      tag_399\n        /* \"contracts/LandbaseToken.sol\":7465:7486  srcRepOld.sub(amount) */\n      jump\t// in\n    tag_398:\n        /* \"contracts/LandbaseToken.sol\":7445:7486  uint256 srcRepNew = srcRepOld.sub(amount) */\n      swap1\n      pop\n        /* \"contracts/LandbaseToken.sol\":7505:7562  _writeCheckpoint(srcRep, srcRepNum, srcRepOld, srcRepNew) */\n      tag_400\n        /* \"contracts/LandbaseToken.sol\":7522:7528  srcRep */\n      dup7\n        /* \"contracts/LandbaseToken.sol\":7530:7539  srcRepNum */\n      dup5\n        /* \"contracts/LandbaseToken.sol\":7541:7550  srcRepOld */\n      dup5\n        /* \"contracts/LandbaseToken.sol\":7552:7561  srcRepNew */\n      dup5\n        /* \"contracts/LandbaseToken.sol\":7505:7521  _writeCheckpoint */\n      tag_401\n        /* \"contracts/LandbaseToken.sol\":7505:7562  _writeCheckpoint(srcRep, srcRepNum, srcRepOld, srcRepNew) */\n      jump\t// in\n    tag_400:\n        /* \"contracts/LandbaseToken.sol\":7177:7578  {... */\n      pop\n      pop\n      pop\n        /* \"contracts/LandbaseToken.sol\":7151:7578  if (srcRep != address(0)) {... */\n    tag_394:\n      sub(shl(0xa0, 0x01), 0x01)\n        /* \"contracts/LandbaseToken.sol\":7598:7618  dstRep != address(0) */\n      dup3\n      and\n      iszero\n        /* \"contracts/LandbaseToken.sol\":7594:8021  if (dstRep != address(0)) {... */\n      tag_402\n      jumpi\n      sub(shl(0xa0, 0x01), 0x01)\n        /* \"contracts/LandbaseToken.sol\":7706:7728  numCheckpoints[dstRep] */\n      dup3\n      and\n        /* \"contracts/LandbaseToken.sol\":7687:7703  uint32 dstRepNum */\n      0x00\n        /* \"contracts/LandbaseToken.sol\":7706:7728  numCheckpoints[dstRep] */\n      swap1\n      dup2\n      mstore\n        /* \"contracts/LandbaseToken.sol\":7706:7720  numCheckpoints */\n      0x0b\n        /* \"contracts/LandbaseToken.sol\":7706:7728  numCheckpoints[dstRep] */\n      0x20\n      mstore\n      0x40\n      dup2\n      keccak256\n      sload\n      0xffffffff\n      and\n      swap1\n        /* \"contracts/LandbaseToken.sol\":7767:7780  dstRepNum > 0 */\n      dup2\n        /* \"contracts/LandbaseToken.sol\":7767:7869  dstRepNum > 0... */\n      tag_403\n      jumpi\n        /* \"contracts/LandbaseToken.sol\":7868:7869  0 */\n      0x00\n        /* \"contracts/LandbaseToken.sol\":7767:7869  dstRepNum > 0... */\n      jump(tag_404)\n    tag_403:\n      sub(shl(0xa0, 0x01), 0x01)\n        /* \"contracts/LandbaseToken.sol\":7804:7823  checkpoints[dstRep] */\n      dup5\n      and\n      0x00\n      swap1\n      dup2\n      mstore\n        /* \"contracts/LandbaseToken.sol\":7804:7815  checkpoints */\n      0x0a\n        /* \"contracts/LandbaseToken.sol\":7804:7823  checkpoints[dstRep] */\n      0x20\n      mstore\n      0x40\n      dup2\n      keccak256\n      swap1\n        /* \"contracts/LandbaseToken.sol\":7824:7837  dstRepNum - 1 */\n      tag_405\n        /* \"contracts/LandbaseToken.sol\":7836:7837  1 */\n      0x01\n        /* \"contracts/LandbaseToken.sol\":7824:7833  dstRepNum */\n      dup6\n        /* \"contracts/LandbaseToken.sol\":7824:7837  dstRepNum - 1 */\n      tag_257\n      jump\t// in\n    tag_405:\n        /* \"contracts/LandbaseToken.sol\":7804:7838  checkpoints[dstRep][dstRepNum - 1] */\n      0xffffffff\n      and\n      0xffffffff\n      and\n      dup2\n      mstore\n      0x20\n      add\n      swap1\n      dup2\n      mstore\n      0x20\n      add\n      0x00\n      keccak256\n        /* \"contracts/LandbaseToken.sol\":7804:7844  checkpoints[dstRep][dstRepNum - 1].votes */\n      0x01\n      add\n      sload\n        /* \"contracts/LandbaseToken.sol\":7767:7869  dstRepNum > 0... */\n    tag_404:\n        /* \"contracts/LandbaseToken.sol\":7747:7869  uint256 dstRepOld = dstRepNum > 0... */\n      swap1\n      pop\n        /* \"contracts/LandbaseToken.sol\":7888:7905  uint256 dstRepNew */\n      0x00\n        /* \"contracts/LandbaseToken.sol\":7908:7929  dstRepOld.add(amount) */\n      tag_406\n        /* \"contracts/LandbaseToken.sol\":7747:7869  uint256 dstRepOld = dstRepNum > 0... */\n      dup3\n        /* \"contracts/LandbaseToken.sol\":7922:7928  amount */\n      dup6\n        /* \"contracts/LandbaseToken.sol\":7908:7921  dstRepOld.add */\n      tag_213\n        /* \"contracts/LandbaseToken.sol\":7908:7929  dstRepOld.add(amount) */\n      jump\t// in\n    tag_406:\n        /* \"contracts/LandbaseToken.sol\":7888:7929  uint256 dstRepNew = dstRepOld.add(amount) */\n      swap1\n      pop\n        /* \"contracts/LandbaseToken.sol\":7948:8005  _writeCheckpoint(dstRep, dstRepNum, dstRepOld, dstRepNew) */\n      tag_316\n        /* \"contracts/LandbaseToken.sol\":7965:7971  dstRep */\n      dup6\n        /* \"contracts/LandbaseToken.sol\":7973:7982  dstRepNum */\n      dup5\n        /* \"contracts/LandbaseToken.sol\":7984:7993  dstRepOld */\n      dup5\n        /* \"contracts/LandbaseToken.sol\":7995:8004  dstRepNew */\n      dup5\n        /* \"contracts/LandbaseToken.sol\":7948:7964  _writeCheckpoint */\n      tag_401\n        /* \"contracts/LandbaseToken.sol\":7948:8005  _writeCheckpoint(dstRep, dstRepNum, dstRepOld, dstRepNew) */\n      jump\t// in\n        /* \"contracts/LandbaseToken.sol\":7594:8021  if (dstRep != address(0)) {... */\n    tag_402:\n        /* \"contracts/LandbaseToken.sol\":6974:8039  function _moveDelegates(... */\n      pop\n      pop\n      pop\n      jump\t// out\n        /* \"contracts/structs/EnumerableSet.sol\":9063:9221  function at(AddressSet storage set, uint256 index) internal view returns (address) {... */\n    tag_238:\n        /* \"contracts/structs/EnumerableSet.sol\":9137:9144  address */\n      0x00\n        /* \"contracts/structs/EnumerableSet.sol\":9188:9210  _at(set._inner, index) */\n      tag_314\n        /* \"contracts/structs/EnumerableSet.sol\":9192:9195  set */\n      dup4\n        /* \"contracts/structs/EnumerableSet.sol\":9204:9209  index */\n      dup4\n        /* \"contracts/structs/EnumerableSet.sol\":9188:9191  _at */\n      tag_410\n        /* \"contracts/structs/EnumerableSet.sol\":9188:9210  _at(set._inner, index) */\n      jump\t// in\n        /* \"contracts/LandbaseToken.sol\":6540:6966  function _delegate(address delegator, address delegatee) internal {... */\n    tag_241:\n      sub(shl(0xa0, 0x01), 0x01)\n        /* \"contracts/LandbaseToken.sol\":6643:6664  _delegates[delegator] */\n      dup3\n      dup2\n      and\n        /* \"contracts/LandbaseToken.sol\":6617:6640  address currentDelegate */\n      0x00\n        /* \"contracts/LandbaseToken.sol\":6643:6664  _delegates[delegator] */\n      dup2\n      dup2\n      mstore\n        /* \"contracts/LandbaseToken.sol\":6643:6653  _delegates */\n      0x09\n        /* \"contracts/LandbaseToken.sol\":6643:6664  _delegates[delegator] */\n      0x20\n      dup2\n      dup2\n      mstore\n      0x40\n      dup1\n      dup5\n      keccak256\n      dup1\n      sload\n        /* \"contracts/BEP20.sol\":1991:2000  _balances */\n      0x01\n        /* \"contracts/BEP20.sol\":1991:2009  _balances[account] */\n      dup5\n      mstore\n      dup3\n      dup7\n      keccak256\n      sload\n        /* \"contracts/LandbaseToken.sol\":6780:6801  _delegates[delegator] */\n      swap5\n      swap1\n      swap4\n      mstore\n        /* \"contracts/LandbaseToken.sol\":6780:6813  _delegates[delegator] = delegatee */\n      dup8\n      dup8\n      and\n      not(sub(shl(0xa0, 0x01), 0x01))\n      dup5\n      and\n      dup2\n      or\n      swap1\n      swap2\n      sstore\n        /* \"contracts/LandbaseToken.sol\":6831:6885  DelegateChanged(delegator, currentDelegate, delegatee) */\n      swap1\n      mload\n        /* \"contracts/LandbaseToken.sol\":6643:6664  _delegates[delegator] */\n      swap2\n      swap1\n      swap6\n      and\n      swap5\n        /* \"contracts/BEP20.sol\":1991:2009  _balances[account] */\n      swap2\n      swap4\n        /* \"contracts/LandbaseToken.sol\":6780:6813  _delegates[delegator] = delegatee */\n      swap2\n      swap3\n        /* \"contracts/LandbaseToken.sol\":6643:6664  _delegates[delegator] */\n      dup6\n      swap3\n      swap2\n        /* \"contracts/LandbaseToken.sol\":6831:6885  DelegateChanged(delegator, currentDelegate, delegatee) */\n      0x3134e8a2e6d97e929a7e54011ea5485d7d196dd5f0ba4d4ef95803e8e3fc257f\n      swap2\n        /* \"contracts/LandbaseToken.sol\":6617:6640  address currentDelegate */\n      swap1\n        /* \"contracts/LandbaseToken.sol\":6831:6885  DelegateChanged(delegator, currentDelegate, delegatee) */\n      log4\n        /* \"contracts/LandbaseToken.sol\":6898:6958  _moveDelegates(currentDelegate, delegatee, delegatorBalance) */\n      tag_413\n        /* \"contracts/LandbaseToken.sol\":6913:6928  currentDelegate */\n      dup3\n        /* \"contracts/LandbaseToken.sol\":6930:6939  delegatee */\n      dup5\n        /* \"contracts/LandbaseToken.sol\":6941:6957  delegatorBalance */\n      dup4\n        /* \"contracts/LandbaseToken.sol\":6898:6912  _moveDelegates */\n      tag_223\n        /* \"contracts/LandbaseToken.sol\":6898:6958  _moveDelegates(currentDelegate, delegatee, delegatorBalance) */\n      jump\t// in\n    tag_413:\n        /* \"contracts/LandbaseToken.sol\":6606:6966  {... */\n      pop\n      pop\n        /* \"contracts/LandbaseToken.sol\":6540:6966  function _delegate(address delegator, address delegatee) internal {... */\n      pop\n      pop\n      jump\t// out\n        /* \"contracts/access/Ownable.sol\":2106:2279  function _setOwner(address newOwner) private {... */\n    tag_250:\n        /* \"contracts/access/Ownable.sol\":2162:2178  address oldOwner */\n      0x00\n        /* \"contracts/access/Ownable.sol\":2181:2187  _owner */\n      dup1\n      sload\n      sub(shl(0xa0, 0x01), 0x01)\n        /* \"contracts/access/Ownable.sol\":2198:2215  _owner = newOwner */\n      dup4\n      dup2\n      and\n      not(sub(shl(0xa0, 0x01), 0x01))\n      dup4\n      and\n      dup2\n      or\n      dup5\n      sstore\n        /* \"contracts/access/Ownable.sol\":2231:2271  OwnershipTransferred(oldOwner, newOwner) */\n      mload(0x40)\n        /* \"contracts/access/Ownable.sol\":2181:2187  _owner */\n      swap2\n      swap1\n      swap3\n      and\n      swap3\n      dup4\n      swap2\n        /* \"contracts/access/Ownable.sol\":2231:2271  OwnershipTransferred(oldOwner, newOwner) */\n      0x8be0079c531659141344cd1fd0a4f28419497f9722a3daafe3b4186f6b6457e0\n      swap2\n        /* \"contracts/access/Ownable.sol\":2162:2178  address oldOwner */\n      swap1\n        /* \"contracts/access/Ownable.sol\":2231:2271  OwnershipTransferred(oldOwner, newOwner) */\n      log3\n        /* \"contracts/access/Ownable.sol\":2151:2279  {... */\n      pop\n        /* \"contracts/access/Ownable.sol\":2106:2279  function _setOwner(address newOwner) private {... */\n      pop\n      jump\t// out\n        /* \"contracts/structs/EnumerableSet.sol\":7767:7919  function add(AddressSet storage set, address value) internal returns (bool) {... */\n    tag_292:\n        /* \"contracts/structs/EnumerableSet.sol\":7837:7841  bool */\n      0x00\n        /* \"contracts/structs/EnumerableSet.sol\":7861:7911  _add(set._inner, bytes32(uint256(uint160(value)))) */\n      tag_314\n        /* \"contracts/structs/EnumerableSet.sol\":7866:7869  set */\n      dup4\n      sub(shl(0xa0, 0x01), 0x01)\n        /* \"contracts/structs/EnumerableSet.sol\":7886:7909  uint256(uint160(value)) */\n      dup5\n      and\n        /* \"contracts/structs/EnumerableSet.sol\":7861:7865  _add */\n      tag_417\n        /* \"contracts/structs/EnumerableSet.sol\":7861:7911  _add(set._inner, bytes32(uint256(uint160(value)))) */\n      jump\t// in\n        /* \"contracts/structs/EnumerableSet.sol\":8339:8506  function contains(AddressSet storage set, address value) internal view returns (bool) {... */\n    tag_311:\n      sub(shl(0xa0, 0x01), 0x01)\n        /* \"contracts/structs/EnumerableSet.sol\":8473:8496  uint256(uint160(value)) */\n      dup2\n      and\n        /* \"contracts/structs/EnumerableSet.sol\":8419:8423  bool */\n      0x00\n        /* \"contracts/structs/EnumerableSet.sol\":3875:3894  set._indexes[value] */\n      swap1\n      dup2\n      mstore\n        /* \"contracts/structs/EnumerableSet.sol\":3875:3887  set._indexes */\n      0x01\n      dup4\n      add\n        /* \"contracts/structs/EnumerableSet.sol\":3875:3894  set._indexes[value] */\n      0x20\n      mstore\n      0x40\n      dup2\n      keccak256\n      sload\n        /* \"contracts/structs/EnumerableSet.sol\":3875:3899  set._indexes[value] != 0 */\n      iszero\n      iszero\n        /* \"contracts/structs/EnumerableSet.sol\":8443:8498  _contains(set._inner, bytes32(uint256(uint160(value)))) */\n      tag_314\n        /* \"contracts/structs/EnumerableSet.sol\":3778:3907  function _contains(Set storage set, bytes32 value) private view returns (bool) {... */\n      jump\n        /* \"contracts/structs/EnumerableSet.sol\":2272:3692  function _remove(Set storage set, bytes32 value) private returns (bool) {... */\n    tag_367:\n        /* \"contracts/structs/EnumerableSet.sol\":2338:2342  bool */\n      0x00\n        /* \"contracts/structs/EnumerableSet.sol\":2477:2496  set._indexes[value] */\n      dup2\n      dup2\n      mstore\n        /* \"contracts/structs/EnumerableSet.sol\":2477:2489  set._indexes */\n      0x01\n      dup4\n      add\n        /* \"contracts/structs/EnumerableSet.sol\":2477:2496  set._indexes[value] */\n      0x20\n      mstore\n      0x40\n      dup2\n      keccak256\n      sload\n        /* \"contracts/structs/EnumerableSet.sol\":2513:2528  valueIndex != 0 */\n      dup1\n      iszero\n        /* \"contracts/structs/EnumerableSet.sol\":2509:3685  if (valueIndex != 0) {... */\n      tag_424\n      jumpi\n        /* \"contracts/structs/EnumerableSet.sol\":2888:2909  uint256 toDeleteIndex */\n      0x00\n        /* \"contracts/structs/EnumerableSet.sol\":2912:2926  valueIndex - 1 */\n      tag_425\n        /* \"contracts/structs/EnumerableSet.sol\":2925:2926  1 */\n      0x01\n        /* \"contracts/structs/EnumerableSet.sol\":2912:2922  valueIndex */\n      dup4\n        /* \"contracts/structs/EnumerableSet.sol\":2912:2926  valueIndex - 1 */\n      tag_233\n      jump\t// in\n    tag_425:\n        /* \"contracts/structs/EnumerableSet.sol\":2961:2979  set._values.length */\n      dup6\n      sload\n        /* \"contracts/structs/EnumerableSet.sol\":2888:2926  uint256 toDeleteIndex = valueIndex - 1 */\n      swap1\n      swap2\n      pop\n        /* \"contracts/structs/EnumerableSet.sol\":2941:2958  uint256 lastIndex */\n      0x00\n      swap1\n        /* \"contracts/structs/EnumerableSet.sol\":2961:2983  set._values.length - 1 */\n      tag_426\n      swap1\n        /* \"contracts/structs/EnumerableSet.sol\":2982:2983  1 */\n      0x01\n      swap1\n        /* \"contracts/structs/EnumerableSet.sol\":2961:2983  set._values.length - 1 */\n      tag_233\n      jump\t// in\n    tag_426:\n        /* \"contracts/structs/EnumerableSet.sol\":2941:2983  uint256 lastIndex = set._values.length - 1 */\n      swap1\n      pop\n        /* \"contracts/structs/EnumerableSet.sol\":3017:3030  toDeleteIndex */\n      dup2\n        /* \"contracts/structs/EnumerableSet.sol\":3004:3013  lastIndex */\n      dup2\n        /* \"contracts/structs/EnumerableSet.sol\":3004:3030  lastIndex != toDeleteIndex */\n      eq\n        /* \"contracts/structs/EnumerableSet.sol\":3000:3405  if (lastIndex != toDeleteIndex) {... */\n      tag_427\n      jumpi\n        /* \"contracts/structs/EnumerableSet.sol\":3051:3068  bytes32 lastvalue */\n      0x00\n        /* \"contracts/structs/EnumerableSet.sol\":3071:3074  set */\n      dup7\n        /* \"contracts/structs/EnumerableSet.sol\":3071:3082  set._values */\n      0x00\n      add\n        /* \"contracts/structs/EnumerableSet.sol\":3083:3092  lastIndex */\n      dup3\n        /* \"contracts/structs/EnumerableSet.sol\":3071:3093  set._values[lastIndex] */\n      dup2\n      sload\n      dup2\n      lt\n      tag_429\n      jumpi\n      tag_429\n      tag_430\n      jump\t// in\n    tag_429:\n      swap1\n      0x00\n      mstore\n      keccak256(0x00, 0x20)\n      add\n      sload\n        /* \"contracts/structs/EnumerableSet.sol\":3051:3093  bytes32 lastvalue = set._values[lastIndex] */\n      swap1\n      pop\n        /* \"contracts/structs/EnumerableSet.sol\":3225:3234  lastvalue */\n      dup1\n        /* \"contracts/structs/EnumerableSet.sol\":3196:3199  set */\n      dup8\n        /* \"contracts/structs/EnumerableSet.sol\":3196:3207  set._values */\n      0x00\n      add\n        /* \"contracts/structs/EnumerableSet.sol\":3208:3221  toDeleteIndex */\n      dup5\n        /* \"contracts/structs/EnumerableSet.sol\":3196:3222  set._values[toDeleteIndex] */\n      dup2\n      sload\n      dup2\n      lt\n      tag_433\n      jumpi\n      tag_433\n      tag_430\n      jump\t// in\n    tag_433:\n      0x00\n      swap2\n      dup3\n      mstore\n      0x20\n      dup1\n      dup4\n      keccak256\n      swap1\n      swap2\n      add\n        /* \"contracts/structs/EnumerableSet.sol\":3196:3234  set._values[toDeleteIndex] = lastvalue */\n      swap3\n      swap1\n      swap3\n      sstore\n        /* \"contracts/structs/EnumerableSet.sol\":3310:3333  set._indexes[lastvalue] */\n      swap2\n      dup3\n      mstore\n        /* \"contracts/structs/EnumerableSet.sol\":3310:3322  set._indexes */\n      0x01\n      dup9\n      add\n        /* \"contracts/structs/EnumerableSet.sol\":3310:3333  set._indexes[lastvalue] */\n      swap1\n      mstore\n      0x40\n      swap1\n      keccak256\n        /* \"contracts/structs/EnumerableSet.sol\":3310:3346  set._indexes[lastvalue] = valueIndex */\n      dup4\n      swap1\n      sstore\n        /* \"contracts/structs/EnumerableSet.sol\":3000:3405  if (lastIndex != toDeleteIndex) {... */\n    tag_427:\n        /* \"contracts/structs/EnumerableSet.sol\":3486:3503  set._values.pop() */\n      dup6\n      sload\n        /* \"contracts/structs/EnumerableSet.sol\":3486:3489  set */\n      dup7\n      swap1\n        /* \"contracts/structs/EnumerableSet.sol\":3486:3503  set._values.pop() */\n      dup1\n      tag_436\n      jumpi\n      tag_436\n      tag_437\n      jump\t// in\n    tag_436:\n      0x01\n      swap1\n      sub\n      dup2\n      dup2\n      swap1\n      0x00\n      mstore\n      keccak256(0x00, 0x20)\n      add\n      0x00\n      swap1\n      sstore\n      swap1\n      sstore\n        /* \"contracts/structs/EnumerableSet.sol\":3581:3584  set */\n      dup6\n        /* \"contracts/structs/EnumerableSet.sol\":3581:3593  set._indexes */\n      0x01\n      add\n        /* \"contracts/structs/EnumerableSet.sol\":3581:3600  set._indexes[value] */\n      0x00\n        /* \"contracts/structs/EnumerableSet.sol\":3594:3599  value */\n      dup7\n        /* \"contracts/structs/EnumerableSet.sol\":3581:3600  set._indexes[value] */\n      dup2\n      mstore\n      0x20\n      add\n      swap1\n      dup2\n      mstore\n      0x20\n      add\n      0x00\n      keccak256\n        /* \"contracts/structs/EnumerableSet.sol\":3574:3600  delete set._indexes[value] */\n      0x00\n      swap1\n      sstore\n        /* \"contracts/structs/EnumerableSet.sol\":3624:3628  true */\n      0x01\n        /* \"contracts/structs/EnumerableSet.sol\":3617:3628  return true */\n      swap4\n      pop\n      pop\n      pop\n      pop\n      jump(tag_181)\n        /* \"contracts/structs/EnumerableSet.sol\":2509:3685  if (valueIndex != 0) {... */\n    tag_424:\n        /* \"contracts/structs/EnumerableSet.sol\":3668:3673  false */\n      0x00\n        /* \"contracts/structs/EnumerableSet.sol\":3661:3673  return false */\n      swap2\n      pop\n      pop\n      jump(tag_181)\n        /* \"contracts/libraries/SafeMath.sol\":3144:3242  function sub(uint256 a, uint256 b) internal pure returns (uint256) {... */\n    tag_399:\n        /* \"contracts/libraries/SafeMath.sol\":3202:3209  uint256 */\n      0x00\n        /* \"contracts/libraries/SafeMath.sol\":3229:3234  a - b */\n      tag_314\n        /* \"contracts/libraries/SafeMath.sol\":3233:3234  b */\n      dup3\n        /* \"contracts/libraries/SafeMath.sol\":3229:3230  a */\n      dup5\n        /* \"contracts/libraries/SafeMath.sol\":3229:3234  a - b */\n      tag_233\n      jump\t// in\n        /* \"contracts/LandbaseToken.sol\":8047:8864  function _writeCheckpoint(... */\n    tag_401:\n        /* \"contracts/LandbaseToken.sol\":8212:8230  uint32 blockNumber */\n      0x00\n        /* \"contracts/LandbaseToken.sol\":8233:8350  safe32(... */\n      tag_443\n        /* \"contracts/LandbaseToken.sol\":8254:8266  block.number */\n      number\n        /* \"contracts/LandbaseToken.sol\":8233:8350  safe32(... */\n      mload(0x40)\n      dup1\n      0x60\n      add\n      0x40\n      mstore\n      dup1\n      0x38\n      dup2\n      mstore\n      0x20\n      add\n      data_19ee87d38a98c92b75a5c0cf6d80ba3454da2a59db748607c0a0f9f22ed20008\n      0x38\n      swap2\n      codecopy\n        /* \"contracts/LandbaseToken.sol\":8233:8239  safe32 */\n      tag_444\n        /* \"contracts/LandbaseToken.sol\":8233:8350  safe32(... */\n      jump\t// in\n    tag_443:\n        /* \"contracts/LandbaseToken.sol\":8212:8350  uint32 blockNumber = safe32(... */\n      swap1\n      pop\n        /* \"contracts/LandbaseToken.sol\":8396:8397  0 */\n      0x00\n        /* \"contracts/LandbaseToken.sol\":8381:8393  nCheckpoints */\n      dup5\n        /* \"contracts/LandbaseToken.sol\":8381:8397  nCheckpoints > 0 */\n      0xffffffff\n      and\n      gt\n        /* \"contracts/LandbaseToken.sol\":8381:8479  nCheckpoints > 0 &&... */\n      dup1\n      iszero\n      tag_445\n      jumpi\n      pop\n      sub(shl(0xa0, 0x01), 0x01)\n        /* \"contracts/LandbaseToken.sol\":8414:8436  checkpoints[delegatee] */\n      dup6\n      and\n      0x00\n      swap1\n      dup2\n      mstore\n        /* \"contracts/LandbaseToken.sol\":8414:8425  checkpoints */\n      0x0a\n        /* \"contracts/LandbaseToken.sol\":8414:8436  checkpoints[delegatee] */\n      0x20\n      mstore\n      0x40\n      dup2\n      keccak256\n        /* \"contracts/LandbaseToken.sol\":8414:8479  checkpoints[delegatee][nCheckpoints - 1].fromBlock == blockNumber */\n      0xffffffff\n      dup4\n      and\n      swap2\n        /* \"contracts/LandbaseToken.sol\":8437:8453  nCheckpoints - 1 */\n      tag_446\n        /* \"contracts/LandbaseToken.sol\":8452:8453  1 */\n      0x01\n        /* \"contracts/LandbaseToken.sol\":8437:8449  nCheckpoints */\n      dup9\n        /* \"contracts/LandbaseToken.sol\":8437:8453  nCheckpoints - 1 */\n      tag_257\n      jump\t// in\n    tag_446:\n        /* \"contracts/LandbaseToken.sol\":8414:8454  checkpoints[delegatee][nCheckpoints - 1] */\n      0xffffffff\n      swap1\n      dup2\n      and\n      dup3\n      mstore\n      0x20\n      dup3\n      add\n      swap3\n      swap1\n      swap3\n      mstore\n      0x40\n      add\n      0x00\n      keccak256\n        /* \"contracts/LandbaseToken.sol\":8414:8464  checkpoints[delegatee][nCheckpoints - 1].fromBlock */\n      sload\n      and\n        /* \"contracts/LandbaseToken.sol\":8414:8479  checkpoints[delegatee][nCheckpoints - 1].fromBlock == blockNumber */\n      eq\n        /* \"contracts/LandbaseToken.sol\":8381:8479  nCheckpoints > 0 &&... */\n    tag_445:\n        /* \"contracts/LandbaseToken.sol\":8363:8788  if (... */\n      iszero\n      tag_447\n      jumpi\n      sub(shl(0xa0, 0x01), 0x01)\n        /* \"contracts/LandbaseToken.sol\":8506:8528  checkpoints[delegatee] */\n      dup6\n      and\n      0x00\n      swap1\n      dup2\n      mstore\n        /* \"contracts/LandbaseToken.sol\":8506:8517  checkpoints */\n      0x0a\n        /* \"contracts/LandbaseToken.sol\":8506:8528  checkpoints[delegatee] */\n      0x20\n      mstore\n      0x40\n      dup2\n      keccak256\n        /* \"contracts/LandbaseToken.sol\":8555:8563  newVotes */\n      dup4\n      swap2\n        /* \"contracts/LandbaseToken.sol\":8529:8545  nCheckpoints - 1 */\n      tag_448\n        /* \"contracts/LandbaseToken.sol\":8544:8545  1 */\n      0x01\n        /* \"contracts/LandbaseToken.sol\":8529:8541  nCheckpoints */\n      dup9\n        /* \"contracts/LandbaseToken.sol\":8529:8545  nCheckpoints - 1 */\n      tag_257\n      jump\t// in\n    tag_448:\n        /* \"contracts/LandbaseToken.sol\":8506:8546  checkpoints[delegatee][nCheckpoints - 1] */\n      0xffffffff\n      and\n      dup2\n      mstore\n      0x20\n      dup2\n      add\n      swap2\n      swap1\n      swap2\n      mstore\n      0x40\n      add\n      0x00\n      keccak256\n        /* \"contracts/LandbaseToken.sol\":8506:8552  checkpoints[delegatee][nCheckpoints - 1].votes */\n      0x01\n      add\n        /* \"contracts/LandbaseToken.sol\":8506:8563  checkpoints[delegatee][nCheckpoints - 1].votes = newVotes */\n      sstore\n        /* \"contracts/LandbaseToken.sol\":8363:8788  if (... */\n      jump(tag_449)\n    tag_447:\n        /* \"contracts/LandbaseToken.sol\":8635:8717  Checkpoint(... */\n      0x40\n      dup1\n      mload\n      dup1\n      dup3\n      add\n      dup3\n      mstore\n      0xffffffff\n      dup4\n      dup2\n      and\n      dup3\n      mstore\n      0x20\n      dup1\n      dup4\n      add\n      dup7\n      dup2\n      mstore\n      sub(shl(0xa0, 0x01), 0x01)\n        /* \"contracts/LandbaseToken.sol\":8596:8618  checkpoints[delegatee] */\n      dup11\n      and\n      0x00\n      swap1\n      dup2\n      mstore\n        /* \"contracts/LandbaseToken.sol\":8596:8607  checkpoints */\n      0x0a\n        /* \"contracts/LandbaseToken.sol\":8596:8618  checkpoints[delegatee] */\n      dup4\n      mstore\n      dup6\n      dup2\n      keccak256\n        /* \"contracts/LandbaseToken.sol\":8596:8632  checkpoints[delegatee][nCheckpoints] */\n      dup11\n      dup6\n      and\n      dup3\n      mstore\n      swap1\n      swap3\n      mstore\n      swap4\n      swap1\n      keccak256\n        /* \"contracts/LandbaseToken.sol\":8596:8717  checkpoints[delegatee][nCheckpoints] = Checkpoint(... */\n      swap2\n      mload\n      dup3\n      sload\n      not(0xffffffff)\n      and\n      swap2\n      and\n      or\n      dup2\n      sstore\n      swap1\n      mload\n      0x01\n      swap2\n      dup3\n      add\n      sstore\n        /* \"contracts/LandbaseToken.sol\":8760:8776  nCheckpoints + 1 */\n      tag_450\n      swap1\n        /* \"contracts/LandbaseToken.sol\":8596:8632  checkpoints[delegatee][nCheckpoints] */\n      dup6\n      swap1\n        /* \"contracts/LandbaseToken.sol\":8760:8776  nCheckpoints + 1 */\n      tag_451\n      jump\t// in\n    tag_450:\n      sub(shl(0xa0, 0x01), 0x01)\n        /* \"contracts/LandbaseToken.sol\":8732:8757  numCheckpoints[delegatee] */\n      dup7\n      and\n      0x00\n      swap1\n      dup2\n      mstore\n        /* \"contracts/LandbaseToken.sol\":8732:8746  numCheckpoints */\n      0x0b\n        /* \"contracts/LandbaseToken.sol\":8732:8757  numCheckpoints[delegatee] */\n      0x20\n      mstore\n      0x40\n      swap1\n      keccak256\n        /* \"contracts/LandbaseToken.sol\":8732:8776  numCheckpoints[delegatee] = nCheckpoints + 1 */\n      dup1\n      sload\n      not(0xffffffff)\n      and\n      0xffffffff\n      swap3\n      swap1\n      swap3\n      and\n      swap2\n      swap1\n      swap2\n      or\n      swap1\n      sstore\n        /* \"contracts/LandbaseToken.sol\":8363:8788  if (... */\n    tag_449:\n        /* \"contracts/LandbaseToken.sol\":8805:8856  DelegateVotesChanged(delegatee, oldVotes, newVotes) */\n      0x40\n      dup1\n      mload\n        /* \"#utility.yul\":14093:14118   */\n      dup5\n      dup2\n      mstore\n        /* \"#utility.yul\":14149:14151   */\n      0x20\n        /* \"#utility.yul\":14134:14152   */\n      dup2\n      add\n        /* \"#utility.yul\":14127:14161   */\n      dup5\n      swap1\n      mstore\n      sub(shl(0xa0, 0x01), 0x01)\n        /* \"contracts/LandbaseToken.sol\":8805:8856  DelegateVotesChanged(delegatee, oldVotes, newVotes) */\n      dup8\n      and\n      swap2\n      0xdec2bacdd2f05b59de34da9b523dff8be42e5e38e818c82fdb0bae774387a724\n      swap2\n        /* \"#utility.yul\":14066:14084   */\n      add\n        /* \"contracts/LandbaseToken.sol\":8805:8856  DelegateVotesChanged(delegatee, oldVotes, newVotes) */\n      mload(0x40)\n      dup1\n      swap2\n      sub\n      swap1\n      log2\n        /* \"contracts/LandbaseToken.sol\":8201:8864  {... */\n      pop\n        /* \"contracts/LandbaseToken.sol\":8047:8864  function _writeCheckpoint(... */\n      pop\n      pop\n      pop\n      pop\n      jump\t// out\n        /* \"contracts/structs/EnumerableSet.sol\":4456:4576  function _at(Set storage set, uint256 index) private view returns (bytes32) {... */\n    tag_410:\n        /* \"contracts/structs/EnumerableSet.sol\":4523:4530  bytes32 */\n      0x00\n        /* \"contracts/structs/EnumerableSet.sol\":4550:4553  set */\n      dup3\n        /* \"contracts/structs/EnumerableSet.sol\":4550:4561  set._values */\n      0x00\n      add\n        /* \"contracts/structs/EnumerableSet.sol\":4562:4567  index */\n      dup3\n        /* \"contracts/structs/EnumerableSet.sol\":4550:4568  set._values[index] */\n      dup2\n      sload\n      dup2\n      lt\n      tag_456\n      jumpi\n      tag_456\n      tag_430\n      jump\t// in\n    tag_456:\n      swap1\n      0x00\n      mstore\n      keccak256(0x00, 0x20)\n      add\n      sload\n        /* \"contracts/structs/EnumerableSet.sol\":4543:4568  return set._values[index] */\n      swap1\n      pop\n        /* \"contracts/structs/EnumerableSet.sol\":4456:4576  function _at(Set storage set, uint256 index) private view returns (bytes32) {... */\n      swap3\n      swap2\n      pop\n      pop\n      jump\t// out\n        /* \"contracts/structs/EnumerableSet.sol\":1682:2096  function _add(Set storage set, bytes32 value) private returns (bool) {... */\n    tag_417:\n        /* \"contracts/structs/EnumerableSet.sol\":1745:1749  bool */\n      0x00\n        /* \"contracts/structs/EnumerableSet.sol\":3875:3894  set._indexes[value] */\n      dup2\n      dup2\n      mstore\n        /* \"contracts/structs/EnumerableSet.sol\":3875:3887  set._indexes */\n      0x01\n      dup4\n      add\n        /* \"contracts/structs/EnumerableSet.sol\":3875:3894  set._indexes[value] */\n      0x20\n      mstore\n      0x40\n      dup2\n      keccak256\n      sload\n        /* \"contracts/structs/EnumerableSet.sol\":1762:2089  if (!_contains(set, value)) {... */\n      tag_460\n      jumpi\n      pop\n        /* \"contracts/structs/EnumerableSet.sol\":1805:1828  set._values.push(value) */\n      dup2\n      sload\n      0x01\n      dup2\n      dup2\n      add\n      dup5\n      sstore\n        /* \"contracts/structs/EnumerableSet.sol\":1805:1816  set._values */\n      0x00\n        /* \"contracts/structs/EnumerableSet.sol\":1805:1828  set._values.push(value) */\n      dup5\n      dup2\n      mstore\n      0x20\n      dup1\n      dup3\n      keccak256\n      swap1\n      swap4\n      add\n      dup5\n      swap1\n      sstore\n        /* \"contracts/structs/EnumerableSet.sol\":1988:2006  set._values.length */\n      dup5\n      sload\n        /* \"contracts/structs/EnumerableSet.sol\":1966:1985  set._indexes[value] */\n      dup5\n      dup3\n      mstore\n        /* \"contracts/structs/EnumerableSet.sol\":1966:1978  set._indexes */\n      dup3\n      dup7\n      add\n        /* \"contracts/structs/EnumerableSet.sol\":1966:1985  set._indexes[value] */\n      swap1\n      swap4\n      mstore\n      0x40\n      swap1\n      keccak256\n        /* \"contracts/structs/EnumerableSet.sol\":1966:2006  set._indexes[value] = set._values.length */\n      swap2\n      swap1\n      swap2\n      sstore\n        /* \"contracts/structs/EnumerableSet.sol\":2021:2032  return true */\n      jump(tag_181)\n        /* \"contracts/structs/EnumerableSet.sol\":1762:2089  if (!_contains(set, value)) {... */\n    tag_460:\n      pop\n        /* \"contracts/structs/EnumerableSet.sol\":2072:2077  false */\n      0x00\n        /* \"contracts/structs/EnumerableSet.sol\":2065:2077  return false */\n      jump(tag_181)\n        /* \"contracts/LandbaseToken.sol\":8872:9068  function safe32(uint256 n, string memory errorMessage)... */\n    tag_444:\n        /* \"contracts/LandbaseToken.sol\":8977:8983  uint32 */\n      0x00\n        /* \"contracts/LandbaseToken.sol\":9020:9032  errorMessage */\n      dup2\n        /* \"contracts/LandbaseToken.sol\":9013:9018  2**32 */\n      0x0100000000\n        /* \"contracts/LandbaseToken.sol\":9009:9018  n < 2**32 */\n      dup5\n      lt\n        /* \"contracts/LandbaseToken.sol\":9001:9033  require(n < 2**32, errorMessage) */\n      tag_465\n      jumpi\n      mload(0x40)\n      shl(0xe5, 0x461bcd)\n      dup2\n      mstore\n      0x04\n      add\n      tag_191\n      swap2\n      swap1\n      tag_49\n      jump\t// in\n    tag_465:\n      pop\n        /* \"contracts/LandbaseToken.sol\":9058:9059  n */\n      swap2\n      swap3\n        /* \"contracts/LandbaseToken.sol\":8872:9068  function safe32(uint256 n, string memory errorMessage)... */\n      swap2\n      pop\n      pop\n      jump\t// out\n        /* \"#utility.yul\":196:793   */\n    tag_49:\n        /* \"#utility.yul\":308:312   */\n      0x00\n        /* \"#utility.yul\":337:339   */\n      0x20\n        /* \"#utility.yul\":366:368   */\n      dup1\n        /* \"#utility.yul\":355:364   */\n      dup4\n        /* \"#utility.yul\":348:369   */\n      mstore\n        /* \"#utility.yul\":398:404   */\n      dup4\n        /* \"#utility.yul\":392:405   */\n      mload\n        /* \"#utility.yul\":441:447   */\n      dup1\n        /* \"#utility.yul\":436:438   */\n      dup3\n        /* \"#utility.yul\":425:434   */\n      dup6\n        /* \"#utility.yul\":421:439   */\n      add\n        /* \"#utility.yul\":414:448   */\n      mstore\n        /* \"#utility.yul\":466:467   */\n      0x00\n        /* \"#utility.yul\":476:616   */\n    tag_472:\n        /* \"#utility.yul\":490:496   */\n      dup2\n        /* \"#utility.yul\":487:488   */\n      dup2\n        /* \"#utility.yul\":484:497   */\n      lt\n        /* \"#utility.yul\":476:616   */\n      iszero\n      tag_474\n      jumpi\n        /* \"#utility.yul\":585:599   */\n      dup6\n      dup2\n      add\n        /* \"#utility.yul\":581:604   */\n      dup4\n      add\n        /* \"#utility.yul\":575:605   */\n      mload\n        /* \"#utility.yul\":551:568   */\n      dup6\n      dup3\n      add\n        /* \"#utility.yul\":570:572   */\n      0x40\n        /* \"#utility.yul\":547:573   */\n      add\n        /* \"#utility.yul\":540:606   */\n      mstore\n        /* \"#utility.yul\":505:515   */\n      dup3\n      add\n        /* \"#utility.yul\":476:616   */\n      jump(tag_472)\n    tag_474:\n        /* \"#utility.yul\":634:640   */\n      dup2\n        /* \"#utility.yul\":631:632   */\n      dup2\n        /* \"#utility.yul\":628:641   */\n      gt\n        /* \"#utility.yul\":625:716   */\n      iszero\n      tag_475\n      jumpi\n        /* \"#utility.yul\":704:705   */\n      0x00\n        /* \"#utility.yul\":699:701   */\n      0x40\n        /* \"#utility.yul\":690:696   */\n      dup4\n        /* \"#utility.yul\":679:688   */\n      dup8\n        /* \"#utility.yul\":675:697   */\n      add\n        /* \"#utility.yul\":671:702   */\n      add\n        /* \"#utility.yul\":664:706   */\n      mstore\n        /* \"#utility.yul\":625:716   */\n    tag_475:\n      pop\n        /* \"#utility.yul\":777:779   */\n      0x1f\n        /* \"#utility.yul\":756:771   */\n      add\n      not(0x1f)\n        /* \"#utility.yul\":752:781   */\n      and\n        /* \"#utility.yul\":737:782   */\n      swap3\n      swap1\n      swap3\n      add\n        /* \"#utility.yul\":784:786   */\n      0x40\n        /* \"#utility.yul\":733:787   */\n      add\n      swap4\n        /* \"#utility.yul\":196:793   */\n      swap3\n      pop\n      pop\n      pop\n      jump\t// out\n        /* \"#utility.yul\":798:971   */\n    tag_467:\n        /* \"#utility.yul\":866:886   */\n      dup1\n      calldataload\n      sub(shl(0xa0, 0x01), 0x01)\n        /* \"#utility.yul\":915:946   */\n      dup2\n      and\n        /* \"#utility.yul\":905:947   */\n      dup2\n      eq\n        /* \"#utility.yul\":895:965   */\n      tag_193\n      jumpi\n        /* \"#utility.yul\":961:962   */\n      0x00\n        /* \"#utility.yul\":958:959   */\n      dup1\n        /* \"#utility.yul\":951:963   */\n      revert\n        /* \"#utility.yul\":976:1230   */\n    tag_52:\n        /* \"#utility.yul\":1044:1050   */\n      0x00\n        /* \"#utility.yul\":1052:1058   */\n      dup1\n        /* \"#utility.yul\":1105:1107   */\n      0x40\n        /* \"#utility.yul\":1093:1102   */\n      dup4\n        /* \"#utility.yul\":1084:1091   */\n      dup6\n        /* \"#utility.yul\":1080:1103   */\n      sub\n        /* \"#utility.yul\":1076:1108   */\n      slt\n        /* \"#utility.yul\":1073:1125   */\n      iszero\n      tag_479\n      jumpi\n        /* \"#utility.yul\":1121:1122   */\n      0x00\n        /* \"#utility.yul\":1118:1119   */\n      dup1\n        /* \"#utility.yul\":1111:1123   */\n      revert\n        /* \"#utility.yul\":1073:1125   */\n    tag_479:\n        /* \"#utility.yul\":1144:1173   */\n      tag_480\n        /* \"#utility.yul\":1163:1172   */\n      dup4\n        /* \"#utility.yul\":1144:1173   */\n      tag_467\n      jump\t// in\n    tag_480:\n        /* \"#utility.yul\":1134:1173   */\n      swap5\n        /* \"#utility.yul\":1220:1222   */\n      0x20\n        /* \"#utility.yul\":1205:1223   */\n      swap4\n      swap1\n      swap4\n      add\n        /* \"#utility.yul\":1192:1224   */\n      calldataload\n      swap4\n      pop\n      pop\n      pop\n        /* \"#utility.yul\":976:1230   */\n      jump\t// out\n        /* \"#utility.yul\":1609:1795   */\n    tag_65:\n        /* \"#utility.yul\":1668:1674   */\n      0x00\n        /* \"#utility.yul\":1721:1723   */\n      0x20\n        /* \"#utility.yul\":1709:1718   */\n      dup3\n        /* \"#utility.yul\":1700:1707   */\n      dup5\n        /* \"#utility.yul\":1696:1719   */\n      sub\n        /* \"#utility.yul\":1692:1724   */\n      slt\n        /* \"#utility.yul\":1689:1741   */\n      iszero\n      tag_484\n      jumpi\n        /* \"#utility.yul\":1737:1738   */\n      0x00\n        /* \"#utility.yul\":1734:1735   */\n      dup1\n        /* \"#utility.yul\":1727:1739   */\n      revert\n        /* \"#utility.yul\":1689:1741   */\n    tag_484:\n        /* \"#utility.yul\":1760:1789   */\n      tag_314\n        /* \"#utility.yul\":1779:1788   */\n      dup3\n        /* \"#utility.yul\":1760:1789   */\n      tag_467\n      jump\t// in\n        /* \"#utility.yul\":1800:2128   */\n    tag_70:\n        /* \"#utility.yul\":1877:1883   */\n      0x00\n        /* \"#utility.yul\":1885:1891   */\n      dup1\n        /* \"#utility.yul\":1893:1899   */\n      0x00\n        /* \"#utility.yul\":1946:1948   */\n      0x60\n        /* \"#utility.yul\":1934:1943   */\n      dup5\n        /* \"#utility.yul\":1925:1932   */\n      dup7\n        /* \"#utility.yul\":1921:1944   */\n      sub\n        /* \"#utility.yul\":1917:1949   */\n      slt\n        /* \"#utility.yul\":1914:1966   */\n      iszero\n      tag_487\n      jumpi\n        /* \"#utility.yul\":1962:1963   */\n      0x00\n        /* \"#utility.yul\":1959:1960   */\n      dup1\n        /* \"#utility.yul\":1952:1964   */\n      revert\n        /* \"#utility.yul\":1914:1966   */\n    tag_487:\n        /* \"#utility.yul\":1985:2014   */\n      tag_488\n        /* \"#utility.yul\":2004:2013   */\n      dup5\n        /* \"#utility.yul\":1985:2014   */\n      tag_467\n      jump\t// in\n    tag_488:\n        /* \"#utility.yul\":1975:2014   */\n      swap3\n      pop\n        /* \"#utility.yul\":2033:2071   */\n      tag_489\n        /* \"#utility.yul\":2067:2069   */\n      0x20\n        /* \"#utility.yul\":2056:2065   */\n      dup6\n        /* \"#utility.yul\":2052:2070   */\n      add\n        /* \"#utility.yul\":2033:2071   */\n      tag_467\n      jump\t// in\n    tag_489:\n        /* \"#utility.yul\":2023:2071   */\n      swap2\n      pop\n        /* \"#utility.yul\":2118:2120   */\n      0x40\n        /* \"#utility.yul\":2107:2116   */\n      dup5\n        /* \"#utility.yul\":2103:2121   */\n      add\n        /* \"#utility.yul\":2090:2122   */\n      calldataload\n        /* \"#utility.yul\":2080:2122   */\n      swap1\n      pop\n        /* \"#utility.yul\":1800:2128   */\n      swap3\n      pop\n      swap3\n      pop\n      swap3\n      jump\t// out\n        /* \"#utility.yul\":2530:2710   */\n    tag_92:\n        /* \"#utility.yul\":2589:2595   */\n      0x00\n        /* \"#utility.yul\":2642:2644   */\n      0x20\n        /* \"#utility.yul\":2630:2639   */\n      dup3\n        /* \"#utility.yul\":2621:2628   */\n      dup5\n        /* \"#utility.yul\":2617:2640   */\n      sub\n        /* \"#utility.yul\":2613:2645   */\n      slt\n        /* \"#utility.yul\":2610:2662   */\n      iszero\n      tag_493\n      jumpi\n        /* \"#utility.yul\":2658:2659   */\n      0x00\n        /* \"#utility.yul\":2655:2656   */\n      dup1\n        /* \"#utility.yul\":2648:2660   */\n      revert\n        /* \"#utility.yul\":2610:2662   */\n    tag_493:\n      pop\n        /* \"#utility.yul\":2681:2704   */\n      calldataload\n      swap2\n        /* \"#utility.yul\":2530:2710   */\n      swap1\n      pop\n      jump\t// out\n        /* \"#utility.yul\":2912:3530   */\n    tag_152:\n        /* \"#utility.yul\":3014:3020   */\n      0x00\n        /* \"#utility.yul\":3022:3028   */\n      dup1\n        /* \"#utility.yul\":3030:3036   */\n      0x00\n        /* \"#utility.yul\":3038:3044   */\n      dup1\n        /* \"#utility.yul\":3046:3052   */\n      0x00\n        /* \"#utility.yul\":3054:3060   */\n      dup1\n        /* \"#utility.yul\":3107:3110   */\n      0xc0\n        /* \"#utility.yul\":3095:3104   */\n      dup8\n        /* \"#utility.yul\":3086:3093   */\n      dup10\n        /* \"#utility.yul\":3082:3105   */\n      sub\n        /* \"#utility.yul\":3078:3111   */\n      slt\n        /* \"#utility.yul\":3075:3128   */\n      iszero\n      tag_496\n      jumpi\n        /* \"#utility.yul\":3124:3125   */\n      0x00\n        /* \"#utility.yul\":3121:3122   */\n      dup1\n        /* \"#utility.yul\":3114:3126   */\n      revert\n        /* \"#utility.yul\":3075:3128   */\n    tag_496:\n        /* \"#utility.yul\":3147:3176   */\n      tag_497\n        /* \"#utility.yul\":3166:3175   */\n      dup8\n        /* \"#utility.yul\":3147:3176   */\n      tag_467\n      jump\t// in\n    tag_497:\n        /* \"#utility.yul\":3137:3176   */\n      swap6\n      pop\n        /* \"#utility.yul\":3223:3225   */\n      0x20\n        /* \"#utility.yul\":3212:3221   */\n      dup8\n        /* \"#utility.yul\":3208:3226   */\n      add\n        /* \"#utility.yul\":3195:3227   */\n      calldataload\n        /* \"#utility.yul\":3185:3227   */\n      swap5\n      pop\n        /* \"#utility.yul\":3274:3276   */\n      0x40\n        /* \"#utility.yul\":3263:3272   */\n      dup8\n        /* \"#utility.yul\":3259:3277   */\n      add\n        /* \"#utility.yul\":3246:3278   */\n      calldataload\n        /* \"#utility.yul\":3236:3278   */\n      swap4\n      pop\n        /* \"#utility.yul\":3328:3330   */\n      0x60\n        /* \"#utility.yul\":3317:3326   */\n      dup8\n        /* \"#utility.yul\":3313:3331   */\n      add\n        /* \"#utility.yul\":3300:3332   */\n      calldataload\n        /* \"#utility.yul\":3372:3376   */\n      0xff\n        /* \"#utility.yul\":3365:3370   */\n      dup2\n        /* \"#utility.yul\":3361:3377   */\n      and\n        /* \"#utility.yul\":3354:3359   */\n      dup2\n        /* \"#utility.yul\":3351:3378   */\n      eq\n        /* \"#utility.yul\":3341:3396   */\n      tag_498\n      jumpi\n        /* \"#utility.yul\":3392:3393   */\n      0x00\n        /* \"#utility.yul\":3389:3390   */\n      dup1\n        /* \"#utility.yul\":3382:3394   */\n      revert\n        /* \"#utility.yul\":3341:3396   */\n    tag_498:\n        /* \"#utility.yul\":2912:3530   */\n      swap6\n      swap9\n      swap5\n      swap8\n      pop\n      swap3\n      swap6\n        /* \"#utility.yul\":3467:3470   */\n      0x80\n        /* \"#utility.yul\":3452:3471   */\n      dup2\n      add\n        /* \"#utility.yul\":3439:3472   */\n      calldataload\n      swap5\n        /* \"#utility.yul\":3519:3522   */\n      0xa0\n        /* \"#utility.yul\":3504:3523   */\n      swap1\n      swap2\n      add\n        /* \"#utility.yul\":3491:3524   */\n      calldataload\n      swap4\n      pop\n        /* \"#utility.yul\":2912:3530   */\n      swap2\n      pop\n      pop\n      jump\t// out\n        /* \"#utility.yul\":3535:3795   */\n    tag_156:\n        /* \"#utility.yul\":3603:3609   */\n      0x00\n        /* \"#utility.yul\":3611:3617   */\n      dup1\n        /* \"#utility.yul\":3664:3666   */\n      0x40\n        /* \"#utility.yul\":3652:3661   */\n      dup4\n        /* \"#utility.yul\":3643:3650   */\n      dup6\n        /* \"#utility.yul\":3639:3662   */\n      sub\n        /* \"#utility.yul\":3635:3667   */\n      slt\n        /* \"#utility.yul\":3632:3684   */\n      iszero\n      tag_500\n      jumpi\n        /* \"#utility.yul\":3680:3681   */\n      0x00\n        /* \"#utility.yul\":3677:3678   */\n      dup1\n        /* \"#utility.yul\":3670:3682   */\n      revert\n        /* \"#utility.yul\":3632:3684   */\n    tag_500:\n        /* \"#utility.yul\":3703:3732   */\n      tag_501\n        /* \"#utility.yul\":3722:3731   */\n      dup4\n        /* \"#utility.yul\":3703:3732   */\n      tag_467\n      jump\t// in\n    tag_501:\n        /* \"#utility.yul\":3693:3732   */\n      swap2\n      pop\n        /* \"#utility.yul\":3751:3789   */\n      tag_502\n        /* \"#utility.yul\":3785:3787   */\n      0x20\n        /* \"#utility.yul\":3774:3783   */\n      dup5\n        /* \"#utility.yul\":3770:3788   */\n      add\n        /* \"#utility.yul\":3751:3789   */\n      tag_467\n      jump\t// in\n    tag_502:\n        /* \"#utility.yul\":3741:3789   */\n      swap1\n      pop\n        /* \"#utility.yul\":3535:3795   */\n      swap3\n      pop\n      swap3\n      swap1\n      pop\n      jump\t// out\n        /* \"#utility.yul\":3800:4150   */\n    tag_164:\n        /* \"#utility.yul\":3867:3873   */\n      0x00\n        /* \"#utility.yul\":3875:3881   */\n      dup1\n        /* \"#utility.yul\":3928:3930   */\n      0x40\n        /* \"#utility.yul\":3916:3925   */\n      dup4\n        /* \"#utility.yul\":3907:3914   */\n      dup6\n        /* \"#utility.yul\":3903:3926   */\n      sub\n        /* \"#utility.yul\":3899:3931   */\n      slt\n        /* \"#utility.yul\":3896:3948   */\n      iszero\n      tag_504\n      jumpi\n        /* \"#utility.yul\":3944:3945   */\n      0x00\n        /* \"#utility.yul\":3941:3942   */\n      dup1\n        /* \"#utility.yul\":3934:3946   */\n      revert\n        /* \"#utility.yul\":3896:3948   */\n    tag_504:\n        /* \"#utility.yul\":3967:3996   */\n      tag_505\n        /* \"#utility.yul\":3986:3995   */\n      dup4\n        /* \"#utility.yul\":3967:3996   */\n      tag_467\n      jump\t// in\n    tag_505:\n        /* \"#utility.yul\":3957:3996   */\n      swap2\n      pop\n        /* \"#utility.yul\":4046:4048   */\n      0x20\n        /* \"#utility.yul\":4035:4044   */\n      dup4\n        /* \"#utility.yul\":4031:4049   */\n      add\n        /* \"#utility.yul\":4018:4050   */\n      calldataload\n        /* \"#utility.yul\":4090:4100   */\n      0xffffffff\n        /* \"#utility.yul\":4083:4088   */\n      dup2\n        /* \"#utility.yul\":4079:4101   */\n      and\n        /* \"#utility.yul\":4072:4077   */\n      dup2\n        /* \"#utility.yul\":4069:4102   */\n      eq\n        /* \"#utility.yul\":4059:4120   */\n      tag_506\n      jumpi\n        /* \"#utility.yul\":4116:4117   */\n      0x00\n        /* \"#utility.yul\":4113:4114   */\n      dup1\n        /* \"#utility.yul\":4106:4118   */\n      revert\n        /* \"#utility.yul\":4059:4120   */\n    tag_506:\n        /* \"#utility.yul\":4139:4144   */\n      dup1\n        /* \"#utility.yul\":4129:4144   */\n      swap2\n      pop\n      pop\n        /* \"#utility.yul\":3800:4150   */\n      swap3\n      pop\n      swap3\n      swap1\n      pop\n      jump\t// out\n        /* \"#utility.yul\":4423:4803   */\n    tag_176:\n        /* \"#utility.yul\":4502:4503   */\n      0x01\n        /* \"#utility.yul\":4498:4510   */\n      dup2\n      dup2\n      shr\n      swap1\n        /* \"#utility.yul\":4545:4557   */\n      dup3\n      and\n      dup1\n        /* \"#utility.yul\":4566:4627   */\n      tag_509\n      jumpi\n        /* \"#utility.yul\":4620:4624   */\n      0x7f\n        /* \"#utility.yul\":4612:4618   */\n      dup3\n        /* \"#utility.yul\":4608:4625   */\n      and\n        /* \"#utility.yul\":4598:4625   */\n      swap2\n      pop\n        /* \"#utility.yul\":4566:4627   */\n    tag_509:\n        /* \"#utility.yul\":4673:4675   */\n      0x20\n        /* \"#utility.yul\":4665:4671   */\n      dup3\n        /* \"#utility.yul\":4662:4676   */\n      lt\n        /* \"#utility.yul\":4642:4660   */\n      dup2\n        /* \"#utility.yul\":4639:4677   */\n      sub\n        /* \"#utility.yul\":4636:4797   */\n      tag_510\n      jumpi\n        /* \"#utility.yul\":4719:4729   */\n      0x4e487b71\n        /* \"#utility.yul\":4714:4717   */\n      0xe0\n        /* \"#utility.yul\":4710:4730   */\n      shl\n        /* \"#utility.yul\":4707:4708   */\n      0x00\n        /* \"#utility.yul\":4700:4731   */\n      mstore\n        /* \"#utility.yul\":4754:4758   */\n      0x22\n        /* \"#utility.yul\":4751:4752   */\n      0x04\n        /* \"#utility.yul\":4744:4759   */\n      mstore\n        /* \"#utility.yul\":4782:4786   */\n      0x24\n        /* \"#utility.yul\":4779:4780   */\n      0x00\n        /* \"#utility.yul\":4772:4787   */\n      revert\n        /* \"#utility.yul\":4636:4797   */\n    tag_510:\n      pop\n        /* \"#utility.yul\":4423:4803   */\n      swap2\n      swap1\n      pop\n      jump\t// out\n        /* \"#utility.yul\":4808:5164   */\n    tag_192:\n        /* \"#utility.yul\":5010:5012   */\n      0x20\n        /* \"#utility.yul\":4992:5013   */\n      dup1\n      dup3\n      mstore\n        /* \"#utility.yul\":5029:5047   */\n      dup2\n      dup2\n      add\n        /* \"#utility.yul\":5022:5052   */\n      mstore\n        /* \"#utility.yul\":5088:5122   */\n      0x4f776e61626c653a2063616c6c6572206973206e6f7420746865206f776e6572\n        /* \"#utility.yul\":5083:5085   */\n      0x40\n        /* \"#utility.yul\":5068:5086   */\n      dup3\n      add\n        /* \"#utility.yul\":5061:5123   */\n      mstore\n        /* \"#utility.yul\":5155:5157   */\n      0x60\n        /* \"#utility.yul\":5140:5158   */\n      add\n      swap1\n        /* \"#utility.yul\":4808:5164   */\n      jump\t// out\n        /* \"#utility.yul\":5931:6058   */\n    tag_468:\n        /* \"#utility.yul\":5992:6002   */\n      0x4e487b71\n        /* \"#utility.yul\":5987:5990   */\n      0xe0\n        /* \"#utility.yul\":5983:6003   */\n      shl\n        /* \"#utility.yul\":5980:5981   */\n      0x00\n        /* \"#utility.yul\":5973:6004   */\n      mstore\n        /* \"#utility.yul\":6023:6027   */\n      0x11\n        /* \"#utility.yul\":6020:6021   */\n      0x04\n        /* \"#utility.yul\":6013:6028   */\n      mstore\n        /* \"#utility.yul\":6047:6051   */\n      0x24\n        /* \"#utility.yul\":6044:6045   */\n      0x00\n        /* \"#utility.yul\":6037:6052   */\n      revert\n        /* \"#utility.yul\":6063:6188   */\n    tag_233:\n        /* \"#utility.yul\":6103:6107   */\n      0x00\n        /* \"#utility.yul\":6131:6132   */\n      dup3\n        /* \"#utility.yul\":6128:6129   */\n      dup3\n        /* \"#utility.yul\":6125:6133   */\n      lt\n        /* \"#utility.yul\":6122:6156   */\n      iszero\n      tag_517\n      jumpi\n        /* \"#utility.yul\":6136:6154   */\n      tag_517\n      tag_468\n      jump\t// in\n    tag_517:\n      pop\n        /* \"#utility.yul\":6173:6182   */\n      sub\n      swap1\n        /* \"#utility.yul\":6063:6188   */\n      jump\t// out\n        /* \"#utility.yul\":6963:7184   */\n    tag_257:\n        /* \"#utility.yul\":7002:7006   */\n      0x00\n        /* \"#utility.yul\":7031:7041   */\n      0xffffffff\n        /* \"#utility.yul\":7091:7101   */\n      dup4\n      dup2\n      and\n      swap1\n        /* \"#utility.yul\":7061:7071   */\n      dup4\n      and\n        /* \"#utility.yul\":7113:7125   */\n      dup2\n      dup2\n      lt\n        /* \"#utility.yul\":7110:7148   */\n      iszero\n      tag_522\n      jumpi\n        /* \"#utility.yul\":7128:7146   */\n      tag_522\n      tag_468\n      jump\t// in\n    tag_522:\n        /* \"#utility.yul\":7165:7178   */\n      sub\n      swap4\n        /* \"#utility.yul\":6963:7184   */\n      swap3\n      pop\n      pop\n      pop\n      jump\t// out\n        /* \"#utility.yul\":7189:7477   */\n    tag_266:\n        /* \"#utility.yul\":7228:7229   */\n      0x00\n        /* \"#utility.yul\":7254:7264   */\n      0xffffffff\n        /* \"#utility.yul\":7291:7293   */\n      dup1\n        /* \"#utility.yul\":7288:7289   */\n      dup5\n        /* \"#utility.yul\":7284:7294   */\n      and\n        /* \"#utility.yul\":7313:7316   */\n      dup1\n        /* \"#utility.yul\":7303:7437   */\n      tag_524\n      jumpi\n        /* \"#utility.yul\":7359:7369   */\n      0x4e487b71\n        /* \"#utility.yul\":7354:7357   */\n      0xe0\n        /* \"#utility.yul\":7350:7370   */\n      shl\n        /* \"#utility.yul\":7347:7348   */\n      0x00\n        /* \"#utility.yul\":7340:7371   */\n      mstore\n        /* \"#utility.yul\":7394:7398   */\n      0x12\n        /* \"#utility.yul\":7391:7392   */\n      0x04\n        /* \"#utility.yul\":7384:7399   */\n      mstore\n        /* \"#utility.yul\":7422:7426   */\n      0x24\n        /* \"#utility.yul\":7419:7420   */\n      0x00\n        /* \"#utility.yul\":7412:7427   */\n      revert\n        /* \"#utility.yul\":7303:7437   */\n    tag_524:\n        /* \"#utility.yul\":7455:7465   */\n      swap3\n      and\n        /* \"#utility.yul\":7451:7471   */\n      swap2\n      swap1\n      swap2\n      div\n      swap3\n        /* \"#utility.yul\":7189:7477   */\n      swap2\n      pop\n      pop\n      jump\t// out\n        /* \"#utility.yul\":9946:10081   */\n    tag_334:\n        /* \"#utility.yul\":9985:9988   */\n      0x00\n        /* \"#utility.yul\":10006:10023   */\n      0x01\n      dup3\n      add\n        /* \"#utility.yul\":10003:10046   */\n      tag_533\n      jumpi\n        /* \"#utility.yul\":10026:10044   */\n      tag_533\n      tag_468\n      jump\t// in\n    tag_533:\n      pop\n        /* \"#utility.yul\":10073:10074   */\n      0x01\n        /* \"#utility.yul\":10062:10075   */\n      add\n      swap1\n        /* \"#utility.yul\":9946:10081   */\n      jump\t// out\n        /* \"#utility.yul\":12929:13057   */\n    tag_383:\n        /* \"#utility.yul\":12969:12972   */\n      0x00\n        /* \"#utility.yul\":13000:13001   */\n      dup3\n        /* \"#utility.yul\":12996:13002   */\n      not\n        /* \"#utility.yul\":12993:12994   */\n      dup3\n        /* \"#utility.yul\":12990:13003   */\n      gt\n        /* \"#utility.yul\":12987:13026   */\n      iszero\n      tag_543\n      jumpi\n        /* \"#utility.yul\":13006:13024   */\n      tag_543\n      tag_468\n      jump\t// in\n    tag_543:\n      pop\n        /* \"#utility.yul\":13042:13051   */\n      add\n      swap1\n        /* \"#utility.yul\":12929:13057   */\n      jump\t// out\n        /* \"#utility.yul\":13422:13549   */\n    tag_430:\n        /* \"#utility.yul\":13483:13493   */\n      0x4e487b71\n        /* \"#utility.yul\":13478:13481   */\n      0xe0\n        /* \"#utility.yul\":13474:13494   */\n      shl\n        /* \"#utility.yul\":13471:13472   */\n      0x00\n        /* \"#utility.yul\":13464:13495   */\n      mstore\n        /* \"#utility.yul\":13514:13518   */\n      0x32\n        /* \"#utility.yul\":13511:13512   */\n      0x04\n        /* \"#utility.yul\":13504:13519   */\n      mstore\n        /* \"#utility.yul\":13538:13542   */\n      0x24\n        /* \"#utility.yul\":13535:13536   */\n      0x00\n        /* \"#utility.yul\":13528:13543   */\n      revert\n        /* \"#utility.yul\":13554:13681   */\n    tag_437:\n        /* \"#utility.yul\":13615:13625   */\n      0x4e487b71\n        /* \"#utility.yul\":13610:13613   */\n      0xe0\n        /* \"#utility.yul\":13606:13626   */\n      shl\n        /* \"#utility.yul\":13603:13604   */\n      0x00\n        /* \"#utility.yul\":13596:13627   */\n      mstore\n        /* \"#utility.yul\":13646:13650   */\n      0x31\n        /* \"#utility.yul\":13643:13644   */\n      0x04\n        /* \"#utility.yul\":13636:13651   */\n      mstore\n        /* \"#utility.yul\":13670:13674   */\n      0x24\n        /* \"#utility.yul\":13667:13668   */\n      0x00\n        /* \"#utility.yul\":13660:13675   */\n      revert\n        /* \"#utility.yul\":13686:13914   */\n    tag_451:\n        /* \"#utility.yul\":13725:13728   */\n      0x00\n        /* \"#utility.yul\":13753:13763   */\n      0xffffffff\n        /* \"#utility.yul\":13790:13792   */\n      dup1\n        /* \"#utility.yul\":13787:13788   */\n      dup4\n        /* \"#utility.yul\":13783:13793   */\n      and\n        /* \"#utility.yul\":13820:13822   */\n      dup2\n        /* \"#utility.yul\":13817:13818   */\n      dup6\n        /* \"#utility.yul\":13813:13823   */\n      and\n        /* \"#utility.yul\":13851:13854   */\n      dup1\n        /* \"#utility.yul\":13847:13849   */\n      dup4\n        /* \"#utility.yul\":13843:13855   */\n      sub\n        /* \"#utility.yul\":13838:13841   */\n      dup3\n        /* \"#utility.yul\":13835:13856   */\n      gt\n        /* \"#utility.yul\":13832:13879   */\n      iszero\n      tag_549\n      jumpi\n        /* \"#utility.yul\":13859:13877   */\n      tag_549\n      tag_468\n      jump\t// in\n    tag_549:\n        /* \"#utility.yul\":13895:13908   */\n      add\n      swap5\n        /* \"#utility.yul\":13686:13914   */\n      swap4\n      pop\n      pop\n      pop\n      pop\n      jump\t// out\n    stop\n    data_19ee87d38a98c92b75a5c0cf6d80ba3454da2a59db748607c0a0f9f22ed20008 4c414e44424153453a3a5f7772697465436865636b706f696e743a20626c6f636b206e756d62657220657863656564732033322062697473\n    data_4f3506f4ba71c79c3cbd442a3afeb30e9b27af2d84e116a4385b34e267d2287e 42455032303a207472616e7366657220616d6f756e74206578636565647320616c6c6f77616e6365\n    data_a91efd7a65ef5b4ae4d6568d674798b78a5a89184dd296c100513251c22d3e73 42455032303a207472616e7366657220616d6f756e7420657863656564732062616c616e6365\n    data_b7060b3538dcd3ddc8a941c91636a8115a1aa46914747fd9809d543bbb46cd22 42455032303a2064656372656173656420616c6c6f77616e63652062656c6f77207a65726f\n\n    auxdata: 0xa264697066735822122068c2a890dc29e564393190b3b1078f6268ea165c0038985395926fc944884d7664736f6c634300080e0033\n}\n",
				"bytecode": {
					"linkReferences": {},
					"object": "60806040523480156200001157600080fd5b506040518060400160405280600d81526020016c2630b7323130b9b29021b7b4b760991b815250604051806040016040528060038152602001624c424360e81b8152506200006e62000068620000af60201b60201c565b620000b3565b81516200008390600690602085019062000103565b5080516200009990600590602084019062000103565b50506004805460ff1916601217905550620001e5565b3390565b600080546001600160a01b038381166001600160a01b0319831681178455604051919092169283917f8be0079c531659141344cd1fd0a4f28419497f9722a3daafe3b4186f6b6457e09190a35050565b8280546200011190620001a9565b90600052602060002090601f01602090048101928262000135576000855562000180565b82601f106200015057805160ff191683800117855562000180565b8280016001018555821562000180579182015b828111156200018057825182559160200191906001019062000163565b506200018e92915062000192565b5090565b5b808211156200018e576000815560010162000193565b600181811c90821680620001be57607f821691505b602082108103620001df57634e487b7160e01b600052602260045260246000fd5b50919050565b611e3380620001f56000396000f3fe608060405234801561001057600080fd5b50600436106101f05760003560e01c8063782d6fe11161010f578063a9059cbb116100a2578063dd62ed3e11610071578063dd62ed3e14610481578063e7a324dc146104ba578063f1127ed8146104e1578063f2fde38b1461053857600080fd5b8063a9059cbb14610435578063aa271e1a14610448578063b4b5ea571461045b578063c3cda5201461046e57600080fd5b806395d89b41116100de57806395d89b41146103f4578063983b2d56146103fc578063a0712d681461040f578063a457c2d71461042257600080fd5b8063782d6fe1146103b05780637ecebe00146103c3578063893d20e8146103e35780638da5cb5b146103e357600080fd5b806339509351116101875780635c19a95c116101565780635c19a95c1461032f5780636fcfff451461034457806370a082311461037f578063715018a6146103a857600080fd5b806339509351146102b257806340c10f19146102c5578063587cde1e146102d85780635b7121f81461031c57600080fd5b806320606b70116101c357806320606b701461025057806323338b881461027757806323b872dd1461028a578063313ce5671461029d57600080fd5b80630323aac7146101f557806306fdde0314610210578063095ea7b31461022557806318160ddd14610248575b600080fd5b6101fd61054b565b6040519081526020015b60405180910390f35b61021861055c565b6040516102079190611a02565b610238610233366004611a6e565b6105ee565b6040519015158152602001610207565b6003546101fd565b6101fd7f8cad95687ba82c2ce50e74f7b754645e5117c3a5bec8151c0726d5857980a86681565b610238610285366004611a98565b610605565b610238610298366004611ab3565b6106b3565b60045460405160ff9091168152602001610207565b6102386102c0366004611a6e565b61071c565b6102386102d3366004611a6e565b610752565b6103046102e6366004611a98565b6001600160a01b039081166000908152600960205260409020541690565b6040516001600160a01b039091168152602001610207565b61030461032a366004611aef565b6107d8565b61034261033d366004611a98565b610871565b005b61036a610352366004611a98565b600b6020526000908152604090205463ffffffff1681565b60405163ffffffff9091168152602001610207565b6101fd61038d366004611a98565b6001600160a01b031660009081526001602052604090205490565b61034261087e565b6101fd6103be366004611a6e565b6108b4565b6101fd6103d1366004611a98565b600c6020526000908152604090205481565b6000546001600160a01b0316610304565b610218610b20565b61023861040a366004611a98565b610b2f565b61023861041d366004611aef565b610bcc565b610238610430366004611a6e565b610c09565b610238610443366004611a6e565b610c58565b610238610456366004611a98565b610c65565b6101fd610469366004611a98565b610c72565b61034261047c366004611b08565b610ce7565b6101fd61048f366004611b68565b6001600160a01b03918216600090815260026020908152604080832093909416825291909152205490565b6101fd7fe48329057bfd03d55e49b547132e39cffd9c1820ad7b9d4c5307691425d15adf81565b61051c6104ef366004611b9b565b600a6020908152600092835260408084209091529082529020805460019091015463ffffffff9091169082565b6040805163ffffffff9093168352602083019190915201610207565b610342610546366004611a98565b610fc1565b60006105576007611059565b905090565b60606006805461056b90611bdb565b80601f016020809104026020016040519081016040528092919081815260200182805461059790611bdb565b80156105e45780601f106105b9576101008083540402835291602001916105e4565b820191906000526020600020905b8154815290600101906020018083116105c757829003601f168201915b5050505050905090565b60006105fb338484611063565b5060015b92915050565b600080546001600160a01b031633146106395760405162461bcd60e51b815260040161063090611c15565b60405180910390fd5b6001600160a01b0382166106a05760405162461bcd60e51b815260206004820152602860248201527f4c414e44424153453a205f64656c4d696e74657220697320746865207a65726f604482015267206164647265737360c01b6064820152608401610630565b6106ab600783611188565b90505b919050565b60006106c084848461119d565b610712843361070d85604051806060016040528060288152602001611d8b602891396001600160a01b038a1660009081526002602090815260408083203384529091529020549190611323565b611063565b5060019392505050565b3360008181526002602090815260408083206001600160a01b038716845290915281205490916105fb91859061070d908661134f565b600061075d33610c65565b6107a95760405162461bcd60e51b815260206004820152601860248201527f63616c6c6572206973206e6f7420746865206d696e74657200000000000000006044820152606401610630565b6107b3838361135b565b6001600160a01b038084166000908152600960205260408120546105fb921684611441565b600080546001600160a01b031633146108035760405162461bcd60e51b815260040161063090611c15565b600161080d61054b565b6108179190611c60565b8211156108665760405162461bcd60e51b815260206004820152601d60248201527f4c414e44424153453a20696e646578206f7574206f6620626f756e64730000006044820152606401610630565b6106ab6007836115a5565b61087b33826115b1565b50565b6000546001600160a01b031633146108a85760405162461bcd60e51b815260040161063090611c15565b6108b26000611631565b565b60004382106109195760405162461bcd60e51b815260206004820152602b60248201527f4c414e44424153453a3a6765745072696f72566f7465733a206e6f742079657460448201526a0819195d195c9b5a5b995960aa1b6064820152608401610630565b6001600160a01b0383166000908152600b602052604081205463ffffffff169081900361094a5760009150506105ff565b6001600160a01b0384166000908152600a60205260408120849161096f600185611c77565b63ffffffff908116825260208201929092526040016000205416116109d8576001600160a01b0384166000908152600a60205260408120906109b2600184611c77565b63ffffffff1663ffffffff168152602001908152602001600020600101549150506105ff565b6001600160a01b0384166000908152600a6020908152604080832083805290915290205463ffffffff16831015610a135760009150506105ff565b600080610a21600184611c77565b90505b8163ffffffff168163ffffffff161115610ae95760006002610a468484611c77565b610a509190611c9c565b610a5a9083611c77565b6001600160a01b0388166000908152600a6020908152604080832063ffffffff8086168552908352928190208151808301909252805490931680825260019093015491810191909152919250879003610abd576020015194506105ff9350505050565b805163ffffffff16871115610ad457819350610ae2565b610adf600183611c77565b92505b5050610a24565b506001600160a01b0385166000908152600a6020908152604080832063ffffffff9094168352929052206001015491505092915050565b60606005805461056b90611bdb565b600080546001600160a01b03163314610b5a5760405162461bcd60e51b815260040161063090611c15565b6001600160a01b038216610bc15760405162461bcd60e51b815260206004820152602860248201527f4c414e44424153453a205f6164644d696e74657220697320746865207a65726f604482015267206164647265737360c01b6064820152608401610630565b6106ab600783611681565b600080546001600160a01b03163314610bf75760405162461bcd60e51b815260040161063090611c15565b610c01338361135b565b506001919050565b60006105fb338461070d85604051806060016040528060258152602001611dd9602591393360009081526002602090815260408083206001600160a01b038d1684529091529020549190611323565b60006105fb33848461119d565b60006106ab600783611696565b6001600160a01b0381166000908152600b602052604081205463ffffffff1680610c9d576000610ce0565b6001600160a01b0383166000908152600a6020526040812090610cc1600184611c77565b63ffffffff1663ffffffff168152602001908152602001600020600101545b9392505050565b60007f8cad95687ba82c2ce50e74f7b754645e5117c3a5bec8151c0726d5857980a866610d1261055c565b80519060200120610d204690565b60408051602080820195909552808201939093526060830191909152306080808401919091528151808403909101815260a0830182528051908401207fe48329057bfd03d55e49b547132e39cffd9c1820ad7b9d4c5307691425d15adf60c08401526001600160a01b038b1660e084015261010083018a90526101208084018a90528251808503909101815261014084019092528151919093012061190160f01b610160830152610162820183905261018282018190529192506000906101a20160408051601f198184030181528282528051602091820120600080855291840180845281905260ff8a169284019290925260608301889052608083018790529092509060019060a0016020604051602081039080840390855afa158015610e4c573d6000803e3d6000fd5b5050604051601f1901519150506001600160a01b038116610ec25760405162461bcd60e51b815260206004820152602a60248201527f4c414e44424153453a3a64656c656761746542795369673a20696e76616c6964604482015269207369676e617475726560b01b6064820152608401610630565b6001600160a01b0381166000908152600c60205260408120805491610ee683611ccd565b919050558914610f475760405162461bcd60e51b815260206004820152602660248201527f4c414e44424153453a3a64656c656761746542795369673a20696e76616c6964604482015265206e6f6e636560d01b6064820152608401610630565b87421115610faa5760405162461bcd60e51b815260206004820152602a60248201527f4c414e44424153453a3a64656c656761746542795369673a207369676e6174756044820152691c9948195e1c1a5c995960b21b6064820152608401610630565b610fb4818b6115b1565b505050505b505050505050565b6000546001600160a01b03163314610feb5760405162461bcd60e51b815260040161063090611c15565b6001600160a01b0381166110505760405162461bcd60e51b815260206004820152602660248201527f4f776e61626c653a206e6577206f776e657220697320746865207a65726f206160448201526564647265737360d01b6064820152608401610630565b61087b81611631565b60006106ab825490565b6001600160a01b0383166110c55760405162461bcd60e51b8152602060048201526024808201527f42455032303a20617070726f76652066726f6d20746865207a65726f206164646044820152637265737360e01b6064820152608401610630565b6001600160a01b0382166111265760405162461bcd60e51b815260206004820152602260248201527f42455032303a20617070726f766520746f20746865207a65726f206164647265604482015261737360f01b6064820152608401610630565b6001600160a01b0383811660008181526002602090815260408083209487168084529482529182902085905590518481527f8c5be1e5ebec7d5bd14f71427d1e84f3dd0314c0f7b2291e5b200ac8c7c3b92591015b60405180910390a3505050565b6000610ce0836001600160a01b0384166116b8565b6001600160a01b0383166112015760405162461bcd60e51b815260206004820152602560248201527f42455032303a207472616e736665722066726f6d20746865207a65726f206164604482015264647265737360d81b6064820152608401610630565b6001600160a01b0382166112635760405162461bcd60e51b815260206004820152602360248201527f42455032303a207472616e7366657220746f20746865207a65726f206164647260448201526265737360e81b6064820152608401610630565b6112a081604051806060016040528060268152602001611db3602691396001600160a01b0386166000908152600160205260409020549190611323565b6001600160a01b0380851660009081526001602052604080822093909355908416815220546112cf908261134f565b6001600160a01b0380841660008181526001602052604090819020939093559151908516907fddf252ad1be2c89b69c2b068fc378daa952ba7f163c4a11628f55a4df523b3ef9061117b9085815260200190565b600081848411156113475760405162461bcd60e51b81526004016106309190611a02565b505050900390565b6000610ce08284611ce6565b6001600160a01b0382166113b15760405162461bcd60e51b815260206004820152601f60248201527f42455032303a206d696e7420746f20746865207a65726f2061646472657373006044820152606401610630565b6003546113be908261134f565b6003556001600160a01b0382166000908152600160205260409020546113e4908261134f565b6001600160a01b0383166000818152600160205260408082209390935591519091907fddf252ad1be2c89b69c2b068fc378daa952ba7f163c4a11628f55a4df523b3ef906114359085815260200190565b60405180910390a35050565b816001600160a01b0316836001600160a01b0316141580156114635750600081115b156115a0576001600160a01b03831615611506576001600160a01b0383166000908152600b602052604081205463ffffffff1690816114a35760006114e6565b6001600160a01b0385166000908152600a60205260408120906114c7600185611c77565b63ffffffff1663ffffffff168152602001908152602001600020600101545b905060006114f482856117ab565b9050611502868484846117b7565b5050505b6001600160a01b038216156115a0576001600160a01b0382166000908152600b602052604081205463ffffffff169081611541576000611584565b6001600160a01b0384166000908152600a6020526040812090611565600185611c77565b63ffffffff1663ffffffff168152602001908152602001600020600101545b90506000611592828561134f565b9050610fb9858484846117b7565b505050565b6000610ce08383611959565b6001600160a01b03828116600081815260096020818152604080842080546001845282862054949093528787166001600160a01b03198416811790915590519190951694919391928592917f3134e8a2e6d97e929a7e54011ea5485d7d196dd5f0ba4d4ef95803e8e3fc257f9190a461162b828483611441565b50505050565b600080546001600160a01b038381166001600160a01b0319831681178455604051919092169283917f8be0079c531659141344cd1fd0a4f28419497f9722a3daafe3b4186f6b6457e09190a35050565b6000610ce0836001600160a01b038416611983565b6001600160a01b03811660009081526001830160205260408120541515610ce0565b600081815260018301602052604081205480156117a15760006116dc600183611c60565b85549091506000906116f090600190611c60565b905081811461175557600086600001828154811061171057611710611cfe565b906000526020600020015490508087600001848154811061173357611733611cfe565b6000918252602080832090910192909255918252600188019052604090208390555b855486908061176657611766611d14565b6001900381819060005260206000200160009055905585600101600086815260200190815260200160002060009055600193505050506105ff565b60009150506105ff565b6000610ce08284611c60565b60006117db43604051806060016040528060388152602001611d53603891396119d2565b905060008463ffffffff1611801561183557506001600160a01b0385166000908152600a6020526040812063ffffffff831691611819600188611c77565b63ffffffff908116825260208201929092526040016000205416145b1561187e576001600160a01b0385166000908152600a60205260408120839161185f600188611c77565b63ffffffff16815260208101919091526040016000206001015561190e565b60408051808201825263ffffffff838116825260208083018681526001600160a01b038a166000908152600a83528581208a851682529092529390209151825463ffffffff1916911617815590516001918201556118dd908590611d2a565b6001600160a01b0386166000908152600b60205260409020805463ffffffff191663ffffffff929092169190911790555b60408051848152602081018490526001600160a01b038716917fdec2bacdd2f05b59de34da9b523dff8be42e5e38e818c82fdb0bae774387a724910160405180910390a25050505050565b600082600001828154811061197057611970611cfe565b9060005260206000200154905092915050565b60008181526001830160205260408120546119ca575081546001818101845560008481526020808220909301849055845484825282860190935260409020919091556105ff565b5060006105ff565b60008164010000000084106119fa5760405162461bcd60e51b81526004016106309190611a02565b509192915050565b600060208083528351808285015260005b81811015611a2f57858101830151858201604001528201611a13565b81811115611a41576000604083870101525b50601f01601f1916929092016040019392505050565b80356001600160a01b03811681146106ae57600080fd5b60008060408385031215611a8157600080fd5b611a8a83611a57565b946020939093013593505050565b600060208284031215611aaa57600080fd5b610ce082611a57565b600080600060608486031215611ac857600080fd5b611ad184611a57565b9250611adf60208501611a57565b9150604084013590509250925092565b600060208284031215611b0157600080fd5b5035919050565b60008060008060008060c08789031215611b2157600080fd5b611b2a87611a57565b95506020870135945060408701359350606087013560ff81168114611b4e57600080fd5b9598949750929560808101359460a0909101359350915050565b60008060408385031215611b7b57600080fd5b611b8483611a57565b9150611b9260208401611a57565b90509250929050565b60008060408385031215611bae57600080fd5b611bb783611a57565b9150602083013563ffffffff81168114611bd057600080fd5b809150509250929050565b600181811c90821680611bef57607f821691505b602082108103611c0f57634e487b7160e01b600052602260045260246000fd5b50919050565b6020808252818101527f4f776e61626c653a2063616c6c6572206973206e6f7420746865206f776e6572604082015260600190565b634e487b7160e01b600052601160045260246000fd5b600082821015611c7257611c72611c4a565b500390565b600063ffffffff83811690831681811015611c9457611c94611c4a565b039392505050565b600063ffffffff80841680611cc157634e487b7160e01b600052601260045260246000fd5b92169190910492915050565b600060018201611cdf57611cdf611c4a565b5060010190565b60008219821115611cf957611cf9611c4a565b500190565b634e487b7160e01b600052603260045260246000fd5b634e487b7160e01b600052603160045260246000fd5b600063ffffffff808316818516808303821115611d4957611d49611c4a565b0194935050505056fe4c414e44424153453a3a5f7772697465436865636b706f696e743a20626c6f636b206e756d6265722065786365656473203332206269747342455032303a207472616e7366657220616d6f756e74206578636565647320616c6c6f77616e636542455032303a207472616e7366657220616d6f756e7420657863656564732062616c616e636542455032303a2064656372656173656420616c6c6f77616e63652062656c6f77207a65726fa264697066735822122068c2a890dc29e564393190b3b1078f6268ea165c0038985395926fc944884d7664736f6c634300080e0033",
					"opcodes": "PUSH1 0x80 PUSH1 0x40 MSTORE CALLVALUE DUP1 ISZERO PUSH3 0x11 JUMPI PUSH1 0x0 DUP1 REVERT JUMPDEST POP PUSH1 0x40 MLOAD DUP1 PUSH1 0x40 ADD PUSH1 0x40 MSTORE DUP1 PUSH1 0xD DUP2 MSTORE PUSH1 0x20 ADD PUSH13 0x2630B7323130B9B29021B7B4B7 PUSH1 0x99 SHL DUP2 MSTORE POP PUSH1 0x40 MLOAD DUP1 PUSH1 0x40 ADD PUSH1 0x40 MSTORE DUP1 PUSH1 0x3 DUP2 MSTORE PUSH1 0x20 ADD PUSH3 0x4C4243 PUSH1 0xE8 SHL DUP2 MSTORE POP PUSH3 0x6E PUSH3 0x68 PUSH3 0xAF PUSH1 0x20 SHL PUSH1 0x20 SHR JUMP JUMPDEST PUSH3 0xB3 JUMP JUMPDEST DUP2 MLOAD PUSH3 0x83 SWAP1 PUSH1 0x6 SWAP1 PUSH1 0x20 DUP6 ADD SWAP1 PUSH3 0x103 JUMP JUMPDEST POP DUP1 MLOAD PUSH3 0x99 SWAP1 PUSH1 0x5 SWAP1 PUSH1 0x20 DUP5 ADD SWAP1 PUSH3 0x103 JUMP JUMPDEST POP POP PUSH1 0x4 DUP1 SLOAD PUSH1 0xFF NOT AND PUSH1 0x12 OR SWAP1 SSTORE POP PUSH3 0x1E5 JUMP JUMPDEST CALLER SWAP1 JUMP JUMPDEST PUSH1 0x0 DUP1 SLOAD PUSH1 0x1 PUSH1 0x1 PUSH1 0xA0 SHL SUB DUP4 DUP2 AND PUSH1 0x1 PUSH1 0x1 PUSH1 0xA0 SHL SUB NOT DUP4 AND DUP2 OR DUP5 SSTORE PUSH1 0x40 MLOAD SWAP2 SWAP1 SWAP3 AND SWAP3 DUP4 SWAP2 PUSH32 0x8BE0079C531659141344CD1FD0A4F28419497F9722A3DAAFE3B4186F6B6457E0 SWAP2 SWAP1 LOG3 POP POP JUMP JUMPDEST DUP3 DUP1 SLOAD PUSH3 0x111 SWAP1 PUSH3 0x1A9 JUMP JUMPDEST SWAP1 PUSH1 0x0 MSTORE PUSH1 0x20 PUSH1 0x0 KECCAK256 SWAP1 PUSH1 0x1F ADD PUSH1 0x20 SWAP1 DIV DUP2 ADD SWAP3 DUP3 PUSH3 0x135 JUMPI PUSH1 0x0 DUP6 SSTORE PUSH3 0x180 JUMP JUMPDEST DUP3 PUSH1 0x1F LT PUSH3 0x150 JUMPI DUP1 MLOAD PUSH1 0xFF NOT AND DUP4 DUP1 ADD OR DUP6 SSTORE PUSH3 0x180 JUMP JUMPDEST DUP3 DUP1 ADD PUSH1 0x1 ADD DUP6 SSTORE DUP3 ISZERO PUSH3 0x180 JUMPI SWAP2 DUP3 ADD JUMPDEST DUP3 DUP2 GT ISZERO PUSH3 0x180 JUMPI DUP3 MLOAD DUP3 SSTORE SWAP2 PUSH1 0x20 ADD SWAP2 SWAP1 PUSH1 0x1 ADD SWAP1 PUSH3 0x163 JUMP JUMPDEST POP PUSH3 0x18E SWAP3 SWAP2 POP PUSH3 0x192 JUMP JUMPDEST POP SWAP1 JUMP JUMPDEST JUMPDEST DUP1 DUP3 GT ISZERO PUSH3 0x18E JUMPI PUSH1 0x0 DUP2 SSTORE PUSH1 0x1 ADD PUSH3 0x193 JUMP JUMPDEST PUSH1 0x1 DUP2 DUP2 SHR SWAP1 DUP3 AND DUP1 PUSH3 0x1BE JUMPI PUSH1 0x7F DUP3 AND SWAP2 POP JUMPDEST PUSH1 0x20 DUP3 LT DUP2 SUB PUSH3 0x1DF JUMPI PUSH4 0x4E487B71 PUSH1 0xE0 SHL PUSH1 0x0 MSTORE PUSH1 0x22 PUSH1 0x4 MSTORE PUSH1 0x24 PUSH1 0x0 REVERT JUMPDEST POP SWAP2 SWAP1 POP JUMP JUMPDEST PUSH2 0x1E33 DUP1 PUSH3 0x1F5 PUSH1 0x0 CODECOPY PUSH1 0x0 RETURN INVALID PUSH1 0x80 PUSH1 0x40 MSTORE CALLVALUE DUP1 ISZERO PUSH2 0x10 JUMPI PUSH1 0x0 DUP1 REVERT JUMPDEST POP PUSH1 0x4 CALLDATASIZE LT PUSH2 0x1F0 JUMPI PUSH1 0x0 CALLDATALOAD PUSH1 0xE0 SHR DUP1 PUSH4 0x782D6FE1 GT PUSH2 0x10F JUMPI DUP1 PUSH4 0xA9059CBB GT PUSH2 0xA2 JUMPI DUP1 PUSH4 0xDD62ED3E GT PUSH2 0x71 JUMPI DUP1 PUSH4 0xDD62ED3E EQ PUSH2 0x481 JUMPI DUP1 PUSH4 0xE7A324DC EQ PUSH2 0x4BA JUMPI DUP1 PUSH4 0xF1127ED8 EQ PUSH2 0x4E1 JUMPI DUP1 PUSH4 0xF2FDE38B EQ PUSH2 0x538 JUMPI PUSH1 0x0 DUP1 REVERT JUMPDEST DUP1 PUSH4 0xA9059CBB EQ PUSH2 0x435 JUMPI DUP1 PUSH4 0xAA271E1A EQ PUSH2 0x448 JUMPI DUP1 PUSH4 0xB4B5EA57 EQ PUSH2 0x45B JUMPI DUP1 PUSH4 0xC3CDA520 EQ PUSH2 0x46E JUMPI PUSH1 0x0 DUP1 REVERT JUMPDEST DUP1 PUSH4 0x95D89B41 GT PUSH2 0xDE JUMPI DUP1 PUSH4 0x95D89B41 EQ PUSH2 0x3F4 JUMPI DUP1 PUSH4 0x983B2D56 EQ PUSH2 0x3FC JUMPI DUP1 PUSH4 0xA0712D68 EQ PUSH2 0x40F JUMPI DUP1 PUSH4 0xA457C2D7 EQ PUSH2 0x422 JUMPI PUSH1 0x0 DUP1 REVERT JUMPDEST DUP1 PUSH4 0x782D6FE1 EQ PUSH2 0x3B0 JUMPI DUP1 PUSH4 0x7ECEBE00 EQ PUSH2 0x3C3 JUMPI DUP1 PUSH4 0x893D20E8 EQ PUSH2 0x3E3 JUMPI DUP1 PUSH4 0x8DA5CB5B EQ PUSH2 0x3E3 JUMPI PUSH1 0x0 DUP1 REVERT JUMPDEST DUP1 PUSH4 0x39509351 GT PUSH2 0x187 JUMPI DUP1 PUSH4 0x5C19A95C GT PUSH2 0x156 JUMPI DUP1 PUSH4 0x5C19A95C EQ PUSH2 0x32F JUMPI DUP1 PUSH4 0x6FCFFF45 EQ PUSH2 0x344 JUMPI DUP1 PUSH4 0x70A08231 EQ PUSH2 0x37F JUMPI DUP1 PUSH4 0x715018A6 EQ PUSH2 0x3A8 JUMPI PUSH1 0x0 DUP1 REVERT JUMPDEST DUP1 PUSH4 0x39509351 EQ PUSH2 0x2B2 JUMPI DUP1 PUSH4 0x40C10F19 EQ PUSH2 0x2C5 JUMPI DUP1 PUSH4 0x587CDE1E EQ PUSH2 0x2D8 JUMPI DUP1 PUSH4 0x5B7121F8 EQ PUSH2 0x31C JUMPI PUSH1 0x0 DUP1 REVERT JUMPDEST DUP1 PUSH4 0x20606B70 GT PUSH2 0x1C3 JUMPI DUP1 PUSH4 0x20606B70 EQ PUSH2 0x250 JUMPI DUP1 PUSH4 0x23338B88 EQ PUSH2 0x277 JUMPI DUP1 PUSH4 0x23B872DD EQ PUSH2 0x28A JUMPI DUP1 PUSH4 0x313CE567 EQ PUSH2 0x29D JUMPI PUSH1 0x0 DUP1 REVERT JUMPDEST DUP1 PUSH4 0x323AAC7 EQ PUSH2 0x1F5 JUMPI DUP1 PUSH4 0x6FDDE03 EQ PUSH2 0x210 JUMPI DUP1 PUSH4 0x95EA7B3 EQ PUSH2 0x225 JUMPI DUP1 PUSH4 0x18160DDD EQ PUSH2 0x248 JUMPI JUMPDEST PUSH1 0x0 DUP1 REVERT JUMPDEST PUSH2 0x1FD PUSH2 0x54B JUMP JUMPDEST PUSH1 0x40 MLOAD SWAP1 DUP2 MSTORE PUSH1 0x20 ADD JUMPDEST PUSH1 0x40 MLOAD DUP1 SWAP2 SUB SWAP1 RETURN JUMPDEST PUSH2 0x218 PUSH2 0x55C JUMP JUMPDEST PUSH1 0x40 MLOAD PUSH2 0x207 SWAP2 SWAP1 PUSH2 0x1A02 JUMP JUMPDEST PUSH2 0x238 PUSH2 0x233 CALLDATASIZE PUSH1 0x4 PUSH2 0x1A6E JUMP JUMPDEST PUSH2 0x5EE JUMP JUMPDEST PUSH1 0x40 MLOAD SWAP1 ISZERO ISZERO DUP2 MSTORE PUSH1 0x20 ADD PUSH2 0x207 JUMP JUMPDEST PUSH1 0x3 SLOAD PUSH2 0x1FD JUMP JUMPDEST PUSH2 0x1FD PUSH32 0x8CAD95687BA82C2CE50E74F7B754645E5117C3A5BEC8151C0726D5857980A866 DUP2 JUMP JUMPDEST PUSH2 0x238 PUSH2 0x285 CALLDATASIZE PUSH1 0x4 PUSH2 0x1A98 JUMP JUMPDEST PUSH2 0x605 JUMP JUMPDEST PUSH2 0x238 PUSH2 0x298 CALLDATASIZE PUSH1 0x4 PUSH2 0x1AB3 JUMP JUMPDEST PUSH2 0x6B3 JUMP JUMPDEST PUSH1 0x4 SLOAD PUSH1 0x40 MLOAD PUSH1 0xFF SWAP1 SWAP2 AND DUP2 MSTORE PUSH1 0x20 ADD PUSH2 0x207 JUMP JUMPDEST PUSH2 0x238 PUSH2 0x2C0 CALLDATASIZE PUSH1 0x4 PUSH2 0x1A6E JUMP JUMPDEST PUSH2 0x71C JUMP JUMPDEST PUSH2 0x238 PUSH2 0x2D3 CALLDATASIZE PUSH1 0x4 PUSH2 0x1A6E JUMP JUMPDEST PUSH2 0x752 JUMP JUMPDEST PUSH2 0x304 PUSH2 0x2E6 CALLDATASIZE PUSH1 0x4 PUSH2 0x1A98 JUMP JUMPDEST PUSH1 0x1 PUSH1 0x1 PUSH1 0xA0 SHL SUB SWAP1 DUP2 AND PUSH1 0x0 SWAP1 DUP2 MSTORE PUSH1 0x9 PUSH1 0x20 MSTORE PUSH1 0x40 SWAP1 KECCAK256 SLOAD AND SWAP1 JUMP JUMPDEST PUSH1 0x40 MLOAD PUSH1 0x1 PUSH1 0x1 PUSH1 0xA0 SHL SUB SWAP1 SWAP2 AND DUP2 MSTORE PUSH1 0x20 ADD PUSH2 0x207 JUMP JUMPDEST PUSH2 0x304 PUSH2 0x32A CALLDATASIZE PUSH1 0x4 PUSH2 0x1AEF JUMP JUMPDEST PUSH2 0x7D8 JUMP JUMPDEST PUSH2 0x342 PUSH2 0x33D CALLDATASIZE PUSH1 0x4 PUSH2 0x1A98 JUMP JUMPDEST PUSH2 0x871 JUMP JUMPDEST STOP JUMPDEST PUSH2 0x36A PUSH2 0x352 CALLDATASIZE PUSH1 0x4 PUSH2 0x1A98 JUMP JUMPDEST PUSH1 0xB PUSH1 0x20 MSTORE PUSH1 0x0 SWAP1 DUP2 MSTORE PUSH1 0x40 SWAP1 KECCAK256 SLOAD PUSH4 0xFFFFFFFF AND DUP2 JUMP JUMPDEST PUSH1 0x40 MLOAD PUSH4 0xFFFFFFFF SWAP1 SWAP2 AND DUP2 MSTORE PUSH1 0x20 ADD PUSH2 0x207 JUMP JUMPDEST PUSH2 0x1FD PUSH2 0x38D CALLDATASIZE PUSH1 0x4 PUSH2 0x1A98 JUMP JUMPDEST PUSH1 0x1 PUSH1 0x1 PUSH1 0xA0 SHL SUB AND PUSH1 0x0 SWAP1 DUP2 MSTORE PUSH1 0x1 PUSH1 0x20 MSTORE PUSH1 0x40 SWAP1 KECCAK256 SLOAD SWAP1 JUMP JUMPDEST PUSH2 0x342 PUSH2 0x87E JUMP JUMPDEST PUSH2 0x1FD PUSH2 0x3BE CALLDATASIZE PUSH1 0x4 PUSH2 0x1A6E JUMP JUMPDEST PUSH2 0x8B4 JUMP JUMPDEST PUSH2 0x1FD PUSH2 0x3D1 CALLDATASIZE PUSH1 0x4 PUSH2 0x1A98 JUMP JUMPDEST PUSH1 0xC PUSH1 0x20 MSTORE PUSH1 0x0 SWAP1 DUP2 MSTORE PUSH1 0x40 SWAP1 KECCAK256 SLOAD DUP2 JUMP JUMPDEST PUSH1 0x0 SLOAD PUSH1 0x1 PUSH1 0x1 PUSH1 0xA0 SHL SUB AND PUSH2 0x304 JUMP JUMPDEST PUSH2 0x218 PUSH2 0xB20 JUMP JUMPDEST PUSH2 0x238 PUSH2 0x40A CALLDATASIZE PUSH1 0x4 PUSH2 0x1A98 JUMP JUMPDEST PUSH2 0xB2F JUMP JUMPDEST PUSH2 0x238 PUSH2 0x41D CALLDATASIZE PUSH1 0x4 PUSH2 0x1AEF JUMP JUMPDEST PUSH2 0xBCC JUMP JUMPDEST PUSH2 0x238 PUSH2 0x430 CALLDATASIZE PUSH1 0x4 PUSH2 0x1A6E JUMP JUMPDEST PUSH2 0xC09 JUMP JUMPDEST PUSH2 0x238 PUSH2 0x443 CALLDATASIZE PUSH1 0x4 PUSH2 0x1A6E JUMP JUMPDEST PUSH2 0xC58 JUMP JUMPDEST PUSH2 0x238 PUSH2 0x456 CALLDATASIZE PUSH1 0x4 PUSH2 0x1A98 JUMP JUMPDEST PUSH2 0xC65 JUMP JUMPDEST PUSH2 0x1FD PUSH2 0x469 CALLDATASIZE PUSH1 0x4 PUSH2 0x1A98 JUMP JUMPDEST PUSH2 0xC72 JUMP JUMPDEST PUSH2 0x342 PUSH2 0x47C CALLDATASIZE PUSH1 0x4 PUSH2 0x1B08 JUMP JUMPDEST PUSH2 0xCE7 JUMP JUMPDEST PUSH2 0x1FD PUSH2 0x48F CALLDATASIZE PUSH1 0x4 PUSH2 0x1B68 JUMP JUMPDEST PUSH1 0x1 PUSH1 0x1 PUSH1 0xA0 SHL SUB SWAP2 DUP3 AND PUSH1 0x0 SWAP1 DUP2 MSTORE PUSH1 0x2 PUSH1 0x20 SWAP1 DUP2 MSTORE PUSH1 0x40 DUP1 DUP4 KECCAK256 SWAP4 SWAP1 SWAP5 AND DUP3 MSTORE SWAP2 SWAP1 SWAP2 MSTORE KECCAK256 SLOAD SWAP1 JUMP JUMPDEST PUSH2 0x1FD PUSH32 0xE48329057BFD03D55E49B547132E39CFFD9C1820AD7B9D4C5307691425D15ADF DUP2 JUMP JUMPDEST PUSH2 0x51C PUSH2 0x4EF CALLDATASIZE PUSH1 0x4 PUSH2 0x1B9B JUMP JUMPDEST PUSH1 0xA PUSH1 0x20 SWAP1 DUP2 MSTORE PUSH1 0x0 SWAP3 DUP4 MSTORE PUSH1 0x40 DUP1 DUP5 KECCAK256 SWAP1 SWAP2 MSTORE SWAP1 DUP3 MSTORE SWAP1 KECCAK256 DUP1 SLOAD PUSH1 0x1 SWAP1 SWAP2 ADD SLOAD PUSH4 0xFFFFFFFF SWAP1 SWAP2 AND SWAP1 DUP3 JUMP JUMPDEST PUSH1 0x40 DUP1 MLOAD PUSH4 0xFFFFFFFF SWAP1 SWAP4 AND DUP4 MSTORE PUSH1 0x20 DUP4 ADD SWAP2 SWAP1 SWAP2 MSTORE ADD PUSH2 0x207 JUMP JUMPDEST PUSH2 0x342 PUSH2 0x546 CALLDATASIZE PUSH1 0x4 PUSH2 0x1A98 JUMP JUMPDEST PUSH2 0xFC1 JUMP JUMPDEST PUSH1 0x0 PUSH2 0x557 PUSH1 0x7 PUSH2 0x1059 JUMP JUMPDEST SWAP1 POP SWAP1 JUMP JUMPDEST PUSH1 0x60 PUSH1 0x6 DUP1 SLOAD PUSH2 0x56B SWAP1 PUSH2 0x1BDB JUMP JUMPDEST DUP1 PUSH1 0x1F ADD PUSH1 0x20 DUP1 SWAP2 DIV MUL PUSH1 0x20 ADD PUSH1 0x40 MLOAD SWAP1 DUP2 ADD PUSH1 0x40 MSTORE DUP1 SWAP3 SWAP2 SWAP1 DUP2 DUP2 MSTORE PUSH1 0x20 ADD DUP3 DUP1 SLOAD PUSH2 0x597 SWAP1 PUSH2 0x1BDB JUMP JUMPDEST DUP1 ISZERO PUSH2 0x5E4 JUMPI DUP1 PUSH1 0x1F LT PUSH2 0x5B9 JUMPI PUSH2 0x100 DUP1 DUP4 SLOAD DIV MUL DUP4 MSTORE SWAP2 PUSH1 0x20 ADD SWAP2 PUSH2 0x5E4 JUMP JUMPDEST DUP3 ADD SWAP2 SWAP1 PUSH1 0x0 MSTORE PUSH1 0x20 PUSH1 0x0 KECCAK256 SWAP1 JUMPDEST DUP2 SLOAD DUP2 MSTORE SWAP1 PUSH1 0x1 ADD SWAP1 PUSH1 0x20 ADD DUP1 DUP4 GT PUSH2 0x5C7 JUMPI DUP3 SWAP1 SUB PUSH1 0x1F AND DUP3 ADD SWAP2 JUMPDEST POP POP POP POP POP SWAP1 POP SWAP1 JUMP JUMPDEST PUSH1 0x0 PUSH2 0x5FB CALLER DUP5 DUP5 PUSH2 0x1063 JUMP JUMPDEST POP PUSH1 0x1 JUMPDEST SWAP3 SWAP2 POP POP JUMP JUMPDEST PUSH1 0x0 DUP1 SLOAD PUSH1 0x1 PUSH1 0x1 PUSH1 0xA0 SHL SUB AND CALLER EQ PUSH2 0x639 JUMPI PUSH1 0x40 MLOAD PUSH3 0x461BCD PUSH1 0xE5 SHL DUP2 MSTORE PUSH1 0x4 ADD PUSH2 0x630 SWAP1 PUSH2 0x1C15 JUMP JUMPDEST PUSH1 0x40 MLOAD DUP1 SWAP2 SUB SWAP1 REVERT JUMPDEST PUSH1 0x1 PUSH1 0x1 PUSH1 0xA0 SHL SUB DUP3 AND PUSH2 0x6A0 JUMPI PUSH1 0x40 MLOAD PUSH3 0x461BCD PUSH1 0xE5 SHL DUP2 MSTORE PUSH1 0x20 PUSH1 0x4 DUP3 ADD MSTORE PUSH1 0x28 PUSH1 0x24 DUP3 ADD MSTORE PUSH32 0x4C414E44424153453A205F64656C4D696E74657220697320746865207A65726F PUSH1 0x44 DUP3 ADD MSTORE PUSH8 0x2061646472657373 PUSH1 0xC0 SHL PUSH1 0x64 DUP3 ADD MSTORE PUSH1 0x84 ADD PUSH2 0x630 JUMP JUMPDEST PUSH2 0x6AB PUSH1 0x7 DUP4 PUSH2 0x1188 JUMP JUMPDEST SWAP1 POP JUMPDEST SWAP2 SWAP1 POP JUMP JUMPDEST PUSH1 0x0 PUSH2 0x6C0 DUP5 DUP5 DUP5 PUSH2 0x119D JUMP JUMPDEST PUSH2 0x712 DUP5 CALLER PUSH2 0x70D DUP6 PUSH1 0x40 MLOAD DUP1 PUSH1 0x60 ADD PUSH1 0x40 MSTORE DUP1 PUSH1 0x28 DUP2 MSTORE PUSH1 0x20 ADD PUSH2 0x1D8B PUSH1 0x28 SWAP2 CODECOPY PUSH1 0x1 PUSH1 0x1 PUSH1 0xA0 SHL SUB DUP11 AND PUSH1 0x0 SWAP1 DUP2 MSTORE PUSH1 0x2 PUSH1 0x20 SWAP1 DUP2 MSTORE PUSH1 0x40 DUP1 DUP4 KECCAK256 CALLER DUP5 MSTORE SWAP1 SWAP2 MSTORE SWAP1 KECCAK256 SLOAD SWAP2 SWAP1 PUSH2 0x1323 JUMP JUMPDEST PUSH2 0x1063 JUMP JUMPDEST POP PUSH1 0x1 SWAP4 SWAP3 POP POP POP JUMP JUMPDEST CALLER PUSH1 0x0 DUP2 DUP2 MSTORE PUSH1 0x2 PUSH1 0x20 SWAP1 DUP2 MSTORE PUSH1 0x40 DUP1 DUP4 KECCAK256 PUSH1 0x1 PUSH1 0x1 PUSH1 0xA0 SHL SUB DUP8 AND DUP5 MSTORE SWAP1 SWAP2 MSTORE DUP2 KECCAK256 SLOAD SWAP1 SWAP2 PUSH2 0x5FB SWAP2 DUP6 SWAP1 PUSH2 0x70D SWAP1 DUP7 PUSH2 0x134F JUMP JUMPDEST PUSH1 0x0 PUSH2 0x75D CALLER PUSH2 0xC65 JUMP JUMPDEST PUSH2 0x7A9 JUMPI PUSH1 0x40 MLOAD PUSH3 0x461BCD PUSH1 0xE5 SHL DUP2 MSTORE PUSH1 0x20 PUSH1 0x4 DUP3 ADD MSTORE PUSH1 0x18 PUSH1 0x24 DUP3 ADD MSTORE PUSH32 0x63616C6C6572206973206E6F7420746865206D696E7465720000000000000000 PUSH1 0x44 DUP3 ADD MSTORE PUSH1 0x64 ADD PUSH2 0x630 JUMP JUMPDEST PUSH2 0x7B3 DUP4 DUP4 PUSH2 0x135B JUMP JUMPDEST PUSH1 0x1 PUSH1 0x1 PUSH1 0xA0 SHL SUB DUP1 DUP5 AND PUSH1 0x0 SWAP1 DUP2 MSTORE PUSH1 0x9 PUSH1 0x20 MSTORE PUSH1 0x40 DUP2 KECCAK256 SLOAD PUSH2 0x5FB SWAP3 AND DUP5 PUSH2 0x1441 JUMP JUMPDEST PUSH1 0x0 DUP1 SLOAD PUSH1 0x1 PUSH1 0x1 PUSH1 0xA0 SHL SUB AND CALLER EQ PUSH2 0x803 JUMPI PUSH1 0x40 MLOAD PUSH3 0x461BCD PUSH1 0xE5 SHL DUP2 MSTORE PUSH1 0x4 ADD PUSH2 0x630 SWAP1 PUSH2 0x1C15 JUMP JUMPDEST PUSH1 0x1 PUSH2 0x80D PUSH2 0x54B JUMP JUMPDEST PUSH2 0x817 SWAP2 SWAP1 PUSH2 0x1C60 JUMP JUMPDEST DUP3 GT ISZERO PUSH2 0x866 JUMPI PUSH1 0x40 MLOAD PUSH3 0x461BCD PUSH1 0xE5 SHL DUP2 MSTORE PUSH1 0x20 PUSH1 0x4 DUP3 ADD MSTORE PUSH1 0x1D PUSH1 0x24 DUP3 ADD MSTORE PUSH32 0x4C414E44424153453A20696E646578206F7574206F6620626F756E6473000000 PUSH1 0x44 DUP3 ADD MSTORE PUSH1 0x64 ADD PUSH2 0x630 JUMP JUMPDEST PUSH2 0x6AB PUSH1 0x7 DUP4 PUSH2 0x15A5 JUMP JUMPDEST PUSH2 0x87B CALLER DUP3 PUSH2 0x15B1 JUMP JUMPDEST POP JUMP JUMPDEST PUSH1 0x0 SLOAD PUSH1 0x1 PUSH1 0x1 PUSH1 0xA0 SHL SUB AND CALLER EQ PUSH2 0x8A8 JUMPI PUSH1 0x40 MLOAD PUSH3 0x461BCD PUSH1 0xE5 SHL DUP2 MSTORE PUSH1 0x4 ADD PUSH2 0x630 SWAP1 PUSH2 0x1C15 JUMP JUMPDEST PUSH2 0x8B2 PUSH1 0x0 PUSH2 0x1631 JUMP JUMPDEST JUMP JUMPDEST PUSH1 0x0 NUMBER DUP3 LT PUSH2 0x919 JUMPI PUSH1 0x40 MLOAD PUSH3 0x461BCD PUSH1 0xE5 SHL DUP2 MSTORE PUSH1 0x20 PUSH1 0x4 DUP3 ADD MSTORE PUSH1 0x2B PUSH1 0x24 DUP3 ADD MSTORE PUSH32 0x4C414E44424153453A3A6765745072696F72566F7465733A206E6F7420796574 PUSH1 0x44 DUP3 ADD MSTORE PUSH11 0x819195D195C9B5A5B9959 PUSH1 0xAA SHL PUSH1 0x64 DUP3 ADD MSTORE PUSH1 0x84 ADD PUSH2 0x630 JUMP JUMPDEST PUSH1 0x1 PUSH1 0x1 PUSH1 0xA0 SHL SUB DUP4 AND PUSH1 0x0 SWAP1 DUP2 MSTORE PUSH1 0xB PUSH1 0x20 MSTORE PUSH1 0x40 DUP2 KECCAK256 SLOAD PUSH4 0xFFFFFFFF AND SWAP1 DUP2 SWAP1 SUB PUSH2 0x94A JUMPI PUSH1 0x0 SWAP2 POP POP PUSH2 0x5FF JUMP JUMPDEST PUSH1 0x1 PUSH1 0x1 PUSH1 0xA0 SHL SUB DUP5 AND PUSH1 0x0 SWAP1 DUP2 MSTORE PUSH1 0xA PUSH1 0x20 MSTORE PUSH1 0x40 DUP2 KECCAK256 DUP5 SWAP2 PUSH2 0x96F PUSH1 0x1 DUP6 PUSH2 0x1C77 JUMP JUMPDEST PUSH4 0xFFFFFFFF SWAP1 DUP2 AND DUP3 MSTORE PUSH1 0x20 DUP3 ADD SWAP3 SWAP1 SWAP3 MSTORE PUSH1 0x40 ADD PUSH1 0x0 KECCAK256 SLOAD AND GT PUSH2 0x9D8 JUMPI PUSH1 0x1 PUSH1 0x1 PUSH1 0xA0 SHL SUB DUP5 AND PUSH1 0x0 SWAP1 DUP2 MSTORE PUSH1 0xA PUSH1 0x20 MSTORE PUSH1 0x40 DUP2 KECCAK256 SWAP1 PUSH2 0x9B2 PUSH1 0x1 DUP5 PUSH2 0x1C77 JUMP JUMPDEST PUSH4 0xFFFFFFFF AND PUSH4 0xFFFFFFFF AND DUP2 MSTORE PUSH1 0x20 ADD SWAP1 DUP2 MSTORE PUSH1 0x20 ADD PUSH1 0x0 KECCAK256 PUSH1 0x1 ADD SLOAD SWAP2 POP POP PUSH2 0x5FF JUMP JUMPDEST PUSH1 0x1 PUSH1 0x1 PUSH1 0xA0 SHL SUB DUP5 AND PUSH1 0x0 SWAP1 DUP2 MSTORE PUSH1 0xA PUSH1 0x20 SWAP1 DUP2 MSTORE PUSH1 0x40 DUP1 DUP4 KECCAK256 DUP4 DUP1 MSTORE SWAP1 SWAP2 MSTORE SWAP1 KECCAK256 SLOAD PUSH4 0xFFFFFFFF AND DUP4 LT ISZERO PUSH2 0xA13 JUMPI PUSH1 0x0 SWAP2 POP POP PUSH2 0x5FF JUMP JUMPDEST PUSH1 0x0 DUP1 PUSH2 0xA21 PUSH1 0x1 DUP5 PUSH2 0x1C77 JUMP JUMPDEST SWAP1 POP JUMPDEST DUP2 PUSH4 0xFFFFFFFF AND DUP2 PUSH4 0xFFFFFFFF AND GT ISZERO PUSH2 0xAE9 JUMPI PUSH1 0x0 PUSH1 0x2 PUSH2 0xA46 DUP5 DUP5 PUSH2 0x1C77 JUMP JUMPDEST PUSH2 0xA50 SWAP2 SWAP1 PUSH2 0x1C9C JUMP JUMPDEST PUSH2 0xA5A SWAP1 DUP4 PUSH2 0x1C77 JUMP JUMPDEST PUSH1 0x1 PUSH1 0x1 PUSH1 0xA0 SHL SUB DUP9 AND PUSH1 0x0 SWAP1 DUP2 MSTORE PUSH1 0xA PUSH1 0x20 SWAP1 DUP2 MSTORE PUSH1 0x40 DUP1 DUP4 KECCAK256 PUSH4 0xFFFFFFFF DUP1 DUP7 AND DUP6 MSTORE SWAP1 DUP4 MSTORE SWAP3 DUP2 SWAP1 KECCAK256 DUP2 MLOAD DUP1 DUP4 ADD SWAP1 SWAP3 MSTORE DUP1 SLOAD SWAP1 SWAP4 AND DUP1 DUP3 MSTORE PUSH1 0x1 SWAP1 SWAP4 ADD SLOAD SWAP2 DUP2 ADD SWAP2 SWAP1 SWAP2 MSTORE SWAP2 SWAP3 POP DUP8 SWAP1 SUB PUSH2 0xABD JUMPI PUSH1 0x20 ADD MLOAD SWAP5 POP PUSH2 0x5FF SWAP4 POP POP POP POP JUMP JUMPDEST DUP1 MLOAD PUSH4 0xFFFFFFFF AND DUP8 GT ISZERO PUSH2 0xAD4 JUMPI DUP2 SWAP4 POP PUSH2 0xAE2 JUMP JUMPDEST PUSH2 0xADF PUSH1 0x1 DUP4 PUSH2 0x1C77 JUMP JUMPDEST SWAP3 POP JUMPDEST POP POP PUSH2 0xA24 JUMP JUMPDEST POP PUSH1 0x1 PUSH1 0x1 PUSH1 0xA0 SHL SUB DUP6 AND PUSH1 0x0 SWAP1 DUP2 MSTORE PUSH1 0xA PUSH1 0x20 SWAP1 DUP2 MSTORE PUSH1 0x40 DUP1 DUP4 KECCAK256 PUSH4 0xFFFFFFFF SWAP1 SWAP5 AND DUP4 MSTORE SWAP3 SWAP1 MSTORE KECCAK256 PUSH1 0x1 ADD SLOAD SWAP2 POP POP SWAP3 SWAP2 POP POP JUMP JUMPDEST PUSH1 0x60 PUSH1 0x5 DUP1 SLOAD PUSH2 0x56B SWAP1 PUSH2 0x1BDB JUMP JUMPDEST PUSH1 0x0 DUP1 SLOAD PUSH1 0x1 PUSH1 0x1 PUSH1 0xA0 SHL SUB AND CALLER EQ PUSH2 0xB5A JUMPI PUSH1 0x40 MLOAD PUSH3 0x461BCD PUSH1 0xE5 SHL DUP2 MSTORE PUSH1 0x4 ADD PUSH2 0x630 SWAP1 PUSH2 0x1C15 JUMP JUMPDEST PUSH1 0x1 PUSH1 0x1 PUSH1 0xA0 SHL SUB DUP3 AND PUSH2 0xBC1 JUMPI PUSH1 0x40 MLOAD PUSH3 0x461BCD PUSH1 0xE5 SHL DUP2 MSTORE PUSH1 0x20 PUSH1 0x4 DUP3 ADD MSTORE PUSH1 0x28 PUSH1 0x24 DUP3 ADD MSTORE PUSH32 0x4C414E44424153453A205F6164644D696E74657220697320746865207A65726F PUSH1 0x44 DUP3 ADD MSTORE PUSH8 0x2061646472657373 PUSH1 0xC0 SHL PUSH1 0x64 DUP3 ADD MSTORE PUSH1 0x84 ADD PUSH2 0x630 JUMP JUMPDEST PUSH2 0x6AB PUSH1 0x7 DUP4 PUSH2 0x1681 JUMP JUMPDEST PUSH1 0x0 DUP1 SLOAD PUSH1 0x1 PUSH1 0x1 PUSH1 0xA0 SHL SUB AND CALLER EQ PUSH2 0xBF7 JUMPI PUSH1 0x40 MLOAD PUSH3 0x461BCD PUSH1 0xE5 SHL DUP2 MSTORE PUSH1 0x4 ADD PUSH2 0x630 SWAP1 PUSH2 0x1C15 JUMP JUMPDEST PUSH2 0xC01 CALLER DUP4 PUSH2 0x135B JUMP JUMPDEST POP PUSH1 0x1 SWAP2 SWAP1 POP JUMP JUMPDEST PUSH1 0x0 PUSH2 0x5FB CALLER DUP5 PUSH2 0x70D DUP6 PUSH1 0x40 MLOAD DUP1 PUSH1 0x60 ADD PUSH1 0x40 MSTORE DUP1 PUSH1 0x25 DUP2 MSTORE PUSH1 0x20 ADD PUSH2 0x1DD9 PUSH1 0x25 SWAP2 CODECOPY CALLER PUSH1 0x0 SWAP1 DUP2 MSTORE PUSH1 0x2 PUSH1 0x20 SWAP1 DUP2 MSTORE PUSH1 0x40 DUP1 DUP4 KECCAK256 PUSH1 0x1 PUSH1 0x1 PUSH1 0xA0 SHL SUB DUP14 AND DUP5 MSTORE SWAP1 SWAP2 MSTORE SWAP1 KECCAK256 SLOAD SWAP2 SWAP1 PUSH2 0x1323 JUMP JUMPDEST PUSH1 0x0 PUSH2 0x5FB CALLER DUP5 DUP5 PUSH2 0x119D JUMP JUMPDEST PUSH1 0x0 PUSH2 0x6AB PUSH1 0x7 DUP4 PUSH2 0x1696 JUMP JUMPDEST PUSH1 0x1 PUSH1 0x1 PUSH1 0xA0 SHL SUB DUP2 AND PUSH1 0x0 SWAP1 DUP2 MSTORE PUSH1 0xB PUSH1 0x20 MSTORE PUSH1 0x40 DUP2 KECCAK256 SLOAD PUSH4 0xFFFFFFFF AND DUP1 PUSH2 0xC9D JUMPI PUSH1 0x0 PUSH2 0xCE0 JUMP JUMPDEST PUSH1 0x1 PUSH1 0x1 PUSH1 0xA0 SHL SUB DUP4 AND PUSH1 0x0 SWAP1 DUP2 MSTORE PUSH1 0xA PUSH1 0x20 MSTORE PUSH1 0x40 DUP2 KECCAK256 SWAP1 PUSH2 0xCC1 PUSH1 0x1 DUP5 PUSH2 0x1C77 JUMP JUMPDEST PUSH4 0xFFFFFFFF AND PUSH4 0xFFFFFFFF AND DUP2 MSTORE PUSH1 0x20 ADD SWAP1 DUP2 MSTORE PUSH1 0x20 ADD PUSH1 0x0 KECCAK256 PUSH1 0x1 ADD SLOAD JUMPDEST SWAP4 SWAP3 POP POP POP JUMP JUMPDEST PUSH1 0x0 PUSH32 0x8CAD95687BA82C2CE50E74F7B754645E5117C3A5BEC8151C0726D5857980A866 PUSH2 0xD12 PUSH2 0x55C JUMP JUMPDEST DUP1 MLOAD SWAP1 PUSH1 0x20 ADD KECCAK256 PUSH2 0xD20 CHAINID SWAP1 JUMP JUMPDEST PUSH1 0x40 DUP1 MLOAD PUSH1 0x20 DUP1 DUP3 ADD SWAP6 SWAP1 SWAP6 MSTORE DUP1 DUP3 ADD SWAP4 SWAP1 SWAP4 MSTORE PUSH1 0x60 DUP4 ADD SWAP2 SWAP1 SWAP2 MSTORE ADDRESS PUSH1 0x80 DUP1 DUP5 ADD SWAP2 SWAP1 SWAP2 MSTORE DUP2 MLOAD DUP1 DUP5 SUB SWAP1 SWAP2 ADD DUP2 MSTORE PUSH1 0xA0 DUP4 ADD DUP3 MSTORE DUP1 MLOAD SWAP1 DUP5 ADD KECCAK256 PUSH32 0xE48329057BFD03D55E49B547132E39CFFD9C1820AD7B9D4C5307691425D15ADF PUSH1 0xC0 DUP5 ADD MSTORE PUSH1 0x1 PUSH1 0x1 PUSH1 0xA0 SHL SUB DUP12 AND PUSH1 0xE0 DUP5 ADD MSTORE PUSH2 0x100 DUP4 ADD DUP11 SWAP1 MSTORE PUSH2 0x120 DUP1 DUP5 ADD DUP11 SWAP1 MSTORE DUP3 MLOAD DUP1 DUP6 SUB SWAP1 SWAP2 ADD DUP2 MSTORE PUSH2 0x140 DUP5 ADD SWAP1 SWAP3 MSTORE DUP2 MLOAD SWAP2 SWAP1 SWAP4 ADD KECCAK256 PUSH2 0x1901 PUSH1 0xF0 SHL PUSH2 0x160 DUP4 ADD MSTORE PUSH2 0x162 DUP3 ADD DUP4 SWAP1 MSTORE PUSH2 0x182 DUP3 ADD DUP2 SWAP1 MSTORE SWAP2 SWAP3 POP PUSH1 0x0 SWAP1 PUSH2 0x1A2 ADD PUSH1 0x40 DUP1 MLOAD PUSH1 0x1F NOT DUP2 DUP5 SUB ADD DUP2 MSTORE DUP3 DUP3 MSTORE DUP1 MLOAD PUSH1 0x20 SWAP2 DUP3 ADD KECCAK256 PUSH1 0x0 DUP1 DUP6 MSTORE SWAP2 DUP5 ADD DUP1 DUP5 MSTORE DUP2 SWAP1 MSTORE PUSH1 0xFF DUP11 AND SWAP3 DUP5 ADD SWAP3 SWAP1 SWAP3 MSTORE PUSH1 0x60 DUP4 ADD DUP9 SWAP1 MSTORE PUSH1 0x80 DUP4 ADD DUP8 SWAP1 MSTORE SWAP1 SWAP3 POP SWAP1 PUSH1 0x1 SWAP1 PUSH1 0xA0 ADD PUSH1 0x20 PUSH1 0x40 MLOAD PUSH1 0x20 DUP2 SUB SWAP1 DUP1 DUP5 SUB SWAP1 DUP6 GAS STATICCALL ISZERO DUP1 ISZERO PUSH2 0xE4C JUMPI RETURNDATASIZE PUSH1 0x0 DUP1 RETURNDATACOPY RETURNDATASIZE PUSH1 0x0 REVERT JUMPDEST POP POP PUSH1 0x40 MLOAD PUSH1 0x1F NOT ADD MLOAD SWAP2 POP POP PUSH1 0x1 PUSH1 0x1 PUSH1 0xA0 SHL SUB DUP2 AND PUSH2 0xEC2 JUMPI PUSH1 0x40 MLOAD PUSH3 0x461BCD PUSH1 0xE5 SHL DUP2 MSTORE PUSH1 0x20 PUSH1 0x4 DUP3 ADD MSTORE PUSH1 0x2A PUSH1 0x24 DUP3 ADD MSTORE PUSH32 0x4C414E44424153453A3A64656C656761746542795369673A20696E76616C6964 PUSH1 0x44 DUP3 ADD MSTORE PUSH10 0x207369676E6174757265 PUSH1 0xB0 SHL PUSH1 0x64 DUP3 ADD MSTORE PUSH1 0x84 ADD PUSH2 0x630 JUMP JUMPDEST PUSH1 0x1 PUSH1 0x1 PUSH1 0xA0 SHL SUB DUP2 AND PUSH1 0x0 SWAP1 DUP2 MSTORE PUSH1 0xC PUSH1 0x20 MSTORE PUSH1 0x40 DUP2 KECCAK256 DUP1 SLOAD SWAP2 PUSH2 0xEE6 DUP4 PUSH2 0x1CCD JUMP JUMPDEST SWAP2 SWAP1 POP SSTORE DUP10 EQ PUSH2 0xF47 JUMPI PUSH1 0x40 MLOAD PUSH3 0x461BCD PUSH1 0xE5 SHL DUP2 MSTORE PUSH1 0x20 PUSH1 0x4 DUP3 ADD MSTORE PUSH1 0x26 PUSH1 0x24 DUP3 ADD MSTORE PUSH32 0x4C414E44424153453A3A64656C656761746542795369673A20696E76616C6964 PUSH1 0x44 DUP3 ADD MSTORE PUSH6 0x206E6F6E6365 PUSH1 0xD0 SHL PUSH1 0x64 DUP3 ADD MSTORE PUSH1 0x84 ADD PUSH2 0x630 JUMP JUMPDEST DUP8 TIMESTAMP GT ISZERO PUSH2 0xFAA JUMPI PUSH1 0x40 MLOAD PUSH3 0x461BCD PUSH1 0xE5 SHL DUP2 MSTORE PUSH1 0x20 PUSH1 0x4 DUP3 ADD MSTORE PUSH1 0x2A PUSH1 0x24 DUP3 ADD MSTORE PUSH32 0x4C414E44424153453A3A64656C656761746542795369673A207369676E617475 PUSH1 0x44 DUP3 ADD MSTORE PUSH10 0x1C9948195E1C1A5C9959 PUSH1 0xB2 SHL PUSH1 0x64 DUP3 ADD MSTORE PUSH1 0x84 ADD PUSH2 0x630 JUMP JUMPDEST PUSH2 0xFB4 DUP2 DUP12 PUSH2 0x15B1 JUMP JUMPDEST POP POP POP POP JUMPDEST POP POP POP POP POP POP JUMP JUMPDEST PUSH1 0x0 SLOAD PUSH1 0x1 PUSH1 0x1 PUSH1 0xA0 SHL SUB AND CALLER EQ PUSH2 0xFEB JUMPI PUSH1 0x40 MLOAD PUSH3 0x461BCD PUSH1 0xE5 SHL DUP2 MSTORE PUSH1 0x4 ADD PUSH2 0x630 SWAP1 PUSH2 0x1C15 JUMP JUMPDEST PUSH1 0x1 PUSH1 0x1 PUSH1 0xA0 SHL SUB DUP2 AND PUSH2 0x1050 JUMPI PUSH1 0x40 MLOAD PUSH3 0x461BCD PUSH1 0xE5 SHL DUP2 MSTORE PUSH1 0x20 PUSH1 0x4 DUP3 ADD MSTORE PUSH1 0x26 PUSH1 0x24 DUP3 ADD MSTORE PUSH32 0x4F776E61626C653A206E6577206F776E657220697320746865207A65726F2061 PUSH1 0x44 DUP3 ADD MSTORE PUSH6 0x646472657373 PUSH1 0xD0 SHL PUSH1 0x64 DUP3 ADD MSTORE PUSH1 0x84 ADD PUSH2 0x630 JUMP JUMPDEST PUSH2 0x87B DUP2 PUSH2 0x1631 JUMP JUMPDEST PUSH1 0x0 PUSH2 0x6AB DUP3 SLOAD SWAP1 JUMP JUMPDEST PUSH1 0x1 PUSH1 0x1 PUSH1 0xA0 SHL SUB DUP4 AND PUSH2 0x10C5 JUMPI PUSH1 0x40 MLOAD PUSH3 0x461BCD PUSH1 0xE5 SHL DUP2 MSTORE PUSH1 0x20 PUSH1 0x4 DUP3 ADD MSTORE PUSH1 0x24 DUP1 DUP3 ADD MSTORE PUSH32 0x42455032303A20617070726F76652066726F6D20746865207A65726F20616464 PUSH1 0x44 DUP3 ADD MSTORE PUSH4 0x72657373 PUSH1 0xE0 SHL PUSH1 0x64 DUP3 ADD MSTORE PUSH1 0x84 ADD PUSH2 0x630 JUMP JUMPDEST PUSH1 0x1 PUSH1 0x1 PUSH1 0xA0 SHL SUB DUP3 AND PUSH2 0x1126 JUMPI PUSH1 0x40 MLOAD PUSH3 0x461BCD PUSH1 0xE5 SHL DUP2 MSTORE PUSH1 0x20 PUSH1 0x4 DUP3 ADD MSTORE PUSH1 0x22 PUSH1 0x24 DUP3 ADD MSTORE PUSH32 0x42455032303A20617070726F766520746F20746865207A65726F206164647265 PUSH1 0x44 DUP3 ADD MSTORE PUSH2 0x7373 PUSH1 0xF0 SHL PUSH1 0x64 DUP3 ADD MSTORE PUSH1 0x84 ADD PUSH2 0x630 JUMP JUMPDEST PUSH1 0x1 PUSH1 0x1 PUSH1 0xA0 SHL SUB DUP4 DUP2 AND PUSH1 0x0 DUP2 DUP2 MSTORE PUSH1 0x2 PUSH1 0x20 SWAP1 DUP2 MSTORE PUSH1 0x40 DUP1 DUP4 KECCAK256 SWAP5 DUP8 AND DUP1 DUP5 MSTORE SWAP5 DUP3 MSTORE SWAP2 DUP3 SWAP1 KECCAK256 DUP6 SWAP1 SSTORE SWAP1 MLOAD DUP5 DUP2 MSTORE PUSH32 0x8C5BE1E5EBEC7D5BD14F71427D1E84F3DD0314C0F7B2291E5B200AC8C7C3B925 SWAP2 ADD JUMPDEST PUSH1 0x40 MLOAD DUP1 SWAP2 SUB SWAP1 LOG3 POP POP POP JUMP JUMPDEST PUSH1 0x0 PUSH2 0xCE0 DUP4 PUSH1 0x1 PUSH1 0x1 PUSH1 0xA0 SHL SUB DUP5 AND PUSH2 0x16B8 JUMP JUMPDEST PUSH1 0x1 PUSH1 0x1 PUSH1 0xA0 SHL SUB DUP4 AND PUSH2 0x1201 JUMPI PUSH1 0x40 MLOAD PUSH3 0x461BCD PUSH1 0xE5 SHL DUP2 MSTORE PUSH1 0x20 PUSH1 0x4 DUP3 ADD MSTORE PUSH1 0x25 PUSH1 0x24 DUP3 ADD MSTORE PUSH32 0x42455032303A207472616E736665722066726F6D20746865207A65726F206164 PUSH1 0x44 DUP3 ADD MSTORE PUSH5 0x6472657373 PUSH1 0xD8 SHL PUSH1 0x64 DUP3 ADD MSTORE PUSH1 0x84 ADD PUSH2 0x630 JUMP JUMPDEST PUSH1 0x1 PUSH1 0x1 PUSH1 0xA0 SHL SUB DUP3 AND PUSH2 0x1263 JUMPI PUSH1 0x40 MLOAD PUSH3 0x461BCD PUSH1 0xE5 SHL DUP2 MSTORE PUSH1 0x20 PUSH1 0x4 DUP3 ADD MSTORE PUSH1 0x23 PUSH1 0x24 DUP3 ADD MSTORE PUSH32 0x42455032303A207472616E7366657220746F20746865207A65726F2061646472 PUSH1 0x44 DUP3 ADD MSTORE PUSH3 0x657373 PUSH1 0xE8 SHL PUSH1 0x64 DUP3 ADD MSTORE PUSH1 0x84 ADD PUSH2 0x630 JUMP JUMPDEST PUSH2 0x12A0 DUP2 PUSH1 0x40 MLOAD DUP1 PUSH1 0x60 ADD PUSH1 0x40 MSTORE DUP1 PUSH1 0x26 DUP2 MSTORE PUSH1 0x20 ADD PUSH2 0x1DB3 PUSH1 0x26 SWAP2 CODECOPY PUSH1 0x1 PUSH1 0x1 PUSH1 0xA0 SHL SUB DUP7 AND PUSH1 0x0 SWAP1 DUP2 MSTORE PUSH1 0x1 PUSH1 0x20 MSTORE PUSH1 0x40 SWAP1 KECCAK256 SLOAD SWAP2 SWAP1 PUSH2 0x1323 JUMP JUMPDEST PUSH1 0x1 PUSH1 0x1 PUSH1 0xA0 SHL SUB DUP1 DUP6 AND PUSH1 0x0 SWAP1 DUP2 MSTORE PUSH1 0x1 PUSH1 0x20 MSTORE PUSH1 0x40 DUP1 DUP3 KECCAK256 SWAP4 SWAP1 SWAP4 SSTORE SWAP1 DUP5 AND DUP2 MSTORE KECCAK256 SLOAD PUSH2 0x12CF SWAP1 DUP3 PUSH2 0x134F JUMP JUMPDEST PUSH1 0x1 PUSH1 0x1 PUSH1 0xA0 SHL SUB DUP1 DUP5 AND PUSH1 0x0 DUP2 DUP2 MSTORE PUSH1 0x1 PUSH1 0x20 MSTORE PUSH1 0x40 SWAP1 DUP2 SWAP1 KECCAK256 SWAP4 SWAP1 SWAP4 SSTORE SWAP2 MLOAD SWAP1 DUP6 AND SWAP1 PUSH32 0xDDF252AD1BE2C89B69C2B068FC378DAA952BA7F163C4A11628F55A4DF523B3EF SWAP1 PUSH2 0x117B SWAP1 DUP6 DUP2 MSTORE PUSH1 0x20 ADD SWAP1 JUMP JUMPDEST PUSH1 0x0 DUP2 DUP5 DUP5 GT ISZERO PUSH2 0x1347 JUMPI PUSH1 0x40 MLOAD PUSH3 0x461BCD PUSH1 0xE5 SHL DUP2 MSTORE PUSH1 0x4 ADD PUSH2 0x630 SWAP2 SWAP1 PUSH2 0x1A02 JUMP JUMPDEST POP POP POP SWAP1 SUB SWAP1 JUMP JUMPDEST PUSH1 0x0 PUSH2 0xCE0 DUP3 DUP5 PUSH2 0x1CE6 JUMP JUMPDEST PUSH1 0x1 PUSH1 0x1 PUSH1 0xA0 SHL SUB DUP3 AND PUSH2 0x13B1 JUMPI PUSH1 0x40 MLOAD PUSH3 0x461BCD PUSH1 0xE5 SHL DUP2 MSTORE PUSH1 0x20 PUSH1 0x4 DUP3 ADD MSTORE PUSH1 0x1F PUSH1 0x24 DUP3 ADD MSTORE PUSH32 0x42455032303A206D696E7420746F20746865207A65726F206164647265737300 PUSH1 0x44 DUP3 ADD MSTORE PUSH1 0x64 ADD PUSH2 0x630 JUMP JUMPDEST PUSH1 0x3 SLOAD PUSH2 0x13BE SWAP1 DUP3 PUSH2 0x134F JUMP JUMPDEST PUSH1 0x3 SSTORE PUSH1 0x1 PUSH1 0x1 PUSH1 0xA0 SHL SUB DUP3 AND PUSH1 0x0 SWAP1 DUP2 MSTORE PUSH1 0x1 PUSH1 0x20 MSTORE PUSH1 0x40 SWAP1 KECCAK256 SLOAD PUSH2 0x13E4 SWAP1 DUP3 PUSH2 0x134F JUMP JUMPDEST PUSH1 0x1 PUSH1 0x1 PUSH1 0xA0 SHL SUB DUP4 AND PUSH1 0x0 DUP2 DUP2 MSTORE PUSH1 0x1 PUSH1 0x20 MSTORE PUSH1 0x40 DUP1 DUP3 KECCAK256 SWAP4 SWAP1 SWAP4 SSTORE SWAP2 MLOAD SWAP1 SWAP2 SWAP1 PUSH32 0xDDF252AD1BE2C89B69C2B068FC378DAA952BA7F163C4A11628F55A4DF523B3EF SWAP1 PUSH2 0x1435 SWAP1 DUP6 DUP2 MSTORE PUSH1 0x20 ADD SWAP1 JUMP JUMPDEST PUSH1 0x40 MLOAD DUP1 SWAP2 SUB SWAP1 LOG3 POP POP JUMP JUMPDEST DUP2 PUSH1 0x1 PUSH1 0x1 PUSH1 0xA0 SHL SUB AND DUP4 PUSH1 0x1 PUSH1 0x1 PUSH1 0xA0 SHL SUB AND EQ ISZERO DUP1 ISZERO PUSH2 0x1463 JUMPI POP PUSH1 0x0 DUP2 GT JUMPDEST ISZERO PUSH2 0x15A0 JUMPI PUSH1 0x1 PUSH1 0x1 PUSH1 0xA0 SHL SUB DUP4 AND ISZERO PUSH2 0x1506 JUMPI PUSH1 0x1 PUSH1 0x1 PUSH1 0xA0 SHL SUB DUP4 AND PUSH1 0x0 SWAP1 DUP2 MSTORE PUSH1 0xB PUSH1 0x20 MSTORE PUSH1 0x40 DUP2 KECCAK256 SLOAD PUSH4 0xFFFFFFFF AND SWAP1 DUP2 PUSH2 0x14A3 JUMPI PUSH1 0x0 PUSH2 0x14E6 JUMP JUMPDEST PUSH1 0x1 PUSH1 0x1 PUSH1 0xA0 SHL SUB DUP6 AND PUSH1 0x0 SWAP1 DUP2 MSTORE PUSH1 0xA PUSH1 0x20 MSTORE PUSH1 0x40 DUP2 KECCAK256 SWAP1 PUSH2 0x14C7 PUSH1 0x1 DUP6 PUSH2 0x1C77 JUMP JUMPDEST PUSH4 0xFFFFFFFF AND PUSH4 0xFFFFFFFF AND DUP2 MSTORE PUSH1 0x20 ADD SWAP1 DUP2 MSTORE PUSH1 0x20 ADD PUSH1 0x0 KECCAK256 PUSH1 0x1 ADD SLOAD JUMPDEST SWAP1 POP PUSH1 0x0 PUSH2 0x14F4 DUP3 DUP6 PUSH2 0x17AB JUMP JUMPDEST SWAP1 POP PUSH2 0x1502 DUP7 DUP5 DUP5 DUP5 PUSH2 0x17B7 JUMP JUMPDEST POP POP POP JUMPDEST PUSH1 0x1 PUSH1 0x1 PUSH1 0xA0 SHL SUB DUP3 AND ISZERO PUSH2 0x15A0 JUMPI PUSH1 0x1 PUSH1 0x1 PUSH1 0xA0 SHL SUB DUP3 AND PUSH1 0x0 SWAP1 DUP2 MSTORE PUSH1 0xB PUSH1 0x20 MSTORE PUSH1 0x40 DUP2 KECCAK256 SLOAD PUSH4 0xFFFFFFFF AND SWAP1 DUP2 PUSH2 0x1541 JUMPI PUSH1 0x0 PUSH2 0x1584 JUMP JUMPDEST PUSH1 0x1 PUSH1 0x1 PUSH1 0xA0 SHL SUB DUP5 AND PUSH1 0x0 SWAP1 DUP2 MSTORE PUSH1 0xA PUSH1 0x20 MSTORE PUSH1 0x40 DUP2 KECCAK256 SWAP1 PUSH2 0x1565 PUSH1 0x1 DUP6 PUSH2 0x1C77 JUMP JUMPDEST PUSH4 0xFFFFFFFF AND PUSH4 0xFFFFFFFF AND DUP2 MSTORE PUSH1 0x20 ADD SWAP1 DUP2 MSTORE PUSH1 0x20 ADD PUSH1 0x0 KECCAK256 PUSH1 0x1 ADD SLOAD JUMPDEST SWAP1 POP PUSH1 0x0 PUSH2 0x1592 DUP3 DUP6 PUSH2 0x134F JUMP JUMPDEST SWAP1 POP PUSH2 0xFB9 DUP6 DUP5 DUP5 DUP5 PUSH2 0x17B7 JUMP JUMPDEST POP POP POP JUMP JUMPDEST PUSH1 0x0 PUSH2 0xCE0 DUP4 DUP4 PUSH2 0x1959 JUMP JUMPDEST PUSH1 0x1 PUSH1 0x1 PUSH1 0xA0 SHL SUB DUP3 DUP2 AND PUSH1 0x0 DUP2 DUP2 MSTORE PUSH1 0x9 PUSH1 0x20 DUP2 DUP2 MSTORE PUSH1 0x40 DUP1 DUP5 KECCAK256 DUP1 SLOAD PUSH1 0x1 DUP5 MSTORE DUP3 DUP7 KECCAK256 SLOAD SWAP5 SWAP1 SWAP4 MSTORE DUP8 DUP8 AND PUSH1 0x1 PUSH1 0x1 PUSH1 0xA0 SHL SUB NOT DUP5 AND DUP2 OR SWAP1 SWAP2 SSTORE SWAP1 MLOAD SWAP2 SWAP1 SWAP6 AND SWAP5 SWAP2 SWAP4 SWAP2 SWAP3 DUP6 SWAP3 SWAP2 PUSH32 0x3134E8A2E6D97E929A7E54011EA5485D7D196DD5F0BA4D4EF95803E8E3FC257F SWAP2 SWAP1 LOG4 PUSH2 0x162B DUP3 DUP5 DUP4 PUSH2 0x1441 JUMP JUMPDEST POP POP POP POP JUMP JUMPDEST PUSH1 0x0 DUP1 SLOAD PUSH1 0x1 PUSH1 0x1 PUSH1 0xA0 SHL SUB DUP4 DUP2 AND PUSH1 0x1 PUSH1 0x1 PUSH1 0xA0 SHL SUB NOT DUP4 AND DUP2 OR DUP5 SSTORE PUSH1 0x40 MLOAD SWAP2 SWAP1 SWAP3 AND SWAP3 DUP4 SWAP2 PUSH32 0x8BE0079C531659141344CD1FD0A4F28419497F9722A3DAAFE3B4186F6B6457E0 SWAP2 SWAP1 LOG3 POP POP JUMP JUMPDEST PUSH1 0x0 PUSH2 0xCE0 DUP4 PUSH1 0x1 PUSH1 0x1 PUSH1 0xA0 SHL SUB DUP5 AND PUSH2 0x1983 JUMP JUMPDEST PUSH1 0x1 PUSH1 0x1 PUSH1 0xA0 SHL SUB DUP2 AND PUSH1 0x0 SWAP1 DUP2 MSTORE PUSH1 0x1 DUP4 ADD PUSH1 0x20 MSTORE PUSH1 0x40 DUP2 KECCAK256 SLOAD ISZERO ISZERO PUSH2 0xCE0 JUMP JUMPDEST PUSH1 0x0 DUP2 DUP2 MSTORE PUSH1 0x1 DUP4 ADD PUSH1 0x20 MSTORE PUSH1 0x40 DUP2 KECCAK256 SLOAD DUP1 ISZERO PUSH2 0x17A1 JUMPI PUSH1 0x0 PUSH2 0x16DC PUSH1 0x1 DUP4 PUSH2 0x1C60 JUMP JUMPDEST DUP6 SLOAD SWAP1 SWAP2 POP PUSH1 0x0 SWAP1 PUSH2 0x16F0 SWAP1 PUSH1 0x1 SWAP1 PUSH2 0x1C60 JUMP JUMPDEST SWAP1 POP DUP2 DUP2 EQ PUSH2 0x1755 JUMPI PUSH1 0x0 DUP7 PUSH1 0x0 ADD DUP3 DUP2 SLOAD DUP2 LT PUSH2 0x1710 JUMPI PUSH2 0x1710 PUSH2 0x1CFE JUMP JUMPDEST SWAP1 PUSH1 0x0 MSTORE PUSH1 0x20 PUSH1 0x0 KECCAK256 ADD SLOAD SWAP1 POP DUP1 DUP8 PUSH1 0x0 ADD DUP5 DUP2 SLOAD DUP2 LT PUSH2 0x1733 JUMPI PUSH2 0x1733 PUSH2 0x1CFE JUMP JUMPDEST PUSH1 0x0 SWAP2 DUP3 MSTORE PUSH1 0x20 DUP1 DUP4 KECCAK256 SWAP1 SWAP2 ADD SWAP3 SWAP1 SWAP3 SSTORE SWAP2 DUP3 MSTORE PUSH1 0x1 DUP9 ADD SWAP1 MSTORE PUSH1 0x40 SWAP1 KECCAK256 DUP4 SWAP1 SSTORE JUMPDEST DUP6 SLOAD DUP7 SWAP1 DUP1 PUSH2 0x1766 JUMPI PUSH2 0x1766 PUSH2 0x1D14 JUMP JUMPDEST PUSH1 0x1 SWAP1 SUB DUP2 DUP2 SWAP1 PUSH1 0x0 MSTORE PUSH1 0x20 PUSH1 0x0 KECCAK256 ADD PUSH1 0x0 SWAP1 SSTORE SWAP1 SSTORE DUP6 PUSH1 0x1 ADD PUSH1 0x0 DUP7 DUP2 MSTORE PUSH1 0x20 ADD SWAP1 DUP2 MSTORE PUSH1 0x20 ADD PUSH1 0x0 KECCAK256 PUSH1 0x0 SWAP1 SSTORE PUSH1 0x1 SWAP4 POP POP POP POP PUSH2 0x5FF JUMP JUMPDEST PUSH1 0x0 SWAP2 POP POP PUSH2 0x5FF JUMP JUMPDEST PUSH1 0x0 PUSH2 0xCE0 DUP3 DUP5 PUSH2 0x1C60 JUMP JUMPDEST PUSH1 0x0 PUSH2 0x17DB NUMBER PUSH1 0x40 MLOAD DUP1 PUSH1 0x60 ADD PUSH1 0x40 MSTORE DUP1 PUSH1 0x38 DUP2 MSTORE PUSH1 0x20 ADD PUSH2 0x1D53 PUSH1 0x38 SWAP2 CODECOPY PUSH2 0x19D2 JUMP JUMPDEST SWAP1 POP PUSH1 0x0 DUP5 PUSH4 0xFFFFFFFF AND GT DUP1 ISZERO PUSH2 0x1835 JUMPI POP PUSH1 0x1 PUSH1 0x1 PUSH1 0xA0 SHL SUB DUP6 AND PUSH1 0x0 SWAP1 DUP2 MSTORE PUSH1 0xA PUSH1 0x20 MSTORE PUSH1 0x40 DUP2 KECCAK256 PUSH4 0xFFFFFFFF DUP4 AND SWAP2 PUSH2 0x1819 PUSH1 0x1 DUP9 PUSH2 0x1C77 JUMP JUMPDEST PUSH4 0xFFFFFFFF SWAP1 DUP2 AND DUP3 MSTORE PUSH1 0x20 DUP3 ADD SWAP3 SWAP1 SWAP3 MSTORE PUSH1 0x40 ADD PUSH1 0x0 KECCAK256 SLOAD AND EQ JUMPDEST ISZERO PUSH2 0x187E JUMPI PUSH1 0x1 PUSH1 0x1 PUSH1 0xA0 SHL SUB DUP6 AND PUSH1 0x0 SWAP1 DUP2 MSTORE PUSH1 0xA PUSH1 0x20 MSTORE PUSH1 0x40 DUP2 KECCAK256 DUP4 SWAP2 PUSH2 0x185F PUSH1 0x1 DUP9 PUSH2 0x1C77 JUMP JUMPDEST PUSH4 0xFFFFFFFF AND DUP2 MSTORE PUSH1 0x20 DUP2 ADD SWAP2 SWAP1 SWAP2 MSTORE PUSH1 0x40 ADD PUSH1 0x0 KECCAK256 PUSH1 0x1 ADD SSTORE PUSH2 0x190E JUMP JUMPDEST PUSH1 0x40 DUP1 MLOAD DUP1 DUP3 ADD DUP3 MSTORE PUSH4 0xFFFFFFFF DUP4 DUP2 AND DUP3 MSTORE PUSH1 0x20 DUP1 DUP4 ADD DUP7 DUP2 MSTORE PUSH1 0x1 PUSH1 0x1 PUSH1 0xA0 SHL SUB DUP11 AND PUSH1 0x0 SWAP1 DUP2 MSTORE PUSH1 0xA DUP4 MSTORE DUP6 DUP2 KECCAK256 DUP11 DUP6 AND DUP3 MSTORE SWAP1 SWAP3 MSTORE SWAP4 SWAP1 KECCAK256 SWAP2 MLOAD DUP3 SLOAD PUSH4 0xFFFFFFFF NOT AND SWAP2 AND OR DUP2 SSTORE SWAP1 MLOAD PUSH1 0x1 SWAP2 DUP3 ADD SSTORE PUSH2 0x18DD SWAP1 DUP6 SWAP1 PUSH2 0x1D2A JUMP JUMPDEST PUSH1 0x1 PUSH1 0x1 PUSH1 0xA0 SHL SUB DUP7 AND PUSH1 0x0 SWAP1 DUP2 MSTORE PUSH1 0xB PUSH1 0x20 MSTORE PUSH1 0x40 SWAP1 KECCAK256 DUP1 SLOAD PUSH4 0xFFFFFFFF NOT AND PUSH4 0xFFFFFFFF SWAP3 SWAP1 SWAP3 AND SWAP2 SWAP1 SWAP2 OR SWAP1 SSTORE JUMPDEST PUSH1 0x40 DUP1 MLOAD DUP5 DUP2 MSTORE PUSH1 0x20 DUP2 ADD DUP5 SWAP1 MSTORE PUSH1 0x1 PUSH1 0x1 PUSH1 0xA0 SHL SUB DUP8 AND SWAP2 PUSH32 0xDEC2BACDD2F05B59DE34DA9B523DFF8BE42E5E38E818C82FDB0BAE774387A724 SWAP2 ADD PUSH1 0x40 MLOAD DUP1 SWAP2 SUB SWAP1 LOG2 POP POP POP POP POP JUMP JUMPDEST PUSH1 0x0 DUP3 PUSH1 0x0 ADD DUP3 DUP2 SLOAD DUP2 LT PUSH2 0x1970 JUMPI PUSH2 0x1970 PUSH2 0x1CFE JUMP JUMPDEST SWAP1 PUSH1 0x0 MSTORE PUSH1 0x20 PUSH1 0x0 KECCAK256 ADD SLOAD SWAP1 POP SWAP3 SWAP2 POP POP JUMP JUMPDEST PUSH1 0x0 DUP2 DUP2 MSTORE PUSH1 0x1 DUP4 ADD PUSH1 0x20 MSTORE PUSH1 0x40 DUP2 KECCAK256 SLOAD PUSH2 0x19CA JUMPI POP DUP2 SLOAD PUSH1 0x1 DUP2 DUP2 ADD DUP5 SSTORE PUSH1 0x0 DUP5 DUP2 MSTORE PUSH1 0x20 DUP1 DUP3 KECCAK256 SWAP1 SWAP4 ADD DUP5 SWAP1 SSTORE DUP5 SLOAD DUP5 DUP3 MSTORE DUP3 DUP7 ADD SWAP1 SWAP4 MSTORE PUSH1 0x40 SWAP1 KECCAK256 SWAP2 SWAP1 SWAP2 SSTORE PUSH2 0x5FF JUMP JUMPDEST POP PUSH1 0x0 PUSH2 0x5FF JUMP JUMPDEST PUSH1 0x0 DUP2 PUSH5 0x100000000 DUP5 LT PUSH2 0x19FA JUMPI PUSH1 0x40 MLOAD PUSH3 0x461BCD PUSH1 0xE5 SHL DUP2 MSTORE PUSH1 0x4 ADD PUSH2 0x630 SWAP2 SWAP1 PUSH2 0x1A02 JUMP JUMPDEST POP SWAP2 SWAP3 SWAP2 POP POP JUMP JUMPDEST PUSH1 0x0 PUSH1 0x20 DUP1 DUP4 MSTORE DUP4 MLOAD DUP1 DUP3 DUP6 ADD MSTORE PUSH1 0x0 JUMPDEST DUP2 DUP2 LT ISZERO PUSH2 0x1A2F JUMPI DUP6 DUP2 ADD DUP4 ADD MLOAD DUP6 DUP3 ADD PUSH1 0x40 ADD MSTORE DUP3 ADD PUSH2 0x1A13 JUMP JUMPDEST DUP2 DUP2 GT ISZERO PUSH2 0x1A41 JUMPI PUSH1 0x0 PUSH1 0x40 DUP4 DUP8 ADD ADD MSTORE JUMPDEST POP PUSH1 0x1F ADD PUSH1 0x1F NOT AND SWAP3 SWAP1 SWAP3 ADD PUSH1 0x40 ADD SWAP4 SWAP3 POP POP POP JUMP JUMPDEST DUP1 CALLDATALOAD PUSH1 0x1 PUSH1 0x1 PUSH1 0xA0 SHL SUB DUP2 AND DUP2 EQ PUSH2 0x6AE JUMPI PUSH1 0x0 DUP1 REVERT JUMPDEST PUSH1 0x0 DUP1 PUSH1 0x40 DUP4 DUP6 SUB SLT ISZERO PUSH2 0x1A81 JUMPI PUSH1 0x0 DUP1 REVERT JUMPDEST PUSH2 0x1A8A DUP4 PUSH2 0x1A57 JUMP JUMPDEST SWAP5 PUSH1 0x20 SWAP4 SWAP1 SWAP4 ADD CALLDATALOAD SWAP4 POP POP POP JUMP JUMPDEST PUSH1 0x0 PUSH1 0x20 DUP3 DUP5 SUB SLT ISZERO PUSH2 0x1AAA JUMPI PUSH1 0x0 DUP1 REVERT JUMPDEST PUSH2 0xCE0 DUP3 PUSH2 0x1A57 JUMP JUMPDEST PUSH1 0x0 DUP1 PUSH1 0x0 PUSH1 0x60 DUP5 DUP7 SUB SLT ISZERO PUSH2 0x1AC8 JUMPI PUSH1 0x0 DUP1 REVERT JUMPDEST PUSH2 0x1AD1 DUP5 PUSH2 0x1A57 JUMP JUMPDEST SWAP3 POP PUSH2 0x1ADF PUSH1 0x20 DUP6 ADD PUSH2 0x1A57 JUMP JUMPDEST SWAP2 POP PUSH1 0x40 DUP5 ADD CALLDATALOAD SWAP1 POP SWAP3 POP SWAP3 POP SWAP3 JUMP JUMPDEST PUSH1 0x0 PUSH1 0x20 DUP3 DUP5 SUB SLT ISZERO PUSH2 0x1B01 JUMPI PUSH1 0x0 DUP1 REVERT JUMPDEST POP CALLDATALOAD SWAP2 SWAP1 POP JUMP JUMPDEST PUSH1 0x0 DUP1 PUSH1 0x0 DUP1 PUSH1 0x0 DUP1 PUSH1 0xC0 DUP8 DUP10 SUB SLT ISZERO PUSH2 0x1B21 JUMPI PUSH1 0x0 DUP1 REVERT JUMPDEST PUSH2 0x1B2A DUP8 PUSH2 0x1A57 JUMP JUMPDEST SWAP6 POP PUSH1 0x20 DUP8 ADD CALLDATALOAD SWAP5 POP PUSH1 0x40 DUP8 ADD CALLDATALOAD SWAP4 POP PUSH1 0x60 DUP8 ADD CALLDATALOAD PUSH1 0xFF DUP2 AND DUP2 EQ PUSH2 0x1B4E JUMPI PUSH1 0x0 DUP1 REVERT JUMPDEST SWAP6 SWAP9 SWAP5 SWAP8 POP SWAP3 SWAP6 PUSH1 0x80 DUP2 ADD CALLDATALOAD SWAP5 PUSH1 0xA0 SWAP1 SWAP2 ADD CALLDATALOAD SWAP4 POP SWAP2 POP POP JUMP JUMPDEST PUSH1 0x0 DUP1 PUSH1 0x40 DUP4 DUP6 SUB SLT ISZERO PUSH2 0x1B7B JUMPI PUSH1 0x0 DUP1 REVERT JUMPDEST PUSH2 0x1B84 DUP4 PUSH2 0x1A57 JUMP JUMPDEST SWAP2 POP PUSH2 0x1B92 PUSH1 0x20 DUP5 ADD PUSH2 0x1A57 JUMP JUMPDEST SWAP1 POP SWAP3 POP SWAP3 SWAP1 POP JUMP JUMPDEST PUSH1 0x0 DUP1 PUSH1 0x40 DUP4 DUP6 SUB SLT ISZERO PUSH2 0x1BAE JUMPI PUSH1 0x0 DUP1 REVERT JUMPDEST PUSH2 0x1BB7 DUP4 PUSH2 0x1A57 JUMP JUMPDEST SWAP2 POP PUSH1 0x20 DUP4 ADD CALLDATALOAD PUSH4 0xFFFFFFFF DUP2 AND DUP2 EQ PUSH2 0x1BD0 JUMPI PUSH1 0x0 DUP1 REVERT JUMPDEST DUP1 SWAP2 POP POP SWAP3 POP SWAP3 SWAP1 POP JUMP JUMPDEST PUSH1 0x1 DUP2 DUP2 SHR SWAP1 DUP3 AND DUP1 PUSH2 0x1BEF JUMPI PUSH1 0x7F DUP3 AND SWAP2 POP JUMPDEST PUSH1 0x20 DUP3 LT DUP2 SUB PUSH2 0x1C0F JUMPI PUSH4 0x4E487B71 PUSH1 0xE0 SHL PUSH1 0x0 MSTORE PUSH1 0x22 PUSH1 0x4 MSTORE PUSH1 0x24 PUSH1 0x0 REVERT JUMPDEST POP SWAP2 SWAP1 POP JUMP JUMPDEST PUSH1 0x20 DUP1 DUP3 MSTORE DUP2 DUP2 ADD MSTORE PUSH32 0x4F776E61626C653A2063616C6C6572206973206E6F7420746865206F776E6572 PUSH1 0x40 DUP3 ADD MSTORE PUSH1 0x60 ADD SWAP1 JUMP JUMPDEST PUSH4 0x4E487B71 PUSH1 0xE0 SHL PUSH1 0x0 MSTORE PUSH1 0x11 PUSH1 0x4 MSTORE PUSH1 0x24 PUSH1 0x0 REVERT JUMPDEST PUSH1 0x0 DUP3 DUP3 LT ISZERO PUSH2 0x1C72 JUMPI PUSH2 0x1C72 PUSH2 0x1C4A JUMP JUMPDEST POP SUB SWAP1 JUMP JUMPDEST PUSH1 0x0 PUSH4 0xFFFFFFFF DUP4 DUP2 AND SWAP1 DUP4 AND DUP2 DUP2 LT ISZERO PUSH2 0x1C94 JUMPI PUSH2 0x1C94 PUSH2 0x1C4A JUMP JUMPDEST SUB SWAP4 SWAP3 POP POP POP JUMP JUMPDEST PUSH1 0x0 PUSH4 0xFFFFFFFF DUP1 DUP5 AND DUP1 PUSH2 0x1CC1 JUMPI PUSH4 0x4E487B71 PUSH1 0xE0 SHL PUSH1 0x0 MSTORE PUSH1 0x12 PUSH1 0x4 MSTORE PUSH1 0x24 PUSH1 0x0 REVERT JUMPDEST SWAP3 AND SWAP2 SWAP1 SWAP2 DIV SWAP3 SWAP2 POP POP JUMP JUMPDEST PUSH1 0x0 PUSH1 0x1 DUP3 ADD PUSH2 0x1CDF JUMPI PUSH2 0x1CDF PUSH2 0x1C4A JUMP JUMPDEST POP PUSH1 0x1 ADD SWAP1 JUMP JUMPDEST PUSH1 0x0 DUP3 NOT DUP3 GT ISZERO PUSH2 0x1CF9 JUMPI PUSH2 0x1CF9 PUSH2 0x1C4A JUMP JUMPDEST POP ADD SWAP1 JUMP JUMPDEST PUSH4 0x4E487B71 PUSH1 0xE0 SHL PUSH1 0x0 MSTORE PUSH1 0x32 PUSH1 0x4 MSTORE PUSH1 0x24 PUSH1 0x0 REVERT JUMPDEST PUSH4 0x4E487B71 PUSH1 0xE0 SHL PUSH1 0x0 MSTORE PUSH1 0x31 PUSH1 0x4 MSTORE PUSH1 0x24 PUSH1 0x0 REVERT JUMPDEST PUSH1 0x0 PUSH4 0xFFFFFFFF DUP1 DUP4 AND DUP2 DUP6 AND DUP1 DUP4 SUB DUP3 GT ISZERO PUSH2 0x1D49 JUMPI PUSH2 0x1D49 PUSH2 0x1C4A JUMP JUMPDEST ADD SWAP5 SWAP4 POP POP POP POP JUMP INVALID 0x4C COINBASE 0x4E DIFFICULTY TIMESTAMP COINBASE MSTORE8 GASLIMIT GASPRICE GASPRICE 0x5F PUSH24 0x72697465436865636B706F696E743A20626C6F636B206E75 PUSH14 0x6265722065786365656473203332 KECCAK256 PUSH3 0x697473 TIMESTAMP GASLIMIT POP ORIGIN ADDRESS GASPRICE KECCAK256 PUSH21 0x72616E7366657220616D6F756E7420657863656564 PUSH20 0x20616C6C6F77616E636542455032303A20747261 PUSH15 0x7366657220616D6F756E7420657863 PUSH6 0x656473206261 PUSH13 0x616E636542455032303A206465 PUSH4 0x72656173 PUSH6 0x6420616C6C6F PUSH24 0x616E63652062656C6F77207A65726FA26469706673582212 KECCAK256 PUSH9 0xC2A890DC29E5643931 SWAP1 0xB3 0xB1 SMOD DUP16 PUSH3 0x68EA16 0x5C STOP CODESIZE SWAP9 MSTORE8 SWAP6 SWAP3 PUSH16 0xC944884D7664736F6C634300080E0033 "
				},
				"gasEstimates": {
					"creation": {
						"codeDepositCost": "1546200",
						"executionCost": "infinite",
						"totalCost": "infinite"
					},
					"external": {
						"DELEGATION_TYPEHASH()": "250",
						"DOMAIN_TYPEHASH()": "230",
						"addMinter(address)": "infinite",
						"allowance(address,address)": "infinite",
						"approve(address,uint256)": "24689",
						"balanceOf(address)": "2615",
						"checkpoints(address,uint32)": "4902",
						"decimals()": "2401",
						"decreaseAllowance(address,uint256)": "infinite",
						"delMinter(address)": "infinite",
						"delegate(address)": "infinite",
						"delegateBySig(address,uint256,uint256,uint8,bytes32,bytes32)": "infinite",
						"delegates(address)": "2657",
						"getCurrentVotes(address)": "infinite",
						"getMinter(uint256)": "infinite",
						"getMinterLength()": "2410",
						"getOwner()": "2421",
						"getPriorVotes(address,uint256)": "infinite",
						"increaseAllowance(address,uint256)": "27024",
						"isMinter(address)": "infinite",
						"mint(address,uint256)": "infinite",
						"mint(uint256)": "infinite",
						"name()": "infinite",
						"nonces(address)": "2576",
						"numCheckpoints(address)": "2601",
						"owner()": "2443",
						"renounceOwnership()": "28225",
						"symbol()": "infinite",
						"totalSupply()": "2394",
						"transfer(address,uint256)": "infinite",
						"transferFrom(address,address,uint256)": "infinite",
						"transferOwnership(address)": "28419"
					},
					"internal": {
						"_delegate(address,address)": "infinite",
						"_moveDelegates(address,address,uint256)": "infinite",
						"_writeCheckpoint(address,uint32,uint256,uint256)": "infinite",
						"getChainId()": "infinite",
						"safe32(uint256,string memory)": "infinite"
					}
				},
				"methodIdentifiers": {
					"DELEGATION_TYPEHASH()": "e7a324dc",
					"DOMAIN_TYPEHASH()": "20606b70",
					"addMinter(address)": "983b2d56",
					"allowance(address,address)": "dd62ed3e",
					"approve(address,uint256)": "095ea7b3",
					"balanceOf(address)": "70a08231",
					"checkpoints(address,uint32)": "f1127ed8",
					"decimals()": "313ce567",
					"decreaseAllowance(address,uint256)": "a457c2d7",
					"delMinter(address)": "23338b88",
					"delegate(address)": "5c19a95c",
					"delegateBySig(address,uint256,uint256,uint8,bytes32,bytes32)": "c3cda520",
					"delegates(address)": "587cde1e",
					"getCurrentVotes(address)": "b4b5ea57",
					"getMinter(uint256)": "5b7121f8",
					"getMinterLength()": "0323aac7",
					"getOwner()": "893d20e8",
					"getPriorVotes(address,uint256)": "782d6fe1",
					"increaseAllowance(address,uint256)": "39509351",
					"isMinter(address)": "aa271e1a",
					"mint(address,uint256)": "40c10f19",
					"mint(uint256)": "a0712d68",
					"name()": "06fdde03",
					"nonces(address)": "7ecebe00",
					"numCheckpoints(address)": "6fcfff45",
					"owner()": "8da5cb5b",
					"renounceOwnership()": "715018a6",
					"symbol()": "95d89b41",
					"totalSupply()": "18160ddd",
					"transfer(address,uint256)": "a9059cbb",
					"transferFrom(address,address,uint256)": "23b872dd",
					"transferOwnership(address)": "f2fde38b"
				}
			},
			"storageLayout": {
				"storage": [
					{
						"astId": 1400,
						"contract": "contracts/LandbaseToken.sol:LandbaseToken",
						"label": "_owner",
						"offset": 0,
						"slot": "0",
						"type": "t_address"
					},
					{
						"astId": 19,
						"contract": "contracts/LandbaseToken.sol:LandbaseToken",
						"label": "_balances",
						"offset": 0,
						"slot": "1",
						"type": "t_mapping(t_address,t_uint256)"
					},
					{
						"astId": 25,
						"contract": "contracts/LandbaseToken.sol:LandbaseToken",
						"label": "_allowances",
						"offset": 0,
						"slot": "2",
						"type": "t_mapping(t_address,t_mapping(t_address,t_uint256))"
					},
					{
						"astId": 27,
						"contract": "contracts/LandbaseToken.sol:LandbaseToken",
						"label": "_totalSupply",
						"offset": 0,
						"slot": "3",
						"type": "t_uint256"
					},
					{
						"astId": 29,
						"contract": "contracts/LandbaseToken.sol:LandbaseToken",
						"label": "_decimals",
						"offset": 0,
						"slot": "4",
						"type": "t_uint8"
					},
					{
						"astId": 31,
						"contract": "contracts/LandbaseToken.sol:LandbaseToken",
						"label": "_symbol",
						"offset": 0,
						"slot": "5",
						"type": "t_string_storage"
					},
					{
						"astId": 33,
						"contract": "contracts/LandbaseToken.sol:LandbaseToken",
						"label": "_name",
						"offset": 0,
						"slot": "6",
						"type": "t_string_storage"
					},
					{
						"astId": 641,
						"contract": "contracts/LandbaseToken.sol:LandbaseToken",
						"label": "_minters",
						"offset": 0,
						"slot": "7",
						"type": "t_struct(AddressSet)2120_storage"
					},
					{
						"astId": 677,
						"contract": "contracts/LandbaseToken.sol:LandbaseToken",
						"label": "_delegates",
						"offset": 0,
						"slot": "9",
						"type": "t_mapping(t_address,t_address)"
					},
					{
						"astId": 690,
						"contract": "contracts/LandbaseToken.sol:LandbaseToken",
						"label": "checkpoints",
						"offset": 0,
						"slot": "10",
						"type": "t_mapping(t_address,t_mapping(t_uint32,t_struct(Checkpoint)682_storage))"
					},
					{
						"astId": 695,
						"contract": "contracts/LandbaseToken.sol:LandbaseToken",
						"label": "numCheckpoints",
						"offset": 0,
						"slot": "11",
						"type": "t_mapping(t_address,t_uint32)"
					},
					{
						"astId": 712,
						"contract": "contracts/LandbaseToken.sol:LandbaseToken",
						"label": "nonces",
						"offset": 0,
						"slot": "12",
						"type": "t_mapping(t_address,t_uint256)"
					}
				],
				"types": {
					"t_address": {
						"encoding": "inplace",
						"label": "address",
						"numberOfBytes": "20"
					},
					"t_array(t_bytes32)dyn_storage": {
						"base": "t_bytes32",
						"encoding": "dynamic_array",
						"label": "bytes32[]",
						"numberOfBytes": "32"
					},
					"t_bytes32": {
						"encoding": "inplace",
						"label": "bytes32",
						"numberOfBytes": "32"
					},
					"t_mapping(t_address,t_address)": {
						"encoding": "mapping",
						"key": "t_address",
						"label": "mapping(address => address)",
						"numberOfBytes": "32",
						"value": "t_address"
					},
					"t_mapping(t_address,t_mapping(t_address,t_uint256))": {
						"encoding": "mapping",
						"key": "t_address",
						"label": "mapping(address => mapping(address => uint256))",
						"numberOfBytes": "32",
						"value": "t_mapping(t_address,t_uint256)"
					},
					"t_mapping(t_address,t_mapping(t_uint32,t_struct(Checkpoint)682_storage))": {
						"encoding": "mapping",
						"key": "t_address",
						"label": "mapping(address => mapping(uint32 => struct LandbaseToken.Checkpoint))",
						"numberOfBytes": "32",
						"value": "t_mapping(t_uint32,t_struct(Checkpoint)682_storage)"
					},
					"t_mapping(t_address,t_uint256)": {
						"encoding": "mapping",
						"key": "t_address",
						"label": "mapping(address => uint256)",
						"numberOfBytes": "32",
						"value": "t_uint256"
					},
					"t_mapping(t_address,t_uint32)": {
						"encoding": "mapping",
						"key": "t_address",
						"label": "mapping(address => uint32)",
						"numberOfBytes": "32",
						"value": "t_uint32"
					},
					"t_mapping(t_bytes32,t_uint256)": {
						"encoding": "mapping",
						"key": "t_bytes32",
						"label": "mapping(bytes32 => uint256)",
						"numberOfBytes": "32",
						"value": "t_uint256"
					},
					"t_mapping(t_uint32,t_struct(Checkpoint)682_storage)": {
						"encoding": "mapping",
						"key": "t_uint32",
						"label": "mapping(uint32 => struct LandbaseToken.Checkpoint)",
						"numberOfBytes": "32",
						"value": "t_struct(Checkpoint)682_storage"
					},
					"t_string_storage": {
						"encoding": "bytes",
						"label": "string",
						"numberOfBytes": "32"
					},
					"t_struct(AddressSet)2120_storage": {
						"encoding": "inplace",
						"label": "struct EnumerableSet.AddressSet",
						"members": [
							{
								"astId": 2119,
								"contract": "contracts/LandbaseToken.sol:LandbaseToken",
								"label": "_inner",
								"offset": 0,
								"slot": "0",
								"type": "t_struct(Set)1819_storage"
							}
						],
						"numberOfBytes": "64"
					},
					"t_struct(Checkpoint)682_storage": {
						"encoding": "inplace",
						"label": "struct LandbaseToken.Checkpoint",
						"members": [
							{
								"astId": 679,
								"contract": "contracts/LandbaseToken.sol:LandbaseToken",
								"label": "fromBlock",
								"offset": 0,
								"slot": "0",
								"type": "t_uint32"
							},
							{
								"astId": 681,
								"contract": "contracts/LandbaseToken.sol:LandbaseToken",
								"label": "votes",
								"offset": 0,
								"slot": "1",
								"type": "t_uint256"
							}
						],
						"numberOfBytes": "64"
					},
					"t_struct(Set)1819_storage": {
						"encoding": "inplace",
						"label": "struct EnumerableSet.Set",
						"members": [
							{
								"astId": 1814,
								"contract": "contracts/LandbaseToken.sol:LandbaseToken",
								"label": "_values",
								"offset": 0,
								"slot": "0",
								"type": "t_array(t_bytes32)dyn_storage"
							},
							{
								"astId": 1818,
								"contract": "contracts/LandbaseToken.sol:LandbaseToken",
								"label": "_indexes",
								"offset": 0,
								"slot": "1",
								"type": "t_mapping(t_bytes32,t_uint256)"
							}
						],
						"numberOfBytes": "64"
					},
					"t_uint256": {
						"encoding": "inplace",
						"label": "uint256",
						"numberOfBytes": "32"
					},
					"t_uint32": {
						"encoding": "inplace",
						"label": "uint32",
						"numberOfBytes": "4"
					},
					"t_uint8": {
						"encoding": "inplace",
						"label": "uint8",
						"numberOfBytes": "1"
					}
				}
			},
			"userdoc": {
				"events": {
					"DelegateChanged(address,address,address)": {
						"notice": "An event thats emitted when an account changes its delegate"
					},
					"DelegateVotesChanged(address,uint256,uint256)": {
						"notice": "An event thats emitted when a delegate account's vote balance changes"
					}
				},
				"kind": "user",
				"methods": {
					"DELEGATION_TYPEHASH()": {
						"notice": "The EIP-712 typehash for the delegation struct used by the contract"
					},
					"DOMAIN_TYPEHASH()": {
						"notice": "The EIP-712 typehash for the contract's domain"
					},
					"checkpoints(address,uint32)": {
						"notice": "A record of votes checkpoints for each account, by index"
					},
					"delegate(address)": {
						"notice": "Delegate votes from `msg.sender` to `delegatee`"
					},
					"delegateBySig(address,uint256,uint256,uint8,bytes32,bytes32)": {
						"notice": "Delegates votes from signatory to `delegatee`"
					},
					"delegates(address)": {
						"notice": "Delegate votes from `msg.sender` to `delegatee`"
					},
					"getCurrentVotes(address)": {
						"notice": "Gets the current votes balance for `account`"
					},
					"getPriorVotes(address,uint256)": {
						"notice": "Determine the prior number of votes for an account as of a block number"
					},
					"mint(address,uint256)": {
						"notice": "Creates `_amount` token to `_to`. Must only be called by the owner (MasterChef)."
					},
					"nonces(address)": {
						"notice": "A record of states for signing / validating signatures"
					},
					"numCheckpoints(address)": {
						"notice": "The number of checkpoints for each account"
					}
				},
				"version": 1
			}
		}
	}
}