{
	"farms-pools/SousChef.sol": {
		"SousChef": {
			"abi": [
				{
					"inputs": [
						{
							"internalType": "contract IBEP20",
							"name": "_syrup",
							"type": "address"
						},
						{
							"internalType": "uint256",
							"name": "_rewardPerBlock",
							"type": "uint256"
						},
						{
							"internalType": "uint256",
							"name": "_startBlock",
							"type": "uint256"
						},
						{
							"internalType": "uint256",
							"name": "_endBlock",
							"type": "uint256"
						}
					],
					"stateMutability": "nonpayable",
					"type": "constructor"
				},
				{
					"anonymous": false,
					"inputs": [
						{
							"indexed": true,
							"internalType": "address",
							"name": "user",
							"type": "address"
						},
						{
							"indexed": false,
							"internalType": "uint256",
							"name": "amount",
							"type": "uint256"
						}
					],
					"name": "Deposit",
					"type": "event"
				},
				{
					"anonymous": false,
					"inputs": [
						{
							"indexed": true,
							"internalType": "address",
							"name": "user",
							"type": "address"
						},
						{
							"indexed": false,
							"internalType": "uint256",
							"name": "amount",
							"type": "uint256"
						}
					],
					"name": "EmergencyWithdraw",
					"type": "event"
				},
				{
					"anonymous": false,
					"inputs": [
						{
							"indexed": true,
							"internalType": "address",
							"name": "user",
							"type": "address"
						},
						{
							"indexed": false,
							"internalType": "uint256",
							"name": "amount",
							"type": "uint256"
						}
					],
					"name": "Withdraw",
					"type": "event"
				},
				{
					"inputs": [],
					"name": "addressLength",
					"outputs": [
						{
							"internalType": "uint256",
							"name": "",
							"type": "uint256"
						}
					],
					"stateMutability": "view",
					"type": "function"
				},
				{
					"inputs": [
						{
							"internalType": "uint256",
							"name": "",
							"type": "uint256"
						}
					],
					"name": "addressList",
					"outputs": [
						{
							"internalType": "address",
							"name": "",
							"type": "address"
						}
					],
					"stateMutability": "view",
					"type": "function"
				},
				{
					"inputs": [],
					"name": "bonusEndBlock",
					"outputs": [
						{
							"internalType": "uint256",
							"name": "",
							"type": "uint256"
						}
					],
					"stateMutability": "view",
					"type": "function"
				},
				{
					"inputs": [
						{
							"internalType": "uint256",
							"name": "_amount",
							"type": "uint256"
						}
					],
					"name": "deposit",
					"outputs": [],
					"stateMutability": "nonpayable",
					"type": "function"
				},
				{
					"inputs": [],
					"name": "emergencyWithdraw",
					"outputs": [],
					"stateMutability": "nonpayable",
					"type": "function"
				},
				{
					"inputs": [
						{
							"internalType": "address",
							"name": "_user",
							"type": "address"
						}
					],
					"name": "pendingReward",
					"outputs": [
						{
							"internalType": "uint256",
							"name": "",
							"type": "uint256"
						}
					],
					"stateMutability": "view",
					"type": "function"
				},
				{
					"inputs": [],
					"name": "poolInfo",
					"outputs": [
						{
							"internalType": "uint256",
							"name": "lastRewardBlock",
							"type": "uint256"
						},
						{
							"internalType": "uint256",
							"name": "accRewardPerShare",
							"type": "uint256"
						}
					],
					"stateMutability": "view",
					"type": "function"
				},
				{
					"inputs": [],
					"name": "rewardPerBlock",
					"outputs": [
						{
							"internalType": "uint256",
							"name": "",
							"type": "uint256"
						}
					],
					"stateMutability": "view",
					"type": "function"
				},
				{
					"inputs": [],
					"name": "startBlock",
					"outputs": [
						{
							"internalType": "uint256",
							"name": "",
							"type": "uint256"
						}
					],
					"stateMutability": "view",
					"type": "function"
				},
				{
					"inputs": [],
					"name": "syrup",
					"outputs": [
						{
							"internalType": "contract IBEP20",
							"name": "",
							"type": "address"
						}
					],
					"stateMutability": "view",
					"type": "function"
				},
				{
					"inputs": [],
					"name": "updatePool",
					"outputs": [],
					"stateMutability": "nonpayable",
					"type": "function"
				},
				{
					"inputs": [
						{
							"internalType": "address",
							"name": "",
							"type": "address"
						}
					],
					"name": "userInfo",
					"outputs": [
						{
							"internalType": "uint256",
							"name": "amount",
							"type": "uint256"
						},
						{
							"internalType": "uint256",
							"name": "rewardDebt",
							"type": "uint256"
						},
						{
							"internalType": "uint256",
							"name": "rewardPending",
							"type": "uint256"
						}
					],
					"stateMutability": "view",
					"type": "function"
				},
				{
					"inputs": [
						{
							"internalType": "uint256",
							"name": "_amount",
							"type": "uint256"
						}
					],
					"name": "withdraw",
					"outputs": [],
					"stateMutability": "nonpayable",
					"type": "function"
				}
			],
			"devdoc": {
				"kind": "dev",
				"methods": {},
				"version": 1
			},
			"evm": {
				"assembly": "    /* \"farms-pools/SousChef.sol\":19573:24941  contract SousChef {\r... */\n  mstore(0x40, 0x80)\n    /* \"farms-pools/SousChef.sol\":20725:21161  constructor(\r... */\n  callvalue\n  dup1\n  iszero\n  tag_1\n  jumpi\n  0x00\n  dup1\n  revert\ntag_1:\n  pop\n  mload(0x40)\n  sub(codesize, bytecodeSize)\n  dup1\n  bytecodeSize\n  dup4\n  codecopy\n  dup2\n  dup2\n  add\n  0x40\n  mstore\n  0x80\n  dup2\n  lt\n  iszero\n  tag_2\n  jumpi\n  0x00\n  dup1\n  revert\ntag_2:\n  dup2\n  add\n  swap1\n  dup1\n  dup1\n  mload\n  swap1\n  0x20\n  add\n  swap1\n  swap3\n  swap2\n  swap1\n  dup1\n  mload\n  swap1\n  0x20\n  add\n  swap1\n  swap3\n  swap2\n  swap1\n  dup1\n  mload\n  swap1\n  0x20\n  add\n  swap1\n  swap3\n  swap2\n  swap1\n  dup1\n  mload\n  swap1\n  0x20\n  add\n  swap1\n  swap3\n  swap2\n  swap1\n  pop\n  pop\n  pop\n    /* \"farms-pools/SousChef.sol\":20886:20892  _syrup */\n  dup4\n    /* \"farms-pools/SousChef.sol\":20878:20883  syrup */\n  0x00\n  dup1\n    /* \"farms-pools/SousChef.sol\":20878:20892  syrup = _syrup */\n  0x0100\n  exp\n  dup2\n  sload\n  dup2\n  0xffffffffffffffffffffffffffffffffffffffff\n  mul\n  not\n  and\n  swap1\n  dup4\n  0xffffffffffffffffffffffffffffffffffffffff\n  and\n  mul\n  or\n  swap1\n  sstore\n  pop\n    /* \"farms-pools/SousChef.sol\":20920:20935  _rewardPerBlock */\n  dup3\n    /* \"farms-pools/SousChef.sol\":20903:20917  rewardPerBlock */\n  0x01\n    /* \"farms-pools/SousChef.sol\":20903:20935  rewardPerBlock = _rewardPerBlock */\n  dup2\n  swap1\n  sstore\n  pop\n    /* \"farms-pools/SousChef.sol\":20959:20970  _startBlock */\n  dup2\n    /* \"farms-pools/SousChef.sol\":20946:20956  startBlock */\n  0x06\n    /* \"farms-pools/SousChef.sol\":20946:20970  startBlock = _startBlock */\n  dup2\n  swap1\n  sstore\n  pop\n    /* \"farms-pools/SousChef.sol\":20997:21006  _endBlock */\n  dup1\n    /* \"farms-pools/SousChef.sol\":20981:20994  bonusEndBlock */\n  0x07\n    /* \"farms-pools/SousChef.sol\":20981:21006  bonusEndBlock = _endBlock */\n  dup2\n  swap1\n  sstore\n  pop\n    /* \"farms-pools/SousChef.sol\":21055:21153  PoolInfo({\r... */\n  mload(0x40)\n  dup1\n  0x40\n  add\n  0x40\n  mstore\n  dup1\n    /* \"farms-pools/SousChef.sol\":21096:21106  startBlock */\n  sload(0x06)\n    /* \"farms-pools/SousChef.sol\":21055:21153  PoolInfo({\r... */\n  dup2\n  mstore\n  0x20\n  add\n    /* \"farms-pools/SousChef.sol\":21140:21141  0 */\n  0x00\n    /* \"farms-pools/SousChef.sol\":21055:21153  PoolInfo({\r... */\n  dup2\n  mstore\n  pop\n    /* \"farms-pools/SousChef.sol\":21044:21052  poolInfo */\n  0x02\n    /* \"farms-pools/SousChef.sol\":21044:21153  poolInfo = PoolInfo({\r... */\n  0x00\n  dup3\n  add\n  mload\n  dup2\n  0x00\n  add\n  sstore\n  0x20\n  dup3\n  add\n  mload\n  dup2\n  0x01\n  add\n  sstore\n  swap1\n  pop\n  pop\n    /* \"farms-pools/SousChef.sol\":20725:21161  constructor(\r... */\n  pop\n  pop\n  pop\n  pop\n    /* \"farms-pools/SousChef.sol\":19573:24941  contract SousChef {\r... */\n  dataSize(sub_0)\n  dup1\n  dataOffset(sub_0)\n  0x00\n  codecopy\n  0x00\n  return\nstop\n\nsub_0: assembly {\n        /* \"farms-pools/SousChef.sol\":19573:24941  contract SousChef {\r... */\n      mstore(0x40, 0x80)\n      callvalue\n      dup1\n      iszero\n      tag_1\n      jumpi\n      0x00\n      dup1\n      revert\n    tag_1:\n      pop\n      jumpi(tag_2, lt(calldatasize, 0x04))\n      shr(0xe0, calldataload(0x00))\n      dup1\n      0x8ae39cac\n      gt\n      tag_16\n      jumpi\n      dup1\n      0xdb2e21bc\n      gt\n      tag_17\n      jumpi\n      dup1\n      0xdb2e21bc\n      eq\n      tag_12\n      jumpi\n      dup1\n      0xdc881888\n      eq\n      tag_13\n      jumpi\n      dup1\n      0xe3161ddd\n      eq\n      tag_14\n      jumpi\n      dup1\n      0xf40f0f52\n      eq\n      tag_15\n      jumpi\n      jump(tag_2)\n    tag_17:\n      dup1\n      0x8ae39cac\n      eq\n      tag_9\n      jumpi\n      dup1\n      0xb6b55f25\n      eq\n      tag_10\n      jumpi\n      dup1\n      0xb810fb43\n      eq\n      tag_11\n      jumpi\n      jump(tag_2)\n    tag_16:\n      dup1\n      0x1959a002\n      eq\n      tag_3\n      jumpi\n      dup1\n      0x1aed6553\n      eq\n      tag_4\n      jumpi\n      dup1\n      0x2e1a7d4d\n      eq\n      tag_5\n      jumpi\n      dup1\n      0x48cd4cb1\n      eq\n      tag_6\n      jumpi\n      dup1\n      0x5a2f3d09\n      eq\n      tag_7\n      jumpi\n      dup1\n      0x86a952c4\n      eq\n      tag_8\n      jumpi\n    tag_2:\n      0x00\n      dup1\n      revert\n        /* \"farms-pools/SousChef.sol\":20267:20312  mapping (address => UserInfo) public userInfo */\n    tag_3:\n      tag_18\n      0x04\n      dup1\n      calldatasize\n      sub\n      0x20\n      dup2\n      lt\n      iszero\n      tag_19\n      jumpi\n      0x00\n      dup1\n      revert\n    tag_19:\n      dup2\n      add\n      swap1\n      dup1\n      dup1\n      calldataload\n      0xffffffffffffffffffffffffffffffffffffffff\n      and\n      swap1\n      0x20\n      add\n      swap1\n      swap3\n      swap2\n      swap1\n      pop\n      pop\n      pop\n      tag_20\n      jump\t// in\n    tag_18:\n      mload(0x40)\n      dup1\n      dup5\n      dup2\n      mstore\n      0x20\n      add\n      dup4\n      dup2\n      mstore\n      0x20\n      add\n      dup3\n      dup2\n      mstore\n      0x20\n      add\n      swap4\n      pop\n      pop\n      pop\n      pop\n      mload(0x40)\n      dup1\n      swap2\n      sub\n      swap1\n      return\n        /* \"farms-pools/SousChef.sol\":20501:20529  uint256 public bonusEndBlock */\n    tag_4:\n      tag_21\n      tag_22\n      jump\t// in\n    tag_21:\n      mload(0x40)\n      dup1\n      dup3\n      dup2\n      mstore\n      0x20\n      add\n      swap2\n      pop\n      pop\n      mload(0x40)\n      dup1\n      swap2\n      sub\n      swap1\n      return\n        /* \"farms-pools/SousChef.sol\":23980:24589  function withdraw(uint256 _amount) public {\r... */\n    tag_5:\n      tag_23\n      0x04\n      dup1\n      calldatasize\n      sub\n      0x20\n      dup2\n      lt\n      iszero\n      tag_24\n      jumpi\n      0x00\n      dup1\n      revert\n    tag_24:\n      dup2\n      add\n      swap1\n      dup1\n      dup1\n      calldataload\n      swap1\n      0x20\n      add\n      swap1\n      swap3\n      swap2\n      swap1\n      pop\n      pop\n      pop\n      tag_25\n      jump\t// in\n    tag_23:\n      stop\n        /* \"farms-pools/SousChef.sol\":20426:20451  uint256 public startBlock */\n    tag_6:\n      tag_26\n      tag_27\n      jump\t// in\n    tag_26:\n      mload(0x40)\n      dup1\n      dup3\n      dup2\n      mstore\n      0x20\n      add\n      swap2\n      pop\n      pop\n      mload(0x40)\n      dup1\n      swap2\n      sub\n      swap1\n      return\n        /* \"farms-pools/SousChef.sol\":20184:20208  PoolInfo public poolInfo */\n    tag_7:\n      tag_28\n      tag_29\n      jump\t// in\n    tag_28:\n      mload(0x40)\n      dup1\n      dup4\n      dup2\n      mstore\n      0x20\n      add\n      dup3\n      dup2\n      mstore\n      0x20\n      add\n      swap3\n      pop\n      pop\n      pop\n      mload(0x40)\n      dup1\n      swap2\n      sub\n      swap1\n      return\n        /* \"farms-pools/SousChef.sol\":20071:20090  IBEP20 public syrup */\n    tag_8:\n      tag_30\n      tag_31\n      jump\t// in\n    tag_30:\n      mload(0x40)\n      dup1\n      dup3\n      0xffffffffffffffffffffffffffffffffffffffff\n      and\n      dup2\n      mstore\n      0x20\n      add\n      swap2\n      pop\n      pop\n      mload(0x40)\n      dup1\n      swap2\n      sub\n      swap1\n      return\n        /* \"farms-pools/SousChef.sol\":20132:20161  uint256 public rewardPerBlock */\n    tag_9:\n      tag_32\n      tag_33\n      jump\t// in\n    tag_32:\n      mload(0x40)\n      dup1\n      dup3\n      dup2\n      mstore\n      0x20\n      add\n      swap2\n      pop\n      pop\n      mload(0x40)\n      dup1\n      swap2\n      sub\n      swap1\n      return\n        /* \"farms-pools/SousChef.sol\":23221:23927  function deposit(uint256 _amount) public {\r... */\n    tag_10:\n      tag_34\n      0x04\n      dup1\n      calldatasize\n      sub\n      0x20\n      dup2\n      lt\n      iszero\n      tag_35\n      jumpi\n      0x00\n      dup1\n      revert\n    tag_35:\n      dup2\n      add\n      swap1\n      dup1\n      dup1\n      calldataload\n      swap1\n      0x20\n      add\n      swap1\n      swap3\n      swap2\n      swap1\n      pop\n      pop\n      pop\n      tag_36\n      jump\t// in\n    tag_34:\n      stop\n        /* \"farms-pools/SousChef.sol\":20344:20372  address[] public addressList */\n    tag_11:\n      tag_37\n      0x04\n      dup1\n      calldatasize\n      sub\n      0x20\n      dup2\n      lt\n      iszero\n      tag_38\n      jumpi\n      0x00\n      dup1\n      revert\n    tag_38:\n      dup2\n      add\n      swap1\n      dup1\n      dup1\n      calldataload\n      swap1\n      0x20\n      add\n      swap1\n      swap3\n      swap2\n      swap1\n      pop\n      pop\n      pop\n      tag_39\n      jump\t// in\n    tag_37:\n      mload(0x40)\n      dup1\n      dup3\n      0xffffffffffffffffffffffffffffffffffffffff\n      and\n      dup2\n      mstore\n      0x20\n      add\n      swap2\n      pop\n      pop\n      mload(0x40)\n      dup1\n      swap2\n      sub\n      swap1\n      return\n        /* \"farms-pools/SousChef.sol\":24660:24936  function emergencyWithdraw() public {\r... */\n    tag_12:\n      tag_40\n      tag_41\n      jump\t// in\n    tag_40:\n      stop\n        /* \"farms-pools/SousChef.sol\":21169:21270  function addressLength() external view returns (uint256) {\r... */\n    tag_13:\n      tag_42\n      tag_43\n      jump\t// in\n    tag_42:\n      mload(0x40)\n      dup1\n      dup3\n      dup2\n      mstore\n      0x20\n      add\n      swap2\n      pop\n      pop\n      mload(0x40)\n      dup1\n      swap2\n      sub\n      swap1\n      return\n        /* \"farms-pools/SousChef.sol\":22531:23149  function updatePool() public {\r... */\n    tag_14:\n      tag_44\n      tag_45\n      jump\t// in\n    tag_44:\n      stop\n        /* \"farms-pools/SousChef.sol\":21719:22455  function pendingReward(address _user) external view returns (uint256) {\r... */\n    tag_15:\n      tag_46\n      0x04\n      dup1\n      calldatasize\n      sub\n      0x20\n      dup2\n      lt\n      iszero\n      tag_47\n      jumpi\n      0x00\n      dup1\n      revert\n    tag_47:\n      dup2\n      add\n      swap1\n      dup1\n      dup1\n      calldataload\n      0xffffffffffffffffffffffffffffffffffffffff\n      and\n      swap1\n      0x20\n      add\n      swap1\n      swap3\n      swap2\n      swap1\n      pop\n      pop\n      pop\n      tag_48\n      jump\t// in\n    tag_46:\n      mload(0x40)\n      dup1\n      dup3\n      dup2\n      mstore\n      0x20\n      add\n      swap2\n      pop\n      pop\n      mload(0x40)\n      dup1\n      swap2\n      sub\n      swap1\n      return\n        /* \"farms-pools/SousChef.sol\":20267:20312  mapping (address => UserInfo) public userInfo */\n    tag_20:\n      mstore(0x20, 0x04)\n      dup1\n      0x00\n      mstore\n      keccak256(0x00, 0x40)\n      0x00\n      swap2\n      pop\n      swap1\n      pop\n      dup1\n      0x00\n      add\n      sload\n      swap1\n      dup1\n      0x01\n      add\n      sload\n      swap1\n      dup1\n      0x02\n      add\n      sload\n      swap1\n      pop\n      dup4\n      jump\t// out\n        /* \"farms-pools/SousChef.sol\":20501:20529  uint256 public bonusEndBlock */\n    tag_22:\n      sload(0x07)\n      dup2\n      jump\t// out\n        /* \"farms-pools/SousChef.sol\":23980:24589  function withdraw(uint256 _amount) public {\r... */\n    tag_25:\n        /* \"farms-pools/SousChef.sol\":24052:24053  0 */\n      0x00\n        /* \"farms-pools/SousChef.sol\":24042:24049  _amount */\n      dup2\n        /* \"farms-pools/SousChef.sol\":24042:24053  _amount > 0 */\n      gt\n        /* \"farms-pools/SousChef.sol\":24033:24066  require (_amount > 0, 'amount 0') */\n      tag_50\n      jumpi\n      mload(0x40)\n      0x08c379a000000000000000000000000000000000000000000000000000000000\n      dup2\n      mstore\n      0x04\n      add\n      dup1\n      dup1\n      0x20\n      add\n      dup3\n      dup2\n      sub\n      dup3\n      mstore\n      0x08\n      dup2\n      mstore\n      0x20\n      add\n      dup1\n      0x616d6f756e742030000000000000000000000000000000000000000000000000\n      dup2\n      mstore\n      pop\n      0x20\n      add\n      swap2\n      pop\n      pop\n      mload(0x40)\n      dup1\n      swap2\n      sub\n      swap1\n      revert\n    tag_50:\n        /* \"farms-pools/SousChef.sol\":24077:24098  UserInfo storage user */\n      0x00\n        /* \"farms-pools/SousChef.sol\":24101:24109  userInfo */\n      0x04\n        /* \"farms-pools/SousChef.sol\":24101:24121  userInfo[msg.sender] */\n      0x00\n        /* \"farms-pools/SousChef.sol\":24110:24120  msg.sender */\n      caller\n        /* \"farms-pools/SousChef.sol\":24101:24121  userInfo[msg.sender] */\n      0xffffffffffffffffffffffffffffffffffffffff\n      and\n      0xffffffffffffffffffffffffffffffffffffffff\n      and\n      dup2\n      mstore\n      0x20\n      add\n      swap1\n      dup2\n      mstore\n      0x20\n      add\n      0x00\n      keccak256\n        /* \"farms-pools/SousChef.sol\":24077:24121  UserInfo storage user = userInfo[msg.sender] */\n      swap1\n      pop\n        /* \"farms-pools/SousChef.sol\":24155:24162  _amount */\n      dup2\n        /* \"farms-pools/SousChef.sol\":24140:24144  user */\n      dup2\n        /* \"farms-pools/SousChef.sol\":24140:24151  user.amount */\n      0x00\n      add\n      sload\n        /* \"farms-pools/SousChef.sol\":24140:24162  user.amount >= _amount */\n      lt\n      iszero\n        /* \"farms-pools/SousChef.sol\":24132:24187  require(user.amount >= _amount, \"withdraw: not enough\") */\n      tag_51\n      jumpi\n      mload(0x40)\n      0x08c379a000000000000000000000000000000000000000000000000000000000\n      dup2\n      mstore\n      0x04\n      add\n      dup1\n      dup1\n      0x20\n      add\n      dup3\n      dup2\n      sub\n      dup3\n      mstore\n      0x14\n      dup2\n      mstore\n      0x20\n      add\n      dup1\n      0x77697468647261773a206e6f7420656e6f756768000000000000000000000000\n      dup2\n      mstore\n      pop\n      0x20\n      add\n      swap2\n      pop\n      pop\n      mload(0x40)\n      dup1\n      swap2\n      sub\n      swap1\n      revert\n    tag_51:\n        /* \"farms-pools/SousChef.sol\":24200:24212  updatePool() */\n      tag_52\n        /* \"farms-pools/SousChef.sol\":24200:24210  updatePool */\n      tag_45\n        /* \"farms-pools/SousChef.sol\":24200:24212  updatePool() */\n      jump\t// in\n    tag_52:\n        /* \"farms-pools/SousChef.sol\":24223:24271  syrup.safeTransfer(address(msg.sender), _amount) */\n      tag_53\n        /* \"farms-pools/SousChef.sol\":24250:24260  msg.sender */\n      caller\n        /* \"farms-pools/SousChef.sol\":24263:24270  _amount */\n      dup4\n        /* \"farms-pools/SousChef.sol\":24223:24228  syrup */\n      0x00\n      dup1\n      sload\n      swap1\n      0x0100\n      exp\n      swap1\n      div\n      0xffffffffffffffffffffffffffffffffffffffff\n      and\n        /* \"farms-pools/SousChef.sol\":24223:24241  syrup.safeTransfer */\n      0xffffffffffffffffffffffffffffffffffffffff\n      and\n      tag_54\n      swap1\n        /* \"farms-pools/SousChef.sol\":24223:24271  syrup.safeTransfer(address(msg.sender), _amount) */\n      swap3\n      swap2\n      swap1\n      0xffffffff\n      and\n      jump\t// in\n    tag_53:\n        /* \"farms-pools/SousChef.sol\":24305:24403  user.amount.mul(poolInfo.accRewardPerShare).div(1e12).sub(user.rewardDebt).add(user.rewardPending) */\n      tag_55\n        /* \"farms-pools/SousChef.sol\":24384:24388  user */\n      dup2\n        /* \"farms-pools/SousChef.sol\":24384:24402  user.rewardPending */\n      0x02\n      add\n      sload\n        /* \"farms-pools/SousChef.sol\":24305:24379  user.amount.mul(poolInfo.accRewardPerShare).div(1e12).sub(user.rewardDebt) */\n      tag_56\n        /* \"farms-pools/SousChef.sol\":24363:24367  user */\n      dup4\n        /* \"farms-pools/SousChef.sol\":24363:24378  user.rewardDebt */\n      0x01\n      add\n      sload\n        /* \"farms-pools/SousChef.sol\":24305:24358  user.amount.mul(poolInfo.accRewardPerShare).div(1e12) */\n      tag_57\n        /* \"farms-pools/SousChef.sol\":24353:24357  1e12 */\n      0xe8d4a51000\n        /* \"farms-pools/SousChef.sol\":24305:24348  user.amount.mul(poolInfo.accRewardPerShare) */\n      tag_58\n        /* \"farms-pools/SousChef.sol\":24321:24329  poolInfo */\n      0x02\n        /* \"farms-pools/SousChef.sol\":24321:24347  poolInfo.accRewardPerShare */\n      0x01\n      add\n      sload\n        /* \"farms-pools/SousChef.sol\":24305:24309  user */\n      dup9\n        /* \"farms-pools/SousChef.sol\":24305:24316  user.amount */\n      0x00\n      add\n      sload\n        /* \"farms-pools/SousChef.sol\":24305:24320  user.amount.mul */\n      tag_59\n      swap1\n        /* \"farms-pools/SousChef.sol\":24305:24348  user.amount.mul(poolInfo.accRewardPerShare) */\n      swap2\n      swap1\n      0xffffffff\n      and\n      jump\t// in\n    tag_58:\n        /* \"farms-pools/SousChef.sol\":24305:24352  user.amount.mul(poolInfo.accRewardPerShare).div */\n      tag_60\n      swap1\n        /* \"farms-pools/SousChef.sol\":24305:24358  user.amount.mul(poolInfo.accRewardPerShare).div(1e12) */\n      swap2\n      swap1\n      0xffffffff\n      and\n      jump\t// in\n    tag_57:\n        /* \"farms-pools/SousChef.sol\":24305:24362  user.amount.mul(poolInfo.accRewardPerShare).div(1e12).sub */\n      tag_61\n      swap1\n        /* \"farms-pools/SousChef.sol\":24305:24379  user.amount.mul(poolInfo.accRewardPerShare).div(1e12).sub(user.rewardDebt) */\n      swap2\n      swap1\n      0xffffffff\n      and\n      jump\t// in\n    tag_56:\n        /* \"farms-pools/SousChef.sol\":24305:24383  user.amount.mul(poolInfo.accRewardPerShare).div(1e12).sub(user.rewardDebt).add */\n      tag_62\n      swap1\n        /* \"farms-pools/SousChef.sol\":24305:24403  user.amount.mul(poolInfo.accRewardPerShare).div(1e12).sub(user.rewardDebt).add(user.rewardPending) */\n      swap2\n      swap1\n      0xffffffff\n      and\n      jump\t// in\n    tag_55:\n        /* \"farms-pools/SousChef.sol\":24284:24288  user */\n      dup2\n        /* \"farms-pools/SousChef.sol\":24284:24302  user.rewardPending */\n      0x02\n      add\n        /* \"farms-pools/SousChef.sol\":24284:24403  user.rewardPending = user.amount.mul(poolInfo.accRewardPerShare).div(1e12).sub(user.rewardDebt).add(user.rewardPending) */\n      dup2\n      swap1\n      sstore\n      pop\n        /* \"farms-pools/SousChef.sol\":24428:24452  user.amount.sub(_amount) */\n      tag_63\n        /* \"farms-pools/SousChef.sol\":24444:24451  _amount */\n      dup3\n        /* \"farms-pools/SousChef.sol\":24428:24432  user */\n      dup3\n        /* \"farms-pools/SousChef.sol\":24428:24439  user.amount */\n      0x00\n      add\n      sload\n        /* \"farms-pools/SousChef.sol\":24428:24443  user.amount.sub */\n      tag_61\n      swap1\n        /* \"farms-pools/SousChef.sol\":24428:24452  user.amount.sub(_amount) */\n      swap2\n      swap1\n      0xffffffff\n      and\n      jump\t// in\n    tag_63:\n        /* \"farms-pools/SousChef.sol\":24414:24418  user */\n      dup2\n        /* \"farms-pools/SousChef.sol\":24414:24425  user.amount */\n      0x00\n      add\n        /* \"farms-pools/SousChef.sol\":24414:24452  user.amount = user.amount.sub(_amount) */\n      dup2\n      swap1\n      sstore\n      pop\n        /* \"farms-pools/SousChef.sol\":24481:24534  user.amount.mul(poolInfo.accRewardPerShare).div(1e12) */\n      tag_64\n        /* \"farms-pools/SousChef.sol\":24529:24533  1e12 */\n      0xe8d4a51000\n        /* \"farms-pools/SousChef.sol\":24481:24524  user.amount.mul(poolInfo.accRewardPerShare) */\n      tag_65\n        /* \"farms-pools/SousChef.sol\":24497:24505  poolInfo */\n      0x02\n        /* \"farms-pools/SousChef.sol\":24497:24523  poolInfo.accRewardPerShare */\n      0x01\n      add\n      sload\n        /* \"farms-pools/SousChef.sol\":24481:24485  user */\n      dup5\n        /* \"farms-pools/SousChef.sol\":24481:24492  user.amount */\n      0x00\n      add\n      sload\n        /* \"farms-pools/SousChef.sol\":24481:24496  user.amount.mul */\n      tag_59\n      swap1\n        /* \"farms-pools/SousChef.sol\":24481:24524  user.amount.mul(poolInfo.accRewardPerShare) */\n      swap2\n      swap1\n      0xffffffff\n      and\n      jump\t// in\n    tag_65:\n        /* \"farms-pools/SousChef.sol\":24481:24528  user.amount.mul(poolInfo.accRewardPerShare).div */\n      tag_60\n      swap1\n        /* \"farms-pools/SousChef.sol\":24481:24534  user.amount.mul(poolInfo.accRewardPerShare).div(1e12) */\n      swap2\n      swap1\n      0xffffffff\n      and\n      jump\t// in\n    tag_64:\n        /* \"farms-pools/SousChef.sol\":24463:24467  user */\n      dup2\n        /* \"farms-pools/SousChef.sol\":24463:24478  user.rewardDebt */\n      0x01\n      add\n        /* \"farms-pools/SousChef.sol\":24463:24534  user.rewardDebt = user.amount.mul(poolInfo.accRewardPerShare).div(1e12) */\n      dup2\n      swap1\n      sstore\n      pop\n        /* \"farms-pools/SousChef.sol\":24561:24571  msg.sender */\n      caller\n        /* \"farms-pools/SousChef.sol\":24552:24581  Withdraw(msg.sender, _amount) */\n      0xffffffffffffffffffffffffffffffffffffffff\n      and\n      0x884edad9ce6fa2440d8a54cc123490eb96d2768479d49ff9c7366125a9424364\n        /* \"farms-pools/SousChef.sol\":24573:24580  _amount */\n      dup4\n        /* \"farms-pools/SousChef.sol\":24552:24581  Withdraw(msg.sender, _amount) */\n      mload(0x40)\n      dup1\n      dup3\n      dup2\n      mstore\n      0x20\n      add\n      swap2\n      pop\n      pop\n      mload(0x40)\n      dup1\n      swap2\n      sub\n      swap1\n      log2\n        /* \"farms-pools/SousChef.sol\":23980:24589  function withdraw(uint256 _amount) public {\r... */\n      pop\n      pop\n      jump\t// out\n        /* \"farms-pools/SousChef.sol\":20426:20451  uint256 public startBlock */\n    tag_27:\n      sload(0x06)\n      dup2\n      jump\t// out\n        /* \"farms-pools/SousChef.sol\":20184:20208  PoolInfo public poolInfo */\n    tag_29:\n      0x02\n      dup1\n      0x00\n      add\n      sload\n      swap1\n      dup1\n      0x01\n      add\n      sload\n      swap1\n      pop\n      dup3\n      jump\t// out\n        /* \"farms-pools/SousChef.sol\":20071:20090  IBEP20 public syrup */\n    tag_31:\n      0x00\n      dup1\n      sload\n      swap1\n      0x0100\n      exp\n      swap1\n      div\n      0xffffffffffffffffffffffffffffffffffffffff\n      and\n      dup2\n      jump\t// out\n        /* \"farms-pools/SousChef.sol\":20132:20161  uint256 public rewardPerBlock */\n    tag_33:\n      sload(0x01)\n      dup2\n      jump\t// out\n        /* \"farms-pools/SousChef.sol\":23221:23927  function deposit(uint256 _amount) public {\r... */\n    tag_36:\n        /* \"farms-pools/SousChef.sol\":23292:23293  0 */\n      0x00\n        /* \"farms-pools/SousChef.sol\":23282:23289  _amount */\n      dup2\n        /* \"farms-pools/SousChef.sol\":23282:23293  _amount > 0 */\n      gt\n        /* \"farms-pools/SousChef.sol\":23273:23306  require (_amount > 0, 'amount 0') */\n      tag_67\n      jumpi\n      mload(0x40)\n      0x08c379a000000000000000000000000000000000000000000000000000000000\n      dup2\n      mstore\n      0x04\n      add\n      dup1\n      dup1\n      0x20\n      add\n      dup3\n      dup2\n      sub\n      dup3\n      mstore\n      0x08\n      dup2\n      mstore\n      0x20\n      add\n      dup1\n      0x616d6f756e742030000000000000000000000000000000000000000000000000\n      dup2\n      mstore\n      pop\n      0x20\n      add\n      swap2\n      pop\n      pop\n      mload(0x40)\n      dup1\n      swap2\n      sub\n      swap1\n      revert\n    tag_67:\n        /* \"farms-pools/SousChef.sol\":23317:23338  UserInfo storage user */\n      0x00\n        /* \"farms-pools/SousChef.sol\":23341:23349  userInfo */\n      0x04\n        /* \"farms-pools/SousChef.sol\":23341:23361  userInfo[msg.sender] */\n      0x00\n        /* \"farms-pools/SousChef.sol\":23350:23360  msg.sender */\n      caller\n        /* \"farms-pools/SousChef.sol\":23341:23361  userInfo[msg.sender] */\n      0xffffffffffffffffffffffffffffffffffffffff\n      and\n      0xffffffffffffffffffffffffffffffffffffffff\n      and\n      dup2\n      mstore\n      0x20\n      add\n      swap1\n      dup2\n      mstore\n      0x20\n      add\n      0x00\n      keccak256\n        /* \"farms-pools/SousChef.sol\":23317:23361  UserInfo storage user = userInfo[msg.sender] */\n      swap1\n      pop\n        /* \"farms-pools/SousChef.sol\":23374:23386  updatePool() */\n      tag_68\n        /* \"farms-pools/SousChef.sol\":23374:23384  updatePool */\n      tag_45\n        /* \"farms-pools/SousChef.sol\":23374:23386  updatePool() */\n      jump\t// in\n    tag_68:\n        /* \"farms-pools/SousChef.sol\":23397:23464  syrup.safeTransferFrom(address(msg.sender), address(this), _amount) */\n      tag_69\n        /* \"farms-pools/SousChef.sol\":23428:23438  msg.sender */\n      caller\n        /* \"farms-pools/SousChef.sol\":23449:23453  this */\n      address\n        /* \"farms-pools/SousChef.sol\":23456:23463  _amount */\n      dup5\n        /* \"farms-pools/SousChef.sol\":23397:23402  syrup */\n      0x00\n      dup1\n      sload\n      swap1\n      0x0100\n      exp\n      swap1\n      div\n      0xffffffffffffffffffffffffffffffffffffffff\n      and\n        /* \"farms-pools/SousChef.sol\":23397:23419  syrup.safeTransferFrom */\n      0xffffffffffffffffffffffffffffffffffffffff\n      and\n      tag_70\n      swap1\n        /* \"farms-pools/SousChef.sol\":23397:23464  syrup.safeTransferFrom(address(msg.sender), address(this), _amount) */\n      swap4\n      swap3\n      swap2\n      swap1\n      0xffffffff\n      and\n      jump\t// in\n    tag_69:\n        /* \"farms-pools/SousChef.sol\":23494:23495  0 */\n      0x00\n        /* \"farms-pools/SousChef.sol\":23479:23483  user */\n      dup2\n        /* \"farms-pools/SousChef.sol\":23479:23490  user.amount */\n      0x00\n      add\n      sload\n        /* \"farms-pools/SousChef.sol\":23479:23495  user.amount == 0 */\n      eq\n        /* \"farms-pools/SousChef.sol\":23479:23519  user.amount == 0 && user.rewardDebt == 0 */\n      dup1\n      iszero\n      tag_71\n      jumpi\n      pop\n        /* \"farms-pools/SousChef.sol\":23518:23519  0 */\n      0x00\n        /* \"farms-pools/SousChef.sol\":23499:23503  user */\n      dup2\n        /* \"farms-pools/SousChef.sol\":23499:23514  user.rewardDebt */\n      0x01\n      add\n      sload\n        /* \"farms-pools/SousChef.sol\":23499:23519  user.rewardDebt == 0 */\n      eq\n        /* \"farms-pools/SousChef.sol\":23479:23519  user.amount == 0 && user.rewardDebt == 0 */\n    tag_71:\n        /* \"farms-pools/SousChef.sol\":23479:23545  user.amount == 0 && user.rewardDebt == 0 && user.rewardPending ==0 */\n      dup1\n      iszero\n      tag_72\n      jumpi\n      pop\n        /* \"farms-pools/SousChef.sol\":23544:23545  0 */\n      0x00\n        /* \"farms-pools/SousChef.sol\":23523:23527  user */\n      dup2\n        /* \"farms-pools/SousChef.sol\":23523:23541  user.rewardPending */\n      0x02\n      add\n      sload\n        /* \"farms-pools/SousChef.sol\":23523:23545  user.rewardPending ==0 */\n      eq\n        /* \"farms-pools/SousChef.sol\":23479:23545  user.amount == 0 && user.rewardDebt == 0 && user.rewardPending ==0 */\n    tag_72:\n        /* \"farms-pools/SousChef.sol\":23475:23611  if (user.amount == 0 && user.rewardDebt == 0 && user.rewardPending ==0) {\r... */\n      iszero\n      tag_73\n      jumpi\n        /* \"farms-pools/SousChef.sol\":23562:23573  addressList */\n      0x05\n        /* \"farms-pools/SousChef.sol\":23587:23597  msg.sender */\n      caller\n        /* \"farms-pools/SousChef.sol\":23562:23599  addressList.push(address(msg.sender)) */\n      swap1\n      dup1\n      0x01\n      dup2\n      sload\n      add\n      dup1\n      dup3\n      sstore\n      dup1\n      swap2\n      pop\n      pop\n      0x01\n      swap1\n      sub\n      swap1\n      0x00\n      mstore\n      keccak256(0x00, 0x20)\n      add\n      0x00\n      swap1\n      swap2\n      swap1\n      swap2\n      swap1\n      swap2\n      0x0100\n      exp\n      dup2\n      sload\n      dup2\n      0xffffffffffffffffffffffffffffffffffffffff\n      mul\n      not\n      and\n      swap1\n      dup4\n      0xffffffffffffffffffffffffffffffffffffffff\n      and\n      mul\n      or\n      swap1\n      sstore\n      pop\n        /* \"farms-pools/SousChef.sol\":23475:23611  if (user.amount == 0 && user.rewardDebt == 0 && user.rewardPending ==0) {\r... */\n    tag_73:\n        /* \"farms-pools/SousChef.sol\":23644:23742  user.amount.mul(poolInfo.accRewardPerShare).div(1e12).sub(user.rewardDebt).add(user.rewardPending) */\n      tag_75\n        /* \"farms-pools/SousChef.sol\":23723:23727  user */\n      dup2\n        /* \"farms-pools/SousChef.sol\":23723:23741  user.rewardPending */\n      0x02\n      add\n      sload\n        /* \"farms-pools/SousChef.sol\":23644:23718  user.amount.mul(poolInfo.accRewardPerShare).div(1e12).sub(user.rewardDebt) */\n      tag_76\n        /* \"farms-pools/SousChef.sol\":23702:23706  user */\n      dup4\n        /* \"farms-pools/SousChef.sol\":23702:23717  user.rewardDebt */\n      0x01\n      add\n      sload\n        /* \"farms-pools/SousChef.sol\":23644:23697  user.amount.mul(poolInfo.accRewardPerShare).div(1e12) */\n      tag_77\n        /* \"farms-pools/SousChef.sol\":23692:23696  1e12 */\n      0xe8d4a51000\n        /* \"farms-pools/SousChef.sol\":23644:23687  user.amount.mul(poolInfo.accRewardPerShare) */\n      tag_78\n        /* \"farms-pools/SousChef.sol\":23660:23668  poolInfo */\n      0x02\n        /* \"farms-pools/SousChef.sol\":23660:23686  poolInfo.accRewardPerShare */\n      0x01\n      add\n      sload\n        /* \"farms-pools/SousChef.sol\":23644:23648  user */\n      dup9\n        /* \"farms-pools/SousChef.sol\":23644:23655  user.amount */\n      0x00\n      add\n      sload\n        /* \"farms-pools/SousChef.sol\":23644:23659  user.amount.mul */\n      tag_59\n      swap1\n        /* \"farms-pools/SousChef.sol\":23644:23687  user.amount.mul(poolInfo.accRewardPerShare) */\n      swap2\n      swap1\n      0xffffffff\n      and\n      jump\t// in\n    tag_78:\n        /* \"farms-pools/SousChef.sol\":23644:23691  user.amount.mul(poolInfo.accRewardPerShare).div */\n      tag_60\n      swap1\n        /* \"farms-pools/SousChef.sol\":23644:23697  user.amount.mul(poolInfo.accRewardPerShare).div(1e12) */\n      swap2\n      swap1\n      0xffffffff\n      and\n      jump\t// in\n    tag_77:\n        /* \"farms-pools/SousChef.sol\":23644:23701  user.amount.mul(poolInfo.accRewardPerShare).div(1e12).sub */\n      tag_61\n      swap1\n        /* \"farms-pools/SousChef.sol\":23644:23718  user.amount.mul(poolInfo.accRewardPerShare).div(1e12).sub(user.rewardDebt) */\n      swap2\n      swap1\n      0xffffffff\n      and\n      jump\t// in\n    tag_76:\n        /* \"farms-pools/SousChef.sol\":23644:23722  user.amount.mul(poolInfo.accRewardPerShare).div(1e12).sub(user.rewardDebt).add */\n      tag_62\n      swap1\n        /* \"farms-pools/SousChef.sol\":23644:23742  user.amount.mul(poolInfo.accRewardPerShare).div(1e12).sub(user.rewardDebt).add(user.rewardPending) */\n      swap2\n      swap1\n      0xffffffff\n      and\n      jump\t// in\n    tag_75:\n        /* \"farms-pools/SousChef.sol\":23623:23627  user */\n      dup2\n        /* \"farms-pools/SousChef.sol\":23623:23641  user.rewardPending */\n      0x02\n      add\n        /* \"farms-pools/SousChef.sol\":23623:23742  user.rewardPending = user.amount.mul(poolInfo.accRewardPerShare).div(1e12).sub(user.rewardDebt).add(user.rewardPending) */\n      dup2\n      swap1\n      sstore\n      pop\n        /* \"farms-pools/SousChef.sol\":23767:23791  user.amount.add(_amount) */\n      tag_79\n        /* \"farms-pools/SousChef.sol\":23783:23790  _amount */\n      dup3\n        /* \"farms-pools/SousChef.sol\":23767:23771  user */\n      dup3\n        /* \"farms-pools/SousChef.sol\":23767:23778  user.amount */\n      0x00\n      add\n      sload\n        /* \"farms-pools/SousChef.sol\":23767:23782  user.amount.add */\n      tag_62\n      swap1\n        /* \"farms-pools/SousChef.sol\":23767:23791  user.amount.add(_amount) */\n      swap2\n      swap1\n      0xffffffff\n      and\n      jump\t// in\n    tag_79:\n        /* \"farms-pools/SousChef.sol\":23753:23757  user */\n      dup2\n        /* \"farms-pools/SousChef.sol\":23753:23764  user.amount */\n      0x00\n      add\n        /* \"farms-pools/SousChef.sol\":23753:23791  user.amount = user.amount.add(_amount) */\n      dup2\n      swap1\n      sstore\n      pop\n        /* \"farms-pools/SousChef.sol\":23820:23873  user.amount.mul(poolInfo.accRewardPerShare).div(1e12) */\n      tag_80\n        /* \"farms-pools/SousChef.sol\":23868:23872  1e12 */\n      0xe8d4a51000\n        /* \"farms-pools/SousChef.sol\":23820:23863  user.amount.mul(poolInfo.accRewardPerShare) */\n      tag_81\n        /* \"farms-pools/SousChef.sol\":23836:23844  poolInfo */\n      0x02\n        /* \"farms-pools/SousChef.sol\":23836:23862  poolInfo.accRewardPerShare */\n      0x01\n      add\n      sload\n        /* \"farms-pools/SousChef.sol\":23820:23824  user */\n      dup5\n        /* \"farms-pools/SousChef.sol\":23820:23831  user.amount */\n      0x00\n      add\n      sload\n        /* \"farms-pools/SousChef.sol\":23820:23835  user.amount.mul */\n      tag_59\n      swap1\n        /* \"farms-pools/SousChef.sol\":23820:23863  user.amount.mul(poolInfo.accRewardPerShare) */\n      swap2\n      swap1\n      0xffffffff\n      and\n      jump\t// in\n    tag_81:\n        /* \"farms-pools/SousChef.sol\":23820:23867  user.amount.mul(poolInfo.accRewardPerShare).div */\n      tag_60\n      swap1\n        /* \"farms-pools/SousChef.sol\":23820:23873  user.amount.mul(poolInfo.accRewardPerShare).div(1e12) */\n      swap2\n      swap1\n      0xffffffff\n      and\n      jump\t// in\n    tag_80:\n        /* \"farms-pools/SousChef.sol\":23802:23806  user */\n      dup2\n        /* \"farms-pools/SousChef.sol\":23802:23817  user.rewardDebt */\n      0x01\n      add\n        /* \"farms-pools/SousChef.sol\":23802:23873  user.rewardDebt = user.amount.mul(poolInfo.accRewardPerShare).div(1e12) */\n      dup2\n      swap1\n      sstore\n      pop\n        /* \"farms-pools/SousChef.sol\":23899:23909  msg.sender */\n      caller\n        /* \"farms-pools/SousChef.sol\":23891:23919  Deposit(msg.sender, _amount) */\n      0xffffffffffffffffffffffffffffffffffffffff\n      and\n      0xe1fffcc4923d04b559f4d29a8bfc6cda04eb5b0d3c460751c2402c5c5cc9109c\n        /* \"farms-pools/SousChef.sol\":23911:23918  _amount */\n      dup4\n        /* \"farms-pools/SousChef.sol\":23891:23919  Deposit(msg.sender, _amount) */\n      mload(0x40)\n      dup1\n      dup3\n      dup2\n      mstore\n      0x20\n      add\n      swap2\n      pop\n      pop\n      mload(0x40)\n      dup1\n      swap2\n      sub\n      swap1\n      log2\n        /* \"farms-pools/SousChef.sol\":23221:23927  function deposit(uint256 _amount) public {\r... */\n      pop\n      pop\n      jump\t// out\n        /* \"farms-pools/SousChef.sol\":20344:20372  address[] public addressList */\n    tag_39:\n      0x05\n      dup2\n      dup2\n      sload\n      dup2\n      lt\n      tag_82\n      jumpi\n      invalid\n    tag_82:\n      swap1\n      0x00\n      mstore\n      keccak256(0x00, 0x20)\n      add\n      0x00\n      swap2\n      pop\n      sload\n      swap1\n      0x0100\n      exp\n      swap1\n      div\n      0xffffffffffffffffffffffffffffffffffffffff\n      and\n      dup2\n      jump\t// out\n        /* \"farms-pools/SousChef.sol\":24660:24936  function emergencyWithdraw() public {\r... */\n    tag_41:\n        /* \"farms-pools/SousChef.sol\":24707:24728  UserInfo storage user */\n      0x00\n        /* \"farms-pools/SousChef.sol\":24731:24739  userInfo */\n      0x04\n        /* \"farms-pools/SousChef.sol\":24731:24751  userInfo[msg.sender] */\n      0x00\n        /* \"farms-pools/SousChef.sol\":24740:24750  msg.sender */\n      caller\n        /* \"farms-pools/SousChef.sol\":24731:24751  userInfo[msg.sender] */\n      0xffffffffffffffffffffffffffffffffffffffff\n      and\n      0xffffffffffffffffffffffffffffffffffffffff\n      and\n      dup2\n      mstore\n      0x20\n      add\n      swap1\n      dup2\n      mstore\n      0x20\n      add\n      0x00\n      keccak256\n        /* \"farms-pools/SousChef.sol\":24707:24751  UserInfo storage user = userInfo[msg.sender] */\n      swap1\n      pop\n        /* \"farms-pools/SousChef.sol\":24762:24814  syrup.safeTransfer(address(msg.sender), user.amount) */\n      tag_85\n        /* \"farms-pools/SousChef.sol\":24789:24799  msg.sender */\n      caller\n        /* \"farms-pools/SousChef.sol\":24802:24806  user */\n      dup3\n        /* \"farms-pools/SousChef.sol\":24802:24813  user.amount */\n      0x00\n      add\n      sload\n        /* \"farms-pools/SousChef.sol\":24762:24767  syrup */\n      0x00\n      dup1\n      sload\n      swap1\n      0x0100\n      exp\n      swap1\n      div\n      0xffffffffffffffffffffffffffffffffffffffff\n      and\n        /* \"farms-pools/SousChef.sol\":24762:24780  syrup.safeTransfer */\n      0xffffffffffffffffffffffffffffffffffffffff\n      and\n      tag_54\n      swap1\n        /* \"farms-pools/SousChef.sol\":24762:24814  syrup.safeTransfer(address(msg.sender), user.amount) */\n      swap3\n      swap2\n      swap1\n      0xffffffff\n      and\n      jump\t// in\n    tag_85:\n        /* \"farms-pools/SousChef.sol\":24848:24858  msg.sender */\n      caller\n        /* \"farms-pools/SousChef.sol\":24830:24872  EmergencyWithdraw(msg.sender, user.amount) */\n      0xffffffffffffffffffffffffffffffffffffffff\n      and\n      0x5fafa99d0643513820be26656b45130b01e1c03062e1266bf36f88cbd3bd9695\n        /* \"farms-pools/SousChef.sol\":24860:24864  user */\n      dup3\n        /* \"farms-pools/SousChef.sol\":24860:24871  user.amount */\n      0x00\n      add\n      sload\n        /* \"farms-pools/SousChef.sol\":24830:24872  EmergencyWithdraw(msg.sender, user.amount) */\n      mload(0x40)\n      dup1\n      dup3\n      dup2\n      mstore\n      0x20\n      add\n      swap2\n      pop\n      pop\n      mload(0x40)\n      dup1\n      swap2\n      sub\n      swap1\n      log2\n        /* \"farms-pools/SousChef.sol\":24897:24898  0 */\n      0x00\n        /* \"farms-pools/SousChef.sol\":24883:24887  user */\n      dup2\n        /* \"farms-pools/SousChef.sol\":24883:24894  user.amount */\n      0x00\n      add\n        /* \"farms-pools/SousChef.sol\":24883:24898  user.amount = 0 */\n      dup2\n      swap1\n      sstore\n      pop\n        /* \"farms-pools/SousChef.sol\":24927:24928  0 */\n      0x00\n        /* \"farms-pools/SousChef.sol\":24909:24913  user */\n      dup2\n        /* \"farms-pools/SousChef.sol\":24909:24924  user.rewardDebt */\n      0x01\n      add\n        /* \"farms-pools/SousChef.sol\":24909:24928  user.rewardDebt = 0 */\n      dup2\n      swap1\n      sstore\n      pop\n        /* \"farms-pools/SousChef.sol\":24660:24936  function emergencyWithdraw() public {\r... */\n      pop\n      jump\t// out\n        /* \"farms-pools/SousChef.sol\":21169:21270  function addressLength() external view returns (uint256) {\r... */\n    tag_43:\n        /* \"farms-pools/SousChef.sol\":21217:21224  uint256 */\n      0x00\n        /* \"farms-pools/SousChef.sol\":21244:21255  addressList */\n      0x05\n        /* \"farms-pools/SousChef.sol\":21244:21262  addressList.length */\n      dup1\n      sload\n      swap1\n      pop\n        /* \"farms-pools/SousChef.sol\":21237:21262  return addressList.length */\n      swap1\n      pop\n        /* \"farms-pools/SousChef.sol\":21169:21270  function addressLength() external view returns (uint256) {\r... */\n      swap1\n      jump\t// out\n        /* \"farms-pools/SousChef.sol\":22531:23149  function updatePool() public {\r... */\n    tag_45:\n        /* \"farms-pools/SousChef.sol\":22591:22599  poolInfo */\n      0x02\n        /* \"farms-pools/SousChef.sol\":22591:22615  poolInfo.lastRewardBlock */\n      0x00\n      add\n      sload\n        /* \"farms-pools/SousChef.sol\":22575:22587  block.number */\n      number\n        /* \"farms-pools/SousChef.sol\":22575:22615  block.number <= poolInfo.lastRewardBlock */\n      gt\n        /* \"farms-pools/SousChef.sol\":22571:22650  if (block.number <= poolInfo.lastRewardBlock) {\r... */\n      tag_88\n      jumpi\n        /* \"farms-pools/SousChef.sol\":22632:22639  return; */\n      jump(tag_87)\n        /* \"farms-pools/SousChef.sol\":22571:22650  if (block.number <= poolInfo.lastRewardBlock) {\r... */\n    tag_88:\n        /* \"farms-pools/SousChef.sol\":22660:22679  uint256 syrupSupply */\n      0x00\n        /* \"farms-pools/SousChef.sol\":22682:22687  syrup */\n      dup1\n      0x00\n      swap1\n      sload\n      swap1\n      0x0100\n      exp\n      swap1\n      div\n      0xffffffffffffffffffffffffffffffffffffffff\n      and\n        /* \"farms-pools/SousChef.sol\":22682:22697  syrup.balanceOf */\n      0xffffffffffffffffffffffffffffffffffffffff\n      and\n      0x70a08231\n        /* \"farms-pools/SousChef.sol\":22706:22710  this */\n      address\n        /* \"farms-pools/SousChef.sol\":22682:22712  syrup.balanceOf(address(this)) */\n      mload(0x40)\n      dup3\n      0xffffffff\n      and\n      0xe0\n      shl\n      dup2\n      mstore\n      0x04\n      add\n      dup1\n      dup3\n      0xffffffffffffffffffffffffffffffffffffffff\n      and\n      dup2\n      mstore\n      0x20\n      add\n      swap2\n      pop\n      pop\n      0x20\n      mload(0x40)\n      dup1\n      dup4\n      sub\n      dup2\n      dup7\n      dup1\n      extcodesize\n      iszero\n      dup1\n      iszero\n      tag_89\n      jumpi\n      0x00\n      dup1\n      revert\n    tag_89:\n      pop\n      gas\n      staticcall\n      iszero\n      dup1\n      iszero\n      tag_91\n      jumpi\n      returndatasize\n      0x00\n      dup1\n      returndatacopy\n      revert(0x00, returndatasize)\n    tag_91:\n      pop\n      pop\n      pop\n      pop\n      mload(0x40)\n      returndatasize\n      0x20\n      dup2\n      lt\n      iszero\n      tag_92\n      jumpi\n      0x00\n      dup1\n      revert\n    tag_92:\n      dup2\n      add\n      swap1\n      dup1\n      dup1\n      mload\n      swap1\n      0x20\n      add\n      swap1\n      swap3\n      swap2\n      swap1\n      pop\n      pop\n      pop\n        /* \"farms-pools/SousChef.sol\":22660:22712  uint256 syrupSupply = syrup.balanceOf(address(this)) */\n      swap1\n      pop\n        /* \"farms-pools/SousChef.sol\":22742:22743  0 */\n      0x00\n        /* \"farms-pools/SousChef.sol\":22727:22738  syrupSupply */\n      dup2\n        /* \"farms-pools/SousChef.sol\":22727:22743  syrupSupply == 0 */\n      eq\n        /* \"farms-pools/SousChef.sol\":22723:22832  if (syrupSupply == 0) {\r... */\n      iszero\n      tag_93\n      jumpi\n        /* \"farms-pools/SousChef.sol\":22787:22799  block.number */\n      number\n        /* \"farms-pools/SousChef.sol\":22760:22768  poolInfo */\n      0x02\n        /* \"farms-pools/SousChef.sol\":22760:22784  poolInfo.lastRewardBlock */\n      0x00\n      add\n        /* \"farms-pools/SousChef.sol\":22760:22799  poolInfo.lastRewardBlock = block.number */\n      dup2\n      swap1\n      sstore\n      pop\n        /* \"farms-pools/SousChef.sol\":22814:22821  return; */\n      pop\n      jump(tag_87)\n        /* \"farms-pools/SousChef.sol\":22723:22832  if (syrupSupply == 0) {\r... */\n    tag_93:\n        /* \"farms-pools/SousChef.sol\":22842:22860  uint256 multiplier */\n      0x00\n        /* \"farms-pools/SousChef.sol\":22863:22916  getMultiplier(poolInfo.lastRewardBlock, block.number) */\n      tag_94\n        /* \"farms-pools/SousChef.sol\":22877:22885  poolInfo */\n      0x02\n        /* \"farms-pools/SousChef.sol\":22877:22901  poolInfo.lastRewardBlock */\n      0x00\n      add\n      sload\n        /* \"farms-pools/SousChef.sol\":22903:22915  block.number */\n      number\n        /* \"farms-pools/SousChef.sol\":22863:22876  getMultiplier */\n      tag_95\n        /* \"farms-pools/SousChef.sol\":22863:22916  getMultiplier(poolInfo.lastRewardBlock, block.number) */\n      jump\t// in\n    tag_94:\n        /* \"farms-pools/SousChef.sol\":22842:22916  uint256 multiplier = getMultiplier(poolInfo.lastRewardBlock, block.number) */\n      swap1\n      pop\n        /* \"farms-pools/SousChef.sol\":22927:22946  uint256 tokenReward */\n      0x00\n        /* \"farms-pools/SousChef.sol\":22949:22979  multiplier.mul(rewardPerBlock) */\n      tag_96\n        /* \"farms-pools/SousChef.sol\":22964:22978  rewardPerBlock */\n      sload(0x01)\n        /* \"farms-pools/SousChef.sol\":22949:22959  multiplier */\n      dup4\n        /* \"farms-pools/SousChef.sol\":22949:22963  multiplier.mul */\n      tag_59\n      swap1\n        /* \"farms-pools/SousChef.sol\":22949:22979  multiplier.mul(rewardPerBlock) */\n      swap2\n      swap1\n      0xffffffff\n      and\n      jump\t// in\n    tag_96:\n        /* \"farms-pools/SousChef.sol\":22927:22979  uint256 tokenReward = multiplier.mul(rewardPerBlock) */\n      swap1\n      pop\n        /* \"farms-pools/SousChef.sol\":23021:23091  poolInfo.accRewardPerShare.add(tokenReward.mul(1e12).div(syrupSupply)) */\n      tag_97\n        /* \"farms-pools/SousChef.sol\":23052:23090  tokenReward.mul(1e12).div(syrupSupply) */\n      tag_98\n        /* \"farms-pools/SousChef.sol\":23078:23089  syrupSupply */\n      dup5\n        /* \"farms-pools/SousChef.sol\":23052:23073  tokenReward.mul(1e12) */\n      tag_99\n        /* \"farms-pools/SousChef.sol\":23068:23072  1e12 */\n      0xe8d4a51000\n        /* \"farms-pools/SousChef.sol\":23052:23063  tokenReward */\n      dup6\n        /* \"farms-pools/SousChef.sol\":23052:23067  tokenReward.mul */\n      tag_59\n      swap1\n        /* \"farms-pools/SousChef.sol\":23052:23073  tokenReward.mul(1e12) */\n      swap2\n      swap1\n      0xffffffff\n      and\n      jump\t// in\n    tag_99:\n        /* \"farms-pools/SousChef.sol\":23052:23077  tokenReward.mul(1e12).div */\n      tag_60\n      swap1\n        /* \"farms-pools/SousChef.sol\":23052:23090  tokenReward.mul(1e12).div(syrupSupply) */\n      swap2\n      swap1\n      0xffffffff\n      and\n      jump\t// in\n    tag_98:\n        /* \"farms-pools/SousChef.sol\":23021:23029  poolInfo */\n      0x02\n        /* \"farms-pools/SousChef.sol\":23021:23047  poolInfo.accRewardPerShare */\n      0x01\n      add\n      sload\n        /* \"farms-pools/SousChef.sol\":23021:23051  poolInfo.accRewardPerShare.add */\n      tag_62\n      swap1\n        /* \"farms-pools/SousChef.sol\":23021:23091  poolInfo.accRewardPerShare.add(tokenReward.mul(1e12).div(syrupSupply)) */\n      swap2\n      swap1\n      0xffffffff\n      and\n      jump\t// in\n    tag_97:\n        /* \"farms-pools/SousChef.sol\":22992:23000  poolInfo */\n      0x02\n        /* \"farms-pools/SousChef.sol\":22992:23018  poolInfo.accRewardPerShare */\n      0x01\n      add\n        /* \"farms-pools/SousChef.sol\":22992:23091  poolInfo.accRewardPerShare = poolInfo.accRewardPerShare.add(tokenReward.mul(1e12).div(syrupSupply)) */\n      dup2\n      swap1\n      sstore\n      pop\n        /* \"farms-pools/SousChef.sol\":23129:23141  block.number */\n      number\n        /* \"farms-pools/SousChef.sol\":23102:23110  poolInfo */\n      0x02\n        /* \"farms-pools/SousChef.sol\":23102:23126  poolInfo.lastRewardBlock */\n      0x00\n      add\n        /* \"farms-pools/SousChef.sol\":23102:23141  poolInfo.lastRewardBlock = block.number */\n      dup2\n      swap1\n      sstore\n      pop\n        /* \"farms-pools/SousChef.sol\":22531:23149  function updatePool() public {\r... */\n      pop\n      pop\n      pop\n    tag_87:\n      jump\t// out\n        /* \"farms-pools/SousChef.sol\":21719:22455  function pendingReward(address _user) external view returns (uint256) {\r... */\n    tag_48:\n        /* \"farms-pools/SousChef.sol\":21780:21787  uint256 */\n      0x00\n        /* \"farms-pools/SousChef.sol\":21800:21821  PoolInfo storage pool */\n      dup1\n        /* \"farms-pools/SousChef.sol\":21824:21832  poolInfo */\n      0x02\n        /* \"farms-pools/SousChef.sol\":21800:21832  PoolInfo storage pool = poolInfo */\n      swap1\n      pop\n        /* \"farms-pools/SousChef.sol\":21843:21864  UserInfo storage user */\n      0x00\n        /* \"farms-pools/SousChef.sol\":21867:21875  userInfo */\n      0x04\n        /* \"farms-pools/SousChef.sol\":21867:21882  userInfo[_user] */\n      0x00\n        /* \"farms-pools/SousChef.sol\":21876:21881  _user */\n      dup6\n        /* \"farms-pools/SousChef.sol\":21867:21882  userInfo[_user] */\n      0xffffffffffffffffffffffffffffffffffffffff\n      and\n      0xffffffffffffffffffffffffffffffffffffffff\n      and\n      dup2\n      mstore\n      0x20\n      add\n      swap1\n      dup2\n      mstore\n      0x20\n      add\n      0x00\n      keccak256\n        /* \"farms-pools/SousChef.sol\":21843:21882  UserInfo storage user = userInfo[_user] */\n      swap1\n      pop\n        /* \"farms-pools/SousChef.sol\":21893:21918  uint256 accRewardPerShare */\n      0x00\n        /* \"farms-pools/SousChef.sol\":21921:21925  pool */\n      dup3\n        /* \"farms-pools/SousChef.sol\":21921:21943  pool.accRewardPerShare */\n      0x01\n      add\n      sload\n        /* \"farms-pools/SousChef.sol\":21893:21943  uint256 accRewardPerShare = pool.accRewardPerShare */\n      swap1\n      pop\n        /* \"farms-pools/SousChef.sol\":21954:21974  uint256 stakedSupply */\n      0x00\n        /* \"farms-pools/SousChef.sol\":21977:21982  syrup */\n      dup1\n      0x00\n      swap1\n      sload\n      swap1\n      0x0100\n      exp\n      swap1\n      div\n      0xffffffffffffffffffffffffffffffffffffffff\n      and\n        /* \"farms-pools/SousChef.sol\":21977:21992  syrup.balanceOf */\n      0xffffffffffffffffffffffffffffffffffffffff\n      and\n      0x70a08231\n        /* \"farms-pools/SousChef.sol\":22001:22005  this */\n      address\n        /* \"farms-pools/SousChef.sol\":21977:22007  syrup.balanceOf(address(this)) */\n      mload(0x40)\n      dup3\n      0xffffffff\n      and\n      0xe0\n      shl\n      dup2\n      mstore\n      0x04\n      add\n      dup1\n      dup3\n      0xffffffffffffffffffffffffffffffffffffffff\n      and\n      dup2\n      mstore\n      0x20\n      add\n      swap2\n      pop\n      pop\n      0x20\n      mload(0x40)\n      dup1\n      dup4\n      sub\n      dup2\n      dup7\n      dup1\n      extcodesize\n      iszero\n      dup1\n      iszero\n      tag_101\n      jumpi\n      0x00\n      dup1\n      revert\n    tag_101:\n      pop\n      gas\n      staticcall\n      iszero\n      dup1\n      iszero\n      tag_103\n      jumpi\n      returndatasize\n      0x00\n      dup1\n      returndatacopy\n      revert(0x00, returndatasize)\n    tag_103:\n      pop\n      pop\n      pop\n      pop\n      mload(0x40)\n      returndatasize\n      0x20\n      dup2\n      lt\n      iszero\n      tag_104\n      jumpi\n      0x00\n      dup1\n      revert\n    tag_104:\n      dup2\n      add\n      swap1\n      dup1\n      dup1\n      mload\n      swap1\n      0x20\n      add\n      swap1\n      swap3\n      swap2\n      swap1\n      pop\n      pop\n      pop\n        /* \"farms-pools/SousChef.sol\":21954:22007  uint256 stakedSupply = syrup.balanceOf(address(this)) */\n      swap1\n      pop\n        /* \"farms-pools/SousChef.sol\":22037:22041  pool */\n      dup4\n        /* \"farms-pools/SousChef.sol\":22037:22057  pool.lastRewardBlock */\n      0x00\n      add\n      sload\n        /* \"farms-pools/SousChef.sol\":22022:22034  block.number */\n      number\n        /* \"farms-pools/SousChef.sol\":22022:22057  block.number > pool.lastRewardBlock */\n      gt\n        /* \"farms-pools/SousChef.sol\":22022:22078  block.number > pool.lastRewardBlock && stakedSupply != 0 */\n      dup1\n      iszero\n      tag_105\n      jumpi\n      pop\n        /* \"farms-pools/SousChef.sol\":22077:22078  0 */\n      0x00\n        /* \"farms-pools/SousChef.sol\":22061:22073  stakedSupply */\n      dup2\n        /* \"farms-pools/SousChef.sol\":22061:22078  stakedSupply != 0 */\n      eq\n      iszero\n        /* \"farms-pools/SousChef.sol\":22022:22078  block.number > pool.lastRewardBlock && stakedSupply != 0 */\n    tag_105:\n        /* \"farms-pools/SousChef.sol\":22018:22341  if (block.number > pool.lastRewardBlock && stakedSupply != 0) {\r... */\n      iszero\n      tag_106\n      jumpi\n        /* \"farms-pools/SousChef.sol\":22095:22113  uint256 multiplier */\n      0x00\n        /* \"farms-pools/SousChef.sol\":22116:22165  getMultiplier(pool.lastRewardBlock, block.number) */\n      tag_107\n        /* \"farms-pools/SousChef.sol\":22130:22134  pool */\n      dup6\n        /* \"farms-pools/SousChef.sol\":22130:22150  pool.lastRewardBlock */\n      0x00\n      add\n      sload\n        /* \"farms-pools/SousChef.sol\":22152:22164  block.number */\n      number\n        /* \"farms-pools/SousChef.sol\":22116:22129  getMultiplier */\n      tag_95\n        /* \"farms-pools/SousChef.sol\":22116:22165  getMultiplier(pool.lastRewardBlock, block.number) */\n      jump\t// in\n    tag_107:\n        /* \"farms-pools/SousChef.sol\":22095:22165  uint256 multiplier = getMultiplier(pool.lastRewardBlock, block.number) */\n      swap1\n      pop\n        /* \"farms-pools/SousChef.sol\":22180:22199  uint256 tokenReward */\n      0x00\n        /* \"farms-pools/SousChef.sol\":22202:22232  multiplier.mul(rewardPerBlock) */\n      tag_108\n        /* \"farms-pools/SousChef.sol\":22217:22231  rewardPerBlock */\n      sload(0x01)\n        /* \"farms-pools/SousChef.sol\":22202:22212  multiplier */\n      dup4\n        /* \"farms-pools/SousChef.sol\":22202:22216  multiplier.mul */\n      tag_59\n      swap1\n        /* \"farms-pools/SousChef.sol\":22202:22232  multiplier.mul(rewardPerBlock) */\n      swap2\n      swap1\n      0xffffffff\n      and\n      jump\t// in\n    tag_108:\n        /* \"farms-pools/SousChef.sol\":22180:22232  uint256 tokenReward = multiplier.mul(rewardPerBlock) */\n      swap1\n      pop\n        /* \"farms-pools/SousChef.sol\":22267:22329  accRewardPerShare.add(tokenReward.mul(1e12).div(stakedSupply)) */\n      tag_109\n        /* \"farms-pools/SousChef.sol\":22289:22328  tokenReward.mul(1e12).div(stakedSupply) */\n      tag_110\n        /* \"farms-pools/SousChef.sol\":22315:22327  stakedSupply */\n      dup5\n        /* \"farms-pools/SousChef.sol\":22289:22310  tokenReward.mul(1e12) */\n      tag_111\n        /* \"farms-pools/SousChef.sol\":22305:22309  1e12 */\n      0xe8d4a51000\n        /* \"farms-pools/SousChef.sol\":22289:22300  tokenReward */\n      dup6\n        /* \"farms-pools/SousChef.sol\":22289:22304  tokenReward.mul */\n      tag_59\n      swap1\n        /* \"farms-pools/SousChef.sol\":22289:22310  tokenReward.mul(1e12) */\n      swap2\n      swap1\n      0xffffffff\n      and\n      jump\t// in\n    tag_111:\n        /* \"farms-pools/SousChef.sol\":22289:22314  tokenReward.mul(1e12).div */\n      tag_60\n      swap1\n        /* \"farms-pools/SousChef.sol\":22289:22328  tokenReward.mul(1e12).div(stakedSupply) */\n      swap2\n      swap1\n      0xffffffff\n      and\n      jump\t// in\n    tag_110:\n        /* \"farms-pools/SousChef.sol\":22267:22284  accRewardPerShare */\n      dup6\n        /* \"farms-pools/SousChef.sol\":22267:22288  accRewardPerShare.add */\n      tag_62\n      swap1\n        /* \"farms-pools/SousChef.sol\":22267:22329  accRewardPerShare.add(tokenReward.mul(1e12).div(stakedSupply)) */\n      swap2\n      swap1\n      0xffffffff\n      and\n      jump\t// in\n    tag_109:\n        /* \"farms-pools/SousChef.sol\":22247:22329  accRewardPerShare = accRewardPerShare.add(tokenReward.mul(1e12).div(stakedSupply)) */\n      swap4\n      pop\n        /* \"farms-pools/SousChef.sol\":22018:22341  if (block.number > pool.lastRewardBlock && stakedSupply != 0) {\r... */\n      pop\n      pop\n    tag_106:\n        /* \"farms-pools/SousChef.sol\":22358:22447  user.amount.mul(accRewardPerShare).div(1e12).sub(user.rewardDebt).add(user.rewardPending) */\n      tag_112\n        /* \"farms-pools/SousChef.sol\":22428:22432  user */\n      dup4\n        /* \"farms-pools/SousChef.sol\":22428:22446  user.rewardPending */\n      0x02\n      add\n      sload\n        /* \"farms-pools/SousChef.sol\":22358:22423  user.amount.mul(accRewardPerShare).div(1e12).sub(user.rewardDebt) */\n      tag_113\n        /* \"farms-pools/SousChef.sol\":22407:22411  user */\n      dup6\n        /* \"farms-pools/SousChef.sol\":22407:22422  user.rewardDebt */\n      0x01\n      add\n      sload\n        /* \"farms-pools/SousChef.sol\":22358:22402  user.amount.mul(accRewardPerShare).div(1e12) */\n      tag_114\n        /* \"farms-pools/SousChef.sol\":22397:22401  1e12 */\n      0xe8d4a51000\n        /* \"farms-pools/SousChef.sol\":22358:22392  user.amount.mul(accRewardPerShare) */\n      tag_115\n        /* \"farms-pools/SousChef.sol\":22374:22391  accRewardPerShare */\n      dup9\n        /* \"farms-pools/SousChef.sol\":22358:22362  user */\n      dup11\n        /* \"farms-pools/SousChef.sol\":22358:22369  user.amount */\n      0x00\n      add\n      sload\n        /* \"farms-pools/SousChef.sol\":22358:22373  user.amount.mul */\n      tag_59\n      swap1\n        /* \"farms-pools/SousChef.sol\":22358:22392  user.amount.mul(accRewardPerShare) */\n      swap2\n      swap1\n      0xffffffff\n      and\n      jump\t// in\n    tag_115:\n        /* \"farms-pools/SousChef.sol\":22358:22396  user.amount.mul(accRewardPerShare).div */\n      tag_60\n      swap1\n        /* \"farms-pools/SousChef.sol\":22358:22402  user.amount.mul(accRewardPerShare).div(1e12) */\n      swap2\n      swap1\n      0xffffffff\n      and\n      jump\t// in\n    tag_114:\n        /* \"farms-pools/SousChef.sol\":22358:22406  user.amount.mul(accRewardPerShare).div(1e12).sub */\n      tag_61\n      swap1\n        /* \"farms-pools/SousChef.sol\":22358:22423  user.amount.mul(accRewardPerShare).div(1e12).sub(user.rewardDebt) */\n      swap2\n      swap1\n      0xffffffff\n      and\n      jump\t// in\n    tag_113:\n        /* \"farms-pools/SousChef.sol\":22358:22427  user.amount.mul(accRewardPerShare).div(1e12).sub(user.rewardDebt).add */\n      tag_62\n      swap1\n        /* \"farms-pools/SousChef.sol\":22358:22447  user.amount.mul(accRewardPerShare).div(1e12).sub(user.rewardDebt).add(user.rewardPending) */\n      swap2\n      swap1\n      0xffffffff\n      and\n      jump\t// in\n    tag_112:\n        /* \"farms-pools/SousChef.sol\":22351:22447  return user.amount.mul(accRewardPerShare).div(1e12).sub(user.rewardDebt).add(user.rewardPending) */\n      swap5\n      pop\n      pop\n      pop\n      pop\n      pop\n        /* \"farms-pools/SousChef.sol\":21719:22455  function pendingReward(address _user) external view returns (uint256) {\r... */\n      swap2\n      swap1\n      pop\n      jump\t// out\n        /* \"farms-pools/SousChef.sol\":16105:16316  function safeTransfer(\r... */\n    tag_54:\n        /* \"farms-pools/SousChef.sol\":16222:16308  _callOptionalReturn(token, abi.encodeWithSelector(token.transfer.selector, to, value)) */\n      tag_117\n        /* \"farms-pools/SousChef.sol\":16242:16247  token */\n      dup4\n        /* \"farms-pools/SousChef.sol\":16272:16295  token.transfer.selector */\n      shl(0xe0, 0xa9059cbb)\n        /* \"farms-pools/SousChef.sol\":16297:16299  to */\n      dup5\n        /* \"farms-pools/SousChef.sol\":16301:16306  value */\n      dup5\n        /* \"farms-pools/SousChef.sol\":16249:16307  abi.encodeWithSelector(token.transfer.selector, to, value) */\n      add(0x24, mload(0x40))\n      dup1\n      dup4\n      0xffffffffffffffffffffffffffffffffffffffff\n      and\n      dup2\n      mstore\n      0x20\n      add\n      dup3\n      dup2\n      mstore\n      0x20\n      add\n      swap3\n      pop\n      pop\n      pop\n      mload(0x40)\n      0x20\n      dup2\n      dup4\n      sub\n      sub\n      dup2\n      mstore\n      swap1\n      0x40\n      mstore\n      swap1\n      not(0xffffffffffffffffffffffffffffffffffffffffffffffffffffffff)\n      and\n      0x20\n      dup3\n      add\n      dup1\n      mload\n      0xffffffffffffffffffffffffffffffffffffffffffffffffffffffff\n      dup4\n      dup2\n      dup4\n      and\n      or\n      dup4\n      mstore\n      pop\n      pop\n      pop\n      pop\n        /* \"farms-pools/SousChef.sol\":16222:16241  _callOptionalReturn */\n      tag_118\n        /* \"farms-pools/SousChef.sol\":16222:16308  _callOptionalReturn(token, abi.encodeWithSelector(token.transfer.selector, to, value)) */\n      jump\t// in\n    tag_117:\n        /* \"farms-pools/SousChef.sol\":16105:16316  function safeTransfer(\r... */\n      pop\n      pop\n      pop\n      jump\t// out\n        /* \"farms-pools/SousChef.sol\":2332:2803  function mul(uint256 a, uint256 b) internal pure returns (uint256) {\r... */\n    tag_59:\n        /* \"farms-pools/SousChef.sol\":2390:2397  uint256 */\n      0x00\n        /* \"farms-pools/SousChef.sol\":2640:2641  0 */\n      dup1\n        /* \"farms-pools/SousChef.sol\":2635:2636  a */\n      dup4\n        /* \"farms-pools/SousChef.sol\":2635:2641  a == 0 */\n      eq\n        /* \"farms-pools/SousChef.sol\":2631:2678  if (a == 0) {\r... */\n      iszero\n      tag_120\n      jumpi\n        /* \"farms-pools/SousChef.sol\":2665:2666  0 */\n      0x00\n        /* \"farms-pools/SousChef.sol\":2658:2666  return 0 */\n      swap1\n      pop\n      jump(tag_119)\n        /* \"farms-pools/SousChef.sol\":2631:2678  if (a == 0) {\r... */\n    tag_120:\n        /* \"farms-pools/SousChef.sol\":2690:2699  uint256 c */\n      0x00\n        /* \"farms-pools/SousChef.sol\":2706:2707  b */\n      dup3\n        /* \"farms-pools/SousChef.sol\":2702:2703  a */\n      dup5\n        /* \"farms-pools/SousChef.sol\":2702:2707  a * b */\n      mul\n        /* \"farms-pools/SousChef.sol\":2690:2707  uint256 c = a * b */\n      swap1\n      pop\n        /* \"farms-pools/SousChef.sol\":2735:2736  b */\n      dup3\n        /* \"farms-pools/SousChef.sol\":2730:2731  a */\n      dup5\n        /* \"farms-pools/SousChef.sol\":2726:2727  c */\n      dup3\n        /* \"farms-pools/SousChef.sol\":2726:2731  c / a */\n      dup2\n      tag_121\n      jumpi\n      invalid\n    tag_121:\n      div\n        /* \"farms-pools/SousChef.sol\":2726:2736  c / a == b */\n      eq\n        /* \"farms-pools/SousChef.sol\":2718:2774  require(c / a == b, 'SafeMath: multiplication overflow') */\n      tag_122\n      jumpi\n      mload(0x40)\n      0x08c379a000000000000000000000000000000000000000000000000000000000\n      dup2\n      mstore\n      0x04\n      add\n      dup1\n      dup1\n      0x20\n      add\n      dup3\n      dup2\n      sub\n      dup3\n      mstore\n      0x21\n      dup2\n      mstore\n      0x20\n      add\n      dup1\n      data_9113bb53c2876a3805b2c9242029423fc540a728243ce887ab24c82cf119fba3\n      0x21\n      swap2\n      codecopy\n      0x40\n      add\n      swap2\n      pop\n      pop\n      mload(0x40)\n      dup1\n      swap2\n      sub\n      swap1\n      revert\n    tag_122:\n        /* \"farms-pools/SousChef.sol\":2794:2795  c */\n      dup1\n        /* \"farms-pools/SousChef.sol\":2787:2795  return c */\n      swap2\n      pop\n      pop\n        /* \"farms-pools/SousChef.sol\":2332:2803  function mul(uint256 a, uint256 b) internal pure returns (uint256) {\r... */\n    tag_119:\n      swap3\n      swap2\n      pop\n      pop\n      jump\t// out\n        /* \"farms-pools/SousChef.sol\":3279:3411  function div(uint256 a, uint256 b) internal pure returns (uint256) {\r... */\n    tag_60:\n        /* \"farms-pools/SousChef.sol\":3337:3344  uint256 */\n      0x00\n        /* \"farms-pools/SousChef.sol\":3364:3403  div(a, b, 'SafeMath: division by zero') */\n      tag_124\n        /* \"farms-pools/SousChef.sol\":3368:3369  a */\n      dup4\n        /* \"farms-pools/SousChef.sol\":3371:3372  b */\n      dup4\n        /* \"farms-pools/SousChef.sol\":3364:3403  div(a, b, 'SafeMath: division by zero') */\n      mload(0x40)\n      dup1\n      0x40\n      add\n      0x40\n      mstore\n      dup1\n      0x1a\n      dup2\n      mstore\n      0x20\n      add\n      0x536166654d6174683a206469766973696f6e206279207a65726f000000000000\n      dup2\n      mstore\n      pop\n        /* \"farms-pools/SousChef.sol\":3364:3367  div */\n      tag_125\n        /* \"farms-pools/SousChef.sol\":3364:3403  div(a, b, 'SafeMath: division by zero') */\n      jump\t// in\n    tag_124:\n        /* \"farms-pools/SousChef.sol\":3357:3403  return div(a, b, 'SafeMath: division by zero') */\n      swap1\n      pop\n        /* \"farms-pools/SousChef.sol\":3279:3411  function div(uint256 a, uint256 b) internal pure returns (uint256) {\r... */\n      swap3\n      swap2\n      pop\n      pop\n      jump\t// out\n        /* \"farms-pools/SousChef.sol\":1408:1544  function sub(uint256 a, uint256 b) internal pure returns (uint256) {\r... */\n    tag_61:\n        /* \"farms-pools/SousChef.sol\":1466:1473  uint256 */\n      0x00\n        /* \"farms-pools/SousChef.sol\":1493:1536  sub(a, b, 'SafeMath: subtraction overflow') */\n      tag_127\n        /* \"farms-pools/SousChef.sol\":1497:1498  a */\n      dup4\n        /* \"farms-pools/SousChef.sol\":1500:1501  b */\n      dup4\n        /* \"farms-pools/SousChef.sol\":1493:1536  sub(a, b, 'SafeMath: subtraction overflow') */\n      mload(0x40)\n      dup1\n      0x40\n      add\n      0x40\n      mstore\n      dup1\n      0x1e\n      dup2\n      mstore\n      0x20\n      add\n      0x536166654d6174683a207375627472616374696f6e206f766572666c6f770000\n      dup2\n      mstore\n      pop\n        /* \"farms-pools/SousChef.sol\":1493:1496  sub */\n      tag_128\n        /* \"farms-pools/SousChef.sol\":1493:1536  sub(a, b, 'SafeMath: subtraction overflow') */\n      jump\t// in\n    tag_127:\n        /* \"farms-pools/SousChef.sol\":1486:1536  return sub(a, b, 'SafeMath: subtraction overflow') */\n      swap1\n      pop\n        /* \"farms-pools/SousChef.sol\":1408:1544  function sub(uint256 a, uint256 b) internal pure returns (uint256) {\r... */\n      swap3\n      swap2\n      pop\n      pop\n      jump\t// out\n        /* \"farms-pools/SousChef.sol\":944:1125  function add(uint256 a, uint256 b) internal pure returns (uint256) {\r... */\n    tag_62:\n        /* \"farms-pools/SousChef.sol\":1002:1009  uint256 */\n      0x00\n        /* \"farms-pools/SousChef.sol\":1022:1031  uint256 c */\n      dup1\n        /* \"farms-pools/SousChef.sol\":1038:1039  b */\n      dup3\n        /* \"farms-pools/SousChef.sol\":1034:1035  a */\n      dup5\n        /* \"farms-pools/SousChef.sol\":1034:1039  a + b */\n      add\n        /* \"farms-pools/SousChef.sol\":1022:1039  uint256 c = a + b */\n      swap1\n      pop\n        /* \"farms-pools/SousChef.sol\":1063:1064  a */\n      dup4\n        /* \"farms-pools/SousChef.sol\":1058:1059  c */\n      dup2\n        /* \"farms-pools/SousChef.sol\":1058:1064  c >= a */\n      lt\n      iszero\n        /* \"farms-pools/SousChef.sol\":1050:1096  require(c >= a, 'SafeMath: addition overflow') */\n      tag_130\n      jumpi\n      mload(0x40)\n      0x08c379a000000000000000000000000000000000000000000000000000000000\n      dup2\n      mstore\n      0x04\n      add\n      dup1\n      dup1\n      0x20\n      add\n      dup3\n      dup2\n      sub\n      dup3\n      mstore\n      0x1b\n      dup2\n      mstore\n      0x20\n      add\n      dup1\n      0x536166654d6174683a206164646974696f6e206f766572666c6f770000000000\n      dup2\n      mstore\n      pop\n      0x20\n      add\n      swap2\n      pop\n      pop\n      mload(0x40)\n      dup1\n      swap2\n      sub\n      swap1\n      revert\n    tag_130:\n        /* \"farms-pools/SousChef.sol\":1116:1117  c */\n      dup1\n        /* \"farms-pools/SousChef.sol\":1109:1117  return c */\n      swap2\n      pop\n      pop\n        /* \"farms-pools/SousChef.sol\":944:1125  function add(uint256 a, uint256 b) internal pure returns (uint256) {\r... */\n      swap3\n      swap2\n      pop\n      pop\n      jump\t// out\n        /* \"farms-pools/SousChef.sol\":16324:16572  function safeTransferFrom(\r... */\n    tag_70:\n        /* \"farms-pools/SousChef.sol\":16468:16564  _callOptionalReturn(token, abi.encodeWithSelector(token.transferFrom.selector, from, to, value)) */\n      tag_132\n        /* \"farms-pools/SousChef.sol\":16488:16493  token */\n      dup5\n        /* \"farms-pools/SousChef.sol\":16518:16545  token.transferFrom.selector */\n      shl(0xe0, 0x23b872dd)\n        /* \"farms-pools/SousChef.sol\":16547:16551  from */\n      dup6\n        /* \"farms-pools/SousChef.sol\":16553:16555  to */\n      dup6\n        /* \"farms-pools/SousChef.sol\":16557:16562  value */\n      dup6\n        /* \"farms-pools/SousChef.sol\":16495:16563  abi.encodeWithSelector(token.transferFrom.selector, from, to, value) */\n      add(0x24, mload(0x40))\n      dup1\n      dup5\n      0xffffffffffffffffffffffffffffffffffffffff\n      and\n      dup2\n      mstore\n      0x20\n      add\n      dup4\n      0xffffffffffffffffffffffffffffffffffffffff\n      and\n      dup2\n      mstore\n      0x20\n      add\n      dup3\n      dup2\n      mstore\n      0x20\n      add\n      swap4\n      pop\n      pop\n      pop\n      pop\n      mload(0x40)\n      0x20\n      dup2\n      dup4\n      sub\n      sub\n      dup2\n      mstore\n      swap1\n      0x40\n      mstore\n      swap1\n      not(0xffffffffffffffffffffffffffffffffffffffffffffffffffffffff)\n      and\n      0x20\n      dup3\n      add\n      dup1\n      mload\n      0xffffffffffffffffffffffffffffffffffffffffffffffffffffffff\n      dup4\n      dup2\n      dup4\n      and\n      or\n      dup4\n      mstore\n      pop\n      pop\n      pop\n      pop\n        /* \"farms-pools/SousChef.sol\":16468:16487  _callOptionalReturn */\n      tag_118\n        /* \"farms-pools/SousChef.sol\":16468:16564  _callOptionalReturn(token, abi.encodeWithSelector(token.transferFrom.selector, from, to, value)) */\n      jump\t// in\n    tag_132:\n        /* \"farms-pools/SousChef.sol\":16324:16572  function safeTransferFrom(\r... */\n      pop\n      pop\n      pop\n      pop\n      jump\t// out\n        /* \"farms-pools/SousChef.sol\":21346:21654  function getMultiplier(uint256 _from, uint256 _to) internal view returns (uint256) {\r... */\n    tag_95:\n        /* \"farms-pools/SousChef.sol\":21420:21427  uint256 */\n      0x00\n        /* \"farms-pools/SousChef.sol\":21451:21464  bonusEndBlock */\n      sload(0x07)\n        /* \"farms-pools/SousChef.sol\":21444:21447  _to */\n      dup3\n        /* \"farms-pools/SousChef.sol\":21444:21464  _to <= bonusEndBlock */\n      gt\n        /* \"farms-pools/SousChef.sol\":21440:21647  if (_to <= bonusEndBlock) {\r... */\n      tag_134\n      jumpi\n        /* \"farms-pools/SousChef.sol\":21488:21502  _to.sub(_from) */\n      tag_135\n        /* \"farms-pools/SousChef.sol\":21496:21501  _from */\n      dup4\n        /* \"farms-pools/SousChef.sol\":21488:21491  _to */\n      dup4\n        /* \"farms-pools/SousChef.sol\":21488:21495  _to.sub */\n      tag_61\n      swap1\n        /* \"farms-pools/SousChef.sol\":21488:21502  _to.sub(_from) */\n      swap2\n      swap1\n      0xffffffff\n      and\n      jump\t// in\n    tag_135:\n        /* \"farms-pools/SousChef.sol\":21481:21502  return _to.sub(_from) */\n      swap1\n      pop\n      jump(tag_133)\n        /* \"farms-pools/SousChef.sol\":21440:21647  if (_to <= bonusEndBlock) {\r... */\n    tag_134:\n        /* \"farms-pools/SousChef.sol\":21533:21546  bonusEndBlock */\n      sload(0x07)\n        /* \"farms-pools/SousChef.sol\":21524:21529  _from */\n      dup4\n        /* \"farms-pools/SousChef.sol\":21524:21546  _from >= bonusEndBlock */\n      lt\n        /* \"farms-pools/SousChef.sol\":21520:21647  if (_from >= bonusEndBlock) {\r... */\n      tag_137\n      jumpi\n        /* \"farms-pools/SousChef.sol\":21570:21571  0 */\n      0x00\n        /* \"farms-pools/SousChef.sol\":21563:21571  return 0 */\n      swap1\n      pop\n      jump(tag_133)\n        /* \"farms-pools/SousChef.sol\":21520:21647  if (_from >= bonusEndBlock) {\r... */\n    tag_137:\n        /* \"farms-pools/SousChef.sol\":21611:21635  bonusEndBlock.sub(_from) */\n      tag_139\n        /* \"farms-pools/SousChef.sol\":21629:21634  _from */\n      dup4\n        /* \"farms-pools/SousChef.sol\":21611:21624  bonusEndBlock */\n      sload(0x07)\n        /* \"farms-pools/SousChef.sol\":21611:21628  bonusEndBlock.sub */\n      tag_61\n      swap1\n        /* \"farms-pools/SousChef.sol\":21611:21635  bonusEndBlock.sub(_from) */\n      swap2\n      swap1\n      0xffffffff\n      and\n      jump\t// in\n    tag_139:\n        /* \"farms-pools/SousChef.sol\":21604:21635  return bonusEndBlock.sub(_from) */\n      swap1\n      pop\n        /* \"farms-pools/SousChef.sol\":21346:21654  function getMultiplier(uint256 _from, uint256 _to) internal view returns (uint256) {\r... */\n    tag_133:\n      swap3\n      swap2\n      pop\n      pop\n      jump\t// out\n        /* \"farms-pools/SousChef.sol\":18640:19414  function _callOptionalReturn(IBEP20 token, bytes memory data) private {\r... */\n    tag_118:\n        /* \"farms-pools/SousChef.sol\":19064:19087  bytes memory returndata */\n      0x60\n        /* \"farms-pools/SousChef.sol\":19090:19159  address(token).functionCall(data, 'SafeBEP20: low-level call failed') */\n      tag_141\n        /* \"farms-pools/SousChef.sol\":19118:19122  data */\n      dup3\n        /* \"farms-pools/SousChef.sol\":19090:19159  address(token).functionCall(data, 'SafeBEP20: low-level call failed') */\n      mload(0x40)\n      dup1\n      0x40\n      add\n      0x40\n      mstore\n      dup1\n      0x20\n      dup2\n      mstore\n      0x20\n      add\n      0x5361666542455032303a206c6f772d6c6576656c2063616c6c206661696c6564\n      dup2\n      mstore\n      pop\n        /* \"farms-pools/SousChef.sol\":19098:19103  token */\n      dup6\n        /* \"farms-pools/SousChef.sol\":19090:19117  address(token).functionCall */\n      0xffffffffffffffffffffffffffffffffffffffff\n      and\n      tag_142\n      swap1\n        /* \"farms-pools/SousChef.sol\":19090:19159  address(token).functionCall(data, 'SafeBEP20: low-level call failed') */\n      swap3\n      swap2\n      swap1\n      0xffffffff\n      and\n      jump\t// in\n    tag_141:\n        /* \"farms-pools/SousChef.sol\":19064:19159  bytes memory returndata = address(token).functionCall(data, 'SafeBEP20: low-level call failed') */\n      swap1\n      pop\n        /* \"farms-pools/SousChef.sol\":19194:19195  0 */\n      0x00\n        /* \"farms-pools/SousChef.sol\":19174:19184  returndata */\n      dup2\n        /* \"farms-pools/SousChef.sol\":19174:19191  returndata.length */\n      mload\n        /* \"farms-pools/SousChef.sol\":19174:19195  returndata.length > 0 */\n      gt\n        /* \"farms-pools/SousChef.sol\":19170:19407  if (returndata.length > 0) {\r... */\n      iszero\n      tag_143\n      jumpi\n        /* \"farms-pools/SousChef.sol\":19329:19339  returndata */\n      dup1\n        /* \"farms-pools/SousChef.sol\":19318:19348  abi.decode(returndata, (bool)) */\n      dup1\n      0x20\n      add\n      swap1\n      mload\n      0x20\n      dup2\n      lt\n      iszero\n      tag_144\n      jumpi\n      0x00\n      dup1\n      revert\n    tag_144:\n      dup2\n      add\n      swap1\n      dup1\n      dup1\n      mload\n      swap1\n      0x20\n      add\n      swap1\n      swap3\n      swap2\n      swap1\n      pop\n      pop\n      pop\n        /* \"farms-pools/SousChef.sol\":19310:19395  require(abi.decode(returndata, (bool)), 'SafeBEP20: BEP20 operation did not succeed') */\n      tag_145\n      jumpi\n      mload(0x40)\n      0x08c379a000000000000000000000000000000000000000000000000000000000\n      dup2\n      mstore\n      0x04\n      add\n      dup1\n      dup1\n      0x20\n      add\n      dup3\n      dup2\n      sub\n      dup3\n      mstore\n      0x2a\n      dup2\n      mstore\n      0x20\n      add\n      dup1\n      data_21c3364d55537bf20eb8f05374e9f53f47299e1883c412f1f1135f398f2c2082\n      0x2a\n      swap2\n      codecopy\n      0x40\n      add\n      swap2\n      pop\n      pop\n      mload(0x40)\n      dup1\n      swap2\n      sub\n      swap1\n      revert\n    tag_145:\n        /* \"farms-pools/SousChef.sol\":19170:19407  if (returndata.length > 0) {\r... */\n    tag_143:\n        /* \"farms-pools/SousChef.sol\":18640:19414  function _callOptionalReturn(IBEP20 token, bytes memory data) private {\r... */\n      pop\n      pop\n      pop\n      jump\t// out\n        /* \"farms-pools/SousChef.sol\":3907:4219  function div(\r... */\n    tag_125:\n        /* \"farms-pools/SousChef.sol\":4027:4034  uint256 */\n      0x00\n        /* \"farms-pools/SousChef.sol\":4059:4060  0 */\n      dup1\n        /* \"farms-pools/SousChef.sol\":4055:4056  b */\n      dup4\n        /* \"farms-pools/SousChef.sol\":4055:4060  b > 0 */\n      gt\n        /* \"farms-pools/SousChef.sol\":4062:4074  errorMessage */\n      dup3\n        /* \"farms-pools/SousChef.sol\":4047:4075  require(b > 0, errorMessage) */\n      swap1\n      tag_147\n      jumpi\n      mload(0x40)\n      0x08c379a000000000000000000000000000000000000000000000000000000000\n      dup2\n      mstore\n      0x04\n      add\n      dup1\n      dup1\n      0x20\n      add\n      dup3\n      dup2\n      sub\n      dup3\n      mstore\n      dup4\n      dup2\n      dup2\n      mload\n      dup2\n      mstore\n      0x20\n      add\n      swap2\n      pop\n      dup1\n      mload\n      swap1\n      0x20\n      add\n      swap1\n      dup1\n      dup4\n      dup4\n      0x00\n    tag_148:\n      dup4\n      dup2\n      lt\n      iszero\n      tag_150\n      jumpi\n      dup1\n      dup3\n      add\n      mload\n      dup2\n      dup5\n      add\n      mstore\n      0x20\n      dup2\n      add\n      swap1\n      pop\n      jump(tag_148)\n    tag_150:\n      pop\n      pop\n      pop\n      pop\n      swap1\n      pop\n      swap1\n      dup2\n      add\n      swap1\n      0x1f\n      and\n      dup1\n      iszero\n      tag_151\n      jumpi\n      dup1\n      dup3\n      sub\n      dup1\n      mload\n      0x01\n      dup4\n      0x20\n      sub\n      0x0100\n      exp\n      sub\n      not\n      and\n      dup2\n      mstore\n      0x20\n      add\n      swap2\n      pop\n    tag_151:\n      pop\n      swap3\n      pop\n      pop\n      pop\n      mload(0x40)\n      dup1\n      swap2\n      sub\n      swap1\n      revert\n    tag_147:\n      pop\n        /* \"farms-pools/SousChef.sol\":4086:4095  uint256 c */\n      0x00\n        /* \"farms-pools/SousChef.sol\":4102:4103  b */\n      dup4\n        /* \"farms-pools/SousChef.sol\":4098:4099  a */\n      dup6\n        /* \"farms-pools/SousChef.sol\":4098:4103  a / b */\n      dup2\n      tag_152\n      jumpi\n      invalid\n    tag_152:\n      div\n        /* \"farms-pools/SousChef.sol\":4086:4103  uint256 c = a / b */\n      swap1\n      pop\n        /* \"farms-pools/SousChef.sol\":4210:4211  c */\n      dup1\n        /* \"farms-pools/SousChef.sol\":4203:4211  return c */\n      swap2\n      pop\n      pop\n        /* \"farms-pools/SousChef.sol\":3907:4219  function div(\r... */\n      swap4\n      swap3\n      pop\n      pop\n      pop\n      jump\t// out\n        /* \"farms-pools/SousChef.sol\":1847:2073  function sub(\r... */\n    tag_128:\n        /* \"farms-pools/SousChef.sol\":1967:1974  uint256 */\n      0x00\n        /* \"farms-pools/SousChef.sol\":2000:2001  a */\n      dup4\n        /* \"farms-pools/SousChef.sol\":1995:1996  b */\n      dup4\n        /* \"farms-pools/SousChef.sol\":1995:2001  b <= a */\n      gt\n      iszero\n        /* \"farms-pools/SousChef.sol\":2003:2015  errorMessage */\n      dup3\n        /* \"farms-pools/SousChef.sol\":1987:2016  require(b <= a, errorMessage) */\n      swap1\n      tag_154\n      jumpi\n      mload(0x40)\n      0x08c379a000000000000000000000000000000000000000000000000000000000\n      dup2\n      mstore\n      0x04\n      add\n      dup1\n      dup1\n      0x20\n      add\n      dup3\n      dup2\n      sub\n      dup3\n      mstore\n      dup4\n      dup2\n      dup2\n      mload\n      dup2\n      mstore\n      0x20\n      add\n      swap2\n      pop\n      dup1\n      mload\n      swap1\n      0x20\n      add\n      swap1\n      dup1\n      dup4\n      dup4\n      0x00\n    tag_155:\n      dup4\n      dup2\n      lt\n      iszero\n      tag_157\n      jumpi\n      dup1\n      dup3\n      add\n      mload\n      dup2\n      dup5\n      add\n      mstore\n      0x20\n      dup2\n      add\n      swap1\n      pop\n      jump(tag_155)\n    tag_157:\n      pop\n      pop\n      pop\n      pop\n      swap1\n      pop\n      swap1\n      dup2\n      add\n      swap1\n      0x1f\n      and\n      dup1\n      iszero\n      tag_158\n      jumpi\n      dup1\n      dup3\n      sub\n      dup1\n      mload\n      0x01\n      dup4\n      0x20\n      sub\n      0x0100\n      exp\n      sub\n      not\n      and\n      dup2\n      mstore\n      0x20\n      add\n      swap2\n      pop\n    tag_158:\n      pop\n      swap3\n      pop\n      pop\n      pop\n      mload(0x40)\n      dup1\n      swap2\n      sub\n      swap1\n      revert\n    tag_154:\n      pop\n        /* \"farms-pools/SousChef.sol\":2027:2036  uint256 c */\n      0x00\n        /* \"farms-pools/SousChef.sol\":2043:2044  b */\n      dup4\n        /* \"farms-pools/SousChef.sol\":2039:2040  a */\n      dup6\n        /* \"farms-pools/SousChef.sol\":2039:2044  a - b */\n      sub\n        /* \"farms-pools/SousChef.sol\":2027:2044  uint256 c = a - b */\n      swap1\n      pop\n        /* \"farms-pools/SousChef.sol\":2064:2065  c */\n      dup1\n        /* \"farms-pools/SousChef.sol\":2057:2065  return c */\n      swap2\n      pop\n      pop\n        /* \"farms-pools/SousChef.sol\":1847:2073  function sub(\r... */\n      swap4\n      swap3\n      pop\n      pop\n      pop\n      jump\t// out\n        /* \"farms-pools/SousChef.sol\":13026:13256  function functionCall(\r... */\n    tag_142:\n        /* \"farms-pools/SousChef.sol\":13163:13175  bytes memory */\n      0x60\n        /* \"farms-pools/SousChef.sol\":13195:13248  _functionCallWithValue(target, data, 0, errorMessage) */\n      tag_160\n        /* \"farms-pools/SousChef.sol\":13218:13224  target */\n      dup5\n        /* \"farms-pools/SousChef.sol\":13226:13230  data */\n      dup5\n        /* \"farms-pools/SousChef.sol\":13232:13233  0 */\n      0x00\n        /* \"farms-pools/SousChef.sol\":13235:13247  errorMessage */\n      dup6\n        /* \"farms-pools/SousChef.sol\":13195:13217  _functionCallWithValue */\n      tag_161\n        /* \"farms-pools/SousChef.sol\":13195:13248  _functionCallWithValue(target, data, 0, errorMessage) */\n      jump\t// in\n    tag_160:\n        /* \"farms-pools/SousChef.sol\":13188:13248  return _functionCallWithValue(target, data, 0, errorMessage) */\n      swap1\n      pop\n        /* \"farms-pools/SousChef.sol\":13026:13256  function functionCall(\r... */\n      swap4\n      swap3\n      pop\n      pop\n      pop\n      jump\t// out\n        /* \"farms-pools/SousChef.sol\":14514:15534  function _functionCallWithValue(\r... */\n    tag_161:\n        /* \"farms-pools/SousChef.sol\":14687:14699  bytes memory */\n      0x60\n        /* \"farms-pools/SousChef.sol\":14720:14738  isContract(target) */\n      tag_163\n        /* \"farms-pools/SousChef.sol\":14731:14737  target */\n      dup6\n        /* \"farms-pools/SousChef.sol\":14720:14730  isContract */\n      tag_164\n        /* \"farms-pools/SousChef.sol\":14720:14738  isContract(target) */\n      jump\t// in\n    tag_163:\n        /* \"farms-pools/SousChef.sol\":14712:14772  require(isContract(target), 'Address: call to non-contract') */\n      tag_165\n      jumpi\n      mload(0x40)\n      0x08c379a000000000000000000000000000000000000000000000000000000000\n      dup2\n      mstore\n      0x04\n      add\n      dup1\n      dup1\n      0x20\n      add\n      dup3\n      dup2\n      sub\n      dup3\n      mstore\n      0x1d\n      dup2\n      mstore\n      0x20\n      add\n      dup1\n      0x416464726573733a2063616c6c20746f206e6f6e2d636f6e7472616374000000\n      dup2\n      mstore\n      pop\n      0x20\n      add\n      swap2\n      pop\n      pop\n      mload(0x40)\n      dup1\n      swap2\n      sub\n      swap1\n      revert\n    tag_165:\n        /* \"farms-pools/SousChef.sol\":14846:14858  bool success */\n      0x00\n        /* \"farms-pools/SousChef.sol\":14860:14883  bytes memory returndata */\n      0x60\n        /* \"farms-pools/SousChef.sol\":14887:14893  target */\n      dup7\n        /* \"farms-pools/SousChef.sol\":14887:14898  target.call */\n      0xffffffffffffffffffffffffffffffffffffffff\n      and\n        /* \"farms-pools/SousChef.sol\":14906:14914  weiValue */\n      dup6\n        /* \"farms-pools/SousChef.sol\":14916:14920  data */\n      dup8\n        /* \"farms-pools/SousChef.sol\":14887:14921  target.call{value: weiValue}(data) */\n      mload(0x40)\n      dup1\n      dup3\n      dup1\n      mload\n      swap1\n      0x20\n      add\n      swap1\n      dup1\n      dup4\n      dup4\n    tag_166:\n      0x20\n      dup4\n      lt\n      tag_168\n      jumpi\n      dup1\n      mload\n      dup3\n      mstore\n      0x20\n      dup3\n      add\n      swap2\n      pop\n      0x20\n      dup2\n      add\n      swap1\n      pop\n      0x20\n      dup4\n      sub\n      swap3\n      pop\n      jump(tag_166)\n    tag_168:\n      0x01\n      dup4\n      0x20\n      sub\n      0x0100\n      exp\n      sub\n      dup1\n      not\n      dup3\n      mload\n      and\n      dup2\n      dup5\n      mload\n      and\n      dup1\n      dup3\n      or\n      dup6\n      mstore\n      pop\n      pop\n      pop\n      pop\n      pop\n      pop\n      swap1\n      pop\n      add\n      swap2\n      pop\n      pop\n      0x00\n      mload(0x40)\n      dup1\n      dup4\n      sub\n      dup2\n      dup6\n      dup8\n      gas\n      call\n      swap3\n      pop\n      pop\n      pop\n      returndatasize\n      dup1\n      0x00\n      dup2\n      eq\n      tag_171\n      jumpi\n      mload(0x40)\n      swap2\n      pop\n      and(add(returndatasize, 0x3f), not(0x1f))\n      dup3\n      add\n      0x40\n      mstore\n      returndatasize\n      dup3\n      mstore\n      returndatasize\n      0x00\n      0x20\n      dup5\n      add\n      returndatacopy\n      jump(tag_170)\n    tag_171:\n      0x60\n      swap2\n      pop\n    tag_170:\n      pop\n        /* \"farms-pools/SousChef.sol\":14845:14921  (bool success, bytes memory returndata) = target.call{value: weiValue}(data) */\n      swap2\n      pop\n      swap2\n      pop\n        /* \"farms-pools/SousChef.sol\":14936:14943  success */\n      dup2\n        /* \"farms-pools/SousChef.sol\":14932:15527  if (success) {\r... */\n      iszero\n      tag_172\n      jumpi\n        /* \"farms-pools/SousChef.sol\":14967:14977  returndata */\n      dup1\n        /* \"farms-pools/SousChef.sol\":14960:14977  return returndata */\n      swap3\n      pop\n      pop\n      pop\n      jump(tag_162)\n        /* \"farms-pools/SousChef.sol\":14932:15527  if (success) {\r... */\n    tag_172:\n        /* \"farms-pools/SousChef.sol\":15101:15102  0 */\n      0x00\n        /* \"farms-pools/SousChef.sol\":15081:15091  returndata */\n      dup2\n        /* \"farms-pools/SousChef.sol\":15081:15098  returndata.length */\n      mload\n        /* \"farms-pools/SousChef.sol\":15081:15102  returndata.length > 0 */\n      gt\n        /* \"farms-pools/SousChef.sol\":15077:15516  if (returndata.length > 0) {\r... */\n      iszero\n      tag_174\n      jumpi\n        /* \"farms-pools/SousChef.sol\":15344:15354  returndata */\n      dup1\n        /* \"farms-pools/SousChef.sol\":15338:15355  mload(returndata) */\n      mload\n        /* \"farms-pools/SousChef.sol\":15405:15420  returndata_size */\n      dup1\n        /* \"farms-pools/SousChef.sol\":15392:15402  returndata */\n      dup3\n        /* \"farms-pools/SousChef.sol\":15388:15390  32 */\n      0x20\n        /* \"farms-pools/SousChef.sol\":15384:15403  add(32, returndata) */\n      add\n        /* \"farms-pools/SousChef.sol\":15377:15421  revert(add(32, returndata), returndata_size) */\n      revert\n        /* \"farms-pools/SousChef.sol\":15292:15440  {\r... */\n    tag_174:\n        /* \"farms-pools/SousChef.sol\":15487:15499  errorMessage */\n      dup4\n        /* \"farms-pools/SousChef.sol\":15480:15500  revert(errorMessage) */\n      mload(0x40)\n      0x08c379a000000000000000000000000000000000000000000000000000000000\n      dup2\n      mstore\n      0x04\n      add\n      dup1\n      dup1\n      0x20\n      add\n      dup3\n      dup2\n      sub\n      dup3\n      mstore\n      dup4\n      dup2\n      dup2\n      mload\n      dup2\n      mstore\n      0x20\n      add\n      swap2\n      pop\n      dup1\n      mload\n      swap1\n      0x20\n      add\n      swap1\n      dup1\n      dup4\n      dup4\n      0x00\n    tag_176:\n      dup4\n      dup2\n      lt\n      iszero\n      tag_178\n      jumpi\n      dup1\n      dup3\n      add\n      mload\n      dup2\n      dup5\n      add\n      mstore\n      0x20\n      dup2\n      add\n      swap1\n      pop\n      jump(tag_176)\n    tag_178:\n      pop\n      pop\n      pop\n      pop\n      swap1\n      pop\n      swap1\n      dup2\n      add\n      swap1\n      0x1f\n      and\n      dup1\n      iszero\n      tag_179\n      jumpi\n      dup1\n      dup3\n      sub\n      dup1\n      mload\n      0x01\n      dup4\n      0x20\n      sub\n      0x0100\n      exp\n      sub\n      not\n      and\n      dup2\n      mstore\n      0x20\n      add\n      swap2\n      pop\n    tag_179:\n      pop\n      swap3\n      pop\n      pop\n      pop\n      mload(0x40)\n      dup1\n      swap2\n      sub\n      swap1\n      revert\n        /* \"farms-pools/SousChef.sol\":14514:15534  function _functionCallWithValue(\r... */\n    tag_162:\n      swap5\n      swap4\n      pop\n      pop\n      pop\n      pop\n      jump\t// out\n        /* \"farms-pools/SousChef.sol\":9889:10530  function isContract(address account) internal view returns (bool) {\r... */\n    tag_164:\n        /* \"farms-pools/SousChef.sol\":9949:9953  bool */\n      0x00\n        /* \"farms-pools/SousChef.sol\":10211:10227  bytes32 codehash */\n      dup1\n        /* \"farms-pools/SousChef.sol\":10238:10257  bytes32 accountHash */\n      0x00\n        /* \"farms-pools/SousChef.sol\":10260:10326  0xc5d2460186f7233c927e7db2dcc703c0e500b653ca82273b7bfad8045d85a470 */\n      0xc5d2460186f7233c927e7db2dcc703c0e500b653ca82273b7bfad8045d85a470\n        /* \"farms-pools/SousChef.sol\":10238:10326  bytes32 accountHash = 0xc5d2460186f7233c927e7db2dcc703c0e500b653ca82273b7bfad8045d85a470 */\n      0x00\n      shl\n      swap1\n      pop\n        /* \"farms-pools/SousChef.sol\":10442:10449  account */\n      dup4\n        /* \"farms-pools/SousChef.sol\":10430:10450  extcodehash(account) */\n      extcodehash\n        /* \"farms-pools/SousChef.sol\":10418:10450  codehash := extcodehash(account) */\n      swap2\n      pop\n        /* \"farms-pools/SousChef.sol\":10491:10502  accountHash */\n      dup1\n        /* \"farms-pools/SousChef.sol\":10479:10487  codehash */\n      dup3\n        /* \"farms-pools/SousChef.sol\":10479:10502  codehash != accountHash */\n      eq\n      iszero\n        /* \"farms-pools/SousChef.sol\":10479:10521  codehash != accountHash && codehash != 0x0 */\n      dup1\n      iszero\n      tag_181\n      jumpi\n      pop\n        /* \"farms-pools/SousChef.sol\":10518:10521  0x0 */\n      0x00\n        /* \"farms-pools/SousChef.sol\":10506:10521  codehash != 0x0 */\n      dup1\n      shl\n        /* \"farms-pools/SousChef.sol\":10506:10514  codehash */\n      dup3\n        /* \"farms-pools/SousChef.sol\":10506:10521  codehash != 0x0 */\n      eq\n      iszero\n        /* \"farms-pools/SousChef.sol\":10479:10521  codehash != accountHash && codehash != 0x0 */\n    tag_181:\n        /* \"farms-pools/SousChef.sol\":10471:10522  return (codehash != accountHash && codehash != 0x0) */\n      swap3\n      pop\n      pop\n      pop\n        /* \"farms-pools/SousChef.sol\":9889:10530  function isContract(address account) internal view returns (bool) {\r... */\n      swap2\n      swap1\n      pop\n      jump\t// out\n    stop\n    data_21c3364d55537bf20eb8f05374e9f53f47299e1883c412f1f1135f398f2c2082 5361666542455032303a204245503230206f7065726174696f6e20646964206e6f742073756363656564\n    data_9113bb53c2876a3805b2c9242029423fc540a728243ce887ab24c82cf119fba3 536166654d6174683a206d756c7469706c69636174696f6e206f766572666c6f77\n\n    auxdata: 0xa26469706673582212205db66239ba6e95c477bf0072a1146f1384932e4df2fa1949312ba09efc3a56e264736f6c634300060c0033\n}\n",
				"bytecode": {
					"linkReferences": {},
					"object": "608060405234801561001057600080fd5b5060405161175b38038061175b8339818101604052608081101561003357600080fd5b8101908080519060200190929190805190602001909291908051906020019092919080519060200190929190505050836000806101000a81548173ffffffffffffffffffffffffffffffffffffffff021916908373ffffffffffffffffffffffffffffffffffffffff1602179055508260018190555081600681905550806007819055506040518060400160405280600654815260200160008152506002600082015181600001556020820151816001015590505050505050611660806100fb6000396000f3fe608060405234801561001057600080fd5b50600436106100cf5760003560e01c80638ae39cac1161008c578063db2e21bc11610066578063db2e21bc146102a1578063dc881888146102ab578063e3161ddd146102c9578063f40f0f52146102d3576100cf565b80638ae39cac146101fd578063b6b55f251461021b578063b810fb4314610249576100cf565b80631959a002146100d45780631aed65531461013a5780632e1a7d4d1461015857806348cd4cb1146101865780635a2f3d09146101a457806386a952c4146101c9575b600080fd5b610116600480360360208110156100ea57600080fd5b81019080803573ffffffffffffffffffffffffffffffffffffffff16906020019092919050505061032b565b60405180848152602001838152602001828152602001935050505060405180910390f35b610142610355565b6040518082815260200191505060405180910390f35b6101846004803603602081101561016e57600080fd5b810190808035906020019092919050505061035b565b005b61018e6105f4565b6040518082815260200191505060405180910390f35b6101ac6105fa565b604051808381526020018281526020019250505060405180910390f35b6101d161060c565b604051808273ffffffffffffffffffffffffffffffffffffffff16815260200191505060405180910390f35b610205610630565b6040518082815260200191505060405180910390f35b6102476004803603602081101561023157600080fd5b8101908080359060200190929190505050610636565b005b6102756004803603602081101561025f57600080fd5b81019080803590602001909291905050506108e8565b604051808273ffffffffffffffffffffffffffffffffffffffff16815260200191505060405180910390f35b6102a9610924565b005b6102b3610a1f565b6040518082815260200191505060405180910390f35b6102d1610a2c565b005b610315600480360360208110156102e957600080fd5b81019080803573ffffffffffffffffffffffffffffffffffffffff169060200190929190505050610ba3565b6040518082815260200191505060405180910390f35b60046020528060005260406000206000915090508060000154908060010154908060020154905083565b60075481565b600081116103d1576040517f08c379a00000000000000000000000000000000000000000000000000000000081526004018080602001828103825260088152602001807f616d6f756e74203000000000000000000000000000000000000000000000000081525060200191505060405180910390fd5b6000600460003373ffffffffffffffffffffffffffffffffffffffff1673ffffffffffffffffffffffffffffffffffffffff1681526020019081526020016000209050818160000154101561048e576040517f08c379a00000000000000000000000000000000000000000000000000000000081526004018080602001828103825260148152602001807f77697468647261773a206e6f7420656e6f75676800000000000000000000000081525060200191505060405180910390fd5b610496610a2c565b6104e1338360008054906101000a900473ffffffffffffffffffffffffffffffffffffffff1673ffffffffffffffffffffffffffffffffffffffff16610da79092919063ffffffff16565b6105408160020154610532836001015461052464e8d4a510006105166002600101548860000154610e4990919063ffffffff16565b610ecf90919063ffffffff16565b610f1990919063ffffffff16565b610f6390919063ffffffff16565b816002018190555061055f828260000154610f1990919063ffffffff16565b816000018190555061059a64e8d4a5100061058c6002600101548460000154610e4990919063ffffffff16565b610ecf90919063ffffffff16565b81600101819055503373ffffffffffffffffffffffffffffffffffffffff167f884edad9ce6fa2440d8a54cc123490eb96d2768479d49ff9c7366125a9424364836040518082815260200191505060405180910390a25050565b60065481565b60028060000154908060010154905082565b60008054906101000a900473ffffffffffffffffffffffffffffffffffffffff1681565b60015481565b600081116106ac576040517f08c379a00000000000000000000000000000000000000000000000000000000081526004018080602001828103825260088152602001807f616d6f756e74203000000000000000000000000000000000000000000000000081525060200191505060405180910390fd5b6000600460003373ffffffffffffffffffffffffffffffffffffffff1673ffffffffffffffffffffffffffffffffffffffff16815260200190815260200160002090506106f7610a2c565b61074433308460008054906101000a900473ffffffffffffffffffffffffffffffffffffffff1673ffffffffffffffffffffffffffffffffffffffff16610feb909392919063ffffffff16565b6000816000015414801561075c575060008160010154145b801561076c575060008160020154145b156107d5576005339080600181540180825580915050600190039060005260206000200160009091909190916101000a81548173ffffffffffffffffffffffffffffffffffffffff021916908373ffffffffffffffffffffffffffffffffffffffff1602179055505b6108348160020154610826836001015461081864e8d4a5100061080a6002600101548860000154610e4990919063ffffffff16565b610ecf90919063ffffffff16565b610f1990919063ffffffff16565b610f6390919063ffffffff16565b8160020181905550610853828260000154610f6390919063ffffffff16565b816000018190555061088e64e8d4a510006108806002600101548460000154610e4990919063ffffffff16565b610ecf90919063ffffffff16565b81600101819055503373ffffffffffffffffffffffffffffffffffffffff167fe1fffcc4923d04b559f4d29a8bfc6cda04eb5b0d3c460751c2402c5c5cc9109c836040518082815260200191505060405180910390a25050565b600581815481106108f557fe5b906000526020600020016000915054906101000a900473ffffffffffffffffffffffffffffffffffffffff1681565b6000600460003373ffffffffffffffffffffffffffffffffffffffff1673ffffffffffffffffffffffffffffffffffffffff16815260200190815260200160002090506109b633826000015460008054906101000a900473ffffffffffffffffffffffffffffffffffffffff1673ffffffffffffffffffffffffffffffffffffffff16610da79092919063ffffffff16565b3373ffffffffffffffffffffffffffffffffffffffff167f5fafa99d0643513820be26656b45130b01e1c03062e1266bf36f88cbd3bd969582600001546040518082815260200191505060405180910390a2600081600001819055506000816001018190555050565b6000600580549050905090565b6002600001544311610a3d57610ba1565b60008060009054906101000a900473ffffffffffffffffffffffffffffffffffffffff1673ffffffffffffffffffffffffffffffffffffffff166370a08231306040518263ffffffff1660e01b8152600401808273ffffffffffffffffffffffffffffffffffffffff16815260200191505060206040518083038186803b158015610ac757600080fd5b505afa158015610adb573d6000803e3d6000fd5b505050506040513d6020811015610af157600080fd5b810190808051906020019092919050505090506000811415610b1d574360026000018190555050610ba1565b6000610b2e600260000154436110ac565b90506000610b4760015483610e4990919063ffffffff16565b9050610b8a610b7684610b6864e8d4a5100085610e4990919063ffffffff16565b610ecf90919063ffffffff16565b600260010154610f6390919063ffffffff16565b600260010181905550436002600001819055505050505b565b600080600290506000600460008573ffffffffffffffffffffffffffffffffffffffff1673ffffffffffffffffffffffffffffffffffffffff168152602001908152602001600020905060008260010154905060008060009054906101000a900473ffffffffffffffffffffffffffffffffffffffff1673ffffffffffffffffffffffffffffffffffffffff166370a08231306040518263ffffffff1660e01b8152600401808273ffffffffffffffffffffffffffffffffffffffff16815260200191505060206040518083038186803b158015610c8057600080fd5b505afa158015610c94573d6000803e3d6000fd5b505050506040513d6020811015610caa57600080fd5b81019080805190602001909291905050509050836000015443118015610cd1575060008114155b15610d42576000610ce68560000154436110ac565b90506000610cff60015483610e4990919063ffffffff16565b9050610d3d610d2e84610d2064e8d4a5100085610e4990919063ffffffff16565b610ecf90919063ffffffff16565b85610f6390919063ffffffff16565b935050505b610d9c8360020154610d8e8560010154610d8064e8d4a51000610d72888a60000154610e4990919063ffffffff16565b610ecf90919063ffffffff16565b610f1990919063ffffffff16565b610f6390919063ffffffff16565b945050505050919050565b610e448363a9059cbb60e01b8484604051602401808373ffffffffffffffffffffffffffffffffffffffff16815260200182815260200192505050604051602081830303815290604052907bffffffffffffffffffffffffffffffffffffffffffffffffffffffff19166020820180517bffffffffffffffffffffffffffffffffffffffffffffffffffffffff8381831617835250505050611101565b505050565b600080831415610e5c5760009050610ec9565b6000828402905082848281610e6d57fe5b0414610ec4576040517f08c379a000000000000000000000000000000000000000000000000000000000815260040180806020018281038252602181526020018061160a6021913960400191505060405180910390fd5b809150505b92915050565b6000610f1183836040518060400160405280601a81526020017f536166654d6174683a206469766973696f6e206279207a65726f0000000000008152506111f0565b905092915050565b6000610f5b83836040518060400160405280601e81526020017f536166654d6174683a207375627472616374696f6e206f766572666c6f7700008152506112b6565b905092915050565b600080828401905083811015610fe1576040517f08c379a000000000000000000000000000000000000000000000000000000000815260040180806020018281038252601b8152602001807f536166654d6174683a206164646974696f6e206f766572666c6f77000000000081525060200191505060405180910390fd5b8091505092915050565b6110a6846323b872dd60e01b858585604051602401808473ffffffffffffffffffffffffffffffffffffffff1681526020018373ffffffffffffffffffffffffffffffffffffffff1681526020018281526020019350505050604051602081830303815290604052907bffffffffffffffffffffffffffffffffffffffffffffffffffffffff19166020820180517bffffffffffffffffffffffffffffffffffffffffffffffffffffffff8381831617835250505050611101565b50505050565b600060075482116110d1576110ca8383610f1990919063ffffffff16565b90506110fb565b60075483106110e357600090506110fb565b6110f883600754610f1990919063ffffffff16565b90505b92915050565b6060611163826040518060400160405280602081526020017f5361666542455032303a206c6f772d6c6576656c2063616c6c206661696c65648152508573ffffffffffffffffffffffffffffffffffffffff166113769092919063ffffffff16565b90506000815111156111eb5780806020019051602081101561118457600080fd5b81019080805190602001909291905050506111ea576040517f08c379a000000000000000000000000000000000000000000000000000000000815260040180806020018281038252602a8152602001806115e0602a913960400191505060405180910390fd5b5b505050565b6000808311829061129c576040517f08c379a00000000000000000000000000000000000000000000000000000000081526004018080602001828103825283818151815260200191508051906020019080838360005b83811015611261578082015181840152602081019050611246565b50505050905090810190601f16801561128e5780820380516001836020036101000a031916815260200191505b509250505060405180910390fd5b5060008385816112a857fe5b049050809150509392505050565b6000838311158290611363576040517f08c379a00000000000000000000000000000000000000000000000000000000081526004018080602001828103825283818151815260200191508051906020019080838360005b8381101561132857808201518184015260208101905061130d565b50505050905090810190601f1680156113555780820380516001836020036101000a031916815260200191505b509250505060405180910390fd5b5060008385039050809150509392505050565b6060611385848460008561138e565b90509392505050565b606061139985611594565b61140b576040517f08c379a000000000000000000000000000000000000000000000000000000000815260040180806020018281038252601d8152602001807f416464726573733a2063616c6c20746f206e6f6e2d636f6e747261637400000081525060200191505060405180910390fd5b600060608673ffffffffffffffffffffffffffffffffffffffff1685876040518082805190602001908083835b6020831061145b5780518252602082019150602081019050602083039250611438565b6001836020036101000a03801982511681845116808217855250505050505090500191505060006040518083038185875af1925050503d80600081146114bd576040519150601f19603f3d011682016040523d82523d6000602084013e6114c2565b606091505b509150915081156114d757809250505061158c565b6000815111156114ea5780518082602001fd5b836040517f08c379a00000000000000000000000000000000000000000000000000000000081526004018080602001828103825283818151815260200191508051906020019080838360005b83811015611551578082015181840152602081019050611536565b50505050905090810190601f16801561157e5780820380516001836020036101000a031916815260200191505b509250505060405180910390fd5b949350505050565b60008060007fc5d2460186f7233c927e7db2dcc703c0e500b653ca82273b7bfad8045d85a47060001b9050833f91508082141580156115d657506000801b8214155b9250505091905056fe5361666542455032303a204245503230206f7065726174696f6e20646964206e6f742073756363656564536166654d6174683a206d756c7469706c69636174696f6e206f766572666c6f77a26469706673582212205db66239ba6e95c477bf0072a1146f1384932e4df2fa1949312ba09efc3a56e264736f6c634300060c0033",
					"opcodes": "PUSH1 0x80 PUSH1 0x40 MSTORE CALLVALUE DUP1 ISZERO PUSH2 0x10 JUMPI PUSH1 0x0 DUP1 REVERT JUMPDEST POP PUSH1 0x40 MLOAD PUSH2 0x175B CODESIZE SUB DUP1 PUSH2 0x175B DUP4 CODECOPY DUP2 DUP2 ADD PUSH1 0x40 MSTORE PUSH1 0x80 DUP2 LT ISZERO PUSH2 0x33 JUMPI PUSH1 0x0 DUP1 REVERT JUMPDEST DUP2 ADD SWAP1 DUP1 DUP1 MLOAD SWAP1 PUSH1 0x20 ADD SWAP1 SWAP3 SWAP2 SWAP1 DUP1 MLOAD SWAP1 PUSH1 0x20 ADD SWAP1 SWAP3 SWAP2 SWAP1 DUP1 MLOAD SWAP1 PUSH1 0x20 ADD SWAP1 SWAP3 SWAP2 SWAP1 DUP1 MLOAD SWAP1 PUSH1 0x20 ADD SWAP1 SWAP3 SWAP2 SWAP1 POP POP POP DUP4 PUSH1 0x0 DUP1 PUSH2 0x100 EXP DUP2 SLOAD DUP2 PUSH20 0xFFFFFFFFFFFFFFFFFFFFFFFFFFFFFFFFFFFFFFFF MUL NOT AND SWAP1 DUP4 PUSH20 0xFFFFFFFFFFFFFFFFFFFFFFFFFFFFFFFFFFFFFFFF AND MUL OR SWAP1 SSTORE POP DUP3 PUSH1 0x1 DUP2 SWAP1 SSTORE POP DUP2 PUSH1 0x6 DUP2 SWAP1 SSTORE POP DUP1 PUSH1 0x7 DUP2 SWAP1 SSTORE POP PUSH1 0x40 MLOAD DUP1 PUSH1 0x40 ADD PUSH1 0x40 MSTORE DUP1 PUSH1 0x6 SLOAD DUP2 MSTORE PUSH1 0x20 ADD PUSH1 0x0 DUP2 MSTORE POP PUSH1 0x2 PUSH1 0x0 DUP3 ADD MLOAD DUP2 PUSH1 0x0 ADD SSTORE PUSH1 0x20 DUP3 ADD MLOAD DUP2 PUSH1 0x1 ADD SSTORE SWAP1 POP POP POP POP POP POP PUSH2 0x1660 DUP1 PUSH2 0xFB PUSH1 0x0 CODECOPY PUSH1 0x0 RETURN INVALID PUSH1 0x80 PUSH1 0x40 MSTORE CALLVALUE DUP1 ISZERO PUSH2 0x10 JUMPI PUSH1 0x0 DUP1 REVERT JUMPDEST POP PUSH1 0x4 CALLDATASIZE LT PUSH2 0xCF JUMPI PUSH1 0x0 CALLDATALOAD PUSH1 0xE0 SHR DUP1 PUSH4 0x8AE39CAC GT PUSH2 0x8C JUMPI DUP1 PUSH4 0xDB2E21BC GT PUSH2 0x66 JUMPI DUP1 PUSH4 0xDB2E21BC EQ PUSH2 0x2A1 JUMPI DUP1 PUSH4 0xDC881888 EQ PUSH2 0x2AB JUMPI DUP1 PUSH4 0xE3161DDD EQ PUSH2 0x2C9 JUMPI DUP1 PUSH4 0xF40F0F52 EQ PUSH2 0x2D3 JUMPI PUSH2 0xCF JUMP JUMPDEST DUP1 PUSH4 0x8AE39CAC EQ PUSH2 0x1FD JUMPI DUP1 PUSH4 0xB6B55F25 EQ PUSH2 0x21B JUMPI DUP1 PUSH4 0xB810FB43 EQ PUSH2 0x249 JUMPI PUSH2 0xCF JUMP JUMPDEST DUP1 PUSH4 0x1959A002 EQ PUSH2 0xD4 JUMPI DUP1 PUSH4 0x1AED6553 EQ PUSH2 0x13A JUMPI DUP1 PUSH4 0x2E1A7D4D EQ PUSH2 0x158 JUMPI DUP1 PUSH4 0x48CD4CB1 EQ PUSH2 0x186 JUMPI DUP1 PUSH4 0x5A2F3D09 EQ PUSH2 0x1A4 JUMPI DUP1 PUSH4 0x86A952C4 EQ PUSH2 0x1C9 JUMPI JUMPDEST PUSH1 0x0 DUP1 REVERT JUMPDEST PUSH2 0x116 PUSH1 0x4 DUP1 CALLDATASIZE SUB PUSH1 0x20 DUP2 LT ISZERO PUSH2 0xEA JUMPI PUSH1 0x0 DUP1 REVERT JUMPDEST DUP2 ADD SWAP1 DUP1 DUP1 CALLDATALOAD PUSH20 0xFFFFFFFFFFFFFFFFFFFFFFFFFFFFFFFFFFFFFFFF AND SWAP1 PUSH1 0x20 ADD SWAP1 SWAP3 SWAP2 SWAP1 POP POP POP PUSH2 0x32B JUMP JUMPDEST PUSH1 0x40 MLOAD DUP1 DUP5 DUP2 MSTORE PUSH1 0x20 ADD DUP4 DUP2 MSTORE PUSH1 0x20 ADD DUP3 DUP2 MSTORE PUSH1 0x20 ADD SWAP4 POP POP POP POP PUSH1 0x40 MLOAD DUP1 SWAP2 SUB SWAP1 RETURN JUMPDEST PUSH2 0x142 PUSH2 0x355 JUMP JUMPDEST PUSH1 0x40 MLOAD DUP1 DUP3 DUP2 MSTORE PUSH1 0x20 ADD SWAP2 POP POP PUSH1 0x40 MLOAD DUP1 SWAP2 SUB SWAP1 RETURN JUMPDEST PUSH2 0x184 PUSH1 0x4 DUP1 CALLDATASIZE SUB PUSH1 0x20 DUP2 LT ISZERO PUSH2 0x16E JUMPI PUSH1 0x0 DUP1 REVERT JUMPDEST DUP2 ADD SWAP1 DUP1 DUP1 CALLDATALOAD SWAP1 PUSH1 0x20 ADD SWAP1 SWAP3 SWAP2 SWAP1 POP POP POP PUSH2 0x35B JUMP JUMPDEST STOP JUMPDEST PUSH2 0x18E PUSH2 0x5F4 JUMP JUMPDEST PUSH1 0x40 MLOAD DUP1 DUP3 DUP2 MSTORE PUSH1 0x20 ADD SWAP2 POP POP PUSH1 0x40 MLOAD DUP1 SWAP2 SUB SWAP1 RETURN JUMPDEST PUSH2 0x1AC PUSH2 0x5FA JUMP JUMPDEST PUSH1 0x40 MLOAD DUP1 DUP4 DUP2 MSTORE PUSH1 0x20 ADD DUP3 DUP2 MSTORE PUSH1 0x20 ADD SWAP3 POP POP POP PUSH1 0x40 MLOAD DUP1 SWAP2 SUB SWAP1 RETURN JUMPDEST PUSH2 0x1D1 PUSH2 0x60C JUMP JUMPDEST PUSH1 0x40 MLOAD DUP1 DUP3 PUSH20 0xFFFFFFFFFFFFFFFFFFFFFFFFFFFFFFFFFFFFFFFF AND DUP2 MSTORE PUSH1 0x20 ADD SWAP2 POP POP PUSH1 0x40 MLOAD DUP1 SWAP2 SUB SWAP1 RETURN JUMPDEST PUSH2 0x205 PUSH2 0x630 JUMP JUMPDEST PUSH1 0x40 MLOAD DUP1 DUP3 DUP2 MSTORE PUSH1 0x20 ADD SWAP2 POP POP PUSH1 0x40 MLOAD DUP1 SWAP2 SUB SWAP1 RETURN JUMPDEST PUSH2 0x247 PUSH1 0x4 DUP1 CALLDATASIZE SUB PUSH1 0x20 DUP2 LT ISZERO PUSH2 0x231 JUMPI PUSH1 0x0 DUP1 REVERT JUMPDEST DUP2 ADD SWAP1 DUP1 DUP1 CALLDATALOAD SWAP1 PUSH1 0x20 ADD SWAP1 SWAP3 SWAP2 SWAP1 POP POP POP PUSH2 0x636 JUMP JUMPDEST STOP JUMPDEST PUSH2 0x275 PUSH1 0x4 DUP1 CALLDATASIZE SUB PUSH1 0x20 DUP2 LT ISZERO PUSH2 0x25F JUMPI PUSH1 0x0 DUP1 REVERT JUMPDEST DUP2 ADD SWAP1 DUP1 DUP1 CALLDATALOAD SWAP1 PUSH1 0x20 ADD SWAP1 SWAP3 SWAP2 SWAP1 POP POP POP PUSH2 0x8E8 JUMP JUMPDEST PUSH1 0x40 MLOAD DUP1 DUP3 PUSH20 0xFFFFFFFFFFFFFFFFFFFFFFFFFFFFFFFFFFFFFFFF AND DUP2 MSTORE PUSH1 0x20 ADD SWAP2 POP POP PUSH1 0x40 MLOAD DUP1 SWAP2 SUB SWAP1 RETURN JUMPDEST PUSH2 0x2A9 PUSH2 0x924 JUMP JUMPDEST STOP JUMPDEST PUSH2 0x2B3 PUSH2 0xA1F JUMP JUMPDEST PUSH1 0x40 MLOAD DUP1 DUP3 DUP2 MSTORE PUSH1 0x20 ADD SWAP2 POP POP PUSH1 0x40 MLOAD DUP1 SWAP2 SUB SWAP1 RETURN JUMPDEST PUSH2 0x2D1 PUSH2 0xA2C JUMP JUMPDEST STOP JUMPDEST PUSH2 0x315 PUSH1 0x4 DUP1 CALLDATASIZE SUB PUSH1 0x20 DUP2 LT ISZERO PUSH2 0x2E9 JUMPI PUSH1 0x0 DUP1 REVERT JUMPDEST DUP2 ADD SWAP1 DUP1 DUP1 CALLDATALOAD PUSH20 0xFFFFFFFFFFFFFFFFFFFFFFFFFFFFFFFFFFFFFFFF AND SWAP1 PUSH1 0x20 ADD SWAP1 SWAP3 SWAP2 SWAP1 POP POP POP PUSH2 0xBA3 JUMP JUMPDEST PUSH1 0x40 MLOAD DUP1 DUP3 DUP2 MSTORE PUSH1 0x20 ADD SWAP2 POP POP PUSH1 0x40 MLOAD DUP1 SWAP2 SUB SWAP1 RETURN JUMPDEST PUSH1 0x4 PUSH1 0x20 MSTORE DUP1 PUSH1 0x0 MSTORE PUSH1 0x40 PUSH1 0x0 KECCAK256 PUSH1 0x0 SWAP2 POP SWAP1 POP DUP1 PUSH1 0x0 ADD SLOAD SWAP1 DUP1 PUSH1 0x1 ADD SLOAD SWAP1 DUP1 PUSH1 0x2 ADD SLOAD SWAP1 POP DUP4 JUMP JUMPDEST PUSH1 0x7 SLOAD DUP2 JUMP JUMPDEST PUSH1 0x0 DUP2 GT PUSH2 0x3D1 JUMPI PUSH1 0x40 MLOAD PUSH32 0x8C379A000000000000000000000000000000000000000000000000000000000 DUP2 MSTORE PUSH1 0x4 ADD DUP1 DUP1 PUSH1 0x20 ADD DUP3 DUP2 SUB DUP3 MSTORE PUSH1 0x8 DUP2 MSTORE PUSH1 0x20 ADD DUP1 PUSH32 0x616D6F756E742030000000000000000000000000000000000000000000000000 DUP2 MSTORE POP PUSH1 0x20 ADD SWAP2 POP POP PUSH1 0x40 MLOAD DUP1 SWAP2 SUB SWAP1 REVERT JUMPDEST PUSH1 0x0 PUSH1 0x4 PUSH1 0x0 CALLER PUSH20 0xFFFFFFFFFFFFFFFFFFFFFFFFFFFFFFFFFFFFFFFF AND PUSH20 0xFFFFFFFFFFFFFFFFFFFFFFFFFFFFFFFFFFFFFFFF AND DUP2 MSTORE PUSH1 0x20 ADD SWAP1 DUP2 MSTORE PUSH1 0x20 ADD PUSH1 0x0 KECCAK256 SWAP1 POP DUP2 DUP2 PUSH1 0x0 ADD SLOAD LT ISZERO PUSH2 0x48E JUMPI PUSH1 0x40 MLOAD PUSH32 0x8C379A000000000000000000000000000000000000000000000000000000000 DUP2 MSTORE PUSH1 0x4 ADD DUP1 DUP1 PUSH1 0x20 ADD DUP3 DUP2 SUB DUP3 MSTORE PUSH1 0x14 DUP2 MSTORE PUSH1 0x20 ADD DUP1 PUSH32 0x77697468647261773A206E6F7420656E6F756768000000000000000000000000 DUP2 MSTORE POP PUSH1 0x20 ADD SWAP2 POP POP PUSH1 0x40 MLOAD DUP1 SWAP2 SUB SWAP1 REVERT JUMPDEST PUSH2 0x496 PUSH2 0xA2C JUMP JUMPDEST PUSH2 0x4E1 CALLER DUP4 PUSH1 0x0 DUP1 SLOAD SWAP1 PUSH2 0x100 EXP SWAP1 DIV PUSH20 0xFFFFFFFFFFFFFFFFFFFFFFFFFFFFFFFFFFFFFFFF AND PUSH20 0xFFFFFFFFFFFFFFFFFFFFFFFFFFFFFFFFFFFFFFFF AND PUSH2 0xDA7 SWAP1 SWAP3 SWAP2 SWAP1 PUSH4 0xFFFFFFFF AND JUMP JUMPDEST PUSH2 0x540 DUP2 PUSH1 0x2 ADD SLOAD PUSH2 0x532 DUP4 PUSH1 0x1 ADD SLOAD PUSH2 0x524 PUSH5 0xE8D4A51000 PUSH2 0x516 PUSH1 0x2 PUSH1 0x1 ADD SLOAD DUP9 PUSH1 0x0 ADD SLOAD PUSH2 0xE49 SWAP1 SWAP2 SWAP1 PUSH4 0xFFFFFFFF AND JUMP JUMPDEST PUSH2 0xECF SWAP1 SWAP2 SWAP1 PUSH4 0xFFFFFFFF AND JUMP JUMPDEST PUSH2 0xF19 SWAP1 SWAP2 SWAP1 PUSH4 0xFFFFFFFF AND JUMP JUMPDEST PUSH2 0xF63 SWAP1 SWAP2 SWAP1 PUSH4 0xFFFFFFFF AND JUMP JUMPDEST DUP2 PUSH1 0x2 ADD DUP2 SWAP1 SSTORE POP PUSH2 0x55F DUP3 DUP3 PUSH1 0x0 ADD SLOAD PUSH2 0xF19 SWAP1 SWAP2 SWAP1 PUSH4 0xFFFFFFFF AND JUMP JUMPDEST DUP2 PUSH1 0x0 ADD DUP2 SWAP1 SSTORE POP PUSH2 0x59A PUSH5 0xE8D4A51000 PUSH2 0x58C PUSH1 0x2 PUSH1 0x1 ADD SLOAD DUP5 PUSH1 0x0 ADD SLOAD PUSH2 0xE49 SWAP1 SWAP2 SWAP1 PUSH4 0xFFFFFFFF AND JUMP JUMPDEST PUSH2 0xECF SWAP1 SWAP2 SWAP1 PUSH4 0xFFFFFFFF AND JUMP JUMPDEST DUP2 PUSH1 0x1 ADD DUP2 SWAP1 SSTORE POP CALLER PUSH20 0xFFFFFFFFFFFFFFFFFFFFFFFFFFFFFFFFFFFFFFFF AND PUSH32 0x884EDAD9CE6FA2440D8A54CC123490EB96D2768479D49FF9C7366125A9424364 DUP4 PUSH1 0x40 MLOAD DUP1 DUP3 DUP2 MSTORE PUSH1 0x20 ADD SWAP2 POP POP PUSH1 0x40 MLOAD DUP1 SWAP2 SUB SWAP1 LOG2 POP POP JUMP JUMPDEST PUSH1 0x6 SLOAD DUP2 JUMP JUMPDEST PUSH1 0x2 DUP1 PUSH1 0x0 ADD SLOAD SWAP1 DUP1 PUSH1 0x1 ADD SLOAD SWAP1 POP DUP3 JUMP JUMPDEST PUSH1 0x0 DUP1 SLOAD SWAP1 PUSH2 0x100 EXP SWAP1 DIV PUSH20 0xFFFFFFFFFFFFFFFFFFFFFFFFFFFFFFFFFFFFFFFF AND DUP2 JUMP JUMPDEST PUSH1 0x1 SLOAD DUP2 JUMP JUMPDEST PUSH1 0x0 DUP2 GT PUSH2 0x6AC JUMPI PUSH1 0x40 MLOAD PUSH32 0x8C379A000000000000000000000000000000000000000000000000000000000 DUP2 MSTORE PUSH1 0x4 ADD DUP1 DUP1 PUSH1 0x20 ADD DUP3 DUP2 SUB DUP3 MSTORE PUSH1 0x8 DUP2 MSTORE PUSH1 0x20 ADD DUP1 PUSH32 0x616D6F756E742030000000000000000000000000000000000000000000000000 DUP2 MSTORE POP PUSH1 0x20 ADD SWAP2 POP POP PUSH1 0x40 MLOAD DUP1 SWAP2 SUB SWAP1 REVERT JUMPDEST PUSH1 0x0 PUSH1 0x4 PUSH1 0x0 CALLER PUSH20 0xFFFFFFFFFFFFFFFFFFFFFFFFFFFFFFFFFFFFFFFF AND PUSH20 0xFFFFFFFFFFFFFFFFFFFFFFFFFFFFFFFFFFFFFFFF AND DUP2 MSTORE PUSH1 0x20 ADD SWAP1 DUP2 MSTORE PUSH1 0x20 ADD PUSH1 0x0 KECCAK256 SWAP1 POP PUSH2 0x6F7 PUSH2 0xA2C JUMP JUMPDEST PUSH2 0x744 CALLER ADDRESS DUP5 PUSH1 0x0 DUP1 SLOAD SWAP1 PUSH2 0x100 EXP SWAP1 DIV PUSH20 0xFFFFFFFFFFFFFFFFFFFFFFFFFFFFFFFFFFFFFFFF AND PUSH20 0xFFFFFFFFFFFFFFFFFFFFFFFFFFFFFFFFFFFFFFFF AND PUSH2 0xFEB SWAP1 SWAP4 SWAP3 SWAP2 SWAP1 PUSH4 0xFFFFFFFF AND JUMP JUMPDEST PUSH1 0x0 DUP2 PUSH1 0x0 ADD SLOAD EQ DUP1 ISZERO PUSH2 0x75C JUMPI POP PUSH1 0x0 DUP2 PUSH1 0x1 ADD SLOAD EQ JUMPDEST DUP1 ISZERO PUSH2 0x76C JUMPI POP PUSH1 0x0 DUP2 PUSH1 0x2 ADD SLOAD EQ JUMPDEST ISZERO PUSH2 0x7D5 JUMPI PUSH1 0x5 CALLER SWAP1 DUP1 PUSH1 0x1 DUP2 SLOAD ADD DUP1 DUP3 SSTORE DUP1 SWAP2 POP POP PUSH1 0x1 SWAP1 SUB SWAP1 PUSH1 0x0 MSTORE PUSH1 0x20 PUSH1 0x0 KECCAK256 ADD PUSH1 0x0 SWAP1 SWAP2 SWAP1 SWAP2 SWAP1 SWAP2 PUSH2 0x100 EXP DUP2 SLOAD DUP2 PUSH20 0xFFFFFFFFFFFFFFFFFFFFFFFFFFFFFFFFFFFFFFFF MUL NOT AND SWAP1 DUP4 PUSH20 0xFFFFFFFFFFFFFFFFFFFFFFFFFFFFFFFFFFFFFFFF AND MUL OR SWAP1 SSTORE POP JUMPDEST PUSH2 0x834 DUP2 PUSH1 0x2 ADD SLOAD PUSH2 0x826 DUP4 PUSH1 0x1 ADD SLOAD PUSH2 0x818 PUSH5 0xE8D4A51000 PUSH2 0x80A PUSH1 0x2 PUSH1 0x1 ADD SLOAD DUP9 PUSH1 0x0 ADD SLOAD PUSH2 0xE49 SWAP1 SWAP2 SWAP1 PUSH4 0xFFFFFFFF AND JUMP JUMPDEST PUSH2 0xECF SWAP1 SWAP2 SWAP1 PUSH4 0xFFFFFFFF AND JUMP JUMPDEST PUSH2 0xF19 SWAP1 SWAP2 SWAP1 PUSH4 0xFFFFFFFF AND JUMP JUMPDEST PUSH2 0xF63 SWAP1 SWAP2 SWAP1 PUSH4 0xFFFFFFFF AND JUMP JUMPDEST DUP2 PUSH1 0x2 ADD DUP2 SWAP1 SSTORE POP PUSH2 0x853 DUP3 DUP3 PUSH1 0x0 ADD SLOAD PUSH2 0xF63 SWAP1 SWAP2 SWAP1 PUSH4 0xFFFFFFFF AND JUMP JUMPDEST DUP2 PUSH1 0x0 ADD DUP2 SWAP1 SSTORE POP PUSH2 0x88E PUSH5 0xE8D4A51000 PUSH2 0x880 PUSH1 0x2 PUSH1 0x1 ADD SLOAD DUP5 PUSH1 0x0 ADD SLOAD PUSH2 0xE49 SWAP1 SWAP2 SWAP1 PUSH4 0xFFFFFFFF AND JUMP JUMPDEST PUSH2 0xECF SWAP1 SWAP2 SWAP1 PUSH4 0xFFFFFFFF AND JUMP JUMPDEST DUP2 PUSH1 0x1 ADD DUP2 SWAP1 SSTORE POP CALLER PUSH20 0xFFFFFFFFFFFFFFFFFFFFFFFFFFFFFFFFFFFFFFFF AND PUSH32 0xE1FFFCC4923D04B559F4D29A8BFC6CDA04EB5B0D3C460751C2402C5C5CC9109C DUP4 PUSH1 0x40 MLOAD DUP1 DUP3 DUP2 MSTORE PUSH1 0x20 ADD SWAP2 POP POP PUSH1 0x40 MLOAD DUP1 SWAP2 SUB SWAP1 LOG2 POP POP JUMP JUMPDEST PUSH1 0x5 DUP2 DUP2 SLOAD DUP2 LT PUSH2 0x8F5 JUMPI INVALID JUMPDEST SWAP1 PUSH1 0x0 MSTORE PUSH1 0x20 PUSH1 0x0 KECCAK256 ADD PUSH1 0x0 SWAP2 POP SLOAD SWAP1 PUSH2 0x100 EXP SWAP1 DIV PUSH20 0xFFFFFFFFFFFFFFFFFFFFFFFFFFFFFFFFFFFFFFFF AND DUP2 JUMP JUMPDEST PUSH1 0x0 PUSH1 0x4 PUSH1 0x0 CALLER PUSH20 0xFFFFFFFFFFFFFFFFFFFFFFFFFFFFFFFFFFFFFFFF AND PUSH20 0xFFFFFFFFFFFFFFFFFFFFFFFFFFFFFFFFFFFFFFFF AND DUP2 MSTORE PUSH1 0x20 ADD SWAP1 DUP2 MSTORE PUSH1 0x20 ADD PUSH1 0x0 KECCAK256 SWAP1 POP PUSH2 0x9B6 CALLER DUP3 PUSH1 0x0 ADD SLOAD PUSH1 0x0 DUP1 SLOAD SWAP1 PUSH2 0x100 EXP SWAP1 DIV PUSH20 0xFFFFFFFFFFFFFFFFFFFFFFFFFFFFFFFFFFFFFFFF AND PUSH20 0xFFFFFFFFFFFFFFFFFFFFFFFFFFFFFFFFFFFFFFFF AND PUSH2 0xDA7 SWAP1 SWAP3 SWAP2 SWAP1 PUSH4 0xFFFFFFFF AND JUMP JUMPDEST CALLER PUSH20 0xFFFFFFFFFFFFFFFFFFFFFFFFFFFFFFFFFFFFFFFF AND PUSH32 0x5FAFA99D0643513820BE26656B45130B01E1C03062E1266BF36F88CBD3BD9695 DUP3 PUSH1 0x0 ADD SLOAD PUSH1 0x40 MLOAD DUP1 DUP3 DUP2 MSTORE PUSH1 0x20 ADD SWAP2 POP POP PUSH1 0x40 MLOAD DUP1 SWAP2 SUB SWAP1 LOG2 PUSH1 0x0 DUP2 PUSH1 0x0 ADD DUP2 SWAP1 SSTORE POP PUSH1 0x0 DUP2 PUSH1 0x1 ADD DUP2 SWAP1 SSTORE POP POP JUMP JUMPDEST PUSH1 0x0 PUSH1 0x5 DUP1 SLOAD SWAP1 POP SWAP1 POP SWAP1 JUMP JUMPDEST PUSH1 0x2 PUSH1 0x0 ADD SLOAD NUMBER GT PUSH2 0xA3D JUMPI PUSH2 0xBA1 JUMP JUMPDEST PUSH1 0x0 DUP1 PUSH1 0x0 SWAP1 SLOAD SWAP1 PUSH2 0x100 EXP SWAP1 DIV PUSH20 0xFFFFFFFFFFFFFFFFFFFFFFFFFFFFFFFFFFFFFFFF AND PUSH20 0xFFFFFFFFFFFFFFFFFFFFFFFFFFFFFFFFFFFFFFFF AND PUSH4 0x70A08231 ADDRESS PUSH1 0x40 MLOAD DUP3 PUSH4 0xFFFFFFFF AND PUSH1 0xE0 SHL DUP2 MSTORE PUSH1 0x4 ADD DUP1 DUP3 PUSH20 0xFFFFFFFFFFFFFFFFFFFFFFFFFFFFFFFFFFFFFFFF AND DUP2 MSTORE PUSH1 0x20 ADD SWAP2 POP POP PUSH1 0x20 PUSH1 0x40 MLOAD DUP1 DUP4 SUB DUP2 DUP7 DUP1 EXTCODESIZE ISZERO DUP1 ISZERO PUSH2 0xAC7 JUMPI PUSH1 0x0 DUP1 REVERT JUMPDEST POP GAS STATICCALL ISZERO DUP1 ISZERO PUSH2 0xADB JUMPI RETURNDATASIZE PUSH1 0x0 DUP1 RETURNDATACOPY RETURNDATASIZE PUSH1 0x0 REVERT JUMPDEST POP POP POP POP PUSH1 0x40 MLOAD RETURNDATASIZE PUSH1 0x20 DUP2 LT ISZERO PUSH2 0xAF1 JUMPI PUSH1 0x0 DUP1 REVERT JUMPDEST DUP2 ADD SWAP1 DUP1 DUP1 MLOAD SWAP1 PUSH1 0x20 ADD SWAP1 SWAP3 SWAP2 SWAP1 POP POP POP SWAP1 POP PUSH1 0x0 DUP2 EQ ISZERO PUSH2 0xB1D JUMPI NUMBER PUSH1 0x2 PUSH1 0x0 ADD DUP2 SWAP1 SSTORE POP POP PUSH2 0xBA1 JUMP JUMPDEST PUSH1 0x0 PUSH2 0xB2E PUSH1 0x2 PUSH1 0x0 ADD SLOAD NUMBER PUSH2 0x10AC JUMP JUMPDEST SWAP1 POP PUSH1 0x0 PUSH2 0xB47 PUSH1 0x1 SLOAD DUP4 PUSH2 0xE49 SWAP1 SWAP2 SWAP1 PUSH4 0xFFFFFFFF AND JUMP JUMPDEST SWAP1 POP PUSH2 0xB8A PUSH2 0xB76 DUP5 PUSH2 0xB68 PUSH5 0xE8D4A51000 DUP6 PUSH2 0xE49 SWAP1 SWAP2 SWAP1 PUSH4 0xFFFFFFFF AND JUMP JUMPDEST PUSH2 0xECF SWAP1 SWAP2 SWAP1 PUSH4 0xFFFFFFFF AND JUMP JUMPDEST PUSH1 0x2 PUSH1 0x1 ADD SLOAD PUSH2 0xF63 SWAP1 SWAP2 SWAP1 PUSH4 0xFFFFFFFF AND JUMP JUMPDEST PUSH1 0x2 PUSH1 0x1 ADD DUP2 SWAP1 SSTORE POP NUMBER PUSH1 0x2 PUSH1 0x0 ADD DUP2 SWAP1 SSTORE POP POP POP POP JUMPDEST JUMP JUMPDEST PUSH1 0x0 DUP1 PUSH1 0x2 SWAP1 POP PUSH1 0x0 PUSH1 0x4 PUSH1 0x0 DUP6 PUSH20 0xFFFFFFFFFFFFFFFFFFFFFFFFFFFFFFFFFFFFFFFF AND PUSH20 0xFFFFFFFFFFFFFFFFFFFFFFFFFFFFFFFFFFFFFFFF AND DUP2 MSTORE PUSH1 0x20 ADD SWAP1 DUP2 MSTORE PUSH1 0x20 ADD PUSH1 0x0 KECCAK256 SWAP1 POP PUSH1 0x0 DUP3 PUSH1 0x1 ADD SLOAD SWAP1 POP PUSH1 0x0 DUP1 PUSH1 0x0 SWAP1 SLOAD SWAP1 PUSH2 0x100 EXP SWAP1 DIV PUSH20 0xFFFFFFFFFFFFFFFFFFFFFFFFFFFFFFFFFFFFFFFF AND PUSH20 0xFFFFFFFFFFFFFFFFFFFFFFFFFFFFFFFFFFFFFFFF AND PUSH4 0x70A08231 ADDRESS PUSH1 0x40 MLOAD DUP3 PUSH4 0xFFFFFFFF AND PUSH1 0xE0 SHL DUP2 MSTORE PUSH1 0x4 ADD DUP1 DUP3 PUSH20 0xFFFFFFFFFFFFFFFFFFFFFFFFFFFFFFFFFFFFFFFF AND DUP2 MSTORE PUSH1 0x20 ADD SWAP2 POP POP PUSH1 0x20 PUSH1 0x40 MLOAD DUP1 DUP4 SUB DUP2 DUP7 DUP1 EXTCODESIZE ISZERO DUP1 ISZERO PUSH2 0xC80 JUMPI PUSH1 0x0 DUP1 REVERT JUMPDEST POP GAS STATICCALL ISZERO DUP1 ISZERO PUSH2 0xC94 JUMPI RETURNDATASIZE PUSH1 0x0 DUP1 RETURNDATACOPY RETURNDATASIZE PUSH1 0x0 REVERT JUMPDEST POP POP POP POP PUSH1 0x40 MLOAD RETURNDATASIZE PUSH1 0x20 DUP2 LT ISZERO PUSH2 0xCAA JUMPI PUSH1 0x0 DUP1 REVERT JUMPDEST DUP2 ADD SWAP1 DUP1 DUP1 MLOAD SWAP1 PUSH1 0x20 ADD SWAP1 SWAP3 SWAP2 SWAP1 POP POP POP SWAP1 POP DUP4 PUSH1 0x0 ADD SLOAD NUMBER GT DUP1 ISZERO PUSH2 0xCD1 JUMPI POP PUSH1 0x0 DUP2 EQ ISZERO JUMPDEST ISZERO PUSH2 0xD42 JUMPI PUSH1 0x0 PUSH2 0xCE6 DUP6 PUSH1 0x0 ADD SLOAD NUMBER PUSH2 0x10AC JUMP JUMPDEST SWAP1 POP PUSH1 0x0 PUSH2 0xCFF PUSH1 0x1 SLOAD DUP4 PUSH2 0xE49 SWAP1 SWAP2 SWAP1 PUSH4 0xFFFFFFFF AND JUMP JUMPDEST SWAP1 POP PUSH2 0xD3D PUSH2 0xD2E DUP5 PUSH2 0xD20 PUSH5 0xE8D4A51000 DUP6 PUSH2 0xE49 SWAP1 SWAP2 SWAP1 PUSH4 0xFFFFFFFF AND JUMP JUMPDEST PUSH2 0xECF SWAP1 SWAP2 SWAP1 PUSH4 0xFFFFFFFF AND JUMP JUMPDEST DUP6 PUSH2 0xF63 SWAP1 SWAP2 SWAP1 PUSH4 0xFFFFFFFF AND JUMP JUMPDEST SWAP4 POP POP POP JUMPDEST PUSH2 0xD9C DUP4 PUSH1 0x2 ADD SLOAD PUSH2 0xD8E DUP6 PUSH1 0x1 ADD SLOAD PUSH2 0xD80 PUSH5 0xE8D4A51000 PUSH2 0xD72 DUP9 DUP11 PUSH1 0x0 ADD SLOAD PUSH2 0xE49 SWAP1 SWAP2 SWAP1 PUSH4 0xFFFFFFFF AND JUMP JUMPDEST PUSH2 0xECF SWAP1 SWAP2 SWAP1 PUSH4 0xFFFFFFFF AND JUMP JUMPDEST PUSH2 0xF19 SWAP1 SWAP2 SWAP1 PUSH4 0xFFFFFFFF AND JUMP JUMPDEST PUSH2 0xF63 SWAP1 SWAP2 SWAP1 PUSH4 0xFFFFFFFF AND JUMP JUMPDEST SWAP5 POP POP POP POP POP SWAP2 SWAP1 POP JUMP JUMPDEST PUSH2 0xE44 DUP4 PUSH4 0xA9059CBB PUSH1 0xE0 SHL DUP5 DUP5 PUSH1 0x40 MLOAD PUSH1 0x24 ADD DUP1 DUP4 PUSH20 0xFFFFFFFFFFFFFFFFFFFFFFFFFFFFFFFFFFFFFFFF AND DUP2 MSTORE PUSH1 0x20 ADD DUP3 DUP2 MSTORE PUSH1 0x20 ADD SWAP3 POP POP POP PUSH1 0x40 MLOAD PUSH1 0x20 DUP2 DUP4 SUB SUB DUP2 MSTORE SWAP1 PUSH1 0x40 MSTORE SWAP1 PUSH28 0xFFFFFFFFFFFFFFFFFFFFFFFFFFFFFFFFFFFFFFFFFFFFFFFFFFFFFFFF NOT AND PUSH1 0x20 DUP3 ADD DUP1 MLOAD PUSH28 0xFFFFFFFFFFFFFFFFFFFFFFFFFFFFFFFFFFFFFFFFFFFFFFFFFFFFFFFF DUP4 DUP2 DUP4 AND OR DUP4 MSTORE POP POP POP POP PUSH2 0x1101 JUMP JUMPDEST POP POP POP JUMP JUMPDEST PUSH1 0x0 DUP1 DUP4 EQ ISZERO PUSH2 0xE5C JUMPI PUSH1 0x0 SWAP1 POP PUSH2 0xEC9 JUMP JUMPDEST PUSH1 0x0 DUP3 DUP5 MUL SWAP1 POP DUP3 DUP5 DUP3 DUP2 PUSH2 0xE6D JUMPI INVALID JUMPDEST DIV EQ PUSH2 0xEC4 JUMPI PUSH1 0x40 MLOAD PUSH32 0x8C379A000000000000000000000000000000000000000000000000000000000 DUP2 MSTORE PUSH1 0x4 ADD DUP1 DUP1 PUSH1 0x20 ADD DUP3 DUP2 SUB DUP3 MSTORE PUSH1 0x21 DUP2 MSTORE PUSH1 0x20 ADD DUP1 PUSH2 0x160A PUSH1 0x21 SWAP2 CODECOPY PUSH1 0x40 ADD SWAP2 POP POP PUSH1 0x40 MLOAD DUP1 SWAP2 SUB SWAP1 REVERT JUMPDEST DUP1 SWAP2 POP POP JUMPDEST SWAP3 SWAP2 POP POP JUMP JUMPDEST PUSH1 0x0 PUSH2 0xF11 DUP4 DUP4 PUSH1 0x40 MLOAD DUP1 PUSH1 0x40 ADD PUSH1 0x40 MSTORE DUP1 PUSH1 0x1A DUP2 MSTORE PUSH1 0x20 ADD PUSH32 0x536166654D6174683A206469766973696F6E206279207A65726F000000000000 DUP2 MSTORE POP PUSH2 0x11F0 JUMP JUMPDEST SWAP1 POP SWAP3 SWAP2 POP POP JUMP JUMPDEST PUSH1 0x0 PUSH2 0xF5B DUP4 DUP4 PUSH1 0x40 MLOAD DUP1 PUSH1 0x40 ADD PUSH1 0x40 MSTORE DUP1 PUSH1 0x1E DUP2 MSTORE PUSH1 0x20 ADD PUSH32 0x536166654D6174683A207375627472616374696F6E206F766572666C6F770000 DUP2 MSTORE POP PUSH2 0x12B6 JUMP JUMPDEST SWAP1 POP SWAP3 SWAP2 POP POP JUMP JUMPDEST PUSH1 0x0 DUP1 DUP3 DUP5 ADD SWAP1 POP DUP4 DUP2 LT ISZERO PUSH2 0xFE1 JUMPI PUSH1 0x40 MLOAD PUSH32 0x8C379A000000000000000000000000000000000000000000000000000000000 DUP2 MSTORE PUSH1 0x4 ADD DUP1 DUP1 PUSH1 0x20 ADD DUP3 DUP2 SUB DUP3 MSTORE PUSH1 0x1B DUP2 MSTORE PUSH1 0x20 ADD DUP1 PUSH32 0x536166654D6174683A206164646974696F6E206F766572666C6F770000000000 DUP2 MSTORE POP PUSH1 0x20 ADD SWAP2 POP POP PUSH1 0x40 MLOAD DUP1 SWAP2 SUB SWAP1 REVERT JUMPDEST DUP1 SWAP2 POP POP SWAP3 SWAP2 POP POP JUMP JUMPDEST PUSH2 0x10A6 DUP5 PUSH4 0x23B872DD PUSH1 0xE0 SHL DUP6 DUP6 DUP6 PUSH1 0x40 MLOAD PUSH1 0x24 ADD DUP1 DUP5 PUSH20 0xFFFFFFFFFFFFFFFFFFFFFFFFFFFFFFFFFFFFFFFF AND DUP2 MSTORE PUSH1 0x20 ADD DUP4 PUSH20 0xFFFFFFFFFFFFFFFFFFFFFFFFFFFFFFFFFFFFFFFF AND DUP2 MSTORE PUSH1 0x20 ADD DUP3 DUP2 MSTORE PUSH1 0x20 ADD SWAP4 POP POP POP POP PUSH1 0x40 MLOAD PUSH1 0x20 DUP2 DUP4 SUB SUB DUP2 MSTORE SWAP1 PUSH1 0x40 MSTORE SWAP1 PUSH28 0xFFFFFFFFFFFFFFFFFFFFFFFFFFFFFFFFFFFFFFFFFFFFFFFFFFFFFFFF NOT AND PUSH1 0x20 DUP3 ADD DUP1 MLOAD PUSH28 0xFFFFFFFFFFFFFFFFFFFFFFFFFFFFFFFFFFFFFFFFFFFFFFFFFFFFFFFF DUP4 DUP2 DUP4 AND OR DUP4 MSTORE POP POP POP POP PUSH2 0x1101 JUMP JUMPDEST POP POP POP POP JUMP JUMPDEST PUSH1 0x0 PUSH1 0x7 SLOAD DUP3 GT PUSH2 0x10D1 JUMPI PUSH2 0x10CA DUP4 DUP4 PUSH2 0xF19 SWAP1 SWAP2 SWAP1 PUSH4 0xFFFFFFFF AND JUMP JUMPDEST SWAP1 POP PUSH2 0x10FB JUMP JUMPDEST PUSH1 0x7 SLOAD DUP4 LT PUSH2 0x10E3 JUMPI PUSH1 0x0 SWAP1 POP PUSH2 0x10FB JUMP JUMPDEST PUSH2 0x10F8 DUP4 PUSH1 0x7 SLOAD PUSH2 0xF19 SWAP1 SWAP2 SWAP1 PUSH4 0xFFFFFFFF AND JUMP JUMPDEST SWAP1 POP JUMPDEST SWAP3 SWAP2 POP POP JUMP JUMPDEST PUSH1 0x60 PUSH2 0x1163 DUP3 PUSH1 0x40 MLOAD DUP1 PUSH1 0x40 ADD PUSH1 0x40 MSTORE DUP1 PUSH1 0x20 DUP2 MSTORE PUSH1 0x20 ADD PUSH32 0x5361666542455032303A206C6F772D6C6576656C2063616C6C206661696C6564 DUP2 MSTORE POP DUP6 PUSH20 0xFFFFFFFFFFFFFFFFFFFFFFFFFFFFFFFFFFFFFFFF AND PUSH2 0x1376 SWAP1 SWAP3 SWAP2 SWAP1 PUSH4 0xFFFFFFFF AND JUMP JUMPDEST SWAP1 POP PUSH1 0x0 DUP2 MLOAD GT ISZERO PUSH2 0x11EB JUMPI DUP1 DUP1 PUSH1 0x20 ADD SWAP1 MLOAD PUSH1 0x20 DUP2 LT ISZERO PUSH2 0x1184 JUMPI PUSH1 0x0 DUP1 REVERT JUMPDEST DUP2 ADD SWAP1 DUP1 DUP1 MLOAD SWAP1 PUSH1 0x20 ADD SWAP1 SWAP3 SWAP2 SWAP1 POP POP POP PUSH2 0x11EA JUMPI PUSH1 0x40 MLOAD PUSH32 0x8C379A000000000000000000000000000000000000000000000000000000000 DUP2 MSTORE PUSH1 0x4 ADD DUP1 DUP1 PUSH1 0x20 ADD DUP3 DUP2 SUB DUP3 MSTORE PUSH1 0x2A DUP2 MSTORE PUSH1 0x20 ADD DUP1 PUSH2 0x15E0 PUSH1 0x2A SWAP2 CODECOPY PUSH1 0x40 ADD SWAP2 POP POP PUSH1 0x40 MLOAD DUP1 SWAP2 SUB SWAP1 REVERT JUMPDEST JUMPDEST POP POP POP JUMP JUMPDEST PUSH1 0x0 DUP1 DUP4 GT DUP3 SWAP1 PUSH2 0x129C JUMPI PUSH1 0x40 MLOAD PUSH32 0x8C379A000000000000000000000000000000000000000000000000000000000 DUP2 MSTORE PUSH1 0x4 ADD DUP1 DUP1 PUSH1 0x20 ADD DUP3 DUP2 SUB DUP3 MSTORE DUP4 DUP2 DUP2 MLOAD DUP2 MSTORE PUSH1 0x20 ADD SWAP2 POP DUP1 MLOAD SWAP1 PUSH1 0x20 ADD SWAP1 DUP1 DUP4 DUP4 PUSH1 0x0 JUMPDEST DUP4 DUP2 LT ISZERO PUSH2 0x1261 JUMPI DUP1 DUP3 ADD MLOAD DUP2 DUP5 ADD MSTORE PUSH1 0x20 DUP2 ADD SWAP1 POP PUSH2 0x1246 JUMP JUMPDEST POP POP POP POP SWAP1 POP SWAP1 DUP2 ADD SWAP1 PUSH1 0x1F AND DUP1 ISZERO PUSH2 0x128E JUMPI DUP1 DUP3 SUB DUP1 MLOAD PUSH1 0x1 DUP4 PUSH1 0x20 SUB PUSH2 0x100 EXP SUB NOT AND DUP2 MSTORE PUSH1 0x20 ADD SWAP2 POP JUMPDEST POP SWAP3 POP POP POP PUSH1 0x40 MLOAD DUP1 SWAP2 SUB SWAP1 REVERT JUMPDEST POP PUSH1 0x0 DUP4 DUP6 DUP2 PUSH2 0x12A8 JUMPI INVALID JUMPDEST DIV SWAP1 POP DUP1 SWAP2 POP POP SWAP4 SWAP3 POP POP POP JUMP JUMPDEST PUSH1 0x0 DUP4 DUP4 GT ISZERO DUP3 SWAP1 PUSH2 0x1363 JUMPI PUSH1 0x40 MLOAD PUSH32 0x8C379A000000000000000000000000000000000000000000000000000000000 DUP2 MSTORE PUSH1 0x4 ADD DUP1 DUP1 PUSH1 0x20 ADD DUP3 DUP2 SUB DUP3 MSTORE DUP4 DUP2 DUP2 MLOAD DUP2 MSTORE PUSH1 0x20 ADD SWAP2 POP DUP1 MLOAD SWAP1 PUSH1 0x20 ADD SWAP1 DUP1 DUP4 DUP4 PUSH1 0x0 JUMPDEST DUP4 DUP2 LT ISZERO PUSH2 0x1328 JUMPI DUP1 DUP3 ADD MLOAD DUP2 DUP5 ADD MSTORE PUSH1 0x20 DUP2 ADD SWAP1 POP PUSH2 0x130D JUMP JUMPDEST POP POP POP POP SWAP1 POP SWAP1 DUP2 ADD SWAP1 PUSH1 0x1F AND DUP1 ISZERO PUSH2 0x1355 JUMPI DUP1 DUP3 SUB DUP1 MLOAD PUSH1 0x1 DUP4 PUSH1 0x20 SUB PUSH2 0x100 EXP SUB NOT AND DUP2 MSTORE PUSH1 0x20 ADD SWAP2 POP JUMPDEST POP SWAP3 POP POP POP PUSH1 0x40 MLOAD DUP1 SWAP2 SUB SWAP1 REVERT JUMPDEST POP PUSH1 0x0 DUP4 DUP6 SUB SWAP1 POP DUP1 SWAP2 POP POP SWAP4 SWAP3 POP POP POP JUMP JUMPDEST PUSH1 0x60 PUSH2 0x1385 DUP5 DUP5 PUSH1 0x0 DUP6 PUSH2 0x138E JUMP JUMPDEST SWAP1 POP SWAP4 SWAP3 POP POP POP JUMP JUMPDEST PUSH1 0x60 PUSH2 0x1399 DUP6 PUSH2 0x1594 JUMP JUMPDEST PUSH2 0x140B JUMPI PUSH1 0x40 MLOAD PUSH32 0x8C379A000000000000000000000000000000000000000000000000000000000 DUP2 MSTORE PUSH1 0x4 ADD DUP1 DUP1 PUSH1 0x20 ADD DUP3 DUP2 SUB DUP3 MSTORE PUSH1 0x1D DUP2 MSTORE PUSH1 0x20 ADD DUP1 PUSH32 0x416464726573733A2063616C6C20746F206E6F6E2D636F6E7472616374000000 DUP2 MSTORE POP PUSH1 0x20 ADD SWAP2 POP POP PUSH1 0x40 MLOAD DUP1 SWAP2 SUB SWAP1 REVERT JUMPDEST PUSH1 0x0 PUSH1 0x60 DUP7 PUSH20 0xFFFFFFFFFFFFFFFFFFFFFFFFFFFFFFFFFFFFFFFF AND DUP6 DUP8 PUSH1 0x40 MLOAD DUP1 DUP3 DUP1 MLOAD SWAP1 PUSH1 0x20 ADD SWAP1 DUP1 DUP4 DUP4 JUMPDEST PUSH1 0x20 DUP4 LT PUSH2 0x145B JUMPI DUP1 MLOAD DUP3 MSTORE PUSH1 0x20 DUP3 ADD SWAP2 POP PUSH1 0x20 DUP2 ADD SWAP1 POP PUSH1 0x20 DUP4 SUB SWAP3 POP PUSH2 0x1438 JUMP JUMPDEST PUSH1 0x1 DUP4 PUSH1 0x20 SUB PUSH2 0x100 EXP SUB DUP1 NOT DUP3 MLOAD AND DUP2 DUP5 MLOAD AND DUP1 DUP3 OR DUP6 MSTORE POP POP POP POP POP POP SWAP1 POP ADD SWAP2 POP POP PUSH1 0x0 PUSH1 0x40 MLOAD DUP1 DUP4 SUB DUP2 DUP6 DUP8 GAS CALL SWAP3 POP POP POP RETURNDATASIZE DUP1 PUSH1 0x0 DUP2 EQ PUSH2 0x14BD JUMPI PUSH1 0x40 MLOAD SWAP2 POP PUSH1 0x1F NOT PUSH1 0x3F RETURNDATASIZE ADD AND DUP3 ADD PUSH1 0x40 MSTORE RETURNDATASIZE DUP3 MSTORE RETURNDATASIZE PUSH1 0x0 PUSH1 0x20 DUP5 ADD RETURNDATACOPY PUSH2 0x14C2 JUMP JUMPDEST PUSH1 0x60 SWAP2 POP JUMPDEST POP SWAP2 POP SWAP2 POP DUP2 ISZERO PUSH2 0x14D7 JUMPI DUP1 SWAP3 POP POP POP PUSH2 0x158C JUMP JUMPDEST PUSH1 0x0 DUP2 MLOAD GT ISZERO PUSH2 0x14EA JUMPI DUP1 MLOAD DUP1 DUP3 PUSH1 0x20 ADD REVERT JUMPDEST DUP4 PUSH1 0x40 MLOAD PUSH32 0x8C379A000000000000000000000000000000000000000000000000000000000 DUP2 MSTORE PUSH1 0x4 ADD DUP1 DUP1 PUSH1 0x20 ADD DUP3 DUP2 SUB DUP3 MSTORE DUP4 DUP2 DUP2 MLOAD DUP2 MSTORE PUSH1 0x20 ADD SWAP2 POP DUP1 MLOAD SWAP1 PUSH1 0x20 ADD SWAP1 DUP1 DUP4 DUP4 PUSH1 0x0 JUMPDEST DUP4 DUP2 LT ISZERO PUSH2 0x1551 JUMPI DUP1 DUP3 ADD MLOAD DUP2 DUP5 ADD MSTORE PUSH1 0x20 DUP2 ADD SWAP1 POP PUSH2 0x1536 JUMP JUMPDEST POP POP POP POP SWAP1 POP SWAP1 DUP2 ADD SWAP1 PUSH1 0x1F AND DUP1 ISZERO PUSH2 0x157E JUMPI DUP1 DUP3 SUB DUP1 MLOAD PUSH1 0x1 DUP4 PUSH1 0x20 SUB PUSH2 0x100 EXP SUB NOT AND DUP2 MSTORE PUSH1 0x20 ADD SWAP2 POP JUMPDEST POP SWAP3 POP POP POP PUSH1 0x40 MLOAD DUP1 SWAP2 SUB SWAP1 REVERT JUMPDEST SWAP5 SWAP4 POP POP POP POP JUMP JUMPDEST PUSH1 0x0 DUP1 PUSH1 0x0 PUSH32 0xC5D2460186F7233C927E7DB2DCC703C0E500B653CA82273B7BFAD8045D85A470 PUSH1 0x0 SHL SWAP1 POP DUP4 EXTCODEHASH SWAP2 POP DUP1 DUP3 EQ ISZERO DUP1 ISZERO PUSH2 0x15D6 JUMPI POP PUSH1 0x0 DUP1 SHL DUP3 EQ ISZERO JUMPDEST SWAP3 POP POP POP SWAP2 SWAP1 POP JUMP INVALID MSTORE8 PUSH2 0x6665 TIMESTAMP GASLIMIT POP ORIGIN ADDRESS GASPRICE KECCAK256 TIMESTAMP GASLIMIT POP ORIGIN ADDRESS KECCAK256 PUSH16 0x7065726174696F6E20646964206E6F74 KECCAK256 PUSH20 0x756363656564536166654D6174683A206D756C74 PUSH10 0x706C69636174696F6E20 PUSH16 0x766572666C6F77A26469706673582212 KECCAK256 0x5D 0xB6 PUSH3 0x39BA6E SWAP6 0xC4 PUSH24 0xBF0072A1146F1384932E4DF2FA1949312BA09EFC3A56E264 PUSH20 0x6F6C634300060C00330000000000000000000000 "
				},
				"gasEstimates": {
					"creation": {
						"codeDepositCost": "1145600",
						"executionCost": "infinite",
						"totalCost": "infinite"
					},
					"external": {
						"addressLength()": "1065",
						"addressList(uint256)": "2078",
						"bonusEndBlock()": "1028",
						"deposit(uint256)": "infinite",
						"emergencyWithdraw()": "infinite",
						"pendingReward(address)": "infinite",
						"poolInfo()": "1940",
						"rewardPerBlock()": "1028",
						"startBlock()": "1072",
						"syrup()": "1155",
						"updatePool()": "infinite",
						"userInfo(address)": "2848",
						"withdraw(uint256)": "infinite"
					},
					"internal": {
						"getMultiplier(uint256,uint256)": "infinite"
					}
				},
				"methodIdentifiers": {
					"addressLength()": "dc881888",
					"addressList(uint256)": "b810fb43",
					"bonusEndBlock()": "1aed6553",
					"deposit(uint256)": "b6b55f25",
					"emergencyWithdraw()": "db2e21bc",
					"pendingReward(address)": "f40f0f52",
					"poolInfo()": "5a2f3d09",
					"rewardPerBlock()": "8ae39cac",
					"startBlock()": "48cd4cb1",
					"syrup()": "86a952c4",
					"updatePool()": "e3161ddd",
					"userInfo(address)": "1959a002",
					"withdraw(uint256)": "2e1a7d4d"
				}
			},
			"storageLayout": {
				"storage": [
					{
						"astId": 797,
						"contract": "farms-pools/SousChef.sol:SousChef",
						"label": "syrup",
						"offset": 0,
						"slot": "0",
						"type": "t_contract(IBEP20)367"
					},
					{
						"astId": 799,
						"contract": "farms-pools/SousChef.sol:SousChef",
						"label": "rewardPerBlock",
						"offset": 0,
						"slot": "1",
						"type": "t_uint256"
					},
					{
						"astId": 801,
						"contract": "farms-pools/SousChef.sol:SousChef",
						"label": "poolInfo",
						"offset": 0,
						"slot": "2",
						"type": "t_struct(PoolInfo)795_storage"
					},
					{
						"astId": 805,
						"contract": "farms-pools/SousChef.sol:SousChef",
						"label": "userInfo",
						"offset": 0,
						"slot": "4",
						"type": "t_mapping(t_address,t_struct(UserInfo)790_storage)"
					},
					{
						"astId": 808,
						"contract": "farms-pools/SousChef.sol:SousChef",
						"label": "addressList",
						"offset": 0,
						"slot": "5",
						"type": "t_array(t_address)dyn_storage"
					},
					{
						"astId": 810,
						"contract": "farms-pools/SousChef.sol:SousChef",
						"label": "startBlock",
						"offset": 0,
						"slot": "6",
						"type": "t_uint256"
					},
					{
						"astId": 812,
						"contract": "farms-pools/SousChef.sol:SousChef",
						"label": "bonusEndBlock",
						"offset": 0,
						"slot": "7",
						"type": "t_uint256"
					}
				],
				"types": {
					"t_address": {
						"encoding": "inplace",
						"label": "address",
						"numberOfBytes": "20"
					},
					"t_array(t_address)dyn_storage": {
						"base": "t_address",
						"encoding": "dynamic_array",
						"label": "address[]",
						"numberOfBytes": "32"
					},
					"t_contract(IBEP20)367": {
						"encoding": "inplace",
						"label": "contract IBEP20",
						"numberOfBytes": "20"
					},
					"t_mapping(t_address,t_struct(UserInfo)790_storage)": {
						"encoding": "mapping",
						"key": "t_address",
						"label": "mapping(address => struct SousChef.UserInfo)",
						"numberOfBytes": "32",
						"value": "t_struct(UserInfo)790_storage"
					},
					"t_struct(PoolInfo)795_storage": {
						"encoding": "inplace",
						"label": "struct SousChef.PoolInfo",
						"members": [
							{
								"astId": 792,
								"contract": "farms-pools/SousChef.sol:SousChef",
								"label": "lastRewardBlock",
								"offset": 0,
								"slot": "0",
								"type": "t_uint256"
							},
							{
								"astId": 794,
								"contract": "farms-pools/SousChef.sol:SousChef",
								"label": "accRewardPerShare",
								"offset": 0,
								"slot": "1",
								"type": "t_uint256"
							}
						],
						"numberOfBytes": "64"
					},
					"t_struct(UserInfo)790_storage": {
						"encoding": "inplace",
						"label": "struct SousChef.UserInfo",
						"members": [
							{
								"astId": 785,
								"contract": "farms-pools/SousChef.sol:SousChef",
								"label": "amount",
								"offset": 0,
								"slot": "0",
								"type": "t_uint256"
							},
							{
								"astId": 787,
								"contract": "farms-pools/SousChef.sol:SousChef",
								"label": "rewardDebt",
								"offset": 0,
								"slot": "1",
								"type": "t_uint256"
							},
							{
								"astId": 789,
								"contract": "farms-pools/SousChef.sol:SousChef",
								"label": "rewardPending",
								"offset": 0,
								"slot": "2",
								"type": "t_uint256"
							}
						],
						"numberOfBytes": "96"
					},
					"t_uint256": {
						"encoding": "inplace",
						"label": "uint256",
						"numberOfBytes": "32"
					}
				}
			},
			"userdoc": {
				"kind": "user",
				"methods": {},
				"version": 1
			}
		}
	}
}